{
  "address": "0x0aD0599bCB1670ea1350f05C6daafC2b949eDB79",
  "abi": [
    {
      "anonymous": false,
      "inputs": [
        {
          "indexed": false,
          "internalType": "address",
          "name": "",
          "type": "address"
        }
      ],
      "name": "ApproveWallet",
      "type": "event"
    },
    {
      "anonymous": false,
      "inputs": [
        {
          "indexed": true,
          "internalType": "address",
          "name": "previousOwner",
          "type": "address"
        },
        {
          "indexed": true,
          "internalType": "address",
          "name": "newOwner",
          "type": "address"
        }
      ],
      "name": "OwnershipTransferred",
      "type": "event"
    },
    {
      "anonymous": false,
      "inputs": [
        {
          "indexed": false,
          "internalType": "address",
          "name": "",
          "type": "address"
        }
      ],
      "name": "RevokeWallet",
      "type": "event"
    },
    {
      "inputs": [
        {
          "internalType": "address",
          "name": "_wallet",
          "type": "address"
        }
      ],
      "name": "approveWallet",
      "outputs": [],
      "stateMutability": "nonpayable",
      "type": "function"
    },
    {
      "inputs": [
        {
          "internalType": "address",
          "name": "_wallet",
          "type": "address"
        }
      ],
      "name": "check",
      "outputs": [
        {
          "internalType": "bool",
          "name": "",
          "type": "bool"
        }
      ],
      "stateMutability": "view",
      "type": "function"
    },
    {
      "inputs": [],
      "name": "owner",
      "outputs": [
        {
          "internalType": "address",
          "name": "",
          "type": "address"
        }
      ],
      "stateMutability": "view",
      "type": "function"
    },
    {
      "inputs": [],
      "name": "renounceOwnership",
      "outputs": [],
      "stateMutability": "nonpayable",
      "type": "function"
    },
    {
      "inputs": [
        {
          "internalType": "address",
          "name": "_wallet",
          "type": "address"
        }
      ],
      "name": "revokeWallet",
      "outputs": [],
      "stateMutability": "nonpayable",
      "type": "function"
    },
    {
      "inputs": [
        {
          "internalType": "address",
          "name": "newOwner",
          "type": "address"
        }
      ],
      "name": "transferOwnership",
      "outputs": [],
      "stateMutability": "nonpayable",
      "type": "function"
    }
  ],
  "transactionHash": "0x098e870f70772cd460fbbf1c40bbd435f04088e72c75077194be562758a95b6b",
  "args": [],
  "numDeployments": 1,
  "solcInputHash": "2ff00086581eb1823ec2dd923fc79024",
  "bytecode": "0x6080806040523461005b5760008054336001600160a01b0319821681178355916001600160a01b03909116907f8be0079c531659141344cd1fd0a4f28419497f9722a3daafe3b4186f6b6457e09080a36103b590816100618239f35b600080fdfe60406080815260048036101561001457600080fd5b600091823560e01c80630fcb0ae5146102a2578063715018a614610239578063808a9d40146101b85780638da5cb5b1461018e578063c23697a8146101505763f2fde38b1461006257600080fd5b3461014c57602036600319011261014c578135916001600160a01b039182841680940361014857610091610327565b83156100df57505082548273ffffffffffffffffffffffffffffffffffffffff198216178455167f8be0079c531659141344cd1fd0a4f28419497f9722a3daafe3b4186f6b6457e08380a380f35b906020608492519162461bcd60e51b8352820152602660248201527f4f776e61626c653a206e6577206f776e657220697320746865207a65726f206160448201527f64647265737300000000000000000000000000000000000000000000000000006064820152fd5b8480fd5b8280fd5b50903461014c57602036600319011261014c57356001600160a01b03811680910361014c57818360ff92602095526001855220541690519015158152f35b8382346101b457816003193601126101b4576001600160a01b0360209254169051908152f35b5080fd5b50903461014c57602036600319011261014c5735906001600160a01b03821680920361014c576101e6610327565b81835260016020528083209182549160ff8316610201578480f35b7f1b676c3cc753786cb95aff57280fd7406f1da74e2a8b9755fdd395aded3e16dd9360209360ff1916905551908152a1388080808480f35b833461029f578060031936011261029f57610252610327565b806001600160a01b03815473ffffffffffffffffffffffffffffffffffffffff1981168355167f8be0079c531659141344cd1fd0a4f28419497f9722a3daafe3b4186f6b6457e08280a380f35b80fd5b50903461014c57602036600319011261014c5735906001600160a01b03821680920361014c576102d0610327565b81835260016020528083209182549160ff8316156102ec578480f35b7fc1e7aae3f3125e58cfc69ab2a872a655dbb9427614aa85b29bb5abeaca4d6a9293600160209460ff191617905551908152a1388080808480f35b6001600160a01b0360005416330361033b57565b606460405162461bcd60e51b815260206004820152602060248201527f4f776e61626c653a2063616c6c6572206973206e6f7420746865206f776e65726044820152fdfea264697066735822122074b71c41e248d033395b1ebb58830e17b59b92091e0cee2f6deab7f283be411f64736f6c63430008120033",
  "devdoc": {
    "kind": "dev",
    "methods": {
      "approveWallet(address)": {
        "params": {
          "_wallet": "the wallet to approve"
        }
      },
      "check(address)": {
        "params": {
          "_wallet": "the wallet to check"
        },
        "returns": {
          "_0": "true if wallet is whitelisted"
        }
      },
      "owner()": {
        "details": "Returns the address of the current owner."
      },
      "renounceOwnership()": {
        "details": "Leaves the contract without owner. It will not be possible to call `onlyOwner` functions. Can only be called by the current owner. NOTE: Renouncing ownership will leave the contract without an owner, thereby disabling any functionality that is only available to the owner."
      },
      "revokeWallet(address)": {
        "params": {
          "_wallet": "the wallet to revoke"
        }
      },
      "transferOwnership(address)": {
        "details": "Transfers ownership of the contract to a new account (`newOwner`). Can only be called by the current owner."
      }
    },
    "title": "Whitelist",
    "version": 1
  },
  "userdoc": {
    "events": {
      "ApproveWallet(address)": {
        "notice": "events of approval and revoking wallets"
      }
    },
    "kind": "user",
    "methods": {
      "approveWallet(address)": {
        "notice": "approves wallet"
      },
      "check(address)": {
        "notice": "checks if _wallet is whitelisted"
      },
      "revokeWallet(address)": {
        "notice": "revokes wallet"
      }
    },
    "notice": "contains a list of wallets allowed to perform a certain operation",
    "version": 1
  },
  "storageLayout": {
    "storage": [
      {
        "astId": 3924,
        "contract": "contracts/wombat-governance/Whitelist.sol:Whitelist",
        "label": "_owner",
        "offset": 0,
        "slot": "0",
        "type": "t_address"
      },
      {
        "astId": 41772,
        "contract": "contracts/wombat-governance/Whitelist.sol:Whitelist",
        "label": "wallets",
        "offset": 0,
        "slot": "1",
        "type": "t_mapping(t_address,t_bool)"
      }
    ],
    "types": {
      "t_address": {
        "encoding": "inplace",
        "label": "address",
        "numberOfBytes": "20"
      },
      "t_bool": {
        "encoding": "inplace",
        "label": "bool",
        "numberOfBytes": "1"
      },
      "t_mapping(t_address,t_bool)": {
        "encoding": "mapping",
        "key": "t_address",
        "label": "mapping(address => bool)",
        "numberOfBytes": "32",
        "value": "t_bool"
      }
    }
  }
}