{
  "address": "0xD0599dB1eDb0ce601AFCc59779fa21FEfaC83786",
  "abi": [
    {
      "inputs": [],
      "name": "VEWOM_OVERFLOW",
      "type": "error"
    },
    {
      "anonymous": false,
      "inputs": [
        {
          "indexed": true,
          "internalType": "address",
          "name": "account",
          "type": "address"
        },
        {
          "indexed": false,
          "internalType": "uint256",
          "name": "value",
          "type": "uint256"
        }
      ],
      "name": "Burn",
      "type": "event"
    },
    {
      "anonymous": false,
      "inputs": [
        {
          "indexed": false,
          "internalType": "address",
          "name": "addr",
          "type": "address"
        },
        {
          "indexed": false,
          "internalType": "uint256",
          "name": "unlockTime",
          "type": "uint256"
        },
        {
          "indexed": false,
          "internalType": "uint256",
          "name": "womAmount",
          "type": "uint256"
        },
        {
          "indexed": false,
          "internalType": "uint256",
          "name": "veWomAmount",
          "type": "uint256"
        }
      ],
      "name": "Enter",
      "type": "event"
    },
    {
      "anonymous": false,
      "inputs": [
        {
          "indexed": false,
          "internalType": "address",
          "name": "addr",
          "type": "address"
        },
        {
          "indexed": false,
          "internalType": "uint256",
          "name": "unlockTime",
          "type": "uint256"
        },
        {
          "indexed": false,
          "internalType": "uint256",
          "name": "womAmount",
          "type": "uint256"
        },
        {
          "indexed": false,
          "internalType": "uint256",
          "name": "veWomAmount",
          "type": "uint256"
        }
      ],
      "name": "Exit",
      "type": "event"
    },
    {
      "anonymous": false,
      "inputs": [
        {
          "indexed": false,
          "internalType": "uint8",
          "name": "version",
          "type": "uint8"
        }
      ],
      "name": "Initialized",
      "type": "event"
    },
    {
      "anonymous": false,
      "inputs": [
        {
          "indexed": true,
          "internalType": "address",
          "name": "beneficiary",
          "type": "address"
        },
        {
          "indexed": false,
          "internalType": "uint256",
          "name": "value",
          "type": "uint256"
        }
      ],
      "name": "Mint",
      "type": "event"
    },
    {
      "anonymous": false,
      "inputs": [
        {
          "indexed": true,
          "internalType": "address",
          "name": "previousOwner",
          "type": "address"
        },
        {
          "indexed": true,
          "internalType": "address",
          "name": "newOwner",
          "type": "address"
        }
      ],
      "name": "OwnershipTransferred",
      "type": "event"
    },
    {
      "anonymous": false,
      "inputs": [
        {
          "indexed": false,
          "internalType": "address",
          "name": "account",
          "type": "address"
        }
      ],
      "name": "Paused",
      "type": "event"
    },
    {
      "anonymous": false,
      "inputs": [
        {
          "indexed": false,
          "internalType": "address",
          "name": "addr",
          "type": "address"
        }
      ],
      "name": "SetMasterWombat",
      "type": "event"
    },
    {
      "anonymous": false,
      "inputs": [
        {
          "indexed": false,
          "internalType": "uint256",
          "name": "len",
          "type": "uint256"
        }
      ],
      "name": "SetMaxBreedingLength",
      "type": "event"
    },
    {
      "anonymous": false,
      "inputs": [
        {
          "indexed": false,
          "internalType": "address",
          "name": "addr",
          "type": "address"
        }
      ],
      "name": "SetVoter",
      "type": "event"
    },
    {
      "anonymous": false,
      "inputs": [
        {
          "indexed": false,
          "internalType": "address",
          "name": "addr",
          "type": "address"
        }
      ],
      "name": "SetWhiteList",
      "type": "event"
    },
    {
      "anonymous": false,
      "inputs": [
        {
          "indexed": false,
          "internalType": "address",
          "name": "account",
          "type": "address"
        }
      ],
      "name": "Unpaused",
      "type": "event"
    },
    {
      "anonymous": false,
      "inputs": [
        {
          "indexed": false,
          "internalType": "address",
          "name": "addr",
          "type": "address"
        },
        {
          "indexed": false,
          "internalType": "uint256",
          "name": "slot",
          "type": "uint256"
        },
        {
          "indexed": false,
          "internalType": "uint256",
          "name": "unlockTime",
          "type": "uint256"
        },
        {
          "indexed": false,
          "internalType": "uint256",
          "name": "womAmount",
          "type": "uint256"
        },
        {
          "indexed": false,
          "internalType": "uint256",
          "name": "originalVeWomAmount",
          "type": "uint256"
        },
        {
          "indexed": false,
          "internalType": "uint256",
          "name": "newVeWomAmount",
          "type": "uint256"
        }
      ],
      "name": "UpdateLockTime",
      "type": "event"
    },
    {
      "inputs": [
        {
          "internalType": "address",
          "name": "account",
          "type": "address"
        }
      ],
      "name": "balanceOf",
      "outputs": [
        {
          "internalType": "uint256",
          "name": "",
          "type": "uint256"
        }
      ],
      "stateMutability": "view",
      "type": "function"
    },
    {
      "inputs": [
        {
          "internalType": "uint256",
          "name": "slot",
          "type": "uint256"
        }
      ],
      "name": "burn",
      "outputs": [],
      "stateMutability": "nonpayable",
      "type": "function"
    },
    {
      "inputs": [],
      "name": "decimals",
      "outputs": [
        {
          "internalType": "uint8",
          "name": "",
          "type": "uint8"
        }
      ],
      "stateMutability": "view",
      "type": "function"
    },
    {
      "inputs": [
        {
          "internalType": "address",
          "name": "addr",
          "type": "address"
        }
      ],
      "name": "getUserInfo",
      "outputs": [
        {
          "components": [
            {
              "internalType": "uint256[10]",
              "name": "reserved",
              "type": "uint256[10]"
            },
            {
              "components": [
                {
                  "internalType": "uint48",
                  "name": "unlockTime",
                  "type": "uint48"
                },
                {
                  "internalType": "uint104",
                  "name": "womAmount",
                  "type": "uint104"
                },
                {
                  "internalType": "uint104",
                  "name": "veWomAmount",
                  "type": "uint104"
                }
              ],
              "internalType": "struct IVeWom.Breeding[]",
              "name": "breedings",
              "type": "tuple[]"
            }
          ],
          "internalType": "struct IVeWom.UserInfo",
          "name": "",
          "type": "tuple"
        }
      ],
      "stateMutability": "view",
      "type": "function"
    },
    {
      "inputs": [
        {
          "internalType": "address",
          "name": "_addr",
          "type": "address"
        }
      ],
      "name": "getUserOverview",
      "outputs": [
        {
          "internalType": "uint256",
          "name": "womLocked",
          "type": "uint256"
        },
        {
          "internalType": "uint256",
          "name": "veWomBalance",
          "type": "uint256"
        }
      ],
      "stateMutability": "view",
      "type": "function"
    },
    {
      "inputs": [
        {
          "internalType": "contract IERC20",
          "name": "_wom",
          "type": "address"
        },
        {
          "internalType": "contract IMasterWombat",
          "name": "_masterWombat",
          "type": "address"
        }
      ],
      "name": "initialize",
      "outputs": [],
      "stateMutability": "nonpayable",
      "type": "function"
    },
    {
      "inputs": [
        {
          "internalType": "address",
          "name": "_addr",
          "type": "address"
        }
      ],
      "name": "isUser",
      "outputs": [
        {
          "internalType": "bool",
          "name": "",
          "type": "bool"
        }
      ],
      "stateMutability": "view",
      "type": "function"
    },
    {
      "inputs": [],
      "name": "masterWombat",
      "outputs": [
        {
          "internalType": "contract IMasterWombat",
          "name": "",
          "type": "address"
        }
      ],
      "stateMutability": "view",
      "type": "function"
    },
    {
      "inputs": [
        {
          "internalType": "uint256",
          "name": "amount",
          "type": "uint256"
        },
        {
          "internalType": "uint256",
          "name": "lockDays",
          "type": "uint256"
        }
      ],
      "name": "mint",
      "outputs": [
        {
          "internalType": "uint256",
          "name": "veWomAmount",
          "type": "uint256"
        }
      ],
      "stateMutability": "nonpayable",
      "type": "function"
    },
    {
      "inputs": [],
      "name": "name",
      "outputs": [
        {
          "internalType": "string",
          "name": "",
          "type": "string"
        }
      ],
      "stateMutability": "view",
      "type": "function"
    },
    {
      "inputs": [],
      "name": "owner",
      "outputs": [
        {
          "internalType": "address",
          "name": "",
          "type": "address"
        }
      ],
      "stateMutability": "view",
      "type": "function"
    },
    {
      "inputs": [],
      "name": "pause",
      "outputs": [],
      "stateMutability": "nonpayable",
      "type": "function"
    },
    {
      "inputs": [],
      "name": "paused",
      "outputs": [
        {
          "internalType": "bool",
          "name": "",
          "type": "bool"
        }
      ],
      "stateMutability": "view",
      "type": "function"
    },
    {
      "inputs": [],
      "name": "renounceOwnership",
      "outputs": [],
      "stateMutability": "nonpayable",
      "type": "function"
    },
    {
      "inputs": [
        {
          "internalType": "contract IMasterWombat",
          "name": "_masterWombat",
          "type": "address"
        }
      ],
      "name": "setMasterWombat",
      "outputs": [],
      "stateMutability": "nonpayable",
      "type": "function"
    },
    {
      "inputs": [
        {
          "internalType": "uint256",
          "name": "_maxBreedingLength",
          "type": "uint256"
        }
      ],
      "name": "setMaxBreedingLength",
      "outputs": [],
      "stateMutability": "nonpayable",
      "type": "function"
    },
    {
      "inputs": [
        {
          "internalType": "address",
          "name": "_voter",
          "type": "address"
        }
      ],
      "name": "setVoter",
      "outputs": [],
      "stateMutability": "nonpayable",
      "type": "function"
    },
    {
      "inputs": [
        {
          "internalType": "contract IWhitelist",
          "name": "_whitelist",
          "type": "address"
        }
      ],
      "name": "setWhitelist",
      "outputs": [],
      "stateMutability": "nonpayable",
      "type": "function"
    },
    {
      "inputs": [],
      "name": "symbol",
      "outputs": [
        {
          "internalType": "string",
          "name": "",
          "type": "string"
        }
      ],
      "stateMutability": "view",
      "type": "function"
    },
    {
      "inputs": [],
      "name": "totalSupply",
      "outputs": [
        {
          "internalType": "uint256",
          "name": "",
          "type": "uint256"
        }
      ],
      "stateMutability": "view",
      "type": "function"
    },
    {
      "inputs": [
        {
          "internalType": "address",
          "name": "newOwner",
          "type": "address"
        }
      ],
      "name": "transferOwnership",
      "outputs": [],
      "stateMutability": "nonpayable",
      "type": "function"
    },
    {
      "inputs": [],
      "name": "unpause",
      "outputs": [],
      "stateMutability": "nonpayable",
      "type": "function"
    },
    {
      "inputs": [
        {
          "internalType": "uint256",
          "name": "slot",
          "type": "uint256"
        },
        {
          "internalType": "uint256",
          "name": "lockDays",
          "type": "uint256"
        }
      ],
      "name": "update",
      "outputs": [
        {
          "internalType": "uint256",
          "name": "newVeWomAmount",
          "type": "uint256"
        }
      ],
      "stateMutability": "nonpayable",
      "type": "function"
    },
    {
      "inputs": [
        {
          "internalType": "address",
          "name": "",
          "type": "address"
        }
      ],
      "name": "usedVote",
      "outputs": [
        {
          "internalType": "uint256",
          "name": "",
          "type": "uint256"
        }
      ],
      "stateMutability": "view",
      "type": "function"
    },
    {
      "inputs": [
        {
          "internalType": "address",
          "name": "_user",
          "type": "address"
        },
        {
          "internalType": "int256",
          "name": "_voteDelta",
          "type": "int256"
        }
      ],
      "name": "vote",
      "outputs": [],
      "stateMutability": "nonpayable",
      "type": "function"
    },
    {
      "inputs": [],
      "name": "voter",
      "outputs": [
        {
          "internalType": "address",
          "name": "",
          "type": "address"
        }
      ],
      "stateMutability": "view",
      "type": "function"
    },
    {
      "inputs": [],
      "name": "whitelist",
      "outputs": [
        {
          "internalType": "contract IWhitelist",
          "name": "",
          "type": "address"
        }
      ],
      "stateMutability": "view",
      "type": "function"
    },
    {
      "inputs": [],
      "name": "wom",
      "outputs": [
        {
          "internalType": "contract IERC20",
          "name": "",
          "type": "address"
        }
      ],
      "stateMutability": "view",
      "type": "function"
    }
  ],
  "transactionHash": "0xc4ec95b0c9685ac29418b0ebb6bd2f3c7b1a8b0d70b4c96b2ba07913e6c25b11",
  "args": [],
  "numDeployments": 1,
  "solcInputHash": "44e8ce44467b86c7a5d911cba6e2b5f8",
  "bytecode": "0x6080806040523461001657613a04908161001c8239f35b600080fdfe6080604052600436101561001257600080fd5b60003560e01c806306fdde03146101d75780630705999d146101d25780630a7feeb2146101cd57806318160ddd146101c85780631b2ef1ca146101c35780632fb565e8146101be578063313ce567146101b95780633bd61ba8146101b45780633f4ba83a146101af5780634209fff1146101aa57806342966c68146101a557806346c96aac146101a0578063485cc9551461019b5780634bc2a65714610196578063552eec2f146101915780635c975abb1461018c5780636386c1c71461018757806370a0823114610182578063715018a61461017d5780638456cb5914610178578063854cff2f146101735780638da5cb5b1461016e57806393e59dc11461016957806395d89b4114610164578063b0dfaa7a1461015f578063c5a6222e1461015a578063d4c9b0d1146101555763f2fde38b1461015057600080fd5b61145b565b6113d7565b6113b0565b6112dd565b611236565b61120f565b6111e8565b611171565b611117565b6110bb565b611099565b610f8a565b610ec8565b610e17565b610da0565b610ca7565b610c80565b6109c7565b610981565b6108e5565b6108be565b6108a2565b6105da565b6103f4565b6103d6565b610397565b610320565b610225565b6020808252825181830181905290939260005b82811061021157505060409293506000838284010152601f8019910116010190565b8181018601518482016040015285016101ef565b3461030a5760008060031936011261030757604051908060cc54610248816115a2565b808552916001918083169081156102dd5750600114610282575b61027e8561027281870382611647565b604051918291826101dc565b0390f35b925060cc83527f47197230e1e4b29fc0bd84d7d78966c0925452aff72a2a121538b102457e9ebe5b8284106102c55750505081016020016102728261027e610262565b805460208587018101919091529093019281016102aa565b86955061027e9693506020925061027294915060ff191682840152151560051b8201019293610262565b80fd5b600080fd5b6001600160a01b0381160361030a57565b3461030a57602036600319011261030a577ffeb9010869b6ccec4557ddbbce947afeace5efc66cdff52c5e533c09336a8f2d60206001600160a01b036004356103688161030f565b610370611502565b1661037c8115156116da565b806001600160a01b031960fc54161760fc55604051908152a1005b3461030a57602036600319011261030a576001600160a01b036004356103bc8161030f565b166000526101006020526020604060002054604051908152f35b3461030a57600036600319011261030a57602060cb54604051908152f35b3461030a5760408060031936011261030a57602435600435610414611f2d565b61041c611cce565b610427811515611db7565b6001600160681b03918282116105ca576104403361276a565b61048f60fd5463ffffffff808260c01c16841015806105bc575b61046390611e02565b600a610482336001600160a01b031660005260fe602052604060002090565b01549160a01c1611611e4d565b6104ab6104a461049e83611e98565b42611d62565b918361228a565b9265ffffffffffff908183116105ac578085116105ac579161055360209694927f3af2c1ec57343b1e7e40c3f6c85f5ad943344cd8548bdf819f1da51aaebb3db69461054e600a61050f336001600160a01b031660005260fe602052604060002090565b019161052d61051c611725565b948716859065ffffffffffff169052565b6001600160681b0387821616848c015289166001600160681b031688840152565b611eab565b6105728261056960fb546001600160a01b031690565b30903390611f82565b61057c85336121a2565b83513381526020810191909152604081019190915260608101849052608090a16105a66001606555565b51908152f35b60048651637e68564560e01b8152fd5b5060e082901c84111561045a565b60048451637e68564560e01b8152fd5b3461030a57604036600319011261030a576004356024356105f9611f2d565b610601611cce565b61060a3361276a565b61062a60fd5463ffffffff8160c01c168310159081610894575b50611e02565b600a916106578361064e336001600160a01b031660005260fe602052604060002090565b01548210612617565b61069d610692610685838661067f336001600160a01b031660005260fe602052604060002090565b01611d34565b505465ffffffffffff1690565b65ffffffffffff1690565b916106e36106d76106c6848761067f336001600160a01b031660005260fe602052604060002090565b505460301c6001600160681b031690565b6001600160681b031690565b916107146106d761070c838861067f336001600160a01b031660005260fe602052604060002090565b505460981c90565b9361072b61072461049e85611e98565b938561228a565b9465ffffffffffff90818511610883576001600160681b0395868811610883576108227ff8e2edd66620761fcb68d32d12d6e8c57350084b4756209ed054979196a2b9f9976107e78760209c6107d38d9861078a8d61086e9c10612688565b6107958a8a106126f9565b6107b7848461067f336001600160a01b031660005260fe602052604060002090565b50908d1665ffffffffffff1665ffffffffffff19825416179055565b33600090815260fe6020526040902061067f565b5090851672ffffffffffffffffffffffffffffffffffffff72ffffffffffffffffffffffffffffffffffffff1983549260981b169116179055565b61083561082f83856123a1565b336121a2565b60405195869533879260a09491979695926001600160a01b0360c086019916855260208501526040840152606083015260808201520152565b0390a161087b6001606555565b604051908152f35b6004604051637e68564560e01b8152fd5b905060e01c82111538610624565b3461030a57600036600319011261030a57602060405160128152f35b3461030a57600036600319011261030a5760206001600160a01b0360fc5416604051908152f35b3461030a57600036600319011261030a576108fe611502565b60975460ff81161561093d5760ff19166097557f5db9ee0a495bf2e6ff9c91a7834c1ba4fdd244a5e8aa4e537bd38aeae4b073aa6020604051338152a1005b606460405162461bcd60e51b815260206004820152601460248201527f5061757361626c653a206e6f74207061757365640000000000000000000000006044820152fd5b3461030a57602036600319011261030a5760206109bd6004356109a38161030f565b6001600160a01b031660005260c960205260406000205490565b1515604051908152f35b3461030a57602036600319011261030a5760006004356109e5611f2d565b6109ed611cce565b600a610a0c336001600160a01b031660005260fe602052604060002090565b0154610a198183106122fc565b610a45610a3f83600a61067f336001600160a01b031660005260fe602052604060002090565b50611d6f565b91610a64610a5c610692855165ffffffffffff1690565b421015612347565b610a6d82612392565b8103610c19575b5050610a9e600a610a98336001600160a01b031660005260fe602052604060002090565b01612452565b610abf610ab360fb546001600160a01b031690565b6001600160a01b031690565b6020610b2481840192610ad984516001600160681b031690565b6040517fa9059cbb0000000000000000000000000000000000000000000000000000000081523360048201526001600160681b03909116602482015295869283919082906044820190565b03925af1928315610c14577f275029c7b988945c03ac5499c0d532fce79ce36efab42e1b3f180a62001cad2c93610be6575b50610bd7610b9f610b91610b916040860195610b85610b7f6106d789516001600160681b031690565b33612507565b5165ffffffffffff1690565b93516001600160681b031690565b6040805133815265ffffffffffff90941660208501526001600160681b03948516908401529290921660608201529081906080820190565b0390a1610be46001606555565b005b610c069060203d8111610c0d575b610bfe8183611647565b810190612085565b5038610b56565b503d610bf4565b61248a565b610c73610c52610c7993610c4c600a610c45336001600160a01b031660005260fe602052604060002090565b0191612392565b90611d34565b5091600a61067f336001600160a01b031660005260fe602052604060002090565b906123ae565b3880610a74565b3461030a57600036600319011261030a5760206001600160a01b0360ff5416604051908152f35b3461030a57604036600319011261030a57600435610cc48161030f565b610d14602435610cd38161030f565b60005492610cf860ff8560081c161580958196610d92575b8115610d72575b50611669565b83610d0b600160ff196000541617600055565b610d5957611761565b610d1a57005b610d2a61ff001960005416600055565b604051600181527f7f26b83ff96e1f2b6a682f133852f6798a09c465da95921460cefb384740249890602090a1005b610d6d61010061ff00196000541617600055565b611761565b303b15915081610d84575b5038610cf2565b6001915060ff161438610d7d565b600160ff8216109150610ceb565b3461030a57602036600319011261030a577fc6ff127433b785c51da9ae4088ee184c909b1a55b9afd82ae6c64224d3bc15d260206001600160a01b03600435610de88161030f565b610df0611502565b16610dfc8115156116da565b806001600160a01b031960ff54161760ff55604051908152a1005b3461030a57602036600319011261030a57600435610e348161030f565b60006001600160a01b038216815260fe602052600a60408220019182549282905b848210610e8d5783610e7b846001600160a01b031660005260c960205260406000205490565b60408051928352602083019190915290f35b90926001600160681b03610ea18584611d34565b505460301c168101809111610ec357926000198114610ec35760010190610e55565b611d1e565b3461030a57600036600319011261030a57602060ff609754166040519015158152f35b60208082528251919261018084019260008386015b600a8210610f7557505050906101a0818094930151946101608082015285518094520193019160005b828110610f37575050505090565b8351805165ffffffffffff168652808301516001600160681b0390811687850152604091820151169086015260609094019392810192600101610f29565b84806001928551815201930191019091610f00565b3461030a5760208060031936011261030a57600435610fa88161030f565b60406060838251610fb8816115f2565b8351610fc38161160e565b610140368237815201526001600160a01b0360009216825260fe835280822091815192610fef846115f2565b8251818387835b600a83106110825750505050908161100f600a9361160e565b85520193845467ffffffffffffffff811161107d5783519295611038600583901b840185611647565b8184528652818620958284015b8282106110615750505061027e94508301525191829182610eeb565b600184819261106f8b611d6f565b815201980191019096611045565b6115dc565b600191829185548152019301910190918890610ff6565b3461030a57602036600319011261030a57602061087b6004356109a38161030f565b3461030a57600080600319360112610307576110d5611502565b806001600160a01b036033546001600160a01b03198116603355167f8be0079c531659141344cd1fd0a4f28419497f9722a3daafe3b4186f6b6457e08280a380f35b3461030a57600036600319011261030a57611130611502565b611138611cce565b600160ff1960975416176097557f62e78cea01bee320cd4e420270b5ea74000d11b0c9f74754ebdbfc544b05a2586020604051338152a1005b3461030a57602036600319011261030a577f3990e3e141b903f4f5602428874be692206642a653b416f336d965e2f04813ce60206001600160a01b036004356111b98161030f565b6111c1611502565b166111cd8115156116da565b806001600160a01b031960fd54161760fd55604051908152a1005b3461030a57600036600319011261030a5760206001600160a01b0360335416604051908152f35b3461030a57600036600319011261030a5760206001600160a01b0360fd5416604051908152f35b3461030a5760008060031936011261030757604051908060cd54611259816115a2565b808552916001918083169081156102dd57506001146112825761027e8561027281870382611647565b925060cd83527f83978b4c69c48dd978ab43fe30f077615294f938fb7f936d9eb340e51ea7db2e5b8284106112c55750505081016020016102728261027e610262565b805460208587018101919091529093019281016112aa565b3461030a57604036600319011261030a576004356112fa8161030f565b6024356001600160a01b03918260ff5416330361136c57600092838312611343578116835261010060205260408320918254908101809111610ec35761134092556128ec565b80f35b909161134e9061295a565b91168252610100602052604082208054918203918211610ec3575580f35b606460405162461bcd60e51b815260206004820152601a60248201527f5665576f6d3a2063616c6c6572206973206e6f7420766f7465720000000000006044820152fd5b3461030a57600036600319011261030a5760206001600160a01b0360fb5416604051908152f35b3461030a57602036600319011261030a576004356113f3611502565b63ffffffff81116108835760207f20fff119b2ff981a49e3649af737a2d9a9f9b4bd74c35c0448478c2bd4666a689160fd5463ffffffff60a01b1977ffffffff00000000000000000000000000000000000000008360a01b1691161760fd55604051908152a1005b3461030a57602036600319011261030a576004356114788161030f565b611480611502565b6001600160a01b0381161561149857610be49061155a565b608460405162461bcd60e51b815260206004820152602660248201527f4f776e61626c653a206e6577206f776e657220697320746865207a65726f206160448201527f64647265737300000000000000000000000000000000000000000000000000006064820152fd5b6001600160a01b0360335416330361151657565b606460405162461bcd60e51b815260206004820152602060248201527f4f776e61626c653a2063616c6c6572206973206e6f7420746865206f776e65726044820152fd5b603354906001600160a01b0380911691826001600160a01b0319821617603355167f8be0079c531659141344cd1fd0a4f28419497f9722a3daafe3b4186f6b6457e0600080a3565b90600182811c921680156115d2575b60208310146115bc57565b634e487b7160e01b600052602260045260246000fd5b91607f16916115b1565b634e487b7160e01b600052604160045260246000fd5b6040810190811067ffffffffffffffff82111761107d57604052565b610140810190811067ffffffffffffffff82111761107d57604052565b60a0810190811067ffffffffffffffff82111761107d57604052565b90601f8019910116810190811067ffffffffffffffff82111761107d57604052565b1561167057565b608460405162461bcd60e51b815260206004820152602e60248201527f496e697469616c697a61626c653a20636f6e747261637420697320616c72656160448201527f647920696e697469616c697a65640000000000000000000000000000000000006064820152fd5b156116e157565b606460405162461bcd60e51b815260206004820152600c60248201527f7a65726f206164647265737300000000000000000000000000000000000000006044820152fd5b604051906060820182811067ffffffffffffffff82111761107d57604052565b67ffffffffffffffff811161107d57601f01601f191660200190565b906117836001600160a01b0361177a81841615156116da565b831615156116da565b60405161178f816115f2565b600d81526020907f576f6d62617420576164646c650000000000000000000000000000000000000082820152604051916117c8836115f2565b600583527f7665574f4d0000000000000000000000000000000000000000000000000000008184015261181460ff60005460081c1661180681611a28565b61180f81611a28565b611a28565b81519167ffffffffffffffff831161107d5761183a8361183560cc546115a2565b611b02565b81601f8411600114611994575092826118c9969593611879936118ad96600092611989575b50508160011b916000199060031b1c19161760cc55611be4565b611881611a99565b611889611ad4565b611891611ab7565b6001600160a01b03166001600160a01b031960fc54161760fc55565b6001600160a01b03166001600160a01b031960fb54161760fb55565b6118f6752710000000000000000000000000000000000000000063ffffffff60a01b1960fd54161760fd55565b61193e78070000000000000000000000000000000000000000000000007fffffffff00000000ffffffffffffffffffffffffffffffffffffffffffffffff60fd54161760fd55565b6119877d05b5000000000000000000000000000000000000000000000000000000007bffffffffffffffffffffffffffffffffffffffffffffffffffffffff60fd54161760fd55565b565b01519050388061185f565b60cc6000529190601f1984167f47197230e1e4b29fc0bd84d7d78966c0925452aff72a2a121538b102457e9ebe936000905b828210611a1057505093611879936118ad9693600193836118c99b9a98106119f7575b505050811b0160cc55611be4565b015160001960f88460031b161c191690553880806119e9565b806001869782949787015181550196019401906119c6565b15611a2f57565b608460405162461bcd60e51b815260206004820152602b60248201527f496e697469616c697a61626c653a20636f6e7472616374206973206e6f74206960448201527f6e697469616c697a696e670000000000000000000000000000000000000000006064820152fd5b611aae60ff60005460081c1661180f81611a28565b6119873361155a565b611ac860ff60005460081c16611a28565b60ff1960975416609755565b611ae560ff60005460081c16611a28565b6001606555565b634e487b7160e01b600052600060045260246000fd5b601f8111611b0e575050565b60009060cc82527f47197230e1e4b29fc0bd84d7d78966c0925452aff72a2a121538b102457e9ebe906020601f850160051c83019410611b69575b601f0160051c01915b828110611b5e57505050565b818155600101611b52565b9092508290611b49565b601f8111611b7f575050565b60009060cd82527f83978b4c69c48dd978ab43fe30f077615294f938fb7f936d9eb340e51ea7db2e906020601f850160051c83019410611bda575b601f0160051c01915b828110611bcf57505050565b818155600101611bc3565b9092508290611bba565b90815167ffffffffffffffff811161107d57611c0a81611c0560cd546115a2565b611b73565b602080601f8311600114611c465750819293600092611c3b575b50508160011b916000199060031b1c19161760cd55565b015190503880611c24565b90601f19831694611c7960cd6000527f83978b4c69c48dd978ab43fe30f077615294f938fb7f936d9eb340e51ea7db2e90565b926000905b878210611cb6575050836001959610611c9d575b505050811b0160cd55565b015160001960f88460031b161c19169055388080611c92565b80600185968294968601518155019501930190611c7e565b60ff60975416611cda57565b606460405162461bcd60e51b815260206004820152601060248201527f5061757361626c653a20706175736564000000000000000000000000000000006044820152fd5b634e487b7160e01b600052601160045260246000fd5b8054821015611d4c5760005260206000200190600090565b634e487b7160e01b600052603260045260246000fd5b91908201809211610ec357565b906040516060810181811067ffffffffffffffff82111761107d57604052604081935465ffffffffffff811683526001600160681b038160301c16602084015260981c910152565b15611dbe57565b606460405162461bcd60e51b815260206004820152602060248201527f616d6f756e7420746f206465706f7369742063616e6e6f74206265207a65726f6044820152fd5b15611e0957565b606460405162461bcd60e51b815260206004820152601460248201527f6c6f636b206461797320697320696e76616c69640000000000000000000000006044820152fd5b15611e5457565b606460405162461bcd60e51b815260206004820152600e60248201527f627265656420746f6f206d7563680000000000000000000000000000000000006044820152fd5b90620151809180830292830403610ec357565b80546801000000000000000081101561107d57611ecd91600182018155611d34565b611f28578151602083015160409093015160981b72ffffffffffffffffffffffffffffffffffffff191672ffffffffffffffffffffffffff00000000000060309490941b9390931665ffffffffffff90911617919091179055565b611aec565b600260655414611f3e576002606555565b606460405162461bcd60e51b815260206004820152601f60248201527f5265656e7472616e637947756172643a207265656e7472616e742063616c6c006044820152fd5b61205091600080611987969560405194602097888701957f23b872dd0000000000000000000000000000000000000000000000000000000087526001600160a01b03938480921660248a0152166044880152606487015260648652611fe68661162b565b169260405194611ff5866115f2565b8786527f5361666545524332303a206c6f772d6c6576656c2063616c6c206661696c656488870152519082855af13d1561207d573d9161203483611745565b926120426040519485611647565b83523d60008785013e61210e565b8051918215928315612065575b50505061209d565b6120759350820181019101612085565b38808061205d565b60609161210e565b9081602091031261030a5751801515810361030a5790565b156120a457565b608460405162461bcd60e51b815260206004820152602a60248201527f5361666545524332303a204552433230206f7065726174696f6e20646964206e60448201527f6f742073756363656564000000000000000000000000000000000000000000006064820152fd5b9192901561216f5750815115612122575090565b3b1561212b5790565b606460405162461bcd60e51b815260206004820152601d60248201527f416464726573733a2063616c6c20746f206e6f6e2d636f6e74726163740000006044820152fd5b8251909150156121825750805190602001fd5b61219e9060405191829162461bcd60e51b8352600483016101dc565b0390fd5b6001600160a01b03811680156122465760cb54838101809111610ec35760cb556121df826001600160a01b031660005260c9602052604060002090565b805490848201809211610ec35755604051928352611987927f0f6798a560793a54c3bcfe86a93cde1e73087d944c0ea20544137d41213968859080602081015b0390a261223f816001600160a01b031660005260c9602052604060002090565b549061286f565b606460405162461bcd60e51b815260206004820152601f60248201527f45524332303a206d696e7420746f20746865207a65726f2061646472657373006044820152fd5b90665cf26ab61477b891828102928184041490151715610ec3576706f05b59d3b20000808301809311610ec357670de0b6b3a76400008093049183810290808204851490151715610ec3576122de90612e54565b91828102928184041490151715610ec3578101809111610ec3570490565b1561230357565b606460405162461bcd60e51b815260206004820152600460248201527f7775743f000000000000000000000000000000000000000000000000000000006044820152fd5b1561234e57565b606460405162461bcd60e51b815260206004820152600b60248201527f6e6f7420796574206d65680000000000000000000000000000000000000000006044820152fd5b600019810191908211610ec357565b91908203918211610ec357565b90611f28578181036123be575050565b8154815465ffffffffffff191665ffffffffffff9190911617815561198791805482547fffffffffffffffffffffffffff00000000000000000000000000ffffffffffff1672ffffffffffffffffffffffffff00000000000090911617825554815472ffffffffffffffffffffffffffffffffffffff1672ffffffffffffffffffffffffffffffffffffff19909116179055565b805480156124745760001901906124698282611d34565b611f28576000905555565b634e487b7160e01b600052603160045260246000fd5b6040513d6000823e3d90fd5b1561249d57565b608460405162461bcd60e51b815260206004820152602260248201527f45524332303a206275726e20616d6f756e7420657863656564732062616c616e60448201527f63650000000000000000000000000000000000000000000000000000000000006064820152fd5b6001600160a01b03811680156125ad577fcc16f5dbb4873280815c1ee09dbd06736cffcc184412cf7a71a0fdb75d397ca561221f846119879561255d866001600160a01b031660005260c9602052604060002090565b5461256a82821015612496565b03612588866001600160a01b031660005260c9602052604060002090565b5561259d6125988260cb546123a1565b60cb55565b6040519081529081906020820190565b608460405162461bcd60e51b815260206004820152602160248201527f45524332303a206275726e2066726f6d20746865207a65726f2061646472657360448201527f73000000000000000000000000000000000000000000000000000000000000006064820152fd5b1561261e57565b608460405162461bcd60e51b815260206004820152603560248201527f736c6f7420706f736974696f6e2073686f756c64206265206c6573732074686160448201527f6e20746865206e756d626572206f6620736c6f747300000000000000000000006064820152fd5b1561268f57565b608460405162461bcd60e51b815260206004820152603760248201527f746865206e657720656e642064617465206d757374206265206772656174657260448201527f207468616e206578697374696e6720656e6420646174650000000000000000006064820152fd5b1561270057565b608460405162461bcd60e51b815260206004820152603f60248201527f746865206e6577207665576f6d20616d6f756e74206d7573742062652067726560448201527f61746572207468616e206578697374696e67207665576f6d20616d6f756e74006064820152fd5b6001600160a01b0380911690328203612781575050565b60fd54168015159182612802575b50501561279857565b608460405162461bcd60e51b815260206004820152602560248201527f536d61727420636f6e7472616374206465706f7369746f7273206e6f7420616c60448201527f6c6f7765640000000000000000000000000000000000000000000000000000006064820152fd5b60209192506024604051809481937fc23697a800000000000000000000000000000000000000000000000000000000835260048301525afa908115610c1457600091612851575b50388061278f565b612869915060203d8111610c0d57610bfe8183611647565b38612849565b612878816128ec565b6001600160a01b038060fc5416803b1561030a576000928360449260405196879586947f4f00a93e00000000000000000000000000000000000000000000000000000000865216600485015260248401525af18015610c14576128d85750565b67ffffffffffffffff811161107d57604052565b6001600160a01b031660005260c96020526040600020546101006020526040600020541161291657565b606460405162461bcd60e51b815260206004820152601660248201527f5665576f6d3a206e6f7420656e6f75676820766f7465000000000000000000006044820152fd5b600160ff1b8114610ec35760000390565b906803782dace9d8ffffff198201918213600116610ec357565b906806f05b59d3b1ffffff198201918213600116610ec357565b9068ad78ebc5ac61ffffff198201918213600116610ec357565b906856bc75e2d630ffffff198201918213600116610ec357565b90682b5e3af16b187fffff198201918213600116610ec357565b906815af1d78b58c3fffff198201918213600116610ec357565b90680ad78ebc5ac61fffff198201918213600116610ec357565b9068056bc75e2d630fffff198201918213600116610ec357565b906802b5e3af16b187ffff198201918213600116610ec357565b9068015af1d78b58c3ffff198201918213600116610ec357565b906ec097ce7bc90715b34b9f0fffffffff198201918213600116610ec357565b908168056bc75e2d6310000001918212600116610ec357565b906803782dace9d90000009160008382019384129112908015821691151617610ec357565b9068ad78ebc5ac620000009160008382019384129112908015821691151617610ec357565b906856bc75e2d6310000009160008382019384129112908015821691151617610ec357565b90682b5e3af16b188000009160008382019384129112908015821691151617610ec357565b906815af1d78b58c4000009160008382019384129112908015821691151617610ec357565b90680ad78ebc5ac62000009160008382019384129112908015821691151617610ec357565b9068056bc75e2d631000009160008382019384129112908015821691151617610ec357565b906802b5e3af16b18800009160008382019384129112908015821691151617610ec357565b9068015af1d78b58c400009160008382019384129112908015821691151617610ec357565b9067ad78ebc5ac6200009160008382019384129112908015821691151617610ec357565b906756bc75e2d63100009160008382019384129112908015821691151617610ec357565b906ec097ce7bc90715b34b9f10000000009160008382019384129112908015821691151617610ec357565b91909160008382019384129112908015821691151617610ec357565b90606482029180830560641490151715610ec357565b906b02df0ab5a80a22c61ab5a70091828102928184051490151715610ec357565b90693f1fce3da636ea5cf85091828102928184051490151715610ec357565b90690127fa27722cc06cc5e291828102928184051490151715610ec357565b9068280e60114edb805d0391828102928184051490151715610ec357565b90680ebc5fb4174612111091828102928184051490151715610ec357565b906808f00f760a4b2db55d91828102928184051490151715610ec357565b906806f5f177578893793791828102928184051490151715610ec357565b9068056bc75e2d6310000091828102928184051490151715610ec357565b908160011b9180830560021490151715610ec357565b906ec097ce7bc90715b34b9f100000000091828102928184051490151715610ec357565b906706f05b59d3b2000091828102928184051490151715610ec357565b818102929160008212600160ff1b821416610ec3578184051490151715610ec357565b8015612e23576ec097ce7bc90715b34b9f10000000000590565b634e487b7160e01b600052601260045260246000fd5b8115612e2357600160ff1b8114600019831416610ec3570590565b8015612f6057600160ff1b811015612f2257670de0b6b3a7640000612ee59180670c7d713b49da00001280612f11575b15612efb57612e95612ec29161383f565b612ebc612eae84612ea7818505612dc9565b9307612dc9565b670de0b6b3a7640000900590565b90612c68565b0580680238fd42c5cf03ffff19131580612ee8575b612ee090612f66565b612ff0565b90565b5068070c1cc73b00c80000811315612ed7565b612f07612f0c91613406565b612dc9565b612ec2565b50670f43fc2c04ee00008112612e84565b62461bcd60e51b600052602060045260076024527f42414c233030360000000000000000000000000000000000000000000000000060445260646000fd5b50600090565b15612f6d57565b62461bcd60e51b600052602060045260076024527f42414c233030380000000000000000000000000000000000000000000000000060445260646000fd5b15612fb257565b62461bcd60e51b600052602060045260076024527f42414c233030390000000000000000000000000000000000000000000000000060445260646000fd5b680238fd42c5cf03ffff19811215806133f3575b61300d90612fab565b600081126133de576806f05b59d3b200000081126133a45761302e90612985565b613050770195e54c5dd42177f53a27172fa9ec63026282700000000091612c84565b68056bc75e2d631000009068ad78ebc5ac62000000811215613384575b6856bc75e2d631000000811215613369575b682b5e3af16b1880000081121561334e575b6815af1d78b58c400000811215613333575b680ad78ebc5ac6200000811215613318575b68056bc75e2d631000008112156132fd575b6802b5e3af16b18800008112156132e2575b68015af1d78b58c400008112156132b8575b8080808080808080806130fd81612a8f565b6131078280612de6565b68056bc75e2d63100000900560029005908161312291612c68565b9161312c91612de6565b68056bc75e2d63100000900560039005908161314791612c68565b9161315191612de6565b68056bc75e2d63100000900560049005908161316c91612c68565b9161317691612de6565b68056bc75e2d63100000900560059005908161319191612c68565b9161319b91612de6565b68056bc75e2d6310000090056006900590816131b691612c68565b916131c091612de6565b68056bc75e2d6310000090056007900590816131db91612c68565b916131e591612de6565b68056bc75e2d63100000900560089005908161320091612c68565b9161320a91612de6565b68056bc75e2d63100000900560099005908161322591612c68565b9161322f91612de6565b68056bc75e2d631000009005600a9005908161324a91612c68565b9161325491612de6565b68056bc75e2d631000009005600b9005908161326f91612c68565b9161327991612de6565b68056bc75e2d631000009005600c900561329291612c68565b61329b91612de6565b68056bc75e2d631000009005906132b191612de6565b6064900590565b6132cd6132c76132dc92612a55565b92612d53565b68056bc75e2d63100000900590565b906130eb565b6132cd6132f16132f792612a3b565b92612d35565b906130d9565b6132cd61330c61331292612a21565b92612d17565b906130c7565b6132cd61332761332d92612a07565b92612cf9565b906130b5565b6132cd613342613348926129ed565b92612cda565b906130a3565b6132cd61335d613363926129d3565b92612cbb565b90613091565b6132cd61337861337e926129b9565b92612c9a565b9061307f565b61338e915061299f565b6e01855144814a7ff805980ff00840009061306d565b6803782dace9d900000081126133d3576133bd9061296b565b6130506b1425982cf597cd205cef738091612c84565b613050600191612c84565b612ee06133ea9161295a565b612ee590612e09565b5068070c1cc73b00c80000811315613004565b670de0b6b3a76400008112613825576132b1612ee59160007e1600ef3172e58d2e933ec884fde10064c63b5372d805e203c00000000000008212156137fa575b73011798004d755d3c8bc8e03204cf44619e0000008212156137d7575b61346c90612c84565b6134768192612c84565b90816e01855144814a7ff805980ff0084000811215613778575b50506135f46005612ebc6135ed6132cd6135c56135e76135dc6132cd61357a8a6b02df0ab5a80a22c61ab5a700612ebc9c121561374b575b693f1fce3da636ea5cf850811215613720575b690127fa27722cc06cc5e28112156136f5575b68280e60114edb805d038112156136cb575b680ebc5fb417461211108112156136a1575b6808f00f760a4b2db55d811215613677575b6806f5f177578893793781121561364d575b6806248f33704b286603811215613623575b6805c548670b9510e7ac8112156135f9575b61357461356e61356983612a21565b612d71565b91612b86565b90612e39565b6135d66135cb6132cd6135906132cd8580612de6565b8098856135bc6132cd846135b66135ab6132cd83809d612de6565b946003860590612c68565b93612de6565b9e8f0590612c68565b9c612de6565b9960078b0590612c68565b98612de6565b956009870590612c68565b94612de6565b600b900590565b612d8f565b61361761360861361d92612d71565b6805c548670b9510e7ac900590565b9c612c19565b9b61355a565b61364161363261364792612d71565b6806248f33704b286603900590565b9c612bf5565b9b613548565b61366b61365c61367192612d71565b6806f5f1775788937937900590565b9c612bd0565b9b613536565b61369561368661369b92612d71565b6808f00f760a4b2db55d900590565b9c612bab565b9b613524565b6136bf6136b06136c592612d71565b680ebc5fb41746121110900590565b9c612b86565b9b613512565b6136e96136da6136ef92612d71565b68280e60114edb805d03900590565b9c612b61565b9b613500565b61371461370461371a92612d71565b690127fa27722cc06cc5e2900590565b9c612b3c565b9b6134ee565b61373f61372f61374592612d71565b693f1fce3da636ea5cf850900590565b9c612b17565b9b6134db565b61376c61375a61377292612d71565b6b02df0ab5a80a22c61ab5a700900590565b9c612af2565b9b6134c8565b6135f4919350612ebc9250612ebc6135ed6132cd6135c56135e76135dc6132cd61357a6137c76137c16137ac60059b612d71565b6e01855144814a7ff805980ff0084000900590565b9c612acd565b9b9a505050505050505050613490565b906137f36b1425982cf597cd205cef738061346c920592612aa8565b9050613463565b50770195e54c5dd42177f53a27172fa9ec63026282700000000090056806f05b59d3b2000000613446565b61383161383691612e09565b613406565b612ee59061295a565b670de0b6b3a764000090818102918183051490151715610ec35761386281612a6f565b61386b90612da5565b9061387590612c3d565b61387e91612e39565b6138888180612de6565b6ec097ce7bc90715b34b9f1000000000900580808080856138aa828098612de6565b6ec097ce7bc90715b34b9f1000000000900590600382056138ca91612c68565b916138d491612de6565b6ec097ce7bc90715b34b9f1000000000900590600582056138f491612c68565b916138fe91612de6565b6ec097ce7bc90715b34b9f10000000009005906007820561391e91612c68565b9161392891612de6565b6ec097ce7bc90715b34b9f10000000009005906009820561394891612c68565b9161395291612de6565b6ec097ce7bc90715b34b9f1000000000900590600b820561397291612c68565b9161397c91612de6565b6ec097ce7bc90715b34b9f1000000000900590600d820561399c91612c68565b916139a691612de6565b6ec097ce7bc90715b34b9f10000000009005600f90056139c591612c68565b612ee590612d8f56fea26469706673582212203a7c9765986689a10ffd03df662821d6662495bf10c1b4e34a48e9990a91bdc364736f6c63430008120033",
  "devdoc": {
    "events": {
      "Burn(address,uint256)": {
        "details": "Emitted when `value` tokens are burned and minted"
      },
      "Initialized(uint8)": {
        "details": "Triggered when the contract has been initialized or reinitialized."
      },
      "Paused(address)": {
        "details": "Emitted when the pause is triggered by `account`."
      },
      "Unpaused(address)": {
        "details": "Emitted when the pause is lifted by `account`."
      }
    },
    "kind": "dev",
    "methods": {
      "balanceOf(address)": {
        "details": "explicity override multiple inheritance"
      },
      "decimals()": {
        "details": "Returns the number of decimals used to get its user representation. For example, if `decimals` equals `2`, a balance of `505` tokens should be displayed to a user as `5.05` (`505 / 10 ** 2`). Tokens usually opt for a value of 18, imitating the relationship between Ether and Wei. This is the value {ERC20} uses, unless this function is overridden; NOTE: This information is only used for _display_ purposes: it in no way affects any of the arithmetic of the contract, including {IERC20-balanceOf} and {IERC20-transfer}."
      },
      "isUser(address)": {
        "params": {
          "_addr": "the user address to check"
        },
        "returns": {
          "_0": "true if the user has wom in stake, false otherwise"
        }
      },
      "name()": {
        "details": "Returns the name of the token."
      },
      "owner()": {
        "details": "Returns the address of the current owner."
      },
      "pause()": {
        "details": "pause pool, restricting certain operations"
      },
      "paused()": {
        "details": "Returns true if the contract is paused, and false otherwise."
      },
      "renounceOwnership()": {
        "details": "Leaves the contract without owner. It will not be possible to call `onlyOwner` functions. Can only be called by the current owner. NOTE: Renouncing ownership will leave the contract without an owner, thereby disabling any functionality that is only available to the owner."
      },
      "setMasterWombat(address)": {
        "params": {
          "_masterWombat": "the new masterWombat address"
        }
      },
      "setVoter(address)": {
        "params": {
          "_voter": "the new NFT contract address"
        }
      },
      "setWhitelist(address)": {
        "params": {
          "_whitelist": "the new whitelist address"
        }
      },
      "symbol()": {
        "details": "Returns the symbol of the token, usually a shorter version of the name."
      },
      "totalSupply()": {
        "details": "explicity override multiple inheritance"
      },
      "transferOwnership(address)": {
        "details": "Transfers ownership of the contract to a new account (`newOwner`). Can only be called by the current owner."
      },
      "unpause()": {
        "details": "unpause pool, enabling certain operations"
      },
      "update(uint256,uint256)": {
        "params": {
          "lockDays": "the new lock days (it should be larger than original lock days)",
          "slot": "the veWOM slot"
        }
      }
    },
    "stateVariables": {
      "whitelist": {
        "details": "contract addresses are by default unable to stake wom, they must be previously whitelisted to stake wom"
      }
    },
    "title": "VeWom",
    "version": 1
  },
  "userdoc": {
    "kind": "user",
    "methods": {
      "getUserInfo(address)": {
        "notice": "return the user info"
      },
      "getUserOverview(address)": {
        "notice": "return the amount of Wom locked and veWOM acquired by a user"
      },
      "isUser(address)": {
        "notice": "checks wether user _addr has wom staked"
      },
      "masterWombat()": {
        "notice": "the masterWombat contract"
      },
      "mint(uint256,uint256)": {
        "notice": "lock WOM into contract and mint veWOM"
      },
      "setMasterWombat(address)": {
        "notice": "sets masterWombat address"
      },
      "setVoter(address)": {
        "notice": "sets voter contract address"
      },
      "setWhitelist(address)": {
        "notice": "sets whitelist address"
      },
      "update(uint256,uint256)": {
        "notice": "update the WOM lock days such that the end date is `now` + `lockDays`"
      },
      "usedVote(address)": {
        "notice": "amount of vote used currently for each user"
      },
      "voter()": {
        "notice": "Address of the Voter contract"
      },
      "whitelist()": {
        "notice": "whitelist wallet checker"
      },
      "wom()": {
        "notice": "the wom token"
      }
    },
    "notice": "Wombat Waddle: the staking contract for WOM, as well as the token used for governance. Note Waddling does not seem to slow the Wombat, it only makes it sturdier. Note that it's ownable and the owner wields tremendous power. The ownership will be transferred to a governance smart contract once Wombat is sufficiently distributed and the community can show to govern itself.",
    "version": 1
  },
  "storageLayout": {
    "storage": [
      {
        "astId": 763,
        "contract": "contracts/wombat-governance/VeWom.sol:VeWom",
        "label": "_initialized",
        "offset": 0,
        "slot": "0",
        "type": "t_uint8"
      },
      {
        "astId": 766,
        "contract": "contracts/wombat-governance/VeWom.sol:VeWom",
        "label": "_initializing",
        "offset": 1,
        "slot": "0",
        "type": "t_bool"
      },
      {
        "astId": 1507,
        "contract": "contracts/wombat-governance/VeWom.sol:VeWom",
        "label": "__gap",
        "offset": 0,
        "slot": "1",
        "type": "t_array(t_uint256)50_storage"
      },
      {
        "astId": 635,
        "contract": "contracts/wombat-governance/VeWom.sol:VeWom",
        "label": "_owner",
        "offset": 0,
        "slot": "51",
        "type": "t_address"
      },
      {
        "astId": 755,
        "contract": "contracts/wombat-governance/VeWom.sol:VeWom",
        "label": "__gap",
        "offset": 0,
        "slot": "52",
        "type": "t_array(t_uint256)49_storage"
      },
      {
        "astId": 1066,
        "contract": "contracts/wombat-governance/VeWom.sol:VeWom",
        "label": "_status",
        "offset": 0,
        "slot": "101",
        "type": "t_uint256"
      },
      {
        "astId": 1135,
        "contract": "contracts/wombat-governance/VeWom.sol:VeWom",
        "label": "__gap",
        "offset": 0,
        "slot": "102",
        "type": "t_array(t_uint256)49_storage"
      },
      {
        "astId": 946,
        "contract": "contracts/wombat-governance/VeWom.sol:VeWom",
        "label": "_paused",
        "offset": 0,
        "slot": "151",
        "type": "t_bool"
      },
      {
        "astId": 1051,
        "contract": "contracts/wombat-governance/VeWom.sol:VeWom",
        "label": "__gap",
        "offset": 0,
        "slot": "152",
        "type": "t_array(t_uint256)49_storage"
      },
      {
        "astId": 40526,
        "contract": "contracts/wombat-governance/VeWom.sol:VeWom",
        "label": "_balances",
        "offset": 0,
        "slot": "201",
        "type": "t_mapping(t_address,t_uint256)"
      },
      {
        "astId": 40532,
        "contract": "contracts/wombat-governance/VeWom.sol:VeWom",
        "label": "_allowances",
        "offset": 0,
        "slot": "202",
        "type": "t_mapping(t_address,t_mapping(t_address,t_uint256))"
      },
      {
        "astId": 40534,
        "contract": "contracts/wombat-governance/VeWom.sol:VeWom",
        "label": "_totalSupply",
        "offset": 0,
        "slot": "203",
        "type": "t_uint256"
      },
      {
        "astId": 40536,
        "contract": "contracts/wombat-governance/VeWom.sol:VeWom",
        "label": "_name",
        "offset": 0,
        "slot": "204",
        "type": "t_string_storage"
      },
      {
        "astId": 40538,
        "contract": "contracts/wombat-governance/VeWom.sol:VeWom",
        "label": "_symbol",
        "offset": 0,
        "slot": "205",
        "type": "t_string_storage"
      },
      {
        "astId": 40777,
        "contract": "contracts/wombat-governance/VeWom.sol:VeWom",
        "label": "__gap",
        "offset": 0,
        "slot": "206",
        "type": "t_array(t_uint256)45_storage"
      },
      {
        "astId": 40828,
        "contract": "contracts/wombat-governance/VeWom.sol:VeWom",
        "label": "wom",
        "offset": 0,
        "slot": "251",
        "type": "t_contract(IERC20)6805"
      },
      {
        "astId": 40832,
        "contract": "contracts/wombat-governance/VeWom.sol:VeWom",
        "label": "masterWombat",
        "offset": 0,
        "slot": "252",
        "type": "t_contract(IMasterWombat)45164"
      },
      {
        "astId": 40836,
        "contract": "contracts/wombat-governance/VeWom.sol:VeWom",
        "label": "whitelist",
        "offset": 0,
        "slot": "253",
        "type": "t_contract(IWhitelist)45680"
      },
      {
        "astId": 40838,
        "contract": "contracts/wombat-governance/VeWom.sol:VeWom",
        "label": "maxBreedingLength",
        "offset": 20,
        "slot": "253",
        "type": "t_uint32"
      },
      {
        "astId": 40840,
        "contract": "contracts/wombat-governance/VeWom.sol:VeWom",
        "label": "minLockDays",
        "offset": 24,
        "slot": "253",
        "type": "t_uint32"
      },
      {
        "astId": 40842,
        "contract": "contracts/wombat-governance/VeWom.sol:VeWom",
        "label": "maxLockDays",
        "offset": 28,
        "slot": "253",
        "type": "t_uint32"
      },
      {
        "astId": 40848,
        "contract": "contracts/wombat-governance/VeWom.sol:VeWom",
        "label": "users",
        "offset": 0,
        "slot": "254",
        "type": "t_mapping(t_address,t_struct(UserInfo)45524_storage)"
      },
      {
        "astId": 40851,
        "contract": "contracts/wombat-governance/VeWom.sol:VeWom",
        "label": "voter",
        "offset": 0,
        "slot": "255",
        "type": "t_address"
      },
      {
        "astId": 40856,
        "contract": "contracts/wombat-governance/VeWom.sol:VeWom",
        "label": "usedVote",
        "offset": 0,
        "slot": "256",
        "type": "t_mapping(t_address,t_uint256)"
      }
    ],
    "types": {
      "t_address": {
        "encoding": "inplace",
        "label": "address",
        "numberOfBytes": "20"
      },
      "t_array(t_struct(Breeding)45515_storage)dyn_storage": {
        "base": "t_struct(Breeding)45515_storage",
        "encoding": "dynamic_array",
        "label": "struct IVeWom.Breeding[]",
        "numberOfBytes": "32"
      },
      "t_array(t_uint256)10_storage": {
        "base": "t_uint256",
        "encoding": "inplace",
        "label": "uint256[10]",
        "numberOfBytes": "320"
      },
      "t_array(t_uint256)45_storage": {
        "base": "t_uint256",
        "encoding": "inplace",
        "label": "uint256[45]",
        "numberOfBytes": "1440"
      },
      "t_array(t_uint256)49_storage": {
        "base": "t_uint256",
        "encoding": "inplace",
        "label": "uint256[49]",
        "numberOfBytes": "1568"
      },
      "t_array(t_uint256)50_storage": {
        "base": "t_uint256",
        "encoding": "inplace",
        "label": "uint256[50]",
        "numberOfBytes": "1600"
      },
      "t_bool": {
        "encoding": "inplace",
        "label": "bool",
        "numberOfBytes": "1"
      },
      "t_contract(IERC20)6805": {
        "encoding": "inplace",
        "label": "contract IERC20",
        "numberOfBytes": "20"
      },
      "t_contract(IMasterWombat)45164": {
        "encoding": "inplace",
        "label": "contract IMasterWombat",
        "numberOfBytes": "20"
      },
      "t_contract(IWhitelist)45680": {
        "encoding": "inplace",
        "label": "contract IWhitelist",
        "numberOfBytes": "20"
      },
      "t_mapping(t_address,t_mapping(t_address,t_uint256))": {
        "encoding": "mapping",
        "key": "t_address",
        "label": "mapping(address => mapping(address => uint256))",
        "numberOfBytes": "32",
        "value": "t_mapping(t_address,t_uint256)"
      },
      "t_mapping(t_address,t_struct(UserInfo)45524_storage)": {
        "encoding": "mapping",
        "key": "t_address",
        "label": "mapping(address => struct IVeWom.UserInfo)",
        "numberOfBytes": "32",
        "value": "t_struct(UserInfo)45524_storage"
      },
      "t_mapping(t_address,t_uint256)": {
        "encoding": "mapping",
        "key": "t_address",
        "label": "mapping(address => uint256)",
        "numberOfBytes": "32",
        "value": "t_uint256"
      },
      "t_string_storage": {
        "encoding": "bytes",
        "label": "string",
        "numberOfBytes": "32"
      },
      "t_struct(Breeding)45515_storage": {
        "encoding": "inplace",
        "label": "struct IVeWom.Breeding",
        "members": [
          {
            "astId": 45510,
            "contract": "contracts/wombat-governance/VeWom.sol:VeWom",
            "label": "unlockTime",
            "offset": 0,
            "slot": "0",
            "type": "t_uint48"
          },
          {
            "astId": 45512,
            "contract": "contracts/wombat-governance/VeWom.sol:VeWom",
            "label": "womAmount",
            "offset": 6,
            "slot": "0",
            "type": "t_uint104"
          },
          {
            "astId": 45514,
            "contract": "contracts/wombat-governance/VeWom.sol:VeWom",
            "label": "veWomAmount",
            "offset": 19,
            "slot": "0",
            "type": "t_uint104"
          }
        ],
        "numberOfBytes": "32"
      },
      "t_struct(UserInfo)45524_storage": {
        "encoding": "inplace",
        "label": "struct IVeWom.UserInfo",
        "members": [
          {
            "astId": 45519,
            "contract": "contracts/wombat-governance/VeWom.sol:VeWom",
            "label": "reserved",
            "offset": 0,
            "slot": "0",
            "type": "t_array(t_uint256)10_storage"
          },
          {
            "astId": 45523,
            "contract": "contracts/wombat-governance/VeWom.sol:VeWom",
            "label": "breedings",
            "offset": 0,
            "slot": "10",
            "type": "t_array(t_struct(Breeding)45515_storage)dyn_storage"
          }
        ],
        "numberOfBytes": "352"
      },
      "t_uint104": {
        "encoding": "inplace",
        "label": "uint104",
        "numberOfBytes": "13"
      },
      "t_uint256": {
        "encoding": "inplace",
        "label": "uint256",
        "numberOfBytes": "32"
      },
      "t_uint32": {
        "encoding": "inplace",
        "label": "uint32",
        "numberOfBytes": "4"
      },
      "t_uint48": {
        "encoding": "inplace",
        "label": "uint48",
        "numberOfBytes": "6"
      },
      "t_uint8": {
        "encoding": "inplace",
        "label": "uint8",
        "numberOfBytes": "1"
      }
    }
  }
}