{
  "address": "0x820eacB840830e0f0A2922962b994173675C1c45",
  "abi": [
    {
      "anonymous": false,
      "inputs": [
        {
          "indexed": true,
          "internalType": "uint256",
          "name": "pid",
          "type": "uint256"
        },
        {
          "indexed": true,
          "internalType": "contract IERC20",
          "name": "lpToken",
          "type": "address"
        },
        {
          "indexed": false,
          "internalType": "contract IBoostedMultiRewarder",
          "name": "boostedRewarder",
          "type": "address"
        }
      ],
      "name": "Add",
      "type": "event"
    },
    {
      "anonymous": false,
      "inputs": [
        {
          "indexed": true,
          "internalType": "address",
          "name": "user",
          "type": "address"
        },
        {
          "indexed": true,
          "internalType": "uint256",
          "name": "pid",
          "type": "uint256"
        },
        {
          "indexed": false,
          "internalType": "uint256",
          "name": "amount",
          "type": "uint256"
        }
      ],
      "name": "Deposit",
      "type": "event"
    },
    {
      "anonymous": false,
      "inputs": [
        {
          "indexed": true,
          "internalType": "address",
          "name": "user",
          "type": "address"
        },
        {
          "indexed": true,
          "internalType": "uint256",
          "name": "pid",
          "type": "uint256"
        },
        {
          "indexed": false,
          "internalType": "uint256",
          "name": "amount",
          "type": "uint256"
        }
      ],
      "name": "DepositFor",
      "type": "event"
    },
    {
      "anonymous": false,
      "inputs": [
        {
          "indexed": true,
          "internalType": "address",
          "name": "user",
          "type": "address"
        },
        {
          "indexed": true,
          "internalType": "uint256",
          "name": "pid",
          "type": "uint256"
        },
        {
          "indexed": false,
          "internalType": "uint256",
          "name": "amount",
          "type": "uint256"
        }
      ],
      "name": "EmergencyWithdraw",
      "type": "event"
    },
    {
      "anonymous": false,
      "inputs": [
        {
          "indexed": false,
          "internalType": "address",
          "name": "owner",
          "type": "address"
        },
        {
          "indexed": false,
          "internalType": "uint256",
          "name": "balance",
          "type": "uint256"
        }
      ],
      "name": "EmergencyWomWithdraw",
      "type": "event"
    },
    {
      "anonymous": false,
      "inputs": [
        {
          "indexed": true,
          "internalType": "address",
          "name": "user",
          "type": "address"
        },
        {
          "indexed": true,
          "internalType": "uint256",
          "name": "pid",
          "type": "uint256"
        },
        {
          "indexed": false,
          "internalType": "uint256",
          "name": "amount",
          "type": "uint256"
        }
      ],
      "name": "Harvest",
      "type": "event"
    },
    {
      "anonymous": false,
      "inputs": [
        {
          "indexed": false,
          "internalType": "uint8",
          "name": "version",
          "type": "uint8"
        }
      ],
      "name": "Initialized",
      "type": "event"
    },
    {
      "anonymous": false,
      "inputs": [
        {
          "indexed": true,
          "internalType": "address",
          "name": "previousOwner",
          "type": "address"
        },
        {
          "indexed": true,
          "internalType": "address",
          "name": "newOwner",
          "type": "address"
        }
      ],
      "name": "OwnershipTransferred",
      "type": "event"
    },
    {
      "anonymous": false,
      "inputs": [
        {
          "indexed": false,
          "internalType": "address",
          "name": "account",
          "type": "address"
        }
      ],
      "name": "Paused",
      "type": "event"
    },
    {
      "anonymous": false,
      "inputs": [
        {
          "indexed": true,
          "internalType": "uint256",
          "name": "pid",
          "type": "uint256"
        },
        {
          "indexed": false,
          "internalType": "contract IBoostedMultiRewarder",
          "name": "boostedRewarder",
          "type": "address"
        }
      ],
      "name": "SetBoostedRewarder",
      "type": "event"
    },
    {
      "anonymous": false,
      "inputs": [
        {
          "indexed": false,
          "internalType": "contract IBribeRewarderFactory",
          "name": "bribeRewarderFactory",
          "type": "address"
        }
      ],
      "name": "SetBribeRewarderFactory",
      "type": "event"
    },
    {
      "anonymous": false,
      "inputs": [
        {
          "indexed": false,
          "internalType": "contract IMasterWombatV3",
          "name": "masterWormbat",
          "type": "address"
        }
      ],
      "name": "SetNewMasterWombat",
      "type": "event"
    },
    {
      "anonymous": false,
      "inputs": [
        {
          "indexed": true,
          "internalType": "uint256",
          "name": "pid",
          "type": "uint256"
        },
        {
          "indexed": false,
          "internalType": "contract IMultiRewarder",
          "name": "rewarder",
          "type": "address"
        }
      ],
      "name": "SetRewarder",
      "type": "event"
    },
    {
      "anonymous": false,
      "inputs": [
        {
          "indexed": false,
          "internalType": "address",
          "name": "account",
          "type": "address"
        }
      ],
      "name": "Unpaused",
      "type": "event"
    },
    {
      "anonymous": false,
      "inputs": [
        {
          "indexed": true,
          "internalType": "address",
          "name": "user",
          "type": "address"
        },
        {
          "indexed": false,
          "internalType": "uint256",
          "name": "basePartition",
          "type": "uint256"
        },
        {
          "indexed": false,
          "internalType": "uint256",
          "name": "boostedPartition",
          "type": "uint256"
        }
      ],
      "name": "UpdateEmissionPartition",
      "type": "event"
    },
    {
      "anonymous": false,
      "inputs": [
        {
          "indexed": true,
          "internalType": "address",
          "name": "user",
          "type": "address"
        },
        {
          "indexed": false,
          "internalType": "address",
          "name": "oldVeWOM",
          "type": "address"
        },
        {
          "indexed": false,
          "internalType": "address",
          "name": "newVeWOM",
          "type": "address"
        }
      ],
      "name": "UpdateVeWOM",
      "type": "event"
    },
    {
      "anonymous": false,
      "inputs": [
        {
          "indexed": true,
          "internalType": "address",
          "name": "user",
          "type": "address"
        },
        {
          "indexed": false,
          "internalType": "address",
          "name": "oldVoter",
          "type": "address"
        },
        {
          "indexed": false,
          "internalType": "address",
          "name": "newVoter",
          "type": "address"
        }
      ],
      "name": "UpdateVoter",
      "type": "event"
    },
    {
      "anonymous": false,
      "inputs": [
        {
          "indexed": true,
          "internalType": "address",
          "name": "user",
          "type": "address"
        },
        {
          "indexed": true,
          "internalType": "uint256",
          "name": "pid",
          "type": "uint256"
        },
        {
          "indexed": false,
          "internalType": "uint256",
          "name": "amount",
          "type": "uint256"
        }
      ],
      "name": "Withdraw",
      "type": "event"
    },
    {
      "inputs": [],
      "name": "ACC_TOKEN_PRECISION",
      "outputs": [
        {
          "internalType": "uint256",
          "name": "",
          "type": "uint256"
        }
      ],
      "stateMutability": "view",
      "type": "function"
    },
    {
      "inputs": [],
      "name": "REWARD_DURATION",
      "outputs": [
        {
          "internalType": "uint256",
          "name": "",
          "type": "uint256"
        }
      ],
      "stateMutability": "view",
      "type": "function"
    },
    {
      "inputs": [],
      "name": "TOTAL_PARTITION",
      "outputs": [
        {
          "internalType": "uint256",
          "name": "",
          "type": "uint256"
        }
      ],
      "stateMutability": "view",
      "type": "function"
    },
    {
      "inputs": [
        {
          "internalType": "contract IERC20",
          "name": "_lpToken",
          "type": "address"
        },
        {
          "internalType": "contract IBoostedMultiRewarder",
          "name": "_boostedRewarder",
          "type": "address"
        }
      ],
      "name": "add",
      "outputs": [],
      "stateMutability": "nonpayable",
      "type": "function"
    },
    {
      "inputs": [],
      "name": "basePartition",
      "outputs": [
        {
          "internalType": "uint16",
          "name": "",
          "type": "uint16"
        }
      ],
      "stateMutability": "view",
      "type": "function"
    },
    {
      "inputs": [],
      "name": "boostedPartition",
      "outputs": [
        {
          "internalType": "uint256",
          "name": "",
          "type": "uint256"
        }
      ],
      "stateMutability": "view",
      "type": "function"
    },
    {
      "inputs": [
        {
          "internalType": "uint256",
          "name": "",
          "type": "uint256"
        }
      ],
      "name": "boostedRewarders",
      "outputs": [
        {
          "internalType": "contract IBoostedMultiRewarder",
          "name": "",
          "type": "address"
        }
      ],
      "stateMutability": "view",
      "type": "function"
    },
    {
      "inputs": [],
      "name": "bribeRewarderFactory",
      "outputs": [
        {
          "internalType": "contract IBribeRewarderFactory",
          "name": "",
          "type": "address"
        }
      ],
      "stateMutability": "view",
      "type": "function"
    },
    {
      "inputs": [
        {
          "internalType": "uint256",
          "name": "_pid",
          "type": "uint256"
        }
      ],
      "name": "calRewardPerUnit",
      "outputs": [
        {
          "internalType": "uint256",
          "name": "accWomPerShare",
          "type": "uint256"
        },
        {
          "internalType": "uint256",
          "name": "accWomPerFactorShare",
          "type": "uint256"
        }
      ],
      "stateMutability": "view",
      "type": "function"
    },
    {
      "inputs": [
        {
          "internalType": "uint256",
          "name": "_pid",
          "type": "uint256"
        },
        {
          "internalType": "uint256",
          "name": "_amount",
          "type": "uint256"
        }
      ],
      "name": "deposit",
      "outputs": [
        {
          "internalType": "uint256",
          "name": "reward",
          "type": "uint256"
        },
        {
          "internalType": "uint256[]",
          "name": "additionalRewards",
          "type": "uint256[]"
        }
      ],
      "stateMutability": "nonpayable",
      "type": "function"
    },
    {
      "inputs": [
        {
          "internalType": "uint256",
          "name": "_pid",
          "type": "uint256"
        },
        {
          "internalType": "uint256",
          "name": "_amount",
          "type": "uint256"
        },
        {
          "internalType": "address",
          "name": "_user",
          "type": "address"
        }
      ],
      "name": "depositFor",
      "outputs": [],
      "stateMutability": "nonpayable",
      "type": "function"
    },
    {
      "inputs": [
        {
          "internalType": "uint256",
          "name": "_pid",
          "type": "uint256"
        }
      ],
      "name": "emergencyWithdraw",
      "outputs": [],
      "stateMutability": "nonpayable",
      "type": "function"
    },
    {
      "inputs": [],
      "name": "emergencyWomWithdraw",
      "outputs": [],
      "stateMutability": "nonpayable",
      "type": "function"
    },
    {
      "inputs": [
        {
          "internalType": "address",
          "name": "asset",
          "type": "address"
        }
      ],
      "name": "getAssetPid",
      "outputs": [
        {
          "internalType": "uint256",
          "name": "",
          "type": "uint256"
        }
      ],
      "stateMutability": "view",
      "type": "function"
    },
    {
      "inputs": [
        {
          "internalType": "uint256",
          "name": "_pid",
          "type": "uint256"
        }
      ],
      "name": "getSumOfFactors",
      "outputs": [
        {
          "internalType": "uint256",
          "name": "",
          "type": "uint256"
        }
      ],
      "stateMutability": "view",
      "type": "function"
    },
    {
      "inputs": [
        {
          "internalType": "contract IERC20",
          "name": "_wom",
          "type": "address"
        },
        {
          "internalType": "contract IVeWom",
          "name": "_veWom",
          "type": "address"
        },
        {
          "internalType": "address",
          "name": "_voter",
          "type": "address"
        },
        {
          "internalType": "uint16",
          "name": "_basePartition",
          "type": "uint16"
        }
      ],
      "name": "initialize",
      "outputs": [],
      "stateMutability": "nonpayable",
      "type": "function"
    },
    {
      "inputs": [
        {
          "internalType": "uint256",
          "name": "_periodFinish",
          "type": "uint256"
        }
      ],
      "name": "lastTimeRewardApplicable",
      "outputs": [
        {
          "internalType": "uint256",
          "name": "",
          "type": "uint256"
        }
      ],
      "stateMutability": "view",
      "type": "function"
    },
    {
      "inputs": [],
      "name": "massUpdatePools",
      "outputs": [],
      "stateMutability": "nonpayable",
      "type": "function"
    },
    {
      "inputs": [
        {
          "internalType": "uint256[]",
          "name": "_pids",
          "type": "uint256[]"
        }
      ],
      "name": "migrate",
      "outputs": [],
      "stateMutability": "nonpayable",
      "type": "function"
    },
    {
      "inputs": [
        {
          "internalType": "uint256[]",
          "name": "_pids",
          "type": "uint256[]"
        }
      ],
      "name": "multiClaim",
      "outputs": [
        {
          "internalType": "uint256",
          "name": "reward",
          "type": "uint256"
        },
        {
          "internalType": "uint256[]",
          "name": "amounts",
          "type": "uint256[]"
        },
        {
          "internalType": "uint256[][]",
          "name": "additionalRewards",
          "type": "uint256[][]"
        }
      ],
      "stateMutability": "nonpayable",
      "type": "function"
    },
    {
      "inputs": [
        {
          "internalType": "address",
          "name": "_lpToken",
          "type": "address"
        },
        {
          "internalType": "uint256",
          "name": "_amount",
          "type": "uint256"
        }
      ],
      "name": "notifyRewardAmount",
      "outputs": [],
      "stateMutability": "nonpayable",
      "type": "function"
    },
    {
      "inputs": [],
      "name": "owner",
      "outputs": [
        {
          "internalType": "address",
          "name": "",
          "type": "address"
        }
      ],
      "stateMutability": "view",
      "type": "function"
    },
    {
      "inputs": [],
      "name": "pause",
      "outputs": [],
      "stateMutability": "nonpayable",
      "type": "function"
    },
    {
      "inputs": [],
      "name": "paused",
      "outputs": [
        {
          "internalType": "bool",
          "name": "",
          "type": "bool"
        }
      ],
      "stateMutability": "view",
      "type": "function"
    },
    {
      "inputs": [
        {
          "internalType": "uint256",
          "name": "_pid",
          "type": "uint256"
        },
        {
          "internalType": "address",
          "name": "_user",
          "type": "address"
        }
      ],
      "name": "pendingTokens",
      "outputs": [
        {
          "internalType": "uint256",
          "name": "pendingRewards",
          "type": "uint256"
        },
        {
          "internalType": "contract IERC20[]",
          "name": "bonusTokenAddresses",
          "type": "address[]"
        },
        {
          "internalType": "string[]",
          "name": "bonusTokenSymbols",
          "type": "string[]"
        },
        {
          "internalType": "uint256[]",
          "name": "pendingBonusRewards",
          "type": "uint256[]"
        }
      ],
      "stateMutability": "view",
      "type": "function"
    },
    {
      "inputs": [
        {
          "internalType": "uint256",
          "name": "_pid",
          "type": "uint256"
        }
      ],
      "name": "poolInfo",
      "outputs": [
        {
          "internalType": "contract IERC20",
          "name": "lpToken",
          "type": "address"
        },
        {
          "internalType": "uint96",
          "name": "allocPoint",
          "type": "uint96"
        },
        {
          "internalType": "contract IMultiRewarder",
          "name": "rewarder",
          "type": "address"
        },
        {
          "internalType": "uint256",
          "name": "sumOfFactors",
          "type": "uint256"
        },
        {
          "internalType": "uint104",
          "name": "accWomPerShare",
          "type": "uint104"
        },
        {
          "internalType": "uint104",
          "name": "accWomPerFactorShare",
          "type": "uint104"
        },
        {
          "internalType": "uint40",
          "name": "lastRewardTimestamp",
          "type": "uint40"
        }
      ],
      "stateMutability": "view",
      "type": "function"
    },
    {
      "inputs": [
        {
          "internalType": "uint256",
          "name": "",
          "type": "uint256"
        }
      ],
      "name": "poolInfoV3",
      "outputs": [
        {
          "internalType": "contract IERC20",
          "name": "lpToken",
          "type": "address"
        },
        {
          "internalType": "contract IMultiRewarder",
          "name": "rewarder",
          "type": "address"
        },
        {
          "internalType": "uint40",
          "name": "periodFinish",
          "type": "uint40"
        },
        {
          "internalType": "uint128",
          "name": "sumOfFactors",
          "type": "uint128"
        },
        {
          "internalType": "uint128",
          "name": "rewardRate",
          "type": "uint128"
        },
        {
          "internalType": "uint104",
          "name": "accWomPerShare",
          "type": "uint104"
        },
        {
          "internalType": "uint104",
          "name": "accWomPerFactorShare",
          "type": "uint104"
        },
        {
          "internalType": "uint40",
          "name": "lastRewardTimestamp",
          "type": "uint40"
        }
      ],
      "stateMutability": "view",
      "type": "function"
    },
    {
      "inputs": [],
      "name": "poolLength",
      "outputs": [
        {
          "internalType": "uint256",
          "name": "",
          "type": "uint256"
        }
      ],
      "stateMutability": "view",
      "type": "function"
    },
    {
      "inputs": [],
      "name": "renounceOwnership",
      "outputs": [],
      "stateMutability": "nonpayable",
      "type": "function"
    },
    {
      "inputs": [
        {
          "internalType": "uint256",
          "name": "_pid",
          "type": "uint256"
        }
      ],
      "name": "rewarderBonusTokenInfo",
      "outputs": [
        {
          "internalType": "contract IERC20[]",
          "name": "bonusTokenAddresses",
          "type": "address[]"
        },
        {
          "internalType": "string[]",
          "name": "bonusTokenSymbols",
          "type": "string[]"
        }
      ],
      "stateMutability": "view",
      "type": "function"
    },
    {
      "inputs": [
        {
          "internalType": "uint256",
          "name": "_pid",
          "type": "uint256"
        },
        {
          "internalType": "contract IBoostedMultiRewarder",
          "name": "_boostedRewarder",
          "type": "address"
        }
      ],
      "name": "setBoostedRewarder",
      "outputs": [],
      "stateMutability": "nonpayable",
      "type": "function"
    },
    {
      "inputs": [
        {
          "internalType": "contract IBribeRewarderFactory",
          "name": "_bribeRewarderFactory",
          "type": "address"
        }
      ],
      "name": "setBribeRewarderFactory",
      "outputs": [],
      "stateMutability": "nonpayable",
      "type": "function"
    },
    {
      "inputs": [
        {
          "internalType": "contract IMasterWombatV3",
          "name": "_newMasterWombat",
          "type": "address"
        }
      ],
      "name": "setNewMasterWombat",
      "outputs": [],
      "stateMutability": "nonpayable",
      "type": "function"
    },
    {
      "inputs": [
        {
          "internalType": "uint256",
          "name": "_pid",
          "type": "uint256"
        },
        {
          "internalType": "contract IMultiRewarder",
          "name": "_rewarder",
          "type": "address"
        }
      ],
      "name": "setRewarder",
      "outputs": [],
      "stateMutability": "nonpayable",
      "type": "function"
    },
    {
      "inputs": [
        {
          "internalType": "contract IVeWom",
          "name": "_newVeWom",
          "type": "address"
        }
      ],
      "name": "setVeWom",
      "outputs": [],
      "stateMutability": "nonpayable",
      "type": "function"
    },
    {
      "inputs": [
        {
          "internalType": "address",
          "name": "_newVoter",
          "type": "address"
        }
      ],
      "name": "setVoter",
      "outputs": [],
      "stateMutability": "nonpayable",
      "type": "function"
    },
    {
      "inputs": [
        {
          "internalType": "address",
          "name": "newOwner",
          "type": "address"
        }
      ],
      "name": "transferOwnership",
      "outputs": [],
      "stateMutability": "nonpayable",
      "type": "function"
    },
    {
      "inputs": [],
      "name": "unpause",
      "outputs": [],
      "stateMutability": "nonpayable",
      "type": "function"
    },
    {
      "inputs": [
        {
          "internalType": "uint16",
          "name": "_basePartition",
          "type": "uint16"
        }
      ],
      "name": "updateEmissionPartition",
      "outputs": [],
      "stateMutability": "nonpayable",
      "type": "function"
    },
    {
      "inputs": [
        {
          "internalType": "address",
          "name": "_user",
          "type": "address"
        },
        {
          "internalType": "uint256",
          "name": "_newVeWomBalance",
          "type": "uint256"
        }
      ],
      "name": "updateFactor",
      "outputs": [],
      "stateMutability": "nonpayable",
      "type": "function"
    },
    {
      "inputs": [
        {
          "internalType": "uint256",
          "name": "_pid",
          "type": "uint256"
        }
      ],
      "name": "updatePool",
      "outputs": [],
      "stateMutability": "nonpayable",
      "type": "function"
    },
    {
      "inputs": [
        {
          "internalType": "uint256",
          "name": "",
          "type": "uint256"
        },
        {
          "internalType": "address",
          "name": "",
          "type": "address"
        }
      ],
      "name": "userInfo",
      "outputs": [
        {
          "internalType": "uint128",
          "name": "amount",
          "type": "uint128"
        },
        {
          "internalType": "uint128",
          "name": "factor",
          "type": "uint128"
        },
        {
          "internalType": "uint128",
          "name": "rewardDebt",
          "type": "uint128"
        },
        {
          "internalType": "uint128",
          "name": "pendingWom",
          "type": "uint128"
        }
      ],
      "stateMutability": "view",
      "type": "function"
    },
    {
      "inputs": [],
      "name": "veWom",
      "outputs": [
        {
          "internalType": "contract IVeWom",
          "name": "",
          "type": "address"
        }
      ],
      "stateMutability": "view",
      "type": "function"
    },
    {
      "inputs": [],
      "name": "voter",
      "outputs": [
        {
          "internalType": "address",
          "name": "",
          "type": "address"
        }
      ],
      "stateMutability": "view",
      "type": "function"
    },
    {
      "inputs": [
        {
          "internalType": "uint256",
          "name": "_pid",
          "type": "uint256"
        },
        {
          "internalType": "uint256",
          "name": "_amount",
          "type": "uint256"
        }
      ],
      "name": "withdraw",
      "outputs": [
        {
          "internalType": "uint256",
          "name": "reward",
          "type": "uint256"
        },
        {
          "internalType": "uint256[]",
          "name": "additionalRewards",
          "type": "uint256[]"
        }
      ],
      "stateMutability": "nonpayable",
      "type": "function"
    },
    {
      "inputs": [],
      "name": "wom",
      "outputs": [
        {
          "internalType": "contract IERC20",
          "name": "",
          "type": "address"
        }
      ],
      "stateMutability": "view",
      "type": "function"
    }
  ],
  "transactionHash": "0x6d26ef70fa1b43b5d843c651336e1e4fd88503a6475ac26ce70f1fbdb67b1492",
  "args": [],
  "numDeployments": 1,
  "solcInputHash": "7dce5a3bfa105f0db0e90b26c525cde5",
  "bytecode": "0x6080806040523461001657614018908161001c8239f35b600080fdfe608080604052600436101561001357600080fd5b60003560e01c908163081e3eda14612777575080631526fe27146126a85780631983dbf5146125fa5780632e112757146123475780632f875929146122015780633e582ae6146121da5780633f4ba83a1461213e57806343de320714612042578063441a3e7014611ee0578063441b502c14611ec357806346c96aac14611e9c5780634bc2a65714611e1d5780634ed73d2814611d415780634f00a93e14611a3457806351eb05a614611a1857806352c28fab146116955780635312ea8e146114b15780635ade228a146114935780635c975abb146114705780635da362381461143c578063630b5ba114611423578063715018a6146113c85780637544d7d91461135c5780638456cb591461130257806384cd668b146112db5780638da5cb5b146112b457806390210d7e146111a357806393f1a40b146111335780639b128de6146110a2578063abfef1111461107d578063af929a8014610fec578063b163e79314610f48578063b66503cf14610cef578063b8be44e714610cc5578063bc70fdbc14610c7e578063be159bea14610c35578063c5a6222e14610c0e578063ca6f309d14610bd9578063d1e2ac8814610b6d578063d93bf4fe14610886578063e2bbb15814610769578063eea0160414610749578063eeca156214610716578063f13e550714610576578063f2fde38b146104d15763ffcd42631461021957600080fd5b346104cc5760403660031901126104cc576004356102356127a8565b9060606102bd61024483613c8c565b8460009392935260d06020526040600020926001600160a01b0380971693846000526020526102b5600164e8d4a510006102a66040600020956102a08754916102976001600160801b0398898516612d9a565b9260801c612d9a565b90612b4d565b04930154928360801c90612b4d565b911690612b40565b926102c781613852565b9290958060016102d68561286b565b500154169260005260d260205260406000205416918015808015906104c3575b610341575b878761033d8861032f8961032160405196879687526080602088015260808701906128bb565b90858203604087015261291b565b9083820360608501526127ea565b0390f35b9294509091156103bb575060009060246040518095819363c031a66f60e01b835260048301525afa9182156103af5761033d9261032f9160009161038c575b50915b919238806102fb565b6103a991503d806000833e6103a18183612b1e565b810190612f37565b38610380565b6040513d6000823e3d90fd5b9280610418575060009060246040518095819363c031a66f60e01b835260048301525afa9182156103af5761033d9261032f916000916103fd575b5091610383565b61041291503d806000833e6103a18183612b1e565b386103f6565b92906040519060008260248163c031a66f60e01b968782528560048301525afa9182156103af576000926104a3575b506024600092936040519687938492835260048301525afa9283156103af5761033d9361032f9261048092600092610486575b50613e31565b91610383565b61049c9192503d806000833e6103a18183612b1e565b903861047a565b600092506104bc6024913d8086833e6103a18183612b1e565b9250610447565b508315156102f6565b600080fd5b346104cc5760203660031901126104cc576104ea612792565b6104f261298c565b6001600160a01b0381161561050c5761050a906129e4565b005b608460405162461bcd60e51b815260206004820152602660248201527f4f776e61626c653a206e6577206f776e657220697320746865207a65726f206160448201527f64647265737300000000000000000000000000000000000000000000000000006064820152fd5b346104cc5760003660031901126104cc5761058f61298c565b6001600160a01b038060c95416906040516370a0823160e01b918282523060048301526020938483602481845afa80156103af5785936000916106e4575b5060405163a9059cbb60e01b815233600482015260248101919091529290839060449082906000905af19182156103af5784926106b7575b5060c954169160246040518094819382523060048301525afa9182156103af57600092610667575b60408051338152602081018590527f2b58f1b72aa1f2865f8da73af0eaff3a2b5b670c59fed83005919fe6c23cf35c91819081015b0390a1005b90809250813d83116106b0575b61067e8183612b1e565b810103126104cc57516106627f2b58f1b72aa1f2865f8da73af0eaff3a2b5b670c59fed83005919fe6c23cf35c61062d565b503d610674565b6106d690833d85116106dd575b6106ce8183612b1e565b810190612e33565b5084610605565b503d6106c4565b84819592503d831161070f575b6106fb8183612b1e565b810103126104cc57915184929060006105cd565b503d6106f1565b346104cc5760203660031901126104cc5760043580421060001461074157506020425b604051908152f35b602090610739565b346104cc5760003660031901126104cc57602060405164e8d4a510008152f35b346104cc57610777366127d4565b61077f612e64565b610787612a9d565b6107908261286b565b5090826000526001600160a01b0360209360d0855260406000203360005285526107db6107d4846001600160801b0360406000206107cd86612c2e565b5416612b4d565b33836132e0565b94546040516323b872dd60e01b815233600482015230602482015260448101869052919591949193879186916064918391600091165af19384156103af5761033d94610869575b506040519081527f90890809c654f11d6e72a28fa60149770a0d11ec6c92319d6ceb2bb0a4ea1a15863392a3600160655560408051948594855284015260408301906127ea565b61087f90873d89116106dd576106ce8183612b1e565b5086610822565b346104cc576108943661281e565b61089c612e64565b6001600160a01b0360cb541615610b29576108c06108bb368385612de5565b612fb1565b50505060005b8181106108d4576001606555005b8060051b83013560005260d06020526040600020336000526020526040600020906001600160801b0382541680610916575b506109119150612bf7565b6108c6565b610999602061092a8460051b88013561286b565b50926001600160a01b038454166001600160a01b0360cb541660006040518096819582947f095ea7b3000000000000000000000000000000000000000000000000000000008452600484019092916001600160801b036020916001600160a01b03604085019616845216910152565b03925af180156103af57610b0a575b506001600160a01b0360cb5416926001600160a01b03825416604051907faf929a800000000000000000000000000000000000000000000000000000000082526004820152602081602481885afa9081156103af57600091610ad8575b506001600160801b03825416853b156104cc5760646000928360405198899485937f90210d7e000000000000000000000000000000000000000000000000000000008552600485015260248401523360448401525af19081156103af5761091194600292610ac9575b505460801c9101906001600160801b03196001600160801b03610a95845493828516612e4b565b1691161790558060051b84013560005260d06020526040600020336000526020526000600160408220828155015584610906565b610ad290612b0a565b87610a6e565b90506020813d602011610b02575b81610af360209383612b1e565b810103126104cc575187610a05565b3d9150610ae6565b610b229060203d6020116106dd576106ce8183612b1e565b50856109a8565b606460405162461bcd60e51b815260206004820152600960248201527f746f2077686572653f00000000000000000000000000000000000000000000006044820152fd5b346104cc5760203660031901126104cc576004356001600160a01b0381168091036104cc5760207fdb56ee0e5b70c19a6f0fb8c96d1d4c704abff70673e8f2ed0c2d3c1804951a9d91610bbe61298c565b806001600160a01b031960cb54161760cb55604051908152a1005b346104cc5760203660031901126104cc5760043560005260d260205260206001600160a01b0360406000205416604051908152f35b346104cc5760003660031901126104cc5760206001600160a01b0360c95416604051908152f35b346104cc5760003660031901126104cc5761ffff60cc5460a01c166103e8908103908111610c6857602090604051908152f35b634e487b7160e01b600052601160045260246000fd5b346104cc5760203660031901126104cc57610cb761033d610ca0600435613852565b6040929192519384936040855260408501906128bb565b90838203602085015261291b565b346104cc5760203660031901126104cc576040610ce3600435613c8c565b82519182526020820152f35b346104cc5760403660031901126104cc57610d08612792565b6024908135906001600160a01b03908160cc54163303610ede578215610e9a571660005260d16020526040600020546000198101908111610e8557610d4c9061286b565b50600381019064ffffffffff9182815460d01c1693600183019484865460a01c1680821015600014610e18575050610dd5926002610d9162093a80610db39404613eb4565b9101906001600160801b036001600160801b031983549260801b169116179055565b805464ffffffffff60d01b191642841660d01b64ffffffffff60d01b16179055565b62093a804201804211610e0357825464ffffffffff60a01b1916911660a01b64ffffffffff60a01b16179055005b83634e487b7160e01b60005260116004526000fd5b03848111610e7057610e4c62093a80610e46610e6b946102a06002610dd59901958a875460801c9116612d9a565b04613eb4565b6001600160801b036001600160801b031983549260801b169116179055565b610db3565b86634e487b7160e01b60005260116004526000fd5b82634e487b7160e01b60005260116004526000fd5b606484601f6040519162461bcd60e51b8352602060048401528201527f6e6f74696679526577617264416d6f756e743a207a65726f20616d6f756e74006044820152fd5b60848460216040519162461bcd60e51b8352602060048401528201527f4d6173746572576f6d6261743a2063616c6c6572206973206e6f7420566f746560448201527f72000000000000000000000000000000000000000000000000000000000000006064820152fd5b346104cc5760203660031901126104cc5760043560cf548110156104cc57610f726101009161286b565b506001600160a01b0390818154169160018201549160036002820154910154916040519485528316602085015264ffffffffff809360a01c1660408501526001600160801b038116606085015260801c60808401526001600160681b0380821660a08501528160681c1660c084015260d01c1660e0820152f35b346104cc5760203660031901126104cc576001600160a01b0361100d612792565b1660005260d16020526040600020548015611039576000198101908111610c6857602090604051908152f35b606460405162461bcd60e51b815260206004820152600b60248201527f696e76616c6964207069640000000000000000000000000000000000000000006044820152fd5b346104cc5760003660031901126104cc57602061ffff60cc5460a01c16604051908152f35b346104cc5760203660031901126104cc576110bb612792565b6110c361298c565b6001600160a01b0380911680156104cc5760ca80546001600160a01b03198116831790915560408051939091166001600160a01b039081168452909116602083015233917fa0956d8e03557278fdb89913cec4e0f21da09587edf25b3eecc0079cdb757ef591819081015b0390a2005b346104cc5760403660031901126104cc5761114c6127a8565b60043560005260d06020526001600160a01b03604060002091166000526020526080604060002060018154910154604051916001600160801b03908181168452841c602084015281166040830152821c6060820152f35b346104cc5760603660031901126104cc576004356024356111c26127be565b906111cb612e64565b6111d3612a9d565b6111dc8361286b565b50918360005260209060d082526040600020936112266001600160a01b03928381169687600052855261121f866001600160801b0360406000206107cd8c612c2e565b90886132e0565b5050546040516323b872dd60e01b8152336004820152306024820152604481018590529391839185916064918391600091165af19283156103af577f16f3fbfd4bcc50a5cecb2e53e398a1ad77d89f63288ef540d862b264ed57eb1f93611297575b50604051908152a36001606555005b6112ad90833d85116106dd576106ce8183612b1e565b5085611288565b346104cc5760003660031901126104cc5760206001600160a01b0360335416604051908152f35b346104cc5760003660031901126104cc5760206001600160a01b0360d35416604051908152f35b346104cc5760003660031901126104cc5761131b61298c565b611323612a9d565b600160ff1960975416176097557f62e78cea01bee320cd4e420270b5ea74000d11b0c9f74754ebdbfc544b05a2586020604051338152a1005b346104cc5760203660031901126104cc576004356001600160a01b0381168091036104cc5760207f3d43bc5171c0ab4451ccc037d67d5816ae4bf9a02b48b199b14139dbed368f68916113ad61298c565b806001600160a01b031960d354161760d355604051908152a1005b346104cc5760003660031901126104cc576113e161298c565b60006001600160a01b036033546001600160a01b03198116603355167f8be0079c531659141344cd1fd0a4f28419497f9722a3daafe3b4186f6b6457e08280a3005b346104cc5760003660031901126104cc5761050a612c06565b346104cc5760203660031901126104cc5760206001600160801b03600261146460043561286b565b50015416604051908152f35b346104cc5760003660031901126104cc57602060ff609754166040519015158152f35b346104cc5760003660031901126104cc57602060405162093a808152f35b346104cc576020806003193601126104cc576001600435916114d1612e64565b6114da8361286b565b50908360005260d08152604060002033600052815260406000206114fd8561286b565b506001600160a01b039485910154168061164a575b508460005260d282528360406000205416806115f9575b508054835460405163a9059cbb60e01b81523360048201526001600160801b039283166024820181905296929390929091859184916044918391600091165af180156103af577fbb757047c2b5f3974fe26b7c10f732e7bce710b0952a71082702781e62ae0595956001936002926115dc575b50018054936115b1835460801c828716612e4b565b166001600160801b031980951617905560008155019081541690556040519283523392a36001606555005b6115f290873d89116106dd576106ce8183612b1e565b508961159c565b60008091606460405180948193631963b13960e21b83523360048401528160248401528160448401525af180156103af571561152957611643903d806000833e6103a18183612b1e565b5085611529565b6000809160446040518094819363186e465160e31b83523360048401528160248401525af180156103af57156115125761168e903d806000833e6103a18183612b1e565b5085611512565b346104cc5760403660031901126104cc576116ae612792565b6116b66127a8565b906116bf61298c565b6001600160a01b0380911691823b156119ae578116803b158015906119a6575b1561194c5782600052602060ce81526040600020546119085760405164ffffffffff42811661170d83612aed565b8683528383016000815260408401828152606085016000815260808601906000825260a08701936000855260c08801976000895260e0810196875260cf54680100000000000000008110156118f25780600161176c920160cf5561286b565b9590956118dc578c899251169c6001600160a01b03199d8e885416178755600187019351168d84541617835551166117c0919064ffffffffff60a01b1964ffffffffff60a01b83549260a01b169116179055565b51905160801b6001600160801b0319166001600160801b0391909116176002820155600301936001600160681b03809251166001600160681b031986541617855551166118539084907fffffffffffff00000000000000000000000000ffffffffffffffffffffffffff79ffffffffffffffffffffffffff0000000000000000000000000083549260681b169116179055565b51825464ffffffffff60d01b1916911660d01b64ffffffffff60d01b1617905560cf5491600019830193838511610c68577fec85b1d1f037ff3a8722aaf5d4d8e7d93c7ff10c056430c18d76a9ec23aa397e938660005260d184526040600020558460005260d28352816040600020918254161790556118d285612b5a565b50604051908152a3005b634e487b7160e01b600052600060045260246000fd5b634e487b7160e01b600052604160045260246000fd5b6064906040519062461bcd60e51b82526004820152601560248201527f6164643a204c5020616c726561647920616464656400000000000000000000006044820152fd5b608460405162461bcd60e51b815260206004820152602d60248201527f6164643a20626f6f737465645265776172646572206d75737420626520636f6e60448201526c7472616374206f72207a65726f60981b6064820152fd5b5080156116df565b608460405162461bcd60e51b815260206004820152602660248201527f6164643a204c5020746f6b656e206d75737420626520612076616c696420636f60448201527f6e747261637400000000000000000000000000000000000000000000000000006064820152fd5b346104cc5760203660031901126104cc5761050a600435612c2e565b346104cc5760403660031901126104cc57611a4d612792565b6001600160a01b0360ca54163303611cd75760cf5460005b818110611a6e57005b8060005260d060205260406000206001600160a01b0384166000526020526040600020906001600160801b0382541615611ccd57611aab81612c2e565b611ab48161286b565b5091611af864e8d4a51000610e4683546102a06003880154916001600160681b03611aea8185166001600160801b038416612d9a565b9360681c169060801c612d9a565b611b4c611b2c6001840192611b236001600160801b03611b1d86549382851690612e4b565b16613eb4565b9060801c612f1c565b82546001600160801b031660809190911b6001600160801b031916178255565b815490611b6d6001600160801b038316611b6860243582612d9a565b613f64565b92611b7a611b2c85613eb4565b54906001600160801b03611bb964e8d4a51000610e4660038a01546102a06001600160681b03611bae818416888b16612d9a565b9260681c168a612d9a565b166001600160801b03198254161790558360005260d26020526001600160a01b036040600020541680611c34575b50506001600160801b03196001600160801b03611c24611c1f6002611c2f980195611c1a87549660801c91858816612b4d565b612b40565b613eb4565b169116179055612bf7565b611a65565b803b156104cc576040517fb024b4370000000000000000000000000000000000000000000000000000000081526001600160a01b038916600482015260809290921c60248301526000908290604490829084905af180156103af57611c24611c1f6002611c2f986001600160801b0319956001600160801b0395611cbe575b509850505050611be7565b611cc790612b0a565b8c611cb3565b611c2f9150612bf7565b608460405162461bcd60e51b815260206004820152602160248201527f4d6173746572576f6d6261743a2063616c6c6572206973206e6f74205665576f60448201527f6d000000000000000000000000000000000000000000000000000000000000006064820152fd5b346104cc57611d6c6108bb611d553661281e565b611d5d612e64565b611d65612a9d565b3691612de5565b919060019081606555604051928352611d9160209160608386015260608501906127ea565b9083820360408501528451908183528083019281808460051b8301019701936000915b848310611dc15787890388f35b9091929394958098601f198382030184528588518180825194858152019101926000905b85818310611e06575050508192509801930193019194939290979597611db4565b919380919386518152019401920188929391611de5565b346104cc5760203660031901126104cc57611e36612792565b611e3e61298c565b60cc80546001600160a01b039283166001600160a01b03198216811790925560408051939091168352602083019190915233917f9db5e84498cff91ecd1f5666fa2ecf069530eb27baffabaccefafc06bbd3cee3918190810161112e565b346104cc5760003660031901126104cc5760206001600160a01b0360cc5416604051908152f35b346104cc5760003660031901126104cc5760206040516103e88152f35b346104cc57611eee366127d4565b611ef6612e64565b611efe612a9d565b611f078261286b565b50908260005260209260d08452604060002033600052845260406000206001600160801b0390838282541610611ffe576107d4848493611f5993611f526001600160a01b0397612c2e565b5416612b40565b945460405163a9059cbb60e01b815233600482015260248101869052919591949193879186916044918391600091165af19384156103af5761033d94611fe1575b506040519081527ff279e6a1f5e320cca91135676d9cb6e44ca8a08c0b88342bcdb1144f6511b568863392a3600160655560408051948594855284015260408301906127ea565b611ff790873d89116106dd576106ce8183612b1e565b5086611f9a565b6064866040519062461bcd60e51b82526004820152601c60248201527f77697468647261773a206e6f7420656e6f7567682062616c616e6365000000006044820152fd5b346104cc5760403660031901126104cc576004356024356001600160a01b0381168091036104cc5761207261298c565b803b15801590612136575b156120cc5760207f858b2cab7b344488967106b3c498c1f59de0a26b500923d9e4e06918909cd5119160016120b18561286b565b5001816001600160a01b0319825416179055604051908152a2005b608460405162461bcd60e51b815260206004820152602660248201527f7365743a207265776172646572206d75737420626520636f6e7472616374206f60448201527f72207a65726f00000000000000000000000000000000000000000000000000006064820152fd5b50801561207d565b346104cc5760003660031901126104cc5761215761298c565b60975460ff8116156121965760ff19166097557f5db9ee0a495bf2e6ff9c91a7834c1ba4fdd244a5e8aa4e537bd38aeae4b073aa6020604051338152a1005b606460405162461bcd60e51b815260206004820152601460248201527f5061757361626c653a206e6f74207061757365640000000000000000000000006044820152fd5b346104cc5760003660031901126104cc5760206001600160a01b0360ca5416604051908152f35b346104cc5760403660031901126104cc5760043561221d6127a8565b6001600160a01b03908160d354163314801561233a575b156122f65716803b158015906122ee575b156122945760207f287a7483759b38235382ea705de3448dfe2ed81f04b8893ceaba580dbcdafe4b918360005260d282526040600020816001600160a01b0319825416179055604051908152a2005b608460405162461bcd60e51b815260206004820152602d60248201527f7365743a20626f6f737465645265776172646572206d75737420626520636f6e60448201526c7472616374206f72207a65726f60981b6064820152fd5b508015612245565b606460405162461bcd60e51b815260206004820152600e60248201527f6e6f7420617574686f72697a65640000000000000000000000000000000000006044820152fd5b5081603354163314612234565b346104cc5760803660031901126104cc57612360612792565b6123686127a8565b6123706127be565b60643561ffff8116928382036104cc576000549460ff8660081c1615948580966125ed575b80156125d6575b1561256c5760ff19878116600117600055968661255a575b506001600160a01b03809216908115612516576103e8106124ac57817fffffffffffffffffffff000000000000000000000000000000000000000000009361240c60ff60005460081c1661240781612a2c565b612a2c565b612415336129e4565b6000549861243660ff8b60081c1661242c81612a2c565b6001606555612a2c565b609754166097556001600160a01b0319928360c954161760c955169060ca54161760ca5561ffff60a01b60cc549360a01b1693169116171760cc5561247757005b61ff0019166000557f7f26b83ff96e1f2b6a682f133852f6798a09c465da95921460cefb3847402498602060405160018152a1005b608460405162461bcd60e51b815260206004820152602760248201527f6261736520706172746974696f6e206d75737420626520696e2072616e67652060448201527f302c2031303030000000000000000000000000000000000000000000000000006064820152fd5b606460405162461bcd60e51b815260206004820152601a60248201527f776f6d20616464726573732063616e6e6f74206265207a65726f0000000000006044820152fd5b61ffff191661010117600055876123b4565b608460405162461bcd60e51b815260206004820152602e60248201527f496e697469616c697a61626c653a20636f6e747261637420697320616c72656160448201527f647920696e697469616c697a65640000000000000000000000000000000000006064820152fd5b50303b15801561239c5750600160ff88161461239c565b50600160ff881610612395565b346104cc5760203660031901126104cc5760043561ffff8116908181036104cc5761262361298c565b6103e8908183116104cc57612636612c06565b7fffffffffffffffffffff0000ffffffffffffffffffffffffffffffffffffffff61ffff60a01b60cc549260a01b1691161760cc55818103908111610c685760405191825260208201527f7fd921cf733c788915a229b0ea58095c44ae2c275ed7835501e5135fe3c1ed0560403392a2005b346104cc5760203660031901126104cc5760e06126c660043561286b565b50816040516126d481612aed565b6001600160a01b038084541693848352600181015491821680602085015264ffffffffff809360a01c16604085015260036002830154926001600160801b0384169384606088015260801c60808701520154936001600160681b0393848616948560a08401528660681c16958660c084015260d01c1695869101526040519586526000602087015260408601526060850152608084015260a083015260c0820152f35b346104cc5760003660031901126104cc5760209060cf548152f35b600435906001600160a01b03821682036104cc57565b602435906001600160a01b03821682036104cc57565b604435906001600160a01b03821682036104cc57565b60409060031901126104cc576004359060243590565b90815180825260208080930193019160005b82811061280a575050505090565b8351855293810193928101926001016127fc565b9060206003198301126104cc5760043567ffffffffffffffff928382116104cc57806023830112156104cc5781600401359384116104cc5760248460051b830101116104cc576024019190565b60cf548110156128a55760cf60005260021b7facb8d954e2cfef495862221e91bd7523613cf8808827cb33edfe4904cc51bf290190600090565b634e487b7160e01b600052603260045260246000fd5b90815180825260208080930193019160005b8281106128db575050505090565b83516001600160a01b0316855293810193928101926001016128cd565b60005b83811061290b5750506000910152565b81810151838201526020016128fb565b908082519081815260208091019281808460051b8301019501936000915b8483106129495750505050505090565b909192939495848080600193601f1980878303018852601f8c51612978815180928187528780880191016128f8565b011601019801930193019194939290612939565b6001600160a01b036033541633036129a057565b606460405162461bcd60e51b815260206004820152602060248201527f4f776e61626c653a2063616c6c6572206973206e6f7420746865206f776e65726044820152fd5b603354906001600160a01b0380911691826001600160a01b0319821617603355167f8be0079c531659141344cd1fd0a4f28419497f9722a3daafe3b4186f6b6457e0600080a3565b15612a3357565b608460405162461bcd60e51b815260206004820152602b60248201527f496e697469616c697a61626c653a20636f6e7472616374206973206e6f74206960448201527f6e697469616c697a696e670000000000000000000000000000000000000000006064820152fd5b60ff60975416612aa957565b606460405162461bcd60e51b815260206004820152601060248201527f5061757361626c653a20706175736564000000000000000000000000000000006044820152fd5b610100810190811067ffffffffffffffff8211176118f257604052565b67ffffffffffffffff81116118f257604052565b90601f8019910116810190811067ffffffffffffffff8211176118f257604052565b91908203918211610c6857565b91908201809211610c6857565b600081815260ce6020526040812054612bf25760cd5468010000000000000000811015612bde57600181018060cd55811015612bca5790826040927f83978b4c69c48dd978ab43fe30f077615294f938fb7f936d9eb340e51ea7db2e015560cd5492815260ce6020522055600190565b602482634e487b7160e01b81526032600452fd5b602482634e487b7160e01b81526041600452fd5b905090565b6000198114610c685760010190565b60cf5460005b818110612c17575050565b80612c24612c2992612c2e565b612bf7565b612c0c565b612c378161286b565b50906003820180549164ffffffffff90818460d01c164211612c5b575b5050505050565b612c94612c80612d17956001600160681b03612c79612cdf95613c8c565b9390613f0c565b16906001600160681b031916178555613f0c565b83547fffffffffffff00000000000000000000000000ffffffffffffffffffffffffff1660689190911b79ffffffffffffffffffffffffff0000000000000000000000000016178355565b80600185015460a01c16804210600014612d955750425b825464ffffffffff60d01b1916911660d01b64ffffffffff60d01b16179055565b6001600160a01b038060cc54169182612d32575b8080612c54565b5416813b156104cc576000916024839260405194859384927f63453ae100000000000000000000000000000000000000000000000000000000845260048401525af180156103af57612d86575b8080612d2b565b612d8f90612b0a565b38612d7f565b612cf6565b81810292918115918404141715610c6857565b8115612db7570490565b634e487b7160e01b600052601260045260246000fd5b67ffffffffffffffff81116118f25760051b60200190565b9291612df082612dcd565b91612dfe6040519384612b1e565b829481845260208094019160051b81019283116104cc57905b828210612e245750505050565b81358152908301908301612e17565b908160209103126104cc575180151581036104cc5790565b6001600160801b039182169082160391908211610c6857565b600260655414612e75576002606555565b606460405162461bcd60e51b815260206004820152601f60248201527f5265656e7472616e637947756172643a207265656e7472616e742063616c6c006044820152fd5b90612ec382612dcd565b612ed06040519182612b1e565b8281528092612ee1601f1991612dcd565b0190602036910137565b60005b828110612efa57505050565b606082820152602001612eee565b80518210156128a55760209160051b010190565b9190916001600160801b0380809416911601918211610c6857565b60209081818403126104cc5780519067ffffffffffffffff82116104cc57019180601f840112156104cc578251612f6d81612dcd565b93612f7b6040519586612b1e565b818552838086019260051b8201019283116104cc578301905b828210612fa2575050505090565b81518152908301908301612f94565b906000612fbe8351612eb9565b92805193612ff5612fce86612dcd565b95612fdc6040519788612b1e565b808752612feb601f1991612dcd565b0160208701612eeb565b8460005b83518110156132775761300c8185612f08565b5160005260d060205260406000203360005260205260406000206130396130338387612f08565b51612c2e565b80546001600160801b03811661305a575b505061305590612bf7565b612ff9565b6001906001600160801b03976130ed61307f613079878b989798612f08565b5161286b565b50916130c064e8d4a51000610e4660038601546102a06001600160681b036130b28184166001600160801b038c16612d9a565b9260681c168960801c612d9a565b908b6130df878a0154826130d78260801c87612f1c565b911690612e4b565b169b8c921686890155612b4d565b986130f88589612f08565b526131038489612f08565b5161310e8589612f08565b516040519081527f71bab65ced2e5750775a0613be067df48ef06cf92a496ebf7663ae066092495460203392a36001600160a01b03928391015416806131fd575b505061315b8287612f08565b5160005260d260205260406000205416918261317a575b81925061304a565b60009260648492546040519586938492631963b13960e21b84523360048501526001600160801b038116602485015260801c60448401525af180156103af57613055926000916131e2575b506131d0828a612f08565b526131db8189612f08565b5038613172565b6131f791503d806000833e6103a18183612b1e565b386131c5565b60405163186e465160e31b81523360048201526001600160801b039290921660248301526000908290604490829084905af19081156103af5760009161325c575b50613249838b612f08565b52613254828a612f08565b50388061314f565b61327191503d806000833e6103a18183612b1e565b3861323e565b5060c95460405163a9059cbb60e01b8152336004820152602481018690529496509194909390925090602090829060449082906000906001600160a01b03165af180156103af576132c55750565b6132dd9060203d6020116106dd576106ce8183612b1e565b50565b92906000936060936132f18261286b565b508260005260d060205260406000206001600160a01b03851660005260205260406000209384546001600160801b0381169081158015906137b8575b6136b3575b50506001600160801b0361334584613eb4565b16936001600160801b03199360248686895416179687895560206001600160a01b0360ca5416604051938480926370a0823160e01b82526001600160a01b038a1660048301525afa9182156103af5760009261367d575b50611c1f81611b686133d1946133b194612d9a565b88546001600160801b031660809190911b6001600160801b031916178855565b6133fb64e8d4a51000610e4660038701546102a08b546001600160681b03611aea81851689612d9a565b6001600160801b03600189019116868254161790556001600160a01b036001850154169160005260d26020526001600160a01b036040600020541691801580801590613674575b613484575b505050505061347c611c1f60026001600160801b039301958361347688549760801c925460801c828916612f1c565b16612b40565b169116179055565b9091929394995060001461351757508554604051631963b13960e21b81526001600160a01b03949094166004850152602484019190915260801c60448301526000908290606490829084905af19081156103af57611c1f60026001600160801b039361347c936000916134fc575b50985b9338613447565b61351191503d806000833e6103a18183612b1e565b386134f2565b92909180613598575060405163186e465160e31b81526001600160a01b039190911660048201526024810191909152906000908290604490829084905af19081156103af57611c1f60026001600160801b039361347c9360009161357d575b50986134f5565b61359291503d806000833e6103a18183612b1e565b38613576565b60405163186e465160e31b81526001600160a01b03831660048201526024810184905293919290916000908590604490829084905af19384156103af5760009461364d575b508654604051631963b13960e21b81526001600160a01b039094166004850152602484019190915260801c60448301526000908290818381606481015b03925af180156103af576002613647611c1f926001600160801b039561347c956000926104865750613e31565b986134f5565b61361a939194509161366a6000933d8086833e6103a18183612b1e565b94919350916135dd565b50831515613442565b91506020823d6020116136ab575b8161369860209383612b1e565b810103126104cc57905190611c1f61339c565b3d915061368b565b6136e292995064e8d4a51000916102a0610e4692600387015492611aea6001600160681b039182861690612d9a565b966001600160801b038061370b61370260018901549b8c60801c90612f1c565b828c1690612e4b565b91909916600187015560c95460405163a9059cbb60e01b81526001600160a01b0384811660048301529a909216602483018190529960209183916044918391600091165af180156103af57613799575b50836040518981527f71bab65ced2e5750775a0613be067df48ef06cf92a496ebf7663ae066092495460206001600160a01b03851692a33880613332565b6137b19060203d6020116106dd576106ce8183612b1e565b503861375b565b50600187015460801c151561332d565b60209081818403126104cc5780519067ffffffffffffffff82116104cc57019180601f840112156104cc5782516137fe81612dcd565b9361380c6040519586612b1e565b818552838086019260051b8201019283116104cc578301905b828210613833575050505090565b81516001600160a01b03811681036104cc578152908301908301613825565b60609061385e8161286b565b50906001600160a01b0391826001809201541690600092835260209160d2835260409185838620541690821580801590613c83575b613a7c575b505050508451916138a883612dcd565b936138b583519586612b1e565b838552601f196138d1816138c887612dcd565b01848801612eeb565b8596825b8681106138e85750505050505050509091565b816138f3828c612f08565b511661397557855186810181811067ffffffffffffffff821117613961578752600681527f4e617469766500000000000000000000000000000000000000000000000000008682015261395c919061394b828b612f08565b52613956818a612f08565b50612bf7565b6138d5565b602486634e487b7160e01b81526041600452fd5b8382613981838d612f08565b51168751918280927f95d89b4100000000000000000000000000000000000000000000000000000000825260049384915afa918215613a725786926139d2575b50509061395c9161394b828b612f08565b9091503d8087833e6139e48183612b1e565b81018782820312613a5757815167ffffffffffffffff92838211613a6e570190601f93818584011215613a6e578251938411613a5b5750613a2d89888c51968601160185612b1e565b828452888383010111613a57578291613a4f91898061395c97960191016128f8565b9091386139c1565b8680fd5b886041602492634e487b7160e01b835252fd5b8880fd5b88513d88823e3d90fd5b8693949850600014613ae55750600492508651928380926306158c5560e51b82525afa908115613adb578391613ab9575b50935b38808080613898565b613ad591503d8085833e613acd8183612b1e565b8101906137c8565b38613aad565b85513d85823e3d90fd5b9080613b315750506004918651928380926306158c5560e51b82525afa908115613adb578391613b17575b5093613ab0565b613b2b91503d8085833e613acd8183612b1e565b38613b10565b90915086519285846004816306158c5560e51b948582525afa938415613a72579086918295613c67575b50600489518094819382525afa908115613c5d579082918691613c43575b50613b878451825190612b4d565b93613b9185612dcd565b94613b9e8a519687612b1e565b808652613bad601f1991612dcd565b01368787013786935b613c0d575b508186925b613bcf575b5050505093613ab0565b8151831015613c085787613bec613be585612bf7565b9484612f08565b5116613c01613bfa86612bf7565b9587612f08565b5280613bc0565b613bc5565b8051841015613c3e57613c388489613c26869785612f08565b5116613c328289612f08565b52612bf7565b93613bb6565b613bbb565b613c5791503d8088833e613acd8183612b1e565b38613b79565b87513d87823e3d90fd5b613c7c9195503d8084833e613acd8183612b1e565b9338613b5b565b50821515613893565b613c9760249161286b565b509160206001600160a01b03845416604051938480926370a0823160e01b82523060048301525afa9182156103af57600092613dfb575b5060038301546001600160681b0390818116918160681c1693801591828015613de7575b613ddf576002613d27613d359264ffffffffff8060018c015460a01c16804210600014613dd9575042915b60d01c1690612b40565b970154968760801c90612d9a565b9264e8d4a5100093848102948186041490151715610c685761ffff60cc5460a01c1691613d628386612d9a565b916103e89485830292830486141715610c68576102a0613d8a926001600160801b0394612dad565b9616928315918215613d9d575050505050565b839694959603838111610c6857613db391612d9a565b91808502948504141715610c6857613dce926102a091612dad565b903880808080612c54565b91613d1d565b509194505050565b5064ffffffffff8160d01c16421115613cf2565b90916020823d8211613e29575b81613e1560209383612b1e565b81010312613e265750519038613cce565b80fd5b3d9150613e08565b613e46613e418251845190612b4d565b612eb9565b9260005b8251811015613e715780613e61613e6c9285612f08565b51613c328288612f08565b613e4a565b9150916000925b8151841015613eae57613e94613e8d85612bf7565b9483612f08565b51613ea8613ea185612bf7565b9487612f08565b52613e78565b92505050565b6001600160801b0390818111613ec8571690565b606460405162461bcd60e51b815260206004820152601060248201527f75696e74313238206f766572666c6f77000000000000000000000000000000006044820152fd5b6001600160681b0390818111613f20571690565b606460405162461bcd60e51b815260206004820152601060248201527f75696e74313034206f766572666c6f77000000000000000000000000000000006044820152fd5b919060006003841115613fd357508281118015613fcb575b15613fc55750815b613f9783613f928184612dad565b612b4d565b600190811c915b848303613faa57505050565b90919350613fbc84613f928184612dad565b821c9190613f9e565b91613f84565b508015613f7c565b929050613fdc57565b6001915056fea2646970667358221220710c9148f827b0dfa1142df281b91ced77549ef86b47512a743e149a79749c2a64736f6c63430008120033",
  "devdoc": {
    "details": "Updates: - Compatible with gauge voting - Add support for BoostedMultiRewarder",
    "events": {
      "Initialized(uint8)": {
        "details": "Triggered when the contract has been initialized or reinitialized."
      },
      "Paused(address)": {
        "details": "Emitted when the pause is triggered by `account`."
      },
      "Unpaused(address)": {
        "details": "Emitted when the pause is lifted by `account`."
      }
    },
    "kind": "dev",
    "methods": {
      "add(address,address)": {
        "details": "Reverts if the same LP token is added more than once.",
        "params": {
          "_boostedRewarder": "the rewarder",
          "_lpToken": "the corresponding lp token"
        }
      },
      "deposit(uint256,uint256)": {
        "details": "it is possible to call this function with _amount == 0 to claim current rewards",
        "params": {
          "_amount": "amount to deposit",
          "_pid": "the pool id"
        }
      },
      "depositFor(uint256,uint256,address)": {
        "details": "user must initiate transaction from masterchef",
        "params": {
          "_amount": "amount to deposit",
          "_pid": "the pool id",
          "_user": "the user being represented"
        }
      },
      "emergencyWithdraw(uint256)": {
        "params": {
          "_pid": "the pool id"
        }
      },
      "massUpdatePools()": {
        "details": "Be careful of gas spending!"
      },
      "migrate(uint256[])": {
        "details": "Assume the orginal MasterWombat has stopped emisions hence we skip IVoter(voter).distribute() to save gas cost"
      },
      "multiClaim(uint256[])": {
        "params": {
          "_pids": "array pids, pools to claim"
        }
      },
      "notifyRewardAmount(address,uint256)": {
        "details": "Refer to synthetix/StakingRewards.sol notifyRewardAmount Note: This looks safe from reentrancy."
      },
      "owner()": {
        "details": "Returns the address of the current owner."
      },
      "pause()": {
        "details": "pause pool, restricting certain operations"
      },
      "paused()": {
        "details": "Returns true if the contract is paused, and false otherwise."
      },
      "pendingTokens(uint256,address)": {
        "params": {
          "_pid": "the pool id",
          "_user": "the user address"
        }
      },
      "renounceOwnership()": {
        "details": "Leaves the contract without owner. It will not be possible to call `onlyOwner` functions. Can only be called by the current owner. NOTE: Renouncing ownership will leave the contract without an owner, thereby disabling any functionality that is only available to the owner."
      },
      "rewarderBonusTokenInfo(uint256)": {
        "params": {
          "_pid": "the pool id"
        }
      },
      "setBoostedRewarder(uint256,address)": {
        "params": {
          "_boostedRewarder": "the boostedRewarder",
          "_pid": "the pool id"
        }
      },
      "setRewarder(uint256,address)": {
        "params": {
          "_pid": "the pool id",
          "_rewarder": "the rewarder"
        }
      },
      "setVeWom(address)": {
        "params": {
          "_newVeWom": "the new VeWom address"
        }
      },
      "setVoter(address)": {
        "params": {
          "_newVoter": "the new Voter address"
        }
      },
      "transferOwnership(address)": {
        "details": "Transfers ownership of the contract to a new account (`newOwner`). Can only be called by the current owner."
      },
      "unpause()": {
        "details": "unpause pool, enabling certain operations"
      },
      "updateEmissionPartition(uint16)": {
        "params": {
          "_basePartition": "the future base partition"
        }
      },
      "updateFactor(address,uint256)": {
        "details": "can only be called by veWom",
        "params": {
          "_newVeWomBalance": "the amount of veWOM",
          "_user": "the user to update"
        }
      },
      "updatePool(uint256)": {
        "params": {
          "_pid": "the pool id"
        }
      },
      "withdraw(uint256,uint256)": {
        "params": {
          "_amount": "the amount to withdraw",
          "_pid": "the pool id"
        }
      }
    },
    "stateVariables": {
      "poolInfoV3": {
        "details": "Note that `poolInfoV3[pid].rewarder` will be deprecated and it may co-exist with boostedRewarders[pid]"
      }
    },
    "title": "BoostedMasterWombat",
    "version": 1
  },
  "userdoc": {
    "kind": "user",
    "methods": {
      "add(address,address)": {
        "notice": "Add a new lp to the pool. Can only be called by the owner."
      },
      "deposit(uint256,uint256)": {
        "notice": "Deposit LP tokens to MasterChef for WOM allocation."
      },
      "depositFor(uint256,uint256,address)": {
        "notice": "Deposit LP tokens to MasterChef for WOM allocation on behalf of user"
      },
      "emergencyWithdraw(uint256)": {
        "notice": "Withdraw without caring about rewards. EMERGENCY ONLY."
      },
      "emergencyWomWithdraw()": {
        "notice": "In case we need to manually migrate WOM funds from MasterChef Sends all remaining wom from the contract to the owner"
      },
      "massUpdatePools()": {
        "notice": "Update reward variables for all pools."
      },
      "migrate(uint256[])": {
        "notice": "Helper function to migrate fund from multiple pools to the new MasterWombat.user must initiate transaction from masterchef"
      },
      "multiClaim(uint256[])": {
        "notice": "claims rewards for multiple pids"
      },
      "notifyRewardAmount(address,uint256)": {
        "notice": "Distribute WOM over a period of 7 days"
      },
      "pendingTokens(uint256,address)": {
        "notice": "View function to see pending WOMs on frontend."
      },
      "poolInfo(uint256)": {
        "notice": "[Deprecated] A backward compatible function to return the PoolInfo struct in MasterWombatV2"
      },
      "poolInfoV3(uint256)": {
        "notice": "Info of each pool."
      },
      "poolLength()": {
        "notice": "returns pool length"
      },
      "rewarderBonusTokenInfo(uint256)": {
        "notice": "Get bonus token info from the rewarder contract for a given pool, if it is a double reward farm"
      },
      "setBoostedRewarder(uint256,address)": {
        "notice": "Update the given pool's boostedRewarder"
      },
      "setRewarder(uint256,address)": {
        "notice": "Update the given pool's rewarder"
      },
      "setVeWom(address)": {
        "notice": "updates veWom address"
      },
      "setVoter(address)": {
        "notice": "updates voter address"
      },
      "updateEmissionPartition(uint16)": {
        "notice": "updates emission partition"
      },
      "updateFactor(address,uint256)": {
        "notice": "updates factor after any veWom token operation (minting/burning)"
      },
      "updatePool(uint256)": {
        "notice": "Update reward variables of the given pool"
      },
      "withdraw(uint256,uint256)": {
        "notice": "Withdraw LP tokens from MasterWombat.Automatically harvest pending rewards and sends to user"
      }
    },
    "notice": "MasterWombat is a boss. He is not afraid of any snakes. In fact, he drinks their venoms. So, veWom holders boost their (boosted) emissions. This contract rewards users in function of their amount of lp staked (base pool) factor (boosted pool) Factor and sumOfFactors are updated by contract VeWom.sol after any veWom minting/burning (veERC20Upgradeable hook). Note that it's ownable and the owner wields tremendous power. The ownership will be transferred to a governance smart contract once Wombat is sufficiently distributed and the community can show to govern itself.",
    "version": 1
  },
  "storageLayout": {
    "storage": [
      {
        "astId": 717,
        "contract": "contracts/wombat-governance/BoostedMasterWombat.sol:BoostedMasterWombat",
        "label": "_initialized",
        "offset": 0,
        "slot": "0",
        "type": "t_uint8"
      },
      {
        "astId": 720,
        "contract": "contracts/wombat-governance/BoostedMasterWombat.sol:BoostedMasterWombat",
        "label": "_initializing",
        "offset": 1,
        "slot": "0",
        "type": "t_bool"
      },
      {
        "astId": 1461,
        "contract": "contracts/wombat-governance/BoostedMasterWombat.sol:BoostedMasterWombat",
        "label": "__gap",
        "offset": 0,
        "slot": "1",
        "type": "t_array(t_uint256)50_storage"
      },
      {
        "astId": 589,
        "contract": "contracts/wombat-governance/BoostedMasterWombat.sol:BoostedMasterWombat",
        "label": "_owner",
        "offset": 0,
        "slot": "51",
        "type": "t_address"
      },
      {
        "astId": 709,
        "contract": "contracts/wombat-governance/BoostedMasterWombat.sol:BoostedMasterWombat",
        "label": "__gap",
        "offset": 0,
        "slot": "52",
        "type": "t_array(t_uint256)49_storage"
      },
      {
        "astId": 1020,
        "contract": "contracts/wombat-governance/BoostedMasterWombat.sol:BoostedMasterWombat",
        "label": "_status",
        "offset": 0,
        "slot": "101",
        "type": "t_uint256"
      },
      {
        "astId": 1089,
        "contract": "contracts/wombat-governance/BoostedMasterWombat.sol:BoostedMasterWombat",
        "label": "__gap",
        "offset": 0,
        "slot": "102",
        "type": "t_array(t_uint256)49_storage"
      },
      {
        "astId": 900,
        "contract": "contracts/wombat-governance/BoostedMasterWombat.sol:BoostedMasterWombat",
        "label": "_paused",
        "offset": 0,
        "slot": "151",
        "type": "t_bool"
      },
      {
        "astId": 1005,
        "contract": "contracts/wombat-governance/BoostedMasterWombat.sol:BoostedMasterWombat",
        "label": "__gap",
        "offset": 0,
        "slot": "152",
        "type": "t_array(t_uint256)49_storage"
      },
      {
        "astId": 17318,
        "contract": "contracts/wombat-governance/BoostedMasterWombat.sol:BoostedMasterWombat",
        "label": "wom",
        "offset": 0,
        "slot": "201",
        "type": "t_contract(IERC20)4637"
      },
      {
        "astId": 17321,
        "contract": "contracts/wombat-governance/BoostedMasterWombat.sol:BoostedMasterWombat",
        "label": "veWom",
        "offset": 0,
        "slot": "202",
        "type": "t_contract(IVeWom)21678"
      },
      {
        "astId": 17324,
        "contract": "contracts/wombat-governance/BoostedMasterWombat.sol:BoostedMasterWombat",
        "label": "newMasterWombat",
        "offset": 0,
        "slot": "203",
        "type": "t_contract(IMasterWombatV3)21509"
      },
      {
        "astId": 17326,
        "contract": "contracts/wombat-governance/BoostedMasterWombat.sol:BoostedMasterWombat",
        "label": "voter",
        "offset": 0,
        "slot": "204",
        "type": "t_address"
      },
      {
        "astId": 17328,
        "contract": "contracts/wombat-governance/BoostedMasterWombat.sol:BoostedMasterWombat",
        "label": "basePartition",
        "offset": 20,
        "slot": "204",
        "type": "t_uint16"
      },
      {
        "astId": 17331,
        "contract": "contracts/wombat-governance/BoostedMasterWombat.sol:BoostedMasterWombat",
        "label": "lpTokens",
        "offset": 0,
        "slot": "205",
        "type": "t_struct(AddressSet)7374_storage"
      },
      {
        "astId": 17336,
        "contract": "contracts/wombat-governance/BoostedMasterWombat.sol:BoostedMasterWombat",
        "label": "poolInfoV3",
        "offset": 0,
        "slot": "207",
        "type": "t_array(t_struct(PoolInfoV3)17306_storage)dyn_storage"
      },
      {
        "astId": 17343,
        "contract": "contracts/wombat-governance/BoostedMasterWombat.sol:BoostedMasterWombat",
        "label": "userInfo",
        "offset": 0,
        "slot": "208",
        "type": "t_mapping(t_uint256,t_mapping(t_address,t_struct(UserInfo)17287_storage))"
      },
      {
        "astId": 17347,
        "contract": "contracts/wombat-governance/BoostedMasterWombat.sol:BoostedMasterWombat",
        "label": "assetPid",
        "offset": 0,
        "slot": "209",
        "type": "t_mapping(t_address,t_uint256)"
      },
      {
        "astId": 17353,
        "contract": "contracts/wombat-governance/BoostedMasterWombat.sol:BoostedMasterWombat",
        "label": "boostedRewarders",
        "offset": 0,
        "slot": "210",
        "type": "t_mapping(t_uint256,t_contract(IBoostedMultiRewarder)21221)"
      },
      {
        "astId": 17356,
        "contract": "contracts/wombat-governance/BoostedMasterWombat.sol:BoostedMasterWombat",
        "label": "bribeRewarderFactory",
        "offset": 0,
        "slot": "211",
        "type": "t_contract(IBribeRewarderFactory)21269"
      }
    ],
    "types": {
      "t_address": {
        "encoding": "inplace",
        "label": "address",
        "numberOfBytes": "20"
      },
      "t_array(t_bytes32)dyn_storage": {
        "base": "t_bytes32",
        "encoding": "dynamic_array",
        "label": "bytes32[]",
        "numberOfBytes": "32"
      },
      "t_array(t_struct(PoolInfoV3)17306_storage)dyn_storage": {
        "base": "t_struct(PoolInfoV3)17306_storage",
        "encoding": "dynamic_array",
        "label": "struct BoostedMasterWombat.PoolInfoV3[]",
        "numberOfBytes": "32"
      },
      "t_array(t_uint256)49_storage": {
        "base": "t_uint256",
        "encoding": "inplace",
        "label": "uint256[49]",
        "numberOfBytes": "1568"
      },
      "t_array(t_uint256)50_storage": {
        "base": "t_uint256",
        "encoding": "inplace",
        "label": "uint256[50]",
        "numberOfBytes": "1600"
      },
      "t_bool": {
        "encoding": "inplace",
        "label": "bool",
        "numberOfBytes": "1"
      },
      "t_bytes32": {
        "encoding": "inplace",
        "label": "bytes32",
        "numberOfBytes": "32"
      },
      "t_contract(IBoostedMultiRewarder)21221": {
        "encoding": "inplace",
        "label": "contract IBoostedMultiRewarder",
        "numberOfBytes": "20"
      },
      "t_contract(IBribeRewarderFactory)21269": {
        "encoding": "inplace",
        "label": "contract IBribeRewarderFactory",
        "numberOfBytes": "20"
      },
      "t_contract(IERC20)4637": {
        "encoding": "inplace",
        "label": "contract IERC20",
        "numberOfBytes": "20"
      },
      "t_contract(IMasterWombatV3)21509": {
        "encoding": "inplace",
        "label": "contract IMasterWombatV3",
        "numberOfBytes": "20"
      },
      "t_contract(IMultiRewarder)21549": {
        "encoding": "inplace",
        "label": "contract IMultiRewarder",
        "numberOfBytes": "20"
      },
      "t_contract(IVeWom)21678": {
        "encoding": "inplace",
        "label": "contract IVeWom",
        "numberOfBytes": "20"
      },
      "t_mapping(t_address,t_struct(UserInfo)17287_storage)": {
        "encoding": "mapping",
        "key": "t_address",
        "label": "mapping(address => struct BoostedMasterWombat.UserInfo)",
        "numberOfBytes": "32",
        "value": "t_struct(UserInfo)17287_storage"
      },
      "t_mapping(t_address,t_uint256)": {
        "encoding": "mapping",
        "key": "t_address",
        "label": "mapping(address => uint256)",
        "numberOfBytes": "32",
        "value": "t_uint256"
      },
      "t_mapping(t_bytes32,t_uint256)": {
        "encoding": "mapping",
        "key": "t_bytes32",
        "label": "mapping(bytes32 => uint256)",
        "numberOfBytes": "32",
        "value": "t_uint256"
      },
      "t_mapping(t_uint256,t_contract(IBoostedMultiRewarder)21221)": {
        "encoding": "mapping",
        "key": "t_uint256",
        "label": "mapping(uint256 => contract IBoostedMultiRewarder)",
        "numberOfBytes": "32",
        "value": "t_contract(IBoostedMultiRewarder)21221"
      },
      "t_mapping(t_uint256,t_mapping(t_address,t_struct(UserInfo)17287_storage))": {
        "encoding": "mapping",
        "key": "t_uint256",
        "label": "mapping(uint256 => mapping(address => struct BoostedMasterWombat.UserInfo))",
        "numberOfBytes": "32",
        "value": "t_mapping(t_address,t_struct(UserInfo)17287_storage)"
      },
      "t_struct(AddressSet)7374_storage": {
        "encoding": "inplace",
        "label": "struct EnumerableSet.AddressSet",
        "members": [
          {
            "astId": 7373,
            "contract": "contracts/wombat-governance/BoostedMasterWombat.sol:BoostedMasterWombat",
            "label": "_inner",
            "offset": 0,
            "slot": "0",
            "type": "t_struct(Set)7059_storage"
          }
        ],
        "numberOfBytes": "64"
      },
      "t_struct(PoolInfoV3)17306_storage": {
        "encoding": "inplace",
        "label": "struct BoostedMasterWombat.PoolInfoV3",
        "members": [
          {
            "astId": 17290,
            "contract": "contracts/wombat-governance/BoostedMasterWombat.sol:BoostedMasterWombat",
            "label": "lpToken",
            "offset": 0,
            "slot": "0",
            "type": "t_contract(IERC20)4637"
          },
          {
            "astId": 17293,
            "contract": "contracts/wombat-governance/BoostedMasterWombat.sol:BoostedMasterWombat",
            "label": "rewarder",
            "offset": 0,
            "slot": "1",
            "type": "t_contract(IMultiRewarder)21549"
          },
          {
            "astId": 17295,
            "contract": "contracts/wombat-governance/BoostedMasterWombat.sol:BoostedMasterWombat",
            "label": "periodFinish",
            "offset": 20,
            "slot": "1",
            "type": "t_uint40"
          },
          {
            "astId": 17297,
            "contract": "contracts/wombat-governance/BoostedMasterWombat.sol:BoostedMasterWombat",
            "label": "sumOfFactors",
            "offset": 0,
            "slot": "2",
            "type": "t_uint128"
          },
          {
            "astId": 17299,
            "contract": "contracts/wombat-governance/BoostedMasterWombat.sol:BoostedMasterWombat",
            "label": "rewardRate",
            "offset": 16,
            "slot": "2",
            "type": "t_uint128"
          },
          {
            "astId": 17301,
            "contract": "contracts/wombat-governance/BoostedMasterWombat.sol:BoostedMasterWombat",
            "label": "accWomPerShare",
            "offset": 0,
            "slot": "3",
            "type": "t_uint104"
          },
          {
            "astId": 17303,
            "contract": "contracts/wombat-governance/BoostedMasterWombat.sol:BoostedMasterWombat",
            "label": "accWomPerFactorShare",
            "offset": 13,
            "slot": "3",
            "type": "t_uint104"
          },
          {
            "astId": 17305,
            "contract": "contracts/wombat-governance/BoostedMasterWombat.sol:BoostedMasterWombat",
            "label": "lastRewardTimestamp",
            "offset": 26,
            "slot": "3",
            "type": "t_uint40"
          }
        ],
        "numberOfBytes": "128"
      },
      "t_struct(Set)7059_storage": {
        "encoding": "inplace",
        "label": "struct EnumerableSet.Set",
        "members": [
          {
            "astId": 7054,
            "contract": "contracts/wombat-governance/BoostedMasterWombat.sol:BoostedMasterWombat",
            "label": "_values",
            "offset": 0,
            "slot": "0",
            "type": "t_array(t_bytes32)dyn_storage"
          },
          {
            "astId": 7058,
            "contract": "contracts/wombat-governance/BoostedMasterWombat.sol:BoostedMasterWombat",
            "label": "_indexes",
            "offset": 0,
            "slot": "1",
            "type": "t_mapping(t_bytes32,t_uint256)"
          }
        ],
        "numberOfBytes": "64"
      },
      "t_struct(UserInfo)17287_storage": {
        "encoding": "inplace",
        "label": "struct BoostedMasterWombat.UserInfo",
        "members": [
          {
            "astId": 17280,
            "contract": "contracts/wombat-governance/BoostedMasterWombat.sol:BoostedMasterWombat",
            "label": "amount",
            "offset": 0,
            "slot": "0",
            "type": "t_uint128"
          },
          {
            "astId": 17282,
            "contract": "contracts/wombat-governance/BoostedMasterWombat.sol:BoostedMasterWombat",
            "label": "factor",
            "offset": 16,
            "slot": "0",
            "type": "t_uint128"
          },
          {
            "astId": 17284,
            "contract": "contracts/wombat-governance/BoostedMasterWombat.sol:BoostedMasterWombat",
            "label": "rewardDebt",
            "offset": 0,
            "slot": "1",
            "type": "t_uint128"
          },
          {
            "astId": 17286,
            "contract": "contracts/wombat-governance/BoostedMasterWombat.sol:BoostedMasterWombat",
            "label": "pendingWom",
            "offset": 16,
            "slot": "1",
            "type": "t_uint128"
          }
        ],
        "numberOfBytes": "64"
      },
      "t_uint104": {
        "encoding": "inplace",
        "label": "uint104",
        "numberOfBytes": "13"
      },
      "t_uint128": {
        "encoding": "inplace",
        "label": "uint128",
        "numberOfBytes": "16"
      },
      "t_uint16": {
        "encoding": "inplace",
        "label": "uint16",
        "numberOfBytes": "2"
      },
      "t_uint256": {
        "encoding": "inplace",
        "label": "uint256",
        "numberOfBytes": "32"
      },
      "t_uint40": {
        "encoding": "inplace",
        "label": "uint40",
        "numberOfBytes": "5"
      },
      "t_uint8": {
        "encoding": "inplace",
        "label": "uint8",
        "numberOfBytes": "1"
      }
    }
  }
}