{
  "address": "0xb239B980bACdb3E6F5b7245fBA7c03a4061538c6",
  "abi": [
    {
      "anonymous": false,
      "inputs": [
        {
          "indexed": false,
          "internalType": "uint8",
          "name": "version",
          "type": "uint8"
        }
      ],
      "name": "Initialized",
      "type": "event"
    },
    {
      "anonymous": false,
      "inputs": [
        {
          "indexed": false,
          "internalType": "bool",
          "name": "isDeprecated",
          "type": "bool"
        }
      ],
      "name": "IsDeprecatedUpdated",
      "type": "event"
    },
    {
      "anonymous": false,
      "inputs": [
        {
          "indexed": true,
          "internalType": "address",
          "name": "rewardToken",
          "type": "address"
        },
        {
          "indexed": true,
          "internalType": "address",
          "name": "user",
          "type": "address"
        },
        {
          "indexed": false,
          "internalType": "uint256",
          "name": "amount",
          "type": "uint256"
        }
      ],
      "name": "OnReward",
      "type": "event"
    },
    {
      "anonymous": false,
      "inputs": [
        {
          "indexed": true,
          "internalType": "address",
          "name": "previousOwner",
          "type": "address"
        },
        {
          "indexed": true,
          "internalType": "address",
          "name": "newOwner",
          "type": "address"
        }
      ],
      "name": "OwnershipTransferred",
      "type": "event"
    },
    {
      "anonymous": false,
      "inputs": [
        {
          "indexed": true,
          "internalType": "address",
          "name": "rewardToken",
          "type": "address"
        },
        {
          "indexed": false,
          "internalType": "uint256",
          "name": "oldRate",
          "type": "uint256"
        },
        {
          "indexed": false,
          "internalType": "uint256",
          "name": "newRate",
          "type": "uint256"
        }
      ],
      "name": "RewardRateUpdated",
      "type": "event"
    },
    {
      "anonymous": false,
      "inputs": [
        {
          "indexed": true,
          "internalType": "bytes32",
          "name": "role",
          "type": "bytes32"
        },
        {
          "indexed": true,
          "internalType": "bytes32",
          "name": "previousAdminRole",
          "type": "bytes32"
        },
        {
          "indexed": true,
          "internalType": "bytes32",
          "name": "newAdminRole",
          "type": "bytes32"
        }
      ],
      "name": "RoleAdminChanged",
      "type": "event"
    },
    {
      "anonymous": false,
      "inputs": [
        {
          "indexed": true,
          "internalType": "bytes32",
          "name": "role",
          "type": "bytes32"
        },
        {
          "indexed": true,
          "internalType": "address",
          "name": "account",
          "type": "address"
        },
        {
          "indexed": true,
          "internalType": "address",
          "name": "sender",
          "type": "address"
        }
      ],
      "name": "RoleGranted",
      "type": "event"
    },
    {
      "anonymous": false,
      "inputs": [
        {
          "indexed": true,
          "internalType": "bytes32",
          "name": "role",
          "type": "bytes32"
        },
        {
          "indexed": true,
          "internalType": "address",
          "name": "account",
          "type": "address"
        },
        {
          "indexed": true,
          "internalType": "address",
          "name": "sender",
          "type": "address"
        }
      ],
      "name": "RoleRevoked",
      "type": "event"
    },
    {
      "anonymous": false,
      "inputs": [
        {
          "indexed": true,
          "internalType": "address",
          "name": "rewardToken",
          "type": "address"
        },
        {
          "indexed": false,
          "internalType": "uint40",
          "name": "newStartTime",
          "type": "uint40"
        }
      ],
      "name": "StartTimeUpdated",
      "type": "event"
    },
    {
      "inputs": [],
      "name": "ACC_TOKEN_PRECISION",
      "outputs": [
        {
          "internalType": "uint256",
          "name": "",
          "type": "uint256"
        }
      ],
      "stateMutability": "view",
      "type": "function"
    },
    {
      "inputs": [],
      "name": "DEFAULT_ADMIN_ROLE",
      "outputs": [
        {
          "internalType": "bytes32",
          "name": "",
          "type": "bytes32"
        }
      ],
      "stateMutability": "view",
      "type": "function"
    },
    {
      "inputs": [],
      "name": "MAX_REWARD_TOKENS",
      "outputs": [
        {
          "internalType": "uint256",
          "name": "",
          "type": "uint256"
        }
      ],
      "stateMutability": "view",
      "type": "function"
    },
    {
      "inputs": [],
      "name": "MAX_TOKEN_RATE",
      "outputs": [
        {
          "internalType": "uint256",
          "name": "",
          "type": "uint256"
        }
      ],
      "stateMutability": "view",
      "type": "function"
    },
    {
      "inputs": [],
      "name": "ROLE_OPERATOR",
      "outputs": [
        {
          "internalType": "bytes32",
          "name": "",
          "type": "bytes32"
        }
      ],
      "stateMutability": "view",
      "type": "function"
    },
    {
      "inputs": [],
      "name": "TOTAL_PARTITION",
      "outputs": [
        {
          "internalType": "uint256",
          "name": "",
          "type": "uint256"
        }
      ],
      "stateMutability": "view",
      "type": "function"
    },
    {
      "inputs": [
        {
          "internalType": "address",
          "name": "_operator",
          "type": "address"
        }
      ],
      "name": "addOperator",
      "outputs": [],
      "stateMutability": "nonpayable",
      "type": "function"
    },
    {
      "inputs": [
        {
          "internalType": "contract IERC20",
          "name": "_rewardToken",
          "type": "address"
        },
        {
          "internalType": "uint40",
          "name": "_startTimestampOrNow",
          "type": "uint40"
        },
        {
          "internalType": "uint96",
          "name": "_tokenPerSec",
          "type": "uint96"
        }
      ],
      "name": "addRewardToken",
      "outputs": [],
      "stateMutability": "nonpayable",
      "type": "function"
    },
    {
      "inputs": [],
      "name": "balances",
      "outputs": [
        {
          "internalType": "uint256[]",
          "name": "balances_",
          "type": "uint256[]"
        }
      ],
      "stateMutability": "view",
      "type": "function"
    },
    {
      "inputs": [],
      "name": "basePartition",
      "outputs": [
        {
          "internalType": "uint256",
          "name": "",
          "type": "uint256"
        }
      ],
      "stateMutability": "view",
      "type": "function"
    },
    {
      "inputs": [],
      "name": "bribeFactory",
      "outputs": [
        {
          "internalType": "contract IBribeRewarderFactory",
          "name": "",
          "type": "address"
        }
      ],
      "stateMutability": "view",
      "type": "function"
    },
    {
      "inputs": [],
      "name": "emergencyClaimReward",
      "outputs": [
        {
          "internalType": "uint256[]",
          "name": "rewards",
          "type": "uint256[]"
        }
      ],
      "stateMutability": "nonpayable",
      "type": "function"
    },
    {
      "inputs": [
        {
          "internalType": "address",
          "name": "token",
          "type": "address"
        }
      ],
      "name": "emergencyTokenWithdraw",
      "outputs": [],
      "stateMutability": "nonpayable",
      "type": "function"
    },
    {
      "inputs": [],
      "name": "emergencyWithdraw",
      "outputs": [],
      "stateMutability": "nonpayable",
      "type": "function"
    },
    {
      "inputs": [
        {
          "internalType": "bytes32",
          "name": "role",
          "type": "bytes32"
        }
      ],
      "name": "getRoleAdmin",
      "outputs": [
        {
          "internalType": "bytes32",
          "name": "",
          "type": "bytes32"
        }
      ],
      "stateMutability": "view",
      "type": "function"
    },
    {
      "inputs": [
        {
          "internalType": "bytes32",
          "name": "role",
          "type": "bytes32"
        },
        {
          "internalType": "uint256",
          "name": "index",
          "type": "uint256"
        }
      ],
      "name": "getRoleMember",
      "outputs": [
        {
          "internalType": "address",
          "name": "",
          "type": "address"
        }
      ],
      "stateMutability": "view",
      "type": "function"
    },
    {
      "inputs": [
        {
          "internalType": "bytes32",
          "name": "role",
          "type": "bytes32"
        }
      ],
      "name": "getRoleMemberCount",
      "outputs": [
        {
          "internalType": "uint256",
          "name": "",
          "type": "uint256"
        }
      ],
      "stateMutability": "view",
      "type": "function"
    },
    {
      "inputs": [
        {
          "internalType": "bytes32",
          "name": "role",
          "type": "bytes32"
        },
        {
          "internalType": "address",
          "name": "account",
          "type": "address"
        }
      ],
      "name": "grantRole",
      "outputs": [],
      "stateMutability": "nonpayable",
      "type": "function"
    },
    {
      "inputs": [
        {
          "internalType": "bytes32",
          "name": "role",
          "type": "bytes32"
        },
        {
          "internalType": "address",
          "name": "account",
          "type": "address"
        }
      ],
      "name": "hasRole",
      "outputs": [
        {
          "internalType": "bool",
          "name": "",
          "type": "bool"
        }
      ],
      "stateMutability": "view",
      "type": "function"
    },
    {
      "inputs": [
        {
          "internalType": "contract IBribeRewarderFactory",
          "name": "_bribeFactory",
          "type": "address"
        },
        {
          "internalType": "contract IBoostedMasterWombat",
          "name": "_masterWombat",
          "type": "address"
        },
        {
          "internalType": "contract IERC20",
          "name": "_lpToken",
          "type": "address"
        },
        {
          "internalType": "uint256",
          "name": "_startTimestamp",
          "type": "uint256"
        },
        {
          "internalType": "contract IERC20",
          "name": "_rewardToken",
          "type": "address"
        },
        {
          "internalType": "uint96",
          "name": "_tokenPerSec",
          "type": "uint96"
        }
      ],
      "name": "initialize",
      "outputs": [],
      "stateMutability": "nonpayable",
      "type": "function"
    },
    {
      "inputs": [],
      "name": "isDeprecated",
      "outputs": [
        {
          "internalType": "bool",
          "name": "",
          "type": "bool"
        }
      ],
      "stateMutability": "view",
      "type": "function"
    },
    {
      "inputs": [],
      "name": "isEmissionActive",
      "outputs": [
        {
          "internalType": "bool[]",
          "name": "isActive_",
          "type": "bool[]"
        }
      ],
      "stateMutability": "view",
      "type": "function"
    },
    {
      "inputs": [],
      "name": "lpToken",
      "outputs": [
        {
          "internalType": "contract IERC20",
          "name": "",
          "type": "address"
        }
      ],
      "stateMutability": "view",
      "type": "function"
    },
    {
      "inputs": [],
      "name": "masterWombat",
      "outputs": [
        {
          "internalType": "contract IBoostedMasterWombat",
          "name": "",
          "type": "address"
        }
      ],
      "stateMutability": "view",
      "type": "function"
    },
    {
      "inputs": [
        {
          "internalType": "address",
          "name": "_user",
          "type": "address"
        },
        {
          "internalType": "uint256",
          "name": "_newLpAmount",
          "type": "uint256"
        },
        {
          "internalType": "uint256",
          "name": "_newFactor",
          "type": "uint256"
        }
      ],
      "name": "onReward",
      "outputs": [
        {
          "internalType": "uint256[]",
          "name": "rewards",
          "type": "uint256[]"
        }
      ],
      "stateMutability": "nonpayable",
      "type": "function"
    },
    {
      "inputs": [
        {
          "internalType": "address",
          "name": "_user",
          "type": "address"
        },
        {
          "internalType": "uint256",
          "name": "_newFactor",
          "type": "uint256"
        }
      ],
      "name": "onUpdateFactor",
      "outputs": [],
      "stateMutability": "nonpayable",
      "type": "function"
    },
    {
      "inputs": [],
      "name": "owner",
      "outputs": [
        {
          "internalType": "address",
          "name": "",
          "type": "address"
        }
      ],
      "stateMutability": "view",
      "type": "function"
    },
    {
      "inputs": [
        {
          "internalType": "address",
          "name": "_user",
          "type": "address"
        }
      ],
      "name": "pendingTokens",
      "outputs": [
        {
          "internalType": "uint256[]",
          "name": "rewards_",
          "type": "uint256[]"
        }
      ],
      "stateMutability": "view",
      "type": "function"
    },
    {
      "inputs": [
        {
          "internalType": "address",
          "name": "_operator",
          "type": "address"
        }
      ],
      "name": "removeOperator",
      "outputs": [],
      "stateMutability": "nonpayable",
      "type": "function"
    },
    {
      "inputs": [],
      "name": "renounceOwnership",
      "outputs": [],
      "stateMutability": "nonpayable",
      "type": "function"
    },
    {
      "inputs": [
        {
          "internalType": "bytes32",
          "name": "role",
          "type": "bytes32"
        },
        {
          "internalType": "address",
          "name": "account",
          "type": "address"
        }
      ],
      "name": "renounceRole",
      "outputs": [],
      "stateMutability": "nonpayable",
      "type": "function"
    },
    {
      "inputs": [
        {
          "internalType": "bytes32",
          "name": "role",
          "type": "bytes32"
        },
        {
          "internalType": "address",
          "name": "account",
          "type": "address"
        }
      ],
      "name": "revokeRole",
      "outputs": [],
      "stateMutability": "nonpayable",
      "type": "function"
    },
    {
      "inputs": [
        {
          "internalType": "uint256",
          "name": "i",
          "type": "uint256"
        }
      ],
      "name": "rewardInfo",
      "outputs": [
        {
          "components": [
            {
              "internalType": "contract IERC20",
              "name": "rewardToken",
              "type": "address"
            },
            {
              "internalType": "uint96",
              "name": "tokenPerSec",
              "type": "uint96"
            },
            {
              "internalType": "uint128",
              "name": "accTokenPerShare",
              "type": "uint128"
            },
            {
              "internalType": "uint128",
              "name": "accTokenPerFactorShare",
              "type": "uint128"
            },
            {
              "internalType": "uint128",
              "name": "distributedAmount",
              "type": "uint128"
            },
            {
              "internalType": "uint128",
              "name": "claimedAmount",
              "type": "uint128"
            },
            {
              "internalType": "uint40",
              "name": "lastRewardTimestamp",
              "type": "uint40"
            }
          ],
          "internalType": "struct BoostedMultiRewarder.RewardInfo",
          "name": "info",
          "type": "tuple"
        }
      ],
      "stateMutability": "view",
      "type": "function"
    },
    {
      "inputs": [
        {
          "internalType": "uint256",
          "name": "",
          "type": "uint256"
        }
      ],
      "name": "rewardInfos",
      "outputs": [
        {
          "internalType": "contract IERC20",
          "name": "rewardToken",
          "type": "address"
        },
        {
          "internalType": "uint96",
          "name": "tokenPerSec",
          "type": "uint96"
        },
        {
          "internalType": "uint128",
          "name": "accTokenPerShare",
          "type": "uint128"
        },
        {
          "internalType": "uint128",
          "name": "accTokenPerFactorShare",
          "type": "uint128"
        },
        {
          "internalType": "uint128",
          "name": "distributedAmount",
          "type": "uint128"
        },
        {
          "internalType": "uint128",
          "name": "claimedAmount",
          "type": "uint128"
        },
        {
          "internalType": "uint40",
          "name": "lastRewardTimestamp",
          "type": "uint40"
        }
      ],
      "stateMutability": "view",
      "type": "function"
    },
    {
      "inputs": [],
      "name": "rewardLength",
      "outputs": [
        {
          "internalType": "uint256",
          "name": "",
          "type": "uint256"
        }
      ],
      "stateMutability": "view",
      "type": "function"
    },
    {
      "inputs": [],
      "name": "rewardTokenSurpluses",
      "outputs": [
        {
          "internalType": "int256[]",
          "name": "surpluses_",
          "type": "int256[]"
        }
      ],
      "stateMutability": "view",
      "type": "function"
    },
    {
      "inputs": [],
      "name": "rewardTokens",
      "outputs": [
        {
          "internalType": "contract IERC20[]",
          "name": "tokens",
          "type": "address[]"
        }
      ],
      "stateMutability": "view",
      "type": "function"
    },
    {
      "inputs": [],
      "name": "rewardsToDistribute",
      "outputs": [
        {
          "internalType": "uint256[]",
          "name": "rewards_",
          "type": "uint256[]"
        }
      ],
      "stateMutability": "view",
      "type": "function"
    },
    {
      "inputs": [],
      "name": "runoutTimestamps",
      "outputs": [
        {
          "internalType": "uint40[]",
          "name": "timestamps_",
          "type": "uint40[]"
        }
      ],
      "stateMutability": "view",
      "type": "function"
    },
    {
      "inputs": [
        {
          "internalType": "bool",
          "name": "_isDeprecated",
          "type": "bool"
        }
      ],
      "name": "setIsDeprecated",
      "outputs": [],
      "stateMutability": "nonpayable",
      "type": "function"
    },
    {
      "inputs": [
        {
          "internalType": "uint256",
          "name": "_tokenId",
          "type": "uint256"
        },
        {
          "internalType": "uint96",
          "name": "_tokenPerSec",
          "type": "uint96"
        },
        {
          "internalType": "uint40",
          "name": "_startTimestampToOverride",
          "type": "uint40"
        }
      ],
      "name": "setRewardRate",
      "outputs": [],
      "stateMutability": "nonpayable",
      "type": "function"
    },
    {
      "inputs": [
        {
          "internalType": "bytes4",
          "name": "interfaceId",
          "type": "bytes4"
        }
      ],
      "name": "supportsInterface",
      "outputs": [
        {
          "internalType": "bool",
          "name": "",
          "type": "bool"
        }
      ],
      "stateMutability": "view",
      "type": "function"
    },
    {
      "inputs": [
        {
          "internalType": "address",
          "name": "newOwner",
          "type": "address"
        }
      ],
      "name": "transferOwnership",
      "outputs": [],
      "stateMutability": "nonpayable",
      "type": "function"
    },
    {
      "inputs": [],
      "name": "updateReward",
      "outputs": [],
      "stateMutability": "nonpayable",
      "type": "function"
    },
    {
      "inputs": [
        {
          "internalType": "address",
          "name": "",
          "type": "address"
        }
      ],
      "name": "userBalanceInfo",
      "outputs": [
        {
          "internalType": "uint128",
          "name": "amount",
          "type": "uint128"
        },
        {
          "internalType": "uint128",
          "name": "factor",
          "type": "uint128"
        }
      ],
      "stateMutability": "view",
      "type": "function"
    },
    {
      "inputs": [
        {
          "internalType": "uint256",
          "name": "",
          "type": "uint256"
        },
        {
          "internalType": "address",
          "name": "",
          "type": "address"
        }
      ],
      "name": "userRewardInfo",
      "outputs": [
        {
          "internalType": "uint128",
          "name": "rewardDebt",
          "type": "uint128"
        },
        {
          "internalType": "uint128",
          "name": "unpaidRewards",
          "type": "uint128"
        }
      ],
      "stateMutability": "view",
      "type": "function"
    },
    {
      "stateMutability": "payable",
      "type": "receive"
    }
  ],
  "transactionHash": "0x874091c930b8fb287d79e61eaef980ec6118d350b69e231e4aa95744de74220a",
  "args": [],
  "numDeployments": 1,
  "solcInputHash": "b2babcea87541528c8f1d91b9bfd0b54",
  "bytecode": "0x6080806040523461001657613d65908161001c8239f35b600080fdfe60e080604052600436101561001d575b50361561001b57600080fd5b005b60003560e01c90816301ffc9a7146126c557508063112a5d581461267257806312bc7bfd146122e45780632474e18114612050578063248a9ca3146120215780632f2ff15d14611fa957806336568abe14611f0a5780633bd61ba814611ee2578063441b502c14611ec55780634e8a947e14611db15780635d0cde9714611d955780635fcbd28514611d6d578063658ec4e414611934578063715018a6146118d9578063731994fc1461147c5780637bb98a681461146057806381a00f831461139a578063858ce1a4146111fc57806389d6517f1461116f5780638bab3786146111135780638da5cb5b146110ec5780639010d07c146110a657806391d14854146110585780639870d7fe14610f8357806398a1b39714610f48578063a217fddf14610f2c578063a5eceb1b14610b16578063abfef11114610af3578063ac8a584a14610a22578063ad56882714610971578063b024b43714610935578063b95c574614610916578063c031a66f14610701578063c2b18aa014610630578063c717823014610609578063ca15c873146105dd578063ccbd9b7514610544578063d547741f14610505578063d5dd2c4f146104dd578063d6a084f3146104b8578063db2e21bc146103ab578063eb4a78e014610383578063eea0160414610360578063f2fde38b146102bd578063f36c0a72146102a45763f709f23b14610224573861000f565b3461029f57604036600319011261029f5761023d6127ac565b6004356000526101316020526001600160a01b036040600020911660005260205261029b60406000205460405191816001600160801b03849360801c9116839060209093929360408301946001600160801b03809216845216910152565b0390f35b600080fd5b3461029f57600036600319011261029f5761001b613111565b3461029f57602036600319011261029f576102d6612796565b6102de612ccf565b6001600160a01b038116156102f65761001b90612d27565b608460405162461bcd60e51b815260206004820152602660248201527f4f776e61626c653a206e6577206f776e657220697320746865207a65726f206160448201527f64647265737300000000000000000000000000000000000000000000000000006064820152fd5b3461029f57600036600319011261029f576020604051670de0b6b3a76400008152f35b3461029f57600036600319011261029f5760206001600160a01b036101325416604051908152f35b3461029f57600036600319011261029f576103c4612ccf565b61012f544264ffffffffff169060005b8181106103dd57005b6103e6816127fd565b509060036001600160a01b0383541692838155018464ffffffffff19825416179055610410612ccf565b8161043e576104399150610434600080808047335af161042e613628565b50613668565b6130d3565b6103d4565b6040516370a0823160e01b81523060048201526020908181602481875afa9182156104ac5760009261047c575b5050610434906104399333906136b3565b90809250813d83116104a5575b6104938183612bf7565b8101031261029f57518261043461046b565b503d610489565b6040513d6000823e3d90fd5b3461029f57600036600319011261029f57602060405169021e19e0c9bab24000008152f35b3461029f57600036600319011261029f5761029b6104f96139af565b604051918291826127c2565b3461029f57604036600319011261029f5761001b6004356105246127ac565b9080600052609760205261053f60016040600020015461284d565b612c45565b3461029f57602036600319011261029f5760043580151580910361029f5760207fdf1c2ccfd21e3329e1124daf53bdfee90ba7d708a557bf15e5c4eddd57fa24c99161058e612ccf565b61013280547fffffffffffffffffffffff00ffffffffffffffffffffffffffffffffffffffff74ff00000000000000000000000000000000000000008460a01b169116179055604051908152a1005b3461029f57602036600319011261029f5760043560005260c96020526020604060002054604051908152f35b3461029f57600036600319011261029f57602060ff6101325460a01c166040519015158152f35b3461029f57600036600319011261029f5761012f5461064e816135de565b61065b6040519182612bf7565b818152610667826135de565b6020928383019291601f190136843760005b8181106106cc57505090604051928392818401908285525180915260408401929160005b8281106106ac57505050500390f35b83516001600160a01b03168552869550938101939281019260010161069d565b806001600160a01b036106ea6106e46106fc946127fd565b50613895565b51166106f682866130e2565b526130d3565b610679565b3461029f57602036600319011261029f576001600160a01b0380610723612796565b1690816000526101306020526040600020546080528061012e54169061012d54166040519063015f253560e71b82526004820152602081602481855afa80156104ac576000906108e3575b60209150602460405180948193630bb46c4760e31b835260048301525afa80156104ac57600060c0526108b0575b5061012f546107aa816135f6565b916107b36139af565b60a05260005b8281106107ce576040518061029b86826127c2565b8061086c6107e16106e4610876946127fd565b826000526101316020526040600020856000526020526001600160801b03610864670de0b6b3a76400006108566040600020946108506108448660608160408601511694015116928a610832613aaf565b8061087b575b50508760805116612d7e565b9160805160801c612d7e565b90612d91565b049254928360801c90612d91565b911690612e51565b6106f682876130e2565b6107b9565b61089c6108a893926108a29261089660c0519260a0516130e2565b5161391f565b92612d91565b94612d91565b928a38610838565b6020813d6020116108db575b816108c960209383612bf7565b8101031261029f575160c0528161079c565b3d91506108bc565b506020813d60201161090e575b816108fd60209383612bf7565b8101031261029f576020905161076e565b3d91506108f0565b3461029f57600036600319011261029f57602061012f54604051908152f35b3461029f57604036600319011261029f5761001b610951612796565b6109686001600160a01b0361012e541633146132e3565b602435906133cf565b3461029f57602036600319011261029f576001600160a01b03610992612796565b61099a612ccf565b16806109b5575061001b600080808047335af161042e613628565b604051906370a0823160e01b8252306004830152602082602481845afa9081156104ac576000916109ed575b61001b925033906136b3565b90506020823d8211610a1a575b81610a0760209383612bf7565b8101031261029f5761001b9151906109e1565b3d91506109fa565b3461029f5760208060031936011261029f5761001b9060c9610a42612796565b91610a4b612ccf565b7f46a52cf33029de9f84853745a87af28464c80bf0346df1b32e205fc73319f62280600052609782526001600160a01b03604060002094169384600052825260ff60406000205416610aa6575b600052526040600020612e5e565b80600052609782526040600020846000528252604060002060ff1981541690553384827ff6391f5c32d9c69d2a47ea670b442974b53935d1edc7fd64eb21e047a839171b600080a4610a98565b3461029f57600036600319011261029f576020610b0e613548565b604051908152f35b3461029f57606036600319011261029f57610b2f612796565b602480359164ffffffffff928381169384820361029f576044918235956bffffffffffffffffffffffff871680970361029f573360009081527ffdc1535cdd2f355f3856ccff3baa99da917bdc4f8f249bcffd4d51836919939c602090815260409091205490969060ff168015610f13575b610baa90613070565b6001600160a01b039586610132541682898215928315610e96575b50505015610e2e57861694853b15801590610e26575b15610dbe57821580938115610db3575b5015610d715761012f5491600a831015610d2f5760005b838110610ccc578a7f225033f2ea5486463cbb49ceda2823be38daddc85031ce2c637e7ad0950bc85a60408c8c8c8c8c8c610c3b613111565b15610cc757508042165b855192610c5184612bc5565b83528785840152670de0b6b3a7640000868401526000606084015260006080840152600060a0840152168060c0830152610c8a82612f3a565b7f99e4a80c4e66b0b3fbf1bbe586cf7708be5e406b09778228cdb64b480226c3898484845116928751908152a251169382519160008352820152a2005b610c45565b8789610cd7836127fd565b50541614610ced57610ce8906130d3565b610c02565b60648a7f746f6b656e2068617320616c7265616479206265656e2061646465640000000085601c866040519462461bcd60e51b86526004860152840152820152fd5b7f72657761726420746f6b656e206c656e67746820657863656564656400000000606492601c8b936040519462461bcd60e51b86526004860152840152820152fd5b7f696e76616c6964205f737461727454696d657374616d70000000000000000000889160176064946040519462461bcd60e51b86526004860152840152820152fd5b90504211158a610beb565b7f72657761726420746f6b656e206d75737420626520612076616c696420636f6e889160256084946040519462461bcd60e51b865260048601528401528201527f74726163740000000000000000000000000000000000000000000000000000006064820152fd5b508515610bdb565b6084887f72657761726420746f6b656e206d7573742062652077686974656c6973746564886031866040519462461bcd60e51b865260048601528401528201527f20627920627269626520666163746f72790000000000000000000000000000006064820152fd5b90919250604051928380927fbbe78b380000000000000000000000000000000000000000000000000000000082528c871660048301525afa9081156104ac57600091610ee6575b5082898c610bc5565b610f069150893d8b11610f0c575b610efe8183612bf7565b8101906130bb565b8a610edd565b503d610ef4565b50610baa6001600160a01b036033541633149050610ba1565b3461029f57600036600319011261029f57602060405160008152f35b3461029f57600036600319011261029f5760206040517f46a52cf33029de9f84853745a87af28464c80bf0346df1b32e205fc73319f6228152f35b3461029f5760208060031936011261029f5761001b9060c9610fa3612796565b91610fac612ccf565b7f46a52cf33029de9f84853745a87af28464c80bf0346df1b32e205fc73319f62280600052609782526001600160a01b03604060002094169384600052825260ff6040600020541615611008575b600052526040600020612dc7565b806000526097825260406000208460005282526040600020600160ff198254161790553384827f2f8788117e7eff1d82e926ec794901d17c78024a50270940304540a733656f0d600080a4610ffa565b3461029f57604036600319011261029f576110716127ac565b60043560005260976020526001600160a01b0360406000209116600052602052602060ff604060002054166040519015158152f35b3461029f57604036600319011261029f5760043560005260c960205260206001600160a01b036110dc6024356040600020612daf565b9190546040519260031b1c168152f35b3461029f57600036600319011261029f5760206001600160a01b0360335416604051908152f35b3461029f57600036600319011261029f5761112c613b38565b604051809160208083018184528251809152816040850193019160005b82811061115857505050500390f35b835185528695509381019392810192600101611149565b3461029f57602036600319011261029f5760043561012f5481101561029f5761119960e0916127fd565b5080549060018101549064ffffffffff600360028301549201541691604051936001600160a01b038116855260a01c60208501526001600160801b0390818116604086015260801c60608501528116608084015260801c60a083015260c0820152f35b3461029f57600036600319011261029f5761012f5461121a816135de565b6112276040519182612bf7565b818152611233826135de565b6020928383019291601f190136843761124a613c0f565b611252613b38565b9060005b8381106112a757868587604051928392818401908285525180915260408401929160005b82811061128957505050500390f35b835164ffffffffff168552869550938101939281019260010161127a565b6112b36106e4826127fd565b9060006112c082866130e2565b511380611380575b6112dc575b6112d791506130d3565b611256565b60c06113116001600160801b036113048160a0870151166112fd86896130e2565b5190612d91565b9060808601511690612e51565b928981016bffffffffffffffffffffffff91828251169064ffffffffff948591015116029180831692830361136a57611350611359936112d797612d91565b915116906138ff565b1661136482886130e2565b526112cd565b634e487b7160e01b600052601160045260246000fd5b506bffffffffffffffffffffffff888301511615156112c8565b3461029f57602036600319011261029f57600060c06040516113bb81612bc5565b8281528260208201528260408201528260608201528260808201528260a0820152015260e06113ee6106e46004356127fd565b64ffffffffff60c0604051926001600160a01b0381511684526bffffffffffffffffffffffff60208201511660208501526001600160801b0380604083015116604086015280606083015116606086015280608083015116608086015260a08201511660a085015201511660c0820152f35b3461029f57600036600319011261029f5761029b6104f9613c0f565b3461029f5760c036600319011261029f576004356001600160a01b039081811680910361029f5760249081359183831680930361029f5760449283359285841680940361029f57606493843592608480359589871680970361029f5760a435976bffffffffffffffffffffffff891680990361029f576000549960ff8b60081c16159a8b809c6118cc575b80156118b5575b1561184f5760ff1981166001176000558b61183d575b50883b15801590611835575b156117d057853b1561176b57843b15611706574288106116a257505050507f99e4a80c4e66b0b3fbf1bbe586cf7708be5e406b09778228cdb64b480226c3899360209361166498999364ffffffffff9361159a60ff60005460081c1661159581612fff565b612fff565b6115a333612d27565b6115b860ff60005460081c1661159581612fff565b600160fb556001600160a01b031992610132908482541617905561012e908382541617905561012d9182541617905516937f225033f2ea5486463cbb49ceda2823be38daddc85031ce2c637e7ad0950bc85a604080519761161889612bc5565b83895280868a0152670de0b6b3a7640000828a0152600060608a0152600060808a0152600060a08a01528760c08a01528151906000825286820152a284511692604051908152a2612f3a565b61166a57005b61ff0019600054166000557f7f26b83ff96e1f2b6a682f133852f6798a09c465da95921460cefb3847402498602060405160018152a1005b907f636f6e7374727563746f723a20696e76616c6964205f737461727454696d65737f74616d7000000000000000000000000000000000000000000000000000000000926040519462461bcd60e51b86526020600487015280860152840152820152fd5b907f636f6e7374727563746f723a204d617374657220576f6d626174206d757374207f626520612076616c696420636f6e7472616374000000000000000000000000009260336040519562461bcd60e51b875260206004880152860152840152820152fd5b907f636f6e7374727563746f723a204c5020746f6b656e206d7573742062652061207f76616c696420636f6e747261637400000000000000000000000000000000000092602e6040519562461bcd60e51b875260206004880152860152840152820152fd5b907f636f6e7374727563746f723a2072657761726420746f6b656e206d75737420627f6520612076616c696420636f6e747261637400000000000000000000000000009260326040519562461bcd60e51b875260206004880152860152840152820152fd5b508815611530565b61ffff1916610101176000558c611524565b50907f496e697469616c697a61626c653a20636f6e747261637420697320616c7265617f647920696e697469616c697a656400000000000000000000000000000000000092602e6040519562461bcd60e51b875260206004880152860152840152820152fd5b50303b15801561150e5750600160ff82161461150e565b50600160ff821610611507565b3461029f57600036600319011261029f576118f2612ccf565b60006001600160a01b036033546001600160a01b03198116603355167f8be0079c531659141344cd1fd0a4f28419497f9722a3daafe3b4186f6b6457e08280a3005b3461029f57606036600319011261029f5761194d612796565b6119646001600160a01b0361012e541633146132e3565b61196c61337a565b611974613111565b61012f5490611982826135f6565b9160005b818110611a245761029b84611a13856119a0602435613cd7565b6001600160a01b03821660005261013090816020526001600160801b03604060002091166001600160801b03198254161790556001600160a01b036119e6604435613cd7565b92166000526020526040600020906001600160801b036001600160801b031983549260801b169116179055565b600160fb55604051918291826127c2565b611a2d816127fd565b50908060005261013160205260406000206001600160a01b03851660005260205260406000206001600160a01b03835416908581546001600160801b038116908115801590611d61575b611b1c575b5050506001600160801b03611ac1670de0b6b3a7640000611abb6001611b17980154610850611aaf868316602435612d7e565b9160801c604435612d7e565b04613cd7565b166001600160801b0319825416179055611adb82876130e2565b51906040519182527f986cbc32375de61d1fabfb01aef452f5c919f2180bb72fff0fb182126a02b52760206001600160a01b03881693a36130d3565b611986565b90611b79611b7e92610130602052670de0b6b3a7640000611b6e60406000205461085060018d015491611b616001600160801b0384166001600160801b038316612d7e565b9260801c9060801c612d7e565b049060801c90612d91565b612e51565b8884611c8f57611abb6001611b1798886001600160801b0396611ac196670de0b6b3a7640000964792838311600014611c4a579183611bdb611c3e968294611bd66000808080611c1e9c611c199c5af161042e613628565b6130e2565b52611b79611be883613cd7565b611bfa6002890191825460801c6130f6565b6001600160801b036001600160801b031983549260801b169116179055565b613cd7565b88546001600160801b031660809190911b6001600160801b031916178855565b98505050889250611a7c565b611c729350611c84948392611bd6600080808088611c6c985af161042e613628565b52613cd7565b611bfa6002840191825460801c6130f6565b858754168755611c3e565b506040516370a0823160e01b81523060048201529150602082602481875afa9182156104ac57888a91600094611d28575b506001611b1798888686670de0b6b3a764000096611abb968c6001600160801b039b611ac19b11600014611d0f5793611bdb611d0a968294611bd684611c199896611c1e9a6136b3565b611c3e565b611c729450948392611bd684611c6c94611c84996136b3565b92935050506020813d602011611d59575b81611d4660209383612bf7565b8101031261029f57519088886001611cc0565b3d9150611d39565b508060801c1515611a77565b3461029f57600036600319011261029f5760206001600160a01b0361012d5416604051908152f35b3461029f57600036600319011261029f576020604051600a8152f35b3461029f57600036600319011261029f5761012f54611dcf816135de565b611ddc6040519182612bf7565b818152611de8826135de565b6020928383019291601f1901368437611dff613b38565b60005b828110611e4f5750505090604051928392818401908285525180915260408401929160005b828110611e3657505050500390f35b8351151585528695509381019392810192600101611e27565b80611e5f6106e4611e8f936127fd565b6000611e6b83866130e2565b51139081611eaa575b81611e94575b50611e8582876130e2565b90151590526130d3565b611e02565b64ffffffffff915060c001511642101588611e7a565b888101516bffffffffffffffffffffffff1615159150611e74565b3461029f57600036600319011261029f5760206040516103e88152f35b3461029f57600036600319011261029f5760206001600160a01b0361012e5416604051908152f35b3461029f57604036600319011261029f57611f236127ac565b336001600160a01b03821603611f3f5761001b90600435612c45565b608460405162461bcd60e51b815260206004820152602f60248201527f416363657373436f6e74726f6c3a2063616e206f6e6c792072656e6f756e636560448201527f20726f6c657320666f722073656c6600000000000000000000000000000000006064820152fd5b3461029f57604036600319011261029f5761001b60043560c9611fca6127ac565b918060005260209060978252611fe760016040600020015461284d565b80600052609782526001600160a01b03604060002094169384600052825260ff604060002054161561100857600052526040600020612dc7565b3461029f57602036600319011261029f5760043560005260976020526020600160406000200154604051908152f35b3461029f57606036600319011261029f576004356024356bffffffffffffffffffffffff811680820361029f576044359264ffffffffff841680940361029f573360009081527ffdc1535cdd2f355f3856ccff3baa99da917bdc4f8f249bcffd4d51836919939c602090815260409091205490949060ff1680156122cb575b6120d890613070565b61012f548210156122875780158015908161227d575b156122135769021e19e0c9bab240000084116121cf5761217a7f225033f2ea5486463cbb49ceda2823be38daddc85031ce2c637e7ad0950bc85a9593604095936001600160a01b039361213f613111565b89612149846127fd565b5080546001600160a01b03811660a09a8b1b6001600160a01b03191617825590981c9791612189575b5050506127fd565b505416948351928352820152a2005b858260037f99e4a80c4e66b0b3fbf1bbe586cf7708be5e406b09778228cdb64b480226c38994018564ffffffffff198254161790555416928951908152a2888089612172565b6064866040519062461bcd60e51b82526004820152601460248201527f726577617264207261746520746f6f20686967680000000000000000000000006044820152fd5b6084866040519062461bcd60e51b82526004820152602160248201527f696e76616c6964205f737461727454696d657374616d70546f4f76657272696460448201527f65000000000000000000000000000000000000000000000000000000000000006064820152fd5b50428210156120ee565b6064856040519062461bcd60e51b82526004820152601060248201527f696e76616c6964205f746f6b656e4964000000000000000000000000000000006044820152fd5b506120d86001600160a01b0360335416331490506120cf565b3461029f57600036600319011261029f576122fd61337a565b612305613111565b60ff6101325460a01c16156126085761012f54612321816135f6565b9060005b8181106123525761029b833360005261013060205260006040812055600160fb55604051918291826127c2565b8061235d84926127fd565b50816000526020906101318252604060002033600052825260406000206001600160a01b03825416918154906001600160801b039182811680158015906125fc575b612426575b50506124219650670de0b6b3a7640000611abb60016123d69301546108506123cd868316612d6f565b9160801c612d6f565b166001600160801b03198254161790557f986cbc32375de61d1fabfb01aef452f5c919f2180bb72fff0fb182126a02b52761241184886130e2565b51926040519384523393a36130d3565b612325565b612474906101308852611b7960406000205493670de0b6b3a764000061246a60018801549661085061245c8b8a168c8416612d7e565b916080998a1c908a1c612d7e565b0490851c90612d91565b908561252e5760016123d6936124219a670de0b6b3a764000094611abb948c47938484116000146124ee5792611b79611c1993866124c88195611c1e98611bd660008080806124e39f335af161042e613628565b52611bfa6124d585613cd7565b60028a01928354901c6130f6565b9350508a98506123a4565b61252394509280611c6c61251593611bfa9596611bd6600080808088335af161042e613628565b60028501928354901c6130f6565b8587541687556124e3565b9750604051906370a0823160e01b82523060048301528682602481895afa9182156104ac578b906000936125c8575b506123d69383836124219c8c6001958c670de0b6b3a764000099611abb99116000146125a957611c1993866124c88195611c1e9895611bd66125a49b611b799733906136b3565b6124e3565b612523955093611c6c612515938293611bd684611bfa989933906136b3565b809350888092503d83116125f5575b6125e18183612bf7565b8101031261029f579051908a6123d661255d565b503d6125d7565b508160801c151561239f565b608460405162461bcd60e51b815260206004820152602260248201527f7265776172646572202f206272696265206973206e6f7420646570726563617460448201527f65640000000000000000000000000000000000000000000000000000000000006064820152fd5b3461029f57602036600319011261029f576001600160a01b03612693612796565b16600090815261013060209081526040918290205482516001600160801b038216815260809190911c91810191909152f35b3461029f57602036600319011261029f57600435907fffffffff00000000000000000000000000000000000000000000000000000000821680920361029f57817f5a05180f0000000000000000000000000000000000000000000000000000000060209314908115612739575b5015158152f35b7f7965db0b0000000000000000000000000000000000000000000000000000000081149150811561276c575b5083612732565b7f01ffc9a70000000000000000000000000000000000000000000000000000000091501483612765565b600435906001600160a01b038216820361029f57565b602435906001600160a01b038216820361029f57565b6020908160408183019282815285518094520193019160005b8281106127e9575050505090565b8351855293810193928101926001016127db565b61012f80548210156128375760005260021b7f232da9e50dad2971456a78fb5cd6ff6b75019984d6e918139ce990999420f9790190600090565b634e487b7160e01b600052603260045260246000fd5b600081815260209060978252604092838220338352835260ff8483205416156128765750505050565b835167ffffffffffffffff9190336060820184811183821017612b8e578752602a82528582019287368537825115612b7a5760308453825191600192831015612b66576078602185015360295b838111612aef5750612aad5790875194608086019086821090821117612a9957885260428552868501956060368837855115612a8557603087538551821015612a855790607860218701536041915b818311612a0a575050506129c8579385936129ae9361299f60489461296a7f416363657373436f6e74726f6c3a206163636f756e7420000000000000000000996129c49b519a8b978801525180926037880190612ba2565b8401917f206973206d697373696e6720726f6c6520000000000000000000000000000000603784015251809386840190612ba2565b01036028810185520183612bf7565b5191829162461bcd60e51b835260048301612c19565b0390fd5b60648587519062461bcd60e51b825280600483015260248201527f537472696e67733a20686578206c656e67746820696e73756666696369656e746044820152fd5b909192600f81166010811015612a71577f3031323334353637383961626364656600000000000000000000000000000000901a612a478589612d9e565b5360041c928015612a5d57600019019190612912565b602482634e487b7160e01b81526011600452fd5b602483634e487b7160e01b81526032600452fd5b80634e487b7160e01b602492526032600452fd5b602487634e487b7160e01b81526041600452fd5b60648789519062461bcd60e51b825280600483015260248201527f537472696e67733a20686578206c656e67746820696e73756666696369656e746044820152fd5b90600f81166010811015612b52577f3031323334353637383961626364656600000000000000000000000000000000901a612b2a8387612d9e565b5360041c908015612b3e57600019016128c3565b602488634e487b7160e01b81526011600452fd5b602489634e487b7160e01b81526032600452fd5b602487634e487b7160e01b81526032600452fd5b602486634e487b7160e01b81526032600452fd5b602486634e487b7160e01b81526041600452fd5b60005b838110612bb55750506000910152565b8181015183820152602001612ba5565b60e0810190811067ffffffffffffffff821117612be157604052565b634e487b7160e01b600052604160045260246000fd5b90601f8019910116810190811067ffffffffffffffff821117612be157604052565b60409160208252612c398151809281602086015260208686019101612ba2565b601f01601f1916010190565b906040612c849260009080825260976020526001600160a01b0383832094169384835260205260ff8383205416612c87575b815260c960205220612e5e565b50565b808252609760205282822084835260205282822060ff1981541690553384827ff6391f5c32d9c69d2a47ea670b442974b53935d1edc7fd64eb21e047a839171b8580a4612c77565b6001600160a01b03603354163303612ce357565b606460405162461bcd60e51b815260206004820152602060248201527f4f776e61626c653a2063616c6c6572206973206e6f7420746865206f776e65726044820152fd5b603354906001600160a01b0380911691826001600160a01b0319821617603355167f8be0079c531659141344cd1fd0a4f28419497f9722a3daafe3b4186f6b6457e0600080a3565b90600091156001171561136a57565b8181029291811591840414171561136a57565b9190820180921161136a57565b908151811015612837570160200190565b80548210156128375760005260206000200190600090565b91906001830160009082825280602052604082205415600014612e4b5784549468010000000000000000861015612e375783612e27612e10886001604098999a01855584612daf565b819391549060031b91821b91600019901b19161790565b9055549382526020522055600190565b602483634e487b7160e01b81526041600452fd5b50925050565b9190820391821161136a57565b90600182019060009281845282602052604084205490811515600014612f335760001991808301818111612f1f57825490848201918211612b3e57808203612eea575b50505080548015612ed657820191612eb98383612daf565b909182549160031b1b191690555582526020526040812055600190565b602486634e487b7160e01b81526031600452fd5b612f0a612efa612e109386612daf565b90549060031b1c92839286612daf565b90558652846020526040862055388080612ea1565b602487634e487b7160e01b81526011600452fd5b5050505090565b61012f805468010000000000000000811015612be157612f5f916001820190556127fd565b612fe957815160208301516001600160a01b039091166001600160a01b031960a092831b16178255604083015160608401516001600160801b039182166001600160801b0319608092831b8116919091176001860155818601519386015190911b16911617600282015564ffffffffff9060c0906003019201511664ffffffffff19825416179055565b634e487b7160e01b600052600060045260246000fd5b1561300657565b608460405162461bcd60e51b815260206004820152602b60248201527f496e697469616c697a61626c653a20636f6e7472616374206973206e6f74206960448201527f6e697469616c697a696e670000000000000000000000000000000000000000006064820152fd5b1561307757565b606460405162461bcd60e51b815260206004820152600e60248201527f6e6f7420617574686f72697a65640000000000000000000000000000000000006044820152fd5b9081602091031261029f5751801515810361029f5790565b600019811461136a5760010190565b80518210156128375760209160051b010190565b9190916001600160801b038080941691160191821161136a57565b613119613aaf565b6001600160a01b03908161012e54169161012d5416916040519263015f253560e71b845260048401526020928381602481855afa80156104ac5784916000916132b5575b50602460405180948193630bb46c4760e31b835260048301525afa9283156104ac57600093613281575b50506131916139af565b9061012f549260005b8481106131a8575050505050565b8060036131b76131e5936127fd565b506131c283886130e2565b5180613200575b5001805464ffffffffff42818316106131ea575b5050506130d3565b61319a565b42169064ffffffffff19161790553880806131dd565b61321f61326182611c196132188a8c6132419761391f565b9490613cd7565b93611bfa60018801916132588354976001600160801b03998a91828b166130f6565b166001600160801b03198099161791828555613cd7565b9060801c6130f6565b9060028401926132758454938285166130f6565b169116179055386131c9565b8181949293943d83116132ae575b6132998183612bf7565b810103126132ab575051903880613187565b80fd5b503d61328f565b9182813d83116132dc575b6132ca8183612bf7565b810103126132ab57508390513861315d565b503d6132c0565b156132ea57565b60a460405162461bcd60e51b815260206004820152604560248201527f426f6f737465644d756c746952657761726465725065725365633a206f6e6c7960448201527f204d617374657220576f6d6261742063616e2063616c6c20746869732066756e60648201527f6374696f6e0000000000000000000000000000000000000000000000000000006084820152fd5b600260fb541461338b57600260fb55565b606460405162461bcd60e51b815260206004820152601f60248201527f5265656e7472616e637947756172643a207265656e7472616e742063616c6c006044820152fd5b906103e86133db613548565b14613544576133e8613111565b61012f5460005b81811061343f575050906001600160a01b0361340d61343d93613cd7565b91166000526101306020526040600020906001600160801b036001600160801b031983549260801b169116179055565b565b80611abb61344f6134eb936127fd565b50826000526134d6670de0b6b3a7640000602093849361013185526108506134cc60018d60406001600160a01b0381600020921691826000528a52610130816000209b8c93888554956001600160801b039e8f888882809b1695866134f0575b505050505050506000525260002054169301549287841690612d7e565b9160801c8b612d7e565b166001600160801b03198254161790556130d3565b6133ef565b670de0b6b3a7640000966135389761352b8f9361085061245c8f9661353198611c1998611bfa9d526000205493015499808b16908416612d7e565b04612e51565b911c6130f6565b388e838783888e6134af565b5050565b600460206001600160a01b0361012e5416604051928380927fabfef1110000000000000000000000000000000000000000000000000000000082525afa9081156104ac5760009161359c575b5061ffff1690565b6020813d82116135d6575b816135b460209383612bf7565b810103126135d257519061ffff821682036132ab575061ffff613594565b5080fd5b3d91506135a7565b67ffffffffffffffff8111612be15760051b60200190565b90613600826135de565b61360d6040519182612bf7565b828152809261361e601f19916135de565b0190602036910137565b3d15613663573d9067ffffffffffffffff8211612be15760405191613657601f8201601f191660200184612bf7565b82523d6000602084013e565b606090565b1561366f57565b606460405162461bcd60e51b815260206004820152600f60248201527f5472616e73666572206661696c656400000000000000000000000000000000006044820152fd5b60405160208101937fa9059cbb0000000000000000000000000000000000000000000000000000000085526001600160a01b038094166024830152604482015260448152608081019267ffffffffffffffff9282851084861117612be157169160c0820190811184821017612be157604052602083527f5361666545524332303a206c6f772d6c6576656c2063616c6c206661696c656460a08201525161376b93600091829182855af1613765613628565b91613805565b80519081159182156137eb575b50501561378157565b608460405162461bcd60e51b815260206004820152602a60248201527f5361666545524332303a204552433230206f7065726174696f6e20646964206e60448201527f6f742073756363656564000000000000000000000000000000000000000000006064820152fd5b6137fe92506020809183010191016130bb565b3880613778565b919290156138665750815115613819575090565b3b156138225790565b606460405162461bcd60e51b815260206004820152601d60248201527f416464726573733a2063616c6c20746f206e6f6e2d636f6e74726163740000006044820152fd5b8251909150156138795750805190602001fd5b6129c49060405191829162461bcd60e51b835260048301612c19565b906040516138a281612bc5565b60c064ffffffffff6003839580546001600160a01b038116865260a01c602086015260018101546001600160801b0390818116604088015260801c60608701526002820154908116608087015260801c60a0860152015416910152565b8115613909570490565b634e487b7160e01b600052601260045260246000fd5b91929060009261392d613548565b94670de0b6b3a7640000928383029280840485149015171561136a576139538784612d7e565b938082106139a75750925b61396c6103e89485926138ff565b04958161397a575b50505050565b90919280949550039183831161136a5761399c9261399791612d7e565b6138ff565b049038808080613974565b90509261395e565b61012f54906139bd826135f6565b916139c6613c0f565b9064ffffffffff42811660005b8381106139e1575050505050565b6139ed6106e4826127fd565b908360c083015116804210613aa45783039184831161136a57613a29613a7193866bffffffffffffffffffffffff602085015116911690612d7e565b9060009060a081016001600160801b03906080613a4e8c6112fd8986865116926130e2565b9301928284511610613a7d575b505050808211613a7657505b6106f6828a6130e2565b6139d3565b9050613a67565b613a9c935081613a939151166112fd878d6130e2565b91511690612e51565b388080613a5b565b50613a7191506130d3565b6001600160a01b0360208161012d54169161012e54166024604051809481936370a0823160e01b835260048301525afa9081156104ac57600091613af1575090565b906020823d8211613b17575b81613b0a60209383612bf7565b810103126132ab57505190565b3d9150613afd565b8181039291600013801582851316918412161761136a57565b61012f5490613b46826135de565b613b536040519182612bf7565b828152601f19613b62846135de565b013660208301378092613b736139af565b91613b7c613c0f565b6000805b848110613b8f57505050505050565b613b9b6106e4826127fd565b6001600160801b038060a08301511691613bb584876130e2565b5192858482019485129112908015821691151617613bfb57613bf6939261086c926080613be59301511690613b1f565b613bef838a6130e2565b5190613b1f565b613b80565b602485634e487b7160e01b81526011600452fd5b61012f5490613c1d826135f6565b9160005b818110613c2c575050565b6001600160a01b03613c3d826127fd565b5054169081613c5b57613c569150476106f682876130e2565b613c21565b6040805180936370a0823160e01b825230600483015281602460209687935afa918215613ccd5750600091613c9b575b50613c5692506106f682876130e2565b919282813d8311613cc6575b613cb18183612bf7565b810103126132ab575090613c56915138613c8b565b503d613ca7565b513d6000823e3d90fd5b6001600160801b0390818111613ceb571690565b606460405162461bcd60e51b815260206004820152601060248201527f75696e74313238206f766572666c6f77000000000000000000000000000000006044820152fdfea2646970667358221220ea230baed98fd7ecc689265c86a7184a6a07fca314b2c450039484b31091b4bc64736f6c63430008120033",
  "devdoc": {
    "events": {
      "Initialized(uint8)": {
        "details": "Triggered when the contract has been initialized or reinitialized."
      },
      "RoleAdminChanged(bytes32,bytes32,bytes32)": {
        "details": "Emitted when `newAdminRole` is set as ``role``'s admin role, replacing `previousAdminRole` `DEFAULT_ADMIN_ROLE` is the starting admin for all roles, despite {RoleAdminChanged} not being emitted signaling this. _Available since v3.1._"
      },
      "RoleGranted(bytes32,address,address)": {
        "details": "Emitted when `account` is granted `role`. `sender` is the account that originated the contract call, an admin role bearer except when using {AccessControl-_setupRole}."
      },
      "RoleRevoked(bytes32,address,address)": {
        "details": "Emitted when `account` is revoked `role`. `sender` is the account that originated the contract call:   - if using `revokeRole`, it is the admin role bearer   - if using `renounceRole`, it is the role bearer (i.e. `account`)"
      }
    },
    "kind": "dev",
    "methods": {
      "emergencyTokenWithdraw(address)": {
        "details": "only to be called by owner"
      },
      "getRoleAdmin(bytes32)": {
        "details": "Returns the admin role that controls `role`. See {grantRole} and {revokeRole}. To change a role's admin, use {_setRoleAdmin}."
      },
      "getRoleMember(bytes32,uint256)": {
        "details": "Returns one of the accounts that have `role`. `index` must be a value between 0 and {getRoleMemberCount}, non-inclusive. Role bearers are not sorted in any particular way, and their ordering may change at any point. WARNING: When using {getRoleMember} and {getRoleMemberCount}, make sure you perform all queries on the same block. See the following https://forum.openzeppelin.com/t/iterating-over-elements-on-enumerableset-in-openzeppelin-contracts/2296[forum post] for more information."
      },
      "getRoleMemberCount(bytes32)": {
        "details": "Returns the number of accounts that have `role`. Can be used together with {getRoleMember} to enumerate all bearers of a role."
      },
      "grantRole(bytes32,address)": {
        "details": "Grants `role` to `account`. If `account` had not been already granted `role`, emits a {RoleGranted} event. Requirements: - the caller must have ``role``'s admin role. May emit a {RoleGranted} event."
      },
      "hasRole(bytes32,address)": {
        "details": "Returns `true` if `account` has been granted `role`."
      },
      "onReward(address,uint256,uint256)": {
        "details": "Assume `_getTotalShare` isn't updated yet when this function is called",
        "params": {
          "_newFactor": "The new factor of LP",
          "_newLpAmount": "The new amount of LP",
          "_user": "Address of user"
        }
      },
      "onUpdateFactor(address,uint256)": {
        "details": "Assume lpSupply and sumOfFactors isn't updated yet when this function is called"
      },
      "owner()": {
        "details": "Returns the address of the current owner."
      },
      "pendingTokens(address)": {
        "params": {
          "_user": "Address of user."
        },
        "returns": {
          "rewards_": "reward for a given user."
        }
      },
      "renounceOwnership()": {
        "details": "Leaves the contract without owner. It will not be possible to call `onlyOwner` functions. Can only be called by the current owner. NOTE: Renouncing ownership will leave the contract without an owner, thereby disabling any functionality that is only available to the owner."
      },
      "renounceRole(bytes32,address)": {
        "details": "Revokes `role` from the calling account. Roles are often managed via {grantRole} and {revokeRole}: this function's purpose is to provide a mechanism for accounts to lose their privileges if they are compromised (such as when a trusted device is misplaced). If the calling account had been revoked `role`, emits a {RoleRevoked} event. Requirements: - the caller must be `account`. May emit a {RoleRevoked} event."
      },
      "revokeRole(bytes32,address)": {
        "details": "Revokes `role` from `account`. If `account` had been granted `role`, emits a {RoleRevoked} event. Requirements: - the caller must have ``role``'s admin role. May emit a {RoleRevoked} event."
      },
      "rewardTokenSurpluses()": {
        "returns": {
          "surpluses_": "surpluses of the reward tokens."
        }
      },
      "setRewardRate(uint256,uint96,uint40)": {
        "params": {
          "_startTimestampToOverride": "the start time for the token emission. A value of 0 indicates no changes, while a future        timestamp starts the emission at the specified time.",
          "_tokenId": "The token id",
          "_tokenPerSec": "The number of tokens to distribute per second"
        }
      },
      "supportsInterface(bytes4)": {
        "details": "See {IERC165-supportsInterface}."
      },
      "transferOwnership(address)": {
        "details": "Transfers ownership of the contract to a new account (`newOwner`). Can only be called by the current owner."
      }
    },
    "version": 1
  },
  "userdoc": {
    "kind": "user",
    "methods": {
      "balances()": {
        "notice": "View function to see balances of reward token."
      },
      "emergencyTokenWithdraw(address)": {
        "notice": "avoids loosing funds in case there is any tokens sent to this contract the reward token will not be stopped and keep accumulating debts"
      },
      "emergencyWithdraw()": {
        "notice": "In case rewarder is stopped before emissions finished, this function allows withdrawal of remaining tokens. there will be deficit which is equal to the unclaimed amount"
      },
      "initialize(address,address,address,uint256,address,uint96)": {
        "notice": "Initializes pool. Dev is set to be the account calling this function."
      },
      "lpToken()": {
        "notice": "Visualization of the relationship between distributedAmount, claimedAmount, rewardToDistribute, availableReward, surplus and balance: Case: emission is active. rewardToDistribute is growing at the rate of tokenPerSec. |<--------------distributedAmount------------->|<--rewardToDistribute*-->| |<-----claimedAmount----->|<-------------------------balance------------------------->|                                                |<-----------availableReward*--------->|                           |<-unclaimedAmount*->|                         |<-surplus*->| Case: reward running out. rewardToDistribute stopped growing. it is capped at availableReward. |<--------------distributedAmount------------->|<---------rewardToDistribute*-------->| |<-----claimedAmount----->|<-------------------------balance------------------------->|                                                |<-----------availableReward*--------->|                           |<-unclaimedAmount*->|                                       surplus* = 0 Case: balance emptied after emergencyWithdraw. |<--------------distributedAmount------------->| rewardToDistribute* = 0 |<-----claimedAmount----->|                      balance = 0, availableReward* = 0                           |<-unclaimedAmount*->| surplus* = - unclaimedAmount* (negative to indicate deficit) (Variables with * are not in the RewardInfo state, but can be derived from it.) balance, is the amount of reward token in this contract. Not all of them are available for distribution as some are reserved for unclaimed rewards. distributedAmount, is the amount of reward token that has been distributed up to lastRewardTimestamp. claimedAmount, is the amount of reward token that has been claimed by users. claimedAmount always <= distributedAmount. unclaimedAmount = distributedAmount - claimedAmount, is the amount of reward token in balance that is reserved to be claimed by users. availableReward = balance - unclaimedAmount, is the amount inside balance that is available for distribution (not reserved for unclaimed rewards). rewardToDistribute is the accumulated reward from [lastRewardTimestamp, now] that is yet to be distributed. as distributedAmount only accounts for the distributed amount up to lastRewardTimestamp. it is used in _updateReward(), and to be added to distributedAmount. to prevent bad debt, rewardToDistribute is capped at availableReward. as we cannot distribute more than the availableReward. rewardToDistribute = min(tokenPerSec * (now - lastRewardTimestamp), availableReward) surplus = availableReward - rewardToDistribute, is the amount inside balance that is available for future distribution."
      },
      "onReward(address,uint256,uint256)": {
        "notice": "Function called by Master Wombat whenever staker claims WOM harvest.Allows staker to also receive a 2nd reward token."
      },
      "onUpdateFactor(address,uint256)": {
        "notice": "Function called by Master Wombat when factor is updateduser.unpaidRewards will be updated"
      },
      "pendingTokens(address)": {
        "notice": "View function to see pending tokens that have been distributed but not claimed by the user yet."
      },
      "rewardInfo(uint256)": {
        "notice": "View function to preserve backward compatibility, as the previous version uses rewardInfo instead of rewardInfos"
      },
      "rewardInfos(uint256)": {
        "notice": "Info of the reward tokens."
      },
      "rewardLength()": {
        "notice": "returns reward length"
      },
      "rewardTokenSurpluses()": {
        "notice": "View function to see surplus of each reward, i.e. reward balance - unclaimed amount it would be negative if there's bad debt/deficit, which would happend only if some token was emergencyWithdrawn."
      },
      "rewardsToDistribute()": {
        "notice": "the amount of reward accumulated since the lastRewardTimestamp and is to be distributed."
      },
      "runoutTimestamps()": {
        "notice": "View function to see the timestamp when the reward will runout based on current emission rate and balance left. a timestamp of 0 indicates that the token is not emitting or already run out. also works for the case that emission start time (lastRewardTimestamp) is in the future."
      },
      "setRewardRate(uint256,uint96,uint40)": {
        "notice": "Sets the distribution reward rate, and updates the emission start time if specified."
      },
      "userBalanceInfo(address)": {
        "notice": "userAddr => UserBalanceInfo"
      },
      "userRewardInfo(uint256,address)": {
        "notice": "tokenId => userAddr => UserRewardInfo"
      }
    },
    "notice": "This is a sample contract to be used in the Master Wombat contract for partners to reward stakers with their native token alongside WOM. It assumes no minting rights, so requires a set amount of reward tokens to be transferred to this contract prior. E.g. say you've allocated 100,000 XYZ to the WOM-XYZ farm over 30 days. Then you would need to transfer 100,000 XYZ and set the block reward accordingly so it's fully distributed after 30 days. This contract has no knowledge on the LP amount and factor. Master Wombat is responsible to pass these values to this contract Change log (since MultiRewarderPerSecV2): - Rewarders are now boosted by veWom balance!",
    "version": 1
  },
  "storageLayout": {
    "storage": [
      {
        "astId": 717,
        "contract": "contracts/wombat-governance/rewarders/BoostedMultiRewarder.sol:BoostedMultiRewarder",
        "label": "_initialized",
        "offset": 0,
        "slot": "0",
        "type": "t_uint8"
      },
      {
        "astId": 720,
        "contract": "contracts/wombat-governance/rewarders/BoostedMultiRewarder.sol:BoostedMultiRewarder",
        "label": "_initializing",
        "offset": 1,
        "slot": "0",
        "type": "t_bool"
      },
      {
        "astId": 1334,
        "contract": "contracts/wombat-governance/rewarders/BoostedMultiRewarder.sol:BoostedMultiRewarder",
        "label": "__gap",
        "offset": 0,
        "slot": "1",
        "type": "t_array(t_uint256)50_storage"
      },
      {
        "astId": 589,
        "contract": "contracts/wombat-governance/rewarders/BoostedMultiRewarder.sol:BoostedMultiRewarder",
        "label": "_owner",
        "offset": 0,
        "slot": "51",
        "type": "t_address"
      },
      {
        "astId": 709,
        "contract": "contracts/wombat-governance/rewarders/BoostedMultiRewarder.sol:BoostedMultiRewarder",
        "label": "__gap",
        "offset": 0,
        "slot": "52",
        "type": "t_array(t_uint256)49_storage"
      },
      {
        "astId": 1607,
        "contract": "contracts/wombat-governance/rewarders/BoostedMultiRewarder.sol:BoostedMultiRewarder",
        "label": "__gap",
        "offset": 0,
        "slot": "101",
        "type": "t_array(t_uint256)50_storage"
      },
      {
        "astId": 184,
        "contract": "contracts/wombat-governance/rewarders/BoostedMultiRewarder.sol:BoostedMultiRewarder",
        "label": "_roles",
        "offset": 0,
        "slot": "151",
        "type": "t_mapping(t_bytes32,t_struct(RoleData)179_storage)"
      },
      {
        "astId": 479,
        "contract": "contracts/wombat-governance/rewarders/BoostedMultiRewarder.sol:BoostedMultiRewarder",
        "label": "__gap",
        "offset": 0,
        "slot": "152",
        "type": "t_array(t_uint256)49_storage"
      },
      {
        "astId": 33,
        "contract": "contracts/wombat-governance/rewarders/BoostedMultiRewarder.sol:BoostedMultiRewarder",
        "label": "_roleMembers",
        "offset": 0,
        "slot": "201",
        "type": "t_mapping(t_bytes32,t_struct(AddressSet)2917_storage)"
      },
      {
        "astId": 143,
        "contract": "contracts/wombat-governance/rewarders/BoostedMultiRewarder.sol:BoostedMultiRewarder",
        "label": "__gap",
        "offset": 0,
        "slot": "202",
        "type": "t_array(t_uint256)49_storage"
      },
      {
        "astId": 893,
        "contract": "contracts/wombat-governance/rewarders/BoostedMultiRewarder.sol:BoostedMultiRewarder",
        "label": "_status",
        "offset": 0,
        "slot": "251",
        "type": "t_uint256"
      },
      {
        "astId": 962,
        "contract": "contracts/wombat-governance/rewarders/BoostedMultiRewarder.sol:BoostedMultiRewarder",
        "label": "__gap",
        "offset": 0,
        "slot": "252",
        "type": "t_array(t_uint256)49_storage"
      },
      {
        "astId": 7384,
        "contract": "contracts/wombat-governance/rewarders/BoostedMultiRewarder.sol:BoostedMultiRewarder",
        "label": "lpToken",
        "offset": 0,
        "slot": "301",
        "type": "t_contract(IERC20)3923"
      },
      {
        "astId": 7387,
        "contract": "contracts/wombat-governance/rewarders/BoostedMultiRewarder.sol:BoostedMultiRewarder",
        "label": "masterWombat",
        "offset": 0,
        "slot": "302",
        "type": "t_contract(IBoostedMasterWombat)6594"
      },
      {
        "astId": 7392,
        "contract": "contracts/wombat-governance/rewarders/BoostedMultiRewarder.sol:BoostedMultiRewarder",
        "label": "rewardInfos",
        "offset": 0,
        "slot": "303",
        "type": "t_array(t_struct(RewardInfo)7380_storage)dyn_storage"
      },
      {
        "astId": 7398,
        "contract": "contracts/wombat-governance/rewarders/BoostedMultiRewarder.sol:BoostedMultiRewarder",
        "label": "userBalanceInfo",
        "offset": 0,
        "slot": "304",
        "type": "t_mapping(t_address,t_struct(UserBalanceInfo)7355_storage)"
      },
      {
        "astId": 7406,
        "contract": "contracts/wombat-governance/rewarders/BoostedMultiRewarder.sol:BoostedMultiRewarder",
        "label": "userRewardInfo",
        "offset": 0,
        "slot": "305",
        "type": "t_mapping(t_uint256,t_mapping(t_address,t_struct(UserRewardInfo)7360_storage))"
      },
      {
        "astId": 7409,
        "contract": "contracts/wombat-governance/rewarders/BoostedMultiRewarder.sol:BoostedMultiRewarder",
        "label": "bribeFactory",
        "offset": 0,
        "slot": "306",
        "type": "t_contract(IBribeRewarderFactory)6701"
      },
      {
        "astId": 7411,
        "contract": "contracts/wombat-governance/rewarders/BoostedMultiRewarder.sol:BoostedMultiRewarder",
        "label": "isDeprecated",
        "offset": 20,
        "slot": "306",
        "type": "t_bool"
      }
    ],
    "types": {
      "t_address": {
        "encoding": "inplace",
        "label": "address",
        "numberOfBytes": "20"
      },
      "t_array(t_bytes32)dyn_storage": {
        "base": "t_bytes32",
        "encoding": "dynamic_array",
        "label": "bytes32[]",
        "numberOfBytes": "32"
      },
      "t_array(t_struct(RewardInfo)7380_storage)dyn_storage": {
        "base": "t_struct(RewardInfo)7380_storage",
        "encoding": "dynamic_array",
        "label": "struct BoostedMultiRewarder.RewardInfo[]",
        "numberOfBytes": "32"
      },
      "t_array(t_uint256)49_storage": {
        "base": "t_uint256",
        "encoding": "inplace",
        "label": "uint256[49]",
        "numberOfBytes": "1568"
      },
      "t_array(t_uint256)50_storage": {
        "base": "t_uint256",
        "encoding": "inplace",
        "label": "uint256[50]",
        "numberOfBytes": "1600"
      },
      "t_bool": {
        "encoding": "inplace",
        "label": "bool",
        "numberOfBytes": "1"
      },
      "t_bytes32": {
        "encoding": "inplace",
        "label": "bytes32",
        "numberOfBytes": "32"
      },
      "t_contract(IBoostedMasterWombat)6594": {
        "encoding": "inplace",
        "label": "contract IBoostedMasterWombat",
        "numberOfBytes": "20"
      },
      "t_contract(IBribeRewarderFactory)6701": {
        "encoding": "inplace",
        "label": "contract IBribeRewarderFactory",
        "numberOfBytes": "20"
      },
      "t_contract(IERC20)3923": {
        "encoding": "inplace",
        "label": "contract IERC20",
        "numberOfBytes": "20"
      },
      "t_mapping(t_address,t_bool)": {
        "encoding": "mapping",
        "key": "t_address",
        "label": "mapping(address => bool)",
        "numberOfBytes": "32",
        "value": "t_bool"
      },
      "t_mapping(t_address,t_struct(UserBalanceInfo)7355_storage)": {
        "encoding": "mapping",
        "key": "t_address",
        "label": "mapping(address => struct BoostedMultiRewarder.UserBalanceInfo)",
        "numberOfBytes": "32",
        "value": "t_struct(UserBalanceInfo)7355_storage"
      },
      "t_mapping(t_address,t_struct(UserRewardInfo)7360_storage)": {
        "encoding": "mapping",
        "key": "t_address",
        "label": "mapping(address => struct BoostedMultiRewarder.UserRewardInfo)",
        "numberOfBytes": "32",
        "value": "t_struct(UserRewardInfo)7360_storage"
      },
      "t_mapping(t_bytes32,t_struct(AddressSet)2917_storage)": {
        "encoding": "mapping",
        "key": "t_bytes32",
        "label": "mapping(bytes32 => struct EnumerableSetUpgradeable.AddressSet)",
        "numberOfBytes": "32",
        "value": "t_struct(AddressSet)2917_storage"
      },
      "t_mapping(t_bytes32,t_struct(RoleData)179_storage)": {
        "encoding": "mapping",
        "key": "t_bytes32",
        "label": "mapping(bytes32 => struct AccessControlUpgradeable.RoleData)",
        "numberOfBytes": "32",
        "value": "t_struct(RoleData)179_storage"
      },
      "t_mapping(t_bytes32,t_uint256)": {
        "encoding": "mapping",
        "key": "t_bytes32",
        "label": "mapping(bytes32 => uint256)",
        "numberOfBytes": "32",
        "value": "t_uint256"
      },
      "t_mapping(t_uint256,t_mapping(t_address,t_struct(UserRewardInfo)7360_storage))": {
        "encoding": "mapping",
        "key": "t_uint256",
        "label": "mapping(uint256 => mapping(address => struct BoostedMultiRewarder.UserRewardInfo))",
        "numberOfBytes": "32",
        "value": "t_mapping(t_address,t_struct(UserRewardInfo)7360_storage)"
      },
      "t_struct(AddressSet)2917_storage": {
        "encoding": "inplace",
        "label": "struct EnumerableSetUpgradeable.AddressSet",
        "members": [
          {
            "astId": 2916,
            "contract": "contracts/wombat-governance/rewarders/BoostedMultiRewarder.sol:BoostedMultiRewarder",
            "label": "_inner",
            "offset": 0,
            "slot": "0",
            "type": "t_struct(Set)2602_storage"
          }
        ],
        "numberOfBytes": "64"
      },
      "t_struct(RewardInfo)7380_storage": {
        "encoding": "inplace",
        "label": "struct BoostedMultiRewarder.RewardInfo",
        "members": [
          {
            "astId": 7364,
            "contract": "contracts/wombat-governance/rewarders/BoostedMultiRewarder.sol:BoostedMultiRewarder",
            "label": "rewardToken",
            "offset": 0,
            "slot": "0",
            "type": "t_contract(IERC20)3923"
          },
          {
            "astId": 7366,
            "contract": "contracts/wombat-governance/rewarders/BoostedMultiRewarder.sol:BoostedMultiRewarder",
            "label": "tokenPerSec",
            "offset": 20,
            "slot": "0",
            "type": "t_uint96"
          },
          {
            "astId": 7369,
            "contract": "contracts/wombat-governance/rewarders/BoostedMultiRewarder.sol:BoostedMultiRewarder",
            "label": "accTokenPerShare",
            "offset": 0,
            "slot": "1",
            "type": "t_uint128"
          },
          {
            "astId": 7371,
            "contract": "contracts/wombat-governance/rewarders/BoostedMultiRewarder.sol:BoostedMultiRewarder",
            "label": "accTokenPerFactorShare",
            "offset": 16,
            "slot": "1",
            "type": "t_uint128"
          },
          {
            "astId": 7374,
            "contract": "contracts/wombat-governance/rewarders/BoostedMultiRewarder.sol:BoostedMultiRewarder",
            "label": "distributedAmount",
            "offset": 0,
            "slot": "2",
            "type": "t_uint128"
          },
          {
            "astId": 7376,
            "contract": "contracts/wombat-governance/rewarders/BoostedMultiRewarder.sol:BoostedMultiRewarder",
            "label": "claimedAmount",
            "offset": 16,
            "slot": "2",
            "type": "t_uint128"
          },
          {
            "astId": 7379,
            "contract": "contracts/wombat-governance/rewarders/BoostedMultiRewarder.sol:BoostedMultiRewarder",
            "label": "lastRewardTimestamp",
            "offset": 0,
            "slot": "3",
            "type": "t_uint40"
          }
        ],
        "numberOfBytes": "128"
      },
      "t_struct(RoleData)179_storage": {
        "encoding": "inplace",
        "label": "struct AccessControlUpgradeable.RoleData",
        "members": [
          {
            "astId": 176,
            "contract": "contracts/wombat-governance/rewarders/BoostedMultiRewarder.sol:BoostedMultiRewarder",
            "label": "members",
            "offset": 0,
            "slot": "0",
            "type": "t_mapping(t_address,t_bool)"
          },
          {
            "astId": 178,
            "contract": "contracts/wombat-governance/rewarders/BoostedMultiRewarder.sol:BoostedMultiRewarder",
            "label": "adminRole",
            "offset": 0,
            "slot": "1",
            "type": "t_bytes32"
          }
        ],
        "numberOfBytes": "64"
      },
      "t_struct(Set)2602_storage": {
        "encoding": "inplace",
        "label": "struct EnumerableSetUpgradeable.Set",
        "members": [
          {
            "astId": 2597,
            "contract": "contracts/wombat-governance/rewarders/BoostedMultiRewarder.sol:BoostedMultiRewarder",
            "label": "_values",
            "offset": 0,
            "slot": "0",
            "type": "t_array(t_bytes32)dyn_storage"
          },
          {
            "astId": 2601,
            "contract": "contracts/wombat-governance/rewarders/BoostedMultiRewarder.sol:BoostedMultiRewarder",
            "label": "_indexes",
            "offset": 0,
            "slot": "1",
            "type": "t_mapping(t_bytes32,t_uint256)"
          }
        ],
        "numberOfBytes": "64"
      },
      "t_struct(UserBalanceInfo)7355_storage": {
        "encoding": "inplace",
        "label": "struct BoostedMultiRewarder.UserBalanceInfo",
        "members": [
          {
            "astId": 7352,
            "contract": "contracts/wombat-governance/rewarders/BoostedMultiRewarder.sol:BoostedMultiRewarder",
            "label": "amount",
            "offset": 0,
            "slot": "0",
            "type": "t_uint128"
          },
          {
            "astId": 7354,
            "contract": "contracts/wombat-governance/rewarders/BoostedMultiRewarder.sol:BoostedMultiRewarder",
            "label": "factor",
            "offset": 16,
            "slot": "0",
            "type": "t_uint128"
          }
        ],
        "numberOfBytes": "32"
      },
      "t_struct(UserRewardInfo)7360_storage": {
        "encoding": "inplace",
        "label": "struct BoostedMultiRewarder.UserRewardInfo",
        "members": [
          {
            "astId": 7357,
            "contract": "contracts/wombat-governance/rewarders/BoostedMultiRewarder.sol:BoostedMultiRewarder",
            "label": "rewardDebt",
            "offset": 0,
            "slot": "0",
            "type": "t_uint128"
          },
          {
            "astId": 7359,
            "contract": "contracts/wombat-governance/rewarders/BoostedMultiRewarder.sol:BoostedMultiRewarder",
            "label": "unpaidRewards",
            "offset": 16,
            "slot": "0",
            "type": "t_uint128"
          }
        ],
        "numberOfBytes": "32"
      },
      "t_uint128": {
        "encoding": "inplace",
        "label": "uint128",
        "numberOfBytes": "16"
      },
      "t_uint256": {
        "encoding": "inplace",
        "label": "uint256",
        "numberOfBytes": "32"
      },
      "t_uint40": {
        "encoding": "inplace",
        "label": "uint40",
        "numberOfBytes": "5"
      },
      "t_uint8": {
        "encoding": "inplace",
        "label": "uint8",
        "numberOfBytes": "1"
      },
      "t_uint96": {
        "encoding": "inplace",
        "label": "uint96",
        "numberOfBytes": "12"
      }
    }
  }
}