{
  "address": "0xAaF9f18c642B55593e38F2A90B97E9e26ee38Baa",
  "abi": [
    {
      "inputs": [],
      "name": "ADAPTOR__CONTRACT_NOT_TRUSTED",
      "type": "error"
    },
    {
      "inputs": [],
      "name": "ADAPTOR__INVALID_TOKEN",
      "type": "error"
    },
    {
      "inputs": [
        {
          "internalType": "bytes32",
          "name": "_hash",
          "type": "bytes32"
        }
      ],
      "name": "ADAPTOR__MESSAGE_ALREADY_DELIVERED",
      "type": "error"
    },
    {
      "anonymous": false,
      "inputs": [
        {
          "indexed": false,
          "internalType": "address",
          "name": "toToken",
          "type": "address"
        },
        {
          "indexed": false,
          "internalType": "uint256",
          "name": "toChain",
          "type": "uint256"
        },
        {
          "indexed": false,
          "internalType": "uint256",
          "name": "fromAmount",
          "type": "uint256"
        },
        {
          "indexed": false,
          "internalType": "uint256",
          "name": "minimumToAmount",
          "type": "uint256"
        },
        {
          "indexed": false,
          "internalType": "address",
          "name": "receiver",
          "type": "address"
        },
        {
          "indexed": false,
          "internalType": "uint256",
          "name": "sequence",
          "type": "uint256"
        }
      ],
      "name": "BridgeCreditAndSwapForTokens",
      "type": "event"
    },
    {
      "anonymous": false,
      "inputs": [
        {
          "indexed": false,
          "internalType": "uint8",
          "name": "version",
          "type": "uint8"
        }
      ],
      "name": "Initialized",
      "type": "event"
    },
    {
      "anonymous": false,
      "inputs": [
        {
          "indexed": false,
          "internalType": "uint256",
          "name": "emitterChainId",
          "type": "uint256"
        },
        {
          "indexed": false,
          "internalType": "address",
          "name": "emitterAddress",
          "type": "address"
        },
        {
          "indexed": false,
          "internalType": "bytes",
          "name": "data",
          "type": "bytes"
        }
      ],
      "name": "LogError",
      "type": "event"
    },
    {
      "anonymous": false,
      "inputs": [
        {
          "indexed": true,
          "internalType": "address",
          "name": "previousOwner",
          "type": "address"
        },
        {
          "indexed": true,
          "internalType": "address",
          "name": "newOwner",
          "type": "address"
        }
      ],
      "name": "OwnershipTransferred",
      "type": "event"
    },
    {
      "anonymous": false,
      "inputs": [
        {
          "indexed": false,
          "internalType": "address",
          "name": "account",
          "type": "address"
        }
      ],
      "name": "Paused",
      "type": "event"
    },
    {
      "anonymous": false,
      "inputs": [
        {
          "indexed": false,
          "internalType": "uint16",
          "name": "wormholeChainId",
          "type": "uint16"
        },
        {
          "indexed": false,
          "internalType": "address",
          "name": "adaptorAddress",
          "type": "address"
        }
      ],
      "name": "SetAdaptorAddress",
      "type": "event"
    },
    {
      "anonymous": false,
      "inputs": [
        {
          "indexed": false,
          "internalType": "address",
          "name": "emitterAddress",
          "type": "address"
        },
        {
          "indexed": false,
          "internalType": "uint16",
          "name": "sourceChain",
          "type": "uint16"
        }
      ],
      "name": "UnknownEmitter",
      "type": "event"
    },
    {
      "anonymous": false,
      "inputs": [
        {
          "indexed": false,
          "internalType": "address",
          "name": "account",
          "type": "address"
        }
      ],
      "name": "Unpaused",
      "type": "event"
    },
    {
      "inputs": [
        {
          "internalType": "uint16",
          "name": "",
          "type": "uint16"
        }
      ],
      "name": "adaptorAddress",
      "outputs": [
        {
          "internalType": "address",
          "name": "",
          "type": "address"
        }
      ],
      "stateMutability": "view",
      "type": "function"
    },
    {
      "inputs": [
        {
          "internalType": "uint256",
          "name": "wormholeChainId",
          "type": "uint256"
        },
        {
          "internalType": "address",
          "name": "tokenAddr",
          "type": "address"
        }
      ],
      "name": "approveToken",
      "outputs": [],
      "stateMutability": "nonpayable",
      "type": "function"
    },
    {
      "inputs": [
        {
          "internalType": "address",
          "name": "toToken",
          "type": "address"
        },
        {
          "internalType": "uint256",
          "name": "toChain",
          "type": "uint256"
        },
        {
          "internalType": "uint256",
          "name": "fromAmount",
          "type": "uint256"
        },
        {
          "internalType": "uint256",
          "name": "minimumToAmount",
          "type": "uint256"
        },
        {
          "internalType": "address",
          "name": "receiver",
          "type": "address"
        },
        {
          "internalType": "uint256",
          "name": "receiverValue",
          "type": "uint256"
        },
        {
          "internalType": "uint256",
          "name": "deliveryGasLimit",
          "type": "uint256"
        }
      ],
      "name": "bridgeCreditAndSwapForTokens",
      "outputs": [
        {
          "internalType": "uint256",
          "name": "sequence",
          "type": "uint256"
        }
      ],
      "stateMutability": "payable",
      "type": "function"
    },
    {
      "inputs": [],
      "name": "crossChainPool",
      "outputs": [
        {
          "internalType": "contract ICrossChainPool",
          "name": "",
          "type": "address"
        }
      ],
      "stateMutability": "view",
      "type": "function"
    },
    {
      "inputs": [
        {
          "internalType": "bytes32",
          "name": "",
          "type": "bytes32"
        }
      ],
      "name": "deliveredMessage",
      "outputs": [
        {
          "internalType": "bool",
          "name": "",
          "type": "bool"
        }
      ],
      "stateMutability": "view",
      "type": "function"
    },
    {
      "inputs": [
        {
          "internalType": "uint16",
          "name": "toChain",
          "type": "uint16"
        },
        {
          "internalType": "uint256",
          "name": "receiverValue",
          "type": "uint256"
        },
        {
          "internalType": "uint32",
          "name": "deliveryGasLimit",
          "type": "uint32"
        }
      ],
      "name": "estimateDeliveryFee",
      "outputs": [
        {
          "internalType": "uint256",
          "name": "nativePriceQuote",
          "type": "uint256"
        },
        {
          "internalType": "uint256",
          "name": "targetChainRefundPerGasUnused",
          "type": "uint256"
        }
      ],
      "stateMutability": "view",
      "type": "function"
    },
    {
      "inputs": [
        {
          "internalType": "uint16",
          "name": "toChain",
          "type": "uint16"
        },
        {
          "internalType": "uint256",
          "name": "receiverValue",
          "type": "uint256"
        },
        {
          "internalType": "uint32",
          "name": "deliveryGasLimit",
          "type": "uint32"
        }
      ],
      "name": "estimateRedeliveryFee",
      "outputs": [
        {
          "internalType": "uint256",
          "name": "nativePriceQuote",
          "type": "uint256"
        },
        {
          "internalType": "uint256",
          "name": "targetChainRefundPerGasUnused",
          "type": "uint256"
        }
      ],
      "stateMutability": "view",
      "type": "function"
    },
    {
      "inputs": [
        {
          "internalType": "contract IWormholeRelayer",
          "name": "_relayer",
          "type": "address"
        },
        {
          "internalType": "contract IWormhole",
          "name": "_wormhole",
          "type": "address"
        },
        {
          "internalType": "contract ICrossChainPool",
          "name": "_crossChainPool",
          "type": "address"
        }
      ],
      "name": "initialize",
      "outputs": [],
      "stateMutability": "nonpayable",
      "type": "function"
    },
    {
      "inputs": [],
      "name": "owner",
      "outputs": [
        {
          "internalType": "address",
          "name": "",
          "type": "address"
        }
      ],
      "stateMutability": "view",
      "type": "function"
    },
    {
      "inputs": [],
      "name": "paused",
      "outputs": [
        {
          "internalType": "bool",
          "name": "",
          "type": "bool"
        }
      ],
      "stateMutability": "view",
      "type": "function"
    },
    {
      "inputs": [
        {
          "internalType": "bytes",
          "name": "payload",
          "type": "bytes"
        },
        {
          "internalType": "bytes[]",
          "name": "",
          "type": "bytes[]"
        },
        {
          "internalType": "bytes32",
          "name": "sourceAddress",
          "type": "bytes32"
        },
        {
          "internalType": "uint16",
          "name": "sourceChain",
          "type": "uint16"
        },
        {
          "internalType": "bytes32",
          "name": "deliveryHash",
          "type": "bytes32"
        }
      ],
      "name": "receiveWormholeMessages",
      "outputs": [],
      "stateMutability": "payable",
      "type": "function"
    },
    {
      "inputs": [],
      "name": "relayer",
      "outputs": [
        {
          "internalType": "contract IWormholeRelayer",
          "name": "",
          "type": "address"
        }
      ],
      "stateMutability": "view",
      "type": "function"
    },
    {
      "inputs": [],
      "name": "renounceOwnership",
      "outputs": [],
      "stateMutability": "nonpayable",
      "type": "function"
    },
    {
      "inputs": [
        {
          "internalType": "uint16",
          "name": "sourceChain",
          "type": "uint16"
        },
        {
          "internalType": "uint64",
          "name": "sequence",
          "type": "uint64"
        },
        {
          "internalType": "uint16",
          "name": "targetChain",
          "type": "uint16"
        },
        {
          "internalType": "uint256",
          "name": "newReceiverValue",
          "type": "uint256"
        },
        {
          "internalType": "uint256",
          "name": "newGasLimit",
          "type": "uint256"
        }
      ],
      "name": "requestResend",
      "outputs": [],
      "stateMutability": "payable",
      "type": "function"
    },
    {
      "inputs": [
        {
          "internalType": "uint256",
          "name": "wormholeChainId",
          "type": "uint256"
        },
        {
          "internalType": "address",
          "name": "tokenAddr",
          "type": "address"
        }
      ],
      "name": "revokeToken",
      "outputs": [],
      "stateMutability": "nonpayable",
      "type": "function"
    },
    {
      "inputs": [
        {
          "internalType": "uint16",
          "name": "wormholeChainId",
          "type": "uint16"
        },
        {
          "internalType": "address",
          "name": "addr",
          "type": "address"
        }
      ],
      "name": "setAdaptorAddress",
      "outputs": [],
      "stateMutability": "nonpayable",
      "type": "function"
    },
    {
      "inputs": [
        {
          "internalType": "address",
          "name": "newOwner",
          "type": "address"
        }
      ],
      "name": "transferOwnership",
      "outputs": [],
      "stateMutability": "nonpayable",
      "type": "function"
    },
    {
      "inputs": [
        {
          "internalType": "uint256",
          "name": "",
          "type": "uint256"
        },
        {
          "internalType": "address",
          "name": "",
          "type": "address"
        }
      ],
      "name": "validToken",
      "outputs": [
        {
          "internalType": "bool",
          "name": "",
          "type": "bool"
        }
      ],
      "stateMutability": "view",
      "type": "function"
    },
    {
      "inputs": [],
      "name": "wormhole",
      "outputs": [
        {
          "internalType": "contract IWormhole",
          "name": "",
          "type": "address"
        }
      ],
      "stateMutability": "view",
      "type": "function"
    }
  ],
  "transactionHash": "0xe4d5c105a43f54afae5daf79b656fde009b48c06223a3c743c2f5fa6e805a1fe",
  "args": [],
  "numDeployments": 1,
  "solcInputHash": "7dce5a3bfa105f0db0e90b26c525cde5",
  "bytecode": "0x6080806040523461001657611583908161001c8239f35b600080fdfe6040608081526004908136101561001557600080fd5b600091823560e01c80630302c0c41461019d578063529dca3214610b6d57806359cae11714610b055780635c975abb14610ae15780636bc8fa1c14610ab457806371233d3b14610a6f578063715018a614610a045780637b91993f1461075e5780638406c0791461073657806384acd1bb1461070e5780638da5cb5b146106e6578063b1d190a6146106aa578063c0c53b8b146104e6578063d2180e6114610478578063d44f9a7814610262578063d4d7ae7a1461023a578063db4a002f146101a2578063e4b8cff21461019d5763f2fde38b146100f257600080fd5b346101995760203660031901126101995761010b610df4565b91610114610e0a565b6001600160a01b03831615610130578361012d84610e62565b80f35b906020608492519162461bcd60e51b8352820152602660248201527f4f776e61626c653a206e6577206f776e657220697320746865207a65726f206160448201527f64647265737300000000000000000000000000000000000000000000000000006064820152fd5b8280fd5b610c68565b5050346102365780600319360112610236577f60b2a6de152a68b38db6e7945b0f2f93bf6a28523e2e29b7520b39e2f59dfa6f906101de610c52565b61ffff6101e9610dde565b916101f2610e0a565b16908185526101006020526001600160a01b038386209116908173ffffffffffffffffffffffffffffffffffffffff1982541617905582519182526020820152a180f35b5080fd5b5050346102365781600319360112610236576020906001600160a01b0360c954169051908152f35b50919060a036600319011261023657610279610c52565b926024359167ffffffffffffffff92838116809103610474576044359361ffff90818616809603610470576001600160a01b038060fe541690811561042d57855192606084018481108282111761041a578a9b86918952168452602098898501918483528886019788528851927f24320c9f0000000000000000000000000000000000000000000000000000000084528b848c81895afa938415610410578c9d9c999a9b9c946103cd575b509860e49798998b519c8d9a8b997f8b0301b1000000000000000000000000000000000000000000000000000000008b52511690890152516024880152511660448601526064850152606435608485015260843560a48501521660c483015234905af19081156103c45750610397578280f35b816103b692903d106103bd575b6103ae8183610d43565b810190610f28565b5038808280f35b503d6103a4565b513d85823e3d90fd5b898193999a9295503d8311610409575b6103e78183610d43565b810103126104055751958387168703610405578b97969260e4610324565b8c80fd5b503d6103dd565b8a513d8f823e3d90fd5b60248b60418b634e487b7160e01b835252fd5b606487602088519162461bcd60e51b8352820152601360248201527f616464722063616e6e6f74206265207a65726f000000000000000000000000006044820152fd5b8680fd5b8480fd5b503461019957816003193601126101995735610492610dde565b9061049b610e0a565b80845260cb6020526001600160a01b0383852092169182855260205260ff83852054166104e257835260cb6020528183209083526020528120600160ff1982541617905580f35b8380fd5b5034610199576060366003190112610199578035906001600160a01b0380831680930361047457602435928184168094036106a6576044359182168092036106a65785549360ff94858160081c16159485809661069a575b8015610684575b1561061b575060ff19811660011788558461060a575b5073ffffffffffffffffffffffffffffffffffffffff19918260fe54161760fe55818554161784556105a484875460081c1661059681610eb7565b61059f81610eb7565b610eb7565b6105ad33610e62565b6105bd8654948560081c16610eb7565b600160655560c954161760c9556105d2578280f35b61ff001916825551600181527f7f26b83ff96e1f2b6a682f133852f6798a09c465da95921460cefb384740249890602090a138808280f35b61ffff19166101011787553861055b565b608490602089519162461bcd60e51b8352820152602e60248201527f496e697469616c697a61626c653a20636f6e747261637420697320616c72656160448201527f647920696e697469616c697a65640000000000000000000000000000000000006064820152fd5b50303b1580156105455750600187831614610545565b5060018783161061053e565b8580fd5b505034610236576020366003190112610236576001600160a01b038160209361ffff6106d4610c52565b16815261010085522054169051908152f35b5050346102365781600319360112610236576020906001600160a01b03603354169051908152f35b5050346102365781600319360112610236576020906001600160a01b0360ff54169051908152f35b5050346102365781600319360112610236576020906001600160a01b0360fe54169051908152f35b50919060e036600319011261023657610775610df4565b6024359260443560643590608435926001600160a01b039485851694858103610199578660c9541633036109c15788835260209960cb8b5288842097808416988986528c5260ff8a86205416156109995761ffff91828c1161095757908c9392918160fe5416928d169182885261010086528c88205416938b15156107f990611421565b6108048b151561146c565b61080f8915156114b7565b61081b8c8c1415611502565b8c516001600160a01b03978816878201908152602081018b9052604081018c9052919097166060820152869060800103601f198101875261085c9087610d43565b818c51968795869485947f4b5ca6f400000000000000000000000000000000000000000000000000000000865285015260248401526044830160e0905260e483016108a691611252565b9060a435606484015260c435608484015260a48301528a60c4830152039134905af191821561094c577f1ef8cdf0233595373c92135e5095395bebb953c655778d5fceb6014d4031526096949260c096949267ffffffffffffffff929161092f575b50169787519485528985015286840152606083015260808201528460a0820152a151908152f35b61094691508b3d8d116103bd576103ae8183610d43565b38610908565b8751903d90823e3d90fd5b6064908d8c519162461bcd60e51b8352820152601060248201527f696e76616c696420636861696e204944000000000000000000000000000000006044820152fd5b5088517f859ce673000000000000000000000000000000000000000000000000000000008152fd5b60648a60208a519162461bcd60e51b8352820152601760248201527f41646170746f723a206e6f7420617574686f72697a65640000000000000000006044820152fd5b8334610a6c5780600319360112610a6c57610a1d610e0a565b806001600160a01b0360335473ffffffffffffffffffffffffffffffffffffffff198116603355167f8be0079c531659141344cd1fd0a4f28419497f9722a3daafe3b4186f6b6457e08280a380f35b80fd5b50346101995781600319360112610199578160209360ff92610a8f610dde565b9035825260cb86526001600160a01b0383832091168252855220541690519015158152f35b5034610199576020366003190112610199578160209360ff92358152610101855220541690519015158152f35b50503461023657816003193601126102365760209060ff6097541690519015158152f35b503461019957816003193601126101995735610b1f610dde565b90610b28610e0a565b80845260cb6020526001600160a01b0383852092169182855260205260ff8385205416156104e257835260cb602052818320908352602052812060ff19815416905580f35b5060a03660031901126101995767ffffffffffffffff813581811161047457610b999036908401610d97565b9260248035908382116104705736602383011215610470578185013594848611610c415750808560051b9351956020968791610bd783880183610d43565b8152019383010193368511610c3d57818301935b858510610c1357886064358961ffff821682036101995761012d916084359160443590610f78565b8435828111610c39578791610c2e8392863691890101610d97565b815201940193610beb565b8980fd5b8780fd5b60418891634e487b7160e01b835252fd5b6004359061ffff82168203610c6357565b600080fd5b34610c63576060366003190112610c635760043561ffff8116809103610c635760443563ffffffff8116809103610c63576064916001600160a01b0360fe5416916040938492835194859384927fc23ee3c30000000000000000000000000000000000000000000000000000000084526004840152602435602484015260448301525afa8015610d38576000918291610d09575b5082519182526020820152f35b9050610d2b9150823d8411610d31575b610d238183610d43565b81019061123c565b38610cfc565b503d610d19565b82513d6000823e3d90fd5b90601f8019910116810190811067ffffffffffffffff821117610d6557604052565b634e487b7160e01b600052604160045260246000fd5b67ffffffffffffffff8111610d6557601f01601f191660200190565b81601f82011215610c6357803590610dae82610d7b565b92610dbc6040519485610d43565b82845260208383010111610c6357816000926020809301838601378301015290565b602435906001600160a01b0382168203610c6357565b600435906001600160a01b0382168203610c6357565b6001600160a01b03603354163303610e1e57565b606460405162461bcd60e51b815260206004820152602060248201527f4f776e61626c653a2063616c6c6572206973206e6f7420746865206f776e65726044820152fd5b603354906001600160a01b03809116918273ffffffffffffffffffffffffffffffffffffffff19821617603355167f8be0079c531659141344cd1fd0a4f28419497f9722a3daafe3b4186f6b6457e0600080a3565b15610ebe57565b608460405162461bcd60e51b815260206004820152602b60248201527f496e697469616c697a61626c653a20636f6e7472616374206973206e6f74206960448201527f6e697469616c697a696e670000000000000000000000000000000000000000006064820152fd5b90816020910312610c63575167ffffffffffffffff81168103610c635790565b3d15610f73573d90610f5982610d7b565b91610f676040519384610d43565b82523d6000602084013e565b606090565b909392936001600160a01b03908160fe541633036111f85781169283156111b45761ffff1692600090848252602094610100865260409782858a862054160361117f578084526101019081885260ff8a8620541661114f5784528652878320805460ff191660011790558451607f190161110c576080858051810103126101995761100486860161140d565b9588860151948061101c608060608a0151990161140d565b1697169361102b851515611421565b61103688151561146c565b6110418615156114b7565b61104d88861415611502565b895182810181811067ffffffffffffffff8211176110f8578b52819052808080348b5af1611079610f48565b501561108f575061108b969750611292565b5050565b60849089519062461bcd60e51b82526004820152602e60248201527f576f726d686f6c6541646170746f723a206661696c656420746f2073656e642060448201527f72656365697665722076616c75650000000000000000000000000000000000006064820152fd5b602483634e487b7160e01b81526041600452fd5b60648689519062461bcd60e51b82526004820152601760248201527f62797465206c656e677468206d757374206265203132380000000000000000006044820152fd5b6024908a51907f488375260000000000000000000000000000000000000000000000000000000082526004820152fd5b50925092505084927f56934552964208d649785e6d47035525594e1ce64c178f178742c347cbf029dc949551928352820152a1565b606460405162461bcd60e51b815260206004820152601960248201527f616464722062797465732063616e6e6f74206265207a65726f000000000000006044820152fd5b606460405162461bcd60e51b815260206004820152600e60248201527f6e6f7420617574686f72697a65640000000000000000000000000000000000006044820152fd5b9190826040910312610c63576020825192015190565b919082519283825260005b84811061127e575050826000602080949584010152601f8019910116010190565b60208183018101518483018201520161125d565b60c954604080517f9630b6600000000000000000000000000000000000000000000000000000000081526001600160a01b039586166004820152602481018790526044810197909752938716606487015293969560009590949291908481806084810103818a6001600160a01b038099165af18791816113ed575b506113df5750907f73f0f2effb21f6d5df0aaf7344e6b67683035497dc33c864140c2d3c64e8756a9161135f611341610f48565b85875194859485521660208401526060878401526060830190611252565b0390a18060c9541692833b1561047457906044859283855196879485937f5b6cfa610000000000000000000000000000000000000000000000000000000085528c60048601521660248401525af180156113d5576113be575b50509190565b67ffffffffffffffff82116110f8575238806113b8565b81513d85823e3d90fd5b975050505050505060019190565b611405919250863d8811610d3157610d238183610d43565b50903861130d565b51906001600160a01b0382168203610c6357565b1561142857565b606460405162461bcd60e51b815260206004820152601660248201527f746f546f6b656e2063616e6e6f74206265207a65726f000000000000000000006044820152fd5b1561147357565b606460405162461bcd60e51b815260206004820152601760248201527f72656365697665722063616e6e6f74206265207a65726f0000000000000000006044820152fd5b156114be57565b606460405162461bcd60e51b815260206004820152601b60248201527f637265646974416d6f756e742063616e6e6f74206265207a65726f00000000006044820152fd5b1561150957565b606460405162461bcd60e51b815260206004820152601a60248201527f746f546f6b656e2063616e6e6f742062652072656365697665720000000000006044820152fdfea264697066735822122062521c88427f321b7a7f83d9032ab7b9391d203ac6427e5fd9cc60d276a97da564736f6c63430008120033",
  "devdoc": {
    "events": {
      "Initialized(uint8)": {
        "details": "Triggered when the contract has been initialized or reinitialized."
      },
      "Paused(address)": {
        "details": "Emitted when the pause is triggered by `account`."
      },
      "Unpaused(address)": {
        "details": "Emitted when the pause is lifted by `account`."
      }
    },
    "kind": "dev",
    "methods": {
      "bridgeCreditAndSwapForTokens(address,uint256,uint256,uint256,address,uint256,uint256)": {
        "details": "Nonce must be non-zero, otherwise wormhole will revert the message"
      },
      "estimateDeliveryFee(uint16,uint256,uint32)": {
        "details": "Note that this function may fail if the value requested is too large. Using deliveryGasLimit 200000 is typically enough",
        "params": {
          "deliveryGasLimit": "gas limit of the callback function on the designated network",
          "receiverValue": "target amount of gas token to receive",
          "toChain": "wormhole chain ID"
        }
      },
      "owner()": {
        "details": "Returns the address of the current owner."
      },
      "paused()": {
        "details": "Returns true if the contract is paused, and false otherwise."
      },
      "receiveWormholeMessages(bytes,bytes[],bytes32,uint16,bytes32)": {
        "details": "core relayer is assumed to be trusted so re-entrancy protection is not required Note: This function should NOT throw; Otherwise it will result in a delivery failure Assumptions to the wormhole relayer:   - The message should deliver typically within 5 minutes   - Unused gas should be refunded to the refundAddress   - The target chain id and target contract address is verified Things to be aware of:   - VAA are not verified, order of message can be changed   - deliveries can potentially performed multiple times (ref: https://book.wormhole.com/technical/evm/relayer.html#delivery-failures)"
      },
      "renounceOwnership()": {
        "details": "Leaves the contract without owner. It will not be possible to call `onlyOwner` functions. Can only be called by the current owner. NOTE: Renouncing ownership will leave the contract without an owner, thereby disabling any functionality that is only available to the owner."
      },
      "requestResend(uint16,uint64,uint16,uint256,uint256)": {
        "details": "Redeliver could actually be invoked permisionless on any of the chain that wormhole supports Delivery fee attached to the txn should be done off-chain via `WormholeAdaptor.estimateRedeliveryFee` to reduce gas cost *** This will only be able to succeed if the following is true **         - (For EVM_V1) newGasLimit >= gas limit of the old instruction         - newReceiverValue >= receiver value of the old instruction         - (For EVM_V1) newDeliveryProvider's `targetChainRefundPerGasUnused` >= old relay provider's `targetChainRefundPerGasUnused`"
      },
      "transferOwnership(address)": {
        "details": "Transfers ownership of the contract to a new account (`newOwner`). Can only be called by the current owner."
      }
    },
    "stateVariables": {
      "adaptorAddress": {
        "details": "wormhole chainId => adaptor address"
      },
      "deliveredMessage": {
        "details": "hash => is message delivered"
      }
    },
    "title": "WormholeAdaptor",
    "version": 1
  },
  "userdoc": {
    "kind": "user",
    "methods": {
      "approveToken(uint256,address)": {
        "notice": "Permisioneed functions"
      },
      "estimateDeliveryFee(uint16,uint256,uint32)": {
        "notice": "Estimate the amount of message value required to deliver a message with given `deliveryGasLimit` and `receiveValue` A buffer should be added to `deliveryGasLimit` in case the amount of gas required is higher than the expectation"
      },
      "requestResend(uint16,uint64,uint16,uint256,uint256)": {
        "notice": "A convinience function to redeliver"
      },
      "validToken(uint256,address)": {
        "notice": "whether the token is valid"
      }
    },
    "notice": "`WormholeAdaptor` uses the generic relayer of wormhole to send message across different networks",
    "version": 1
  },
  "storageLayout": {
    "storage": [
      {
        "astId": 717,
        "contract": "contracts/wombat-core/pool/WormholeAdaptor.sol:WormholeAdaptor",
        "label": "_initialized",
        "offset": 0,
        "slot": "0",
        "type": "t_uint8"
      },
      {
        "astId": 720,
        "contract": "contracts/wombat-core/pool/WormholeAdaptor.sol:WormholeAdaptor",
        "label": "_initializing",
        "offset": 1,
        "slot": "0",
        "type": "t_bool"
      },
      {
        "astId": 1461,
        "contract": "contracts/wombat-core/pool/WormholeAdaptor.sol:WormholeAdaptor",
        "label": "__gap",
        "offset": 0,
        "slot": "1",
        "type": "t_array(t_uint256)50_storage"
      },
      {
        "astId": 589,
        "contract": "contracts/wombat-core/pool/WormholeAdaptor.sol:WormholeAdaptor",
        "label": "_owner",
        "offset": 0,
        "slot": "51",
        "type": "t_address"
      },
      {
        "astId": 709,
        "contract": "contracts/wombat-core/pool/WormholeAdaptor.sol:WormholeAdaptor",
        "label": "__gap",
        "offset": 0,
        "slot": "52",
        "type": "t_array(t_uint256)49_storage"
      },
      {
        "astId": 1020,
        "contract": "contracts/wombat-core/pool/WormholeAdaptor.sol:WormholeAdaptor",
        "label": "_status",
        "offset": 0,
        "slot": "101",
        "type": "t_uint256"
      },
      {
        "astId": 1089,
        "contract": "contracts/wombat-core/pool/WormholeAdaptor.sol:WormholeAdaptor",
        "label": "__gap",
        "offset": 0,
        "slot": "102",
        "type": "t_array(t_uint256)49_storage"
      },
      {
        "astId": 900,
        "contract": "contracts/wombat-core/pool/WormholeAdaptor.sol:WormholeAdaptor",
        "label": "_paused",
        "offset": 0,
        "slot": "151",
        "type": "t_bool"
      },
      {
        "astId": 1005,
        "contract": "contracts/wombat-core/pool/WormholeAdaptor.sol:WormholeAdaptor",
        "label": "__gap",
        "offset": 0,
        "slot": "152",
        "type": "t_array(t_uint256)49_storage"
      },
      {
        "astId": 8878,
        "contract": "contracts/wombat-core/pool/WormholeAdaptor.sol:WormholeAdaptor",
        "label": "crossChainPool",
        "offset": 0,
        "slot": "201",
        "type": "t_contract(ICrossChainPool)7862"
      },
      {
        "astId": 8880,
        "contract": "contracts/wombat-core/pool/WormholeAdaptor.sol:WormholeAdaptor",
        "label": "_used",
        "offset": 0,
        "slot": "202",
        "type": "t_uint256"
      },
      {
        "astId": 8887,
        "contract": "contracts/wombat-core/pool/WormholeAdaptor.sol:WormholeAdaptor",
        "label": "validToken",
        "offset": 0,
        "slot": "203",
        "type": "t_mapping(t_uint256,t_mapping(t_address,t_bool))"
      },
      {
        "astId": 8891,
        "contract": "contracts/wombat-core/pool/WormholeAdaptor.sol:WormholeAdaptor",
        "label": "__gap",
        "offset": 0,
        "slot": "204",
        "type": "t_array(t_uint256)50_storage"
      },
      {
        "astId": 15941,
        "contract": "contracts/wombat-core/pool/WormholeAdaptor.sol:WormholeAdaptor",
        "label": "relayer",
        "offset": 0,
        "slot": "254",
        "type": "t_contract(IWormholeRelayer)8758"
      },
      {
        "astId": 15944,
        "contract": "contracts/wombat-core/pool/WormholeAdaptor.sol:WormholeAdaptor",
        "label": "wormhole",
        "offset": 0,
        "slot": "255",
        "type": "t_contract(IWormhole)8328"
      },
      {
        "astId": 15949,
        "contract": "contracts/wombat-core/pool/WormholeAdaptor.sol:WormholeAdaptor",
        "label": "adaptorAddress",
        "offset": 0,
        "slot": "256",
        "type": "t_mapping(t_uint16,t_address)"
      },
      {
        "astId": 15954,
        "contract": "contracts/wombat-core/pool/WormholeAdaptor.sol:WormholeAdaptor",
        "label": "deliveredMessage",
        "offset": 0,
        "slot": "257",
        "type": "t_mapping(t_bytes32,t_bool)"
      }
    ],
    "types": {
      "t_address": {
        "encoding": "inplace",
        "label": "address",
        "numberOfBytes": "20"
      },
      "t_array(t_uint256)49_storage": {
        "base": "t_uint256",
        "encoding": "inplace",
        "label": "uint256[49]",
        "numberOfBytes": "1568"
      },
      "t_array(t_uint256)50_storage": {
        "base": "t_uint256",
        "encoding": "inplace",
        "label": "uint256[50]",
        "numberOfBytes": "1600"
      },
      "t_bool": {
        "encoding": "inplace",
        "label": "bool",
        "numberOfBytes": "1"
      },
      "t_bytes32": {
        "encoding": "inplace",
        "label": "bytes32",
        "numberOfBytes": "32"
      },
      "t_contract(ICrossChainPool)7862": {
        "encoding": "inplace",
        "label": "contract ICrossChainPool",
        "numberOfBytes": "20"
      },
      "t_contract(IWormhole)8328": {
        "encoding": "inplace",
        "label": "contract IWormhole",
        "numberOfBytes": "20"
      },
      "t_contract(IWormholeRelayer)8758": {
        "encoding": "inplace",
        "label": "contract IWormholeRelayer",
        "numberOfBytes": "20"
      },
      "t_mapping(t_address,t_bool)": {
        "encoding": "mapping",
        "key": "t_address",
        "label": "mapping(address => bool)",
        "numberOfBytes": "32",
        "value": "t_bool"
      },
      "t_mapping(t_bytes32,t_bool)": {
        "encoding": "mapping",
        "key": "t_bytes32",
        "label": "mapping(bytes32 => bool)",
        "numberOfBytes": "32",
        "value": "t_bool"
      },
      "t_mapping(t_uint16,t_address)": {
        "encoding": "mapping",
        "key": "t_uint16",
        "label": "mapping(uint16 => address)",
        "numberOfBytes": "32",
        "value": "t_address"
      },
      "t_mapping(t_uint256,t_mapping(t_address,t_bool))": {
        "encoding": "mapping",
        "key": "t_uint256",
        "label": "mapping(uint256 => mapping(address => bool))",
        "numberOfBytes": "32",
        "value": "t_mapping(t_address,t_bool)"
      },
      "t_uint16": {
        "encoding": "inplace",
        "label": "uint16",
        "numberOfBytes": "2"
      },
      "t_uint256": {
        "encoding": "inplace",
        "label": "uint256",
        "numberOfBytes": "32"
      },
      "t_uint8": {
        "encoding": "inplace",
        "label": "uint8",
        "numberOfBytes": "1"
      }
    }
  }
}