{
  "address": "0x000AAa0070c92dd6833eE0329a9f2B1fDf0eDCC6",
  "abi": [
    {
      "inputs": [],
      "name": "POOL__CREDIT_NOT_ENOUGH",
      "type": "error"
    },
    {
      "inputs": [],
      "name": "POOL__REACH_MAXIMUM_BURNED_CREDIT",
      "type": "error"
    },
    {
      "inputs": [],
      "name": "POOL__REACH_MAXIMUM_MINTED_CREDIT",
      "type": "error"
    },
    {
      "inputs": [],
      "name": "POOL__SWAP_CREDIT_FOR_TOKENS_DISABLED",
      "type": "error"
    },
    {
      "inputs": [],
      "name": "POOL__SWAP_TOKENS_FOR_CREDIT_DISABLED",
      "type": "error"
    },
    {
      "inputs": [],
      "name": "WOMBAT_AMOUNT_TOO_LOW",
      "type": "error"
    },
    {
      "inputs": [],
      "name": "WOMBAT_ASSET_ALREADY_EXIST",
      "type": "error"
    },
    {
      "inputs": [],
      "name": "WOMBAT_ASSET_ALREADY_PAUSED",
      "type": "error"
    },
    {
      "inputs": [],
      "name": "WOMBAT_ASSET_NOT_EXISTS",
      "type": "error"
    },
    {
      "inputs": [],
      "name": "WOMBAT_ASSET_NOT_PAUSED",
      "type": "error"
    },
    {
      "inputs": [],
      "name": "WOMBAT_CASH_NOT_ENOUGH",
      "type": "error"
    },
    {
      "inputs": [],
      "name": "WOMBAT_COV_RATIO_LIMIT_EXCEEDED",
      "type": "error"
    },
    {
      "inputs": [],
      "name": "WOMBAT_EXPIRED",
      "type": "error"
    },
    {
      "inputs": [],
      "name": "WOMBAT_FORBIDDEN",
      "type": "error"
    },
    {
      "inputs": [],
      "name": "WOMBAT_INVALID_VALUE",
      "type": "error"
    },
    {
      "inputs": [],
      "name": "WOMBAT_SAME_ADDRESS",
      "type": "error"
    },
    {
      "inputs": [],
      "name": "WOMBAT_ZERO_ADDRESS",
      "type": "error"
    },
    {
      "inputs": [],
      "name": "WOMBAT_ZERO_AMOUNT",
      "type": "error"
    },
    {
      "inputs": [],
      "name": "WOMBAT_ZERO_CREDIT_AMOUNT",
      "type": "error"
    },
    {
      "inputs": [],
      "name": "WOMBAT_ZERO_LIQUIDITY",
      "type": "error"
    },
    {
      "anonymous": false,
      "inputs": [
        {
          "indexed": true,
          "internalType": "address",
          "name": "token",
          "type": "address"
        },
        {
          "indexed": true,
          "internalType": "address",
          "name": "asset",
          "type": "address"
        }
      ],
      "name": "AssetAdded",
      "type": "event"
    },
    {
      "anonymous": false,
      "inputs": [
        {
          "indexed": true,
          "internalType": "address",
          "name": "token",
          "type": "address"
        },
        {
          "indexed": true,
          "internalType": "address",
          "name": "asset",
          "type": "address"
        }
      ],
      "name": "AssetRemoved",
      "type": "event"
    },
    {
      "anonymous": false,
      "inputs": [
        {
          "indexed": true,
          "internalType": "address",
          "name": "sender",
          "type": "address"
        },
        {
          "indexed": false,
          "internalType": "address",
          "name": "token",
          "type": "address"
        },
        {
          "indexed": false,
          "internalType": "uint256",
          "name": "amount",
          "type": "uint256"
        },
        {
          "indexed": false,
          "internalType": "uint256",
          "name": "liquidity",
          "type": "uint256"
        },
        {
          "indexed": true,
          "internalType": "address",
          "name": "to",
          "type": "address"
        }
      ],
      "name": "Deposit",
      "type": "event"
    },
    {
      "anonymous": false,
      "inputs": [
        {
          "indexed": false,
          "internalType": "address",
          "name": "token",
          "type": "address"
        },
        {
          "indexed": false,
          "internalType": "uint256",
          "name": "amount",
          "type": "uint256"
        }
      ],
      "name": "FillPool",
      "type": "event"
    },
    {
      "anonymous": false,
      "inputs": [
        {
          "indexed": false,
          "internalType": "uint8",
          "name": "version",
          "type": "uint8"
        }
      ],
      "name": "Initialized",
      "type": "event"
    },
    {
      "anonymous": false,
      "inputs": [
        {
          "indexed": true,
          "internalType": "address",
          "name": "receiver",
          "type": "address"
        },
        {
          "indexed": false,
          "internalType": "uint256",
          "name": "creditAmount",
          "type": "uint256"
        }
      ],
      "name": "MintCredit",
      "type": "event"
    },
    {
      "anonymous": false,
      "inputs": [
        {
          "indexed": true,
          "internalType": "address",
          "name": "previousOwner",
          "type": "address"
        },
        {
          "indexed": true,
          "internalType": "address",
          "name": "newOwner",
          "type": "address"
        }
      ],
      "name": "OwnershipTransferred",
      "type": "event"
    },
    {
      "anonymous": false,
      "inputs": [
        {
          "indexed": false,
          "internalType": "address",
          "name": "account",
          "type": "address"
        }
      ],
      "name": "Paused",
      "type": "event"
    },
    {
      "anonymous": false,
      "inputs": [
        {
          "indexed": false,
          "internalType": "address",
          "name": "token",
          "type": "address"
        },
        {
          "indexed": false,
          "internalType": "address",
          "name": "account",
          "type": "address"
        }
      ],
      "name": "PausedAsset",
      "type": "event"
    },
    {
      "anonymous": false,
      "inputs": [
        {
          "indexed": false,
          "internalType": "uint256",
          "name": "value",
          "type": "uint256"
        }
      ],
      "name": "SetAmpFactor",
      "type": "event"
    },
    {
      "anonymous": false,
      "inputs": [
        {
          "indexed": false,
          "internalType": "address",
          "name": "addr",
          "type": "address"
        }
      ],
      "name": "SetDev",
      "type": "event"
    },
    {
      "anonymous": false,
      "inputs": [
        {
          "indexed": false,
          "internalType": "uint256",
          "name": "lpDividendRatio",
          "type": "uint256"
        },
        {
          "indexed": false,
          "internalType": "uint256",
          "name": "retentionRatio",
          "type": "uint256"
        }
      ],
      "name": "SetFee",
      "type": "event"
    },
    {
      "anonymous": false,
      "inputs": [
        {
          "indexed": false,
          "internalType": "address",
          "name": "addr",
          "type": "address"
        }
      ],
      "name": "SetFeeTo",
      "type": "event"
    },
    {
      "anonymous": false,
      "inputs": [
        {
          "indexed": false,
          "internalType": "uint256",
          "name": "value",
          "type": "uint256"
        }
      ],
      "name": "SetHaircutRate",
      "type": "event"
    },
    {
      "anonymous": false,
      "inputs": [
        {
          "indexed": false,
          "internalType": "address",
          "name": "addr",
          "type": "address"
        }
      ],
      "name": "SetMasterWombat",
      "type": "event"
    },
    {
      "anonymous": false,
      "inputs": [
        {
          "indexed": false,
          "internalType": "uint256",
          "name": "value",
          "type": "uint256"
        }
      ],
      "name": "SetMintFeeThreshold",
      "type": "event"
    },
    {
      "anonymous": false,
      "inputs": [
        {
          "indexed": false,
          "internalType": "uint256",
          "name": "value",
          "type": "uint256"
        }
      ],
      "name": "SetWithdrawalHaircutRate",
      "type": "event"
    },
    {
      "anonymous": false,
      "inputs": [
        {
          "indexed": false,
          "internalType": "uint256",
          "name": "creditAmount",
          "type": "uint256"
        },
        {
          "indexed": true,
          "internalType": "address",
          "name": "toToken",
          "type": "address"
        },
        {
          "indexed": false,
          "internalType": "uint256",
          "name": "toAmount",
          "type": "uint256"
        },
        {
          "indexed": false,
          "internalType": "uint256",
          "name": "toTokenFee",
          "type": "uint256"
        },
        {
          "indexed": true,
          "internalType": "address",
          "name": "receiver",
          "type": "address"
        }
      ],
      "name": "SwapCreditForTokens",
      "type": "event"
    },
    {
      "anonymous": false,
      "inputs": [
        {
          "indexed": true,
          "internalType": "address",
          "name": "sender",
          "type": "address"
        },
        {
          "indexed": true,
          "internalType": "address",
          "name": "fromToken",
          "type": "address"
        },
        {
          "indexed": false,
          "internalType": "uint256",
          "name": "fromAmount",
          "type": "uint256"
        },
        {
          "indexed": false,
          "internalType": "uint256",
          "name": "fromTokenFee",
          "type": "uint256"
        },
        {
          "indexed": false,
          "internalType": "uint256",
          "name": "creditAmount",
          "type": "uint256"
        }
      ],
      "name": "SwapTokensForCredit",
      "type": "event"
    },
    {
      "anonymous": false,
      "inputs": [
        {
          "indexed": true,
          "internalType": "address",
          "name": "sender",
          "type": "address"
        },
        {
          "indexed": false,
          "internalType": "address",
          "name": "fromToken",
          "type": "address"
        },
        {
          "indexed": false,
          "internalType": "address",
          "name": "toToken",
          "type": "address"
        },
        {
          "indexed": false,
          "internalType": "uint256",
          "name": "fromAmount",
          "type": "uint256"
        },
        {
          "indexed": false,
          "internalType": "uint256",
          "name": "toAmount",
          "type": "uint256"
        },
        {
          "indexed": false,
          "internalType": "uint256",
          "name": "toTokenFee",
          "type": "uint256"
        },
        {
          "indexed": true,
          "internalType": "address",
          "name": "to",
          "type": "address"
        }
      ],
      "name": "SwapV2",
      "type": "event"
    },
    {
      "anonymous": false,
      "inputs": [
        {
          "indexed": false,
          "internalType": "address",
          "name": "token",
          "type": "address"
        },
        {
          "indexed": false,
          "internalType": "uint256",
          "name": "amount",
          "type": "uint256"
        },
        {
          "indexed": false,
          "internalType": "address",
          "name": "to",
          "type": "address"
        }
      ],
      "name": "TransferTipBucket",
      "type": "event"
    },
    {
      "anonymous": false,
      "inputs": [
        {
          "indexed": false,
          "internalType": "address",
          "name": "account",
          "type": "address"
        }
      ],
      "name": "Unpaused",
      "type": "event"
    },
    {
      "anonymous": false,
      "inputs": [
        {
          "indexed": false,
          "internalType": "address",
          "name": "token",
          "type": "address"
        },
        {
          "indexed": false,
          "internalType": "address",
          "name": "account",
          "type": "address"
        }
      ],
      "name": "UnpausedAsset",
      "type": "event"
    },
    {
      "anonymous": false,
      "inputs": [
        {
          "indexed": true,
          "internalType": "address",
          "name": "sender",
          "type": "address"
        },
        {
          "indexed": false,
          "internalType": "address",
          "name": "token",
          "type": "address"
        },
        {
          "indexed": false,
          "internalType": "uint256",
          "name": "amount",
          "type": "uint256"
        },
        {
          "indexed": false,
          "internalType": "uint256",
          "name": "liquidity",
          "type": "uint256"
        },
        {
          "indexed": true,
          "internalType": "address",
          "name": "to",
          "type": "address"
        }
      ],
      "name": "Withdraw",
      "type": "event"
    },
    {
      "inputs": [],
      "name": "adaptor",
      "outputs": [
        {
          "internalType": "contract IAdaptor",
          "name": "",
          "type": "address"
        }
      ],
      "stateMutability": "view",
      "type": "function"
    },
    {
      "inputs": [
        {
          "internalType": "address",
          "name": "token",
          "type": "address"
        },
        {
          "internalType": "address",
          "name": "asset",
          "type": "address"
        }
      ],
      "name": "addAsset",
      "outputs": [],
      "stateMutability": "nonpayable",
      "type": "function"
    },
    {
      "inputs": [
        {
          "internalType": "address",
          "name": "token",
          "type": "address"
        }
      ],
      "name": "addressOfAsset",
      "outputs": [
        {
          "internalType": "address",
          "name": "",
          "type": "address"
        }
      ],
      "stateMutability": "view",
      "type": "function"
    },
    {
      "inputs": [],
      "name": "ampFactor",
      "outputs": [
        {
          "internalType": "uint256",
          "name": "",
          "type": "uint256"
        }
      ],
      "stateMutability": "view",
      "type": "function"
    },
    {
      "inputs": [
        {
          "internalType": "address",
          "name": "toToken",
          "type": "address"
        },
        {
          "internalType": "uint256",
          "name": "fromAmount",
          "type": "uint256"
        },
        {
          "internalType": "uint256",
          "name": "minimumToAmount",
          "type": "uint256"
        },
        {
          "internalType": "address",
          "name": "receiver",
          "type": "address"
        }
      ],
      "name": "completeSwapCreditForTokens",
      "outputs": [
        {
          "internalType": "uint256",
          "name": "actualToAmount",
          "type": "uint256"
        },
        {
          "internalType": "uint256",
          "name": "toTokenFee",
          "type": "uint256"
        }
      ],
      "stateMutability": "nonpayable",
      "type": "function"
    },
    {
      "inputs": [
        {
          "internalType": "address",
          "name": "",
          "type": "address"
        }
      ],
      "name": "creditBalance",
      "outputs": [
        {
          "internalType": "uint256",
          "name": "",
          "type": "uint256"
        }
      ],
      "stateMutability": "view",
      "type": "function"
    },
    {
      "inputs": [],
      "name": "creditForTokensHaircut",
      "outputs": [
        {
          "internalType": "uint128",
          "name": "",
          "type": "uint128"
        }
      ],
      "stateMutability": "view",
      "type": "function"
    },
    {
      "inputs": [
        {
          "internalType": "address",
          "name": "token",
          "type": "address"
        },
        {
          "internalType": "uint256",
          "name": "amount",
          "type": "uint256"
        },
        {
          "internalType": "uint256",
          "name": "minimumLiquidity",
          "type": "uint256"
        },
        {
          "internalType": "address",
          "name": "to",
          "type": "address"
        },
        {
          "internalType": "uint256",
          "name": "deadline",
          "type": "uint256"
        },
        {
          "internalType": "bool",
          "name": "shouldStake",
          "type": "bool"
        }
      ],
      "name": "deposit",
      "outputs": [
        {
          "internalType": "uint256",
          "name": "liquidity",
          "type": "uint256"
        }
      ],
      "stateMutability": "nonpayable",
      "type": "function"
    },
    {
      "inputs": [],
      "name": "dev",
      "outputs": [
        {
          "internalType": "address",
          "name": "",
          "type": "address"
        }
      ],
      "stateMutability": "view",
      "type": "function"
    },
    {
      "inputs": [],
      "name": "endCovRatio",
      "outputs": [
        {
          "internalType": "uint128",
          "name": "",
          "type": "uint128"
        }
      ],
      "stateMutability": "view",
      "type": "function"
    },
    {
      "inputs": [
        {
          "internalType": "address",
          "name": "token",
          "type": "address"
        }
      ],
      "name": "exchangeRate",
      "outputs": [
        {
          "internalType": "uint256",
          "name": "xr",
          "type": "uint256"
        }
      ],
      "stateMutability": "view",
      "type": "function"
    },
    {
      "inputs": [],
      "name": "feeTo",
      "outputs": [
        {
          "internalType": "address",
          "name": "",
          "type": "address"
        }
      ],
      "stateMutability": "view",
      "type": "function"
    },
    {
      "inputs": [
        {
          "internalType": "address",
          "name": "token",
          "type": "address"
        },
        {
          "internalType": "uint256",
          "name": "amount",
          "type": "uint256"
        }
      ],
      "name": "fillPool",
      "outputs": [],
      "stateMutability": "nonpayable",
      "type": "function"
    },
    {
      "inputs": [],
      "name": "getTokens",
      "outputs": [
        {
          "internalType": "address[]",
          "name": "",
          "type": "address[]"
        }
      ],
      "stateMutability": "view",
      "type": "function"
    },
    {
      "inputs": [],
      "name": "globalEquilCovRatio",
      "outputs": [
        {
          "internalType": "int256",
          "name": "equilCovRatio",
          "type": "int256"
        },
        {
          "internalType": "int256",
          "name": "invariant",
          "type": "int256"
        }
      ],
      "stateMutability": "view",
      "type": "function"
    },
    {
      "inputs": [],
      "name": "globalEquilCovRatioWithCredit",
      "outputs": [
        {
          "internalType": "uint256",
          "name": "equilCovRatio",
          "type": "uint256"
        },
        {
          "internalType": "uint256",
          "name": "invariantInUint",
          "type": "uint256"
        }
      ],
      "stateMutability": "view",
      "type": "function"
    },
    {
      "inputs": [],
      "name": "haircutRate",
      "outputs": [
        {
          "internalType": "uint256",
          "name": "",
          "type": "uint256"
        }
      ],
      "stateMutability": "view",
      "type": "function"
    },
    {
      "inputs": [
        {
          "internalType": "uint256",
          "name": "ampFactor_",
          "type": "uint256"
        },
        {
          "internalType": "uint256",
          "name": "haircutRate_",
          "type": "uint256"
        }
      ],
      "name": "initialize",
      "outputs": [],
      "stateMutability": "nonpayable",
      "type": "function"
    },
    {
      "inputs": [
        {
          "internalType": "address",
          "name": "token",
          "type": "address"
        }
      ],
      "name": "isPaused",
      "outputs": [
        {
          "internalType": "bool",
          "name": "",
          "type": "bool"
        }
      ],
      "stateMutability": "view",
      "type": "function"
    },
    {
      "inputs": [],
      "name": "lpDividendRatio",
      "outputs": [
        {
          "internalType": "uint256",
          "name": "",
          "type": "uint256"
        }
      ],
      "stateMutability": "view",
      "type": "function"
    },
    {
      "inputs": [],
      "name": "masterWombat",
      "outputs": [
        {
          "internalType": "address",
          "name": "",
          "type": "address"
        }
      ],
      "stateMutability": "view",
      "type": "function"
    },
    {
      "inputs": [],
      "name": "maximumInboundCredit",
      "outputs": [
        {
          "internalType": "uint128",
          "name": "",
          "type": "uint128"
        }
      ],
      "stateMutability": "view",
      "type": "function"
    },
    {
      "inputs": [],
      "name": "maximumOutboundCredit",
      "outputs": [
        {
          "internalType": "uint128",
          "name": "",
          "type": "uint128"
        }
      ],
      "stateMutability": "view",
      "type": "function"
    },
    {
      "inputs": [
        {
          "internalType": "uint256",
          "name": "creditAmount",
          "type": "uint256"
        },
        {
          "internalType": "address",
          "name": "receiver",
          "type": "address"
        }
      ],
      "name": "mintCredit",
      "outputs": [],
      "stateMutability": "nonpayable",
      "type": "function"
    },
    {
      "inputs": [
        {
          "internalType": "address",
          "name": "token",
          "type": "address"
        }
      ],
      "name": "mintFee",
      "outputs": [
        {
          "internalType": "uint256",
          "name": "feeCollected",
          "type": "uint256"
        }
      ],
      "stateMutability": "nonpayable",
      "type": "function"
    },
    {
      "inputs": [],
      "name": "mintFeeThreshold",
      "outputs": [
        {
          "internalType": "uint256",
          "name": "",
          "type": "uint256"
        }
      ],
      "stateMutability": "view",
      "type": "function"
    },
    {
      "inputs": [],
      "name": "owner",
      "outputs": [
        {
          "internalType": "address",
          "name": "",
          "type": "address"
        }
      ],
      "stateMutability": "view",
      "type": "function"
    },
    {
      "inputs": [],
      "name": "pause",
      "outputs": [],
      "stateMutability": "nonpayable",
      "type": "function"
    },
    {
      "inputs": [
        {
          "internalType": "address",
          "name": "token",
          "type": "address"
        }
      ],
      "name": "pauseAsset",
      "outputs": [],
      "stateMutability": "nonpayable",
      "type": "function"
    },
    {
      "inputs": [],
      "name": "paused",
      "outputs": [
        {
          "internalType": "bool",
          "name": "",
          "type": "bool"
        }
      ],
      "stateMutability": "view",
      "type": "function"
    },
    {
      "inputs": [
        {
          "internalType": "address",
          "name": "fromToken",
          "type": "address"
        },
        {
          "internalType": "address",
          "name": "toToken",
          "type": "address"
        },
        {
          "internalType": "int256",
          "name": "toAmount",
          "type": "int256"
        }
      ],
      "name": "quoteAmountIn",
      "outputs": [
        {
          "internalType": "uint256",
          "name": "amountIn",
          "type": "uint256"
        },
        {
          "internalType": "uint256",
          "name": "haircut",
          "type": "uint256"
        }
      ],
      "stateMutability": "view",
      "type": "function"
    },
    {
      "inputs": [
        {
          "internalType": "address",
          "name": "token",
          "type": "address"
        },
        {
          "internalType": "uint256",
          "name": "amount",
          "type": "uint256"
        }
      ],
      "name": "quotePotentialDeposit",
      "outputs": [
        {
          "internalType": "uint256",
          "name": "liquidity",
          "type": "uint256"
        }
      ],
      "stateMutability": "view",
      "type": "function"
    },
    {
      "inputs": [
        {
          "internalType": "address",
          "name": "fromToken",
          "type": "address"
        },
        {
          "internalType": "address",
          "name": "toToken",
          "type": "address"
        },
        {
          "internalType": "int256",
          "name": "fromAmount",
          "type": "int256"
        }
      ],
      "name": "quotePotentialSwap",
      "outputs": [
        {
          "internalType": "uint256",
          "name": "potentialOutcome",
          "type": "uint256"
        },
        {
          "internalType": "uint256",
          "name": "haircut",
          "type": "uint256"
        }
      ],
      "stateMutability": "view",
      "type": "function"
    },
    {
      "inputs": [
        {
          "internalType": "address",
          "name": "token",
          "type": "address"
        },
        {
          "internalType": "uint256",
          "name": "liquidity",
          "type": "uint256"
        }
      ],
      "name": "quotePotentialWithdraw",
      "outputs": [
        {
          "internalType": "uint256",
          "name": "amount",
          "type": "uint256"
        }
      ],
      "stateMutability": "view",
      "type": "function"
    },
    {
      "inputs": [
        {
          "internalType": "address",
          "name": "fromToken",
          "type": "address"
        },
        {
          "internalType": "address",
          "name": "toToken",
          "type": "address"
        },
        {
          "internalType": "uint256",
          "name": "liquidity",
          "type": "uint256"
        }
      ],
      "name": "quotePotentialWithdrawFromOtherAsset",
      "outputs": [
        {
          "internalType": "uint256",
          "name": "finalAmount",
          "type": "uint256"
        },
        {
          "internalType": "uint256",
          "name": "withdrewAmount",
          "type": "uint256"
        }
      ],
      "stateMutability": "view",
      "type": "function"
    },
    {
      "inputs": [
        {
          "internalType": "address",
          "name": "toToken",
          "type": "address"
        },
        {
          "internalType": "uint256",
          "name": "fromCreditAmount",
          "type": "uint256"
        }
      ],
      "name": "quoteSwapCreditForTokens",
      "outputs": [
        {
          "internalType": "uint256",
          "name": "actualToAmount",
          "type": "uint256"
        },
        {
          "internalType": "uint256",
          "name": "toTokenFee",
          "type": "uint256"
        }
      ],
      "stateMutability": "view",
      "type": "function"
    },
    {
      "inputs": [
        {
          "internalType": "address",
          "name": "fromToken",
          "type": "address"
        },
        {
          "internalType": "uint256",
          "name": "fromAmount",
          "type": "uint256"
        }
      ],
      "name": "quoteSwapTokensForCredit",
      "outputs": [
        {
          "internalType": "uint256",
          "name": "creditAmount",
          "type": "uint256"
        },
        {
          "internalType": "uint256",
          "name": "fromTokenFee",
          "type": "uint256"
        }
      ],
      "stateMutability": "view",
      "type": "function"
    },
    {
      "inputs": [
        {
          "internalType": "address",
          "name": "token",
          "type": "address"
        }
      ],
      "name": "removeAsset",
      "outputs": [],
      "stateMutability": "nonpayable",
      "type": "function"
    },
    {
      "inputs": [],
      "name": "renounceOwnership",
      "outputs": [],
      "stateMutability": "nonpayable",
      "type": "function"
    },
    {
      "inputs": [],
      "name": "retentionRatio",
      "outputs": [
        {
          "internalType": "uint256",
          "name": "",
          "type": "uint256"
        }
      ],
      "stateMutability": "view",
      "type": "function"
    },
    {
      "inputs": [
        {
          "internalType": "contract IAdaptor",
          "name": "_adaptor",
          "type": "address"
        }
      ],
      "name": "setAdaptorAddr",
      "outputs": [],
      "stateMutability": "nonpayable",
      "type": "function"
    },
    {
      "inputs": [
        {
          "internalType": "uint256",
          "name": "ampFactor_",
          "type": "uint256"
        }
      ],
      "name": "setAmpFactor",
      "outputs": [],
      "stateMutability": "nonpayable",
      "type": "function"
    },
    {
      "inputs": [
        {
          "internalType": "uint128",
          "name": "startCovRatio_",
          "type": "uint128"
        },
        {
          "internalType": "uint128",
          "name": "endCovRatio_",
          "type": "uint128"
        }
      ],
      "name": "setCovRatioFeeParam",
      "outputs": [],
      "stateMutability": "nonpayable",
      "type": "function"
    },
    {
      "inputs": [
        {
          "internalType": "uint128",
          "name": "_tokensForCreditHaircut",
          "type": "uint128"
        },
        {
          "internalType": "uint128",
          "name": "_creditForTokensHaircut",
          "type": "uint128"
        }
      ],
      "name": "setCrossChainHaircut",
      "outputs": [],
      "stateMutability": "nonpayable",
      "type": "function"
    },
    {
      "inputs": [
        {
          "internalType": "address",
          "name": "dev_",
          "type": "address"
        }
      ],
      "name": "setDev",
      "outputs": [],
      "stateMutability": "nonpayable",
      "type": "function"
    },
    {
      "inputs": [
        {
          "internalType": "uint256",
          "name": "lpDividendRatio_",
          "type": "uint256"
        },
        {
          "internalType": "uint256",
          "name": "retentionRatio_",
          "type": "uint256"
        }
      ],
      "name": "setFee",
      "outputs": [],
      "stateMutability": "nonpayable",
      "type": "function"
    },
    {
      "inputs": [
        {
          "internalType": "address",
          "name": "feeTo_",
          "type": "address"
        }
      ],
      "name": "setFeeTo",
      "outputs": [],
      "stateMutability": "nonpayable",
      "type": "function"
    },
    {
      "inputs": [
        {
          "internalType": "uint256",
          "name": "haircutRate_",
          "type": "uint256"
        }
      ],
      "name": "setHaircutRate",
      "outputs": [],
      "stateMutability": "nonpayable",
      "type": "function"
    },
    {
      "inputs": [
        {
          "internalType": "address",
          "name": "masterWombat_",
          "type": "address"
        }
      ],
      "name": "setMasterWombat",
      "outputs": [],
      "stateMutability": "nonpayable",
      "type": "function"
    },
    {
      "inputs": [
        {
          "internalType": "uint128",
          "name": "_maximumInboundCredit",
          "type": "uint128"
        }
      ],
      "name": "setMaximumInboundCredit",
      "outputs": [],
      "stateMutability": "nonpayable",
      "type": "function"
    },
    {
      "inputs": [
        {
          "internalType": "uint128",
          "name": "_maximumOutboundCredit",
          "type": "uint128"
        }
      ],
      "name": "setMaximumOutboundCredit",
      "outputs": [],
      "stateMutability": "nonpayable",
      "type": "function"
    },
    {
      "inputs": [
        {
          "internalType": "uint256",
          "name": "mintFeeThreshold_",
          "type": "uint256"
        }
      ],
      "name": "setMintFeeThreshold",
      "outputs": [],
      "stateMutability": "nonpayable",
      "type": "function"
    },
    {
      "inputs": [
        {
          "internalType": "bool",
          "name": "enable",
          "type": "bool"
        }
      ],
      "name": "setSwapCreditForTokensEnabled",
      "outputs": [],
      "stateMutability": "nonpayable",
      "type": "function"
    },
    {
      "inputs": [
        {
          "internalType": "bool",
          "name": "enable",
          "type": "bool"
        }
      ],
      "name": "setSwapTokensForCreditEnabled",
      "outputs": [],
      "stateMutability": "nonpayable",
      "type": "function"
    },
    {
      "inputs": [
        {
          "internalType": "uint256",
          "name": "withdrawalHaircutRate_",
          "type": "uint256"
        }
      ],
      "name": "setWithdrawalHaircutRate",
      "outputs": [],
      "stateMutability": "nonpayable",
      "type": "function"
    },
    {
      "inputs": [],
      "name": "startCovRatio",
      "outputs": [
        {
          "internalType": "uint128",
          "name": "",
          "type": "uint128"
        }
      ],
      "stateMutability": "view",
      "type": "function"
    },
    {
      "inputs": [
        {
          "internalType": "address",
          "name": "fromToken",
          "type": "address"
        },
        {
          "internalType": "address",
          "name": "toToken",
          "type": "address"
        },
        {
          "internalType": "uint256",
          "name": "fromAmount",
          "type": "uint256"
        },
        {
          "internalType": "uint256",
          "name": "minimumToAmount",
          "type": "uint256"
        },
        {
          "internalType": "address",
          "name": "to",
          "type": "address"
        },
        {
          "internalType": "uint256",
          "name": "deadline",
          "type": "uint256"
        }
      ],
      "name": "swap",
      "outputs": [
        {
          "internalType": "uint256",
          "name": "actualToAmount",
          "type": "uint256"
        },
        {
          "internalType": "uint256",
          "name": "haircut",
          "type": "uint256"
        }
      ],
      "stateMutability": "nonpayable",
      "type": "function"
    },
    {
      "inputs": [
        {
          "internalType": "address",
          "name": "toToken",
          "type": "address"
        },
        {
          "internalType": "uint256",
          "name": "fromAmount",
          "type": "uint256"
        },
        {
          "internalType": "uint256",
          "name": "minimumToAmount",
          "type": "uint256"
        },
        {
          "internalType": "address",
          "name": "receiver",
          "type": "address"
        }
      ],
      "name": "swapCreditForTokens",
      "outputs": [
        {
          "internalType": "uint256",
          "name": "actualToAmount",
          "type": "uint256"
        },
        {
          "internalType": "uint256",
          "name": "toTokenFee",
          "type": "uint256"
        }
      ],
      "stateMutability": "nonpayable",
      "type": "function"
    },
    {
      "inputs": [
        {
          "internalType": "address",
          "name": "toToken",
          "type": "address"
        },
        {
          "internalType": "uint256",
          "name": "toChain",
          "type": "uint256"
        },
        {
          "internalType": "uint256",
          "name": "fromAmount",
          "type": "uint256"
        },
        {
          "internalType": "uint256",
          "name": "minimumToAmount",
          "type": "uint256"
        },
        {
          "internalType": "address",
          "name": "receiver",
          "type": "address"
        },
        {
          "internalType": "uint256",
          "name": "receiverValue",
          "type": "uint256"
        },
        {
          "internalType": "uint256",
          "name": "deliveryGasLimit",
          "type": "uint256"
        }
      ],
      "name": "swapCreditForTokensCrossChain",
      "outputs": [
        {
          "internalType": "uint256",
          "name": "trackingId",
          "type": "uint256"
        }
      ],
      "stateMutability": "payable",
      "type": "function"
    },
    {
      "inputs": [],
      "name": "swapCreditForTokensEnabled",
      "outputs": [
        {
          "internalType": "bool",
          "name": "",
          "type": "bool"
        }
      ],
      "stateMutability": "view",
      "type": "function"
    },
    {
      "inputs": [],
      "name": "swapTokensForCreditEnabled",
      "outputs": [
        {
          "internalType": "bool",
          "name": "",
          "type": "bool"
        }
      ],
      "stateMutability": "view",
      "type": "function"
    },
    {
      "inputs": [
        {
          "internalType": "address",
          "name": "fromToken",
          "type": "address"
        },
        {
          "internalType": "address",
          "name": "toToken",
          "type": "address"
        },
        {
          "internalType": "uint256",
          "name": "toChain",
          "type": "uint256"
        },
        {
          "internalType": "uint256",
          "name": "fromAmount",
          "type": "uint256"
        },
        {
          "internalType": "uint256",
          "name": "minimumCreditAmount",
          "type": "uint256"
        },
        {
          "internalType": "uint256",
          "name": "minimumToAmount",
          "type": "uint256"
        },
        {
          "internalType": "address",
          "name": "receiver",
          "type": "address"
        },
        {
          "internalType": "uint256",
          "name": "receiverValue",
          "type": "uint256"
        },
        {
          "internalType": "uint256",
          "name": "deliveryGasLimit",
          "type": "uint256"
        }
      ],
      "name": "swapTokensForTokensCrossChain",
      "outputs": [
        {
          "internalType": "uint256",
          "name": "creditAmount",
          "type": "uint256"
        },
        {
          "internalType": "uint256",
          "name": "fromTokenFee",
          "type": "uint256"
        },
        {
          "internalType": "uint256",
          "name": "sequence",
          "type": "uint256"
        }
      ],
      "stateMutability": "payable",
      "type": "function"
    },
    {
      "inputs": [
        {
          "internalType": "address",
          "name": "token",
          "type": "address"
        }
      ],
      "name": "tipBucketBalance",
      "outputs": [
        {
          "internalType": "uint256",
          "name": "balance",
          "type": "uint256"
        }
      ],
      "stateMutability": "view",
      "type": "function"
    },
    {
      "inputs": [],
      "name": "tokensForCreditHaircut",
      "outputs": [
        {
          "internalType": "uint128",
          "name": "",
          "type": "uint128"
        }
      ],
      "stateMutability": "view",
      "type": "function"
    },
    {
      "inputs": [],
      "name": "totalCreditBurned",
      "outputs": [
        {
          "internalType": "uint128",
          "name": "",
          "type": "uint128"
        }
      ],
      "stateMutability": "view",
      "type": "function"
    },
    {
      "inputs": [],
      "name": "totalCreditMinted",
      "outputs": [
        {
          "internalType": "uint128",
          "name": "",
          "type": "uint128"
        }
      ],
      "stateMutability": "view",
      "type": "function"
    },
    {
      "inputs": [
        {
          "internalType": "address",
          "name": "newOwner",
          "type": "address"
        }
      ],
      "name": "transferOwnership",
      "outputs": [],
      "stateMutability": "nonpayable",
      "type": "function"
    },
    {
      "inputs": [
        {
          "internalType": "address",
          "name": "token",
          "type": "address"
        },
        {
          "internalType": "uint256",
          "name": "amount",
          "type": "uint256"
        },
        {
          "internalType": "address",
          "name": "to",
          "type": "address"
        }
      ],
      "name": "transferTipBucket",
      "outputs": [],
      "stateMutability": "nonpayable",
      "type": "function"
    },
    {
      "inputs": [],
      "name": "unpause",
      "outputs": [],
      "stateMutability": "nonpayable",
      "type": "function"
    },
    {
      "inputs": [
        {
          "internalType": "address",
          "name": "token",
          "type": "address"
        }
      ],
      "name": "unpauseAsset",
      "outputs": [],
      "stateMutability": "nonpayable",
      "type": "function"
    },
    {
      "inputs": [
        {
          "internalType": "address",
          "name": "token",
          "type": "address"
        },
        {
          "internalType": "uint256",
          "name": "liquidity",
          "type": "uint256"
        },
        {
          "internalType": "uint256",
          "name": "minimumAmount",
          "type": "uint256"
        },
        {
          "internalType": "address",
          "name": "to",
          "type": "address"
        },
        {
          "internalType": "uint256",
          "name": "deadline",
          "type": "uint256"
        }
      ],
      "name": "withdraw",
      "outputs": [
        {
          "internalType": "uint256",
          "name": "amount",
          "type": "uint256"
        }
      ],
      "stateMutability": "nonpayable",
      "type": "function"
    },
    {
      "inputs": [
        {
          "internalType": "address",
          "name": "fromToken",
          "type": "address"
        },
        {
          "internalType": "address",
          "name": "toToken",
          "type": "address"
        },
        {
          "internalType": "uint256",
          "name": "liquidity",
          "type": "uint256"
        },
        {
          "internalType": "uint256",
          "name": "minimumAmount",
          "type": "uint256"
        },
        {
          "internalType": "address",
          "name": "to",
          "type": "address"
        },
        {
          "internalType": "uint256",
          "name": "deadline",
          "type": "uint256"
        }
      ],
      "name": "withdrawFromOtherAsset",
      "outputs": [
        {
          "internalType": "uint256",
          "name": "toAmount",
          "type": "uint256"
        }
      ],
      "stateMutability": "nonpayable",
      "type": "function"
    },
    {
      "inputs": [],
      "name": "withdrawalHaircutRate",
      "outputs": [
        {
          "internalType": "uint256",
          "name": "",
          "type": "uint256"
        }
      ],
      "stateMutability": "view",
      "type": "function"
    }
  ],
  "transactionHash": "0x466a6db47422bf6fd4bf8c6d934c9ae4856b83beaa0dc5ddc61751f9f27d27b6",
  "args": [],
  "numDeployments": 1,
  "solcInputHash": "489356798d90e70e4f8a4b613af24cec",
  "bytecode": "0x6080806040523461001757615b1690816200001d8239f35b600080fdfe608080604052600436101561001357600080fd5b600090813560e01c908163017b82921461390457508063017e7e58146138dd5780630705999d1461386a578063070f81d91461377c57806307a237c51461370d57806309a5fca31461325957806309f1fd3e146132155780630f91f06f14612c53578063148b1d3a14612c2b5780633753b14a14612b7a5780633bd61ba814612b535780633f4ba83a14612ab65780634a5e42b1146129545780634a6fee0e146128d35780634ba2adfc146128b15780634d31a070146128895780634fdd64e51461287557806352f7c988146127b25780635326a8e7146126a557806355667ca31461267d5780635b14f183146126405780635b6cfa61146125cb5780635c975abb146125a85780635cfe092e1461258a5780635dceb8511461250657806361858e23146124065780636281baef146120a657806362fad13b1461200e5780636922d5ca14611ff0578063715018a614611f9457806374cbbdb914611f725780637629703f14611f4b57806376ad859714611f015780637f809d2914611d52578063815bfd2914611d345780638456cb5914611cd9578063873e73c314611c965780638a2dfe0914611bb95780638da5cb5b14611b925780638de66a68146119d2578063907448ed146118ad57806391cca3db1461188657806393aeea02146117375780639630b6601461170a5780639908fc8b146114c25780639abacb41146113fc5780639e4416b71461139e578063a312ff2314610eba578063a4275ceb14610caf578063aa6ca80814610be9578063ac99415a14610bcb578063baf7e21b14610ba9578063c2cd9b2b14610b81578063c3a21fa714610b5a578063d043c56514610b0c578063d0dd0e5614610aee578063d30ffeda14610aca578063d477f05f14610a57578063da48999714610909578063dc3b7c8b146108e5578063e4a301161461071b578063e9249cc7146106eb578063e9740dd51461069c578063eb4007071461067a578063f2fde38b146105d3578063f46901ed14610560578063f57e84d514610502578063f89830e514610494578063f8b49e7214610460578063fb7f5cc214610438578063fc8b9c06146103ff578063fca8f308146103ce5763fd33d3881461034457600080fd5b346103cb5760203660031901126103cb57600435610360613a6a565b670de0b6b3a764000081116103a1576020817f1c18a912ced6b380386b05a39ae0c1326b69555d4ed8d13fd4d9c6896b0ea3799260d755604051908152a180f35b60046040517f12b019e1000000000000000000000000000000000000000000000000000000008152fd5b80fd5b50346103cb5760406103f36103ed6103e5366139e6565b929092614ca2565b91615240565b82519182526020820152f35b50346103cb5760203660031901126103cb5760406020916001600160a01b03610426613920565b16815261013f83522054604051908152f35b50346103cb57806003193601126103cb5760206001600160801b036101085416604051908152f35b50346103cb5760203660031901126103cb57602061048c610487610482613920565b61486e565b6158a5565b604051908152f35b50346103cb5760203660031901126103cb576104ae613962565b6104b6613a6a565b61013b907fffffffffffffffffffffff00ffffffffffffffffffffffffffffffffffffffff74ff0000000000000000000000000000000000000000835492151560a01b16911617905580f35b50346103cb5760203660031901126103cb5760043561051f613a6a565b670de0b6b3a764000081116103a1576020817fc6e60196bbe5909add58d5ae8a27082013670bce0855321773c33085af5c32439260cb55604051908152a180f35b50346103cb5760203660031901126103cb577ff6b59ffc88fbb27f33470b919e00b41139ee340eb349521f0cbbc1504ce29c3e60206001600160a01b036105a5613920565b6105ad613a6a565b6105b6816146f3565b16806001600160a01b031960d054161760d055604051908152a180f35b50346103cb5760203660031901126103cb576105ed613920565b6105f5613a6a565b6001600160a01b038116156106105761060d90613ac2565b80f35b608460405162461bcd60e51b815260206004820152602660248201527f4f776e61626c653a206e6577206f776e657220697320746865207a65726f206160448201527f64647265737300000000000000000000000000000000000000000000000000006064820152fd5b50346103cb57806003193601126103cb57602061013e5460801c604051908152f35b50346103cb5760203660031901126103cb576106b66139ba565b6106be613a6a565b61013e906001600160801b036fffffffffffffffffffffffffffffffff1983549260801b16911617905580f35b50346103cb5760203660031901126103cb5760206001600160a01b03610712610482613920565b16604051908152f35b50346103cb5761072a36613a1b565b82549160ff8360081c1615918280936108d8575b80156108c1575b156108575760ff1984811660011786559383610846575b5061077660ff865460081c166107718161479c565b61479c565b61077f33613ac2565b84549361079f60ff8660081c166107958161479c565b600160655561479c565b60975416609755670de0b6b3a764000091828111801561083d575b6103a15760ca5560cb5560cd55336001600160a01b031960cf54161760cf55610805575b506101087718fae27693b40000000000000000000014d1120d7b1600008282541617905580f35b61ff00191681557f7f26b83ff96e1f2b6a682f133852f6798a09c465da95921460cefb3847402498602060405160018152a1386107de565b508282116107ba565b61ffff19166101011785553861075c565b608460405162461bcd60e51b815260206004820152602e60248201527f496e697469616c697a61626c653a20636f6e747261637420697320616c72656160448201527f647920696e697469616c697a65640000000000000000000000000000000000006064820152fd5b50303b1580156107455750600160ff851614610745565b50600160ff85161061073e565b50346103cb5760203660031901126103cb57602061048c610904613920565b6153f4565b50346103cb5760403660031901126103cb57610923613920565b61092b61394c565b610933613a6a565b61093c816146f3565b610945826146f3565b61094f818361472d565b610972826001600160a01b0380911660005260d460205260406000205416151590565b610a2d576001600160a01b03809116911680835260d460205260408320826001600160a01b031982541617905560d35460d560205280604085205568010000000000000000811015610a19576109f06109d282600185940160d35561480d565b819391549060031b916001600160a01b03809116831b921b19161790565b90557f0bb5715f0f217c2fe9a0c877ea87d474380c641102f3440ee2a4c8b9d97909188380a380f35b602484634e487b7160e01b81526041600452fd5b60046040517f8991c4c4000000000000000000000000000000000000000000000000000000008152fd5b50346103cb5760203660031901126103cb577f8daa6bb00de042a7d51816fcee4a3d5c1e91a2128fd64fa1a9a38afa0d26beb560206001600160a01b03610a9c613920565b610aa4613a6a565b610aad816146f3565b16806001600160a01b031960cf54161760cf55604051908152a180f35b50346103cb5760203660031901126103cb57602061048c610ae9613920565b615552565b50346103cb57806003193601126103cb57602060cb54604051908152f35b50346103cb5760203660031901126103cb577f935ce123b6388f8dbf76890f8240a48198f1e0a884f26939aa604a46bb65b7066020600435610b4c613a6a565b8060ce55604051908152a180f35b50346103cb57806003193601126103cb57602060ff61013b5460a81c166040519015158152f35b50346103cb57806003193601126103cb5760206001600160a01b0361013b5416604051908152f35b50346103cb57806003193601126103cb57602061013c5460801c604051908152f35b50346103cb57806003193601126103cb57602060d754604051908152f35b50346103cb57806003193601126103cb57604051809160d354908183526020809301809260d383527f915c3eb987b20e1af620c1403197bf687fb7f18513b3a73fde6e78c7072c41a690835b818110610c925750505084610c4b910385613b34565b60405193838594850191818652518092526040850193925b828110610c7257505050500390f35b83516001600160a01b031685528695509381019392810192600101610c63565b82546001600160a01b031684529286019260019283019201610c35565b50346103cb5760603660031901126103cb57610cc9613920565b610cd161394c565b90610cf5610cef60443592610ce5846146c2565b610482858261472d565b9261486e565b9060ca5460cb546101085460d75492604051967fefd7af770000000000000000000000000000000000000000000000000000000088526001600160a01b03809116968760048a0152169485602489015260448801526064870152670de0b6b3a76400009182608488015260a48701526001600160801b03811660c487015260801c60e486015261010485015261012484015260408361014481734dF91022B08C4bD9B2cE54D0799E7a9Db801df2c5af4928315610eaf5784908594610e7b575b5060405193846339420b4560e11b9485825281600460209889935afa8015610e70578692610dea928992610e58575b50613fc8565b9360046040518095819382525afa918215610e4d5790610e13929160409692610e1e5750613fc8565b918351928352820152f35b610e3f919250853d8711610e46575b610e378183613b34565b810190613b56565b9038610de4565b503d610e2d565b6040513d87823e3d90fd5b610e3f919250843d8611610e4657610e378183613b34565b6040513d89823e3d90fd5b9050610ea091935060403d604011610ea8575b610e988183613b34565b810190614002565b929038610db5565b503d610e8e565b6040513d86823e3d90fd5b506101203660031901126103cb57610ed0613920565b90610ed961394c565b906001600160a01b0360c4351660c4350361126357610ef6613bce565b610efe613b7e565b6064351561137457610f0f83614678565b610f1a60c4356146f3565b610f238361486e565b91610f446064356001600160a01b038516336001600160a01b038816613c23565b6040516339420b4560e11b81526020816004816001600160a01b0388165afa9081156113695790610f7f91849161134a575b50606435613f82565b9260ff61013b5460a81c16156113205760ca5461013c546101085460408051630ef87a7960e11b81526001600160a01b0386166004820152602481018990526044810194909452670de0b6b3a76400006064850152608092831c60848501526001600160801b0380831660a48601529190921c60c4840152919591908660e481734dF91022B08C4bD9B2cE54D0799E7a9Db801df2c5af4918215610e4d57859686936112f7575b508261103d916110388960843561476b565b614018565b6001600160a01b0384163b156112f3576040519062b64f3d60e51b825260048201528581602481836001600160a01b0389165af180156112e8579086916112d0575b505061108a8661460b565b61013d906fffffffffffffffffffffffffffffffff19836110af845493828516614025565b1691161781556001600160a01b038416865260d2602052604086206110d584825461404e565b90555490806110ed8161013e54168460801c90614025565b169116116112a657841561127c5760206001600160a01b03926004604051809581936339420b4560e11b8352165afa918215610eaf5760209285949261113c926111f99792610e1e5750613fc8565b6040805160643581526020810183905290810187905290966001600160a01b03169033907f8900881feb21943c006d040b3a8510f7780104f915ac29f448cdaf220007887f90606090a36001600160a01b0361013b54166040518080968194637b91993f60e01b8352610104359060e4359060c435908c60a4359160443590600489019360c09591929897969360e08601996001600160a01b03809516875260208701526040860152606085015216608083015260a08201520152565b039134905af19081156112705790611237575b61123391506001606555604051938493846040919493926060820195825260208201520152565b0390f35b506020813d602011611268575b8161125160209383613b34565b8101031261126357611233905161120c565b600080fd5b3d9150611244565b604051903d90823e3d90fd5b60046040517fa4735bc8000000000000000000000000000000000000000000000000000000008152fd5b60046040517f8c68dbbe000000000000000000000000000000000000000000000000000000008152fd5b6112d990613b0a565b6112e457843861107f565b8480fd5b6040513d88823e3d90fd5b8580fd5b61103d975061131691935060403d604011610ea857610e988183613b34565b9690969290611026565b60046040517f7a44a0f5000000000000000000000000000000000000000000000000000000008152fd5b611363915060203d602011610e4657610e378183613b34565b38610f76565b6040513d85823e3d90fd5b60046040517fb483c10f000000000000000000000000000000000000000000000000000000008152fd5b50346103cb5760203660031901126103cb576004356113bb613a6a565b670de0b6b3a764000081116103a1576020817f294c562dcfcd9be941287844539aeba4ae641cd1fc9a2883337c6b2e87cbd98a9260ca55604051908152a180f35b50346103cb5760203660031901126103cb57611416613920565b61141e61485a565b6001600160a01b03811680835260c960205260ff6040842054161561149857825260c960209081526040808420805460ff1916905580516001600160a01b03909316835233918301919091527fdb198487a4c70aa000c3b1020f52688b4b86d3ebcedc84a793e03ed3b480902c9190819081015b0390a180f35b60046040517f855b7373000000000000000000000000000000000000000000000000000000008152fd5b50346103cb576114d136613971565b6114e095919395949294613bce565b6114e8613b7e565b6114f2838361472d565b85156113745761150a90611505856146f3565b6148b3565b61151381614678565b61151c8161486e565b926115268361486e565b90604051956339420b4560e11b8088526020886004816001600160a01b0388165afa9788156116be576000986116e9575b506001600160a01b038716966040519182526020826004818b5afa9283156116be576115b66115af6115bc938c93898f97866115a36115cd9b6115a9936000916116ca575b508b613f82565b93613f82565b92614af1565b9b90613fc8565b99613fc8565b96336001600160a01b038716613c23565b6001600160a01b0382163b156112635760006040518093639e79eaa560e01b825281836001600160a01b038261161d8d8960048401602090939291936001600160a01b0360408201951681520152565b0393165af19081156116be5761169b868860409a7f7fa01e8d24e5a6ec56e00b4ff8ee7ed97e7650a7846ec494bbaa5d65f1be9ea4966001600160a01b03966116af575b508b51958695169833988691959493909260809360a08401976001600160a01b038092168552166020840152604083015260608201520152565b0390a3600160655582519182526020820152f35b6116b890613b0a565b8c611661565b6040513d6000823e3d90fd5b6116e3915060203d602011610e4657610e378183613b34565b3861159c565b61170391985060203d602011610e4657610e378183613b34565b9689611557565b50346103cb5760406103f361171e36613a31565b9261172a929192613b7e565b611732614663565b6140c0565b50346103cb5760603660031901126103cb57611751613920565b602435906044356001600160a01b038082169182810361126357611773613a6a565b61177c8461486e565b9061178685615552565b86116103a15782879216906040516339420b4560e11b8152602081600481865afa8015610eaf576117bf918591611868575b5088613fc8565b823b1561186457604051639e79eaa560e01b81526001600160a01b0392909216600483015260248201529082908290604490829084905af180156118595761183f575b50927f5f22a22ebe30686f71d42a70ccacf870a335e22ee2ac6d257af1b2551582eda692856060936040519316835260208301526040820152a180f35b61184c9094939294613b0a565b6112e45790918438611802565b6040513d84823e3d90fd5b8380fd5b611880915060203d8111610e4657610e378183613b34565b386117b8565b50346103cb57806003193601126103cb5760206001600160a01b0360cf5416604051908152f35b50346103cb5760403660031901126103cb576118c7613920565b6118d760243591610482836146c2565b60ca5460d754604051639181079560e01b81526001600160a01b038416600482015260248101949094526044840191909152670de0b6b3a76400006064840152608483015260608260a481734dF91022B08C4bD9B2cE54D0799E7a9Db801df2c5af4908115611369576001600160a01b0392849261199d575b506020906004604051809581936339420b4560e11b8352165afa918215611369579061048c9291602094926119855750613fc8565b610e3f919250843d8111610e4657610e378183613b34565b60209192506119c29060603d81116119cb575b6119ba8183613b34565b810190614ad6565b50509190611950565b503d6119b0565b50346103cb5760403660031901126103cb576119ef610482613920565b60ff61013b5460a81c1615611320576040516339420b4560e11b808252602092916001600160a01b038316908481600481855afa80156112e857611a3d918791611b75575b50602435613f82565b60ca5461013c546101085460408051630ef87a7960e11b81526001600160a01b0398909816600489015260248801949094526044870192909252670de0b6b3a76400006064870152608090811c60848701526001600160801b0380831660a488015291901c60c486015292908460e481734dF91022B08C4bD9B2cE54D0799E7a9Db801df2c5af49081156112e857859087958893611b4e575b5060046040518095819382525afa9182156112e857611afd9394959692611b365750613fc8565b9061013d5490611b23611b128583851661404e565b928261013e54169060801c90614025565b16106112a6576040928351928352820152f35b610e3f919250863d8811610e4657610e378183613b34565b909250611b6b91955060403d604011610ea857610e988183613b34565b9490949138611ad6565b611b8c9150863d8811610e4657610e378183613b34565b38611a34565b50346103cb57806003193601126103cb5760206001600160a01b0360335416604051908152f35b50346103cb57806003193601126103cb57611c2c906020611bd86156a9565b611be660ca9392935461459d565b6040517fd7454c53000000000000000000000000000000000000000000000000000000008152600481018590526024810192909252604482015293849081906064820190565b0381734dF91022B08C4bD9B2cE54D0799E7a9Db801df2c5af49182156112705791611c62575b6040809350519182526020820152f35b90506020823d8211611c8e575b81611c7c60209383613b34565b81010312611263576040915190611c52565b3d9150611c6f565b50346103cb576040611cc8611caa36613a31565b92611cb6929192613bce565b611cbe613b7e565b611732848361405b565b600160655582519182526020820152f35b50346103cb57806003193601126103cb57611cf261485a565b611cfa613b7e565b600160ff1960975416176097557f62e78cea01bee320cd4e420270b5ea74000d11b0c9f74754ebdbfc544b05a2586020604051338152a180f35b50346103cb57806003193601126103cb57602060cd54604051908152f35b50346103cb5760403660031901126103cb57611d6c613920565b611d786024359161486e565b60ff61013b5460a01c1615611ef05760ca5461013c54604080516367146f2960e01b8152600481018690526001600160a01b03851660248201526044810193909352670de0b6b3a764000060648401526001600160801b039182166084840152909391908160a481734dF91022B08C4bD9B2cE54D0799E7a9Db801df2c5af4928315610e4d5785918694611ebf575b509060206001600160a01b03926004604051809581936339420b4560e11b8352165afa9182156112e857611e4f9394959692611e9b575b5081611e4991613fc8565b93613fc8565b92611e75611e6461013d54938460801c61404e565b928261013e5460801c911690614025565b1610611e8a5760409182519182526020820152f35b60046040516332a9eed360e11b8152fd5b611e49919250611eb89060203d8111610e4657610e378183613b34565b9190611e3e565b60209194506001600160a01b039250611ee69060403d604011610ea857610e988183613b34565b9490925090611e07565b6004604051633b26060360e11b8152fd5b50346103cb5760203660031901126103cb57611f1b6139ba565b611f23613a6a565b6001600160801b0361013e91166fffffffffffffffffffffffffffffffff1982541617905580f35b50346103cb57806003193601126103cb57602060ff61013b5460a01c166040519015158152f35b50346103cb57806003193601126103cb5760206101085460801c604051908152f35b50346103cb57806003193601126103cb57611fad613a6a565b60006001600160a01b036033546001600160a01b03198116603355167f8be0079c531659141344cd1fd0a4f28419497f9722a3daafe3b4186f6b6457e08280a380f35b50346103cb57806003193601126103cb57602060cc54604051908152f35b50346103cb57806003193601126103cb576120276156a9565b919061204361013d546001600160801b0381169060801c6144e9565b9060ca5491670de0b6b3a76400009083820180831161209257602093611c2c9793612085612080611be69561207a61208c9661459d565b9061455f565b614502565b0590614526565b9361459d565b602486634e487b7160e01b81526011600452fd5b50346103cb5760c03660031901126103cb576120c0613920565b602435604435916120cf613936565b9260a43590811591821503611263576120e6613bce565b6120ee613b7e565b8315611374576120fd856146f3565b6121086084356148b3565b61211183614678565b61211a8361486e565b6001600160a01b039283821690612135878333888a16613c23565b15612204576020600491604051928380926339420b4560e11b82525afa9081156121f9579261219c9261219689937ff5dd9317b9e63ac316ce44acc85f670b54b339cfa3e9076e1dd55065b922314b979660209c916121dc575b5089613f82565b906148e5565b945b6121cc8660405193849316963396846040919493926001600160a01b03606083019616825260208201520152565b0390a36001606555604051908152f35b6121f391508c3d8111610e4657610e378183613b34565b3861218f565b6040513d8a823e3d90fd5b906122178460d1999498959954166146f3565b604051966339420b4560e11b88526020978881600481875afa908115610e4d5761225593929161224e9187916123ef575089613f82565b30926148e5565b60d1546040517f095ea7b30000000000000000000000000000000000000000000000000000000081529089166001600160a01b0316600482015260248101829052909690818160448187875af18015610eaf576123c2575b508760d1541691604051907faf929a8000000000000000000000000000000000000000000000000000000000825260048201528181602481865afa918215610eaf578492612394575b5050813b156123905782916064839260405194859384927f90210d7e00000000000000000000000000000000000000000000000000000000845260048401528b60248401528c891660448401525af180156118595761237c575b50506020947ff5dd9317b9e63ac316ce44acc85f670b54b339cfa3e9076e1dd55065b922314b9161219e565b6123868291613b0a565b6103cb5780612350565b8280fd5b90809250813d83116123bb575b6123ab8183613b34565b81010312611263575138806122f6565b503d6123a1565b6123e190823d84116123e8575b6123d98183613b34565b810190613dd2565b50386122ad565b503d6123cf565b6121f391508b3d8d11610e4657610e378183613b34565b50346103cb5760403660031901126103cb57612423610482613920565b6040516339420b4560e11b81526020816004816001600160a01b0386165afa9081156113695760409161245f9185916124ee5750602435613f82565b60ca54825163176f358b60e21b81526001600160a01b0394909416600485015260248401919091526044830152670de0b6b3a7640000606483015281608481734dF91022B08C4bD9B2cE54D0799E7a9Db801df2c5af490811561185957602092916124ce575b50604051908152f35b6124e7915060403d604011610ea857610e988183613b34565b50386124c5565b611b8c915060203d8111610e4657610e378183613b34565b50346103cb5760403660031901126103cb576125206139ba565b6125286139d0565b90612531613a6a565b6001600160801b0380921691670de0b6b3a7640000808410918261257e575b5050156123905761013c91836fffffffffffffffffffffffffffffffff1984549360801b1692161717905580f35b83161090503880612550565b50346103cb57806003193601126103cb57602060ce54604051908152f35b50346103cb57806003193601126103cb57602060ff609754166040519015158152f35b50346103cb5760403660031901126103cb576004357f223d3a15e21bdf204d6fa4a56f4ee7326dd6096a5c04ab76d3f5b53e31deadcc60206001600160a01b0361261361394c565b61261b614663565b169283855261013f82526040852061263482825461404e565b9055604051908152a280f35b50346103cb5760203660031901126103cb5760ff60406020926001600160a01b03612669613920565b16815260c984522054166040519015158152f35b50346103cb57806003193601126103cb5760206001600160801b0361013c5416604051908152f35b5060e03660031901126103cb576126ba613920565b60443591906001600160a01b039060843582811681036112635761275d946020936126e3613bce565b6126eb613b7e565b6126f5838361405b565b61013b54169160405196879485938493637b91993f60e01b855260c4359260a435926064359160243590600489019360c09591929897969360e08601996001600160a01b03809516875260208701526040860152606085015216608083015260a08201520152565b039134905af19081156112705790612780575b6020906001606555604051908152f35b506020813d82116127aa575b8161279960209383613b34565b810103126112635760209051612770565b3d915061278c565b50346103cb576127c136613a1b565b906127ca613a6a565b670de0b6b3a76400006127dd828461404e565b116103a157825b60d354811015612839578061282e6104876001600160a01b036128096128349561480d565b90549060031b1c166001600160a01b0380911660005260d46020526040600020541690565b5061569a565b6127e4565b506040907f032dc6a2d839eb179729a55633fdf1c41a1fc4739394154117005db2b354b9b5928060cc558160cd5582519182526020820152a180f35b50346103cb5760406103f36103ed366139e6565b50346103cb57806003193601126103cb5760206001600160801b0361013d5416604051908152f35b50346103cb57806003193601126103cb57602061013d5460801c604051908152f35b50346103cb5760403660031901126103cb576128ed6139ba565b6128f56139d0565b6128fd613a6a565b6001600160801b0380921691670de0b6b3a76400008310908115612948575b506103a15761010891836fffffffffffffffffffffffffffffffff1984549360801b1692161717905580f35b9050811682113861291c565b50346103cb5760203660031901126103cb5761296e613920565b612976613a6a565b612999816001600160a01b0380911660005260d460205260406000205416151590565b15612a8c576001600160a01b038091169081835260d4602052604083208054906001600160a01b03198216905560d5602052604084205460d3549060001991828101908111612a78576109d2856129f2612a179361480d565b90549060031b1c169283895260d56020528060408a205587895288604081205561480d565b905560d3548015612a645701612a2c8161480d565b8482549160031b1b1916905560d35516907f0fa1e4606af435f32f05b3804033d2933e691fab32ee74d2db6fa82d2741f1ea8380a380f35b602486634e487b7160e01b81526031600452fd5b602487634e487b7160e01b81526011600452fd5b60046040517fecb004d4000000000000000000000000000000000000000000000000000000008152fd5b50346103cb57806003193601126103cb57612acf61485a565b60975460ff811615612b0f5760ff19166097557f5db9ee0a495bf2e6ff9c91a7834c1ba4fdd244a5e8aa4e537bd38aeae4b073aa6020604051338152a180f35b606460405162461bcd60e51b815260206004820152601460248201527f5061757361626c653a206e6f74207061757365640000000000000000000000006044820152fd5b50346103cb57806003193601126103cb5760206001600160a01b0360d15416604051908152f35b50346103cb5760203660031901126103cb57612b94613920565b612b9c61485a565b612bbf816001600160a01b0380911660005260d460205260406000205416151590565b15612a8c5761149281612bf27fdcb65c0553aaa433aadd180404ff195259c48f78aa50f877ebcb4bb215129a4e93614678565b6001600160a01b031680845260c960209081526040808620805460ff191660011790558051928352339183019190915290918291820190565b50346103cb57806003193601126103cb5760206001600160801b0361013e5416604051908152f35b50346103cb57612c99612c6536613971565b612c759691969593949295613bce565b612c7d613b7e565b612c86876146f3565b612c8f856146c2565b611505838561472d565b612ca282614678565b612cab8261486e565b94612cb58261486e565b91612ccb856001600160a01b0389163381613c23565b600096612cd781615862565b60ca5460d754604051639181079560e01b81526001600160a01b0384166004820152602481018990526044810192909252670de0b6b3a76400006064830152608482015260608160a481734dF91022B08C4bD9B2cE54D0799E7a9Db801df2c5af490811561320a5789809181936131e6575b506001600160a01b0384163b156103cb57604051632770a7eb60e21b81526001600160a01b0385166004820152602481018a9052818180604481010381836001600160a01b038a165af18015611859576131d7575b5090612daa838c61404e565b6001600160a01b0385163b1561239057604051906313f3df3160e31b825260048201528281602481836001600160a01b038a165af18015611369579083916131c3575b50506001600160a01b0384163b156131bf576040519063d8b8785360e01b825260048201528181602481836001600160a01b0389165af18015611859579082916131ab575b505060405163705727b560e01b81526020816004816001600160a01b0388165afa90811561185957906001600160781b0391839161318c575b50161515806130bc575b6130ab5781613082575b5050604051966339420b4560e11b88526020886004816001600160a01b0389165afa9788156116be57600098613051575b5087612ed4612ecd612ec583612eda95613f82565b8c8987614af1565b9a90613fc8565b98613fc8565b906001600160a01b0385163b1561126357604051639e79eaa560e01b81526001600160a01b038581166004830152602482018a90529095600091879160449183918591165af19081156116be576001600160a01b0395602092613042575b506004604051809781936339420b4560e11b8352165afa9081156116be576001600160a01b03612f976121cc9360209b7f7fa01e8d24e5a6ec56e00b4ff8ee7ed97e7650a7846ec494bbaa5d65f1be9ea4986000926130235750613fc8565b941680977ffb80d861da582b723be2d19507ce3e03851820c464abea89156ec77e089b1ad960405180612fe733948a8d846040919493926001600160a01b03606083019616825260208201520152565b0390a38760405194859433988691959493909260809360a08401976001600160a01b038092168552166020840152604083015260608201520152565b61303b9192508d3d8f11610e4657610e378183613b34565b908d610de4565b61304b90613b0a565b8a612f38565b612ec5985090612ed4612ecd613078612eda9460203d602011610e4657610e378183613b34565b9a50505090612eb0565b60406130a2916001600160a01b038516815260d26020522091825461404e565b90558880612e7f565b60046040516316fde3bd60e21b8152fd5b5060405163961be39160e01b81526020816004816001600160a01b0388165afa90811561185957829161316d575b5060405163705727b560e01b81526020816004816001600160a01b0389165afa90811561136957916001600160781b038061313893662386f26fc1000095879161313e575b501691166144b8565b10612e75565b613160915060203d602011613166575b6131588183613b34565b810190614499565b3861312f565b503d61314e565b613186915060203d602011613166576131588183613b34565b8b6130ea565b6131a5915060203d602011613166576131588183613b34565b8c612e6b565b6131b490613b0a565b6103cb57808b612e32565b5080fd5b6131cc90613b0a565b6131bf57818c612ded565b6131e090613b0a565b8b612d9e565b91509950613202915060603d81116119cb576119ba8183613b34565b91998b612d49565b6040513d8b823e3d90fd5b50346103cb5760203660031901126103cb576004356001600160a01b0381168091036131bf57613243613a6a565b61013b906001600160a01b031982541617905580f35b50346103cb5760a03660031901126103cb57613273613920565b61327b613936565b613283613bce565b61328b613b7e565b6132966024356146c2565b61329f816146f3565b6132aa6084356148b3565b6132b38261486e565b916132cb6024356001600160a01b0385163381613c23565b6040516339420b4560e11b81526020816004816001600160a01b0388165afa908115610e4d5785916136ee575b5061330581604435613f82565b9061330f85615862565b60ca5460d754604051639181079560e01b81526001600160a01b038816600482015260248035908201526044810192909252670de0b6b3a7640000606483015260848201526000929060608160a481734dF91022B08C4bD9B2cE54D0799E7a9Db801df2c5af4908115610eaf578492859186936136c3575b50836133929161476b565b6001600160a01b0388163b156112e457604051632770a7eb60e21b81526001600160a01b03891660048201819052602480359083015286908290604490829084905af180156112e8576136b0575b506133eb828461404e565b6001600160a01b0389163b156112f3576040516313f3df3160e31b815260048101919091528581602481836001600160a01b038e165af180156112e85790869161369c575b50506001600160a01b0388163b156112e4576040519063d8b8785360e01b825260048201528481602481836001600160a01b038d165af18015610e4d57908591613688575b505060405163705727b560e01b81526020816004816001600160a01b038c165afa908115610e4d57906001600160781b03918691613669575b50161515806135c9575b6130ab576134cd93816135a0575b5050613fc8565b926001600160a01b0381163b156112e457846040518092639e79eaa560e01b825281836001600160a01b038261351d8b8b60048401602090939291936001600160a01b0360408201951681520152565b0393165af18015610e4d5761358c575b50602093507ffb80d861da582b723be2d19507ce3e03851820c464abea89156ec77e089b1ad96001600160a01b03604051931692806121cc33948760243591846040919493926001600160a01b03606083019616825260208201520152565b6135968591613b0a565b611864578361352d565b60406135c0916001600160a01b038a16815260d26020522091825461404e565b905538806134c6565b5060405163961be39160e01b81526020816004816001600160a01b038c165afa908115610e4d57859161364a575b5060405163705727b560e01b81526020816004816001600160a01b038d165afa9081156112e857916001600160781b038061364493662386f26fc10000958a9161313e57501691166144b8565b106134b8565b613663915060203d602011613166576131588183613b34565b386135f7565b613682915060203d602011613166576131588183613b34565b386134ae565b61369190613b0a565b611864578338613475565b6136a590613b0a565b6112e4578438613430565b6136bc90959195613b0a565b93386133e0565b90925061339293506136e3915060603d81116119cb576119ba8183613b34565b919350909183613387565b613707915060203d602011610e4657610e378183613b34565b386132f8565b50346103cb5760203660031901126103cb57613727613962565b61372f613a6a565b61013b907fffffffffffffffffffff00ffffffffffffffffffffffffffffffffffffffffff75ff000000000000000000000000000000000000000000835492151560a81b16911617905580f35b50346103cb5760403660031901126103cb57613796613920565b906024356137a261485a565b6137ab8361486e565b6137b484615552565b82116103a1576001600160a01b0316803b156123905782809160246040518094819362b64f3d60e51b83528760048401525af1801561136957613839575b50604080516001600160a01b039094168452602084019190915290917f4941e18a2bcbb0f9fa0081238f26793a8ad8c202b913ae8bf5f7e523f68ff1379181908101611492565b916138647f4941e18a2bcbb0f9fa0081238f26793a8ad8c202b913ae8bf5f7e523f68ff13793613b0a565b916137f2565b50346103cb5760203660031901126103cb577ffeb9010869b6ccec4557ddbbce947afeace5efc66cdff52c5e533c09336a8f2d60206001600160a01b036138af613920565b6138b7613a6a565b6138c0816146f3565b16806001600160a01b031960d154161760d155604051908152a180f35b50346103cb57806003193601126103cb5760206001600160a01b0360d05416604051908152f35b9050346131bf57816003193601126131bf5760209060ca548152f35b600435906001600160a01b038216820361126357565b606435906001600160a01b038216820361126357565b602435906001600160a01b038216820361126357565b60043590811515820361126357565b60c0906003190112611263576001600160a01b03600435818116810361126357916024358281168103611263579160443591606435916084359081168103611263579060a43590565b600435906001600160801b038216820361126357565b602435906001600160801b038216820361126357565b6060906003190112611263576001600160a01b0390600435828116810361126357916024359081168103611263579060443590565b6040906003190112611263576004359060243590565b6080906003190112611263576001600160a01b039060043582811681036112635791602435916044359160643590811681036112635790565b6001600160a01b03603354163303613a7e57565b606460405162461bcd60e51b815260206004820152602060248201527f4f776e61626c653a2063616c6c6572206973206e6f7420746865206f776e65726044820152fd5b603354906001600160a01b0380911691826001600160a01b0319821617603355167f8be0079c531659141344cd1fd0a4f28419497f9722a3daafe3b4186f6b6457e0600080a3565b67ffffffffffffffff8111613b1e57604052565b634e487b7160e01b600052604160045260246000fd5b90601f8019910116810190811067ffffffffffffffff821117613b1e57604052565b90816020910312611263575160ff811681036112635790565b90816020910312611263575190565b60ff60975416613b8a57565b606460405162461bcd60e51b815260206004820152601060248201527f5061757361626c653a20706175736564000000000000000000000000000000006044820152fd5b600260655414613bdf576002606555565b606460405162461bcd60e51b815260206004820152601f60248201527f5265656e7472616e637947756172643a207265656e7472616e742063616c6c006044820152fd5b93929190604051602093848201927f23b872dd0000000000000000000000000000000000000000000000000000000084526001600160a01b039485809216602485015216604483015260648201526064815260a081019267ffffffffffffffff9682851088861117613b1e57169060e0810184811088821117613b1e576040528484527f5361666545524332303a206c6f772d6c6576656c2063616c6c206661696c656460c0820152600080938192519082855af1903d15613dc1573d968711613dad57613d1294959660405190613d0488601f19601f8401160183613b34565b81528093873d92013e613dea565b805190828215928315613d95575b50505015613d2b5750565b6084906040519062461bcd60e51b82526004820152602a60248201527f5361666545524332303a204552433230206f7065726174696f6e20646964206e60448201527f6f742073756363656564000000000000000000000000000000000000000000006064820152fd5b613da59350820181019101613dd2565b388281613d20565b602483634e487b7160e01b81526041600452fd5b9150613d1293949550606091613dea565b90816020910312611263575180151581036112635790565b91929015613e4b5750815115613dfe575090565b3b15613e075790565b606460405162461bcd60e51b815260206004820152601d60248201527f416464726573733a2063616c6c20746f206e6f6e2d636f6e74726163740000006044820152fd5b825190915015613e5e5750805190602001fd5b6040519062461bcd60e51b82528160208060048301528251908160248401526000935b828510613ea4575050604492506000838284010152601f80199101168101030190fd5b8481018201518686016044015293810193859350613e81565b60ff6011199116019060ff8211613ed057565b634e487b7160e01b600052601160045260246000fd5b60ff166012039060ff8211613ed057565b60ff16604d8111613ed057600a0a90565b8115613f12570490565b634e487b7160e01b600052601260045260246000fd5b81810292918115918404141715613ed057565b60ff81166012811015613f5d5750613f55613f5a91613ee6565b613ef7565b90565b601210613f6a5750600190565b613f55613f7691613ebd565b8015613f125760010490565b9060ff81166012811015613fa7575090613fa1613f55613f5a93613ee6565b90613f28565b601210613fb2575090565b90613fc2613f55613f5a93613ebd565b90613f08565b9060ff81166012811015613fe7575090613fc2613f55613f5a93613ee6565b601210613ff2575090565b90613fa1613f55613f5a93613ebd565b9190826040910312611263576020825192015190565b91908203918211613ed057565b9190916001600160801b0380809416911601918211613ed057565b9060018201809211613ed057565b91908201809211613ed057565b90614065906146f3565b8015611374573360005261013f80602052816040600020541061409657336000526020526040600020908154039055565b60046040517fdb52be33000000000000000000000000000000000000000000000000000000008152fd5b90939193600093811561127c576140d68361486e565b906001600160a01b0391828116966040918251916339420b4560e11b83528260209b8c828d60049788915afa91821561448f578d849361446a575b50508161411d91613f82565b9b60ff61013b5460a01c161561445b5760ca5461013c5487516367146f2960e01b81528781018c81526001600160a01b0390971660208801526040870192909252670de0b6b3a764000060608701526001600160801b0390811660808701529490919087908390819060a0010381734dF91022B08C4bD9B2cE54D0799E7a9Db801df2c5af49d8e15614451578492859f61441d575b508e8e6141c2856141de9461476b565b865260d283528886206141d682825461404e565b90558361404e565b8d3b156112e457848e602482938b5194859384926313f3df3160e31b84528d8401525af18015614400578792918f9161440a575b50819089519384809263961be39160e01b82525afa918215614400578e889187946143df575b5082908a519283809263705727b560e01b82525afa9182156143d55791662386f26fc10000939161427e9388926143b8575b50506001600160781b0380911691166144b8565b106143a957906142918161429793613fc8565b9c613fc8565b99803b156131bf57816142d781928e8851948580948193639e79eaa560e01b83528d8c8401602090939291936001600160a01b0360408201951681520152565b03925af1801561439f5761438b575b50506142f18661460b565b9061433361013d92826fffffffffffffffffffffffffffffffff1961431b8654938460801c614025565b60801b16911690811780945561013e5460801c614025565b169060801c1161437d575051928352602083018790526040830186905281169216907f506448513266ee822309810e439a9705992c367f989d959d01d94303cf5eed9c90606090a3565b90516332a9eed360e11b8152fd5b6143958291613b0a565b6103cb57806142e6565b85513d84823e3d90fd5b8486516316fde3bd60e21b8152fd5b6143ce9250803d10613166576131588183613b34565b388061426a565b89513d88823e3d90fd5b839194506143f990823d8411613166576131588183613b34565b9390614238565b88513d87823e3d90fd5b95614416839297613b0a565b9590614212565b9092508d9e50873d891161444a575b6144368183613b34565b810161444191614002565b9e5091826141b2565b503d61442c565b87513d86823e3d90fd5b848651633b26060360e11b8152fd5b61411d929350908161448792903d10610e4657610e378183613b34565b91908d614111565b86513d85823e3d90fd5b9081602091031261126357516001600160781b03811681036112635790565b90670de0b6b3a764000091828102928184041490151715613ed0576144e4613f5a928260011c9061404e565b613f08565b81810392916000138015828513169184121617613ed057565b906706f05b59d3b200009160008382019384129112908015821691151617613ed057565b91909160008382019384129112908015821691151617613ed057565b90670de0b6b3a764000091828102928184051490151715613ed057565b818102929160008212600160ff1b821416613ed0578184051490151715613ed057565b8115613f1257600160ff1b8114600019831416613ed0570590565b7f7fffffffffffffffffffffffffffffffffffffffffffffffffffffffffffffff81116145c75790565b606460405162461bcd60e51b815260206004820152601660248201527f76616c7565206d75737420626520706f736974697665000000000000000000006044820152fd5b6001600160801b039081811161461f571690565b606460405162461bcd60e51b815260206004820152601060248201527f75696e74313238206f766572666c6f77000000000000000000000000000000006044820152fd5b6001600160a01b0361013b541633036130ab57565b6001600160a01b031660005260c960205260ff6040600020541661469857565b60046040517f8654830a000000000000000000000000000000000000000000000000000000008152fd5b156146c957565b60046040517f3f3835e7000000000000000000000000000000000000000000000000000000008152fd5b6001600160a01b03161561470357565b60046040517f0bd3e3ed000000000000000000000000000000000000000000000000000000008152fd5b6001600160a01b0390811691161461474157565b60046040517feeb7911f000000000000000000000000000000000000000000000000000000008152fd5b1161477257565b60046040517ff512a720000000000000000000000000000000000000000000000000000000008152fd5b156147a357565b608460405162461bcd60e51b815260206004820152602b60248201527f496e697469616c697a61626c653a20636f6e7472616374206973206e6f74206960448201527f6e697469616c697a696e670000000000000000000000000000000000000000006064820152fd5b60d3548110156148445760d36000527f915c3eb987b20e1af620c1403197bf687fb7f18513b3a73fde6e78c7072c41a60190600090565b634e487b7160e01b600052603260045260246000fd5b6001600160a01b0360cf541633036130ab57565b614891816001600160a01b0380911660005260d460205260406000205416151590565b15612a8c576001600160a01b0380911660005260d46020526040600020541690565b42116148bb57565b60046040517f549b6335000000000000000000000000000000000000000000000000000000008152fd5b91939290614944906148f684615862565b60ca54926000946040809581518096819263176f358b60e21b83528786600485016060919493670de0b6b3a7640000936001600160a01b036080840197168352602083015260408201520152565b0381734dF91022B08C4bD9B2cE54D0799E7a9Db801df2c5af4908115614a7f5786948792614aaa575b506001600160a01b039061498b86809b614986826146c2565b61476b565b1692833b15614aa65785519062b64f3d60e51b82526004820152868160248183885af18015614a9c57614a89575b50823b156112f35784519063283c3d8160e21b82526004820152858160248183875af18015614a7f57908691614a6b575b5050813b156112e45783517f40c10f190000000000000000000000000000000000000000000000000000000081526001600160a01b03919091166004820152602481019290925290919083908390604490829084905af1908115614a625750614a51575050565b614a5b8291613b0a565b6103cb5750565b513d84823e3d90fd5b614a7490613b0a565b6112e45784386149ea565b85513d88823e3d90fd5b614a9590969196613b0a565b94386149b9565b86513d89823e3d90fd5b8680fd5b6001600160a01b039550614acc919250863d8811610ea857610e988183613b34565b949094919061496d565b90816060910312611263578051916040602083015192015190565b90929391614b08614b018261459d565b8584614cb3565b9485614b1583809961476b565b6000926001600160a01b038093169485855260209360d28552604097888720614b3f86825461404e565b90551690813b156112f3578591602483928a51948593849262b64f3d60e51b845260048401525af18015614c9857614c81575b5090614b7d9161404e565b833b15612390578451906313f3df3160e31b82526004820152828160248183885af18015614c6357908391614c6d575b505083519263961be39160e01b84528184600481845afa938415614c63578394614c3d575b50908060049286519384809263705727b560e01b82525afa928315614c325791614c1a9391662386f26fc100009593926143b85750506001600160781b0380911691166144b8565b10614c225750565b600490516316fde3bd60e21b8152fd5b8551903d90823e3d90fd5b8291945091614c5a600493823d8411613166576131588183613b34565b94919250614bd2565b85513d85823e3d90fd5b614c7690613b0a565b6131bf578138614bad565b93614c90614b7d939295613b0a565b939091614b72565b87513d87823e3d90fd5b600160ff1b8114613ed05760000390565b9291614cc081838661518a565b9460009386908390868612614e57575050506001600160a01b031660405163961be39160e01b81526020938482600481865afa918215614e0f5785908793614e37575b50600492936040519384809263705727b560e01b82525afa8015614e0f57849386938892614e14575b50610108546040517f2f6599bb0000000000000000000000000000000000000000000000000000000081526001600160781b039283166004820152929091166024830152604482019290925260648101939093526001600160801b038116608484015260801c60a4830152818060c481015b0381734dF91022B08C4bD9B2cE54D0799E7a9Db801df2c5af4928315614e0f57613f5a9493614dda575b505081614dd491614018565b9361404e565b614dd49293509081614e0092903d10614e08575b614df88183613b34565b810190613b6f565b919038614dc8565b503d614dee565b6116be565b614d9e919250614e3090853d8711613166576131588183613b34565b9190614d2c565b60049350614e5190823d8411613166576131588183613b34565b92614d03565b6001600160a01b03919692985080945094929416906040519063961be39160e01b825260208083600481875afa928315614e0f578293614f87575b50806004916001600160781b03809516956040519384809263705727b560e01b82525afa928315614e0f5792614f6a575b505016614ed981614ed4888561404e565b6144b8565b6101085492906001600160801b03841610614ef8575050505050509190565b9091939550614f09929497506144b8565b9060801c1115614f4057614f1f614f2691614ca2565b8483614fa9565b90614f3b9193614f358561459d565b91614cb3565b905090565b60046040517f6158a9f8000000000000000000000000000000000000000000000000000000008152fd5b614f809250803d10613166576131588183613b34565b3880614ec3565b819350614fa2906004923d8611613166576131588183613b34565b9290614e92565b6040516339420b4560e11b81529193926020926001600160a01b038316908481600481855afa908115614e0f57600091615143575b50614fe881613f3b565b946040519263705727b560e01b84528184600481845afa8015614e0f57600494600091615126575b50826150416150316150256101085460801c90565b6001600160801b031690565b6001600160781b03809416615160565b926040519687809263961be39160e01b82525afa8015614e0f576150799561507494600092615109575b50501690614018565b613fc8565b916001958261509a61509361508e8888613f28565b61459d565b8385614cb3565b5010614f405791905b8387106150b857505050613f5a929350613f28565b9091926150ce6150c8828961404e565b60011c90565b90836150e76150e061508e8986613f28565b8786614cb3565b50106150f75750925b91906150a3565b93965061510390614040565b956150f0565b61511f9250803d10613166576131588183613b34565b388061506b565b61513d9150833d8511613166576131588183613b34565b38615010565b61515a9150853d8711610e4657610e378183613b34565b38614fde565b9061516a91613f28565b6706f05b59d3b200008101809111613ed057670de0b6b3a7640000900490565b90929160ca549060cb5492604051957fe02a44c60000000000000000000000000000000000000000000000000000000087526001600160a01b03809216600488015216602486015260448501526064840152670de0b6b3a7640000608484015260a483015260408260c481734dF91022B08C4bD9B2cE54D0799E7a9Db801df2c5af49182156116be57600090819361522157509190565b905061523c91925060403d8111610ea857610e988183613b34565b9091565b9290919261524e838261472d565b831561137457610cef6152609161486e565b916001600160a01b03938482166040958651926339420b4560e11b908185526020958686600481885afa9586156153a95789966152b1936152a99260009261538a575b506153b4565b988991614cb3565b9092819516938951938385528785600481895afa94851561537f5788956000926152e19284926153675750613fc8565b991261533b575050600488518094819382525afa92831561533057613f5a94959650600093615311575050613fc8565b615328929350803d10610e4657610e378183613b34565b9038806134c6565b86513d6000823e3d90fd5b93509350600488518094819382525afa92831561533057613f5a94959650600093615311575050613fc8565b610e3f919250883d8a11610e4657610e378183613b34565b8b513d6000823e3d90fd5b6153a29192508a3d8c11610e4657610e378183613b34565b90386152a3565b8a513d6000823e3d90fd5b9060ff811660128110156153d357509061207a613f55613f5a93613ee6565b6012106153de575090565b906153ee613f55613f5a93613ebd565b90614582565b6154056001600160a01b039161486e565b1660408051917f18160ddd00000000000000000000000000000000000000000000000000000000928381526020908181600481865afa90811561550a57600091615525575b50156155155782519363705727b560e01b85528185600481865afa94851561550a576000956154e9575b508190600485518095819382525afa9283156154df57506000926154a7575b50506001600160781b03613f5a92166144b8565b81819392933d83116154d8575b6154be8183613b34565b810103126103cb5750516001600160781b03613f5a615493565b503d6154b4565b513d6000823e3d90fd5b8291955061550390823d8411613166576131588183613b34565b9490615474565b84513d6000823e3d90fd5b50505050670de0b6b3a764000090565b908282813d831161554b575b61553b8183613b34565b810103126103cb5750513861544a565b503d615531565b6155636001600160a01b039161486e565b169060409182517f99c91a640000000000000000000000000000000000000000000000000000000081526020908181600481865afa90811561568f57600091615662575b508451906339420b4560e11b82528282600481875afa908115615330576155d692600092615643575b50613f82565b845163961be39160e01b81528281600481875afa9081156153305760d2926001600160781b03613f5a9798959361561793600091615626575b501690614018565b93600052526000205490614018565b61563d9150853d8711613166576131588183613b34565b3861560f565b61565b919250843d8611610e4657610e378183613b34565b90386155d0565b908282813d8311615688575b6156788183613b34565b810103126103cb575051386155a7565b503d61566e565b85513d6000823e3d90fd5b6000198114613ed05760010190565b600090600090816156bb60ca5461459d565b60d35482915b8184106156ce5750505050565b9091929561570f6156de8861480d565b91906001600160a01b03928391549060031b1c166001600160a01b0380911660005260d46020526040600020541690565b16604080519163961be39160e01b8352602060049181858481845afa948515615858578995615837575b50819084519384809263705727b560e01b82525afa92831561582e57508792615811575b50506001600160781b03809116918215615804571661577b90614542565b9681806002998a820561578d91614526565b9061579791614582565b9182916157a391614526565b986157ad86614542565b9082056157b991614526565b906157c391614582565b6157cc916144e9565b6157d59161455f565b6157de90614502565b670de0b6b3a764000090056157f291614526565b956157fc9061569a565b9291906156c1565b505050956157fc9061569a565b6158279250803d10613166576131588183613b34565b388061575d565b513d89823e3d90fd5b8291955061585190823d8411613166576131588183613b34565b9490615739565b84513d8b823e3d90fd5b6001600160a01b03811660005260d26020526040600020548015908115615899575b501561588d5750565b615896906158a5565b50565b905060ce541138615884565b9060006001600160a01b0380931680825260d260205260409081832054948515615ad85760cd5490670de0b6b3a7640000918203828111612092576158f06158f69160cc5490614018565b88615160565b9081615a31575b505061590b60cd5487615160565b9081615920575b5050825260d2602052812055565b60ca549084519163176f358b60e21b8352846004840152836024840152604483015260648201528381608481734dF91022B08C4bD9B2cE54D0799E7a9Db801df2c5af4908115615a08578591615a12575b50823b156112e45783519063283c3d8160e21b82526004820152848160248183875af18015615a08579085916159f4575b5050813b156118645782519062b64f3d60e51b82526004820152838160248183865af180156159e75790849115615912576159dc90613b0a565b612390578238615912565b50505051903d90823e3d90fd5b6159fd90613b0a565b6118645783386159a2565b84513d87823e3d90fd5b615a299150843d8611610ea857610e988183613b34565b905038615971565b60d05416908451906339420b4560e11b8252602082600481885afa918215614a9c5790615a6592918892615abf5750613fc8565b90833b156112f3578451639e79eaa560e01b81526001600160a01b039190911660048201526024810191909152848160448183875af18015615a0857615aac575b806158fd565b615ab890949194613b0a565b9238615aa6565b610e3f91925060203d8111610e4657610e378183613b34565b50919350505056fea264697066735822122088744df6b854ede253e768953144e4dea83939a7b3938348d715f39f2fb0893b64736f6c63430008120033",
  "deployedBytecode": "0x608080604052600436101561001357600080fd5b600090813560e01c908163017b82921461390457508063017e7e58146138dd5780630705999d1461386a578063070f81d91461377c57806307a237c51461370d57806309a5fca31461325957806309f1fd3e146132155780630f91f06f14612c53578063148b1d3a14612c2b5780633753b14a14612b7a5780633bd61ba814612b535780633f4ba83a14612ab65780634a5e42b1146129545780634a6fee0e146128d35780634ba2adfc146128b15780634d31a070146128895780634fdd64e51461287557806352f7c988146127b25780635326a8e7146126a557806355667ca31461267d5780635b14f183146126405780635b6cfa61146125cb5780635c975abb146125a85780635cfe092e1461258a5780635dceb8511461250657806361858e23146124065780636281baef146120a657806362fad13b1461200e5780636922d5ca14611ff0578063715018a614611f9457806374cbbdb914611f725780637629703f14611f4b57806376ad859714611f015780637f809d2914611d52578063815bfd2914611d345780638456cb5914611cd9578063873e73c314611c965780638a2dfe0914611bb95780638da5cb5b14611b925780638de66a68146119d2578063907448ed146118ad57806391cca3db1461188657806393aeea02146117375780639630b6601461170a5780639908fc8b146114c25780639abacb41146113fc5780639e4416b71461139e578063a312ff2314610eba578063a4275ceb14610caf578063aa6ca80814610be9578063ac99415a14610bcb578063baf7e21b14610ba9578063c2cd9b2b14610b81578063c3a21fa714610b5a578063d043c56514610b0c578063d0dd0e5614610aee578063d30ffeda14610aca578063d477f05f14610a57578063da48999714610909578063dc3b7c8b146108e5578063e4a301161461071b578063e9249cc7146106eb578063e9740dd51461069c578063eb4007071461067a578063f2fde38b146105d3578063f46901ed14610560578063f57e84d514610502578063f89830e514610494578063f8b49e7214610460578063fb7f5cc214610438578063fc8b9c06146103ff578063fca8f308146103ce5763fd33d3881461034457600080fd5b346103cb5760203660031901126103cb57600435610360613a6a565b670de0b6b3a764000081116103a1576020817f1c18a912ced6b380386b05a39ae0c1326b69555d4ed8d13fd4d9c6896b0ea3799260d755604051908152a180f35b60046040517f12b019e1000000000000000000000000000000000000000000000000000000008152fd5b80fd5b50346103cb5760406103f36103ed6103e5366139e6565b929092614ca2565b91615240565b82519182526020820152f35b50346103cb5760203660031901126103cb5760406020916001600160a01b03610426613920565b16815261013f83522054604051908152f35b50346103cb57806003193601126103cb5760206001600160801b036101085416604051908152f35b50346103cb5760203660031901126103cb57602061048c610487610482613920565b61486e565b6158a5565b604051908152f35b50346103cb5760203660031901126103cb576104ae613962565b6104b6613a6a565b61013b907fffffffffffffffffffffff00ffffffffffffffffffffffffffffffffffffffff74ff0000000000000000000000000000000000000000835492151560a01b16911617905580f35b50346103cb5760203660031901126103cb5760043561051f613a6a565b670de0b6b3a764000081116103a1576020817fc6e60196bbe5909add58d5ae8a27082013670bce0855321773c33085af5c32439260cb55604051908152a180f35b50346103cb5760203660031901126103cb577ff6b59ffc88fbb27f33470b919e00b41139ee340eb349521f0cbbc1504ce29c3e60206001600160a01b036105a5613920565b6105ad613a6a565b6105b6816146f3565b16806001600160a01b031960d054161760d055604051908152a180f35b50346103cb5760203660031901126103cb576105ed613920565b6105f5613a6a565b6001600160a01b038116156106105761060d90613ac2565b80f35b608460405162461bcd60e51b815260206004820152602660248201527f4f776e61626c653a206e6577206f776e657220697320746865207a65726f206160448201527f64647265737300000000000000000000000000000000000000000000000000006064820152fd5b50346103cb57806003193601126103cb57602061013e5460801c604051908152f35b50346103cb5760203660031901126103cb576106b66139ba565b6106be613a6a565b61013e906001600160801b036fffffffffffffffffffffffffffffffff1983549260801b16911617905580f35b50346103cb5760203660031901126103cb5760206001600160a01b03610712610482613920565b16604051908152f35b50346103cb5761072a36613a1b565b82549160ff8360081c1615918280936108d8575b80156108c1575b156108575760ff1984811660011786559383610846575b5061077660ff865460081c166107718161479c565b61479c565b61077f33613ac2565b84549361079f60ff8660081c166107958161479c565b600160655561479c565b60975416609755670de0b6b3a764000091828111801561083d575b6103a15760ca5560cb5560cd55336001600160a01b031960cf54161760cf55610805575b506101087718fae27693b40000000000000000000014d1120d7b1600008282541617905580f35b61ff00191681557f7f26b83ff96e1f2b6a682f133852f6798a09c465da95921460cefb3847402498602060405160018152a1386107de565b508282116107ba565b61ffff19166101011785553861075c565b608460405162461bcd60e51b815260206004820152602e60248201527f496e697469616c697a61626c653a20636f6e747261637420697320616c72656160448201527f647920696e697469616c697a65640000000000000000000000000000000000006064820152fd5b50303b1580156107455750600160ff851614610745565b50600160ff85161061073e565b50346103cb5760203660031901126103cb57602061048c610904613920565b6153f4565b50346103cb5760403660031901126103cb57610923613920565b61092b61394c565b610933613a6a565b61093c816146f3565b610945826146f3565b61094f818361472d565b610972826001600160a01b0380911660005260d460205260406000205416151590565b610a2d576001600160a01b03809116911680835260d460205260408320826001600160a01b031982541617905560d35460d560205280604085205568010000000000000000811015610a19576109f06109d282600185940160d35561480d565b819391549060031b916001600160a01b03809116831b921b19161790565b90557f0bb5715f0f217c2fe9a0c877ea87d474380c641102f3440ee2a4c8b9d97909188380a380f35b602484634e487b7160e01b81526041600452fd5b60046040517f8991c4c4000000000000000000000000000000000000000000000000000000008152fd5b50346103cb5760203660031901126103cb577f8daa6bb00de042a7d51816fcee4a3d5c1e91a2128fd64fa1a9a38afa0d26beb560206001600160a01b03610a9c613920565b610aa4613a6a565b610aad816146f3565b16806001600160a01b031960cf54161760cf55604051908152a180f35b50346103cb5760203660031901126103cb57602061048c610ae9613920565b615552565b50346103cb57806003193601126103cb57602060cb54604051908152f35b50346103cb5760203660031901126103cb577f935ce123b6388f8dbf76890f8240a48198f1e0a884f26939aa604a46bb65b7066020600435610b4c613a6a565b8060ce55604051908152a180f35b50346103cb57806003193601126103cb57602060ff61013b5460a81c166040519015158152f35b50346103cb57806003193601126103cb5760206001600160a01b0361013b5416604051908152f35b50346103cb57806003193601126103cb57602061013c5460801c604051908152f35b50346103cb57806003193601126103cb57602060d754604051908152f35b50346103cb57806003193601126103cb57604051809160d354908183526020809301809260d383527f915c3eb987b20e1af620c1403197bf687fb7f18513b3a73fde6e78c7072c41a690835b818110610c925750505084610c4b910385613b34565b60405193838594850191818652518092526040850193925b828110610c7257505050500390f35b83516001600160a01b031685528695509381019392810192600101610c63565b82546001600160a01b031684529286019260019283019201610c35565b50346103cb5760603660031901126103cb57610cc9613920565b610cd161394c565b90610cf5610cef60443592610ce5846146c2565b610482858261472d565b9261486e565b9060ca5460cb546101085460d75492604051967fefd7af770000000000000000000000000000000000000000000000000000000088526001600160a01b03809116968760048a0152169485602489015260448801526064870152670de0b6b3a76400009182608488015260a48701526001600160801b03811660c487015260801c60e48601526101048501526101248401526040836101448173__$64c1823877363665b8c9607be5e0799ede$__5af4928315610eaf5784908594610e7b575b5060405193846339420b4560e11b9485825281600460209889935afa8015610e70578692610dea928992610e58575b50613fc8565b9360046040518095819382525afa918215610e4d5790610e13929160409692610e1e5750613fc8565b918351928352820152f35b610e3f919250853d8711610e46575b610e378183613b34565b810190613b56565b9038610de4565b503d610e2d565b6040513d87823e3d90fd5b610e3f919250843d8611610e4657610e378183613b34565b6040513d89823e3d90fd5b9050610ea091935060403d604011610ea8575b610e988183613b34565b810190614002565b929038610db5565b503d610e8e565b6040513d86823e3d90fd5b506101203660031901126103cb57610ed0613920565b90610ed961394c565b906001600160a01b0360c4351660c4350361126357610ef6613bce565b610efe613b7e565b6064351561137457610f0f83614678565b610f1a60c4356146f3565b610f238361486e565b91610f446064356001600160a01b038516336001600160a01b038816613c23565b6040516339420b4560e11b81526020816004816001600160a01b0388165afa9081156113695790610f7f91849161134a575b50606435613f82565b9260ff61013b5460a81c16156113205760ca5461013c546101085460408051630ef87a7960e11b81526001600160a01b0386166004820152602481018990526044810194909452670de0b6b3a76400006064850152608092831c60848501526001600160801b0380831660a48601529190921c60c4840152919591908660e48173__$64c1823877363665b8c9607be5e0799ede$__5af4918215610e4d57859686936112f7575b508261103d916110388960843561476b565b614018565b6001600160a01b0384163b156112f3576040519062b64f3d60e51b825260048201528581602481836001600160a01b0389165af180156112e8579086916112d0575b505061108a8661460b565b61013d906fffffffffffffffffffffffffffffffff19836110af845493828516614025565b1691161781556001600160a01b038416865260d2602052604086206110d584825461404e565b90555490806110ed8161013e54168460801c90614025565b169116116112a657841561127c5760206001600160a01b03926004604051809581936339420b4560e11b8352165afa918215610eaf5760209285949261113c926111f99792610e1e5750613fc8565b6040805160643581526020810183905290810187905290966001600160a01b03169033907f8900881feb21943c006d040b3a8510f7780104f915ac29f448cdaf220007887f90606090a36001600160a01b0361013b54166040518080968194637b91993f60e01b8352610104359060e4359060c435908c60a4359160443590600489019360c09591929897969360e08601996001600160a01b03809516875260208701526040860152606085015216608083015260a08201520152565b039134905af19081156112705790611237575b61123391506001606555604051938493846040919493926060820195825260208201520152565b0390f35b506020813d602011611268575b8161125160209383613b34565b8101031261126357611233905161120c565b600080fd5b3d9150611244565b604051903d90823e3d90fd5b60046040517fa4735bc8000000000000000000000000000000000000000000000000000000008152fd5b60046040517f8c68dbbe000000000000000000000000000000000000000000000000000000008152fd5b6112d990613b0a565b6112e457843861107f565b8480fd5b6040513d88823e3d90fd5b8580fd5b61103d975061131691935060403d604011610ea857610e988183613b34565b9690969290611026565b60046040517f7a44a0f5000000000000000000000000000000000000000000000000000000008152fd5b611363915060203d602011610e4657610e378183613b34565b38610f76565b6040513d85823e3d90fd5b60046040517fb483c10f000000000000000000000000000000000000000000000000000000008152fd5b50346103cb5760203660031901126103cb576004356113bb613a6a565b670de0b6b3a764000081116103a1576020817f294c562dcfcd9be941287844539aeba4ae641cd1fc9a2883337c6b2e87cbd98a9260ca55604051908152a180f35b50346103cb5760203660031901126103cb57611416613920565b61141e61485a565b6001600160a01b03811680835260c960205260ff6040842054161561149857825260c960209081526040808420805460ff1916905580516001600160a01b03909316835233918301919091527fdb198487a4c70aa000c3b1020f52688b4b86d3ebcedc84a793e03ed3b480902c9190819081015b0390a180f35b60046040517f855b7373000000000000000000000000000000000000000000000000000000008152fd5b50346103cb576114d136613971565b6114e095919395949294613bce565b6114e8613b7e565b6114f2838361472d565b85156113745761150a90611505856146f3565b6148b3565b61151381614678565b61151c8161486e565b926115268361486e565b90604051956339420b4560e11b8088526020886004816001600160a01b0388165afa9788156116be576000986116e9575b506001600160a01b038716966040519182526020826004818b5afa9283156116be576115b66115af6115bc938c93898f97866115a36115cd9b6115a9936000916116ca575b508b613f82565b93613f82565b92614af1565b9b90613fc8565b99613fc8565b96336001600160a01b038716613c23565b6001600160a01b0382163b156112635760006040518093639e79eaa560e01b825281836001600160a01b038261161d8d8960048401602090939291936001600160a01b0360408201951681520152565b0393165af19081156116be5761169b868860409a7f7fa01e8d24e5a6ec56e00b4ff8ee7ed97e7650a7846ec494bbaa5d65f1be9ea4966001600160a01b03966116af575b508b51958695169833988691959493909260809360a08401976001600160a01b038092168552166020840152604083015260608201520152565b0390a3600160655582519182526020820152f35b6116b890613b0a565b8c611661565b6040513d6000823e3d90fd5b6116e3915060203d602011610e4657610e378183613b34565b3861159c565b61170391985060203d602011610e4657610e378183613b34565b9689611557565b50346103cb5760406103f361171e36613a31565b9261172a929192613b7e565b611732614663565b6140c0565b50346103cb5760603660031901126103cb57611751613920565b602435906044356001600160a01b038082169182810361126357611773613a6a565b61177c8461486e565b9061178685615552565b86116103a15782879216906040516339420b4560e11b8152602081600481865afa8015610eaf576117bf918591611868575b5088613fc8565b823b1561186457604051639e79eaa560e01b81526001600160a01b0392909216600483015260248201529082908290604490829084905af180156118595761183f575b50927f5f22a22ebe30686f71d42a70ccacf870a335e22ee2ac6d257af1b2551582eda692856060936040519316835260208301526040820152a180f35b61184c9094939294613b0a565b6112e45790918438611802565b6040513d84823e3d90fd5b8380fd5b611880915060203d8111610e4657610e378183613b34565b386117b8565b50346103cb57806003193601126103cb5760206001600160a01b0360cf5416604051908152f35b50346103cb5760403660031901126103cb576118c7613920565b6118d760243591610482836146c2565b60ca5460d754604051639181079560e01b81526001600160a01b038416600482015260248101949094526044840191909152670de0b6b3a76400006064840152608483015260608260a48173__$64c1823877363665b8c9607be5e0799ede$__5af4908115611369576001600160a01b0392849261199d575b506020906004604051809581936339420b4560e11b8352165afa918215611369579061048c9291602094926119855750613fc8565b610e3f919250843d8111610e4657610e378183613b34565b60209192506119c29060603d81116119cb575b6119ba8183613b34565b810190614ad6565b50509190611950565b503d6119b0565b50346103cb5760403660031901126103cb576119ef610482613920565b60ff61013b5460a81c1615611320576040516339420b4560e11b808252602092916001600160a01b038316908481600481855afa80156112e857611a3d918791611b75575b50602435613f82565b60ca5461013c546101085460408051630ef87a7960e11b81526001600160a01b0398909816600489015260248801949094526044870192909252670de0b6b3a76400006064870152608090811c60848701526001600160801b0380831660a488015291901c60c486015292908460e48173__$64c1823877363665b8c9607be5e0799ede$__5af49081156112e857859087958893611b4e575b5060046040518095819382525afa9182156112e857611afd9394959692611b365750613fc8565b9061013d5490611b23611b128583851661404e565b928261013e54169060801c90614025565b16106112a6576040928351928352820152f35b610e3f919250863d8811610e4657610e378183613b34565b909250611b6b91955060403d604011610ea857610e988183613b34565b9490949138611ad6565b611b8c9150863d8811610e4657610e378183613b34565b38611a34565b50346103cb57806003193601126103cb5760206001600160a01b0360335416604051908152f35b50346103cb57806003193601126103cb57611c2c906020611bd86156a9565b611be660ca9392935461459d565b6040517fd7454c53000000000000000000000000000000000000000000000000000000008152600481018590526024810192909252604482015293849081906064820190565b038173__$64c1823877363665b8c9607be5e0799ede$__5af49182156112705791611c62575b6040809350519182526020820152f35b90506020823d8211611c8e575b81611c7c60209383613b34565b81010312611263576040915190611c52565b3d9150611c6f565b50346103cb576040611cc8611caa36613a31565b92611cb6929192613bce565b611cbe613b7e565b611732848361405b565b600160655582519182526020820152f35b50346103cb57806003193601126103cb57611cf261485a565b611cfa613b7e565b600160ff1960975416176097557f62e78cea01bee320cd4e420270b5ea74000d11b0c9f74754ebdbfc544b05a2586020604051338152a180f35b50346103cb57806003193601126103cb57602060cd54604051908152f35b50346103cb5760403660031901126103cb57611d6c613920565b611d786024359161486e565b60ff61013b5460a01c1615611ef05760ca5461013c54604080516367146f2960e01b8152600481018690526001600160a01b03851660248201526044810193909352670de0b6b3a764000060648401526001600160801b039182166084840152909391908160a48173__$64c1823877363665b8c9607be5e0799ede$__5af4928315610e4d5785918694611ebf575b509060206001600160a01b03926004604051809581936339420b4560e11b8352165afa9182156112e857611e4f9394959692611e9b575b5081611e4991613fc8565b93613fc8565b92611e75611e6461013d54938460801c61404e565b928261013e5460801c911690614025565b1610611e8a5760409182519182526020820152f35b60046040516332a9eed360e11b8152fd5b611e49919250611eb89060203d8111610e4657610e378183613b34565b9190611e3e565b60209194506001600160a01b039250611ee69060403d604011610ea857610e988183613b34565b9490925090611e07565b6004604051633b26060360e11b8152fd5b50346103cb5760203660031901126103cb57611f1b6139ba565b611f23613a6a565b6001600160801b0361013e91166fffffffffffffffffffffffffffffffff1982541617905580f35b50346103cb57806003193601126103cb57602060ff61013b5460a01c166040519015158152f35b50346103cb57806003193601126103cb5760206101085460801c604051908152f35b50346103cb57806003193601126103cb57611fad613a6a565b60006001600160a01b036033546001600160a01b03198116603355167f8be0079c531659141344cd1fd0a4f28419497f9722a3daafe3b4186f6b6457e08280a380f35b50346103cb57806003193601126103cb57602060cc54604051908152f35b50346103cb57806003193601126103cb576120276156a9565b919061204361013d546001600160801b0381169060801c6144e9565b9060ca5491670de0b6b3a76400009083820180831161209257602093611c2c9793612085612080611be69561207a61208c9661459d565b9061455f565b614502565b0590614526565b9361459d565b602486634e487b7160e01b81526011600452fd5b50346103cb5760c03660031901126103cb576120c0613920565b602435604435916120cf613936565b9260a43590811591821503611263576120e6613bce565b6120ee613b7e565b8315611374576120fd856146f3565b6121086084356148b3565b61211183614678565b61211a8361486e565b6001600160a01b039283821690612135878333888a16613c23565b15612204576020600491604051928380926339420b4560e11b82525afa9081156121f9579261219c9261219689937ff5dd9317b9e63ac316ce44acc85f670b54b339cfa3e9076e1dd55065b922314b979660209c916121dc575b5089613f82565b906148e5565b945b6121cc8660405193849316963396846040919493926001600160a01b03606083019616825260208201520152565b0390a36001606555604051908152f35b6121f391508c3d8111610e4657610e378183613b34565b3861218f565b6040513d8a823e3d90fd5b906122178460d1999498959954166146f3565b604051966339420b4560e11b88526020978881600481875afa908115610e4d5761225593929161224e9187916123ef575089613f82565b30926148e5565b60d1546040517f095ea7b30000000000000000000000000000000000000000000000000000000081529089166001600160a01b0316600482015260248101829052909690818160448187875af18015610eaf576123c2575b508760d1541691604051907faf929a8000000000000000000000000000000000000000000000000000000000825260048201528181602481865afa918215610eaf578492612394575b5050813b156123905782916064839260405194859384927f90210d7e00000000000000000000000000000000000000000000000000000000845260048401528b60248401528c891660448401525af180156118595761237c575b50506020947ff5dd9317b9e63ac316ce44acc85f670b54b339cfa3e9076e1dd55065b922314b9161219e565b6123868291613b0a565b6103cb5780612350565b8280fd5b90809250813d83116123bb575b6123ab8183613b34565b81010312611263575138806122f6565b503d6123a1565b6123e190823d84116123e8575b6123d98183613b34565b810190613dd2565b50386122ad565b503d6123cf565b6121f391508b3d8d11610e4657610e378183613b34565b50346103cb5760403660031901126103cb57612423610482613920565b6040516339420b4560e11b81526020816004816001600160a01b0386165afa9081156113695760409161245f9185916124ee5750602435613f82565b60ca54825163176f358b60e21b81526001600160a01b0394909416600485015260248401919091526044830152670de0b6b3a764000060648301528160848173__$64c1823877363665b8c9607be5e0799ede$__5af490811561185957602092916124ce575b50604051908152f35b6124e7915060403d604011610ea857610e988183613b34565b50386124c5565b611b8c915060203d8111610e4657610e378183613b34565b50346103cb5760403660031901126103cb576125206139ba565b6125286139d0565b90612531613a6a565b6001600160801b0380921691670de0b6b3a7640000808410918261257e575b5050156123905761013c91836fffffffffffffffffffffffffffffffff1984549360801b1692161717905580f35b83161090503880612550565b50346103cb57806003193601126103cb57602060ce54604051908152f35b50346103cb57806003193601126103cb57602060ff609754166040519015158152f35b50346103cb5760403660031901126103cb576004357f223d3a15e21bdf204d6fa4a56f4ee7326dd6096a5c04ab76d3f5b53e31deadcc60206001600160a01b0361261361394c565b61261b614663565b169283855261013f82526040852061263482825461404e565b9055604051908152a280f35b50346103cb5760203660031901126103cb5760ff60406020926001600160a01b03612669613920565b16815260c984522054166040519015158152f35b50346103cb57806003193601126103cb5760206001600160801b0361013c5416604051908152f35b5060e03660031901126103cb576126ba613920565b60443591906001600160a01b039060843582811681036112635761275d946020936126e3613bce565b6126eb613b7e565b6126f5838361405b565b61013b54169160405196879485938493637b91993f60e01b855260c4359260a435926064359160243590600489019360c09591929897969360e08601996001600160a01b03809516875260208701526040860152606085015216608083015260a08201520152565b039134905af19081156112705790612780575b6020906001606555604051908152f35b506020813d82116127aa575b8161279960209383613b34565b810103126112635760209051612770565b3d915061278c565b50346103cb576127c136613a1b565b906127ca613a6a565b670de0b6b3a76400006127dd828461404e565b116103a157825b60d354811015612839578061282e6104876001600160a01b036128096128349561480d565b90549060031b1c166001600160a01b0380911660005260d46020526040600020541690565b5061569a565b6127e4565b506040907f032dc6a2d839eb179729a55633fdf1c41a1fc4739394154117005db2b354b9b5928060cc558160cd5582519182526020820152a180f35b50346103cb5760406103f36103ed366139e6565b50346103cb57806003193601126103cb5760206001600160801b0361013d5416604051908152f35b50346103cb57806003193601126103cb57602061013d5460801c604051908152f35b50346103cb5760403660031901126103cb576128ed6139ba565b6128f56139d0565b6128fd613a6a565b6001600160801b0380921691670de0b6b3a76400008310908115612948575b506103a15761010891836fffffffffffffffffffffffffffffffff1984549360801b1692161717905580f35b9050811682113861291c565b50346103cb5760203660031901126103cb5761296e613920565b612976613a6a565b612999816001600160a01b0380911660005260d460205260406000205416151590565b15612a8c576001600160a01b038091169081835260d4602052604083208054906001600160a01b03198216905560d5602052604084205460d3549060001991828101908111612a78576109d2856129f2612a179361480d565b90549060031b1c169283895260d56020528060408a205587895288604081205561480d565b905560d3548015612a645701612a2c8161480d565b8482549160031b1b1916905560d35516907f0fa1e4606af435f32f05b3804033d2933e691fab32ee74d2db6fa82d2741f1ea8380a380f35b602486634e487b7160e01b81526031600452fd5b602487634e487b7160e01b81526011600452fd5b60046040517fecb004d4000000000000000000000000000000000000000000000000000000008152fd5b50346103cb57806003193601126103cb57612acf61485a565b60975460ff811615612b0f5760ff19166097557f5db9ee0a495bf2e6ff9c91a7834c1ba4fdd244a5e8aa4e537bd38aeae4b073aa6020604051338152a180f35b606460405162461bcd60e51b815260206004820152601460248201527f5061757361626c653a206e6f74207061757365640000000000000000000000006044820152fd5b50346103cb57806003193601126103cb5760206001600160a01b0360d15416604051908152f35b50346103cb5760203660031901126103cb57612b94613920565b612b9c61485a565b612bbf816001600160a01b0380911660005260d460205260406000205416151590565b15612a8c5761149281612bf27fdcb65c0553aaa433aadd180404ff195259c48f78aa50f877ebcb4bb215129a4e93614678565b6001600160a01b031680845260c960209081526040808620805460ff191660011790558051928352339183019190915290918291820190565b50346103cb57806003193601126103cb5760206001600160801b0361013e5416604051908152f35b50346103cb57612c99612c6536613971565b612c759691969593949295613bce565b612c7d613b7e565b612c86876146f3565b612c8f856146c2565b611505838561472d565b612ca282614678565b612cab8261486e565b94612cb58261486e565b91612ccb856001600160a01b0389163381613c23565b600096612cd781615862565b60ca5460d754604051639181079560e01b81526001600160a01b0384166004820152602481018990526044810192909252670de0b6b3a76400006064830152608482015260608160a48173__$64c1823877363665b8c9607be5e0799ede$__5af490811561320a5789809181936131e6575b506001600160a01b0384163b156103cb57604051632770a7eb60e21b81526001600160a01b0385166004820152602481018a9052818180604481010381836001600160a01b038a165af18015611859576131d7575b5090612daa838c61404e565b6001600160a01b0385163b1561239057604051906313f3df3160e31b825260048201528281602481836001600160a01b038a165af18015611369579083916131c3575b50506001600160a01b0384163b156131bf576040519063d8b8785360e01b825260048201528181602481836001600160a01b0389165af18015611859579082916131ab575b505060405163705727b560e01b81526020816004816001600160a01b0388165afa90811561185957906001600160781b0391839161318c575b50161515806130bc575b6130ab5781613082575b5050604051966339420b4560e11b88526020886004816001600160a01b0389165afa9788156116be57600098613051575b5087612ed4612ecd612ec583612eda95613f82565b8c8987614af1565b9a90613fc8565b98613fc8565b906001600160a01b0385163b1561126357604051639e79eaa560e01b81526001600160a01b038581166004830152602482018a90529095600091879160449183918591165af19081156116be576001600160a01b0395602092613042575b506004604051809781936339420b4560e11b8352165afa9081156116be576001600160a01b03612f976121cc9360209b7f7fa01e8d24e5a6ec56e00b4ff8ee7ed97e7650a7846ec494bbaa5d65f1be9ea4986000926130235750613fc8565b941680977ffb80d861da582b723be2d19507ce3e03851820c464abea89156ec77e089b1ad960405180612fe733948a8d846040919493926001600160a01b03606083019616825260208201520152565b0390a38760405194859433988691959493909260809360a08401976001600160a01b038092168552166020840152604083015260608201520152565b61303b9192508d3d8f11610e4657610e378183613b34565b908d610de4565b61304b90613b0a565b8a612f38565b612ec5985090612ed4612ecd613078612eda9460203d602011610e4657610e378183613b34565b9a50505090612eb0565b60406130a2916001600160a01b038516815260d26020522091825461404e565b90558880612e7f565b60046040516316fde3bd60e21b8152fd5b5060405163961be39160e01b81526020816004816001600160a01b0388165afa90811561185957829161316d575b5060405163705727b560e01b81526020816004816001600160a01b0389165afa90811561136957916001600160781b038061313893662386f26fc1000095879161313e575b501691166144b8565b10612e75565b613160915060203d602011613166575b6131588183613b34565b810190614499565b3861312f565b503d61314e565b613186915060203d602011613166576131588183613b34565b8b6130ea565b6131a5915060203d602011613166576131588183613b34565b8c612e6b565b6131b490613b0a565b6103cb57808b612e32565b5080fd5b6131cc90613b0a565b6131bf57818c612ded565b6131e090613b0a565b8b612d9e565b91509950613202915060603d81116119cb576119ba8183613b34565b91998b612d49565b6040513d8b823e3d90fd5b50346103cb5760203660031901126103cb576004356001600160a01b0381168091036131bf57613243613a6a565b61013b906001600160a01b031982541617905580f35b50346103cb5760a03660031901126103cb57613273613920565b61327b613936565b613283613bce565b61328b613b7e565b6132966024356146c2565b61329f816146f3565b6132aa6084356148b3565b6132b38261486e565b916132cb6024356001600160a01b0385163381613c23565b6040516339420b4560e11b81526020816004816001600160a01b0388165afa908115610e4d5785916136ee575b5061330581604435613f82565b9061330f85615862565b60ca5460d754604051639181079560e01b81526001600160a01b038816600482015260248035908201526044810192909252670de0b6b3a7640000606483015260848201526000929060608160a48173__$64c1823877363665b8c9607be5e0799ede$__5af4908115610eaf578492859186936136c3575b50836133929161476b565b6001600160a01b0388163b156112e457604051632770a7eb60e21b81526001600160a01b03891660048201819052602480359083015286908290604490829084905af180156112e8576136b0575b506133eb828461404e565b6001600160a01b0389163b156112f3576040516313f3df3160e31b815260048101919091528581602481836001600160a01b038e165af180156112e85790869161369c575b50506001600160a01b0388163b156112e4576040519063d8b8785360e01b825260048201528481602481836001600160a01b038d165af18015610e4d57908591613688575b505060405163705727b560e01b81526020816004816001600160a01b038c165afa908115610e4d57906001600160781b03918691613669575b50161515806135c9575b6130ab576134cd93816135a0575b5050613fc8565b926001600160a01b0381163b156112e457846040518092639e79eaa560e01b825281836001600160a01b038261351d8b8b60048401602090939291936001600160a01b0360408201951681520152565b0393165af18015610e4d5761358c575b50602093507ffb80d861da582b723be2d19507ce3e03851820c464abea89156ec77e089b1ad96001600160a01b03604051931692806121cc33948760243591846040919493926001600160a01b03606083019616825260208201520152565b6135968591613b0a565b611864578361352d565b60406135c0916001600160a01b038a16815260d26020522091825461404e565b905538806134c6565b5060405163961be39160e01b81526020816004816001600160a01b038c165afa908115610e4d57859161364a575b5060405163705727b560e01b81526020816004816001600160a01b038d165afa9081156112e857916001600160781b038061364493662386f26fc10000958a9161313e57501691166144b8565b106134b8565b613663915060203d602011613166576131588183613b34565b386135f7565b613682915060203d602011613166576131588183613b34565b386134ae565b61369190613b0a565b611864578338613475565b6136a590613b0a565b6112e4578438613430565b6136bc90959195613b0a565b93386133e0565b90925061339293506136e3915060603d81116119cb576119ba8183613b34565b919350909183613387565b613707915060203d602011610e4657610e378183613b34565b386132f8565b50346103cb5760203660031901126103cb57613727613962565b61372f613a6a565b61013b907fffffffffffffffffffff00ffffffffffffffffffffffffffffffffffffffffff75ff000000000000000000000000000000000000000000835492151560a81b16911617905580f35b50346103cb5760403660031901126103cb57613796613920565b906024356137a261485a565b6137ab8361486e565b6137b484615552565b82116103a1576001600160a01b0316803b156123905782809160246040518094819362b64f3d60e51b83528760048401525af1801561136957613839575b50604080516001600160a01b039094168452602084019190915290917f4941e18a2bcbb0f9fa0081238f26793a8ad8c202b913ae8bf5f7e523f68ff1379181908101611492565b916138647f4941e18a2bcbb0f9fa0081238f26793a8ad8c202b913ae8bf5f7e523f68ff13793613b0a565b916137f2565b50346103cb5760203660031901126103cb577ffeb9010869b6ccec4557ddbbce947afeace5efc66cdff52c5e533c09336a8f2d60206001600160a01b036138af613920565b6138b7613a6a565b6138c0816146f3565b16806001600160a01b031960d154161760d155604051908152a180f35b50346103cb57806003193601126103cb5760206001600160a01b0360d05416604051908152f35b9050346131bf57816003193601126131bf5760209060ca548152f35b600435906001600160a01b038216820361126357565b606435906001600160a01b038216820361126357565b602435906001600160a01b038216820361126357565b60043590811515820361126357565b60c0906003190112611263576001600160a01b03600435818116810361126357916024358281168103611263579160443591606435916084359081168103611263579060a43590565b600435906001600160801b038216820361126357565b602435906001600160801b038216820361126357565b6060906003190112611263576001600160a01b0390600435828116810361126357916024359081168103611263579060443590565b6040906003190112611263576004359060243590565b6080906003190112611263576001600160a01b039060043582811681036112635791602435916044359160643590811681036112635790565b6001600160a01b03603354163303613a7e57565b606460405162461bcd60e51b815260206004820152602060248201527f4f776e61626c653a2063616c6c6572206973206e6f7420746865206f776e65726044820152fd5b603354906001600160a01b0380911691826001600160a01b0319821617603355167f8be0079c531659141344cd1fd0a4f28419497f9722a3daafe3b4186f6b6457e0600080a3565b67ffffffffffffffff8111613b1e57604052565b634e487b7160e01b600052604160045260246000fd5b90601f8019910116810190811067ffffffffffffffff821117613b1e57604052565b90816020910312611263575160ff811681036112635790565b90816020910312611263575190565b60ff60975416613b8a57565b606460405162461bcd60e51b815260206004820152601060248201527f5061757361626c653a20706175736564000000000000000000000000000000006044820152fd5b600260655414613bdf576002606555565b606460405162461bcd60e51b815260206004820152601f60248201527f5265656e7472616e637947756172643a207265656e7472616e742063616c6c006044820152fd5b93929190604051602093848201927f23b872dd0000000000000000000000000000000000000000000000000000000084526001600160a01b039485809216602485015216604483015260648201526064815260a081019267ffffffffffffffff9682851088861117613b1e57169060e0810184811088821117613b1e576040528484527f5361666545524332303a206c6f772d6c6576656c2063616c6c206661696c656460c0820152600080938192519082855af1903d15613dc1573d968711613dad57613d1294959660405190613d0488601f19601f8401160183613b34565b81528093873d92013e613dea565b805190828215928315613d95575b50505015613d2b5750565b6084906040519062461bcd60e51b82526004820152602a60248201527f5361666545524332303a204552433230206f7065726174696f6e20646964206e60448201527f6f742073756363656564000000000000000000000000000000000000000000006064820152fd5b613da59350820181019101613dd2565b388281613d20565b602483634e487b7160e01b81526041600452fd5b9150613d1293949550606091613dea565b90816020910312611263575180151581036112635790565b91929015613e4b5750815115613dfe575090565b3b15613e075790565b606460405162461bcd60e51b815260206004820152601d60248201527f416464726573733a2063616c6c20746f206e6f6e2d636f6e74726163740000006044820152fd5b825190915015613e5e5750805190602001fd5b6040519062461bcd60e51b82528160208060048301528251908160248401526000935b828510613ea4575050604492506000838284010152601f80199101168101030190fd5b8481018201518686016044015293810193859350613e81565b60ff6011199116019060ff8211613ed057565b634e487b7160e01b600052601160045260246000fd5b60ff166012039060ff8211613ed057565b60ff16604d8111613ed057600a0a90565b8115613f12570490565b634e487b7160e01b600052601260045260246000fd5b81810292918115918404141715613ed057565b60ff81166012811015613f5d5750613f55613f5a91613ee6565b613ef7565b90565b601210613f6a5750600190565b613f55613f7691613ebd565b8015613f125760010490565b9060ff81166012811015613fa7575090613fa1613f55613f5a93613ee6565b90613f28565b601210613fb2575090565b90613fc2613f55613f5a93613ebd565b90613f08565b9060ff81166012811015613fe7575090613fc2613f55613f5a93613ee6565b601210613ff2575090565b90613fa1613f55613f5a93613ebd565b9190826040910312611263576020825192015190565b91908203918211613ed057565b9190916001600160801b0380809416911601918211613ed057565b9060018201809211613ed057565b91908201809211613ed057565b90614065906146f3565b8015611374573360005261013f80602052816040600020541061409657336000526020526040600020908154039055565b60046040517fdb52be33000000000000000000000000000000000000000000000000000000008152fd5b90939193600093811561127c576140d68361486e565b906001600160a01b0391828116966040918251916339420b4560e11b83528260209b8c828d60049788915afa91821561448f578d849361446a575b50508161411d91613f82565b9b60ff61013b5460a01c161561445b5760ca5461013c5487516367146f2960e01b81528781018c81526001600160a01b0390971660208801526040870192909252670de0b6b3a764000060608701526001600160801b0390811660808701529490919087908390819060a001038173__$64c1823877363665b8c9607be5e0799ede$__5af49d8e15614451578492859f61441d575b508e8e6141c2856141de9461476b565b865260d283528886206141d682825461404e565b90558361404e565b8d3b156112e457848e602482938b5194859384926313f3df3160e31b84528d8401525af18015614400578792918f9161440a575b50819089519384809263961be39160e01b82525afa918215614400578e889187946143df575b5082908a519283809263705727b560e01b82525afa9182156143d55791662386f26fc10000939161427e9388926143b8575b50506001600160781b0380911691166144b8565b106143a957906142918161429793613fc8565b9c613fc8565b99803b156131bf57816142d781928e8851948580948193639e79eaa560e01b83528d8c8401602090939291936001600160a01b0360408201951681520152565b03925af1801561439f5761438b575b50506142f18661460b565b9061433361013d92826fffffffffffffffffffffffffffffffff1961431b8654938460801c614025565b60801b16911690811780945561013e5460801c614025565b169060801c1161437d575051928352602083018790526040830186905281169216907f506448513266ee822309810e439a9705992c367f989d959d01d94303cf5eed9c90606090a3565b90516332a9eed360e11b8152fd5b6143958291613b0a565b6103cb57806142e6565b85513d84823e3d90fd5b8486516316fde3bd60e21b8152fd5b6143ce9250803d10613166576131588183613b34565b388061426a565b89513d88823e3d90fd5b839194506143f990823d8411613166576131588183613b34565b9390614238565b88513d87823e3d90fd5b95614416839297613b0a565b9590614212565b9092508d9e50873d891161444a575b6144368183613b34565b810161444191614002565b9e5091826141b2565b503d61442c565b87513d86823e3d90fd5b848651633b26060360e11b8152fd5b61411d929350908161448792903d10610e4657610e378183613b34565b91908d614111565b86513d85823e3d90fd5b9081602091031261126357516001600160781b03811681036112635790565b90670de0b6b3a764000091828102928184041490151715613ed0576144e4613f5a928260011c9061404e565b613f08565b81810392916000138015828513169184121617613ed057565b906706f05b59d3b200009160008382019384129112908015821691151617613ed057565b91909160008382019384129112908015821691151617613ed057565b90670de0b6b3a764000091828102928184051490151715613ed057565b818102929160008212600160ff1b821416613ed0578184051490151715613ed057565b8115613f1257600160ff1b8114600019831416613ed0570590565b7f7fffffffffffffffffffffffffffffffffffffffffffffffffffffffffffffff81116145c75790565b606460405162461bcd60e51b815260206004820152601660248201527f76616c7565206d75737420626520706f736974697665000000000000000000006044820152fd5b6001600160801b039081811161461f571690565b606460405162461bcd60e51b815260206004820152601060248201527f75696e74313238206f766572666c6f77000000000000000000000000000000006044820152fd5b6001600160a01b0361013b541633036130ab57565b6001600160a01b031660005260c960205260ff6040600020541661469857565b60046040517f8654830a000000000000000000000000000000000000000000000000000000008152fd5b156146c957565b60046040517f3f3835e7000000000000000000000000000000000000000000000000000000008152fd5b6001600160a01b03161561470357565b60046040517f0bd3e3ed000000000000000000000000000000000000000000000000000000008152fd5b6001600160a01b0390811691161461474157565b60046040517feeb7911f000000000000000000000000000000000000000000000000000000008152fd5b1161477257565b60046040517ff512a720000000000000000000000000000000000000000000000000000000008152fd5b156147a357565b608460405162461bcd60e51b815260206004820152602b60248201527f496e697469616c697a61626c653a20636f6e7472616374206973206e6f74206960448201527f6e697469616c697a696e670000000000000000000000000000000000000000006064820152fd5b60d3548110156148445760d36000527f915c3eb987b20e1af620c1403197bf687fb7f18513b3a73fde6e78c7072c41a60190600090565b634e487b7160e01b600052603260045260246000fd5b6001600160a01b0360cf541633036130ab57565b614891816001600160a01b0380911660005260d460205260406000205416151590565b15612a8c576001600160a01b0380911660005260d46020526040600020541690565b42116148bb57565b60046040517f549b6335000000000000000000000000000000000000000000000000000000008152fd5b91939290614944906148f684615862565b60ca54926000946040809581518096819263176f358b60e21b83528786600485016060919493670de0b6b3a7640000936001600160a01b036080840197168352602083015260408201520152565b038173__$64c1823877363665b8c9607be5e0799ede$__5af4908115614a7f5786948792614aaa575b506001600160a01b039061498b86809b614986826146c2565b61476b565b1692833b15614aa65785519062b64f3d60e51b82526004820152868160248183885af18015614a9c57614a89575b50823b156112f35784519063283c3d8160e21b82526004820152858160248183875af18015614a7f57908691614a6b575b5050813b156112e45783517f40c10f190000000000000000000000000000000000000000000000000000000081526001600160a01b03919091166004820152602481019290925290919083908390604490829084905af1908115614a625750614a51575050565b614a5b8291613b0a565b6103cb5750565b513d84823e3d90fd5b614a7490613b0a565b6112e45784386149ea565b85513d88823e3d90fd5b614a9590969196613b0a565b94386149b9565b86513d89823e3d90fd5b8680fd5b6001600160a01b039550614acc919250863d8811610ea857610e988183613b34565b949094919061496d565b90816060910312611263578051916040602083015192015190565b90929391614b08614b018261459d565b8584614cb3565b9485614b1583809961476b565b6000926001600160a01b038093169485855260209360d28552604097888720614b3f86825461404e565b90551690813b156112f3578591602483928a51948593849262b64f3d60e51b845260048401525af18015614c9857614c81575b5090614b7d9161404e565b833b15612390578451906313f3df3160e31b82526004820152828160248183885af18015614c6357908391614c6d575b505083519263961be39160e01b84528184600481845afa938415614c63578394614c3d575b50908060049286519384809263705727b560e01b82525afa928315614c325791614c1a9391662386f26fc100009593926143b85750506001600160781b0380911691166144b8565b10614c225750565b600490516316fde3bd60e21b8152fd5b8551903d90823e3d90fd5b8291945091614c5a600493823d8411613166576131588183613b34565b94919250614bd2565b85513d85823e3d90fd5b614c7690613b0a565b6131bf578138614bad565b93614c90614b7d939295613b0a565b939091614b72565b87513d87823e3d90fd5b600160ff1b8114613ed05760000390565b9291614cc081838661518a565b9460009386908390868612614e57575050506001600160a01b031660405163961be39160e01b81526020938482600481865afa918215614e0f5785908793614e37575b50600492936040519384809263705727b560e01b82525afa8015614e0f57849386938892614e14575b50610108546040517f2f6599bb0000000000000000000000000000000000000000000000000000000081526001600160781b039283166004820152929091166024830152604482019290925260648101939093526001600160801b038116608484015260801c60a4830152818060c481015b038173__$64c1823877363665b8c9607be5e0799ede$__5af4928315614e0f57613f5a9493614dda575b505081614dd491614018565b9361404e565b614dd49293509081614e0092903d10614e08575b614df88183613b34565b810190613b6f565b919038614dc8565b503d614dee565b6116be565b614d9e919250614e3090853d8711613166576131588183613b34565b9190614d2c565b60049350614e5190823d8411613166576131588183613b34565b92614d03565b6001600160a01b03919692985080945094929416906040519063961be39160e01b825260208083600481875afa928315614e0f578293614f87575b50806004916001600160781b03809516956040519384809263705727b560e01b82525afa928315614e0f5792614f6a575b505016614ed981614ed4888561404e565b6144b8565b6101085492906001600160801b03841610614ef8575050505050509190565b9091939550614f09929497506144b8565b9060801c1115614f4057614f1f614f2691614ca2565b8483614fa9565b90614f3b9193614f358561459d565b91614cb3565b905090565b60046040517f6158a9f8000000000000000000000000000000000000000000000000000000008152fd5b614f809250803d10613166576131588183613b34565b3880614ec3565b819350614fa2906004923d8611613166576131588183613b34565b9290614e92565b6040516339420b4560e11b81529193926020926001600160a01b038316908481600481855afa908115614e0f57600091615143575b50614fe881613f3b565b946040519263705727b560e01b84528184600481845afa8015614e0f57600494600091615126575b50826150416150316150256101085460801c90565b6001600160801b031690565b6001600160781b03809416615160565b926040519687809263961be39160e01b82525afa8015614e0f576150799561507494600092615109575b50501690614018565b613fc8565b916001958261509a61509361508e8888613f28565b61459d565b8385614cb3565b5010614f405791905b8387106150b857505050613f5a929350613f28565b9091926150ce6150c8828961404e565b60011c90565b90836150e76150e061508e8986613f28565b8786614cb3565b50106150f75750925b91906150a3565b93965061510390614040565b956150f0565b61511f9250803d10613166576131588183613b34565b388061506b565b61513d9150833d8511613166576131588183613b34565b38615010565b61515a9150853d8711610e4657610e378183613b34565b38614fde565b9061516a91613f28565b6706f05b59d3b200008101809111613ed057670de0b6b3a7640000900490565b90929160ca549060cb5492604051957fe02a44c60000000000000000000000000000000000000000000000000000000087526001600160a01b03809216600488015216602486015260448501526064840152670de0b6b3a7640000608484015260a483015260408260c48173__$64c1823877363665b8c9607be5e0799ede$__5af49182156116be57600090819361522157509190565b905061523c91925060403d8111610ea857610e988183613b34565b9091565b9290919261524e838261472d565b831561137457610cef6152609161486e565b916001600160a01b03938482166040958651926339420b4560e11b908185526020958686600481885afa9586156153a95789966152b1936152a99260009261538a575b506153b4565b988991614cb3565b9092819516938951938385528785600481895afa94851561537f5788956000926152e19284926153675750613fc8565b991261533b575050600488518094819382525afa92831561533057613f5a94959650600093615311575050613fc8565b615328929350803d10610e4657610e378183613b34565b9038806134c6565b86513d6000823e3d90fd5b93509350600488518094819382525afa92831561533057613f5a94959650600093615311575050613fc8565b610e3f919250883d8a11610e4657610e378183613b34565b8b513d6000823e3d90fd5b6153a29192508a3d8c11610e4657610e378183613b34565b90386152a3565b8a513d6000823e3d90fd5b9060ff811660128110156153d357509061207a613f55613f5a93613ee6565b6012106153de575090565b906153ee613f55613f5a93613ebd565b90614582565b6154056001600160a01b039161486e565b1660408051917f18160ddd00000000000000000000000000000000000000000000000000000000928381526020908181600481865afa90811561550a57600091615525575b50156155155782519363705727b560e01b85528185600481865afa94851561550a576000956154e9575b508190600485518095819382525afa9283156154df57506000926154a7575b50506001600160781b03613f5a92166144b8565b81819392933d83116154d8575b6154be8183613b34565b810103126103cb5750516001600160781b03613f5a615493565b503d6154b4565b513d6000823e3d90fd5b8291955061550390823d8411613166576131588183613b34565b9490615474565b84513d6000823e3d90fd5b50505050670de0b6b3a764000090565b908282813d831161554b575b61553b8183613b34565b810103126103cb5750513861544a565b503d615531565b6155636001600160a01b039161486e565b169060409182517f99c91a640000000000000000000000000000000000000000000000000000000081526020908181600481865afa90811561568f57600091615662575b508451906339420b4560e11b82528282600481875afa908115615330576155d692600092615643575b50613f82565b845163961be39160e01b81528281600481875afa9081156153305760d2926001600160781b03613f5a9798959361561793600091615626575b501690614018565b93600052526000205490614018565b61563d9150853d8711613166576131588183613b34565b3861560f565b61565b919250843d8611610e4657610e378183613b34565b90386155d0565b908282813d8311615688575b6156788183613b34565b810103126103cb575051386155a7565b503d61566e565b85513d6000823e3d90fd5b6000198114613ed05760010190565b600090600090816156bb60ca5461459d565b60d35482915b8184106156ce5750505050565b9091929561570f6156de8861480d565b91906001600160a01b03928391549060031b1c166001600160a01b0380911660005260d46020526040600020541690565b16604080519163961be39160e01b8352602060049181858481845afa948515615858578995615837575b50819084519384809263705727b560e01b82525afa92831561582e57508792615811575b50506001600160781b03809116918215615804571661577b90614542565b9681806002998a820561578d91614526565b9061579791614582565b9182916157a391614526565b986157ad86614542565b9082056157b991614526565b906157c391614582565b6157cc916144e9565b6157d59161455f565b6157de90614502565b670de0b6b3a764000090056157f291614526565b956157fc9061569a565b9291906156c1565b505050956157fc9061569a565b6158279250803d10613166576131588183613b34565b388061575d565b513d89823e3d90fd5b8291955061585190823d8411613166576131588183613b34565b9490615739565b84513d8b823e3d90fd5b6001600160a01b03811660005260d26020526040600020548015908115615899575b501561588d5750565b615896906158a5565b50565b905060ce541138615884565b9060006001600160a01b0380931680825260d260205260409081832054948515615ad85760cd5490670de0b6b3a7640000918203828111612092576158f06158f69160cc5490614018565b88615160565b9081615a31575b505061590b60cd5487615160565b9081615920575b5050825260d2602052812055565b60ca549084519163176f358b60e21b835284600484015283602484015260448301526064820152838160848173__$64c1823877363665b8c9607be5e0799ede$__5af4908115615a08578591615a12575b50823b156112e45783519063283c3d8160e21b82526004820152848160248183875af18015615a08579085916159f4575b5050813b156118645782519062b64f3d60e51b82526004820152838160248183865af180156159e75790849115615912576159dc90613b0a565b612390578238615912565b50505051903d90823e3d90fd5b6159fd90613b0a565b6118645783386159a2565b84513d87823e3d90fd5b615a299150843d8611610ea857610e988183613b34565b905038615971565b60d05416908451906339420b4560e11b8252602082600481885afa918215614a9c5790615a6592918892615abf5750613fc8565b90833b156112f3578451639e79eaa560e01b81526001600160a01b039190911660048201526024810191909152848160448183875af18015615a0857615aac575b806158fd565b615ab890949194613b0a565b9238615aa6565b610e3f91925060203d8111610e4657610e378183613b34565b50919350505056fea264697066735822122088744df6b854ede253e768953144e4dea83939a7b3938348d715f39f2fb0893b64736f6c63430008120033",
  "libraries": {
    "CoreV3": "0x4dF91022B08C4bD9B2cE54D0799E7a9Db801df2c"
  },
  "devdoc": {
    "details": "Refer to note of `swapTokensForTokensCrossChain` for procedure of a cross-chain swap Note: All variables are 18 decimals, except from that of parameters of external functions and underlying tokens",
    "events": {
      "Initialized(uint8)": {
        "details": "Triggered when the contract has been initialized or reinitialized."
      },
      "Paused(address)": {
        "details": "Emitted when the pause is triggered by `account`."
      },
      "PausedAsset(address,address)": {
        "details": "Emitted when the pause is triggered by `account`."
      },
      "Unpaused(address)": {
        "details": "Emitted when the pause is lifted by `account`."
      },
      "UnpausedAsset(address,address)": {
        "details": "Emitted when the pause is lifted by `account`."
      }
    },
    "kind": "dev",
    "methods": {
      "addAsset(address,address)": {
        "params": {
          "asset": "The address of the Wombat Asset contract",
          "token": "The address of token"
        }
      },
      "addressOfAsset(address)": {
        "details": "to be used externally",
        "params": {
          "token": "The address of ERC20 token"
        }
      },
      "deposit(address,uint256,uint256,address,uint256,bool)": {
        "details": "Asset needs to be created and added to pool before any operation. This function assumes tax free token.",
        "params": {
          "amount": "The amount to be deposited",
          "deadline": "The deadline to be respected",
          "minimumLiquidity": "The minimum amount of liquidity to receive",
          "shouldStake": "Whether to stake LP tokens automatically after deposit",
          "to": "The user accountable for deposit, receiving the Wombat assets (lp)",
          "token": "The token address to be deposited"
        },
        "returns": {
          "liquidity": "Total asset liquidity minted"
        }
      },
      "exchangeRate(address)": {
        "params": {
          "token": "The address of the token"
        },
        "returns": {
          "xr": "The exchange rate of LP token"
        }
      },
      "isPaused(address)": {
        "details": "Function to return if the asset is paused. The return value is only useful when true. When the return value is false, the asset can be either not paused or not exist."
      },
      "mintCredit(uint256,address)": {
        "details": "This function is only for the case when `completeSwapCreditForTokens` fails, and should not be called otherwise Also, this function should work even if the pool is paused"
      },
      "mintFee(address)": {
        "params": {
          "token": "The address of the token to collect fee"
        }
      },
      "owner()": {
        "details": "Returns the address of the current owner."
      },
      "pause()": {
        "details": "pause pool, restricting certain operations"
      },
      "pauseAsset(address)": {
        "details": "pause asset, restricting deposit and swap operations"
      },
      "paused()": {
        "details": "Returns true if the contract is paused, and false otherwise."
      },
      "quoteAmountIn(address,address,int256)": {
        "details": "To be used by frontend",
        "params": {
          "fromToken": "The initial ERC20 token",
          "toAmount": "The given output amount",
          "toToken": "The token wanted by user"
        },
        "returns": {
          "amountIn": "The input amount required",
          "haircut": "The haircut that would be applied"
        }
      },
      "quotePotentialDeposit(address,uint256)": {
        "details": "To be used by frontend",
        "params": {
          "amount": "The amount to deposit",
          "token": "The token to deposit by user"
        },
        "returns": {
          "liquidity": "The potential liquidity user would receive"
        }
      },
      "quotePotentialSwap(address,address,int256)": {
        "details": "In reverse quote, the haircut is in the `fromAsset`",
        "params": {
          "fromAmount": "The given input amount",
          "fromToken": "The initial ERC20 token",
          "toToken": "The token wanted by user"
        },
        "returns": {
          "haircut": "The haircut that would be applied",
          "potentialOutcome": "The potential amount user would receive"
        }
      },
      "quotePotentialWithdraw(address,uint256)": {
        "details": "To be used by frontend",
        "params": {
          "liquidity": "The liquidity (amount of lp assets) to be withdrawn",
          "token": "The token to be withdrawn by user"
        },
        "returns": {
          "amount": "The potential amount user would receive"
        }
      },
      "quotePotentialWithdrawFromOtherAsset(address,address,uint256)": {
        "details": "take into account high cov ratio fee"
      },
      "removeAsset(address)": {
        "details": "Can only be called by owner",
        "params": {
          "token": "The address of token to remove"
        }
      },
      "renounceOwnership()": {
        "details": "Leaves the contract without owner. It will not be possible to call `onlyOwner` functions. Can only be called by the current owner. NOTE: Renouncing ownership will leave the contract without an owner, thereby disabling any functionality that is only available to the owner."
      },
      "setAmpFactor(uint256)": {
        "params": {
          "ampFactor_": "new pool's amplification factor"
        }
      },
      "setDev(address)": {
        "params": {
          "dev_": "new contract dev address"
        }
      },
      "setFeeTo(address)": {
        "params": {
          "feeTo_": "new fee beneficiary"
        }
      },
      "setHaircutRate(uint256)": {
        "params": {
          "haircutRate_": "new pool's haircutRate_"
        }
      },
      "swap(address,address,uint256,uint256,address,uint256)": {
        "details": "This function assumes tax free token.",
        "params": {
          "deadline": "The deadline to be respected",
          "fromAmount": "The amount of from token inserted",
          "fromToken": "The token being inserted into Pool by user for swap",
          "minimumToAmount": "The minimum amount that will be accepted by user as result",
          "to": "The user receiving the result of swap",
          "toToken": "The token wanted by user, leaving the Pool"
        }
      },
      "swapCreditForTokensCrossChain(address,uint256,uint256,uint256,address,uint256,uint256)": {
        "details": "Nonce must be non-zero, otherwise wormhole will revert the message Delivery fee attached to the txn should be done off-chain via `WormholeAdaptor.estimateDeliveryFee` to reduce gas cost"
      },
      "swapTokensForTokensCrossChain(address,address,uint256,uint256,uint256,uint256,address,uint256,uint256)": {
        "details": "Steps: 1. Swap `fromToken` for credit; 2. Notify relayer to bridge credit to the `toChain`; 3. Relayer invoke `completeSwapCreditForTokens` to swap credit for `toToken` in the `toChain` Delivery fee attached to the txn should be done off-chain via `WormholeAdaptor.estimateDeliveryFee` to reduce gas cost"
      },
      "transferOwnership(address)": {
        "details": "Transfers ownership of the contract to a new account (`newOwner`). Can only be called by the current owner."
      },
      "transferTipBucket(address,uint256,address)": {
        "details": "unit of amount should be in WAD"
      },
      "unpause()": {
        "details": "unpause pool, enabling certain operations"
      },
      "unpauseAsset(address)": {
        "details": "unpause asset, enabling deposit and swap operations"
      },
      "withdraw(address,uint256,uint256,address,uint256)": {
        "params": {
          "deadline": "The deadline to be respected",
          "liquidity": "The liquidity to be withdrawn",
          "minimumAmount": "The minimum amount that will be accepted by user",
          "to": "The user receiving the withdrawal",
          "token": "The token to be withdrawn"
        },
        "returns": {
          "amount": "The total amount withdrawn"
        }
      },
      "withdrawFromOtherAsset(address,address,uint256,uint256,address,uint256)": {
        "params": {
          "deadline": "The deadline to be respected",
          "fromToken": "The corresponding token user holds the LP (Asset) from",
          "liquidity": "The liquidity to be withdrawn (in fromToken decimal)",
          "minimumAmount": "The minimum amount that will be accepted by user",
          "to": "The user receiving the withdrawal",
          "toToken": "The token wanting to be withdrawn (needs to be well covered)"
        },
        "returns": {
          "toAmount": "The total amount withdrawn"
        }
      }
    },
    "title": "Mega Pool",
    "version": 1
  },
  "userdoc": {
    "errors": {
      "POOL__CREDIT_NOT_ENOUGH()": [
        {
          "notice": "Errors"
        }
      ],
      "WOMBAT_ZERO_CREDIT_AMOUNT()": [
        {
          "notice": "Errors"
        }
      ]
    },
    "events": {
      "AssetAdded(address,address)": {
        "notice": "An event thats emitted when an asset is added to Pool"
      },
      "AssetRemoved(address,address)": {
        "notice": "An event thats emitted when asset is removed from Pool"
      },
      "Deposit(address,address,uint256,uint256,address)": {
        "notice": "An event thats emitted when a deposit is made to Pool"
      },
      "SwapCreditForTokens(uint256,address,uint256,uint256,address)": {
        "notice": "Event that is emitted when credit is swapped into token"
      },
      "SwapTokensForCredit(address,address,uint256,uint256,uint256)": {
        "notice": "Event that is emitted when token is swapped into credit"
      },
      "Withdraw(address,address,uint256,uint256,address)": {
        "notice": "An event thats emitted when a withdrawal is made from Pool"
      }
    },
    "kind": "user",
    "methods": {
      "adaptor()": {
        "notice": "Storage"
      },
      "addAsset(address,address)": {
        "notice": "Adds asset to pool, reverts if asset already exists in pool"
      },
      "addressOfAsset(address)": {
        "notice": "Gets Asset corresponding to ERC20 token. Reverts if asset does not exists in Pool."
      },
      "ampFactor()": {
        "notice": "Amplification factor"
      },
      "completeSwapCreditForTokens(address,uint256,uint256,address)": {
        "notice": "Swap credit to tokens; should be called by the adaptor"
      },
      "deposit(address,uint256,uint256,address,uint256,bool)": {
        "notice": "Deposits amount of tokens into pool ensuring deadline"
      },
      "dev()": {
        "notice": "Dev address"
      },
      "exchangeRate(address)": {
        "notice": "Returns the exchange rate of the LP token"
      },
      "fillPool(address,uint256)": {
        "notice": "Move fund from tip bucket to the pool to keep r* = 1 as error accumulates unit of amount should be in WAD"
      },
      "getTokens()": {
        "notice": "Return list of tokens in the pool"
      },
      "globalEquilCovRatioWithCredit()": {
        "notice": "Calculate the r* and invariant when all credits are settled"
      },
      "haircutRate()": {
        "notice": "Haircut rate"
      },
      "initialize(uint256,uint256)": {
        "notice": "Initializes pool. Dev is set to be the account calling this function."
      },
      "lpDividendRatio()": {
        "notice": "LP dividend ratio : the ratio of haircut that should distribute to LP"
      },
      "maximumOutboundCredit()": {
        "notice": "the maximum allowed amount of net mint credit. `totalCreditMinted - totalCreditBurned` should be smaller than this value"
      },
      "mintCredit(uint256,address)": {
        "notice": "In case `completeSwapCreditForTokens` fails, adaptor should mint credit to the respective user"
      },
      "mintFee(address)": {
        "notice": "Send fee collected to the fee beneficiary"
      },
      "mintFeeThreshold()": {
        "notice": "The threshold to mint fee (unit: WAD)"
      },
      "quoteAmountIn(address,address,int256)": {
        "notice": "Returns the minimum input asset amount required to buy the given output asset amount (accounting for fees and slippage)"
      },
      "quotePotentialDeposit(address,uint256)": {
        "notice": "Quotes potential deposit from pool"
      },
      "quotePotentialSwap(address,address,int256)": {
        "notice": "Given an input asset amount and token addresses, calculates the maximum output token amount (accounting for fees and slippage)."
      },
      "quotePotentialWithdraw(address,uint256)": {
        "notice": "Quotes potential withdrawal from pool"
      },
      "quoteSwapCreditForTokens(address,uint256)": {
        "notice": "Read-only functions"
      },
      "removeAsset(address)": {
        "notice": "Removes asset from asset struct"
      },
      "retentionRatio()": {
        "notice": "Retention ratio: the ratio of haircut that should stay in the pool"
      },
      "setAmpFactor(uint256)": {
        "notice": "Changes the pools amplification factor. Can only be set by the contract owner."
      },
      "setDev(address)": {
        "notice": "Changes the contract dev. Can only be set by the contract owner."
      },
      "setFeeTo(address)": {
        "notice": "Changes the fee beneficiary. Can only be set by the contract owner. This value cannot be set to 0 to avoid unsettled fee."
      },
      "setHaircutRate(uint256)": {
        "notice": "Changes the pools haircutRate. Can only be set by the contract owner."
      },
      "setMintFeeThreshold(uint256)": {
        "notice": "Set min fee to mint"
      },
      "swap(address,address,uint256,uint256,address,uint256)": {
        "notice": "Swap fromToken for toToken, ensures deadline and minimumToAmount and sends quoted amount to `to` address"
      },
      "swapCreditForTokens(address,uint256,uint256,address)": {
        "notice": "Swap credit for tokens (same chain)"
      },
      "swapCreditForTokensCrossChain(address,uint256,uint256,uint256,address,uint256,uint256)": {
        "notice": "Bridge credit and swap it for `toToken` in the `toChain`"
      },
      "swapTokensForTokensCrossChain(address,address,uint256,uint256,uint256,uint256,address,uint256,uint256)": {
        "notice": "Initiate a cross chain swap"
      },
      "withdraw(address,uint256,uint256,address,uint256)": {
        "notice": "Withdraws liquidity amount of asset to `to` address ensuring minimum amount required"
      },
      "withdrawFromOtherAsset(address,address,uint256,uint256,address,uint256)": {
        "notice": "Enables withdrawing liquidity from an asset using LP from a different asset"
      },
      "withdrawalHaircutRate()": {
        "notice": "Withdrawal haircut rate charged at the time of withdrawal"
      }
    },
    "notice": "Mega Pool is able to handle cross-chain swaps in addition to ordinary swap within its own chain",
    "version": 1
  },
  "storageLayout": {
    "storage": [
      {
        "astId": 763,
        "contract": "contracts/wombat-core/pool/CrossChainPool.sol:CrossChainPool",
        "label": "_initialized",
        "offset": 0,
        "slot": "0",
        "type": "t_uint8"
      },
      {
        "astId": 766,
        "contract": "contracts/wombat-core/pool/CrossChainPool.sol:CrossChainPool",
        "label": "_initializing",
        "offset": 1,
        "slot": "0",
        "type": "t_bool"
      },
      {
        "astId": 1507,
        "contract": "contracts/wombat-core/pool/CrossChainPool.sol:CrossChainPool",
        "label": "__gap",
        "offset": 0,
        "slot": "1",
        "type": "t_array(t_uint256)50_storage"
      },
      {
        "astId": 635,
        "contract": "contracts/wombat-core/pool/CrossChainPool.sol:CrossChainPool",
        "label": "_owner",
        "offset": 0,
        "slot": "51",
        "type": "t_address"
      },
      {
        "astId": 755,
        "contract": "contracts/wombat-core/pool/CrossChainPool.sol:CrossChainPool",
        "label": "__gap",
        "offset": 0,
        "slot": "52",
        "type": "t_array(t_uint256)49_storage"
      },
      {
        "astId": 1066,
        "contract": "contracts/wombat-core/pool/CrossChainPool.sol:CrossChainPool",
        "label": "_status",
        "offset": 0,
        "slot": "101",
        "type": "t_uint256"
      },
      {
        "astId": 1135,
        "contract": "contracts/wombat-core/pool/CrossChainPool.sol:CrossChainPool",
        "label": "__gap",
        "offset": 0,
        "slot": "102",
        "type": "t_array(t_uint256)49_storage"
      },
      {
        "astId": 946,
        "contract": "contracts/wombat-core/pool/CrossChainPool.sol:CrossChainPool",
        "label": "_paused",
        "offset": 0,
        "slot": "151",
        "type": "t_bool"
      },
      {
        "astId": 1051,
        "contract": "contracts/wombat-core/pool/CrossChainPool.sol:CrossChainPool",
        "label": "__gap",
        "offset": 0,
        "slot": "152",
        "type": "t_array(t_uint256)49_storage"
      },
      {
        "astId": 22005,
        "contract": "contracts/wombat-core/pool/CrossChainPool.sol:CrossChainPool",
        "label": "_pausedAssets",
        "offset": 0,
        "slot": "201",
        "type": "t_mapping(t_address,t_bool)"
      },
      {
        "astId": 27705,
        "contract": "contracts/wombat-core/pool/CrossChainPool.sol:CrossChainPool",
        "label": "ampFactor",
        "offset": 0,
        "slot": "202",
        "type": "t_uint256"
      },
      {
        "astId": 27708,
        "contract": "contracts/wombat-core/pool/CrossChainPool.sol:CrossChainPool",
        "label": "haircutRate",
        "offset": 0,
        "slot": "203",
        "type": "t_uint256"
      },
      {
        "astId": 27711,
        "contract": "contracts/wombat-core/pool/CrossChainPool.sol:CrossChainPool",
        "label": "retentionRatio",
        "offset": 0,
        "slot": "204",
        "type": "t_uint256"
      },
      {
        "astId": 27714,
        "contract": "contracts/wombat-core/pool/CrossChainPool.sol:CrossChainPool",
        "label": "lpDividendRatio",
        "offset": 0,
        "slot": "205",
        "type": "t_uint256"
      },
      {
        "astId": 27717,
        "contract": "contracts/wombat-core/pool/CrossChainPool.sol:CrossChainPool",
        "label": "mintFeeThreshold",
        "offset": 0,
        "slot": "206",
        "type": "t_uint256"
      },
      {
        "astId": 27720,
        "contract": "contracts/wombat-core/pool/CrossChainPool.sol:CrossChainPool",
        "label": "dev",
        "offset": 0,
        "slot": "207",
        "type": "t_address"
      },
      {
        "astId": 27722,
        "contract": "contracts/wombat-core/pool/CrossChainPool.sol:CrossChainPool",
        "label": "feeTo",
        "offset": 0,
        "slot": "208",
        "type": "t_address"
      },
      {
        "astId": 27724,
        "contract": "contracts/wombat-core/pool/CrossChainPool.sol:CrossChainPool",
        "label": "masterWombat",
        "offset": 0,
        "slot": "209",
        "type": "t_address"
      },
      {
        "astId": 27730,
        "contract": "contracts/wombat-core/pool/CrossChainPool.sol:CrossChainPool",
        "label": "_feeCollected",
        "offset": 0,
        "slot": "210",
        "type": "t_mapping(t_contract(IAsset)12943,t_uint256)"
      },
      {
        "astId": 27734,
        "contract": "contracts/wombat-core/pool/CrossChainPool.sol:CrossChainPool",
        "label": "_assets",
        "offset": 0,
        "slot": "211",
        "type": "t_struct(AssetMap)27692_storage"
      },
      {
        "astId": 27736,
        "contract": "contracts/wombat-core/pool/CrossChainPool.sol:CrossChainPool",
        "label": "_used1",
        "offset": 0,
        "slot": "214",
        "type": "t_uint128"
      },
      {
        "astId": 27738,
        "contract": "contracts/wombat-core/pool/CrossChainPool.sol:CrossChainPool",
        "label": "_used2",
        "offset": 16,
        "slot": "214",
        "type": "t_uint128"
      },
      {
        "astId": 27741,
        "contract": "contracts/wombat-core/pool/CrossChainPool.sol:CrossChainPool",
        "label": "withdrawalHaircutRate",
        "offset": 0,
        "slot": "215",
        "type": "t_uint256"
      },
      {
        "astId": 27745,
        "contract": "contracts/wombat-core/pool/CrossChainPool.sol:CrossChainPool",
        "label": "gap",
        "offset": 0,
        "slot": "216",
        "type": "t_array(t_uint256)48_storage"
      },
      {
        "astId": 21587,
        "contract": "contracts/wombat-core/pool/CrossChainPool.sol:CrossChainPool",
        "label": "startCovRatio",
        "offset": 0,
        "slot": "264",
        "type": "t_uint128"
      },
      {
        "astId": 21589,
        "contract": "contracts/wombat-core/pool/CrossChainPool.sol:CrossChainPool",
        "label": "endCovRatio",
        "offset": 16,
        "slot": "264",
        "type": "t_uint128"
      },
      {
        "astId": 21593,
        "contract": "contracts/wombat-core/pool/CrossChainPool.sol:CrossChainPool",
        "label": "gap",
        "offset": 0,
        "slot": "265",
        "type": "t_array(t_uint256)50_storage"
      },
      {
        "astId": 19006,
        "contract": "contracts/wombat-core/pool/CrossChainPool.sol:CrossChainPool",
        "label": "adaptor",
        "offset": 0,
        "slot": "315",
        "type": "t_contract(IAdaptor)12854"
      },
      {
        "astId": 19008,
        "contract": "contracts/wombat-core/pool/CrossChainPool.sol:CrossChainPool",
        "label": "swapCreditForTokensEnabled",
        "offset": 20,
        "slot": "315",
        "type": "t_bool"
      },
      {
        "astId": 19010,
        "contract": "contracts/wombat-core/pool/CrossChainPool.sol:CrossChainPool",
        "label": "swapTokensForCreditEnabled",
        "offset": 21,
        "slot": "315",
        "type": "t_bool"
      },
      {
        "astId": 19012,
        "contract": "contracts/wombat-core/pool/CrossChainPool.sol:CrossChainPool",
        "label": "creditForTokensHaircut",
        "offset": 0,
        "slot": "316",
        "type": "t_uint128"
      },
      {
        "astId": 19014,
        "contract": "contracts/wombat-core/pool/CrossChainPool.sol:CrossChainPool",
        "label": "tokensForCreditHaircut",
        "offset": 16,
        "slot": "316",
        "type": "t_uint128"
      },
      {
        "astId": 19016,
        "contract": "contracts/wombat-core/pool/CrossChainPool.sol:CrossChainPool",
        "label": "totalCreditMinted",
        "offset": 0,
        "slot": "317",
        "type": "t_uint128"
      },
      {
        "astId": 19018,
        "contract": "contracts/wombat-core/pool/CrossChainPool.sol:CrossChainPool",
        "label": "totalCreditBurned",
        "offset": 16,
        "slot": "317",
        "type": "t_uint128"
      },
      {
        "astId": 19021,
        "contract": "contracts/wombat-core/pool/CrossChainPool.sol:CrossChainPool",
        "label": "maximumOutboundCredit",
        "offset": 0,
        "slot": "318",
        "type": "t_uint128"
      },
      {
        "astId": 19023,
        "contract": "contracts/wombat-core/pool/CrossChainPool.sol:CrossChainPool",
        "label": "maximumInboundCredit",
        "offset": 16,
        "slot": "318",
        "type": "t_uint128"
      },
      {
        "astId": 19027,
        "contract": "contracts/wombat-core/pool/CrossChainPool.sol:CrossChainPool",
        "label": "creditBalance",
        "offset": 0,
        "slot": "319",
        "type": "t_mapping(t_address,t_uint256)"
      },
      {
        "astId": 19031,
        "contract": "contracts/wombat-core/pool/CrossChainPool.sol:CrossChainPool",
        "label": "__gap",
        "offset": 0,
        "slot": "320",
        "type": "t_array(t_uint256)50_storage"
      }
    ],
    "types": {
      "t_address": {
        "encoding": "inplace",
        "label": "address",
        "numberOfBytes": "20"
      },
      "t_array(t_address)dyn_storage": {
        "base": "t_address",
        "encoding": "dynamic_array",
        "label": "address[]",
        "numberOfBytes": "32"
      },
      "t_array(t_uint256)48_storage": {
        "base": "t_uint256",
        "encoding": "inplace",
        "label": "uint256[48]",
        "numberOfBytes": "1536"
      },
      "t_array(t_uint256)49_storage": {
        "base": "t_uint256",
        "encoding": "inplace",
        "label": "uint256[49]",
        "numberOfBytes": "1568"
      },
      "t_array(t_uint256)50_storage": {
        "base": "t_uint256",
        "encoding": "inplace",
        "label": "uint256[50]",
        "numberOfBytes": "1600"
      },
      "t_bool": {
        "encoding": "inplace",
        "label": "bool",
        "numberOfBytes": "1"
      },
      "t_contract(IAdaptor)12854": {
        "encoding": "inplace",
        "label": "contract IAdaptor",
        "numberOfBytes": "20"
      },
      "t_contract(IAsset)12943": {
        "encoding": "inplace",
        "label": "contract IAsset",
        "numberOfBytes": "20"
      },
      "t_mapping(t_address,t_bool)": {
        "encoding": "mapping",
        "key": "t_address",
        "label": "mapping(address => bool)",
        "numberOfBytes": "32",
        "value": "t_bool"
      },
      "t_mapping(t_address,t_contract(IAsset)12943)": {
        "encoding": "mapping",
        "key": "t_address",
        "label": "mapping(address => contract IAsset)",
        "numberOfBytes": "32",
        "value": "t_contract(IAsset)12943"
      },
      "t_mapping(t_address,t_uint256)": {
        "encoding": "mapping",
        "key": "t_address",
        "label": "mapping(address => uint256)",
        "numberOfBytes": "32",
        "value": "t_uint256"
      },
      "t_mapping(t_contract(IAsset)12943,t_uint256)": {
        "encoding": "mapping",
        "key": "t_contract(IAsset)12943",
        "label": "mapping(contract IAsset => uint256)",
        "numberOfBytes": "32",
        "value": "t_uint256"
      },
      "t_struct(AssetMap)27692_storage": {
        "encoding": "inplace",
        "label": "struct PoolV3.AssetMap",
        "members": [
          {
            "astId": 27682,
            "contract": "contracts/wombat-core/pool/CrossChainPool.sol:CrossChainPool",
            "label": "keys",
            "offset": 0,
            "slot": "0",
            "type": "t_array(t_address)dyn_storage"
          },
          {
            "astId": 27687,
            "contract": "contracts/wombat-core/pool/CrossChainPool.sol:CrossChainPool",
            "label": "values",
            "offset": 0,
            "slot": "1",
            "type": "t_mapping(t_address,t_contract(IAsset)12943)"
          },
          {
            "astId": 27691,
            "contract": "contracts/wombat-core/pool/CrossChainPool.sol:CrossChainPool",
            "label": "indexOf",
            "offset": 0,
            "slot": "2",
            "type": "t_mapping(t_address,t_uint256)"
          }
        ],
        "numberOfBytes": "96"
      },
      "t_uint128": {
        "encoding": "inplace",
        "label": "uint128",
        "numberOfBytes": "16"
      },
      "t_uint256": {
        "encoding": "inplace",
        "label": "uint256",
        "numberOfBytes": "32"
      },
      "t_uint8": {
        "encoding": "inplace",
        "label": "uint8",
        "numberOfBytes": "1"
      }
    }
  }
}