{
  "address": "0x21581149C0e8cE7d473d93ab6c963598f6370A37",
  "abi": [
    {
      "inputs": [
        {
          "internalType": "address",
          "name": "_receipient",
          "type": "address"
        },
        {
          "internalType": "uint256",
          "name": "_totalSupply",
          "type": "uint256"
        }
      ],
      "stateMutability": "nonpayable",
      "type": "constructor"
    },
    {
      "inputs": [],
      "name": "InvalidShortString",
      "type": "error"
    },
    {
      "inputs": [
        {
          "internalType": "string",
          "name": "str",
          "type": "string"
        }
      ],
      "name": "StringTooLong",
      "type": "error"
    },
    {
      "anonymous": false,
      "inputs": [
        {
          "indexed": true,
          "internalType": "address",
          "name": "owner",
          "type": "address"
        },
        {
          "indexed": true,
          "internalType": "address",
          "name": "spender",
          "type": "address"
        },
        {
          "indexed": false,
          "internalType": "uint256",
          "name": "value",
          "type": "uint256"
        }
      ],
      "name": "Approval",
      "type": "event"
    },
    {
      "anonymous": false,
      "inputs": [],
      "name": "EIP712DomainChanged",
      "type": "event"
    },
    {
      "anonymous": false,
      "inputs": [
        {
          "indexed": true,
          "internalType": "address",
          "name": "from",
          "type": "address"
        },
        {
          "indexed": true,
          "internalType": "address",
          "name": "to",
          "type": "address"
        },
        {
          "indexed": false,
          "internalType": "uint256",
          "name": "value",
          "type": "uint256"
        }
      ],
      "name": "Transfer",
      "type": "event"
    },
    {
      "inputs": [],
      "name": "DOMAIN_SEPARATOR",
      "outputs": [
        {
          "internalType": "bytes32",
          "name": "",
          "type": "bytes32"
        }
      ],
      "stateMutability": "view",
      "type": "function"
    },
    {
      "inputs": [
        {
          "internalType": "address",
          "name": "owner",
          "type": "address"
        },
        {
          "internalType": "address",
          "name": "spender",
          "type": "address"
        }
      ],
      "name": "allowance",
      "outputs": [
        {
          "internalType": "uint256",
          "name": "",
          "type": "uint256"
        }
      ],
      "stateMutability": "view",
      "type": "function"
    },
    {
      "inputs": [
        {
          "internalType": "address",
          "name": "spender",
          "type": "address"
        },
        {
          "internalType": "uint256",
          "name": "amount",
          "type": "uint256"
        }
      ],
      "name": "approve",
      "outputs": [
        {
          "internalType": "bool",
          "name": "",
          "type": "bool"
        }
      ],
      "stateMutability": "nonpayable",
      "type": "function"
    },
    {
      "inputs": [
        {
          "internalType": "address",
          "name": "account",
          "type": "address"
        }
      ],
      "name": "balanceOf",
      "outputs": [
        {
          "internalType": "uint256",
          "name": "",
          "type": "uint256"
        }
      ],
      "stateMutability": "view",
      "type": "function"
    },
    {
      "inputs": [],
      "name": "decimals",
      "outputs": [
        {
          "internalType": "uint8",
          "name": "",
          "type": "uint8"
        }
      ],
      "stateMutability": "view",
      "type": "function"
    },
    {
      "inputs": [
        {
          "internalType": "address",
          "name": "spender",
          "type": "address"
        },
        {
          "internalType": "uint256",
          "name": "subtractedValue",
          "type": "uint256"
        }
      ],
      "name": "decreaseAllowance",
      "outputs": [
        {
          "internalType": "bool",
          "name": "",
          "type": "bool"
        }
      ],
      "stateMutability": "nonpayable",
      "type": "function"
    },
    {
      "inputs": [],
      "name": "eip712Domain",
      "outputs": [
        {
          "internalType": "bytes1",
          "name": "fields",
          "type": "bytes1"
        },
        {
          "internalType": "string",
          "name": "name",
          "type": "string"
        },
        {
          "internalType": "string",
          "name": "version",
          "type": "string"
        },
        {
          "internalType": "uint256",
          "name": "chainId",
          "type": "uint256"
        },
        {
          "internalType": "address",
          "name": "verifyingContract",
          "type": "address"
        },
        {
          "internalType": "bytes32",
          "name": "salt",
          "type": "bytes32"
        },
        {
          "internalType": "uint256[]",
          "name": "extensions",
          "type": "uint256[]"
        }
      ],
      "stateMutability": "view",
      "type": "function"
    },
    {
      "inputs": [
        {
          "internalType": "address",
          "name": "spender",
          "type": "address"
        },
        {
          "internalType": "uint256",
          "name": "addedValue",
          "type": "uint256"
        }
      ],
      "name": "increaseAllowance",
      "outputs": [
        {
          "internalType": "bool",
          "name": "",
          "type": "bool"
        }
      ],
      "stateMutability": "nonpayable",
      "type": "function"
    },
    {
      "inputs": [],
      "name": "name",
      "outputs": [
        {
          "internalType": "string",
          "name": "",
          "type": "string"
        }
      ],
      "stateMutability": "view",
      "type": "function"
    },
    {
      "inputs": [
        {
          "internalType": "address",
          "name": "owner",
          "type": "address"
        }
      ],
      "name": "nonces",
      "outputs": [
        {
          "internalType": "uint256",
          "name": "",
          "type": "uint256"
        }
      ],
      "stateMutability": "view",
      "type": "function"
    },
    {
      "inputs": [
        {
          "internalType": "address",
          "name": "owner",
          "type": "address"
        },
        {
          "internalType": "address",
          "name": "spender",
          "type": "address"
        },
        {
          "internalType": "uint256",
          "name": "value",
          "type": "uint256"
        },
        {
          "internalType": "uint256",
          "name": "deadline",
          "type": "uint256"
        },
        {
          "internalType": "uint8",
          "name": "v",
          "type": "uint8"
        },
        {
          "internalType": "bytes32",
          "name": "r",
          "type": "bytes32"
        },
        {
          "internalType": "bytes32",
          "name": "s",
          "type": "bytes32"
        }
      ],
      "name": "permit",
      "outputs": [],
      "stateMutability": "nonpayable",
      "type": "function"
    },
    {
      "inputs": [],
      "name": "symbol",
      "outputs": [
        {
          "internalType": "string",
          "name": "",
          "type": "string"
        }
      ],
      "stateMutability": "view",
      "type": "function"
    },
    {
      "inputs": [],
      "name": "totalSupply",
      "outputs": [
        {
          "internalType": "uint256",
          "name": "",
          "type": "uint256"
        }
      ],
      "stateMutability": "view",
      "type": "function"
    },
    {
      "inputs": [
        {
          "internalType": "address",
          "name": "to",
          "type": "address"
        },
        {
          "internalType": "uint256",
          "name": "amount",
          "type": "uint256"
        }
      ],
      "name": "transfer",
      "outputs": [
        {
          "internalType": "bool",
          "name": "",
          "type": "bool"
        }
      ],
      "stateMutability": "nonpayable",
      "type": "function"
    },
    {
      "inputs": [
        {
          "internalType": "address",
          "name": "from",
          "type": "address"
        },
        {
          "internalType": "address",
          "name": "to",
          "type": "address"
        },
        {
          "internalType": "uint256",
          "name": "amount",
          "type": "uint256"
        }
      ],
      "name": "transferFrom",
      "outputs": [
        {
          "internalType": "bool",
          "name": "",
          "type": "bool"
        }
      ],
      "stateMutability": "nonpayable",
      "type": "function"
    }
  ],
  "transactionHash": "0x6fdac91f682a89474d152269938d737256c8bed62fa74d32440f23dfc291a18b",
  "args": [
    "0xDB9f9Be4D6A033d622f6785BA6F8c3680dEC2452",
    "1000000000000000000000000000"
  ],
  "numDeployments": 1,
  "solcInputHash": "363cecd2023599fe1fb7650111e28756",
  "bytecode": "0x610160346200052c57601f19906001600160401b0390601f9062001a9e90388290038381018616820190858211838310176200042b57808391604095869485528339810103126200052c5780516001600160a01b03811691908290036200052c57602080910151835194620000748662000531565b600c8652828601966b2bb7b6b130ba102a37b5b2b760a11b918289528651926200009e8462000531565b600c845285840152865192620000b48462000531565b60039a8b855262574f4d60e81b878601528851809c620000d48262000531565b886001928381520193603160f81b85528051908782116200042b578254908482811c9216801562000521575b8c8310146200050b578b8289859411620004b2575b50508b908883116001146200044d5760009262000441575b505060001982841b1c191690831b1781555b8651918683116200042b5760049788548281811c9116801562000420575b8c8210146200040b5780888d9211620003be575b50508a9087851160011462000353578495509084929160009562000347575b50501b92600019911b1c19161784555b620001ab896200054d565b996101209a8b52620001bd8c62000711565b996101409a8b525190209a8b60e052519020906101009a828c524660a052885192878401917f8b73c3c69bb8fe3d512ecc4cf759cc79239f7b179b0ffacaa9a75d522b39400f83528a85015260608401524660808401523060a084015260a0835260c0830193838510908511176200033257838952825190206080523060c0528615620002f15750505060025490828201809211620002dc575060025560008381528083528481208054830190558451918252917fddf252ad1be2c89b69c2b068fc378daa952ba7f163c4a11628f55a4df523b3ef91a351916111d49384620008ca853960805184610ede015260a05184610faa015260c05184610eaf015260e05184610f2d01525183610f53015251826104e30152518161050d0152f35b601190634e487b7160e01b6000525260246000fd5b610104606493927f45524332303a206d696e7420746f20746865207a65726f206164647265737300928862461bcd60e51b865260c483015260e48201520152fd5b604185634e487b7160e01b6000525260246000fd5b01519350388062000190565b92919484169289600052848c600020948d6000905b89838310620003a557505050106200038a575b50505050811b018455620001a0565b01519060f884600019921b161c19169055388080806200037b565b8686015189559097019694850194889350018e62000368565b8a60005288826000209181880160051c830193881062000401575b0160051c019083905b828110620003f457508c915062000171565b60008155018390620003e2565b92508192620003d9565b60228a634e487b7160e01b6000525260246000fd5b90607f16906200015d565b634e487b7160e01b600052604160045260246000fd5b0151905038806200012d565b908c91878795168660005283600020936000905b8282106200049a575050841162000481575b505050811b0181556200013f565b015160001983861b60f8161c1916905538808062000473565b83850151865589979095019493840193018f62000461565b909192508460005288826000209181860160051c830193861062000501575b918791869594930160051c01915b828110620004f157508d915062000115565b60008155859450879101620004df565b92508192620004d1565b634e487b7160e01b600052602260045260246000fd5b91607f169162000100565b600080fd5b604081019081106001600160401b038211176200042b57604052565b80516020919082811015620005ec575090601f8251116200058b57808251920151908083106200057c57501790565b82600019910360031b1b161790565b90604051809263305a27a960e01b82528060048301528251908160248401526000935b828510620005d2575050604492506000838284010152601f80199101168101030190fd5b8481018201518686016044015293810193859350620005ae565b6001600160401b0381116200042b576005928354926001938481811c9116801562000706575b838210146200050b57601f8111620006cf575b5081601f841160011462000665575092829391839260009462000659575b50501b916000199060031b1c191617905560ff90565b01519250388062000643565b919083601f1981168760005284600020946000905b88838310620006b457505050106200069a575b505050811b01905560ff90565b015160001960f88460031b161c191690553880806200068d565b8587015188559096019594850194879350908101906200067a565b8560005284601f846000209201871c820191601f8601881c015b828110620006f957505062000625565b60008155018590620006e9565b90607f169062000612565b8051602090818110156200079f5750601f8251116200073e57808251920151908083106200057c57501790565b90604051809263305a27a960e01b82528060048301528251908160248401526000935b82851062000785575050604492506000838284010152601f80199101168101030190fd5b848101820151868601604401529381019385935062000761565b906001600160401b0382116200042b57600654926001938481811c91168015620008be575b838210146200050b57601f811162000884575b5081601f84116001146200081857509282939183926000946200080c575b50501b916000199060031b1c19161760065560ff90565b015192503880620007f5565b919083601f198116600660005284600020946000905b888383106200086957505050106200084f575b505050811b0160065560ff90565b015160001960f88460031b161c1916905538808062000841565b8587015188559096019594850194879350908101906200082e565b600660005284601f84600020920160051c820191601f860160051c015b828110620008b1575050620007d7565b60008155018590620008a1565b90607f1690620007c456fe608060408181526004918236101561001657600080fd5b600092833560e01c91826306fdde031461082c57508163095ea7b31461080257816318160ddd146107e357816323b872dd14610718578163313ce567146106fc5781633644e515146106d8578163395093511461067257816370a082311461063c5781637ecebe001461060557816384b0196e146104cb57816395d89b41146103dc578163a457c2d71461031b578163a9059cbb146102ea578163d505accf14610115575063dd62ed3e146100ca57600080fd5b34610111578060031936011261011157806020926100e661093d565b6100ee610958565b6001600160a01b0391821683526001865283832091168252845220549051908152f35b5080fd5b839150346101115760e03660031901126101115761013161093d565b610139610958565b906044359260643560843560ff811681036102e6578142116102a3576001600160a01b0390818516928389526007602052898920908154916001830190558a519060208201927f6e71edae12b1b97f4d1f60370fef10105fa2faae0126114a169c64845d6126c98452868d840152858a1660608401528a608084015260a083015260c082015260c0815260e0810181811067ffffffffffffffff821117610290578b5251902061023891610230916101ef610ea5565b908c51917f190100000000000000000000000000000000000000000000000000000000000083526002830152602282015260c43591604260a4359220610e16565b919091610ce4565b160361024d575061024a939450610bb0565b80f35b606490602087519162461bcd60e51b8352820152601e60248201527f45524332305065726d69743a20696e76616c6964207369676e617475726500006044820152fd5b60248b604189634e487b7160e01b835252fd5b60648360208a519162461bcd60e51b8352820152601d60248201527f45524332305065726d69743a206578706972656420646561646c696e650000006044820152fd5b8680fd5b50503461011157806003193601126101115760209061031461030a61093d565b60243590336109fc565b5160018152f35b905082346103d957826003193601126103d95761033661093d565b91836024359233815260016020528181206001600160a01b0386168252602052205490828210610370576020856103148585038733610bb0565b608490602086519162461bcd60e51b8352820152602560248201527f45524332303a2064656372656173656420616c6c6f77616e63652062656c6f7760448201527f207a65726f0000000000000000000000000000000000000000000000000000006064820152fd5b80fd5b919050346104c757826003193601126104c757805191838154906103ff8261096e565b8086529260019280841690811561049c5750600114610440575b61043c868661042a828b03836109da565b519182916020835260208301906108fd565b0390f35b815294507f8a35acfbc15ff81a39ae7d344fd709f28e8600b4aa8c65c6b64bfe7fe36bd19b5b8286106104845750505061042a82602061043c958201019438610419565b80546020878701810191909152909501948101610466565b905061043c97508693506020925061042a94915060ff191682840152151560051b8201019438610419565b8280fd5b919050346104c757826003193601126104c7576105077f0000000000000000000000000000000000000000000000000000000000000000610fd0565b926105317f00000000000000000000000000000000000000000000000000000000000000006110e4565b908251926020928385019585871067ffffffffffffffff8811176105f2575092806105a883889661059b998b9996528686528151998a997f0f000000000000000000000000000000000000000000000000000000000000008b5260e0868c015260e08b01906108fd565b91898303908a01526108fd565b924660608801523060808801528460a088015286840360c088015251928381520193925b8281106105db57505050500390f35b8351855286955093810193928101926001016105cc565b836041602492634e487b7160e01b835252fd5b50503461011157602036600319011261011157806020926001600160a01b0361062c61093d565b1681526007845220549051908152f35b50503461011157602036600319011261011157806020926001600160a01b0361066361093d565b16815280845220549051908152f35b8284346103d957816003193601126103d95761068c61093d565b33825260016020528282206001600160a01b0382168352602052828220549160243583018093116106c557602084610314858533610bb0565b80601186634e487b7160e01b6024945252fd5b5050346101115781600319360112610111576020906106f5610ea5565b9051908152f35b5050346101115781600319360112610111576020905160128152f35b839150346101115760603660031901126101115761073461093d565b61073c610958565b9184604435946001600160a01b038416815260016020528181203382526020522054906000198203610777575b6020866103148787876109fc565b8482106107a057509183916107956020969561031495033383610bb0565b919394819350610769565b606490602087519162461bcd60e51b8352820152601d60248201527f45524332303a20696e73756666696369656e7420616c6c6f77616e63650000006044820152fd5b5050346101115781600319360112610111576020906002549051908152f35b50503461011157806003193601126101115760209061031461082261093d565b6024359033610bb0565b849084346104c757826003193601126104c7578260035461084c8161096e565b808552916001918083169081156108d55750600114610878575b50505061042a8261043c9403836109da565b9450600385527fc2575a0e9e593c00f959f8c92f12db2869c3395a3b0502d05e2516446f71f85b5b8286106108bd5750505061042a82602061043c9582010194610866565b805460208787018101919091529095019481016108a0565b61043c97508693506020925061042a94915060ff191682840152151560051b82010194610866565b919082519283825260005b848110610929575050826000602080949584010152601f8019910116010190565b602081830181015184830182015201610908565b600435906001600160a01b038216820361095357565b600080fd5b602435906001600160a01b038216820361095357565b90600182811c9216801561099e575b602083101461098857565b634e487b7160e01b600052602260045260246000fd5b91607f169161097d565b6040810190811067ffffffffffffffff8211176109c457604052565b634e487b7160e01b600052604160045260246000fd5b90601f8019910116810190811067ffffffffffffffff8211176109c457604052565b6001600160a01b03809116918215610b465716918215610adc57600082815280602052604081205491808310610a7257604082827fddf252ad1be2c89b69c2b068fc378daa952ba7f163c4a11628f55a4df523b3ef958760209652828652038282205586815220818154019055604051908152a3565b608460405162461bcd60e51b815260206004820152602660248201527f45524332303a207472616e7366657220616d6f756e742065786365656473206260448201527f616c616e636500000000000000000000000000000000000000000000000000006064820152fd5b608460405162461bcd60e51b815260206004820152602360248201527f45524332303a207472616e7366657220746f20746865207a65726f206164647260448201527f65737300000000000000000000000000000000000000000000000000000000006064820152fd5b608460405162461bcd60e51b815260206004820152602560248201527f45524332303a207472616e736665722066726f6d20746865207a65726f20616460448201527f64726573730000000000000000000000000000000000000000000000000000006064820152fd5b6001600160a01b03809116918215610c7b5716918215610c115760207f8c5be1e5ebec7d5bd14f71427d1e84f3dd0314c0f7b2291e5b200ac8c7c3b925918360005260018252604060002085600052825280604060002055604051908152a3565b608460405162461bcd60e51b815260206004820152602260248201527f45524332303a20617070726f766520746f20746865207a65726f20616464726560448201527f73730000000000000000000000000000000000000000000000000000000000006064820152fd5b608460405162461bcd60e51b8152602060048201526024808201527f45524332303a20617070726f76652066726f6d20746865207a65726f2061646460448201527f72657373000000000000000000000000000000000000000000000000000000006064820152fd5b6005811015610e005780610cf55750565b60018103610d4157606460405162461bcd60e51b815260206004820152601860248201527f45434453413a20696e76616c6964207369676e617475726500000000000000006044820152fd5b60028103610d8d57606460405162461bcd60e51b815260206004820152601f60248201527f45434453413a20696e76616c6964207369676e6174757265206c656e677468006044820152fd5b600314610d9657565b608460405162461bcd60e51b815260206004820152602260248201527f45434453413a20696e76616c6964207369676e6174757265202773272076616c60448201527f75650000000000000000000000000000000000000000000000000000000000006064820152fd5b634e487b7160e01b600052602160045260246000fd5b9291907f7fffffffffffffffffffffffffffffff5d576e7357a4501ddfe92f46681b20a08311610e995791608094939160ff602094604051948552168484015260408301526060820152600093849182805260015afa15610e8c5781516001600160a01b03811615610e86579190565b50600190565b50604051903d90823e3d90fd5b50505050600090600390565b6001600160a01b037f000000000000000000000000000000000000000000000000000000000000000016301480610fa7575b15610f00577f000000000000000000000000000000000000000000000000000000000000000090565b60405160208101907f8b73c3c69bb8fe3d512ecc4cf759cc79239f7b179b0ffacaa9a75d522b39400f82527f000000000000000000000000000000000000000000000000000000000000000060408201527f000000000000000000000000000000000000000000000000000000000000000060608201524660808201523060a082015260a0815260c0810181811067ffffffffffffffff8211176109c45760405251902090565b507f00000000000000000000000000000000000000000000000000000000000000004614610ed7565b60ff81146110265760ff811690601f8211610ffc5760405191610ff2836109a8565b8252602082015290565b60046040517fb3512b0c000000000000000000000000000000000000000000000000000000008152fd5b506040516005548160006110398361096e565b808352926001908181169081156110c25750600114611063575b50611060925003826109da565b90565b6005600090815291507f036b6384b5eca791c62761152d0c79bb0604c104a5fb6f4eb0703f3154bb3db05b8483106110a75750611060935050810160200138611053565b8193509081602092548385890101520191019091849261108e565b90506020925061106094915060ff191682840152151560051b82010138611053565b60ff81146111065760ff811690601f8211610ffc5760405191610ff2836109a8565b506040516006548160006111198361096e565b808352926001908181169081156110c2575060011461113f5750611060925003826109da565b6006600090815291507ff652222313e28459528d920b65115c16c04f3efc82aaedc97be59f3f377c0d3f5b8483106111835750611060935050810160200138611053565b8193509081602092548385890101520191019091849261116a56fea2646970667358221220b6d0e5c1d045becfb98867319ffccd1c1a2cee1ddf887edb6daa165f2f9046b464736f6c63430008120033",
  "devdoc": {
    "events": {
      "Approval(address,address,uint256)": {
        "details": "Emitted when the allowance of a `spender` for an `owner` is set by a call to {approve}. `value` is the new allowance."
      },
      "EIP712DomainChanged()": {
        "details": "MAY be emitted to signal that the domain could have changed."
      },
      "Transfer(address,address,uint256)": {
        "details": "Emitted when `value` tokens are moved from one account (`from`) to another (`to`). Note that `value` may be zero."
      }
    },
    "kind": "dev",
    "methods": {
      "DOMAIN_SEPARATOR()": {
        "details": "See {IERC20Permit-DOMAIN_SEPARATOR}."
      },
      "allowance(address,address)": {
        "details": "See {IERC20-allowance}."
      },
      "approve(address,uint256)": {
        "details": "See {IERC20-approve}. NOTE: If `amount` is the maximum `uint256`, the allowance is not updated on `transferFrom`. This is semantically equivalent to an infinite approval. Requirements: - `spender` cannot be the zero address."
      },
      "balanceOf(address)": {
        "details": "See {IERC20-balanceOf}."
      },
      "decimals()": {
        "details": "Returns the number of decimals used to get its user representation. For example, if `decimals` equals `2`, a balance of `505` tokens should be displayed to a user as `5.05` (`505 / 10 ** 2`). Tokens usually opt for a value of 18, imitating the relationship between Ether and Wei. This is the default value returned by this function, unless it's overridden. NOTE: This information is only used for _display_ purposes: it in no way affects any of the arithmetic of the contract, including {IERC20-balanceOf} and {IERC20-transfer}."
      },
      "decreaseAllowance(address,uint256)": {
        "details": "Atomically decreases the allowance granted to `spender` by the caller. This is an alternative to {approve} that can be used as a mitigation for problems described in {IERC20-approve}. Emits an {Approval} event indicating the updated allowance. Requirements: - `spender` cannot be the zero address. - `spender` must have allowance for the caller of at least `subtractedValue`."
      },
      "eip712Domain()": {
        "details": "See {EIP-5267}. _Available since v4.9._"
      },
      "increaseAllowance(address,uint256)": {
        "details": "Atomically increases the allowance granted to `spender` by the caller. This is an alternative to {approve} that can be used as a mitigation for problems described in {IERC20-approve}. Emits an {Approval} event indicating the updated allowance. Requirements: - `spender` cannot be the zero address."
      },
      "name()": {
        "details": "Returns the name of the token."
      },
      "nonces(address)": {
        "details": "See {IERC20Permit-nonces}."
      },
      "permit(address,address,uint256,uint256,uint8,bytes32,bytes32)": {
        "details": "See {IERC20Permit-permit}."
      },
      "symbol()": {
        "details": "Returns the symbol of the token, usually a shorter version of the name."
      },
      "totalSupply()": {
        "details": "See {IERC20-totalSupply}."
      },
      "transfer(address,uint256)": {
        "details": "See {IERC20-transfer}. Requirements: - `to` cannot be the zero address. - the caller must have a balance of at least `amount`."
      },
      "transferFrom(address,address,uint256)": {
        "details": "See {IERC20-transferFrom}. Emits an {Approval} event indicating the updated allowance. This is not required by the EIP. See the note at the beginning of {ERC20}. NOTE: Does not update the allowance if the current allowance is the maximum `uint256`. Requirements: - `from` and `to` cannot be the zero address. - `from` must have a balance of at least `amount`. - the caller must have allowance for ``from``'s tokens of at least `amount`."
      }
    },
    "version": 1
  },
  "userdoc": {
    "kind": "user",
    "methods": {},
    "version": 1
  },
  "storageLayout": {
    "storage": [
      {
        "astId": 6156,
        "contract": "contracts/wombat-peripheral/token/WombatERC20.sol:WombatERC20",
        "label": "_balances",
        "offset": 0,
        "slot": "0",
        "type": "t_mapping(t_address,t_uint256)"
      },
      {
        "astId": 6162,
        "contract": "contracts/wombat-peripheral/token/WombatERC20.sol:WombatERC20",
        "label": "_allowances",
        "offset": 0,
        "slot": "1",
        "type": "t_mapping(t_address,t_mapping(t_address,t_uint256))"
      },
      {
        "astId": 6164,
        "contract": "contracts/wombat-peripheral/token/WombatERC20.sol:WombatERC20",
        "label": "_totalSupply",
        "offset": 0,
        "slot": "2",
        "type": "t_uint256"
      },
      {
        "astId": 6166,
        "contract": "contracts/wombat-peripheral/token/WombatERC20.sol:WombatERC20",
        "label": "_name",
        "offset": 0,
        "slot": "3",
        "type": "t_string_storage"
      },
      {
        "astId": 6168,
        "contract": "contracts/wombat-peripheral/token/WombatERC20.sol:WombatERC20",
        "label": "_symbol",
        "offset": 0,
        "slot": "4",
        "type": "t_string_storage"
      },
      {
        "astId": 8931,
        "contract": "contracts/wombat-peripheral/token/WombatERC20.sol:WombatERC20",
        "label": "_nameFallback",
        "offset": 0,
        "slot": "5",
        "type": "t_string_storage"
      },
      {
        "astId": 8933,
        "contract": "contracts/wombat-peripheral/token/WombatERC20.sol:WombatERC20",
        "label": "_versionFallback",
        "offset": 0,
        "slot": "6",
        "type": "t_string_storage"
      },
      {
        "astId": 6828,
        "contract": "contracts/wombat-peripheral/token/WombatERC20.sol:WombatERC20",
        "label": "_nonces",
        "offset": 0,
        "slot": "7",
        "type": "t_mapping(t_address,t_struct(Counter)7909_storage)"
      },
      {
        "astId": 6836,
        "contract": "contracts/wombat-peripheral/token/WombatERC20.sol:WombatERC20",
        "label": "_PERMIT_TYPEHASH_DEPRECATED_SLOT",
        "offset": 0,
        "slot": "8",
        "type": "t_bytes32"
      }
    ],
    "types": {
      "t_address": {
        "encoding": "inplace",
        "label": "address",
        "numberOfBytes": "20"
      },
      "t_bytes32": {
        "encoding": "inplace",
        "label": "bytes32",
        "numberOfBytes": "32"
      },
      "t_mapping(t_address,t_mapping(t_address,t_uint256))": {
        "encoding": "mapping",
        "key": "t_address",
        "label": "mapping(address => mapping(address => uint256))",
        "numberOfBytes": "32",
        "value": "t_mapping(t_address,t_uint256)"
      },
      "t_mapping(t_address,t_struct(Counter)7909_storage)": {
        "encoding": "mapping",
        "key": "t_address",
        "label": "mapping(address => struct Counters.Counter)",
        "numberOfBytes": "32",
        "value": "t_struct(Counter)7909_storage"
      },
      "t_mapping(t_address,t_uint256)": {
        "encoding": "mapping",
        "key": "t_address",
        "label": "mapping(address => uint256)",
        "numberOfBytes": "32",
        "value": "t_uint256"
      },
      "t_string_storage": {
        "encoding": "bytes",
        "label": "string",
        "numberOfBytes": "32"
      },
      "t_struct(Counter)7909_storage": {
        "encoding": "inplace",
        "label": "struct Counters.Counter",
        "members": [
          {
            "astId": 7908,
            "contract": "contracts/wombat-peripheral/token/WombatERC20.sol:WombatERC20",
            "label": "_value",
            "offset": 0,
            "slot": "0",
            "type": "t_uint256"
          }
        ],
        "numberOfBytes": "32"
      },
      "t_uint256": {
        "encoding": "inplace",
        "label": "uint256",
        "numberOfBytes": "32"
      }
    }
  }
}