{
  "address": "0xb7DF4A2000A116ac18f10DA9a2E418Cda22DB80f",
  "abi": [
    {
      "inputs": [],
      "name": "CORE_UNDERFLOW",
      "type": "error"
    },
    {
      "inputs": [],
      "name": "WOMBAT_AMOUNT_TOO_LOW",
      "type": "error"
    },
    {
      "inputs": [],
      "name": "WOMBAT_ASSET_ALREADY_EXIST",
      "type": "error"
    },
    {
      "inputs": [],
      "name": "WOMBAT_ASSET_ALREADY_PAUSED",
      "type": "error"
    },
    {
      "inputs": [],
      "name": "WOMBAT_ASSET_NOT_EXISTS",
      "type": "error"
    },
    {
      "inputs": [],
      "name": "WOMBAT_ASSET_NOT_PAUSED",
      "type": "error"
    },
    {
      "inputs": [],
      "name": "WOMBAT_CASH_NOT_ENOUGH",
      "type": "error"
    },
    {
      "inputs": [],
      "name": "WOMBAT_COV_RATIO_LIMIT_EXCEEDED",
      "type": "error"
    },
    {
      "inputs": [],
      "name": "WOMBAT_EXPIRED",
      "type": "error"
    },
    {
      "inputs": [],
      "name": "WOMBAT_FORBIDDEN",
      "type": "error"
    },
    {
      "inputs": [],
      "name": "WOMBAT_INVALID_VALUE",
      "type": "error"
    },
    {
      "inputs": [],
      "name": "WOMBAT_SAME_ADDRESS",
      "type": "error"
    },
    {
      "inputs": [],
      "name": "WOMBAT_ZERO_ADDRESS",
      "type": "error"
    },
    {
      "inputs": [],
      "name": "WOMBAT_ZERO_AMOUNT",
      "type": "error"
    },
    {
      "inputs": [],
      "name": "WOMBAT_ZERO_LIQUIDITY",
      "type": "error"
    },
    {
      "anonymous": false,
      "inputs": [
        {
          "indexed": true,
          "internalType": "address",
          "name": "token",
          "type": "address"
        },
        {
          "indexed": true,
          "internalType": "address",
          "name": "asset",
          "type": "address"
        }
      ],
      "name": "AssetAdded",
      "type": "event"
    },
    {
      "anonymous": false,
      "inputs": [
        {
          "indexed": true,
          "internalType": "address",
          "name": "token",
          "type": "address"
        },
        {
          "indexed": true,
          "internalType": "address",
          "name": "asset",
          "type": "address"
        }
      ],
      "name": "AssetRemoved",
      "type": "event"
    },
    {
      "anonymous": false,
      "inputs": [
        {
          "indexed": true,
          "internalType": "address",
          "name": "sender",
          "type": "address"
        },
        {
          "indexed": false,
          "internalType": "address",
          "name": "token",
          "type": "address"
        },
        {
          "indexed": false,
          "internalType": "uint256",
          "name": "amount",
          "type": "uint256"
        },
        {
          "indexed": false,
          "internalType": "uint256",
          "name": "liquidity",
          "type": "uint256"
        },
        {
          "indexed": true,
          "internalType": "address",
          "name": "to",
          "type": "address"
        }
      ],
      "name": "Deposit",
      "type": "event"
    },
    {
      "anonymous": false,
      "inputs": [
        {
          "indexed": false,
          "internalType": "address",
          "name": "token",
          "type": "address"
        },
        {
          "indexed": false,
          "internalType": "uint256",
          "name": "amount",
          "type": "uint256"
        }
      ],
      "name": "FillPool",
      "type": "event"
    },
    {
      "anonymous": false,
      "inputs": [
        {
          "indexed": false,
          "internalType": "uint8",
          "name": "version",
          "type": "uint8"
        }
      ],
      "name": "Initialized",
      "type": "event"
    },
    {
      "anonymous": false,
      "inputs": [
        {
          "indexed": true,
          "internalType": "address",
          "name": "previousOwner",
          "type": "address"
        },
        {
          "indexed": true,
          "internalType": "address",
          "name": "newOwner",
          "type": "address"
        }
      ],
      "name": "OwnershipTransferred",
      "type": "event"
    },
    {
      "anonymous": false,
      "inputs": [
        {
          "indexed": false,
          "internalType": "address",
          "name": "account",
          "type": "address"
        }
      ],
      "name": "Paused",
      "type": "event"
    },
    {
      "anonymous": false,
      "inputs": [
        {
          "indexed": false,
          "internalType": "address",
          "name": "asset",
          "type": "address"
        },
        {
          "indexed": false,
          "internalType": "address",
          "name": "account",
          "type": "address"
        }
      ],
      "name": "PausedAsset",
      "type": "event"
    },
    {
      "anonymous": false,
      "inputs": [
        {
          "indexed": false,
          "internalType": "uint256",
          "name": "value",
          "type": "uint256"
        }
      ],
      "name": "SetAmpFactor",
      "type": "event"
    },
    {
      "anonymous": false,
      "inputs": [
        {
          "indexed": false,
          "internalType": "address",
          "name": "addr",
          "type": "address"
        }
      ],
      "name": "SetDev",
      "type": "event"
    },
    {
      "anonymous": false,
      "inputs": [
        {
          "indexed": false,
          "internalType": "uint256",
          "name": "lpDividendRatio",
          "type": "uint256"
        },
        {
          "indexed": false,
          "internalType": "uint256",
          "name": "retentionRatio",
          "type": "uint256"
        }
      ],
      "name": "SetFee",
      "type": "event"
    },
    {
      "anonymous": false,
      "inputs": [
        {
          "indexed": false,
          "internalType": "address",
          "name": "addr",
          "type": "address"
        }
      ],
      "name": "SetFeeTo",
      "type": "event"
    },
    {
      "anonymous": false,
      "inputs": [
        {
          "indexed": false,
          "internalType": "uint256",
          "name": "value",
          "type": "uint256"
        }
      ],
      "name": "SetHaircutRate",
      "type": "event"
    },
    {
      "anonymous": false,
      "inputs": [
        {
          "indexed": false,
          "internalType": "address",
          "name": "addr",
          "type": "address"
        }
      ],
      "name": "SetMasterWombat",
      "type": "event"
    },
    {
      "anonymous": false,
      "inputs": [
        {
          "indexed": false,
          "internalType": "uint256",
          "name": "value",
          "type": "uint256"
        }
      ],
      "name": "SetMintFeeThreshold",
      "type": "event"
    },
    {
      "anonymous": false,
      "inputs": [
        {
          "indexed": true,
          "internalType": "address",
          "name": "sender",
          "type": "address"
        },
        {
          "indexed": false,
          "internalType": "address",
          "name": "fromToken",
          "type": "address"
        },
        {
          "indexed": false,
          "internalType": "address",
          "name": "toToken",
          "type": "address"
        },
        {
          "indexed": false,
          "internalType": "uint256",
          "name": "fromAmount",
          "type": "uint256"
        },
        {
          "indexed": false,
          "internalType": "uint256",
          "name": "toAmount",
          "type": "uint256"
        },
        {
          "indexed": true,
          "internalType": "address",
          "name": "to",
          "type": "address"
        }
      ],
      "name": "Swap",
      "type": "event"
    },
    {
      "anonymous": false,
      "inputs": [
        {
          "indexed": false,
          "internalType": "address",
          "name": "token",
          "type": "address"
        },
        {
          "indexed": false,
          "internalType": "uint256",
          "name": "amount",
          "type": "uint256"
        },
        {
          "indexed": false,
          "internalType": "address",
          "name": "to",
          "type": "address"
        }
      ],
      "name": "TransferTipBucket",
      "type": "event"
    },
    {
      "anonymous": false,
      "inputs": [
        {
          "indexed": false,
          "internalType": "address",
          "name": "account",
          "type": "address"
        }
      ],
      "name": "Unpaused",
      "type": "event"
    },
    {
      "anonymous": false,
      "inputs": [
        {
          "indexed": false,
          "internalType": "address",
          "name": "asset",
          "type": "address"
        },
        {
          "indexed": false,
          "internalType": "address",
          "name": "account",
          "type": "address"
        }
      ],
      "name": "UnpausedAsset",
      "type": "event"
    },
    {
      "anonymous": false,
      "inputs": [
        {
          "indexed": true,
          "internalType": "address",
          "name": "sender",
          "type": "address"
        },
        {
          "indexed": false,
          "internalType": "address",
          "name": "token",
          "type": "address"
        },
        {
          "indexed": false,
          "internalType": "uint256",
          "name": "amount",
          "type": "uint256"
        },
        {
          "indexed": false,
          "internalType": "uint256",
          "name": "liquidity",
          "type": "uint256"
        },
        {
          "indexed": true,
          "internalType": "address",
          "name": "to",
          "type": "address"
        }
      ],
      "name": "Withdraw",
      "type": "event"
    },
    {
      "inputs": [
        {
          "internalType": "address",
          "name": "token",
          "type": "address"
        },
        {
          "internalType": "address",
          "name": "asset",
          "type": "address"
        }
      ],
      "name": "addAsset",
      "outputs": [],
      "stateMutability": "nonpayable",
      "type": "function"
    },
    {
      "inputs": [
        {
          "internalType": "address",
          "name": "token",
          "type": "address"
        }
      ],
      "name": "addressOfAsset",
      "outputs": [
        {
          "internalType": "address",
          "name": "",
          "type": "address"
        }
      ],
      "stateMutability": "view",
      "type": "function"
    },
    {
      "inputs": [],
      "name": "ampFactor",
      "outputs": [
        {
          "internalType": "uint256",
          "name": "",
          "type": "uint256"
        }
      ],
      "stateMutability": "view",
      "type": "function"
    },
    {
      "inputs": [
        {
          "internalType": "address",
          "name": "token",
          "type": "address"
        },
        {
          "internalType": "uint256",
          "name": "amount",
          "type": "uint256"
        },
        {
          "internalType": "uint256",
          "name": "minimumLiquidity",
          "type": "uint256"
        },
        {
          "internalType": "address",
          "name": "to",
          "type": "address"
        },
        {
          "internalType": "uint256",
          "name": "deadline",
          "type": "uint256"
        },
        {
          "internalType": "bool",
          "name": "shouldStake",
          "type": "bool"
        }
      ],
      "name": "deposit",
      "outputs": [
        {
          "internalType": "uint256",
          "name": "liquidity",
          "type": "uint256"
        }
      ],
      "stateMutability": "nonpayable",
      "type": "function"
    },
    {
      "inputs": [],
      "name": "dev",
      "outputs": [
        {
          "internalType": "address",
          "name": "",
          "type": "address"
        }
      ],
      "stateMutability": "view",
      "type": "function"
    },
    {
      "inputs": [],
      "name": "endCovRatio",
      "outputs": [
        {
          "internalType": "uint128",
          "name": "",
          "type": "uint128"
        }
      ],
      "stateMutability": "view",
      "type": "function"
    },
    {
      "inputs": [
        {
          "internalType": "address",
          "name": "token",
          "type": "address"
        }
      ],
      "name": "exchangeRate",
      "outputs": [
        {
          "internalType": "uint256",
          "name": "xr",
          "type": "uint256"
        }
      ],
      "stateMutability": "view",
      "type": "function"
    },
    {
      "inputs": [],
      "name": "feeTo",
      "outputs": [
        {
          "internalType": "address",
          "name": "",
          "type": "address"
        }
      ],
      "stateMutability": "view",
      "type": "function"
    },
    {
      "inputs": [
        {
          "internalType": "address",
          "name": "token",
          "type": "address"
        },
        {
          "internalType": "uint256",
          "name": "amount",
          "type": "uint256"
        }
      ],
      "name": "fillPool",
      "outputs": [],
      "stateMutability": "nonpayable",
      "type": "function"
    },
    {
      "inputs": [],
      "name": "getTokens",
      "outputs": [
        {
          "internalType": "address[]",
          "name": "",
          "type": "address[]"
        }
      ],
      "stateMutability": "view",
      "type": "function"
    },
    {
      "inputs": [],
      "name": "globalEquilCovRatio",
      "outputs": [
        {
          "internalType": "uint256",
          "name": "equilCovRatio",
          "type": "uint256"
        },
        {
          "internalType": "uint256",
          "name": "invariantInUint",
          "type": "uint256"
        }
      ],
      "stateMutability": "view",
      "type": "function"
    },
    {
      "inputs": [],
      "name": "haircutRate",
      "outputs": [
        {
          "internalType": "uint256",
          "name": "",
          "type": "uint256"
        }
      ],
      "stateMutability": "view",
      "type": "function"
    },
    {
      "inputs": [
        {
          "internalType": "uint256",
          "name": "ampFactor_",
          "type": "uint256"
        },
        {
          "internalType": "uint256",
          "name": "haircutRate_",
          "type": "uint256"
        }
      ],
      "name": "initialize",
      "outputs": [],
      "stateMutability": "nonpayable",
      "type": "function"
    },
    {
      "inputs": [],
      "name": "lpDividendRatio",
      "outputs": [
        {
          "internalType": "uint256",
          "name": "",
          "type": "uint256"
        }
      ],
      "stateMutability": "view",
      "type": "function"
    },
    {
      "inputs": [],
      "name": "masterWombat",
      "outputs": [
        {
          "internalType": "address",
          "name": "",
          "type": "address"
        }
      ],
      "stateMutability": "view",
      "type": "function"
    },
    {
      "inputs": [
        {
          "internalType": "address",
          "name": "token",
          "type": "address"
        }
      ],
      "name": "mintFee",
      "outputs": [
        {
          "internalType": "uint256",
          "name": "feeCollected",
          "type": "uint256"
        }
      ],
      "stateMutability": "nonpayable",
      "type": "function"
    },
    {
      "inputs": [],
      "name": "mintFeeThreshold",
      "outputs": [
        {
          "internalType": "uint256",
          "name": "",
          "type": "uint256"
        }
      ],
      "stateMutability": "view",
      "type": "function"
    },
    {
      "inputs": [],
      "name": "owner",
      "outputs": [
        {
          "internalType": "address",
          "name": "",
          "type": "address"
        }
      ],
      "stateMutability": "view",
      "type": "function"
    },
    {
      "inputs": [],
      "name": "pause",
      "outputs": [],
      "stateMutability": "nonpayable",
      "type": "function"
    },
    {
      "inputs": [
        {
          "internalType": "address",
          "name": "token",
          "type": "address"
        }
      ],
      "name": "pauseAsset",
      "outputs": [],
      "stateMutability": "nonpayable",
      "type": "function"
    },
    {
      "inputs": [],
      "name": "paused",
      "outputs": [
        {
          "internalType": "bool",
          "name": "",
          "type": "bool"
        }
      ],
      "stateMutability": "view",
      "type": "function"
    },
    {
      "inputs": [
        {
          "internalType": "address",
          "name": "fromToken",
          "type": "address"
        },
        {
          "internalType": "address",
          "name": "toToken",
          "type": "address"
        },
        {
          "internalType": "int256",
          "name": "toAmount",
          "type": "int256"
        }
      ],
      "name": "quoteAmountIn",
      "outputs": [
        {
          "internalType": "uint256",
          "name": "amountIn",
          "type": "uint256"
        },
        {
          "internalType": "uint256",
          "name": "haircut",
          "type": "uint256"
        }
      ],
      "stateMutability": "view",
      "type": "function"
    },
    {
      "inputs": [
        {
          "internalType": "address",
          "name": "token",
          "type": "address"
        },
        {
          "internalType": "uint256",
          "name": "amount",
          "type": "uint256"
        }
      ],
      "name": "quotePotentialDeposit",
      "outputs": [
        {
          "internalType": "uint256",
          "name": "liquidity",
          "type": "uint256"
        },
        {
          "internalType": "uint256",
          "name": "reward",
          "type": "uint256"
        }
      ],
      "stateMutability": "view",
      "type": "function"
    },
    {
      "inputs": [
        {
          "internalType": "address",
          "name": "fromToken",
          "type": "address"
        },
        {
          "internalType": "address",
          "name": "toToken",
          "type": "address"
        },
        {
          "internalType": "int256",
          "name": "fromAmount",
          "type": "int256"
        }
      ],
      "name": "quotePotentialSwap",
      "outputs": [
        {
          "internalType": "uint256",
          "name": "potentialOutcome",
          "type": "uint256"
        },
        {
          "internalType": "uint256",
          "name": "haircut",
          "type": "uint256"
        }
      ],
      "stateMutability": "view",
      "type": "function"
    },
    {
      "inputs": [
        {
          "internalType": "address",
          "name": "token",
          "type": "address"
        },
        {
          "internalType": "uint256",
          "name": "liquidity",
          "type": "uint256"
        }
      ],
      "name": "quotePotentialWithdraw",
      "outputs": [
        {
          "internalType": "uint256",
          "name": "amount",
          "type": "uint256"
        },
        {
          "internalType": "uint256",
          "name": "fee",
          "type": "uint256"
        }
      ],
      "stateMutability": "view",
      "type": "function"
    },
    {
      "inputs": [
        {
          "internalType": "address",
          "name": "fromToken",
          "type": "address"
        },
        {
          "internalType": "address",
          "name": "toToken",
          "type": "address"
        },
        {
          "internalType": "uint256",
          "name": "liquidity",
          "type": "uint256"
        }
      ],
      "name": "quotePotentialWithdrawFromOtherAsset",
      "outputs": [
        {
          "internalType": "uint256",
          "name": "amount",
          "type": "uint256"
        },
        {
          "internalType": "uint256",
          "name": "withdrewAmount",
          "type": "uint256"
        }
      ],
      "stateMutability": "view",
      "type": "function"
    },
    {
      "inputs": [
        {
          "internalType": "address",
          "name": "token",
          "type": "address"
        }
      ],
      "name": "removeAsset",
      "outputs": [],
      "stateMutability": "nonpayable",
      "type": "function"
    },
    {
      "inputs": [],
      "name": "renounceOwnership",
      "outputs": [],
      "stateMutability": "nonpayable",
      "type": "function"
    },
    {
      "inputs": [],
      "name": "retentionRatio",
      "outputs": [
        {
          "internalType": "uint256",
          "name": "",
          "type": "uint256"
        }
      ],
      "stateMutability": "view",
      "type": "function"
    },
    {
      "inputs": [
        {
          "internalType": "uint256",
          "name": "ampFactor_",
          "type": "uint256"
        }
      ],
      "name": "setAmpFactor",
      "outputs": [],
      "stateMutability": "nonpayable",
      "type": "function"
    },
    {
      "inputs": [
        {
          "internalType": "uint128",
          "name": "startCovRatio_",
          "type": "uint128"
        },
        {
          "internalType": "uint128",
          "name": "endCovRatio_",
          "type": "uint128"
        }
      ],
      "name": "setCovRatioFeeParam",
      "outputs": [],
      "stateMutability": "nonpayable",
      "type": "function"
    },
    {
      "inputs": [
        {
          "internalType": "address",
          "name": "dev_",
          "type": "address"
        }
      ],
      "name": "setDev",
      "outputs": [],
      "stateMutability": "nonpayable",
      "type": "function"
    },
    {
      "inputs": [
        {
          "internalType": "uint256",
          "name": "lpDividendRatio_",
          "type": "uint256"
        },
        {
          "internalType": "uint256",
          "name": "retentionRatio_",
          "type": "uint256"
        }
      ],
      "name": "setFee",
      "outputs": [],
      "stateMutability": "nonpayable",
      "type": "function"
    },
    {
      "inputs": [
        {
          "internalType": "address",
          "name": "feeTo_",
          "type": "address"
        }
      ],
      "name": "setFeeTo",
      "outputs": [],
      "stateMutability": "nonpayable",
      "type": "function"
    },
    {
      "inputs": [
        {
          "internalType": "uint256",
          "name": "haircutRate_",
          "type": "uint256"
        }
      ],
      "name": "setHaircutRate",
      "outputs": [],
      "stateMutability": "nonpayable",
      "type": "function"
    },
    {
      "inputs": [
        {
          "internalType": "address",
          "name": "masterWombat_",
          "type": "address"
        }
      ],
      "name": "setMasterWombat",
      "outputs": [],
      "stateMutability": "nonpayable",
      "type": "function"
    },
    {
      "inputs": [
        {
          "internalType": "uint256",
          "name": "mintFeeThreshold_",
          "type": "uint256"
        }
      ],
      "name": "setMintFeeThreshold",
      "outputs": [],
      "stateMutability": "nonpayable",
      "type": "function"
    },
    {
      "inputs": [],
      "name": "startCovRatio",
      "outputs": [
        {
          "internalType": "uint128",
          "name": "",
          "type": "uint128"
        }
      ],
      "stateMutability": "view",
      "type": "function"
    },
    {
      "inputs": [
        {
          "internalType": "address",
          "name": "fromToken",
          "type": "address"
        },
        {
          "internalType": "address",
          "name": "toToken",
          "type": "address"
        },
        {
          "internalType": "uint256",
          "name": "fromAmount",
          "type": "uint256"
        },
        {
          "internalType": "uint256",
          "name": "minimumToAmount",
          "type": "uint256"
        },
        {
          "internalType": "address",
          "name": "to",
          "type": "address"
        },
        {
          "internalType": "uint256",
          "name": "deadline",
          "type": "uint256"
        }
      ],
      "name": "swap",
      "outputs": [
        {
          "internalType": "uint256",
          "name": "actualToAmount",
          "type": "uint256"
        },
        {
          "internalType": "uint256",
          "name": "haircut",
          "type": "uint256"
        }
      ],
      "stateMutability": "nonpayable",
      "type": "function"
    },
    {
      "inputs": [
        {
          "internalType": "address",
          "name": "token",
          "type": "address"
        }
      ],
      "name": "tipBucketBalance",
      "outputs": [
        {
          "internalType": "uint256",
          "name": "balance",
          "type": "uint256"
        }
      ],
      "stateMutability": "view",
      "type": "function"
    },
    {
      "inputs": [
        {
          "internalType": "address",
          "name": "newOwner",
          "type": "address"
        }
      ],
      "name": "transferOwnership",
      "outputs": [],
      "stateMutability": "nonpayable",
      "type": "function"
    },
    {
      "inputs": [
        {
          "internalType": "address",
          "name": "token",
          "type": "address"
        },
        {
          "internalType": "uint256",
          "name": "amount",
          "type": "uint256"
        },
        {
          "internalType": "address",
          "name": "to",
          "type": "address"
        }
      ],
      "name": "transferTipBucket",
      "outputs": [],
      "stateMutability": "nonpayable",
      "type": "function"
    },
    {
      "inputs": [],
      "name": "unpause",
      "outputs": [],
      "stateMutability": "nonpayable",
      "type": "function"
    },
    {
      "inputs": [
        {
          "internalType": "address",
          "name": "token",
          "type": "address"
        }
      ],
      "name": "unpauseAsset",
      "outputs": [],
      "stateMutability": "nonpayable",
      "type": "function"
    },
    {
      "inputs": [
        {
          "internalType": "address",
          "name": "token",
          "type": "address"
        },
        {
          "internalType": "uint256",
          "name": "liquidity",
          "type": "uint256"
        },
        {
          "internalType": "uint256",
          "name": "minimumAmount",
          "type": "uint256"
        },
        {
          "internalType": "address",
          "name": "to",
          "type": "address"
        },
        {
          "internalType": "uint256",
          "name": "deadline",
          "type": "uint256"
        }
      ],
      "name": "withdraw",
      "outputs": [
        {
          "internalType": "uint256",
          "name": "amount",
          "type": "uint256"
        }
      ],
      "stateMutability": "nonpayable",
      "type": "function"
    },
    {
      "inputs": [
        {
          "internalType": "address",
          "name": "fromToken",
          "type": "address"
        },
        {
          "internalType": "address",
          "name": "toToken",
          "type": "address"
        },
        {
          "internalType": "uint256",
          "name": "liquidity",
          "type": "uint256"
        },
        {
          "internalType": "uint256",
          "name": "minimumAmount",
          "type": "uint256"
        },
        {
          "internalType": "address",
          "name": "to",
          "type": "address"
        },
        {
          "internalType": "uint256",
          "name": "deadline",
          "type": "uint256"
        }
      ],
      "name": "withdrawFromOtherAsset",
      "outputs": [
        {
          "internalType": "uint256",
          "name": "toAmount",
          "type": "uint256"
        }
      ],
      "stateMutability": "nonpayable",
      "type": "function"
    }
  ],
  "transactionHash": "0x9c3e9eac30d7c5163272743ad6ed94b8e229f09e916432b7e533c6ab5418c3e9",
  "args": [],
  "numDeployments": 1,
  "solcInputHash": "99848f8bf0cf37f74aa6a6ec6bd03e59",
  "bytecode": "0x6080806040523461001657614e15908161001c8239f35b600080fdfe608080604052600436101561001357600080fd5b600090813560e01c908163017b82921461297a57508063017e7e58146129535780630705999d146128e0578063070f81d9146126ed57806309a5fca3146122e15780630f91f06f14611ede5780633753b14a14611e565780633bd61ba814611e2f5780633f4ba83a14611d925780634a5e42b114611c305780634a6fee0e14611b9c5780634fdd64e514611b8857806352f7c98814611acc5780635c975abb14611aa95780635cfe092e14611a8b57806361858e23146119f15780636281baef1461168d5780636922d5ca1461166f578063715018a61461161357806374cbbdb9146115f1578063815bfd29146115d35780638456cb59146115785780638a2dfe09146113235780638da5cb5b146112fc578063907448ed1461126f57806391cca3db1461124857806393aeea02146110f55780639908fc8b14610ea45780639abacb4114610dde5780639e4416b714610d80578063a4275ceb14610960578063aa6ca8081461089a578063d043c5651461084c578063d0dd0e561461082e578063d30ffeda1461080a578063d477f05f14610797578063da48999714610653578063dc3b7c8b1461062f578063e4a301161461047c578063e9249cc71461044c578063f2fde38b146103a5578063f46901ed14610332578063f57e84d5146102aa578063f8b49e7214610276578063fb7f5cc21461024e5763fca8f3081461021b57600080fd5b3461024b57604061023f61023961023136612a21565b9290926137b6565b9161477c565b82519182526020820152f35b80fd5b503461024b578060031936011261024b5760206001600160801b036101085416604051908152f35b503461024b57602036600319011261024b5760206102a261029d610298612996565b612ff3565b614c0c565b604051908152f35b503461024b57602036600319011261024b576004356102c7612a6c565b670de0b6b3a76400008111610308576020817fc6e60196bbe5909add58d5ae8a27082013670bce0855321773c33085af5c32439260cb55604051908152a180f35b60046040517f12b019e1000000000000000000000000000000000000000000000000000000008152fd5b503461024b57602036600319011261024b577ff6b59ffc88fbb27f33470b919e00b41139ee340eb349521f0cbbc1504ce29c3e60206001600160a01b03610377612996565b61037f612a6c565b61038881612e92565b16806001600160a01b031960d054161760d055604051908152a180f35b503461024b57602036600319011261024b576103bf612996565b6103c7612a6c565b6001600160a01b038116156103e2576103df90612ac4565b80f35b608460405162461bcd60e51b815260206004820152602660248201527f4f776e61626c653a206e6577206f776e657220697320746865207a65726f206160448201527f64647265737300000000000000000000000000000000000000000000000000006064820152fd5b503461024b57602036600319011261024b5760206001600160a01b03610473610298612996565b16604051908152f35b503461024b5761048b36612a56565b9082549160ff8360081c161591828093610622575b801561060b575b156105a15760ff1984811660011786559383610590575b506104d860ff865460081c166104d381612dd4565b612dd4565b6104e133612ac4565b84549361050160ff8660081c166104f781612dd4565b6001606555612dd4565b6097541660975560ca5560cb55670de0b6b3a764000060cd55336001600160a01b031960cf54161760cf55610558575b506101087718fae27693b40000000000000000000014d1120d7b1600008282541617905580f35b61ff00191681557f7f26b83ff96e1f2b6a682f133852f6798a09c465da95921460cefb3847402498602060405160018152a138610531565b61ffff1916610101178555386104be565b608460405162461bcd60e51b815260206004820152602e60248201527f496e697469616c697a61626c653a20636f6e747261637420697320616c72656160448201527f647920696e697469616c697a65640000000000000000000000000000000000006064820152fd5b50303b1580156104a75750600160ff8516146104a7565b50600160ff8516106104a0565b503461024b57602036600319011261024b5760206102a261064e612996565b61493d565b503461024b57604036600319011261024b5761066d612996565b6106756129c2565b61067d612a6c565b61068681612e92565b61068f82612e92565b6106b2826001600160a01b0380911660005260d460205260406000205416151590565b61076d576001600160a01b03809116911680835260d460205260408320826001600160a01b031982541617905560d35460d5602052806040852055680100000000000000008110156107595761073061071282600185940160d355612e45565b819391549060031b916001600160a01b03809116831b921b19161790565b90557f0bb5715f0f217c2fe9a0c877ea87d474380c641102f3440ee2a4c8b9d97909188380a380f35b602484634e487b7160e01b81526041600452fd5b60046040517f8991c4c4000000000000000000000000000000000000000000000000000000008152fd5b503461024b57602036600319011261024b577f8daa6bb00de042a7d51816fcee4a3d5c1e91a2128fd64fa1a9a38afa0d26beb560206001600160a01b036107dc612996565b6107e4612a6c565b6107ed81612e92565b16806001600160a01b031960cf54161760cf55604051908152a180f35b503461024b57602036600319011261024b5760206102a2610829612996565b614a91565b503461024b578060031936011261024b57602060cb54604051908152f35b503461024b57602036600319011261024b577f935ce123b6388f8dbf76890f8240a48198f1e0a884f26939aa604a46bb65b706602060043561088c612a6c565b8060ce55604051908152a180f35b503461024b578060031936011261024b57604051809160d354908183526020809301809260d383527f915c3eb987b20e1af620c1403197bf687fb7f18513b3a73fde6e78c7072c41a690835b81811061094357505050846108fc910385612b36565b60405193838594850191818652518092526040850193925b82811061092357505050500390f35b83516001600160a01b031685528695509381019392810192600101610914565b82546001600160a01b0316845292860192600192830192016108e6565b503461024b57606036600319011261024b5761097a612996565b6109826129c2565b61098d604435612d65565b6109978183612d96565b6109a082612ff3565b91836109ab83612ff3565b6109b760443586613a18565b5050948560405163961be39160e01b81526020816004816001600160a01b0387165afa8015610d1a576001600160781b0383916109fc938891610cda575b5016612b77565b9060405163705727b560e01b81526020816004816001600160a01b0388165afa8015610c6b57610a458691610a4b938991610ca0575b506001600160781b036044359116612b77565b94613e4a565b670de0b6b3a764000090818103610d50575b5050506040519263961be39160e01b84526020846004816001600160a01b0385165afa938415610d1a578594610d25575b5060206001600160a01b039160046040518094819363705727b560e01b8352165afa8015610d1a5788610b0595610aff95610aff95610aed956001600160a01b039a95610cf9575b506001600160781b038060ca549616931690613cbe565b610af960cb5482612bf3565b90612b77565b93612ff3565b92169260405163961be39160e01b8152602081600481885afa8015610c6b576001600160781b038391610b3f938991610cda575016612b77565b60405163705727b560e01b8152602081600481895afa8015610ccf57610b78918891610ca057506001600160781b036044359116612b77565b610b8b81610b868585612b9a565b612c1d565b916001600160801b0361010854168311610c76575b505050604051926020846004816339420b4560e11b988982525afa918215610c6b57610be16020936004926001600160a01b03978a92610c53575b50612c86565b9560405195869384928352165afa918215610c485790610c0a929160409592610c175750612c86565b9082519182526020820152f35b610c3a91925060203d602011610c41575b610c328183612b36565b810190612ba7565b9038610bdb565b503d610c28565b6040513d86823e3d90fd5b610c3a919250863d8811610c4157610c328183612b36565b6040513d88823e3d90fd5b93610c928193610c8d610af994610c979798612c1d565b612cd1565b612bf3565b90388080610ba0565b610cc2915060203d602011610cc8575b610cba8183612b36565b810190612b58565b38610a32565b503d610cb0565b6040513d89823e3d90fd5b610cf3915060203d602011610cc857610cba8183612b36565b386109f5565b610d1391955060203d602011610cc857610cba8183612b36565b9338610ad6565b6040513d87823e3d90fd5b6001600160a01b03919450610d48602091823d8411610cc857610cba8183612b36565b949150610a8e565b90610d7692949950610d6f8282610d68828298612bc0565b049b612bc0565b0493612bc0565b0495388080610a5d565b503461024b57602036600319011261024b57600435610d9d612a6c565b670de0b6b3a76400008111610308576020817f294c562dcfcd9be941287844539aeba4ae641cd1fc9a2883337c6b2e87cbd98a9260ca55604051908152a180f35b503461024b57602036600319011261024b57610df8612996565b610e00612f1c565b6001600160a01b03811680835260c960205260ff60408420541615610e7a57825260c960209081526040808420805460ff1916905580516001600160a01b03909316835233918301919091527fdb198487a4c70aa000c3b1020f52688b4b86d3ebcedc84a793e03ed3b480902c9190819081015b0390a180f35b60046040517f855b7373000000000000000000000000000000000000000000000000000000008152fd5b503461024b57610eb3366129d8565b610ec1959391929495613050565b610ec9612ecc565b610ed38685612d96565b81156110cb57610eeb90610ee684612e92565b613317565b610ef483612f30565b610efd83612ff3565b91610f0786612ff3565b91604051956339420b4560e11b8088526020886004816001600160a01b0389165afa97881561107a576000986110aa575b506040519081526020816004816001600160a01b038a165afa90811561107a576001600160a01b03610fa38a610f9d610f968b610fae988c610f9086610f8a8e9c8b9c60009161108b575b508d612fb9565b93612fb9565b92613f1d565b9d90612c86565b9b612c86565b9816961633876130a5565b6001600160a01b0383163b156110865760006040518094639e79eaa560e01b825281836001600160a01b0382610ffe8d8a60048401602090939291936001600160a01b0360408201951681520152565b0393165af1801561107a576040976001600160a01b0394859261106b575b5088519586521660208501528684015284606084015216907f54787c404bb33c88e86f4baf88183a3b0141d0a848e6a9f7a13b66ae3a9b73d160803392a3600160655582519182526020820152f35b61107490612b0c565b8961101c565b6040513d6000823e3d90fd5b600080fd5b6110a4915060203d602011610c4157610c328183612b36565b38610f83565b6110c491985060203d602011610c4157610c328183612b36565b9689610f38565b60046040517fb483c10f000000000000000000000000000000000000000000000000000000008152fd5b503461024b57606036600319011261024b5761110f612996565b602435906044356001600160a01b038082169182810361108657611131612a6c565b61113a84612ff3565b9061114485614a91565b86116103085782879216906040516339420b4560e11b8152602081600481865afa8015610c485761117d91859161122a575b5088612c86565b823b1561122657604051639e79eaa560e01b81526001600160a01b0392909216600483015260248201529082908290604490829084905af1801561121b576111fd575b50927f5f22a22ebe30686f71d42a70ccacf870a335e22ee2ac6d257af1b2551582eda692856060936040519316835260208301526040820152a180f35b61120a9094939294612b0c565b61121757909184386111c0565b8480fd5b6040513d84823e3d90fd5b8380fd5b611242915060203d8111610c4157610c328183612b36565b38611176565b503461024b578060031936011261024b5760206001600160a01b0360cf5416604051908152f35b503461024b57604036600319011261024b5760206001600160a01b03611293612996565b6112ad6112a66024359261029884612d65565b9182613a18565b94919290506004604051809581936339420b4560e11b8352165afa918215610c485790610c0a9291604095926112e35750612c86565b610c3a91925060203d8111610c4157610c328183612b36565b503461024b578060031936011261024b5760206001600160a01b0360335416604051908152f35b503461024b578060031936011261024b57808160ca54908060d354905b81831061137a57604085610c0a866113756113708b61136b6113618761375b565b6002830590613703565b61379b565b6137b6565b613e0c565b9091936113ba61138986612e45565b91906001600160a01b03928391549060031b1c166001600160a01b0380911660005260d46020526040600020541690565b169560405163961be39160e01b815260209081816004818c5afa908115610d1a57859161155b575b506040519063705727b560e01b825282826004818d5afa918215610c6b57869261153c575b506004836001600160781b038094169b604051928380926317d1d06960e11b82525afa938415610ccf57879461150c575b505089156114fd57899161144c911661375b565b918160029384820561145d91613703565b906114679161379b565b918291670de0b6b3a76400009586611480819484613778565b611489906136df565b0561149391613703565b9b61149d91613778565b6114a6906136df565b05926114b18961375b565b9082056114bd91613703565b906114c79161379b565b6114d091613742565b6114d991613778565b6114e2906136df565b056114ec91613703565b936114f690614a82565b9190611340565b5050509550936114f690614a82565b9080929450813d8311611535575b6115248183612b36565b810103126110865751913880611438565b503d61151a565b611554919250833d8511610cc857610cba8183612b36565b9038611407565b6115729150823d8411610cc857610cba8183612b36565b386113e2565b503461024b578060031936011261024b57611591612f1c565b611599612ecc565b600160ff1960975416176097557f62e78cea01bee320cd4e420270b5ea74000d11b0c9f74754ebdbfc544b05a2586020604051338152a180f35b503461024b578060031936011261024b57602060cd54604051908152f35b503461024b578060031936011261024b5760206101085460801c604051908152f35b503461024b578060031936011261024b5761162c612a6c565b60006001600160a01b036033546001600160a01b03198116603355167f8be0079c531659141344cd1fd0a4f28419497f9722a3daafe3b4186f6b6457e08280a380f35b503461024b578060031936011261024b57602060cc54604051908152f35b503461024b5760c036600319011261024b576116a7612996565b602435604435916116b66129ac565b9260a435908115918215036119ed576116cd613050565b6116d5612ecc565b83156110cb576116e485612e92565b6116ef608435613317565b6116f883612f30565b61170183612ff3565b6001600160a01b03928382169061171c878333888a166130a5565b156117eb576020600491604051928380926339420b4560e11b82525afa9081156117e057926117839261177d89937ff5dd9317b9e63ac316ce44acc85f670b54b339cfa3e9076e1dd55065b922314b979660209c916117c3575b5089612fb9565b90613349565b945b6117b38660405193849316963396846040919493926001600160a01b03606083019616825260208201520152565b0390a36001606555604051908152f35b6117da91508c3d8111610c4157610c328183612b36565b38611776565b6040513d8a823e3d90fd5b906117fe8460d199949895995416612e92565b604051966339420b4560e11b88526020978881600481875afa908115610d1a5761183c9392916118359187916119d6575089612fb9565b3092613349565b60d1546040517f095ea7b30000000000000000000000000000000000000000000000000000000081529089166001600160a01b0316600482015260248101829052909690818160448187875af18015610c48576119a9575b508760d1541691604051907faf929a8000000000000000000000000000000000000000000000000000000000825260048201528181602481865afa918215610c4857849261197b575b5050813b156119775782916064839260405194859384927f90210d7e00000000000000000000000000000000000000000000000000000000845260048401528b60248401528c891660448401525af1801561121b57611963575b50506020947ff5dd9317b9e63ac316ce44acc85f670b54b339cfa3e9076e1dd55065b922314b91611785565b61196d8291612b0c565b61024b5780611937565b8280fd5b90809250813d83116119a2575b6119928183612b36565b81010312611086575138806118dd565b503d611988565b6119c890823d84116119cf575b6119c08183612b36565b810190613038565b5038611894565b503d6119b6565b6117da91508b3d8d11610c4157610c328183612b36565b8580fd5b503461024b57604036600319011261024b57611a0e610298612996565b6040516339420b4560e11b81526020816004816001600160a01b0386165afa908115611a8057611a559291611a4f9160409591611a62575b50602435612fb9565b906134d1565b8351928352602083015250f35b611a7a915060203d8111610c4157610c328183612b36565b38611a46565b6040513d85823e3d90fd5b503461024b578060031936011261024b57602060ce54604051908152f35b503461024b578060031936011261024b57602060ff609754166040519015158152f35b503461024b57611adb36612a56565b90611ae4612a6c565b670de0b6b3a76400008183011161030857825b60d354811015611b4c5780611b4161029d6001600160a01b03611b1c611b4795612e45565b90549060031b1c166001600160a01b0380911660005260d46020526040600020541690565b50614a82565b611af7565b506040907f032dc6a2d839eb179729a55633fdf1c41a1fc4739394154117005db2b354b9b5928060cc558160cd5582519182526020820152a180f35b503461024b57604061023f61023936612a21565b503461024b57604036600319011261024b576004356001600160801b038082168092036110865760243590811680820361108657611bd8612a6c565b670de0b6b3a76400008310908115611c26575b506103085761010891837fffffffffffffffffffffffffffffffff0000000000000000000000000000000084549360801b1692161717905580f35b9050821138611beb565b503461024b57602036600319011261024b57611c4a612996565b611c52612a6c565b611c75816001600160a01b0380911660005260d460205260406000205416151590565b15611d68576001600160a01b038091169081835260d4602052604083208054906001600160a01b03198216905560d5602052604084205460d3549060001991828101908111611d545761071285611cce611cf393612e45565b90549060031b1c169283895260d56020528060408a2055878952886040812055612e45565b905560d3548015611d405701611d0881612e45565b8482549160031b1b1916905560d35516907f0fa1e4606af435f32f05b3804033d2933e691fab32ee74d2db6fa82d2741f1ea8380a380f35b602486634e487b7160e01b81526031600452fd5b602487634e487b7160e01b81526011600452fd5b60046040517fecb004d4000000000000000000000000000000000000000000000000000000008152fd5b503461024b578060031936011261024b57611dab612f1c565b60975460ff811615611deb5760ff19166097557f5db9ee0a495bf2e6ff9c91a7834c1ba4fdd244a5e8aa4e537bd38aeae4b073aa6020604051338152a180f35b606460405162461bcd60e51b815260206004820152601460248201527f5061757361626c653a206e6f74207061757365640000000000000000000000006044820152fd5b503461024b578060031936011261024b5760206001600160a01b0360d15416604051908152f35b503461024b57602036600319011261024b577fdcb65c0553aaa433aadd180404ff195259c48f78aa50f877ebcb4bb215129a4e610e74611e94612996565b611e9c612f1c565b611ea581612f30565b6001600160a01b031680845260c960209081526040808620805460ff191660011790558051928352339183019190915290918291820190565b503461024b57611f2f611f26611ef3366129d8565b611f0297939592969197613050565b611f0a612ecc565b611f1388612e92565b611f1c86612d65565b610ee68584612d96565b61029881612f30565b92611f3982612ff3565b906001600160a01b03851694611f51858733816130a5565b600095611f5d82614bc9565b611f678683613a18565b509097823b1561024b57604051632770a7eb60e21b81526001600160a01b038416600482015260248101899052818160448183885af1801561121b576122d2575b5090823b156122ba576040516313f3df3160e31b8152896004820152828160248183885af18015611a80579083916122be575b5050823b156122ba576040519063d8b8785360e01b82526004820152818160248183875af1801561121b579082916122a6575b505060405163705727b560e01b91828252602082600481875afa918215612299578192612278575b506001600160781b03809216151593846121bf575b505050506121ae576001600160a01b03831695604051936339420b4560e11b948581526020816004818c5afa801561107a5761209395610f909260009261218d575b50612fb9565b50604051918252602082600481885afa90811561107a576120bb9260009261216c5750612c86565b92803b1561108657604051639e79eaa560e01b81526001600160a01b038616600482015260248101859052906000908290604490829084905af1801561107a576020957ffb80d861da582b723be2d19507ce3e03851820c464abea89156ec77e089b1ad9926001600160a01b039261215d575b506117b36040519283921695873396846040919493926001600160a01b03606083019616825260208201520152565b61216690612b0c565b8761212e565b61218691925060203d602011610c4157610c328183612b36565b9087610bdb565b6121a791925060203d602011610c4157610c328183612b36565b908c61208d565b60046040516316fde3bd60e21b8152fd5b90919293506040519363961be39160e01b8552602085600481855afa948515611a80578395612256575b5060209060046040518094819382525afa91821561224a5792662386f26fc1000094928192612221959161222b575b50169116612c1d565b108880808061204b565b612244915060203d602011610cc857610cba8183612b36565b8d612218565b604051903d90823e3d90fd5b602091955061227190823d8411610cc857610cba8183612b36565b94906121e9565b61229291925060203d602011610cc857610cba8183612b36565b908b612036565b50604051903d90823e3d90fd5b6122af90612b0c565b61024b57808a61200e565b5080fd5b6122c790612b0c565b6122ba57818b611fdb565b6122db90612b0c565b8a611fa8565b503461024b5760a036600319011261024b576122fb612996565b6123036129ac565b61230b613050565b612313612ecc565b61231e602435612d65565b61232781612e92565b612332608435613317565b61233b82612ff3565b916123536024356001600160a01b03851633816130a5565b6040516339420b4560e11b81526020816004816001600160a01b0388165afa908115610d1a5785916126ce575b5061238d81604435612fb9565b9061239785614bc9565b6123b06123a660243587613a18565b50919080946134a0565b6001600160a01b0386163b1561108657604051632770a7eb60e21b81526001600160a01b03871660048201526024803590820152600090818180604481010381836001600160a01b038d165af1801561121b576126bf575b50906001600160a01b0387163b156122ba576040516313f3df3160e31b81528460048201528281602481836001600160a01b038d165af18015611a80579083916126ab575b50506001600160a01b0387163b156122ba576040519063d8b8785360e01b825260048201528181602481836001600160a01b038c165af1801561121b57908291612697575b505060405163705727b560e01b908181526020816004816001600160a01b038c165afa908115611a8057906001600160781b03918491612678575b5016151591826125ba575b50506121ae576124e791612c86565b926001600160a01b0381163b1561121757846040518092639e79eaa560e01b825281836001600160a01b03826125378b8b60048401602090939291936001600160a01b0360408201951681520152565b0393165af18015610d1a576125a6575b50602093507ffb80d861da582b723be2d19507ce3e03851820c464abea89156ec77e089b1ad96001600160a01b03604051931692806117b333948760243591846040919493926001600160a01b03606083019616825260208201520152565b6125b08591612b0c565b6112265783612547565b60405163961be39160e01b81529250906020836004816001600160a01b038c165afa92831561121b578293612657575b506040519081526020816004816001600160a01b038c165afa91821561224a576001600160781b0361263093662386f26fc1000095938293916126385750169116612c1d565b1038806124d8565b612651915060203d602011610cc857610cba8183612b36565b38612218565b61267191935060203d602011610cc857610cba8183612b36565b91386125ea565b612691915060203d602011610cc857610cba8183612b36565b386124cd565b6126a090612b0c565b61024b578038612492565b6126b490612b0c565b6122ba57813861244d565b6126c890612b0c565b38612408565b6126e7915060203d602011610c4157610c328183612b36565b38612380565b503461024b57604036600319011261024b57612707612996565b90602435612713612f1c565b6001600160a01b0361272484612ff3565b16604051632672469960e21b81526020908181600481865afa908115610d1a5785916128b3575b50604051906339420b4560e11b82528282600481875afa918215610c6b579061277b929187926128945750612fb9565b60405163961be39160e01b81528281600481875afa908115610c6b576127ca93926001600160781b0360d2936127ba938a91612877575b501690612b77565b9184875252604085205490612b77565b821161030857803b156119775782809160246040518094819362b64f3d60e51b83528760048401525af18015611a8057612846575b50604080516001600160a01b039094168452602084019190915290917f4941e18a2bcbb0f9fa0081238f26793a8ad8c202b913ae8bf5f7e523f68ff1379181908101610e74565b916128717f4941e18a2bcbb0f9fa0081238f26793a8ad8c202b913ae8bf5f7e523f68ff13793612b0c565b916127ff565b61288e9150863d8811610cc857610cba8183612b36565b386127b2565b6128ac919250843d8611610c4157610c328183612b36565b903861208d565b90508181813d83116128d9575b6128ca8183612b36565b8101031261121757513861274b565b503d6128c0565b503461024b57602036600319011261024b577ffeb9010869b6ccec4557ddbbce947afeace5efc66cdff52c5e533c09336a8f2d60206001600160a01b03612925612996565b61292d612a6c565b61293681612e92565b16806001600160a01b031960d154161760d155604051908152a180f35b503461024b578060031936011261024b5760206001600160a01b0360d05416604051908152f35b9050346122ba57816003193601126122ba5760209060ca548152f35b600435906001600160a01b038216820361108657565b606435906001600160a01b038216820361108657565b602435906001600160a01b038216820361108657565b60c0906003190112611086576001600160a01b03600435818116810361108657916024358281168103611086579160443591606435916084359081168103611086579060a43590565b6060906003190112611086576001600160a01b0390600435828116810361108657916024359081168103611086579060443590565b6040906003190112611086576004359060243590565b6001600160a01b03603354163303612a8057565b606460405162461bcd60e51b815260206004820152602060248201527f4f776e61626c653a2063616c6c6572206973206e6f7420746865206f776e65726044820152fd5b603354906001600160a01b0380911691826001600160a01b0319821617603355167f8be0079c531659141344cd1fd0a4f28419497f9722a3daafe3b4186f6b6457e0600080a3565b67ffffffffffffffff8111612b2057604052565b634e487b7160e01b600052604160045260246000fd5b90601f8019910116810190811067ffffffffffffffff821117612b2057604052565b9081602091031261108657516001600160781b03811681036110865790565b91908203918211612b8457565b634e487b7160e01b600052601160045260246000fd5b91908201809211612b8457565b90816020910312611086575160ff811681036110865790565b81810292918115918404141715612b8457565b8115612bdd570490565b634e487b7160e01b600052601260045260246000fd5b90612bfd91612bc0565b6706f05b59d3b200008101809111612b8457670de0b6b3a7640000900490565b90670de0b6b3a764000091828102928184041490151715612b8457612c49612c4e928260011c90612b9a565b612bd3565b90565b60ff6011199116019060ff8211612b8457565b60ff166012039060ff8211612b8457565b60ff16604d8111612b8457600a0a90565b9060ff81166012811015612cb0575090612caa612ca5612c4e93612c64565b612c75565b90612bd3565b601210612cbb575090565b90612ccb612ca5612c4e93612c51565b90612bc0565b610108548060801c91828411600014612cf5576004604051630c2b153f60e31b8152fd5b6001600160801b0382168411801590612d5b575b612d5257612c4e936001600160801b0392831691612d3b9190838111612d47576000905b848303920391800203612bd3565b60011c92031690612c1d565b838103800290612d2d565b50505050600090565b5080841115612d09565b15612d6c57565b60046040517f3f3835e7000000000000000000000000000000000000000000000000000000008152fd5b6001600160a01b03908116911614612daa57565b60046040517feeb7911f000000000000000000000000000000000000000000000000000000008152fd5b15612ddb57565b608460405162461bcd60e51b815260206004820152602b60248201527f496e697469616c697a61626c653a20636f6e7472616374206973206e6f74206960448201527f6e697469616c697a696e670000000000000000000000000000000000000000006064820152fd5b60d354811015612e7c5760d36000527f915c3eb987b20e1af620c1403197bf687fb7f18513b3a73fde6e78c7072c41a60190600090565b634e487b7160e01b600052603260045260246000fd5b6001600160a01b031615612ea257565b60046040517f0bd3e3ed000000000000000000000000000000000000000000000000000000008152fd5b60ff60975416612ed857565b606460405162461bcd60e51b815260206004820152601060248201527f5061757361626c653a20706175736564000000000000000000000000000000006044820152fd5b6001600160a01b0360cf541633036121ae57565b6001600160a01b031660005260c960205260ff60406000205416612f5057565b60046040517f8654830a000000000000000000000000000000000000000000000000000000008152fd5b60ff81166012811015612f945750612ca5612c4e91612c64565b601210612fa15750600190565b612ca5612fad91612c51565b8015612bdd5760010490565b9060ff81166012811015612fd8575090612ccb612ca5612c4e93612c64565b601210612fe3575090565b90612caa612ca5612c4e93612c51565b613016816001600160a01b0380911660005260d460205260406000205416151590565b15611d68576001600160a01b0380911660005260d46020526040600020541690565b90816020910312611086575180151581036110865790565b600260655414613061576002606555565b606460405162461bcd60e51b815260206004820152601f60248201527f5265656e7472616e637947756172643a207265656e7472616e742063616c6c006044820152fd5b93929190604051602093848201927f23b872dd0000000000000000000000000000000000000000000000000000000084526001600160a01b039485809216602485015216604483015260648201526064815260a081019267ffffffffffffffff9682851088861117612b2057169060e0810184811088821117612b20576040528484527f5361666545524332303a206c6f772d6c6576656c2063616c6c206661696c656460c0820152600080938192519082855af1903d15613237573d968711613223576131949495966040519061318688601f19601f8401160183612b36565b81528093873d92013e613244565b805190816131a157505050565b82806131b1938301019101613038565b156131b95750565b6084906040519062461bcd60e51b82526004820152602a60248201527f5361666545524332303a204552433230206f7065726174696f6e20646964206e60448201527f6f742073756363656564000000000000000000000000000000000000000000006064820152fd5b602483634e487b7160e01b81526041600452fd5b9150613194939495506060915b919290156132a55750815115613258575090565b3b156132615790565b606460405162461bcd60e51b815260206004820152601d60248201527f416464726573733a2063616c6c20746f206e6f6e2d636f6e74726163740000006044820152fd5b8251909150156132b85750805190602001fd5b6040519062461bcd60e51b82528160208060048301528251908160248401526000935b8285106132fe575050604492506000838284010152601f80199101168101030190fd5b84810182015186860160440152938101938593506132db565b421161331f57565b60046040517f549b6335000000000000000000000000000000000000000000000000000000008152fd5b6001600160a01b039192949361335e82614bc9565b61336884836134d1565b5093909261338084809961337b82612d65565b6134a0565b1690813b1561108657604093845162b64f3d60e51b81526000966004820152868160248183885af1801561349657613483575b50823b156119ed5784519063283c3d8160e21b82526004820152858160248183875af1801561347957908691613465575b5050813b156112175783517f40c10f190000000000000000000000000000000000000000000000000000000081526001600160a01b03919091166004820152602481019290925290919083908390604490829084905af190811561345c575061344b575050565b6134558291612b0c565b61024b5750565b513d84823e3d90fd5b61346e90612b0c565b6112175784386133e4565b85513d88823e3d90fd5b61348f90969196612b0c565b94386133b3565b86513d89823e3d90fd5b116134a757565b60046040517ff512a720000000000000000000000000000000000000000000000000000000008152fd5b6000916001600160a01b036000921660409081519363961be39160e01b85526020938486600481865afa958615613686578296613667575b5083519063705727b560e01b968783528683600481885afa92831561365d578493613636575b5061354f6135549160ca54906001600160781b03808097169116856137c7565b613690565b9781891061362d57508703955b84519081528581600481875afa908115613623578391613606575b5016938461358d5750505050508192565b806004938551948580926318160ddd60e01b82525afa9384156135fb575081936135c6575b50505090612c496135c39285612bc0565b92565b9091809350813d83116135f4575b6135de8183612b36565b8101031261024b575051612c496135c3386135b2565b503d6135d4565b51913d9150823e3d90fd5b61361d9150863d8811610cc857610cba8183612b36565b3861357c565b85513d85823e3d90fd5b96975096613561565b61355491935061365561354f91893d8b11610cc857610cba8183612b36565b93915061352f565b86513d86823e3d90fd5b61367f919650853d8711610cc857610cba8183612b36565b9438613509565b84513d84823e3d90fd5b6000811261369b5790565b606460405162461bcd60e51b815260206004820152601660248201527f76616c7565206d75737420626520706f736974697665000000000000000000006044820152fd5b906706f05b59d3b200009160008382019384129112908015821691151617612b8457565b91909160008382019384129112908015821691151617612b8457565b90670de0b6b3a764000060008382039312818412811691841390151617612b8457565b81810392916000138015828513169184121617612b8457565b90670de0b6b3a764000091828102928184051490151715612b8457565b818102929160008212600160ff1b821416612b84578184051490151715612b8457565b8115612bdd57600160ff1b8114600019831416612b84570590565b600160ff1b8114612b845760000390565b919081156139625760006137db8483613703565b12613938576137fa816137f48461136b6113618461375b565b94613703565b670de0b6b3a7640000918261381f61381a6138148961371f565b85613778565b6136df565b05908361382f61381a878a613778565b05908160011b916002830503612b845761384c8593928493613703565b96613857878a613778565b906138619161379b565b61386a91613742565b6138749084613778565b61387d906136df565b05918061388991613778565b613892906136df565b0561389c91613742565b91816138a88287613778565b6138b1906136df565b05906138bc91613778565b6138c5906136df565b056138cf91613703565b916138da8280613778565b928160021b90600482058303612b84576139266139349461392061391060029861390a61392b9661136b98613778565b90613742565b9161391a816137b6565b92613969565b90613703565b61375b565b84830590613703565b0590565b60046040517fae032660000000000000000000000000000000000000000000000000000000008152fd5b5050905090565b919060006003841315613a09575060008113806139ff575b156139c857915b60028061399e85613999818661379b565b613703565b05915b8483036139ad57505050565b91935090816139c085613999818561379b565b0591906139a1565b60008112806139ed575b156139e6576139e0906137b6565b91613988565b5081613988565b50826139f8826137b6565b13156139d2565b5082811315613981565b929050613a1257565b60019150565b916000926001600160a01b036000911690604080519063705727b560e01b938483526020968784600481855afa938415613cb4578594613c91575b50613a68906001600160781b03809516612bc0565b82516318160ddd60e01b81528881600481865afa908115613c87578691613c58575b50613a9491612bd3565b96613a9e88612d65565b613aa7886137b6565b94835163961be39160e01b81528281600481875afa908115613c4e57839187918491613c31575b501697600486518096819382525afa938415613c27575092613c0a575b5050169060ca5490613afd8184613703565b9083613b088661375b565b60028205613b1591613703565b90613b1f9161379b565b8094613b2a8561375b565b90670de0b6b3a764000096808894936002869505613b4791613703565b90613b519161379b565b613b5a91613742565b613b6391613778565b613b6c906136df565b0591613b778561371f565b613b8091613778565b613b89906136df565b05613b9391613703565b60029005928392613ba48480613778565b9280613baf91613778565b613bb891613778565b613bc1906136df565b05613bcb91613703565b90613bd591613969565b613bde91613703565b613be791613742565b613bf090613690565b92838310613c035750612c4e8383612b77565b9092508192565b613c209250803d10610cc857610cba8183612b36565b3880613aeb565b51903d90823e3d90fd5b613c489150833d8511610cc857610cba8183612b36565b38613ace565b85513d84823e3d90fd5b90508881813d8311613c80575b613c6f8183612b36565b810103126119ed5751613a94613a8a565b503d613c65565b84513d88823e3d90fd5b613a68919450613cad90893d8b11610cc857610cba8183612b36565b9390613a53565b83513d87823e3d90fd5b9390949180158015613e04575b6139385783818192613cdd8989613703565b9780613ce98380613778565b90613cf39161379b565b98670de0b6b3a7640000809a8c613d0a8880613778565b90613d149161379b565b613d1d91613703565b613d27908a613778565b613d30906136df565b05613d3a91613742565b95613d4491613703565b613d4d9061375b565b60028205613d5a91613703565b90613d649161379b565b80613d6e8761375b565b60028205613d7b91613703565b90613d859161379b565b613d8e91613742565b613d9791613778565b90613da19161379b565b91613dab9061375b565b60028205613db891613703565b90613dc29161379b565b613dcb91613742565b90613dd591613e0c565b613dde91613778565b613de7906136df565b0590613df291613742565b6000811215612c4e57612c4e906137b6565b508315613ccb565b613e168180613778565b908260021b9280840560041490151715612b8457613e4581613e406139349461392060029761375b565b613969565b613742565b604051916317d1d06960e11b9081845260209182856004816001600160a01b038098165afa94851561107a57600095613eed575b50906004839260405195869384928352165afa90811561107a57600091613ec1575b509050670de0b6b3a76400009180830292830403612b8457612c4e91612bd3565b82813d8311613ee6575b613ed58183612b36565b8101031261024b5750518038613ea0565b503d613ecb565b90948382813d8311613f16575b613f048183612b36565b8101031261024b575051936004613e7e565b503d613efa565b90929391613f2c8185846140c8565b90948195613f3b8180996134a0565b6000926001600160a01b038093169485855260209360d285526040978887208481540190551690813b156119ed578591602483928a51948593849262b64f3d60e51b845260048401525af180156140be576140ab575b50843b15611226578551916313f3df3160e31b8352016004820152828160248183885af1801561362357908391614097575b505083519263961be39160e01b84528184600481845afa938415613623578394614071575b50908060049286519384809263705727b560e01b82525afa92831561406657916140319391662386f26fc10000959392614049575b50506001600160781b038091169116612c1d565b106140395750565b600490516316fde3bd60e21b8152fd5b61405f9250803d10610cc857610cba8183612b36565b388061401d565b8551903d90823e3d90fd5b829194509161408e600493823d8411610cc857610cba8183612b36565b94919250613fe8565b6140a090612b0c565b6122ba578138613fc3565b6140b790949194612b0c565b9238613f91565b87513d87823e3d90fd5b919290926140d78185856144a4565b809491809660008512156000146141f3575050506001600160a01b0316906040519063961be39160e01b82526020908183600481875afa80156141d1576004936000916141d6575b50826001600160781b03809216956040519586809263705727b560e01b82525afa80156141d157610b8694614162946000926141b4575b50501692839185612b9a565b91614185614179610108546001600160801b031690565b6001600160801b031690565b831161419057505050565b94610c926141af93610c8d6141a89484979899612c1d565b8092612b77565b920190565b6141ca9250803d10610cc857610cba8183612b36565b3880614156565b61107a565b6141ed9150833d8511610cc857610cba8183612b36565b3861411f565b8093949297506001600160a01b03919596501660405163961be39160e01b815260208082600481865afa9182156141d1576000926142fc575b506004816001600160781b03809416946040519283809263705727b560e01b82525afa9182156141d1576000926142df575b50501661426f81610b868885612b9a565b6101085492906001600160801b0384161061428e575050505050509190565b909193955061429f92949750612c1d565b9060801c11156142ce576142b56142bc916137b6565b848361431b565b906142c9919384916140c8565b905090565b6004604051630c2b153f60e31b8152fd5b6142f59250803d10610cc857610cba8183612b36565b388061425e565b816143149293503d8411610cc857610cba8183612b36565b903861422c565b6040516339420b4560e11b81529193926020926001600160a01b038316908481600481855afa9081156141d157600091614487575b5061435a81612f7a565b946040519263705727b560e01b84528184600481845afa80156141d15760049460009161446a575b50826143a76143976141796101085460801c90565b6001600160781b03809416612bf3565b926040519687809263961be39160e01b82525afa80156141d1576143df956143da9460009261444d575b50501690612b77565b612c86565b9160019586836143f96143f28888612bc0565b84866140c8565b50106142ce579291905b8484106144195750505050612c4e929350612bc0565b90919293808501881c90888561443289850286886140c8565b5010614444575050935b929190614403565b9095500161443c565b6144639250803d10610cc857610cba8183612b36565b38806143d1565b6144819150833d8511610cc857610cba8183612b36565b38614382565b61449e9150853d8711610c4157610c328183612b36565b38614350565b9190600080831261475a575b6040805163961be39160e01b8082526001600160a01b038781169760209660049691949192888389818e5afa928315614750578493614731575b506001600160781b03809316908b88518b818c8163705727b560e01b958682525afa90811561472757908691889161470a575b50169184169389518881528c818d81895afa9081156147005761454e929188918f8b926146e3575b50501699613e4a565b670de0b6b3a7640000908181036146b3575b50508a908a8a518096819382525afa9283156146a957918b916145939493879461468a575b50888660ca54951692613cbe565b988289139788958b9087614680575b5050851561460c575b50505050506145e6575050156145ce57506145cb6141a860cb5483612bf3565b91565b91906145dd612c4e91936137b6565b60cb5490612bf3565b517f9a6114b7000000000000000000000000000000000000000000000000000000008152fd5b909192809495508912948561462b575b505050505038808080806145ab565b8192939495508787518095819382525afa9384156140665793614661575b5050614654866137b6565b911610388080808061461c565b614678929350803d10610cc857610cba8183612b36565b903880614649565b1095508a386145a2565b6146a29194508c8d3d10610cc857610cba8183612b36565b9238614585565b88513d87823e3d90fd5b80828e949f959682826146cc6146da966146d394612bc0565b0498612bc0565b0494613778565b059b9038614560565b6146f99250803d10610cc857610cba8183612b36565b388f614545565b8b513d8a823e3d90fd5b61472191508d803d10610cc857610cba8183612b36565b3861451d565b8a513d89823e3d90fd5b614749919350893d8b11610cc857610cba8183612b36565b91386144ea565b87513d86823e3d90fd5b916147769061136b61136161477060cb5461371f565b9261375b565b916144b0565b9290919261478a8382612d96565b83156110cb5761479c6147a291612ff3565b92612ff3565b916001600160a01b03938482166040958651926339420b4560e11b908185526020958686600481885afa9586156148ec5789966147f3936147eb926000926148cd575b506148f7565b9889916140c8565b9092819516938951938385528785600481895afa9485156148c25788956000926148239284926148aa5750612c86565b991261487e575050600488518094819382525afa92831561487357612c4e94959650600093614854575b5050612c86565b61486b929350803d10610c4157610c328183612b36565b90388061484d565b86513d6000823e3d90fd5b93509350600488518094819382525afa92831561487357612c4e94959650600093614854575050612c86565b610c3a919250883d8a11610c4157610c328183612b36565b8b513d6000823e3d90fd5b6148e59192508a3d8c11610c4157610c328183612b36565b90386147e5565b8a513d6000823e3d90fd5b9060ff8116601281101561491c575090614916612ca5612c4e93612c64565b90613778565b601210614927575090565b90614937612ca5612c4e93612c51565b9061379b565b61494e6001600160a01b0391612ff3565b1660408051916318160ddd60e01b928381526020908181600481865afa908115614a3a57600091614a55575b5015614a455782519363705727b560e01b85528185600481865afa948515614a3a57600095614a19575b508190600485518095819382525afa928315614a0f57506000926149d7575b50506001600160781b03612c4e9216612c1d565b81819392933d8311614a08575b6149ee8183612b36565b8101031261024b5750516001600160781b03612c4e6149c3565b503d6149e4565b513d6000823e3d90fd5b82919550614a3390823d8411610cc857610cba8183612b36565b94906149a4565b84513d6000823e3d90fd5b50505050670de0b6b3a764000090565b908282813d8311614a7b575b614a6b8183612b36565b8101031261024b5750513861497a565b503d614a61565b6000198114612b845760010190565b614aa26001600160a01b0391612ff3565b166040805190632672469960e21b82526020918281600481875afa908115614bbe57600091614b91575b508151906339420b4560e11b82528382600481885afa918215614b6e5790614afc9291600092614b795750612fb9565b9181519363961be39160e01b85528185600481845afa948515614b6e57600095614b3f575b506001600160781b03929160d2916000525260002054921690030390565b60d291955091614b646001600160781b039493823d8411610cc857610cba8183612b36565b9591509192614b21565b83513d6000823e3d90fd5b6128ac919250853d8711610c4157610c328183612b36565b908382813d8311614bb7575b614ba78183612b36565b8101031261024b57505138614acc565b503d614b9d565b82513d6000823e3d90fd5b6001600160a01b03811660005260d26020526040600020548015908115614c00575b5015614bf45750565b614bfd90614c0c565b50565b905060ce541138614beb565b9060006001600160a01b039283811680835260d260205260409182842054958615614dd65760cd54670de0b6b3a7640000908103908111614dc257614c57614c5d9160cc5490612b77565b88612bf3565b9081614d34575b5050614c7260cd5487612bf3565b9081614c87575b5050825260d2602052812055565b81614c91916134d1565b509050823b156112175783519063283c3d8160e21b82526004820152848160248183875af18015614d2a57908591614d16575b5050813b156112265782519062b64f3d60e51b82526004820152838160248183865af18015614d095790849115614c7957614cfe90612b0c565b611977578238614c79565b50505051903d90823e3d90fd5b614d1f90612b0c565b611226578338614cc4565b84513d87823e3d90fd5b60d05416908451906339420b4560e11b8252602082600481885afa9182156134965790614d68929188926112e35750612c86565b90833b156119ed578451639e79eaa560e01b81526001600160a01b039190911660048201526024810191909152848160448183875af18015614d2a57614daf575b80614c64565b614dbb90949194612b0c565b9238614da9565b602486634e487b7160e01b81526011600452fd5b5092945050505056fea26469706673582212206e68fb0199289e3d9905063eea72a5324d826d0ea3e2cb10dfe199f7bf9fa06b64736f6c63430008120033",
  "devdoc": {
    "details": "Supports dynamic assets. Assume r* to be close to 1. Be aware that r* changes when the relative price of the asset updates Change log: - add `gap` to prevent storage collision for future upgrades - Inherite from `HighCovRatioFeePoolV2` instead of `Pool`",
    "events": {
      "Initialized(uint8)": {
        "details": "Triggered when the contract has been initialized or reinitialized."
      },
      "Paused(address)": {
        "details": "Emitted when the pause is triggered by `account`."
      },
      "PausedAsset(address,address)": {
        "details": "Emitted when the pause is triggered by `account`."
      },
      "Unpaused(address)": {
        "details": "Emitted when the pause is lifted by `account`."
      },
      "UnpausedAsset(address,address)": {
        "details": "Emitted when the pause is lifted by `account`."
      }
    },
    "kind": "dev",
    "methods": {
      "addAsset(address,address)": {
        "params": {
          "asset": "The address of the Wombat Asset contract",
          "token": "The address of token"
        }
      },
      "addressOfAsset(address)": {
        "details": "to be used externally",
        "params": {
          "token": "The address of ERC20 token"
        }
      },
      "deposit(address,uint256,uint256,address,uint256,bool)": {
        "details": "Asset needs to be created and added to pool before any operation. This function assumes tax free token.",
        "params": {
          "amount": "The amount to be deposited",
          "deadline": "The deadline to be respected",
          "to": "The user accountable for deposit, receiving the Wombat assets (lp)",
          "token": "The token address to be deposited"
        },
        "returns": {
          "liquidity": "Total asset liquidity minted"
        }
      },
      "exchangeRate(address)": {
        "params": {
          "token": "The address of the token"
        },
        "returns": {
          "xr": "The exchange rate of LP token"
        }
      },
      "mintFee(address)": {
        "params": {
          "token": "The address of the token to collect fee"
        }
      },
      "owner()": {
        "details": "Returns the address of the current owner."
      },
      "pause()": {
        "details": "pause pool, restricting certain operations"
      },
      "pauseAsset(address)": {
        "details": "pause asset, restricting deposit and swap operations"
      },
      "paused()": {
        "details": "Returns true if the contract is paused, and false otherwise."
      },
      "quoteAmountIn(address,address,int256)": {
        "details": "To be used by frontend",
        "params": {
          "fromToken": "The initial ERC20 token",
          "toAmount": "The given output amount",
          "toToken": "The token wanted by user"
        },
        "returns": {
          "amountIn": "The input amount required",
          "haircut": "The haircut that would be applied"
        }
      },
      "quotePotentialDeposit(address,uint256)": {
        "details": "To be used by frontend",
        "params": {
          "amount": "The amount to deposit",
          "token": "The token to deposit by user"
        },
        "returns": {
          "liquidity": "The potential liquidity user would receive",
          "reward": "reward"
        }
      },
      "quotePotentialSwap(address,address,int256)": {
        "details": "In reverse quote, the haircut is in the `fromAsset`",
        "params": {
          "fromAmount": "The given input amount",
          "fromToken": "The initial ERC20 token",
          "toToken": "The token wanted by user"
        },
        "returns": {
          "haircut": "The haircut that would be applied",
          "potentialOutcome": "The potential amount user would receive"
        }
      },
      "quotePotentialWithdraw(address,uint256)": {
        "details": "To be used by frontend",
        "params": {
          "liquidity": "The liquidity (amount of lp assets) to be withdrawn",
          "token": "The token to be withdrawn by user"
        },
        "returns": {
          "amount": "The potential amount user would receive",
          "fee": "The fee that would be applied"
        }
      },
      "quotePotentialWithdrawFromOtherAsset(address,address,uint256)": {
        "details": "take into account high cov ratio fee"
      },
      "removeAsset(address)": {
        "details": "Can only be called by owner",
        "params": {
          "token": "The address of token to remove"
        }
      },
      "renounceOwnership()": {
        "details": "Leaves the contract without owner. It will not be possible to call `onlyOwner` functions anymore. Can only be called by the current owner. NOTE: Renouncing ownership will leave the contract without an owner, thereby removing any functionality that is only available to the owner."
      },
      "setAmpFactor(uint256)": {
        "params": {
          "ampFactor_": "new pool's amplification factor"
        }
      },
      "setDev(address)": {
        "params": {
          "dev_": "new contract dev address"
        }
      },
      "setFeeTo(address)": {
        "params": {
          "feeTo_": "new fee beneficiary"
        }
      },
      "setHaircutRate(uint256)": {
        "params": {
          "haircutRate_": "new pool's haircutRate_"
        }
      },
      "swap(address,address,uint256,uint256,address,uint256)": {
        "details": "This function assumes tax free token.",
        "params": {
          "deadline": "The deadline to be respected",
          "fromAmount": "The amount of from token inserted",
          "fromToken": "The token being inserted into Pool by user for swap",
          "minimumToAmount": "The minimum amount that will be accepted by user as result",
          "to": "The user receiving the result of swap",
          "toToken": "The token wanted by user, leaving the Pool"
        }
      },
      "transferOwnership(address)": {
        "details": "Transfers ownership of the contract to a new account (`newOwner`). Can only be called by the current owner."
      },
      "transferTipBucket(address,uint256,address)": {
        "details": "unit of amount should be in WAD"
      },
      "unpause()": {
        "details": "unpause pool, enabling certain operations"
      },
      "unpauseAsset(address)": {
        "details": "unpause asset, enabling deposit and swap operations"
      },
      "withdraw(address,uint256,uint256,address,uint256)": {
        "params": {
          "deadline": "The deadline to be respected",
          "liquidity": "The liquidity to be withdrawn",
          "minimumAmount": "The minimum amount that will be accepted by user",
          "to": "The user receiving the withdrawal",
          "token": "The token to be withdrawn"
        },
        "returns": {
          "amount": "The total amount withdrawn"
        }
      },
      "withdrawFromOtherAsset(address,address,uint256,uint256,address,uint256)": {
        "params": {
          "deadline": "The deadline to be respected",
          "fromToken": "The corresponding token user holds the LP (Asset) from",
          "liquidity": "The liquidity to be withdrawn (in fromToken decimal)",
          "minimumAmount": "The minimum amount that will be accepted by user",
          "to": "The user receiving the withdrawal",
          "toToken": "The token wanting to be withdrawn (needs to be well covered)"
        },
        "returns": {
          "toAmount": "The total amount withdrawn"
        }
      }
    },
    "title": "Dynamic Pool V2",
    "version": 1
  },
  "userdoc": {
    "events": {
      "AssetAdded(address,address)": {
        "notice": "An event thats emitted when an asset is added to Pool"
      },
      "AssetRemoved(address,address)": {
        "notice": "An event thats emitted when asset is removed from Pool"
      },
      "Deposit(address,address,uint256,uint256,address)": {
        "notice": "An event thats emitted when a deposit is made to Pool"
      },
      "Swap(address,address,address,uint256,uint256,address)": {
        "notice": "An event thats emitted when a swap is made in Pool"
      },
      "Withdraw(address,address,uint256,uint256,address)": {
        "notice": "An event thats emitted when a withdrawal is made from Pool"
      }
    },
    "kind": "user",
    "methods": {
      "addAsset(address,address)": {
        "notice": "Adds asset to pool, reverts if asset already exists in pool"
      },
      "addressOfAsset(address)": {
        "notice": "Gets Asset corresponding to ERC20 token. Reverts if asset does not exists in Pool."
      },
      "ampFactor()": {
        "notice": "Amplification factor"
      },
      "deposit(address,uint256,uint256,address,uint256,bool)": {
        "notice": "Deposits amount of tokens into pool ensuring deadline"
      },
      "dev()": {
        "notice": "Dev address"
      },
      "exchangeRate(address)": {
        "notice": "Returns the exchange rate of the LP token"
      },
      "fillPool(address,uint256)": {
        "notice": "Move fund from tip bucket to the pool to keep r* = 1 as error accumulates unit of amount should be in WAD"
      },
      "getTokens()": {
        "notice": "Return list of tokens in the pool"
      },
      "haircutRate()": {
        "notice": "Haircut rate"
      },
      "initialize(uint256,uint256)": {
        "notice": "Initializes pool. Dev is set to be the account calling this function."
      },
      "lpDividendRatio()": {
        "notice": "LP dividend ratio : the ratio of haircut that should distribute to LP"
      },
      "mintFee(address)": {
        "notice": "Send fee collected to the fee beneficiary"
      },
      "mintFeeThreshold()": {
        "notice": "The threshold to mint fee (unit: WAD)"
      },
      "quoteAmountIn(address,address,int256)": {
        "notice": "Returns the minimum input asset amount required to buy the given output asset amount (accounting for fees and slippage)"
      },
      "quotePotentialDeposit(address,uint256)": {
        "notice": "Quotes potential deposit from pool"
      },
      "quotePotentialSwap(address,address,int256)": {
        "notice": "Given an input asset amount and token addresses, calculates the maximum output token amount (accounting for fees and slippage)."
      },
      "quotePotentialWithdraw(address,uint256)": {
        "notice": "Quotes potential withdrawal from pool"
      },
      "removeAsset(address)": {
        "notice": "Removes asset from asset struct"
      },
      "retentionRatio()": {
        "notice": "Retention ratio: the ratio of haircut that should stay in the pool"
      },
      "setAmpFactor(uint256)": {
        "notice": "Changes the pools amplification factor. Can only be set by the contract owner."
      },
      "setDev(address)": {
        "notice": "Changes the contract dev. Can only be set by the contract owner."
      },
      "setFeeTo(address)": {
        "notice": "Changes the fee beneficiary. Can only be set by the contract owner. This value cannot be set to 0 to avoid unsettled fee."
      },
      "setHaircutRate(uint256)": {
        "notice": "Changes the pools haircutRate. Can only be set by the contract owner."
      },
      "setMintFeeThreshold(uint256)": {
        "notice": "Set min fee to mint"
      },
      "swap(address,address,uint256,uint256,address,uint256)": {
        "notice": "Swap fromToken for toToken, ensures deadline and minimumToAmount and sends quoted amount to `to` address"
      },
      "withdraw(address,uint256,uint256,address,uint256)": {
        "notice": "Withdraws liquidity amount of asset to `to` address ensuring minimum amount required"
      },
      "withdrawFromOtherAsset(address,address,uint256,uint256,address,uint256)": {
        "notice": "Enables withdrawing liquidity from an asset using LP from a different asset"
      }
    },
    "notice": "Manages deposits, withdrawals and swaps. Holds a mapping of assets and parameters.",
    "version": 1
  },
  "storageLayout": {
    "storage": [
      {
        "astId": 138,
        "contract": "contracts/wombat-core/pool/DynamicPoolV2.sol:DynamicPoolV2",
        "label": "_initialized",
        "offset": 0,
        "slot": "0",
        "type": "t_uint8"
      },
      {
        "astId": 141,
        "contract": "contracts/wombat-core/pool/DynamicPoolV2.sol:DynamicPoolV2",
        "label": "_initializing",
        "offset": 1,
        "slot": "0",
        "type": "t_bool"
      },
      {
        "astId": 825,
        "contract": "contracts/wombat-core/pool/DynamicPoolV2.sol:DynamicPoolV2",
        "label": "__gap",
        "offset": 0,
        "slot": "1",
        "type": "t_array(t_uint256)50_storage"
      },
      {
        "astId": 10,
        "contract": "contracts/wombat-core/pool/DynamicPoolV2.sol:DynamicPoolV2",
        "label": "_owner",
        "offset": 0,
        "slot": "51",
        "type": "t_address"
      },
      {
        "astId": 130,
        "contract": "contracts/wombat-core/pool/DynamicPoolV2.sol:DynamicPoolV2",
        "label": "__gap",
        "offset": 0,
        "slot": "52",
        "type": "t_array(t_uint256)49_storage"
      },
      {
        "astId": 441,
        "contract": "contracts/wombat-core/pool/DynamicPoolV2.sol:DynamicPoolV2",
        "label": "_status",
        "offset": 0,
        "slot": "101",
        "type": "t_uint256"
      },
      {
        "astId": 499,
        "contract": "contracts/wombat-core/pool/DynamicPoolV2.sol:DynamicPoolV2",
        "label": "__gap",
        "offset": 0,
        "slot": "102",
        "type": "t_array(t_uint256)49_storage"
      },
      {
        "astId": 321,
        "contract": "contracts/wombat-core/pool/DynamicPoolV2.sol:DynamicPoolV2",
        "label": "_paused",
        "offset": 0,
        "slot": "151",
        "type": "t_bool"
      },
      {
        "astId": 426,
        "contract": "contracts/wombat-core/pool/DynamicPoolV2.sol:DynamicPoolV2",
        "label": "__gap",
        "offset": 0,
        "slot": "152",
        "type": "t_array(t_uint256)49_storage"
      },
      {
        "astId": 15143,
        "contract": "contracts/wombat-core/pool/DynamicPoolV2.sol:DynamicPoolV2",
        "label": "_pausedAssets",
        "offset": 0,
        "slot": "201",
        "type": "t_mapping(t_address,t_bool)"
      },
      {
        "astId": 18031,
        "contract": "contracts/wombat-core/pool/DynamicPoolV2.sol:DynamicPoolV2",
        "label": "ampFactor",
        "offset": 0,
        "slot": "202",
        "type": "t_uint256"
      },
      {
        "astId": 18034,
        "contract": "contracts/wombat-core/pool/DynamicPoolV2.sol:DynamicPoolV2",
        "label": "haircutRate",
        "offset": 0,
        "slot": "203",
        "type": "t_uint256"
      },
      {
        "astId": 18037,
        "contract": "contracts/wombat-core/pool/DynamicPoolV2.sol:DynamicPoolV2",
        "label": "retentionRatio",
        "offset": 0,
        "slot": "204",
        "type": "t_uint256"
      },
      {
        "astId": 18040,
        "contract": "contracts/wombat-core/pool/DynamicPoolV2.sol:DynamicPoolV2",
        "label": "lpDividendRatio",
        "offset": 0,
        "slot": "205",
        "type": "t_uint256"
      },
      {
        "astId": 18043,
        "contract": "contracts/wombat-core/pool/DynamicPoolV2.sol:DynamicPoolV2",
        "label": "mintFeeThreshold",
        "offset": 0,
        "slot": "206",
        "type": "t_uint256"
      },
      {
        "astId": 18046,
        "contract": "contracts/wombat-core/pool/DynamicPoolV2.sol:DynamicPoolV2",
        "label": "dev",
        "offset": 0,
        "slot": "207",
        "type": "t_address"
      },
      {
        "astId": 18048,
        "contract": "contracts/wombat-core/pool/DynamicPoolV2.sol:DynamicPoolV2",
        "label": "feeTo",
        "offset": 0,
        "slot": "208",
        "type": "t_address"
      },
      {
        "astId": 18050,
        "contract": "contracts/wombat-core/pool/DynamicPoolV2.sol:DynamicPoolV2",
        "label": "masterWombat",
        "offset": 0,
        "slot": "209",
        "type": "t_address"
      },
      {
        "astId": 18056,
        "contract": "contracts/wombat-core/pool/DynamicPoolV2.sol:DynamicPoolV2",
        "label": "_feeCollected",
        "offset": 0,
        "slot": "210",
        "type": "t_mapping(t_contract(IAsset)6696,t_uint256)"
      },
      {
        "astId": 18060,
        "contract": "contracts/wombat-core/pool/DynamicPoolV2.sol:DynamicPoolV2",
        "label": "_assets",
        "offset": 0,
        "slot": "211",
        "type": "t_struct(AssetMap)18028_storage"
      },
      {
        "astId": 18062,
        "contract": "contracts/wombat-core/pool/DynamicPoolV2.sol:DynamicPoolV2",
        "label": "_used1",
        "offset": 0,
        "slot": "214",
        "type": "t_uint128"
      },
      {
        "astId": 18064,
        "contract": "contracts/wombat-core/pool/DynamicPoolV2.sol:DynamicPoolV2",
        "label": "_used2",
        "offset": 16,
        "slot": "214",
        "type": "t_uint128"
      },
      {
        "astId": 18068,
        "contract": "contracts/wombat-core/pool/DynamicPoolV2.sol:DynamicPoolV2",
        "label": "gap",
        "offset": 0,
        "slot": "215",
        "type": "t_array(t_uint256)49_storage"
      },
      {
        "astId": 14168,
        "contract": "contracts/wombat-core/pool/DynamicPoolV2.sol:DynamicPoolV2",
        "label": "startCovRatio",
        "offset": 0,
        "slot": "264",
        "type": "t_uint128"
      },
      {
        "astId": 14170,
        "contract": "contracts/wombat-core/pool/DynamicPoolV2.sol:DynamicPoolV2",
        "label": "endCovRatio",
        "offset": 16,
        "slot": "264",
        "type": "t_uint128"
      },
      {
        "astId": 14174,
        "contract": "contracts/wombat-core/pool/DynamicPoolV2.sol:DynamicPoolV2",
        "label": "gap",
        "offset": 0,
        "slot": "265",
        "type": "t_array(t_uint256)50_storage"
      },
      {
        "astId": 13284,
        "contract": "contracts/wombat-core/pool/DynamicPoolV2.sol:DynamicPoolV2",
        "label": "gap",
        "offset": 0,
        "slot": "315",
        "type": "t_array(t_uint256)50_storage"
      }
    ],
    "types": {
      "t_address": {
        "encoding": "inplace",
        "label": "address",
        "numberOfBytes": "20"
      },
      "t_array(t_address)dyn_storage": {
        "base": "t_address",
        "encoding": "dynamic_array",
        "label": "address[]",
        "numberOfBytes": "32"
      },
      "t_array(t_uint256)49_storage": {
        "base": "t_uint256",
        "encoding": "inplace",
        "label": "uint256[49]",
        "numberOfBytes": "1568"
      },
      "t_array(t_uint256)50_storage": {
        "base": "t_uint256",
        "encoding": "inplace",
        "label": "uint256[50]",
        "numberOfBytes": "1600"
      },
      "t_bool": {
        "encoding": "inplace",
        "label": "bool",
        "numberOfBytes": "1"
      },
      "t_contract(IAsset)6696": {
        "encoding": "inplace",
        "label": "contract IAsset",
        "numberOfBytes": "20"
      },
      "t_mapping(t_address,t_bool)": {
        "encoding": "mapping",
        "key": "t_address",
        "label": "mapping(address => bool)",
        "numberOfBytes": "32",
        "value": "t_bool"
      },
      "t_mapping(t_address,t_contract(IAsset)6696)": {
        "encoding": "mapping",
        "key": "t_address",
        "label": "mapping(address => contract IAsset)",
        "numberOfBytes": "32",
        "value": "t_contract(IAsset)6696"
      },
      "t_mapping(t_address,t_uint256)": {
        "encoding": "mapping",
        "key": "t_address",
        "label": "mapping(address => uint256)",
        "numberOfBytes": "32",
        "value": "t_uint256"
      },
      "t_mapping(t_contract(IAsset)6696,t_uint256)": {
        "encoding": "mapping",
        "key": "t_contract(IAsset)6696",
        "label": "mapping(contract IAsset => uint256)",
        "numberOfBytes": "32",
        "value": "t_uint256"
      },
      "t_struct(AssetMap)18028_storage": {
        "encoding": "inplace",
        "label": "struct PoolV2.AssetMap",
        "members": [
          {
            "astId": 18018,
            "contract": "contracts/wombat-core/pool/DynamicPoolV2.sol:DynamicPoolV2",
            "label": "keys",
            "offset": 0,
            "slot": "0",
            "type": "t_array(t_address)dyn_storage"
          },
          {
            "astId": 18023,
            "contract": "contracts/wombat-core/pool/DynamicPoolV2.sol:DynamicPoolV2",
            "label": "values",
            "offset": 0,
            "slot": "1",
            "type": "t_mapping(t_address,t_contract(IAsset)6696)"
          },
          {
            "astId": 18027,
            "contract": "contracts/wombat-core/pool/DynamicPoolV2.sol:DynamicPoolV2",
            "label": "indexOf",
            "offset": 0,
            "slot": "2",
            "type": "t_mapping(t_address,t_uint256)"
          }
        ],
        "numberOfBytes": "96"
      },
      "t_uint128": {
        "encoding": "inplace",
        "label": "uint128",
        "numberOfBytes": "16"
      },
      "t_uint256": {
        "encoding": "inplace",
        "label": "uint256",
        "numberOfBytes": "32"
      },
      "t_uint8": {
        "encoding": "inplace",
        "label": "uint8",
        "numberOfBytes": "1"
      }
    }
  }
}