{
  "address": "0x88bEb144352BD3109c79076202Fac2bcEAb87117",
  "abi": [
    {
      "inputs": [
        {
          "internalType": "address",
          "name": "underlyingToken_",
          "type": "address"
        },
        {
          "internalType": "string",
          "name": "name_",
          "type": "string"
        },
        {
          "internalType": "string",
          "name": "symbol_",
          "type": "string"
        }
      ],
      "stateMutability": "nonpayable",
      "type": "constructor"
    },
    {
      "inputs": [],
      "name": "ASSET_OVERFLOW",
      "type": "error"
    },
    {
      "inputs": [
        {
          "internalType": "uint256",
          "name": "tokenBalance",
          "type": "uint256"
        },
        {
          "internalType": "uint256",
          "name": "cash",
          "type": "uint256"
        }
      ],
      "name": "NotEnoughCash",
      "type": "error"
    },
    {
      "inputs": [],
      "name": "WOMBAT_FORBIDDEN",
      "type": "error"
    },
    {
      "anonymous": false,
      "inputs": [
        {
          "indexed": true,
          "internalType": "address",
          "name": "owner",
          "type": "address"
        },
        {
          "indexed": true,
          "internalType": "address",
          "name": "spender",
          "type": "address"
        },
        {
          "indexed": false,
          "internalType": "uint256",
          "name": "value",
          "type": "uint256"
        }
      ],
      "name": "Approval",
      "type": "event"
    },
    {
      "anonymous": false,
      "inputs": [
        {
          "indexed": true,
          "internalType": "address",
          "name": "previousOwner",
          "type": "address"
        },
        {
          "indexed": true,
          "internalType": "address",
          "name": "newOwner",
          "type": "address"
        }
      ],
      "name": "OwnershipTransferred",
      "type": "event"
    },
    {
      "anonymous": false,
      "inputs": [
        {
          "indexed": true,
          "internalType": "bytes32",
          "name": "role",
          "type": "bytes32"
        },
        {
          "indexed": true,
          "internalType": "bytes32",
          "name": "previousAdminRole",
          "type": "bytes32"
        },
        {
          "indexed": true,
          "internalType": "bytes32",
          "name": "newAdminRole",
          "type": "bytes32"
        }
      ],
      "name": "RoleAdminChanged",
      "type": "event"
    },
    {
      "anonymous": false,
      "inputs": [
        {
          "indexed": true,
          "internalType": "bytes32",
          "name": "role",
          "type": "bytes32"
        },
        {
          "indexed": true,
          "internalType": "address",
          "name": "account",
          "type": "address"
        },
        {
          "indexed": true,
          "internalType": "address",
          "name": "sender",
          "type": "address"
        }
      ],
      "name": "RoleGranted",
      "type": "event"
    },
    {
      "anonymous": false,
      "inputs": [
        {
          "indexed": true,
          "internalType": "bytes32",
          "name": "role",
          "type": "bytes32"
        },
        {
          "indexed": true,
          "internalType": "address",
          "name": "account",
          "type": "address"
        },
        {
          "indexed": true,
          "internalType": "address",
          "name": "sender",
          "type": "address"
        }
      ],
      "name": "RoleRevoked",
      "type": "event"
    },
    {
      "anonymous": false,
      "inputs": [
        {
          "indexed": false,
          "internalType": "uint256",
          "name": "previousMaxSupply",
          "type": "uint256"
        },
        {
          "indexed": false,
          "internalType": "uint256",
          "name": "newMaxSupply",
          "type": "uint256"
        }
      ],
      "name": "SetMaxSupply",
      "type": "event"
    },
    {
      "anonymous": false,
      "inputs": [
        {
          "indexed": false,
          "internalType": "address",
          "name": "previousPoolAddr",
          "type": "address"
        },
        {
          "indexed": false,
          "internalType": "address",
          "name": "newPoolAddr",
          "type": "address"
        }
      ],
      "name": "SetPool",
      "type": "event"
    },
    {
      "anonymous": false,
      "inputs": [
        {
          "indexed": false,
          "internalType": "uint256",
          "name": "amount",
          "type": "uint256"
        },
        {
          "indexed": false,
          "internalType": "address",
          "name": "to",
          "type": "address"
        }
      ],
      "name": "Skim",
      "type": "event"
    },
    {
      "anonymous": false,
      "inputs": [
        {
          "indexed": true,
          "internalType": "address",
          "name": "from",
          "type": "address"
        },
        {
          "indexed": true,
          "internalType": "address",
          "name": "to",
          "type": "address"
        },
        {
          "indexed": false,
          "internalType": "uint256",
          "name": "value",
          "type": "uint256"
        }
      ],
      "name": "Transfer",
      "type": "event"
    },
    {
      "inputs": [],
      "name": "DEFAULT_ADMIN_ROLE",
      "outputs": [
        {
          "internalType": "bytes32",
          "name": "",
          "type": "bytes32"
        }
      ],
      "stateMutability": "view",
      "type": "function"
    },
    {
      "inputs": [],
      "name": "DOMAIN_SEPARATOR",
      "outputs": [
        {
          "internalType": "bytes32",
          "name": "",
          "type": "bytes32"
        }
      ],
      "stateMutability": "view",
      "type": "function"
    },
    {
      "inputs": [],
      "name": "ROLE_SkimAdmin",
      "outputs": [
        {
          "internalType": "bytes32",
          "name": "",
          "type": "bytes32"
        }
      ],
      "stateMutability": "view",
      "type": "function"
    },
    {
      "inputs": [
        {
          "internalType": "uint256",
          "name": "amount",
          "type": "uint256"
        }
      ],
      "name": "addCash",
      "outputs": [],
      "stateMutability": "nonpayable",
      "type": "function"
    },
    {
      "inputs": [
        {
          "internalType": "uint256",
          "name": "amount",
          "type": "uint256"
        }
      ],
      "name": "addLiability",
      "outputs": [],
      "stateMutability": "nonpayable",
      "type": "function"
    },
    {
      "inputs": [
        {
          "internalType": "address",
          "name": "_admin",
          "type": "address"
        }
      ],
      "name": "addSkimAdmin",
      "outputs": [],
      "stateMutability": "nonpayable",
      "type": "function"
    },
    {
      "inputs": [
        {
          "internalType": "address",
          "name": "owner",
          "type": "address"
        },
        {
          "internalType": "address",
          "name": "spender",
          "type": "address"
        }
      ],
      "name": "allowance",
      "outputs": [
        {
          "internalType": "uint256",
          "name": "",
          "type": "uint256"
        }
      ],
      "stateMutability": "view",
      "type": "function"
    },
    {
      "inputs": [
        {
          "internalType": "address",
          "name": "spender",
          "type": "address"
        },
        {
          "internalType": "uint256",
          "name": "amount",
          "type": "uint256"
        }
      ],
      "name": "approve",
      "outputs": [
        {
          "internalType": "bool",
          "name": "",
          "type": "bool"
        }
      ],
      "stateMutability": "nonpayable",
      "type": "function"
    },
    {
      "inputs": [
        {
          "internalType": "address",
          "name": "account",
          "type": "address"
        }
      ],
      "name": "balanceOf",
      "outputs": [
        {
          "internalType": "uint256",
          "name": "",
          "type": "uint256"
        }
      ],
      "stateMutability": "view",
      "type": "function"
    },
    {
      "inputs": [
        {
          "internalType": "address",
          "name": "to",
          "type": "address"
        },
        {
          "internalType": "uint256",
          "name": "amount",
          "type": "uint256"
        }
      ],
      "name": "burn",
      "outputs": [],
      "stateMutability": "nonpayable",
      "type": "function"
    },
    {
      "inputs": [],
      "name": "cash",
      "outputs": [
        {
          "internalType": "uint120",
          "name": "",
          "type": "uint120"
        }
      ],
      "stateMutability": "view",
      "type": "function"
    },
    {
      "inputs": [],
      "name": "decimals",
      "outputs": [
        {
          "internalType": "uint8",
          "name": "",
          "type": "uint8"
        }
      ],
      "stateMutability": "view",
      "type": "function"
    },
    {
      "inputs": [
        {
          "internalType": "address",
          "name": "spender",
          "type": "address"
        },
        {
          "internalType": "uint256",
          "name": "subtractedValue",
          "type": "uint256"
        }
      ],
      "name": "decreaseAllowance",
      "outputs": [
        {
          "internalType": "bool",
          "name": "",
          "type": "bool"
        }
      ],
      "stateMutability": "nonpayable",
      "type": "function"
    },
    {
      "inputs": [
        {
          "internalType": "bytes32",
          "name": "role",
          "type": "bytes32"
        }
      ],
      "name": "getRoleAdmin",
      "outputs": [
        {
          "internalType": "bytes32",
          "name": "",
          "type": "bytes32"
        }
      ],
      "stateMutability": "view",
      "type": "function"
    },
    {
      "inputs": [
        {
          "internalType": "bytes32",
          "name": "role",
          "type": "bytes32"
        },
        {
          "internalType": "uint256",
          "name": "index",
          "type": "uint256"
        }
      ],
      "name": "getRoleMember",
      "outputs": [
        {
          "internalType": "address",
          "name": "",
          "type": "address"
        }
      ],
      "stateMutability": "view",
      "type": "function"
    },
    {
      "inputs": [
        {
          "internalType": "bytes32",
          "name": "role",
          "type": "bytes32"
        }
      ],
      "name": "getRoleMemberCount",
      "outputs": [
        {
          "internalType": "uint256",
          "name": "",
          "type": "uint256"
        }
      ],
      "stateMutability": "view",
      "type": "function"
    },
    {
      "inputs": [
        {
          "internalType": "bytes32",
          "name": "role",
          "type": "bytes32"
        },
        {
          "internalType": "address",
          "name": "account",
          "type": "address"
        }
      ],
      "name": "grantRole",
      "outputs": [],
      "stateMutability": "nonpayable",
      "type": "function"
    },
    {
      "inputs": [
        {
          "internalType": "bytes32",
          "name": "role",
          "type": "bytes32"
        },
        {
          "internalType": "address",
          "name": "account",
          "type": "address"
        }
      ],
      "name": "hasRole",
      "outputs": [
        {
          "internalType": "bool",
          "name": "",
          "type": "bool"
        }
      ],
      "stateMutability": "view",
      "type": "function"
    },
    {
      "inputs": [
        {
          "internalType": "address",
          "name": "spender",
          "type": "address"
        },
        {
          "internalType": "uint256",
          "name": "addedValue",
          "type": "uint256"
        }
      ],
      "name": "increaseAllowance",
      "outputs": [
        {
          "internalType": "bool",
          "name": "",
          "type": "bool"
        }
      ],
      "stateMutability": "nonpayable",
      "type": "function"
    },
    {
      "inputs": [],
      "name": "liability",
      "outputs": [
        {
          "internalType": "uint120",
          "name": "",
          "type": "uint120"
        }
      ],
      "stateMutability": "view",
      "type": "function"
    },
    {
      "inputs": [],
      "name": "maxSupply",
      "outputs": [
        {
          "internalType": "uint256",
          "name": "",
          "type": "uint256"
        }
      ],
      "stateMutability": "view",
      "type": "function"
    },
    {
      "inputs": [
        {
          "internalType": "address",
          "name": "to",
          "type": "address"
        },
        {
          "internalType": "uint256",
          "name": "amount",
          "type": "uint256"
        }
      ],
      "name": "mint",
      "outputs": [],
      "stateMutability": "nonpayable",
      "type": "function"
    },
    {
      "inputs": [],
      "name": "name",
      "outputs": [
        {
          "internalType": "string",
          "name": "",
          "type": "string"
        }
      ],
      "stateMutability": "view",
      "type": "function"
    },
    {
      "inputs": [
        {
          "internalType": "address",
          "name": "owner",
          "type": "address"
        }
      ],
      "name": "nonces",
      "outputs": [
        {
          "internalType": "uint256",
          "name": "",
          "type": "uint256"
        }
      ],
      "stateMutability": "view",
      "type": "function"
    },
    {
      "inputs": [],
      "name": "owner",
      "outputs": [
        {
          "internalType": "address",
          "name": "",
          "type": "address"
        }
      ],
      "stateMutability": "view",
      "type": "function"
    },
    {
      "inputs": [
        {
          "internalType": "address",
          "name": "owner",
          "type": "address"
        },
        {
          "internalType": "address",
          "name": "spender",
          "type": "address"
        },
        {
          "internalType": "uint256",
          "name": "value",
          "type": "uint256"
        },
        {
          "internalType": "uint256",
          "name": "deadline",
          "type": "uint256"
        },
        {
          "internalType": "uint8",
          "name": "v",
          "type": "uint8"
        },
        {
          "internalType": "bytes32",
          "name": "r",
          "type": "bytes32"
        },
        {
          "internalType": "bytes32",
          "name": "s",
          "type": "bytes32"
        }
      ],
      "name": "permit",
      "outputs": [],
      "stateMutability": "nonpayable",
      "type": "function"
    },
    {
      "inputs": [],
      "name": "pool",
      "outputs": [
        {
          "internalType": "address",
          "name": "",
          "type": "address"
        }
      ],
      "stateMutability": "view",
      "type": "function"
    },
    {
      "inputs": [
        {
          "internalType": "uint256",
          "name": "amount",
          "type": "uint256"
        }
      ],
      "name": "removeCash",
      "outputs": [],
      "stateMutability": "nonpayable",
      "type": "function"
    },
    {
      "inputs": [
        {
          "internalType": "uint256",
          "name": "amount",
          "type": "uint256"
        }
      ],
      "name": "removeLiability",
      "outputs": [],
      "stateMutability": "nonpayable",
      "type": "function"
    },
    {
      "inputs": [
        {
          "internalType": "address",
          "name": "_admin",
          "type": "address"
        }
      ],
      "name": "removeSkimAdmin",
      "outputs": [],
      "stateMutability": "nonpayable",
      "type": "function"
    },
    {
      "inputs": [],
      "name": "renounceOwnership",
      "outputs": [],
      "stateMutability": "nonpayable",
      "type": "function"
    },
    {
      "inputs": [
        {
          "internalType": "bytes32",
          "name": "role",
          "type": "bytes32"
        },
        {
          "internalType": "address",
          "name": "account",
          "type": "address"
        }
      ],
      "name": "renounceRole",
      "outputs": [],
      "stateMutability": "nonpayable",
      "type": "function"
    },
    {
      "inputs": [
        {
          "internalType": "bytes32",
          "name": "role",
          "type": "bytes32"
        },
        {
          "internalType": "address",
          "name": "account",
          "type": "address"
        }
      ],
      "name": "revokeRole",
      "outputs": [],
      "stateMutability": "nonpayable",
      "type": "function"
    },
    {
      "inputs": [
        {
          "internalType": "uint256",
          "name": "maxSupply_",
          "type": "uint256"
        }
      ],
      "name": "setMaxSupply",
      "outputs": [],
      "stateMutability": "nonpayable",
      "type": "function"
    },
    {
      "inputs": [
        {
          "internalType": "address",
          "name": "pool_",
          "type": "address"
        }
      ],
      "name": "setPool",
      "outputs": [],
      "stateMutability": "nonpayable",
      "type": "function"
    },
    {
      "inputs": [
        {
          "internalType": "address",
          "name": "_to",
          "type": "address"
        }
      ],
      "name": "skim",
      "outputs": [
        {
          "internalType": "uint256",
          "name": "amount",
          "type": "uint256"
        }
      ],
      "stateMutability": "nonpayable",
      "type": "function"
    },
    {
      "inputs": [
        {
          "internalType": "bytes4",
          "name": "interfaceId",
          "type": "bytes4"
        }
      ],
      "name": "supportsInterface",
      "outputs": [
        {
          "internalType": "bool",
          "name": "",
          "type": "bool"
        }
      ],
      "stateMutability": "view",
      "type": "function"
    },
    {
      "inputs": [],
      "name": "symbol",
      "outputs": [
        {
          "internalType": "string",
          "name": "",
          "type": "string"
        }
      ],
      "stateMutability": "view",
      "type": "function"
    },
    {
      "inputs": [],
      "name": "totalSupply",
      "outputs": [
        {
          "internalType": "uint256",
          "name": "",
          "type": "uint256"
        }
      ],
      "stateMutability": "view",
      "type": "function"
    },
    {
      "inputs": [
        {
          "internalType": "address",
          "name": "to",
          "type": "address"
        },
        {
          "internalType": "uint256",
          "name": "amount",
          "type": "uint256"
        }
      ],
      "name": "transfer",
      "outputs": [
        {
          "internalType": "bool",
          "name": "",
          "type": "bool"
        }
      ],
      "stateMutability": "nonpayable",
      "type": "function"
    },
    {
      "inputs": [
        {
          "internalType": "address",
          "name": "from",
          "type": "address"
        },
        {
          "internalType": "address",
          "name": "to",
          "type": "address"
        },
        {
          "internalType": "uint256",
          "name": "amount",
          "type": "uint256"
        }
      ],
      "name": "transferFrom",
      "outputs": [
        {
          "internalType": "bool",
          "name": "",
          "type": "bool"
        }
      ],
      "stateMutability": "nonpayable",
      "type": "function"
    },
    {
      "inputs": [
        {
          "internalType": "address",
          "name": "newOwner",
          "type": "address"
        }
      ],
      "name": "transferOwnership",
      "outputs": [],
      "stateMutability": "nonpayable",
      "type": "function"
    },
    {
      "inputs": [
        {
          "internalType": "address",
          "name": "to",
          "type": "address"
        },
        {
          "internalType": "uint256",
          "name": "amount",
          "type": "uint256"
        }
      ],
      "name": "transferUnderlyingToken",
      "outputs": [],
      "stateMutability": "nonpayable",
      "type": "function"
    },
    {
      "inputs": [],
      "name": "underlyingToken",
      "outputs": [
        {
          "internalType": "address",
          "name": "",
          "type": "address"
        }
      ],
      "stateMutability": "view",
      "type": "function"
    },
    {
      "inputs": [],
      "name": "underlyingTokenBalance",
      "outputs": [
        {
          "internalType": "uint256",
          "name": "",
          "type": "uint256"
        }
      ],
      "stateMutability": "view",
      "type": "function"
    },
    {
      "inputs": [],
      "name": "underlyingTokenDecimals",
      "outputs": [
        {
          "internalType": "uint8",
          "name": "",
          "type": "uint8"
        }
      ],
      "stateMutability": "view",
      "type": "function"
    }
  ],
  "transactionHash": "0x49d8d031d1ba6b7b37bf27815bdc1f0828306f17d01691c61ad86bf30b4b2cac",
  "args": [
    "0xe80772Eaf6e2E18B651F160Bc9158b2A5caFCA65",
    "Wombat USD+ Asset",
    "LP-USD+"
  ],
  "numDeployments": 1,
  "solcInputHash": "80c86dbc3c9fdcc6cd72d31768362d04",
  "bytecode": "0x61018060408181523462000529576200311e80380380916200002282866200052e565b8439820191606081840312620005295780516001600160a01b0380821694909390858303620005295760208481015190956001600160401b039590918681116200052957836200007491830162000552565b928482015187811162000529576200008d920162000552565b94835196848801888110838211176200051357855260019384895281890190603160f81b82526000948554903360018060a01b031983161787553391167f8be0079c531659141344cd1fd0a4f28419497f9722a3daafe3b4186f6b6457e08780a3805198848a11620004ff576004998a54908882811c92168015620004f4575b86831014620004e157601f9182811162000499575b508086838211600114620004375789916200042b575b50600019600383901b1c191690891b178b555b815190868211620004185760059283548a81811c911680156200040d575b88821014620003f95790818385949311620003a6575b50879183116001146200034257899262000336575b5050600019600383901b1c191690881b1790555b82815191012098519020968860e05261010099888b524660a052865198838a01907f8b73c3c69bb8fe3d512ecc4cf759cc79239f7b179b0ffacaa9a75d522b39400f9b8c8352898c015260608b01524660808b01523060a08b015260a08a5260c08a01948a8610908611176200032357848852895190206080523060c052610120998a5261014097885263313ce56760e01b84528291849182905afa96871562000319578397620002cc575b50505050610160938452600b555192612b549485620005ca8639608051856125d9015260a051856126a5015260c051856125aa015260e051856126280152518461264e0152518361260501525182818161076001528181610c3e01528181610e1b01526117ed0152518181816107cc01526112490152f35b908092939497503d831162000311575b620002e881856200052e565b810103126200030d57519060ff821682036200030a5750923880808062000254565b80fd5b5080fd5b503d620002dc565b85513d85823e3d90fd5b634e487b7160e01b865260418352602486fd5b01519050388062000194565b848a52878a208b94509190601f1984168b5b8a8282106200038f575050841162000375575b505050811b019055620001a8565b015160001960f88460031b161c1916905538808062000367565b8385015186558e9790950194938401930162000354565b90919250848a52878a2083808601871c8201928a8710620003ef575b9186958e9295949301881c01915b828110620003e05750506200017f565b8c81558695508d9101620003d0565b92508192620003c2565b50634e487b7160e01b895260228d52602489fd5b90607f169062000169565b634e487b7160e01b885260418c52602488fd5b90508401513862000138565b8d8a52878a208b935090601f1983168b5b8a82821062000482575050831162000468575b5050811b018b556200014b565b86015160001960f88460031b161c1916905538806200045b565b838a015185558e9690940193928301920162000448565b8c89528689208380840160051c820192898510620004d7575b0160051c01908a905b828110620004cb57505062000122565b8a8155018a90620004bb565b92508192620004b2565b634e487b7160e01b885260228c52602488fd5b91607f16916200010d565b634e487b7160e01b86526041600452602486fd5b634e487b7160e01b600052604160045260246000fd5b600080fd5b601f909101601f19168101906001600160401b038211908210176200051357604052565b919080601f8401121562000529578251906001600160401b0382116200051357604051916020916200058e601f8301601f19168401856200052e565b818452828287010111620005295760005b818110620005b557508260009394955001015290565b85810183015184820184015282016200059f56fe6080604081815260048036101561001557600080fd5b600092833560e01c90816301ffc9a714611af35750806303de65d714611ab857806306fdde03146119c2578063095ea7b31461199857806316c9e7a01461194d57806316f0115b1461192557806318160ddd1461190657806323b872dd1461183b578063248a9ca3146118115780632495a599146117cd5780632f2ff15d14611761578063313ce567146117455780633644e5151461172157806336568abe14611681578063395093511461163257806340c10f191461147a5780634437152a146113885780636f8b44b014611335578063705727b51461130a57806370a08231146112d3578063715018a61461126d5780637284168a1461122f57806379fdf4c81461116d5780637ecebe0014611136578063846287471461106c5780638da5cb5b146110465780639010d07c1461100557806391d1485414610fc057806395d89b4114610ebe578063961be39114610e9657806399c91a6414610de75780639dc29fac14610c725780639e79eaa514610c035780639f9ef98814610b52578063a0f0f60414610a9d578063a217fddf14610a82578063a457c2d7146109c2578063a9059cbb14610991578063bc25cf77146106b3578063ca15c8731461068c578063d505accf146104a6578063d547741f14610468578063d5abeb0114610449578063d8b8785314610359578063dd62ed3e146103095763f2fde38b1461021d57600080fd5b3461030557602036600319011261030557610236611c14565b9061023f612053565b6001600160a01b0380921692831561029c5750506000548273ffffffffffffffffffffffffffffffffffffffff19821617600055167f8be0079c531659141344cd1fd0a4f28419497f9722a3daafe3b4186f6b6457e0600080a380f35b906020608492519162461bcd60e51b8352820152602660248201527f4f776e61626c653a206e6577206f776e657220697320746865207a65726f206160448201527f64647265737300000000000000000000000000000000000000000000000000006064820152fd5b8280fd5b505034610355578060031936011261035557602091610326611c14565b8261032f611c2a565b926001600160a01b03809316815260028652209116600052825280600020549051908152f35b5080fd5b509034610305576020366003190112610305578135916001600160a01b0360085416330361043b57600954926001600160781b0391828560781c16938285106103f85750507fffff000000000000000000000000000000ffffffffffffffffffffffffffffff927dffffffffffffffffffffffffffffff000000000000000000000000000000926103eb921690612a7d565b60781b1691161760095580f35b906020606492519162461bcd60e51b8352820152601e60248201527f576f6d6261743a20494e53554646494349454e545f4c494142494c49545900006044820152fd5b90516316fde3bd60e21b8152fd5b505034610355578160031936011261035557602090600a549051908152f35b5090346103055780600319360112610305576104a3913561049e600161048c611c2a565b93838752600c60205286200154611c40565b611fc9565b80f35b508290346103555760e0366003190112610355576104c2611c14565b6104ca611c2a565b906044359260643560843560ff8116810361068857814211610645576001600160a01b0390818516928389526006602052898920908154916001830190558a519060208201927f6e71edae12b1b97f4d1f60370fef10105fa2faae0126114a169c64845d6126c98452868d840152858a1660608401528a608084015260a083015260c082015260c0815260e0810181811067ffffffffffffffff821117610630578b525190206105db916105d3916105806125a0565b918c519160208301937f1901000000000000000000000000000000000000000000000000000000000000855260228401526042830152604282526105c382611f75565b60c4359260a43592519020612511565b9190916123df565b16036105ed57506104a3939450612284565b606490602087519162461bcd60e51b8352820152601e60248201527f45524332305065726d69743a20696e76616c6964207369676e617475726500006044820152fd5b604187634e487b7160e01b6000525260246000fd5b60648360208a519162461bcd60e51b8352820152601d60248201527f45524332305065726d69743a206578706972656420646561646c696e650000006044820152fd5b8680fd5b5034610305576020366003190112610305576020928291358152600d845220549051908152f35b509190346103555760209283600319360112610305576106d1611c14565b906002600b541461094f576002600b557f0a4b38f5c930cca80bb83506ef498f40ca6c64dcf470153a593f41a4b85c765d8452600c8552828420338552855260ff83852054161561090d576001600160a01b0390816008541690813b156109095784517ff8b49e72000000000000000000000000000000000000000000000000000000008152868160248183887f0000000000000000000000000000000000000000000000000000000000000000169788888401525af180156108ff576108d1575b5084516370a0823160e01b815230828201528781602481865afa9687156108c65796610892575b506107f16001600160781b03600954167f000000000000000000000000000000000000000000000000000000000000000090612aa7565b80871061085d578603958611610848575091839161083186837f2894e28df6996d5ecb33bb0211ff5b6bc6e7a7acfcc05171bf7aa9931b9a346c96612849565b8251918683521686820152a16001600b5551908152f35b601190634e487b7160e01b6000525260246000fd5b60449250868651927fa62613f60000000000000000000000000000000000000000000000000000000084528301526024820152fd5b9095508681813d83116108bf575b6108aa8183611fa7565b810103126108ba575194386107ba565b600080fd5b503d6108a0565b8651903d90823e3d90fd5b67ffffffffffffffff81979297116108ec5785529438610793565b602482604189634e487b7160e01b835252fd5b86513d89823e3d90fd5b8580fd5b6064908584519162461bcd60e51b8352820152600e60248201527f6e6f7420617574686f72697a65640000000000000000000000000000000000006044820152fd5b6064908584519162461bcd60e51b8352820152601f60248201527f5265656e7472616e637947756172643a207265656e7472616e742063616c6c006044820152fd5b5050346103555780600319360112610355576020906109bb6109b1611c14565b60243590336120ce565b5160018152f35b508234610a7f5782600319360112610a7f576109dc611c14565b91836024359233815260026020528181206001600160a01b0386168252602052205490828210610a16576020856109bb8585038733612284565b608490602086519162461bcd60e51b8352820152602560248201527f45524332303a2064656372656173656420616c6c6f77616e63652062656c6f7760448201527f207a65726f0000000000000000000000000000000000000000000000000000006064820152fd5b80fd5b50503461035557816003193601126103555751908152602090f35b509034610305576020366003190112610305578135916001600160a01b0360085416330361043b576001600160781b0391828411610b2c5750507dffffffffffffffffffffffffffffff0000000000000000000000000000006103eb827fffff000000000000000000000000000000ffffffffffffffffffffffffffffff936009549516908560781c16612a62565b517fd305209a000000000000000000000000000000000000000000000000000000008152fd5b5034610305576020366003190112610305578035916001600160a01b03600854163303610bf657600954926001600160781b039283851692828410610bb35750509082610ba0921690612a7d565b16906001600160781b0319161760095580f35b906020606492519162461bcd60e51b8352820152601960248201527f576f6d6261743a20494e53554646494349454e545f43415348000000000000006044820152fd5b516316fde3bd60e21b8152fd5b50919034610355578060031936011261035557610c1e611c14565b6001600160a01b039182600854163303610c635750906104a391602435917f000000000000000000000000000000000000000000000000000000000000000016612849565b8490516316fde3bd60e21b8152fd5b50829034610355578260031936011261035557610c8d611c14565b602435906001600160a01b039081600854163303610dd85716918215610d6f5782845260016020528484205490828210610d0657508184957fddf252ad1be2c89b69c2b068fc378daa952ba7f163c4a11628f55a4df523b3ef93602093868852600185520381872055816003540360035551908152a380f35b608490602087519162461bcd60e51b8352820152602260248201527f45524332303a206275726e20616d6f756e7420657863656564732062616c616e60448201527f63650000000000000000000000000000000000000000000000000000000000006064820152fd5b608490602086519162461bcd60e51b8352820152602160248201527f45524332303a206275726e2066726f6d20746865207a65726f2061646472657360448201527f73000000000000000000000000000000000000000000000000000000000000006064820152fd5b8386516316fde3bd60e21b8152fd5b5090346103055782600319360112610305578051916370a0823160e01b835230908301526020826024816001600160a01b037f0000000000000000000000000000000000000000000000000000000000000000165afa918215610e8c578392610e55575b6020838351908152f35b9091506020813d8211610e84575b81610e7060209383611fa7565b810103126103055760209250519038610e4b565b3d9150610e63565b81513d85823e3d90fd5b5050346103555781600319360112610355576020906001600160781b03600954169051908152f35b509034610305578260031936011261030557805191836005549060019082821c928281168015610fb6575b6020958686108214610fa35750848852908115610f815750600114610f28575b610f248686610f1a828b0383611fa7565b5191829182611be8565b0390f35b929550600583527f036b6384b5eca791c62761152d0c79bb0604c104a5fb6f4eb0703f3154bb3db05b828410610f6e5750505082610f2494610f1a928201019438610f09565b8054868501880152928601928101610f51565b60ff191687860152505050151560051b8301019250610f1a82610f2438610f09565b836022602492634e487b7160e01b835252fd5b93607f1693610ee9565b50346103055781600319360112610305578160209360ff92610fe0611c2a565b90358252600c86526001600160a01b0383832091168252855220541690519015158152f35b50346103055781600319360112610305576110376020936001600160a01b0392358152600d85528360243591206126cb565b92905490519260031b1c168152f35b5050346103555781600319360112610355576001600160a01b0360209254169051908152f35b50503461035557602080600319360112610305576110e991600d61108e611c14565b92611097612053565b7f0a4b38f5c930cca80bb83506ef498f40ca6c64dcf470153a593f41a4b85c765d808752600c82526001600160a01b03848820951694858852825260ff8488205416156110ed575b86525283206126e3565b5080f35b808752600c82528387208588528252838720805460ff191660011790553385827f2f8788117e7eff1d82e926ec794901d17c78024a50270940304540a733656f0d8a80a46110df565b50503461035557602036600319011261035557806020926001600160a01b0361115d611c14565b1681526006845220549051908152f35b50503461035557602080600319360112610305576110e991600d61118f611c14565b92611198612053565b7f0a4b38f5c930cca80bb83506ef498f40ca6c64dcf470153a593f41a4b85c765d808752600c82526001600160a01b03848820951694858852825260ff84882054166111e9575b865252832061276d565b808752600c82528387208588528252838720805460ff191690553385827ff6391f5c32d9c69d2a47ea670b442974b53935d1edc7fd64eb21e047a839171b8a80a46111df565b5050346103555781600319360112610355576020905160ff7f0000000000000000000000000000000000000000000000000000000000000000168152f35b8334610a7f5780600319360112610a7f57611286612053565b806001600160a01b03815473ffffffffffffffffffffffffffffffffffffffff1981168355167f8be0079c531659141344cd1fd0a4f28419497f9722a3daafe3b4186f6b6457e08280a380f35b50503461035557602036600319011261035557806020926001600160a01b036112fa611c14565b1681526001845220549051908152f35b5050346103555781600319360112610355576020906001600160781b0360095460781c169051908152f35b5034610305576020366003190112610305577f4e4144d58c74765aab6b864c8cb807767198960f6ae6b4b135c56d41b639b7fe903591611373612053565b600a548151908152836020820152a1600a5580f35b509034610305576020366003190112610305576113a3611c14565b906113ac612053565b6001600160a01b038092169283156114125750907f390ace337562623e4cf938891cfa7e80b7b2e6ff395963aba93e537ce67e842c73ffffffffffffffffffffffffffffffffffffffff19926008549281519084168152856020820152a1161760085580f35b6020608492519162461bcd60e51b8352820152602360248201527f576f6d6261743a20506f6f6c20616464726573732063616e6e6f74206265207a60448201527f65726f00000000000000000000000000000000000000000000000000000000006064820152fd5b509034610305578060031936011261030557611494611c14565b90602435916001600160a01b03908160085416330361162357600a548061154f575b501692831561150d57506020827fddf252ad1be2c89b69c2b068fc378daa952ba7f163c4a11628f55a4df523b3ef926114f287956003546120ab565b6003558585526001835280852082815401905551908152a380f35b6020606492519162461bcd60e51b8352820152601f60248201527f45524332303a206d696e7420746f20746865207a65726f2061646472657373006044820152fd5b83517f18160ddd0000000000000000000000000000000000000000000000000000000081526020818881305afa80156116195788906115e2575b6115949150866120ab565b1161159f57386114b6565b606485602085519162461bcd60e51b8352820152601a60248201527f576f6d6261743a204d41585f535550504c595f524541434845440000000000006044820152fd5b506020813d8211611611575b816115fb60209383611fa7565b8101031261160d576115949051611589565b8780fd5b3d91506115ee565b85513d8a823e3d90fd5b8483516316fde3bd60e21b8152fd5b5050346103555780600319360112610355576109bb60209261167a611655611c14565b91338152600286528481206001600160a01b03841682528652846024359120546120ab565b9033612284565b5082903461035557826003193601126103555761169c611c2a565b90336001600160a01b038316036116b857906104a39135611fc9565b608490602085519162461bcd60e51b8352820152602f60248201527f416363657373436f6e74726f6c3a2063616e206f6e6c792072656e6f756e636560448201527f20726f6c657320666f722073656c6600000000000000000000000000000000006064820152fd5b50503461035557816003193601126103555760209061173e6125a0565b9051908152f35b5050346103555781600319360112610355576020905160128152f35b5090346103055780600319360112610305576110e9913590600d611783611c2a565b92808652602090600c825261179d60018589200154611c40565b808752600c82526001600160a01b03848820951694858852825260ff8488205416156110ed5786525283206126e3565b505034610355578160031936011261035557602090516001600160a01b037f0000000000000000000000000000000000000000000000000000000000000000168152f35b50346103055760203660031901126103055781602093600192358152600c85522001549051908152f35b5082903461035557606036600319011261035557611857611c14565b61185f611c2a565b9184604435946001600160a01b03841681526002602052818120338252602052205490600019820361189a575b6020866109bb8787876120ce565b8482106118c357509183916118b8602096956109bb95033383612284565b91939481935061188c565b606490602087519162461bcd60e51b8352820152601d60248201527f45524332303a20696e73756666696369656e7420616c6c6f77616e63650000006044820152fd5b5050346103555781600319360112610355576020906003549051908152f35b5050346103555781600319360112610355576020906001600160a01b03600854169051908152f35b509034610305576020366003190112610305578135916001600160a01b0360085416330361043b576001600160781b0391828411610b2c575050610ba0816009549316828416612a62565b5050346103555780600319360112610355576020906109bb6119b8611c14565b6024359033612284565b50919034610355578160031936011261035557805191809380549160019083821c92828516948515611aae575b6020958686108114611a9b57858952908115611a775750600114611a1f575b610f248787610f1a828c0383611fa7565b81529295507f8a35acfbc15ff81a39ae7d344fd709f28e8600b4aa8c65c6b64bfe7fe36bd19b5b828410611a645750505082610f2494610f1a92820101943880611a0e565b8054868501880152928601928101611a46565b60ff19168887015250505050151560051b8301019250610f1a82610f243880611a0e565b602484602285634e487b7160e01b835252fd5b93607f16936119ef565b505034610355578160031936011261035557602090517f0a4b38f5c930cca80bb83506ef498f40ca6c64dcf470153a593f41a4b85c765d8152f35b9250503461030557602036600319011261030557357fffffffff00000000000000000000000000000000000000000000000000000000811680910361030557602092507f5a05180f000000000000000000000000000000000000000000000000000000008114908115611b68575b5015158152f35b7f7965db0b00000000000000000000000000000000000000000000000000000000811491508115611b9b575b5038611b61565b7f01ffc9a70000000000000000000000000000000000000000000000000000000091501438611b94565b60005b838110611bd85750506000910152565b8181015183820152602001611bc8565b60409160208252611c088151809281602086015260208686019101611bc5565b601f01601f1916010190565b600435906001600160a01b03821682036108ba57565b602435906001600160a01b03821682036108ba57565b6000818152602090600c8252604092838220338352835260ff848320541615611c695750505050565b339084516060810181811067ffffffffffffffff821117611f61578652602a81528481019186368437815115611f4d5760308353815193600194851015611f39576078602184015360295b858111611ec25750611e8057865193611ccc85611f75565b60428552868501956060368837855115611e6c57603087538551821015611e6c5790607860218701536041915b818311611df157505050611daf57938593611d9593611d86604894611d517f416363657373436f6e74726f6c3a206163636f756e742000000000000000000099611dab9b519a8b978801525180926037880190611bc5565b8401917f206973206d697373696e6720726f6c6520000000000000000000000000000000603784015251809386840190611bc5565b01036028810185520183611fa7565b5191829162461bcd60e51b835260048301611be8565b0390fd5b60648587519062461bcd60e51b825280600483015260248201527f537472696e67733a20686578206c656e67746820696e73756666696369656e746044820152fd5b909192600f81166010811015611e58577f3031323334353637383961626364656600000000000000000000000000000000901a611e2e85896123b8565b5360041c928015611e4457600019019190611cf9565b602482634e487b7160e01b81526011600452fd5b602483634e487b7160e01b81526032600452fd5b80634e487b7160e01b602492526032600452fd5b60648688519062461bcd60e51b825280600483015260248201527f537472696e67733a20686578206c656e67746820696e73756666696369656e746044820152fd5b90600f81166010811015611f25577f3031323334353637383961626364656600000000000000000000000000000000901a611efd83866123b8565b5360041c908015611f115760001901611cb4565b602487634e487b7160e01b81526011600452fd5b602488634e487b7160e01b81526032600452fd5b602486634e487b7160e01b81526032600452fd5b602485634e487b7160e01b81526032600452fd5b602485634e487b7160e01b81526041600452fd5b6080810190811067ffffffffffffffff821117611f9157604052565b634e487b7160e01b600052604160045260246000fd5b90601f8019910116810190811067ffffffffffffffff821117611f9157604052565b90604061200892600090808252600c6020526001600160a01b0383832094169384835260205260ff838320541661200b575b8152600d6020522061276d565b50565b808252600c60205282822084835260205282822060ff1981541690553384827ff6391f5c32d9c69d2a47ea670b442974b53935d1edc7fd64eb21e047a839171b8580a4611ffb565b6001600160a01b0360005416330361206757565b606460405162461bcd60e51b815260206004820152602060248201527f4f776e61626c653a2063616c6c6572206973206e6f7420746865206f776e65726044820152fd5b919082018092116120b857565b634e487b7160e01b600052601160045260246000fd5b6001600160a01b0380911691821561221a57169182156121b0576000828152600160205260408120549180831061214657604082827fddf252ad1be2c89b69c2b068fc378daa952ba7f163c4a11628f55a4df523b3ef95876020965260018652038282205586815220818154019055604051908152a3565b608460405162461bcd60e51b815260206004820152602660248201527f45524332303a207472616e7366657220616d6f756e742065786365656473206260448201527f616c616e636500000000000000000000000000000000000000000000000000006064820152fd5b608460405162461bcd60e51b815260206004820152602360248201527f45524332303a207472616e7366657220746f20746865207a65726f206164647260448201527f65737300000000000000000000000000000000000000000000000000000000006064820152fd5b608460405162461bcd60e51b815260206004820152602560248201527f45524332303a207472616e736665722066726f6d20746865207a65726f20616460448201527f64726573730000000000000000000000000000000000000000000000000000006064820152fd5b6001600160a01b0380911691821561234f57169182156122e55760207f8c5be1e5ebec7d5bd14f71427d1e84f3dd0314c0f7b2291e5b200ac8c7c3b925918360005260028252604060002085600052825280604060002055604051908152a3565b608460405162461bcd60e51b815260206004820152602260248201527f45524332303a20617070726f766520746f20746865207a65726f20616464726560448201527f73730000000000000000000000000000000000000000000000000000000000006064820152fd5b608460405162461bcd60e51b8152602060048201526024808201527f45524332303a20617070726f76652066726f6d20746865207a65726f2061646460448201527f72657373000000000000000000000000000000000000000000000000000000006064820152fd5b9081518110156123c9570160200190565b634e487b7160e01b600052603260045260246000fd5b60058110156124fb57806123f05750565b6001810361243c57606460405162461bcd60e51b815260206004820152601860248201527f45434453413a20696e76616c6964207369676e617475726500000000000000006044820152fd5b6002810361248857606460405162461bcd60e51b815260206004820152601f60248201527f45434453413a20696e76616c6964207369676e6174757265206c656e677468006044820152fd5b60031461249157565b608460405162461bcd60e51b815260206004820152602260248201527f45434453413a20696e76616c6964207369676e6174757265202773272076616c60448201527f75650000000000000000000000000000000000000000000000000000000000006064820152fd5b634e487b7160e01b600052602160045260246000fd5b9291907f7fffffffffffffffffffffffffffffff5d576e7357a4501ddfe92f46681b20a083116125945791608094939160ff602094604051948552168484015260408301526060820152600093849182805260015afa156125875781516001600160a01b03811615612581579190565b50600190565b50604051903d90823e3d90fd5b50505050600090600390565b6001600160a01b037f0000000000000000000000000000000000000000000000000000000000000000163014806126a2575b156125fb577f000000000000000000000000000000000000000000000000000000000000000090565b60405160208101907f000000000000000000000000000000000000000000000000000000000000000082527f000000000000000000000000000000000000000000000000000000000000000060408201527f000000000000000000000000000000000000000000000000000000000000000060608201524660808201523060a082015260a0815260c0810181811067ffffffffffffffff821117611f915760405251902090565b507f000000000000000000000000000000000000000000000000000000000000000046146125d2565b80548210156123c95760005260206000200190600090565b919060018301600090828252806020526040822054156000146127675784549468010000000000000000861015612753578361274361272c886001604098999a018555846126cb565b819391549060031b91821b91600019901b19161790565b9055549382526020522055600190565b602483634e487b7160e01b81526041600452fd5b50925050565b906001820190600092818452826020526040842054908115156000146128425760001991808301818111611f115782549084820191821161282e578082036127f9575b505050805480156127e5578201916127c883836126cb565b909182549160031b1b191690555582526020526040812055600190565b602486634e487b7160e01b81526031600452fd5b61281961280961272c93866126cb565b90549060031b1c928392866126cb565b905586528460205260408620553880806127b0565b602488634e487b7160e01b81526011600452fd5b5050505090565b91604091825190602094858301937fa9059cbb0000000000000000000000000000000000000000000000000000000085526001600160a01b03809316602485015260448401526044835261289c83611f75565b16908351918483019167ffffffffffffffff9284811084821117611f915786528684527f5361666545524332303a206c6f772d6c6576656c2063616c6c206661696c656487850152600080958192519082855af1903d156129c7573d928311611f61579061292993929186519261291c89601f19601f8401160185611fa7565b83523d868985013e6129d2565b805180612938575b5050505050565b818591810103126103555783015190811591821503610a7f575061295e57808080612931565b60849250519062461bcd60e51b82526004820152602a60248201527f5361666545524332303a204552433230206f7065726174696f6e20646964206e60448201527f6f742073756363656564000000000000000000000000000000000000000000006064820152fd5b906129299392506060915b91929015612a3357508151156129e6575090565b3b156129ef5790565b606460405162461bcd60e51b815260206004820152601d60248201527f416464726573733a2063616c6c20746f206e6f6e2d636f6e74726163740000006044820152fd5b825190915015612a465750805190602001fd5b611dab9060405191829162461bcd60e51b835260048301611be8565b9190916001600160781b03808094169116019182116120b857565b6001600160781b0391821690821603919082116120b857565b60ff16604d81116120b857600a0a90565b9060ff166012811015612ae95760120360ff81116120b857612ac890612a96565b908115612ad3570490565b634e487b7160e01b600052601260045260246000fd5b60128111612af5575090565b6011190160ff81116120b857612b0a90612a96565b908181029181830414901517156120b8579056fea264697066735822122018f4935e22f1d4deb21bfc1834a66bda420d4f7c2dc12c101b6a9439b19a90cf64736f6c63430008120033",
  "devdoc": {
    "details": "The `SkimAdmin` can extract rebasing reward from the contract by calling `skim` Note that there no tip bucket should be stored in this contract, otherwise it will be `skimm`ed. i.e. `lpDividendRatio + retentionRatio = 1 ether` For V1 contracts, `mintFeeThreshold` needs to be set to 0 since `mintFee` checks `mintFeeThreshold`",
    "events": {
      "Approval(address,address,uint256)": {
        "details": "Emitted when the allowance of a `spender` for an `owner` is set by a call to {approve}. `value` is the new allowance."
      },
      "RoleAdminChanged(bytes32,bytes32,bytes32)": {
        "details": "Emitted when `newAdminRole` is set as ``role``'s admin role, replacing `previousAdminRole` `DEFAULT_ADMIN_ROLE` is the starting admin for all roles, despite {RoleAdminChanged} not being emitted signaling this. _Available since v3.1._"
      },
      "RoleGranted(bytes32,address,address)": {
        "details": "Emitted when `account` is granted `role`. `sender` is the account that originated the contract call, an admin role bearer except when using {AccessControl-_setupRole}."
      },
      "RoleRevoked(bytes32,address,address)": {
        "details": "Emitted when `account` is revoked `role`. `sender` is the account that originated the contract call:   - if using `revokeRole`, it is the admin role bearer   - if using `renounceRole`, it is the role bearer (i.e. `account`)"
      },
      "Transfer(address,address,uint256)": {
        "details": "Emitted when `value` tokens are moved from one account (`from`) to another (`to`). Note that `value` may be zero."
      }
    },
    "kind": "dev",
    "methods": {
      "DOMAIN_SEPARATOR()": {
        "details": "See {IERC20Permit-DOMAIN_SEPARATOR}."
      },
      "addCash(uint256)": {
        "params": {
          "amount": "amount to add"
        }
      },
      "addLiability(uint256)": {
        "params": {
          "amount": "amount to add"
        }
      },
      "allowance(address,address)": {
        "details": "See {IERC20-allowance}."
      },
      "approve(address,uint256)": {
        "details": "See {IERC20-approve}. NOTE: If `amount` is the maximum `uint256`, the allowance is not updated on `transferFrom`. This is semantically equivalent to an infinite approval. Requirements: - `spender` cannot be the zero address."
      },
      "balanceOf(address)": {
        "details": "See {IERC20-balanceOf}."
      },
      "burn(address,uint256)": {
        "params": {
          "amount": "amount to burn",
          "to": "address holding the tokens"
        }
      },
      "decimals()": {
        "returns": {
          "_0": "decimals for asset"
        }
      },
      "decreaseAllowance(address,uint256)": {
        "details": "Atomically decreases the allowance granted to `spender` by the caller. This is an alternative to {approve} that can be used as a mitigation for problems described in {IERC20-approve}. Emits an {Approval} event indicating the updated allowance. Requirements: - `spender` cannot be the zero address. - `spender` must have allowance for the caller of at least `subtractedValue`."
      },
      "getRoleAdmin(bytes32)": {
        "details": "Returns the admin role that controls `role`. See {grantRole} and {revokeRole}. To change a role's admin, use {_setRoleAdmin}."
      },
      "getRoleMember(bytes32,uint256)": {
        "details": "Returns one of the accounts that have `role`. `index` must be a value between 0 and {getRoleMemberCount}, non-inclusive. Role bearers are not sorted in any particular way, and their ordering may change at any point. WARNING: When using {getRoleMember} and {getRoleMemberCount}, make sure you perform all queries on the same block. See the following https://forum.openzeppelin.com/t/iterating-over-elements-on-enumerableset-in-openzeppelin-contracts/2296[forum post] for more information."
      },
      "getRoleMemberCount(bytes32)": {
        "details": "Returns the number of accounts that have `role`. Can be used together with {getRoleMember} to enumerate all bearers of a role."
      },
      "grantRole(bytes32,address)": {
        "details": "Grants `role` to `account`. If `account` had not been already granted `role`, emits a {RoleGranted} event. Requirements: - the caller must have ``role``'s admin role. May emit a {RoleGranted} event."
      },
      "hasRole(bytes32,address)": {
        "details": "Returns `true` if `account` has been granted `role`."
      },
      "increaseAllowance(address,uint256)": {
        "details": "Atomically increases the allowance granted to `spender` by the caller. This is an alternative to {approve} that can be used as a mitigation for problems described in {IERC20-approve}. Emits an {Approval} event indicating the updated allowance. Requirements: - `spender` cannot be the zero address."
      },
      "mint(address,uint256)": {
        "params": {
          "amount": "amount to transfer",
          "to": "address to transfer the token to"
        }
      },
      "name()": {
        "details": "Returns the name of the token."
      },
      "nonces(address)": {
        "details": "See {IERC20Permit-nonces}."
      },
      "owner()": {
        "details": "Returns the address of the current owner."
      },
      "permit(address,address,uint256,uint256,uint8,bytes32,bytes32)": {
        "details": "See {IERC20Permit-permit}."
      },
      "removeCash(uint256)": {
        "params": {
          "amount": "amount to remove"
        }
      },
      "removeLiability(uint256)": {
        "params": {
          "amount": "amount to remove"
        }
      },
      "renounceOwnership()": {
        "details": "Leaves the contract without owner. It will not be possible to call `onlyOwner` functions anymore. Can only be called by the current owner. NOTE: Renouncing ownership will leave the contract without an owner, thereby removing any functionality that is only available to the owner."
      },
      "renounceRole(bytes32,address)": {
        "details": "Revokes `role` from the calling account. Roles are often managed via {grantRole} and {revokeRole}: this function's purpose is to provide a mechanism for accounts to lose their privileges if they are compromised (such as when a trusted device is misplaced). If the calling account had been revoked `role`, emits a {RoleRevoked} event. Requirements: - the caller must be `account`. May emit a {RoleRevoked} event."
      },
      "revokeRole(bytes32,address)": {
        "details": "Revokes `role` from `account`. If `account` had been granted `role`, emits a {RoleRevoked} event. Requirements: - the caller must have ``role``'s admin role. May emit a {RoleRevoked} event."
      },
      "setMaxSupply(uint256)": {
        "params": {
          "maxSupply_": "the new asset's max supply"
        }
      },
      "setPool(address)": {
        "params": {
          "pool_": "new pool's address"
        }
      },
      "supportsInterface(bytes4)": {
        "details": "See {IERC165-supportsInterface}."
      },
      "symbol()": {
        "details": "Returns the symbol of the token, usually a shorter version of the name."
      },
      "totalSupply()": {
        "details": "See {IERC20-totalSupply}."
      },
      "transfer(address,uint256)": {
        "details": "See {IERC20-transfer}. Requirements: - `to` cannot be the zero address. - the caller must have a balance of at least `amount`."
      },
      "transferFrom(address,address,uint256)": {
        "details": "See {IERC20-transferFrom}. Emits an {Approval} event indicating the updated allowance. This is not required by the EIP. See the note at the beginning of {ERC20}. NOTE: Does not update the allowance if the current allowance is the maximum `uint256`. Requirements: - `from` and `to` cannot be the zero address. - `from` must have a balance of at least `amount`. - the caller must have allowance for ``from``'s tokens of at least `amount`."
      },
      "transferOwnership(address)": {
        "details": "Transfers ownership of the contract to a new account (`newOwner`). Can only be called by the current owner."
      },
      "transferUnderlyingToken(address,uint256)": {
        "details": "Not to be confused with transferring Wombat Assets.",
        "params": {
          "amount": "amount to transfer",
          "to": "address to transfer the token to"
        }
      },
      "underlyingTokenBalance()": {
        "returns": {
          "_0": "Returns the actual balance of ERC20 underlyingToken"
        }
      }
    },
    "title": "Skimmable Asset",
    "version": 1
  },
  "userdoc": {
    "events": {
      "SetMaxSupply(uint256,uint256)": {
        "notice": "An event thats emitted when max supply is updated"
      },
      "SetPool(address,address)": {
        "notice": "An event thats emitted when pool address is updated"
      },
      "Skim(uint256,address)": {
        "notice": "An event thats emitted when Skim"
      }
    },
    "kind": "user",
    "methods": {
      "addCash(uint256)": {
        "notice": "Adds cash, expects actual ERC20 underlyingToken got transferred in. Can only be called by Pool."
      },
      "addLiability(uint256)": {
        "notice": "Adds deposit or dividend, expect LP underlyingToken minted in case of deposit. Can only be called by Pool."
      },
      "burn(address,uint256)": {
        "notice": "Burn ERC20 Asset LP Token, expect pool coordinates other state updates. Can only be called by Pool."
      },
      "cash()": {
        "notice": "Cash balance, normally it should align with IERC20(underlyingToken).balanceOf(address(this))"
      },
      "decimals()": {
        "notice": "Returns the decimals of Asset, fixed to 18 decimals"
      },
      "liability()": {
        "notice": "Total liability, equals to the sum of deposit and dividend"
      },
      "maxSupply()": {
        "notice": "maxSupply the maximum amount of asset the pool is allowed to mint. The unit is the same as the underlying token"
      },
      "mint(address,uint256)": {
        "notice": "Mint ERC20 Asset LP Token, expect pool coordinates other state updates. Can only be called by Pool."
      },
      "pool()": {
        "notice": "The Pool"
      },
      "removeCash(uint256)": {
        "notice": "Deducts cash, expect actual ERC20 got transferred out (by transferUnderlyingToken()). Can only be called by Pool."
      },
      "removeLiability(uint256)": {
        "notice": "Removes deposit and dividend earned, expect LP underlyingToken burnt. Can only be called by Pool."
      },
      "setMaxSupply(uint256)": {
        "notice": "Changes asset max supply. Can only be set by the contract owner. 18 decimals"
      },
      "setPool(address)": {
        "notice": "TODO: move pool address setup within contract initializationChanges the pool. Can only be set by the contract owner."
      },
      "transferUnderlyingToken(address,uint256)": {
        "notice": "Transfers ERC20 underlyingToken from this contract to another account. Can only be called by Pool."
      },
      "underlyingToken()": {
        "notice": "The underlying underlyingToken represented by this asset"
      },
      "underlyingTokenBalance()": {
        "notice": "Get underlying Token Balance"
      }
    },
    "notice": "Contract presenting an asset in a pool",
    "version": 1
  },
  "storageLayout": {
    "storage": [
      {
        "astId": 1373,
        "contract": "contracts/wombat-core/asset/SkimmableAsset.sol:SkimmableAsset",
        "label": "_owner",
        "offset": 0,
        "slot": "0",
        "type": "t_address"
      },
      {
        "astId": 1548,
        "contract": "contracts/wombat-core/asset/SkimmableAsset.sol:SkimmableAsset",
        "label": "_balances",
        "offset": 0,
        "slot": "1",
        "type": "t_mapping(t_address,t_uint256)"
      },
      {
        "astId": 1554,
        "contract": "contracts/wombat-core/asset/SkimmableAsset.sol:SkimmableAsset",
        "label": "_allowances",
        "offset": 0,
        "slot": "2",
        "type": "t_mapping(t_address,t_mapping(t_address,t_uint256))"
      },
      {
        "astId": 1556,
        "contract": "contracts/wombat-core/asset/SkimmableAsset.sol:SkimmableAsset",
        "label": "_totalSupply",
        "offset": 0,
        "slot": "3",
        "type": "t_uint256"
      },
      {
        "astId": 1558,
        "contract": "contracts/wombat-core/asset/SkimmableAsset.sol:SkimmableAsset",
        "label": "_name",
        "offset": 0,
        "slot": "4",
        "type": "t_string_storage"
      },
      {
        "astId": 1560,
        "contract": "contracts/wombat-core/asset/SkimmableAsset.sol:SkimmableAsset",
        "label": "_symbol",
        "offset": 0,
        "slot": "5",
        "type": "t_string_storage"
      },
      {
        "astId": 2245,
        "contract": "contracts/wombat-core/asset/SkimmableAsset.sol:SkimmableAsset",
        "label": "_nonces",
        "offset": 0,
        "slot": "6",
        "type": "t_mapping(t_address,t_struct(Counter)3185_storage)"
      },
      {
        "astId": 2253,
        "contract": "contracts/wombat-core/asset/SkimmableAsset.sol:SkimmableAsset",
        "label": "_PERMIT_TYPEHASH_DEPRECATED_SLOT",
        "offset": 0,
        "slot": "7",
        "type": "t_bytes32"
      },
      {
        "astId": 5855,
        "contract": "contracts/wombat-core/asset/SkimmableAsset.sol:SkimmableAsset",
        "label": "pool",
        "offset": 0,
        "slot": "8",
        "type": "t_address"
      },
      {
        "astId": 5859,
        "contract": "contracts/wombat-core/asset/SkimmableAsset.sol:SkimmableAsset",
        "label": "cash",
        "offset": 0,
        "slot": "9",
        "type": "t_uint120"
      },
      {
        "astId": 5863,
        "contract": "contracts/wombat-core/asset/SkimmableAsset.sol:SkimmableAsset",
        "label": "liability",
        "offset": 15,
        "slot": "9",
        "type": "t_uint120"
      },
      {
        "astId": 5866,
        "contract": "contracts/wombat-core/asset/SkimmableAsset.sol:SkimmableAsset",
        "label": "maxSupply",
        "offset": 0,
        "slot": "10",
        "type": "t_uint256"
      },
      {
        "astId": 1489,
        "contract": "contracts/wombat-core/asset/SkimmableAsset.sol:SkimmableAsset",
        "label": "_status",
        "offset": 0,
        "slot": "11",
        "type": "t_uint256"
      },
      {
        "astId": 851,
        "contract": "contracts/wombat-core/asset/SkimmableAsset.sol:SkimmableAsset",
        "label": "_roles",
        "offset": 0,
        "slot": "12",
        "type": "t_mapping(t_bytes32,t_struct(RoleData)846_storage)"
      },
      {
        "astId": 1161,
        "contract": "contracts/wombat-core/asset/SkimmableAsset.sol:SkimmableAsset",
        "label": "_roleMembers",
        "offset": 0,
        "slot": "13",
        "type": "t_mapping(t_bytes32,t_struct(AddressSet)5482_storage)"
      }
    ],
    "types": {
      "t_address": {
        "encoding": "inplace",
        "label": "address",
        "numberOfBytes": "20"
      },
      "t_array(t_bytes32)dyn_storage": {
        "base": "t_bytes32",
        "encoding": "dynamic_array",
        "label": "bytes32[]",
        "numberOfBytes": "32"
      },
      "t_bool": {
        "encoding": "inplace",
        "label": "bool",
        "numberOfBytes": "1"
      },
      "t_bytes32": {
        "encoding": "inplace",
        "label": "bytes32",
        "numberOfBytes": "32"
      },
      "t_mapping(t_address,t_bool)": {
        "encoding": "mapping",
        "key": "t_address",
        "label": "mapping(address => bool)",
        "numberOfBytes": "32",
        "value": "t_bool"
      },
      "t_mapping(t_address,t_mapping(t_address,t_uint256))": {
        "encoding": "mapping",
        "key": "t_address",
        "label": "mapping(address => mapping(address => uint256))",
        "numberOfBytes": "32",
        "value": "t_mapping(t_address,t_uint256)"
      },
      "t_mapping(t_address,t_struct(Counter)3185_storage)": {
        "encoding": "mapping",
        "key": "t_address",
        "label": "mapping(address => struct Counters.Counter)",
        "numberOfBytes": "32",
        "value": "t_struct(Counter)3185_storage"
      },
      "t_mapping(t_address,t_uint256)": {
        "encoding": "mapping",
        "key": "t_address",
        "label": "mapping(address => uint256)",
        "numberOfBytes": "32",
        "value": "t_uint256"
      },
      "t_mapping(t_bytes32,t_struct(AddressSet)5482_storage)": {
        "encoding": "mapping",
        "key": "t_bytes32",
        "label": "mapping(bytes32 => struct EnumerableSet.AddressSet)",
        "numberOfBytes": "32",
        "value": "t_struct(AddressSet)5482_storage"
      },
      "t_mapping(t_bytes32,t_struct(RoleData)846_storage)": {
        "encoding": "mapping",
        "key": "t_bytes32",
        "label": "mapping(bytes32 => struct AccessControl.RoleData)",
        "numberOfBytes": "32",
        "value": "t_struct(RoleData)846_storage"
      },
      "t_mapping(t_bytes32,t_uint256)": {
        "encoding": "mapping",
        "key": "t_bytes32",
        "label": "mapping(bytes32 => uint256)",
        "numberOfBytes": "32",
        "value": "t_uint256"
      },
      "t_string_storage": {
        "encoding": "bytes",
        "label": "string",
        "numberOfBytes": "32"
      },
      "t_struct(AddressSet)5482_storage": {
        "encoding": "inplace",
        "label": "struct EnumerableSet.AddressSet",
        "members": [
          {
            "astId": 5481,
            "contract": "contracts/wombat-core/asset/SkimmableAsset.sol:SkimmableAsset",
            "label": "_inner",
            "offset": 0,
            "slot": "0",
            "type": "t_struct(Set)5167_storage"
          }
        ],
        "numberOfBytes": "64"
      },
      "t_struct(Counter)3185_storage": {
        "encoding": "inplace",
        "label": "struct Counters.Counter",
        "members": [
          {
            "astId": 3184,
            "contract": "contracts/wombat-core/asset/SkimmableAsset.sol:SkimmableAsset",
            "label": "_value",
            "offset": 0,
            "slot": "0",
            "type": "t_uint256"
          }
        ],
        "numberOfBytes": "32"
      },
      "t_struct(RoleData)846_storage": {
        "encoding": "inplace",
        "label": "struct AccessControl.RoleData",
        "members": [
          {
            "astId": 843,
            "contract": "contracts/wombat-core/asset/SkimmableAsset.sol:SkimmableAsset",
            "label": "members",
            "offset": 0,
            "slot": "0",
            "type": "t_mapping(t_address,t_bool)"
          },
          {
            "astId": 845,
            "contract": "contracts/wombat-core/asset/SkimmableAsset.sol:SkimmableAsset",
            "label": "adminRole",
            "offset": 0,
            "slot": "1",
            "type": "t_bytes32"
          }
        ],
        "numberOfBytes": "64"
      },
      "t_struct(Set)5167_storage": {
        "encoding": "inplace",
        "label": "struct EnumerableSet.Set",
        "members": [
          {
            "astId": 5162,
            "contract": "contracts/wombat-core/asset/SkimmableAsset.sol:SkimmableAsset",
            "label": "_values",
            "offset": 0,
            "slot": "0",
            "type": "t_array(t_bytes32)dyn_storage"
          },
          {
            "astId": 5166,
            "contract": "contracts/wombat-core/asset/SkimmableAsset.sol:SkimmableAsset",
            "label": "_indexes",
            "offset": 0,
            "slot": "1",
            "type": "t_mapping(t_bytes32,t_uint256)"
          }
        ],
        "numberOfBytes": "64"
      },
      "t_uint120": {
        "encoding": "inplace",
        "label": "uint120",
        "numberOfBytes": "15"
      },
      "t_uint256": {
        "encoding": "inplace",
        "label": "uint256",
        "numberOfBytes": "32"
      }
    }
  }
}