{
  "address": "0x791b2424df9865994Ad570425278902E2B5D7946",
  "abi": [
    {
      "inputs": [
        {
          "internalType": "address",
          "name": "underlyingToken_",
          "type": "address"
        },
        {
          "internalType": "string",
          "name": "name_",
          "type": "string"
        },
        {
          "internalType": "string",
          "name": "symbol_",
          "type": "string"
        }
      ],
      "stateMutability": "nonpayable",
      "type": "constructor"
    },
    {
      "inputs": [],
      "name": "ASSET_OVERFLOW",
      "type": "error"
    },
    {
      "inputs": [],
      "name": "WOMBAT_FORBIDDEN",
      "type": "error"
    },
    {
      "anonymous": false,
      "inputs": [
        {
          "indexed": true,
          "internalType": "address",
          "name": "owner",
          "type": "address"
        },
        {
          "indexed": true,
          "internalType": "address",
          "name": "spender",
          "type": "address"
        },
        {
          "indexed": false,
          "internalType": "uint256",
          "name": "value",
          "type": "uint256"
        }
      ],
      "name": "Approval",
      "type": "event"
    },
    {
      "anonymous": false,
      "inputs": [
        {
          "indexed": true,
          "internalType": "address",
          "name": "previousOwner",
          "type": "address"
        },
        {
          "indexed": true,
          "internalType": "address",
          "name": "newOwner",
          "type": "address"
        }
      ],
      "name": "OwnershipTransferred",
      "type": "event"
    },
    {
      "anonymous": false,
      "inputs": [
        {
          "indexed": false,
          "internalType": "uint256",
          "name": "previousMaxSupply",
          "type": "uint256"
        },
        {
          "indexed": false,
          "internalType": "uint256",
          "name": "newMaxSupply",
          "type": "uint256"
        }
      ],
      "name": "SetMaxSupply",
      "type": "event"
    },
    {
      "anonymous": false,
      "inputs": [
        {
          "indexed": false,
          "internalType": "address",
          "name": "previousPoolAddr",
          "type": "address"
        },
        {
          "indexed": false,
          "internalType": "address",
          "name": "newPoolAddr",
          "type": "address"
        }
      ],
      "name": "SetPool",
      "type": "event"
    },
    {
      "anonymous": false,
      "inputs": [
        {
          "indexed": true,
          "internalType": "address",
          "name": "from",
          "type": "address"
        },
        {
          "indexed": true,
          "internalType": "address",
          "name": "to",
          "type": "address"
        },
        {
          "indexed": false,
          "internalType": "uint256",
          "name": "value",
          "type": "uint256"
        }
      ],
      "name": "Transfer",
      "type": "event"
    },
    {
      "inputs": [],
      "name": "DOMAIN_SEPARATOR",
      "outputs": [
        {
          "internalType": "bytes32",
          "name": "",
          "type": "bytes32"
        }
      ],
      "stateMutability": "view",
      "type": "function"
    },
    {
      "inputs": [
        {
          "internalType": "uint256",
          "name": "amount",
          "type": "uint256"
        }
      ],
      "name": "addCash",
      "outputs": [],
      "stateMutability": "nonpayable",
      "type": "function"
    },
    {
      "inputs": [
        {
          "internalType": "uint256",
          "name": "amount",
          "type": "uint256"
        }
      ],
      "name": "addLiability",
      "outputs": [],
      "stateMutability": "nonpayable",
      "type": "function"
    },
    {
      "inputs": [
        {
          "internalType": "address",
          "name": "owner",
          "type": "address"
        },
        {
          "internalType": "address",
          "name": "spender",
          "type": "address"
        }
      ],
      "name": "allowance",
      "outputs": [
        {
          "internalType": "uint256",
          "name": "",
          "type": "uint256"
        }
      ],
      "stateMutability": "view",
      "type": "function"
    },
    {
      "inputs": [
        {
          "internalType": "address",
          "name": "spender",
          "type": "address"
        },
        {
          "internalType": "uint256",
          "name": "amount",
          "type": "uint256"
        }
      ],
      "name": "approve",
      "outputs": [
        {
          "internalType": "bool",
          "name": "",
          "type": "bool"
        }
      ],
      "stateMutability": "nonpayable",
      "type": "function"
    },
    {
      "inputs": [
        {
          "internalType": "address",
          "name": "account",
          "type": "address"
        }
      ],
      "name": "balanceOf",
      "outputs": [
        {
          "internalType": "uint256",
          "name": "",
          "type": "uint256"
        }
      ],
      "stateMutability": "view",
      "type": "function"
    },
    {
      "inputs": [
        {
          "internalType": "address",
          "name": "to",
          "type": "address"
        },
        {
          "internalType": "uint256",
          "name": "amount",
          "type": "uint256"
        }
      ],
      "name": "burn",
      "outputs": [],
      "stateMutability": "nonpayable",
      "type": "function"
    },
    {
      "inputs": [],
      "name": "cash",
      "outputs": [
        {
          "internalType": "uint120",
          "name": "",
          "type": "uint120"
        }
      ],
      "stateMutability": "view",
      "type": "function"
    },
    {
      "inputs": [],
      "name": "decimals",
      "outputs": [
        {
          "internalType": "uint8",
          "name": "",
          "type": "uint8"
        }
      ],
      "stateMutability": "view",
      "type": "function"
    },
    {
      "inputs": [
        {
          "internalType": "address",
          "name": "spender",
          "type": "address"
        },
        {
          "internalType": "uint256",
          "name": "subtractedValue",
          "type": "uint256"
        }
      ],
      "name": "decreaseAllowance",
      "outputs": [
        {
          "internalType": "bool",
          "name": "",
          "type": "bool"
        }
      ],
      "stateMutability": "nonpayable",
      "type": "function"
    },
    {
      "inputs": [
        {
          "internalType": "address",
          "name": "spender",
          "type": "address"
        },
        {
          "internalType": "uint256",
          "name": "addedValue",
          "type": "uint256"
        }
      ],
      "name": "increaseAllowance",
      "outputs": [
        {
          "internalType": "bool",
          "name": "",
          "type": "bool"
        }
      ],
      "stateMutability": "nonpayable",
      "type": "function"
    },
    {
      "inputs": [],
      "name": "liability",
      "outputs": [
        {
          "internalType": "uint120",
          "name": "",
          "type": "uint120"
        }
      ],
      "stateMutability": "view",
      "type": "function"
    },
    {
      "inputs": [],
      "name": "maxSupply",
      "outputs": [
        {
          "internalType": "uint256",
          "name": "",
          "type": "uint256"
        }
      ],
      "stateMutability": "view",
      "type": "function"
    },
    {
      "inputs": [
        {
          "internalType": "address",
          "name": "to",
          "type": "address"
        },
        {
          "internalType": "uint256",
          "name": "amount",
          "type": "uint256"
        }
      ],
      "name": "mint",
      "outputs": [],
      "stateMutability": "nonpayable",
      "type": "function"
    },
    {
      "inputs": [],
      "name": "name",
      "outputs": [
        {
          "internalType": "string",
          "name": "",
          "type": "string"
        }
      ],
      "stateMutability": "view",
      "type": "function"
    },
    {
      "inputs": [
        {
          "internalType": "address",
          "name": "owner",
          "type": "address"
        }
      ],
      "name": "nonces",
      "outputs": [
        {
          "internalType": "uint256",
          "name": "",
          "type": "uint256"
        }
      ],
      "stateMutability": "view",
      "type": "function"
    },
    {
      "inputs": [],
      "name": "owner",
      "outputs": [
        {
          "internalType": "address",
          "name": "",
          "type": "address"
        }
      ],
      "stateMutability": "view",
      "type": "function"
    },
    {
      "inputs": [
        {
          "internalType": "address",
          "name": "owner",
          "type": "address"
        },
        {
          "internalType": "address",
          "name": "spender",
          "type": "address"
        },
        {
          "internalType": "uint256",
          "name": "value",
          "type": "uint256"
        },
        {
          "internalType": "uint256",
          "name": "deadline",
          "type": "uint256"
        },
        {
          "internalType": "uint8",
          "name": "v",
          "type": "uint8"
        },
        {
          "internalType": "bytes32",
          "name": "r",
          "type": "bytes32"
        },
        {
          "internalType": "bytes32",
          "name": "s",
          "type": "bytes32"
        }
      ],
      "name": "permit",
      "outputs": [],
      "stateMutability": "nonpayable",
      "type": "function"
    },
    {
      "inputs": [],
      "name": "pool",
      "outputs": [
        {
          "internalType": "address",
          "name": "",
          "type": "address"
        }
      ],
      "stateMutability": "view",
      "type": "function"
    },
    {
      "inputs": [
        {
          "internalType": "uint256",
          "name": "amount",
          "type": "uint256"
        }
      ],
      "name": "removeCash",
      "outputs": [],
      "stateMutability": "nonpayable",
      "type": "function"
    },
    {
      "inputs": [
        {
          "internalType": "uint256",
          "name": "amount",
          "type": "uint256"
        }
      ],
      "name": "removeLiability",
      "outputs": [],
      "stateMutability": "nonpayable",
      "type": "function"
    },
    {
      "inputs": [],
      "name": "renounceOwnership",
      "outputs": [],
      "stateMutability": "nonpayable",
      "type": "function"
    },
    {
      "inputs": [
        {
          "internalType": "uint256",
          "name": "maxSupply_",
          "type": "uint256"
        }
      ],
      "name": "setMaxSupply",
      "outputs": [],
      "stateMutability": "nonpayable",
      "type": "function"
    },
    {
      "inputs": [
        {
          "internalType": "address",
          "name": "pool_",
          "type": "address"
        }
      ],
      "name": "setPool",
      "outputs": [],
      "stateMutability": "nonpayable",
      "type": "function"
    },
    {
      "inputs": [],
      "name": "symbol",
      "outputs": [
        {
          "internalType": "string",
          "name": "",
          "type": "string"
        }
      ],
      "stateMutability": "view",
      "type": "function"
    },
    {
      "inputs": [],
      "name": "totalSupply",
      "outputs": [
        {
          "internalType": "uint256",
          "name": "",
          "type": "uint256"
        }
      ],
      "stateMutability": "view",
      "type": "function"
    },
    {
      "inputs": [
        {
          "internalType": "address",
          "name": "recipient",
          "type": "address"
        },
        {
          "internalType": "uint256",
          "name": "amount",
          "type": "uint256"
        }
      ],
      "name": "transfer",
      "outputs": [
        {
          "internalType": "bool",
          "name": "",
          "type": "bool"
        }
      ],
      "stateMutability": "nonpayable",
      "type": "function"
    },
    {
      "inputs": [
        {
          "internalType": "address",
          "name": "sender",
          "type": "address"
        },
        {
          "internalType": "address",
          "name": "recipient",
          "type": "address"
        },
        {
          "internalType": "uint256",
          "name": "amount",
          "type": "uint256"
        }
      ],
      "name": "transferFrom",
      "outputs": [
        {
          "internalType": "bool",
          "name": "",
          "type": "bool"
        }
      ],
      "stateMutability": "nonpayable",
      "type": "function"
    },
    {
      "inputs": [
        {
          "internalType": "address",
          "name": "newOwner",
          "type": "address"
        }
      ],
      "name": "transferOwnership",
      "outputs": [],
      "stateMutability": "nonpayable",
      "type": "function"
    },
    {
      "inputs": [
        {
          "internalType": "address",
          "name": "to",
          "type": "address"
        },
        {
          "internalType": "uint256",
          "name": "amount",
          "type": "uint256"
        }
      ],
      "name": "transferUnderlyingToken",
      "outputs": [],
      "stateMutability": "nonpayable",
      "type": "function"
    },
    {
      "inputs": [],
      "name": "underlyingToken",
      "outputs": [
        {
          "internalType": "address",
          "name": "",
          "type": "address"
        }
      ],
      "stateMutability": "view",
      "type": "function"
    },
    {
      "inputs": [],
      "name": "underlyingTokenBalance",
      "outputs": [
        {
          "internalType": "uint256",
          "name": "",
          "type": "uint256"
        }
      ],
      "stateMutability": "view",
      "type": "function"
    },
    {
      "inputs": [],
      "name": "underlyingTokenDecimals",
      "outputs": [
        {
          "internalType": "uint8",
          "name": "",
          "type": "uint8"
        }
      ],
      "stateMutability": "view",
      "type": "function"
    }
  ],
  "transactionHash": "0x7c1721646ce1394af0c39e22daa3841f3652625d820f4e4aaaa1169caee94c6b",
  "args": [
    "0xe9e7CEA3DedcA5984780Bafc599bD69ADd087D56",
    "Wombat Binance USD Asset",
    "LP-BUSD"
  ],
  "numDeployments": 1,
  "solcInputHash": "3244f2af385044922bc4e9fd0add1ce4",
  "bytecode": "0x61018060408181523462000525576200257380380380916200002282866200052a565b84398201606083820312620005255782516001600160a01b038082169390848303620005255760208681015190966001600160401b03918281116200052557866200006f9183016200054e565b958482015183811162000525576200008892016200054e565b96835197848901898110848211176200050f578552600196878a52828a0191603160f81b83526000958654903360018060a01b031983161788553391167f8be0079c531659141344cd1fd0a4f28419497f9722a3daafe3b4186f6b6457e08880a3815198858a11620004fb576004998a54908282811c92168015620004f0575b87831014620004dd57601f9182811162000495575b50808783821160011462000433578a9162000427575b50600019600383901b1c191690831b178b555b825190878211620004145760059384548481811c9116801562000409575b89821014620003f557828111620003af575b50879183116001146200034b579282939183928b946200033f575b50501b916000199060031b1c19161790555b82815191012098519020958860c0528660e0524660a052845196828801907f8b73c3c69bb8fe3d512ecc4cf759cc79239f7b179b0ffacaa9a75d522b39400f9a8b8352878a015260608901524660808901523060a089015260a0885260c0880193888510908511176200032c5782918491828852895190206080526101009a8b52816101209a7f6e71edae12b1b97f4d1f60370fef10105fa2faae0126114a169c64845d6126c98c52610140998a5263313ce56760e01b82525afa95861562000322578396620002d5575b505050506101609283525192611fad9485620005c6863960805185611b09015260a05185611ae3015260c05185611b58015260e05185611b7e01525184611b35015251836111a701525182818161067201528181610c4b0152610e2501525181610a890152f35b908092939496503d83116200031a575b620002f181856200052a565b810103126200031657519060ff8216820362000313575091388080806200026e565b80fd5b5080fd5b503d620002e5565b84513d85823e3d90fd5b634e487b7160e01b855260418252602485fd5b01519250388062000191565b848a52878a20919083601f1981168c5b8b888383106200039757505050106200037d575b505050811b019055620001a3565b015160001960f88460031b161c191690553880806200036f565b8686015188559096019594850194879350016200035b565b858b52888b2083808601881c8201928b8710620003eb575b01871c019085905b828110620003df57505062000176565b8c8155018590620003cf565b92508192620003c7565b50634e487b7160e01b8a5260228d5260248afd5b90607f169062000164565b634e487b7160e01b895260418c52602489fd5b90508501513862000133565b8d8b52888b2085935090601f1983168c5b8b8282106200047e575050831162000464575b5050811b018b5562000146565b87015160001960f88460031b161c19169055388062000457565b838b01518555889690940193928301920162000444565b8c8a52878a208380840160051c8201928a8510620004d3575b0160051c019084905b828110620004c75750506200011d565b8b8155018490620004b7565b92508192620004ae565b634e487b7160e01b895260228c52602489fd5b91607f169162000108565b634e487b7160e01b87526041600452602487fd5b634e487b7160e01b600052604160045260246000fd5b600080fd5b601f909101601f19168101906001600160401b038211908210176200050f57604052565b919080601f8401121562000525578251906001600160401b0382116200050f57604051916020916200058a601f8301601f19168401856200052a565b818452828287010111620005255760005b818110620005b157508260009394955001015290565b85810183015184820184015282016200059b56fe60806040526004361015610013575b600080fd5b60003560e01c806306fdde03146102a7578063095ea7b31461029e57806316c9e7a01461029557806316f0115b1461028c57806318160ddd1461028357806323b872dd1461027a5780632495a59914610271578063313ce567146102685780633644e5151461025f578063395093511461025657806340c10f191461024d5780634437152a146102445780636f8b44b01461023b578063705727b51461023257806370a0823114610229578063715018a6146102205780637284168a146102175780637ecebe001461020e5780638da5cb5b1461020557806395d89b41146101fc578063961be391146101f357806399c91a64146101ea5780639dc29fac146101e15780639e79eaa5146101d85780639f9ef988146101cf578063a0f0f604146101c6578063a457c2d7146101bd578063a9059cbb146101b4578063d505accf146101ab578063d5abeb01146101a2578063d8b8785314610199578063dd62ed3e146101905763f2fde38b1461018857600080fd5b61000e61138d565b5061000e61132f565b5061000e61129d565b5061000e61127e565b5061000e611120565b5061000e6110f9565b5061000e611032565b5061000e610f94565b5061000e610f06565b5061000e610dee565b5061000e610cb0565b5061000e610bfc565b5061000e610bd4565b5061000e610b10565b5061000e610ae8565b5061000e610aad565b5061000e610a6e565b5061000e610a02565b5061000e6109c7565b5061000e61099c565b5061000e61093a565b5061000e610827565b5061000e610740565b5061000e6106d7565b5061000e6106b3565b5061000e610696565b5061000e610651565b5061000e610562565b5061000e610543565b5061000e61051b565b5061000e610464565b5061000e610432565b5061000e6102f9565b6020808252825181830181905290939260005b8281106102e557505060409293506000838284010152601f8019910116010190565b8181018601518482016040015285016102c3565b503461000e576000806003193601126104035760405190806004549060019180831c928082169283156103f9575b60209283861085146103e55785885260208801949081156103c4575060011461036b575b6103678761035b81890382611534565b604051918291826102b0565b0390f35b600460005294509192917f8a35acfbc15ff81a39ae7d344fd709f28e8600b4aa8c65c6b64bfe7fe36bd19b5b8386106103b3575050509101905061035b82610367388061034b565b805485870152948201948101610397565b60ff191685525050505090151560051b01905061035b82610367388061034b565b602482634e487b7160e01b81526022600452fd5b93607f1693610327565b80fd5b600435906001600160a01b038216820361000e57565b602435906001600160a01b038216820361000e57565b503461000e57604036600319011261000e5761045961044f610406565b6024359033611786565b602060405160018152f35b503461000e57602036600319011261000e576004356001600160a01b036007541633036104f1576001600160781b038082116104c7576104ab816008549316828416611f43565b6effffffffffffffffffffffffffffff19909216911617600855005b60046040517fd305209a000000000000000000000000000000000000000000000000000000008152fd5b60046040517f5bf78ef4000000000000000000000000000000000000000000000000000000008152fd5b503461000e57600036600319011261000e5760206001600160a01b0360075416604051908152f35b503461000e57600036600319011261000e576020600354604051908152f35b503461000e57606036600319011261000e5761057c610406565b61058461041c565b90610593604435809383611666565b6001600160a01b03811660005260026020526105c56040600020336001600160a01b0316600052602052604060002090565b54918083106105e7576105db9203903390611786565b60405160018152602090f35b608460405162461bcd60e51b815260206004820152602860248201527f45524332303a207472616e7366657220616d6f756e742065786365656473206160448201527f6c6c6f77616e63650000000000000000000000000000000000000000000000006064820152fd5b503461000e57600036600319011261000e5760206040516001600160a01b037f0000000000000000000000000000000000000000000000000000000000000000168152f35b503461000e57600036600319011261000e57602060405160128152f35b503461000e57600036600319011261000e5760206106cf611ae0565b604051908152f35b503461000e57604036600319011261000e576104596106f4610406565b33600052600260205261071e816040600020906001600160a01b0316600052602052604060002090565b54906024358201809211610733575b33611786565b61073b611556565b61072d565b503461000e57604036600319011261000e5761075a610406565b6024356001600160a01b036007541633036104f1576107829160095480610784575b50611dea565b005b6107d9906040517f18160ddd000000000000000000000000000000000000000000000000000000008152602081600481305afa90811561081a575b6000916107ec575b5084018085116107df575b1115611d9f565b3861077c565b6107e7611556565b6107d2565b61080d915060203d8111610813575b6108058183611534565b810190611c32565b386107c7565b503d6107fb565b610822611986565b6107bf565b503461000e57602036600319011261000e57610841610406565b6001600160a01b039061085982600054163314611438565b818116156108d057600754604080516001600160a01b0394909216841682529282166020820152610782927f390ace337562623e4cf938891cfa7e80b7b2e6ff395963aba93e537ce67e842c91a16001600160a01b031673ffffffffffffffffffffffffffffffffffffffff196007541617600755565b608460405162461bcd60e51b815260206004820152602360248201527f576f6d6261743a20506f6f6c20616464726573732063616e6e6f74206265207a60448201527f65726f00000000000000000000000000000000000000000000000000000000006064820152fd5b503461000e57602036600319011261000e576004356109656001600160a01b03600054163314611438565b7f4e4144d58c74765aab6b864c8cb807767198960f6ae6b4b135c56d41b639b7fe60406009548151908152836020820152a1600955005b503461000e57600036600319011261000e5760206001600160781b0360085460781c16604051908152f35b503461000e57602036600319011261000e576001600160a01b036109e9610406565b1660005260016020526020604060002054604051908152f35b503461000e576000806003193601126104035780805473ffffffffffffffffffffffffffffffffffffffff196001600160a01b03821691610a44338414611438565b1682557f8be0079c531659141344cd1fd0a4f28419497f9722a3daafe3b4186f6b6457e08280a380f35b503461000e57600036600319011261000e57602060405160ff7f0000000000000000000000000000000000000000000000000000000000000000168152f35b503461000e57602036600319011261000e576001600160a01b03610acf610406565b1660005260066020526020604060002054604051908152f35b503461000e57600036600319011261000e5760206001600160a01b0360005416604051908152f35b503461000e576000806003193601126104035760405190806005549060019180831c92808216928315610bca575b60209283861085146103e55785885260208801949081156103c45750600114610b71576103678761035b81890382611534565b600560005294509192917f036b6384b5eca791c62761152d0c79bb0604c104a5fb6f4eb0703f3154bb3db05b838610610bb9575050509101905061035b82610367388061034b565b805485870152948201948101610b9d565b93607f1693610b3e565b503461000e57600036600319011261000e5760206001600160781b0360085416604051908152f35b503461000e57600036600319011261000e5760206040517f70a0823100000000000000000000000000000000000000000000000000000000815230600482015281816024816001600160a01b037f0000000000000000000000000000000000000000000000000000000000000000165afa908115610ca3575b600091610c86575b50604051908152f35b610c9d9150823d8111610813576108058183611534565b38610c7d565b610cab611986565b610c75565b503461000e57604036600319011261000e57610cca610406565b6024356001600160a01b03806007541633036104f1578216908115610d8457610d7f8184610d5a7fddf252ad1be2c89b69c2b068fc378daa952ba7f163c4a11628f55a4df523b3ef94610d326000986001600160a01b03166000526001602052604060002090565b54610d3f82821015611ec5565b03916001600160a01b03166000526001602052604060002090565b55610d6f610d6a82600354611f36565b600355565b6040519081529081906020820190565b0390a3005b608460405162461bcd60e51b815260206004820152602160248201527f45524332303a206275726e2066726f6d20746865207a65726f2061646472657360448201527f73000000000000000000000000000000000000000000000000000000000000006064820152fd5b503461000e57604036600319011261000e57610e08610406565b6001600160a01b03806007541633036104f157600080610ee393837f000000000000000000000000000000000000000000000000000000000000000016906040519460208601917fa9059cbb000000000000000000000000000000000000000000000000000000008352166024860152602435604486015260448552610e8d856114ef565b8260405195610e9b87611518565b602087527f5361666545524332303a206c6f772d6c6576656c2063616c6c206661696c65646020880152610ed1843b1515611cca565b51925af1610edd611d15565b90611d63565b805180610eec57005b81602080610f01936107829501019101611c41565b611c59565b503461000e57602036600319011261000e576004356001600160a01b036007541633036104f157600854906001600160781b0390818316818110610f5057826104ab921690611f5e565b606460405162461bcd60e51b815260206004820152601960248201527f576f6d6261743a20494e53554646494349454e545f43415348000000000000006044820152fd5b503461000e57602036600319011261000e576004356001600160a01b036007541633036104f1576001600160781b03908181116104c7578161078292610fe292169060085460781c16611f43565b7fffff000000000000000000000000000000ffffffffffffffffffffffffffffff7dffffffffffffffffffffffffffffff0000000000000000000000000000006008549260781b16911617600855565b503461000e57604036600319011261000e5761104c610406565b6024359033600052600260205261107a816040600020906001600160a01b0316600052602052604060002090565b549180831061108f576105db92039033611786565b608460405162461bcd60e51b815260206004820152602560248201527f45524332303a2064656372656173656420616c6c6f77616e63652062656c6f7760448201527f207a65726f0000000000000000000000000000000000000000000000000000006064820152fd5b503461000e57604036600319011261000e57610459611116610406565b6024359033611666565b503461000e5760e036600319011261000e5761113a610406565b61114261041c565b60443590606435926084359360ff8516850361000e5780421161123a57611222611235916111fc6107829761120a611196876001600160a01b03166000526006602052604060002090815491600183019055565b9360405193849160208301968c8c8c7f00000000000000000000000000000000000000000000000000000000000000008b929160a094919796959260c085019885526001600160a01b038092166020860152166040840152606083015260808201520152565b03601f198101845283611534565b61121d60c4359360a43593519020611be0565b6119de565b6001600160a01b038084169116146118e5565b611786565b606460405162461bcd60e51b815260206004820152601d60248201527f45524332305065726d69743a206578706972656420646561646c696e650000006044820152fd5b503461000e57600036600319011261000e576020600954604051908152f35b503461000e57602036600319011261000e576004356001600160a01b036007541633036104f1576001600160781b03908160085460781c168181106112eb5761078292610fe2921690611f5e565b606460405162461bcd60e51b815260206004820152601e60248201527f576f6d6261743a20494e53554646494349454e545f4c494142494c49545900006044820152fd5b503461000e57604036600319011261000e57602061138461134e610406565b6001600160a01b0361135e61041c565b9116600052600283526040600020906001600160a01b0316600052602052604060002090565b54604051908152f35b503461000e57602036600319011261000e576113a7610406565b6001600160a01b036113be81600054163314611438565b8116156113ce5761078290611483565b608460405162461bcd60e51b815260206004820152602660248201527f4f776e61626c653a206e6577206f776e657220697320746865207a65726f206160448201527f64647265737300000000000000000000000000000000000000000000000000006064820152fd5b1561143f57565b606460405162461bcd60e51b815260206004820152602060248201527f4f776e61626c653a2063616c6c6572206973206e6f7420746865206f776e65726044820152fd5b600054906001600160a01b03809116918273ffffffffffffffffffffffffffffffffffffffff19821617600055167f8be0079c531659141344cd1fd0a4f28419497f9722a3daafe3b4186f6b6457e0600080a3565b50634e487b7160e01b600052604160045260246000fd5b6080810190811067ffffffffffffffff82111761150b57604052565b6115136114d8565b604052565b6040810190811067ffffffffffffffff82111761150b57604052565b90601f8019910116810190811067ffffffffffffffff82111761150b57604052565b50634e487b7160e01b600052601160045260246000fd5b9190820180921161157a57565b611582611556565b565b1561158b57565b608460405162461bcd60e51b815260206004820152602360248201527f45524332303a207472616e7366657220746f20746865207a65726f206164647260448201527f65737300000000000000000000000000000000000000000000000000000000006064820152fd5b156115fc57565b608460405162461bcd60e51b815260206004820152602660248201527f45524332303a207472616e7366657220616d6f756e742065786365656473206260448201527f616c616e636500000000000000000000000000000000000000000000000000006064820152fd5b91906001600160a01b039081841692831561171c576116fa827fddf252ad1be2c89b69c2b068fc378daa952ba7f163c4a11628f55a4df523b3ef946117179416966116b2881515611584565b6116e0846116d3836001600160a01b03166000526001602052604060002090565b54610d3f828210156115f5565b556001600160a01b03166000526001602052604060002090565b61170582825461156d565b90556040519081529081906020820190565b0390a3565b608460405162461bcd60e51b815260206004820152602560248201527f45524332303a207472616e736665722066726f6d20746865207a65726f20616460448201527f64726573730000000000000000000000000000000000000000000000000000006064820152fd5b906001600160a01b039182811692831561187c57821693841561181257806118017f8c5be1e5ebec7d5bd14f71427d1e84f3dd0314c0f7b2291e5b200ac8c7c3b925946117e9611717956001600160a01b03166000526002602052604060002090565b906001600160a01b0316600052602052604060002090565b556040519081529081906020820190565b608460405162461bcd60e51b815260206004820152602260248201527f45524332303a20617070726f766520746f20746865207a65726f20616464726560448201527f73730000000000000000000000000000000000000000000000000000000000006064820152fd5b608460405162461bcd60e51b8152602060048201526024808201527f45524332303a20617070726f76652066726f6d20746865207a65726f2061646460448201527f72657373000000000000000000000000000000000000000000000000000000006064820152fd5b156118ec57565b606460405162461bcd60e51b815260206004820152601e60248201527f45524332305065726d69743a20696e76616c6964207369676e617475726500006044820152fd5b1561193757565b608460405162461bcd60e51b815260206004820152602260248201527f45434453413a20696e76616c6964207369676e6174757265202776272076616c604482015261756560f01b6064820152fd5b506040513d6000823e3d90fd5b1561199a57565b606460405162461bcd60e51b815260206004820152601860248201527f45434453413a20696e76616c6964207369676e617475726500000000000000006044820152fd5b9291927f7fffffffffffffffffffffffffffffff5d576e7357a4501ddfe92f46681b20a08311611a9157611a50600093602095611a2a60ff8616601b8114908115611a86575b50611930565b604051948594859094939260ff6060936080840197845216602083015260408201520152565b838052039060015afa15611a79575b600051611a766001600160a01b0382161515611993565b90565b611a81611986565b611a5f565b601c91501438611a24565b608460405162461bcd60e51b815260206004820152602260248201527f45434453413a20696e76616c6964207369676e6174757265202773272076616c604482015261756560f01b6064820152fd5b467f000000000000000000000000000000000000000000000000000000000000000003611b2b577f000000000000000000000000000000000000000000000000000000000000000090565b60405160208101907f000000000000000000000000000000000000000000000000000000000000000082527f000000000000000000000000000000000000000000000000000000000000000060408201527f000000000000000000000000000000000000000000000000000000000000000060608201524660808201523060a082015260a0815260c0810181811067ffffffffffffffff821117611bd3575b60405251902090565b611bdb6114d8565b611bca565b611be8611ae0565b906040519060208201927f190100000000000000000000000000000000000000000000000000000000000084526022830152604282015260428152611c2c816114ef565b51902090565b9081602091031261000e575190565b9081602091031261000e5751801515810361000e5790565b15611c6057565b608460405162461bcd60e51b815260206004820152602a60248201527f5361666545524332303a204552433230206f7065726174696f6e20646964206e60448201527f6f742073756363656564000000000000000000000000000000000000000000006064820152fd5b15611cd157565b606460405162461bcd60e51b815260206004820152601d60248201527f416464726573733a2063616c6c20746f206e6f6e2d636f6e74726163740000006044820152fd5b3d15611d5e573d9067ffffffffffffffff8211611d51575b60405191611d45601f8201601f191660200184611534565b82523d6000602084013e565b611d596114d8565b611d2d565b606090565b90919015611d6f575090565b815115611d7f5750805190602001fd5b611d9b9060405191829162461bcd60e51b8352600483016102b0565b0390fd5b15611da657565b606460405162461bcd60e51b815260206004820152601a60248201527f576f6d6261743a204d41585f535550504c595f524541434845440000000000006044820152fd5b6001600160a01b038116918215611e815760207fddf252ad1be2c89b69c2b068fc378daa952ba7f163c4a11628f55a4df523b3ef91611e4f600094600354838101809111611e74575b6003556001600160a01b03166000526001602052604060002090565b805490828201809211611e67575b55604051908152a3565b611e6f611556565b611e5d565b611e7c611556565b611e33565b606460405162461bcd60e51b815260206004820152601f60248201527f45524332303a206d696e7420746f20746865207a65726f2061646472657373006044820152fd5b15611ecc57565b608460405162461bcd60e51b815260206004820152602260248201527f45524332303a206275726e20616d6f756e7420657863656564732062616c616e60448201527f63650000000000000000000000000000000000000000000000000000000000006064820152fd5b9190820391821161157a57565b9190916001600160781b038080941691160191821161157a57565b6001600160781b03918216908216039190821161157a5756fea2646970667358221220b0c7c2ab3b9380554b5d8a2d57032b4741bba244b84ea1cfda0f43329c4652ba64736f6c63430008110033",
  "devdoc": {
    "details": "Expect to be owned by Timelock for management, and pool links to Pool for coordination",
    "kind": "dev",
    "methods": {
      "DOMAIN_SEPARATOR()": {
        "details": "See {IERC20Permit-DOMAIN_SEPARATOR}."
      },
      "addCash(uint256)": {
        "params": {
          "amount": "amount to add"
        }
      },
      "addLiability(uint256)": {
        "params": {
          "amount": "amount to add"
        }
      },
      "allowance(address,address)": {
        "details": "See {IERC20-allowance}."
      },
      "approve(address,uint256)": {
        "details": "See {IERC20-approve}. Requirements: - `spender` cannot be the zero address."
      },
      "balanceOf(address)": {
        "details": "See {IERC20-balanceOf}."
      },
      "burn(address,uint256)": {
        "params": {
          "amount": "amount to burn",
          "to": "address holding the tokens"
        }
      },
      "constructor": {
        "params": {
          "name_": "The name of the asset",
          "symbol_": "The symbol of the asset",
          "underlyingToken_": "The token represented by the asset"
        }
      },
      "decimals()": {
        "returns": {
          "_0": "decimals for asset"
        }
      },
      "decreaseAllowance(address,uint256)": {
        "details": "Atomically decreases the allowance granted to `spender` by the caller. This is an alternative to {approve} that can be used as a mitigation for problems described in {IERC20-approve}. Emits an {Approval} event indicating the updated allowance. Requirements: - `spender` cannot be the zero address. - `spender` must have allowance for the caller of at least `subtractedValue`."
      },
      "increaseAllowance(address,uint256)": {
        "details": "Atomically increases the allowance granted to `spender` by the caller. This is an alternative to {approve} that can be used as a mitigation for problems described in {IERC20-approve}. Emits an {Approval} event indicating the updated allowance. Requirements: - `spender` cannot be the zero address."
      },
      "mint(address,uint256)": {
        "params": {
          "amount": "amount to transfer",
          "to": "address to transfer the token to"
        }
      },
      "name()": {
        "details": "Returns the name of the token."
      },
      "nonces(address)": {
        "details": "See {IERC20Permit-nonces}."
      },
      "owner()": {
        "details": "Returns the address of the current owner."
      },
      "permit(address,address,uint256,uint256,uint8,bytes32,bytes32)": {
        "details": "See {IERC20Permit-permit}."
      },
      "removeCash(uint256)": {
        "params": {
          "amount": "amount to remove"
        }
      },
      "removeLiability(uint256)": {
        "params": {
          "amount": "amount to remove"
        }
      },
      "renounceOwnership()": {
        "details": "Leaves the contract without owner. It will not be possible to call `onlyOwner` functions anymore. Can only be called by the current owner. NOTE: Renouncing ownership will leave the contract without an owner, thereby removing any functionality that is only available to the owner."
      },
      "setMaxSupply(uint256)": {
        "params": {
          "maxSupply_": "the new asset's max supply"
        }
      },
      "setPool(address)": {
        "params": {
          "pool_": "new pool's address"
        }
      },
      "symbol()": {
        "details": "Returns the symbol of the token, usually a shorter version of the name."
      },
      "totalSupply()": {
        "details": "See {IERC20-totalSupply}."
      },
      "transfer(address,uint256)": {
        "details": "See {IERC20-transfer}. Requirements: - `recipient` cannot be the zero address. - the caller must have a balance of at least `amount`."
      },
      "transferFrom(address,address,uint256)": {
        "details": "See {IERC20-transferFrom}. Emits an {Approval} event indicating the updated allowance. This is not required by the EIP. See the note at the beginning of {ERC20}. Requirements: - `sender` and `recipient` cannot be the zero address. - `sender` must have a balance of at least `amount`. - the caller must have allowance for ``sender``'s tokens of at least `amount`."
      },
      "transferOwnership(address)": {
        "details": "Transfers ownership of the contract to a new account (`newOwner`). Can only be called by the current owner."
      },
      "transferUnderlyingToken(address,uint256)": {
        "details": "Not to be confused with transferring Wombat Assets.",
        "params": {
          "amount": "amount to transfer",
          "to": "address to transfer the token to"
        }
      },
      "underlyingTokenBalance()": {
        "returns": {
          "_0": "Returns the actual balance of ERC20 underlyingToken"
        }
      }
    },
    "stateVariables": {
      "cash": {
        "details": "18.18 fixed point decimals"
      },
      "liability": {
        "details": "18.18 fixed point decimals"
      },
      "maxSupply": {
        "details": "if 0, means asset has no max"
      }
    },
    "title": "Asset",
    "version": 1
  },
  "userdoc": {
    "events": {
      "SetMaxSupply(uint256,uint256)": {
        "notice": "An event thats emitted when max supply is updated"
      },
      "SetPool(address,address)": {
        "notice": "An event thats emitted when pool address is updated"
      }
    },
    "kind": "user",
    "methods": {
      "addCash(uint256)": {
        "notice": "Adds cash, expects actual ERC20 underlyingToken got transferred in. Can only be called by Pool."
      },
      "addLiability(uint256)": {
        "notice": "Adds deposit or dividend, expect LP underlyingToken minted in case of deposit. Can only be called by Pool."
      },
      "burn(address,uint256)": {
        "notice": "Burn ERC20 Asset LP Token, expect pool coordinates other state updates. Can only be called by Pool."
      },
      "cash()": {
        "notice": "Cash balance, normally it should align with IERC20(underlyingToken).balanceOf(address(this))"
      },
      "constructor": {
        "notice": "Constructor."
      },
      "decimals()": {
        "notice": "Returns the decimals of Asset, fixed to 18 decimals"
      },
      "liability()": {
        "notice": "Total liability, equals to the sum of deposit and dividend"
      },
      "maxSupply()": {
        "notice": "maxSupply the maximum amount of asset the pool is allowed to mint. The unit is the same as the underlying token"
      },
      "mint(address,uint256)": {
        "notice": "Mint ERC20 Asset LP Token, expect pool coordinates other state updates. Can only be called by Pool."
      },
      "pool()": {
        "notice": "The Pool"
      },
      "removeCash(uint256)": {
        "notice": "Deducts cash, expect actual ERC20 got transferred out (by transferUnderlyingToken()). Can only be called by Pool."
      },
      "removeLiability(uint256)": {
        "notice": "Removes deposit and dividend earned, expect LP underlyingToken burnt. Can only be called by Pool."
      },
      "setMaxSupply(uint256)": {
        "notice": "Changes asset max supply. Can only be set by the contract owner. 18 decimals"
      },
      "setPool(address)": {
        "notice": "TODO: move pool address setup within contract initializationChanges the pool. Can only be set by the contract owner."
      },
      "transferUnderlyingToken(address,uint256)": {
        "notice": "Transfers ERC20 underlyingToken from this contract to another account. Can only be called by Pool."
      },
      "underlyingToken()": {
        "notice": "The underlying underlyingToken represented by this asset"
      },
      "underlyingTokenBalance()": {
        "notice": "Get underlying Token Balance"
      }
    },
    "notice": "Contract presenting an asset in a pool",
    "version": 1
  },
  "storageLayout": {
    "storage": [
      {
        "astId": 660,
        "contract": "contracts/wombat-core/asset/Asset.sol:Asset",
        "label": "_owner",
        "offset": 0,
        "slot": "0",
        "type": "t_address"
      },
      {
        "astId": 812,
        "contract": "contracts/wombat-core/asset/Asset.sol:Asset",
        "label": "_balances",
        "offset": 0,
        "slot": "1",
        "type": "t_mapping(t_address,t_uint256)"
      },
      {
        "astId": 818,
        "contract": "contracts/wombat-core/asset/Asset.sol:Asset",
        "label": "_allowances",
        "offset": 0,
        "slot": "2",
        "type": "t_mapping(t_address,t_mapping(t_address,t_uint256))"
      },
      {
        "astId": 820,
        "contract": "contracts/wombat-core/asset/Asset.sol:Asset",
        "label": "_totalSupply",
        "offset": 0,
        "slot": "3",
        "type": "t_uint256"
      },
      {
        "astId": 822,
        "contract": "contracts/wombat-core/asset/Asset.sol:Asset",
        "label": "_name",
        "offset": 0,
        "slot": "4",
        "type": "t_string_storage"
      },
      {
        "astId": 824,
        "contract": "contracts/wombat-core/asset/Asset.sol:Asset",
        "label": "_symbol",
        "offset": 0,
        "slot": "5",
        "type": "t_string_storage"
      },
      {
        "astId": 1468,
        "contract": "contracts/wombat-core/asset/Asset.sol:Asset",
        "label": "_nonces",
        "offset": 0,
        "slot": "6",
        "type": "t_mapping(t_address,t_struct(Counter)2313_storage)"
      },
      {
        "astId": 3721,
        "contract": "contracts/wombat-core/asset/Asset.sol:Asset",
        "label": "pool",
        "offset": 0,
        "slot": "7",
        "type": "t_address"
      },
      {
        "astId": 3725,
        "contract": "contracts/wombat-core/asset/Asset.sol:Asset",
        "label": "cash",
        "offset": 0,
        "slot": "8",
        "type": "t_uint120"
      },
      {
        "astId": 3729,
        "contract": "contracts/wombat-core/asset/Asset.sol:Asset",
        "label": "liability",
        "offset": 15,
        "slot": "8",
        "type": "t_uint120"
      },
      {
        "astId": 3732,
        "contract": "contracts/wombat-core/asset/Asset.sol:Asset",
        "label": "maxSupply",
        "offset": 0,
        "slot": "9",
        "type": "t_uint256"
      }
    ],
    "types": {
      "t_address": {
        "encoding": "inplace",
        "label": "address",
        "numberOfBytes": "20"
      },
      "t_mapping(t_address,t_mapping(t_address,t_uint256))": {
        "encoding": "mapping",
        "key": "t_address",
        "label": "mapping(address => mapping(address => uint256))",
        "numberOfBytes": "32",
        "value": "t_mapping(t_address,t_uint256)"
      },
      "t_mapping(t_address,t_struct(Counter)2313_storage)": {
        "encoding": "mapping",
        "key": "t_address",
        "label": "mapping(address => struct Counters.Counter)",
        "numberOfBytes": "32",
        "value": "t_struct(Counter)2313_storage"
      },
      "t_mapping(t_address,t_uint256)": {
        "encoding": "mapping",
        "key": "t_address",
        "label": "mapping(address => uint256)",
        "numberOfBytes": "32",
        "value": "t_uint256"
      },
      "t_string_storage": {
        "encoding": "bytes",
        "label": "string",
        "numberOfBytes": "32"
      },
      "t_struct(Counter)2313_storage": {
        "encoding": "inplace",
        "label": "struct Counters.Counter",
        "members": [
          {
            "astId": 2312,
            "contract": "contracts/wombat-core/asset/Asset.sol:Asset",
            "label": "_value",
            "offset": 0,
            "slot": "0",
            "type": "t_uint256"
          }
        ],
        "numberOfBytes": "32"
      },
      "t_uint120": {
        "encoding": "inplace",
        "label": "uint120",
        "numberOfBytes": "15"
      },
      "t_uint256": {
        "encoding": "inplace",
        "label": "uint256",
        "numberOfBytes": "32"
      }
    }
  }
}