{
  "address": "0xF80722121949C4Ae1047D9A3e26D25b71D8de4D2",
  "abi": [
    {
      "inputs": [
        {
          "internalType": "address",
          "name": "_master",
          "type": "address"
        },
        {
          "internalType": "contract IERC20",
          "name": "_lpToken",
          "type": "address"
        },
        {
          "internalType": "uint256",
          "name": "_startTimestamp",
          "type": "uint256"
        },
        {
          "internalType": "contract IERC20",
          "name": "_rewardToken",
          "type": "address"
        },
        {
          "internalType": "uint96",
          "name": "_tokenPerSec",
          "type": "uint96"
        }
      ],
      "stateMutability": "nonpayable",
      "type": "constructor"
    },
    {
      "anonymous": false,
      "inputs": [
        {
          "indexed": true,
          "internalType": "address",
          "name": "rewardToken",
          "type": "address"
        },
        {
          "indexed": true,
          "internalType": "address",
          "name": "user",
          "type": "address"
        },
        {
          "indexed": false,
          "internalType": "uint256",
          "name": "amount",
          "type": "uint256"
        }
      ],
      "name": "OnReward",
      "type": "event"
    },
    {
      "anonymous": false,
      "inputs": [
        {
          "indexed": true,
          "internalType": "address",
          "name": "previousOwner",
          "type": "address"
        },
        {
          "indexed": true,
          "internalType": "address",
          "name": "newOwner",
          "type": "address"
        }
      ],
      "name": "OwnershipTransferred",
      "type": "event"
    },
    {
      "anonymous": false,
      "inputs": [
        {
          "indexed": true,
          "internalType": "address",
          "name": "rewardToken",
          "type": "address"
        },
        {
          "indexed": false,
          "internalType": "uint256",
          "name": "oldRate",
          "type": "uint256"
        },
        {
          "indexed": false,
          "internalType": "uint256",
          "name": "newRate",
          "type": "uint256"
        }
      ],
      "name": "RewardRateUpdated",
      "type": "event"
    },
    {
      "inputs": [
        {
          "internalType": "contract IERC20",
          "name": "_rewardToken",
          "type": "address"
        },
        {
          "internalType": "uint96",
          "name": "_tokenPerSec",
          "type": "uint96"
        }
      ],
      "name": "addRewardToken",
      "outputs": [],
      "stateMutability": "nonpayable",
      "type": "function"
    },
    {
      "inputs": [],
      "name": "balances",
      "outputs": [
        {
          "internalType": "uint256[]",
          "name": "balances_",
          "type": "uint256[]"
        }
      ],
      "stateMutability": "view",
      "type": "function"
    },
    {
      "inputs": [
        {
          "internalType": "address",
          "name": "token",
          "type": "address"
        }
      ],
      "name": "emergencyTokenWithdraw",
      "outputs": [],
      "stateMutability": "nonpayable",
      "type": "function"
    },
    {
      "inputs": [],
      "name": "emergencyWithdraw",
      "outputs": [],
      "stateMutability": "nonpayable",
      "type": "function"
    },
    {
      "inputs": [],
      "name": "lastRewardTimestamp",
      "outputs": [
        {
          "internalType": "uint256",
          "name": "",
          "type": "uint256"
        }
      ],
      "stateMutability": "view",
      "type": "function"
    },
    {
      "inputs": [],
      "name": "lpToken",
      "outputs": [
        {
          "internalType": "contract IERC20",
          "name": "",
          "type": "address"
        }
      ],
      "stateMutability": "view",
      "type": "function"
    },
    {
      "inputs": [],
      "name": "master",
      "outputs": [
        {
          "internalType": "address",
          "name": "",
          "type": "address"
        }
      ],
      "stateMutability": "view",
      "type": "function"
    },
    {
      "inputs": [
        {
          "internalType": "address",
          "name": "_user",
          "type": "address"
        },
        {
          "internalType": "uint256",
          "name": "_lpAmount",
          "type": "uint256"
        }
      ],
      "name": "onReward",
      "outputs": [
        {
          "internalType": "uint256[]",
          "name": "rewards",
          "type": "uint256[]"
        }
      ],
      "stateMutability": "nonpayable",
      "type": "function"
    },
    {
      "inputs": [
        {
          "internalType": "address",
          "name": "user",
          "type": "address"
        },
        {
          "internalType": "uint256",
          "name": "newVote",
          "type": "uint256"
        },
        {
          "internalType": "uint256",
          "name": "originalTotalVotes",
          "type": "uint256"
        }
      ],
      "name": "onVote",
      "outputs": [
        {
          "internalType": "uint256[]",
          "name": "rewards",
          "type": "uint256[]"
        }
      ],
      "stateMutability": "nonpayable",
      "type": "function"
    },
    {
      "inputs": [],
      "name": "operator",
      "outputs": [
        {
          "internalType": "address",
          "name": "",
          "type": "address"
        }
      ],
      "stateMutability": "view",
      "type": "function"
    },
    {
      "inputs": [],
      "name": "owner",
      "outputs": [
        {
          "internalType": "address",
          "name": "",
          "type": "address"
        }
      ],
      "stateMutability": "view",
      "type": "function"
    },
    {
      "inputs": [
        {
          "internalType": "address",
          "name": "_user",
          "type": "address"
        }
      ],
      "name": "pendingTokens",
      "outputs": [
        {
          "internalType": "uint256[]",
          "name": "tokens",
          "type": "uint256[]"
        }
      ],
      "stateMutability": "view",
      "type": "function"
    },
    {
      "inputs": [],
      "name": "renounceOwnership",
      "outputs": [],
      "stateMutability": "nonpayable",
      "type": "function"
    },
    {
      "inputs": [
        {
          "internalType": "uint256",
          "name": "",
          "type": "uint256"
        }
      ],
      "name": "rewardInfo",
      "outputs": [
        {
          "internalType": "contract IERC20",
          "name": "rewardToken",
          "type": "address"
        },
        {
          "internalType": "uint96",
          "name": "tokenPerSec",
          "type": "uint96"
        },
        {
          "internalType": "uint128",
          "name": "accTokenPerShare",
          "type": "uint128"
        },
        {
          "internalType": "uint128",
          "name": "distributedAmount",
          "type": "uint128"
        }
      ],
      "stateMutability": "view",
      "type": "function"
    },
    {
      "inputs": [],
      "name": "rewardLength",
      "outputs": [
        {
          "internalType": "uint256",
          "name": "",
          "type": "uint256"
        }
      ],
      "stateMutability": "view",
      "type": "function"
    },
    {
      "inputs": [],
      "name": "rewardTokens",
      "outputs": [
        {
          "internalType": "contract IERC20[]",
          "name": "tokens",
          "type": "address[]"
        }
      ],
      "stateMutability": "view",
      "type": "function"
    },
    {
      "inputs": [
        {
          "internalType": "address",
          "name": "_operator",
          "type": "address"
        }
      ],
      "name": "setOperator",
      "outputs": [],
      "stateMutability": "nonpayable",
      "type": "function"
    },
    {
      "inputs": [
        {
          "internalType": "uint256",
          "name": "_tokenId",
          "type": "uint256"
        },
        {
          "internalType": "uint96",
          "name": "_tokenPerSec",
          "type": "uint96"
        }
      ],
      "name": "setRewardRate",
      "outputs": [],
      "stateMutability": "nonpayable",
      "type": "function"
    },
    {
      "inputs": [
        {
          "internalType": "address",
          "name": "newOwner",
          "type": "address"
        }
      ],
      "name": "transferOwnership",
      "outputs": [],
      "stateMutability": "nonpayable",
      "type": "function"
    },
    {
      "inputs": [],
      "name": "updateReward",
      "outputs": [],
      "stateMutability": "nonpayable",
      "type": "function"
    },
    {
      "inputs": [
        {
          "internalType": "uint256",
          "name": "",
          "type": "uint256"
        },
        {
          "internalType": "address",
          "name": "",
          "type": "address"
        }
      ],
      "name": "userInfo",
      "outputs": [
        {
          "internalType": "uint128",
          "name": "amount",
          "type": "uint128"
        },
        {
          "internalType": "uint128",
          "name": "rewardDebt",
          "type": "uint128"
        },
        {
          "internalType": "uint256",
          "name": "unpaidRewards",
          "type": "uint256"
        }
      ],
      "stateMutability": "view",
      "type": "function"
    },
    {
      "stateMutability": "payable",
      "type": "receive"
    }
  ],
  "transactionHash": "0xc8aa0bf100d14043f028e424ad1156d5370909c0f75ec002dd5b3c9797181170",
  "args": [
    "0x04D4e1C1F3D6539071b6D3849fDaED04d48D563d",
    "0x3A29dF144bB54A8bF3d20357c116befa7adE962d",
    1675325299,
    "0x0A3BB08b3a15A19b4De82F8AcFc862606FB69A2D",
    "0"
  ],
  "numDeployments": 1,
  "solcInputHash": "3244f2af385044922bc4e9fd0add1ce4",
  "bytecode": "0x60c0346200037c57601f62001eb938819003918201601f1916830192916001600160401b03918285118486101762000381578160a092859260409788528339810103126200037c578151916001600160a01b039182841684036200037c576020906200006d82840162000397565b9386840151936080620000836060830162000397565b9101516001600160601b03811695908690036200037c576000968754988460018060a01b03199433868d16178b558c519b823391167f8be0079c531659141344cd1fd0a4f28419497f9722a3daafe3b4186f6b6457e08d80a36001805516998a3b1580159062000373575b156200031657508482163b15620002bb57803b1562000262574283106200025e5760a0526080526003558751926080840190848210908211176200024a57885286835283830185815288840191670de0b6b3a7640000835260608501938885526004546801000000000000000081101562000236576001810180600455811015620002225760048a52878a209651935160a01b909216921691909117600191821b9094019384559051915160801b6001600160801b0319166001600160801b03929092169190911791015584519283528201527f225033f2ea5486463cbb49ceda2823be38daddc85031ce2c637e7ad0950bc85a908390a251611b0c9081620003ad82396080518181816102c60152611369015260a05181818161036001528181610cde01528181610f4301526113900152f35b634e487b7160e01b8a52603260045260248afd5b634e487b7160e01b8a52604160045260248afd5b634e487b7160e01b87526041600452602487fd5b8880fd5b8a5162461bcd60e51b815260048101889052602c60248201527f636f6e7374727563746f723a204d6173746572206d757374206265206120766160448201526b1b1a590818dbdb9d1c9858dd60a21b6064820152608490fd5b8a5162461bcd60e51b815260048101889052602e60248201527f636f6e7374727563746f723a204c5020746f6b656e206d75737420626520612060448201526d1d985b1a590818dbdb9d1c9858dd60921b6064820152608490fd5b62461bcd60e51b815260048101889052603260248201527f636f6e7374727563746f723a2072657761726420746f6b656e206d7573742062604482015271194818481d985b1a590818dbdb9d1c9858dd60721b6064820152608490fd5b508a15620000ee565b600080fd5b634e487b7160e01b600052604160045260246000fd5b51906001600160a01b03821682036200037c5756fe6080604052600436101561001b575b361561001957600080fd5b005b60003560e01c80630bc79363146101bf578063570ca735146101b65780635fcbd285146101ad57806365d9aa4a146101a4578063715018a61461019b5780637bb98a681461019257806381a00f83146101895780638da5cb5b1461018057806393f1a40b14610177578063ad5688271461016e578063b3ab15fb14610165578063b95c57461461015c578063c031a66f14610153578063c2b18aa01461014a578063c372328814610141578063db2e21bc14610138578063edc9d7721461012f578063ee97f7f314610126578063f2fde38b1461011d578063f36c0a72146101145763f8077fae0361000e5761010f611033565b61000e565b5061010f611016565b5061010f610f67565b5061010f610f22565b5061010f610e43565b5061010f610d58565b5061010f610cb4565b5061010f610c31565b5061010f610a84565b5061010f610a65565b5061010f610a18565b5061010f610960565b5061010f6108ef565b5061010f6108c7565b5061010f610865565b5061010f61070f565b5061010f6106ad565b5061010f610336565b5061010f6102a5565b5061010f61027d565b5061010f6101e8565b602435906bffffffffffffffffffffffff821682036101e357565b600080fd5b50346101e35760403660031901126101e3576102026101c8565b6001600160a01b038060005416331490811561026f575b501561022b57610019906004356115e7565b606460405162461bcd60e51b815260206004820152601360248201527f6f6e6c794f70657261746f724f724f776e6572000000000000000000000000006044820152fd5b905060025416331438610219565b50346101e35760003660031901126101e35760206001600160a01b0360025416604051908152f35b50346101e35760003660031901126101e35760206040516001600160a01b037f0000000000000000000000000000000000000000000000000000000000000000168152f35b6001600160a01b038116036101e357565b6020908160408183019282815285518094520193019160005b828110610322575050505090565b835185529381019392810192600101610314565b50346101e35760603660031901126101e3576103536004356102ea565b6103876001600160a01b037f00000000000000000000000000000000000000000000000000000000000000001633146110e5565b61039660026001541415611156565b60026001556103a6604435611514565b6004546103b281611701565b9060005b8181106103da576103d6836103ca60018055565b604051918291826102fb565b0390f35b806103e76105319261081d565b506104db61041d600435610405856000526005602052604060002090565b906001600160a01b0316600052602052604060002090565b6104b36104ae6104a361049b61048f600161043f89546001600160a01b031690565b988d88548060801c610536575b505061048161045c602435611a65565b89906001600160801b03166fffffffffffffffffffffffffffffffff19825416179055565b01546001600160801b031690565b6001600160801b031690565b6024356114c6565b64e8d4a51000900490565b611a65565b6001600160801b036fffffffffffffffffffffffffffffffff1983549260801b169116179055565b6104e5828661174f565b517f986cbc32375de61d1fabfb01aef452f5c919f2180bb72fff0fb182126a02b527604051806105296001600160a01b038060043516961694829190602083019252565b0390a361147b565b6103b6565b8c61057e8b6105798761056a6104a361055b61048f848c01546001600160801b031690565b6001600160801b0389166114c6565b92019460801c91855490611733565b611497565b8d6001600160a01b038116806105fc57505047918282116000146105d7576105c783916105cd95966105c26000808080886004355af16105bc611771565b506117bf565b61174f565b52611497565b90555b8d3861044c565b8192506000946105c2868080806105f5976004355af16105bc611771565b52556105d0565b6040516370a0823160e01b815230600482015291956020949290918590829060249082905afa9485156106a0575b600095610671575b50508383111561065b5783916105c7916105c28461065498996004359061180a565b90556105d0565b8293506105c26105f5936000976004359061180a565b610691929550803d10610699575b61068981836111fd565b810190611740565b923880610632565b503d61067f565b6106a8611324565b61062a565b50346101e35760008060031936011261070c578080546001600160a01b03196001600160a01b038216916106e2338414611052565b1682557f8be0079c531659141344cd1fd0a4f28419497f9722a3daafe3b4186f6b6457e08280a380f35b80fd5b50346101e35760008060031936011261070c5760049081549061073182611701565b92815b83811061074957604051806103d687826102fb565b8061077661076a61075c6107969461081d565b50546001600160a01b031690565b6001600160a01b031690565b6001600160a01b03811661079b575047610790828861174f565b5261147b565b610734565b6040516370a0823160e01b815230858201908152602092839183919082908190850103915afa9182156107f9575b86926107dc575b5050610790828861174f565b6107f29250803d106106995761068981836111fd565b38806107d0565b610801611324565b6107c9565b50634e487b7160e01b600052603260045260246000fd5b600454811015610858575b600460005260011b7f8a35acfbc15ff81a39ae7d344fd709f28e8600b4aa8c65c6b64bfe7fe36bd19b0190600090565b610860610806565b610828565b50346101e35760203660031901126101e3576004356004548110156101e35761088f60809161081d565b5060018154910154604051916001600160a01b038116835260a01c60208301526001600160801b0381166040830152821c6060820152f35b50346101e35760003660031901126101e35760206001600160a01b0360005416604051908152f35b50346101e35760403660031901126101e357606061093a602435610912816102ea565b60043560005260056020526040600020906001600160a01b0316600052602052604060002090565b60018154910154604051916001600160801b038116835260801c60208301526040820152f35b50346101e35760203660031901126101e35760043561097e816102ea565b6001600160a01b03600091610997828454163314611052565b16806109b457506109b18180808047335af16105bc611771565b80f35b6040516370a0823160e01b81523060048201526109b191602082602481845afa918215610a0b575b84926109eb575b50339061180a565b610a0491925060203d81116106995761068981836111fd565b90386109e3565b610a13611324565b6109dc565b50346101e35760203660031901126101e357600435610a36816102ea565b6001600160a01b0390610a4e82600054163314611052565b166001600160a01b03196002541617600255600080f35b50346101e35760003660031901126101e3576020600454604051908152f35b50346101e3576020806003193601126101e35760043590610aa4826102ea565b60045490610ab182611701565b92600060035491824211915b858110610ad257604051806103d689826102fb565b80610b67610aeb610ae5610b719461081d565b50611a23565b6001610b5e610b0887610405876000526005602052604060002090565b92610b2061048f60408301516001600160801b031690565b90610b29611331565b908c8c8c80610be4575b610b76575b50505050610b546104a38554926001600160801b0384166114c6565b9060801c90611497565b91015490611733565b610790828a61174f565b610abd565b610bc9610bc4610bd594610bbe610bad610bdb999896610b99610bcf9742611497565b9301516bffffffffffffffffffffffff1690565b6bffffffffffffffffffffffff1690565b906114c6565b6114ac565b91611abd565b906114d9565b90611733565b38808c8c610b38565b50831515610b33565b6020908160408183019282815285518094520193019160005b828110610c14575050505090565b83516001600160a01b031685529381019392810192600101610c06565b50346101e35760003660031901126101e357600454610c4f816116da565b90610c5d60405192836111fd565b808252601f19610c6c826116da565b0136602084013760005b818110610c8b57604051806103d68582610bed565b806001600160a01b03610ca3610ae5610caf9461081d565b5116610790828661174f565b610c76565b50346101e35760403660031901126101e357610cd16004356102ea565b610d056001600160a01b037f00000000000000000000000000000000000000000000000000000000000000001633146110e5565b610d1460026001541415611156565b606460405162461bcd60e51b815260206004820152601360248201527f43616c6c206f6e566f746520696e7374656164000000000000000000000000006044820152fd5b50346101e35760008060031936011261070c576001600160a01b03610d81818354163314611052565b6004805491835b838110610d93578480f35b8082610da1610dd09361081d565b505416610db2338589541614611052565b80610dd55750610dcb8680808047335af16105bc611771565b61147b565b610d88565b6040516370a0823160e01b815230868201908152610dcb92602092909183908290819083010381855afa928315610e36575b8a93610e17575b5050339061180a565b610e2e929350803d106106995761068981836111fd565b903880610e0e565b610e3e611324565b610e07565b50346101e35760403660031901126101e357600435610e61816102ea565b7f225033f2ea5486463cbb49ceda2823be38daddc85031ce2c637e7ad0950bc85a610f1d610e8d6101c8565b610ef76001600160a01b03610ea781600054163314611052565b610eb7610eb2611331565b611514565b60405195610ec4876111b8565b16948581526bffffffffffffffffffffffff83166020820152670de0b6b3a764000060408201526000606082015261121f565b60408051600081526bffffffffffffffffffffffff909216602083015290918291820190565b0390a2005b50346101e35760003660031901126101e35760206040516001600160a01b037f0000000000000000000000000000000000000000000000000000000000000000168152f35b50346101e35760203660031901126101e357600435610f85816102ea565b6001600160a01b03610f9c81600054163314611052565b811615610fac576100199061109d565b608460405162461bcd60e51b815260206004820152602660248201527f4f776e61626c653a206e6577206f776e657220697320746865207a65726f206160448201527f64647265737300000000000000000000000000000000000000000000000000006064820152fd5b50346101e35760003660031901126101e357610019610eb2611331565b50346101e35760003660031901126101e3576020600354604051908152f35b1561105957565b606460405162461bcd60e51b815260206004820152602060248201527f4f776e61626c653a2063616c6c6572206973206e6f7420746865206f776e65726044820152fd5b600054906001600160a01b0380911691826001600160a01b0319821617600055167f8be0079c531659141344cd1fd0a4f28419497f9722a3daafe3b4186f6b6457e0600080a3565b156110ec57565b608460405162461bcd60e51b815260206004820152602e60248201527f6f6e6c794d61737465723a206f6e6c79204d61737465722063616e2063616c6c60448201527f20746869732066756e6374696f6e0000000000000000000000000000000000006064820152fd5b1561115d57565b606460405162461bcd60e51b815260206004820152601f60248201527f5265656e7472616e637947756172643a207265656e7472616e742063616c6c006044820152fd5b50634e487b7160e01b600052604160045260246000fd5b6080810190811067ffffffffffffffff8211176111d457604052565b6111dc6111a1565b604052565b6040810190811067ffffffffffffffff8211176111d457604052565b90601f8019910116810190811067ffffffffffffffff8211176111d457604052565b6112f4907f8a35acfbc15ff81a39ae7d344fd709f28e8600b4aa8c65c6b64bfe7fe36bd19c60045468010000000000000000811015611303575b60018101806004558110156112f6575b60046000528251602084015160a01b6001600160a01b0319166001600160a01b03909116177f8a35acfbc15ff81a39ae7d344fd709f28e8600b4aa8c65c6b64bfe7fe36bd19b60019290921b9182015560408301516060909301516001600160801b039093166fffffffffffffffffffffffffffffffff1960809490941b9390931692909217910155565b565b6112fe610806565b611269565b61130b6111a1565b611259565b51906001600160801b03821682036101e357565b506040513d6000823e3d90fd5b60408051907fa7cac84600000000000000000000000000000000000000000000000000000000825280826024816001600160a01b03807f00000000000000000000000000000000000000000000000000000000000000001660048301527f0000000000000000000000000000000000000000000000000000000000000000165afa918215611457575b6000926113dd575b5050602001516113da906001600160801b031661048f565b90565b90918282813d8311611450575b6113f481836111fd565b8101031261070c57506020826114388261048f946113da9651938085019085821067ffffffffffffffff831117611443575b5261143081611310565b845201611310565b8282015292506113c2565b61144b6111a1565b611426565b503d6113ea565b61145f611324565b6113ba565b50634e487b7160e01b600052601160045260246000fd5b600190600019811461148b570190565b611493611464565b0190565b919082039182116114a457565b6112f4611464565b9064e8d4a51000918281029281840414901517156114a457565b818102929181159184041417156114a457565b81156114e3570490565b634e487b7160e01b600052601260045260246000fd5b9190916001600160801b03808094169116019182116114a457565b600380544211806115de575b611528575050565b6004549160005b83811061154357505050506112f442600355565b80610dcb6115536115d99361081d565b506104b36115cf611576611568895442611497565b610bbe610bad865460a01c90565b6104ae6115aa60016115916104ae8c610bcf610bc9886114ac565b9601956115a587546001600160801b031690565b6114f9565b85906001600160801b03166fffffffffffffffffffffffffffffffff19825416179055565b825460801c6114f9565b61152f565b50811515611520565b906bffffffffffffffffffffffff81169169021e19e0c9bab24000008311611696577f225033f2ea5486463cbb49ceda2823be38daddc85031ce2c637e7ad0950bc85a916001600160a01b03611685604093611644610eb2611331565b6116806116508261081d565b505460a01c9461165f8361081d565b50906001600160a01b036001600160a01b031983549260a01b169116179055565b61081d565b5054169382519182526020820152a2565b606460405162461bcd60e51b815260206004820152601460248201527f726577617264207261746520746f6f20686967680000000000000000000000006044820152fd5b60209067ffffffffffffffff81116116f4575b60051b0190565b6116fc6111a1565b6116ed565b9061170b826116da565b61171860405191826111fd565b8281528092611729601f19916116da565b0190602036910137565b919082018092116114a457565b908160209103126101e3575190565b6020918151811015611764575b60051b010190565b61176c610806565b61175c565b3d156117ba573d9067ffffffffffffffff82116117ad575b604051916117a1601f8201601f1916602001846111fd565b82523d6000602084013e565b6117b56111a1565b611789565b606090565b156117c657565b606460405162461bcd60e51b815260206004820152600f60248201527f5472616e73666572206661696c656400000000000000000000000000000000006044820152fd5b9160405191602093848401927fa9059cbb0000000000000000000000000000000000000000000000000000000084526001600160a01b03809316602486015260448501526044845261185b846111b8565b16906040519261186a846111e1565b8484527f5361666545524332303a206c6f772d6c6576656c2063616c6c206661696c656485850152823b156118db576118b6939260009283809351925af16118b0611771565b906119a8565b805190816118c357505050565b826112f4936118d693830101910161191f565b611937565b6064856040519062461bcd60e51b82526004820152601d60248201527f416464726573733a2063616c6c20746f206e6f6e2d636f6e74726163740000006044820152fd5b908160209103126101e3575180151581036101e35790565b1561193e57565b608460405162461bcd60e51b815260206004820152602a60248201527f5361666545524332303a204552433230206f7065726174696f6e20646964206e60448201527f6f742073756363656564000000000000000000000000000000000000000000006064820152fd5b909190156119b4575090565b8151156119c45750805190602001fd5b6040519062461bcd60e51b82528160208060048301528251908160248401526000935b828510611a0a575050604492506000838284010152601f80199101168101030190fd5b84810182015186860160440152938101938593506119e7565b90604051611a30816111b8565b60606001829480546001600160a01b038116855260a01c602085015201546001600160801b038116604084015260801c910152565b6001600160801b0390818111611a79571690565b606460405162461bcd60e51b815260206004820152601060248201527f75696e74313238206f766572666c6f77000000000000000000000000000000006044820152fd5b670de0b6b3a7640000808210611ad1575090565b90509056fea264697066735822122028577f906fdbbfcadcb6f435379ee7e55a34baf8635ca19fb0327fa52b4ed17664736f6c63430008110033",
  "devdoc": {
    "kind": "dev",
    "methods": {
      "emergencyTokenWithdraw(address)": {
        "details": "only to be called by owner"
      },
      "onReward(address,uint256)": {
        "details": "Assume `_getTotalShare` isn't updated yet when this function is called",
        "params": {
          "_lpAmount": "The new amount of LP",
          "_user": "Address of user"
        }
      },
      "owner()": {
        "details": "Returns the address of the current owner."
      },
      "renounceOwnership()": {
        "details": "Leaves the contract without owner. It will not be possible to call `onlyOwner` functions anymore. Can only be called by the current owner. NOTE: Renouncing ownership will leave the contract without an owner, thereby removing any functionality that is only available to the owner."
      },
      "setRewardRate(uint256,uint96)": {
        "params": {
          "_tokenPerSec": "The number of tokens to distribute per second"
        }
      },
      "transferOwnership(address)": {
        "details": "Transfers ownership of the contract to a new account (`newOwner`). Can only be called by the current owner."
      }
    },
    "version": 1
  },
  "userdoc": {
    "kind": "user",
    "methods": {
      "balances()": {
        "notice": "View function to see balances of reward token."
      },
      "emergencyTokenWithdraw(address)": {
        "notice": "avoids loosing funds in case there is any tokens sent to this contract"
      },
      "emergencyWithdraw()": {
        "notice": "In case rewarder is stopped before emissions finished, this function allows withdrawal of remaining tokens."
      },
      "onReward(address,uint256)": {
        "notice": "Function called by Master whenever staker claims WOM harvest.Allows staker to also receive a 2nd reward token."
      },
      "operator()": {
        "notice": "address of the operator"
      },
      "rewardInfo(uint256)": {
        "notice": "Info of the rewardInfo."
      },
      "setOperator(address)": {
        "notice": "Set operator address"
      },
      "setRewardRate(uint256,uint96)": {
        "notice": "Sets the distribution reward rate. This will also update the rewardInfo."
      },
      "userInfo(uint256,address)": {
        "notice": "tokenId => userId => UserInfo"
      }
    },
    "notice": "Simple bribe per sec. Distribute bribe rewards to voters Bribe.onVote->updateReward() is a bit different from SimpleRewarder. Here we reduce the original total amount of share",
    "version": 1
  },
  "storageLayout": {
    "storage": [
      {
        "astId": 660,
        "contract": "contracts/wombat-governance/gauge/Bribe.sol:Bribe",
        "label": "_owner",
        "offset": 0,
        "slot": "0",
        "type": "t_address"
      },
      {
        "astId": 767,
        "contract": "contracts/wombat-governance/gauge/Bribe.sol:Bribe",
        "label": "_status",
        "offset": 0,
        "slot": "1",
        "type": "t_uint256"
      },
      {
        "astId": 33372,
        "contract": "contracts/wombat-governance/gauge/Bribe.sol:Bribe",
        "label": "operator",
        "offset": 0,
        "slot": "2",
        "type": "t_address"
      },
      {
        "astId": 33374,
        "contract": "contracts/wombat-governance/gauge/Bribe.sol:Bribe",
        "label": "lastRewardTimestamp",
        "offset": 0,
        "slot": "3",
        "type": "t_uint256"
      },
      {
        "astId": 33379,
        "contract": "contracts/wombat-governance/gauge/Bribe.sol:Bribe",
        "label": "rewardInfo",
        "offset": 0,
        "slot": "4",
        "type": "t_array(t_struct(RewardInfo)33369_storage)dyn_storage"
      },
      {
        "astId": 33387,
        "contract": "contracts/wombat-governance/gauge/Bribe.sol:Bribe",
        "label": "userInfo",
        "offset": 0,
        "slot": "5",
        "type": "t_mapping(t_uint256,t_mapping(t_address,t_struct(UserInfo)33359_storage))"
      }
    ],
    "types": {
      "t_address": {
        "encoding": "inplace",
        "label": "address",
        "numberOfBytes": "20"
      },
      "t_array(t_struct(RewardInfo)33369_storage)dyn_storage": {
        "base": "t_struct(RewardInfo)33369_storage",
        "encoding": "dynamic_array",
        "label": "struct MultiRewarderPerSec.RewardInfo[]",
        "numberOfBytes": "32"
      },
      "t_contract(IERC20)1420": {
        "encoding": "inplace",
        "label": "contract IERC20",
        "numberOfBytes": "20"
      },
      "t_mapping(t_address,t_struct(UserInfo)33359_storage)": {
        "encoding": "mapping",
        "key": "t_address",
        "label": "mapping(address => struct MultiRewarderPerSec.UserInfo)",
        "numberOfBytes": "32",
        "value": "t_struct(UserInfo)33359_storage"
      },
      "t_mapping(t_uint256,t_mapping(t_address,t_struct(UserInfo)33359_storage))": {
        "encoding": "mapping",
        "key": "t_uint256",
        "label": "mapping(uint256 => mapping(address => struct MultiRewarderPerSec.UserInfo))",
        "numberOfBytes": "32",
        "value": "t_mapping(t_address,t_struct(UserInfo)33359_storage)"
      },
      "t_struct(RewardInfo)33369_storage": {
        "encoding": "inplace",
        "label": "struct MultiRewarderPerSec.RewardInfo",
        "members": [
          {
            "astId": 33362,
            "contract": "contracts/wombat-governance/gauge/Bribe.sol:Bribe",
            "label": "rewardToken",
            "offset": 0,
            "slot": "0",
            "type": "t_contract(IERC20)1420"
          },
          {
            "astId": 33364,
            "contract": "contracts/wombat-governance/gauge/Bribe.sol:Bribe",
            "label": "tokenPerSec",
            "offset": 20,
            "slot": "0",
            "type": "t_uint96"
          },
          {
            "astId": 33366,
            "contract": "contracts/wombat-governance/gauge/Bribe.sol:Bribe",
            "label": "accTokenPerShare",
            "offset": 0,
            "slot": "1",
            "type": "t_uint128"
          },
          {
            "astId": 33368,
            "contract": "contracts/wombat-governance/gauge/Bribe.sol:Bribe",
            "label": "distributedAmount",
            "offset": 16,
            "slot": "1",
            "type": "t_uint128"
          }
        ],
        "numberOfBytes": "64"
      },
      "t_struct(UserInfo)33359_storage": {
        "encoding": "inplace",
        "label": "struct MultiRewarderPerSec.UserInfo",
        "members": [
          {
            "astId": 33354,
            "contract": "contracts/wombat-governance/gauge/Bribe.sol:Bribe",
            "label": "amount",
            "offset": 0,
            "slot": "0",
            "type": "t_uint128"
          },
          {
            "astId": 33356,
            "contract": "contracts/wombat-governance/gauge/Bribe.sol:Bribe",
            "label": "rewardDebt",
            "offset": 16,
            "slot": "0",
            "type": "t_uint128"
          },
          {
            "astId": 33358,
            "contract": "contracts/wombat-governance/gauge/Bribe.sol:Bribe",
            "label": "unpaidRewards",
            "offset": 0,
            "slot": "1",
            "type": "t_uint256"
          }
        ],
        "numberOfBytes": "64"
      },
      "t_uint128": {
        "encoding": "inplace",
        "label": "uint128",
        "numberOfBytes": "16"
      },
      "t_uint256": {
        "encoding": "inplace",
        "label": "uint256",
        "numberOfBytes": "32"
      },
      "t_uint96": {
        "encoding": "inplace",
        "label": "uint96",
        "numberOfBytes": "12"
      }
    }
  }
}