{
  "address": "0xF84c5999cD8667Fa54006Aca7FEF6c31F75cc9dE",
  "abi": [
    {
      "inputs": [],
      "name": "CORE_UNDERFLOW",
      "type": "error"
    },
    {
      "inputs": [],
      "name": "WOMBAT_AMOUNT_TOO_LOW",
      "type": "error"
    },
    {
      "inputs": [],
      "name": "WOMBAT_ASSET_ALREADY_EXIST",
      "type": "error"
    },
    {
      "inputs": [],
      "name": "WOMBAT_ASSET_ALREADY_PAUSED",
      "type": "error"
    },
    {
      "inputs": [],
      "name": "WOMBAT_ASSET_NOT_EXISTS",
      "type": "error"
    },
    {
      "inputs": [],
      "name": "WOMBAT_ASSET_NOT_PAUSED",
      "type": "error"
    },
    {
      "inputs": [],
      "name": "WOMBAT_CASH_NOT_ENOUGH",
      "type": "error"
    },
    {
      "inputs": [],
      "name": "WOMBAT_COV_RATIO_LIMIT_EXCEEDED",
      "type": "error"
    },
    {
      "inputs": [],
      "name": "WOMBAT_EXPIRED",
      "type": "error"
    },
    {
      "inputs": [],
      "name": "WOMBAT_FORBIDDEN",
      "type": "error"
    },
    {
      "inputs": [],
      "name": "WOMBAT_INVALID_VALUE",
      "type": "error"
    },
    {
      "inputs": [],
      "name": "WOMBAT_SAME_ADDRESS",
      "type": "error"
    },
    {
      "inputs": [],
      "name": "WOMBAT_ZERO_ADDRESS",
      "type": "error"
    },
    {
      "inputs": [],
      "name": "WOMBAT_ZERO_AMOUNT",
      "type": "error"
    },
    {
      "inputs": [],
      "name": "WOMBAT_ZERO_LIQUIDITY",
      "type": "error"
    },
    {
      "anonymous": false,
      "inputs": [
        {
          "indexed": true,
          "internalType": "address",
          "name": "token",
          "type": "address"
        },
        {
          "indexed": true,
          "internalType": "address",
          "name": "asset",
          "type": "address"
        }
      ],
      "name": "AssetAdded",
      "type": "event"
    },
    {
      "anonymous": false,
      "inputs": [
        {
          "indexed": true,
          "internalType": "address",
          "name": "token",
          "type": "address"
        },
        {
          "indexed": true,
          "internalType": "address",
          "name": "asset",
          "type": "address"
        }
      ],
      "name": "AssetRemoved",
      "type": "event"
    },
    {
      "anonymous": false,
      "inputs": [
        {
          "indexed": true,
          "internalType": "address",
          "name": "sender",
          "type": "address"
        },
        {
          "indexed": false,
          "internalType": "address",
          "name": "token",
          "type": "address"
        },
        {
          "indexed": false,
          "internalType": "uint256",
          "name": "amount",
          "type": "uint256"
        },
        {
          "indexed": false,
          "internalType": "uint256",
          "name": "liquidity",
          "type": "uint256"
        },
        {
          "indexed": true,
          "internalType": "address",
          "name": "to",
          "type": "address"
        }
      ],
      "name": "Deposit",
      "type": "event"
    },
    {
      "anonymous": false,
      "inputs": [
        {
          "indexed": false,
          "internalType": "address",
          "name": "token",
          "type": "address"
        },
        {
          "indexed": false,
          "internalType": "uint256",
          "name": "amount",
          "type": "uint256"
        }
      ],
      "name": "FillPool",
      "type": "event"
    },
    {
      "anonymous": false,
      "inputs": [
        {
          "indexed": false,
          "internalType": "uint8",
          "name": "version",
          "type": "uint8"
        }
      ],
      "name": "Initialized",
      "type": "event"
    },
    {
      "anonymous": false,
      "inputs": [
        {
          "indexed": true,
          "internalType": "address",
          "name": "previousOwner",
          "type": "address"
        },
        {
          "indexed": true,
          "internalType": "address",
          "name": "newOwner",
          "type": "address"
        }
      ],
      "name": "OwnershipTransferred",
      "type": "event"
    },
    {
      "anonymous": false,
      "inputs": [
        {
          "indexed": false,
          "internalType": "address",
          "name": "account",
          "type": "address"
        }
      ],
      "name": "Paused",
      "type": "event"
    },
    {
      "anonymous": false,
      "inputs": [
        {
          "indexed": false,
          "internalType": "address",
          "name": "asset",
          "type": "address"
        },
        {
          "indexed": false,
          "internalType": "address",
          "name": "account",
          "type": "address"
        }
      ],
      "name": "PausedAsset",
      "type": "event"
    },
    {
      "anonymous": false,
      "inputs": [
        {
          "indexed": false,
          "internalType": "uint256",
          "name": "value",
          "type": "uint256"
        }
      ],
      "name": "SetAmpFactor",
      "type": "event"
    },
    {
      "anonymous": false,
      "inputs": [
        {
          "indexed": false,
          "internalType": "address",
          "name": "addr",
          "type": "address"
        }
      ],
      "name": "SetDev",
      "type": "event"
    },
    {
      "anonymous": false,
      "inputs": [
        {
          "indexed": false,
          "internalType": "uint256",
          "name": "lpDividendRatio",
          "type": "uint256"
        },
        {
          "indexed": false,
          "internalType": "uint256",
          "name": "retentionRatio",
          "type": "uint256"
        }
      ],
      "name": "SetFee",
      "type": "event"
    },
    {
      "anonymous": false,
      "inputs": [
        {
          "indexed": false,
          "internalType": "address",
          "name": "addr",
          "type": "address"
        }
      ],
      "name": "SetFeeTo",
      "type": "event"
    },
    {
      "anonymous": false,
      "inputs": [
        {
          "indexed": false,
          "internalType": "uint256",
          "name": "value",
          "type": "uint256"
        }
      ],
      "name": "SetHaircutRate",
      "type": "event"
    },
    {
      "anonymous": false,
      "inputs": [
        {
          "indexed": false,
          "internalType": "address",
          "name": "addr",
          "type": "address"
        }
      ],
      "name": "SetMasterWombat",
      "type": "event"
    },
    {
      "anonymous": false,
      "inputs": [
        {
          "indexed": false,
          "internalType": "uint256",
          "name": "value",
          "type": "uint256"
        }
      ],
      "name": "SetMintFeeThreshold",
      "type": "event"
    },
    {
      "anonymous": false,
      "inputs": [
        {
          "indexed": true,
          "internalType": "address",
          "name": "sender",
          "type": "address"
        },
        {
          "indexed": false,
          "internalType": "address",
          "name": "fromToken",
          "type": "address"
        },
        {
          "indexed": false,
          "internalType": "address",
          "name": "toToken",
          "type": "address"
        },
        {
          "indexed": false,
          "internalType": "uint256",
          "name": "fromAmount",
          "type": "uint256"
        },
        {
          "indexed": false,
          "internalType": "uint256",
          "name": "toAmount",
          "type": "uint256"
        },
        {
          "indexed": true,
          "internalType": "address",
          "name": "to",
          "type": "address"
        }
      ],
      "name": "Swap",
      "type": "event"
    },
    {
      "anonymous": false,
      "inputs": [
        {
          "indexed": false,
          "internalType": "address",
          "name": "token",
          "type": "address"
        },
        {
          "indexed": false,
          "internalType": "uint256",
          "name": "amount",
          "type": "uint256"
        },
        {
          "indexed": false,
          "internalType": "address",
          "name": "to",
          "type": "address"
        }
      ],
      "name": "TransferTipBucket",
      "type": "event"
    },
    {
      "anonymous": false,
      "inputs": [
        {
          "indexed": false,
          "internalType": "address",
          "name": "account",
          "type": "address"
        }
      ],
      "name": "Unpaused",
      "type": "event"
    },
    {
      "anonymous": false,
      "inputs": [
        {
          "indexed": false,
          "internalType": "address",
          "name": "asset",
          "type": "address"
        },
        {
          "indexed": false,
          "internalType": "address",
          "name": "account",
          "type": "address"
        }
      ],
      "name": "UnpausedAsset",
      "type": "event"
    },
    {
      "anonymous": false,
      "inputs": [
        {
          "indexed": true,
          "internalType": "address",
          "name": "sender",
          "type": "address"
        },
        {
          "indexed": false,
          "internalType": "address",
          "name": "token",
          "type": "address"
        },
        {
          "indexed": false,
          "internalType": "uint256",
          "name": "amount",
          "type": "uint256"
        },
        {
          "indexed": false,
          "internalType": "uint256",
          "name": "liquidity",
          "type": "uint256"
        },
        {
          "indexed": true,
          "internalType": "address",
          "name": "to",
          "type": "address"
        }
      ],
      "name": "Withdraw",
      "type": "event"
    },
    {
      "inputs": [
        {
          "internalType": "address",
          "name": "token",
          "type": "address"
        },
        {
          "internalType": "address",
          "name": "asset",
          "type": "address"
        }
      ],
      "name": "addAsset",
      "outputs": [],
      "stateMutability": "nonpayable",
      "type": "function"
    },
    {
      "inputs": [
        {
          "internalType": "address",
          "name": "token",
          "type": "address"
        }
      ],
      "name": "addressOfAsset",
      "outputs": [
        {
          "internalType": "address",
          "name": "",
          "type": "address"
        }
      ],
      "stateMutability": "view",
      "type": "function"
    },
    {
      "inputs": [],
      "name": "ampFactor",
      "outputs": [
        {
          "internalType": "uint256",
          "name": "",
          "type": "uint256"
        }
      ],
      "stateMutability": "view",
      "type": "function"
    },
    {
      "inputs": [
        {
          "internalType": "address",
          "name": "token",
          "type": "address"
        },
        {
          "internalType": "uint256",
          "name": "amount",
          "type": "uint256"
        },
        {
          "internalType": "uint256",
          "name": "minimumLiquidity",
          "type": "uint256"
        },
        {
          "internalType": "address",
          "name": "to",
          "type": "address"
        },
        {
          "internalType": "uint256",
          "name": "deadline",
          "type": "uint256"
        },
        {
          "internalType": "bool",
          "name": "shouldStake",
          "type": "bool"
        }
      ],
      "name": "deposit",
      "outputs": [
        {
          "internalType": "uint256",
          "name": "liquidity",
          "type": "uint256"
        }
      ],
      "stateMutability": "nonpayable",
      "type": "function"
    },
    {
      "inputs": [],
      "name": "dev",
      "outputs": [
        {
          "internalType": "address",
          "name": "",
          "type": "address"
        }
      ],
      "stateMutability": "view",
      "type": "function"
    },
    {
      "inputs": [],
      "name": "endCovRatio",
      "outputs": [
        {
          "internalType": "uint128",
          "name": "",
          "type": "uint128"
        }
      ],
      "stateMutability": "view",
      "type": "function"
    },
    {
      "inputs": [
        {
          "internalType": "address",
          "name": "token",
          "type": "address"
        }
      ],
      "name": "exchangeRate",
      "outputs": [
        {
          "internalType": "uint256",
          "name": "xr",
          "type": "uint256"
        }
      ],
      "stateMutability": "view",
      "type": "function"
    },
    {
      "inputs": [],
      "name": "feeTo",
      "outputs": [
        {
          "internalType": "address",
          "name": "",
          "type": "address"
        }
      ],
      "stateMutability": "view",
      "type": "function"
    },
    {
      "inputs": [
        {
          "internalType": "address",
          "name": "token",
          "type": "address"
        },
        {
          "internalType": "uint256",
          "name": "amount",
          "type": "uint256"
        }
      ],
      "name": "fillPool",
      "outputs": [],
      "stateMutability": "nonpayable",
      "type": "function"
    },
    {
      "inputs": [],
      "name": "getTokens",
      "outputs": [
        {
          "internalType": "address[]",
          "name": "",
          "type": "address[]"
        }
      ],
      "stateMutability": "view",
      "type": "function"
    },
    {
      "inputs": [],
      "name": "globalEquilCovRatio",
      "outputs": [
        {
          "internalType": "uint256",
          "name": "equilCovRatio",
          "type": "uint256"
        },
        {
          "internalType": "uint256",
          "name": "invariantInUint",
          "type": "uint256"
        }
      ],
      "stateMutability": "view",
      "type": "function"
    },
    {
      "inputs": [],
      "name": "haircutRate",
      "outputs": [
        {
          "internalType": "uint256",
          "name": "",
          "type": "uint256"
        }
      ],
      "stateMutability": "view",
      "type": "function"
    },
    {
      "inputs": [
        {
          "internalType": "uint256",
          "name": "ampFactor_",
          "type": "uint256"
        },
        {
          "internalType": "uint256",
          "name": "haircutRate_",
          "type": "uint256"
        }
      ],
      "name": "initialize",
      "outputs": [],
      "stateMutability": "nonpayable",
      "type": "function"
    },
    {
      "inputs": [],
      "name": "lpDividendRatio",
      "outputs": [
        {
          "internalType": "uint256",
          "name": "",
          "type": "uint256"
        }
      ],
      "stateMutability": "view",
      "type": "function"
    },
    {
      "inputs": [],
      "name": "masterWombat",
      "outputs": [
        {
          "internalType": "address",
          "name": "",
          "type": "address"
        }
      ],
      "stateMutability": "view",
      "type": "function"
    },
    {
      "inputs": [
        {
          "internalType": "address",
          "name": "token",
          "type": "address"
        }
      ],
      "name": "mintFee",
      "outputs": [
        {
          "internalType": "uint256",
          "name": "feeCollected",
          "type": "uint256"
        }
      ],
      "stateMutability": "nonpayable",
      "type": "function"
    },
    {
      "inputs": [],
      "name": "mintFeeThreshold",
      "outputs": [
        {
          "internalType": "uint256",
          "name": "",
          "type": "uint256"
        }
      ],
      "stateMutability": "view",
      "type": "function"
    },
    {
      "inputs": [],
      "name": "owner",
      "outputs": [
        {
          "internalType": "address",
          "name": "",
          "type": "address"
        }
      ],
      "stateMutability": "view",
      "type": "function"
    },
    {
      "inputs": [],
      "name": "pause",
      "outputs": [],
      "stateMutability": "nonpayable",
      "type": "function"
    },
    {
      "inputs": [
        {
          "internalType": "address",
          "name": "token",
          "type": "address"
        }
      ],
      "name": "pauseAsset",
      "outputs": [],
      "stateMutability": "nonpayable",
      "type": "function"
    },
    {
      "inputs": [],
      "name": "paused",
      "outputs": [
        {
          "internalType": "bool",
          "name": "",
          "type": "bool"
        }
      ],
      "stateMutability": "view",
      "type": "function"
    },
    {
      "inputs": [
        {
          "internalType": "address",
          "name": "fromToken",
          "type": "address"
        },
        {
          "internalType": "address",
          "name": "toToken",
          "type": "address"
        },
        {
          "internalType": "int256",
          "name": "toAmount",
          "type": "int256"
        }
      ],
      "name": "quoteAmountIn",
      "outputs": [
        {
          "internalType": "uint256",
          "name": "amountIn",
          "type": "uint256"
        },
        {
          "internalType": "uint256",
          "name": "haircut",
          "type": "uint256"
        }
      ],
      "stateMutability": "view",
      "type": "function"
    },
    {
      "inputs": [
        {
          "internalType": "address",
          "name": "token",
          "type": "address"
        },
        {
          "internalType": "uint256",
          "name": "amount",
          "type": "uint256"
        }
      ],
      "name": "quotePotentialDeposit",
      "outputs": [
        {
          "internalType": "uint256",
          "name": "liquidity",
          "type": "uint256"
        },
        {
          "internalType": "uint256",
          "name": "reward",
          "type": "uint256"
        }
      ],
      "stateMutability": "view",
      "type": "function"
    },
    {
      "inputs": [
        {
          "internalType": "address",
          "name": "fromToken",
          "type": "address"
        },
        {
          "internalType": "address",
          "name": "toToken",
          "type": "address"
        },
        {
          "internalType": "int256",
          "name": "fromAmount",
          "type": "int256"
        }
      ],
      "name": "quotePotentialSwap",
      "outputs": [
        {
          "internalType": "uint256",
          "name": "potentialOutcome",
          "type": "uint256"
        },
        {
          "internalType": "uint256",
          "name": "haircut",
          "type": "uint256"
        }
      ],
      "stateMutability": "view",
      "type": "function"
    },
    {
      "inputs": [
        {
          "internalType": "address",
          "name": "token",
          "type": "address"
        },
        {
          "internalType": "uint256",
          "name": "liquidity",
          "type": "uint256"
        }
      ],
      "name": "quotePotentialWithdraw",
      "outputs": [
        {
          "internalType": "uint256",
          "name": "amount",
          "type": "uint256"
        },
        {
          "internalType": "uint256",
          "name": "fee",
          "type": "uint256"
        }
      ],
      "stateMutability": "view",
      "type": "function"
    },
    {
      "inputs": [
        {
          "internalType": "address",
          "name": "fromToken",
          "type": "address"
        },
        {
          "internalType": "address",
          "name": "toToken",
          "type": "address"
        },
        {
          "internalType": "uint256",
          "name": "liquidity",
          "type": "uint256"
        }
      ],
      "name": "quotePotentialWithdrawFromOtherAsset",
      "outputs": [
        {
          "internalType": "uint256",
          "name": "amount",
          "type": "uint256"
        },
        {
          "internalType": "uint256",
          "name": "withdrewAmount",
          "type": "uint256"
        }
      ],
      "stateMutability": "view",
      "type": "function"
    },
    {
      "inputs": [
        {
          "internalType": "address",
          "name": "token",
          "type": "address"
        }
      ],
      "name": "removeAsset",
      "outputs": [],
      "stateMutability": "nonpayable",
      "type": "function"
    },
    {
      "inputs": [],
      "name": "renounceOwnership",
      "outputs": [],
      "stateMutability": "nonpayable",
      "type": "function"
    },
    {
      "inputs": [],
      "name": "retentionRatio",
      "outputs": [
        {
          "internalType": "uint256",
          "name": "",
          "type": "uint256"
        }
      ],
      "stateMutability": "view",
      "type": "function"
    },
    {
      "inputs": [
        {
          "internalType": "uint256",
          "name": "ampFactor_",
          "type": "uint256"
        }
      ],
      "name": "setAmpFactor",
      "outputs": [],
      "stateMutability": "nonpayable",
      "type": "function"
    },
    {
      "inputs": [
        {
          "internalType": "uint128",
          "name": "startCovRatio_",
          "type": "uint128"
        },
        {
          "internalType": "uint128",
          "name": "endCovRatio_",
          "type": "uint128"
        }
      ],
      "name": "setCovRatioFeeParam",
      "outputs": [],
      "stateMutability": "nonpayable",
      "type": "function"
    },
    {
      "inputs": [
        {
          "internalType": "address",
          "name": "dev_",
          "type": "address"
        }
      ],
      "name": "setDev",
      "outputs": [],
      "stateMutability": "nonpayable",
      "type": "function"
    },
    {
      "inputs": [
        {
          "internalType": "uint256",
          "name": "lpDividendRatio_",
          "type": "uint256"
        },
        {
          "internalType": "uint256",
          "name": "retentionRatio_",
          "type": "uint256"
        }
      ],
      "name": "setFee",
      "outputs": [],
      "stateMutability": "nonpayable",
      "type": "function"
    },
    {
      "inputs": [
        {
          "internalType": "address",
          "name": "feeTo_",
          "type": "address"
        }
      ],
      "name": "setFeeTo",
      "outputs": [],
      "stateMutability": "nonpayable",
      "type": "function"
    },
    {
      "inputs": [
        {
          "internalType": "uint256",
          "name": "haircutRate_",
          "type": "uint256"
        }
      ],
      "name": "setHaircutRate",
      "outputs": [],
      "stateMutability": "nonpayable",
      "type": "function"
    },
    {
      "inputs": [
        {
          "internalType": "address",
          "name": "masterWombat_",
          "type": "address"
        }
      ],
      "name": "setMasterWombat",
      "outputs": [],
      "stateMutability": "nonpayable",
      "type": "function"
    },
    {
      "inputs": [
        {
          "internalType": "uint256",
          "name": "mintFeeThreshold_",
          "type": "uint256"
        }
      ],
      "name": "setMintFeeThreshold",
      "outputs": [],
      "stateMutability": "nonpayable",
      "type": "function"
    },
    {
      "inputs": [],
      "name": "startCovRatio",
      "outputs": [
        {
          "internalType": "uint128",
          "name": "",
          "type": "uint128"
        }
      ],
      "stateMutability": "view",
      "type": "function"
    },
    {
      "inputs": [
        {
          "internalType": "address",
          "name": "fromToken",
          "type": "address"
        },
        {
          "internalType": "address",
          "name": "toToken",
          "type": "address"
        },
        {
          "internalType": "uint256",
          "name": "fromAmount",
          "type": "uint256"
        },
        {
          "internalType": "uint256",
          "name": "minimumToAmount",
          "type": "uint256"
        },
        {
          "internalType": "address",
          "name": "to",
          "type": "address"
        },
        {
          "internalType": "uint256",
          "name": "deadline",
          "type": "uint256"
        }
      ],
      "name": "swap",
      "outputs": [
        {
          "internalType": "uint256",
          "name": "actualToAmount",
          "type": "uint256"
        },
        {
          "internalType": "uint256",
          "name": "haircut",
          "type": "uint256"
        }
      ],
      "stateMutability": "nonpayable",
      "type": "function"
    },
    {
      "inputs": [
        {
          "internalType": "address",
          "name": "token",
          "type": "address"
        }
      ],
      "name": "tipBucketBalance",
      "outputs": [
        {
          "internalType": "uint256",
          "name": "balance",
          "type": "uint256"
        }
      ],
      "stateMutability": "view",
      "type": "function"
    },
    {
      "inputs": [
        {
          "internalType": "address",
          "name": "newOwner",
          "type": "address"
        }
      ],
      "name": "transferOwnership",
      "outputs": [],
      "stateMutability": "nonpayable",
      "type": "function"
    },
    {
      "inputs": [
        {
          "internalType": "address",
          "name": "token",
          "type": "address"
        },
        {
          "internalType": "uint256",
          "name": "amount",
          "type": "uint256"
        },
        {
          "internalType": "address",
          "name": "to",
          "type": "address"
        }
      ],
      "name": "transferTipBucket",
      "outputs": [],
      "stateMutability": "nonpayable",
      "type": "function"
    },
    {
      "inputs": [],
      "name": "unpause",
      "outputs": [],
      "stateMutability": "nonpayable",
      "type": "function"
    },
    {
      "inputs": [
        {
          "internalType": "address",
          "name": "token",
          "type": "address"
        }
      ],
      "name": "unpauseAsset",
      "outputs": [],
      "stateMutability": "nonpayable",
      "type": "function"
    },
    {
      "inputs": [
        {
          "internalType": "address",
          "name": "token",
          "type": "address"
        },
        {
          "internalType": "uint256",
          "name": "liquidity",
          "type": "uint256"
        },
        {
          "internalType": "uint256",
          "name": "minimumAmount",
          "type": "uint256"
        },
        {
          "internalType": "address",
          "name": "to",
          "type": "address"
        },
        {
          "internalType": "uint256",
          "name": "deadline",
          "type": "uint256"
        }
      ],
      "name": "withdraw",
      "outputs": [
        {
          "internalType": "uint256",
          "name": "amount",
          "type": "uint256"
        }
      ],
      "stateMutability": "nonpayable",
      "type": "function"
    },
    {
      "inputs": [
        {
          "internalType": "address",
          "name": "fromToken",
          "type": "address"
        },
        {
          "internalType": "address",
          "name": "toToken",
          "type": "address"
        },
        {
          "internalType": "uint256",
          "name": "liquidity",
          "type": "uint256"
        },
        {
          "internalType": "uint256",
          "name": "minimumAmount",
          "type": "uint256"
        },
        {
          "internalType": "address",
          "name": "to",
          "type": "address"
        },
        {
          "internalType": "uint256",
          "name": "deadline",
          "type": "uint256"
        }
      ],
      "name": "withdrawFromOtherAsset",
      "outputs": [
        {
          "internalType": "uint256",
          "name": "toAmount",
          "type": "uint256"
        }
      ],
      "stateMutability": "nonpayable",
      "type": "function"
    }
  ],
  "transactionHash": "0xd40d7b84c02d19cc488eaf6842d8fc4f97b7d4452cfddbc816564a54b958aea3",
  "args": [],
  "numDeployments": 1,
  "solcInputHash": "80c86dbc3c9fdcc6cd72d31768362d04",
  "bytecode": "0x6080806040523461001657614c1c908161001c8239f35b600080fdfe608080604052600436101561001357600080fd5b600090813560e01c908163017b8292146128bc57508063017e7e58146128955780630705999d14612822578063070f81d91461262f57806309a5fca3146122235780630f91f06f14611e205780633753b14a14611d985780633bd61ba814611d715780633f4ba83a14611cd45780634a5e42b114611b725780634a6fee0e14611ade5780634fdd64e514611aca57806352f7c98814611a0e5780635c975abb146119eb5780635cfe092e146119cd57806361858e23146119335780636281baef146115cf5780636922d5ca146115b1578063715018a61461155557806374cbbdb914611533578063815bfd29146115155780638456cb59146114ba5780638a2dfe09146112e25780638da5cb5b146112bb578063907448ed1461122e57806391cca3db1461120757806393aeea02146110b45780639908fc8b14610e635780639abacb4114610d9d5780639e4416b714610d3f578063a4275ceb14610960578063aa6ca8081461089a578063d043c5651461084c578063d0dd0e561461082e578063d30ffeda1461080a578063d477f05f14610797578063da48999714610653578063dc3b7c8b1461062f578063e4a301161461047c578063e9249cc71461044c578063f2fde38b146103a5578063f46901ed14610332578063f57e84d5146102aa578063f8b49e7214610276578063fb7f5cc21461024e5763fca8f3081461021b57600080fd5b3461024b57604061023f61023961023136612963565b9290926136f8565b91614583565b82519182526020820152f35b80fd5b503461024b578060031936011261024b5760206001600160801b036101085416604051908152f35b503461024b57602036600319011261024b5760206102a261029d6102986128d8565b612f35565b614a13565b604051908152f35b503461024b57602036600319011261024b576004356102c76129ae565b670de0b6b3a76400008111610308576020817fc6e60196bbe5909add58d5ae8a27082013670bce0855321773c33085af5c32439260cb55604051908152a180f35b60046040517f12b019e1000000000000000000000000000000000000000000000000000000008152fd5b503461024b57602036600319011261024b577ff6b59ffc88fbb27f33470b919e00b41139ee340eb349521f0cbbc1504ce29c3e60206001600160a01b036103776128d8565b61037f6129ae565b61038881612dd4565b16806001600160a01b031960d054161760d055604051908152a180f35b503461024b57602036600319011261024b576103bf6128d8565b6103c76129ae565b6001600160a01b038116156103e2576103df90612a06565b80f35b608460405162461bcd60e51b815260206004820152602660248201527f4f776e61626c653a206e6577206f776e657220697320746865207a65726f206160448201527f64647265737300000000000000000000000000000000000000000000000000006064820152fd5b503461024b57602036600319011261024b5760206001600160a01b036104736102986128d8565b16604051908152f35b503461024b5761048b36612998565b9082549160ff8360081c161591828093610622575b801561060b575b156105a15760ff1984811660011786559383610590575b506104d860ff865460081c166104d381612d16565b612d16565b6104e133612a06565b84549361050160ff8660081c166104f781612d16565b6001606555612d16565b6097541660975560ca5560cb55670de0b6b3a764000060cd55336001600160a01b031960cf54161760cf55610558575b506101087718fae27693b40000000000000000000014d1120d7b1600008282541617905580f35b61ff00191681557f7f26b83ff96e1f2b6a682f133852f6798a09c465da95921460cefb3847402498602060405160018152a138610531565b61ffff1916610101178555386104be565b608460405162461bcd60e51b815260206004820152602e60248201527f496e697469616c697a61626c653a20636f6e747261637420697320616c72656160448201527f647920696e697469616c697a65640000000000000000000000000000000000006064820152fd5b50303b1580156104a75750600160ff8516146104a7565b50600160ff8516106104a0565b503461024b57602036600319011261024b5760206102a261064e6128d8565b614744565b503461024b57604036600319011261024b5761066d6128d8565b610675612904565b61067d6129ae565b61068681612dd4565b61068f82612dd4565b6106b2826001600160a01b0380911660005260d460205260406000205416151590565b61076d576001600160a01b03809116911680835260d460205260408320826001600160a01b031982541617905560d35460d5602052806040852055680100000000000000008110156107595761073061071282600185940160d355612d87565b819391549060031b916001600160a01b03809116831b921b19161790565b90557f0bb5715f0f217c2fe9a0c877ea87d474380c641102f3440ee2a4c8b9d97909188380a380f35b602484634e487b7160e01b81526041600452fd5b60046040517f8991c4c4000000000000000000000000000000000000000000000000000000008152fd5b503461024b57602036600319011261024b577f8daa6bb00de042a7d51816fcee4a3d5c1e91a2128fd64fa1a9a38afa0d26beb560206001600160a01b036107dc6128d8565b6107e46129ae565b6107ed81612dd4565b16806001600160a01b031960cf54161760cf55604051908152a180f35b503461024b57602036600319011261024b5760206102a26108296128d8565b614889565b503461024b578060031936011261024b57602060cb54604051908152f35b503461024b57602036600319011261024b577f935ce123b6388f8dbf76890f8240a48198f1e0a884f26939aa604a46bb65b706602060043561088c6129ae565b8060ce55604051908152a180f35b503461024b578060031936011261024b57604051809160d354908183526020809301809260d383527f915c3eb987b20e1af620c1403197bf687fb7f18513b3a73fde6e78c7072c41a690835b81811061094357505050846108fc910385612a78565b60405193838594850191818652518092526040850193925b82811061092357505050500390f35b83516001600160a01b031685528695509381019392810192600101610914565b82546001600160a01b0316845292860192600192830192016108e6565b503461024b57606036600319011261024b5761097a6128d8565b610982612904565b61098d604435612ca7565b6109978183612cd8565b6109a082612f35565b91836109ab83612f35565b6001600160a01b036109bf6044358761395a565b5050951660405163961be39160e01b8152602081600481855afa8015610c20576109ff886001600160781b036020936004958991610d28575b5016612ab9565b926040519283809263705727b560e01b82525afa8015610c2057610a37918591610c78575b506001600160781b036044359116612ab9565b906040519263961be39160e01b84526020846004816001600160a01b0385165afa938415610cf2578594610cfd575b5060206001600160a01b039160046040518094819363705727b560e01b8352165afa8015610cf25788610add95610ad795610ad795610ac5956001600160a01b039a95610cd1575b506001600160781b038060ca549616931690613c00565b610ad160cb5482612b35565b90612ab9565b93612f35565b92169260405163961be39160e01b8152602081600481885afa8015610c43576001600160781b038391610b17938991610cb2575016612ab9565b60405163705727b560e01b8152602081600481895afa8015610ca757610b50918891610c7857506001600160781b036044359116612ab9565b610b6381610b5e8585612adc565b612b5f565b916001600160801b0361010854168311610c4e575b505050604051926020846004816339420b4560e11b988982525afa918215610c4357610bb96020936004926001600160a01b03978a92610c2b575b50612bc8565b9560405195869384928352165afa918215610c205790610be2929160409592610bef5750612bc8565b9082519182526020820152f35b610c1291925060203d602011610c19575b610c0a8183612a78565b810190612ae9565b9038610bb3565b503d610c00565b6040513d86823e3d90fd5b610c12919250863d8811610c1957610c0a8183612a78565b6040513d88823e3d90fd5b93610c6a8193610c65610ad194610c6f9798612b5f565b612c13565b612b35565b90388080610b78565b610c9a915060203d602011610ca0575b610c928183612a78565b810190612a9a565b38610a24565b503d610c88565b6040513d89823e3d90fd5b610ccb915060203d602011610ca057610c928183612a78565b386109f8565b610ceb91955060203d602011610ca057610c928183612a78565b9338610aae565b6040513d87823e3d90fd5b6001600160a01b03919450610d20602091823d8411610ca057610c928183612a78565b949150610a66565b610ccb9150853d8711610ca057610c928183612a78565b503461024b57602036600319011261024b57600435610d5c6129ae565b670de0b6b3a76400008111610308576020817f294c562dcfcd9be941287844539aeba4ae641cd1fc9a2883337c6b2e87cbd98a9260ca55604051908152a180f35b503461024b57602036600319011261024b57610db76128d8565b610dbf612e5e565b6001600160a01b03811680835260c960205260ff60408420541615610e3957825260c960209081526040808420805460ff1916905580516001600160a01b03909316835233918301919091527fdb198487a4c70aa000c3b1020f52688b4b86d3ebcedc84a793e03ed3b480902c9190819081015b0390a180f35b60046040517f855b7373000000000000000000000000000000000000000000000000000000008152fd5b503461024b57610e723661291a565b610e80959391929495612f92565b610e88612e0e565b610e928685612cd8565b811561108a57610eaa90610ea584612dd4565b613259565b610eb383612e72565b610ebc83612f35565b91610ec686612f35565b91604051956339420b4560e11b8088526020886004816001600160a01b0389165afa97881561103957600098611069575b506040519081526020816004816001600160a01b038a165afa908115611039576001600160a01b03610f628a610f5c610f558b610f6d988c610f4f86610f498e9c8b9c60009161104a575b508d612efb565b93612efb565b92613d8c565b9d90612bc8565b9b612bc8565b981696163387612fe7565b6001600160a01b0383163b156110455760006040518094639e79eaa560e01b825281836001600160a01b0382610fbd8d8a60048401602090939291936001600160a01b0360408201951681520152565b0393165af18015611039576040976001600160a01b0394859261102a575b5088519586521660208501528684015284606084015216907f54787c404bb33c88e86f4baf88183a3b0141d0a848e6a9f7a13b66ae3a9b73d160803392a3600160655582519182526020820152f35b61103390612a4e565b89610fdb565b6040513d6000823e3d90fd5b600080fd5b611063915060203d602011610c1957610c0a8183612a78565b38610f42565b61108391985060203d602011610c1957610c0a8183612a78565b9689610ef7565b60046040517fb483c10f000000000000000000000000000000000000000000000000000000008152fd5b503461024b57606036600319011261024b576110ce6128d8565b602435906044356001600160a01b0380821691828103611045576110f06129ae565b6110f984612f35565b9061110385614889565b86116103085782879216906040516339420b4560e11b8152602081600481865afa8015610c205761113c9185916111e9575b5088612bc8565b823b156111e557604051639e79eaa560e01b81526001600160a01b0392909216600483015260248201529082908290604490829084905af180156111da576111bc575b50927f5f22a22ebe30686f71d42a70ccacf870a335e22ee2ac6d257af1b2551582eda692856060936040519316835260208301526040820152a180f35b6111c99094939294612a4e565b6111d6579091843861117f565b8480fd5b6040513d84823e3d90fd5b8380fd5b611201915060203d8111610c1957610c0a8183612a78565b38611135565b503461024b578060031936011261024b5760206001600160a01b0360cf5416604051908152f35b503461024b57604036600319011261024b5760206001600160a01b036112526128d8565b61126c6112656024359261029884612ca7565b918261395a565b94919290506004604051809581936339420b4560e11b8352165afa918215610c205790610be29291604095926112a25750612bc8565b610c1291925060203d8111610c1957610c0a8183612a78565b503461024b578060031936011261024b5760206001600160a01b0360335416604051908152f35b503461024b578060031936011261024b57808160ca54928060d3545b80831061133857604085610be28861133361132e8961132961131f8761369d565b6002830590613645565b6136dd565b6136f8565b613d4e565b90919361137861134786612d87565b91906001600160a01b03928391549060031b1c166001600160a01b0380911660005260d46020526040600020541690565b166040519063961be39160e01b82526020908183600481845afa928315610c43578693611496575b50816004916040519283809263705727b560e01b82525afa918215610c43578692611479575b50506001600160781b0380911691821561146c57166113e49061369d565b9481806002978882056113f691613645565b90611400916136dd565b91829161140c91613645565b966114168a61369d565b90820561142291613645565b9061142c916136dd565b61143591613684565b61143e916136ba565b61144790613621565b670de0b6b3a7640000900561145b91613645565b93611465906149c1565b91906112fe565b50505093611465906149c1565b61148f9250803d10610ca057610c928183612a78565b38806113c6565b60049193506114b28391823d8411610ca057610c928183612a78565b9391506113a0565b503461024b578060031936011261024b576114d3612e5e565b6114db612e0e565b600160ff1960975416176097557f62e78cea01bee320cd4e420270b5ea74000d11b0c9f74754ebdbfc544b05a2586020604051338152a180f35b503461024b578060031936011261024b57602060cd54604051908152f35b503461024b578060031936011261024b5760206101085460801c604051908152f35b503461024b578060031936011261024b5761156e6129ae565b60006001600160a01b036033546001600160a01b03198116603355167f8be0079c531659141344cd1fd0a4f28419497f9722a3daafe3b4186f6b6457e08280a380f35b503461024b578060031936011261024b57602060cc54604051908152f35b503461024b5760c036600319011261024b576115e96128d8565b602435604435916115f86128ee565b9260a4359081159182150361192f5761160f612f92565b611617612e0e565b831561108a5761162685612dd4565b611631608435613259565b61163a83612e72565b61164383612f35565b6001600160a01b03928382169061165e878333888a16612fe7565b1561172d576020600491604051928380926339420b4560e11b82525afa90811561172257926116c5926116bf89937ff5dd9317b9e63ac316ce44acc85f670b54b339cfa3e9076e1dd55065b922314b979660209c91611705575b5089612efb565b9061328b565b945b6116f58660405193849316963396846040919493926001600160a01b03606083019616825260208201520152565b0390a36001606555604051908152f35b61171c91508c3d8111610c1957610c0a8183612a78565b386116b8565b6040513d8a823e3d90fd5b906117408460d199949895995416612dd4565b604051966339420b4560e11b88526020978881600481875afa908115610cf25761177e939291611777918791611918575089612efb565b309261328b565b60d1546040517f095ea7b30000000000000000000000000000000000000000000000000000000081529089166001600160a01b0316600482015260248101829052909690818160448187875af18015610c20576118eb575b508760d1541691604051907faf929a8000000000000000000000000000000000000000000000000000000000825260048201528181602481865afa918215610c205784926118bd575b5050813b156118b95782916064839260405194859384927f90210d7e00000000000000000000000000000000000000000000000000000000845260048401528b60248401528c891660448401525af180156111da576118a5575b50506020947ff5dd9317b9e63ac316ce44acc85f670b54b339cfa3e9076e1dd55065b922314b916116c7565b6118af8291612a4e565b61024b5780611879565b8280fd5b90809250813d83116118e4575b6118d48183612a78565b810103126110455751388061181f565b503d6118ca565b61190a90823d8411611911575b6119028183612a78565b810190612f7a565b50386117d6565b503d6118f8565b61171c91508b3d8d11610c1957610c0a8183612a78565b8580fd5b503461024b57604036600319011261024b576119506102986128d8565b6040516339420b4560e11b81526020816004816001600160a01b0386165afa9081156119c257611997929161199191604095916119a4575b50602435612efb565b90613413565b8351928352602083015250f35b6119bc915060203d8111610c1957610c0a8183612a78565b38611988565b6040513d85823e3d90fd5b503461024b578060031936011261024b57602060ce54604051908152f35b503461024b578060031936011261024b57602060ff609754166040519015158152f35b503461024b57611a1d36612998565b90611a266129ae565b670de0b6b3a76400008183011161030857825b60d354811015611a8e5780611a8361029d6001600160a01b03611a5e611a8995612d87565b90549060031b1c166001600160a01b0380911660005260d46020526040600020541690565b506149c1565b611a39565b506040907f032dc6a2d839eb179729a55633fdf1c41a1fc4739394154117005db2b354b9b5928060cc558160cd5582519182526020820152a180f35b503461024b57604061023f61023936612963565b503461024b57604036600319011261024b576004356001600160801b038082168092036110455760243590811680820361104557611b1a6129ae565b670de0b6b3a76400008310908115611b68575b506103085761010891837fffffffffffffffffffffffffffffffff0000000000000000000000000000000084549360801b1692161717905580f35b9050821138611b2d565b503461024b57602036600319011261024b57611b8c6128d8565b611b946129ae565b611bb7816001600160a01b0380911660005260d460205260406000205416151590565b15611caa576001600160a01b038091169081835260d4602052604083208054906001600160a01b03198216905560d5602052604084205460d3549060001991828101908111611c965761071285611c10611c3593612d87565b90549060031b1c169283895260d56020528060408a2055878952886040812055612d87565b905560d3548015611c825701611c4a81612d87565b8482549160031b1b1916905560d35516907f0fa1e4606af435f32f05b3804033d2933e691fab32ee74d2db6fa82d2741f1ea8380a380f35b602486634e487b7160e01b81526031600452fd5b602487634e487b7160e01b81526011600452fd5b60046040517fecb004d4000000000000000000000000000000000000000000000000000000008152fd5b503461024b578060031936011261024b57611ced612e5e565b60975460ff811615611d2d5760ff19166097557f5db9ee0a495bf2e6ff9c91a7834c1ba4fdd244a5e8aa4e537bd38aeae4b073aa6020604051338152a180f35b606460405162461bcd60e51b815260206004820152601460248201527f5061757361626c653a206e6f74207061757365640000000000000000000000006044820152fd5b503461024b578060031936011261024b5760206001600160a01b0360d15416604051908152f35b503461024b57602036600319011261024b577fdcb65c0553aaa433aadd180404ff195259c48f78aa50f877ebcb4bb215129a4e610e33611dd66128d8565b611dde612e5e565b611de781612e72565b6001600160a01b031680845260c960209081526040808620805460ff191660011790558051928352339183019190915290918291820190565b503461024b57611e71611e68611e353661291a565b611e4497939592969197612f92565b611e4c612e0e565b611e5588612dd4565b611e5e86612ca7565b610ea58584612cd8565b61029881612e72565b92611e7b82612f35565b906001600160a01b03851694611e9385873381612fe7565b600095611e9f826149d0565b611ea9868361395a565b509097823b1561024b57604051632770a7eb60e21b81526001600160a01b038416600482015260248101899052818160448183885af180156111da57612214575b5090823b156121fc576040516313f3df3160e31b8152896004820152828160248183885af180156119c257908391612200575b5050823b156121fc576040519063d8b8785360e01b82526004820152818160248183875af180156111da579082916121e8575b505060405163705727b560e01b91828252602082600481875afa9182156121db5781926121ba575b506001600160781b0380921615159384612101575b505050506120f0576001600160a01b03831695604051936339420b4560e11b948581526020816004818c5afa801561103957611fd595610f4f926000926120cf575b50612efb565b50604051918252602082600481885afa90811561103957611ffd926000926120ae5750612bc8565b92803b1561104557604051639e79eaa560e01b81526001600160a01b038616600482015260248101859052906000908290604490829084905af18015611039576020957ffb80d861da582b723be2d19507ce3e03851820c464abea89156ec77e089b1ad9926001600160a01b039261209f575b506116f56040519283921695873396846040919493926001600160a01b03606083019616825260208201520152565b6120a890612a4e565b87612070565b6120c891925060203d602011610c1957610c0a8183612a78565b9087610bb3565b6120e991925060203d602011610c1957610c0a8183612a78565b908c611fcf565b60046040516316fde3bd60e21b8152fd5b90919293506040519363961be39160e01b8552602085600481855afa9485156119c2578395612198575b5060209060046040518094819382525afa91821561218c5792662386f26fc1000094928192612163959161216d575b50169116612b5f565b1088808080611f8d565b612186915060203d602011610ca057610c928183612a78565b8d61215a565b604051903d90823e3d90fd5b60209195506121b390823d8411610ca057610c928183612a78565b949061212b565b6121d491925060203d602011610ca057610c928183612a78565b908b611f78565b50604051903d90823e3d90fd5b6121f190612a4e565b61024b57808a611f50565b5080fd5b61220990612a4e565b6121fc57818b611f1d565b61221d90612a4e565b8a611eea565b503461024b5760a036600319011261024b5761223d6128d8565b6122456128ee565b61224d612f92565b612255612e0e565b612260602435612ca7565b61226981612dd4565b612274608435613259565b61227d82612f35565b916122956024356001600160a01b0385163381612fe7565b6040516339420b4560e11b81526020816004816001600160a01b0388165afa908115610cf2578591612610575b506122cf81604435612efb565b906122d9856149d0565b6122f26122e86024358761395a565b50919080946133e2565b6001600160a01b0386163b1561104557604051632770a7eb60e21b81526001600160a01b03871660048201526024803590820152600090818180604481010381836001600160a01b038d165af180156111da57612601575b50906001600160a01b0387163b156121fc576040516313f3df3160e31b81528460048201528281602481836001600160a01b038d165af180156119c2579083916125ed575b50506001600160a01b0387163b156121fc576040519063d8b8785360e01b825260048201528181602481836001600160a01b038c165af180156111da579082916125d9575b505060405163705727b560e01b908181526020816004816001600160a01b038c165afa9081156119c257906001600160781b039184916125ba575b5016151591826124fc575b50506120f05761242991612bc8565b926001600160a01b0381163b156111d657846040518092639e79eaa560e01b825281836001600160a01b03826124798b8b60048401602090939291936001600160a01b0360408201951681520152565b0393165af18015610cf2576124e8575b50602093507ffb80d861da582b723be2d19507ce3e03851820c464abea89156ec77e089b1ad96001600160a01b03604051931692806116f533948760243591846040919493926001600160a01b03606083019616825260208201520152565b6124f28591612a4e565b6111e55783612489565b60405163961be39160e01b81529250906020836004816001600160a01b038c165afa9283156111da578293612599575b506040519081526020816004816001600160a01b038c165afa91821561218c576001600160781b0361257293662386f26fc10000959382939161257a5750169116612b5f565b10388061241a565b612593915060203d602011610ca057610c928183612a78565b3861215a565b6125b391935060203d602011610ca057610c928183612a78565b913861252c565b6125d3915060203d602011610ca057610c928183612a78565b3861240f565b6125e290612a4e565b61024b5780386123d4565b6125f690612a4e565b6121fc57813861238f565b61260a90612a4e565b3861234a565b612629915060203d602011610c1957610c0a8183612a78565b386122c2565b503461024b57604036600319011261024b576126496128d8565b90602435612655612e5e565b6001600160a01b0361266684612f35565b16604051632672469960e21b81526020908181600481865afa908115610cf25785916127f5575b50604051906339420b4560e11b82528282600481875afa918215610c4357906126bd929187926127d65750612efb565b60405163961be39160e01b81528281600481875afa908115610c435761270c93926001600160781b0360d2936126fc938a916127b9575b501690612ab9565b9184875252604085205490612ab9565b821161030857803b156118b95782809160246040518094819362b64f3d60e51b83528760048401525af180156119c257612788575b50604080516001600160a01b039094168452602084019190915290917f4941e18a2bcbb0f9fa0081238f26793a8ad8c202b913ae8bf5f7e523f68ff1379181908101610e33565b916127b37f4941e18a2bcbb0f9fa0081238f26793a8ad8c202b913ae8bf5f7e523f68ff13793612a4e565b91612741565b6127d09150863d8811610ca057610c928183612a78565b386126f4565b6127ee919250843d8611610c1957610c0a8183612a78565b9038611fcf565b90508181813d831161281b575b61280c8183612a78565b810103126111d657513861268d565b503d612802565b503461024b57602036600319011261024b577ffeb9010869b6ccec4557ddbbce947afeace5efc66cdff52c5e533c09336a8f2d60206001600160a01b036128676128d8565b61286f6129ae565b61287881612dd4565b16806001600160a01b031960d154161760d155604051908152a180f35b503461024b578060031936011261024b5760206001600160a01b0360d05416604051908152f35b9050346121fc57816003193601126121fc5760209060ca548152f35b600435906001600160a01b038216820361104557565b606435906001600160a01b038216820361104557565b602435906001600160a01b038216820361104557565b60c0906003190112611045576001600160a01b03600435818116810361104557916024358281168103611045579160443591606435916084359081168103611045579060a43590565b6060906003190112611045576001600160a01b0390600435828116810361104557916024359081168103611045579060443590565b6040906003190112611045576004359060243590565b6001600160a01b036033541633036129c257565b606460405162461bcd60e51b815260206004820152602060248201527f4f776e61626c653a2063616c6c6572206973206e6f7420746865206f776e65726044820152fd5b603354906001600160a01b0380911691826001600160a01b0319821617603355167f8be0079c531659141344cd1fd0a4f28419497f9722a3daafe3b4186f6b6457e0600080a3565b67ffffffffffffffff8111612a6257604052565b634e487b7160e01b600052604160045260246000fd5b90601f8019910116810190811067ffffffffffffffff821117612a6257604052565b9081602091031261104557516001600160781b03811681036110455790565b91908203918211612ac657565b634e487b7160e01b600052601160045260246000fd5b91908201809211612ac657565b90816020910312611045575160ff811681036110455790565b81810292918115918404141715612ac657565b8115612b1f570490565b634e487b7160e01b600052601260045260246000fd5b90612b3f91612b02565b6706f05b59d3b200008101809111612ac657670de0b6b3a7640000900490565b90670de0b6b3a764000091828102928184041490151715612ac657612b8b612b90928260011c90612adc565b612b15565b90565b60ff6011199116019060ff8211612ac657565b60ff166012039060ff8211612ac657565b60ff16604d8111612ac657600a0a90565b9060ff81166012811015612bf2575090612bec612be7612b9093612ba6565b612bb7565b90612b15565b601210612bfd575090565b90612c0d612be7612b9093612b93565b90612b02565b610108548060801c91828411600014612c37576004604051630c2b153f60e31b8152fd5b6001600160801b0382168411801590612c9d575b612c9457612b90936001600160801b0392831691612c7d9190838111612c89576000905b848303920391800203612b15565b60011c92031690612b5f565b838103800290612c6f565b50505050600090565b5080841115612c4b565b15612cae57565b60046040517f3f3835e7000000000000000000000000000000000000000000000000000000008152fd5b6001600160a01b03908116911614612cec57565b60046040517feeb7911f000000000000000000000000000000000000000000000000000000008152fd5b15612d1d57565b608460405162461bcd60e51b815260206004820152602b60248201527f496e697469616c697a61626c653a20636f6e7472616374206973206e6f74206960448201527f6e697469616c697a696e670000000000000000000000000000000000000000006064820152fd5b60d354811015612dbe5760d36000527f915c3eb987b20e1af620c1403197bf687fb7f18513b3a73fde6e78c7072c41a60190600090565b634e487b7160e01b600052603260045260246000fd5b6001600160a01b031615612de457565b60046040517f0bd3e3ed000000000000000000000000000000000000000000000000000000008152fd5b60ff60975416612e1a57565b606460405162461bcd60e51b815260206004820152601060248201527f5061757361626c653a20706175736564000000000000000000000000000000006044820152fd5b6001600160a01b0360cf541633036120f057565b6001600160a01b031660005260c960205260ff60406000205416612e9257565b60046040517f8654830a000000000000000000000000000000000000000000000000000000008152fd5b60ff81166012811015612ed65750612be7612b9091612ba6565b601210612ee35750600190565b612be7612eef91612b93565b8015612b1f5760010490565b9060ff81166012811015612f1a575090612c0d612be7612b9093612ba6565b601210612f25575090565b90612bec612be7612b9093612b93565b612f58816001600160a01b0380911660005260d460205260406000205416151590565b15611caa576001600160a01b0380911660005260d46020526040600020541690565b90816020910312611045575180151581036110455790565b600260655414612fa3576002606555565b606460405162461bcd60e51b815260206004820152601f60248201527f5265656e7472616e637947756172643a207265656e7472616e742063616c6c006044820152fd5b93929190604051602093848201927f23b872dd0000000000000000000000000000000000000000000000000000000084526001600160a01b039485809216602485015216604483015260648201526064815260a081019267ffffffffffffffff9682851088861117612a6257169060e0810184811088821117612a62576040528484527f5361666545524332303a206c6f772d6c6576656c2063616c6c206661696c656460c0820152600080938192519082855af1903d15613179573d968711613165576130d6949596604051906130c888601f19601f8401160183612a78565b81528093873d92013e613186565b805190816130e357505050565b82806130f3938301019101612f7a565b156130fb5750565b6084906040519062461bcd60e51b82526004820152602a60248201527f5361666545524332303a204552433230206f7065726174696f6e20646964206e60448201527f6f742073756363656564000000000000000000000000000000000000000000006064820152fd5b602483634e487b7160e01b81526041600452fd5b91506130d6939495506060915b919290156131e7575081511561319a575090565b3b156131a35790565b606460405162461bcd60e51b815260206004820152601d60248201527f416464726573733a2063616c6c20746f206e6f6e2d636f6e74726163740000006044820152fd5b8251909150156131fa5750805190602001fd5b6040519062461bcd60e51b82528160208060048301528251908160248401526000935b828510613240575050604492506000838284010152601f80199101168101030190fd5b848101820151868601604401529381019385935061321d565b421161326157565b60046040517f549b6335000000000000000000000000000000000000000000000000000000008152fd5b6001600160a01b03919294936132a0826149d0565b6132aa8483613413565b509390926132c28480996132bd82612ca7565b6133e2565b1690813b1561104557604093845162b64f3d60e51b81526000966004820152868160248183885af180156133d8576133c5575b50823b1561192f5784519063283c3d8160e21b82526004820152858160248183875af180156133bb579086916133a7575b5050813b156111d65783517f40c10f190000000000000000000000000000000000000000000000000000000081526001600160a01b03919091166004820152602481019290925290919083908390604490829084905af190811561339e575061338d575050565b6133978291612a4e565b61024b5750565b513d84823e3d90fd5b6133b090612a4e565b6111d6578438613326565b85513d88823e3d90fd5b6133d190969196612a4e565b94386132f5565b86513d89823e3d90fd5b116133e957565b60046040517ff512a720000000000000000000000000000000000000000000000000000000008152fd5b6000916001600160a01b036000921660409081519363961be39160e01b85526020938486600481865afa9586156135c85782966135a9575b5083519063705727b560e01b968783528683600481885afa92831561359f578493613578575b506134916134969160ca54906001600160781b0380809716911685613709565b6135d2565b9781891061356f57508703955b84519081528581600481875afa908115613565578391613548575b501693846134cf5750505050508192565b806004938551948580926318160ddd60e01b82525afa93841561353d57508193613508575b50505090612b8b6135059285612b02565b92565b9091809350813d8311613536575b6135208183612a78565b8101031261024b575051612b8b613505386134f4565b503d613516565b51913d9150823e3d90fd5b61355f9150863d8811610ca057610c928183612a78565b386134be565b85513d85823e3d90fd5b969750966134a3565b61349691935061359761349191893d8b11610ca057610c928183612a78565b939150613471565b86513d86823e3d90fd5b6135c1919650853d8711610ca057610c928183612a78565b943861344b565b84513d84823e3d90fd5b600081126135dd5790565b606460405162461bcd60e51b815260206004820152601660248201527f76616c7565206d75737420626520706f736974697665000000000000000000006044820152fd5b906706f05b59d3b200009160008382019384129112908015821691151617612ac657565b91909160008382019384129112908015821691151617612ac657565b90670de0b6b3a764000060008382039312818412811691841390151617612ac657565b81810392916000138015828513169184121617612ac657565b90670de0b6b3a764000091828102928184051490151715612ac657565b818102929160008212600160ff1b821416612ac6578184051490151715612ac657565b8115612b1f57600160ff1b8114600019831416612ac6570590565b600160ff1b8114612ac65760000390565b919081156138a457600061371d8483613645565b1261387a5761373c816137368461132961131f8461369d565b94613645565b670de0b6b3a7640000918261376161375c61375689613661565b856136ba565b613621565b05908361377161375c878a6136ba565b05908160011b916002830503612ac65761378e8593928493613645565b96613799878a6136ba565b906137a3916136dd565b6137ac91613684565b6137b690846136ba565b6137bf90613621565b0591806137cb916136ba565b6137d490613621565b056137de91613684565b91816137ea82876136ba565b6137f390613621565b05906137fe916136ba565b61380790613621565b0561381191613645565b9161381c82806136ba565b928160021b90600482058303612ac6576138686138769461386261385260029861384c61386d96611329986136ba565b90613684565b9161385c816136f8565b926138ab565b90613645565b61369d565b84830590613645565b0590565b60046040517fae032660000000000000000000000000000000000000000000000000000000008152fd5b5050905090565b91906000600384131561394b57506000811380613941575b1561390a57915b6002806138e0856138db81866136dd565b613645565b05915b8483036138ef57505050565b9193509081613902856138db81856136dd565b0591906138e3565b600081128061392f575b1561392857613922906136f8565b916138ca565b50816138ca565b508261393a826136f8565b1315613914565b50828113156138c3565b92905061395457565b60019150565b916000926001600160a01b036000911690604080519063705727b560e01b938483526020968784600481855afa938415613bf6578594613bd3575b506139aa906001600160781b03809516612b02565b82516318160ddd60e01b81528881600481865afa908115613bc9578691613b9a575b506139d691612b15565b966139e088612ca7565b6139e9886136f8565b94835163961be39160e01b81528281600481875afa908115613b9057839187918491613b73575b501697600486518096819382525afa938415613b69575092613b4c575b5050169060ca5490613a3f8184613645565b9083613a4a8661369d565b60028205613a5791613645565b90613a61916136dd565b8094613a6c8561369d565b90670de0b6b3a764000096808894936002869505613a8991613645565b90613a93916136dd565b613a9c91613684565b613aa5916136ba565b613aae90613621565b0591613ab985613661565b613ac2916136ba565b613acb90613621565b05613ad591613645565b60029005928392613ae684806136ba565b9280613af1916136ba565b613afa916136ba565b613b0390613621565b05613b0d91613645565b90613b17916138ab565b613b2091613645565b613b2991613684565b613b32906135d2565b92838310613b455750612b908383612ab9565b9092508192565b613b629250803d10610ca057610c928183612a78565b3880613a2d565b51903d90823e3d90fd5b613b8a9150833d8511610ca057610c928183612a78565b38613a10565b85513d84823e3d90fd5b90508881813d8311613bc2575b613bb18183612a78565b8101031261192f57516139d66139cc565b503d613ba7565b84513d88823e3d90fd5b6139aa919450613bef90893d8b11610ca057610c928183612a78565b9390613995565b83513d87823e3d90fd5b9390949180158015613d46575b61387a5783818192613c1f8989613645565b9780613c2b83806136ba565b90613c35916136dd565b98670de0b6b3a7640000809a8c613c4c88806136ba565b90613c56916136dd565b613c5f91613645565b613c69908a6136ba565b613c7290613621565b05613c7c91613684565b95613c8691613645565b613c8f9061369d565b60028205613c9c91613645565b90613ca6916136dd565b80613cb08761369d565b60028205613cbd91613645565b90613cc7916136dd565b613cd091613684565b613cd9916136ba565b90613ce3916136dd565b91613ced9061369d565b60028205613cfa91613645565b90613d04916136dd565b613d0d91613684565b90613d1791613d4e565b613d20916136ba565b613d2990613621565b0590613d3491613684565b6000811215612b9057612b90906136f8565b508315613c0d565b613d5881806136ba565b908260021b9280840560041490151715612ac657613d8781613d826138769461386260029761369d565b6138ab565b613684565b90929391613d9b818584613f37565b90948195613daa8180996133e2565b6000926001600160a01b038093169485855260209360d285526040978887208481540190551690813b1561192f578591602483928a51948593849262b64f3d60e51b845260048401525af18015613f2d57613f1a575b50843b156111e5578551916313f3df3160e31b8352016004820152828160248183885af1801561356557908391613f06575b505083519263961be39160e01b84528184600481845afa938415613565578394613ee0575b50908060049286519384809263705727b560e01b82525afa928315613ed55791613ea09391662386f26fc10000959392613eb8575b50506001600160781b038091169116612b5f565b10613ea85750565b600490516316fde3bd60e21b8152fd5b613ece9250803d10610ca057610c928183612a78565b3880613e8c565b8551903d90823e3d90fd5b8291945091613efd600493823d8411610ca057610c928183612a78565b94919250613e57565b613f0f90612a4e565b6121fc578138613e32565b613f2690949194612a4e565b9238613e00565b87513d87823e3d90fd5b91929092613f46818585614313565b80949180966000851215600014614062575050506001600160a01b0316906040519063961be39160e01b82526020908183600481875afa801561404057600493600091614045575b50826001600160781b03809216956040519586809263705727b560e01b82525afa801561404057610b5e94613fd194600092614023575b50501692839185612adc565b91613ff4613fe8610108546001600160801b031690565b6001600160801b031690565b8311613fff57505050565b94610c6a61401e93610c656140179484979899612b5f565b8092612ab9565b920190565b6140399250803d10610ca057610c928183612a78565b3880613fc5565b611039565b61405c9150833d8511610ca057610c928183612a78565b38613f8e565b8093949297506001600160a01b03919596501660405163961be39160e01b815260208082600481865afa9182156140405760009261416b575b506004816001600160781b03809416946040519283809263705727b560e01b82525afa9182156140405760009261414e575b5050166140de81610b5e8885612adc565b6101085492906001600160801b038416106140fd575050505050509190565b909193955061410e92949750612b5f565b9060801c111561413d5761412461412b916136f8565b848361418a565b9061413891938491613f37565b905090565b6004604051630c2b153f60e31b8152fd5b6141649250803d10610ca057610c928183612a78565b38806140cd565b816141839293503d8411610ca057610c928183612a78565b903861409b565b6040516339420b4560e11b81529193926020926001600160a01b038316908481600481855afa908115614040576000916142f6575b506141c981612ebc565b946040519263705727b560e01b84528184600481845afa8015614040576004946000916142d9575b5082614216614206613fe86101085460801c90565b6001600160781b03809416612b35565b926040519687809263961be39160e01b82525afa80156140405761424e95614249946000926142bc575b50501690612ab9565b612bc8565b9160019586836142686142618888612b02565b8486613f37565b501061413d579291905b8484106142885750505050612b90929350612b02565b90919293808501881c9088856142a18985028688613f37565b50106142b3575050935b929190614272565b909550016142ab565b6142d29250803d10610ca057610c928183612a78565b3880614240565b6142f09150833d8511610ca057610c928183612a78565b386141f1565b61430d9150853d8711610c1957610c0a8183612a78565b386141bf565b9190600092838312614561575b6001600160a01b038091169360409081519063961be39160e01b91828152602095600495878388818d5afa92831561359f5790849392918b969593614542575b5086519189838a8163705727b560e01b9a8b82525afa9283156144fa578593614523575b50169086519285845289848a81865afa9384156144fa578594614504575b50896001600160781b03809516978a8a518096819382525afa9283156144fa57918b916143e4949387946144db575b508886808060ca54971694169216613c00565b988289139788958b90876144d1575b5050851561445d575b50505050506144375750501561441f575061441c61401760cb5483612b35565b91565b919061442e612b9091936136f8565b60cb5490612b35565b517f9a6114b7000000000000000000000000000000000000000000000000000000008152fd5b909192809495508912948561447c575b505050505038808080806143fc565b8192939495508787518095819382525afa938415613ed557936144b2575b50506144a5866136f8565b911610388080808061446d565b6144c9929350803d10610ca057610c928183612a78565b90388061449a565b1095508a386143f3565b6144f39194508c8d3d10610ca057610c928183612a78565b92386143d1565b88513d87823e3d90fd5b61451c9194508a3d8c11610ca057610c928183612a78565b92386143a2565b61453b9193508a3d8c11610ca057610c928183612a78565b9138614384565b61455a919350893d8b11610ca057610c928183612a78565b9138614360565b9161457d9061132961131f61457760cb54613661565b9261369d565b91614320565b929091926145918382612cd8565b831561108a576145a36145a991612f35565b92612f35565b916001600160a01b03938482166040958651926339420b4560e11b908185526020958686600481885afa9586156146f35789966145fa936145f2926000926146d4575b506146fe565b988991613f37565b9092819516938951938385528785600481895afa9485156146c957889560009261462a9284926146b15750612bc8565b9912614685575050600488518094819382525afa92831561467a57612b909495965060009361465b575b5050612bc8565b614672929350803d10610c1957610c0a8183612a78565b903880614654565b86513d6000823e3d90fd5b93509350600488518094819382525afa92831561467a57612b909495965060009361465b575050612bc8565b610c12919250883d8a11610c1957610c0a8183612a78565b8b513d6000823e3d90fd5b6146ec9192508a3d8c11610c1957610c0a8183612a78565b90386145ec565b8a513d6000823e3d90fd5b9060ff8116601281101561472357509061471d612be7612b9093612ba6565b906136ba565b60121061472e575090565b9061473e612be7612b9093612b93565b906136dd565b6147556001600160a01b0391612f35565b1660408051916318160ddd60e01b928381526020908181600481865afa9081156148415760009161485c575b501561484c5782519363705727b560e01b85528185600481865afa94851561484157600095614820575b508190600485518095819382525afa92831561481657506000926147de575b50506001600160781b03612b909216612b5f565b81819392933d831161480f575b6147f58183612a78565b8101031261024b5750516001600160781b03612b906147ca565b503d6147eb565b513d6000823e3d90fd5b8291955061483a90823d8411610ca057610c928183612a78565b94906147ab565b84513d6000823e3d90fd5b50505050670de0b6b3a764000090565b908282813d8311614882575b6148728183612a78565b8101031261024b57505138614781565b503d614868565b61489a6001600160a01b0391612f35565b166040805190632672469960e21b82526020918281600481875afa9081156149b657600091614989575b508151906339420b4560e11b82528382600481885afa91821561496657906148f492916000926149715750612efb565b9181519363961be39160e01b85528185600481845afa94851561496657600095614937575b506001600160781b03929160d2916000525260002054921690030390565b60d29195509161495c6001600160781b039493823d8411610ca057610c928183612a78565b9591509192614919565b83513d6000823e3d90fd5b6127ee919250853d8711610c1957610c0a8183612a78565b908382813d83116149af575b61499f8183612a78565b8101031261024b575051386148c4565b503d614995565b82513d6000823e3d90fd5b6000198114612ac65760010190565b6001600160a01b03811660005260d26020526040600020548015908115614a07575b50156149fb5750565b614a0490614a13565b50565b905060ce5411386149f2565b9060006001600160a01b039283811680835260d260205260409182842054958615614bdd5760cd54670de0b6b3a7640000908103908111614bc957614a5e614a649160cc5490612ab9565b88612b35565b9081614b3b575b5050614a7960cd5487612b35565b9081614a8e575b5050825260d2602052812055565b81614a9891613413565b509050823b156111d65783519063283c3d8160e21b82526004820152848160248183875af18015614b3157908591614b1d575b5050813b156111e55782519062b64f3d60e51b82526004820152838160248183865af18015614b105790849115614a8057614b0590612a4e565b6118b9578238614a80565b50505051903d90823e3d90fd5b614b2690612a4e565b6111e5578338614acb565b84513d87823e3d90fd5b60d05416908451906339420b4560e11b8252602082600481885afa9182156133d85790614b6f929188926112a25750612bc8565b90833b1561192f578451639e79eaa560e01b81526001600160a01b039190911660048201526024810191909152848160448183875af18015614b3157614bb6575b80614a6b565b614bc290949194612a4e565b9238614bb0565b602486634e487b7160e01b81526011600452fd5b5092945050505056fea2646970667358221220978e9a66ee5154496744b474c59ae4620da9a35805c7c7a79833a61b083cffa664736f6c63430008120033",
  "devdoc": {
    "details": "Pool with high cov ratio fee protection Change log: - add `gap` to prevent storage collision for future upgrades",
    "events": {
      "Initialized(uint8)": {
        "details": "Triggered when the contract has been initialized or reinitialized."
      },
      "Paused(address)": {
        "details": "Emitted when the pause is triggered by `account`."
      },
      "PausedAsset(address,address)": {
        "details": "Emitted when the pause is triggered by `account`."
      },
      "Unpaused(address)": {
        "details": "Emitted when the pause is lifted by `account`."
      },
      "UnpausedAsset(address,address)": {
        "details": "Emitted when the pause is lifted by `account`."
      }
    },
    "kind": "dev",
    "methods": {
      "addAsset(address,address)": {
        "params": {
          "asset": "The address of the Wombat Asset contract",
          "token": "The address of token"
        }
      },
      "addressOfAsset(address)": {
        "details": "to be used externally",
        "params": {
          "token": "The address of ERC20 token"
        }
      },
      "deposit(address,uint256,uint256,address,uint256,bool)": {
        "details": "Asset needs to be created and added to pool before any operation. This function assumes tax free token.",
        "params": {
          "amount": "The amount to be deposited",
          "deadline": "The deadline to be respected",
          "to": "The user accountable for deposit, receiving the Wombat assets (lp)",
          "token": "The token address to be deposited"
        },
        "returns": {
          "liquidity": "Total asset liquidity minted"
        }
      },
      "exchangeRate(address)": {
        "params": {
          "token": "The address of the token"
        },
        "returns": {
          "xr": "The exchange rate of LP token"
        }
      },
      "mintFee(address)": {
        "params": {
          "token": "The address of the token to collect fee"
        }
      },
      "owner()": {
        "details": "Returns the address of the current owner."
      },
      "pause()": {
        "details": "pause pool, restricting certain operations"
      },
      "pauseAsset(address)": {
        "details": "pause asset, restricting deposit and swap operations"
      },
      "paused()": {
        "details": "Returns true if the contract is paused, and false otherwise."
      },
      "quoteAmountIn(address,address,int256)": {
        "details": "To be used by frontend",
        "params": {
          "fromToken": "The initial ERC20 token",
          "toAmount": "The given output amount",
          "toToken": "The token wanted by user"
        },
        "returns": {
          "amountIn": "The input amount required",
          "haircut": "The haircut that would be applied"
        }
      },
      "quotePotentialDeposit(address,uint256)": {
        "details": "To be used by frontend",
        "params": {
          "amount": "The amount to deposit",
          "token": "The token to deposit by user"
        },
        "returns": {
          "liquidity": "The potential liquidity user would receive",
          "reward": "reward"
        }
      },
      "quotePotentialSwap(address,address,int256)": {
        "details": "In reverse quote, the haircut is in the `fromAsset`",
        "params": {
          "fromAmount": "The given input amount",
          "fromToken": "The initial ERC20 token",
          "toToken": "The token wanted by user"
        },
        "returns": {
          "haircut": "The haircut that would be applied",
          "potentialOutcome": "The potential amount user would receive"
        }
      },
      "quotePotentialWithdraw(address,uint256)": {
        "details": "To be used by frontend",
        "params": {
          "liquidity": "The liquidity (amount of lp assets) to be withdrawn",
          "token": "The token to be withdrawn by user"
        },
        "returns": {
          "amount": "The potential amount user would receive",
          "fee": "The fee that would be applied"
        }
      },
      "quotePotentialWithdrawFromOtherAsset(address,address,uint256)": {
        "details": "take into account high cov ratio fee"
      },
      "removeAsset(address)": {
        "details": "Can only be called by owner",
        "params": {
          "token": "The address of token to remove"
        }
      },
      "renounceOwnership()": {
        "details": "Leaves the contract without owner. It will not be possible to call `onlyOwner` functions anymore. Can only be called by the current owner. NOTE: Renouncing ownership will leave the contract without an owner, thereby removing any functionality that is only available to the owner."
      },
      "setAmpFactor(uint256)": {
        "params": {
          "ampFactor_": "new pool's amplification factor"
        }
      },
      "setDev(address)": {
        "params": {
          "dev_": "new contract dev address"
        }
      },
      "setFeeTo(address)": {
        "params": {
          "feeTo_": "new fee beneficiary"
        }
      },
      "setHaircutRate(uint256)": {
        "params": {
          "haircutRate_": "new pool's haircutRate_"
        }
      },
      "swap(address,address,uint256,uint256,address,uint256)": {
        "details": "This function assumes tax free token.",
        "params": {
          "deadline": "The deadline to be respected",
          "fromAmount": "The amount of from token inserted",
          "fromToken": "The token being inserted into Pool by user for swap",
          "minimumToAmount": "The minimum amount that will be accepted by user as result",
          "to": "The user receiving the result of swap",
          "toToken": "The token wanted by user, leaving the Pool"
        }
      },
      "transferOwnership(address)": {
        "details": "Transfers ownership of the contract to a new account (`newOwner`). Can only be called by the current owner."
      },
      "transferTipBucket(address,uint256,address)": {
        "details": "unit of amount should be in WAD"
      },
      "unpause()": {
        "details": "unpause pool, enabling certain operations"
      },
      "unpauseAsset(address)": {
        "details": "unpause asset, enabling deposit and swap operations"
      },
      "withdraw(address,uint256,uint256,address,uint256)": {
        "params": {
          "deadline": "The deadline to be respected",
          "liquidity": "The liquidity to be withdrawn",
          "minimumAmount": "The minimum amount that will be accepted by user",
          "to": "The user receiving the withdrawal",
          "token": "The token to be withdrawn"
        },
        "returns": {
          "amount": "The total amount withdrawn"
        }
      },
      "withdrawFromOtherAsset(address,address,uint256,uint256,address,uint256)": {
        "params": {
          "deadline": "The deadline to be respected",
          "fromToken": "The corresponding token user holds the LP (Asset) from",
          "liquidity": "The liquidity to be withdrawn (in fromToken decimal)",
          "minimumAmount": "The minimum amount that will be accepted by user",
          "to": "The user receiving the withdrawal",
          "toToken": "The token wanting to be withdrawn (needs to be well covered)"
        },
        "returns": {
          "toAmount": "The total amount withdrawn"
        }
      }
    },
    "title": "HighCovRatioFeePoolV2",
    "version": 1
  },
  "userdoc": {
    "events": {
      "AssetAdded(address,address)": {
        "notice": "An event thats emitted when an asset is added to Pool"
      },
      "AssetRemoved(address,address)": {
        "notice": "An event thats emitted when asset is removed from Pool"
      },
      "Deposit(address,address,uint256,uint256,address)": {
        "notice": "An event thats emitted when a deposit is made to Pool"
      },
      "Swap(address,address,address,uint256,uint256,address)": {
        "notice": "An event thats emitted when a swap is made in Pool"
      },
      "Withdraw(address,address,uint256,uint256,address)": {
        "notice": "An event thats emitted when a withdrawal is made from Pool"
      }
    },
    "kind": "user",
    "methods": {
      "addAsset(address,address)": {
        "notice": "Adds asset to pool, reverts if asset already exists in pool"
      },
      "addressOfAsset(address)": {
        "notice": "Gets Asset corresponding to ERC20 token. Reverts if asset does not exists in Pool."
      },
      "ampFactor()": {
        "notice": "Amplification factor"
      },
      "deposit(address,uint256,uint256,address,uint256,bool)": {
        "notice": "Deposits amount of tokens into pool ensuring deadline"
      },
      "dev()": {
        "notice": "Dev address"
      },
      "exchangeRate(address)": {
        "notice": "Returns the exchange rate of the LP token"
      },
      "fillPool(address,uint256)": {
        "notice": "Move fund from tip bucket to the pool to keep r* = 1 as error accumulates unit of amount should be in WAD"
      },
      "getTokens()": {
        "notice": "Return list of tokens in the pool"
      },
      "haircutRate()": {
        "notice": "Haircut rate"
      },
      "initialize(uint256,uint256)": {
        "notice": "Initializes pool. Dev is set to be the account calling this function."
      },
      "lpDividendRatio()": {
        "notice": "LP dividend ratio : the ratio of haircut that should distribute to LP"
      },
      "mintFee(address)": {
        "notice": "Send fee collected to the fee beneficiary"
      },
      "mintFeeThreshold()": {
        "notice": "The threshold to mint fee (unit: WAD)"
      },
      "quoteAmountIn(address,address,int256)": {
        "notice": "Returns the minimum input asset amount required to buy the given output asset amount (accounting for fees and slippage)"
      },
      "quotePotentialDeposit(address,uint256)": {
        "notice": "Quotes potential deposit from pool"
      },
      "quotePotentialSwap(address,address,int256)": {
        "notice": "Given an input asset amount and token addresses, calculates the maximum output token amount (accounting for fees and slippage)."
      },
      "quotePotentialWithdraw(address,uint256)": {
        "notice": "Quotes potential withdrawal from pool"
      },
      "removeAsset(address)": {
        "notice": "Removes asset from asset struct"
      },
      "retentionRatio()": {
        "notice": "Retention ratio: the ratio of haircut that should stay in the pool"
      },
      "setAmpFactor(uint256)": {
        "notice": "Changes the pools amplification factor. Can only be set by the contract owner."
      },
      "setDev(address)": {
        "notice": "Changes the contract dev. Can only be set by the contract owner."
      },
      "setFeeTo(address)": {
        "notice": "Changes the fee beneficiary. Can only be set by the contract owner. This value cannot be set to 0 to avoid unsettled fee."
      },
      "setHaircutRate(uint256)": {
        "notice": "Changes the pools haircutRate. Can only be set by the contract owner."
      },
      "setMintFeeThreshold(uint256)": {
        "notice": "Set min fee to mint"
      },
      "swap(address,address,uint256,uint256,address,uint256)": {
        "notice": "Swap fromToken for toToken, ensures deadline and minimumToAmount and sends quoted amount to `to` address"
      },
      "withdraw(address,uint256,uint256,address,uint256)": {
        "notice": "Withdraws liquidity amount of asset to `to` address ensuring minimum amount required"
      },
      "withdrawFromOtherAsset(address,address,uint256,uint256,address,uint256)": {
        "notice": "Enables withdrawing liquidity from an asset using LP from a different asset"
      }
    },
    "version": 1
  },
  "storageLayout": {
    "storage": [
      {
        "astId": 138,
        "contract": "contracts/wombat-core/pool/HighCovRatioFeePoolV2.sol:HighCovRatioFeePoolV2",
        "label": "_initialized",
        "offset": 0,
        "slot": "0",
        "type": "t_uint8"
      },
      {
        "astId": 141,
        "contract": "contracts/wombat-core/pool/HighCovRatioFeePoolV2.sol:HighCovRatioFeePoolV2",
        "label": "_initializing",
        "offset": 1,
        "slot": "0",
        "type": "t_bool"
      },
      {
        "astId": 825,
        "contract": "contracts/wombat-core/pool/HighCovRatioFeePoolV2.sol:HighCovRatioFeePoolV2",
        "label": "__gap",
        "offset": 0,
        "slot": "1",
        "type": "t_array(t_uint256)50_storage"
      },
      {
        "astId": 10,
        "contract": "contracts/wombat-core/pool/HighCovRatioFeePoolV2.sol:HighCovRatioFeePoolV2",
        "label": "_owner",
        "offset": 0,
        "slot": "51",
        "type": "t_address"
      },
      {
        "astId": 130,
        "contract": "contracts/wombat-core/pool/HighCovRatioFeePoolV2.sol:HighCovRatioFeePoolV2",
        "label": "__gap",
        "offset": 0,
        "slot": "52",
        "type": "t_array(t_uint256)49_storage"
      },
      {
        "astId": 441,
        "contract": "contracts/wombat-core/pool/HighCovRatioFeePoolV2.sol:HighCovRatioFeePoolV2",
        "label": "_status",
        "offset": 0,
        "slot": "101",
        "type": "t_uint256"
      },
      {
        "astId": 499,
        "contract": "contracts/wombat-core/pool/HighCovRatioFeePoolV2.sol:HighCovRatioFeePoolV2",
        "label": "__gap",
        "offset": 0,
        "slot": "102",
        "type": "t_array(t_uint256)49_storage"
      },
      {
        "astId": 321,
        "contract": "contracts/wombat-core/pool/HighCovRatioFeePoolV2.sol:HighCovRatioFeePoolV2",
        "label": "_paused",
        "offset": 0,
        "slot": "151",
        "type": "t_bool"
      },
      {
        "astId": 426,
        "contract": "contracts/wombat-core/pool/HighCovRatioFeePoolV2.sol:HighCovRatioFeePoolV2",
        "label": "__gap",
        "offset": 0,
        "slot": "152",
        "type": "t_array(t_uint256)49_storage"
      },
      {
        "astId": 15478,
        "contract": "contracts/wombat-core/pool/HighCovRatioFeePoolV2.sol:HighCovRatioFeePoolV2",
        "label": "_pausedAssets",
        "offset": 0,
        "slot": "201",
        "type": "t_mapping(t_address,t_bool)"
      },
      {
        "astId": 18366,
        "contract": "contracts/wombat-core/pool/HighCovRatioFeePoolV2.sol:HighCovRatioFeePoolV2",
        "label": "ampFactor",
        "offset": 0,
        "slot": "202",
        "type": "t_uint256"
      },
      {
        "astId": 18369,
        "contract": "contracts/wombat-core/pool/HighCovRatioFeePoolV2.sol:HighCovRatioFeePoolV2",
        "label": "haircutRate",
        "offset": 0,
        "slot": "203",
        "type": "t_uint256"
      },
      {
        "astId": 18372,
        "contract": "contracts/wombat-core/pool/HighCovRatioFeePoolV2.sol:HighCovRatioFeePoolV2",
        "label": "retentionRatio",
        "offset": 0,
        "slot": "204",
        "type": "t_uint256"
      },
      {
        "astId": 18375,
        "contract": "contracts/wombat-core/pool/HighCovRatioFeePoolV2.sol:HighCovRatioFeePoolV2",
        "label": "lpDividendRatio",
        "offset": 0,
        "slot": "205",
        "type": "t_uint256"
      },
      {
        "astId": 18378,
        "contract": "contracts/wombat-core/pool/HighCovRatioFeePoolV2.sol:HighCovRatioFeePoolV2",
        "label": "mintFeeThreshold",
        "offset": 0,
        "slot": "206",
        "type": "t_uint256"
      },
      {
        "astId": 18381,
        "contract": "contracts/wombat-core/pool/HighCovRatioFeePoolV2.sol:HighCovRatioFeePoolV2",
        "label": "dev",
        "offset": 0,
        "slot": "207",
        "type": "t_address"
      },
      {
        "astId": 18383,
        "contract": "contracts/wombat-core/pool/HighCovRatioFeePoolV2.sol:HighCovRatioFeePoolV2",
        "label": "feeTo",
        "offset": 0,
        "slot": "208",
        "type": "t_address"
      },
      {
        "astId": 18385,
        "contract": "contracts/wombat-core/pool/HighCovRatioFeePoolV2.sol:HighCovRatioFeePoolV2",
        "label": "masterWombat",
        "offset": 0,
        "slot": "209",
        "type": "t_address"
      },
      {
        "astId": 18391,
        "contract": "contracts/wombat-core/pool/HighCovRatioFeePoolV2.sol:HighCovRatioFeePoolV2",
        "label": "_feeCollected",
        "offset": 0,
        "slot": "210",
        "type": "t_mapping(t_contract(IAsset)6696,t_uint256)"
      },
      {
        "astId": 18395,
        "contract": "contracts/wombat-core/pool/HighCovRatioFeePoolV2.sol:HighCovRatioFeePoolV2",
        "label": "_assets",
        "offset": 0,
        "slot": "211",
        "type": "t_struct(AssetMap)18363_storage"
      },
      {
        "astId": 18397,
        "contract": "contracts/wombat-core/pool/HighCovRatioFeePoolV2.sol:HighCovRatioFeePoolV2",
        "label": "_used1",
        "offset": 0,
        "slot": "214",
        "type": "t_uint128"
      },
      {
        "astId": 18399,
        "contract": "contracts/wombat-core/pool/HighCovRatioFeePoolV2.sol:HighCovRatioFeePoolV2",
        "label": "_used2",
        "offset": 16,
        "slot": "214",
        "type": "t_uint128"
      },
      {
        "astId": 18403,
        "contract": "contracts/wombat-core/pool/HighCovRatioFeePoolV2.sol:HighCovRatioFeePoolV2",
        "label": "gap",
        "offset": 0,
        "slot": "215",
        "type": "t_array(t_uint256)49_storage"
      },
      {
        "astId": 14503,
        "contract": "contracts/wombat-core/pool/HighCovRatioFeePoolV2.sol:HighCovRatioFeePoolV2",
        "label": "startCovRatio",
        "offset": 0,
        "slot": "264",
        "type": "t_uint128"
      },
      {
        "astId": 14505,
        "contract": "contracts/wombat-core/pool/HighCovRatioFeePoolV2.sol:HighCovRatioFeePoolV2",
        "label": "endCovRatio",
        "offset": 16,
        "slot": "264",
        "type": "t_uint128"
      },
      {
        "astId": 14509,
        "contract": "contracts/wombat-core/pool/HighCovRatioFeePoolV2.sol:HighCovRatioFeePoolV2",
        "label": "gap",
        "offset": 0,
        "slot": "265",
        "type": "t_array(t_uint256)50_storage"
      }
    ],
    "types": {
      "t_address": {
        "encoding": "inplace",
        "label": "address",
        "numberOfBytes": "20"
      },
      "t_array(t_address)dyn_storage": {
        "base": "t_address",
        "encoding": "dynamic_array",
        "label": "address[]",
        "numberOfBytes": "32"
      },
      "t_array(t_uint256)49_storage": {
        "base": "t_uint256",
        "encoding": "inplace",
        "label": "uint256[49]",
        "numberOfBytes": "1568"
      },
      "t_array(t_uint256)50_storage": {
        "base": "t_uint256",
        "encoding": "inplace",
        "label": "uint256[50]",
        "numberOfBytes": "1600"
      },
      "t_bool": {
        "encoding": "inplace",
        "label": "bool",
        "numberOfBytes": "1"
      },
      "t_contract(IAsset)6696": {
        "encoding": "inplace",
        "label": "contract IAsset",
        "numberOfBytes": "20"
      },
      "t_mapping(t_address,t_bool)": {
        "encoding": "mapping",
        "key": "t_address",
        "label": "mapping(address => bool)",
        "numberOfBytes": "32",
        "value": "t_bool"
      },
      "t_mapping(t_address,t_contract(IAsset)6696)": {
        "encoding": "mapping",
        "key": "t_address",
        "label": "mapping(address => contract IAsset)",
        "numberOfBytes": "32",
        "value": "t_contract(IAsset)6696"
      },
      "t_mapping(t_address,t_uint256)": {
        "encoding": "mapping",
        "key": "t_address",
        "label": "mapping(address => uint256)",
        "numberOfBytes": "32",
        "value": "t_uint256"
      },
      "t_mapping(t_contract(IAsset)6696,t_uint256)": {
        "encoding": "mapping",
        "key": "t_contract(IAsset)6696",
        "label": "mapping(contract IAsset => uint256)",
        "numberOfBytes": "32",
        "value": "t_uint256"
      },
      "t_struct(AssetMap)18363_storage": {
        "encoding": "inplace",
        "label": "struct PoolV2.AssetMap",
        "members": [
          {
            "astId": 18353,
            "contract": "contracts/wombat-core/pool/HighCovRatioFeePoolV2.sol:HighCovRatioFeePoolV2",
            "label": "keys",
            "offset": 0,
            "slot": "0",
            "type": "t_array(t_address)dyn_storage"
          },
          {
            "astId": 18358,
            "contract": "contracts/wombat-core/pool/HighCovRatioFeePoolV2.sol:HighCovRatioFeePoolV2",
            "label": "values",
            "offset": 0,
            "slot": "1",
            "type": "t_mapping(t_address,t_contract(IAsset)6696)"
          },
          {
            "astId": 18362,
            "contract": "contracts/wombat-core/pool/HighCovRatioFeePoolV2.sol:HighCovRatioFeePoolV2",
            "label": "indexOf",
            "offset": 0,
            "slot": "2",
            "type": "t_mapping(t_address,t_uint256)"
          }
        ],
        "numberOfBytes": "96"
      },
      "t_uint128": {
        "encoding": "inplace",
        "label": "uint128",
        "numberOfBytes": "16"
      },
      "t_uint256": {
        "encoding": "inplace",
        "label": "uint256",
        "numberOfBytes": "32"
      },
      "t_uint8": {
        "encoding": "inplace",
        "label": "uint8",
        "numberOfBytes": "1"
      }
    }
  }
}