{
  "address": "0x0020A8890e723CD94660A5404C4BCCBB91680db6",
  "abi": [
    {
      "anonymous": false,
      "inputs": [
        {
          "indexed": true,
          "internalType": "uint256",
          "name": "pid",
          "type": "uint256"
        },
        {
          "indexed": true,
          "internalType": "contract IERC20",
          "name": "lpToken",
          "type": "address"
        },
        {
          "indexed": false,
          "internalType": "contract IMultiRewarder",
          "name": "rewarder",
          "type": "address"
        }
      ],
      "name": "Add",
      "type": "event"
    },
    {
      "anonymous": false,
      "inputs": [
        {
          "indexed": true,
          "internalType": "address",
          "name": "user",
          "type": "address"
        },
        {
          "indexed": true,
          "internalType": "uint256",
          "name": "pid",
          "type": "uint256"
        },
        {
          "indexed": false,
          "internalType": "uint256",
          "name": "amount",
          "type": "uint256"
        }
      ],
      "name": "Deposit",
      "type": "event"
    },
    {
      "anonymous": false,
      "inputs": [
        {
          "indexed": true,
          "internalType": "address",
          "name": "user",
          "type": "address"
        },
        {
          "indexed": true,
          "internalType": "uint256",
          "name": "pid",
          "type": "uint256"
        },
        {
          "indexed": false,
          "internalType": "uint256",
          "name": "amount",
          "type": "uint256"
        }
      ],
      "name": "DepositFor",
      "type": "event"
    },
    {
      "anonymous": false,
      "inputs": [
        {
          "indexed": true,
          "internalType": "address",
          "name": "user",
          "type": "address"
        },
        {
          "indexed": true,
          "internalType": "uint256",
          "name": "pid",
          "type": "uint256"
        },
        {
          "indexed": false,
          "internalType": "uint256",
          "name": "amount",
          "type": "uint256"
        }
      ],
      "name": "EmergencyWithdraw",
      "type": "event"
    },
    {
      "anonymous": false,
      "inputs": [
        {
          "indexed": false,
          "internalType": "address",
          "name": "owner",
          "type": "address"
        },
        {
          "indexed": false,
          "internalType": "uint256",
          "name": "balance",
          "type": "uint256"
        }
      ],
      "name": "EmergencyWomWithdraw",
      "type": "event"
    },
    {
      "anonymous": false,
      "inputs": [
        {
          "indexed": true,
          "internalType": "address",
          "name": "user",
          "type": "address"
        },
        {
          "indexed": true,
          "internalType": "uint256",
          "name": "pid",
          "type": "uint256"
        },
        {
          "indexed": false,
          "internalType": "uint256",
          "name": "amount",
          "type": "uint256"
        }
      ],
      "name": "Harvest",
      "type": "event"
    },
    {
      "anonymous": false,
      "inputs": [
        {
          "indexed": true,
          "internalType": "address",
          "name": "previousOwner",
          "type": "address"
        },
        {
          "indexed": true,
          "internalType": "address",
          "name": "newOwner",
          "type": "address"
        }
      ],
      "name": "OwnershipTransferred",
      "type": "event"
    },
    {
      "anonymous": false,
      "inputs": [
        {
          "indexed": false,
          "internalType": "address",
          "name": "account",
          "type": "address"
        }
      ],
      "name": "Paused",
      "type": "event"
    },
    {
      "anonymous": false,
      "inputs": [
        {
          "indexed": true,
          "internalType": "uint256",
          "name": "pid",
          "type": "uint256"
        },
        {
          "indexed": false,
          "internalType": "contract IMultiRewarder",
          "name": "rewarder",
          "type": "address"
        }
      ],
      "name": "SetRewarder",
      "type": "event"
    },
    {
      "anonymous": false,
      "inputs": [
        {
          "indexed": false,
          "internalType": "address",
          "name": "account",
          "type": "address"
        }
      ],
      "name": "Unpaused",
      "type": "event"
    },
    {
      "anonymous": false,
      "inputs": [
        {
          "indexed": true,
          "internalType": "address",
          "name": "user",
          "type": "address"
        },
        {
          "indexed": false,
          "internalType": "uint256",
          "name": "basePartition",
          "type": "uint256"
        },
        {
          "indexed": false,
          "internalType": "uint256",
          "name": "boostedPartition",
          "type": "uint256"
        }
      ],
      "name": "UpdateEmissionPartition",
      "type": "event"
    },
    {
      "anonymous": false,
      "inputs": [
        {
          "indexed": true,
          "internalType": "address",
          "name": "user",
          "type": "address"
        },
        {
          "indexed": false,
          "internalType": "address",
          "name": "oldVeWOM",
          "type": "address"
        },
        {
          "indexed": false,
          "internalType": "address",
          "name": "newVeWOM",
          "type": "address"
        }
      ],
      "name": "UpdateVeWOM",
      "type": "event"
    },
    {
      "anonymous": false,
      "inputs": [
        {
          "indexed": true,
          "internalType": "address",
          "name": "user",
          "type": "address"
        },
        {
          "indexed": false,
          "internalType": "address",
          "name": "oldVoter",
          "type": "address"
        },
        {
          "indexed": false,
          "internalType": "address",
          "name": "newVoter",
          "type": "address"
        }
      ],
      "name": "UpdateVoter",
      "type": "event"
    },
    {
      "anonymous": false,
      "inputs": [
        {
          "indexed": true,
          "internalType": "address",
          "name": "user",
          "type": "address"
        },
        {
          "indexed": true,
          "internalType": "uint256",
          "name": "pid",
          "type": "uint256"
        },
        {
          "indexed": false,
          "internalType": "uint256",
          "name": "amount",
          "type": "uint256"
        }
      ],
      "name": "Withdraw",
      "type": "event"
    },
    {
      "inputs": [],
      "name": "ACC_TOKEN_PRECISION",
      "outputs": [
        {
          "internalType": "uint256",
          "name": "",
          "type": "uint256"
        }
      ],
      "stateMutability": "view",
      "type": "function"
    },
    {
      "inputs": [],
      "name": "REWARD_DURATION",
      "outputs": [
        {
          "internalType": "uint256",
          "name": "",
          "type": "uint256"
        }
      ],
      "stateMutability": "view",
      "type": "function"
    },
    {
      "inputs": [
        {
          "internalType": "contract IERC20",
          "name": "_lpToken",
          "type": "address"
        },
        {
          "internalType": "contract IMultiRewarder",
          "name": "_rewarder",
          "type": "address"
        }
      ],
      "name": "add",
      "outputs": [],
      "stateMutability": "nonpayable",
      "type": "function"
    },
    {
      "inputs": [],
      "name": "basePartition",
      "outputs": [
        {
          "internalType": "uint16",
          "name": "",
          "type": "uint16"
        }
      ],
      "stateMutability": "view",
      "type": "function"
    },
    {
      "inputs": [],
      "name": "boostedPartition",
      "outputs": [
        {
          "internalType": "uint256",
          "name": "",
          "type": "uint256"
        }
      ],
      "stateMutability": "view",
      "type": "function"
    },
    {
      "inputs": [
        {
          "internalType": "uint256",
          "name": "_pid",
          "type": "uint256"
        }
      ],
      "name": "calRewardPerUnit",
      "outputs": [
        {
          "internalType": "uint256",
          "name": "accWomPerShare",
          "type": "uint256"
        },
        {
          "internalType": "uint256",
          "name": "accWomPerFactorShare",
          "type": "uint256"
        }
      ],
      "stateMutability": "view",
      "type": "function"
    },
    {
      "inputs": [
        {
          "internalType": "uint256",
          "name": "_pid",
          "type": "uint256"
        },
        {
          "internalType": "uint256",
          "name": "_amount",
          "type": "uint256"
        }
      ],
      "name": "deposit",
      "outputs": [
        {
          "internalType": "uint256",
          "name": "reward",
          "type": "uint256"
        },
        {
          "internalType": "uint256[]",
          "name": "additionalRewards",
          "type": "uint256[]"
        }
      ],
      "stateMutability": "nonpayable",
      "type": "function"
    },
    {
      "inputs": [
        {
          "internalType": "uint256",
          "name": "_pid",
          "type": "uint256"
        },
        {
          "internalType": "uint256",
          "name": "_amount",
          "type": "uint256"
        },
        {
          "internalType": "address",
          "name": "_user",
          "type": "address"
        }
      ],
      "name": "depositFor",
      "outputs": [],
      "stateMutability": "nonpayable",
      "type": "function"
    },
    {
      "inputs": [
        {
          "internalType": "uint256",
          "name": "_pid",
          "type": "uint256"
        }
      ],
      "name": "emergencyWithdraw",
      "outputs": [],
      "stateMutability": "nonpayable",
      "type": "function"
    },
    {
      "inputs": [],
      "name": "emergencyWomWithdraw",
      "outputs": [],
      "stateMutability": "nonpayable",
      "type": "function"
    },
    {
      "inputs": [
        {
          "internalType": "address",
          "name": "asset",
          "type": "address"
        }
      ],
      "name": "getAssetPid",
      "outputs": [
        {
          "internalType": "uint256",
          "name": "",
          "type": "uint256"
        }
      ],
      "stateMutability": "view",
      "type": "function"
    },
    {
      "inputs": [
        {
          "internalType": "contract IERC20",
          "name": "_wom",
          "type": "address"
        },
        {
          "internalType": "contract IVeWom",
          "name": "_veWom",
          "type": "address"
        },
        {
          "internalType": "address",
          "name": "_voter",
          "type": "address"
        },
        {
          "internalType": "uint16",
          "name": "_basePartition",
          "type": "uint16"
        }
      ],
      "name": "initialize",
      "outputs": [],
      "stateMutability": "nonpayable",
      "type": "function"
    },
    {
      "inputs": [
        {
          "internalType": "uint256",
          "name": "_periodFinish",
          "type": "uint256"
        }
      ],
      "name": "lastTimeRewardApplicable",
      "outputs": [
        {
          "internalType": "uint256",
          "name": "",
          "type": "uint256"
        }
      ],
      "stateMutability": "view",
      "type": "function"
    },
    {
      "inputs": [],
      "name": "massUpdatePools",
      "outputs": [],
      "stateMutability": "nonpayable",
      "type": "function"
    },
    {
      "inputs": [
        {
          "internalType": "uint256[]",
          "name": "_pids",
          "type": "uint256[]"
        }
      ],
      "name": "migrate",
      "outputs": [],
      "stateMutability": "nonpayable",
      "type": "function"
    },
    {
      "inputs": [
        {
          "internalType": "uint256[]",
          "name": "_pids",
          "type": "uint256[]"
        }
      ],
      "name": "multiClaim",
      "outputs": [
        {
          "internalType": "uint256",
          "name": "reward",
          "type": "uint256"
        },
        {
          "internalType": "uint256[]",
          "name": "amounts",
          "type": "uint256[]"
        },
        {
          "internalType": "uint256[][]",
          "name": "additionalRewards",
          "type": "uint256[][]"
        }
      ],
      "stateMutability": "nonpayable",
      "type": "function"
    },
    {
      "inputs": [
        {
          "internalType": "address",
          "name": "_lpToken",
          "type": "address"
        },
        {
          "internalType": "uint256",
          "name": "_amount",
          "type": "uint256"
        }
      ],
      "name": "notifyRewardAmount",
      "outputs": [],
      "stateMutability": "nonpayable",
      "type": "function"
    },
    {
      "inputs": [],
      "name": "owner",
      "outputs": [
        {
          "internalType": "address",
          "name": "",
          "type": "address"
        }
      ],
      "stateMutability": "view",
      "type": "function"
    },
    {
      "inputs": [],
      "name": "pause",
      "outputs": [],
      "stateMutability": "nonpayable",
      "type": "function"
    },
    {
      "inputs": [],
      "name": "paused",
      "outputs": [
        {
          "internalType": "bool",
          "name": "",
          "type": "bool"
        }
      ],
      "stateMutability": "view",
      "type": "function"
    },
    {
      "inputs": [
        {
          "internalType": "uint256",
          "name": "_pid",
          "type": "uint256"
        },
        {
          "internalType": "address",
          "name": "_user",
          "type": "address"
        }
      ],
      "name": "pendingTokens",
      "outputs": [
        {
          "internalType": "uint256",
          "name": "pendingRewards",
          "type": "uint256"
        },
        {
          "internalType": "contract IERC20[]",
          "name": "bonusTokenAddresses",
          "type": "address[]"
        },
        {
          "internalType": "string[]",
          "name": "bonusTokenSymbols",
          "type": "string[]"
        },
        {
          "internalType": "uint256[]",
          "name": "pendingBonusRewards",
          "type": "uint256[]"
        }
      ],
      "stateMutability": "view",
      "type": "function"
    },
    {
      "inputs": [
        {
          "internalType": "uint256",
          "name": "",
          "type": "uint256"
        }
      ],
      "name": "poolInfo",
      "outputs": [
        {
          "internalType": "contract IERC20",
          "name": "lpToken",
          "type": "address"
        },
        {
          "internalType": "contract IMultiRewarder",
          "name": "rewarder",
          "type": "address"
        },
        {
          "internalType": "uint40",
          "name": "periodFinish",
          "type": "uint40"
        },
        {
          "internalType": "uint128",
          "name": "sumOfFactors",
          "type": "uint128"
        },
        {
          "internalType": "uint128",
          "name": "rewardRate",
          "type": "uint128"
        },
        {
          "internalType": "uint104",
          "name": "accWomPerShare",
          "type": "uint104"
        },
        {
          "internalType": "uint104",
          "name": "accWomPerFactorShare",
          "type": "uint104"
        },
        {
          "internalType": "uint40",
          "name": "lastRewardTimestamp",
          "type": "uint40"
        }
      ],
      "stateMutability": "view",
      "type": "function"
    },
    {
      "inputs": [],
      "name": "poolLength",
      "outputs": [
        {
          "internalType": "uint256",
          "name": "",
          "type": "uint256"
        }
      ],
      "stateMutability": "view",
      "type": "function"
    },
    {
      "inputs": [],
      "name": "renounceOwnership",
      "outputs": [],
      "stateMutability": "nonpayable",
      "type": "function"
    },
    {
      "inputs": [
        {
          "internalType": "uint256",
          "name": "_pid",
          "type": "uint256"
        }
      ],
      "name": "rewarderBonusTokenInfo",
      "outputs": [
        {
          "internalType": "contract IERC20[]",
          "name": "bonusTokenAddresses",
          "type": "address[]"
        },
        {
          "internalType": "string[]",
          "name": "bonusTokenSymbols",
          "type": "string[]"
        }
      ],
      "stateMutability": "view",
      "type": "function"
    },
    {
      "inputs": [
        {
          "internalType": "contract IMasterWombatV3",
          "name": "_newMasterWombat",
          "type": "address"
        }
      ],
      "name": "setNewMasterWombat",
      "outputs": [],
      "stateMutability": "nonpayable",
      "type": "function"
    },
    {
      "inputs": [
        {
          "internalType": "uint256",
          "name": "_pid",
          "type": "uint256"
        },
        {
          "internalType": "contract IMultiRewarder",
          "name": "_rewarder",
          "type": "address"
        }
      ],
      "name": "setRewarder",
      "outputs": [],
      "stateMutability": "nonpayable",
      "type": "function"
    },
    {
      "inputs": [
        {
          "internalType": "contract IVeWom",
          "name": "_newVeWom",
          "type": "address"
        }
      ],
      "name": "setVeWom",
      "outputs": [],
      "stateMutability": "nonpayable",
      "type": "function"
    },
    {
      "inputs": [
        {
          "internalType": "address",
          "name": "_newVoter",
          "type": "address"
        }
      ],
      "name": "setVoter",
      "outputs": [],
      "stateMutability": "nonpayable",
      "type": "function"
    },
    {
      "inputs": [
        {
          "internalType": "address",
          "name": "newOwner",
          "type": "address"
        }
      ],
      "name": "transferOwnership",
      "outputs": [],
      "stateMutability": "nonpayable",
      "type": "function"
    },
    {
      "inputs": [],
      "name": "unpause",
      "outputs": [],
      "stateMutability": "nonpayable",
      "type": "function"
    },
    {
      "inputs": [
        {
          "internalType": "uint16",
          "name": "_basePartition",
          "type": "uint16"
        }
      ],
      "name": "updateEmissionPartition",
      "outputs": [],
      "stateMutability": "nonpayable",
      "type": "function"
    },
    {
      "inputs": [
        {
          "internalType": "address",
          "name": "_user",
          "type": "address"
        },
        {
          "internalType": "uint256",
          "name": "_newVeWomBalance",
          "type": "uint256"
        }
      ],
      "name": "updateFactor",
      "outputs": [],
      "stateMutability": "nonpayable",
      "type": "function"
    },
    {
      "inputs": [
        {
          "internalType": "uint256",
          "name": "_pid",
          "type": "uint256"
        }
      ],
      "name": "updatePool",
      "outputs": [],
      "stateMutability": "nonpayable",
      "type": "function"
    },
    {
      "inputs": [
        {
          "internalType": "uint256",
          "name": "",
          "type": "uint256"
        },
        {
          "internalType": "address",
          "name": "",
          "type": "address"
        }
      ],
      "name": "userInfo",
      "outputs": [
        {
          "internalType": "uint128",
          "name": "amount",
          "type": "uint128"
        },
        {
          "internalType": "uint128",
          "name": "factor",
          "type": "uint128"
        },
        {
          "internalType": "uint128",
          "name": "rewardDebt",
          "type": "uint128"
        },
        {
          "internalType": "uint128",
          "name": "pendingWom",
          "type": "uint128"
        }
      ],
      "stateMutability": "view",
      "type": "function"
    },
    {
      "inputs": [],
      "name": "veWom",
      "outputs": [
        {
          "internalType": "contract IVeWom",
          "name": "",
          "type": "address"
        }
      ],
      "stateMutability": "view",
      "type": "function"
    },
    {
      "inputs": [],
      "name": "voter",
      "outputs": [
        {
          "internalType": "address",
          "name": "",
          "type": "address"
        }
      ],
      "stateMutability": "view",
      "type": "function"
    },
    {
      "inputs": [
        {
          "internalType": "uint256",
          "name": "_pid",
          "type": "uint256"
        },
        {
          "internalType": "uint256",
          "name": "_amount",
          "type": "uint256"
        }
      ],
      "name": "withdraw",
      "outputs": [
        {
          "internalType": "uint256",
          "name": "reward",
          "type": "uint256"
        },
        {
          "internalType": "uint256[]",
          "name": "additionalRewards",
          "type": "uint256[]"
        }
      ],
      "stateMutability": "nonpayable",
      "type": "function"
    },
    {
      "inputs": [],
      "name": "wom",
      "outputs": [
        {
          "internalType": "contract IERC20",
          "name": "",
          "type": "address"
        }
      ],
      "stateMutability": "view",
      "type": "function"
    }
  ],
  "transactionHash": "0x694eca6331ce4336f42e838959aa3f4684db1117df13e6344230da5c39417fd1",
  "args": [],
  "solcInputHash": "3059eeacc81dec00b763960485be22e5",
  "bytecode": "0x6080806040523461001657613f72908161001c8239f35b600080fdfe60a0604060805280604052600436101561001857600080fd5b60003560e01c908163081e3eda1461281f575080631526fe27146126ec5780631983dbf5146126195780632e112757146123345780633e582ae61461230c5780633f4ba83a1461224257806343de320714612126578063441a3e7014611f8757806346c96aac14611f5f5780634bc2a65714611eba5780634ed73d2814611dab5780634f00a93e14611aed57806351eb05a614611ad157806352c28fab1461163f5780635312ea8e146114345780635ade228a146114155780635c975abb146113f1578063630b5ba1146113d8578063715018a61461135b5780638456cb59146112cf5780638da5cb5b146112a757806390210d7e1461115f57806393f1a40b146110e55780639b128de614611038578063abfef11114611012578063af929a8014610f9c578063b66503cf14610c61578063b8be44e714610c33578063bc70fdbc14610bed578063be159bea14610bbd578063c5a6222e14610b95578063d1e2ac8814610b2f578063d93bf4fe146107b8578063e2bbb1581461065f578063eea016041461063e578063eeca15621461060a578063f13e55071461042d578063f2fde38b146103805763ffcd4263146101d157600080fd5b3461037b5760805160031936011261037b576004356101ee6128b9565b6060918261028f84926102008161283a565b5094600161020d83613c29565b8460009692965260d0602052608051956102878464e8d4a510006102788a6000209a6001600160a01b03809a169b8c600052602052600020956102728754916102696fffffffffffffffffffffffffffffffff98898516612f1f565b9260801c612f1f565b90612f32565b04930154928360801c90612f32565b911690612c27565b9601541690816102e3575b505050906102d16102df926102c260805151968796875260806020880152608087019061297c565b908582036080518701526129ee565b9083820360608501526128fb565b0390f35b9093506102f5919550600092506138de565b919094602460805151809581937fc031a66f00000000000000000000000000000000000000000000000000000000835260048301525afa91821561036e576102df926102d19160009161034b575b50923861029a565b61036891503d806000833e6103608183612be6565b810190613092565b38610343565b608051513d6000823e3d90fd5b600080fd5b3461037b57602060031936011261037b576103996128a3565b6001600160a01b036103b081603354163314612a7d565b8116156103c2576103c090612ac8565b005b60846080515162461bcd60e51b815260206004820152602660248201527f4f776e61626c653a206e6577206f776e657220697320746865207a65726f206160448201527f64647265737300000000000000000000000000000000000000000000000000006064820152fd5b3461037b57600060031936011261037b576001600160a01b0361045581603354163314612a7d565b8060c9541690608051517f70a0823100000000000000000000000000000000000000000000000000000000918282523060048301526020938483602481845afa801561036e5785936000916105d8575b50608051517fa9059cbb00000000000000000000000000000000000000000000000000000000815233600482015260248101919091529290839060449082906000905af191821561036e5784926105ab575b5060c95416916024608051518094819382523060048301525afa91821561036e5760009261055b575b60805151338152602081018490527f2b58f1b72aa1f2865f8da73af0eaff3a2b5b670c59fed83005919fe6c23cf35c9080604081015b0390a1005b90809250813d83116105a4575b6105728183612be6565b8101031261037b57516105567f2b58f1b72aa1f2865f8da73af0eaff3a2b5b670c59fed83005919fe6c23cf35c610520565b503d610568565b6105ca90833d85116105d1575b6105c28183612be6565b810190613028565b50846104f7565b503d6105b8565b84819592503d8311610603575b6105ef8183612be6565b8101031261037b57915184929060006104a5565b503d6105e5565b3461037b57602060031936011261037b5760043580421060001461063657506020425b60805151908152f35b60209061062d565b3461037b57600060031936011261037b5760206080515164e8d4a510008152f35b3461037b5761066d366128e5565b61067c60026065541415612f77565b600260655561069060ff6097541615612b9b565b6106998261283a565b5090826000526001600160a01b0360209360d085526106ed6106e6846fffffffffffffffffffffffffffffffff60805180600020336000528a526000206106df86612d38565b5416612f32565b33836134a2565b9454608051517f23b872dd00000000000000000000000000000000000000000000000000000000815233600482015230602482015260448101869052919591949193879186916064918391600091165af193841561036e576102df9461079b575b50608051519081527f90890809c654f11d6e72a28fa60149770a0d11ec6c92319d6ceb2bb0a4ea1a15863392a36001606555608051519384938452608051908401526080518301906128fb565b6107b190873d89116105d1576105c28183612be6565b508661074e565b3461037b576107c63661292f565b6002916107d7836065541415612f77565b8260655560cb6001600160a01b0381541615610aea576108006107fb368585612fda565b61310c565b50505060005b838110610814576001606555005b8060051b83013560005260d06020526080518060002033600052602052600020906fffffffffffffffffffffffffffffffff8254168061085f575b5061085a9150612d01565b610806565b6108eb60206108738460051b88013561283a565b50926001600160a01b038454166001600160a01b038854166000608051518096819582947f095ea7b3000000000000000000000000000000000000000000000000000000008452600484019092916fffffffffffffffffffffffffffffffff6020916001600160a01b03604085019616845216910152565b03925af1801561036e57610acb575b506001600160a01b038454166001600160a01b038254169360805151947faf929a8000000000000000000000000000000000000000000000000000000000865260048601526024946020818781865afa90811561036e57600091610a99575b506fffffffffffffffffffffffffffffffff825416833b1561037b576064600092836080515196879485937f90210d7e00000000000000000000000000000000000000000000000000000000855260048501528b8401523360448401525af191821561036e578992610a45575b5061085a94505460801c9101907fffffffffffffffffffffffffffffffff000000000000000000000000000000006fffffffffffffffffffffffffffffffff610a13845493828516613040565b1691161790558060051b84013560005260d060205260006001608051808320338452602052822082815501558661084f565b915091929367ffffffffffffffff8211610a6c575061085a939291889160805152896109c6565b7f4e487b710000000000000000000000000000000000000000000000000000000060005260416004526000fd5b90506020813d602011610ac3575b81610ab460209383612be6565b8101031261037b57518a610959565b3d9150610aa7565b610ae39060203d6020116105d1576105c28183612be6565b50876108fa565b60646080515162461bcd60e51b815260206004820152600960248201527f746f2077686572653f00000000000000000000000000000000000000000000006044820152fd5b3461037b57602060031936011261037b576004356001600160a01b0380821680920361037b57610b6490603354163314612a7d565b7fffffffffffffffffffffffff000000000000000000000000000000000000000060cb54161760cb55600060805151f35b3461037b57600060031936011261037b5760206001600160a01b0360c9541660805151908152f35b3461037b57600060031936011261037b57602061ffff610be38160cc5460a01c166138cc565b1660805151908152f35b3461037b57602060031936011261037b57610c096004356138de565b6102df60805191610c258351948594855260805185019061297c565b9083820360208501526129ee565b3461037b57602060031936011261037b57610c4f600435613c29565b60805151918252602082015260805190f35b3461037b576080518060031936011261037b57610c7c6128a3565b6024918235916001600160a01b03918260cc54163303610f3457508215610eef571660005260d16020526080516000205460018110610e1757600019610cc2910161283a565b50600381019064ffffffffff9182815460d01c1693600183019484865460a01c169081811015600014610e45575050610d9b926002610d0862093a80610d4b9404613dff565b9101906fffffffffffffffffffffffffffffffff7fffffffffffffffffffffffffffffffff0000000000000000000000000000000083549260801b169116179055565b80547fff0000000000ffffffffffffffffffffffffffffffffffffffffffffffffffff1642841660d01b7effffffffff000000000000000000000000000000000000000000000000000016179055565b7ffffffffffffffffffffffffffffffffffffffffffffffffffffffffffff6c57f4211610e17576103c0925062093a804201167fffffffffffffff0000000000ffffffffffffffffffffffffffffffffffffffff78ffffffffff000000000000000000000000000000000000000083549260a01b169116179055565b827f4e487b710000000000000000000000000000000000000000000000000000000060005260116004526000fd5b9091818310610ec15762093a80610e76610e7c92610272610ebc968a6002610d9b9b0197885460801c920316612f1f565b04613dff565b6fffffffffffffffffffffffffffffffff7fffffffffffffffffffffffffffffffff0000000000000000000000000000000083549260801b169116179055565b610d4b565b877f4e487b710000000000000000000000000000000000000000000000000000000060005260116004526000fd5b606484601f608051519162461bcd60e51b8352602060048401528201527f6e6f74696679526577617264416d6f756e743a207a65726f20616d6f756e74006044820152fd5b5162461bcd60e51b8152602060048201526021818601527f4d6173746572576f6d6261743a2063616c6c6572206973206e6f7420566f746560448201527f72000000000000000000000000000000000000000000000000000000000000006064820152608490fd5b3461037b57602060031936011261037b576001600160a01b03610fbd6128a3565b1660005260d1602052608051806000205460018110610fe3576000196020925191018152f35b7f4e487b7100000000000000000000000000000000000000000000000000000000600052601160045260246000fd5b3461037b57600060031936011261037b57602061ffff60cc5460a01c1660805151908152f35b3461037b57602060031936011261037b576110516128a3565b6001600160a01b03809161106a82603354163314612a7d565b16801561037b5760ca80547fffffffffffffffffffffffff0000000000000000000000000000000000000000811683179091556080515192166001600160a01b03908116835216602082015233907fa0956d8e03557278fdb89913cec4e0f21da09587edf25b3eecc0079cdb757ef59080604081015b0390a2005b3461037b576080518060031936011261037b576080906111036128b9565b60043560005260d06020526001600160a01b038260002091166000526020528060002090600182549201549051916fffffffffffffffffffffffffffffffff908181168452841c602084015281168351830152821c6060820152f35b3461037b57606060031936011261037b5760043560243561117e6128cf565b9061118e60026065541415612f77565b60026065556111a260ff6097541615612b9b565b6111ab8361283a565b508360005260209060d08252608051906111fe82600020956111f7866fffffffffffffffffffffffffffffffff6001600160a01b03968785169a8b60005289526000206106df8c612d38565b90886134a2565b505054608051517f23b872dd000000000000000000000000000000000000000000000000000000008152336004820152306024820152604481018590529391839185916064918391600091165af192831561036e577f16f3fbfd4bcc50a5cecb2e53e398a1ad77d89f63288ef540d862b264ed57eb1f9361128a575b5060805151908152a36001606555005b6112a090833d85116105d1576105c28183612be6565b508561127a565b3461037b57600060031936011261037b5760206001600160a01b036033541660805151908152f35b3461037b57600060031936011261037b576112f66001600160a01b03603354163314612a7d565b60017fffffffffffffffffffffffffffffffffffffffffffffffffffffffffffffff0060975461132960ff821615612b9b565b16176097557f62e78cea01bee320cd4e420270b5ea74000d11b0c9f74754ebdbfc544b05a258602060805151338152a1005b3461037b57600060031936011261037b5760006033547fffffffffffffffffffffffff00000000000000000000000000000000000000006001600160a01b038216916113a8338414612a7d565b166033558160805151917f8be0079c531659141344cd1fd0a4f28419497f9722a3daafe3b4186f6b6457e08284a3f35b3461037b57600060031936011261037b576103c0612d10565b3461037b57600060031936011261037b57602060ff60975416608051519015158152f35b3461037b57600060031936011261037b5760206080515162093a808152f35b3461037b5760208060031936011261037b576004359061145960026065541415612f77565b60026065556114678261283a565b508260005260d082526080519081600020336000528352816000206001600160a01b03600085611507838654166fffffffffffffffffffffffffffffffff978887541690519485809481937fa9059cbb00000000000000000000000000000000000000000000000000000000835233600484019092916fffffffffffffffffffffffffffffffff6020916001600160a01b03604085019616845216910152565b03925af1801561036e57611622575b5060016115228761283a565b50015416806115ad575b50600260019201805493611546835460801c828716613040565b167fffffffffffffffffffffffffffffffff0000000000000000000000000000000080951617905560008155019081541690557fbb757047c2b5f3974fe26b7c10f732e7bce710b0952a71082702781e62ae05956080515191600083523392a36001606555005b9160008093604460805151809681937fc37232880000000000000000000000000000000000000000000000000000000083523360048401528160248401525af190811561036e57600193600292611607575b50925061152c565b61161b903d806000833e6103608183612be6565b50876115ff565b61163890863d88116105d1576105c28183612be6565b5086611516565b3461037b5760805160031936011261037b576116596128a3565b6116616128b9565b906001600160a01b03809161167b82603354163314612a7d565b1691823b15611a6657811690813b15801590611a5e575b156119f3578260005260ce60205260805180600020546119b0575064ffffffffff804216906080519182519261010084019084821067ffffffffffffffff831117611981575285835260208301858152608051840182815260608501946000865260808101956000875260a08201926000845260c08301976000895260e0840196875260cf546801000000000000000081101561198157806001611739920160cf5561283a565b939093611952576117d96118a7978a61181e958e6118f79f60039a5116907fffffffffffffffffffffffff000000000000000000000000000000000000000091828b5416178a5560018a019451169084541617835551167fffffffffffffff0000000000ffffffffffffffffffffffffffffffffffffffff78ffffffffff000000000000000000000000000000000000000083549260a01b169116179055565b51905160801b7fffffffffffffffffffffffffffffffff00000000000000000000000000000000166fffffffffffffffffffffffffffffffff91909116176002830155565b01946cffffffffffffffffffffffffff809251167fffffffffffffffffffffffffffffffffffffff00000000000000000000000000875416178655511684907fffffffffffff00000000000000000000000000ffffffffffffffffffffffffff79ffffffffffffffffffffffffff0000000000000000000000000083549260681b169116179055565b5182547fff0000000000ffffffffffffffffffffffffffffffffffffffffffffffffffff16911660d01b7effffffffff000000000000000000000000000000000000000000000000000016179055565b60cf548260005260d16020526080516000205561191382612c32565b5060cf5460018110610fe35760206000197fec85b1d1f037ff3a8722aaf5d4d8e7d93c7ff10c056430c18d76a9ec23aa397e92608051519485520192a3005b7f4e487b7100000000000000000000000000000000000000000000000000000000600052600060045260246000fd5b7f4e487b7100000000000000000000000000000000000000000000000000000000600052604160045260246000fd5b6064905162461bcd60e51b815260206004820152601560248201527f6164643a204c5020616c726561647920616464656400000000000000000000006044820152fd5b60846080515162461bcd60e51b815260206004820152602660248201527f6164643a207265776172646572206d75737420626520636f6e7472616374206f60448201527f72207a65726f00000000000000000000000000000000000000000000000000006064820152fd5b508115611692565b60846080515162461bcd60e51b815260206004820152602660248201527f6164643a204c5020746f6b656e206d75737420626520612076616c696420636f60448201527f6e747261637400000000000000000000000000000000000000000000000000006064820152fd5b3461037b57602060031936011261037b576103c0600435612d38565b3461037b576080518060031936011261037b57611b086128a3565b90602435906001600160a01b03908160ca54163303611d42575060cf54921660005b838110611b3357005b80600052602060d0815260805190816000209084600052526000206fffffffffffffffffffffffffffffffff8082541615611d3757611b7183612d38565b611b7a8361283a565b50908254906003830192818454936cffffffffffffffffffffffffff9485811683831690611ba791612f1f565b64e8d4a5100092606892849291611bc591851c8a169060801c612f1f565b611bce91612f32565b04956001890196875490858216611be491612c27565b611bed90613dff565b611bf99160801c61347d565b87546fffffffffffffffffffffffffffffffff1660809190911b7fffffffffffffffffffffffffffffffff000000000000000000000000000000001617875588549784808a16611c498f82612f1f565b90611c5391613ebe565b9a611c5d8c613dff565b81546fffffffffffffffffffffffffffffffff1660809190911b7fffffffffffffffffffffffffffffffff00000000000000000000000000000000161781555416905490828216611cad91612f1f565b921c16611cba9089612f1f565b611cc391612f32565b04611ccd90613dff565b16927fffffffffffffffffffffffffffffffff0000000000000000000000000000000093848254161790556002019384549360801c9082851690611d1091612f32565b90611d1a91612c27565b611d2390613dff565b169116179055611d3290612d01565b611b2a565b5050611d3290612d01565b6084905162461bcd60e51b815260206004820152602160248201527f4d6173746572576f6d6261743a2063616c6c6572206973206e6f74205665576f60448201527f6d000000000000000000000000000000000000000000000000000000000000006064820152fd5b3461037b57611de96107fb611dbf3661292f565b611dce60026065541415612f77565b6002606555611de260ff6097541615612b9b565b3691612fda565b91906001908160655560805151928352611e0f60209160608386015260608501906128fb565b908382036080518501528451908183528083019281808460051b8301019701936000915b848310611e405787890388f35b909192939495887fffffffffffffffffffffffffffffffffffffffffffffffffffffffffffffffe083839b030184528588518180825194858152019101926000905b85818310611ea3575050508192509801930193019194939290979597611e33565b919380919386518152019401920188929391611e82565b3461037b57602060031936011261037b57611ed36128a3565b7f9db5e84498cff91ecd1f5666fa2ecf069530eb27baffabaccefafc06bbd3cee36001600160a01b0391611f0c83603354163314612a7d565b60cc80548483167fffffffffffffffffffffffff00000000000000000000000000000000000000008216179091556080515193166001600160a01b039081168452166020830152339180604081016110e0565b3461037b57600060031936011261037b5760206001600160a01b0360cc541660805151908152f35b3461037b57611f95366128e5565b611fa460026065541415612f77565b6002606555611fb860ff6097541615612b9b565b611fc18261283a565b50908260005260209260d0845260805180600020336000528552806000206fffffffffffffffffffffffffffffffff918483835416106120e357506106e684849361201e936120176001600160a01b0397612d38565b5416612c27565b9454608051517fa9059cbb00000000000000000000000000000000000000000000000000000000815233600482015260248101869052919591949193879186916044918391600091165af193841561036e576102df946120c6575b50608051519081527ff279e6a1f5e320cca91135676d9cb6e44ca8a08c0b88342bcdb1144f6511b568863392a36001606555608051519384938452608051908401526080518301906128fb565b6120dc90873d89116105d1576105c28183612be6565b5086612079565b86606491519062461bcd60e51b82526004820152601c60248201527f77697468647261773a206e6f7420656e6f7567682062616c616e6365000000006044820152fd5b3461037b5760805160031936011261037b576004356121436128b9565b6001600160a01b039061215b82603354163314612a7d565b16803b1580159061223a575b156121cf5760207f858b2cab7b344488967106b3c498c1f59de0a26b500923d9e4e06918909cd51191600161219b8561283a565b5001817fffffffffffffffffffffffff000000000000000000000000000000000000000082541617905560805151908152a2005b60846080515162461bcd60e51b815260206004820152602660248201527f7365743a207265776172646572206d75737420626520636f6e7472616374206f60448201527f72207a65726f00000000000000000000000000000000000000000000000000006064820152fd5b508015612167565b3461037b57600060031936011261037b576122696001600160a01b03603354163314612a7d565b60975460ff8116156122c7577fffffffffffffffffffffffffffffffffffffffffffffffffffffffffffffff00166097557f5db9ee0a495bf2e6ff9c91a7834c1ba4fdd244a5e8aa4e537bd38aeae4b073aa602060805151338152a1005b60646080515162461bcd60e51b815260206004820152601460248201527f5061757361626c653a206e6f74207061757365640000000000000000000000006044820152fd5b3461037b57600060031936011261037b5760206001600160a01b0360ca541660805151908152f35b3461037b57608060031936011261037b5761234d6128a3565b6123556128b9565b9061235e6128cf565b60643561ffff811680820361037b576000549360ff8560081c168060001461260f57303b155b156125a457159485612575575b506001600160a01b03809116918215612530576103e8106124c5577fffffffffffffffffffff00000000000000000000000000000000000000000000916123e860ff60005460081c166123e381612b2a565b612b2a565b6123f133612ac8565b816000549761241360ff8a60081c1661240981612b2a565b6001606555612b2a565b7fffffffffffffffffffffffffffffffffffffffffffffffffffffffffffffff00609754166097557fffffffffffffffffffffffff0000000000000000000000000000000000000000928360c954161760c955169060ca54161760ca5575ffff000000000000000000000000000000000000000060cc549360a01b1693169116171760cc5561249e57005b7fffffffffffffffffffffffffffffffffffffffffffffffffffffffffffff00ff16600055005b60846080515162461bcd60e51b815260206004820152602760248201527f6261736520706172746974696f6e206d75737420626520696e2072616e67652060448201527f302c2031303030000000000000000000000000000000000000000000000000006064820152fd5b60646080515162461bcd60e51b815260206004820152601a60248201527f776f6d20616464726573732063616e6e6f74206265207a65726f0000000000006044820152fd5b7fffffffffffffffffffffffffffffffffffffffffffffffffffffffffffff0000166101011760005586612391565b60846080515162461bcd60e51b815260206004820152602e60248201527f496e697469616c697a61626c653a20636f6e747261637420697320616c72656160448201527f647920696e697469616c697a65640000000000000000000000000000000000006064820152fd5b60ff861615612384565b3461037b57602060031936011261037b5760043561ffff8082169081830361037b576126516001600160a01b03603354163314612a7d565b6103e8821161037b576126b3600093612668612d10565b60cc547fffffffffffffffffffff0000ffffffffffffffffffffffffffffffffffffffff75ffff00000000000000000000000000000000000000008360a01b1691161760cc556138cc565b60805151928352166020820152608051907f7fd921cf733c788915a229b0ea58095c44ae2c275ed7835501e5135fe3c1ed05823392a251f35b3461037b57602060031936011261037b5760043560cf5481101561037b576101009060cf60005260021b6001600160a01b039081817facb8d954e2cfef495862221e91bd7523613cf8808827cb33edfe4904cc51bf29015416917facb8d954e2cfef495862221e91bd7523613cf8808827cb33edfe4904cc51bf2a820154917facb8d954e2cfef495862221e91bd7523613cf8808827cb33edfe4904cc51bf2c7facb8d954e2cfef495862221e91bd7523613cf8808827cb33edfe4904cc51bf2b82015491015491608051519485528316602085015264ffffffffff809360a01c166080518501526fffffffffffffffffffffffffffffffff8116606085015260801c60808401526cffffffffffffffffffffffffff80821660a08501528160681c1660c084015260d01c1660e0820152f35b3461037b57600060031936011261037b5760209060cf548152f35b60cf548110156128745760cf60005260021b7facb8d954e2cfef495862221e91bd7523613cf8808827cb33edfe4904cc51bf290190600090565b7f4e487b7100000000000000000000000000000000000000000000000000000000600052603260045260246000fd5b600435906001600160a01b038216820361037b57565b602435906001600160a01b038216820361037b57565b604435906001600160a01b038216820361037b57565b600319604091011261037b576004359060243590565b90815180825260208080930193019160005b82811061291b575050505090565b83518552938101939281019260010161290d565b90602060031983011261037b5760043567ffffffffffffffff9283821161037b578060238301121561037b57816004013593841161037b5760248460051b8301011161037b576024019190565b90815180825260208080930193019160005b82811061299c575050505090565b83516001600160a01b03168552938101939281019260010161298e565b918091926000905b8282106129d95750116129d2575050565b6000910152565b915080602091830151818601520182916129c1565b90808183519182825260208080809401958560051b01019501936000915b848310612a1c5750505050505090565b9091929394958480806001937fffffffffffffffffffffffffffffffffffffffffffffffffffffffffffffffe080878303018852601f8c51612a69815180928187528780880191016129b9565b011601019801930193019194939290612a0c565b15612a8457565b606460405162461bcd60e51b815260206004820152602060248201527f4f776e61626c653a2063616c6c6572206973206e6f7420746865206f776e65726044820152fd5b603354906001600160a01b0380911691827fffffffffffffffffffffffff0000000000000000000000000000000000000000821617603355167f8be0079c531659141344cd1fd0a4f28419497f9722a3daafe3b4186f6b6457e06000604051a3565b15612b3157565b608460405162461bcd60e51b815260206004820152602b60248201527f496e697469616c697a61626c653a20636f6e7472616374206973206e6f74206960448201527f6e697469616c697a696e670000000000000000000000000000000000000000006064820152fd5b15612ba257565b606460405162461bcd60e51b815260206004820152601060248201527f5061757361626c653a20706175736564000000000000000000000000000000006044820152fd5b90601f7fffffffffffffffffffffffffffffffffffffffffffffffffffffffffffffffe0910116810190811067ffffffffffffffff82111761198157604052565b818110610fe3570390565b600081815260ce6020526040812054612cfc5760cd5468010000000000000000811015612ccf57600181018060cd55811015612ca25790826040927f83978b4c69c48dd978ab43fe30f077615294f938fb7f936d9eb340e51ea7db2e015560cd5492815260ce6020522055600190565b6024827f4e487b710000000000000000000000000000000000000000000000000000000081526032600452fd5b6024827f4e487b710000000000000000000000000000000000000000000000000000000081526041600452fd5b905090565b6000198114610fe35760010190565b60cf5460005b818110612d21575050565b80612d2e612d3392612d38565b612d01565b612d16565b612d418161283a565b50906003820180549164ffffffffff90818460d01c164211612d65575b5050505050565b612dbc612db1612e6d957fffffffffffffffffffffffffffffffffffffff000000000000000000000000006cffffffffffffffffffffffffff612daa612e0796613c29565b9490613e60565b169116178555613e60565b83547fffffffffffff00000000000000000000000000ffffffffffffffffffffffffff1660689190911b79ffffffffffffffffffffffffff0000000000000000000000000016178355565b80600185015460a01c16804210600014612f005750425b82547fff0000000000ffffffffffffffffffffffffffffffffffffffffffffffffffff16911660d01b7effffffffff000000000000000000000000000000000000000000000000000016179055565b6001600160a01b038060cc54169182612e88575b8080612d5e565b5416813b1561037b576000916024839260405194859384927f63453ae100000000000000000000000000000000000000000000000000000000845260048401525af18015612ef457612edc575b8080612e81565b67ffffffffffffffff81116119815760405238612ed5565b6040513d6000823e3d90fd5b612e1e565b64e8d4a51000908060001904821181151516610fe3570290565b8060001904821181151516610fe3570290565b81198111610fe3570190565b8115612f48570490565b7f4e487b7100000000000000000000000000000000000000000000000000000000600052601260045260246000fd5b15612f7e57565b606460405162461bcd60e51b815260206004820152601f60248201527f5265656e7472616e637947756172643a207265656e7472616e742063616c6c006044820152fd5b67ffffffffffffffff81116119815760051b60200190565b9291612fe582612fc2565b91612ff36040519384612be6565b829481845260208094019160051b810192831161037b57905b8282106130195750505050565b8135815290830190830161300c565b9081602091031261037b5751801515810361037b5790565b6fffffffffffffffffffffffffffffffff9182169116818110610fe3570390565b60005b82811061307057505050565b606082820152602001613064565b80518210156128745760209160051b010190565b602090818184031261037b5780519067ffffffffffffffff821161037b57019180601f8401121561037b5782516130c881612fc2565b936130d66040519586612be6565b818552838086019260051b82010192831161037b578301905b8282106130fd575050505090565b815181529083019083016130ef565b90613158916000815161311e81612fc2565b9061312c6040519283612be6565b8082527fffffffffffffffffffffffffffffffffffffffffffffffffffffffffffffffe0958691612fc2565b013660208301378061319284519661318861317289612fc2565b986131806040519a8b612be6565b808a52612fc2565b0160208801613061565b8560005b85518110156133fb576131a9818761307e565b5160005260d060205260406000203360005260205260406000206131d66131d0838961307e565b51612d38565b805490876fffffffffffffffffffffffffffffffff8316613203575b5050506131fe90612d01565b613196565b6fffffffffffffffffffffffffffffffff976132fb6001600160a01b03936132396132338860019699989961307e565b5161283a565b509264e8d4a5100061327860038601546102728f61326a8d6cffffffffffffffffffffffffff928386169116612f1f565b9260681c168c60801c612f1f565b049161329861328f87830154948560801c90612f32565b8e851690612c27565b9c8d931686820155856fffffffffffffffffffffffffffffffff6132f264e8d4a51000610e768d61027260038c0154916cffffffffffffffffffffffffff6132e4818516898416612f1f565b9360681c169060801c612f1f565b16910155612f32565b98613306858a61307e565b52613311848b61307e565b5161331c858a61307e565b516040519081527f71bab65ced2e5750775a0613be067df48ef06cf92a496ebf7663ae066092495460203392a3015416918261335c575b819250876131f2565b6040517fc37232880000000000000000000000000000000000000000000000000000000081523360048201526fffffffffffffffffffffffffffffffff919091166024820152916000908390604490829084905af18015612ef4576131fe926000916133e0575b506133ce828b61307e565b526133d9818a61307e565b5038613353565b6133f591503d806000833e6103608183612be6565b386133c3565b5060c9546040517fa9059cbb000000000000000000000000000000000000000000000000000000008152336004820152602481018690529497509195909450929150602090829060449082906000906001600160a01b03165af18015612ef4576134625750565b61347a9060203d6020116105d1576105c28183612be6565b50565b906fffffffffffffffffffffffffffffffff8080931691168092038111610fe3570190565b60009360609390926134b38361283a565b508360005260d060205260406000206001600160a01b03831660005260205260406000209384546fffffffffffffffffffffffffffffffff81169081158015906138bc575b613797575b5050506fffffffffffffffffffffffffffffffff61351a84613dff565b16927fffffffffffffffffffffffffffffffff000000000000000000000000000000009260248585885416179586885560206001600160a01b0360ca5416604051938480927f70a082310000000000000000000000000000000000000000000000000000000082526001600160a01b03881660048301525afa918215612ef457600092613761575b506135bc816135b7613602946135c194612f1f565b613ebe565b613dff565b87546fffffffffffffffffffffffffffffffff1660809190911b7fffffffffffffffffffffffffffffffff0000000000000000000000000000000016178755565b61364564e8d4a51000610e7688546102726003880154916cffffffffffffffffffffffffff6132e48185166fffffffffffffffffffffffffffffffff8416612f1f565b6fffffffffffffffffffffffffffffffff600188019116858254161790556001600160a01b0360018401541690816136c1575b5050506136b96fffffffffffffffffffffffffffffffff6136b36002829401966136ae88549760801c915460801c84891661347d565b613040565b16613dff565b169116179055565b6040517fc37232880000000000000000000000000000000000000000000000000000000081526001600160a01b039190911660048201526024810192909252919650906000908290604490829084905af18015612ef4576fffffffffffffffffffffffffffffffff6136b360026136b9938395600091613746575b5099945050613678565b61375b91503d806000833e6103608183612be6565b3861373c565b91506020823d60201161378f575b8161377c60209383612be6565b8101031261037b579051906135bc6135a2565b3d915061376f565b64e8d4a51000929950906102726137c9926003860154926132e46cffffffffffffffffffffffffff9182861690612f1f565b04966fffffffffffffffffffffffffffffffff6137fb6137f260018801549a8b60801c90612f32565b828b1690612c27565b9816600186015560c9546040517fa9059cbb0000000000000000000000000000000000000000000000000000000081526001600160a01b038581166004830152602482018b9052909160209183916044918391600091165af18015612ef45761389d575b506040518881527f71bab65ced2e5750775a0613be067df48ef06cf92a496ebf7663ae066092495460206001600160a01b03861692a33880806134fd565b6138b59060203d6020116105d1576105c28183612be6565b503861385f565b50600187015460801c15156134f8565b61ffff166103e8818110610fe3570390565b6138e960019161283a565b5001546001600160a01b03908116918215613c20576040928351928380927fc2b18aa0000000000000000000000000000000000000000000000000000000008252600091829160049586915afa948515613c14578195613b75575b50849585519261395384612fc2565b9261396083519485612be6565b8484527fffffffffffffffffffffffffffffffffffffffffffffffffffffffffffffffe08061398e87612fc2565b019261399e602094858801613061565b8599835b8881106139b55750505050505050505050565b89836139c1838561307e565b5116613a5c5750865187810181811067ffffffffffffffff821117613a30578852600381527f424e42000000000000000000000000000000000000000000000000000000000087820152613a2b9190613a1a828b61307e565b52613a25818a61307e565b50612d01565b6139a2565b60248760418e7f4e487b7100000000000000000000000000000000000000000000000000000000835252fd5b908584613a69838661307e565b51168951938480927f95d89b410000000000000000000000000000000000000000000000000000000082525afa8015613b6b578690613ab2575b613a2b9250613a1a828b61307e565b50903d8087833e613ac38183612be6565b8101908781830312613b6757805167ffffffffffffffff91828211613b635701601f92808483011215613b63578151928311613b3657613b0b8a898d51968601160185612be6565b828452898383010111613b32578291613b2d918a80613a2b97960191016129b9565b613aa3565b8780fd5b5060248860418f7f4e487b7100000000000000000000000000000000000000000000000000000000835252fd5b8880fd5b8680fd5b88513d88823e3d90fd5b9094503d8086833e613b878183612be6565b8101906020908181840312613b675780519067ffffffffffffffff8211613b3257019180601f84011215613b67578251613bc081612fc2565b93613bcd8a519586612be6565b818552838086019260051b820101928311613b63578301905b828210613bf857505050509338613944565b81518681168103613c10578152908301908301613be6565b8980fd5b508551903d90823e3d90fd5b60609250829150565b90613c3560249261283a565b509060206001600160a01b03835416604051948580927f70a082310000000000000000000000000000000000000000000000000000000082523060048301525afa928315612ef457600093613dc9575b5060038201546cffffffffffffffffffffffffff808216908260681c169385159283159384613db5575b613dad576002613ce4613cf29264ffffffffff80600187015460a01c16804210600014613da7575042915b60d01c1690612c27565b920154918260801c90612f1f565b90613cfc82612f05565b9661ffff93613d138560cc5460a01c16809a612f1f565b916103e8968160001904881116610fe357613d349287610272920290612f3e565b966fffffffffffffffffffffffffffffffff809216938415159384613d5d575b50505050505050565b90613d78613d72613d7f94939a98999a612f05565b926138cc565b1690612f1f565b91838204861116610fe357613d9a9461027293021690612f3e565b9038808080808080613d54565b91613cda565b509094505050565b5064ffffffffff8160d01c16421115613caf565b90926020823d8211613df7575b81613de360209383612be6565b81010312613df45750519138613c85565b80fd5b3d9150613dd6565b6fffffffffffffffffffffffffffffffff90818111613e1c571690565b606460405162461bcd60e51b815260206004820152601060248201527f75696e74313238206f766572666c6f77000000000000000000000000000000006044820152fd5b6cffffffffffffffffffffffffff90818111613e7a571690565b606460405162461bcd60e51b815260206004820152601060248201527f75696e74313034206f766572666c6f77000000000000000000000000000000006044820152fd5b919060006003841115613f2d57508281118015613f25575b15613f1f5750815b613ef183613eec8184612f3e565b612f32565b600190811c915b848303613f0457505050565b90919350613f1684613eec8184612f3e565b821c9190613ef8565b91613ede565b508015613ed6565b929050613f3657565b6001915056fea26469706673582212203deec32b85e907f8a06c1cffbdcf3f81476c4a682c687f325105251a7cdadf8864736f6c634300080f0033",
  "devdoc": {
    "details": "Updates: - Compatible with gauge voting",
    "kind": "dev",
    "methods": {
      "add(address,address)": {
        "details": "Reverts if the same LP token is added more than once.",
        "params": {
          "_lpToken": "the corresponding lp token",
          "_rewarder": "the rewarder"
        }
      },
      "deposit(uint256,uint256)": {
        "details": "it is possible to call this function with _amount == 0 to claim current rewards",
        "params": {
          "_amount": "amount to deposit",
          "_pid": "the pool id"
        }
      },
      "depositFor(uint256,uint256,address)": {
        "details": "user must initiate transaction from masterchef",
        "params": {
          "_amount": "amount to deposit",
          "_pid": "the pool id",
          "_user": "the user being represented"
        }
      },
      "emergencyWithdraw(uint256)": {
        "params": {
          "_pid": "the pool id"
        }
      },
      "massUpdatePools()": {
        "details": "Be careful of gas spending!"
      },
      "migrate(uint256[])": {
        "details": "Assume the orginal MasterWombat has stopped emisions hence we skip IVoter(voter).distribute() to save gas cost"
      },
      "multiClaim(uint256[])": {
        "params": {
          "_pids": "array pids, pools to claim"
        }
      },
      "notifyRewardAmount(address,uint256)": {
        "details": "Refer to synthetix/StakingRewards.sol notifyRewardAmount Note: This looks safe from reentrancy."
      },
      "owner()": {
        "details": "Returns the address of the current owner."
      },
      "pause()": {
        "details": "pause pool, restricting certain operations"
      },
      "paused()": {
        "details": "Returns true if the contract is paused, and false otherwise."
      },
      "pendingTokens(uint256,address)": {
        "params": {
          "_pid": "the pool id",
          "_user": "the user address"
        }
      },
      "renounceOwnership()": {
        "details": "Leaves the contract without owner. It will not be possible to call `onlyOwner` functions anymore. Can only be called by the current owner. NOTE: Renouncing ownership will leave the contract without an owner, thereby removing any functionality that is only available to the owner."
      },
      "rewarderBonusTokenInfo(uint256)": {
        "params": {
          "_pid": "the pool id"
        }
      },
      "setRewarder(uint256,address)": {
        "params": {
          "_pid": "the pool id",
          "_rewarder": "the rewarder"
        }
      },
      "setVeWom(address)": {
        "params": {
          "_newVeWom": "the new VeWom address"
        }
      },
      "setVoter(address)": {
        "params": {
          "_newVoter": "the new Voter address"
        }
      },
      "transferOwnership(address)": {
        "details": "Transfers ownership of the contract to a new account (`newOwner`). Can only be called by the current owner."
      },
      "unpause()": {
        "details": "unpause pool, enabling certain operations"
      },
      "updateEmissionPartition(uint16)": {
        "params": {
          "_basePartition": "the future base partition"
        }
      },
      "updateFactor(address,uint256)": {
        "details": "can only be called by veWom",
        "params": {
          "_newVeWomBalance": "the amount of veWOM",
          "_user": "the user to update"
        }
      },
      "updatePool(uint256)": {
        "params": {
          "_pid": "the pool id"
        }
      },
      "withdraw(uint256,uint256)": {
        "params": {
          "_amount": "the amount to withdraw",
          "_pid": "the pool id"
        }
      }
    },
    "title": "MasterWombatV3",
    "version": 1
  },
  "userdoc": {
    "kind": "user",
    "methods": {
      "add(address,address)": {
        "notice": "Add a new lp to the pool. Can only be called by the owner."
      },
      "deposit(uint256,uint256)": {
        "notice": "Deposit LP tokens to MasterChef for WOM allocation."
      },
      "depositFor(uint256,uint256,address)": {
        "notice": "Deposit LP tokens to MasterChef for WOM allocation on behalf of user"
      },
      "emergencyWithdraw(uint256)": {
        "notice": "Withdraw without caring about rewards. EMERGENCY ONLY."
      },
      "emergencyWomWithdraw()": {
        "notice": "In case we need to manually migrate WOM funds from MasterChef Sends all remaining wom from the contract to the owner"
      },
      "massUpdatePools()": {
        "notice": "Update reward variables for all pools."
      },
      "migrate(uint256[])": {
        "notice": "Helper function to migrate fund from multiple pools to the new MasterWombat.user must initiate transaction from masterchef"
      },
      "multiClaim(uint256[])": {
        "notice": "claims rewards for multiple pids"
      },
      "notifyRewardAmount(address,uint256)": {
        "notice": "Distribute WOM over a period of 7 days"
      },
      "pendingTokens(uint256,address)": {
        "notice": "View function to see pending WOMs on frontend."
      },
      "poolLength()": {
        "notice": "returns pool length"
      },
      "rewarderBonusTokenInfo(uint256)": {
        "notice": "Get bonus token info from the rewarder contract for a given pool, if it is a double reward farm"
      },
      "setRewarder(uint256,address)": {
        "notice": "Update the given pool's rewarder"
      },
      "setVeWom(address)": {
        "notice": "updates veWom address"
      },
      "setVoter(address)": {
        "notice": "updates voter address"
      },
      "updateEmissionPartition(uint16)": {
        "notice": "updates emission partition"
      },
      "updateFactor(address,uint256)": {
        "notice": "updates factor after any veWom token operation (minting/burning)"
      },
      "updatePool(uint256)": {
        "notice": "Update reward variables of the given pool"
      },
      "withdraw(uint256,uint256)": {
        "notice": "Withdraw LP tokens from MasterWombat.Automatically harvest pending rewards and sends to user"
      }
    },
    "notice": "MasterWombat is a boss. He is not afraid of any snakes. In fact, he drinks their venoms. So, veWom holders boost their (boosted) emissions. This contract rewards users in function of their amount of lp staked (base pool) factor (boosted pool) Factor and sumOfFactors are updated by contract VeWom.sol after any veWom minting/burning (veERC20Upgradeable hook). Note that it's ownable and the owner wields tremendous power. The ownership will be transferred to a governance smart contract once Wombat is sufficiently distributed and the community can show to govern itself.",
    "version": 1
  },
  "storageLayout": {
    "storage": [
      {
        "astId": 130,
        "contract": "contracts/wombat-governance/MasterWombatV3.sol:MasterWombatV3",
        "label": "_initialized",
        "offset": 0,
        "slot": "0",
        "type": "t_bool"
      },
      {
        "astId": 133,
        "contract": "contracts/wombat-governance/MasterWombatV3.sol:MasterWombatV3",
        "label": "_initializing",
        "offset": 1,
        "slot": "0",
        "type": "t_bool"
      },
      {
        "astId": 651,
        "contract": "contracts/wombat-governance/MasterWombatV3.sol:MasterWombatV3",
        "label": "__gap",
        "offset": 0,
        "slot": "1",
        "type": "t_array(t_uint256)50_storage"
      },
      {
        "astId": 10,
        "contract": "contracts/wombat-governance/MasterWombatV3.sol:MasterWombatV3",
        "label": "_owner",
        "offset": 0,
        "slot": "51",
        "type": "t_address"
      },
      {
        "astId": 122,
        "contract": "contracts/wombat-governance/MasterWombatV3.sol:MasterWombatV3",
        "label": "__gap",
        "offset": 0,
        "slot": "52",
        "type": "t_array(t_uint256)49_storage"
      },
      {
        "astId": 322,
        "contract": "contracts/wombat-governance/MasterWombatV3.sol:MasterWombatV3",
        "label": "_status",
        "offset": 0,
        "slot": "101",
        "type": "t_uint256"
      },
      {
        "astId": 366,
        "contract": "contracts/wombat-governance/MasterWombatV3.sol:MasterWombatV3",
        "label": "__gap",
        "offset": 0,
        "slot": "102",
        "type": "t_array(t_uint256)49_storage"
      },
      {
        "astId": 218,
        "contract": "contracts/wombat-governance/MasterWombatV3.sol:MasterWombatV3",
        "label": "_paused",
        "offset": 0,
        "slot": "151",
        "type": "t_bool"
      },
      {
        "astId": 307,
        "contract": "contracts/wombat-governance/MasterWombatV3.sol:MasterWombatV3",
        "label": "__gap",
        "offset": 0,
        "slot": "152",
        "type": "t_array(t_uint256)49_storage"
      },
      {
        "astId": 13797,
        "contract": "contracts/wombat-governance/MasterWombatV3.sol:MasterWombatV3",
        "label": "wom",
        "offset": 0,
        "slot": "201",
        "type": "t_contract(IERC20)1420"
      },
      {
        "astId": 13800,
        "contract": "contracts/wombat-governance/MasterWombatV3.sol:MasterWombatV3",
        "label": "veWom",
        "offset": 0,
        "slot": "202",
        "type": "t_contract(IVeWom)19780"
      },
      {
        "astId": 13803,
        "contract": "contracts/wombat-governance/MasterWombatV3.sol:MasterWombatV3",
        "label": "newMasterWombat",
        "offset": 0,
        "slot": "203",
        "type": "t_contract(IMasterWombatV3)19667"
      },
      {
        "astId": 13805,
        "contract": "contracts/wombat-governance/MasterWombatV3.sol:MasterWombatV3",
        "label": "voter",
        "offset": 0,
        "slot": "204",
        "type": "t_address"
      },
      {
        "astId": 13807,
        "contract": "contracts/wombat-governance/MasterWombatV3.sol:MasterWombatV3",
        "label": "basePartition",
        "offset": 20,
        "slot": "204",
        "type": "t_uint16"
      },
      {
        "astId": 13810,
        "contract": "contracts/wombat-governance/MasterWombatV3.sol:MasterWombatV3",
        "label": "lpTokens",
        "offset": 0,
        "slot": "205",
        "type": "t_struct(AddressSet)3408_storage"
      },
      {
        "astId": 13814,
        "contract": "contracts/wombat-governance/MasterWombatV3.sol:MasterWombatV3",
        "label": "poolInfo",
        "offset": 0,
        "slot": "207",
        "type": "t_array(t_struct(PoolInfo)13788_storage)dyn_storage"
      },
      {
        "astId": 13821,
        "contract": "contracts/wombat-governance/MasterWombatV3.sol:MasterWombatV3",
        "label": "userInfo",
        "offset": 0,
        "slot": "208",
        "type": "t_mapping(t_uint256,t_mapping(t_address,t_struct(UserInfo)13769_storage))"
      },
      {
        "astId": 13825,
        "contract": "contracts/wombat-governance/MasterWombatV3.sol:MasterWombatV3",
        "label": "assetPid",
        "offset": 0,
        "slot": "209",
        "type": "t_mapping(t_address,t_uint256)"
      }
    ],
    "types": {
      "t_address": {
        "encoding": "inplace",
        "label": "address",
        "numberOfBytes": "20"
      },
      "t_array(t_bytes32)dyn_storage": {
        "base": "t_bytes32",
        "encoding": "dynamic_array",
        "label": "bytes32[]",
        "numberOfBytes": "32"
      },
      "t_array(t_struct(PoolInfo)13788_storage)dyn_storage": {
        "base": "t_struct(PoolInfo)13788_storage",
        "encoding": "dynamic_array",
        "label": "struct MasterWombatV3.PoolInfo[]",
        "numberOfBytes": "32"
      },
      "t_array(t_uint256)49_storage": {
        "base": "t_uint256",
        "encoding": "inplace",
        "label": "uint256[49]",
        "numberOfBytes": "1568"
      },
      "t_array(t_uint256)50_storage": {
        "base": "t_uint256",
        "encoding": "inplace",
        "label": "uint256[50]",
        "numberOfBytes": "1600"
      },
      "t_bool": {
        "encoding": "inplace",
        "label": "bool",
        "numberOfBytes": "1"
      },
      "t_bytes32": {
        "encoding": "inplace",
        "label": "bytes32",
        "numberOfBytes": "32"
      },
      "t_contract(IERC20)1420": {
        "encoding": "inplace",
        "label": "contract IERC20",
        "numberOfBytes": "20"
      },
      "t_contract(IMasterWombatV3)19667": {
        "encoding": "inplace",
        "label": "contract IMasterWombatV3",
        "numberOfBytes": "20"
      },
      "t_contract(IMultiRewarder)19701": {
        "encoding": "inplace",
        "label": "contract IMultiRewarder",
        "numberOfBytes": "20"
      },
      "t_contract(IVeWom)19780": {
        "encoding": "inplace",
        "label": "contract IVeWom",
        "numberOfBytes": "20"
      },
      "t_mapping(t_address,t_struct(UserInfo)13769_storage)": {
        "encoding": "mapping",
        "key": "t_address",
        "label": "mapping(address => struct MasterWombatV3.UserInfo)",
        "numberOfBytes": "32",
        "value": "t_struct(UserInfo)13769_storage"
      },
      "t_mapping(t_address,t_uint256)": {
        "encoding": "mapping",
        "key": "t_address",
        "label": "mapping(address => uint256)",
        "numberOfBytes": "32",
        "value": "t_uint256"
      },
      "t_mapping(t_bytes32,t_uint256)": {
        "encoding": "mapping",
        "key": "t_bytes32",
        "label": "mapping(bytes32 => uint256)",
        "numberOfBytes": "32",
        "value": "t_uint256"
      },
      "t_mapping(t_uint256,t_mapping(t_address,t_struct(UserInfo)13769_storage))": {
        "encoding": "mapping",
        "key": "t_uint256",
        "label": "mapping(uint256 => mapping(address => struct MasterWombatV3.UserInfo))",
        "numberOfBytes": "32",
        "value": "t_mapping(t_address,t_struct(UserInfo)13769_storage)"
      },
      "t_struct(AddressSet)3408_storage": {
        "encoding": "inplace",
        "label": "struct EnumerableSet.AddressSet",
        "members": [
          {
            "astId": 3407,
            "contract": "contracts/wombat-governance/MasterWombatV3.sol:MasterWombatV3",
            "label": "_inner",
            "offset": 0,
            "slot": "0",
            "type": "t_struct(Set)3137_storage"
          }
        ],
        "numberOfBytes": "64"
      },
      "t_struct(PoolInfo)13788_storage": {
        "encoding": "inplace",
        "label": "struct MasterWombatV3.PoolInfo",
        "members": [
          {
            "astId": 13772,
            "contract": "contracts/wombat-governance/MasterWombatV3.sol:MasterWombatV3",
            "label": "lpToken",
            "offset": 0,
            "slot": "0",
            "type": "t_contract(IERC20)1420"
          },
          {
            "astId": 13775,
            "contract": "contracts/wombat-governance/MasterWombatV3.sol:MasterWombatV3",
            "label": "rewarder",
            "offset": 0,
            "slot": "1",
            "type": "t_contract(IMultiRewarder)19701"
          },
          {
            "astId": 13777,
            "contract": "contracts/wombat-governance/MasterWombatV3.sol:MasterWombatV3",
            "label": "periodFinish",
            "offset": 20,
            "slot": "1",
            "type": "t_uint40"
          },
          {
            "astId": 13779,
            "contract": "contracts/wombat-governance/MasterWombatV3.sol:MasterWombatV3",
            "label": "sumOfFactors",
            "offset": 0,
            "slot": "2",
            "type": "t_uint128"
          },
          {
            "astId": 13781,
            "contract": "contracts/wombat-governance/MasterWombatV3.sol:MasterWombatV3",
            "label": "rewardRate",
            "offset": 16,
            "slot": "2",
            "type": "t_uint128"
          },
          {
            "astId": 13783,
            "contract": "contracts/wombat-governance/MasterWombatV3.sol:MasterWombatV3",
            "label": "accWomPerShare",
            "offset": 0,
            "slot": "3",
            "type": "t_uint104"
          },
          {
            "astId": 13785,
            "contract": "contracts/wombat-governance/MasterWombatV3.sol:MasterWombatV3",
            "label": "accWomPerFactorShare",
            "offset": 13,
            "slot": "3",
            "type": "t_uint104"
          },
          {
            "astId": 13787,
            "contract": "contracts/wombat-governance/MasterWombatV3.sol:MasterWombatV3",
            "label": "lastRewardTimestamp",
            "offset": 26,
            "slot": "3",
            "type": "t_uint40"
          }
        ],
        "numberOfBytes": "128"
      },
      "t_struct(Set)3137_storage": {
        "encoding": "inplace",
        "label": "struct EnumerableSet.Set",
        "members": [
          {
            "astId": 3132,
            "contract": "contracts/wombat-governance/MasterWombatV3.sol:MasterWombatV3",
            "label": "_values",
            "offset": 0,
            "slot": "0",
            "type": "t_array(t_bytes32)dyn_storage"
          },
          {
            "astId": 3136,
            "contract": "contracts/wombat-governance/MasterWombatV3.sol:MasterWombatV3",
            "label": "_indexes",
            "offset": 0,
            "slot": "1",
            "type": "t_mapping(t_bytes32,t_uint256)"
          }
        ],
        "numberOfBytes": "64"
      },
      "t_struct(UserInfo)13769_storage": {
        "encoding": "inplace",
        "label": "struct MasterWombatV3.UserInfo",
        "members": [
          {
            "astId": 13762,
            "contract": "contracts/wombat-governance/MasterWombatV3.sol:MasterWombatV3",
            "label": "amount",
            "offset": 0,
            "slot": "0",
            "type": "t_uint128"
          },
          {
            "astId": 13764,
            "contract": "contracts/wombat-governance/MasterWombatV3.sol:MasterWombatV3",
            "label": "factor",
            "offset": 16,
            "slot": "0",
            "type": "t_uint128"
          },
          {
            "astId": 13766,
            "contract": "contracts/wombat-governance/MasterWombatV3.sol:MasterWombatV3",
            "label": "rewardDebt",
            "offset": 0,
            "slot": "1",
            "type": "t_uint128"
          },
          {
            "astId": 13768,
            "contract": "contracts/wombat-governance/MasterWombatV3.sol:MasterWombatV3",
            "label": "pendingWom",
            "offset": 16,
            "slot": "1",
            "type": "t_uint128"
          }
        ],
        "numberOfBytes": "64"
      },
      "t_uint104": {
        "encoding": "inplace",
        "label": "uint104",
        "numberOfBytes": "13"
      },
      "t_uint128": {
        "encoding": "inplace",
        "label": "uint128",
        "numberOfBytes": "16"
      },
      "t_uint16": {
        "encoding": "inplace",
        "label": "uint16",
        "numberOfBytes": "2"
      },
      "t_uint256": {
        "encoding": "inplace",
        "label": "uint256",
        "numberOfBytes": "32"
      },
      "t_uint40": {
        "encoding": "inplace",
        "label": "uint40",
        "numberOfBytes": "5"
      }
    }
  }
}