{
  "address": "0x6cFF948ccCe8Dc7Eba0dDa3b1818298e2088fe8e",
  "abi": [
    {
      "anonymous": false,
      "inputs": [
        {
          "indexed": true,
          "internalType": "uint256",
          "name": "pid",
          "type": "uint256"
        },
        {
          "indexed": false,
          "internalType": "uint256",
          "name": "allocPoint",
          "type": "uint256"
        },
        {
          "indexed": true,
          "internalType": "contract IERC20",
          "name": "lpToken",
          "type": "address"
        },
        {
          "indexed": true,
          "internalType": "contract IMultiRewarder",
          "name": "rewarder",
          "type": "address"
        }
      ],
      "name": "Add",
      "type": "event"
    },
    {
      "anonymous": false,
      "inputs": [
        {
          "indexed": true,
          "internalType": "address",
          "name": "user",
          "type": "address"
        },
        {
          "indexed": true,
          "internalType": "uint256",
          "name": "pid",
          "type": "uint256"
        },
        {
          "indexed": false,
          "internalType": "uint256",
          "name": "amount",
          "type": "uint256"
        }
      ],
      "name": "Deposit",
      "type": "event"
    },
    {
      "anonymous": false,
      "inputs": [
        {
          "indexed": true,
          "internalType": "address",
          "name": "user",
          "type": "address"
        },
        {
          "indexed": true,
          "internalType": "uint256",
          "name": "pid",
          "type": "uint256"
        },
        {
          "indexed": false,
          "internalType": "uint256",
          "name": "amount",
          "type": "uint256"
        }
      ],
      "name": "DepositFor",
      "type": "event"
    },
    {
      "anonymous": false,
      "inputs": [
        {
          "indexed": true,
          "internalType": "address",
          "name": "user",
          "type": "address"
        },
        {
          "indexed": true,
          "internalType": "uint256",
          "name": "pid",
          "type": "uint256"
        },
        {
          "indexed": false,
          "internalType": "uint256",
          "name": "amount",
          "type": "uint256"
        }
      ],
      "name": "EmergencyWithdraw",
      "type": "event"
    },
    {
      "anonymous": false,
      "inputs": [
        {
          "indexed": false,
          "internalType": "address",
          "name": "owner",
          "type": "address"
        },
        {
          "indexed": false,
          "internalType": "uint256",
          "name": "balance",
          "type": "uint256"
        }
      ],
      "name": "EmergencyWomWithdraw",
      "type": "event"
    },
    {
      "anonymous": false,
      "inputs": [
        {
          "indexed": true,
          "internalType": "address",
          "name": "user",
          "type": "address"
        },
        {
          "indexed": true,
          "internalType": "uint256",
          "name": "pid",
          "type": "uint256"
        },
        {
          "indexed": false,
          "internalType": "uint256",
          "name": "amount",
          "type": "uint256"
        }
      ],
      "name": "Harvest",
      "type": "event"
    },
    {
      "anonymous": false,
      "inputs": [
        {
          "indexed": true,
          "internalType": "address",
          "name": "previousOwner",
          "type": "address"
        },
        {
          "indexed": true,
          "internalType": "address",
          "name": "newOwner",
          "type": "address"
        }
      ],
      "name": "OwnershipTransferred",
      "type": "event"
    },
    {
      "anonymous": false,
      "inputs": [
        {
          "indexed": false,
          "internalType": "address",
          "name": "account",
          "type": "address"
        }
      ],
      "name": "Paused",
      "type": "event"
    },
    {
      "anonymous": false,
      "inputs": [
        {
          "indexed": true,
          "internalType": "uint256",
          "name": "pid",
          "type": "uint256"
        },
        {
          "indexed": false,
          "internalType": "uint256",
          "name": "allocPoint",
          "type": "uint256"
        },
        {
          "indexed": true,
          "internalType": "contract IMultiRewarder",
          "name": "rewarder",
          "type": "address"
        },
        {
          "indexed": false,
          "internalType": "bool",
          "name": "overwrite",
          "type": "bool"
        }
      ],
      "name": "Set",
      "type": "event"
    },
    {
      "anonymous": false,
      "inputs": [
        {
          "indexed": false,
          "internalType": "address",
          "name": "account",
          "type": "address"
        }
      ],
      "name": "Unpaused",
      "type": "event"
    },
    {
      "anonymous": false,
      "inputs": [
        {
          "indexed": true,
          "internalType": "address",
          "name": "user",
          "type": "address"
        },
        {
          "indexed": false,
          "internalType": "uint256",
          "name": "basePartition",
          "type": "uint256"
        },
        {
          "indexed": false,
          "internalType": "uint256",
          "name": "boostedPartition",
          "type": "uint256"
        }
      ],
      "name": "UpdateEmissionPartition",
      "type": "event"
    },
    {
      "anonymous": false,
      "inputs": [
        {
          "indexed": true,
          "internalType": "address",
          "name": "user",
          "type": "address"
        },
        {
          "indexed": false,
          "internalType": "uint256",
          "name": "womPerSec",
          "type": "uint256"
        }
      ],
      "name": "UpdateEmissionRate",
      "type": "event"
    },
    {
      "anonymous": false,
      "inputs": [
        {
          "indexed": true,
          "internalType": "uint256",
          "name": "pid",
          "type": "uint256"
        },
        {
          "indexed": false,
          "internalType": "uint256",
          "name": "lastRewardTimestamp",
          "type": "uint256"
        },
        {
          "indexed": false,
          "internalType": "uint256",
          "name": "lpSupply",
          "type": "uint256"
        },
        {
          "indexed": false,
          "internalType": "uint256",
          "name": "accWomPerShare",
          "type": "uint256"
        }
      ],
      "name": "UpdatePool",
      "type": "event"
    },
    {
      "anonymous": false,
      "inputs": [
        {
          "indexed": true,
          "internalType": "address",
          "name": "user",
          "type": "address"
        },
        {
          "indexed": false,
          "internalType": "address",
          "name": "oldVeWOM",
          "type": "address"
        },
        {
          "indexed": false,
          "internalType": "address",
          "name": "newVeWOM",
          "type": "address"
        }
      ],
      "name": "UpdateVeWOM",
      "type": "event"
    },
    {
      "anonymous": false,
      "inputs": [
        {
          "indexed": true,
          "internalType": "address",
          "name": "user",
          "type": "address"
        },
        {
          "indexed": true,
          "internalType": "uint256",
          "name": "pid",
          "type": "uint256"
        },
        {
          "indexed": false,
          "internalType": "uint256",
          "name": "amount",
          "type": "uint256"
        }
      ],
      "name": "Withdraw",
      "type": "event"
    },
    {
      "inputs": [
        {
          "internalType": "uint96",
          "name": "_allocPoint",
          "type": "uint96"
        },
        {
          "internalType": "contract IERC20",
          "name": "_lpToken",
          "type": "address"
        },
        {
          "internalType": "contract IMultiRewarder",
          "name": "_rewarder",
          "type": "address"
        }
      ],
      "name": "add",
      "outputs": [],
      "stateMutability": "nonpayable",
      "type": "function"
    },
    {
      "inputs": [],
      "name": "basePartition",
      "outputs": [
        {
          "internalType": "uint16",
          "name": "",
          "type": "uint16"
        }
      ],
      "stateMutability": "view",
      "type": "function"
    },
    {
      "inputs": [],
      "name": "boostedPartition",
      "outputs": [
        {
          "internalType": "uint256",
          "name": "",
          "type": "uint256"
        }
      ],
      "stateMutability": "view",
      "type": "function"
    },
    {
      "inputs": [
        {
          "internalType": "uint256",
          "name": "_pid",
          "type": "uint256"
        },
        {
          "internalType": "uint256",
          "name": "_amount",
          "type": "uint256"
        }
      ],
      "name": "deposit",
      "outputs": [
        {
          "internalType": "uint256",
          "name": "",
          "type": "uint256"
        },
        {
          "internalType": "uint256[]",
          "name": "",
          "type": "uint256[]"
        }
      ],
      "stateMutability": "nonpayable",
      "type": "function"
    },
    {
      "inputs": [
        {
          "internalType": "uint256",
          "name": "_pid",
          "type": "uint256"
        },
        {
          "internalType": "uint256",
          "name": "_amount",
          "type": "uint256"
        },
        {
          "internalType": "address",
          "name": "_user",
          "type": "address"
        }
      ],
      "name": "depositFor",
      "outputs": [],
      "stateMutability": "nonpayable",
      "type": "function"
    },
    {
      "inputs": [
        {
          "internalType": "uint256",
          "name": "_pid",
          "type": "uint256"
        }
      ],
      "name": "emergencyWithdraw",
      "outputs": [],
      "stateMutability": "nonpayable",
      "type": "function"
    },
    {
      "inputs": [],
      "name": "emergencyWomWithdraw",
      "outputs": [],
      "stateMutability": "nonpayable",
      "type": "function"
    },
    {
      "inputs": [
        {
          "internalType": "address",
          "name": "asset",
          "type": "address"
        }
      ],
      "name": "getAssetPid",
      "outputs": [
        {
          "internalType": "uint256",
          "name": "",
          "type": "uint256"
        }
      ],
      "stateMutability": "view",
      "type": "function"
    },
    {
      "inputs": [
        {
          "internalType": "contract IERC20",
          "name": "_wom",
          "type": "address"
        },
        {
          "internalType": "contract IVeWom",
          "name": "_veWom",
          "type": "address"
        },
        {
          "internalType": "uint104",
          "name": "_womPerSec",
          "type": "uint104"
        },
        {
          "internalType": "uint16",
          "name": "_basePartition",
          "type": "uint16"
        },
        {
          "internalType": "uint40",
          "name": "_startTimestamp",
          "type": "uint40"
        }
      ],
      "name": "initialize",
      "outputs": [],
      "stateMutability": "nonpayable",
      "type": "function"
    },
    {
      "inputs": [],
      "name": "massUpdatePools",
      "outputs": [],
      "stateMutability": "nonpayable",
      "type": "function"
    },
    {
      "inputs": [
        {
          "internalType": "uint256[]",
          "name": "_pids",
          "type": "uint256[]"
        }
      ],
      "name": "migrate",
      "outputs": [],
      "stateMutability": "nonpayable",
      "type": "function"
    },
    {
      "inputs": [
        {
          "internalType": "uint256[]",
          "name": "_pids",
          "type": "uint256[]"
        }
      ],
      "name": "multiClaim",
      "outputs": [
        {
          "internalType": "uint256",
          "name": "",
          "type": "uint256"
        },
        {
          "internalType": "uint256[]",
          "name": "",
          "type": "uint256[]"
        },
        {
          "internalType": "uint256[][]",
          "name": "",
          "type": "uint256[][]"
        }
      ],
      "stateMutability": "nonpayable",
      "type": "function"
    },
    {
      "inputs": [],
      "name": "owner",
      "outputs": [
        {
          "internalType": "address",
          "name": "",
          "type": "address"
        }
      ],
      "stateMutability": "view",
      "type": "function"
    },
    {
      "inputs": [],
      "name": "pause",
      "outputs": [],
      "stateMutability": "nonpayable",
      "type": "function"
    },
    {
      "inputs": [],
      "name": "paused",
      "outputs": [
        {
          "internalType": "bool",
          "name": "",
          "type": "bool"
        }
      ],
      "stateMutability": "view",
      "type": "function"
    },
    {
      "inputs": [
        {
          "internalType": "uint256",
          "name": "_pid",
          "type": "uint256"
        },
        {
          "internalType": "address",
          "name": "_user",
          "type": "address"
        }
      ],
      "name": "pendingTokens",
      "outputs": [
        {
          "internalType": "uint256",
          "name": "pendingRewards",
          "type": "uint256"
        },
        {
          "internalType": "contract IERC20[]",
          "name": "bonusTokenAddresses",
          "type": "address[]"
        },
        {
          "internalType": "string[]",
          "name": "bonusTokenSymbols",
          "type": "string[]"
        },
        {
          "internalType": "uint256[]",
          "name": "pendingBonusRewards",
          "type": "uint256[]"
        }
      ],
      "stateMutability": "view",
      "type": "function"
    },
    {
      "inputs": [
        {
          "internalType": "uint256",
          "name": "",
          "type": "uint256"
        }
      ],
      "name": "poolInfo",
      "outputs": [
        {
          "internalType": "contract IERC20",
          "name": "lpToken",
          "type": "address"
        },
        {
          "internalType": "uint96",
          "name": "allocPoint",
          "type": "uint96"
        },
        {
          "internalType": "contract IMultiRewarder",
          "name": "rewarder",
          "type": "address"
        },
        {
          "internalType": "uint256",
          "name": "sumOfFactors",
          "type": "uint256"
        },
        {
          "internalType": "uint104",
          "name": "accWomPerShare",
          "type": "uint104"
        },
        {
          "internalType": "uint104",
          "name": "accWomPerFactorShare",
          "type": "uint104"
        },
        {
          "internalType": "uint40",
          "name": "lastRewardTimestamp",
          "type": "uint40"
        }
      ],
      "stateMutability": "view",
      "type": "function"
    },
    {
      "inputs": [],
      "name": "poolLength",
      "outputs": [
        {
          "internalType": "uint256",
          "name": "",
          "type": "uint256"
        }
      ],
      "stateMutability": "view",
      "type": "function"
    },
    {
      "inputs": [],
      "name": "renounceOwnership",
      "outputs": [],
      "stateMutability": "nonpayable",
      "type": "function"
    },
    {
      "inputs": [
        {
          "internalType": "uint256",
          "name": "_pid",
          "type": "uint256"
        }
      ],
      "name": "rewarderBonusTokenInfo",
      "outputs": [
        {
          "internalType": "contract IERC20[]",
          "name": "bonusTokenAddresses",
          "type": "address[]"
        },
        {
          "internalType": "string[]",
          "name": "bonusTokenSymbols",
          "type": "string[]"
        }
      ],
      "stateMutability": "view",
      "type": "function"
    },
    {
      "inputs": [
        {
          "internalType": "uint256",
          "name": "_pid",
          "type": "uint256"
        },
        {
          "internalType": "uint96",
          "name": "_allocPoint",
          "type": "uint96"
        },
        {
          "internalType": "contract IMultiRewarder",
          "name": "_rewarder",
          "type": "address"
        },
        {
          "internalType": "bool",
          "name": "overwrite",
          "type": "bool"
        }
      ],
      "name": "set",
      "outputs": [],
      "stateMutability": "nonpayable",
      "type": "function"
    },
    {
      "inputs": [
        {
          "internalType": "contract IMasterWombatV2",
          "name": "_newMasterWombat",
          "type": "address"
        }
      ],
      "name": "setNewMasterWombat",
      "outputs": [],
      "stateMutability": "nonpayable",
      "type": "function"
    },
    {
      "inputs": [
        {
          "internalType": "contract IVeWom",
          "name": "_newVeWom",
          "type": "address"
        }
      ],
      "name": "setVeWom",
      "outputs": [],
      "stateMutability": "nonpayable",
      "type": "function"
    },
    {
      "inputs": [],
      "name": "startTimestamp",
      "outputs": [
        {
          "internalType": "uint40",
          "name": "",
          "type": "uint40"
        }
      ],
      "stateMutability": "view",
      "type": "function"
    },
    {
      "inputs": [],
      "name": "totalAllocPoint",
      "outputs": [
        {
          "internalType": "uint96",
          "name": "",
          "type": "uint96"
        }
      ],
      "stateMutability": "view",
      "type": "function"
    },
    {
      "inputs": [
        {
          "internalType": "address",
          "name": "newOwner",
          "type": "address"
        }
      ],
      "name": "transferOwnership",
      "outputs": [],
      "stateMutability": "nonpayable",
      "type": "function"
    },
    {
      "inputs": [],
      "name": "unpause",
      "outputs": [],
      "stateMutability": "nonpayable",
      "type": "function"
    },
    {
      "inputs": [
        {
          "internalType": "uint16",
          "name": "_basePartition",
          "type": "uint16"
        }
      ],
      "name": "updateEmissionPartition",
      "outputs": [],
      "stateMutability": "nonpayable",
      "type": "function"
    },
    {
      "inputs": [
        {
          "internalType": "uint104",
          "name": "_womPerSec",
          "type": "uint104"
        }
      ],
      "name": "updateEmissionRate",
      "outputs": [],
      "stateMutability": "nonpayable",
      "type": "function"
    },
    {
      "inputs": [
        {
          "internalType": "address",
          "name": "_user",
          "type": "address"
        },
        {
          "internalType": "uint256",
          "name": "_newVeWomBalance",
          "type": "uint256"
        }
      ],
      "name": "updateFactor",
      "outputs": [],
      "stateMutability": "nonpayable",
      "type": "function"
    },
    {
      "inputs": [
        {
          "internalType": "uint256",
          "name": "_pid",
          "type": "uint256"
        }
      ],
      "name": "updatePool",
      "outputs": [],
      "stateMutability": "nonpayable",
      "type": "function"
    },
    {
      "inputs": [
        {
          "internalType": "uint256",
          "name": "",
          "type": "uint256"
        },
        {
          "internalType": "address",
          "name": "",
          "type": "address"
        }
      ],
      "name": "userInfo",
      "outputs": [
        {
          "internalType": "uint128",
          "name": "amount",
          "type": "uint128"
        },
        {
          "internalType": "uint128",
          "name": "factor",
          "type": "uint128"
        },
        {
          "internalType": "uint128",
          "name": "rewardDebt",
          "type": "uint128"
        },
        {
          "internalType": "uint128",
          "name": "pendingWom",
          "type": "uint128"
        }
      ],
      "stateMutability": "view",
      "type": "function"
    },
    {
      "inputs": [],
      "name": "veWom",
      "outputs": [
        {
          "internalType": "contract IVeWom",
          "name": "",
          "type": "address"
        }
      ],
      "stateMutability": "view",
      "type": "function"
    },
    {
      "inputs": [
        {
          "internalType": "uint256",
          "name": "_pid",
          "type": "uint256"
        },
        {
          "internalType": "uint256",
          "name": "_amount",
          "type": "uint256"
        }
      ],
      "name": "withdraw",
      "outputs": [
        {
          "internalType": "uint256",
          "name": "",
          "type": "uint256"
        },
        {
          "internalType": "uint256[]",
          "name": "",
          "type": "uint256[]"
        }
      ],
      "stateMutability": "nonpayable",
      "type": "function"
    },
    {
      "inputs": [],
      "name": "wom",
      "outputs": [
        {
          "internalType": "contract IERC20",
          "name": "",
          "type": "address"
        }
      ],
      "stateMutability": "view",
      "type": "function"
    },
    {
      "inputs": [],
      "name": "womPerSec",
      "outputs": [
        {
          "internalType": "uint104",
          "name": "",
          "type": "uint104"
        }
      ],
      "stateMutability": "view",
      "type": "function"
    }
  ],
  "transactionHash": "0x3a52c8d27cccb695cd1aaea0a748fac4610354412f5169ebe6ff2adeb06ead1e",
  "args": [],
  "solcInputHash": "34cdd204f3b508d5068dd4661cec53ac",
  "bytecode": "0x608080604052346100165761449d908161001c8239f35b600080fdfe608080604052600436101561001357600080fd5b60003560e01c908163081e3eda14612fb5575080631526fe2714612ea557806317caf6f114612e765780631983dbf514612db15780631d0554a614612d105780633e582ae614612ce95780633f4ba83a14612c21578063441a3e70146127435780634ed73d281461260f5780634f00a93e1461236d57806351eb05a6146123515780635312ea8e1461217e5780635c975abb1461215b578063630b5ba114612142578063715018a6146120c65780638456cb591461203b5780638a81372f1461200e5780638da5cb5b14611fe757806390210d7e14611c37578063926cb32f1461178357806393f1a40b1461170a5780639b128de614611669578063abf59c0814611320578063abfef111146112fb578063af929a80146112b4578063bc70fdbc1461126d578063be159bea1461123e578063c5a6222e14611217578063d1e2ac88146111b2578063d93bf4fe14610e8a578063dc3e67c314610c1b578063e2bbb158146107f9578063e6fd48bc146107d8578063f13e5507146105ff578063f2fde38b146105535763ffcd4263146101ab57600080fd5b34610546576040600319360112610546576101c4613156565b60609081806101d4600435612fd0565b509260043560005260d060205260406000206001600160a01b038216600052602052604060002060038501546cffffffffffffffffffffffffff8116906cffffffffffffffffffffffffff8160681c1690875490604051917f70a082310000000000000000000000000000000000000000000000000000000083523060048401526020836024816001600160a01b0385165afa9182156103e3578a93600093610506575b509260019592610300959264ffffffffff6001600160a01b03999660d01c16804211806104fd575b6103ef575b505050508464e8d4a510006102e96102f8936102e38754916102da6fffffffffffffffffffffffffffffffff98898516613514565b9260801c613514565b90613560565b04930154928360801c90613560565b9116906133d6565b9501541680610350575b50509061033e61034c92610330604051968796875260806020880152608087019061316c565b9085820360408701526131de565b90838203606085015261304f565b0390f35b9250935050602460006001600160a01b0361036c600435613626565b93909660405195869384927fc031a66f0000000000000000000000000000000000000000000000000000000084521660048301525afa9182156103e35761034c9261033e916000916103c0575b509261030a565b6103dd91503d806000833e6103d58183613083565b81019061356c565b386103b9565b6040513d6000823e3d90fd5b9388939564e8d4a51000936102e99360026104a361045661043e6104166102f89c426133d6565b9461043460cc54966cffffffffffffffffffffffffff881690613514565b9060a01c90613514565b6bffffffffffffffffffffffff8560781c1690613527565b946cffffffffffffffffffffffffff61049c610497610474896134e3565b9761049161048b61ffff809a60681c16809b613514565b916134fd565b90613527565b61432e565b1690613560565b99015492836104ba575b50505050938d93506102a5565b6104f4949361049161048b6cffffffffffffffffffffffffff9561049c956104ed6104e7610497976134e3565b926133e1565b1690613514565b388080806104ad565b508215156102a0565b969350949150926020863d60201161054b575b8161052660209383613083565b810103126105465794519194909390928992916001600160a01b03610278565b600080fd5b3d9150610519565b346105465760206003193601126105465761056c61312a565b6001600160a01b036105838160335416331461326d565b81161561059557610593906132b8565b005b608460405162461bcd60e51b815260206004820152602660248201527f4f776e61626c653a206e6577206f776e657220697320746865207a65726f206160448201527f64647265737300000000000000000000000000000000000000000000000000006064820152fd5b34610546576000600319360112610546576001600160a01b036106278160335416331461326d565b8060c95416906040517f70a0823100000000000000000000000000000000000000000000000000000000918282523060048301526020938483602481845afa80156103e35785936000916107a6575b506040517fa9059cbb00000000000000000000000000000000000000000000000000000000815233600482015260248101919091529290839060449082906000905af19182156103e3578492610779575b5060c954169160246040518094819382523060048301525afa9182156103e357600092610729575b60408051338152602081018590527f2b58f1b72aa1f2865f8da73af0eaff3a2b5b670c59fed83005919fe6c23cf35c91819081015b0390a1005b90809250813d8311610772575b6107408183613083565b8101031261054657516107247f2b58f1b72aa1f2865f8da73af0eaff3a2b5b670c59fed83005919fe6c23cf35c6106ef565b503d610736565b61079890833d851161079f575b6107908183613083565b810190613d3b565b50846106c7565b503d610786565b84819592503d83116107d1575b6107bd8183613083565b810103126105465791518492906000610676565b503d6107b3565b3461054657600060031936011261054657602060cc5460d81c604051908152f35b346105465761080736613039565b9061081760026065541415613cf0565b600260655561082b60ff609754161561338b565b61083481612fd0565b50918160005260209260d08452604060002033600052845260406000209261085b816139bb565b6000938054926fffffffffffffffffffffffffffffffff938481169081610b87575b5050610888856142cd565b9184610898825494828616613d53565b1692837fffffffffffffffffffffffffffffffff000000000000000000000000000000008092161780835560246001600160a01b03958b8760ca5416604051938480927f70a082310000000000000000000000000000000000000000000000000000000082523360048301525afa9182156103e357600092610b56575b5061092f8161092a6109759461093494613514565b6143e9565b6142cd565b84546fffffffffffffffffffffffffffffffff1660809190911b7fffffffffffffffffffffffffffffffff0000000000000000000000000000000016178455565b610997600285019161099283549160801c91865460801c90613560565b6133d6565b905581549560016109e764e8d4a510006109e1848b169a6102e360038a0154918d6109d36cffffffffffffffffffffffffff9182861690613514565b9360681c169060801c613514565b046142cd565b93019216908254161790558160016109fe85612fd0565b5001541660609481610acc575b5050546040517f23b872dd000000000000000000000000000000000000000000000000000000008152336004820152306024820152604481018690529491879186916064918391600091165af19384156103e35761034c94610aaf575b506040519081527f90890809c654f11d6e72a28fa60149770a0d11ec6c92319d6ceb2bb0a4ea1a15863392a36001606555604080519485948552840152604083019061304f565b610ac590873d891161079f576107908183613083565b5086610a68565b6040517fc37232880000000000000000000000000000000000000000000000000000000081523360048201526fffffffffffffffffffffffffffffffff9190911660248201529194506000908290604490829084905af19081156103e357600091610b3b575b50928780610a0b565b610b5091503d806000833e6103d58183613083565b87610b32565b91508b82813d8311610b80575b610b6d8183613083565b810103126105465790519061092f610915565b503d610b63565b82975064e8d4a51000916102e3610bbc926003610be7960154926109d36cffffffffffffffffffffffffff9182861690613514565b046001830190610bdf86610bd68454938460801c90613560565b921680926133d6565b91553361410b565b94826040518781527f71bab65ced2e5750775a0613be067df48ef06cf92a496ebf7663ae0660924954893392a3878061087d565b3461054657608060031936011261054657600435602435906bffffffffffffffffffffffff918281169283820361054657610c54613140565b6064359081151590818303610546576001600160a01b0392610c7b8460335416331461326d565b838216803b15801590610e82575b15610e1857610c96613971565b60cc54958660781c1695610ca989612fd0565b505460a01c97888810610de9577affffffffffffffffffffffff000000000000000000000000000000610d227fffffffffff000000000000000000000000ffffffffffffffffffffffffffffff927fa54644aae5c48c5971516f334e4fe8ecbc7930e23f34877d4203c6551e67ffaa9b60409b036133f3565b60781b1691161760cc5581610d7b610d398b61438c565b610d428b612fd0565b50906001600160a01b037fffffffffffffffffffffffff000000000000000000000000000000000000000083549260a01b169116179055565b610dae575b5015610d9757905b835196875260208701521693a3005b50816001610da487612fd0565b5001541690610d88565b6001610db989612fd0565b5001907fffffffffffffffffffffffff000000000000000000000000000000000000000082541617905588610d80565b7f4e487b7100000000000000000000000000000000000000000000000000000000600052601160045260246000fd5b608460405162461bcd60e51b815260206004820152602660248201527f7365743a207265776172646572206d75737420626520636f6e7472616374206f60448201527f72207a65726f00000000000000000000000000000000000000000000000000006064820152fd5b508015610c89565b346105465760206003193601126105465767ffffffffffffffff60043511610546573660236004350112156105465767ffffffffffffffff6004356004013511610546573660246004356004013560051b60043501011161054657610ef460026065541415613cf0565b60026065556001600160a01b0360cb54161561116e57610f28610f2336600435600401356024600435016130dc565b613d78565b50505060005b600435600401358110610f42576001606555005b60248160051b60043501013560005260d06020526040600020336000526020526040600020906fffffffffffffffffffffffffffffffff82541680610f92575b50610f8d9150613603565b610f2e565b6110236020610fab60248560051b600435010135612fd0565b50926001600160a01b038454166001600160a01b0360cb541660006040518096819582947f095ea7b3000000000000000000000000000000000000000000000000000000008452600484019092916fffffffffffffffffffffffffffffffff6020916001600160a01b03604085019616845216910152565b03925af180156103e35761114f575b506001600160a01b0360cb54166fffffffffffffffffffffffffffffffff845416813b15610546576000916064839260405194859384927f90210d7e00000000000000000000000000000000000000000000000000000000845260248a60051b600435010135600485015260248401523360448401525af180156103e357611102575b506110cd6002610f8d945460801c92019182546133d6565b905560248160051b60043501013560005260d06020526040600020336000526020526000600160408220828155015582610f82565b9267ffffffffffffffff8411611120576040939093526110cd6110b5565b7f4e487b7100000000000000000000000000000000000000000000000000000000600052604160045260246000fd5b6111679060203d60201161079f576107908183613083565b5083611032565b606460405162461bcd60e51b815260206004820152600960248201527f746f2077686572653f00000000000000000000000000000000000000000000006044820152fd5b34610546576020600319360112610546576004356001600160a01b03808216809203610546576111e79060335416331461326d565b7fffffffffffffffffffffffff000000000000000000000000000000000000000060cb54161760cb556000604051f35b346105465760006003193601126105465760206001600160a01b0360c95416604051908152f35b3461054657600060031936011261054657602061ffff6112648160cc5460681c166133e1565b16604051908152f35b34610546576020600319360112610546576112a661034c61128f600435613626565b60409291925193849360408552604085019061316c565b9083820360208501526131de565b34610546576020600319360112610546576001600160a01b036112d561312a565b1660005260d160205260406000205460018110610de95760209060001960405191018152f35b3461054657600060031936011261054657602061ffff60cc5460681c16604051908152f35b346105465760a06003193601126105465761133961312a565b611341613156565b90604435906cffffffffffffffffffffffffff8216809203610546576064359161ffff831690818403610546576084359264ffffffffff84168403610546576000549460ff8660081c168060001461165f57303b155b156115f5571595866115c6575b506001600160a01b0380921693841561158257831561153e576103e8106114d4577fffffffffff000000000000000000000000000000000000000000000000000000936effff000000000000000000000000009261141260ff60005460081c1661140d8161331a565b61331a565b61141b336132b8565b6000549861143c60ff8b60081c166114328161331a565b600160655561331a565b7fffffffffffffffffffffffffffffffffffffffffffffffffffffffffffffff00609754166097557fffffffffffffffffffffffff0000000000000000000000000000000000000000928360c954161760c955169060ca54161760ca5560681b16179160d81b161760cc556114ad57005b7fffffffffffffffffffffffffffffffffffffffffffffffffffffffffffff00ff16600055005b608460405162461bcd60e51b815260206004820152602760248201527f6261736520706172746974696f6e206d75737420626520696e2072616e67652060448201527f302c2031303030000000000000000000000000000000000000000000000000006064820152fd5b606460405162461bcd60e51b815260206004820152601a60248201527f776f6d20706572207365632063616e6e6f74206265207a65726f0000000000006044820152fd5b606460405162461bcd60e51b815260206004820152601a60248201527f776f6d20616464726573732063616e6e6f74206265207a65726f0000000000006044820152fd5b7fffffffffffffffffffffffffffffffffffffffffffffffffffffffffffff00001661010117600055876113a4565b608460405162461bcd60e51b815260206004820152602e60248201527f496e697469616c697a61626c653a20636f6e747261637420697320616c72656160448201527f647920696e697469616c697a65640000000000000000000000000000000000006064820152fd5b60ff871615611397565b346105465760206003193601126105465761168261312a565b6001600160a01b03809161169b8260335416331461326d565b168015610546576116aa613971565b60ca5491817fffffffffffffffffffffffff000000000000000000000000000000000000000084161760ca556040519216825260208201527fa0956d8e03557278fdb89913cec4e0f21da09587edf25b3eecc0079cdb757ef560403392a2005b3461054657604060031936011261054657611723613156565b60043560005260d06020526001600160a01b03604060002091166000526020526080604060002060018154910154604051916fffffffffffffffffffffffffffffffff908181168452841c602084015281166040830152821c6060820152f35b34610546576060600319360112610546576004356bffffffffffffffffffffffff808216808303610546576117b6613156565b6117be613140565b926001600160a01b0380926117d88260335416331461326d565b1693843b15611bcd57821694853b15801590611bc5575b15611b5b578460005260cf602052604060002054611b175761180f613971565b60cc548060d81c804211600014611ad057507fffffffffff000000000000000000000000ffffffffffffffffffffffffffffff7affffffffffffffffffffffff00000000000000000000000000000061187664ffffffffff4216945b868560781c166133f3565b60781b1691161760cc556118898461438c565b60405160e0810181811067ffffffffffffffff82111761112057604052868152836020820192168252604081019188835260608201946000865260808301916000835260a08401966000885260c085019564ffffffffff809816875260cd546801000000000000000081101561112057806001611909920160cd55612fd0565b939093611aa157955195517fffffffffffffffffffffffff0000000000000000000000000000000000000000941660a01b8416958a166001600160a01b0316959095178255611a48986119f8956003949091600185019251169082541617905551600282015501946cffffffffffffffffffffffffff809251167fffffffffffffffffffffffffffffffffffffff00000000000000000000000000875416178655511684907fffffffffffff00000000000000000000000000ffffffffffffffffffffffffff79ffffffffffffffffffffffffff0000000000000000000000000083549260681b169116179055565b5182547fff0000000000ffffffffffffffffffffffffffffffffffffffffffffffffffff16911660d01b7effffffffff000000000000000000000000000000000000000000000000000016179055565b60cd548260005260d1602052604060002055611a6382613414565b5060cd5460018110610de95760206000197f4b16bd2431ad24dc020ab0e1de7fcb6563dead6a24fb10089d6c23e97a70381f926040519485520192a4005b7f4e487b7100000000000000000000000000000000000000000000000000000000600052600060045260246000fd5b7affffffffffffffffffffffff0000000000000000000000000000006118767fffffffffff000000000000000000000000ffffffffffffffffffffffffffffff929461186b565b606460405162461bcd60e51b815260206004820152601560248201527f6164643a204c5020616c726561647920616464656400000000000000000000006044820152fd5b608460405162461bcd60e51b815260206004820152602660248201527f6164643a207265776172646572206d75737420626520636f6e7472616374206f60448201527f72207a65726f00000000000000000000000000000000000000000000000000006064820152fd5b5085156117ef565b608460405162461bcd60e51b815260206004820152602660248201527f6164643a204c5020746f6b656e206d75737420626520612076616c696420636f60448201527f6e747261637400000000000000000000000000000000000000000000000000006064820152fd5b3461054657606060031936011261054657600435602435611c56613140565b90611c6660026065541415613cf0565b6002606555611c7a60ff609754161561338b565b611c8383612fd0565b50918360005260209060d082526040600020936001600160a01b039182811695866000528452604060002090611cb8886139bb565b81549188886fffffffffffffffffffffffffffffffff94888682168881611f60575b505050505050611ce9876142cd565b83611cf8835492828416613d53565b16807fffffffffffffffffffffffffffffffff0000000000000000000000000000000080931617908184558760ca541690898c6024604051809581937f70a0823100000000000000000000000000000000000000000000000000000000835260048301525afa9182156103e357600092611f2f575b5061092f8161092a611d829461093494613514565b611d9f600287019161099283549160801c91865460801c90613560565b90558154936001611dda64e8d4a510006109e1848916986102e360038c0154916cffffffffffffffffffffffffff6109d38d82861690613514565b9301921690825416179055836001611df18a612fd0565b500154169182611ea5575b505090546040517f23b872dd00000000000000000000000000000000000000000000000000000000815233600482015230602482015260448101869052949284925085916064918391600091165af19283156103e3577f16f3fbfd4bcc50a5cecb2e53e398a1ad77d89f63288ef540d862b264ed57eb1f93611e88575b50604051908152a36001606555005b611e9e90833d851161079f576107908183613083565b5085611e79565b6040517fc37232880000000000000000000000000000000000000000000000000000000081526001600160a01b039290921660048301526fffffffffffffffffffffffffffffffff166024820152906000908290604490829084905af180156103e357611f14575b8080611dfc565b611f28903d806000833e6103d58183613083565b5086611f0d565b91508982813d8311611f59575b611f468183613083565b810103126105465790519061092f611d6d565b503d611f3c565b611fb3611fd5926102e37f71bab65ced2e5750775a0613be067df48ef06cf92a496ebf7663ae066092495496600364e8d4a51000950154926109d36cffffffffffffffffffffffffff9182861690613514565b046001870190611fcd8a610bd68454938460801c90613560565b91558461410b565b604051908152a388888b888188611cda565b346105465760006003193601126105465760206001600160a01b0360335416604051908152f35b346105465760006003193601126105465760206cffffffffffffffffffffffffff60cc5416604051908152f35b34610546576000600319360112610546576120626001600160a01b0360335416331461326d565b60017fffffffffffffffffffffffffffffffffffffffffffffffffffffffffffffff0060975461209560ff82161561338b565b16176097557f62e78cea01bee320cd4e420270b5ea74000d11b0c9f74754ebdbfc544b05a2586020604051338152a1005b346105465760006003193601126105465760006033547fffffffffffffffffffffffff00000000000000000000000000000000000000006001600160a01b0382169161211333841461326d565b1660335581604051917f8be0079c531659141344cd1fd0a4f28419497f9722a3daafe3b4186f6b6457e08284a3f35b3461054657600060031936011261054657610593613971565b3461054657600060031936011261054657602060ff609754166040519015158152f35b346105465760208060031936011261054657600435906121a360026065541415613cf0565b60026065556121b182612fd0565b50600083815260d083526040808220338084529085528183208454815493517fa9059cbb00000000000000000000000000000000000000000000000000000000815260048101939093526fffffffffffffffffffffffffffffffff938416602484015290946001600160a01b0394909187918491604491839189165af19182156103e357600292612334575b500161224f8154855460801c906133d6565b90558254168255600161226185612fd0565b50015416806122d0575b5060017fffffffffffffffffffffffffffffffff0000000000000000000000000000000091828154168155019081541690557fbb757047c2b5f3974fe26b7c10f732e7bce710b0952a71082702781e62ae059560405191600083523392a36001606555005b600080916044604051809481937fc37232880000000000000000000000000000000000000000000000000000000083523360048401528160248401525af180156103e3571561226b5761232d903d806000833e6103d58183613083565b508361226b565b61234a90873d891161079f576107908183613083565b508761223d565b34610546576020600319360112610546576105936004356139bb565b346105465760406003193601126105465761238661312a565b6024356001600160a01b038060ca541633036125a55760cd54921660005b8381106123ad57005b80600052602060d08152604060002090836000525260406000206fffffffffffffffffffffffffffffffff90818154161561259a576123eb83612fd0565b506123f5846139bb565b81549060038101918254946cffffffffffffffffffffffffff918287168282169061241f91613514565b9064e8d4a5100080926068928660809b851c16908b1c9061243f91613514565b61244891613560565b0493600188019485549085821661245e916133d6565b612467906142cd565b612472918b1c613d53565b85546fffffffffffffffffffffffffffffffff1660809190911b7fffffffffffffffffffffffffffffffff0000000000000000000000000000000016178555875496848089166124c28f82613514565b906124cc916143e9565b996124d68b6142cd565b81546fffffffffffffffffffffffffffffffff1660809190911b7fffffffffffffffffffffffffffffffff0000000000000000000000000000000016178155541690549082821661252691613514565b921c166125339088613514565b61253c91613560565b04612546906142cd565b1681547fffffffffffffffffffffffffffffffff0000000000000000000000000000000016179055600201921c9082549061258091613560565b9061258a916133d6565b905561259590613603565b6123a4565b505061259590613603565b608460405162461bcd60e51b815260206004820152602160248201527f4d6173746572576f6d6261743a2063616c6c6572206973206e6f74205665576f60448201527f6d000000000000000000000000000000000000000000000000000000000000006064820152fd5b34610546576020806003193601126105465760043567ffffffffffffffff81116105465736602382011215610546576126556126789136906024816004013591016130dc565b61266460026065541415613cf0565b6002606555610f2360ff609754161561338b565b9261269960019283606555604051948552606083860152606085019061304f565b9083820360408501528451908183528083019281808460051b8301019701936000915b8483106126c95787890388f35b909192939495887fffffffffffffffffffffffffffffffffffffffffffffffffffffffffffffffe083839b030184528588518180825194858152019101926000905b8581831061272c5750505081925098019301930191949392909795976126bc565b91938091938651815201940192018892939161270b565b346105465761275136613039565b9061276160026065541415613cf0565b600260655561277560ff609754161561338b565b61277e81612fd0565b50908060005260d0602052604060002033600052602052604060002092806fffffffffffffffffffffffffffffffff85541610612bdd576127be826139bb565b61283564e8d4a5100061280186546102e36003880154916cffffffffffffffffffffffffff6109d38185166fffffffffffffffffffffffffffffffff8416613514565b046128296fffffffffffffffffffffffffffffffff610bd66001890154938460801c90613560565b9060018701553361410b565b92826040518581527f71bab65ced2e5750775a0613be067df48ef06cf92a496ebf7663ae066092495460203392a38454946fffffffffffffffffffffffffffffffff612880846142cd565b1695866fffffffffffffffffffffffffffffffff821610610de9576fffffffffffffffffffffffffffffffff8781831603167fffffffffffffffffffffffffffffffff000000000000000000000000000000008216178255602460206001600160a01b0360ca5416604051928380927f70a082310000000000000000000000000000000000000000000000000000000082523360048301525afa9081156103e357600091612ba9575b5061295e61092f8961092a61299f946fffffffffffffffffffffffffffffffff806102e39e818a160316938189160316613514565b83546fffffffffffffffffffffffffffffffff1660809190911b7fffffffffffffffffffffffffffffffff0000000000000000000000000000000016178355565b6129bc600284019161099283549160801c91855460801c90613560565b905560016fffffffffffffffffffffffffffffffff612a0564e8d4a510006109e185548481169b8c916cffffffffffffffffffffffffff6109d360038c01549482861690613514565b167fffffffffffffffffffffffffffffffff000000000000000000000000000000008284015416179101556001600160a01b036001612a4385612fd0565b5001541660609581612b17575b5050546040517fa9059cbb0000000000000000000000000000000000000000000000000000000081523360048201526024810183905290602090829060449082906000906001600160a01b03165af180156103e357612af8575b506040519081527ff279e6a1f5e320cca91135676d9cb6e44ca8a08c0b88342bcdb1144f6511b56860203392a3600160655561034c604051928392835260406020840152604083019061304f565b612b109060203d60201161079f576107908183613083565b5084612aaa565b6040517fc37232880000000000000000000000000000000000000000000000000000000081523360048201526fffffffffffffffffffffffffffffffff9190911660248201529195506000908290604490829084905af180156103e3576001600160a01b0391600091612b8e575b50949086612a50565b612ba391503d806000833e6103d58183613083565b86612b85565b90506020813d602011612bd5575b81612bc460209383613083565b81010312610546575161295e612929565b3d9150612bb7565b606460405162461bcd60e51b815260206004820152601260248201527f77697468647261773a206e6f7420676f6f6400000000000000000000000000006044820152fd5b3461054657600060031936011261054657612c486001600160a01b0360335416331461326d565b60975460ff811615612ca5577fffffffffffffffffffffffffffffffffffffffffffffffffffffffffffffff00166097557f5db9ee0a495bf2e6ff9c91a7834c1ba4fdd244a5e8aa4e537bd38aeae4b073aa6020604051338152a1005b606460405162461bcd60e51b815260206004820152601460248201527f5061757361626c653a206e6f74207061757365640000000000000000000000006044820152fd5b346105465760006003193601126105465760206001600160a01b0360ca5416604051908152f35b34610546576020600319360112610546576004356cffffffffffffffffffffffffff811680910361054657612d516001600160a01b0360335416331461326d565b612d59613971565b807fffffffffffffffffffffffffffffffffffffff0000000000000000000000000060cc54161760cc556040519081527fe2492e003bbe8afa53088b406f0c1cb5d9e280370fc72a74cf116ffd343c405360203392a2005b346105465760206003193601126105465760043561ffff8082169182810361054657612de96001600160a01b0360335416331461326d565b6103e8831161054657612e4290612dfe613971565b60cc547fffffffffffffffffffffffffffffffffff0000ffffffffffffffffffffffffff6effff000000000000000000000000008360681b1691161760cc556133e1565b6040519283521660208201527f7fd921cf733c788915a229b0ea58095c44ae2c275ed7835501e5135fe3c1ed0560403392a2005b346105465760006003193601126105465760206bffffffffffffffffffffffff60cc5460781c16604051908152f35b346105465760206003193601126105465760043560cd548110156105465760e09060cd60005260021b64ffffffffff817f83978b4c69c48dd978ab43fe30f077615294f938fb7f936d9eb340e51ea7db2e01546001600160a01b0392837f83978b4c69c48dd978ab43fe30f077615294f938fb7f936d9eb340e51ea7db2f820154167f83978b4c69c48dd978ab43fe30f077615294f938fb7f936d9eb340e51ea7db317f83978b4c69c48dd978ab43fe30f077615294f938fb7f936d9eb340e51ea7db3083015492015492604051958116865260a01c6020860152604085015260608401526cffffffffffffffffffffffffff80821660808501528160681c1660a084015260d01c1660c0820152f35b346105465760006003193601126105465760209060cd548152f35b60cd5481101561300a5760cd60005260021b7f83978b4c69c48dd978ab43fe30f077615294f938fb7f936d9eb340e51ea7db2e0190600090565b7f4e487b7100000000000000000000000000000000000000000000000000000000600052603260045260246000fd5b6003196040910112610546576004359060243590565b90815180825260208080930193019160005b82811061306f575050505090565b835185529381019392810192600101613061565b90601f7fffffffffffffffffffffffffffffffffffffffffffffffffffffffffffffffe0910116810190811067ffffffffffffffff82111761112057604052565b67ffffffffffffffff81116111205760051b60200190565b92916130e7826130c4565b916130f56040519384613083565b829481845260208094019160051b810192831161054657905b82821061311b5750505050565b8135815290830190830161310e565b600435906001600160a01b038216820361054657565b604435906001600160a01b038216820361054657565b602435906001600160a01b038216820361054657565b90815180825260208080930193019160005b82811061318c575050505090565b83516001600160a01b03168552938101939281019260010161317e565b918091926000905b8282106131c95750116131c2575050565b6000910152565b915080602091830151818601520182916131b1565b908082519081815260208091019281808460051b8301019501936000915b84831061320c5750505050505090565b9091929394958480806001937fffffffffffffffffffffffffffffffffffffffffffffffffffffffffffffffe080878303018852601f8c51613259815180928187528780880191016131a9565b0116010198019301930191949392906131fc565b1561327457565b606460405162461bcd60e51b815260206004820152602060248201527f4f776e61626c653a2063616c6c6572206973206e6f7420746865206f776e65726044820152fd5b603354906001600160a01b0380911691827fffffffffffffffffffffffff0000000000000000000000000000000000000000821617603355167f8be0079c531659141344cd1fd0a4f28419497f9722a3daafe3b4186f6b6457e06000604051a3565b1561332157565b608460405162461bcd60e51b815260206004820152602b60248201527f496e697469616c697a61626c653a20636f6e7472616374206973206e6f74206960448201527f6e697469616c697a696e670000000000000000000000000000000000000000006064820152fd5b1561339257565b606460405162461bcd60e51b815260206004820152601060248201527f5061757361626c653a20706175736564000000000000000000000000000000006044820152fd5b818110610de9570390565b61ffff166103e8818110610de9570390565b906bffffffffffffffffffffffff8080931691168092038111610de9570190565b600081815260cf60205260408120546134de5760ce54680100000000000000008110156134b157600181018060ce558110156134845790826040927fd36cd1c74ef8d7326d8021b776c18fb5a5724b7f7bc93c2f42e43e10ef27d12a015560ce5492815260cf6020522055600190565b6024827f4e487b710000000000000000000000000000000000000000000000000000000081526032600452fd5b6024827f4e487b710000000000000000000000000000000000000000000000000000000081526041600452fd5b905090565b64e8d4a51000908060001904821181151516610de9570290565b6103e8908060001904821181151516610de9570290565b8060001904821181151516610de9570290565b8115613531570490565b7f4e487b7100000000000000000000000000000000000000000000000000000000600052601260045260246000fd5b81198111610de9570190565b60209081818403126105465780519067ffffffffffffffff821161054657019180601f840112156105465782516135a2816130c4565b936135b06040519586613083565b818552838086019260051b820101928311610546578301905b8282106135d7575050505090565b815181529083019083016135c9565b60005b8281106135f557505050565b6060828201526020016135e9565b6000198114610de95760010190565b805182101561300a5760209160051b010190565b613631600191612fd0565b5001546001600160a01b03908116918215613968576040928351928380927fc2b18aa0000000000000000000000000000000000000000000000000000000008252600091829160049586915afa94851561395c5781956138bd575b50849585519261369b846130c4565b926136a883519485613083565b8484527fffffffffffffffffffffffffffffffffffffffffffffffffffffffffffffffe0806136d6876130c4565b01926136e66020948588016135e6565b8599835b8881106136fd5750505050505050505050565b89836137098385613612565b51166137a45750865187810181811067ffffffffffffffff821117613778578852600381527f424e420000000000000000000000000000000000000000000000000000000000878201526137739190613762828b613612565b5261376d818a613612565b50613603565b6136ea565b60248760418e7f4e487b7100000000000000000000000000000000000000000000000000000000835252fd5b9085846137b18386613612565b51168951938480927f95d89b410000000000000000000000000000000000000000000000000000000082525afa80156138b35786906137fa575b6137739250613762828b613612565b50903d8087833e61380b8183613083565b81019087818303126138af57805167ffffffffffffffff918282116138ab5701601f928084830112156138ab57815192831161387e576138538a898d51968601160185613083565b82845289838301011161387a578291613875918a8061377397960191016131a9565b6137eb565b8780fd5b5060248860418f7f4e487b7100000000000000000000000000000000000000000000000000000000835252fd5b8880fd5b8680fd5b88513d88823e3d90fd5b9094503d8086833e6138cf8183613083565b81019060209081818403126138af5780519067ffffffffffffffff821161387a57019180601f840112156138af578251613908816130c4565b936139158a519586613083565b818552838086019260051b8201019283116138ab578301905b8282106139405750505050933861368c565b8151868116810361395857815290830190830161392e565b8980fd5b508551903d90823e3d90fd5b60609250829150565b60cd5460005b818110613982575050565b8061398f613994926139bb565b613603565b613977565b906cffffffffffffffffffffffffff8080931691168092038111610de9570190565b6139c481612fd0565b506003810164ffffffffff80825460d01c1642116139e3575b50505050565b60249160206001600160a01b03855416604051948580927f70a082310000000000000000000000000000000000000000000000000000000082523060048301525afa9283156103e357600093613cba575b508215613c5e57805492613a4e60d085901c8416426133d6565b9160cc54946cffffffffffffffffffffffffff968794858816613a7091613514565b815460a01c613a7e91613514565b8760781c6bffffffffffffffffffffffff16613a9991613527565b9185613aa4846134e3565b61ffff809a60681c16613ab691613514565b613abf876134fd565b613ac891613527565b613ad19061432e565b613add90838316613999565b16907fffffffffffffffffffffffffffffffffffffff0000000000000000000000000016179081845560020154908115600014986060987f3be3541fc42237d611b30329040bfa4569541d156560acdbbae57640d20b8f469a613bd65750505050507fffffffffffff00000000000000000000000000ffffffffffffffffffffffffff81541681555b80547fff0000000000ffffffffffffffffffffffffffffffffffffffffffffffffffff1642851660d01b7effffffffff0000000000000000000000000000000000000000000000000000161781555490604051938260d01c1684526020840152166040820152a2388080806139dd565b610497613c0e9461049161048b613c0494613bf3613c599a6134e3565b906104ed8160cc5460681c166133e1565b9160681c16613999565b82547fffffffffffff00000000000000000000000000ffffffffffffffffffffffffff1660689190911b79ffffffffffffffffffffffffff0000000000000000000000000016178255565b613b66565b92509050613cb8925042167fff0000000000ffffffffffffffffffffffffffffffffffffffffffffffffffff7effffffffff000000000000000000000000000000000000000000000000000083549260d01b169116179055565b565b90926020823d8211613ce8575b81613cd460209383613083565b81010312613ce55750519138613a34565b80fd5b3d9150613cc7565b15613cf757565b606460405162461bcd60e51b815260206004820152601f60248201527f5265656e7472616e637947756172643a207265656e7472616e742063616c6c006044820152fd5b90816020910312610546575180151581036105465790565b906fffffffffffffffffffffffffffffffff8080931691168092038111610de9570190565b8051613dc592916000613d8a836130c4565b604093613d9985519283613083565b8082527fffffffffffffffffffffffffffffffffffffffffffffffffffffffffffffffe09687916130c4565b016020903682840137613dfe845197613df5613de08a6130c4565b99613ded89519b8c613083565b808b526130c4565b018289016135e6565b825b8451811015613ffc57613e138186613612565b5160005260d0825285600020336000528252856000206fffffffffffffffffffffffffffffffff9081815416613e54575b5050613e4f90613603565b613e00565b613e5e8388613612565b51613e68906139bb565b613e728388613612565b51613e7c90612fd0565b5081549660038201978854946cffffffffffffffffffffffffff908181841697818116613ea9908a613514565b606891608096871c9164e8d4a51000948592851c16613ec89084613514565b613ed191613560565b0494846001809b0196875480991c613ee891613560565b97169687613ef5916133d6565b9e8f97875554818116613f08908d613514565b931c16613f1491613514565b613f1d91613560565b04613f27906142cd565b169055613f3391613560565b96613f3e8588613612565b5201546001600160a01b0316908115613e445787517fc37232880000000000000000000000000000000000000000000000000000000081523360048201526fffffffffffffffffffffffffffffffff919091166024820152906000908290604490829084905af1908115613ff15790613e4f9291600091613fd8575b50613fc5828b613612565b52613fd0818a613612565b509038613e44565b613feb913d8091833e6103d58183613083565b38613fba565b87513d6000823e3d90fd5b5095939291909361400d823361410b565b908282146140a35760005b845181101561409757806140428561403d614036614092958c613612565b5187613514565b613527565b61404c828a613612565b526140578187613612565b51614062828a613612565b5188519081527f71bab65ced2e5750775a0613be067df48ef06cf92a496ebf7663ae06609249548c3392a3613603565b614018565b50909650939492505050565b91509460005b835181101561410057806140c06140fb9286613612565b516140cb8289613612565b5187519081527f71bab65ced2e5750775a0613be067df48ef06cf92a496ebf7663ae06609249548b3392a3613603565b6140a9565b509495509293915050565b6001600160a01b038060c95416916040918251947f70a082310000000000000000000000000000000000000000000000000000000086523060048701526020948587602481845afa9687156142c257600097614293575b50861561425057868211156141fc57505060c95483517fa9059cbb0000000000000000000000000000000000000000000000000000000081526001600160a01b03909316600484015260248301869052919291849184911681600081604481015b03925af19081156141f257506141d857505090565b816141ee92903d1061079f576107908183613083565b5090565b513d6000823e3d90fd5b84517fa9059cbb0000000000000000000000000000000000000000000000000000000081526001600160a01b03909416600485015260248401829052909550919291849150839081600081604481016141c3565b60648686519062461bcd60e51b82526004820152601760248201527f4e6f20746f6b656e7320746f20646973747269627574650000000000000000006044820152fd5b90968682813d83116142bb575b6142aa8183613083565b81010312613ce55750519538614162565b503d6142a0565b85513d6000823e3d90fd5b6fffffffffffffffffffffffffffffffff908181116142ea571690565b606460405162461bcd60e51b815260206004820152601060248201527f75696e74313238206f766572666c6f77000000000000000000000000000000006044820152fd5b6cffffffffffffffffffffffffff90818111614348571690565b606460405162461bcd60e51b815260206004820152601060248201527f75696e74313034206f766572666c6f77000000000000000000000000000000006044820152fd5b6bffffffffffffffffffffffff908181116143a5571690565b606460405162461bcd60e51b815260206004820152600f60248201527f75696e743936206f766572666c6f7700000000000000000000000000000000006044820152fd5b91906000600384111561445857508281118015614450575b1561444a5750815b61441c836144178184613527565b613560565b600190811c915b84830361442f57505050565b90919350614441846144178184613527565b821c9190614423565b91614409565b508015614401565b92905061446157565b6001915056fea2646970667358221220607f6cd11a3d89886940aafb37feee9862b885a3a6b51380ea39532c2cb470fd64736f6c634300080f0033",
  "devdoc": {
    "details": "Updates: - pack struct - move pendingWom into UserInfo - use MultiRewarderPerSec",
    "kind": "dev",
    "methods": {
      "add(uint96,address,address)": {
        "details": "Reverts if the same LP token is added more than once.",
        "params": {
          "_allocPoint": "allocation points for this LP",
          "_lpToken": "the corresponding lp token",
          "_rewarder": "the rewarder"
        }
      },
      "deposit(uint256,uint256)": {
        "details": "it is possible to call this function with _amount == 0 to claim current rewards",
        "params": {
          "_amount": "amount to deposit",
          "_pid": "the pool id"
        }
      },
      "depositFor(uint256,uint256,address)": {
        "details": "user must initiate transaction from masterchef",
        "params": {
          "_amount": "amount to deposit",
          "_pid": "the pool id",
          "_user": "the user being represented"
        }
      },
      "emergencyWithdraw(uint256)": {
        "params": {
          "_pid": "the pool id"
        }
      },
      "massUpdatePools()": {
        "details": "Be careful of gas spending!"
      },
      "migrate(uint256[])": {
        "details": "Assume the orginal MasterWombat has stopped emisions hence we can skip updatePool() to save gas cost"
      },
      "multiClaim(uint256[])": {
        "params": {
          "_pids": "array pids, pools to claim"
        }
      },
      "owner()": {
        "details": "Returns the address of the current owner."
      },
      "pause()": {
        "details": "pause pool, restricting certain operations"
      },
      "paused()": {
        "details": "Returns true if the contract is paused, and false otherwise."
      },
      "pendingTokens(uint256,address)": {
        "params": {
          "_pid": "the pool id",
          "_user": "the user address"
        }
      },
      "renounceOwnership()": {
        "details": "Leaves the contract without owner. It will not be possible to call `onlyOwner` functions anymore. Can only be called by the current owner. NOTE: Renouncing ownership will leave the contract without an owner, thereby removing any functionality that is only available to the owner."
      },
      "rewarderBonusTokenInfo(uint256)": {
        "params": {
          "_pid": "the pool id"
        }
      },
      "set(uint256,uint96,address,bool)": {
        "params": {
          "_allocPoint": "allocation points",
          "_pid": "the pool id",
          "_rewarder": "the rewarder",
          "overwrite": "overwrite rewarder?"
        }
      },
      "setVeWom(address)": {
        "params": {
          "_newVeWom": "the new VeWom address"
        }
      },
      "transferOwnership(address)": {
        "details": "Transfers ownership of the contract to a new account (`newOwner`). Can only be called by the current owner."
      },
      "unpause()": {
        "details": "unpause pool, enabling certain operations"
      },
      "updateEmissionPartition(uint16)": {
        "params": {
          "_basePartition": "the future base partition"
        }
      },
      "updateEmissionRate(uint104)": {
        "details": "Pancake has to add hidden dummy pools inorder to alter the emission,here we make it simple and transparent to all.",
        "params": {
          "_womPerSec": "wom amount to be updated"
        }
      },
      "updateFactor(address,uint256)": {
        "details": "can only be called by veWom",
        "params": {
          "_newVeWomBalance": "the amount of veWOM",
          "_user": "the user to update"
        }
      },
      "updatePool(uint256)": {
        "params": {
          "_pid": "the pool id"
        }
      },
      "withdraw(uint256,uint256)": {
        "params": {
          "_amount": "the amount to withdraw",
          "_pid": "the pool id"
        }
      }
    },
    "title": "MasterWombatV2",
    "version": 1
  },
  "userdoc": {
    "kind": "user",
    "methods": {
      "add(uint96,address,address)": {
        "notice": "Add a new lp to the pool. Can only be called by the owner."
      },
      "deposit(uint256,uint256)": {
        "notice": "Deposit LP tokens to MasterChef for WOM allocation."
      },
      "depositFor(uint256,uint256,address)": {
        "notice": "Deposit LP tokens to MasterChef for WOM allocation on behalf of user"
      },
      "emergencyWithdraw(uint256)": {
        "notice": "Withdraw without caring about rewards. EMERGENCY ONLY."
      },
      "emergencyWomWithdraw()": {
        "notice": "In case we need to manually migrate WOM funds from MasterChef Sends all remaining wom from the contract to the owner"
      },
      "massUpdatePools()": {
        "notice": "Update reward variables for all pools."
      },
      "migrate(uint256[])": {
        "notice": "Helper function to migrate fund from multiple pools to the new MasterWombat.user must initiate transaction from masterchef"
      },
      "multiClaim(uint256[])": {
        "notice": "claims rewards for multiple pids"
      },
      "pendingTokens(uint256,address)": {
        "notice": "View function to see pending WOMs on frontend."
      },
      "poolLength()": {
        "notice": "returns pool length"
      },
      "rewarderBonusTokenInfo(uint256)": {
        "notice": "Get bonus token info from the rewarder contract for a given pool, if it is a double reward farm"
      },
      "set(uint256,uint96,address,bool)": {
        "notice": "Update the given pool's WOM allocation point. Can only be called by the owner."
      },
      "setVeWom(address)": {
        "notice": "updates veWom address"
      },
      "updateEmissionPartition(uint16)": {
        "notice": "updates emission partition"
      },
      "updateEmissionRate(uint104)": {
        "notice": "updates emission rate"
      },
      "updateFactor(address,uint256)": {
        "notice": "updates factor after any veWom token operation (minting/burning)"
      },
      "updatePool(uint256)": {
        "notice": "Update reward variables of the given pool to be up-to-date."
      },
      "withdraw(uint256,uint256)": {
        "notice": "Withdraw LP tokens from MasterWombat.Automatically harvest pending rewards and sends to user"
      },
      "womPerSec()": {
        "notice": "WOM tokens created per second. 13.18 fixed point"
      }
    },
    "notice": "MasterWombat is a boss. He is not afraid of any snakes. In fact, he drinks their venoms. So, veWom holders boost their (boosted) emissions. This contract rewards users in function of their amount of lp staked (base pool) factor (boosted pool) Factor and sumOfFactors are updated by contract VeWom.sol after any veWom minting/burning (veERC20Upgradeable hook). Note that it's ownable and the owner wields tremendous power. The ownership will be transferred to a governance smart contract once Wombat is sufficiently distributed and the community can show to govern itself.",
    "version": 1
  },
  "storageLayout": {
    "storage": [
      {
        "astId": 130,
        "contract": "contracts/wombat-governance/MasterWombatV2.sol:MasterWombatV2",
        "label": "_initialized",
        "offset": 0,
        "slot": "0",
        "type": "t_bool"
      },
      {
        "astId": 133,
        "contract": "contracts/wombat-governance/MasterWombatV2.sol:MasterWombatV2",
        "label": "_initializing",
        "offset": 1,
        "slot": "0",
        "type": "t_bool"
      },
      {
        "astId": 651,
        "contract": "contracts/wombat-governance/MasterWombatV2.sol:MasterWombatV2",
        "label": "__gap",
        "offset": 0,
        "slot": "1",
        "type": "t_array(t_uint256)50_storage"
      },
      {
        "astId": 10,
        "contract": "contracts/wombat-governance/MasterWombatV2.sol:MasterWombatV2",
        "label": "_owner",
        "offset": 0,
        "slot": "51",
        "type": "t_address"
      },
      {
        "astId": 122,
        "contract": "contracts/wombat-governance/MasterWombatV2.sol:MasterWombatV2",
        "label": "__gap",
        "offset": 0,
        "slot": "52",
        "type": "t_array(t_uint256)49_storage"
      },
      {
        "astId": 322,
        "contract": "contracts/wombat-governance/MasterWombatV2.sol:MasterWombatV2",
        "label": "_status",
        "offset": 0,
        "slot": "101",
        "type": "t_uint256"
      },
      {
        "astId": 366,
        "contract": "contracts/wombat-governance/MasterWombatV2.sol:MasterWombatV2",
        "label": "__gap",
        "offset": 0,
        "slot": "102",
        "type": "t_array(t_uint256)49_storage"
      },
      {
        "astId": 218,
        "contract": "contracts/wombat-governance/MasterWombatV2.sol:MasterWombatV2",
        "label": "_paused",
        "offset": 0,
        "slot": "151",
        "type": "t_bool"
      },
      {
        "astId": 307,
        "contract": "contracts/wombat-governance/MasterWombatV2.sol:MasterWombatV2",
        "label": "__gap",
        "offset": 0,
        "slot": "152",
        "type": "t_array(t_uint256)49_storage"
      },
      {
        "astId": 13584,
        "contract": "contracts/wombat-governance/MasterWombatV2.sol:MasterWombatV2",
        "label": "wom",
        "offset": 0,
        "slot": "201",
        "type": "t_contract(IERC20)1420"
      },
      {
        "astId": 13587,
        "contract": "contracts/wombat-governance/MasterWombatV2.sol:MasterWombatV2",
        "label": "veWom",
        "offset": 0,
        "slot": "202",
        "type": "t_contract(IVeWom)17570"
      },
      {
        "astId": 13590,
        "contract": "contracts/wombat-governance/MasterWombatV2.sol:MasterWombatV2",
        "label": "newMasterWombat",
        "offset": 0,
        "slot": "203",
        "type": "t_contract(IMasterWombatV2)17449"
      },
      {
        "astId": 13593,
        "contract": "contracts/wombat-governance/MasterWombatV2.sol:MasterWombatV2",
        "label": "womPerSec",
        "offset": 0,
        "slot": "204",
        "type": "t_uint104"
      },
      {
        "astId": 13595,
        "contract": "contracts/wombat-governance/MasterWombatV2.sol:MasterWombatV2",
        "label": "basePartition",
        "offset": 13,
        "slot": "204",
        "type": "t_uint16"
      },
      {
        "astId": 13597,
        "contract": "contracts/wombat-governance/MasterWombatV2.sol:MasterWombatV2",
        "label": "totalAllocPoint",
        "offset": 15,
        "slot": "204",
        "type": "t_uint96"
      },
      {
        "astId": 13599,
        "contract": "contracts/wombat-governance/MasterWombatV2.sol:MasterWombatV2",
        "label": "startTimestamp",
        "offset": 27,
        "slot": "204",
        "type": "t_uint40"
      },
      {
        "astId": 13603,
        "contract": "contracts/wombat-governance/MasterWombatV2.sol:MasterWombatV2",
        "label": "poolInfo",
        "offset": 0,
        "slot": "205",
        "type": "t_array(t_struct(PoolInfo)13581_storage)dyn_storage"
      },
      {
        "astId": 13606,
        "contract": "contracts/wombat-governance/MasterWombatV2.sol:MasterWombatV2",
        "label": "lpTokens",
        "offset": 0,
        "slot": "206",
        "type": "t_struct(AddressSet)3408_storage"
      },
      {
        "astId": 13613,
        "contract": "contracts/wombat-governance/MasterWombatV2.sol:MasterWombatV2",
        "label": "userInfo",
        "offset": 0,
        "slot": "208",
        "type": "t_mapping(t_uint256,t_mapping(t_address,t_struct(UserInfo)13564_storage))"
      },
      {
        "astId": 13617,
        "contract": "contracts/wombat-governance/MasterWombatV2.sol:MasterWombatV2",
        "label": "assetPid",
        "offset": 0,
        "slot": "209",
        "type": "t_mapping(t_address,t_uint256)"
      }
    ],
    "types": {
      "t_address": {
        "encoding": "inplace",
        "label": "address",
        "numberOfBytes": "20"
      },
      "t_array(t_bytes32)dyn_storage": {
        "base": "t_bytes32",
        "encoding": "dynamic_array",
        "label": "bytes32[]",
        "numberOfBytes": "32"
      },
      "t_array(t_struct(PoolInfo)13581_storage)dyn_storage": {
        "base": "t_struct(PoolInfo)13581_storage",
        "encoding": "dynamic_array",
        "label": "struct MasterWombatV2.PoolInfo[]",
        "numberOfBytes": "32"
      },
      "t_array(t_uint256)49_storage": {
        "base": "t_uint256",
        "encoding": "inplace",
        "label": "uint256[49]",
        "numberOfBytes": "1568"
      },
      "t_array(t_uint256)50_storage": {
        "base": "t_uint256",
        "encoding": "inplace",
        "label": "uint256[50]",
        "numberOfBytes": "1600"
      },
      "t_bool": {
        "encoding": "inplace",
        "label": "bool",
        "numberOfBytes": "1"
      },
      "t_bytes32": {
        "encoding": "inplace",
        "label": "bytes32",
        "numberOfBytes": "32"
      },
      "t_contract(IERC20)1420": {
        "encoding": "inplace",
        "label": "contract IERC20",
        "numberOfBytes": "20"
      },
      "t_contract(IMasterWombatV2)17449": {
        "encoding": "inplace",
        "label": "contract IMasterWombatV2",
        "numberOfBytes": "20"
      },
      "t_contract(IMultiRewarder)17483": {
        "encoding": "inplace",
        "label": "contract IMultiRewarder",
        "numberOfBytes": "20"
      },
      "t_contract(IVeWom)17570": {
        "encoding": "inplace",
        "label": "contract IVeWom",
        "numberOfBytes": "20"
      },
      "t_mapping(t_address,t_struct(UserInfo)13564_storage)": {
        "encoding": "mapping",
        "key": "t_address",
        "label": "mapping(address => struct MasterWombatV2.UserInfo)",
        "numberOfBytes": "32",
        "value": "t_struct(UserInfo)13564_storage"
      },
      "t_mapping(t_address,t_uint256)": {
        "encoding": "mapping",
        "key": "t_address",
        "label": "mapping(address => uint256)",
        "numberOfBytes": "32",
        "value": "t_uint256"
      },
      "t_mapping(t_bytes32,t_uint256)": {
        "encoding": "mapping",
        "key": "t_bytes32",
        "label": "mapping(bytes32 => uint256)",
        "numberOfBytes": "32",
        "value": "t_uint256"
      },
      "t_mapping(t_uint256,t_mapping(t_address,t_struct(UserInfo)13564_storage))": {
        "encoding": "mapping",
        "key": "t_uint256",
        "label": "mapping(uint256 => mapping(address => struct MasterWombatV2.UserInfo))",
        "numberOfBytes": "32",
        "value": "t_mapping(t_address,t_struct(UserInfo)13564_storage)"
      },
      "t_struct(AddressSet)3408_storage": {
        "encoding": "inplace",
        "label": "struct EnumerableSet.AddressSet",
        "members": [
          {
            "astId": 3407,
            "contract": "contracts/wombat-governance/MasterWombatV2.sol:MasterWombatV2",
            "label": "_inner",
            "offset": 0,
            "slot": "0",
            "type": "t_struct(Set)3137_storage"
          }
        ],
        "numberOfBytes": "64"
      },
      "t_struct(PoolInfo)13581_storage": {
        "encoding": "inplace",
        "label": "struct MasterWombatV2.PoolInfo",
        "members": [
          {
            "astId": 13567,
            "contract": "contracts/wombat-governance/MasterWombatV2.sol:MasterWombatV2",
            "label": "lpToken",
            "offset": 0,
            "slot": "0",
            "type": "t_contract(IERC20)1420"
          },
          {
            "astId": 13569,
            "contract": "contracts/wombat-governance/MasterWombatV2.sol:MasterWombatV2",
            "label": "allocPoint",
            "offset": 20,
            "slot": "0",
            "type": "t_uint96"
          },
          {
            "astId": 13572,
            "contract": "contracts/wombat-governance/MasterWombatV2.sol:MasterWombatV2",
            "label": "rewarder",
            "offset": 0,
            "slot": "1",
            "type": "t_contract(IMultiRewarder)17483"
          },
          {
            "astId": 13574,
            "contract": "contracts/wombat-governance/MasterWombatV2.sol:MasterWombatV2",
            "label": "sumOfFactors",
            "offset": 0,
            "slot": "2",
            "type": "t_uint256"
          },
          {
            "astId": 13576,
            "contract": "contracts/wombat-governance/MasterWombatV2.sol:MasterWombatV2",
            "label": "accWomPerShare",
            "offset": 0,
            "slot": "3",
            "type": "t_uint104"
          },
          {
            "astId": 13578,
            "contract": "contracts/wombat-governance/MasterWombatV2.sol:MasterWombatV2",
            "label": "accWomPerFactorShare",
            "offset": 13,
            "slot": "3",
            "type": "t_uint104"
          },
          {
            "astId": 13580,
            "contract": "contracts/wombat-governance/MasterWombatV2.sol:MasterWombatV2",
            "label": "lastRewardTimestamp",
            "offset": 26,
            "slot": "3",
            "type": "t_uint40"
          }
        ],
        "numberOfBytes": "128"
      },
      "t_struct(Set)3137_storage": {
        "encoding": "inplace",
        "label": "struct EnumerableSet.Set",
        "members": [
          {
            "astId": 3132,
            "contract": "contracts/wombat-governance/MasterWombatV2.sol:MasterWombatV2",
            "label": "_values",
            "offset": 0,
            "slot": "0",
            "type": "t_array(t_bytes32)dyn_storage"
          },
          {
            "astId": 3136,
            "contract": "contracts/wombat-governance/MasterWombatV2.sol:MasterWombatV2",
            "label": "_indexes",
            "offset": 0,
            "slot": "1",
            "type": "t_mapping(t_bytes32,t_uint256)"
          }
        ],
        "numberOfBytes": "64"
      },
      "t_struct(UserInfo)13564_storage": {
        "encoding": "inplace",
        "label": "struct MasterWombatV2.UserInfo",
        "members": [
          {
            "astId": 13557,
            "contract": "contracts/wombat-governance/MasterWombatV2.sol:MasterWombatV2",
            "label": "amount",
            "offset": 0,
            "slot": "0",
            "type": "t_uint128"
          },
          {
            "astId": 13559,
            "contract": "contracts/wombat-governance/MasterWombatV2.sol:MasterWombatV2",
            "label": "factor",
            "offset": 16,
            "slot": "0",
            "type": "t_uint128"
          },
          {
            "astId": 13561,
            "contract": "contracts/wombat-governance/MasterWombatV2.sol:MasterWombatV2",
            "label": "rewardDebt",
            "offset": 0,
            "slot": "1",
            "type": "t_uint128"
          },
          {
            "astId": 13563,
            "contract": "contracts/wombat-governance/MasterWombatV2.sol:MasterWombatV2",
            "label": "pendingWom",
            "offset": 16,
            "slot": "1",
            "type": "t_uint128"
          }
        ],
        "numberOfBytes": "64"
      },
      "t_uint104": {
        "encoding": "inplace",
        "label": "uint104",
        "numberOfBytes": "13"
      },
      "t_uint128": {
        "encoding": "inplace",
        "label": "uint128",
        "numberOfBytes": "16"
      },
      "t_uint16": {
        "encoding": "inplace",
        "label": "uint16",
        "numberOfBytes": "2"
      },
      "t_uint256": {
        "encoding": "inplace",
        "label": "uint256",
        "numberOfBytes": "32"
      },
      "t_uint40": {
        "encoding": "inplace",
        "label": "uint40",
        "numberOfBytes": "5"
      },
      "t_uint96": {
        "encoding": "inplace",
        "label": "uint96",
        "numberOfBytes": "12"
      }
    }
  }
}