{
  "address": "0x414D1a760320f948147FB71113851BB11CB53976",
  "abi": [
    {
      "inputs": [
        {
          "internalType": "contract IMasterWombat",
          "name": "_MP",
          "type": "address"
        },
        {
          "internalType": "contract IERC20",
          "name": "_lpToken",
          "type": "address"
        },
        {
          "internalType": "uint256",
          "name": "_startTimestamp",
          "type": "uint256"
        },
        {
          "internalType": "contract IERC20",
          "name": "_rewardToken",
          "type": "address"
        },
        {
          "internalType": "uint96",
          "name": "_tokenPerSec",
          "type": "uint96"
        }
      ],
      "stateMutability": "nonpayable",
      "type": "constructor"
    },
    {
      "anonymous": false,
      "inputs": [
        {
          "indexed": true,
          "internalType": "address",
          "name": "rewardToken",
          "type": "address"
        },
        {
          "indexed": true,
          "internalType": "address",
          "name": "user",
          "type": "address"
        },
        {
          "indexed": false,
          "internalType": "uint256",
          "name": "amount",
          "type": "uint256"
        }
      ],
      "name": "OnReward",
      "type": "event"
    },
    {
      "anonymous": false,
      "inputs": [
        {
          "indexed": true,
          "internalType": "address",
          "name": "previousOwner",
          "type": "address"
        },
        {
          "indexed": true,
          "internalType": "address",
          "name": "newOwner",
          "type": "address"
        }
      ],
      "name": "OwnershipTransferred",
      "type": "event"
    },
    {
      "anonymous": false,
      "inputs": [
        {
          "indexed": true,
          "internalType": "address",
          "name": "rewardToken",
          "type": "address"
        },
        {
          "indexed": false,
          "internalType": "uint256",
          "name": "oldRate",
          "type": "uint256"
        },
        {
          "indexed": false,
          "internalType": "uint256",
          "name": "newRate",
          "type": "uint256"
        }
      ],
      "name": "RewardRateUpdated",
      "type": "event"
    },
    {
      "inputs": [
        {
          "internalType": "contract IERC20",
          "name": "_rewardToken",
          "type": "address"
        },
        {
          "internalType": "uint96",
          "name": "_tokenPerSec",
          "type": "uint96"
        }
      ],
      "name": "addRewardToken",
      "outputs": [],
      "stateMutability": "nonpayable",
      "type": "function"
    },
    {
      "inputs": [],
      "name": "balances",
      "outputs": [
        {
          "internalType": "uint256[]",
          "name": "balances_",
          "type": "uint256[]"
        }
      ],
      "stateMutability": "view",
      "type": "function"
    },
    {
      "inputs": [
        {
          "internalType": "address",
          "name": "token",
          "type": "address"
        }
      ],
      "name": "emergencyTokenWithdraw",
      "outputs": [],
      "stateMutability": "nonpayable",
      "type": "function"
    },
    {
      "inputs": [],
      "name": "emergencyWithdraw",
      "outputs": [],
      "stateMutability": "nonpayable",
      "type": "function"
    },
    {
      "inputs": [],
      "name": "lastRewardTimestamp",
      "outputs": [
        {
          "internalType": "uint256",
          "name": "",
          "type": "uint256"
        }
      ],
      "stateMutability": "view",
      "type": "function"
    },
    {
      "inputs": [],
      "name": "lpToken",
      "outputs": [
        {
          "internalType": "contract IERC20",
          "name": "",
          "type": "address"
        }
      ],
      "stateMutability": "view",
      "type": "function"
    },
    {
      "inputs": [],
      "name": "masterWombat",
      "outputs": [
        {
          "internalType": "contract IMasterWombat",
          "name": "",
          "type": "address"
        }
      ],
      "stateMutability": "view",
      "type": "function"
    },
    {
      "inputs": [
        {
          "internalType": "address",
          "name": "_user",
          "type": "address"
        },
        {
          "internalType": "uint256",
          "name": "_lpAmount",
          "type": "uint256"
        }
      ],
      "name": "onReward",
      "outputs": [
        {
          "internalType": "uint256[]",
          "name": "rewards",
          "type": "uint256[]"
        }
      ],
      "stateMutability": "nonpayable",
      "type": "function"
    },
    {
      "inputs": [],
      "name": "operator",
      "outputs": [
        {
          "internalType": "address",
          "name": "",
          "type": "address"
        }
      ],
      "stateMutability": "view",
      "type": "function"
    },
    {
      "inputs": [],
      "name": "owner",
      "outputs": [
        {
          "internalType": "address",
          "name": "",
          "type": "address"
        }
      ],
      "stateMutability": "view",
      "type": "function"
    },
    {
      "inputs": [
        {
          "internalType": "address",
          "name": "_user",
          "type": "address"
        }
      ],
      "name": "pendingTokens",
      "outputs": [
        {
          "internalType": "uint256[]",
          "name": "rewards",
          "type": "uint256[]"
        }
      ],
      "stateMutability": "view",
      "type": "function"
    },
    {
      "inputs": [],
      "name": "renounceOwnership",
      "outputs": [],
      "stateMutability": "nonpayable",
      "type": "function"
    },
    {
      "inputs": [
        {
          "internalType": "uint256",
          "name": "",
          "type": "uint256"
        }
      ],
      "name": "rewardInfo",
      "outputs": [
        {
          "internalType": "contract IERC20",
          "name": "rewardToken",
          "type": "address"
        },
        {
          "internalType": "uint96",
          "name": "tokenPerSec",
          "type": "uint96"
        },
        {
          "internalType": "uint128",
          "name": "accTokenPerShare",
          "type": "uint128"
        }
      ],
      "stateMutability": "view",
      "type": "function"
    },
    {
      "inputs": [],
      "name": "rewardLength",
      "outputs": [
        {
          "internalType": "uint256",
          "name": "",
          "type": "uint256"
        }
      ],
      "stateMutability": "view",
      "type": "function"
    },
    {
      "inputs": [],
      "name": "rewardTokens",
      "outputs": [
        {
          "internalType": "contract IERC20[]",
          "name": "tokens",
          "type": "address[]"
        }
      ],
      "stateMutability": "view",
      "type": "function"
    },
    {
      "inputs": [
        {
          "internalType": "address",
          "name": "_operator",
          "type": "address"
        }
      ],
      "name": "setOperator",
      "outputs": [],
      "stateMutability": "nonpayable",
      "type": "function"
    },
    {
      "inputs": [
        {
          "internalType": "uint256",
          "name": "_tokenId",
          "type": "uint256"
        },
        {
          "internalType": "uint96",
          "name": "_tokenPerSec",
          "type": "uint96"
        }
      ],
      "name": "setRewardRate",
      "outputs": [],
      "stateMutability": "nonpayable",
      "type": "function"
    },
    {
      "inputs": [
        {
          "internalType": "address",
          "name": "newOwner",
          "type": "address"
        }
      ],
      "name": "transferOwnership",
      "outputs": [],
      "stateMutability": "nonpayable",
      "type": "function"
    },
    {
      "inputs": [
        {
          "internalType": "uint256",
          "name": "",
          "type": "uint256"
        },
        {
          "internalType": "address",
          "name": "",
          "type": "address"
        }
      ],
      "name": "userInfo",
      "outputs": [
        {
          "internalType": "uint128",
          "name": "amount",
          "type": "uint128"
        },
        {
          "internalType": "uint128",
          "name": "rewardDebt",
          "type": "uint128"
        },
        {
          "internalType": "uint256",
          "name": "unpaidRewards",
          "type": "uint256"
        }
      ],
      "stateMutability": "view",
      "type": "function"
    },
    {
      "stateMutability": "payable",
      "type": "receive"
    }
  ],
  "transactionHash": "0xe6f96d52def2a341442b005f5a9772dc2dc1099054c93eb7f655ab265a3206ca",
  "args": [
    "0xE2C07d20AF0Fb50CAE6cDD615CA44AbaAA31F9c8",
    "0x74f019A5C4eD2C2950Ce16FaD7Af838549092c5b",
    1663119171,
    "0xbb4CdB9CBd36B01bD1cBaEBF2De08d9173bc095c",
    "15000000000000"
  ],
  "solcInputHash": "f7b63696ab8cb6fe9f131c3283b16b3f",
  "bytecode": "0x60c0346200038357601f620023db38819003918201601f19168301926001600160401b039290918385118386101762000388578160a0928492604097885283398101031262000383578051916001600160a01b0380841691908285036200038357602091620000708386016200039e565b9387860151608062000085606089016200039e565b9701516001600160601b038116969087900362000383577f8be0079c531659141344cd1fd0a4f28419497f9722a3daafe3b4186f6b6457e0988a938660009a8b548c60018060a01b031998338a8416178255519e8f918533941692a360018055169a8b3b158015906200037a575b156200031d57508683163b15620002c2573b1562000263574283106200025f5760a05260805260035587519160608301908111838210176200024b5788528682528382019085825288830193670de0b6b3a7640000855260045468010000000000000000811015620002375760018101806004558110156200022357600489528689209451935160a01b909216921691909117600191821b9092019182559151910180546001600160801b0319166001600160801b039290921691909117905584519283528201527f225033f2ea5486463cbb49ceda2823be38daddc85031ce2c637e7ad0950bc85a908390a2516120279081620003b48239608051818181610331015281816108c701526118a4015260a0518181816102aa015281816108ea01528181610c5a015261185a0152f35b634e487b7160e01b89526032600452602489fd5b634e487b7160e01b89526041600452602489fd5b634e487b7160e01b87526041600452602487fd5b8880fd5b8a5162461bcd60e51b815260048101889052603260248201527f636f6e7374727563746f723a204d6173746572576f6d626174206d7573742062604482015271194818481d985b1a590818dbdb9d1c9858dd60721b6064820152608490fd5b8b5162461bcd60e51b815260048101899052602e60248201527f636f6e7374727563746f723a204c5020746f6b656e206d75737420626520612060448201526d1d985b1a590818dbdb9d1c9858dd60921b6064820152608490fd5b62461bcd60e51b815260048101899052603260248201527f636f6e7374727563746f723a2072657761726420746f6b656e206d7573742062604482015271194818481d985b1a590818dbdb9d1c9858dd60721b6064820152608490fd5b508b15620000f3565b600080fd5b634e487b7160e01b600052604160045260246000fd5b51906001600160a01b0382168203620003835756fe6080604052600436101561001b575b361561001957600080fd5b005b60003560e01c80630bc79363146101975780633bd61ba81461018e578063570ca735146101855780635fcbd2851461017c578063715018a6146101735780637bb98a681461016a57806381a00f83146101615780638da5cb5b1461015857806393f1a40b1461014f578063ad56882714610146578063b3ab15fb1461013d578063b95c574614610134578063c031a66f1461012b578063c2b18aa014610122578063c372328814610119578063db2e21bc14610110578063edc9d77214610107578063f2fde38b146100fe5763f8077fae0361000e576100f96114dc565b61000e565b506100f9611406565b506100f96111d9565b506100f96110cc565b506100f9610c26565b506100f9610b78565b506100f961087c565b506100f961085d565b506100f96107e9565b506100f9610727565b506100f96106a0565b506100f961064d565b506100f96105dd565b506100f961041a565b506100f9610355565b506100f9610303565b506100f96102ce565b506100f961027c565b506100f96101c0565b602435906bffffffffffffffffffffffff821682036101bb57565b600080fd5b50346101bb5760406003193601126101bb576101da6101a0565b73ffffffffffffffffffffffffffffffffffffffff8060005416331490811561026e575b501561021057610019906004356119d8565b60646040517f08c379a000000000000000000000000000000000000000000000000000000000815260206004820152601360248201527f6f6e6c794f70657261746f724f724f776e6572000000000000000000000000006044820152fd5b9050600254163314386101fe565b50346101bb5760006003193601126101bb57602060405173ffffffffffffffffffffffffffffffffffffffff7f0000000000000000000000000000000000000000000000000000000000000000168152f35b50346101bb5760006003193601126101bb57602073ffffffffffffffffffffffffffffffffffffffff60025416604051908152f35b50346101bb5760006003193601126101bb57602060405173ffffffffffffffffffffffffffffffffffffffff7f0000000000000000000000000000000000000000000000000000000000000000168152f35b50346101bb576000806003193601126103dc5780547fffffffffffffffffffffffff000000000000000000000000000000000000000073ffffffffffffffffffffffffffffffffffffffff8216916103ae3384146114fb565b16825581604051917f8be0079c531659141344cd1fd0a4f28419497f9722a3daafe3b4186f6b6457e08284a3f35b80fd5b6020908160408183019282815285518094520193019160005b828110610406575050505090565b8351855293810193928101926001016103f8565b50346101bb576000806003193601126103dc5760049081549061043c82611b3b565b92815b838110610458576040518061045487826103df565b0390f35b8061049f61048661046b6104cc94610595565b505473ffffffffffffffffffffffffffffffffffffffff1690565b73ffffffffffffffffffffffffffffffffffffffff1690565b73ffffffffffffffffffffffffffffffffffffffff81166104d15750476104c68288611b96565b526116ed565b61043f565b6040517f70a0823100000000000000000000000000000000000000000000000000000000815230858201908152602092839183919082908190850103915afa918215610558575b869261052b575b50506104c68288611b96565b61054a9250803d10610551575b6105428183611660565b8101906116a1565b388061051f565b503d610538565b6105606116b0565b610518565b507f4e487b7100000000000000000000000000000000000000000000000000000000600052603260045260246000fd5b6004548110156105d0575b600460005260011b7f8a35acfbc15ff81a39ae7d344fd709f28e8600b4aa8c65c6b64bfe7fe36bd19b0190600090565b6105d8610565565b6105a0565b50346101bb5760206003193601126101bb576004356004548110156101bb57610607606091610595565b506fffffffffffffffffffffffffffffffff60018254920154166040519173ffffffffffffffffffffffffffffffffffffffff8116835260a01c60208301526040820152f35b50346101bb5760006003193601126101bb57602073ffffffffffffffffffffffffffffffffffffffff60005416604051908152f35b73ffffffffffffffffffffffffffffffffffffffff8116036101bb57565b50346101bb5760406003193601126101bb5760606106f86024356106c381610682565b600435600052600560205260406000209073ffffffffffffffffffffffffffffffffffffffff16600052602052604060002090565b60018154910154604051916fffffffffffffffffffffffffffffffff8116835260801c60208301526040820152f35b50346101bb5760206003193601126101bb5761001960043561074881610682565b73ffffffffffffffffffffffffffffffffffffffff9061076d826000541633146114fb565b16604051907f70a08231000000000000000000000000000000000000000000000000000000008252306004830152602082602481845afa9182156107dc575b6000926107bc575b503390611c89565b6107d591925060203d8111610551576105428183611660565b90386107b4565b6107e46116b0565b6107ac565b50346101bb5760206003193601126101bb5760043561080781610682565b73ffffffffffffffffffffffffffffffffffffffff9061082c826000541633146114fb565b167fffffffffffffffffffffffff000000000000000000000000000000000000000060025416176002556000604051f35b50346101bb5760006003193601126101bb576020600454604051908152f35b50346101bb576020806003193601126101bb576004803561089c81610682565b8154916108a883611b3b565b93600090819373ffffffffffffffffffffffffffffffffffffffff94857f000000000000000000000000000000000000000000000000000000000000000016957f00000000000000000000000000000000000000000000000000000000000000001660035492834211925b89811061092857604051806104548d826103df565b808b6104c682610a828d6001610a798f8f8f9a8f9b8f9c8f9d8f610a889f849061099a610a219361097561096461095e8b610595565b50611f27565b996000526005602052604060002090565b9073ffffffffffffffffffffffffffffffffffffffff16600052602052604060002090565b9b6040996109d26109bd8c8b01516fffffffffffffffffffffffffffffffff1690565b6fffffffffffffffffffffffffffffffff1690565b9a518095819482937f70a08231000000000000000000000000000000000000000000000000000000008452830191909173ffffffffffffffffffffffffffffffffffffffff6020820193169052565b03915afa958615610b1a575b95610afb575b5080610af2575b610a8d575b50505050610a6f610a648554926fffffffffffffffffffffffffffffffff8416611782565b64e8d4a51000900490565b9060801c90611727565b91015490611b8a565b92611b96565b610913565b610ad8610ae293610ad2610ac1610ae8989795610aad610add9642611727565b9301516bffffffffffffffffffffffff1690565b6bffffffffffffffffffffffff1690565b90611782565b61173e565b6117b3565b90611b8a565b388f8f8190610a3f565b50831515610a3a565b610b13919550833d8511610551576105428183611660565b9338610a33565b610b226116b0565b610a2d565b6020908160408183019282815285518094520193019160005b828110610b4e575050505090565b835173ffffffffffffffffffffffffffffffffffffffff1685529381019392810192600101610b40565b50346101bb5760006003193601126101bb57600454610b9681611b14565b90610ba46040519283611660565b8082527fffffffffffffffffffffffffffffffffffffffffffffffffffffffffffffffe0610bd182611b14565b0136602084013760005b818110610bf057604051806104548582610b27565b8073ffffffffffffffffffffffffffffffffffffffff610c1561095e610c2194610595565b51166104c68286611b96565b610bdb565b50346101bb5760406003193601126101bb57610c43600435610682565b73ffffffffffffffffffffffffffffffffffffffff7f000000000000000000000000000000000000000000000000000000000000000016330361104857600260015414610fea576002600155610c97611811565b600454610ca381611b3b565b9060005b818110610cc75761045483610cbb60018055565b604051918291826103df565b80610cd4610e4292610595565b50610ddf610cf2600435610975856000526005602052604060002090565b610d9f610d9a610a64610d926109bd6001610d21895473ffffffffffffffffffffffffffffffffffffffff1690565b988d88548060801c610e47575b5050610d7b610d3e602435611f76565b89906fffffffffffffffffffffffffffffffff167fffffffffffffffffffffffffffffffff00000000000000000000000000000000825416179055565b01546fffffffffffffffffffffffffffffffff1690565b602435611782565b611f76565b6fffffffffffffffffffffffffffffffff7fffffffffffffffffffffffffffffffff0000000000000000000000000000000083549260801b169116179055565b610de98286611b96565b517f986cbc32375de61d1fabfb01aef452f5c919f2180bb72fff0fb182126a02b52760405180610e3a73ffffffffffffffffffffffffffffffffffffffff8060043516961694829190602083019252565b0390a36116ed565b610ca7565b8c610ea18b610e9c87610e8d610a64610e756109bd848c01546fffffffffffffffffffffffffffffffff1690565b6fffffffffffffffffffffffffffffffff8916611782565b92019460801c91855490611b8a565b611727565b8d73ffffffffffffffffffffffffffffffffffffffff811680610f305750504791828211600014610f0957610ef98391610eff9596610ef460008080604051886004355af1610eee611bb8565b50611c24565b611b96565b52611727565b90555b8d38610d2e565b610f29919250600094610ef4868080604051886004355af1610eee611bb8565b5255610f02565b6040517f70a0823100000000000000000000000000000000000000000000000000000000815230600482015291956020949290918590829060249082905afa948515610fdd575b600095610fbe575b505083831115610fa8578391610ef991610ef484610fa1989960043590611c89565b9055610f02565b829350610ef4610f299360009760043590611c89565b610fd5929550803d10610551576105428183611660565b923880610f7f565b610fe56116b0565b610f77565b60646040517f08c379a000000000000000000000000000000000000000000000000000000000815260206004820152601f60248201527f5265656e7472616e637947756172643a207265656e7472616e742063616c6c006044820152fd5b60846040517f08c379a000000000000000000000000000000000000000000000000000000000815260206004820152603060248201527f6f6e6c794d573a206f6e6c79204d6173746572576f6d6261742063616e20636160448201527f6c6c20746869732066756e6374696f6e000000000000000000000000000000006064820152fd5b50346101bb576000806003193601126103dc5773ffffffffffffffffffffffffffffffffffffffff6111028183541633146114fb565b6004805491835b8381106111165784604051f35b8061112661046b61114b93610595565b808416806111505750506111468680804760405190335af1610eee611bb8565b6116ed565b611109565b6040517f70a0823100000000000000000000000000000000000000000000000000000000815230878201908152611146936020939092918491839182908190850103915afa9283156111cc575b8a936111ad575b50503390611c89565b6111c4929350803d10610551576105428183611660565b9038806111a4565b6111d46116b0565b61119d565b50346101bb5760406003193601126101bb576004356111f781610682565b6111ff6101a0565b9073ffffffffffffffffffffffffffffffffffffffff611224816000541633146114fb565b61122c611811565b806040519261123a846115ff565b169283835260208301926bffffffffffffffffffffffff9081831685526040810194670de0b6b3a7640000865261128b600454680100000000000000008110156113f9575b60018101600455610595565b9290926113ca577f225033f2ea5486463cbb49ceda2823be38daddc85031ce2c637e7ad0950bc85a9661135f61139f9560019461131a6113c59a6fffffffffffffffffffffffffffffffff965116889073ffffffffffffffffffffffffffffffffffffffff167fffffffffffffffffffffffff0000000000000000000000000000000000000000825416179055565b51865473ffffffffffffffffffffffffffffffffffffffff16911660a01b7fffffffffffffffffffffffff000000000000000000000000000000000000000016178555565b51169101906fffffffffffffffffffffffffffffffff167fffffffffffffffffffffffffffffffff00000000000000000000000000000000825416179055565b60408051600081526bffffffffffffffffffffffff909216602083015290918291820190565b0390a2005b7f4e487b7100000000000000000000000000000000000000000000000000000000600052600060045260246000fd5b6114016115cf565b61127f565b50346101bb5760206003193601126101bb5760043561142481610682565b73ffffffffffffffffffffffffffffffffffffffff611448816000541633146114fb565b8116156114585761001990611560565b60846040517f08c379a000000000000000000000000000000000000000000000000000000000815260206004820152602660248201527f4f776e61626c653a206e6577206f776e657220697320746865207a65726f206160448201527f64647265737300000000000000000000000000000000000000000000000000006064820152fd5b50346101bb5760006003193601126101bb576020600354604051908152f35b1561150257565b60646040517f08c379a000000000000000000000000000000000000000000000000000000000815260206004820152602060248201527f4f776e61626c653a2063616c6c6572206973206e6f7420746865206f776e65726044820152fd5b6000549073ffffffffffffffffffffffffffffffffffffffff80911691827fffffffffffffffffffffffff0000000000000000000000000000000000000000821617600055167f8be0079c531659141344cd1fd0a4f28419497f9722a3daafe3b4186f6b6457e06000604051a3565b507f4e487b7100000000000000000000000000000000000000000000000000000000600052604160045260246000fd5b6060810190811067ffffffffffffffff82111761161b57604052565b6116236115cf565b604052565b6080810190811067ffffffffffffffff82111761161b57604052565b6040810190811067ffffffffffffffff82111761161b57604052565b90601f7fffffffffffffffffffffffffffffffffffffffffffffffffffffffffffffffe0910116810190811067ffffffffffffffff82111761161b57604052565b908160209103126101bb575190565b506040513d6000823e3d90fd5b507f4e487b7100000000000000000000000000000000000000000000000000000000600052601160045260246000fd5b6001907fffffffffffffffffffffffffffffffffffffffffffffffffffffffffffffffff811461171b570190565b6117236116bd565b0190565b818110611732570390565b61173a6116bd565b0390565b64e8d4a5100090807fffffffffffffffffffffffffffffffffffffffffffffffffffffffffffffffff04821181151516611776570290565b61177e6116bd565b0290565b807fffffffffffffffffffffffffffffffffffffffffffffffffffffffffffffffff04821181151516611776570290565b81156117bd570490565b7f4e487b7100000000000000000000000000000000000000000000000000000000600052601260045260246000fd5b906fffffffffffffffffffffffffffffffff808093169116809203811161171b570190565b6004546040517f70a0823100000000000000000000000000000000000000000000000000000000815260208173ffffffffffffffffffffffffffffffffffffffff81806118a0837f0000000000000000000000000000000000000000000000000000000000000000166004830191909173ffffffffffffffffffffffffffffffffffffffff6020820193169052565b03917f0000000000000000000000000000000000000000000000000000000000000000165afa9081156119cb575b6000916119ad575b5060039081544211806119a4575b6118ed57505050565b60005b838110611906575050505061190442600355565b565b8061114661191661199f93610595565b506119646001611942610d9a88610add610ad86119348d5442611727565b610ad2610ac18a5460a01c90565b92019161195f83546fffffffffffffffffffffffffffffffff1690565b6117ec565b6fffffffffffffffffffffffffffffffff167fffffffffffffffffffffffffffffffff00000000000000000000000000000000825416179055565b6118f0565b508015156118e4565b6119c5915060203d8111610551576105428183611660565b386118d6565b6119d36116b0565b6118ce565b906bffffffffffffffffffffffff81169169021e19e0c9bab24000008311611ab6577f225033f2ea5486463cbb49ceda2823be38daddc85031ce2c637e7ad0950bc85a9173ffffffffffffffffffffffffffffffffffffffff611aa5604093611a3f611811565b611aa0611a4b82610595565b505460a01c94611a5a83610595565b509073ffffffffffffffffffffffffffffffffffffffff7fffffffffffffffffffffffff000000000000000000000000000000000000000083549260a01b169116179055565b610595565b5054169382519182526020820152a2565b60646040517f08c379a000000000000000000000000000000000000000000000000000000000815260206004820152601460248201527f726577617264207261746520746f6f20686967680000000000000000000000006044820152fd5b60209067ffffffffffffffff8111611b2e575b60051b0190565b611b366115cf565b611b27565b90611b4582611b14565b611b526040519182611660565b8281527fffffffffffffffffffffffffffffffffffffffffffffffffffffffffffffffe0611b808294611b14565b0190602036910137565b8119811161171b570190565b6020918151811015611bab575b60051b010190565b611bb3610565565b611ba3565b3d15611c1f573d9067ffffffffffffffff8211611c12575b60405191611c0660207fffffffffffffffffffffffffffffffffffffffffffffffffffffffffffffffe0601f8401160184611660565b82523d6000602084013e565b611c1a6115cf565b611bd0565b606090565b15611c2b57565b60646040517f08c379a000000000000000000000000000000000000000000000000000000000815260206004820152600f60248201527f5472616e73666572206661696c656400000000000000000000000000000000006044820152fd5b9160405191602093848401927fa9059cbb00000000000000000000000000000000000000000000000000000000845273ffffffffffffffffffffffffffffffffffffffff8093166024860152604485015260448452611ce784611628565b169060405192611cf684611644565b8484527f5361666545524332303a206c6f772d6c6576656c2063616c6c206661696c656485850152823b15611d6757611d42939260009283809351925af1611d3c611bb8565b90611e68565b80519081611d4f57505050565b8261190493611d62938301019101611dc5565b611ddd565b606485604051907f08c379a00000000000000000000000000000000000000000000000000000000082526004820152601d60248201527f416464726573733a2063616c6c20746f206e6f6e2d636f6e74726163740000006044820152fd5b908160209103126101bb575180151581036101bb5790565b15611de457565b60846040517f08c379a000000000000000000000000000000000000000000000000000000000815260206004820152602a60248201527f5361666545524332303a204552433230206f7065726174696f6e20646964206e60448201527f6f742073756363656564000000000000000000000000000000000000000000006064820152fd5b90919015611e74575090565b815115611e845750805190602001fd5b604051907f08c379a00000000000000000000000000000000000000000000000000000000082528160208060048301528251928360248401526000915b848310611f0e575050601f836044947fffffffffffffffffffffffffffffffffffffffffffffffffffffffffffffffe09311611f01575b01168101030190fd5b6000858286010152611ef8565b8183018101518684016044015285935091820191611ec1565b90604051611f34816115ff565b60406fffffffffffffffffffffffffffffffff60018395805473ffffffffffffffffffffffffffffffffffffffff8116865260a01c6020860152015416910152565b6fffffffffffffffffffffffffffffffff90818111611f93571690565b60646040517f08c379a000000000000000000000000000000000000000000000000000000000815260206004820152601060248201527f75696e74313238206f766572666c6f77000000000000000000000000000000006044820152fdfea2646970667358221220662c26d6c7e731bb733d1ffb7936f1d01f6f1b526f2a55d14d85f9681f680df664736f6c634300080f0033",
  "devdoc": {
    "kind": "dev",
    "methods": {
      "emergencyTokenWithdraw(address)": {
        "details": "only to be called by owner"
      },
      "onReward(address,uint256)": {
        "details": "Assume lpSupply and sumOfFactors isn't updated yet when this function is called",
        "params": {
          "_lpAmount": "The new amount of LP",
          "_user": "Address of user"
        }
      },
      "owner()": {
        "details": "Returns the address of the current owner."
      },
      "pendingTokens(address)": {
        "params": {
          "_user": "Address of user."
        },
        "returns": {
          "rewards": "reward for a given user."
        }
      },
      "renounceOwnership()": {
        "details": "Leaves the contract without owner. It will not be possible to call `onlyOwner` functions anymore. Can only be called by the current owner. NOTE: Renouncing ownership will leave the contract without an owner, thereby removing any functionality that is only available to the owner."
      },
      "setRewardRate(uint256,uint96)": {
        "params": {
          "_tokenPerSec": "The number of tokens to distribute per second"
        }
      },
      "transferOwnership(address)": {
        "details": "Transfers ownership of the contract to a new account (`newOwner`). Can only be called by the current owner."
      }
    },
    "stateVariables": {
      "operator": {
        "details": "operator is able to set emission rate"
      }
    },
    "version": 1
  },
  "userdoc": {
    "kind": "user",
    "methods": {
      "balances()": {
        "notice": "View function to see balances of reward token."
      },
      "emergencyTokenWithdraw(address)": {
        "notice": "avoids loosing funds in case there is any tokens sent to this contract"
      },
      "emergencyWithdraw()": {
        "notice": "In case rewarder is stopped before emissions finished, this function allows withdrawal of remaining tokens."
      },
      "onReward(address,uint256)": {
        "notice": "Function called by MasterWombat whenever staker claims WOM harvest.Allows staker to also receive a 2nd reward token."
      },
      "operator()": {
        "notice": "address of the operator"
      },
      "pendingTokens(address)": {
        "notice": "View function to see pending tokens"
      },
      "rewardInfo(uint256)": {
        "notice": "Info of the rewardInfo."
      },
      "rewardLength()": {
        "notice": "returns reward length"
      },
      "rewardTokens()": {
        "notice": "return an array of reward tokens"
      },
      "setOperator(address)": {
        "notice": "Set operator address"
      },
      "setRewardRate(uint256,uint96)": {
        "notice": "Sets the distribution reward rate. This will also update the rewardInfo."
      },
      "userInfo(uint256,address)": {
        "notice": "tokenId => userId => UserInfo"
      }
    },
    "notice": "This is a sample contract to be used in the MasterWombat contract for partners to reward stakers with their native token alongside WOM. It assumes no minting rights, so requires a set amount of reward tokens to be transferred to this contract prior. E.g. say you've allocated 100,000 XYZ to the WOM-XYZ farm over 30 days. Then you would need to transfer 100,000 XYZ and set the block reward accordingly so it's fully distributed after 30 days. - This contract has no knowledge on the LP amount and MasterWombat is   responsible to pass the amount into this contract - Supports multiple reward tokens",
    "version": 1
  },
  "storageLayout": {
    "storage": [
      {
        "astId": 660,
        "contract": "contracts/wombat-governance/rewarders/MultiRewarderPerSec.sol:MultiRewarderPerSec",
        "label": "_owner",
        "offset": 0,
        "slot": "0",
        "type": "t_address"
      },
      {
        "astId": 767,
        "contract": "contracts/wombat-governance/rewarders/MultiRewarderPerSec.sol:MultiRewarderPerSec",
        "label": "_status",
        "offset": 0,
        "slot": "1",
        "type": "t_uint256"
      },
      {
        "astId": 17362,
        "contract": "contracts/wombat-governance/rewarders/MultiRewarderPerSec.sol:MultiRewarderPerSec",
        "label": "operator",
        "offset": 0,
        "slot": "2",
        "type": "t_address"
      },
      {
        "astId": 17364,
        "contract": "contracts/wombat-governance/rewarders/MultiRewarderPerSec.sol:MultiRewarderPerSec",
        "label": "lastRewardTimestamp",
        "offset": 0,
        "slot": "3",
        "type": "t_uint256"
      },
      {
        "astId": 17369,
        "contract": "contracts/wombat-governance/rewarders/MultiRewarderPerSec.sol:MultiRewarderPerSec",
        "label": "rewardInfo",
        "offset": 0,
        "slot": "4",
        "type": "t_array(t_struct(RewardInfo)17359_storage)dyn_storage"
      },
      {
        "astId": 17377,
        "contract": "contracts/wombat-governance/rewarders/MultiRewarderPerSec.sol:MultiRewarderPerSec",
        "label": "userInfo",
        "offset": 0,
        "slot": "5",
        "type": "t_mapping(t_uint256,t_mapping(t_address,t_struct(UserInfo)17351_storage))"
      }
    ],
    "types": {
      "t_address": {
        "encoding": "inplace",
        "label": "address",
        "numberOfBytes": "20"
      },
      "t_array(t_struct(RewardInfo)17359_storage)dyn_storage": {
        "base": "t_struct(RewardInfo)17359_storage",
        "encoding": "dynamic_array",
        "label": "struct MultiRewarderPerSec.RewardInfo[]",
        "numberOfBytes": "32"
      },
      "t_contract(IERC20)1420": {
        "encoding": "inplace",
        "label": "contract IERC20",
        "numberOfBytes": "20"
      },
      "t_mapping(t_address,t_struct(UserInfo)17351_storage)": {
        "encoding": "mapping",
        "key": "t_address",
        "label": "mapping(address => struct MultiRewarderPerSec.UserInfo)",
        "numberOfBytes": "32",
        "value": "t_struct(UserInfo)17351_storage"
      },
      "t_mapping(t_uint256,t_mapping(t_address,t_struct(UserInfo)17351_storage))": {
        "encoding": "mapping",
        "key": "t_uint256",
        "label": "mapping(uint256 => mapping(address => struct MultiRewarderPerSec.UserInfo))",
        "numberOfBytes": "32",
        "value": "t_mapping(t_address,t_struct(UserInfo)17351_storage)"
      },
      "t_struct(RewardInfo)17359_storage": {
        "encoding": "inplace",
        "label": "struct MultiRewarderPerSec.RewardInfo",
        "members": [
          {
            "astId": 17354,
            "contract": "contracts/wombat-governance/rewarders/MultiRewarderPerSec.sol:MultiRewarderPerSec",
            "label": "rewardToken",
            "offset": 0,
            "slot": "0",
            "type": "t_contract(IERC20)1420"
          },
          {
            "astId": 17356,
            "contract": "contracts/wombat-governance/rewarders/MultiRewarderPerSec.sol:MultiRewarderPerSec",
            "label": "tokenPerSec",
            "offset": 20,
            "slot": "0",
            "type": "t_uint96"
          },
          {
            "astId": 17358,
            "contract": "contracts/wombat-governance/rewarders/MultiRewarderPerSec.sol:MultiRewarderPerSec",
            "label": "accTokenPerShare",
            "offset": 0,
            "slot": "1",
            "type": "t_uint128"
          }
        ],
        "numberOfBytes": "64"
      },
      "t_struct(UserInfo)17351_storage": {
        "encoding": "inplace",
        "label": "struct MultiRewarderPerSec.UserInfo",
        "members": [
          {
            "astId": 17346,
            "contract": "contracts/wombat-governance/rewarders/MultiRewarderPerSec.sol:MultiRewarderPerSec",
            "label": "amount",
            "offset": 0,
            "slot": "0",
            "type": "t_uint128"
          },
          {
            "astId": 17348,
            "contract": "contracts/wombat-governance/rewarders/MultiRewarderPerSec.sol:MultiRewarderPerSec",
            "label": "rewardDebt",
            "offset": 16,
            "slot": "0",
            "type": "t_uint128"
          },
          {
            "astId": 17350,
            "contract": "contracts/wombat-governance/rewarders/MultiRewarderPerSec.sol:MultiRewarderPerSec",
            "label": "unpaidRewards",
            "offset": 0,
            "slot": "1",
            "type": "t_uint256"
          }
        ],
        "numberOfBytes": "64"
      },
      "t_uint128": {
        "encoding": "inplace",
        "label": "uint128",
        "numberOfBytes": "16"
      },
      "t_uint256": {
        "encoding": "inplace",
        "label": "uint256",
        "numberOfBytes": "32"
      },
      "t_uint96": {
        "encoding": "inplace",
        "label": "uint96",
        "numberOfBytes": "12"
      }
    }
  }
}