{
  "address": "0x5D0f17F6385B3C0d1d8Ac4a6CcCacA2A558408e6",
  "abi": [
    {
      "inputs": [
        {
          "internalType": "address",
          "name": "_master",
          "type": "address"
        },
        {
          "internalType": "contract IERC20",
          "name": "_lpToken",
          "type": "address"
        },
        {
          "internalType": "uint256",
          "name": "_startTimestamp",
          "type": "uint256"
        },
        {
          "internalType": "contract IERC20",
          "name": "_rewardToken",
          "type": "address"
        },
        {
          "internalType": "uint96",
          "name": "_tokenPerSec",
          "type": "uint96"
        }
      ],
      "stateMutability": "nonpayable",
      "type": "constructor"
    },
    {
      "anonymous": false,
      "inputs": [
        {
          "indexed": true,
          "internalType": "address",
          "name": "rewardToken",
          "type": "address"
        },
        {
          "indexed": true,
          "internalType": "address",
          "name": "user",
          "type": "address"
        },
        {
          "indexed": false,
          "internalType": "uint256",
          "name": "amount",
          "type": "uint256"
        }
      ],
      "name": "OnReward",
      "type": "event"
    },
    {
      "anonymous": false,
      "inputs": [
        {
          "indexed": true,
          "internalType": "address",
          "name": "previousOwner",
          "type": "address"
        },
        {
          "indexed": true,
          "internalType": "address",
          "name": "newOwner",
          "type": "address"
        }
      ],
      "name": "OwnershipTransferred",
      "type": "event"
    },
    {
      "anonymous": false,
      "inputs": [
        {
          "indexed": true,
          "internalType": "address",
          "name": "rewardToken",
          "type": "address"
        },
        {
          "indexed": false,
          "internalType": "uint256",
          "name": "oldRate",
          "type": "uint256"
        },
        {
          "indexed": false,
          "internalType": "uint256",
          "name": "newRate",
          "type": "uint256"
        }
      ],
      "name": "RewardRateUpdated",
      "type": "event"
    },
    {
      "inputs": [
        {
          "internalType": "contract IERC20",
          "name": "_rewardToken",
          "type": "address"
        },
        {
          "internalType": "uint96",
          "name": "_tokenPerSec",
          "type": "uint96"
        }
      ],
      "name": "addRewardToken",
      "outputs": [],
      "stateMutability": "nonpayable",
      "type": "function"
    },
    {
      "inputs": [],
      "name": "balances",
      "outputs": [
        {
          "internalType": "uint256[]",
          "name": "balances_",
          "type": "uint256[]"
        }
      ],
      "stateMutability": "view",
      "type": "function"
    },
    {
      "inputs": [
        {
          "internalType": "address",
          "name": "token",
          "type": "address"
        }
      ],
      "name": "emergencyTokenWithdraw",
      "outputs": [],
      "stateMutability": "nonpayable",
      "type": "function"
    },
    {
      "inputs": [],
      "name": "emergencyWithdraw",
      "outputs": [],
      "stateMutability": "nonpayable",
      "type": "function"
    },
    {
      "inputs": [],
      "name": "lastRewardTimestamp",
      "outputs": [
        {
          "internalType": "uint256",
          "name": "",
          "type": "uint256"
        }
      ],
      "stateMutability": "view",
      "type": "function"
    },
    {
      "inputs": [],
      "name": "lpToken",
      "outputs": [
        {
          "internalType": "contract IERC20",
          "name": "",
          "type": "address"
        }
      ],
      "stateMutability": "view",
      "type": "function"
    },
    {
      "inputs": [],
      "name": "master",
      "outputs": [
        {
          "internalType": "address",
          "name": "",
          "type": "address"
        }
      ],
      "stateMutability": "view",
      "type": "function"
    },
    {
      "inputs": [
        {
          "internalType": "address",
          "name": "_user",
          "type": "address"
        },
        {
          "internalType": "uint256",
          "name": "_lpAmount",
          "type": "uint256"
        }
      ],
      "name": "onReward",
      "outputs": [
        {
          "internalType": "uint256[]",
          "name": "rewards",
          "type": "uint256[]"
        }
      ],
      "stateMutability": "nonpayable",
      "type": "function"
    },
    {
      "inputs": [],
      "name": "operator",
      "outputs": [
        {
          "internalType": "address",
          "name": "",
          "type": "address"
        }
      ],
      "stateMutability": "view",
      "type": "function"
    },
    {
      "inputs": [],
      "name": "owner",
      "outputs": [
        {
          "internalType": "address",
          "name": "",
          "type": "address"
        }
      ],
      "stateMutability": "view",
      "type": "function"
    },
    {
      "inputs": [
        {
          "internalType": "address",
          "name": "_user",
          "type": "address"
        }
      ],
      "name": "pendingTokens",
      "outputs": [
        {
          "internalType": "uint256[]",
          "name": "rewards",
          "type": "uint256[]"
        }
      ],
      "stateMutability": "view",
      "type": "function"
    },
    {
      "inputs": [],
      "name": "renounceOwnership",
      "outputs": [],
      "stateMutability": "nonpayable",
      "type": "function"
    },
    {
      "inputs": [
        {
          "internalType": "uint256",
          "name": "",
          "type": "uint256"
        }
      ],
      "name": "rewardInfo",
      "outputs": [
        {
          "internalType": "contract IERC20",
          "name": "rewardToken",
          "type": "address"
        },
        {
          "internalType": "uint96",
          "name": "tokenPerSec",
          "type": "uint96"
        },
        {
          "internalType": "uint128",
          "name": "accTokenPerShare",
          "type": "uint128"
        },
        {
          "internalType": "uint128",
          "name": "distributedAmount",
          "type": "uint128"
        }
      ],
      "stateMutability": "view",
      "type": "function"
    },
    {
      "inputs": [],
      "name": "rewardLength",
      "outputs": [
        {
          "internalType": "uint256",
          "name": "",
          "type": "uint256"
        }
      ],
      "stateMutability": "view",
      "type": "function"
    },
    {
      "inputs": [],
      "name": "rewardTokens",
      "outputs": [
        {
          "internalType": "contract IERC20[]",
          "name": "tokens",
          "type": "address[]"
        }
      ],
      "stateMutability": "view",
      "type": "function"
    },
    {
      "inputs": [
        {
          "internalType": "address",
          "name": "_operator",
          "type": "address"
        }
      ],
      "name": "setOperator",
      "outputs": [],
      "stateMutability": "nonpayable",
      "type": "function"
    },
    {
      "inputs": [
        {
          "internalType": "uint256",
          "name": "_tokenId",
          "type": "uint256"
        },
        {
          "internalType": "uint96",
          "name": "_tokenPerSec",
          "type": "uint96"
        }
      ],
      "name": "setRewardRate",
      "outputs": [],
      "stateMutability": "nonpayable",
      "type": "function"
    },
    {
      "inputs": [
        {
          "internalType": "address",
          "name": "newOwner",
          "type": "address"
        }
      ],
      "name": "transferOwnership",
      "outputs": [],
      "stateMutability": "nonpayable",
      "type": "function"
    },
    {
      "inputs": [],
      "name": "updateReward",
      "outputs": [],
      "stateMutability": "nonpayable",
      "type": "function"
    },
    {
      "inputs": [
        {
          "internalType": "uint256",
          "name": "",
          "type": "uint256"
        },
        {
          "internalType": "address",
          "name": "",
          "type": "address"
        }
      ],
      "name": "userInfo",
      "outputs": [
        {
          "internalType": "uint128",
          "name": "amount",
          "type": "uint128"
        },
        {
          "internalType": "uint128",
          "name": "rewardDebt",
          "type": "uint128"
        },
        {
          "internalType": "uint256",
          "name": "unpaidRewards",
          "type": "uint256"
        }
      ],
      "stateMutability": "view",
      "type": "function"
    },
    {
      "stateMutability": "payable",
      "type": "receive"
    }
  ],
  "transactionHash": "0xa4428948e3bff6c18ebebcfd9f6b5d4f8c9cf5610b038e12c32ad9cd1184c236",
  "args": [
    "0xE2C07d20AF0Fb50CAE6cDD615CA44AbaAA31F9c8",
    "0xB5c9368545A26b91d5f7340205e5d9559f48Bcf8",
    1668751535,
    "0x08b450e4a48C04CDF6DB2bD4cf24057f7B9563fF",
    "140000000000000000"
  ],
  "solcInputHash": "a1ca891f7de28394f264830bb02c7cfa",
  "bytecode": "0x60c0346200037657601f6200233838819003918201601f1916830192916001600160401b0391828511848610176200037b578160a0928592604097885283398101031262000376578151916001600160a01b0391828416840362000376576020906200006d82840162000391565b9386840151936080620000836060830162000391565b9101516001600160601b038116959086900362000376576000968754988460018060a01b03199433868d16178b558c519b8c7f8be0079c531659141344cd1fd0a4f28419497f9722a3daafe3b4186f6b6457e08d8533941692a36001805516998a3b158015906200036d575b156200031057508482163b15620002b557803b156200025c57428310620002585760a0526080526003558751926080840190848210908211176200024457885286835283830185815288840191670de0b6b3a76400008352606085019388855260045468010000000000000000811015620002305760018101806004558110156200021c5760048a52878a209651935160a01b909216921691909117600191821b9094019384559051915160801b6001600160801b0319166001600160801b03929092169190911791015584519283528201527f225033f2ea5486463cbb49ceda2823be38daddc85031ce2c637e7ad0950bc85a908390a251611f919081620003a782396080518181816102f30152611e83015260a051818181610b56015281816113350152611e5c0152f35b634e487b7160e01b8a52603260045260248afd5b634e487b7160e01b8a52604160045260248afd5b634e487b7160e01b87526041600452602487fd5b8880fd5b8a5162461bcd60e51b815260048101889052602c60248201527f636f6e7374727563746f723a204d6173746572206d757374206265206120766160448201526b1b1a590818dbdb9d1c9858dd60a21b6064820152608490fd5b8a5162461bcd60e51b815260048101889052602e60248201527f636f6e7374727563746f723a204c5020746f6b656e206d75737420626520612060448201526d1d985b1a590818dbdb9d1c9858dd60921b6064820152608490fd5b62461bcd60e51b815260048101889052603260248201527f636f6e7374727563746f723a2072657761726420746f6b656e206d7573742062604482015271194818481d985b1a590818dbdb9d1c9858dd60721b6064820152608490fd5b508a15620000ef565b600080fd5b634e487b7160e01b600052604160045260246000fd5b51906001600160a01b0382168203620003765756fe6080604052600436101561001b575b361561001957600080fd5b005b60003560e01c80630bc79363146101ab578063570ca735146101a25780635fcbd28514610199578063715018a6146101905780637bb98a681461018757806381a00f831461017e5780638da5cb5b1461017557806393f1a40b1461016c578063ad56882714610163578063b3ab15fb1461015a578063b95c574614610151578063c031a66f14610148578063c2b18aa01461013f578063c372328814610136578063db2e21bc1461012d578063edc9d77214610124578063ee97f7f31461011b578063f2fde38b14610112578063f36c0a72146101095763f8077fae0361000e57610104611449565b61000e565b5061010461142f565b50610104611359565b50610104611307565b506101046110d8565b50610104610fc2565b50610104610b22565b50610104610a74565b5061010461086d565b5061010461084e565b506101046107da565b506101046106f1565b5061010461066a565b50610104610617565b5061010461059f565b506101046103dc565b50610104610317565b506101046102c5565b50610104610290565b506101046101d4565b602435906bffffffffffffffffffffffff821682036101cf57565b600080fd5b50346101cf5760406003193601126101cf576101ee6101b4565b73ffffffffffffffffffffffffffffffffffffffff80600054163314908115610282575b50156102245761001990600435611855565b60646040517f08c379a000000000000000000000000000000000000000000000000000000000815260206004820152601360248201527f6f6e6c794f70657261746f724f724f776e6572000000000000000000000000006044820152fd5b905060025416331438610212565b50346101cf5760006003193601126101cf57602073ffffffffffffffffffffffffffffffffffffffff60025416604051908152f35b50346101cf5760006003193601126101cf57602060405173ffffffffffffffffffffffffffffffffffffffff7f0000000000000000000000000000000000000000000000000000000000000000168152f35b50346101cf5760008060031936011261039e5780547fffffffffffffffffffffffff000000000000000000000000000000000000000073ffffffffffffffffffffffffffffffffffffffff821691610370338414611468565b16825581604051917f8be0079c531659141344cd1fd0a4f28419497f9722a3daafe3b4186f6b6457e08284a3f35b80fd5b6020908160408183019282815285518094520193019160005b8281106103c8575050505090565b8351855293810193928101926001016103ba565b50346101cf5760008060031936011261039e576004908154906103fe826119b8565b92815b83811061041a576040518061041687826103a1565b0390f35b8061046161044861042d61048e94610557565b505473ffffffffffffffffffffffffffffffffffffffff1690565b73ffffffffffffffffffffffffffffffffffffffff1690565b73ffffffffffffffffffffffffffffffffffffffff81166104935750476104888288611a2f565b52611731565b610401565b6040517f70a0823100000000000000000000000000000000000000000000000000000000815230858201908152602092839183919082908190850103915afa91821561051a575b86926104ed575b50506104888288611a2f565b61050c9250803d10610513575b61050481836115b1565b810190611a13565b38806104e1565b503d6104fa565b610522611a22565b6104da565b507f4e487b7100000000000000000000000000000000000000000000000000000000600052603260045260246000fd5b600454811015610592575b600460005260011b7f8a35acfbc15ff81a39ae7d344fd709f28e8600b4aa8c65c6b64bfe7fe36bd19b0190600090565b61059a610527565b610562565b50346101cf5760206003193601126101cf576004356004548110156101cf576105c9608091610557565b50600181549101546040519173ffffffffffffffffffffffffffffffffffffffff8116835260a01c60208301526fffffffffffffffffffffffffffffffff81166040830152821c6060820152f35b50346101cf5760006003193601126101cf57602073ffffffffffffffffffffffffffffffffffffffff60005416604051908152f35b73ffffffffffffffffffffffffffffffffffffffff8116036101cf57565b50346101cf5760406003193601126101cf5760606106c260243561068d8161064c565b600435600052600560205260406000209073ffffffffffffffffffffffffffffffffffffffff16600052602052604060002090565b60018154910154604051916fffffffffffffffffffffffffffffffff8116835260801c60208301526040820152f35b50346101cf5760206003193601126101cf5760043561070f8161064c565b73ffffffffffffffffffffffffffffffffffffffff600091610735828454163314611468565b168061075d57506107588180804760405190335af1610752611a51565b50611abd565b604051f35b6040517f70a0823100000000000000000000000000000000000000000000000000000000815230600482015261075891602082602481845afa9182156107cd575b84926107ad575b503390611b22565b6107c691925060203d81116105135761050481836115b1565b90386107a5565b6107d5611a22565b61079e565b50346101cf5760206003193601126101cf576004356107f88161064c565b73ffffffffffffffffffffffffffffffffffffffff9061081d82600054163314611468565b167fffffffffffffffffffffffff000000000000000000000000000000000000000060025416176002556000604051f35b50346101cf5760006003193601126101cf576020600454604051908152f35b50346101cf576020806003193601126101cf576004359061088d8261064c565b6004549061089a826119b8565b92600060035491824211915b8581106108bb576040518061041689826103a1565b806109a76108d46108ce6109b194610557565b50611dc0565b600161099e610916876108f1876000526005602052604060002090565b9073ffffffffffffffffffffffffffffffffffffffff16600052602052604060002090565b9261094c61093760408301516fffffffffffffffffffffffffffffffff1690565b6fffffffffffffffffffffffffffffffff1690565b90610955611e18565b908c8c8c80610a1a575b6109b6575b505050506109946109898554926fffffffffffffffffffffffffffffffff84166117c6565b64e8d4a51000900490565b9060801c9061176b565b91015490611a07565b610488828a611a2f565b6108a6565b610a01610a0b936109fb6109ea610a119897956109d6610a06964261176b565b9301516bffffffffffffffffffffffff1690565b6bffffffffffffffffffffffff1690565b906117c6565b611782565b6117f7565b90611a07565b38808c8c610964565b5083151561095f565b6020908160408183019282815285518094520193019160005b828110610a4a575050505090565b835173ffffffffffffffffffffffffffffffffffffffff1685529381019392810192600101610a3c565b50346101cf5760006003193601126101cf57600454610a9281611991565b90610aa060405192836115b1565b8082527fffffffffffffffffffffffffffffffffffffffffffffffffffffffffffffffe0610acd82611991565b0136602084013760005b818110610aec57604051806104168582610a23565b8073ffffffffffffffffffffffffffffffffffffffff610b116108ce610b1d94610557565b51166104888286611a2f565b610ad7565b50346101cf5760406003193601126101cf57610b3f60043561064c565b73ffffffffffffffffffffffffffffffffffffffff7f0000000000000000000000000000000000000000000000000000000000000000163303610f3e57600260015414610ee0576002600155610b936115f2565b600454610b9f816119b8565b9060005b818110610bc35761041683610bb760018055565b604051918291826103a1565b80610bd0610d3e92610557565b50610cdb610bee6004356108f1856000526005602052604060002090565b610c9b610c96610989610c8e6109376001610c1d895473ffffffffffffffffffffffffffffffffffffffff1690565b988d88548060801c610d43575b5050610c77610c3a602435611ee0565b89906fffffffffffffffffffffffffffffffff167fffffffffffffffffffffffffffffffff00000000000000000000000000000000825416179055565b01546fffffffffffffffffffffffffffffffff1690565b6024356117c6565b611ee0565b6fffffffffffffffffffffffffffffffff7fffffffffffffffffffffffffffffffff0000000000000000000000000000000083549260801b169116179055565b610ce58286611a2f565b517f986cbc32375de61d1fabfb01aef452f5c919f2180bb72fff0fb182126a02b52760405180610d3673ffffffffffffffffffffffffffffffffffffffff8060043516961694829190602083019252565b0390a3611731565b610ba3565b8c610d9d8b610d9887610d89610989610d71610937848c01546fffffffffffffffffffffffffffffffff1690565b6fffffffffffffffffffffffffffffffff89166117c6565b92019460801c91855490611a07565b61176b565b8d73ffffffffffffffffffffffffffffffffffffffff811680610e265750504791828211600014610dff57610def8391610df59596610dea60008080604051886004355af1610752611a51565b611a2f565b5261176b565b90555b8d38610c2a565b610e1f919250600094610dea868080604051886004355af1610752611a51565b5255610df8565b6040517f70a0823100000000000000000000000000000000000000000000000000000000815230600482015291956020949290918590829060249082905afa948515610ed3575b600095610eb4575b505083831115610e9e578391610def91610dea84610e97989960043590611b22565b9055610df8565b829350610dea610e1f9360009760043590611b22565b610ecb929550803d106105135761050481836115b1565b923880610e75565b610edb611a22565b610e6d565b60646040517f08c379a000000000000000000000000000000000000000000000000000000000815260206004820152601f60248201527f5265656e7472616e637947756172643a207265656e7472616e742063616c6c006044820152fd5b60846040517f08c379a000000000000000000000000000000000000000000000000000000000815260206004820152602e60248201527f6f6e6c794d61737465723a206f6e6c79204d61737465722063616e2063616c6c60448201527f20746869732066756e6374696f6e0000000000000000000000000000000000006064820152fd5b50346101cf5760008060031936011261039e5773ffffffffffffffffffffffffffffffffffffffff610ff8818354163314611468565b6004805491835b83811061100c5784604051f35b808261101a61104c93610557565b50541661102b338589541614611468565b8061105157506110478680804760405190335af1610752611a51565b611731565b610fff565b6040517f70a082310000000000000000000000000000000000000000000000000000000081523086820190815261104792602092909183908290819083010381855afa9283156110cb575b8a936110ac575b50503390611b22565b6110c3929350803d106105135761050481836115b1565b9038806110a3565b6110d3611a22565b61109c565b50346101cf5760406003193601126101cf576004356110f68161064c565b6110fe6101b4565b9073ffffffffffffffffffffffffffffffffffffffff91600092611126818554163314611468565b61112e6115f2565b806040519361113c8561156c565b169283815260208101906bffffffffffffffffffffffff80851683526040820192670de0b6b3a764000084526060830194888652611194600454680100000000000000008110156112fa575b60018101600455610557565b9490946112ce579361125a6112c697947f225033f2ea5486463cbb49ceda2823be38daddc85031ce2c637e7ad0950bc85a9997946112156001956112a0995116859073ffffffffffffffffffffffffffffffffffffffff167fffffffffffffffffffffffff0000000000000000000000000000000000000000825416179055565b51835473ffffffffffffffffffffffffffffffffffffffff16911660a01b7fffffffffffffffffffffffff000000000000000000000000000000000000000016178255565b9151925160801b7fffffffffffffffffffffffffffffffff00000000000000000000000000000000166fffffffffffffffffffffffffffffffff90931692909217910155565b60408051600081526bffffffffffffffffffffffff909216602083015290918291820190565b0390a2604051f35b60248a7f4e487b7100000000000000000000000000000000000000000000000000000000815280600452fd5b61130261153c565b611188565b50346101cf5760006003193601126101cf57602060405173ffffffffffffffffffffffffffffffffffffffff7f0000000000000000000000000000000000000000000000000000000000000000168152f35b50346101cf5760206003193601126101cf576004356113778161064c565b73ffffffffffffffffffffffffffffffffffffffff61139b81600054163314611468565b8116156113ab57610019906114cd565b60846040517f08c379a000000000000000000000000000000000000000000000000000000000815260206004820152602660248201527f4f776e61626c653a206e6577206f776e657220697320746865207a65726f206160448201527f64647265737300000000000000000000000000000000000000000000000000006064820152fd5b50346101cf5760006003193601126101cf576100196115f2565b50346101cf5760006003193601126101cf576020600354604051908152f35b1561146f57565b60646040517f08c379a000000000000000000000000000000000000000000000000000000000815260206004820152602060248201527f4f776e61626c653a2063616c6c6572206973206e6f7420746865206f776e65726044820152fd5b6000549073ffffffffffffffffffffffffffffffffffffffff80911691827fffffffffffffffffffffffff0000000000000000000000000000000000000000821617600055167f8be0079c531659141344cd1fd0a4f28419497f9722a3daafe3b4186f6b6457e06000604051a3565b507f4e487b7100000000000000000000000000000000000000000000000000000000600052604160045260246000fd5b6080810190811067ffffffffffffffff82111761158857604052565b61159061153c565b604052565b6040810190811067ffffffffffffffff82111761158857604052565b90601f7fffffffffffffffffffffffffffffffffffffffffffffffffffffffffffffffe0910116810190811067ffffffffffffffff82111761158857604052565b6115fa611e18565b600380544211806116f8575b61160e575050565b6004549160005b83811061162b575050505061162942600355565b565b8061104761163b6116e693610557565b50610c9b6116dc61166588548042106116eb575b61165d6109ea865460a01c90565b9042036117c6565b610c9661169f600161167d610c968c610a0687611782565b96019561169a87546fffffffffffffffffffffffffffffffff1690565b611830565b85906fffffffffffffffffffffffffffffffff167fffffffffffffffffffffffffffffffff00000000000000000000000000000000825416179055565b825460801c611830565b611615565b6116f3611701565b61164f565b50811515611606565b507f4e487b7100000000000000000000000000000000000000000000000000000000600052601160045260246000fd5b6001907fffffffffffffffffffffffffffffffffffffffffffffffffffffffffffffffff811461175f570190565b611767611701565b0190565b818110611776570390565b61177e611701565b0390565b64e8d4a5100090807fffffffffffffffffffffffffffffffffffffffffffffffffffffffffffffffff048211811515166117ba570290565b6117c2611701565b0290565b807fffffffffffffffffffffffffffffffffffffffffffffffffffffffffffffffff048211811515166117ba570290565b8115611801570490565b7f4e487b7100000000000000000000000000000000000000000000000000000000600052601260045260246000fd5b906fffffffffffffffffffffffffffffffff808093169116809203811161175f570190565b906bffffffffffffffffffffffff81169169021e19e0c9bab24000008311611933577f225033f2ea5486463cbb49ceda2823be38daddc85031ce2c637e7ad0950bc85a9173ffffffffffffffffffffffffffffffffffffffff6119226040936118bc6115f2565b61191d6118c882610557565b505460a01c946118d783610557565b509073ffffffffffffffffffffffffffffffffffffffff7fffffffffffffffffffffffff000000000000000000000000000000000000000083549260a01b169116179055565b610557565b5054169382519182526020820152a2565b60646040517f08c379a000000000000000000000000000000000000000000000000000000000815260206004820152601460248201527f726577617264207261746520746f6f20686967680000000000000000000000006044820152fd5b60209067ffffffffffffffff81116119ab575b60051b0190565b6119b361153c565b6119a4565b906119c282611991565b6119cf60405191826115b1565b8281527fffffffffffffffffffffffffffffffffffffffffffffffffffffffffffffffe06119fd8294611991565b0190602036910137565b8119811161175f570190565b908160209103126101cf575190565b506040513d6000823e3d90fd5b6020918151811015611a44575b60051b010190565b611a4c610527565b611a3c565b3d15611ab8573d9067ffffffffffffffff8211611aab575b60405191611a9f60207fffffffffffffffffffffffffffffffffffffffffffffffffffffffffffffffe0601f84011601846115b1565b82523d6000602084013e565b611ab361153c565b611a69565b606090565b15611ac457565b60646040517f08c379a000000000000000000000000000000000000000000000000000000000815260206004820152600f60248201527f5472616e73666572206661696c656400000000000000000000000000000000006044820152fd5b9160405191602093848401927fa9059cbb00000000000000000000000000000000000000000000000000000000845273ffffffffffffffffffffffffffffffffffffffff8093166024860152604485015260448452611b808461156c565b169060405192611b8f84611595565b8484527f5361666545524332303a206c6f772d6c6576656c2063616c6c206661696c656485850152823b15611c0057611bdb939260009283809351925af1611bd5611a51565b90611d01565b80519081611be857505050565b8261162993611bfb938301019101611c5e565b611c76565b606485604051907f08c379a00000000000000000000000000000000000000000000000000000000082526004820152601d60248201527f416464726573733a2063616c6c20746f206e6f6e2d636f6e74726163740000006044820152fd5b908160209103126101cf575180151581036101cf5790565b15611c7d57565b60846040517f08c379a000000000000000000000000000000000000000000000000000000000815260206004820152602a60248201527f5361666545524332303a204552433230206f7065726174696f6e20646964206e60448201527f6f742073756363656564000000000000000000000000000000000000000000006064820152fd5b90919015611d0d575090565b815115611d1d5750805190602001fd5b604051907f08c379a00000000000000000000000000000000000000000000000000000000082528160208060048301528251928360248401526000915b848310611da7575050601f836044947fffffffffffffffffffffffffffffffffffffffffffffffffffffffffffffffe09311611d9a575b01168101030190fd5b6000858286010152611d91565b8183018101518684016044015285935091820191611d5a565b90604051611dcd8161156c565b606060018294805473ffffffffffffffffffffffffffffffffffffffff8116855260a01c602085015201546fffffffffffffffffffffffffffffffff8116604084015260801c910152565b6040517f70a0823100000000000000000000000000000000000000000000000000000000815260208160248173ffffffffffffffffffffffffffffffffffffffff807f00000000000000000000000000000000000000000000000000000000000000001660048301527f0000000000000000000000000000000000000000000000000000000000000000165afa908115611ed3575b600091611eb8575090565b611ed0915060203d81116105135761050481836115b1565b90565b611edb611a22565b611ead565b6fffffffffffffffffffffffffffffffff90818111611efd571690565b60646040517f08c379a000000000000000000000000000000000000000000000000000000000815260206004820152601060248201527f75696e74313238206f766572666c6f77000000000000000000000000000000006044820152fdfea264697066735822122066e6ca57bcd54c86b68f02cf1a3031601787481d3f2ea1df3b638d0f7e28473b64736f6c634300080f0033",
  "devdoc": {
    "kind": "dev",
    "methods": {
      "emergencyTokenWithdraw(address)": {
        "details": "only to be called by owner"
      },
      "onReward(address,uint256)": {
        "details": "Assume `_getTotalShare` isn't updated yet when this function is called",
        "params": {
          "_lpAmount": "The new amount of LP",
          "_user": "Address of user"
        }
      },
      "owner()": {
        "details": "Returns the address of the current owner."
      },
      "pendingTokens(address)": {
        "params": {
          "_user": "Address of user."
        },
        "returns": {
          "rewards": "reward for a given user."
        }
      },
      "renounceOwnership()": {
        "details": "Leaves the contract without owner. It will not be possible to call `onlyOwner` functions anymore. Can only be called by the current owner. NOTE: Renouncing ownership will leave the contract without an owner, thereby removing any functionality that is only available to the owner."
      },
      "setRewardRate(uint256,uint96)": {
        "params": {
          "_tokenPerSec": "The number of tokens to distribute per second"
        }
      },
      "transferOwnership(address)": {
        "details": "Transfers ownership of the contract to a new account (`newOwner`). Can only be called by the current owner."
      }
    },
    "stateVariables": {
      "operator": {
        "details": "operator is able to set emission rate"
      }
    },
    "version": 1
  },
  "userdoc": {
    "kind": "user",
    "methods": {
      "balances()": {
        "notice": "View function to see balances of reward token."
      },
      "emergencyTokenWithdraw(address)": {
        "notice": "avoids loosing funds in case there is any tokens sent to this contract"
      },
      "emergencyWithdraw()": {
        "notice": "In case rewarder is stopped before emissions finished, this function allows withdrawal of remaining tokens."
      },
      "onReward(address,uint256)": {
        "notice": "Function called by Master whenever staker claims WOM harvest.Allows staker to also receive a 2nd reward token."
      },
      "operator()": {
        "notice": "address of the operator"
      },
      "pendingTokens(address)": {
        "notice": "View function to see pending tokens"
      },
      "rewardInfo(uint256)": {
        "notice": "Info of the rewardInfo."
      },
      "rewardLength()": {
        "notice": "returns reward length"
      },
      "setOperator(address)": {
        "notice": "Set operator address"
      },
      "setRewardRate(uint256,uint96)": {
        "notice": "Sets the distribution reward rate. This will also update the rewardInfo."
      },
      "userInfo(uint256,address)": {
        "notice": "tokenId => userId => UserInfo"
      }
    },
    "notice": "This is a sample contract to be used in the Master contract for partners to reward stakers with their native token alongside WOM. It assumes no minting rights, so requires a set amount of reward tokens to be transferred to this contract prior. E.g. say you've allocated 100,000 XYZ to the WOM-XYZ farm over 30 days. Then you would need to transfer 100,000 XYZ and set the block reward accordingly so it's fully distributed after 30 days. - This contract has no knowledge on the LP amount and Master is   responsible to pass the amount into this contract - Supports multiple reward tokens",
    "version": 1
  },
  "storageLayout": {
    "storage": [
      {
        "astId": 660,
        "contract": "contracts/wombat-governance/rewarders/MultiRewarderPerSec.sol:MultiRewarderPerSec",
        "label": "_owner",
        "offset": 0,
        "slot": "0",
        "type": "t_address"
      },
      {
        "astId": 767,
        "contract": "contracts/wombat-governance/rewarders/MultiRewarderPerSec.sol:MultiRewarderPerSec",
        "label": "_status",
        "offset": 0,
        "slot": "1",
        "type": "t_uint256"
      },
      {
        "astId": 21888,
        "contract": "contracts/wombat-governance/rewarders/MultiRewarderPerSec.sol:MultiRewarderPerSec",
        "label": "operator",
        "offset": 0,
        "slot": "2",
        "type": "t_address"
      },
      {
        "astId": 21890,
        "contract": "contracts/wombat-governance/rewarders/MultiRewarderPerSec.sol:MultiRewarderPerSec",
        "label": "lastRewardTimestamp",
        "offset": 0,
        "slot": "3",
        "type": "t_uint256"
      },
      {
        "astId": 21895,
        "contract": "contracts/wombat-governance/rewarders/MultiRewarderPerSec.sol:MultiRewarderPerSec",
        "label": "rewardInfo",
        "offset": 0,
        "slot": "4",
        "type": "t_array(t_struct(RewardInfo)21885_storage)dyn_storage"
      },
      {
        "astId": 21903,
        "contract": "contracts/wombat-governance/rewarders/MultiRewarderPerSec.sol:MultiRewarderPerSec",
        "label": "userInfo",
        "offset": 0,
        "slot": "5",
        "type": "t_mapping(t_uint256,t_mapping(t_address,t_struct(UserInfo)21875_storage))"
      }
    ],
    "types": {
      "t_address": {
        "encoding": "inplace",
        "label": "address",
        "numberOfBytes": "20"
      },
      "t_array(t_struct(RewardInfo)21885_storage)dyn_storage": {
        "base": "t_struct(RewardInfo)21885_storage",
        "encoding": "dynamic_array",
        "label": "struct MultiRewarderPerSec.RewardInfo[]",
        "numberOfBytes": "32"
      },
      "t_contract(IERC20)1420": {
        "encoding": "inplace",
        "label": "contract IERC20",
        "numberOfBytes": "20"
      },
      "t_mapping(t_address,t_struct(UserInfo)21875_storage)": {
        "encoding": "mapping",
        "key": "t_address",
        "label": "mapping(address => struct MultiRewarderPerSec.UserInfo)",
        "numberOfBytes": "32",
        "value": "t_struct(UserInfo)21875_storage"
      },
      "t_mapping(t_uint256,t_mapping(t_address,t_struct(UserInfo)21875_storage))": {
        "encoding": "mapping",
        "key": "t_uint256",
        "label": "mapping(uint256 => mapping(address => struct MultiRewarderPerSec.UserInfo))",
        "numberOfBytes": "32",
        "value": "t_mapping(t_address,t_struct(UserInfo)21875_storage)"
      },
      "t_struct(RewardInfo)21885_storage": {
        "encoding": "inplace",
        "label": "struct MultiRewarderPerSec.RewardInfo",
        "members": [
          {
            "astId": 21878,
            "contract": "contracts/wombat-governance/rewarders/MultiRewarderPerSec.sol:MultiRewarderPerSec",
            "label": "rewardToken",
            "offset": 0,
            "slot": "0",
            "type": "t_contract(IERC20)1420"
          },
          {
            "astId": 21880,
            "contract": "contracts/wombat-governance/rewarders/MultiRewarderPerSec.sol:MultiRewarderPerSec",
            "label": "tokenPerSec",
            "offset": 20,
            "slot": "0",
            "type": "t_uint96"
          },
          {
            "astId": 21882,
            "contract": "contracts/wombat-governance/rewarders/MultiRewarderPerSec.sol:MultiRewarderPerSec",
            "label": "accTokenPerShare",
            "offset": 0,
            "slot": "1",
            "type": "t_uint128"
          },
          {
            "astId": 21884,
            "contract": "contracts/wombat-governance/rewarders/MultiRewarderPerSec.sol:MultiRewarderPerSec",
            "label": "distributedAmount",
            "offset": 16,
            "slot": "1",
            "type": "t_uint128"
          }
        ],
        "numberOfBytes": "64"
      },
      "t_struct(UserInfo)21875_storage": {
        "encoding": "inplace",
        "label": "struct MultiRewarderPerSec.UserInfo",
        "members": [
          {
            "astId": 21870,
            "contract": "contracts/wombat-governance/rewarders/MultiRewarderPerSec.sol:MultiRewarderPerSec",
            "label": "amount",
            "offset": 0,
            "slot": "0",
            "type": "t_uint128"
          },
          {
            "astId": 21872,
            "contract": "contracts/wombat-governance/rewarders/MultiRewarderPerSec.sol:MultiRewarderPerSec",
            "label": "rewardDebt",
            "offset": 16,
            "slot": "0",
            "type": "t_uint128"
          },
          {
            "astId": 21874,
            "contract": "contracts/wombat-governance/rewarders/MultiRewarderPerSec.sol:MultiRewarderPerSec",
            "label": "unpaidRewards",
            "offset": 0,
            "slot": "1",
            "type": "t_uint256"
          }
        ],
        "numberOfBytes": "64"
      },
      "t_uint128": {
        "encoding": "inplace",
        "label": "uint128",
        "numberOfBytes": "16"
      },
      "t_uint256": {
        "encoding": "inplace",
        "label": "uint256",
        "numberOfBytes": "32"
      },
      "t_uint96": {
        "encoding": "inplace",
        "label": "uint96",
        "numberOfBytes": "12"
      }
    }
  }
}