{
  "address": "0x5d2390b2b7db5058C45401b84dA3018538524572",
  "abi": [
    {
      "inputs": [],
      "name": "CORE_UNDERFLOW",
      "type": "error"
    },
    {
      "inputs": [],
      "name": "WOMBAT_AMOUNT_TOO_LOW",
      "type": "error"
    },
    {
      "inputs": [],
      "name": "WOMBAT_ASSET_ALREADY_EXIST",
      "type": "error"
    },
    {
      "inputs": [],
      "name": "WOMBAT_ASSET_ALREADY_PAUSED",
      "type": "error"
    },
    {
      "inputs": [],
      "name": "WOMBAT_ASSET_NOT_EXISTS",
      "type": "error"
    },
    {
      "inputs": [],
      "name": "WOMBAT_ASSET_NOT_PAUSED",
      "type": "error"
    },
    {
      "inputs": [],
      "name": "WOMBAT_CASH_NOT_ENOUGH",
      "type": "error"
    },
    {
      "inputs": [],
      "name": "WOMBAT_EXPIRED",
      "type": "error"
    },
    {
      "inputs": [],
      "name": "WOMBAT_FORBIDDEN",
      "type": "error"
    },
    {
      "inputs": [],
      "name": "WOMBAT_INTERPOOL_SWAP_NOT_SUPPORTED",
      "type": "error"
    },
    {
      "inputs": [],
      "name": "WOMBAT_INVALID_VALUE",
      "type": "error"
    },
    {
      "inputs": [],
      "name": "WOMBAT_SAME_ADDRESS",
      "type": "error"
    },
    {
      "inputs": [],
      "name": "WOMBAT_ZERO_ADDRESS",
      "type": "error"
    },
    {
      "inputs": [],
      "name": "WOMBAT_ZERO_AMOUNT",
      "type": "error"
    },
    {
      "inputs": [],
      "name": "WOMBAT_ZERO_LIQUIDITY",
      "type": "error"
    },
    {
      "anonymous": false,
      "inputs": [
        {
          "indexed": true,
          "internalType": "address",
          "name": "token",
          "type": "address"
        },
        {
          "indexed": true,
          "internalType": "address",
          "name": "asset",
          "type": "address"
        }
      ],
      "name": "AssetAdded",
      "type": "event"
    },
    {
      "anonymous": false,
      "inputs": [
        {
          "indexed": true,
          "internalType": "address",
          "name": "token",
          "type": "address"
        },
        {
          "indexed": true,
          "internalType": "address",
          "name": "asset",
          "type": "address"
        }
      ],
      "name": "AssetRemoved",
      "type": "event"
    },
    {
      "anonymous": false,
      "inputs": [
        {
          "indexed": true,
          "internalType": "address",
          "name": "sender",
          "type": "address"
        },
        {
          "indexed": false,
          "internalType": "address",
          "name": "token",
          "type": "address"
        },
        {
          "indexed": false,
          "internalType": "uint256",
          "name": "amount",
          "type": "uint256"
        },
        {
          "indexed": false,
          "internalType": "uint256",
          "name": "liquidity",
          "type": "uint256"
        },
        {
          "indexed": true,
          "internalType": "address",
          "name": "to",
          "type": "address"
        }
      ],
      "name": "Deposit",
      "type": "event"
    },
    {
      "anonymous": false,
      "inputs": [
        {
          "indexed": false,
          "internalType": "address",
          "name": "token",
          "type": "address"
        },
        {
          "indexed": false,
          "internalType": "uint256",
          "name": "amount",
          "type": "uint256"
        }
      ],
      "name": "FillPool",
      "type": "event"
    },
    {
      "anonymous": false,
      "inputs": [
        {
          "indexed": true,
          "internalType": "address",
          "name": "previousOwner",
          "type": "address"
        },
        {
          "indexed": true,
          "internalType": "address",
          "name": "newOwner",
          "type": "address"
        }
      ],
      "name": "OwnershipTransferred",
      "type": "event"
    },
    {
      "anonymous": false,
      "inputs": [
        {
          "indexed": false,
          "internalType": "address",
          "name": "account",
          "type": "address"
        }
      ],
      "name": "Paused",
      "type": "event"
    },
    {
      "anonymous": false,
      "inputs": [
        {
          "indexed": false,
          "internalType": "address",
          "name": "asset",
          "type": "address"
        },
        {
          "indexed": false,
          "internalType": "address",
          "name": "account",
          "type": "address"
        }
      ],
      "name": "PausedAsset",
      "type": "event"
    },
    {
      "anonymous": false,
      "inputs": [
        {
          "indexed": false,
          "internalType": "uint256",
          "name": "value",
          "type": "uint256"
        }
      ],
      "name": "SetAmpFactor",
      "type": "event"
    },
    {
      "anonymous": false,
      "inputs": [
        {
          "indexed": false,
          "internalType": "address",
          "name": "addr",
          "type": "address"
        }
      ],
      "name": "SetDev",
      "type": "event"
    },
    {
      "anonymous": false,
      "inputs": [
        {
          "indexed": false,
          "internalType": "uint256",
          "name": "lpDividendRatio",
          "type": "uint256"
        },
        {
          "indexed": false,
          "internalType": "uint256",
          "name": "retentionRatio",
          "type": "uint256"
        }
      ],
      "name": "SetFee",
      "type": "event"
    },
    {
      "anonymous": false,
      "inputs": [
        {
          "indexed": false,
          "internalType": "address",
          "name": "addr",
          "type": "address"
        }
      ],
      "name": "SetFeeTo",
      "type": "event"
    },
    {
      "anonymous": false,
      "inputs": [
        {
          "indexed": false,
          "internalType": "uint256",
          "name": "value",
          "type": "uint256"
        }
      ],
      "name": "SetHaircutRate",
      "type": "event"
    },
    {
      "anonymous": false,
      "inputs": [
        {
          "indexed": false,
          "internalType": "address",
          "name": "addr",
          "type": "address"
        }
      ],
      "name": "SetMasterWombat",
      "type": "event"
    },
    {
      "anonymous": false,
      "inputs": [
        {
          "indexed": false,
          "internalType": "uint256",
          "name": "value",
          "type": "uint256"
        }
      ],
      "name": "SetMintFeeThreshold",
      "type": "event"
    },
    {
      "anonymous": false,
      "inputs": [
        {
          "indexed": true,
          "internalType": "address",
          "name": "sender",
          "type": "address"
        },
        {
          "indexed": false,
          "internalType": "address",
          "name": "fromToken",
          "type": "address"
        },
        {
          "indexed": false,
          "internalType": "address",
          "name": "toToken",
          "type": "address"
        },
        {
          "indexed": false,
          "internalType": "uint256",
          "name": "fromAmount",
          "type": "uint256"
        },
        {
          "indexed": false,
          "internalType": "uint256",
          "name": "toAmount",
          "type": "uint256"
        },
        {
          "indexed": true,
          "internalType": "address",
          "name": "to",
          "type": "address"
        }
      ],
      "name": "Swap",
      "type": "event"
    },
    {
      "anonymous": false,
      "inputs": [
        {
          "indexed": false,
          "internalType": "address",
          "name": "token",
          "type": "address"
        },
        {
          "indexed": false,
          "internalType": "uint256",
          "name": "amount",
          "type": "uint256"
        },
        {
          "indexed": false,
          "internalType": "address",
          "name": "to",
          "type": "address"
        }
      ],
      "name": "TransferTipBucket",
      "type": "event"
    },
    {
      "anonymous": false,
      "inputs": [
        {
          "indexed": false,
          "internalType": "address",
          "name": "account",
          "type": "address"
        }
      ],
      "name": "Unpaused",
      "type": "event"
    },
    {
      "anonymous": false,
      "inputs": [
        {
          "indexed": false,
          "internalType": "address",
          "name": "asset",
          "type": "address"
        },
        {
          "indexed": false,
          "internalType": "address",
          "name": "account",
          "type": "address"
        }
      ],
      "name": "UnpausedAsset",
      "type": "event"
    },
    {
      "anonymous": false,
      "inputs": [
        {
          "indexed": true,
          "internalType": "address",
          "name": "sender",
          "type": "address"
        },
        {
          "indexed": false,
          "internalType": "address",
          "name": "token",
          "type": "address"
        },
        {
          "indexed": false,
          "internalType": "uint256",
          "name": "amount",
          "type": "uint256"
        },
        {
          "indexed": false,
          "internalType": "uint256",
          "name": "liquidity",
          "type": "uint256"
        },
        {
          "indexed": true,
          "internalType": "address",
          "name": "to",
          "type": "address"
        }
      ],
      "name": "Withdraw",
      "type": "event"
    },
    {
      "inputs": [
        {
          "internalType": "address",
          "name": "token",
          "type": "address"
        },
        {
          "internalType": "address",
          "name": "asset",
          "type": "address"
        }
      ],
      "name": "addAsset",
      "outputs": [],
      "stateMutability": "nonpayable",
      "type": "function"
    },
    {
      "inputs": [],
      "name": "ampFactor",
      "outputs": [
        {
          "internalType": "uint256",
          "name": "",
          "type": "uint256"
        }
      ],
      "stateMutability": "view",
      "type": "function"
    },
    {
      "inputs": [
        {
          "internalType": "address",
          "name": "token",
          "type": "address"
        }
      ],
      "name": "assetOf",
      "outputs": [
        {
          "internalType": "address",
          "name": "",
          "type": "address"
        }
      ],
      "stateMutability": "view",
      "type": "function"
    },
    {
      "inputs": [
        {
          "internalType": "address",
          "name": "token",
          "type": "address"
        },
        {
          "internalType": "uint256",
          "name": "amount",
          "type": "uint256"
        },
        {
          "internalType": "uint256",
          "name": "minimumLiquidity",
          "type": "uint256"
        },
        {
          "internalType": "address",
          "name": "to",
          "type": "address"
        },
        {
          "internalType": "uint256",
          "name": "deadline",
          "type": "uint256"
        },
        {
          "internalType": "bool",
          "name": "shouldStake",
          "type": "bool"
        }
      ],
      "name": "deposit",
      "outputs": [
        {
          "internalType": "uint256",
          "name": "liquidity",
          "type": "uint256"
        }
      ],
      "stateMutability": "nonpayable",
      "type": "function"
    },
    {
      "inputs": [],
      "name": "dev",
      "outputs": [
        {
          "internalType": "address",
          "name": "",
          "type": "address"
        }
      ],
      "stateMutability": "view",
      "type": "function"
    },
    {
      "inputs": [
        {
          "internalType": "address",
          "name": "token",
          "type": "address"
        }
      ],
      "name": "exchangeRate",
      "outputs": [
        {
          "internalType": "uint256",
          "name": "xr",
          "type": "uint256"
        }
      ],
      "stateMutability": "view",
      "type": "function"
    },
    {
      "inputs": [],
      "name": "feeTo",
      "outputs": [
        {
          "internalType": "address",
          "name": "",
          "type": "address"
        }
      ],
      "stateMutability": "view",
      "type": "function"
    },
    {
      "inputs": [
        {
          "internalType": "address",
          "name": "token",
          "type": "address"
        },
        {
          "internalType": "uint256",
          "name": "amount",
          "type": "uint256"
        }
      ],
      "name": "fillPool",
      "outputs": [],
      "stateMutability": "nonpayable",
      "type": "function"
    },
    {
      "inputs": [],
      "name": "getTokens",
      "outputs": [
        {
          "internalType": "address[]",
          "name": "",
          "type": "address[]"
        }
      ],
      "stateMutability": "view",
      "type": "function"
    },
    {
      "inputs": [],
      "name": "globalEquilCovRatio",
      "outputs": [
        {
          "internalType": "uint256",
          "name": "equilCovRatio",
          "type": "uint256"
        },
        {
          "internalType": "uint256",
          "name": "invariant",
          "type": "uint256"
        }
      ],
      "stateMutability": "view",
      "type": "function"
    },
    {
      "inputs": [],
      "name": "haircutRate",
      "outputs": [
        {
          "internalType": "uint256",
          "name": "",
          "type": "uint256"
        }
      ],
      "stateMutability": "view",
      "type": "function"
    },
    {
      "inputs": [
        {
          "internalType": "uint256",
          "name": "ampFactor_",
          "type": "uint256"
        },
        {
          "internalType": "uint256",
          "name": "haircutRate_",
          "type": "uint256"
        }
      ],
      "name": "initialize",
      "outputs": [],
      "stateMutability": "nonpayable",
      "type": "function"
    },
    {
      "inputs": [],
      "name": "lpDividendRatio",
      "outputs": [
        {
          "internalType": "uint256",
          "name": "",
          "type": "uint256"
        }
      ],
      "stateMutability": "view",
      "type": "function"
    },
    {
      "inputs": [],
      "name": "masterWombat",
      "outputs": [
        {
          "internalType": "contract IMasterWombat",
          "name": "",
          "type": "address"
        }
      ],
      "stateMutability": "view",
      "type": "function"
    },
    {
      "inputs": [
        {
          "internalType": "address",
          "name": "token",
          "type": "address"
        }
      ],
      "name": "mintFee",
      "outputs": [],
      "stateMutability": "nonpayable",
      "type": "function"
    },
    {
      "inputs": [],
      "name": "mintFeeThreshold",
      "outputs": [
        {
          "internalType": "uint256",
          "name": "",
          "type": "uint256"
        }
      ],
      "stateMutability": "view",
      "type": "function"
    },
    {
      "inputs": [],
      "name": "owner",
      "outputs": [
        {
          "internalType": "address",
          "name": "",
          "type": "address"
        }
      ],
      "stateMutability": "view",
      "type": "function"
    },
    {
      "inputs": [],
      "name": "pause",
      "outputs": [],
      "stateMutability": "nonpayable",
      "type": "function"
    },
    {
      "inputs": [
        {
          "internalType": "address",
          "name": "token",
          "type": "address"
        }
      ],
      "name": "pauseAsset",
      "outputs": [],
      "stateMutability": "nonpayable",
      "type": "function"
    },
    {
      "inputs": [],
      "name": "paused",
      "outputs": [
        {
          "internalType": "bool",
          "name": "",
          "type": "bool"
        }
      ],
      "stateMutability": "view",
      "type": "function"
    },
    {
      "inputs": [
        {
          "internalType": "address",
          "name": "token",
          "type": "address"
        },
        {
          "internalType": "uint256",
          "name": "amount",
          "type": "uint256"
        }
      ],
      "name": "quotePotentialDeposit",
      "outputs": [
        {
          "internalType": "uint256",
          "name": "liquidity",
          "type": "uint256"
        },
        {
          "internalType": "uint256",
          "name": "reward",
          "type": "uint256"
        }
      ],
      "stateMutability": "view",
      "type": "function"
    },
    {
      "inputs": [
        {
          "internalType": "address",
          "name": "fromToken",
          "type": "address"
        },
        {
          "internalType": "address",
          "name": "toToken",
          "type": "address"
        },
        {
          "internalType": "int256",
          "name": "fromAmount",
          "type": "int256"
        }
      ],
      "name": "quotePotentialSwap",
      "outputs": [
        {
          "internalType": "uint256",
          "name": "potentialOutcome",
          "type": "uint256"
        },
        {
          "internalType": "uint256",
          "name": "haircut",
          "type": "uint256"
        }
      ],
      "stateMutability": "view",
      "type": "function"
    },
    {
      "inputs": [
        {
          "internalType": "address",
          "name": "token",
          "type": "address"
        },
        {
          "internalType": "uint256",
          "name": "liquidity",
          "type": "uint256"
        }
      ],
      "name": "quotePotentialWithdraw",
      "outputs": [
        {
          "internalType": "uint256",
          "name": "amount",
          "type": "uint256"
        },
        {
          "internalType": "uint256",
          "name": "fee",
          "type": "uint256"
        }
      ],
      "stateMutability": "view",
      "type": "function"
    },
    {
      "inputs": [
        {
          "internalType": "address",
          "name": "token",
          "type": "address"
        }
      ],
      "name": "removeAsset",
      "outputs": [],
      "stateMutability": "nonpayable",
      "type": "function"
    },
    {
      "inputs": [],
      "name": "renounceOwnership",
      "outputs": [],
      "stateMutability": "nonpayable",
      "type": "function"
    },
    {
      "inputs": [],
      "name": "retentionRatio",
      "outputs": [
        {
          "internalType": "uint256",
          "name": "",
          "type": "uint256"
        }
      ],
      "stateMutability": "view",
      "type": "function"
    },
    {
      "inputs": [
        {
          "internalType": "uint256",
          "name": "ampFactor_",
          "type": "uint256"
        }
      ],
      "name": "setAmpFactor",
      "outputs": [],
      "stateMutability": "nonpayable",
      "type": "function"
    },
    {
      "inputs": [
        {
          "internalType": "address",
          "name": "dev_",
          "type": "address"
        }
      ],
      "name": "setDev",
      "outputs": [],
      "stateMutability": "nonpayable",
      "type": "function"
    },
    {
      "inputs": [
        {
          "internalType": "uint256",
          "name": "lpDividendRatio_",
          "type": "uint256"
        },
        {
          "internalType": "uint256",
          "name": "retentionRatio_",
          "type": "uint256"
        }
      ],
      "name": "setFee",
      "outputs": [],
      "stateMutability": "nonpayable",
      "type": "function"
    },
    {
      "inputs": [
        {
          "internalType": "address",
          "name": "feeTo_",
          "type": "address"
        }
      ],
      "name": "setFeeTo",
      "outputs": [],
      "stateMutability": "nonpayable",
      "type": "function"
    },
    {
      "inputs": [
        {
          "internalType": "uint256",
          "name": "haircutRate_",
          "type": "uint256"
        }
      ],
      "name": "setHaircutRate",
      "outputs": [],
      "stateMutability": "nonpayable",
      "type": "function"
    },
    {
      "inputs": [
        {
          "internalType": "address",
          "name": "masterWombat_",
          "type": "address"
        }
      ],
      "name": "setMasterWombat",
      "outputs": [],
      "stateMutability": "nonpayable",
      "type": "function"
    },
    {
      "inputs": [
        {
          "internalType": "uint256",
          "name": "mintFeeThreshold_",
          "type": "uint256"
        }
      ],
      "name": "setMintFeeThreshold",
      "outputs": [],
      "stateMutability": "nonpayable",
      "type": "function"
    },
    {
      "inputs": [
        {
          "internalType": "address",
          "name": "fromToken",
          "type": "address"
        },
        {
          "internalType": "address",
          "name": "toToken",
          "type": "address"
        },
        {
          "internalType": "uint256",
          "name": "fromAmount",
          "type": "uint256"
        },
        {
          "internalType": "uint256",
          "name": "minimumToAmount",
          "type": "uint256"
        },
        {
          "internalType": "address",
          "name": "to",
          "type": "address"
        },
        {
          "internalType": "uint256",
          "name": "deadline",
          "type": "uint256"
        }
      ],
      "name": "swap",
      "outputs": [
        {
          "internalType": "uint256",
          "name": "actualToAmount",
          "type": "uint256"
        },
        {
          "internalType": "uint256",
          "name": "haircut",
          "type": "uint256"
        }
      ],
      "stateMutability": "nonpayable",
      "type": "function"
    },
    {
      "inputs": [
        {
          "internalType": "address",
          "name": "token",
          "type": "address"
        }
      ],
      "name": "tipBucketBalance",
      "outputs": [
        {
          "internalType": "uint256",
          "name": "balance",
          "type": "uint256"
        }
      ],
      "stateMutability": "view",
      "type": "function"
    },
    {
      "inputs": [
        {
          "internalType": "address",
          "name": "newOwner",
          "type": "address"
        }
      ],
      "name": "transferOwnership",
      "outputs": [],
      "stateMutability": "nonpayable",
      "type": "function"
    },
    {
      "inputs": [
        {
          "internalType": "address",
          "name": "token",
          "type": "address"
        },
        {
          "internalType": "uint256",
          "name": "amount",
          "type": "uint256"
        },
        {
          "internalType": "address",
          "name": "to",
          "type": "address"
        }
      ],
      "name": "transferTipBucket",
      "outputs": [],
      "stateMutability": "nonpayable",
      "type": "function"
    },
    {
      "inputs": [],
      "name": "unpause",
      "outputs": [],
      "stateMutability": "nonpayable",
      "type": "function"
    },
    {
      "inputs": [
        {
          "internalType": "address",
          "name": "token",
          "type": "address"
        }
      ],
      "name": "unpauseAsset",
      "outputs": [],
      "stateMutability": "nonpayable",
      "type": "function"
    },
    {
      "inputs": [
        {
          "internalType": "address",
          "name": "token",
          "type": "address"
        },
        {
          "internalType": "uint256",
          "name": "liquidity",
          "type": "uint256"
        },
        {
          "internalType": "uint256",
          "name": "minimumAmount",
          "type": "uint256"
        },
        {
          "internalType": "address",
          "name": "to",
          "type": "address"
        },
        {
          "internalType": "uint256",
          "name": "deadline",
          "type": "uint256"
        }
      ],
      "name": "withdraw",
      "outputs": [
        {
          "internalType": "uint256",
          "name": "amount",
          "type": "uint256"
        }
      ],
      "stateMutability": "nonpayable",
      "type": "function"
    },
    {
      "inputs": [
        {
          "internalType": "address",
          "name": "fromToken",
          "type": "address"
        },
        {
          "internalType": "address",
          "name": "toToken",
          "type": "address"
        },
        {
          "internalType": "uint256",
          "name": "liquidity",
          "type": "uint256"
        },
        {
          "internalType": "uint256",
          "name": "minimumAmount",
          "type": "uint256"
        },
        {
          "internalType": "address",
          "name": "to",
          "type": "address"
        },
        {
          "internalType": "uint256",
          "name": "deadline",
          "type": "uint256"
        }
      ],
      "name": "withdrawFromOtherAsset",
      "outputs": [
        {
          "internalType": "uint256",
          "name": "toAmount",
          "type": "uint256"
        }
      ],
      "stateMutability": "nonpayable",
      "type": "function"
    }
  ],
  "transactionHash": "0x73351375b3db5270f953f073695e2a9c3fe0935ae6888d17b3ce518f8f319362",
  "args": [],
  "solcInputHash": "62ac34de459b9fc23e14815be134510d",
  "bytecode": "0x608060405234801561001057600080fd5b506158db80620000216000396000f3fe608060405234801561001057600080fd5b50600436106102d35760003560e01c80638456cb5911610186578063d043c565116100e3578063dc3b7c8b11610097578063f46901ed11610071578063f46901ed14610591578063f57e84d5146105a4578063f8b49e72146105b757600080fd5b8063dc3b7c8b14610558578063e4a301161461056b578063f2fde38b1461057e57600080fd5b8063d30ffeda116100c8578063d30ffeda1461051f578063d477f05f14610532578063da4899971461054557600080fd5b8063d043c56514610503578063d0dd0e561461051657600080fd5b806393aeea021161013a5780639abacb411161011f5780639abacb41146104c85780639e4416b7146104db578063aa6ca808146104ee57600080fd5b806393aeea02146104a25780639908fc8b146104b557600080fd5b80638da5cb5b1161016b5780638da5cb5b1461046b578063907448ed1461047c57806391cca3db1461048f57600080fd5b80638456cb591461045b5780638a2dfe091461046357600080fd5b80634fdd64e5116102345780636281baef116101e8578063715018a6116101cd578063715018a61461043757806371f962111461043f578063815bfd291461045257600080fd5b80636281baef1461041b5780636922d5ca1461042e57600080fd5b80635c975abb116102195780635c975abb146103e95780635cfe092e146103ff57806361858e231461040857600080fd5b80634fdd64e5146103ae57806352f7c988146103d657600080fd5b80630f91f06f1161028b5780633bd61ba8116102705780633bd61ba8146103805780633f4ba83a146103935780634a5e42b11461039b57600080fd5b80630f91f06f1461035a5780633753b14a1461036d57600080fd5b80630705999d116102bc5780630705999d1461031f578063070f81d91461033457806309a5fca31461034757600080fd5b8063017b8292146102d8578063017e7e58146102f4575b600080fd5b6102e160ca5481565b6040519081526020015b60405180910390f35b60d054610307906001600160a01b031681565b6040516001600160a01b0390911681526020016102eb565b61033261032d36600461507b565b6105ca565b005b610332610342366004615164565b61069f565b6102e16103553660046151ca565b610955565b6102e1610368366004615105565b610bb2565b61033261037b36600461507b565b610eb4565b60d154610307906001600160a01b031681565b610332610f25565b6103326103a936600461507b565b610f94565b6103c16103bc3660046150c9565b6111d5565b604080519283526020830191909152016102eb565b6103326103e43660046152fb565b6113b4565b60975460ff1660405190151581526020016102eb565b6102e160ce5481565b6103c1610416366004615164565b6114a8565b6102e1610429366004615218565b61154a565b6102e160cc5481565b61033261197d565b61030761044d36600461507b565b6119e3565b6102e160cd5481565b6103326119f4565b6103c1611a5c565b6033546001600160a01b0316610307565b6103c161048a366004615164565b611a8c565b60cf54610307906001600160a01b031681565b6103326104b036600461518e565b611aff565b6103c16104c3366004615105565b611def565b6103326104d636600461507b565b61212d565b6103326104e93660046152c9565b612196565b6104f6612267565b6040516102eb919061535c565b6103326105113660046152c9565b6122cc565b6102e160cb5481565b6102e161052d36600461507b565b61235b565b61033261054036600461507b565b6124d9565b610332610553366004615096565b6125a2565b6102e161056636600461507b565b612776565b6103326105793660046152fb565b612905565b61033261058c36600461507b565b612a61565b61033261059f36600461507b565b612b43565b6103326105b23660046152c9565b612c0c565b6103326105c536600461507b565b612cdd565b6033546001600160a01b031633146106295760405162461bcd60e51b815260206004820181905260248201527f4f776e61626c653a2063616c6c6572206973206e6f7420746865206f776e657260448201526064015b60405180910390fd5b61063281612cee565b60d180547fffffffffffffffffffffffff0000000000000000000000000000000000000000166001600160a01b0383169081179091556040519081527ffeb9010869b6ccec4557ddbbce947afeace5efc66cdff52c5e533c09336a8f2d906020015b60405180910390a150565b6106a7612d2e565b60006106b283612d72565b9050600060d26000836001600160a01b03166001600160a01b0316815260200190815260200160002054826001600160a01b031663961be3916040518163ffffffff1660e01b815260040160206040518083038186803b15801561071557600080fd5b505afa158015610729573d6000803e3d6000fd5b505050506040513d601f19601f8201168201806040525081019061074d9190615298565b6effffffffffffffffffffffffffffff16610849846001600160a01b0316637284168a6040518163ffffffff1660e01b815260040160206040518083038186803b15801561079a57600080fd5b505afa1580156107ae573d6000803e3d6000fd5b505050506040513d601f19601f820116820180604052508101906107d2919061531d565b856001600160a01b03166399c91a646040518163ffffffff1660e01b815260040160206040518083038186803b15801561080b57600080fd5b505afa15801561081f573d6000803e3d6000fd5b505050506040513d601f19601f8201168201806040525081019061084391906152e2565b90612de4565b6108539190615721565b61085d9190615721565b905080831115610899576040517f12b019e100000000000000000000000000000000000000000000000000000000815260040160405180910390fd5b6040517f16c9e7a0000000000000000000000000000000000000000000000000000000008152600481018490526001600160a01b038316906316c9e7a090602401600060405180830381600087803b1580156108f457600080fd5b505af1158015610908573d6000803e3d6000fd5b5050604080516001600160a01b0388168152602081018790527f4941e18a2bcbb0f9fa0081238f26793a8ad8c202b913ae8bf5f7e523f68ff137935001905060405180910390a150505050565b6000600260655414156109aa5760405162461bcd60e51b815260206004820152601f60248201527f5265656e7472616e637947756172643a207265656e7472616e742063616c6c006044820152606401610620565b600260655560975460ff1615610a025760405162461bcd60e51b815260206004820152601060248201527f5061757361626c653a20706175736564000000000000000000000000000000006044820152606401610620565b610a0b85612e4c565b610a1483612cee565b610a1d82612e83565b6000610a2887612d72565b9050610a3f6001600160a01b038216338389612ebd565b6000816001600160a01b0316637284168a6040518163ffffffff1660e01b815260040160206040518083038186803b158015610a7a57600080fd5b505afa158015610a8e573d6000803e3d6000fd5b505050506040513d601f19601f82011682018060405250810190610ab2919061531d565b9050610ad281610acc848a610ac78b85612de4565b612f4b565b90613270565b6040517f9e79eaa50000000000000000000000000000000000000000000000000000000081526001600160a01b0387811660048301526024820183905291945090831690639e79eaa590604401600060405180830381600087803b158015610b3957600080fd5b505af1158015610b4d573d6000803e3d6000fd5b5050604080516001600160a01b038c81168252602082018890529181018b905290881692503391507ffb80d861da582b723be2d19507ce3e03851820c464abea89156ec77e089b1ad99060600160405180910390a35050600160655595945050505050565b600060026065541415610c075760405162461bcd60e51b815260206004820152601f60248201527f5265656e7472616e637947756172643a207265656e7472616e742063616c6c006044820152606401610620565b600260655560975460ff1615610c5f5760405162461bcd60e51b815260206004820152601060248201527f5061757361626c653a20706175736564000000000000000000000000000000006044820152606401610620565b610c6883612cee565b610c7185612e4c565b610c7b87876132a0565b610c8482612e83565b610c8d876132f0565b6000610c9888612d72565b90506000610ca588612d72565b9050610cbc6001600160a01b03831633848a612ebd565b6000610cca83896000612f4b565b9050610d52838383610d4d866001600160a01b0316637284168a6040518163ffffffff1660e01b815260040160206040518083038186803b158015610d0e57600080fd5b505afa158015610d22573d6000803e3d6000fd5b505050506040513d601f19601f82011682018060405250810190610d46919061531d565b8c90612de4565b613343565b5080945050610dd2826001600160a01b0316637284168a6040518163ffffffff1660e01b815260040160206040518083038186803b158015610d9357600080fd5b505afa158015610da7573d6000803e3d6000fd5b505050506040513d601f19601f82011682018060405250810190610dcb919061531d565b8590613270565b6040517f9e79eaa50000000000000000000000000000000000000000000000000000000081526001600160a01b0388811660048301526024820183905291955090831690639e79eaa590604401600060405180830381600087803b158015610e3957600080fd5b505af1158015610e4d573d6000803e3d6000fd5b5050604080516001600160a01b038d81168252602082018990529181018c905290891692503391507ffb80d861da582b723be2d19507ce3e03851820c464abea89156ec77e089b1ad99060600160405180910390a350506001606555509695505050505050565b60026065541415610f075760405162461bcd60e51b815260206004820152601f60248201527f5265656e7472616e637947756172643a207265656e7472616e742063616c6c006044820152606401610620565b6002606555610f14612d2e565b610f1d816134fd565b506001606555565b60026065541415610f785760405162461bcd60e51b815260206004820152601f60248201527f5265656e7472616e637947756172643a207265656e7472616e742063616c6c006044820152606401610620565b6002606555610f85612d2e565b610f8d61357d565b6001606555565b6033546001600160a01b03163314610fee5760405162461bcd60e51b815260206004820181905260248201527f4f776e61626c653a2063616c6c6572206973206e6f7420746865206f776e65726044820152606401610620565b6001600160a01b03808216600090815260d460205260409020541661103f576040517fecb004d400000000000000000000000000000000000000000000000000000000815260040160405180910390fd5b6001600160a01b03818116600090815260d46020908152604080832080547fffffffffffffffffffffffff0000000000000000000000000000000000000000811690915560d590925282205460d354919093169291906110a190600190615721565b9050600060d360000182815481106110bb576110bb615868565b60009182526020808320909101546001600160a01b0390811680845260d59092526040808420879055908816835282209190915560d3805491925082918590811061110857611108615868565b600091825260209091200180547fffffffffffffffffffffffff0000000000000000000000000000000000000000166001600160a01b039290921691909117905560d380548061115a5761115a615839565b600082815260208120820160001990810180547fffffffffffffffffffffffff00000000000000000000000000000000000000001690559091019091556040516001600160a01b0386811692908816917f0fa1e4606af435f32f05b3804033d2933e691fab32ee74d2db6fa82d2741f1ea9190a35050505050565b6000806111e285856132a0565b82611219576040517fb483c10f00000000000000000000000000000000000000000000000000000000815260040160405180910390fd5b600061122486612d72565b9050600061123186612d72565b9050600085121561125f5761125c60cb54670de0b6b3a764000061125591906156ad565b8690613637565b94505b6112da826001600160a01b0316637284168a6040518163ffffffff1660e01b815260040160206040518083038186803b15801561129b57600080fd5b505afa1580156112af573d6000803e3d6000fd5b505050506040513d601f19601f820116820180604052508101906112d3919061531d565b869061366b565b94506112e78282876136c5565b809450819550505061132b816001600160a01b0316637284168a6040518163ffffffff1660e01b815260040160206040518083038186803b158015610d9357600080fd5b93506113a8816001600160a01b0316637284168a6040518163ffffffff1660e01b815260040160206040518083038186803b15801561136957600080fd5b505afa15801561137d573d6000803e3d6000fd5b505050506040513d601f19601f820116820180604052508101906113a1919061531d565b8490613270565b92505050935093915050565b6033546001600160a01b0316331461140e5760405162461bcd60e51b815260206004820181905260248201527f4f776e61626c653a2063616c6c6572206973206e6f7420746865206f776e65726044820152606401610620565b670de0b6b3a7640000611421838361546e565b1115611459576040517f12b019e100000000000000000000000000000000000000000000000000000000815260040160405180910390fd5b611461613956565b60cc81905560cd82905560408051838152602081018390527f032dc6a2d839eb179729a55633fdf1c41a1fc4739394154117005db2b354b9b5910160405180910390a15050565b60008060006114b685612d72565b905061153c81611537836001600160a01b0316637284168a6040518163ffffffff1660e01b815260040160206040518083038186803b1580156114f857600080fd5b505afa15801561150c573d6000803e3d6000fd5b505050506040513d601f19601f82011682018060405250810190611530919061531d565b8790612de4565b6139ad565b919791965090945050505050565b60006002606554141561159f5760405162461bcd60e51b815260206004820152601f60248201527f5265656e7472616e637947756172643a207265656e7472616e742063616c6c006044820152606401610620565b600260655560975460ff16156115f75760405162461bcd60e51b815260206004820152601060248201527f5061757361626c653a20706175736564000000000000000000000000000000006044820152606401610620565b8561162e576040517fb483c10f00000000000000000000000000000000000000000000000000000000815260040160405180910390fd5b61163784612cee565b61164083612e83565b611649876132f0565b600061165488612d72565b905061166b6001600160a01b03891633838a612ebd565b826116fd576116f6816116ef836001600160a01b0316637284168a6040518163ffffffff1660e01b815260040160206040518083038186803b1580156116b057600080fd5b505afa1580156116c4573d6000803e3d6000fd5b505050506040513d601f19601f820116820180604052508101906116e8919061531d565b8a90612de4565b8888613c0b565b915061191c565b60d154611712906001600160a01b0316612cee565b61175981611752836001600160a01b0316637284168a6040518163ffffffff1660e01b815260040160206040518083038186803b1580156116b057600080fd5b8830613c0b565b60d1546040517f095ea7b30000000000000000000000000000000000000000000000000000000081526001600160a01b0391821660048201526024810183905291935082169063095ea7b390604401602060405180830381600087803b1580156117c257600080fd5b505af11580156117d6573d6000803e3d6000fd5b505050506040513d601f19601f820116820180604052508101906117fa919061527b565b5060d1546040517faf929a800000000000000000000000000000000000000000000000000000000081526001600160a01b038381166004830152600092169063af929a809060240160206040518083038186803b15801561185a57600080fd5b505afa15801561186e573d6000803e3d6000fd5b505050506040513d601f19601f8201168201806040525081019061189291906152e2565b60d1546040517f90210d7e00000000000000000000000000000000000000000000000000000000815260048101839052602481018690526001600160a01b0389811660448301529293509116906390210d7e90606401600060405180830381600087803b15801561190257600080fd5b505af1158015611916573d6000803e3d6000fd5b50505050505b604080516001600160a01b038a81168252602082018a90529181018490529086169033907ff5dd9317b9e63ac316ce44acc85f670b54b339cfa3e9076e1dd55065b922314b9060600160405180910390a35060016065559695505050505050565b6033546001600160a01b031633146119d75760405162461bcd60e51b815260206004820181905260248201527f4f776e61626c653a2063616c6c6572206973206e6f7420746865206f776e65726044820152606401610620565b6119e16000613da5565b565b60006119ee82612d72565b92915050565b60026065541415611a475760405162461bcd60e51b815260206004820152601f60248201527f5265656e7472616e637947756172643a207265656e7472616e742063616c6c006044820152606401610620565b6002606555611a54612d2e565b610f8d613e0f565b600080600080611a6a613eb5565b80925081935050506000611a81838360ca54614053565b959294509192505050565b600080611a9883612e4c565b6000611aa385612d72565b9050611aaf818561407e565b90508093508194505050611af5816001600160a01b0316637284168a6040518163ffffffff1660e01b815260040160206040518083038186803b15801561136957600080fd5b9250509250929050565b6033546001600160a01b03163314611b595760405162461bcd60e51b815260206004820181905260248201527f4f776e61626c653a2063616c6c6572206973206e6f7420746865206f776e65726044820152606401610620565b6000611b6484612d72565b9050600060d26000836001600160a01b03166001600160a01b0316815260200190815260200160002054826001600160a01b031663961be3916040518163ffffffff1660e01b815260040160206040518083038186803b158015611bc757600080fd5b505afa158015611bdb573d6000803e3d6000fd5b505050506040513d601f19601f82011682018060405250810190611bff9190615298565b6effffffffffffffffffffffffffffff16611c4c846001600160a01b0316637284168a6040518163ffffffff1660e01b815260040160206040518083038186803b15801561079a57600080fd5b611c569190615721565b611c609190615721565b905080841115611c9c576040517f12b019e100000000000000000000000000000000000000000000000000000000815260040160405180910390fd5b816001600160a01b0316639e79eaa584611d27856001600160a01b0316637284168a6040518163ffffffff1660e01b815260040160206040518083038186803b158015611ce857600080fd5b505afa158015611cfc573d6000803e3d6000fd5b505050506040513d601f19601f82011682018060405250810190611d20919061531d565b8890613270565b6040517fffffffff0000000000000000000000000000000000000000000000000000000060e085901b1681526001600160a01b0390921660048301526024820152604401600060405180830381600087803b158015611d8557600080fd5b505af1158015611d99573d6000803e3d6000fd5b5050604080516001600160a01b0389811682526020820189905287168183015290517f5f22a22ebe30686f71d42a70ccacf870a335e22ee2ac6d257af1b2551582eda69350908190036060019150a15050505050565b60008060026065541415611e455760405162461bcd60e51b815260206004820152601f60248201527f5265656e7472616e637947756172643a207265656e7472616e742063616c6c006044820152606401610620565b600260655560975460ff1615611e9d5760405162461bcd60e51b815260206004820152601060248201527f5061757361626c653a20706175736564000000000000000000000000000000006044820152606401610620565b611ea788886132a0565b85611ede576040517fb483c10f00000000000000000000000000000000000000000000000000000000815260040160405180910390fd5b611ee784612cee565b611ef083612e83565b611ef9886132f0565b6000611f0489612d72565b90506000611f1189612d72565b90506000816001600160a01b0316637284168a6040518163ffffffff1660e01b815260040160206040518083038186803b158015611f4e57600080fd5b505afa158015611f62573d6000803e3d6000fd5b505050506040513d601f19601f82011682018060405250810190611f86919061531d565b90506120128383612008866001600160a01b0316637284168a6040518163ffffffff1660e01b815260040160206040518083038186803b158015611fc957600080fd5b505afa158015611fdd573d6000803e3d6000fd5b505050506040513d601f19601f82011682018060405250810190612001919061531d565b8d90612de4565b610d4d8c86612de4565b90955093506120218582613270565b945061202d8482613270565b93506120446001600160a01b038c1633858c612ebd565b6040517f9e79eaa50000000000000000000000000000000000000000000000000000000081526001600160a01b03888116600483015260248201879052831690639e79eaa590604401600060405180830381600087803b1580156120a757600080fd5b505af11580156120bb573d6000803e3d6000fd5b5050604080516001600160a01b038f811682528e811660208301529181018d905260608101899052908a1692503391507f54787c404bb33c88e86f4baf88183a3b0141d0a848e6a9f7a13b66ae3a9b73d19060800160405180910390a350506001606555509097909650945050505050565b600260655414156121805760405162461bcd60e51b815260206004820152601f60248201527f5265656e7472616e637947756172643a207265656e7472616e742063616c6c006044820152606401610620565b600260655561218d612d2e565b610f1d816142d6565b6033546001600160a01b031633146121f05760405162461bcd60e51b815260206004820181905260248201527f4f776e61626c653a2063616c6c6572206973206e6f7420746865206f776e65726044820152606401610620565b670de0b6b3a7640000811115612232576040517f12b019e100000000000000000000000000000000000000000000000000000000815260040160405180910390fd5b60ca8190556040518181527f294c562dcfcd9be941287844539aeba4ae641cd1fc9a2883337c6b2e87cbd98a90602001610694565b606060d36000018054806020026020016040519081016040528092919081815260200182805480156122c257602002820191906000526020600020905b81546001600160a01b031681526001909101906020018083116122a4575b5050505050905090565b6033546001600160a01b031633146123265760405162461bcd60e51b815260206004820181905260248201527f4f776e61626c653a2063616c6c6572206973206e6f7420746865206f776e65726044820152606401610620565b60ce8190556040518181527f935ce123b6388f8dbf76890f8240a48198f1e0a884f26939aa604a46bb65b70690602001610694565b60008061236783612d72565b905060d26000826001600160a01b03166001600160a01b0316815260200190815260200160002054816001600160a01b031663961be3916040518163ffffffff1660e01b815260040160206040518083038186803b1580156123c857600080fd5b505afa1580156123dc573d6000803e3d6000fd5b505050506040513d601f19601f820116820180604052508101906124009190615298565b6effffffffffffffffffffffffffffff166124be836001600160a01b0316637284168a6040518163ffffffff1660e01b815260040160206040518083038186803b15801561244d57600080fd5b505afa158015612461573d6000803e3d6000fd5b505050506040513d601f19601f82011682018060405250810190612485919061531d565b846001600160a01b03166399c91a646040518163ffffffff1660e01b815260040160206040518083038186803b15801561080b57600080fd5b6124c89190615721565b6124d29190615721565b9392505050565b6033546001600160a01b031633146125335760405162461bcd60e51b815260206004820181905260248201527f4f776e61626c653a2063616c6c6572206973206e6f7420746865206f776e65726044820152606401610620565b61253c81612cee565b60cf80547fffffffffffffffffffffffff0000000000000000000000000000000000000000166001600160a01b0383169081179091556040519081527f8daa6bb00de042a7d51816fcee4a3d5c1e91a2128fd64fa1a9a38afa0d26beb590602001610694565b6033546001600160a01b031633146125fc5760405162461bcd60e51b815260206004820181905260248201527f4f776e61626c653a2063616c6c6572206973206e6f7420746865206f776e65726044820152606401610620565b6002606554141561264f5760405162461bcd60e51b815260206004820152601f60248201527f5265656e7472616e637947756172643a207265656e7472616e742063616c6c006044820152606401610620565b600260655561265d81612cee565b61266682612cee565b6001600160a01b03808316600090815260d4602052604090205416156126b8576040517f8991c4c400000000000000000000000000000000000000000000000000000000815260040160405180910390fd5b6001600160a01b03808316600081815260d46020908152604080832080549587167fffffffffffffffffffffffff0000000000000000000000000000000000000000968716811790915560d3805460d590945282852084905560018401815584527f915c3eb987b20e1af620c1403197bf687fb7f18513b3a73fde6e78c7072c41a69092018054909516841790945592517f0bb5715f0f217c2fe9a0c877ea87d474380c641102f3440ee2a4c8b9d97909189190a350506001606555565b60008061278283612d72565b9050806001600160a01b03166318160ddd6040518163ffffffff1660e01b815260040160206040518083038186803b1580156127bd57600080fd5b505afa1580156127d1573d6000803e3d6000fd5b505050506040513d601f19601f820116820180604052508101906127f591906152e2565b6128095750670de0b6b3a764000092915050565b6124d2816001600160a01b03166318160ddd6040518163ffffffff1660e01b815260040160206040518083038186803b15801561284557600080fd5b505afa158015612859573d6000803e3d6000fd5b505050506040513d601f19601f8201168201806040525081019061287d91906152e2565b826001600160a01b031663705727b56040518163ffffffff1660e01b815260040160206040518083038186803b1580156128b657600080fd5b505afa1580156128ca573d6000803e3d6000fd5b505050506040513d601f19601f820116820180604052508101906128ee9190615298565b6effffffffffffffffffffffffffffff1690614353565b600054610100900460ff166129205760005460ff1615612924565b303b155b6129965760405162461bcd60e51b815260206004820152602e60248201527f496e697469616c697a61626c653a20636f6e747261637420697320616c72656160448201527f647920696e697469616c697a65640000000000000000000000000000000000006064820152608401610620565b600054610100900460ff161580156129d557600080547fffffffffffffffffffffffffffffffffffffffffffffffffffffffffffff0000166101011790555b6129dd614387565b6129e561440c565b6129ed614489565b60ca83905560cb829055670de0b6b3a764000060cd5560cf80547fffffffffffffffffffffffff000000000000000000000000000000000000000016331790558015612a5c57600080547fffffffffffffffffffffffffffffffffffffffffffffffffffffffffffff00ff1690555b505050565b6033546001600160a01b03163314612abb5760405162461bcd60e51b815260206004820181905260248201527f4f776e61626c653a2063616c6c6572206973206e6f7420746865206f776e65726044820152606401610620565b6001600160a01b038116612b375760405162461bcd60e51b815260206004820152602660248201527f4f776e61626c653a206e6577206f776e657220697320746865207a65726f206160448201527f64647265737300000000000000000000000000000000000000000000000000006064820152608401610620565b612b4081613da5565b50565b6033546001600160a01b03163314612b9d5760405162461bcd60e51b815260206004820181905260248201527f4f776e61626c653a2063616c6c6572206973206e6f7420746865206f776e65726044820152606401610620565b612ba681612cee565b60d080547fffffffffffffffffffffffff0000000000000000000000000000000000000000166001600160a01b0383169081179091556040519081527ff6b59ffc88fbb27f33470b919e00b41139ee340eb349521f0cbbc1504ce29c3e90602001610694565b6033546001600160a01b03163314612c665760405162461bcd60e51b815260206004820181905260248201527f4f776e61626c653a2063616c6c6572206973206e6f7420746865206f776e65726044820152606401610620565b670de0b6b3a7640000811115612ca8576040517f12b019e100000000000000000000000000000000000000000000000000000000815260040160405180910390fd5b60cb8190556040518181527fc6e60196bbe5909add58d5ae8a27082013670bce0855321773c33085af5c324390602001610694565b612b40612ce982612d72565b614530565b6001600160a01b038116612b40576040517f0bd3e3ed00000000000000000000000000000000000000000000000000000000815260040160405180910390fd5b60cf546001600160a01b031633146119e1576040517f5bf78ef400000000000000000000000000000000000000000000000000000000815260040160405180910390fd5b6001600160a01b03808216600090815260d46020526040812054909116612dc5576040517fecb004d400000000000000000000000000000000000000000000000000000000815260040160405180910390fd5b506001600160a01b03908116600090815260d460205260409020541690565b600060128260ff161015612e1957612dfd826012615738565b612e0890600a615527565b612e12908461568e565b90506119ee565b60128260ff161115612e4557612e30601283615738565b612e3b90600a615527565b612e1290846154d0565b5090919050565b80612b40576040517f3f3835e700000000000000000000000000000000000000000000000000000000815260040160405180910390fd5b42811015612b40576040517f549b633500000000000000000000000000000000000000000000000000000000815260040160405180910390fd5b604080516001600160a01b0385811660248301528416604482015260648082018490528251808303909101815260849091019091526020810180517bffffffffffffffffffffffffffffffffffffffffffffffffffffffff167f23b872dd00000000000000000000000000000000000000000000000000000000179052612f459085906147a4565b50505050565b6000612f5684614530565b6000612f62858561407e565b509092509050612f728383614889565b6040517f9dc29fac0000000000000000000000000000000000000000000000000000000081526001600160a01b038616600482018190526024820186905290639dc29fac90604401600060405180830381600087803b158015612fd457600080fd5b505af1158015612fe8573d6000803e3d6000fd5b50506040517f9f9ef988000000000000000000000000000000000000000000000000000000008152600481018590526001600160a01b0388169250639f9ef9889150602401600060405180830381600087803b15801561304757600080fd5b505af115801561305b573d6000803e3d6000fd5b50506040517fd8b87853000000000000000000000000000000000000000000000000000000008152600481018490526001600160a01b038816925063d8b878539150602401600060405180830381600087803b1580156130ba57600080fd5b505af11580156130ce573d6000803e3d6000fd5b505050506000856001600160a01b031663705727b56040518163ffffffff1660e01b815260040160206040518083038186803b15801561310d57600080fd5b505afa158015613121573d6000803e3d6000fd5b505050506040513d601f19601f820116820180604052508101906131459190615298565b6effffffffffffffffffffffffffffff1611801561323157506131716064670de0b6b3a76400006154d0565b61322f866001600160a01b031663705727b56040518163ffffffff1660e01b815260040160206040518083038186803b1580156131ad57600080fd5b505afa1580156131c1573d6000803e3d6000fd5b505050506040513d601f19601f820116820180604052508101906131e59190615298565b6effffffffffffffffffffffffffffff16876001600160a01b031663961be3916040518163ffffffff1660e01b815260040160206040518083038186803b1580156128b657600080fd5b105b15613268576040517f5bf78ef400000000000000000000000000000000000000000000000000000000815260040160405180910390fd5b509392505050565b600060128260ff16101561328957612e30826012615738565b60128260ff161115612e4557612dfd601283615738565b806001600160a01b0316826001600160a01b031614156132ec576040517feeb7911f00000000000000000000000000000000000000000000000000000000815260040160405180910390fd5b5050565b6001600160a01b038116600090815260c9602052604090205460ff1615612b40576040517f8654830a00000000000000000000000000000000000000000000000000000000815260040160405180910390fd5b6000806133518686866136c5565b90925090506133608383614889565b6001600160a01b038516600090815260d260205260408120805483929061338890849061546e565b90915550506040517f16c9e7a0000000000000000000000000000000000000000000000000000000008152600481018590526001600160a01b038716906316c9e7a090602401600060405180830381600087803b1580156133e857600080fd5b505af11580156133fc573d6000803e3d6000fd5b50505050846001600160a01b0316639f9ef988828461341b919061546e565b6040518263ffffffff1660e01b815260040161343991815260200190565b600060405180830381600087803b15801561345357600080fd5b505af1158015613467573d6000803e3d6000fd5b505050506064670de0b6b3a764000061348091906154d0565b6134bc866001600160a01b031663705727b56040518163ffffffff1660e01b815260040160206040518083038186803b1580156131ad57600080fd5b10156134f4576040517f5bf78ef400000000000000000000000000000000000000000000000000000000815260040160405180910390fd5b94509492505050565b613506816132f0565b6001600160a01b038116600081815260c9602090815260409182902080547fffffffffffffffffffffffffffffffffffffffffffffffffffffffffffffff00166001179055815192835233908301527fdcb65c0553aaa433aadd180404ff195259c48f78aa50f877ebcb4bb215129a4e9101610694565b60975460ff166135cf5760405162461bcd60e51b815260206004820152601460248201527f5061757361626c653a206e6f74207061757365640000000000000000000000006044820152606401610620565b609780547fffffffffffffffffffffffffffffffffffffffffffffffffffffffffffffff001690557f5db9ee0a495bf2e6ff9c91a7834c1ba4fdd244a5e8aa4e537bd38aeae4b073aa335b6040516001600160a01b03909116815260200160405180910390a1565b600081613645600282615486565b613657670de0b6b3a7640000866155d2565b61366191906153fa565b6124d29190615486565b600060128260ff16101561369957613684826012615738565b61368f90600a615527565b612e1290846155d2565b60128260ff161115612e45576136b0601283615738565b6136bb90600a615527565b612e129084615486565b600080600080856001600160a01b031663961be3916040518163ffffffff1660e01b815260040160206040518083038186803b15801561370457600080fd5b505afa158015613718573d6000803e3d6000fd5b505050506040513d601f19601f8201168201806040525081019061373c9190615298565b6effffffffffffffffffffffffffffff1690506138e2876001600160a01b031663961be3916040518163ffffffff1660e01b815260040160206040518083038186803b15801561378b57600080fd5b505afa15801561379f573d6000803e3d6000fd5b505050506040513d601f19601f820116820180604052508101906137c39190615298565b6effffffffffffffffffffffffffffff1682896001600160a01b031663705727b56040518163ffffffff1660e01b815260040160206040518083038186803b15801561380e57600080fd5b505afa158015613822573d6000803e3d6000fd5b505050506040513d601f19601f820116820180604052508101906138469190615298565b6effffffffffffffffffffffffffffff16896001600160a01b031663705727b56040518163ffffffff1660e01b815260040160206040518083038186803b15801561389057600080fd5b505afa1580156138a4573d6000803e3d6000fd5b505050506040513d601f19601f820116820180604052508101906138c89190615298565b6effffffffffffffffffffffffffffff168960ca546148c3565b91508181101561391e576040517f9a6114b700000000000000000000000000000000000000000000000000000000815260040160405180910390fd5b60cb5461392c908390614a09565b92506000851315613948576139418383615721565b935061394c565b8193505b5050935093915050565b60005b60d354811015612b4057600061398f61397183614a29565b6001600160a01b03908116600090815260d460205260409020541690565b905061399a81614530565b50806139a581615787565b915050613959565b6000806000613aca613ac585876001600160a01b031663961be3916040518163ffffffff1660e01b815260040160206040518083038186803b1580156139f257600080fd5b505afa158015613a06573d6000803e3d6000fd5b505050506040513d601f19601f82011682018060405250810190613a2a9190615298565b6effffffffffffffffffffffffffffff16886001600160a01b031663705727b56040518163ffffffff1660e01b815260040160206040518083038186803b158015613a7457600080fd5b505afa158015613a88573d6000803e3d6000fd5b505050506040513d601f19601f82011682018060405250810190613aac9190615298565b6effffffffffffffffffffffffffffff1660ca54614a5c565b614bcc565b9150838210613ae457613add8483615721565b9050613ae8565b8391505b6000856001600160a01b031663705727b56040518163ffffffff1660e01b815260040160206040518083038186803b158015613b2357600080fd5b505afa158015613b37573d6000803e3d6000fd5b505050506040513d601f19601f82011682018060405250810190613b5b9190615298565b6effffffffffffffffffffffffffffff1690508015613bff5780866001600160a01b03166318160ddd6040518163ffffffff1660e01b815260040160206040518083038186803b158015613bae57600080fd5b505afa158015613bc2573d6000803e3d6000fd5b505050506040513d601f19601f82011682018060405250810190613be691906152e2565b613bf0908561568e565b613bfa91906154d0565b613c01565b825b9350509250925092565b6000613c1685614530565b6000613c2286866139ad565b509092509050613c3182612e4c565b613c3b8483614889565b6040517f16c9e7a0000000000000000000000000000000000000000000000000000000008152600481018690526001600160a01b038716906316c9e7a090602401600060405180830381600087803b158015613c9657600080fd5b505af1158015613caa573d6000803e3d6000fd5b50506040517fa0f0f604000000000000000000000000000000000000000000000000000000008152600481018490526001600160a01b038916925063a0f0f6049150602401600060405180830381600087803b158015613d0957600080fd5b505af1158015613d1d573d6000803e3d6000fd5b50506040517f40c10f190000000000000000000000000000000000000000000000000000000081526001600160a01b03868116600483015260248201869052891692506340c10f199150604401600060405180830381600087803b158015613d8457600080fd5b505af1158015613d98573d6000803e3d6000fd5b5050505050949350505050565b603380546001600160a01b038381167fffffffffffffffffffffffff0000000000000000000000000000000000000000831681179093556040519116919082907f8be0079c531659141344cd1fd0a4f28419497f9722a3daafe3b4186f6b6457e090600090a35050565b60975460ff1615613e625760405162461bcd60e51b815260206004820152601060248201527f5061757361626c653a20706175736564000000000000000000000000000000006044820152606401610620565b609780547fffffffffffffffffffffffffffffffffffffffffffffffffffffffffffffff001660011790557f62e78cea01bee320cd4e420270b5ea74000d11b0c9f74754ebdbfc544b05a25861361a3390565b60ca546000908190815b60d35481101561404d576000613ed761397183614a29565b90506000816001600160a01b031663961be3916040518163ffffffff1660e01b815260040160206040518083038186803b158015613f1457600080fd5b505afa158015613f28573d6000803e3d6000fd5b505050506040513d601f19601f82011682018060405250810190613f4c9190615298565b6effffffffffffffffffffffffffffff1690506000826001600160a01b031663705727b56040518163ffffffff1660e01b815260040160206040518083038186803b158015613f9a57600080fd5b505afa158015613fae573d6000803e3d6000fd5b505050506040513d601f19601f82011682018060405250810190613fd29190615298565b6effffffffffffffffffffffffffffff16905080613ff25750505061403b565b6000613ffe8383613637565b905061400a82886153fa565b965061402a6140198783613637565b61402390836156ad565b8390614c22565b61403490896153fa565b9750505050505b8061404581615787565b915050613ebf565b50509091565b6000806140608585613637565b614069906157a2565b90506140758184614c42565b95945050505050565b6000806000846001600160a01b03166318160ddd6040518163ffffffff1660e01b815260040160206040518083038186803b1580156140bc57600080fd5b505afa1580156140d0573d6000803e3d6000fd5b505050506040513d601f19601f820116820180604052508101906140f491906152e2565b84866001600160a01b031663705727b56040518163ffffffff1660e01b815260040160206040518083038186803b15801561412e57600080fd5b505afa158015614142573d6000803e3d6000fd5b505050506040513d601f19601f820116820180604052508101906141669190615298565b6effffffffffffffffffffffffffffff16614181919061568e565b61418b91906154d0565b915061419682612e4c565b6142b1613ac56141a5846157a2565b876001600160a01b031663961be3916040518163ffffffff1660e01b815260040160206040518083038186803b1580156141de57600080fd5b505afa1580156141f2573d6000803e3d6000fd5b505050506040513d601f19601f820116820180604052508101906142169190615298565b6effffffffffffffffffffffffffffff16886001600160a01b031663705727b56040518163ffffffff1660e01b815260040160206040518083038186803b15801561426057600080fd5b505afa158015614274573d6000803e3d6000fd5b505050506040513d601f19601f820116820180604052508101906142989190615298565b6effffffffffffffffffffffffffffff1660ca54614c8d565b92508282106142cb576142c48383615721565b90506142cf565b8192505b9250925092565b6142df81614d3c565b6001600160a01b038116600081815260c9602090815260409182902080547fffffffffffffffffffffffffffffffffffffffffffffffffffffffffffffff00169055815192835233908301527fdb198487a4c70aa000c3b1020f52688b4b86d3ebcedc84a793e03ed3b480902c9101610694565b6000816143616002826154d0565b614373670de0b6b3a76400008661568e565b61437d919061546e565b6124d291906154d0565b600054610100900460ff166144045760405162461bcd60e51b815260206004820152602b60248201527f496e697469616c697a61626c653a20636f6e7472616374206973206e6f74206960448201527f6e697469616c697a696e670000000000000000000000000000000000000000006064820152608401610620565b6119e1614d8e565b600054610100900460ff16610f8d5760405162461bcd60e51b815260206004820152602b60248201527f496e697469616c697a61626c653a20636f6e7472616374206973206e6f74206960448201527f6e697469616c697a696e670000000000000000000000000000000000000000006064820152608401610620565b600054610100900460ff166145065760405162461bcd60e51b815260206004820152602b60248201527f496e697469616c697a61626c653a20636f6e7472616374206973206e6f74206960448201527f6e697469616c697a696e670000000000000000000000000000000000000000006064820152608401610620565b609780547fffffffffffffffffffffffffffffffffffffffffffffffffffffffffffffff00169055565b6001600160a01b038116600090815260d26020526040902054801580614557575060ce5481105b15614560575050565b600061458f60cc5460cd54670de0b6b3a764000061457e9190615721565b6145889190615721565b8390614a09565b9050801561466f57826001600160a01b0316639e79eaa560d060009054906101000a90046001600160a01b03166145f8866001600160a01b0316637284168a6040518163ffffffff1660e01b815260040160206040518083038186803b158015610d9357600080fd5b6040517fffffffff0000000000000000000000000000000000000000000000000000000060e085901b1681526001600160a01b0390921660048301526024820152604401600060405180830381600087803b15801561465657600080fd5b505af115801561466a573d6000803e3d6000fd5b505050505b50600061468760cd5483614a0990919063ffffffff16565b9050801561478857600061469b84836139ad565b506040517fa0f0f604000000000000000000000000000000000000000000000000000000008152600481018290529092506001600160a01b038616915063a0f0f60490602401600060405180830381600087803b1580156146fb57600080fd5b505af115801561470f573d6000803e3d6000fd5b50506040517f16c9e7a0000000000000000000000000000000000000000000000000000000008152600481018590526001600160a01b03871692506316c9e7a09150602401600060405180830381600087803b15801561476e57600080fd5b505af1158015614782573d6000803e3d6000fd5b50505050505b50506001600160a01b0316600090815260d26020526040812055565b60006147f9826040518060400160405280602081526020017f5361666545524332303a206c6f772d6c6576656c2063616c6c206661696c6564815250856001600160a01b0316614e149092919063ffffffff16565b805190915015612a5c5780806020019051810190614817919061527b565b612a5c5760405162461bcd60e51b815260206004820152602a60248201527f5361666545524332303a204552433230206f7065726174696f6e20646964206e60448201527f6f742073756363656564000000000000000000000000000000000000000000006064820152608401610620565b808211156132ec576040517ff512a72000000000000000000000000000000000000000000000000000000000815260040160405180910390fd5b60008415806148d0575083155b15614907576040517fae03266000000000000000000000000000000000000000000000000000000000815260040160405180910390fd5b60006149478761491787806155d2565b6149219190615486565b8961492c89806155d2565b6149369190615486565b61494091906153fa565b8490614c22565b614951888a6153fa565b61495b91906156ad565b905060006149738761496d878c6153fa565b90613637565b905060006149818388613637565b8761498c8785613637565b61499690856156ad565b6149a0908b6155d2565b6149aa9190615486565b6149b491906156ad565b905060006149c28287614c42565b905060008a6149d18a84614c22565b6149db91906156ad565b905060008112156149f6576149ef816157a2565b95506149fa565b8095505b50505050509695505050505050565b6000670de0b6b3a7640000614a1f6002826154d0565b614373848661568e565b600060d36000018281548110614a4157614a41615868565b6000918252602090912001546001600160a01b031692915050565b600082614a6a575083614bc4565b6000614a7686866153fa565b1215614aae576040517fae03266000000000000000000000000000000000000000000000000000000000815260040160405180910390fd5b6000614aba8585613637565b90506000614ac886886153fa565b90506000614ad68587614c22565b614ae19060026155d2565b614af661494087670de0b6b3a76400006156ad565b614b0091906153fa565b90506000614b1887614b128882614c22565b90614c22565b614b228480614c22565b614b4b86614b308b8b6155d2565b614b3a9190615486565b614b44908c6156ad565b8690614c22565b614b5591906156ad565b614b5f91906153fa565b9050600081614b6f8860046155d2565b614b7991906155d2565b614b8384806155d2565b614b8d91906156ad565b90506002614bb288614b9f8487614e23565b614ba8876157a2565b61496d91906153fa565b614bbc9190615486565b955050505050505b949350505050565b600080821215614c1e5760405162461bcd60e51b815260206004820152601660248201527f76616c7565206d75737420626520706f736974697665000000000000000000006044820152606401610620565b5090565b6000670de0b6b3a7640000614c38600282615486565b61365784866155d2565b6000600283614c8381670de0b6b3a7640000614c5f8760046155d2565b614c6991906155d2565b614c7388806155d2565b614c7d91906153fa565b90614e23565b61366191906156ad565b600080614c9a86856153fa565b90506000614ca88686613637565b90506000614cca614cb98684613637565b614cc390846156ad565b8790614c22565b905060006002614cec614ce588670de0b6b3a76400006156ad565b8b90614c22565b614cf690846153fa565b614d009190615486565b90506000614d2682614d1c614d1588806155d2565b8a90614c22565b614c7385806155d2565b614d3090836153fa565b9050614bbc818a6156ad565b6001600160a01b038116600090815260c9602052604090205460ff16612b40576040517f855b737300000000000000000000000000000000000000000000000000000000815260040160405180910390fd5b600054610100900460ff16614e0b5760405162461bcd60e51b815260206004820152602b60248201527f496e697469616c697a61626c653a20636f6e7472616374206973206e6f74206960448201527f6e697469616c697a696e670000000000000000000000000000000000000000006064820152608401610620565b6119e133613da5565b6060614bc48484600085614ee7565b60006003831315614ed857600082138015614e3e5750828213155b15614e4a575080614e7a565b600082128015614e62575082614e5f836157a2565b13155b15614e7757614e70826157a2565b9050614e7a565b50815b6000600282614e898187615486565b614e9391906153fa565b614e9d9190615486565b90505b818114614ed257905080600281614eb78187615486565b614ec191906153fa565b614ecb9190615486565b9050614ea0565b506119ee565b82156119ee5750600192915050565b606082471015614f5f5760405162461bcd60e51b815260206004820152602660248201527f416464726573733a20696e73756666696369656e742062616c616e636520666f60448201527f722063616c6c00000000000000000000000000000000000000000000000000006064820152608401610620565b843b614fad5760405162461bcd60e51b815260206004820152601d60248201527f416464726573733a2063616c6c20746f206e6f6e2d636f6e74726163740000006044820152606401610620565b600080866001600160a01b03168587604051614fc99190615340565b60006040518083038185875af1925050503d8060008114615006576040519150601f19603f3d011682016040523d82523d6000602084013e61500b565b606091505b509150915061501b828286615026565b979650505050505050565b606083156150355750816124d2565b8251156150455782518084602001fd5b8160405162461bcd60e51b815260040161062091906153a9565b80356001600160a01b038116811461507657600080fd5b919050565b60006020828403121561508d57600080fd5b6124d28261505f565b600080604083850312156150a957600080fd5b6150b28361505f565b91506150c06020840161505f565b90509250929050565b6000806000606084860312156150de57600080fd5b6150e78461505f565b92506150f56020850161505f565b9150604084013590509250925092565b60008060008060008060c0878903121561511e57600080fd5b6151278761505f565b95506151356020880161505f565b945060408701359350606087013592506151516080880161505f565b915060a087013590509295509295509295565b6000806040838503121561517757600080fd5b6151808361505f565b946020939093013593505050565b6000806000606084860312156151a357600080fd5b6151ac8461505f565b9250602084013591506151c16040850161505f565b90509250925092565b600080600080600060a086880312156151e257600080fd5b6151eb8661505f565b945060208601359350604086013592506152076060870161505f565b949793965091946080013592915050565b60008060008060008060c0878903121561523157600080fd5b61523a8761505f565b955060208701359450604087013593506152566060880161505f565b92506080870135915060a087013561526d81615897565b809150509295509295509295565b60006020828403121561528d57600080fd5b81516124d281615897565b6000602082840312156152aa57600080fd5b81516effffffffffffffffffffffffffffff811681146124d257600080fd5b6000602082840312156152db57600080fd5b5035919050565b6000602082840312156152f457600080fd5b5051919050565b6000806040838503121561530e57600080fd5b50508035926020909101359150565b60006020828403121561532f57600080fd5b815160ff811681146124d257600080fd5b6000825161535281846020870161575b565b9190910192915050565b6020808252825182820181905260009190848201906040850190845b8181101561539d5783516001600160a01b031683529284019291840191600101615378565b50909695505050505050565b60208152600082518060208401526153c881604085016020870161575b565b601f017fffffffffffffffffffffffffffffffffffffffffffffffffffffffffffffffe0169190910160400192915050565b6000808212827f7fffffffffffffffffffffffffffffffffffffffffffffffffffffffffffffff03841381151615615434576154346157db565b827f8000000000000000000000000000000000000000000000000000000000000000038412811615615468576154686157db565b50500190565b60008219821115615481576154816157db565b500190565b6000826154955761549561580a565b60001983147f8000000000000000000000000000000000000000000000000000000000000000831416156154cb576154cb6157db565b500590565b6000826154df576154df61580a565b500490565b600181815b8085111561551f578160001904821115615505576155056157db565b8085161561551257918102915b93841c93908002906154e9565b509250929050565b60006124d260ff841683600082615540575060016119ee565b8161554d575060006119ee565b8160018114615563576002811461556d57615589565b60019150506119ee565b60ff84111561557e5761557e6157db565b50506001821b6119ee565b5060208310610133831016604e8410600b84101617156155ac575081810a6119ee565b6155b683836154e4565b80600019048211156155ca576155ca6157db565b029392505050565b60007f7fffffffffffffffffffffffffffffffffffffffffffffffffffffffffffffff600084136000841385830485118282161615615613576156136157db565b7f8000000000000000000000000000000000000000000000000000000000000000600087128682058812818416161561564e5761564e6157db565b6000871292508782058712848416161561566a5761566a6157db565b87850587128184161615615680576156806157db565b505050929093029392505050565b60008160001904831182151516156156a8576156a86157db565b500290565b6000808312837f8000000000000000000000000000000000000000000000000000000000000000018312811516156156e7576156e76157db565b837f7fffffffffffffffffffffffffffffffffffffffffffffffffffffffffffffff01831381161561571b5761571b6157db565b50500390565b600082821015615733576157336157db565b500390565b600060ff821660ff841680821015615752576157526157db565b90039392505050565b60005b8381101561577657818101518382015260200161575e565b83811115612f455750506000910152565b600060001982141561579b5761579b6157db565b5060010190565b60007f80000000000000000000000000000000000000000000000000000000000000008214156157d4576157d46157db565b5060000390565b7f4e487b7100000000000000000000000000000000000000000000000000000000600052601160045260246000fd5b7f4e487b7100000000000000000000000000000000000000000000000000000000600052601260045260246000fd5b7f4e487b7100000000000000000000000000000000000000000000000000000000600052603160045260246000fd5b7f4e487b7100000000000000000000000000000000000000000000000000000000600052603260045260246000fd5b8015158114612b4057600080fdfea2646970667358221220926655ec2fe31814394b7490ddfd7baf24f963fcbf8df410e13cc14ef23bae3c64736f6c63430008050033",
  "devdoc": {
    "details": "The main entry-point of Wombat protocol Note: All variables are 18 decimals, except from that of underlying tokens",
    "kind": "dev",
    "methods": {
      "addAsset(address,address)": {
        "params": {
          "asset": "The address of the Wombat Asset contract",
          "token": "The address of token"
        }
      },
      "assetOf(address)": {
        "details": "to be used externally",
        "params": {
          "token": "The address of ERC20 token"
        }
      },
      "deposit(address,uint256,uint256,address,uint256,bool)": {
        "details": "Asset needs to be created and added to pool before any operation. This function assumes tax free token.",
        "params": {
          "amount": "The amount to be deposited",
          "deadline": "The deadline to be respected",
          "to": "The user accountable for deposit, receiving the Wombat assets (lp)",
          "token": "The token address to be deposited"
        },
        "returns": {
          "liquidity": "Total asset liquidity minted"
        }
      },
      "exchangeRate(address)": {
        "params": {
          "token": "The address of the token"
        },
        "returns": {
          "xr": "The exchange rate of LP token"
        }
      },
      "mintFee(address)": {
        "params": {
          "token": "The address of the token to collect fee"
        }
      },
      "owner()": {
        "details": "Returns the address of the current owner."
      },
      "pause()": {
        "details": "pause pool, restricting certain operations"
      },
      "pauseAsset(address)": {
        "details": "pause asset, restricting deposit and swap operations"
      },
      "paused()": {
        "details": "Returns true if the contract is paused, and false otherwise."
      },
      "quotePotentialDeposit(address,uint256)": {
        "details": "To be used by frontend",
        "params": {
          "amount": "The amount to deposit",
          "token": "The token to deposit by user"
        },
        "returns": {
          "liquidity": "The potential liquidity user would receive",
          "reward": "reward"
        }
      },
      "quotePotentialSwap(address,address,int256)": {
        "details": "To be used by frontend",
        "params": {
          "fromAmount": "The amount to quote",
          "fromToken": "The initial ERC20 token",
          "toToken": "The token wanted by user"
        },
        "returns": {
          "haircut": "The haircut that would be applied",
          "potentialOutcome": "The potential amount user would receive"
        }
      },
      "quotePotentialWithdraw(address,uint256)": {
        "details": "To be used by frontend",
        "params": {
          "liquidity": "The liquidity (amount of lp assets) to be withdrawn",
          "token": "The token to be withdrawn by user"
        },
        "returns": {
          "amount": "The potential amount user would receive",
          "fee": "The fee that would be applied"
        }
      },
      "removeAsset(address)": {
        "details": "Can only be called by owner",
        "params": {
          "token": "The address of token to remove"
        }
      },
      "renounceOwnership()": {
        "details": "Leaves the contract without owner. It will not be possible to call `onlyOwner` functions anymore. Can only be called by the current owner. NOTE: Renouncing ownership will leave the contract without an owner, thereby removing any functionality that is only available to the owner."
      },
      "setAmpFactor(uint256)": {
        "params": {
          "ampFactor_": "new pool's amplification factor"
        }
      },
      "setDev(address)": {
        "params": {
          "dev_": "new contract dev address"
        }
      },
      "setFeeTo(address)": {
        "params": {
          "feeTo_": "new fee beneficiary"
        }
      },
      "setHaircutRate(uint256)": {
        "params": {
          "haircutRate_": "new pool's haircutRate_"
        }
      },
      "swap(address,address,uint256,uint256,address,uint256)": {
        "details": "This function assumes tax free token.",
        "params": {
          "deadline": "The deadline to be respected",
          "fromAmount": "The amount of from token inserted",
          "fromToken": "The token being inserted into Pool by user for swap",
          "minimumToAmount": "The minimum amount that will be accepted by user as result",
          "to": "The user receiving the result of swap",
          "toToken": "The token wanted by user, leaving the Pool"
        }
      },
      "transferOwnership(address)": {
        "details": "Transfers ownership of the contract to a new account (`newOwner`). Can only be called by the current owner."
      },
      "unpause()": {
        "details": "unpause pool, enabling certain operations"
      },
      "unpauseAsset(address)": {
        "details": "unpause asset, enabling deposit and swap operations"
      },
      "withdraw(address,uint256,uint256,address,uint256)": {
        "params": {
          "deadline": "The deadline to be respected",
          "liquidity": "The liquidity to be withdrawn",
          "minimumAmount": "The minimum amount that will be accepted by user",
          "to": "The user receiving the withdrawal",
          "token": "The token to be withdrawn"
        },
        "returns": {
          "amount": "The total amount withdrawn"
        }
      },
      "withdrawFromOtherAsset(address,address,uint256,uint256,address,uint256)": {
        "params": {
          "deadline": "The deadline to be respected",
          "fromToken": "The corresponding token user holds the LP (Asset) from",
          "liquidity": "The liquidity to be withdrawn (in fromToken decimal)",
          "minimumAmount": "The minimum amount that will be accepted by user",
          "to": "The user receiving the withdrawal",
          "toToken": "The token wanting to be withdrawn (needs to be well covered)"
        },
        "returns": {
          "toAmount": "The total amount withdrawn"
        }
      }
    },
    "title": "Pool",
    "version": 1
  },
  "userdoc": {
    "events": {
      "AssetAdded(address,address)": {
        "notice": "An event thats emitted when an asset is added to Pool"
      },
      "AssetRemoved(address,address)": {
        "notice": "An event thats emitted when asset is removed from Pool"
      },
      "Deposit(address,address,uint256,uint256,address)": {
        "notice": "An event thats emitted when a deposit is made to Pool"
      },
      "Swap(address,address,address,uint256,uint256,address)": {
        "notice": "An event thats emitted when a swap is made in Pool"
      },
      "Withdraw(address,address,uint256,uint256,address)": {
        "notice": "An event thats emitted when a withdrawal is made from Pool"
      }
    },
    "kind": "user",
    "methods": {
      "addAsset(address,address)": {
        "notice": "Adds asset to pool, reverts if asset already exists in pool"
      },
      "ampFactor()": {
        "notice": "Amplification factor"
      },
      "assetOf(address)": {
        "notice": "Gets Asset corresponding to ERC20 token. Reverts if asset does not exists in Pool."
      },
      "deposit(address,uint256,uint256,address,uint256,bool)": {
        "notice": "Deposits amount of tokens into pool ensuring deadline"
      },
      "dev()": {
        "notice": "Dev address"
      },
      "exchangeRate(address)": {
        "notice": "Returns the exchange rate of the LP token"
      },
      "getTokens()": {
        "notice": "Return list of tokens in the pool"
      },
      "haircutRate()": {
        "notice": "Haircut rate"
      },
      "initialize(uint256,uint256)": {
        "notice": "Initializes pool. Dev is set to be the account calling this function."
      },
      "lpDividendRatio()": {
        "notice": "LP dividend ratio : the ratio of haircut that should distribute to LP"
      },
      "mintFee(address)": {
        "notice": "Send fee collected to the fee beneficiary"
      },
      "mintFeeThreshold()": {
        "notice": "The threshold to mint fee (unit: WAD)"
      },
      "quotePotentialDeposit(address,uint256)": {
        "notice": "Quotes potential deposit from pool"
      },
      "quotePotentialSwap(address,address,int256)": {
        "notice": "Quotes potential outcome of a swap given current state, taking in account slippage and haircut"
      },
      "quotePotentialWithdraw(address,uint256)": {
        "notice": "Quotes potential withdrawal from pool"
      },
      "removeAsset(address)": {
        "notice": "Removes asset from asset struct"
      },
      "retentionRatio()": {
        "notice": "Retention ratio: the ratio of haircut that should stay in the pool"
      },
      "setAmpFactor(uint256)": {
        "notice": "Changes the pools amplification factor. Can only be set by the contract owner."
      },
      "setDev(address)": {
        "notice": "Changes the contract dev. Can only be set by the contract owner."
      },
      "setFeeTo(address)": {
        "notice": "Changes the fee beneficiary. Can only be set by the contract owner. This value cannot be set to 0 to avoid unsettled fee."
      },
      "setHaircutRate(uint256)": {
        "notice": "Changes the pools haircutRate. Can only be set by the contract owner."
      },
      "setMintFeeThreshold(uint256)": {
        "notice": "Set min fee to mint"
      },
      "swap(address,address,uint256,uint256,address,uint256)": {
        "notice": "Swap fromToken for toToken, ensures deadline and minimumToAmount and sends quoted amount to `to` address"
      },
      "withdraw(address,uint256,uint256,address,uint256)": {
        "notice": "Withdraws liquidity amount of asset to `to` address ensuring minimum amount required"
      },
      "withdrawFromOtherAsset(address,address,uint256,uint256,address,uint256)": {
        "notice": "Enables withdrawing liquidity from an asset using LP from a different asset"
      }
    },
    "notice": "Manages deposits, withdrawals and swaps. Holds a mapping of assets and parameters.",
    "version": 1
  },
  "storageLayout": {
    "storage": [
      {
        "astId": 130,
        "contract": "contracts/wombat-core/pool/Pool.sol:Pool",
        "label": "_initialized",
        "offset": 0,
        "slot": "0",
        "type": "t_bool"
      },
      {
        "astId": 133,
        "contract": "contracts/wombat-core/pool/Pool.sol:Pool",
        "label": "_initializing",
        "offset": 1,
        "slot": "0",
        "type": "t_bool"
      },
      {
        "astId": 651,
        "contract": "contracts/wombat-core/pool/Pool.sol:Pool",
        "label": "__gap",
        "offset": 0,
        "slot": "1",
        "type": "t_array(t_uint256)50_storage"
      },
      {
        "astId": 10,
        "contract": "contracts/wombat-core/pool/Pool.sol:Pool",
        "label": "_owner",
        "offset": 0,
        "slot": "51",
        "type": "t_address"
      },
      {
        "astId": 122,
        "contract": "contracts/wombat-core/pool/Pool.sol:Pool",
        "label": "__gap",
        "offset": 0,
        "slot": "52",
        "type": "t_array(t_uint256)49_storage"
      },
      {
        "astId": 322,
        "contract": "contracts/wombat-core/pool/Pool.sol:Pool",
        "label": "_status",
        "offset": 0,
        "slot": "101",
        "type": "t_uint256"
      },
      {
        "astId": 366,
        "contract": "contracts/wombat-core/pool/Pool.sol:Pool",
        "label": "__gap",
        "offset": 0,
        "slot": "102",
        "type": "t_array(t_uint256)49_storage"
      },
      {
        "astId": 218,
        "contract": "contracts/wombat-core/pool/Pool.sol:Pool",
        "label": "_paused",
        "offset": 0,
        "slot": "151",
        "type": "t_bool"
      },
      {
        "astId": 307,
        "contract": "contracts/wombat-core/pool/Pool.sol:Pool",
        "label": "__gap",
        "offset": 0,
        "slot": "152",
        "type": "t_array(t_uint256)49_storage"
      },
      {
        "astId": 5312,
        "contract": "contracts/wombat-core/pool/Pool.sol:Pool",
        "label": "_pausedAssets",
        "offset": 0,
        "slot": "201",
        "type": "t_mapping(t_address,t_bool)"
      },
      {
        "astId": 5443,
        "contract": "contracts/wombat-core/pool/Pool.sol:Pool",
        "label": "ampFactor",
        "offset": 0,
        "slot": "202",
        "type": "t_uint256"
      },
      {
        "astId": 5446,
        "contract": "contracts/wombat-core/pool/Pool.sol:Pool",
        "label": "haircutRate",
        "offset": 0,
        "slot": "203",
        "type": "t_uint256"
      },
      {
        "astId": 5449,
        "contract": "contracts/wombat-core/pool/Pool.sol:Pool",
        "label": "retentionRatio",
        "offset": 0,
        "slot": "204",
        "type": "t_uint256"
      },
      {
        "astId": 5452,
        "contract": "contracts/wombat-core/pool/Pool.sol:Pool",
        "label": "lpDividendRatio",
        "offset": 0,
        "slot": "205",
        "type": "t_uint256"
      },
      {
        "astId": 5455,
        "contract": "contracts/wombat-core/pool/Pool.sol:Pool",
        "label": "mintFeeThreshold",
        "offset": 0,
        "slot": "206",
        "type": "t_uint256"
      },
      {
        "astId": 5458,
        "contract": "contracts/wombat-core/pool/Pool.sol:Pool",
        "label": "dev",
        "offset": 0,
        "slot": "207",
        "type": "t_address"
      },
      {
        "astId": 5460,
        "contract": "contracts/wombat-core/pool/Pool.sol:Pool",
        "label": "feeTo",
        "offset": 0,
        "slot": "208",
        "type": "t_address"
      },
      {
        "astId": 5463,
        "contract": "contracts/wombat-core/pool/Pool.sol:Pool",
        "label": "masterWombat",
        "offset": 0,
        "slot": "209",
        "type": "t_contract(IMasterWombat)12240"
      },
      {
        "astId": 5469,
        "contract": "contracts/wombat-core/pool/Pool.sol:Pool",
        "label": "_feeCollected",
        "offset": 0,
        "slot": "210",
        "type": "t_mapping(t_contract(IAsset)4095,t_uint256)"
      },
      {
        "astId": 5473,
        "contract": "contracts/wombat-core/pool/Pool.sol:Pool",
        "label": "_assets",
        "offset": 0,
        "slot": "211",
        "type": "t_struct(AssetMap)5440_storage"
      }
    ],
    "types": {
      "t_address": {
        "encoding": "inplace",
        "label": "address",
        "numberOfBytes": "20"
      },
      "t_array(t_address)dyn_storage": {
        "base": "t_address",
        "encoding": "dynamic_array",
        "label": "address[]",
        "numberOfBytes": "32"
      },
      "t_array(t_uint256)49_storage": {
        "base": "t_uint256",
        "encoding": "inplace",
        "label": "uint256[49]",
        "numberOfBytes": "1568"
      },
      "t_array(t_uint256)50_storage": {
        "base": "t_uint256",
        "encoding": "inplace",
        "label": "uint256[50]",
        "numberOfBytes": "1600"
      },
      "t_bool": {
        "encoding": "inplace",
        "label": "bool",
        "numberOfBytes": "1"
      },
      "t_contract(IAsset)4095": {
        "encoding": "inplace",
        "label": "contract IAsset",
        "numberOfBytes": "20"
      },
      "t_contract(IMasterWombat)12240": {
        "encoding": "inplace",
        "label": "contract IMasterWombat",
        "numberOfBytes": "20"
      },
      "t_mapping(t_address,t_bool)": {
        "encoding": "mapping",
        "key": "t_address",
        "label": "mapping(address => bool)",
        "numberOfBytes": "32",
        "value": "t_bool"
      },
      "t_mapping(t_address,t_contract(IAsset)4095)": {
        "encoding": "mapping",
        "key": "t_address",
        "label": "mapping(address => contract IAsset)",
        "numberOfBytes": "32",
        "value": "t_contract(IAsset)4095"
      },
      "t_mapping(t_address,t_uint256)": {
        "encoding": "mapping",
        "key": "t_address",
        "label": "mapping(address => uint256)",
        "numberOfBytes": "32",
        "value": "t_uint256"
      },
      "t_mapping(t_contract(IAsset)4095,t_uint256)": {
        "encoding": "mapping",
        "key": "t_contract(IAsset)4095",
        "label": "mapping(contract IAsset => uint256)",
        "numberOfBytes": "32",
        "value": "t_uint256"
      },
      "t_struct(AssetMap)5440_storage": {
        "encoding": "inplace",
        "label": "struct Pool.AssetMap",
        "members": [
          {
            "astId": 5430,
            "contract": "contracts/wombat-core/pool/Pool.sol:Pool",
            "label": "keys",
            "offset": 0,
            "slot": "0",
            "type": "t_array(t_address)dyn_storage"
          },
          {
            "astId": 5435,
            "contract": "contracts/wombat-core/pool/Pool.sol:Pool",
            "label": "values",
            "offset": 0,
            "slot": "1",
            "type": "t_mapping(t_address,t_contract(IAsset)4095)"
          },
          {
            "astId": 5439,
            "contract": "contracts/wombat-core/pool/Pool.sol:Pool",
            "label": "indexOf",
            "offset": 0,
            "slot": "2",
            "type": "t_mapping(t_address,t_uint256)"
          }
        ],
        "numberOfBytes": "96"
      },
      "t_uint256": {
        "encoding": "inplace",
        "label": "uint256",
        "numberOfBytes": "32"
      }
    }
  }
}