{
  "address": "0x9e22Bdc702dA660A55b0DfEbCbEbe147f80C6e03",
  "abi": [
    {
      "inputs": [
        {
          "internalType": "contract IWNative",
          "name": "_wNative",
          "type": "address"
        }
      ],
      "stateMutability": "nonpayable",
      "type": "constructor"
    },
    {
      "anonymous": false,
      "inputs": [
        {
          "indexed": true,
          "internalType": "address",
          "name": "previousOwner",
          "type": "address"
        },
        {
          "indexed": true,
          "internalType": "address",
          "name": "newOwner",
          "type": "address"
        }
      ],
      "name": "OwnershipTransferred",
      "type": "event"
    },
    {
      "inputs": [
        {
          "internalType": "contract IPool",
          "name": "pool",
          "type": "address"
        },
        {
          "internalType": "uint256",
          "name": "minimumLiquidity",
          "type": "uint256"
        },
        {
          "internalType": "address",
          "name": "to",
          "type": "address"
        },
        {
          "internalType": "uint256",
          "name": "deadline",
          "type": "uint256"
        },
        {
          "internalType": "bool",
          "name": "shouldStake",
          "type": "bool"
        }
      ],
      "name": "addLiquidityNative",
      "outputs": [
        {
          "internalType": "uint256",
          "name": "liquidity",
          "type": "uint256"
        }
      ],
      "stateMutability": "payable",
      "type": "function"
    },
    {
      "inputs": [
        {
          "internalType": "address[]",
          "name": "tokens",
          "type": "address[]"
        },
        {
          "internalType": "address",
          "name": "pool",
          "type": "address"
        }
      ],
      "name": "approveSpendingByPool",
      "outputs": [],
      "stateMutability": "nonpayable",
      "type": "function"
    },
    {
      "inputs": [
        {
          "internalType": "address[]",
          "name": "tokenPath",
          "type": "address[]"
        },
        {
          "internalType": "address[]",
          "name": "poolPath",
          "type": "address[]"
        },
        {
          "internalType": "uint256",
          "name": "amountOut",
          "type": "uint256"
        }
      ],
      "name": "getAmountIn",
      "outputs": [
        {
          "internalType": "uint256",
          "name": "amountIn",
          "type": "uint256"
        },
        {
          "internalType": "uint256[]",
          "name": "haircuts",
          "type": "uint256[]"
        }
      ],
      "stateMutability": "view",
      "type": "function"
    },
    {
      "inputs": [
        {
          "internalType": "address[]",
          "name": "tokenPath",
          "type": "address[]"
        },
        {
          "internalType": "address[]",
          "name": "poolPath",
          "type": "address[]"
        },
        {
          "internalType": "int256",
          "name": "amountIn",
          "type": "int256"
        }
      ],
      "name": "getAmountOut",
      "outputs": [
        {
          "internalType": "uint256",
          "name": "amountOut",
          "type": "uint256"
        },
        {
          "internalType": "uint256[]",
          "name": "haircuts",
          "type": "uint256[]"
        }
      ],
      "stateMutability": "view",
      "type": "function"
    },
    {
      "inputs": [],
      "name": "owner",
      "outputs": [
        {
          "internalType": "address",
          "name": "",
          "type": "address"
        }
      ],
      "stateMutability": "view",
      "type": "function"
    },
    {
      "inputs": [
        {
          "internalType": "contract IPool",
          "name": "pool",
          "type": "address"
        },
        {
          "internalType": "address",
          "name": "fromToken",
          "type": "address"
        },
        {
          "internalType": "uint256",
          "name": "liquidity",
          "type": "uint256"
        },
        {
          "internalType": "uint256",
          "name": "minimumAmount",
          "type": "uint256"
        },
        {
          "internalType": "address",
          "name": "to",
          "type": "address"
        },
        {
          "internalType": "uint256",
          "name": "deadline",
          "type": "uint256"
        }
      ],
      "name": "removeLiquidityFromOtherAssetAsNative",
      "outputs": [
        {
          "internalType": "uint256",
          "name": "amount",
          "type": "uint256"
        }
      ],
      "stateMutability": "nonpayable",
      "type": "function"
    },
    {
      "inputs": [
        {
          "internalType": "contract IPool",
          "name": "pool",
          "type": "address"
        },
        {
          "internalType": "uint256",
          "name": "liquidity",
          "type": "uint256"
        },
        {
          "internalType": "uint256",
          "name": "minimumAmount",
          "type": "uint256"
        },
        {
          "internalType": "address",
          "name": "to",
          "type": "address"
        },
        {
          "internalType": "uint256",
          "name": "deadline",
          "type": "uint256"
        }
      ],
      "name": "removeLiquidityNative",
      "outputs": [
        {
          "internalType": "uint256",
          "name": "amount",
          "type": "uint256"
        }
      ],
      "stateMutability": "nonpayable",
      "type": "function"
    },
    {
      "inputs": [],
      "name": "renounceOwnership",
      "outputs": [],
      "stateMutability": "nonpayable",
      "type": "function"
    },
    {
      "inputs": [
        {
          "internalType": "address[]",
          "name": "tokenPath",
          "type": "address[]"
        },
        {
          "internalType": "address[]",
          "name": "poolPath",
          "type": "address[]"
        },
        {
          "internalType": "uint256",
          "name": "minimumamountOut",
          "type": "uint256"
        },
        {
          "internalType": "address",
          "name": "to",
          "type": "address"
        },
        {
          "internalType": "uint256",
          "name": "deadline",
          "type": "uint256"
        }
      ],
      "name": "swapExactNativeForTokens",
      "outputs": [
        {
          "internalType": "uint256",
          "name": "amountOut",
          "type": "uint256"
        }
      ],
      "stateMutability": "payable",
      "type": "function"
    },
    {
      "inputs": [
        {
          "internalType": "address[]",
          "name": "tokenPath",
          "type": "address[]"
        },
        {
          "internalType": "address[]",
          "name": "poolPath",
          "type": "address[]"
        },
        {
          "internalType": "uint256",
          "name": "amountIn",
          "type": "uint256"
        },
        {
          "internalType": "uint256",
          "name": "minimumamountOut",
          "type": "uint256"
        },
        {
          "internalType": "address",
          "name": "to",
          "type": "address"
        },
        {
          "internalType": "uint256",
          "name": "deadline",
          "type": "uint256"
        }
      ],
      "name": "swapExactTokensForNative",
      "outputs": [
        {
          "internalType": "uint256",
          "name": "amountOut",
          "type": "uint256"
        }
      ],
      "stateMutability": "nonpayable",
      "type": "function"
    },
    {
      "inputs": [
        {
          "internalType": "address[]",
          "name": "tokenPath",
          "type": "address[]"
        },
        {
          "internalType": "address[]",
          "name": "poolPath",
          "type": "address[]"
        },
        {
          "internalType": "uint256",
          "name": "amountIn",
          "type": "uint256"
        },
        {
          "internalType": "uint256",
          "name": "minimumamountOut",
          "type": "uint256"
        },
        {
          "internalType": "address",
          "name": "to",
          "type": "address"
        },
        {
          "internalType": "uint256",
          "name": "deadline",
          "type": "uint256"
        }
      ],
      "name": "swapExactTokensForTokens",
      "outputs": [
        {
          "internalType": "uint256",
          "name": "amountOut",
          "type": "uint256"
        }
      ],
      "stateMutability": "nonpayable",
      "type": "function"
    },
    {
      "inputs": [
        {
          "internalType": "address",
          "name": "newOwner",
          "type": "address"
        }
      ],
      "name": "transferOwnership",
      "outputs": [],
      "stateMutability": "nonpayable",
      "type": "function"
    },
    {
      "inputs": [],
      "name": "wNative",
      "outputs": [
        {
          "internalType": "contract IWNative",
          "name": "",
          "type": "address"
        }
      ],
      "stateMutability": "view",
      "type": "function"
    },
    {
      "stateMutability": "payable",
      "type": "receive"
    }
  ],
  "transactionHash": "0xf2aabc3ff8fb7b3d6fbbcd804c1797aaccd08296bee2267dd5935b6a6f5646a9",
  "args": [
    "0xbb4CdB9CBd36B01bD1cBaEBF2De08d9173bc095c"
  ],
  "solcInputHash": "34cdd204f3b508d5068dd4661cec53ac",
  "bytecode": "0x60a0346100d157601f61206f38819003918201601f19168301916001600160401b038311848410176100d6578084926020946040528339810103126100d157516001600160a01b039081811681036100d1576000543360018060a01b0319821617600055604051923391167f8be0079c531659141344cd1fd0a4f28419497f9722a3daafe3b4186f6b6457e0600085a3608052611f8290816100ed82396080518181816102090152818161032a015281816105cc0152818161090601528181610b5201528181610fdc01526112db0152f35b600080fd5b634e487b7160e01b600052604160045260246000fdfe60806040526004361015610023575b361561001957600080fd5b6100216112c4565b005b60003560e01c8063018ad001146101275780632d68efc91461011e5780633226288e146101155780636248fced1461010c578063715018a6146101035780637eeb1955146100fa57806385335cc0146100f15780638d8f82e6146100e85780638da5cb5b146100df578063b9e598c1146100d6578063d44107a4146100cd578063f048d48f146100c45763f2fde38b0361000e576100bf61114e565b61000e565b506100bf610f6b565b506100bf610eb4565b506100bf610d00565b506100bf610ccb565b506100bf610c0c565b506100bf610afe565b506100bf6107c4565b506100bf61073a565b506100bf610582565b506100bf610392565b506100bf6102fc565b506100bf610184565b9181601f840112156101615782359167ffffffffffffffff8311610161576020808501948460051b01011161016157565b600080fd5b73ffffffffffffffffffffffffffffffffffffffff81160361016157565b5060a06003193601126101615767ffffffffffffffff600435818111610161576101b2903690600401610130565b91602435908111610161576101cb903690600401610130565b9091606435916101da83610166565b6101ec6101e7868461137f565b6113b1565b9361023373ffffffffffffffffffffffffffffffffffffffff95867f0000000000000000000000000000000000000000000000000000000000000000169687911614611ad5565b610241426084351015611931565b61025461024d876119c7565b83146119d7565b843b15610161576102c795600460006102a997604051928380927fd0e30db000000000000000000000000000000000000000000000000000000000825234905af180156102e4575b6102cb575b503493611bfb565b6102b7604435821015611a22565b6040519081529081906020820190565b0390f35b806102d86102de926113eb565b806102f1565b386102a1565b6102ec611478565b61029c565b600091031261016157565b503461016157600060031936011261016157602060405173ffffffffffffffffffffffffffffffffffffffff7f0000000000000000000000000000000000000000000000000000000000000000168152f35b9060609160408101918152602092816040858094015285518094520193019160005b82811061037e575050505090565b835185529381019392810192600101610370565b50346101615760606003193601126101615767ffffffffffffffff60048035828111610161576103c59036908301610130565b9260243590811161016157916103df849336908301610130565b90926000936103f1600287101561197c565b6104046103fd876119c7565b84146119d7565b6044359361041184611e40565b968492835b61042957604051806102c78b8b8361034e565b90919293949596506104f46104696104506104506101e7610449896119c7565b8b87611393565b73ffffffffffffffffffffffffffffffffffffffff1690565b976104806101e7610479886119c7565b868a611393565b9061048f6101e788878b611393565b9960409a8b938451958694859384937ffca8f3080000000000000000000000000000000000000000000000000000000085528c850160409194939294606082019573ffffffffffffffffffffffffffffffffffffffff80921683521660208201520152565b03915afa90811561056b575b6000988992610536575b505061051e610518866119c7565b8a611e8f565b526105298794611eb1565b9291908396959496610416565b61055a93995080919250903d10610564575b6105528183611428565b810190611be5565b969096898061050a565b503d610548565b610573611478565b610500565b8015150361016157565b5060a06003193601126101615760043561059b81610166565b6044356105a781610166565b6084356105b381610578565b73ffffffffffffffffffffffffffffffffffffffff90817f00000000000000000000000000000000000000000000000000000000000000001693843b15610161576102c79460006020946106b9966040517fd0e30db0000000000000000000000000000000000000000000000000000000008152838160048134895af1801561072d575b61071a575b506040517f6281baef00000000000000000000000000000000000000000000000000000000815273ffffffffffffffffffffffffffffffffffffffff948516600482015234602480830191909152356044820152931660648085019190915235608484015293151560a483015290948593849291839060c4820190565b0393165af190811561070d575b6000916106df575b506040519081529081906020820190565b610700915060203d8111610706575b6106f88183611428565b810190611469565b386106ce565b503d6106ee565b610715611478565b6106c6565b806102d8610727926113eb565b3861063c565b610735611478565b610637565b5034610161576000806003193601126107c15780547fffffffffffffffffffffffff000000000000000000000000000000000000000073ffffffffffffffffffffffffffffffffffffffff82169161079333841461120a565b16825581604051917f8be0079c531659141344cd1fd0a4f28419497f9722a3daafe3b4186f6b6457e08284a3f35b80fd5b50346101615760c06003193601126101615760006004356107e481610166565b6024356107f081610166565b61095f604435916084359261080484610166565b6040517fe9249cc700000000000000000000000000000000000000000000000000000000815273ffffffffffffffffffffffffffffffffffffffff83811660048301526020968794908216929091908581602481875afa908115610a8d575b8a91610a60575b506040517f23b872dd00000000000000000000000000000000000000000000000000000000815233600482015230602482015260448101869052908690829060649082908e9087165af18015610a53575b610a26575b506040517f0f91f06f00000000000000000000000000000000000000000000000000000000815273ffffffffffffffffffffffffffffffffffffffff92831660048201527f00000000000000000000000000000000000000000000000000000000000000009190911691821660248201526044810193909352606480359084015230608484015260a480359084015296919384928391829060c4820190565b03925af1928315610a19575b6000936109fa575b5050823b1561016157816102b7916102c794600060405180927f2e1a7d4d0000000000000000000000000000000000000000000000000000000082528183816109c489600483019190602083019252565b03925af180156109ed575b6109da575b50611ebf565b806102d86109e7926113eb565b386109d4565b6109f5611478565b6109cf565b610a11929350803d10610706576106f88183611428565b903880610973565b610a21611478565b61096b565b610a4590863d8811610a4c575b610a3d8183611428565b8101906116a6565b50386108c0565b503d610a33565b610a5b611478565b6108bb565b610a809150863d8811610a86575b610a788183611428565b81019061191c565b3861086a565b503d610a6e565b610a95611478565b610863565b60c06003198201126101615767ffffffffffffffff916004358381116101615782610ac791600401610130565b9390939260243591821161016157610ae191600401610130565b90916044359060643590608435610af781610166565b9060a43590565b503461016157610bbd610bb4610b1336610a9a565b9895610b84610b356101e7610b2e849c99959b98969c6119c7565b8489611393565b9a610b7c73ffffffffffffffffffffffffffffffffffffffff9c8d7f0000000000000000000000000000000000000000000000000000000000000000169d8e911614611b46565b421115611931565b610b906103fd826119c7565b610bad84610ba46104506101e7858a61137f565b30903390611a6d565b3094611bfb565b92831015611a22565b823b1561016157816102b7916102c794600060405180927f2e1a7d4d0000000000000000000000000000000000000000000000000000000082528183816109c489600483019190602083019252565b50346101615760406003193601126101615760043567ffffffffffffffff811161016157610c3e903690600401610130565b9060243590610c4c82610166565b73ffffffffffffffffffffffffffffffffffffffff91610c718360005416331461120a565b60005b848110610c7d57005b80610ca18386610c91610cc6958a89611393565b35610c9b81610166565b166114f6565b610cc18386610cb1848a89611393565b35610cbb81610166565b1661157a565b611333565b610c74565b503461016157600060031936011261016157602073ffffffffffffffffffffffffffffffffffffffff60005416604051908152f35b503461016157606060031936011261016157600467ffffffffffffffff813581811161016157610d339036908401610130565b9290916024359081116101615782610d4f859236908501610130565b9190600093610d61600282101561197c565b610d74610d6d826119c7565b85146119d7565b60443592610d8185611e40565b9686915b868310610d9b57604051806102c78b8b8361034e565b909192939495979650610e46610dbb6104506104506101e7878d8b611393565b96610dca6101e7868886611393565b90610de16101e7610dda88611bb7565b8987611393565b986040998a938451958694859384937f4fdd64e50000000000000000000000000000000000000000000000000000000085528b850160409194939294606082019573ffffffffffffffffffffffffffffffffffffffff80921683521660208201520152565b03915afa908115610ea7575b6000978892610e82575b5050610e688489611e8f565b52610e738693611333565b91909795969794939294610d85565b610e9d93985080919250903d10610564576105528183611428565b9590958980610e5c565b610eaf611478565b610e52565b5034610161576020610ee1610f49610f40610ece36610a9a565b9990969199959295949394421115611931565b610eee600283101561197c565b60018210610f5e575b610f06600019830185146119d7565b8115610f51575b610f3b858235610f1c81610166565b309073ffffffffffffffffffffffffffffffffffffffff339116611a6d565b611bfb565b91821015611a22565b604051908152f35b610f5961134f565b610f0d565b610f66611303565b610ef7565b50346101615760a060031936011261016157600435610f8981610166565b61102460243591600060643591610f9f83610166565b6040517fe9249cc700000000000000000000000000000000000000000000000000000000815273ffffffffffffffffffffffffffffffffffffffff7f000000000000000000000000000000000000000000000000000000000000000081166004830181905296602096879461095f949084169387928792908390829081906024820190565b0381895afa908115611141575b8491611124575b506040517f23b872dd00000000000000000000000000000000000000000000000000000000815233600482015230602482015260448101869052938492606492849291165af18015611117575b6110fa575b506040517f09a5fca300000000000000000000000000000000000000000000000000000000815273ffffffffffffffffffffffffffffffffffffffff89166004820152602481019190915260448035908201523060648201526084803590820152938492839190829060a4820190565b61111090853d8711610a4c57610a3d8183611428565b503861108a565b61111f611478565b611085565b61113b9150833d8511610a8657610a788183611428565b38611038565b611149611478565b611031565b50346101615760206003193601126101615760043561116c81610166565b73ffffffffffffffffffffffffffffffffffffffff6111908160005416331461120a565b8116156111a05761002190611255565b608460405162461bcd60e51b815260206004820152602660248201527f4f776e61626c653a206e6577206f776e657220697320746865207a65726f206160448201527f64647265737300000000000000000000000000000000000000000000000000006064820152fd5b1561121157565b606460405162461bcd60e51b815260206004820152602060248201527f4f776e61626c653a2063616c6c6572206973206e6f7420746865206f776e65726044820152fd5b6000549073ffffffffffffffffffffffffffffffffffffffff80911691827fffffffffffffffffffffffff0000000000000000000000000000000000000000821617600055167f8be0079c531659141344cd1fd0a4f28419497f9722a3daafe3b4186f6b6457e06000604051a3565b73ffffffffffffffffffffffffffffffffffffffff7f000000000000000000000000000000000000000000000000000000000000000016330361016157565b507f4e487b7100000000000000000000000000000000000000000000000000000000600052601160045260246000fd5b6001906000198114611343570190565b61134b611303565b0190565b507f4e487b7100000000000000000000000000000000000000000000000000000000600052603260045260246000fd5b90156113885790565b61139061134f565b90565b91908110156113a4575b60051b0190565b6113ac61134f565b61139d565b3561139081610166565b507f4e487b7100000000000000000000000000000000000000000000000000000000600052604160045260246000fd5b67ffffffffffffffff81116113ff57604052565b6114076113bb565b604052565b6040810190811067ffffffffffffffff8211176113ff57604052565b90601f7fffffffffffffffffffffffffffffffffffffffffffffffffffffffffffffffe0910116810190811067ffffffffffffffff8211176113ff57604052565b90816020910312610161575190565b506040513d6000823e3d90fd5b1561148c57565b608460405162461bcd60e51b815260206004820152603660248201527f5361666545524332303a20617070726f76652066726f6d206e6f6e2d7a65726f60448201527f20746f206e6f6e2d7a65726f20616c6c6f77616e6365000000000000000000006064820152fd5b9061156b9173ffffffffffffffffffffffffffffffffffffffff604051927f095ea7b300000000000000000000000000000000000000000000000000000000602085015216602483015260006044830152604482526080820182811067ffffffffffffffff82111761156d575b60405261172c565b565b6115756113bb565b611563565b61164a9061167661156b936115f26040517fdd62ed3e00000000000000000000000000000000000000000000000000000000815230600482015260208160448173ffffffffffffffffffffffffffffffffffffffff808816602483015289165afa908115611699575b60009161167b575b5015611485565b6040517f095ea7b300000000000000000000000000000000000000000000000000000000602082015273ffffffffffffffffffffffffffffffffffffffff909116602482015260001960448201529283906064820190565b037fffffffffffffffffffffffffffffffffffffffffffffffffffffffffffffffe08101845283611428565b61172c565b611693915060203d8111610706576106f88183611428565b386115eb565b6116a1611478565b6115e3565b90816020910312610161575161139081610578565b156116c257565b608460405162461bcd60e51b815260206004820152602a60248201527f5361666545524332303a204552433230206f7065726174696f6e20646964206e60448201527f6f742073756363656564000000000000000000000000000000000000000000006064820152fd5b73ffffffffffffffffffffffffffffffffffffffff1690604051906117508261140c565b6020928383527f5361666545524332303a206c6f772d6c6576656c2063616c6c206661696c656484840152803b156117c757600082819282876117a29796519301915af161179c61180b565b90611877565b805190816117af57505050565b8261156b936117c29383010191016116a6565b6116bb565b6064846040519062461bcd60e51b82526004820152601d60248201527f416464726573733a2063616c6c20746f206e6f6e2d636f6e74726163740000006044820152fd5b3d15611872573d9067ffffffffffffffff8211611865575b6040519161185960207fffffffffffffffffffffffffffffffffffffffffffffffffffffffffffffffe0601f8401160184611428565b82523d6000602084013e565b61186d6113bb565b611823565b606090565b90919015611883575090565b8151156118935750805190602001fd5b6040519062461bcd60e51b82528160208060048301528251928360248401526000915b848310611903575050601f836044947fffffffffffffffffffffffffffffffffffffffffffffffffffffffffffffffe093116118f6575b01168101030190fd5b60008582860101526118ed565b81830181015186840160440152859350918201916118b6565b90816020910312610161575161139081610166565b1561193857565b606460405162461bcd60e51b815260206004820152600760248201527f65787069726564000000000000000000000000000000000000000000000000006044820152fd5b1561198357565b606460405162461bcd60e51b815260206004820152601260248201527f696e76616c696420746f6b656e207061746800000000000000000000000000006044820152fd5b6000199060018110611343570190565b156119de57565b606460405162461bcd60e51b815260206004820152601160248201527f696e76616c696420706f6f6c20706174680000000000000000000000000000006044820152fd5b15611a2957565b606460405162461bcd60e51b815260206004820152601160248201527f616d6f756e744f757420746f6f206c6f770000000000000000000000000000006044820152fd5b6040517f23b872dd00000000000000000000000000000000000000000000000000000000602082015273ffffffffffffffffffffffffffffffffffffffff9283166024820152929091166044830152606482019290925261156b91611676826084810161164a565b15611adc57565b608460405162461bcd60e51b815260206004820152602960248201527f74686520666972737420616464726573732073686f756c64206265207772617060448201527f70656420746f6b656e00000000000000000000000000000000000000000000006064820152fd5b15611b4d57565b608460405162461bcd60e51b815260206004820152602860248201527f746865206c61737420616464726573732073686f756c6420626520777261707060448201527f656420746f6b656e0000000000000000000000000000000000000000000000006064820152fd5b6001907ffffffffffffffffffffffffffffffffffffffffffffffffffffffffffffffffe8111611343570190565b9190826040910312610161576020825192015190565b91956000949193915b611c0d836119c7565b861015611d24576000611cd7611cf392611c326104506104506101e78c8f8b90611393565b611c406101e78b8b8b611393565b90611c576101e7611c508d611bb7565b8c8c611393565b9260409586948551968795869485937f9908fc8b0000000000000000000000000000000000000000000000000000000085523092600486019094939160a0926000199460c084019773ffffffffffffffffffffffffffffffffffffffff938480921686521660208501526040840152600060608401521660808201520152565b03925af1918215611d17575b600092611cf9575b505095611333565b94611c04565b611d0f9250803d10610564576105528183611428565b503880611ceb565b611d1f611478565b611ce3565b9392604095506101e7611d7091611d526104506104506101e76000979d611d4a8a6119c7565b998a91611393565b95611d6a611d646101e7888486611393565b96611bb7565b91611393565b85517f9908fc8b00000000000000000000000000000000000000000000000000000000815273ffffffffffffffffffffffffffffffffffffffff938416600482015290831660248201526044810194909452600060648501529416608483015260001960a48301529092839160c49183915af1908115611e12575b600091611df6575090565b611e0e915060403d8111610564576105528183611428565b5090565b611e1a611478565b611deb565b60209067ffffffffffffffff8111611e385760051b0190565b6113ac6113bb565b90611e4a82611e1f565b611e576040519182611428565b8281527fffffffffffffffffffffffffffffffffffffffffffffffffffffffffffffffe0611e858294611e1f565b0190602036910137565b6020918151811015611ea4575b60051b010190565b611eac61134f565b611e9c565b600019908015611343570190565b600080929181926040519183602084019380851067ffffffffffffffff861117611f3f575b84604052525af1611ef361180b565b5015611efb57565b606460405162461bcd60e51b815260206004820152601960248201527f5f736166655472616e736665724e6174697665206661696c73000000000000006044820152fd5b611f476113bb565b611ee456fea2646970667358221220cd8b8a4920b9ae5e1c3f548466fa652bdd2eff788f45c0e647858ddf786f107564736f6c634300080f0033",
  "devdoc": {
    "details": "Owner is allowed and required to approve token spending by pools via approveSpendingByPool function. With great thanks to the uniswap team for your contribution to the opensource community reference: https://github.com/Uniswap/v2-periphery/blob/master/contracts/UniswapV2Router02.sol",
    "kind": "dev",
    "methods": {
      "approveSpendingByPool(address[],address)": {
        "details": "needs to be done after asset deployment for router to be able to support the tokens",
        "params": {
          "pool": "to be approved to spend",
          "tokens": "array of tokens to be approved"
        }
      },
      "getAmountIn(address[],address[],uint256)": {
        "params": {
          "amountOut": "The to amount",
          "poolPath": "The token pool path",
          "tokenPath": "The token swap path"
        },
        "returns": {
          "amountIn": "The potential final amount user would receive"
        }
      },
      "getAmountOut(address[],address[],int256)": {
        "params": {
          "amountIn": "The from amount",
          "poolPath": "The token pool path",
          "tokenPath": "The token swap path"
        },
        "returns": {
          "amountOut": "The potential final amount user would receive"
        }
      },
      "owner()": {
        "details": "Returns the address of the current owner."
      },
      "renounceOwnership()": {
        "details": "Leaves the contract without owner. It will not be possible to call `onlyOwner` functions anymore. Can only be called by the current owner. NOTE: Renouncing ownership will leave the contract without an owner, thereby removing any functionality that is only available to the owner."
      },
      "swapExactTokensForTokens(address[],address[],uint256,uint256,address,uint256)": {
        "params": {
          "amountIn": "the amount in",
          "deadline": "the deadline to respect",
          "minimumamountOut": "the minimum amount to get for user",
          "poolPath": "An array of pool addresses. The pools where the pathTokens are contained in order.",
          "to": "the user to send the tokens to",
          "tokenPath": "The first element of the path is the input token, the last element is the output token."
        },
        "returns": {
          "amountOut": "received by user"
        }
      },
      "transferOwnership(address)": {
        "details": "Transfers ownership of the contract to a new account (`newOwner`). Can only be called by the current owner."
      }
    },
    "title": "WombatRouter",
    "version": 1
  },
  "userdoc": {
    "kind": "user",
    "methods": {
      "approveSpendingByPool(address[],address)": {
        "notice": "approve spending of router tokens by pool"
      },
      "getAmountIn(address[],address[],uint256)": {
        "notice": "Returns the minimum input asset amount required to buy the given output asset amount (accounting for fees and slippage) Note: This function should be used as estimation only. The actual swap amount might be different due to precision error (the error is typically under 1e-6)"
      },
      "getAmountOut(address[],address[],int256)": {
        "notice": "Given an input asset amount and an array of token addresses, calculates the maximum output token amount (accounting for fees and slippage)."
      },
      "swapExactTokensForTokens(address[],address[],uint256,uint256,address,uint256)": {
        "notice": "Swaps an exact amount of input tokens for as many output tokens as possible, along the route determined by the path"
      }
    },
    "notice": "Allows routing on different wombat pools",
    "version": 1
  },
  "storageLayout": {
    "storage": [
      {
        "astId": 660,
        "contract": "contracts/wombat-core/libraries/WombatRouter.sol:WombatRouter",
        "label": "_owner",
        "offset": 0,
        "slot": "0",
        "type": "t_address"
      }
    ],
    "types": {
      "t_address": {
        "encoding": "inplace",
        "label": "address",
        "numberOfBytes": "20"
      }
    }
  }
}