{
  "address": "0x297622907E5c6C133Df6CCED61aFc03FEF534Fd9",
  "abi": [
    {
      "inputs": [
        {
          "internalType": "address",
          "name": "vestedTokenAddress",
          "type": "address"
        },
        {
          "internalType": "uint256",
          "name": "startTimestamp",
          "type": "uint256"
        },
        {
          "internalType": "uint256",
          "name": "durationSeconds",
          "type": "uint256"
        },
        {
          "internalType": "uint256",
          "name": "unlockDurationSeconds",
          "type": "uint256"
        }
      ],
      "stateMutability": "nonpayable",
      "type": "constructor"
    },
    {
      "anonymous": false,
      "inputs": [
        {
          "indexed": true,
          "internalType": "address",
          "name": "beneficiary",
          "type": "address"
        },
        {
          "indexed": false,
          "internalType": "uint256",
          "name": "amount",
          "type": "uint256"
        }
      ],
      "name": "BeneficiaryAdded",
      "type": "event"
    },
    {
      "anonymous": false,
      "inputs": [
        {
          "indexed": true,
          "internalType": "address",
          "name": "token",
          "type": "address"
        },
        {
          "indexed": false,
          "internalType": "uint256",
          "name": "amount",
          "type": "uint256"
        }
      ],
      "name": "ERC20Released",
      "type": "event"
    },
    {
      "anonymous": false,
      "inputs": [
        {
          "indexed": true,
          "internalType": "address",
          "name": "previousOwner",
          "type": "address"
        },
        {
          "indexed": true,
          "internalType": "address",
          "name": "newOwner",
          "type": "address"
        }
      ],
      "name": "OwnershipTransferred",
      "type": "event"
    },
    {
      "anonymous": false,
      "inputs": [
        {
          "indexed": true,
          "internalType": "address",
          "name": "beneficiary",
          "type": "address"
        },
        {
          "indexed": false,
          "internalType": "uint256",
          "name": "amount",
          "type": "uint256"
        }
      ],
      "name": "ReleasableAmount",
      "type": "event"
    },
    {
      "inputs": [
        {
          "internalType": "address",
          "name": "beneficiary",
          "type": "address"
        }
      ],
      "name": "beneficiaryBalance",
      "outputs": [
        {
          "internalType": "uint256",
          "name": "",
          "type": "uint256"
        }
      ],
      "stateMutability": "view",
      "type": "function"
    },
    {
      "inputs": [],
      "name": "beneficiaryCount",
      "outputs": [
        {
          "internalType": "uint8",
          "name": "",
          "type": "uint8"
        }
      ],
      "stateMutability": "view",
      "type": "function"
    },
    {
      "inputs": [],
      "name": "duration",
      "outputs": [
        {
          "internalType": "uint256",
          "name": "",
          "type": "uint256"
        }
      ],
      "stateMutability": "view",
      "type": "function"
    },
    {
      "inputs": [],
      "name": "owner",
      "outputs": [
        {
          "internalType": "address",
          "name": "",
          "type": "address"
        }
      ],
      "stateMutability": "view",
      "type": "function"
    },
    {
      "inputs": [
        {
          "internalType": "address",
          "name": "beneficiary",
          "type": "address"
        }
      ],
      "name": "release",
      "outputs": [],
      "stateMutability": "nonpayable",
      "type": "function"
    },
    {
      "inputs": [
        {
          "internalType": "address",
          "name": "beneficiary",
          "type": "address"
        }
      ],
      "name": "released",
      "outputs": [
        {
          "internalType": "uint256",
          "name": "",
          "type": "uint256"
        }
      ],
      "stateMutability": "view",
      "type": "function"
    },
    {
      "inputs": [],
      "name": "renounceOwnership",
      "outputs": [],
      "stateMutability": "nonpayable",
      "type": "function"
    },
    {
      "inputs": [
        {
          "internalType": "address",
          "name": "beneficiary",
          "type": "address"
        },
        {
          "internalType": "uint256",
          "name": "allocation",
          "type": "uint256"
        }
      ],
      "name": "setBeneficiary",
      "outputs": [],
      "stateMutability": "nonpayable",
      "type": "function"
    },
    {
      "inputs": [],
      "name": "start",
      "outputs": [
        {
          "internalType": "uint256",
          "name": "",
          "type": "uint256"
        }
      ],
      "stateMutability": "view",
      "type": "function"
    },
    {
      "inputs": [],
      "name": "totalAllocationBalance",
      "outputs": [
        {
          "internalType": "uint256",
          "name": "",
          "type": "uint256"
        }
      ],
      "stateMutability": "view",
      "type": "function"
    },
    {
      "inputs": [],
      "name": "totalUnderlyingBalance",
      "outputs": [
        {
          "internalType": "uint256",
          "name": "",
          "type": "uint256"
        }
      ],
      "stateMutability": "view",
      "type": "function"
    },
    {
      "inputs": [
        {
          "internalType": "address",
          "name": "newOwner",
          "type": "address"
        }
      ],
      "name": "transferOwnership",
      "outputs": [],
      "stateMutability": "nonpayable",
      "type": "function"
    },
    {
      "inputs": [
        {
          "internalType": "address",
          "name": "beneficiary",
          "type": "address"
        },
        {
          "internalType": "uint256",
          "name": "timestamp",
          "type": "uint256"
        }
      ],
      "name": "vestedAmount",
      "outputs": [
        {
          "internalType": "uint256",
          "name": "",
          "type": "uint256"
        }
      ],
      "stateMutability": "view",
      "type": "function"
    },
    {
      "inputs": [],
      "name": "vestedToken",
      "outputs": [
        {
          "internalType": "contract IERC20",
          "name": "",
          "type": "address"
        }
      ],
      "stateMutability": "view",
      "type": "function"
    }
  ],
  "transactionHash": "0xf36e1fcbc24ecdb308cd4346c2163f7bea5ec0a3748c8592509d54373344e3e4",
  "args": [
    "0xAD6742A35fB341A9Cc6ad674738Dd8da98b94Fb1",
    1661929106,
    157680000,
    15768000
  ],
  "solcInputHash": "34cdd204f3b508d5068dd4661cec53ac",
  "bytecode": "0x60e0346100f157601f6111c638819003918201601f19168301916001600160401b038311848410176100f6578084926080946040528339810103126100f15780516001600160a01b0391828216918290036100f1576020810151606060408301519201519260005460018060a01b0319903382821617600055604051963391167f8be0079c531659141344cd1fd0a4f28419497f9722a3daafe3b4186f6b6457e0600089a3600154161760015560805260a05260c0526110b9908161010d823960805181818161079501528181610f470152610ff9015260a0518181816101440152610f7c015260c051816110290152f35b600080fd5b634e487b7160e01b600052604160045260246000fdfe60806040526004361015610013575b600080fd5b60003560e01c80630fb5a6b41461012b57806317cf53911461012257806319165587146101195780635ba58955146101105780635de29741146101075780636fd1f270146100fe578063715018a6146100f5578063734b2a7c146100ec5780637da5d09f146100e35780638da5cb5b146100da5780639852595c146100d15780639df0ea5f146100c8578063be9a6555146100bf5763f2fde38b146100b757600080fd5b61000e6107b8565b5061000e61077c565b5061000e61075d565b5061000e610712565b5061000e6106dd565b5061000e61061b565b5061000e6105f9565b5061000e61056f565b5061000e6103c3565b5061000e61038e565b5061000e610346565b5061000e6101df565b5061000e6101bd565b503461000e57600060031936011261000e5760206040517f00000000000000000000000000000000000000000000000000000000000000008152f35b6004359073ffffffffffffffffffffffffffffffffffffffff8216820361000e57565b600319604091011261000e5760043573ffffffffffffffffffffffffffffffffffffffff8116810361000e579060243590565b503461000e5760206101d76101d13661018a565b90610f01565b604051908152f35b503461000e57602060031936011261000e576103376101fc610167565b6102064282610f01565b9073ffffffffffffffffffffffffffffffffffffffff91828216600052600360205260016040600020015490818110610339575b039160016102688373ffffffffffffffffffffffffffffffffffffffff166000526003602052604060002090565b01610274848254610afe565b90556102a08273ffffffffffffffffffffffffffffffffffffffff166000526003602052604060002090565b6102ab848254610bde565b90556102b642610ff7565b60026102e28473ffffffffffffffffffffffffffffffffffffffff166000526003602052604060002090565b015560015473ffffffffffffffffffffffffffffffffffffffff1660405184815290918216907fc0e523490dd523c33b1878c9eb14ff46991e3f5b2cd33710918618f2a39cba1b9080602081010390a2610bf5565b005b610341610ace565b61023a565b503461000e57602060031936011261000e5773ffffffffffffffffffffffffffffffffffffffff610375610167565b1660005260036020526020604060002054604051908152f35b503461000e57600060031936011261000e57602073ffffffffffffffffffffffffffffffffffffffff60015416604051908152f35b503461000e576103d23661018a565b73ffffffffffffffffffffffffffffffffffffffff6103f68160005416331461088a565b82169182156104eb577fe6b83177f11971ba30369bb38b914ffba97d5969a3c857b286fa8fdbb150b3ba916104d68261045c6104556104e69573ffffffffffffffffffffffffffffffffffffffff166000526003602052604060002090565b5415610a23565b6104bd610467610aae565b84815260006020820152600060408201526104a28373ffffffffffffffffffffffffffffffffffffffff166000526003602052604060002090565b90604060029180518455602081015160018501550151910155565b6104d16104cc84600454610afe565b600455565b610b16565b6040519081529081906020820190565b0390a2005b60846040517f08c379a000000000000000000000000000000000000000000000000000000000815260206004820152602360248201527f42656e65666963696172793a20616464726573732063616e6e6f74206265207a60448201527f65726f00000000000000000000000000000000000000000000000000000000006064820152fd5b503461000e576000806003193601126105f65780547fffffffffffffffffffffffff000000000000000000000000000000000000000073ffffffffffffffffffffffffffffffffffffffff8216916105c833841461088a565b16825581604051917f8be0079c531659141344cd1fd0a4f28419497f9722a3daafe3b4186f6b6457e08284a3f35b80fd5b503461000e57600060031936011261000e57602060ff60025416604051908152f35b503461000e57600060031936011261000e576024602073ffffffffffffffffffffffffffffffffffffffff60015416604051928380927f70a082310000000000000000000000000000000000000000000000000000000082523060048301525afa80156106d15761069f916000916106a3575b506040519081529081906020820190565b0390f35b6106c4915060203d81116106ca575b6106bc81836109d3565b810190610a14565b3861068e565b503d6106b2565b6040513d6000823e3d90fd5b503461000e57600060031936011261000e57602073ffffffffffffffffffffffffffffffffffffffff60005416604051908152f35b503461000e57602060031936011261000e5773ffffffffffffffffffffffffffffffffffffffff610741610167565b1660005260036020526020600160406000200154604051908152f35b503461000e57600060031936011261000e576020600454604051908152f35b503461000e57600060031936011261000e5760206040517f00000000000000000000000000000000000000000000000000000000000000008152f35b503461000e57602060031936011261000e576107d2610167565b73ffffffffffffffffffffffffffffffffffffffff6107f68160005416331461088a565b81161561080657610337906108ef565b60846040517f08c379a000000000000000000000000000000000000000000000000000000000815260206004820152602660248201527f4f776e61626c653a206e6577206f776e657220697320746865207a65726f206160448201527f64647265737300000000000000000000000000000000000000000000000000006064820152fd5b1561089157565b60646040517f08c379a000000000000000000000000000000000000000000000000000000000815260206004820152602060248201527f4f776e61626c653a2063616c6c6572206973206e6f7420746865206f776e65726044820152fd5b6000549073ffffffffffffffffffffffffffffffffffffffff80911691827fffffffffffffffffffffffff0000000000000000000000000000000000000000821617600055167f8be0079c531659141344cd1fd0a4f28419497f9722a3daafe3b4186f6b6457e06000604051a3565b507f4e487b7100000000000000000000000000000000000000000000000000000000600052604160045260246000fd5b6080810190811067ffffffffffffffff8211176109aa57604052565b6109b261095e565b604052565b6040810190811067ffffffffffffffff8211176109aa57604052565b90601f7fffffffffffffffffffffffffffffffffffffffffffffffffffffffffffffffe0910116810190811067ffffffffffffffff8211176109aa57604052565b9081602091031261000e575190565b15610a2a57565b60846040517f08c379a000000000000000000000000000000000000000000000000000000000815260206004820152602360248201527f42656e65666963696172793a20616c6c6f636174696f6e20616c72656164792060448201527f73657400000000000000000000000000000000000000000000000000000000006064820152fd5b604051906060820182811067ffffffffffffffff8211176109aa57604052565b507f4e487b7100000000000000000000000000000000000000000000000000000000600052601160045260246000fd5b81198111610b0a570190565b610b12610ace565b0190565b60025468010000000000000000811015610bd1575b6001810180600255811015610ba25773ffffffffffffffffffffffffffffffffffffffff9060026000527f405787fa12a823e0f2b7631cc41b3ba8828b3321ca811111fa75cd3aa3bb5ace0191167fffffffffffffffffffffffff0000000000000000000000000000000000000000825416179055565b7f4e487b7100000000000000000000000000000000000000000000000000000000600052603260045260246000fd5b610bd961095e565b610b2b565b818110610be9570390565b610bf1610ace565b0390565b9160405191602093848401927fa9059cbb00000000000000000000000000000000000000000000000000000000845273ffffffffffffffffffffffffffffffffffffffff8093166024860152604485015260448452610c538461098e565b169060405192610c62846109b7565b8484527f5361666545524332303a206c6f772d6c6576656c2063616c6c206661696c656485850152823b15610cd557610cae939260009283809351925af1610ca8610dd6565b90610e42565b80519081610cbb57505050565b82610cd393610cce938301019101610d33565b610d4b565b565b606485604051907f08c379a00000000000000000000000000000000000000000000000000000000082526004820152601d60248201527f416464726573733a2063616c6c20746f206e6f6e2d636f6e74726163740000006044820152fd5b9081602091031261000e5751801515810361000e5790565b15610d5257565b60846040517f08c379a000000000000000000000000000000000000000000000000000000000815260206004820152602a60248201527f5361666545524332303a204552433230206f7065726174696f6e20646964206e60448201527f6f742073756363656564000000000000000000000000000000000000000000006064820152fd5b3d15610e3d573d9067ffffffffffffffff8211610e30575b60405191610e2460207fffffffffffffffffffffffffffffffffffffffffffffffffffffffffffffffe0601f84011601846109d3565b82523d6000602084013e565b610e3861095e565b610dee565b606090565b90919015610e4e575090565b815115610e5e5750805190602001fd5b604051907f08c379a00000000000000000000000000000000000000000000000000000000082528160208060048301528251928360248401526000915b848310610ee8575050601f836044947fffffffffffffffffffffffffffffffffffffffffffffffffffffffffffffffe09311610edb575b01168101030190fd5b6000858286010152610ed2565b8183018101518684016044015285935091820191610e9b565b9073ffffffffffffffffffffffffffffffffffffffff610f4192166000526003602052610f3c60406000205460016040600020015490610afe565b610f44565b90565b907f000000000000000000000000000000000000000000000000000000000000000080821015610f7657505050600090565b610fa1907f000000000000000000000000000000000000000000000000000000000000000090610afe565b8111610ff35790610fb3600a92610ff7565b90807fffffffffffffffffffffffffffffffffffffffffffffffffffffffffffffffff04821181151516610fe657020490565b610fee610ace565b020490565b5090565b7f000000000000000000000000000000000000000000000000000000000000000080821015611027575050600090565b7f000000000000000000000000000000000000000000000000000000000000000091821561105457030490565b7f4e487b7100000000000000000000000000000000000000000000000000000000600052601260045260246000fdfea26469706673582212202cf418db0e230cbc47fab5f66381d1d6e5073e695c067a4b0a7cfaeef628393964736f6c634300080f0033",
  "devdoc": {
    "details": "This contract handles the vesting of WOM, a ERC20 token for a list of admin-settable beneficiaries. This contract will release the token to the beneficiary following a given vesting schedule. The vesting schedule is customizable through the {vestedAmount} function. WOM token transferred to this contract will follow the vesting schedule as if they were locked from the beginning. Consequently, if the vesting has already started, any amount of tokens sent to this contract will (at least partly) be immediately releasable.",
    "kind": "dev",
    "methods": {
      "beneficiaryBalance(address)": {
        "details": "Getter for the beneficiary allocation balance."
      },
      "beneficiaryCount()": {
        "details": "Getter for the number of beneficiaries."
      },
      "constructor": {
        "details": "Set the vested token address, start timestamp and vesting duration of the vesting period."
      },
      "duration()": {
        "details": "Getter for the vesting duration."
      },
      "owner()": {
        "details": "Returns the address of the current owner."
      },
      "release(address)": {
        "details": "Release the tokens that have already vested. Emits a {TokensReleased} event."
      },
      "released(address)": {
        "details": "Amount of token already released for a beneficiary"
      },
      "renounceOwnership()": {
        "details": "Leaves the contract without owner. It will not be possible to call `onlyOwner` functions anymore. Can only be called by the current owner. NOTE: Renouncing ownership will leave the contract without an owner, thereby removing any functionality that is only available to the owner."
      },
      "setBeneficiary(address,uint256)": {
        "details": "Setter for adding a beneficiary address."
      },
      "start()": {
        "details": "Getter for the start timestamp."
      },
      "totalAllocationBalance()": {
        "details": "Getter for the total allocation balance of vesting contract."
      },
      "totalUnderlyingBalance()": {
        "details": "Getter for the total WOM tokens allocated for vesting contract."
      },
      "transferOwnership(address)": {
        "details": "Transfers ownership of the contract to a new account (`newOwner`). Can only be called by the current owner."
      },
      "vestedAmount(address,uint256)": {
        "details": "Calculates the amount of WOM tokens that has already vested. Default implementation is a linear vesting curve."
      }
    },
    "title": "VestingWallet (extended for WOM Token Vesting), from OpenZeppelin Contracts v4.4.0 (finance/VestingWallet.sol)",
    "version": 1
  },
  "userdoc": {
    "kind": "user",
    "methods": {},
    "version": 1
  },
  "storageLayout": {
    "storage": [
      {
        "astId": 660,
        "contract": "contracts/wombat-peripheral/vesting/TokenVesting.sol:TokenVesting",
        "label": "_owner",
        "offset": 0,
        "slot": "0",
        "type": "t_address"
      },
      {
        "astId": 21713,
        "contract": "contracts/wombat-peripheral/vesting/TokenVesting.sol:TokenVesting",
        "label": "vestedToken",
        "offset": 0,
        "slot": "1",
        "type": "t_contract(IERC20)1420"
      },
      {
        "astId": 21716,
        "contract": "contracts/wombat-peripheral/vesting/TokenVesting.sol:TokenVesting",
        "label": "_beneficiaryAddresses",
        "offset": 0,
        "slot": "2",
        "type": "t_array(t_address)dyn_storage"
      },
      {
        "astId": 21721,
        "contract": "contracts/wombat-peripheral/vesting/TokenVesting.sol:TokenVesting",
        "label": "_beneficiaryInfo",
        "offset": 0,
        "slot": "3",
        "type": "t_mapping(t_address,t_struct(BeneficiaryInfo)21710_storage)"
      },
      {
        "astId": 21729,
        "contract": "contracts/wombat-peripheral/vesting/TokenVesting.sol:TokenVesting",
        "label": "_totalAllocationBalance",
        "offset": 0,
        "slot": "4",
        "type": "t_uint256"
      }
    ],
    "types": {
      "t_address": {
        "encoding": "inplace",
        "label": "address",
        "numberOfBytes": "20"
      },
      "t_array(t_address)dyn_storage": {
        "base": "t_address",
        "encoding": "dynamic_array",
        "label": "address[]",
        "numberOfBytes": "32"
      },
      "t_contract(IERC20)1420": {
        "encoding": "inplace",
        "label": "contract IERC20",
        "numberOfBytes": "20"
      },
      "t_mapping(t_address,t_struct(BeneficiaryInfo)21710_storage)": {
        "encoding": "mapping",
        "key": "t_address",
        "label": "mapping(address => struct TokenVesting.BeneficiaryInfo)",
        "numberOfBytes": "32",
        "value": "t_struct(BeneficiaryInfo)21710_storage"
      },
      "t_struct(BeneficiaryInfo)21710_storage": {
        "encoding": "inplace",
        "label": "struct TokenVesting.BeneficiaryInfo",
        "members": [
          {
            "astId": 21705,
            "contract": "contracts/wombat-peripheral/vesting/TokenVesting.sol:TokenVesting",
            "label": "_allocationBalance",
            "offset": 0,
            "slot": "0",
            "type": "t_uint256"
          },
          {
            "astId": 21707,
            "contract": "contracts/wombat-peripheral/vesting/TokenVesting.sol:TokenVesting",
            "label": "_allocationReleased",
            "offset": 0,
            "slot": "1",
            "type": "t_uint256"
          },
          {
            "astId": 21709,
            "contract": "contracts/wombat-peripheral/vesting/TokenVesting.sol:TokenVesting",
            "label": "_unlockIntervalsCount",
            "offset": 0,
            "slot": "2",
            "type": "t_uint256"
          }
        ],
        "numberOfBytes": "96"
      },
      "t_uint256": {
        "encoding": "inplace",
        "label": "uint256",
        "numberOfBytes": "32"
      }
    }
  }
}