{
  "address": "0xAD6742A35fB341A9Cc6ad674738Dd8da98b94Fb1",
  "abi": [
    {
      "inputs": [
        {
          "internalType": "address",
          "name": "_receipient",
          "type": "address"
        },
        {
          "internalType": "uint256",
          "name": "_totalSupply",
          "type": "uint256"
        }
      ],
      "stateMutability": "nonpayable",
      "type": "constructor"
    },
    {
      "anonymous": false,
      "inputs": [
        {
          "indexed": true,
          "internalType": "address",
          "name": "owner",
          "type": "address"
        },
        {
          "indexed": true,
          "internalType": "address",
          "name": "spender",
          "type": "address"
        },
        {
          "indexed": false,
          "internalType": "uint256",
          "name": "value",
          "type": "uint256"
        }
      ],
      "name": "Approval",
      "type": "event"
    },
    {
      "anonymous": false,
      "inputs": [
        {
          "indexed": true,
          "internalType": "address",
          "name": "from",
          "type": "address"
        },
        {
          "indexed": true,
          "internalType": "address",
          "name": "to",
          "type": "address"
        },
        {
          "indexed": false,
          "internalType": "uint256",
          "name": "value",
          "type": "uint256"
        }
      ],
      "name": "Transfer",
      "type": "event"
    },
    {
      "inputs": [],
      "name": "DOMAIN_SEPARATOR",
      "outputs": [
        {
          "internalType": "bytes32",
          "name": "",
          "type": "bytes32"
        }
      ],
      "stateMutability": "view",
      "type": "function"
    },
    {
      "inputs": [
        {
          "internalType": "address",
          "name": "owner",
          "type": "address"
        },
        {
          "internalType": "address",
          "name": "spender",
          "type": "address"
        }
      ],
      "name": "allowance",
      "outputs": [
        {
          "internalType": "uint256",
          "name": "",
          "type": "uint256"
        }
      ],
      "stateMutability": "view",
      "type": "function"
    },
    {
      "inputs": [
        {
          "internalType": "address",
          "name": "spender",
          "type": "address"
        },
        {
          "internalType": "uint256",
          "name": "amount",
          "type": "uint256"
        }
      ],
      "name": "approve",
      "outputs": [
        {
          "internalType": "bool",
          "name": "",
          "type": "bool"
        }
      ],
      "stateMutability": "nonpayable",
      "type": "function"
    },
    {
      "inputs": [
        {
          "internalType": "address",
          "name": "account",
          "type": "address"
        }
      ],
      "name": "balanceOf",
      "outputs": [
        {
          "internalType": "uint256",
          "name": "",
          "type": "uint256"
        }
      ],
      "stateMutability": "view",
      "type": "function"
    },
    {
      "inputs": [],
      "name": "decimals",
      "outputs": [
        {
          "internalType": "uint8",
          "name": "",
          "type": "uint8"
        }
      ],
      "stateMutability": "view",
      "type": "function"
    },
    {
      "inputs": [
        {
          "internalType": "address",
          "name": "spender",
          "type": "address"
        },
        {
          "internalType": "uint256",
          "name": "subtractedValue",
          "type": "uint256"
        }
      ],
      "name": "decreaseAllowance",
      "outputs": [
        {
          "internalType": "bool",
          "name": "",
          "type": "bool"
        }
      ],
      "stateMutability": "nonpayable",
      "type": "function"
    },
    {
      "inputs": [
        {
          "internalType": "address",
          "name": "spender",
          "type": "address"
        },
        {
          "internalType": "uint256",
          "name": "addedValue",
          "type": "uint256"
        }
      ],
      "name": "increaseAllowance",
      "outputs": [
        {
          "internalType": "bool",
          "name": "",
          "type": "bool"
        }
      ],
      "stateMutability": "nonpayable",
      "type": "function"
    },
    {
      "inputs": [],
      "name": "name",
      "outputs": [
        {
          "internalType": "string",
          "name": "",
          "type": "string"
        }
      ],
      "stateMutability": "view",
      "type": "function"
    },
    {
      "inputs": [
        {
          "internalType": "address",
          "name": "owner",
          "type": "address"
        }
      ],
      "name": "nonces",
      "outputs": [
        {
          "internalType": "uint256",
          "name": "",
          "type": "uint256"
        }
      ],
      "stateMutability": "view",
      "type": "function"
    },
    {
      "inputs": [
        {
          "internalType": "address",
          "name": "owner",
          "type": "address"
        },
        {
          "internalType": "address",
          "name": "spender",
          "type": "address"
        },
        {
          "internalType": "uint256",
          "name": "value",
          "type": "uint256"
        },
        {
          "internalType": "uint256",
          "name": "deadline",
          "type": "uint256"
        },
        {
          "internalType": "uint8",
          "name": "v",
          "type": "uint8"
        },
        {
          "internalType": "bytes32",
          "name": "r",
          "type": "bytes32"
        },
        {
          "internalType": "bytes32",
          "name": "s",
          "type": "bytes32"
        }
      ],
      "name": "permit",
      "outputs": [],
      "stateMutability": "nonpayable",
      "type": "function"
    },
    {
      "inputs": [],
      "name": "symbol",
      "outputs": [
        {
          "internalType": "string",
          "name": "",
          "type": "string"
        }
      ],
      "stateMutability": "view",
      "type": "function"
    },
    {
      "inputs": [],
      "name": "totalSupply",
      "outputs": [
        {
          "internalType": "uint256",
          "name": "",
          "type": "uint256"
        }
      ],
      "stateMutability": "view",
      "type": "function"
    },
    {
      "inputs": [
        {
          "internalType": "address",
          "name": "recipient",
          "type": "address"
        },
        {
          "internalType": "uint256",
          "name": "amount",
          "type": "uint256"
        }
      ],
      "name": "transfer",
      "outputs": [
        {
          "internalType": "bool",
          "name": "",
          "type": "bool"
        }
      ],
      "stateMutability": "nonpayable",
      "type": "function"
    },
    {
      "inputs": [
        {
          "internalType": "address",
          "name": "sender",
          "type": "address"
        },
        {
          "internalType": "address",
          "name": "recipient",
          "type": "address"
        },
        {
          "internalType": "uint256",
          "name": "amount",
          "type": "uint256"
        }
      ],
      "name": "transferFrom",
      "outputs": [
        {
          "internalType": "bool",
          "name": "",
          "type": "bool"
        }
      ],
      "stateMutability": "nonpayable",
      "type": "function"
    }
  ],
  "transactionHash": "0x91fd22c794bfcbbd1e366bd4536a3c2b64785a5ad76aeaf46cddc6b46edba784",
  "args": [
    "0xC37a89CdB064aC2921Fcc8B3538aC0d6a3AaDF48",
    "1000000000000000000000000000"
  ],
  "solcInputHash": "95cc67e632260861a0875c1a24e5f931",
  "bytecode": "0x610140346200052957601f1990601f9062001590906001600160401b0390388390038481018616820190838211838310176200041d5780839160409687948552833981010312620005295780516001600160a01b0381169290839003620005295760208092015190845162000074816200052e565b600c81526b2bb7b6b130ba102a37b5b2b760a11b8482018181528751916200009c836200052e565b600c835286830152875192620000b2846200052e565b60039a8b855262574f4d60e81b888601528951809c620000d2826200052e565b896001928381520195603160f81b87528051908982116200041d5782548481811c911680156200051e575b8d82101462000508578f90918282859411620004ae575b508d9183116001146200043f5760009262000433575b505060001982841b1c191690831b1781555b8651918883116200041d5760049788548281811c9116801562000412575b8d821014620003fd57908f91828111620003a8575b508c9185116001146200033e578495509084929160009562000332575b50501b92600019911b1c19161784555b519020985190208860c0528060e0524660a052865191858301917f8b73c3c69bb8fe3d512ecc4cf759cc79239f7b179b0ffacaa9a75d522b39400f9a8b84528985015260608401524660808401523060a084015260a0835260c0830193838510908511176200031d575082875281519020608052610100978852610120967f6e71edae12b1b97f4d1f60370fef10105fa2faae0126114a169c64845d6126c988528515620002dc57505050600091816200027a7fddf252ad1be2c89b69c2b068fc378daa952ba7f163c4a11628f55a4df523b3ef936002546200054a565b600255848452838252858420620002938282546200054a565b90558551908152a3519061102292836200056e843960805183610f23015260a05183610efd015260c05183610f72015260e05183610f9801525182610f4f015251816101930152f35b610104606493927f45524332303a206d696e7420746f20746865207a65726f206164647265737300928762461bcd60e51b865260c483015260e48201520152fd5b604190634e487b7160e01b6000525260246000fd5b0151935038806200018c565b848d94939681168b60005285600020956000905b898383106200038f575050501062000374575b50505050811b0184556200019c565b01519060f884600019921b161c191690553880808062000365565b8686015189559097019694850194889350018f62000352565b90918a6000528d8060002091600591818901831c8401908910620003f5575b86909594939291955b868501831c84018110620003e857505050506200016f565b60008155879101620003d0565b5082620003c7565b60228a634e487b7160e01b6000525260246000fd5b90607f16906200015a565b634e487b7160e01b600052604160045260246000fd5b0151905038806200012a565b908d91878795168660005283600020936000905b8282106200048c575050841162000473575b505050811b0181556200013c565b015160001983861b60f8161c1916905538808062000465565b91929395968291958786015181550195019301908f9188969594939262000453565b91909250846000528d8060002091600591818701831c840190871062000500575b91888796949295935b868501831c84018110620004f0575050505062000114565b600081558897508a9101620004d8565b5082620004cf565b634e487b7160e01b600052602260045260246000fd5b90607f1690620000fd565b600080fd5b604081019081106001600160401b038211176200041d57604052565b8119811162000557570190565b634e487b7160e01b600052601160045260246000fdfe608060408181526004918236101561001657600080fd5b600092833560e01c91826306fdde031461095957508163095ea7b31461092f57816318160ddd1461091057816323b872dd14610831578163313ce567146108155781633644e515146107f1578163395093511461079557816370a08231146107525781637ecebe001461070e57816395d89b41146105d4578163a457c2d714610506578163a9059cbb146104d5578163d505accf14610117575063dd62ed3e146100bf57600080fd5b34610113578060031936011261011357806020926100db610afb565b6100e3610b23565b73ffffffffffffffffffffffffffffffffffffffff91821683526001865283832091168252845220549051908152f35b5080fd5b8383346101135760e060031936011261011357610132610afb565b61013a610b23565b604435916064359560843560ff81168091036104d15760c43588421161048e5773ffffffffffffffffffffffffffffffffffffffff9081851692838a5260209a60058c52898b208054906001820190558a51918d8301917f00000000000000000000000000000000000000000000000000000000000000008352878d850152868b1660608501528b608085015260a084015260c083015260c0825260e082019167ffffffffffffffff9281811084821117610462578c525190208c93929190610201610efa565b908c51958601917f19010000000000000000000000000000000000000000000000000000000000008352602287015260428601526042855260808501918583109083111761043657818c5284519020937f7fffffffffffffffffffffffffffffff5d576e7357a4501ddfe92f46681b20a084116103cf575050601b811480156103c5575b1561035d578b928b926080928c519283528583015260a4358c830152606082015282805260015afa1561035357875116801561031157036102cf5750906102cc9291610db9565b51f35b6064908786519162461bcd60e51b8352820152601e60248201527f45524332305065726d69743a20696e76616c6964207369676e617475726500006044820152fd5b6064838a89519162461bcd60e51b8352820152601860248201527f45434453413a20696e76616c6964207369676e617475726500000000000000006044820152fd5b86513d89823e3d90fd5b6084868d8c519162461bcd60e51b8352820152602260248201527f45434453413a20696e76616c6964207369676e6174757265202776272076616c60448201527f75650000000000000000000000000000000000000000000000000000000000006064820152fd5b50601c8114610285565b6084925060e47f7565000000000000000000000000000000000000000000000000000000000000918f62461bcd60e51b855285820152602260a48201527f45434453413a20696e76616c6964207369676e6174757265202773272076616c60c48201520152fd5b60248d60418a7f4e487b7100000000000000000000000000000000000000000000000000000000835252fd5b60248e60418b7f4e487b7100000000000000000000000000000000000000000000000000000000835252fd5b606483602089519162461bcd60e51b8352820152601d60248201527f45524332305065726d69743a206578706972656420646561646c696e650000006044820152fd5b8680fd5b5050346101135780600319360112610113576020906104ff6104f5610afb565b6024359033610bf1565b5160018152f35b905082346105d157826003193601126105d157610521610afb565b918360243592338152600160205281812073ffffffffffffffffffffffffffffffffffffffff86168252602052205490828210610568576020856104ff8585038733610db9565b608490602086519162461bcd60e51b8352820152602560248201527f45524332303a2064656372656173656420616c6c6f77616e63652062656c6f7760448201527f207a65726f0000000000000000000000000000000000000000000000000000006064820152fd5b80fd5b838334610113578160031936011261011357805191809380549160019083821c92828516948515610704575b60209586861081146106d857858952908115610696575060011461063e575b61063a8787610630828c0383610b46565b5191829182610a85565b0390f35b81529295507f8a35acfbc15ff81a39ae7d344fd709f28e8600b4aa8c65c6b64bfe7fe36bd19b5b828410610683575050508261063a946106309282010194868061061f565b8054868501880152928601928101610665565b7fffffffffffffffffffffffffffffffffffffffffffffffffffffffffffffff00168887015250505050151560051b83010192506106308261063a868061061f565b6024846022857f4e487b7100000000000000000000000000000000000000000000000000000000835252fd5b93607f1693610600565b505034610113576020600319360112610113578060209273ffffffffffffffffffffffffffffffffffffffff610742610afb565b1681526005845220549051908152f35b505034610113576020600319360112610113578060209273ffffffffffffffffffffffffffffffffffffffff610786610afb565b16815280845220549051908152f35b5050346101135780600319360112610113576104ff6020926107ea6107b8610afb565b913381526001865284812073ffffffffffffffffffffffffffffffffffffffff84168252865284602435912054610bb6565b9033610db9565b50503461011357816003193601126101135760209061080e610efa565b9051908152f35b5050346101135781600319360112610113576020905160128152f35b905082346105d15760606003193601126105d15761084d610afb565b9183610857610b23565b92610866604435809587610bf1565b73ffffffffffffffffffffffffffffffffffffffff8516815260016020528181203382526020522054908282106108a7576020856104ff8585033388610db9565b608490602086519162461bcd60e51b8352820152602860248201527f45524332303a207472616e7366657220616d6f756e742065786365656473206160448201527f6c6c6f77616e63650000000000000000000000000000000000000000000000006064820152fd5b5050346101135781600319360112610113576020906002549051908152f35b5050346101135780600319360112610113576020906104ff61094f610afb565b6024359033610db9565b92915034610a815783600319360112610a8157600354600181811c9186908281168015610a77575b6020958686108214610a4b5750848852908115610a0b57506001146109b2575b61063a8686610630828b0383610b46565b929550600383527fc2575a0e9e593c00f959f8c92f12db2869c3395a3b0502d05e2516446f71f85b5b8284106109f8575050508261063a946106309282010194386109a1565b80548685018801529286019281016109db565b7fffffffffffffffffffffffffffffffffffffffffffffffffffffffffffffff001687860152505050151560051b83010192506106308261063a386109a1565b8360226024927f4e487b7100000000000000000000000000000000000000000000000000000000835252fd5b93607f1693610981565b8380fd5b919091602080825283519081818401526000945b828610610ae5575050601f817fffffffffffffffffffffffffffffffffffffffffffffffffffffffffffffffe0926040959611610ad8575b0116010190565b6000858286010152610ad1565b8581018201518487016040015294810194610a99565b6004359073ffffffffffffffffffffffffffffffffffffffff82168203610b1e57565b600080fd5b6024359073ffffffffffffffffffffffffffffffffffffffff82168203610b1e57565b90601f7fffffffffffffffffffffffffffffffffffffffffffffffffffffffffffffffe0910116810190811067ffffffffffffffff821117610b8757604052565b7f4e487b7100000000000000000000000000000000000000000000000000000000600052604160045260246000fd5b81198111610bc2570190565b7f4e487b7100000000000000000000000000000000000000000000000000000000600052601160045260246000fd5b73ffffffffffffffffffffffffffffffffffffffff809116918215610d4f5716918215610ce557600082815280602052604081205491808310610c7b57604082827fddf252ad1be2c89b69c2b068fc378daa952ba7f163c4a11628f55a4df523b3ef958760209652828652038282205586815220610c70828254610bb6565b9055604051908152a3565b608460405162461bcd60e51b815260206004820152602660248201527f45524332303a207472616e7366657220616d6f756e742065786365656473206260448201527f616c616e636500000000000000000000000000000000000000000000000000006064820152fd5b608460405162461bcd60e51b815260206004820152602360248201527f45524332303a207472616e7366657220746f20746865207a65726f206164647260448201527f65737300000000000000000000000000000000000000000000000000000000006064820152fd5b608460405162461bcd60e51b815260206004820152602560248201527f45524332303a207472616e736665722066726f6d20746865207a65726f20616460448201527f64726573730000000000000000000000000000000000000000000000000000006064820152fd5b73ffffffffffffffffffffffffffffffffffffffff809116918215610e915716918215610e275760207f8c5be1e5ebec7d5bd14f71427d1e84f3dd0314c0f7b2291e5b200ac8c7c3b925918360005260018252604060002085600052825280604060002055604051908152a3565b608460405162461bcd60e51b815260206004820152602260248201527f45524332303a20617070726f766520746f20746865207a65726f20616464726560448201527f73730000000000000000000000000000000000000000000000000000000000006064820152fd5b608460405162461bcd60e51b8152602060048201526024808201527f45524332303a20617070726f76652066726f6d20746865207a65726f2061646460448201527f72657373000000000000000000000000000000000000000000000000000000006064820152fd5b467f000000000000000000000000000000000000000000000000000000000000000003610f45577f000000000000000000000000000000000000000000000000000000000000000090565b60405160208101907f000000000000000000000000000000000000000000000000000000000000000082527f000000000000000000000000000000000000000000000000000000000000000060408201527f000000000000000000000000000000000000000000000000000000000000000060608201524660808201523060a082015260a0815260c0810181811067ffffffffffffffff821117610b87576040525190209056fea2646970667358221220700c51c9acbd1fbe2f855e28407966630053c76b7cf7ef79f23d66e6eb0d1a2464736f6c634300080f0033",
  "devdoc": {
    "kind": "dev",
    "methods": {
      "DOMAIN_SEPARATOR()": {
        "details": "See {IERC20Permit-DOMAIN_SEPARATOR}."
      },
      "allowance(address,address)": {
        "details": "See {IERC20-allowance}."
      },
      "approve(address,uint256)": {
        "details": "See {IERC20-approve}. Requirements: - `spender` cannot be the zero address."
      },
      "balanceOf(address)": {
        "details": "See {IERC20-balanceOf}."
      },
      "decimals()": {
        "details": "Returns the number of decimals used to get its user representation. For example, if `decimals` equals `2`, a balance of `505` tokens should be displayed to a user as `5,05` (`505 / 10 ** 2`). Tokens usually opt for a value of 18, imitating the relationship between Ether and Wei. This is the value {ERC20} uses, unless this function is overridden; NOTE: This information is only used for _display_ purposes: it in no way affects any of the arithmetic of the contract, including {IERC20-balanceOf} and {IERC20-transfer}."
      },
      "decreaseAllowance(address,uint256)": {
        "details": "Atomically decreases the allowance granted to `spender` by the caller. This is an alternative to {approve} that can be used as a mitigation for problems described in {IERC20-approve}. Emits an {Approval} event indicating the updated allowance. Requirements: - `spender` cannot be the zero address. - `spender` must have allowance for the caller of at least `subtractedValue`."
      },
      "increaseAllowance(address,uint256)": {
        "details": "Atomically increases the allowance granted to `spender` by the caller. This is an alternative to {approve} that can be used as a mitigation for problems described in {IERC20-approve}. Emits an {Approval} event indicating the updated allowance. Requirements: - `spender` cannot be the zero address."
      },
      "name()": {
        "details": "Returns the name of the token."
      },
      "nonces(address)": {
        "details": "See {IERC20Permit-nonces}."
      },
      "permit(address,address,uint256,uint256,uint8,bytes32,bytes32)": {
        "details": "See {IERC20Permit-permit}."
      },
      "symbol()": {
        "details": "Returns the symbol of the token, usually a shorter version of the name."
      },
      "totalSupply()": {
        "details": "See {IERC20-totalSupply}."
      },
      "transfer(address,uint256)": {
        "details": "See {IERC20-transfer}. Requirements: - `recipient` cannot be the zero address. - the caller must have a balance of at least `amount`."
      },
      "transferFrom(address,address,uint256)": {
        "details": "See {IERC20-transferFrom}. Emits an {Approval} event indicating the updated allowance. This is not required by the EIP. See the note at the beginning of {ERC20}. Requirements: - `sender` and `recipient` cannot be the zero address. - `sender` must have a balance of at least `amount`. - the caller must have allowance for ``sender``'s tokens of at least `amount`."
      }
    },
    "version": 1
  },
  "userdoc": {
    "kind": "user",
    "methods": {},
    "version": 1
  },
  "storageLayout": {
    "storage": [
      {
        "astId": 812,
        "contract": "contracts/wombat-peripheral/token/WombatERC20.sol:WombatERC20",
        "label": "_balances",
        "offset": 0,
        "slot": "0",
        "type": "t_mapping(t_address,t_uint256)"
      },
      {
        "astId": 818,
        "contract": "contracts/wombat-peripheral/token/WombatERC20.sol:WombatERC20",
        "label": "_allowances",
        "offset": 0,
        "slot": "1",
        "type": "t_mapping(t_address,t_mapping(t_address,t_uint256))"
      },
      {
        "astId": 820,
        "contract": "contracts/wombat-peripheral/token/WombatERC20.sol:WombatERC20",
        "label": "_totalSupply",
        "offset": 0,
        "slot": "2",
        "type": "t_uint256"
      },
      {
        "astId": 822,
        "contract": "contracts/wombat-peripheral/token/WombatERC20.sol:WombatERC20",
        "label": "_name",
        "offset": 0,
        "slot": "3",
        "type": "t_string_storage"
      },
      {
        "astId": 824,
        "contract": "contracts/wombat-peripheral/token/WombatERC20.sol:WombatERC20",
        "label": "_symbol",
        "offset": 0,
        "slot": "4",
        "type": "t_string_storage"
      },
      {
        "astId": 1468,
        "contract": "contracts/wombat-peripheral/token/WombatERC20.sol:WombatERC20",
        "label": "_nonces",
        "offset": 0,
        "slot": "5",
        "type": "t_mapping(t_address,t_struct(Counter)2313_storage)"
      }
    ],
    "types": {
      "t_address": {
        "encoding": "inplace",
        "label": "address",
        "numberOfBytes": "20"
      },
      "t_mapping(t_address,t_mapping(t_address,t_uint256))": {
        "encoding": "mapping",
        "key": "t_address",
        "label": "mapping(address => mapping(address => uint256))",
        "numberOfBytes": "32",
        "value": "t_mapping(t_address,t_uint256)"
      },
      "t_mapping(t_address,t_struct(Counter)2313_storage)": {
        "encoding": "mapping",
        "key": "t_address",
        "label": "mapping(address => struct Counters.Counter)",
        "numberOfBytes": "32",
        "value": "t_struct(Counter)2313_storage"
      },
      "t_mapping(t_address,t_uint256)": {
        "encoding": "mapping",
        "key": "t_address",
        "label": "mapping(address => uint256)",
        "numberOfBytes": "32",
        "value": "t_uint256"
      },
      "t_string_storage": {
        "encoding": "bytes",
        "label": "string",
        "numberOfBytes": "32"
      },
      "t_struct(Counter)2313_storage": {
        "encoding": "inplace",
        "label": "struct Counters.Counter",
        "members": [
          {
            "astId": 2312,
            "contract": "contracts/wombat-peripheral/token/WombatERC20.sol:WombatERC20",
            "label": "_value",
            "offset": 0,
            "slot": "0",
            "type": "t_uint256"
          }
        ],
        "numberOfBytes": "32"
      },
      "t_uint256": {
        "encoding": "inplace",
        "label": "uint256",
        "numberOfBytes": "32"
      }
    }
  }
}