{
  "address": "0x6ADB50FD76f3041AE8b40A80e8C8b94B67A7EBF5",
  "abi": [
    {
      "inputs": [],
      "name": "CORE_UNDERFLOW",
      "type": "error"
    },
    {
      "inputs": [],
      "name": "WOMBAT_AMOUNT_TOO_LOW",
      "type": "error"
    },
    {
      "inputs": [],
      "name": "WOMBAT_ASSET_ALREADY_EXIST",
      "type": "error"
    },
    {
      "inputs": [],
      "name": "WOMBAT_ASSET_ALREADY_PAUSED",
      "type": "error"
    },
    {
      "inputs": [],
      "name": "WOMBAT_ASSET_NOT_EXISTS",
      "type": "error"
    },
    {
      "inputs": [],
      "name": "WOMBAT_ASSET_NOT_PAUSED",
      "type": "error"
    },
    {
      "inputs": [],
      "name": "WOMBAT_CASH_NOT_ENOUGH",
      "type": "error"
    },
    {
      "inputs": [],
      "name": "WOMBAT_COV_RATIO_LIMIT_EXCEEDED",
      "type": "error"
    },
    {
      "inputs": [],
      "name": "WOMBAT_DIRECT_REVERSE_QUOTE_NOT_SUPPORTED",
      "type": "error"
    },
    {
      "inputs": [],
      "name": "WOMBAT_EXPIRED",
      "type": "error"
    },
    {
      "inputs": [],
      "name": "WOMBAT_FORBIDDEN",
      "type": "error"
    },
    {
      "inputs": [],
      "name": "WOMBAT_INVALID_VALUE",
      "type": "error"
    },
    {
      "inputs": [],
      "name": "WOMBAT_SAME_ADDRESS",
      "type": "error"
    },
    {
      "inputs": [],
      "name": "WOMBAT_ZERO_ADDRESS",
      "type": "error"
    },
    {
      "inputs": [],
      "name": "WOMBAT_ZERO_AMOUNT",
      "type": "error"
    },
    {
      "inputs": [],
      "name": "WOMBAT_ZERO_LIQUIDITY",
      "type": "error"
    },
    {
      "anonymous": false,
      "inputs": [
        {
          "indexed": true,
          "internalType": "address",
          "name": "token",
          "type": "address"
        },
        {
          "indexed": true,
          "internalType": "address",
          "name": "asset",
          "type": "address"
        }
      ],
      "name": "AssetAdded",
      "type": "event"
    },
    {
      "anonymous": false,
      "inputs": [
        {
          "indexed": true,
          "internalType": "address",
          "name": "token",
          "type": "address"
        },
        {
          "indexed": true,
          "internalType": "address",
          "name": "asset",
          "type": "address"
        }
      ],
      "name": "AssetRemoved",
      "type": "event"
    },
    {
      "anonymous": false,
      "inputs": [
        {
          "indexed": true,
          "internalType": "address",
          "name": "sender",
          "type": "address"
        },
        {
          "indexed": false,
          "internalType": "address",
          "name": "token",
          "type": "address"
        },
        {
          "indexed": false,
          "internalType": "uint256",
          "name": "amount",
          "type": "uint256"
        },
        {
          "indexed": false,
          "internalType": "uint256",
          "name": "liquidity",
          "type": "uint256"
        },
        {
          "indexed": true,
          "internalType": "address",
          "name": "to",
          "type": "address"
        }
      ],
      "name": "Deposit",
      "type": "event"
    },
    {
      "anonymous": false,
      "inputs": [
        {
          "indexed": false,
          "internalType": "address",
          "name": "token",
          "type": "address"
        },
        {
          "indexed": false,
          "internalType": "uint256",
          "name": "amount",
          "type": "uint256"
        }
      ],
      "name": "FillPool",
      "type": "event"
    },
    {
      "anonymous": false,
      "inputs": [
        {
          "indexed": true,
          "internalType": "address",
          "name": "previousOwner",
          "type": "address"
        },
        {
          "indexed": true,
          "internalType": "address",
          "name": "newOwner",
          "type": "address"
        }
      ],
      "name": "OwnershipTransferred",
      "type": "event"
    },
    {
      "anonymous": false,
      "inputs": [
        {
          "indexed": false,
          "internalType": "address",
          "name": "account",
          "type": "address"
        }
      ],
      "name": "Paused",
      "type": "event"
    },
    {
      "anonymous": false,
      "inputs": [
        {
          "indexed": false,
          "internalType": "address",
          "name": "asset",
          "type": "address"
        },
        {
          "indexed": false,
          "internalType": "address",
          "name": "account",
          "type": "address"
        }
      ],
      "name": "PausedAsset",
      "type": "event"
    },
    {
      "anonymous": false,
      "inputs": [
        {
          "indexed": false,
          "internalType": "uint256",
          "name": "value",
          "type": "uint256"
        }
      ],
      "name": "SetAmpFactor",
      "type": "event"
    },
    {
      "anonymous": false,
      "inputs": [
        {
          "indexed": false,
          "internalType": "address",
          "name": "addr",
          "type": "address"
        }
      ],
      "name": "SetDev",
      "type": "event"
    },
    {
      "anonymous": false,
      "inputs": [
        {
          "indexed": false,
          "internalType": "uint256",
          "name": "lpDividendRatio",
          "type": "uint256"
        },
        {
          "indexed": false,
          "internalType": "uint256",
          "name": "retentionRatio",
          "type": "uint256"
        }
      ],
      "name": "SetFee",
      "type": "event"
    },
    {
      "anonymous": false,
      "inputs": [
        {
          "indexed": false,
          "internalType": "address",
          "name": "addr",
          "type": "address"
        }
      ],
      "name": "SetFeeTo",
      "type": "event"
    },
    {
      "anonymous": false,
      "inputs": [
        {
          "indexed": false,
          "internalType": "uint256",
          "name": "value",
          "type": "uint256"
        }
      ],
      "name": "SetHaircutRate",
      "type": "event"
    },
    {
      "anonymous": false,
      "inputs": [
        {
          "indexed": false,
          "internalType": "address",
          "name": "addr",
          "type": "address"
        }
      ],
      "name": "SetMasterWombat",
      "type": "event"
    },
    {
      "anonymous": false,
      "inputs": [
        {
          "indexed": false,
          "internalType": "uint256",
          "name": "value",
          "type": "uint256"
        }
      ],
      "name": "SetMintFeeThreshold",
      "type": "event"
    },
    {
      "anonymous": false,
      "inputs": [
        {
          "indexed": true,
          "internalType": "address",
          "name": "sender",
          "type": "address"
        },
        {
          "indexed": false,
          "internalType": "address",
          "name": "fromToken",
          "type": "address"
        },
        {
          "indexed": false,
          "internalType": "address",
          "name": "toToken",
          "type": "address"
        },
        {
          "indexed": false,
          "internalType": "uint256",
          "name": "fromAmount",
          "type": "uint256"
        },
        {
          "indexed": false,
          "internalType": "uint256",
          "name": "toAmount",
          "type": "uint256"
        },
        {
          "indexed": true,
          "internalType": "address",
          "name": "to",
          "type": "address"
        }
      ],
      "name": "Swap",
      "type": "event"
    },
    {
      "anonymous": false,
      "inputs": [
        {
          "indexed": false,
          "internalType": "address",
          "name": "token",
          "type": "address"
        },
        {
          "indexed": false,
          "internalType": "uint256",
          "name": "amount",
          "type": "uint256"
        },
        {
          "indexed": false,
          "internalType": "address",
          "name": "to",
          "type": "address"
        }
      ],
      "name": "TransferTipBucket",
      "type": "event"
    },
    {
      "anonymous": false,
      "inputs": [
        {
          "indexed": false,
          "internalType": "address",
          "name": "account",
          "type": "address"
        }
      ],
      "name": "Unpaused",
      "type": "event"
    },
    {
      "anonymous": false,
      "inputs": [
        {
          "indexed": false,
          "internalType": "address",
          "name": "asset",
          "type": "address"
        },
        {
          "indexed": false,
          "internalType": "address",
          "name": "account",
          "type": "address"
        }
      ],
      "name": "UnpausedAsset",
      "type": "event"
    },
    {
      "anonymous": false,
      "inputs": [
        {
          "indexed": true,
          "internalType": "address",
          "name": "sender",
          "type": "address"
        },
        {
          "indexed": false,
          "internalType": "address",
          "name": "token",
          "type": "address"
        },
        {
          "indexed": false,
          "internalType": "uint256",
          "name": "amount",
          "type": "uint256"
        },
        {
          "indexed": false,
          "internalType": "uint256",
          "name": "liquidity",
          "type": "uint256"
        },
        {
          "indexed": true,
          "internalType": "address",
          "name": "to",
          "type": "address"
        }
      ],
      "name": "Withdraw",
      "type": "event"
    },
    {
      "inputs": [
        {
          "internalType": "address",
          "name": "token",
          "type": "address"
        },
        {
          "internalType": "address",
          "name": "asset",
          "type": "address"
        }
      ],
      "name": "addAsset",
      "outputs": [],
      "stateMutability": "nonpayable",
      "type": "function"
    },
    {
      "inputs": [
        {
          "internalType": "address",
          "name": "token",
          "type": "address"
        }
      ],
      "name": "addressOfAsset",
      "outputs": [
        {
          "internalType": "address",
          "name": "",
          "type": "address"
        }
      ],
      "stateMutability": "view",
      "type": "function"
    },
    {
      "inputs": [],
      "name": "ampFactor",
      "outputs": [
        {
          "internalType": "uint256",
          "name": "",
          "type": "uint256"
        }
      ],
      "stateMutability": "view",
      "type": "function"
    },
    {
      "inputs": [
        {
          "internalType": "address",
          "name": "token",
          "type": "address"
        },
        {
          "internalType": "uint256",
          "name": "amount",
          "type": "uint256"
        },
        {
          "internalType": "uint256",
          "name": "minimumLiquidity",
          "type": "uint256"
        },
        {
          "internalType": "address",
          "name": "to",
          "type": "address"
        },
        {
          "internalType": "uint256",
          "name": "deadline",
          "type": "uint256"
        },
        {
          "internalType": "bool",
          "name": "shouldStake",
          "type": "bool"
        }
      ],
      "name": "deposit",
      "outputs": [
        {
          "internalType": "uint256",
          "name": "liquidity",
          "type": "uint256"
        }
      ],
      "stateMutability": "nonpayable",
      "type": "function"
    },
    {
      "inputs": [],
      "name": "dev",
      "outputs": [
        {
          "internalType": "address",
          "name": "",
          "type": "address"
        }
      ],
      "stateMutability": "view",
      "type": "function"
    },
    {
      "inputs": [
        {
          "internalType": "address",
          "name": "token",
          "type": "address"
        }
      ],
      "name": "exchangeRate",
      "outputs": [
        {
          "internalType": "uint256",
          "name": "xr",
          "type": "uint256"
        }
      ],
      "stateMutability": "view",
      "type": "function"
    },
    {
      "inputs": [],
      "name": "feeTo",
      "outputs": [
        {
          "internalType": "address",
          "name": "",
          "type": "address"
        }
      ],
      "stateMutability": "view",
      "type": "function"
    },
    {
      "inputs": [
        {
          "internalType": "address",
          "name": "token",
          "type": "address"
        },
        {
          "internalType": "uint256",
          "name": "amount",
          "type": "uint256"
        }
      ],
      "name": "fillPool",
      "outputs": [],
      "stateMutability": "nonpayable",
      "type": "function"
    },
    {
      "inputs": [],
      "name": "getTokens",
      "outputs": [
        {
          "internalType": "address[]",
          "name": "",
          "type": "address[]"
        }
      ],
      "stateMutability": "view",
      "type": "function"
    },
    {
      "inputs": [],
      "name": "globalEquilCovRatio",
      "outputs": [
        {
          "internalType": "uint256",
          "name": "equilCovRatio",
          "type": "uint256"
        },
        {
          "internalType": "uint256",
          "name": "invariantInUint",
          "type": "uint256"
        }
      ],
      "stateMutability": "view",
      "type": "function"
    },
    {
      "inputs": [],
      "name": "haircutRate",
      "outputs": [
        {
          "internalType": "uint256",
          "name": "",
          "type": "uint256"
        }
      ],
      "stateMutability": "view",
      "type": "function"
    },
    {
      "inputs": [
        {
          "internalType": "uint256",
          "name": "ampFactor_",
          "type": "uint256"
        },
        {
          "internalType": "uint256",
          "name": "haircutRate_",
          "type": "uint256"
        }
      ],
      "name": "initialize",
      "outputs": [],
      "stateMutability": "nonpayable",
      "type": "function"
    },
    {
      "inputs": [],
      "name": "lpDividendRatio",
      "outputs": [
        {
          "internalType": "uint256",
          "name": "",
          "type": "uint256"
        }
      ],
      "stateMutability": "view",
      "type": "function"
    },
    {
      "inputs": [],
      "name": "masterWombat",
      "outputs": [
        {
          "internalType": "address",
          "name": "",
          "type": "address"
        }
      ],
      "stateMutability": "view",
      "type": "function"
    },
    {
      "inputs": [
        {
          "internalType": "address",
          "name": "token",
          "type": "address"
        }
      ],
      "name": "mintFee",
      "outputs": [],
      "stateMutability": "nonpayable",
      "type": "function"
    },
    {
      "inputs": [],
      "name": "mintFeeThreshold",
      "outputs": [
        {
          "internalType": "uint256",
          "name": "",
          "type": "uint256"
        }
      ],
      "stateMutability": "view",
      "type": "function"
    },
    {
      "inputs": [],
      "name": "owner",
      "outputs": [
        {
          "internalType": "address",
          "name": "",
          "type": "address"
        }
      ],
      "stateMutability": "view",
      "type": "function"
    },
    {
      "inputs": [],
      "name": "pause",
      "outputs": [],
      "stateMutability": "nonpayable",
      "type": "function"
    },
    {
      "inputs": [
        {
          "internalType": "address",
          "name": "token",
          "type": "address"
        }
      ],
      "name": "pauseAsset",
      "outputs": [],
      "stateMutability": "nonpayable",
      "type": "function"
    },
    {
      "inputs": [],
      "name": "paused",
      "outputs": [
        {
          "internalType": "bool",
          "name": "",
          "type": "bool"
        }
      ],
      "stateMutability": "view",
      "type": "function"
    },
    {
      "inputs": [
        {
          "internalType": "address",
          "name": "fromToken",
          "type": "address"
        },
        {
          "internalType": "address",
          "name": "toToken",
          "type": "address"
        },
        {
          "internalType": "int256",
          "name": "toAmount",
          "type": "int256"
        }
      ],
      "name": "quoteAmountIn",
      "outputs": [
        {
          "internalType": "uint256",
          "name": "amountIn",
          "type": "uint256"
        },
        {
          "internalType": "uint256",
          "name": "haircut",
          "type": "uint256"
        }
      ],
      "stateMutability": "view",
      "type": "function"
    },
    {
      "inputs": [
        {
          "internalType": "address",
          "name": "token",
          "type": "address"
        },
        {
          "internalType": "uint256",
          "name": "amount",
          "type": "uint256"
        }
      ],
      "name": "quotePotentialDeposit",
      "outputs": [
        {
          "internalType": "uint256",
          "name": "liquidity",
          "type": "uint256"
        },
        {
          "internalType": "uint256",
          "name": "reward",
          "type": "uint256"
        }
      ],
      "stateMutability": "view",
      "type": "function"
    },
    {
      "inputs": [
        {
          "internalType": "address",
          "name": "fromToken",
          "type": "address"
        },
        {
          "internalType": "address",
          "name": "toToken",
          "type": "address"
        },
        {
          "internalType": "int256",
          "name": "fromAmount",
          "type": "int256"
        }
      ],
      "name": "quotePotentialSwap",
      "outputs": [
        {
          "internalType": "uint256",
          "name": "potentialOutcome",
          "type": "uint256"
        },
        {
          "internalType": "uint256",
          "name": "haircut",
          "type": "uint256"
        }
      ],
      "stateMutability": "view",
      "type": "function"
    },
    {
      "inputs": [
        {
          "internalType": "address",
          "name": "token",
          "type": "address"
        },
        {
          "internalType": "uint256",
          "name": "liquidity",
          "type": "uint256"
        }
      ],
      "name": "quotePotentialWithdraw",
      "outputs": [
        {
          "internalType": "uint256",
          "name": "amount",
          "type": "uint256"
        },
        {
          "internalType": "uint256",
          "name": "fee",
          "type": "uint256"
        }
      ],
      "stateMutability": "view",
      "type": "function"
    },
    {
      "inputs": [
        {
          "internalType": "address",
          "name": "fromToken",
          "type": "address"
        },
        {
          "internalType": "address",
          "name": "toToken",
          "type": "address"
        },
        {
          "internalType": "uint256",
          "name": "liquidity",
          "type": "uint256"
        }
      ],
      "name": "quotePotentialWithdrawFromOtherAsset",
      "outputs": [
        {
          "internalType": "uint256",
          "name": "amount",
          "type": "uint256"
        },
        {
          "internalType": "uint256",
          "name": "withdrewAmount",
          "type": "uint256"
        }
      ],
      "stateMutability": "view",
      "type": "function"
    },
    {
      "inputs": [
        {
          "internalType": "address",
          "name": "token",
          "type": "address"
        }
      ],
      "name": "removeAsset",
      "outputs": [],
      "stateMutability": "nonpayable",
      "type": "function"
    },
    {
      "inputs": [],
      "name": "renounceOwnership",
      "outputs": [],
      "stateMutability": "nonpayable",
      "type": "function"
    },
    {
      "inputs": [],
      "name": "retentionRatio",
      "outputs": [
        {
          "internalType": "uint256",
          "name": "",
          "type": "uint256"
        }
      ],
      "stateMutability": "view",
      "type": "function"
    },
    {
      "inputs": [
        {
          "internalType": "uint256",
          "name": "ampFactor_",
          "type": "uint256"
        }
      ],
      "name": "setAmpFactor",
      "outputs": [],
      "stateMutability": "nonpayable",
      "type": "function"
    },
    {
      "inputs": [
        {
          "internalType": "uint128",
          "name": "startCovRatio_",
          "type": "uint128"
        },
        {
          "internalType": "uint128",
          "name": "endCovRatio_",
          "type": "uint128"
        }
      ],
      "name": "setCovRatioFeeParam",
      "outputs": [],
      "stateMutability": "nonpayable",
      "type": "function"
    },
    {
      "inputs": [
        {
          "internalType": "address",
          "name": "dev_",
          "type": "address"
        }
      ],
      "name": "setDev",
      "outputs": [],
      "stateMutability": "nonpayable",
      "type": "function"
    },
    {
      "inputs": [
        {
          "internalType": "uint256",
          "name": "lpDividendRatio_",
          "type": "uint256"
        },
        {
          "internalType": "uint256",
          "name": "retentionRatio_",
          "type": "uint256"
        }
      ],
      "name": "setFee",
      "outputs": [],
      "stateMutability": "nonpayable",
      "type": "function"
    },
    {
      "inputs": [
        {
          "internalType": "address",
          "name": "feeTo_",
          "type": "address"
        }
      ],
      "name": "setFeeTo",
      "outputs": [],
      "stateMutability": "nonpayable",
      "type": "function"
    },
    {
      "inputs": [
        {
          "internalType": "uint256",
          "name": "haircutRate_",
          "type": "uint256"
        }
      ],
      "name": "setHaircutRate",
      "outputs": [],
      "stateMutability": "nonpayable",
      "type": "function"
    },
    {
      "inputs": [
        {
          "internalType": "address",
          "name": "masterWombat_",
          "type": "address"
        }
      ],
      "name": "setMasterWombat",
      "outputs": [],
      "stateMutability": "nonpayable",
      "type": "function"
    },
    {
      "inputs": [
        {
          "internalType": "uint256",
          "name": "mintFeeThreshold_",
          "type": "uint256"
        }
      ],
      "name": "setMintFeeThreshold",
      "outputs": [],
      "stateMutability": "nonpayable",
      "type": "function"
    },
    {
      "inputs": [
        {
          "internalType": "address",
          "name": "fromToken",
          "type": "address"
        },
        {
          "internalType": "address",
          "name": "toToken",
          "type": "address"
        },
        {
          "internalType": "uint256",
          "name": "fromAmount",
          "type": "uint256"
        },
        {
          "internalType": "uint256",
          "name": "minimumToAmount",
          "type": "uint256"
        },
        {
          "internalType": "address",
          "name": "to",
          "type": "address"
        },
        {
          "internalType": "uint256",
          "name": "deadline",
          "type": "uint256"
        }
      ],
      "name": "swap",
      "outputs": [
        {
          "internalType": "uint256",
          "name": "actualToAmount",
          "type": "uint256"
        },
        {
          "internalType": "uint256",
          "name": "haircut",
          "type": "uint256"
        }
      ],
      "stateMutability": "nonpayable",
      "type": "function"
    },
    {
      "inputs": [
        {
          "internalType": "address",
          "name": "token",
          "type": "address"
        }
      ],
      "name": "tipBucketBalance",
      "outputs": [
        {
          "internalType": "uint256",
          "name": "balance",
          "type": "uint256"
        }
      ],
      "stateMutability": "view",
      "type": "function"
    },
    {
      "inputs": [
        {
          "internalType": "address",
          "name": "newOwner",
          "type": "address"
        }
      ],
      "name": "transferOwnership",
      "outputs": [],
      "stateMutability": "nonpayable",
      "type": "function"
    },
    {
      "inputs": [
        {
          "internalType": "address",
          "name": "token",
          "type": "address"
        },
        {
          "internalType": "uint256",
          "name": "amount",
          "type": "uint256"
        },
        {
          "internalType": "address",
          "name": "to",
          "type": "address"
        }
      ],
      "name": "transferTipBucket",
      "outputs": [],
      "stateMutability": "nonpayable",
      "type": "function"
    },
    {
      "inputs": [],
      "name": "unpause",
      "outputs": [],
      "stateMutability": "nonpayable",
      "type": "function"
    },
    {
      "inputs": [
        {
          "internalType": "address",
          "name": "token",
          "type": "address"
        }
      ],
      "name": "unpauseAsset",
      "outputs": [],
      "stateMutability": "nonpayable",
      "type": "function"
    },
    {
      "inputs": [
        {
          "internalType": "address",
          "name": "token",
          "type": "address"
        },
        {
          "internalType": "uint256",
          "name": "liquidity",
          "type": "uint256"
        },
        {
          "internalType": "uint256",
          "name": "minimumAmount",
          "type": "uint256"
        },
        {
          "internalType": "address",
          "name": "to",
          "type": "address"
        },
        {
          "internalType": "uint256",
          "name": "deadline",
          "type": "uint256"
        }
      ],
      "name": "withdraw",
      "outputs": [
        {
          "internalType": "uint256",
          "name": "amount",
          "type": "uint256"
        }
      ],
      "stateMutability": "nonpayable",
      "type": "function"
    },
    {
      "inputs": [
        {
          "internalType": "address",
          "name": "fromToken",
          "type": "address"
        },
        {
          "internalType": "address",
          "name": "toToken",
          "type": "address"
        },
        {
          "internalType": "uint256",
          "name": "liquidity",
          "type": "uint256"
        },
        {
          "internalType": "uint256",
          "name": "minimumAmount",
          "type": "uint256"
        },
        {
          "internalType": "address",
          "name": "to",
          "type": "address"
        },
        {
          "internalType": "uint256",
          "name": "deadline",
          "type": "uint256"
        }
      ],
      "name": "withdrawFromOtherAsset",
      "outputs": [
        {
          "internalType": "uint256",
          "name": "toAmount",
          "type": "uint256"
        }
      ],
      "stateMutability": "nonpayable",
      "type": "function"
    }
  ],
  "transactionHash": "0xcddb8e999febf17521b9da67bfc265e34e3453d692005489b96939c83de7fe55",
  "args": [],
  "solcInputHash": "4f653bf95237391f7627989167db6d6f",
  "bytecode": "0x6080806040523461001757615e4a90816200001d8239f35b600080fdfe60806040526004361015610013575b600080fd5b60003560e01c8063017b829214610383578063017e7e581461037a5780630705999d14610371578063070f81d91461036857806309a5fca31461035f5780630f91f06f146103565780633753b14a1461034d5780633bd61ba8146103445780633f4ba83a1461033b5780634a5e42b1146103325780634a6fee0e146103295780634fdd64e51461032057806352f7c988146103175780635c975abb1461030e5780635cfe092e1461030557806361858e23146102fc5780636281baef146102f35780636922d5ca146102ea578063715018a6146102e1578063815bfd29146102d85780638456cb59146102cf5780638a2dfe09146102c65780638da5cb5b146102bd578063907448ed146102b457806391cca3db146102ab57806393aeea02146102a25780639908fc8b146102995780639abacb41146102905780639e4416b714610287578063a4275ceb1461027e578063aa6ca80814610275578063d043c5651461026c578063d0dd0e5614610263578063d30ffeda1461025a578063d477f05f14610251578063da48999714610248578063dc3b7c8b1461023f578063e4a3011614610236578063e9249cc71461022d578063f2fde38b14610224578063f46901ed1461021b578063f57e84d514610212578063f8b49e72146102095763fca8f3081461020157600080fd5b61000e6129e5565b5061000e6129c5565b5061000e61295a565b5061000e6128c8565b5061000e612803565b5061000e6127d3565b5061000e612615565b5061000e6125f1565b5061000e6124ab565b5061000e612419565b5061000e6123f5565b5061000e6123d6565b5061000e61237b565b5061000e6122b3565b5061000e61201a565b5061000e611faf565b5061000e611ed2565b5061000e611c74565b5061000e611af2565b5061000e611aca565b5061000e611a33565b5061000e611a0b565b5061000e611853565b5061000e6117da565b5061000e6117bb565b5061000e61173c565b5061000e61171d565b5061000e611305565b5061000e611256565b5061000e611237565b5061000e611213565b5061000e611135565b5061000e61110b565b5061000e610ff9565b5061000e610dbe565b5061000e610ce9565b5061000e610cc1565b5061000e610c1b565b5061000e6109d5565b5061000e610793565b5061000e6104c8565b5061000e610436565b5061000e6103b6565b5061000e610397565b600091031261000e57565b503461000e57600060031936011261000e57602060ca54604051908152f35b503461000e57600060031936011261000e5760206001600160a01b0360d05416604051908152f35b600435906001600160a01b038216820361000e57565b606435906001600160a01b038216820361000e57565b604435906001600160a01b038216820361000e57565b602435906001600160a01b038216820361000e57565b503461000e57602060031936011261000e577ffeb9010869b6ccec4557ddbbce947afeace5efc66cdff52c5e533c09336a8f2d60206104736103de565b6001600160a01b039061048b82603354163314612a02565b61049481613228565b16807fffffffffffffffffffffffff000000000000000000000000000000000000000060d154161760d155604051908152a1005b503461000e5760408060031936011261000e576104e36103de565b906024356104ef6131a0565b6104f883613416565b906105f56001600160a01b038316926105ee6105d486517f99c91a640000000000000000000000000000000000000000000000000000000081526effffffffffffffffffffffffffffff61058d6004838a818360209788935afa908115610786575b600091610759575b50848b8d51938480926339420b4560e11b82525afa91821561074c575b60009261071d575b506137c6565b9189517f961be39100000000000000000000000000000000000000000000000000000000815281816004818d5afa918215610710575b6000926106e3575b50501690612c33565b916001600160a01b031660005260d2602052604060002090565b5490612c33565b81116106ba57813b1561000e576000937f4941e18a2bcbb0f9fa0081238f26793a8ad8c202b913ae8bf5f7e523f68ff1379285855180927f16c9e7a000000000000000000000000000000000000000000000000000000000825281838161066489600483019190602083019252565b03925af180156106ad575b610694575b5083516001600160a01b039190911681526020810191909152604090a151f35b806106a16106a792612af9565b8061038c565b38610674565b6106b5612bba565b61066f565b600483517f12b019e1000000000000000000000000000000000000000000000000000000008152fd5b6107029250803d10610709575b6106fa8183612b52565b810190612b93565b38806105cb565b503d6106f0565b610718612bba565b6105c3565b61073e919250853d8711610745575b6107368183612b52565b810190612c78565b9038610587565b503d61072c565b610754612bba565b61057f565b6107799150853d871161077f575b6107718183612b52565b810190613470565b38610562565b503d610767565b61078e612bba565b61055a565b503461000e5760a060031936011261000e576107ad6103de565b602435906107b96103f4565b916107c9600260655414156130d6565b60026065556107dd60ff609754161561313b565b6107e681612f52565b6107ef83613228565b6107fa6084356137fc565b61080382613416565b916001600160a01b0392610864848216916108208584338161347f565b604051906339420b4560e11b8252602082600481875afa91821561097f575b60009261095b575b5061085f9086610859846044356137c6565b91614667565b612def565b93813b1561000e576040517f9e79eaa50000000000000000000000000000000000000000000000000000000081526001600160a01b038716600482015260248101869052610937967ffb80d861da582b723be2d19507ce3e03851820c464abea89156ec77e089b1ad9939091906000908290604490829084905af1801561094e575b61093b575b5061091a6040519283921695873396846040919493926001600160a01b03606083019616825260208201520152565b0390a36109276001606555565b6040519081529081906020820190565b0390f35b806106a161094892612af9565b386108eb565b610956612bba565b6108e6565b61085f9192506109789060203d8111610745576107368183612b52565b9190610847565b610987612bba565b61083f565b60031960c091011261000e576001600160a01b03600435818116810361000e5791602435828116810361000e57916044359160643591608435908116810361000e579060a43590565b503461000e576109e43661098c565b6065959194929554600214156109f9906130d6565b600260655560975460ff1615610a0e9061313b565b610a1785613228565b610a2084612f52565b610a2a8383612f83565b610a33906137fc565b610a3c816131de565b610a4590613416565b610a4e82613416565b946001600160a01b0390610a6685848416338161347f565b610a708584614345565b82881693604051906339420b4560e11b9283835260209a8b80858a815a91600492fa610adf97610aba96610ab4938315610c0e575b600093610bef575b50506137c6565b92614d5b565b506040519182528882600481885afa918215610be2575b600092610bc3575b50612def565b94823b1561000e576040517f9e79eaa50000000000000000000000000000000000000000000000000000000081526001600160a01b0382166004820152602481018790527ffb80d861da582b723be2d19507ce3e03851820c464abea89156ec77e089b1ad9936000908290604490829084905af18015610bb6575b610ba3575b50610b8e6040519283921695873396846040919493926001600160a01b03606083019616825260208201520152565b0390a3610b9b6001606555565b604051908152f35b806106a1610bb092612af9565b38610b5f565b610bbe612bba565b610b5a565b610bdb919250893d8b11610745576107368183612b52565b9038610ad9565b610bea612bba565b610ad1565b610c06929350803d10610745576107368183612b52565b90388f610aad565b610c16612bba565b610aa5565b503461000e57602060031936011261000e577fdcb65c0553aaa433aadd180404ff195259c48f78aa50f877ebcb4bb215129a4e610cb7610c596103de565b610c68600260655414156130d6565b6002606555610c756131a0565b610c7e816131de565b6001600160a01b0316600081815260c96020908152604091829020805460ff191660011790558151928352339083015290918291820190565b0390a16001606555005b503461000e57600060031936011261000e5760206001600160a01b0360d15416604051908152f35b503461000e57600060031936011261000e57610d0a600260655414156130d6565b6002606555610d176131a0565b60975460ff811615610d605760ff19166097557f5db9ee0a495bf2e6ff9c91a7834c1ba4fdd244a5e8aa4e537bd38aeae4b073aa6020604051338152a1610d5e6001606555565b005b60646040517f08c379a000000000000000000000000000000000000000000000000000000000815260206004820152601460248201527f5061757361626c653a206e6f74207061757365640000000000000000000000006044820152fd5b503461000e57602060031936011261000e57610dd86103de565b6001600160a01b03610def81603354163314612a02565b610e19610e15836001600160a01b0380911660005260d460205260406000205416151590565b1590565b610f915781610e5c610e50610e436000956001600160a01b031660005260d4602052604060002090565b546001600160a01b031690565b6001600160a01b031690565b91610ea5610e7d836001600160a01b031660005260d4602052604060002090565b7fffffffffffffffffffffffff00000000000000000000000000000000000000008154169055565b610f5b610ec5836001600160a01b031660005260d5602052604060002090565b54610f36610ef2610edf610eda60d354612bf7565b613292565b90546001600160a01b039160031b1c1690565b9180610f11846001600160a01b031660005260d5602052604060002090565b5587610f30876001600160a01b031660005260d5602052604060002090565b55613292565b90919082549060031b916001600160a01b039283811b93849216901b16911916179055565b610f63613370565b80604051931691167f0fa1e4606af435f32f05b3804033d2933e691fab32ee74d2db6fa82d2741f1ea8484a3f35b60046040517fecb004d4000000000000000000000000000000000000000000000000000000008152fd5b600435906fffffffffffffffffffffffffffffffff8216820361000e57565b602435906fffffffffffffffffffffffffffffffff8216820361000e57565b503461000e57604060031936011261000e57611013610fbb565b61101b610fda565b6110316001600160a01b03603354163314612a02565b6fffffffffffffffffffffffffffffffff80921691670de0b6b3a764000083109081156110ca575b506110a0576fffffffffffffffffffffffffffffffff90911660809190911b7fffffffffffffffffffffffffffffffff00000000000000000000000000000000161760d655005b60046040517f12b019e1000000000000000000000000000000000000000000000000000000008152fd5b90508116821138611059565b600319606091011261000e576001600160a01b0390600435828116810361000e5791602435908116810361000e579060443590565b503461000e5761112361111d366110d6565b9161577f565b60408051928352602083019190915290f35b503461000e57604060031936011261000e576004356024356111636001600160a01b03603354163314612a02565b670de0b6b3a76400006111768383612c6c565b116110a05760005b60d3548110156111c757806111bd6111b861119b6111c294615b5a565b6001600160a01b0380911660005260d46020526040600020541690565b615ba7565b615b4a565b61117e565b507f032dc6a2d839eb179729a55633fdf1c41a1fc4739394154117005db2b354b9b5918160cc558060cd5561120e6040519283928360209093929193604081019481520152565b0390a1005b503461000e57600060031936011261000e57602060ff609754166040519015158152f35b503461000e57600060031936011261000e57602060ce54604051908152f35b503461000e57604060031936011261000e576112bc61127b6112766103de565b613416565b6112b66040516339420b4560e11b81526020816004816001600160a01b0387165afa9081156112ee575b6000916112d0575b506024356137c6565b906139f6565b604080519384526020840191909152919050f35b6112e8915060203d8111610745576107368183612b52565b386112ad565b6112f6612bba565b6112a5565b8015150361000e57565b503461000e5760c060031936011261000e5761131f6103de565b6044359060243561132e6103f4565b9160a4359361133c856112fb565b61134b600260655414156130d6565b600260655561135f60ff609754161561313b565b60009483156116f35761137185613228565b61137c6084356137fc565b611385836131de565b61138e83613416565b906001600160a01b0396878316916113aa8784338c8a1661347f565b61146d5750857ff5dd9317b9e63ac316ce44acc85f670b54b339cfa3e9076e1dd55065b922314b93610937989361140c6004602061141296604051928380926339420b4560e11b82525afa908115611460575b600091611442575b50896137c6565b9061382e565b945b61091a8660405193849316963396846040919493926001600160a01b03606083019616825260208201520152565b61145a915060203d8111610745576107368183612b52565b38611405565b611468612bba565b6113fd565b96916114c6919361148e61148960d1546001600160a01b031690565b613228565b6114bf604051996339420b4560e11b8b5260209a8b816004818b5afa9182156116e6575b916116c9575b50886137c6565b309261382e565b9461152887876114de60d1546001600160a01b031690565b60405193849283927f095ea7b300000000000000000000000000000000000000000000000000000000845260048401602090939291936001600160a01b0360408201951681520152565b03816000885af180156116bc575b61168f575b5061159b87611558610e50610e5060d1546001600160a01b031690565b6040517faf929a800000000000000000000000000000000000000000000000000000000081526001600160a01b0390961660048701529491829081906024820190565b0381875afa978815611682575b600098611663575b5050823b1561000e576040517f90210d7e0000000000000000000000000000000000000000000000000000000081526004810197909752602487018690526001600160a01b0381166044880152610937967ff5dd9317b9e63ac316ce44acc85f670b54b339cfa3e9076e1dd55065b922314b936000908290606490829084905af18015611656575b611643575b50611414565b806106a161165092612af9565b3861163d565b61165e612bba565b611638565b61167a929850803d1061077f576107718183612b52565b9538806115b0565b61168a612bba565b6115a8565b6116ae90883d8a116116b5575b6116a68183612b52565b81019061345b565b503861153b565b503d61169c565b6116c4612bba565b611536565b6116e091508b3d8d11610745576107368183612b52565b386114b8565b6116ee612bba565b6114b2565b60046040517fb483c10f000000000000000000000000000000000000000000000000000000008152fd5b503461000e57600060031936011261000e57602060cc54604051908152f35b503461000e576000806003193601126117b8576033547fffffffffffffffffffffffff00000000000000000000000000000000000000006001600160a01b03821691611789338414612a02565b1660335581604051917f8be0079c531659141344cd1fd0a4f28419497f9722a3daafe3b4186f6b6457e08284a3f35b80fd5b503461000e57600060031936011261000e57602060cd54604051908152f35b503461000e57600060031936011261000e576117fb600260655414156130d6565b60026065556118086131a0565b600160ff1960975461181d60ff82161561313b565b16176097557f62e78cea01bee320cd4e420270b5ea74000d11b0c9f74754ebdbfc544b05a2586020604051338152a16001606555005b503461000e576000806003193601126117b857808060ca54918060d354905b8183106118a657856118958661189061188b888561425f565b61409b565b614cb9565b604080519182526020820192909252f35b9091946118b8610e5061119b88615b5a565b6040908151917f961be39100000000000000000000000000000000000000000000000000000000835260209160049183858481855afa9485156119fe575b87956119db575b5090839151928380927f705727b50000000000000000000000000000000000000000000000000000000082525afa9182156119ce575b85926119b1575b50506effffffffffffffffffffffffffffff8091169182156119a4578261198b61197a826119746119979761199d9997611991971661425f565b9a613ceb565b98611985818c61425f565b90613dbe565b9061427e565b90613ceb565b95615b4a565b9190611872565b5050509461199d90615b4a565b6119c79250803d10610709576106fa8183612b52565b388061193a565b6119d6612bba565b611933565b84929195506119f690833d8511610709576106fa8183612b52565b9490916118fd565b611a06612bba565b6118f6565b503461000e57600060031936011261000e5760206001600160a01b0360335416604051908152f35b503461000e57604060031936011261000e5760206118956001600160a01b03611a5a6103de565b611a74611a6d6024359261127684612f52565b91826146f2565b95919290506004604051809581936339420b4560e11b8352165afa918215611abd575b600092611aa45750612def565b610bdb91925060203d8111610745576107368183612b52565b611ac5612bba565b611a97565b503461000e57600060031936011261000e5760206001600160a01b0360cf5416604051908152f35b503461000e57606060031936011261000e57611b0c6103de565b602435611b1761040a565b916001600160a01b03611b2f81603354163314612a02565b611b3882613416565b611b4183615a5d565b84116110a05716611b786040516339420b4560e11b8152602081600481865afa908115611c67575b600091611c49575b5084612def565b93813b1561000e576040517f9e79eaa50000000000000000000000000000000000000000000000000000000081526001600160a01b038216600482015260248101959095527f5f22a22ebe30686f71d42a70ccacf870a335e22ee2ac6d257af1b2551582eda69461120e926000908290604490829084905af18015611c3c575b611c29575b50604051938493849193929060409160608401956001600160a01b038093168552602085015216910152565b806106a1611c3692612af9565b38611bfd565b611c44612bba565b611bf8565b611c61915060203d8111610745576107368183612b52565b38611b71565b611c6f612bba565b611b69565b503461000e57611c833661098c565b611c976002606597949695975414156130d6565b6002606555611cab60ff609754161561313b565b611cb58484612f83565b85156116f357611ccd90611cc883613228565b6137fc565b611cd6826131de565b611cdf82613416565b94611ce984613416565b916001600160a01b039182841693604051976339420b4560e11b808a528a60208b6004818b5afa9a8b15611ec5575b60009b611e9e575b5084928b92888493169d8e916040518093819282525a92600491602094fa92831597610ab4611d7f97611d6c611d7997611d7297611d899d611e91575b600091611e72575b508b6137c6565b936137c6565b9c90612def565b9a612def565b993386891661347f565b833b1561000e576040517f9e79eaa50000000000000000000000000000000000000000000000000000000081526001600160a01b0383166004820152602481018890527f54787c404bb33c88e86f4baf88183a3b0141d0a848e6a9f7a13b66ae3a9b73d194611e4592899290916000908290604490829084905af18015611e65575b611e52575b506040519485941697339785909260609295949360808301966001600160a01b03809216845216602083015260408201520152565b0390a36118956001606555565b806106a1611e5f92612af9565b38611e10565b611e6d612bba565b611e0b565b611e8b915060203d602011610745576107368183612b52565b38611d65565b611e99612bba565b611d5d565b87929b5092611ebc869460203d602011610745576107368183612b52565b9b925092611d20565b611ecd612bba565b611d18565b503461000e57602060031936011261000e57611eec6103de565b611efb600260655414156130d6565b6002606555611f086131a0565b6001600160a01b0381168060005260c960205260ff6040600020541615611f8557600090815260c96020908152604091829020805460ff1916905581516001600160a01b0393909316835233908301527fdb198487a4c70aa000c3b1020f52688b4b86d3ebcedc84a793e03ed3b480902c91a1610d5e6001606555565b60046040517f855b7373000000000000000000000000000000000000000000000000000000008152fd5b503461000e57602060031936011261000e57600435611fda6001600160a01b03603354163314612a02565b670de0b6b3a764000081116110a0576020817f294c562dcfcd9be941287844539aeba4ae641cd1fc9a2883337c6b2e87cbd98a9260ca55604051908152a1005b503461000e57606060031936011261000e576120346103de565b61189561203f610420565b916044359061204d82612f52565b6120578482612f83565b612062828583614a0b565b94906120776120718294613416565b92613416565b6001600160a01b0380931696604051927f961be3910000000000000000000000000000000000000000000000000000000084528861212f602098868a816004829a875afa9081156122a6575b600091612289575b506004886120eb886effffffffffffffffffffffffffffff809516612c33565b95604051928380927f705727b50000000000000000000000000000000000000000000000000000000082525afa90811561227c575b60009161225f575b5016612c33565b6121428161213d8685612c6c565b612d4b565b9161217661216160d6546fffffffffffffffffffffffffffffffff1690565b6fffffffffffffffffffffffffffffffff1690565b8311612228575b505050506121b260049160405190858285816339420b4560e11b9e8f82525afa91821561221b575b6000926122035750612def565b9760405194859384928352165afa9283156121f6575b6000936121d7575b5050612def565b6121ee929350803d10610745576107368183612b52565b9038806121d0565b6121fe612bba565b6121c8565b610bdb919250863d8811610745576107368183612b52565b612223612bba565b6121a5565b60049498508361224b612256946122466121b2979561225095612d4b565b612e5f565b612cf6565b90612c33565b9591388061217d565b6122769150893d8b11610709576106fa8183612b52565b38612128565b612284612bba565b612120565b6122a09150883d8a11610709576106fa8183612b52565b386120cb565b6122ae612bba565b6120c3565b503461000e576000806003193601126117b857604051809160d354908183526020809301809260d383527f915c3eb987b20e1af620c1403197bf687fb7f18513b3a73fde6e78c7072c41a690835b81811061235e5750505084612317910385612b52565b60405193838594850191818652518092526040850193925b82811061233e57505050500390f35b83516001600160a01b03168552869550938101939281019260010161232f565b82546001600160a01b031684529286019260019283019201612301565b503461000e57602060031936011261000e577f935ce123b6388f8dbf76890f8240a48198f1e0a884f26939aa604a46bb65b70660206004356123c96001600160a01b03603354163314612a02565b8060ce55604051908152a1005b503461000e57600060031936011261000e57602060cb54604051908152f35b503461000e57602060031936011261000e576020610b9b6124146103de565b615a5d565b503461000e57602060031936011261000e577f8daa6bb00de042a7d51816fcee4a3d5c1e91a2128fd64fa1a9a38afa0d26beb560206124566103de565b6001600160a01b039061246e82603354163314612a02565b61247781613228565b16807fffffffffffffffffffffffff000000000000000000000000000000000000000060cf54161760cf55604051908152a1005b503461000e57604060031936011261000e576124c56103de565b6124cd610420565b906001600160a01b036124e581603354163314612a02565b6124f4600260655414156130d6565b600260655561250283613228565b61250b82613228565b61252e826001600160a01b0380911660005260d460205260406000205416151590565b6125c75761259381600094169183169283855260d46020526125818360408720906001600160a01b03167fffffffffffffffffffffffff0000000000000000000000000000000000000000825416179055565b60d35460d560205260408620556132d7565b604051917f0bb5715f0f217c2fe9a0c877ea87d474380c641102f3440ee2a4c8b9d97909188484a36125c56001606555565bf35b60046040517f8991c4c4000000000000000000000000000000000000000000000000000000008152fd5b503461000e57602060031936011261000e576020610b9b6126106103de565b6158eb565b503461000e57604060031936011261000e5760005460ff8160081c1690816000146127ca5750303b155b156127465715806126fe575b612659602435600435612fc1565b6126cc575b6126956714d1120d7b1600007fffffffffffffffffffffffffffffffff0000000000000000000000000000000060d654161760d655565b610d5e7718fae27693b40000000000000000000000000000000000006fffffffffffffffffffffffffffffffff60d654161760d655565b6126f97fffffffffffffffffffffffffffffffffffffffffffffffffffffffffffff00ff60005416600055565b61265e565b61272f6101007fffffffffffffffffffffffffffffffffffffffffffffffffffffffffffff00ff6000541617600055565b612741600160ff196000541617600055565b61264b565b60846040517f08c379a000000000000000000000000000000000000000000000000000000000815260206004820152602e60248201527f496e697469616c697a61626c653a20636f6e747261637420697320616c72656160448201527f647920696e697469616c697a65640000000000000000000000000000000000006064820152fd5b60ff161561263f565b503461000e57602060031936011261000e5760206001600160a01b036127fa6112766103de565b16604051908152f35b503461000e57602060031936011261000e5761281d6103de565b6001600160a01b0361283481603354163314612a02565b81161561284457610d5e90612a67565b60846040517f08c379a000000000000000000000000000000000000000000000000000000000815260206004820152602660248201527f4f776e61626c653a206e6577206f776e657220697320746865207a65726f206160448201527f64647265737300000000000000000000000000000000000000000000000000006064820152fd5b503461000e57602060031936011261000e577ff6b59ffc88fbb27f33470b919e00b41139ee340eb349521f0cbbc1504ce29c3e60206129056103de565b6001600160a01b039061291d82603354163314612a02565b61292681613228565b16807fffffffffffffffffffffffff000000000000000000000000000000000000000060d054161760d055604051908152a1005b503461000e57602060031936011261000e576004356129856001600160a01b03603354163314612a02565b670de0b6b3a764000081116110a0576020817fc6e60196bbe5909add58d5ae8a27082013670bce0855321773c33085af5c32439260cb55604051908152a1005b503461000e57602060031936011261000e57610d5e6111b86112766103de565b503461000e5761112361111d6129fa366110d6565b92909261409b565b15612a0957565b60646040517f08c379a000000000000000000000000000000000000000000000000000000000815260206004820152602060248201527f4f776e61626c653a2063616c6c6572206973206e6f7420746865206f776e65726044820152fd5b603354906001600160a01b0380911691827fffffffffffffffffffffffff0000000000000000000000000000000000000000821617603355167f8be0079c531659141344cd1fd0a4f28419497f9722a3daafe3b4186f6b6457e06000604051a3565b507f4e487b7100000000000000000000000000000000000000000000000000000000600052604160045260246000fd5b67ffffffffffffffff8111612b0d57604052565b612b15612ac9565b604052565b60a0810190811067ffffffffffffffff821117612b0d57604052565b6040810190811067ffffffffffffffff821117612b0d57604052565b90601f7fffffffffffffffffffffffffffffffffffffffffffffffffffffffffffffffe0910116810190811067ffffffffffffffff821117612b0d57604052565b9081602091031261000e57516effffffffffffffffffffffffffffff8116810361000e5790565b506040513d6000823e3d90fd5b507f4e487b7100000000000000000000000000000000000000000000000000000000600052601160045260246000fd5b6000199060018110612c07570190565b612c0f612bc7565b0190565b670de0b6b3a7640000818110612c27570390565b612c2f612bc7565b0390565b818110612c27570390565b6001907ffffffffffffffffffffffffffffffffffffffffffffffffffffffffffffffffe8111612c07570190565b81198111612c07570190565b9081602091031261000e575160ff8116810361000e5790565b8060001904821181151516612ca4570290565b612cac612bc7565b0290565b507f4e487b7100000000000000000000000000000000000000000000000000000000600052601260045260246000fd5b8115612cea570490565b612cf2612cb0565b0490565b612d12670de0b6b3a7640000926706f05b59d3b2000092612c91565b7ffffffffffffffffffffffffffffffffffffffffffffffffff90fa4a62c4dffff8111612d3e57010490565b612d46612bc7565b010490565b612ce090670de0b6b3a76400008160001904811182151516612d73575b8360011c9102612c6c565b612d7b612bc7565b612d68565b60ff7fffffffffffffffffffffffffffffffffffffffffffffffffffffffffffffffee911660128110612c07570190565b60ff1680601210612dc3575b60120390565b612dcb612bc7565b612dbd565b60ff16604d8111612de2575b600a0a90565b612dea612bc7565b612ddc565b9060ff81166012811015612e1a5750612e0a612e0f91612db1565b612dd0565b908115612cea570490565b601210612e25575090565b90612e35612e0a612e3b93612d80565b90612c91565b90565b6fffffffffffffffffffffffffffffffff9182169116818110612c27570390565b9060d654908160801c91828211600014612e9d5760046040517f6158a9f8000000000000000000000000000000000000000000000000000000008152fd5b6fffffffffffffffffffffffffffffffff8116821115612f4957612e3b93612f1e612f18612f2494612f126fffffffffffffffffffffffffffffffff61216196169485811115600014612f2a57612f0c60005b612f07612efd8987612c33565b612e358a88612c33565b612c33565b92612c33565b90612ce0565b60011c90565b93612e3e565b90612d4b565b612f0c612f44612f3a8884612c33565b612e358985612c33565b612ef0565b50505050600090565b15612f5957565b60046040517f3f3835e7000000000000000000000000000000000000000000000000000000008152fd5b6001600160a01b03908116911614612f9757565b60046040517feeb7911f000000000000000000000000000000000000000000000000000000008152fd5b612fdb60ff60005460081c16612fd68161304b565b61304b565b612fe433612a67565b61300360ff60005460081c16612ff98161304b565b600160655561304b565b60ff196097541660975560ca5560cb55670de0b6b3a764000060cd55337fffffffffffffffffffffffff000000000000000000000000000000000000000060cf54161760cf55565b1561305257565b60846040517f08c379a000000000000000000000000000000000000000000000000000000000815260206004820152602b60248201527f496e697469616c697a61626c653a20636f6e7472616374206973206e6f74206960448201527f6e697469616c697a696e670000000000000000000000000000000000000000006064820152fd5b156130dd57565b60646040517f08c379a000000000000000000000000000000000000000000000000000000000815260206004820152601f60248201527f5265656e7472616e637947756172643a207265656e7472616e742063616c6c006044820152fd5b1561314257565b60646040517f08c379a000000000000000000000000000000000000000000000000000000000815260206004820152601060248201527f5061757361626c653a20706175736564000000000000000000000000000000006044820152fd5b6001600160a01b0360cf541633036131b457565b60046040517f5bf78ef4000000000000000000000000000000000000000000000000000000008152fd5b6001600160a01b031660005260c960205260ff604060002054166131fe57565b60046040517f8654830a000000000000000000000000000000000000000000000000000000008152fd5b6001600160a01b03161561323857565b60046040517f0bd3e3ed000000000000000000000000000000000000000000000000000000008152fd5b507f4e487b7100000000000000000000000000000000000000000000000000000000600052603260045260246000fd5b60d3548110156132ca575b60d36000527f915c3eb987b20e1af620c1403197bf687fb7f18513b3a73fde6e78c7072c41a60190600090565b6132d2613262565b61329d565b6001600160a01b0360d35468010000000000000000811015613363575b600181018060d355811015613356575b60d36000527f915c3eb987b20e1af620c1403197bf687fb7f18513b3a73fde6e78c7072c41a60191167fffffffffffffffffffffffff0000000000000000000000000000000000000000825416179055565b61335e613262565b613304565b61336b612ac9565b6132f4565b60d35480156133e7577f915c3eb987b20e1af620c1403197bf687fb7f18513b3a73fde6e78c7072c41a5600019820191808310156133da575b60d3600052017fffffffffffffffffffffffff0000000000000000000000000000000000000000815416905560d355565b6133e2613262565b6133a9565b7f4e487b7100000000000000000000000000000000000000000000000000000000600052603160045260246000fd5b613439816001600160a01b0380911660005260d460205260406000205416151590565b15610f91576001600160a01b0380911660005260d46020526040600020541690565b9081602091031261000e5751612e3b816112fb565b9081602091031261000e575190565b600091613537949383926040519560208701937f23b872dd0000000000000000000000000000000000000000000000000000000085526001600160a01b03938480921660248a01521660448801526064870152606486526134df86612b1a565b169082604051956134ef87612b36565b602087527f5361666545524332303a206c6f772d6c6576656c2063616c6c206661696c65646020880152613525843b15156135e9565b51925af161353161364e565b906136ba565b805180613542575050565b816020806135579361355c950101910161345b565b61355e565b565b1561356557565b60846040517f08c379a000000000000000000000000000000000000000000000000000000000815260206004820152602a60248201527f5361666545524332303a204552433230206f7065726174696f6e20646964206e60448201527f6f742073756363656564000000000000000000000000000000000000000000006064820152fd5b156135f057565b60646040517f08c379a000000000000000000000000000000000000000000000000000000000815260206004820152601d60248201527f416464726573733a2063616c6c20746f206e6f6e2d636f6e74726163740000006044820152fd5b3d156136b5573d9067ffffffffffffffff82116136a8575b6040519161369c60207fffffffffffffffffffffffffffffffffffffffffffffffffffffffffffffffe0601f8401160184612b52565b82523d6000602084013e565b6136b0612ac9565b613666565b606090565b909190156136c6575090565b8151156136d65750805190602001fd5b604051907f08c379a00000000000000000000000000000000000000000000000000000000082528160208060048301528251928360248401526000915b848310613760575050601f836044947fffffffffffffffffffffffffffffffffffffffffffffffffffffffffffffffe09311613753575b01168101030190fd5b600085828601015261374a565b8183018101518684016044015285935091820191613713565b60ff811660128110156137935750612e0a612e3b91612db1565b6012106137a05750600190565b612e0a6137ac91612d80565b80156137b9575b60010490565b6137c1612cb0565b6137b3565b9060ff811660128110156137e5575090612e35612e0a612e3b93612db1565b6012106137f0575090565b612e0a612e0f91612d80565b421161380457565b60046040517f549b6335000000000000000000000000000000000000000000000000000000008152fd5b9391929361383b81615ba7565b6001600160a01b0361384d83836139f6565b5091909261386584809861386082612f52565b6139c5565b1690813b1561000e576040517f16c9e7a00000000000000000000000000000000000000000000000000000000081526004810194909452600093848160248183875af180156139b8575b6139a5575b50813b156139a1576040517fa0f0f6040000000000000000000000000000000000000000000000000000000081526004810191909152838160248183865af18015613994575b613981575b50803b1561397d576040517f40c10f190000000000000000000000000000000000000000000000000000000081526001600160a01b039690961660048701526024860191909152929391928290604490829084905af18015613970575b6139635750565b806106a161355c92612af9565b613978612bba565b61395c565b8280fd5b806106a161398e92612af9565b386138ff565b61399c612bba565b6138fa565b8380fd5b806106a16139b292612af9565b386138b4565b6139c0612bba565b6138af565b116139cc57565b60046040517ff512a720000000000000000000000000000000000000000000000000000000008152fd5b906001600160a01b0360009216604051917f961be3910000000000000000000000000000000000000000000000000000000083526020908184600481865afa938415613bfe575b600094613bdf575b50604051907f705727b500000000000000000000000000000000000000000000000000000000948583528383600481885afa928315613bd2575b600093613bab575b50613aaf613ab49160ca54906effffffffffffffffffffffffffffff808097169116856140d6565b613c0b565b95818710613ba25750613ac79086612c33565b935b6040519081528281600481875afa908115613b95575b600091613b78575b501690600082613af957505050508192565b600482613b4693613b4b96604051938480927f18160ddd0000000000000000000000000000000000000000000000000000000082525afa928315613b6b575b92613b4e575b505085612c91565b612ce0565b92565b613b649250803d1061077f576107718183612b52565b3880613b3e565b613b73612bba565b613b38565b613b8f9150833d8511610709576106fa8183612b52565b38613ae7565b613b9d612bba565b613adf565b94955094613ac9565b613ab4919350613bca613aaf91863d8811610709576106fa8183612b52565b939150613a87565b613bda612bba565b613a7f565b613bf7919450823d8411610709576106fa8183612b52565b9238613a45565b613c06612bba565b613a3d565b60008112613c165790565b60646040517f08c379a000000000000000000000000000000000000000000000000000000000815260206004820152601660248201527f76616c7565206d75737420626520706f736974697665000000000000000000006044820152fd5b60008112906706f05b59d3b2000091817f7fffffffffffffffffffffffffffffffffffffffffffffffffffffffffffffff038313811516613cde575b817f800000000000000000000000000000000000000000000000000000000000000003831216612c07570190565b613ce6612bc7565b613cb0565b60008112817f7fffffffffffffffffffffffffffffffffffffffffffffffffffffffffffffff038313811516613cde57817f800000000000000000000000000000000000000000000000000000000000000003831216612c07570190565b670de0b6b3a76400006000821280157f80000000000000000000000000000000000000000000000000000000000000008401831216613db1575b827f7fffffffffffffffffffffffffffffffffffffffffffffffffffffffffffffff01821316612c27570390565b613db9612bc7565b613d83565b60008212827f8000000000000000000000000000000000000000000000000000000000000000018212811516613db157827f7fffffffffffffffffffffffffffffffffffffffffffffffffffffffffffffff01821316612c27570390565b6001817f7fffffffffffffffffffffffffffffffffffffffffffffffffffffffffffffff04600211600083131616613e92575b60017fc0000000000000000000000000000000000000000000000000000000000000008212600083121616613e85575b60011b90565b613e8d612bc7565b613e7f565b613e9a612bc7565b613e4f565b6001817f7fffffffffffffffffffffffffffffffffffffffffffffffffffffffffffffff04600411600083131616613f15575b60017fe0000000000000000000000000000000000000000000000000000000000000008212600083121616613f08575b60021b90565b613f10612bc7565b613f02565b613f1d612bc7565b613ed2565b670de0b6b3a76400009060017809392ee8e921d5d073aff322e62439fcf32d7f344649470f908211600083131616613f88575b60017ffffffffffffffff6c6d11716de2a2f8c500cdd19dbc6030cd280cbb9b6b8f0708212600083121616612ca4570290565b613f90612bc7565b613f55565b600082136000821390837f7fffffffffffffffffffffffffffffffffffffffffffffffffffffffffffffff81810485118385161661403d575b60008212927f800000000000000000000000000000000000000000000000000000000000000094848787058512911616614030575b82600087129505861290851616614023575b058312911616612ca4570290565b61402b612bc7565b614015565b614038612bc7565b614003565b614045612bc7565b613fce565b811561408e575b60001982147f8000000000000000000000000000000000000000000000000000000000000000821416614082570590565b61408a612bc7565b0590565b614096612cb0565b614051565b7f800000000000000000000000000000000000000000000000000000000000000081146140c9575b60000390565b6140d1612bc7565b6140c3565b909180156142585760006140ea8385613ceb565b1261422e578291816140fb84613f22565b6002820561410891613ceb565b906141129161404a565b9361411c91613ceb565b670de0b6b3a764000080938161413188613d49565b61413b9085613f95565b61414490613c74565b0582614150868a613f95565b61415990613c74565b0561416390613e1c565b61416c91613ceb565b956141778589613f95565b906141819161404a565b61418a91613dbe565b614194908361427e565b918061419f91613f95565b6141a890613c74565b056141b291613dbe565b916141bd8286613f95565b6141c690613c74565b05906141d19161427e565b6141da91613ceb565b6141e48280613f95565b906141ee84613e9f565b906141f891613f95565b61420191613dbe565b61420a8261409b565b9161421491614299565b61421d91613ceb565b906142279161425f565b6002900590565b60046040517fae032660000000000000000000000000000000000000000000000000000000008152fd5b5091505090565b9061427961426f612e3b93613f22565b6002830590613ceb565b61404a565b614294670de0b6b3a76400009261408a92613f95565b613c74565b9190600060038413156143365750600081138061432c575b156142f557915b6142ce614227846142c9818561404a565b613ceb565b905b8382036142db575050565b9092506142ef614227846142c9818561404a565b906142d0565b600081128061431a575b156143135761430d9061409b565b916142b8565b50816142b8565b50826143258261409b565b13156142ff565b50828113156142b1565b92905061433f57565b60019150565b919061435083615ba7565b61435a81846146f2565b5090936001600160a01b031684813b1561000e576040928351917f9dc29fac0000000000000000000000000000000000000000000000000000000083526000928381806143c260049a898c8401602090939291936001600160a01b0360408201951681520152565b038183895af1801561465a575b614647575b50833b1561397d5784517f9f9ef98800000000000000000000000000000000000000000000000000000000815286810191825290839082908190602001038183885af1801561463a575b614627575b50823b156146235783517fd8b8785300000000000000000000000000000000000000000000000000000000815285810191825290829082908190602001038183875af18015614616575b614603575b5082517f705727b5000000000000000000000000000000000000000000000000000000009081815260209081818881885afa9081156145f6575b84916145d9575b506effffffffffffffffffffffffffffff80911615159384614504575b5050505090506144de575050565b517f5bf78ef4000000000000000000000000000000000000000000000000000000008152fd5b6145769450662386f26fc10000958751937f961be39100000000000000000000000000000000000000000000000000000000855280858b81855afa9485156145cc575b83956145ab575b50808495968b8b518095819382525afa92831561459e575b92614581575b5050169116612d4b565b1080388080806144d0565b6145979250803d10610709576106fa8183612b52565b388061456c565b6145a6612bba565b614566565b8495506145c58291823d8411610709576106fa8183612b52565b955061454e565b6145d4612bba565b614547565b6145f09150823d8411610709576106fa8183612b52565b386144b3565b6145fe612bba565b6144ac565b806106a161461092612af9565b38614472565b61461e612bba565b61446d565b5080fd5b806106a161463492612af9565b38614423565b614642612bba565b61441e565b806106a161465492612af9565b386143d4565b614662612bba565b6143cf565b6001600160a01b039093929361467c81615ba7565b61468683826146f2565b509290916146958380986139c5565b1690813b1561000e576040928351917f9dc29fac0000000000000000000000000000000000000000000000000000000083526000928381806143c260049a898c8401602090939291936001600160a01b0360408201951681520152565b916001600160a01b036000931691604051927f705727b500000000000000000000000000000000000000000000000000000000908185526020928386600481855afa958615614907575b6000966148d2575b509161483493916147b261476d613aaf956effffffffffffffffffffffffffffff809a16612c91565b604051907f18160ddd0000000000000000000000000000000000000000000000000000000082528582600481875afa9182156148c5575b6000926148a6575b50612ce0565b966147bc88612f52565b6147c58861409b565b9184604051947f961be3910000000000000000000000000000000000000000000000000000000086528186600481865afa958615614899575b60009661487a575b5060046040518094819382525afa94851561486d575b60009561484e575b50508060ca549416921690614914565b928383106148475750612e3b8383612c33565b9092508192565b614865929550803d10610709576106fa8183612b52565b923880614824565b614875612bba565b61481c565b614892919650823d8411610709576106fa8183612b52565b9438614806565b6148a1612bba565b6147fe565b6148be919250863d881161077f576107718183612b52565b90386147ac565b6148cd612bba565b6147a4565b613aaf93919650916147b261476d6148fa8795614834983d8811610709576106fa8183612b52565b9893955050509193614744565b61490f612bba565b61473c565b9290926149218184613ceb565b908361492c86613f22565b6002820561493991613ceb565b906149439161404a565b809461494e85613f22565b90670de0b6b3a76400009680889493600286950561496b91613ceb565b906149759161404a565b61497e91613dbe565b61498791613f95565b61499090613c74565b059161499b85613d49565b6149a491613f95565b6149ad90613c74565b056149b791613ceb565b600290059283926149c88480613f95565b92806149d391613f95565b6149dc91613f95565b6149e590613c74565b056149ef91613ceb565b906149f991614299565b614a0291613ceb565b612e3b91613dbe565b614b4691614a24614a1e614b3a93613416565b91613416565b93614a2f81836146f2565b50509081956001600160a01b03809416916040517f961be3910000000000000000000000000000000000000000000000000000000093848252602080978184600481865afa938415614be4575b600094614bc5575b50614aeb614aa4896effffffffffffffffffffffffffffff809716612c33565b958560405185816004817f705727b5000000000000000000000000000000000000000000000000000000009a8b82525afa908115614bb8575b600091614ba1575016612c33565b9516916040519687528187600481865afa968715614b94575b600097614b75575b5060046040518094819382525afa968715614b68575b600097614b49575b50508060ca549616931690614bf1565b61225060cb5482612cf6565b91565b614b60929750803d10610709576106fa8183612b52565b943880614b2a565b614b70612bba565b614b22565b614b8d919750823d8411610709576106fa8183612b52565b9538614b0c565b614b9c612bba565b614b04565b6122769150863d8811610709576106fa8183612b52565b614bc0612bba565b614add565b614bdd919450823d8411610709576106fa8183612b52565b9238614a84565b614bec612bba565b614a7c565b92919493909385158015614cb1575b61422e576118908461198585614c94816142798c614c72614c8a614c9f9f8f614c9a9f614c8561198b9f8f85670de0b6b3a7640000614c78614294614c7f948f614c72906119918c614279614c6b6142799f9e61426f9f614c646142799183613ceb565b9c80613f95565b9380613f95565b90613f95565b0590613dbe565b9d613ceb565b613f22565b611985818c61425f565b9261425f565b613dbe565b6000811215612e3b57612e3b9061409b565b508215614c00565b80614c9a61408a92614d3c600295611991614cd48480613f95565b9160017f1fffffffffffffffffffffffffffffffffffffffffffffffffffffffffffffff8211600083131616614d4e575b60017fe0000000000000000000000000000000000000000000000000000000000000008212600083121616614d41575b881b613f22565b614299565b614d49612bc7565b614d35565b614d56612bc7565b614d05565b92939190614d6a828286614fa9565b8093919395614d7a8580996139c5565b614d97846001600160a01b031660005260d2602052604060002090565b614da2838254612c6c565b90556001600160a01b0380911693843b1561000e576040517f16c9e7a00000000000000000000000000000000000000000000000000000000081526004810194909452600094614e0e949086908290602490829084905af18015614f9c575b614f89575b501693612c6c565b823b15614623576040517f9f9ef9880000000000000000000000000000000000000000000000000000000081526004810191909152662386f26fc1000092614f05929091818160248183875af18015614f7c575b614f69575b50604051917f961be3910000000000000000000000000000000000000000000000000000000083526020908184600481845afa938415614f5c575b8394614f36575b509080600492604051938480927f705727b50000000000000000000000000000000000000000000000000000000082525afa928315614f29575b92614f0c575b50506effffffffffffffffffffffffffffff8091169116612d4b565b106131b457565b614f229250803d10610709576106fa8183612b52565b3880614ee9565b614f31612bba565b614ee3565b8291945091614f53600493823d8411610709576106fa8183612b52565b94919250614ea9565b614f64612bba565b614ea2565b806106a1614f7692612af9565b38614e67565b614f84612bba565b614e62565b806106a1614f9692612af9565b38614e06565b614fa4612bba565b614e01565b91929092614fb88185856154a9565b809491809660008512156000146151255750505061507d6001600160a01b0361213d9216926040517f961be39100000000000000000000000000000000000000000000000000000000815260208082600481895afa918215615118575b6000926150f9575b506004816effffffffffffffffffffffffffffff80941697604051928380927f705727b50000000000000000000000000000000000000000000000000000000082525afa9182156150ec575b6000926150cf575b50501692839185612c6c565b9161509c61216160d6546fffffffffffffffffffffffffffffffff1690565b83116150a757505050565b8561224b612e3b959697946122466150c9956150c295612d4b565b8092612c33565b93612c6c565b6150e59250803d10610709576106fa8183612b52565b3880615071565b6150f4612bba565b615069565b816151119293503d8411610709576106fa8183612b52565b903861501d565b615120612bba565b615015565b8093949297506001600160a01b0391959650166040517f961be39100000000000000000000000000000000000000000000000000000000815260208082600481865afa9182156152b7575b600092615298575b506004816effffffffffffffffffffffffffffff80941694604051928380927f705727b50000000000000000000000000000000000000000000000000000000082525afa91821561528b575b60009261526e575b5050166151dd8161213d8885612c6c565b60d65492906fffffffffffffffffffffffffffffffff841610615204575050505050509190565b909193955061521592949750612d4b565b9060801c11156152445761522b6152329161409b565b84836152c4565b9061523f91938491614fa9565b905090565b60046040517f6158a9f8000000000000000000000000000000000000000000000000000000008152fd5b6152849250803d10610709576106fa8183612b52565b38806151cc565b615293612bba565b6151c4565b816152b09293503d8411610709576106fa8183612b52565b9038615178565b6152bf612bba565b615170565b6040516339420b4560e11b81529193926020926153ce906001600160a01b0384168582600481845afa91821561549c575b600092615479575b5061085f9061530b83613779565b96604051907f705727b50000000000000000000000000000000000000000000000000000000082528082600481865afa91821561546c575b60009261544d575b5060048161538a61537c61536461216160d65460801c90565b6effffffffffffffffffffffffffffff809716612c91565b670de0b6b3a7640000900490565b94604051928380927f961be3910000000000000000000000000000000000000000000000000000000082525afa918215610710576000926106e35750501690612c33565b91600195826153e76153e08787612c91565b8385614fa9565b50106152445791905b83871061540557505050612e3b929350612c91565b909192615415612f188289612c6c565b908361542b6154248885612c91565b8786614fa9565b501061543b5750925b91906153f0565b93965061544790612c3e565b95615434565b816154659293503d8411610709576106fa8183612b52565b903861534b565b615474612bba565b615343565b61085f91925061549590873d8911610745576107368183612b52565b91906152fd565b6154a4612bba565b6152f5565b9190600092838312615763575b6001600160a01b0380911693846040918251907f961be391000000000000000000000000000000000000000000000000000000009182815260209660049688838981895afa928315615756575b8493615737575b5086519189838a817f705727b5000000000000000000000000000000000000000000000000000000009a8b82525afa92831561572a575b859361570b575b5016898751928684528a848b81865afa9384156156fe575b86946156dd575b506155af93948b6effffffffffffffffffffffffffffff809716998c8c518097819382525afa9384156156d0575b87946156b1575b508886808060ca54971694169216614bf1565b988289139788958b90876156a7575b50508515615625575b50505050506155ff575050156155e75750614b466150c260cb5483612cf6565b91906155f6612e3b919361409b565b60cb5490612cf6565b517f9a6114b7000000000000000000000000000000000000000000000000000000008152fd5b9091928094955089129485615644575b505050505038808080806155c7565b8192939495508787518095819382525afa93841561569a575b9361567b575b505061566e8661409b565b9116103880808080615635565b615692929350803d10610709576106fa8183612b52565b903880615663565b6156a2612bba565b61565d565b1095508a386155be565b6156c99194508c8d3d10610709576106fa8183612b52565b923861559c565b6156d8612bba565b615595565b6155af94506156f8908c8d3d10610709576106fa8183612b52565b93615567565b615706612bba565b615560565b6157239193508a3d8c11610709576106fa8183612b52565b9138615548565b615732612bba565b615541565b61574f919350893d8b11610709576106fa8183612b52565b913861550a565b61575e612bba565b615503565b916157799061577360cb54613d49565b9061425f565b916154b6565b92919261578c8282612f83565b83156116f357614a1e61579e91613416565b92836001600160a01b0361581881851660006157ee604051976157e66339420b4560e11b998a81526020998a826004818a5afa91821561589e575b869261587f575b506158ab565b9a8b91614fa9565b939094849616946040519089825288826004818a5afa918215615872575b8492610bc35750612def565b981261584757505082612e3b9460046040518094819382525afa9283156121f6576000936121d7575050612def565b9150915082612e3b9460046040518094819382525afa9283156121f6576000936121d7575050612def565b61587a612bba565b61580c565b6158979192508b3d8d11610745576107368183612b52565b90386157e0565b6158a6612bba565b6157d9565b9060ff811660128110156158ca575090614c72612e0a612e3b93612db1565b6012106158d5575090565b906158e5612e0a612e3b93612d80565b9061404a565b610e506158f791613416565b6040517f18160ddd000000000000000000000000000000000000000000000000000000008082526020918281600481875afa908115615a50575b600091615a33575b5015615a2457612e3b9282604051927f705727b50000000000000000000000000000000000000000000000000000000084528184600481865afa938415615a17575b6000946159f8575b5060046040518094819382525afa9283156159eb575b6000936159b9575b50506effffffffffffffffffffffffffffff16612d4b565b6effffffffffffffffffffffffffffff92935090816159e392903d1061077f576107718183612b52565b9190386159a1565b6159f3612bba565b615999565b615a10919450823d8411610709576106fa8183612b52565b9238615983565b615a1f612bba565b61597b565b505050670de0b6b3a764000090565b615a4a9150833d851161077f576107718183612b52565b38615939565b615a58612bba565b615931565b615a69612e3b91613416565b6105ee6105d46001600160a01b0383166effffffffffffffffffffffffffffff61538a60046040517f99c91a640000000000000000000000000000000000000000000000000000000081526020928184818582958a5afa908115615b3d575b600091615b20575b50604051906339420b4560e11b8252838286818b5afa918215615b13575b600092615afb57506137c6565b61073e919250843d8611610745576107368183612b52565b615b1b612bba565b615aee565b615b379150833d851161077f576107718183612b52565b38615ad0565b615b45612bba565b615ac8565b6001906000198114612c07570190565b6001600160a01b039060d354811015615b9a575b60d36000527f915c3eb987b20e1af620c1403197bf687fb7f18513b3a73fde6e78c7072c41a601541690565b615ba2613262565b615b6e565b615bc4816001600160a01b031660005260d2602052604060002090565b5480158015615e09575b615e0557615bf2615bec615be360cd54612c13565b60cc5490612c33565b82612cf6565b9081615d2e575b615c07915060cd5490612cf6565b80615c2b575b506001600160a01b0316600090815260d26020526040812055565b55565b615c3581836139f6565b50916001600160a01b0384169150813b1561000e576040517fa0f0f6040000000000000000000000000000000000000000000000000000000081526004810193909352600092838160248183875af18015615d21575b615d0e575b50813b1561397d576040517f16c9e7a00000000000000000000000000000000000000000000000000000000081526004810191909152600093615c289390928290602490829084905af18015615d01575b615cee575b509150615c0d565b806106a1615cfb92612af9565b38615ce6565b615d09612bba565b615ce1565b806106a1615d1b92612af9565b38615c90565b615d29612bba565b615c8b565b6001600160a01b038316615d79615d4d60d0546001600160a01b031690565b93604051906339420b4560e11b8252602082600481875afa918215611abd57600092611aa45750612def565b92813b1561000e576040517f9e79eaa50000000000000000000000000000000000000000000000000000000081526001600160a01b039190911660048201526024810193909352615c0792906000908290604490829084905af18015615df8575b615de5575b50615bf9565b806106a1615df292612af9565b38615ddf565b615e00612bba565b615dda565b5050565b5060ce548110615bce56fea2646970667358221220da6a9888030b20551086ab0e3011218b16daf19fd5ff7a6790e8ea4c3d88861a64736f6c634300080f0033",
  "devdoc": {
    "kind": "dev",
    "methods": {
      "addAsset(address,address)": {
        "params": {
          "asset": "The address of the Wombat Asset contract",
          "token": "The address of token"
        }
      },
      "addressOfAsset(address)": {
        "details": "to be used externally",
        "params": {
          "token": "The address of ERC20 token"
        }
      },
      "deposit(address,uint256,uint256,address,uint256,bool)": {
        "details": "Asset needs to be created and added to pool before any operation. This function assumes tax free token.",
        "params": {
          "amount": "The amount to be deposited",
          "deadline": "The deadline to be respected",
          "to": "The user accountable for deposit, receiving the Wombat assets (lp)",
          "token": "The token address to be deposited"
        },
        "returns": {
          "liquidity": "Total asset liquidity minted"
        }
      },
      "exchangeRate(address)": {
        "params": {
          "token": "The address of the token"
        },
        "returns": {
          "xr": "The exchange rate of LP token"
        }
      },
      "mintFee(address)": {
        "params": {
          "token": "The address of the token to collect fee"
        }
      },
      "owner()": {
        "details": "Returns the address of the current owner."
      },
      "pause()": {
        "details": "pause pool, restricting certain operations"
      },
      "pauseAsset(address)": {
        "details": "pause asset, restricting deposit and swap operations"
      },
      "paused()": {
        "details": "Returns true if the contract is paused, and false otherwise."
      },
      "quoteAmountIn(address,address,int256)": {
        "details": "To be used by frontend",
        "params": {
          "fromToken": "The initial ERC20 token",
          "toAmount": "The given output amount",
          "toToken": "The token wanted by user"
        },
        "returns": {
          "amountIn": "The input amount required",
          "haircut": "The haircut that would be applied"
        }
      },
      "quotePotentialDeposit(address,uint256)": {
        "details": "To be used by frontend",
        "params": {
          "amount": "The amount to deposit",
          "token": "The token to deposit by user"
        },
        "returns": {
          "liquidity": "The potential liquidity user would receive",
          "reward": "reward"
        }
      },
      "quotePotentialSwap(address,address,int256)": {
        "details": "In reverse quote, the haircut is in the `fromAsset`",
        "params": {
          "fromAmount": "The given input amount",
          "fromToken": "The initial ERC20 token",
          "toToken": "The token wanted by user"
        },
        "returns": {
          "haircut": "The haircut that would be applied",
          "potentialOutcome": "The potential amount user would receive"
        }
      },
      "quotePotentialWithdraw(address,uint256)": {
        "details": "To be used by frontend",
        "params": {
          "liquidity": "The liquidity (amount of lp assets) to be withdrawn",
          "token": "The token to be withdrawn by user"
        },
        "returns": {
          "amount": "The potential amount user would receive",
          "fee": "The fee that would be applied"
        }
      },
      "quotePotentialWithdrawFromOtherAsset(address,address,uint256)": {
        "details": "take into account high cov ratio fee"
      },
      "removeAsset(address)": {
        "details": "Can only be called by owner",
        "params": {
          "token": "The address of token to remove"
        }
      },
      "renounceOwnership()": {
        "details": "Leaves the contract without owner. It will not be possible to call `onlyOwner` functions anymore. Can only be called by the current owner. NOTE: Renouncing ownership will leave the contract without an owner, thereby removing any functionality that is only available to the owner."
      },
      "setAmpFactor(uint256)": {
        "params": {
          "ampFactor_": "new pool's amplification factor"
        }
      },
      "setDev(address)": {
        "params": {
          "dev_": "new contract dev address"
        }
      },
      "setFeeTo(address)": {
        "params": {
          "feeTo_": "new fee beneficiary"
        }
      },
      "setHaircutRate(uint256)": {
        "params": {
          "haircutRate_": "new pool's haircutRate_"
        }
      },
      "swap(address,address,uint256,uint256,address,uint256)": {
        "details": "This function assumes tax free token.",
        "params": {
          "deadline": "The deadline to be respected",
          "fromAmount": "The amount of from token inserted",
          "fromToken": "The token being inserted into Pool by user for swap",
          "minimumToAmount": "The minimum amount that will be accepted by user as result",
          "to": "The user receiving the result of swap",
          "toToken": "The token wanted by user, leaving the Pool"
        }
      },
      "transferOwnership(address)": {
        "details": "Transfers ownership of the contract to a new account (`newOwner`). Can only be called by the current owner."
      },
      "unpause()": {
        "details": "unpause pool, enabling certain operations"
      },
      "unpauseAsset(address)": {
        "details": "unpause asset, enabling deposit and swap operations"
      },
      "withdraw(address,uint256,uint256,address,uint256)": {
        "params": {
          "deadline": "The deadline to be respected",
          "liquidity": "The liquidity to be withdrawn",
          "minimumAmount": "The minimum amount that will be accepted by user",
          "to": "The user receiving the withdrawal",
          "token": "The token to be withdrawn"
        },
        "returns": {
          "amount": "The total amount withdrawn"
        }
      },
      "withdrawFromOtherAsset(address,address,uint256,uint256,address,uint256)": {
        "params": {
          "deadline": "The deadline to be respected",
          "fromToken": "The corresponding token user holds the LP (Asset) from",
          "liquidity": "The liquidity to be withdrawn (in fromToken decimal)",
          "minimumAmount": "The minimum amount that will be accepted by user",
          "to": "The user receiving the withdrawal",
          "toToken": "The token wanting to be withdrawn (needs to be well covered)"
        },
        "returns": {
          "toAmount": "The total amount withdrawn"
        }
      }
    },
    "version": 1
  },
  "userdoc": {
    "events": {
      "AssetAdded(address,address)": {
        "notice": "An event thats emitted when an asset is added to Pool"
      },
      "AssetRemoved(address,address)": {
        "notice": "An event thats emitted when asset is removed from Pool"
      },
      "Deposit(address,address,uint256,uint256,address)": {
        "notice": "An event thats emitted when a deposit is made to Pool"
      },
      "Swap(address,address,address,uint256,uint256,address)": {
        "notice": "An event thats emitted when a swap is made in Pool"
      },
      "Withdraw(address,address,uint256,uint256,address)": {
        "notice": "An event thats emitted when a withdrawal is made from Pool"
      }
    },
    "kind": "user",
    "methods": {
      "addAsset(address,address)": {
        "notice": "Adds asset to pool, reverts if asset already exists in pool"
      },
      "addressOfAsset(address)": {
        "notice": "Gets Asset corresponding to ERC20 token. Reverts if asset does not exists in Pool."
      },
      "ampFactor()": {
        "notice": "Amplification factor"
      },
      "deposit(address,uint256,uint256,address,uint256,bool)": {
        "notice": "Deposits amount of tokens into pool ensuring deadline"
      },
      "dev()": {
        "notice": "Dev address"
      },
      "exchangeRate(address)": {
        "notice": "Returns the exchange rate of the LP token"
      },
      "getTokens()": {
        "notice": "Return list of tokens in the pool"
      },
      "haircutRate()": {
        "notice": "Haircut rate"
      },
      "initialize(uint256,uint256)": {
        "notice": "Initializes pool. Dev is set to be the account calling this function."
      },
      "lpDividendRatio()": {
        "notice": "LP dividend ratio : the ratio of haircut that should distribute to LP"
      },
      "mintFee(address)": {
        "notice": "Send fee collected to the fee beneficiary"
      },
      "mintFeeThreshold()": {
        "notice": "The threshold to mint fee (unit: WAD)"
      },
      "quoteAmountIn(address,address,int256)": {
        "notice": "Returns the minimum input asset amount required to buy the given output asset amount (accounting for fees and slippage)"
      },
      "quotePotentialDeposit(address,uint256)": {
        "notice": "Quotes potential deposit from pool"
      },
      "quotePotentialSwap(address,address,int256)": {
        "notice": "Given an input asset amount and token addresses, calculates the maximum output token amount (accounting for fees and slippage)."
      },
      "quotePotentialWithdraw(address,uint256)": {
        "notice": "Quotes potential withdrawal from pool"
      },
      "removeAsset(address)": {
        "notice": "Removes asset from asset struct"
      },
      "retentionRatio()": {
        "notice": "Retention ratio: the ratio of haircut that should stay in the pool"
      },
      "setAmpFactor(uint256)": {
        "notice": "Changes the pools amplification factor. Can only be set by the contract owner."
      },
      "setDev(address)": {
        "notice": "Changes the contract dev. Can only be set by the contract owner."
      },
      "setFeeTo(address)": {
        "notice": "Changes the fee beneficiary. Can only be set by the contract owner. This value cannot be set to 0 to avoid unsettled fee."
      },
      "setHaircutRate(uint256)": {
        "notice": "Changes the pools haircutRate. Can only be set by the contract owner."
      },
      "setMintFeeThreshold(uint256)": {
        "notice": "Set min fee to mint"
      },
      "swap(address,address,uint256,uint256,address,uint256)": {
        "notice": "Swap fromToken for toToken, ensures deadline and minimumToAmount and sends quoted amount to `to` address"
      },
      "withdraw(address,uint256,uint256,address,uint256)": {
        "notice": "Withdraws liquidity amount of asset to `to` address ensuring minimum amount required"
      },
      "withdrawFromOtherAsset(address,address,uint256,uint256,address,uint256)": {
        "notice": "Enables withdrawing liquidity from an asset using LP from a different asset"
      }
    },
    "version": 1
  },
  "storageLayout": {
    "storage": [
      {
        "astId": 130,
        "contract": "contracts/wombat-core/pool/HighCovRatioFeePool.sol:HighCovRatioFeePool",
        "label": "_initialized",
        "offset": 0,
        "slot": "0",
        "type": "t_bool"
      },
      {
        "astId": 133,
        "contract": "contracts/wombat-core/pool/HighCovRatioFeePool.sol:HighCovRatioFeePool",
        "label": "_initializing",
        "offset": 1,
        "slot": "0",
        "type": "t_bool"
      },
      {
        "astId": 651,
        "contract": "contracts/wombat-core/pool/HighCovRatioFeePool.sol:HighCovRatioFeePool",
        "label": "__gap",
        "offset": 0,
        "slot": "1",
        "type": "t_array(t_uint256)50_storage"
      },
      {
        "astId": 10,
        "contract": "contracts/wombat-core/pool/HighCovRatioFeePool.sol:HighCovRatioFeePool",
        "label": "_owner",
        "offset": 0,
        "slot": "51",
        "type": "t_address"
      },
      {
        "astId": 122,
        "contract": "contracts/wombat-core/pool/HighCovRatioFeePool.sol:HighCovRatioFeePool",
        "label": "__gap",
        "offset": 0,
        "slot": "52",
        "type": "t_array(t_uint256)49_storage"
      },
      {
        "astId": 322,
        "contract": "contracts/wombat-core/pool/HighCovRatioFeePool.sol:HighCovRatioFeePool",
        "label": "_status",
        "offset": 0,
        "slot": "101",
        "type": "t_uint256"
      },
      {
        "astId": 366,
        "contract": "contracts/wombat-core/pool/HighCovRatioFeePool.sol:HighCovRatioFeePool",
        "label": "__gap",
        "offset": 0,
        "slot": "102",
        "type": "t_array(t_uint256)49_storage"
      },
      {
        "astId": 218,
        "contract": "contracts/wombat-core/pool/HighCovRatioFeePool.sol:HighCovRatioFeePool",
        "label": "_paused",
        "offset": 0,
        "slot": "151",
        "type": "t_bool"
      },
      {
        "astId": 307,
        "contract": "contracts/wombat-core/pool/HighCovRatioFeePool.sol:HighCovRatioFeePool",
        "label": "__gap",
        "offset": 0,
        "slot": "152",
        "type": "t_array(t_uint256)49_storage"
      },
      {
        "astId": 7384,
        "contract": "contracts/wombat-core/pool/HighCovRatioFeePool.sol:HighCovRatioFeePool",
        "label": "_pausedAssets",
        "offset": 0,
        "slot": "201",
        "type": "t_mapping(t_address,t_bool)"
      },
      {
        "astId": 7518,
        "contract": "contracts/wombat-core/pool/HighCovRatioFeePool.sol:HighCovRatioFeePool",
        "label": "ampFactor",
        "offset": 0,
        "slot": "202",
        "type": "t_uint256"
      },
      {
        "astId": 7521,
        "contract": "contracts/wombat-core/pool/HighCovRatioFeePool.sol:HighCovRatioFeePool",
        "label": "haircutRate",
        "offset": 0,
        "slot": "203",
        "type": "t_uint256"
      },
      {
        "astId": 7524,
        "contract": "contracts/wombat-core/pool/HighCovRatioFeePool.sol:HighCovRatioFeePool",
        "label": "retentionRatio",
        "offset": 0,
        "slot": "204",
        "type": "t_uint256"
      },
      {
        "astId": 7527,
        "contract": "contracts/wombat-core/pool/HighCovRatioFeePool.sol:HighCovRatioFeePool",
        "label": "lpDividendRatio",
        "offset": 0,
        "slot": "205",
        "type": "t_uint256"
      },
      {
        "astId": 7530,
        "contract": "contracts/wombat-core/pool/HighCovRatioFeePool.sol:HighCovRatioFeePool",
        "label": "mintFeeThreshold",
        "offset": 0,
        "slot": "206",
        "type": "t_uint256"
      },
      {
        "astId": 7533,
        "contract": "contracts/wombat-core/pool/HighCovRatioFeePool.sol:HighCovRatioFeePool",
        "label": "dev",
        "offset": 0,
        "slot": "207",
        "type": "t_address"
      },
      {
        "astId": 7535,
        "contract": "contracts/wombat-core/pool/HighCovRatioFeePool.sol:HighCovRatioFeePool",
        "label": "feeTo",
        "offset": 0,
        "slot": "208",
        "type": "t_address"
      },
      {
        "astId": 7537,
        "contract": "contracts/wombat-core/pool/HighCovRatioFeePool.sol:HighCovRatioFeePool",
        "label": "masterWombat",
        "offset": 0,
        "slot": "209",
        "type": "t_address"
      },
      {
        "astId": 7543,
        "contract": "contracts/wombat-core/pool/HighCovRatioFeePool.sol:HighCovRatioFeePool",
        "label": "_feeCollected",
        "offset": 0,
        "slot": "210",
        "type": "t_mapping(t_contract(IAsset)4298,t_uint256)"
      },
      {
        "astId": 7547,
        "contract": "contracts/wombat-core/pool/HighCovRatioFeePool.sol:HighCovRatioFeePool",
        "label": "_assets",
        "offset": 0,
        "slot": "211",
        "type": "t_struct(AssetMap)7515_storage"
      },
      {
        "astId": 6828,
        "contract": "contracts/wombat-core/pool/HighCovRatioFeePool.sol:HighCovRatioFeePool",
        "label": "startCovRatio",
        "offset": 0,
        "slot": "214",
        "type": "t_uint128"
      },
      {
        "astId": 6830,
        "contract": "contracts/wombat-core/pool/HighCovRatioFeePool.sol:HighCovRatioFeePool",
        "label": "endCovRatio",
        "offset": 16,
        "slot": "214",
        "type": "t_uint128"
      }
    ],
    "types": {
      "t_address": {
        "encoding": "inplace",
        "label": "address",
        "numberOfBytes": "20"
      },
      "t_array(t_address)dyn_storage": {
        "base": "t_address",
        "encoding": "dynamic_array",
        "label": "address[]",
        "numberOfBytes": "32"
      },
      "t_array(t_uint256)49_storage": {
        "base": "t_uint256",
        "encoding": "inplace",
        "label": "uint256[49]",
        "numberOfBytes": "1568"
      },
      "t_array(t_uint256)50_storage": {
        "base": "t_uint256",
        "encoding": "inplace",
        "label": "uint256[50]",
        "numberOfBytes": "1600"
      },
      "t_bool": {
        "encoding": "inplace",
        "label": "bool",
        "numberOfBytes": "1"
      },
      "t_contract(IAsset)4298": {
        "encoding": "inplace",
        "label": "contract IAsset",
        "numberOfBytes": "20"
      },
      "t_mapping(t_address,t_bool)": {
        "encoding": "mapping",
        "key": "t_address",
        "label": "mapping(address => bool)",
        "numberOfBytes": "32",
        "value": "t_bool"
      },
      "t_mapping(t_address,t_contract(IAsset)4298)": {
        "encoding": "mapping",
        "key": "t_address",
        "label": "mapping(address => contract IAsset)",
        "numberOfBytes": "32",
        "value": "t_contract(IAsset)4298"
      },
      "t_mapping(t_address,t_uint256)": {
        "encoding": "mapping",
        "key": "t_address",
        "label": "mapping(address => uint256)",
        "numberOfBytes": "32",
        "value": "t_uint256"
      },
      "t_mapping(t_contract(IAsset)4298,t_uint256)": {
        "encoding": "mapping",
        "key": "t_contract(IAsset)4298",
        "label": "mapping(contract IAsset => uint256)",
        "numberOfBytes": "32",
        "value": "t_uint256"
      },
      "t_struct(AssetMap)7515_storage": {
        "encoding": "inplace",
        "label": "struct Pool.AssetMap",
        "members": [
          {
            "astId": 7505,
            "contract": "contracts/wombat-core/pool/HighCovRatioFeePool.sol:HighCovRatioFeePool",
            "label": "keys",
            "offset": 0,
            "slot": "0",
            "type": "t_array(t_address)dyn_storage"
          },
          {
            "astId": 7510,
            "contract": "contracts/wombat-core/pool/HighCovRatioFeePool.sol:HighCovRatioFeePool",
            "label": "values",
            "offset": 0,
            "slot": "1",
            "type": "t_mapping(t_address,t_contract(IAsset)4298)"
          },
          {
            "astId": 7514,
            "contract": "contracts/wombat-core/pool/HighCovRatioFeePool.sol:HighCovRatioFeePool",
            "label": "indexOf",
            "offset": 0,
            "slot": "2",
            "type": "t_mapping(t_address,t_uint256)"
          }
        ],
        "numberOfBytes": "96"
      },
      "t_uint128": {
        "encoding": "inplace",
        "label": "uint128",
        "numberOfBytes": "16"
      },
      "t_uint256": {
        "encoding": "inplace",
        "label": "uint256",
        "numberOfBytes": "32"
      }
    }
  }
}