{
  "address": "0x44A0e2AC2c99D5cB2910ec1784DD158b7fa3A642",
  "abi": [
    {
      "inputs": [],
      "name": "CORE_UNDERFLOW",
      "type": "error"
    },
    {
      "inputs": [],
      "name": "WOMBAT_AMOUNT_TOO_LOW",
      "type": "error"
    },
    {
      "inputs": [],
      "name": "WOMBAT_ASSET_ALREADY_EXIST",
      "type": "error"
    },
    {
      "inputs": [],
      "name": "WOMBAT_ASSET_ALREADY_PAUSED",
      "type": "error"
    },
    {
      "inputs": [],
      "name": "WOMBAT_ASSET_NOT_EXISTS",
      "type": "error"
    },
    {
      "inputs": [],
      "name": "WOMBAT_ASSET_NOT_PAUSED",
      "type": "error"
    },
    {
      "inputs": [],
      "name": "WOMBAT_CASH_NOT_ENOUGH",
      "type": "error"
    },
    {
      "inputs": [],
      "name": "WOMBAT_COV_RATIO_LIMIT_EXCEEDED",
      "type": "error"
    },
    {
      "inputs": [],
      "name": "WOMBAT_EXPIRED",
      "type": "error"
    },
    {
      "inputs": [],
      "name": "WOMBAT_FORBIDDEN",
      "type": "error"
    },
    {
      "inputs": [],
      "name": "WOMBAT_INVALID_VALUE",
      "type": "error"
    },
    {
      "inputs": [],
      "name": "WOMBAT_SAME_ADDRESS",
      "type": "error"
    },
    {
      "inputs": [],
      "name": "WOMBAT_ZERO_ADDRESS",
      "type": "error"
    },
    {
      "inputs": [],
      "name": "WOMBAT_ZERO_AMOUNT",
      "type": "error"
    },
    {
      "inputs": [],
      "name": "WOMBAT_ZERO_LIQUIDITY",
      "type": "error"
    },
    {
      "anonymous": false,
      "inputs": [
        {
          "indexed": true,
          "internalType": "address",
          "name": "token",
          "type": "address"
        },
        {
          "indexed": true,
          "internalType": "address",
          "name": "asset",
          "type": "address"
        }
      ],
      "name": "AssetAdded",
      "type": "event"
    },
    {
      "anonymous": false,
      "inputs": [
        {
          "indexed": true,
          "internalType": "address",
          "name": "token",
          "type": "address"
        },
        {
          "indexed": true,
          "internalType": "address",
          "name": "asset",
          "type": "address"
        }
      ],
      "name": "AssetRemoved",
      "type": "event"
    },
    {
      "anonymous": false,
      "inputs": [
        {
          "indexed": true,
          "internalType": "address",
          "name": "sender",
          "type": "address"
        },
        {
          "indexed": false,
          "internalType": "address",
          "name": "token",
          "type": "address"
        },
        {
          "indexed": false,
          "internalType": "uint256",
          "name": "amount",
          "type": "uint256"
        },
        {
          "indexed": false,
          "internalType": "uint256",
          "name": "liquidity",
          "type": "uint256"
        },
        {
          "indexed": true,
          "internalType": "address",
          "name": "to",
          "type": "address"
        }
      ],
      "name": "Deposit",
      "type": "event"
    },
    {
      "anonymous": false,
      "inputs": [
        {
          "indexed": false,
          "internalType": "address",
          "name": "token",
          "type": "address"
        },
        {
          "indexed": false,
          "internalType": "uint256",
          "name": "amount",
          "type": "uint256"
        }
      ],
      "name": "FillPool",
      "type": "event"
    },
    {
      "anonymous": false,
      "inputs": [
        {
          "indexed": false,
          "internalType": "uint8",
          "name": "version",
          "type": "uint8"
        }
      ],
      "name": "Initialized",
      "type": "event"
    },
    {
      "anonymous": false,
      "inputs": [
        {
          "indexed": true,
          "internalType": "address",
          "name": "previousOwner",
          "type": "address"
        },
        {
          "indexed": true,
          "internalType": "address",
          "name": "newOwner",
          "type": "address"
        }
      ],
      "name": "OwnershipTransferred",
      "type": "event"
    },
    {
      "anonymous": false,
      "inputs": [
        {
          "indexed": false,
          "internalType": "address",
          "name": "account",
          "type": "address"
        }
      ],
      "name": "Paused",
      "type": "event"
    },
    {
      "anonymous": false,
      "inputs": [
        {
          "indexed": false,
          "internalType": "address",
          "name": "token",
          "type": "address"
        },
        {
          "indexed": false,
          "internalType": "address",
          "name": "account",
          "type": "address"
        }
      ],
      "name": "PausedAsset",
      "type": "event"
    },
    {
      "anonymous": false,
      "inputs": [
        {
          "indexed": false,
          "internalType": "uint256",
          "name": "value",
          "type": "uint256"
        }
      ],
      "name": "SetAmpFactor",
      "type": "event"
    },
    {
      "anonymous": false,
      "inputs": [
        {
          "indexed": false,
          "internalType": "address",
          "name": "addr",
          "type": "address"
        }
      ],
      "name": "SetDev",
      "type": "event"
    },
    {
      "anonymous": false,
      "inputs": [
        {
          "indexed": false,
          "internalType": "uint256",
          "name": "lpDividendRatio",
          "type": "uint256"
        },
        {
          "indexed": false,
          "internalType": "uint256",
          "name": "retentionRatio",
          "type": "uint256"
        }
      ],
      "name": "SetFee",
      "type": "event"
    },
    {
      "anonymous": false,
      "inputs": [
        {
          "indexed": false,
          "internalType": "address",
          "name": "addr",
          "type": "address"
        }
      ],
      "name": "SetFeeTo",
      "type": "event"
    },
    {
      "anonymous": false,
      "inputs": [
        {
          "indexed": false,
          "internalType": "uint256",
          "name": "value",
          "type": "uint256"
        }
      ],
      "name": "SetHaircutRate",
      "type": "event"
    },
    {
      "anonymous": false,
      "inputs": [
        {
          "indexed": false,
          "internalType": "address",
          "name": "addr",
          "type": "address"
        }
      ],
      "name": "SetMasterWombat",
      "type": "event"
    },
    {
      "anonymous": false,
      "inputs": [
        {
          "indexed": false,
          "internalType": "uint256",
          "name": "value",
          "type": "uint256"
        }
      ],
      "name": "SetMintFeeThreshold",
      "type": "event"
    },
    {
      "anonymous": false,
      "inputs": [
        {
          "indexed": true,
          "internalType": "address",
          "name": "sender",
          "type": "address"
        },
        {
          "indexed": false,
          "internalType": "address",
          "name": "fromToken",
          "type": "address"
        },
        {
          "indexed": false,
          "internalType": "address",
          "name": "toToken",
          "type": "address"
        },
        {
          "indexed": false,
          "internalType": "uint256",
          "name": "fromAmount",
          "type": "uint256"
        },
        {
          "indexed": false,
          "internalType": "uint256",
          "name": "toAmount",
          "type": "uint256"
        },
        {
          "indexed": true,
          "internalType": "address",
          "name": "to",
          "type": "address"
        }
      ],
      "name": "Swap",
      "type": "event"
    },
    {
      "anonymous": false,
      "inputs": [
        {
          "indexed": false,
          "internalType": "address",
          "name": "token",
          "type": "address"
        },
        {
          "indexed": false,
          "internalType": "uint256",
          "name": "amount",
          "type": "uint256"
        },
        {
          "indexed": false,
          "internalType": "address",
          "name": "to",
          "type": "address"
        }
      ],
      "name": "TransferTipBucket",
      "type": "event"
    },
    {
      "anonymous": false,
      "inputs": [
        {
          "indexed": false,
          "internalType": "address",
          "name": "account",
          "type": "address"
        }
      ],
      "name": "Unpaused",
      "type": "event"
    },
    {
      "anonymous": false,
      "inputs": [
        {
          "indexed": false,
          "internalType": "address",
          "name": "token",
          "type": "address"
        },
        {
          "indexed": false,
          "internalType": "address",
          "name": "account",
          "type": "address"
        }
      ],
      "name": "UnpausedAsset",
      "type": "event"
    },
    {
      "anonymous": false,
      "inputs": [
        {
          "indexed": true,
          "internalType": "address",
          "name": "sender",
          "type": "address"
        },
        {
          "indexed": false,
          "internalType": "address",
          "name": "token",
          "type": "address"
        },
        {
          "indexed": false,
          "internalType": "uint256",
          "name": "amount",
          "type": "uint256"
        },
        {
          "indexed": false,
          "internalType": "uint256",
          "name": "liquidity",
          "type": "uint256"
        },
        {
          "indexed": true,
          "internalType": "address",
          "name": "to",
          "type": "address"
        }
      ],
      "name": "Withdraw",
      "type": "event"
    },
    {
      "inputs": [
        {
          "internalType": "address",
          "name": "token",
          "type": "address"
        },
        {
          "internalType": "address",
          "name": "asset",
          "type": "address"
        }
      ],
      "name": "addAsset",
      "outputs": [],
      "stateMutability": "nonpayable",
      "type": "function"
    },
    {
      "inputs": [
        {
          "internalType": "address",
          "name": "token",
          "type": "address"
        }
      ],
      "name": "addressOfAsset",
      "outputs": [
        {
          "internalType": "address",
          "name": "",
          "type": "address"
        }
      ],
      "stateMutability": "view",
      "type": "function"
    },
    {
      "inputs": [],
      "name": "ampFactor",
      "outputs": [
        {
          "internalType": "uint256",
          "name": "",
          "type": "uint256"
        }
      ],
      "stateMutability": "view",
      "type": "function"
    },
    {
      "inputs": [
        {
          "internalType": "address",
          "name": "token",
          "type": "address"
        },
        {
          "internalType": "uint256",
          "name": "amount",
          "type": "uint256"
        },
        {
          "internalType": "uint256",
          "name": "minimumLiquidity",
          "type": "uint256"
        },
        {
          "internalType": "address",
          "name": "to",
          "type": "address"
        },
        {
          "internalType": "uint256",
          "name": "deadline",
          "type": "uint256"
        },
        {
          "internalType": "bool",
          "name": "shouldStake",
          "type": "bool"
        }
      ],
      "name": "deposit",
      "outputs": [
        {
          "internalType": "uint256",
          "name": "liquidity",
          "type": "uint256"
        }
      ],
      "stateMutability": "nonpayable",
      "type": "function"
    },
    {
      "inputs": [],
      "name": "dev",
      "outputs": [
        {
          "internalType": "address",
          "name": "",
          "type": "address"
        }
      ],
      "stateMutability": "view",
      "type": "function"
    },
    {
      "inputs": [],
      "name": "endCovRatio",
      "outputs": [
        {
          "internalType": "uint128",
          "name": "",
          "type": "uint128"
        }
      ],
      "stateMutability": "view",
      "type": "function"
    },
    {
      "inputs": [
        {
          "internalType": "address",
          "name": "token",
          "type": "address"
        }
      ],
      "name": "exchangeRate",
      "outputs": [
        {
          "internalType": "uint256",
          "name": "xr",
          "type": "uint256"
        }
      ],
      "stateMutability": "view",
      "type": "function"
    },
    {
      "inputs": [],
      "name": "feeTo",
      "outputs": [
        {
          "internalType": "address",
          "name": "",
          "type": "address"
        }
      ],
      "stateMutability": "view",
      "type": "function"
    },
    {
      "inputs": [
        {
          "internalType": "address",
          "name": "token",
          "type": "address"
        },
        {
          "internalType": "uint256",
          "name": "amount",
          "type": "uint256"
        }
      ],
      "name": "fillPool",
      "outputs": [],
      "stateMutability": "nonpayable",
      "type": "function"
    },
    {
      "inputs": [],
      "name": "getTokens",
      "outputs": [
        {
          "internalType": "address[]",
          "name": "",
          "type": "address[]"
        }
      ],
      "stateMutability": "view",
      "type": "function"
    },
    {
      "inputs": [],
      "name": "globalEquilCovRatio",
      "outputs": [
        {
          "internalType": "uint256",
          "name": "equilCovRatio",
          "type": "uint256"
        },
        {
          "internalType": "uint256",
          "name": "invariantInUint",
          "type": "uint256"
        }
      ],
      "stateMutability": "view",
      "type": "function"
    },
    {
      "inputs": [],
      "name": "haircutRate",
      "outputs": [
        {
          "internalType": "uint256",
          "name": "",
          "type": "uint256"
        }
      ],
      "stateMutability": "view",
      "type": "function"
    },
    {
      "inputs": [
        {
          "internalType": "uint256",
          "name": "ampFactor_",
          "type": "uint256"
        },
        {
          "internalType": "uint256",
          "name": "haircutRate_",
          "type": "uint256"
        }
      ],
      "name": "initialize",
      "outputs": [],
      "stateMutability": "nonpayable",
      "type": "function"
    },
    {
      "inputs": [
        {
          "internalType": "address",
          "name": "token",
          "type": "address"
        }
      ],
      "name": "isPaused",
      "outputs": [
        {
          "internalType": "bool",
          "name": "",
          "type": "bool"
        }
      ],
      "stateMutability": "view",
      "type": "function"
    },
    {
      "inputs": [],
      "name": "lpDividendRatio",
      "outputs": [
        {
          "internalType": "uint256",
          "name": "",
          "type": "uint256"
        }
      ],
      "stateMutability": "view",
      "type": "function"
    },
    {
      "inputs": [],
      "name": "masterWombat",
      "outputs": [
        {
          "internalType": "address",
          "name": "",
          "type": "address"
        }
      ],
      "stateMutability": "view",
      "type": "function"
    },
    {
      "inputs": [
        {
          "internalType": "address",
          "name": "token",
          "type": "address"
        }
      ],
      "name": "mintFee",
      "outputs": [
        {
          "internalType": "uint256",
          "name": "feeCollected",
          "type": "uint256"
        }
      ],
      "stateMutability": "nonpayable",
      "type": "function"
    },
    {
      "inputs": [],
      "name": "mintFeeThreshold",
      "outputs": [
        {
          "internalType": "uint256",
          "name": "",
          "type": "uint256"
        }
      ],
      "stateMutability": "view",
      "type": "function"
    },
    {
      "inputs": [],
      "name": "owner",
      "outputs": [
        {
          "internalType": "address",
          "name": "",
          "type": "address"
        }
      ],
      "stateMutability": "view",
      "type": "function"
    },
    {
      "inputs": [],
      "name": "pause",
      "outputs": [],
      "stateMutability": "nonpayable",
      "type": "function"
    },
    {
      "inputs": [
        {
          "internalType": "address",
          "name": "token",
          "type": "address"
        }
      ],
      "name": "pauseAsset",
      "outputs": [],
      "stateMutability": "nonpayable",
      "type": "function"
    },
    {
      "inputs": [],
      "name": "paused",
      "outputs": [
        {
          "internalType": "bool",
          "name": "",
          "type": "bool"
        }
      ],
      "stateMutability": "view",
      "type": "function"
    },
    {
      "inputs": [
        {
          "internalType": "address",
          "name": "fromToken",
          "type": "address"
        },
        {
          "internalType": "address",
          "name": "toToken",
          "type": "address"
        },
        {
          "internalType": "int256",
          "name": "toAmount",
          "type": "int256"
        }
      ],
      "name": "quoteAmountIn",
      "outputs": [
        {
          "internalType": "uint256",
          "name": "amountIn",
          "type": "uint256"
        },
        {
          "internalType": "uint256",
          "name": "haircut",
          "type": "uint256"
        }
      ],
      "stateMutability": "view",
      "type": "function"
    },
    {
      "inputs": [
        {
          "internalType": "address",
          "name": "token",
          "type": "address"
        },
        {
          "internalType": "uint256",
          "name": "amount",
          "type": "uint256"
        }
      ],
      "name": "quotePotentialDeposit",
      "outputs": [
        {
          "internalType": "uint256",
          "name": "liquidity",
          "type": "uint256"
        },
        {
          "internalType": "uint256",
          "name": "reward",
          "type": "uint256"
        }
      ],
      "stateMutability": "view",
      "type": "function"
    },
    {
      "inputs": [
        {
          "internalType": "address",
          "name": "fromToken",
          "type": "address"
        },
        {
          "internalType": "address",
          "name": "toToken",
          "type": "address"
        },
        {
          "internalType": "int256",
          "name": "fromAmount",
          "type": "int256"
        }
      ],
      "name": "quotePotentialSwap",
      "outputs": [
        {
          "internalType": "uint256",
          "name": "potentialOutcome",
          "type": "uint256"
        },
        {
          "internalType": "uint256",
          "name": "haircut",
          "type": "uint256"
        }
      ],
      "stateMutability": "view",
      "type": "function"
    },
    {
      "inputs": [
        {
          "internalType": "address",
          "name": "token",
          "type": "address"
        },
        {
          "internalType": "uint256",
          "name": "liquidity",
          "type": "uint256"
        }
      ],
      "name": "quotePotentialWithdraw",
      "outputs": [
        {
          "internalType": "uint256",
          "name": "amount",
          "type": "uint256"
        },
        {
          "internalType": "uint256",
          "name": "fee",
          "type": "uint256"
        }
      ],
      "stateMutability": "view",
      "type": "function"
    },
    {
      "inputs": [
        {
          "internalType": "address",
          "name": "fromToken",
          "type": "address"
        },
        {
          "internalType": "address",
          "name": "toToken",
          "type": "address"
        },
        {
          "internalType": "uint256",
          "name": "liquidity",
          "type": "uint256"
        }
      ],
      "name": "quotePotentialWithdrawFromOtherAsset",
      "outputs": [
        {
          "internalType": "uint256",
          "name": "amount",
          "type": "uint256"
        },
        {
          "internalType": "uint256",
          "name": "withdrewAmount",
          "type": "uint256"
        }
      ],
      "stateMutability": "view",
      "type": "function"
    },
    {
      "inputs": [
        {
          "internalType": "address",
          "name": "token",
          "type": "address"
        }
      ],
      "name": "removeAsset",
      "outputs": [],
      "stateMutability": "nonpayable",
      "type": "function"
    },
    {
      "inputs": [],
      "name": "renounceOwnership",
      "outputs": [],
      "stateMutability": "nonpayable",
      "type": "function"
    },
    {
      "inputs": [],
      "name": "retentionRatio",
      "outputs": [
        {
          "internalType": "uint256",
          "name": "",
          "type": "uint256"
        }
      ],
      "stateMutability": "view",
      "type": "function"
    },
    {
      "inputs": [
        {
          "internalType": "uint256",
          "name": "ampFactor_",
          "type": "uint256"
        }
      ],
      "name": "setAmpFactor",
      "outputs": [],
      "stateMutability": "nonpayable",
      "type": "function"
    },
    {
      "inputs": [
        {
          "internalType": "uint128",
          "name": "startCovRatio_",
          "type": "uint128"
        },
        {
          "internalType": "uint128",
          "name": "endCovRatio_",
          "type": "uint128"
        }
      ],
      "name": "setCovRatioFeeParam",
      "outputs": [],
      "stateMutability": "nonpayable",
      "type": "function"
    },
    {
      "inputs": [
        {
          "internalType": "address",
          "name": "dev_",
          "type": "address"
        }
      ],
      "name": "setDev",
      "outputs": [],
      "stateMutability": "nonpayable",
      "type": "function"
    },
    {
      "inputs": [
        {
          "internalType": "uint256",
          "name": "lpDividendRatio_",
          "type": "uint256"
        },
        {
          "internalType": "uint256",
          "name": "retentionRatio_",
          "type": "uint256"
        }
      ],
      "name": "setFee",
      "outputs": [],
      "stateMutability": "nonpayable",
      "type": "function"
    },
    {
      "inputs": [
        {
          "internalType": "address",
          "name": "feeTo_",
          "type": "address"
        }
      ],
      "name": "setFeeTo",
      "outputs": [],
      "stateMutability": "nonpayable",
      "type": "function"
    },
    {
      "inputs": [
        {
          "internalType": "uint256",
          "name": "haircutRate_",
          "type": "uint256"
        }
      ],
      "name": "setHaircutRate",
      "outputs": [],
      "stateMutability": "nonpayable",
      "type": "function"
    },
    {
      "inputs": [
        {
          "internalType": "address",
          "name": "masterWombat_",
          "type": "address"
        }
      ],
      "name": "setMasterWombat",
      "outputs": [],
      "stateMutability": "nonpayable",
      "type": "function"
    },
    {
      "inputs": [
        {
          "internalType": "uint256",
          "name": "mintFeeThreshold_",
          "type": "uint256"
        }
      ],
      "name": "setMintFeeThreshold",
      "outputs": [],
      "stateMutability": "nonpayable",
      "type": "function"
    },
    {
      "inputs": [],
      "name": "startCovRatio",
      "outputs": [
        {
          "internalType": "uint128",
          "name": "",
          "type": "uint128"
        }
      ],
      "stateMutability": "view",
      "type": "function"
    },
    {
      "inputs": [
        {
          "internalType": "address",
          "name": "fromToken",
          "type": "address"
        },
        {
          "internalType": "address",
          "name": "toToken",
          "type": "address"
        },
        {
          "internalType": "uint256",
          "name": "fromAmount",
          "type": "uint256"
        },
        {
          "internalType": "uint256",
          "name": "minimumToAmount",
          "type": "uint256"
        },
        {
          "internalType": "address",
          "name": "to",
          "type": "address"
        },
        {
          "internalType": "uint256",
          "name": "deadline",
          "type": "uint256"
        }
      ],
      "name": "swap",
      "outputs": [
        {
          "internalType": "uint256",
          "name": "actualToAmount",
          "type": "uint256"
        },
        {
          "internalType": "uint256",
          "name": "haircut",
          "type": "uint256"
        }
      ],
      "stateMutability": "nonpayable",
      "type": "function"
    },
    {
      "inputs": [
        {
          "internalType": "address",
          "name": "token",
          "type": "address"
        }
      ],
      "name": "tipBucketBalance",
      "outputs": [
        {
          "internalType": "uint256",
          "name": "balance",
          "type": "uint256"
        }
      ],
      "stateMutability": "view",
      "type": "function"
    },
    {
      "inputs": [
        {
          "internalType": "address",
          "name": "newOwner",
          "type": "address"
        }
      ],
      "name": "transferOwnership",
      "outputs": [],
      "stateMutability": "nonpayable",
      "type": "function"
    },
    {
      "inputs": [
        {
          "internalType": "address",
          "name": "token",
          "type": "address"
        },
        {
          "internalType": "uint256",
          "name": "amount",
          "type": "uint256"
        },
        {
          "internalType": "address",
          "name": "to",
          "type": "address"
        }
      ],
      "name": "transferTipBucket",
      "outputs": [],
      "stateMutability": "nonpayable",
      "type": "function"
    },
    {
      "inputs": [],
      "name": "unpause",
      "outputs": [],
      "stateMutability": "nonpayable",
      "type": "function"
    },
    {
      "inputs": [
        {
          "internalType": "address",
          "name": "token",
          "type": "address"
        }
      ],
      "name": "unpauseAsset",
      "outputs": [],
      "stateMutability": "nonpayable",
      "type": "function"
    },
    {
      "inputs": [
        {
          "internalType": "address",
          "name": "token",
          "type": "address"
        },
        {
          "internalType": "uint256",
          "name": "liquidity",
          "type": "uint256"
        },
        {
          "internalType": "uint256",
          "name": "minimumAmount",
          "type": "uint256"
        },
        {
          "internalType": "address",
          "name": "to",
          "type": "address"
        },
        {
          "internalType": "uint256",
          "name": "deadline",
          "type": "uint256"
        }
      ],
      "name": "withdraw",
      "outputs": [
        {
          "internalType": "uint256",
          "name": "amount",
          "type": "uint256"
        }
      ],
      "stateMutability": "nonpayable",
      "type": "function"
    },
    {
      "inputs": [
        {
          "internalType": "address",
          "name": "fromToken",
          "type": "address"
        },
        {
          "internalType": "address",
          "name": "toToken",
          "type": "address"
        },
        {
          "internalType": "uint256",
          "name": "liquidity",
          "type": "uint256"
        },
        {
          "internalType": "uint256",
          "name": "minimumAmount",
          "type": "uint256"
        },
        {
          "internalType": "address",
          "name": "to",
          "type": "address"
        },
        {
          "internalType": "uint256",
          "name": "deadline",
          "type": "uint256"
        }
      ],
      "name": "withdrawFromOtherAsset",
      "outputs": [
        {
          "internalType": "uint256",
          "name": "toAmount",
          "type": "uint256"
        }
      ],
      "stateMutability": "nonpayable",
      "type": "function"
    }
  ],
  "transactionHash": "0xd1e97ea601a688a11a954fbd5cb3999698196aa1e1f62e6b87da7447be20d2f9",
  "args": [],
  "numDeployments": 1,
  "solcInputHash": "3563e32619396922f0d2286a3eca3f9e",
  "bytecode": "0x6080806040523461001657614c99908161001c8239f35b600080fdfe608080604052600436101561001357600080fd5b600090813560e01c908163017b82921461292d57508063017e7e58146129065780630705999d14612893578063070f81d9146126a057806309a5fca3146122945780630f91f06f14611e915780633753b14a14611de05780633bd61ba814611db95780633f4ba83a14611d1c5780634a5e42b114611bba5780634a6fee0e14611b265780634fdd64e514611b1257806352f7c98814611a565780635b14f18314611a195780635c975abb146119f65780635cfe092e146119d857806361858e231461193e5780636281baef146115da5780636922d5ca146115bc578063715018a61461156057806374cbbdb91461153e578063815bfd29146115205780638456cb59146114c55780638a2dfe09146112ed5780638da5cb5b146112c6578063907448ed1461123957806391cca3db1461121257806393aeea02146110bf5780639908fc8b14610e6e5780639abacb4114610da85780639e4416b714610d4a578063a4275ceb1461096b578063aa6ca808146108a5578063d043c56514610857578063d0dd0e5614610839578063d30ffeda14610815578063d477f05f146107a2578063da4899971461065e578063dc3b7c8b1461063a578063e4a3011614610487578063e9249cc714610457578063f2fde38b146103b0578063f46901ed1461033d578063f57e84d5146102b5578063f8b49e7214610281578063fb7f5cc2146102595763fca8f3081461022657600080fd5b3461025657604061024a61024461023c366129d4565b929092613775565b91614600565b82519182526020820152f35b80fd5b503461025657806003193601126102565760206001600160801b036101085416604051908152f35b50346102565760203660031901126102565760206102ad6102a86102a3612949565b612fa6565b614a90565b604051908152f35b5034610256576020366003190112610256576004356102d2612a1f565b670de0b6b3a76400008111610313576020817fc6e60196bbe5909add58d5ae8a27082013670bce0855321773c33085af5c32439260cb55604051908152a180f35b60046040517f12b019e1000000000000000000000000000000000000000000000000000000008152fd5b5034610256576020366003190112610256577ff6b59ffc88fbb27f33470b919e00b41139ee340eb349521f0cbbc1504ce29c3e60206001600160a01b03610382612949565b61038a612a1f565b61039381612e45565b16806001600160a01b031960d054161760d055604051908152a180f35b5034610256576020366003190112610256576103ca612949565b6103d2612a1f565b6001600160a01b038116156103ed576103ea90612a77565b80f35b608460405162461bcd60e51b815260206004820152602660248201527f4f776e61626c653a206e6577206f776e657220697320746865207a65726f206160448201527f64647265737300000000000000000000000000000000000000000000000000006064820152fd5b50346102565760203660031901126102565760206001600160a01b0361047e6102a3612949565b16604051908152f35b50346102565761049636612a09565b9082549160ff8360081c16159182809361062d575b8015610616575b156105ac5760ff198481166001178655938361059b575b506104e360ff865460081c166104de81612d87565b612d87565b6104ec33612a77565b84549361050c60ff8660081c1661050281612d87565b6001606555612d87565b6097541660975560ca5560cb55670de0b6b3a764000060cd55336001600160a01b031960cf54161760cf55610563575b506101087718fae27693b40000000000000000000014d1120d7b1600008282541617905580f35b61ff00191681557f7f26b83ff96e1f2b6a682f133852f6798a09c465da95921460cefb3847402498602060405160018152a13861053c565b61ffff1916610101178555386104c9565b608460405162461bcd60e51b815260206004820152602e60248201527f496e697469616c697a61626c653a20636f6e747261637420697320616c72656160448201527f647920696e697469616c697a65640000000000000000000000000000000000006064820152fd5b50303b1580156104b25750600160ff8516146104b2565b50600160ff8516106104ab565b50346102565760203660031901126102565760206102ad610659612949565b6147c1565b503461025657604036600319011261025657610678612949565b610680612975565b610688612a1f565b61069181612e45565b61069a82612e45565b6106bd826001600160a01b0380911660005260d460205260406000205416151590565b610778576001600160a01b03809116911680835260d460205260408320826001600160a01b031982541617905560d35460d5602052806040852055680100000000000000008110156107645761073b61071d82600185940160d355612df8565b819391549060031b916001600160a01b03809116831b921b19161790565b90557f0bb5715f0f217c2fe9a0c877ea87d474380c641102f3440ee2a4c8b9d97909188380a380f35b602484634e487b7160e01b81526041600452fd5b60046040517f8991c4c4000000000000000000000000000000000000000000000000000000008152fd5b5034610256576020366003190112610256577f8daa6bb00de042a7d51816fcee4a3d5c1e91a2128fd64fa1a9a38afa0d26beb560206001600160a01b036107e7612949565b6107ef612a1f565b6107f881612e45565b16806001600160a01b031960cf54161760cf55604051908152a180f35b50346102565760203660031901126102565760206102ad610834612949565b614906565b5034610256578060031936011261025657602060cb54604051908152f35b5034610256576020366003190112610256577f935ce123b6388f8dbf76890f8240a48198f1e0a884f26939aa604a46bb65b7066020600435610897612a1f565b8060ce55604051908152a180f35b5034610256578060031936011261025657604051809160d354908183526020809301809260d383527f915c3eb987b20e1af620c1403197bf687fb7f18513b3a73fde6e78c7072c41a690835b81811061094e5750505084610907910385612ae9565b60405193838594850191818652518092526040850193925b82811061092e57505050500390f35b83516001600160a01b03168552869550938101939281019260010161091f565b82546001600160a01b0316845292860192600192830192016108f1565b503461025657606036600319011261025657610985612949565b61098d612975565b610998604435612d18565b6109a28183612d49565b6109ab82612fa6565b91836109b683612fa6565b6001600160a01b036109ca604435876139d7565b5050951660405163961be39160e01b8152602081600481855afa8015610c2b57610a0a886001600160781b036020936004958991610d33575b5016612b2a565b926040519283809263705727b560e01b82525afa8015610c2b57610a42918591610c83575b506001600160781b036044359116612b2a565b906040519263961be39160e01b84526020846004816001600160a01b0385165afa938415610cfd578594610d08575b5060206001600160a01b039160046040518094819363705727b560e01b8352165afa8015610cfd5788610ae895610ae295610ae295610ad0956001600160a01b039a95610cdc575b506001600160781b038060ca549616931690613c7d565b610adc60cb5482612ba6565b90612b2a565b93612fa6565b92169260405163961be39160e01b8152602081600481885afa8015610c4e576001600160781b038391610b22938991610cbd575016612b2a565b60405163705727b560e01b8152602081600481895afa8015610cb257610b5b918891610c8357506001600160781b036044359116612b2a565b610b6e81610b698585612b4d565b612bd0565b916001600160801b0361010854168311610c59575b505050604051926020846004816339420b4560e11b988982525afa918215610c4e57610bc46020936004926001600160a01b03978a92610c36575b50612c39565b9560405195869384928352165afa918215610c2b5790610bed929160409592610bfa5750612c39565b9082519182526020820152f35b610c1d91925060203d602011610c24575b610c158183612ae9565b810190612b5a565b9038610bbe565b503d610c0b565b6040513d86823e3d90fd5b610c1d919250863d8811610c2457610c158183612ae9565b6040513d88823e3d90fd5b93610c758193610c70610adc94610c7a9798612bd0565b612c84565b612ba6565b90388080610b83565b610ca5915060203d602011610cab575b610c9d8183612ae9565b810190612b0b565b38610a2f565b503d610c93565b6040513d89823e3d90fd5b610cd6915060203d602011610cab57610c9d8183612ae9565b38610a03565b610cf691955060203d602011610cab57610c9d8183612ae9565b9338610ab9565b6040513d87823e3d90fd5b6001600160a01b03919450610d2b602091823d8411610cab57610c9d8183612ae9565b949150610a71565b610cd69150853d8711610cab57610c9d8183612ae9565b503461025657602036600319011261025657600435610d67612a1f565b670de0b6b3a76400008111610313576020817f294c562dcfcd9be941287844539aeba4ae641cd1fc9a2883337c6b2e87cbd98a9260ca55604051908152a180f35b503461025657602036600319011261025657610dc2612949565b610dca612ecf565b6001600160a01b03811680835260c960205260ff60408420541615610e4457825260c960209081526040808420805460ff1916905580516001600160a01b03909316835233918301919091527fdb198487a4c70aa000c3b1020f52688b4b86d3ebcedc84a793e03ed3b480902c9190819081015b0390a180f35b60046040517f855b7373000000000000000000000000000000000000000000000000000000008152fd5b503461025657610e7d3661298b565b610e8b959391929495613003565b610e93612e7f565b610e9d8685612d49565b811561109557610eb590610eb084612e45565b6132d6565b610ebe83612ee3565b610ec783612fa6565b91610ed186612fa6565b91604051956339420b4560e11b8088526020886004816001600160a01b0389165afa97881561104457600098611074575b506040519081526020816004816001600160a01b038a165afa908115611044576001600160a01b03610f6d8a610f67610f608b610f78988c610f5a86610f548e9c8b9c600091611055575b508d612f6c565b93612f6c565b92613e09565b9d90612c39565b9b612c39565b981696163387613058565b6001600160a01b0383163b156110505760006040518094639e79eaa560e01b825281836001600160a01b0382610fc88d8a60048401602090939291936001600160a01b0360408201951681520152565b0393165af18015611044576040976001600160a01b03948592611035575b5088519586521660208501528684015284606084015216907f54787c404bb33c88e86f4baf88183a3b0141d0a848e6a9f7a13b66ae3a9b73d160803392a3600160655582519182526020820152f35b61103e90612abf565b89610fe6565b6040513d6000823e3d90fd5b600080fd5b61106e915060203d602011610c2457610c158183612ae9565b38610f4d565b61108e91985060203d602011610c2457610c158183612ae9565b9689610f02565b60046040517fb483c10f000000000000000000000000000000000000000000000000000000008152fd5b5034610256576060366003190112610256576110d9612949565b602435906044356001600160a01b0380821691828103611050576110fb612a1f565b61110484612fa6565b9061110e85614906565b86116103135782879216906040516339420b4560e11b8152602081600481865afa8015610c2b576111479185916111f4575b5088612c39565b823b156111f057604051639e79eaa560e01b81526001600160a01b0392909216600483015260248201529082908290604490829084905af180156111e5576111c7575b50927f5f22a22ebe30686f71d42a70ccacf870a335e22ee2ac6d257af1b2551582eda692856060936040519316835260208301526040820152a180f35b6111d49094939294612abf565b6111e1579091843861118a565b8480fd5b6040513d84823e3d90fd5b8380fd5b61120c915060203d8111610c2457610c158183612ae9565b38611140565b503461025657806003193601126102565760206001600160a01b0360cf5416604051908152f35b50346102565760403660031901126102565760206001600160a01b0361125d612949565b611277611270602435926102a384612d18565b91826139d7565b94919290506004604051809581936339420b4560e11b8352165afa918215610c2b5790610bed9291604095926112ad5750612c39565b610c1d91925060203d8111610c2457610c158183612ae9565b503461025657806003193601126102565760206001600160a01b0360335416604051908152f35b5034610256578060031936011261025657808160ca54928060d3545b80831061134357604085610bed8861133e6113398961133461132a8761371a565b60028305906136c2565b61375a565b613775565b613dcb565b90919361138361135286612df8565b91906001600160a01b03928391549060031b1c166001600160a01b0380911660005260d46020526040600020541690565b166040519063961be39160e01b82526020908183600481845afa928315610c4e5786936114a1575b50816004916040519283809263705727b560e01b82525afa918215610c4e578692611484575b50506001600160781b0380911691821561147757166113ef9061371a565b948180600297888205611401916136c2565b9061140b9161375a565b918291611417916136c2565b966114218a61371a565b90820561142d916136c2565b906114379161375a565b61144091613701565b61144991613737565b6114529061369e565b670de0b6b3a76400009005611466916136c2565b9361147090614a3e565b9190611309565b5050509361147090614a3e565b61149a9250803d10610cab57610c9d8183612ae9565b38806113d1565b60049193506114bd8391823d8411610cab57610c9d8183612ae9565b9391506113ab565b50346102565780600319360112610256576114de612ecf565b6114e6612e7f565b600160ff1960975416176097557f62e78cea01bee320cd4e420270b5ea74000d11b0c9f74754ebdbfc544b05a2586020604051338152a180f35b5034610256578060031936011261025657602060cd54604051908152f35b503461025657806003193601126102565760206101085460801c604051908152f35b5034610256578060031936011261025657611579612a1f565b60006001600160a01b036033546001600160a01b03198116603355167f8be0079c531659141344cd1fd0a4f28419497f9722a3daafe3b4186f6b6457e08280a380f35b5034610256578060031936011261025657602060cc54604051908152f35b50346102565760c0366003190112610256576115f4612949565b6024356044359161160361295f565b9260a4359081159182150361193a5761161a613003565b611622612e7f565b83156110955761163185612e45565b61163c6084356132d6565b61164583612ee3565b61164e83612fa6565b6001600160a01b039283821690611669878333888a16613058565b15611738576020600491604051928380926339420b4560e11b82525afa90811561172d57926116d0926116ca89937ff5dd9317b9e63ac316ce44acc85f670b54b339cfa3e9076e1dd55065b922314b979660209c91611710575b5089612f6c565b90613308565b945b6117008660405193849316963396846040919493926001600160a01b03606083019616825260208201520152565b0390a36001606555604051908152f35b61172791508c3d8111610c2457610c158183612ae9565b386116c3565b6040513d8a823e3d90fd5b9061174b8460d199949895995416612e45565b604051966339420b4560e11b88526020978881600481875afa908115610cfd57611789939291611782918791611923575089612f6c565b3092613308565b60d1546040517f095ea7b30000000000000000000000000000000000000000000000000000000081529089166001600160a01b0316600482015260248101829052909690818160448187875af18015610c2b576118f6575b508760d1541691604051907faf929a8000000000000000000000000000000000000000000000000000000000825260048201528181602481865afa918215610c2b5784926118c8575b5050813b156118c45782916064839260405194859384927f90210d7e00000000000000000000000000000000000000000000000000000000845260048401528b60248401528c891660448401525af180156111e5576118b0575b50506020947ff5dd9317b9e63ac316ce44acc85f670b54b339cfa3e9076e1dd55065b922314b916116d2565b6118ba8291612abf565b6102565780611884565b8280fd5b90809250813d83116118ef575b6118df8183612ae9565b810103126110505751388061182a565b503d6118d5565b61191590823d841161191c575b61190d8183612ae9565b810190612feb565b50386117e1565b503d611903565b61172791508b3d8d11610c2457610c158183612ae9565b8580fd5b50346102565760403660031901126102565761195b6102a3612949565b6040516339420b4560e11b81526020816004816001600160a01b0386165afa9081156119cd576119a2929161199c91604095916119af575b50602435612f6c565b90613490565b8351928352602083015250f35b6119c7915060203d8111610c2457610c158183612ae9565b38611993565b6040513d85823e3d90fd5b5034610256578060031936011261025657602060ce54604051908152f35b5034610256578060031936011261025657602060ff609754166040519015158152f35b50346102565760203660031901126102565760ff60406020926001600160a01b03611a42612949565b16815260c984522054166040519015158152f35b503461025657611a6536612a09565b90611a6e612a1f565b670de0b6b3a76400008183011161031357825b60d354811015611ad65780611acb6102a86001600160a01b03611aa6611ad195612df8565b90549060031b1c166001600160a01b0380911660005260d46020526040600020541690565b50614a3e565b611a81565b506040907f032dc6a2d839eb179729a55633fdf1c41a1fc4739394154117005db2b354b9b5928060cc558160cd5582519182526020820152a180f35b503461025657604061024a610244366129d4565b5034610256576040366003190112610256576004356001600160801b038082168092036110505760243590811680820361105057611b62612a1f565b670de0b6b3a76400008310908115611bb0575b506103135761010891837fffffffffffffffffffffffffffffffff0000000000000000000000000000000084549360801b1692161717905580f35b9050821138611b75565b503461025657602036600319011261025657611bd4612949565b611bdc612a1f565b611bff816001600160a01b0380911660005260d460205260406000205416151590565b15611cf2576001600160a01b038091169081835260d4602052604083208054906001600160a01b03198216905560d5602052604084205460d3549060001991828101908111611cde5761071d85611c58611c7d93612df8565b90549060031b1c169283895260d56020528060408a2055878952886040812055612df8565b905560d3548015611cca5701611c9281612df8565b8482549160031b1b1916905560d35516907f0fa1e4606af435f32f05b3804033d2933e691fab32ee74d2db6fa82d2741f1ea8380a380f35b602486634e487b7160e01b81526031600452fd5b602487634e487b7160e01b81526011600452fd5b60046040517fecb004d4000000000000000000000000000000000000000000000000000000008152fd5b5034610256578060031936011261025657611d35612ecf565b60975460ff811615611d755760ff19166097557f5db9ee0a495bf2e6ff9c91a7834c1ba4fdd244a5e8aa4e537bd38aeae4b073aa6020604051338152a180f35b606460405162461bcd60e51b815260206004820152601460248201527f5061757361626c653a206e6f74207061757365640000000000000000000000006044820152fd5b503461025657806003193601126102565760206001600160a01b0360d15416604051908152f35b503461025657602036600319011261025657611dfa612949565b611e02612ecf565b611e25816001600160a01b0380911660005260d460205260406000205416151590565b15611cf257610e3e81611e587fdcb65c0553aaa433aadd180404ff195259c48f78aa50f877ebcb4bb215129a4e93612ee3565b6001600160a01b031680845260c960209081526040808620805460ff191660011790558051928352339183019190915290918291820190565b503461025657611ee2611ed9611ea63661298b565b611eb597939592969197613003565b611ebd612e7f565b611ec688612e45565b611ecf86612d18565b610eb08584612d49565b6102a381612ee3565b92611eec82612fa6565b906001600160a01b03851694611f0485873381613058565b600095611f1082614a4d565b611f1a86836139d7565b509097823b1561025657604051632770a7eb60e21b81526001600160a01b038416600482015260248101899052818160448183885af180156111e557612285575b5090823b1561226d576040516313f3df3160e31b8152896004820152828160248183885af180156119cd57908391612271575b5050823b1561226d576040519063d8b8785360e01b82526004820152818160248183875af180156111e557908291612259575b505060405163705727b560e01b91828252602082600481875afa91821561224c57819261222b575b506001600160781b0380921615159384612172575b50505050612161576001600160a01b03831695604051936339420b4560e11b948581526020816004818c5afa80156110445761204695610f5a92600092612140575b50612f6c565b50604051918252602082600481885afa9081156110445761206e9260009261211f5750612c39565b92803b1561105057604051639e79eaa560e01b81526001600160a01b038616600482015260248101859052906000908290604490829084905af18015611044576020957ffb80d861da582b723be2d19507ce3e03851820c464abea89156ec77e089b1ad9926001600160a01b0392612110575b506117006040519283921695873396846040919493926001600160a01b03606083019616825260208201520152565b61211990612abf565b876120e1565b61213991925060203d602011610c2457610c158183612ae9565b9087610bbe565b61215a91925060203d602011610c2457610c158183612ae9565b908c612040565b60046040516316fde3bd60e21b8152fd5b90919293506040519363961be39160e01b8552602085600481855afa9485156119cd578395612209575b5060209060046040518094819382525afa9182156121fd5792662386f26fc10000949281926121d495916121de575b50169116612bd0565b1088808080611ffe565b6121f7915060203d602011610cab57610c9d8183612ae9565b8d6121cb565b604051903d90823e3d90fd5b602091955061222490823d8411610cab57610c9d8183612ae9565b949061219c565b61224591925060203d602011610cab57610c9d8183612ae9565b908b611fe9565b50604051903d90823e3d90fd5b61226290612abf565b61025657808a611fc1565b5080fd5b61227a90612abf565b61226d57818b611f8e565b61228e90612abf565b8a611f5b565b50346102565760a0366003190112610256576122ae612949565b6122b661295f565b6122be613003565b6122c6612e7f565b6122d1602435612d18565b6122da81612e45565b6122e56084356132d6565b6122ee82612fa6565b916123066024356001600160a01b0385163381613058565b6040516339420b4560e11b81526020816004816001600160a01b0388165afa908115610cfd578591612681575b5061234081604435612f6c565b9061234a85614a4d565b612363612359602435876139d7565b509190809461345f565b6001600160a01b0386163b1561105057604051632770a7eb60e21b81526001600160a01b03871660048201526024803590820152600090818180604481010381836001600160a01b038d165af180156111e557612672575b50906001600160a01b0387163b1561226d576040516313f3df3160e31b81528460048201528281602481836001600160a01b038d165af180156119cd5790839161265e575b50506001600160a01b0387163b1561226d576040519063d8b8785360e01b825260048201528181602481836001600160a01b038c165af180156111e55790829161264a575b505060405163705727b560e01b908181526020816004816001600160a01b038c165afa9081156119cd57906001600160781b0391849161262b575b50161515918261256d575b50506121615761249a91612c39565b926001600160a01b0381163b156111e157846040518092639e79eaa560e01b825281836001600160a01b03826124ea8b8b60048401602090939291936001600160a01b0360408201951681520152565b0393165af18015610cfd57612559575b50602093507ffb80d861da582b723be2d19507ce3e03851820c464abea89156ec77e089b1ad96001600160a01b036040519316928061170033948760243591846040919493926001600160a01b03606083019616825260208201520152565b6125638591612abf565b6111f057836124fa565b60405163961be39160e01b81529250906020836004816001600160a01b038c165afa9283156111e557829361260a575b506040519081526020816004816001600160a01b038c165afa9182156121fd576001600160781b036125e393662386f26fc1000095938293916125eb5750169116612bd0565b10388061248b565b612604915060203d602011610cab57610c9d8183612ae9565b386121cb565b61262491935060203d602011610cab57610c9d8183612ae9565b913861259d565b612644915060203d602011610cab57610c9d8183612ae9565b38612480565b61265390612abf565b610256578038612445565b61266790612abf565b61226d578138612400565b61267b90612abf565b386123bb565b61269a915060203d602011610c2457610c158183612ae9565b38612333565b5034610256576040366003190112610256576126ba612949565b906024356126c6612ecf565b6001600160a01b036126d784612fa6565b16604051632672469960e21b81526020908181600481865afa908115610cfd578591612866575b50604051906339420b4560e11b82528282600481875afa918215610c4e579061272e929187926128475750612f6c565b60405163961be39160e01b81528281600481875afa908115610c4e5761277d93926001600160781b0360d29361276d938a9161282a575b501690612b2a565b9184875252604085205490612b2a565b821161031357803b156118c45782809160246040518094819362b64f3d60e51b83528760048401525af180156119cd576127f9575b50604080516001600160a01b039094168452602084019190915290917f4941e18a2bcbb0f9fa0081238f26793a8ad8c202b913ae8bf5f7e523f68ff1379181908101610e3e565b916128247f4941e18a2bcbb0f9fa0081238f26793a8ad8c202b913ae8bf5f7e523f68ff13793612abf565b916127b2565b6128419150863d8811610cab57610c9d8183612ae9565b38612765565b61285f919250843d8611610c2457610c158183612ae9565b9038612040565b90508181813d831161288c575b61287d8183612ae9565b810103126111e15751386126fe565b503d612873565b5034610256576020366003190112610256577ffeb9010869b6ccec4557ddbbce947afeace5efc66cdff52c5e533c09336a8f2d60206001600160a01b036128d8612949565b6128e0612a1f565b6128e981612e45565b16806001600160a01b031960d154161760d155604051908152a180f35b503461025657806003193601126102565760206001600160a01b0360d05416604051908152f35b90503461226d578160031936011261226d5760209060ca548152f35b600435906001600160a01b038216820361105057565b606435906001600160a01b038216820361105057565b602435906001600160a01b038216820361105057565b60c0906003190112611050576001600160a01b03600435818116810361105057916024358281168103611050579160443591606435916084359081168103611050579060a43590565b6060906003190112611050576001600160a01b0390600435828116810361105057916024359081168103611050579060443590565b6040906003190112611050576004359060243590565b6001600160a01b03603354163303612a3357565b606460405162461bcd60e51b815260206004820152602060248201527f4f776e61626c653a2063616c6c6572206973206e6f7420746865206f776e65726044820152fd5b603354906001600160a01b0380911691826001600160a01b0319821617603355167f8be0079c531659141344cd1fd0a4f28419497f9722a3daafe3b4186f6b6457e0600080a3565b67ffffffffffffffff8111612ad357604052565b634e487b7160e01b600052604160045260246000fd5b90601f8019910116810190811067ffffffffffffffff821117612ad357604052565b9081602091031261105057516001600160781b03811681036110505790565b91908203918211612b3757565b634e487b7160e01b600052601160045260246000fd5b91908201809211612b3757565b90816020910312611050575160ff811681036110505790565b81810292918115918404141715612b3757565b8115612b90570490565b634e487b7160e01b600052601260045260246000fd5b90612bb091612b73565b6706f05b59d3b200008101809111612b3757670de0b6b3a7640000900490565b90670de0b6b3a764000091828102928184041490151715612b3757612bfc612c01928260011c90612b4d565b612b86565b90565b60ff6011199116019060ff8211612b3757565b60ff166012039060ff8211612b3757565b60ff16604d8111612b3757600a0a90565b9060ff81166012811015612c63575090612c5d612c58612c0193612c17565b612c28565b90612b86565b601210612c6e575090565b90612c7e612c58612c0193612c04565b90612b73565b610108548060801c91828411600014612ca8576004604051630c2b153f60e31b8152fd5b6001600160801b0382168411801590612d0e575b612d0557612c01936001600160801b0392831691612cee9190838111612cfa576000905b848303920391800203612b86565b60011c92031690612bd0565b838103800290612ce0565b50505050600090565b5080841115612cbc565b15612d1f57565b60046040517f3f3835e7000000000000000000000000000000000000000000000000000000008152fd5b6001600160a01b03908116911614612d5d57565b60046040517feeb7911f000000000000000000000000000000000000000000000000000000008152fd5b15612d8e57565b608460405162461bcd60e51b815260206004820152602b60248201527f496e697469616c697a61626c653a20636f6e7472616374206973206e6f74206960448201527f6e697469616c697a696e670000000000000000000000000000000000000000006064820152fd5b60d354811015612e2f5760d36000527f915c3eb987b20e1af620c1403197bf687fb7f18513b3a73fde6e78c7072c41a60190600090565b634e487b7160e01b600052603260045260246000fd5b6001600160a01b031615612e5557565b60046040517f0bd3e3ed000000000000000000000000000000000000000000000000000000008152fd5b60ff60975416612e8b57565b606460405162461bcd60e51b815260206004820152601060248201527f5061757361626c653a20706175736564000000000000000000000000000000006044820152fd5b6001600160a01b0360cf5416330361216157565b6001600160a01b031660005260c960205260ff60406000205416612f0357565b60046040517f8654830a000000000000000000000000000000000000000000000000000000008152fd5b60ff81166012811015612f475750612c58612c0191612c17565b601210612f545750600190565b612c58612f6091612c04565b8015612b905760010490565b9060ff81166012811015612f8b575090612c7e612c58612c0193612c17565b601210612f96575090565b90612c5d612c58612c0193612c04565b612fc9816001600160a01b0380911660005260d460205260406000205416151590565b15611cf2576001600160a01b0380911660005260d46020526040600020541690565b90816020910312611050575180151581036110505790565b600260655414613014576002606555565b606460405162461bcd60e51b815260206004820152601f60248201527f5265656e7472616e637947756172643a207265656e7472616e742063616c6c006044820152fd5b93929190604051602093848201927f23b872dd0000000000000000000000000000000000000000000000000000000084526001600160a01b039485809216602485015216604483015260648201526064815260a081019267ffffffffffffffff9682851088861117612ad357169060e0810184811088821117612ad3576040528484527f5361666545524332303a206c6f772d6c6576656c2063616c6c206661696c656460c0820152600080938192519082855af1903d156131f6573d9687116131e2576131479495966040519061313988601f19601f8401160183612ae9565b81528093873d92013e613203565b8051908282159283156131ca575b505050156131605750565b6084906040519062461bcd60e51b82526004820152602a60248201527f5361666545524332303a204552433230206f7065726174696f6e20646964206e60448201527f6f742073756363656564000000000000000000000000000000000000000000006064820152fd5b6131da9350820181019101612feb565b388281613155565b602483634e487b7160e01b81526041600452fd5b9150613147939495506060915b919290156132645750815115613217575090565b3b156132205790565b606460405162461bcd60e51b815260206004820152601d60248201527f416464726573733a2063616c6c20746f206e6f6e2d636f6e74726163740000006044820152fd5b8251909150156132775750805190602001fd5b6040519062461bcd60e51b82528160208060048301528251908160248401526000935b8285106132bd575050604492506000838284010152601f80199101168101030190fd5b848101820151868601604401529381019385935061329a565b42116132de57565b60046040517f549b6335000000000000000000000000000000000000000000000000000000008152fd5b6001600160a01b039192949361331d82614a4d565b6133278483613490565b5093909261333f84809961333a82612d18565b61345f565b1690813b1561105057604093845162b64f3d60e51b81526000966004820152868160248183885af1801561345557613442575b50823b1561193a5784519063283c3d8160e21b82526004820152858160248183875af1801561343857908691613424575b5050813b156111e15783517f40c10f190000000000000000000000000000000000000000000000000000000081526001600160a01b03919091166004820152602481019290925290919083908390604490829084905af190811561341b575061340a575050565b6134148291612abf565b6102565750565b513d84823e3d90fd5b61342d90612abf565b6111e15784386133a3565b85513d88823e3d90fd5b61344e90969196612abf565b9438613372565b86513d89823e3d90fd5b1161346657565b60046040517ff512a720000000000000000000000000000000000000000000000000000000008152fd5b6000916001600160a01b036000921660409081519363961be39160e01b85526020938486600481865afa958615613645578296613626575b5083519063705727b560e01b968783528683600481885afa92831561361c5784936135f5575b5061350e6135139160ca54906001600160781b0380809716911685613786565b61364f565b978189106135ec57508703955b84519081528581600481875afa9081156135e25783916135c5575b5016938461354c5750505050508192565b806004938551948580926318160ddd60e01b82525afa9384156135ba57508193613585575b50505090612bfc6135829285612b73565b92565b9091809350813d83116135b3575b61359d8183612ae9565b81010312610256575051612bfc61358238613571565b503d613593565b51913d9150823e3d90fd5b6135dc9150863d8811610cab57610c9d8183612ae9565b3861353b565b85513d85823e3d90fd5b96975096613520565b61351391935061361461350e91893d8b11610cab57610c9d8183612ae9565b9391506134ee565b86513d86823e3d90fd5b61363e919650853d8711610cab57610c9d8183612ae9565b94386134c8565b84513d84823e3d90fd5b6000811261365a5790565b606460405162461bcd60e51b815260206004820152601660248201527f76616c7565206d75737420626520706f736974697665000000000000000000006044820152fd5b906706f05b59d3b200009160008382019384129112908015821691151617612b3757565b91909160008382019384129112908015821691151617612b3757565b90670de0b6b3a764000060008382039312818412811691841390151617612b3757565b81810392916000138015828513169184121617612b3757565b90670de0b6b3a764000091828102928184051490151715612b3757565b818102929160008212600160ff1b821416612b37578184051490151715612b3757565b8115612b9057600160ff1b8114600019831416612b37570590565b600160ff1b8114612b375760000390565b9190811561392157600061379a84836136c2565b126138f7576137b9816137b38461133461132a8461371a565b946136c2565b670de0b6b3a764000091826137de6137d96137d3896136de565b85613737565b61369e565b0590836137ee6137d9878a613737565b05908160011b916002830503612b375761380b85939284936136c2565b96613816878a613737565b906138209161375a565b61382991613701565b6138339084613737565b61383c9061369e565b05918061384891613737565b6138519061369e565b0561385b91613701565b91816138678287613737565b6138709061369e565b059061387b91613737565b6138849061369e565b0561388e916136c2565b916138998280613737565b928160021b90600482058303612b37576138e56138f3946138df6138cf6002986138c96138ea9661133498613737565b90613701565b916138d981613775565b92613928565b906136c2565b61371a565b848305906136c2565b0590565b60046040517fae032660000000000000000000000000000000000000000000000000000000008152fd5b5050905090565b9190600060038413156139c8575060008113806139be575b1561398757915b60028061395d85613958818661375a565b6136c2565b05915b84830361396c57505050565b919350908161397f85613958818561375a565b059190613960565b60008112806139ac575b156139a55761399f90613775565b91613947565b5081613947565b50826139b782613775565b1315613991565b5082811315613940565b9290506139d157565b60019150565b916000926001600160a01b036000911690604080519063705727b560e01b938483526020968784600481855afa938415613c73578594613c50575b50613a27906001600160781b03809516612b73565b82516318160ddd60e01b81528881600481865afa908115613c46578691613c17575b50613a5391612b86565b96613a5d88612d18565b613a6688613775565b94835163961be39160e01b81528281600481875afa908115613c0d57839187918491613bf0575b501697600486518096819382525afa938415613be6575092613bc9575b5050169060ca5490613abc81846136c2565b9083613ac78661371a565b60028205613ad4916136c2565b90613ade9161375a565b8094613ae98561371a565b90670de0b6b3a764000096808894936002869505613b06916136c2565b90613b109161375a565b613b1991613701565b613b2291613737565b613b2b9061369e565b0591613b36856136de565b613b3f91613737565b613b489061369e565b05613b52916136c2565b60029005928392613b638480613737565b9280613b6e91613737565b613b7791613737565b613b809061369e565b05613b8a916136c2565b90613b9491613928565b613b9d916136c2565b613ba691613701565b613baf9061364f565b92838310613bc25750612c018383612b2a565b9092508192565b613bdf9250803d10610cab57610c9d8183612ae9565b3880613aaa565b51903d90823e3d90fd5b613c079150833d8511610cab57610c9d8183612ae9565b38613a8d565b85513d84823e3d90fd5b90508881813d8311613c3f575b613c2e8183612ae9565b8101031261193a5751613a53613a49565b503d613c24565b84513d88823e3d90fd5b613a27919450613c6c90893d8b11610cab57610c9d8183612ae9565b9390613a12565b83513d87823e3d90fd5b9390949180158015613dc3575b6138f75783818192613c9c89896136c2565b9780613ca88380613737565b90613cb29161375a565b98670de0b6b3a7640000809a8c613cc98880613737565b90613cd39161375a565b613cdc916136c2565b613ce6908a613737565b613cef9061369e565b05613cf991613701565b95613d03916136c2565b613d0c9061371a565b60028205613d19916136c2565b90613d239161375a565b80613d2d8761371a565b60028205613d3a916136c2565b90613d449161375a565b613d4d91613701565b613d5691613737565b90613d609161375a565b91613d6a9061371a565b60028205613d77916136c2565b90613d819161375a565b613d8a91613701565b90613d9491613dcb565b613d9d91613737565b613da69061369e565b0590613db191613701565b6000811215612c0157612c0190613775565b508315613c8a565b613dd58180613737565b908260021b9280840560041490151715612b3757613e0481613dff6138f3946138df60029761371a565b613928565b613701565b90929391613e18818584613fb4565b90948195613e2781809961345f565b6000926001600160a01b038093169485855260209360d285526040978887208481540190551690813b1561193a578591602483928a51948593849262b64f3d60e51b845260048401525af18015613faa57613f97575b50843b156111f0578551916313f3df3160e31b8352016004820152828160248183885af180156135e257908391613f83575b505083519263961be39160e01b84528184600481845afa9384156135e2578394613f5d575b50908060049286519384809263705727b560e01b82525afa928315613f525791613f1d9391662386f26fc10000959392613f35575b50506001600160781b038091169116612bd0565b10613f255750565b600490516316fde3bd60e21b8152fd5b613f4b9250803d10610cab57610c9d8183612ae9565b3880613f09565b8551903d90823e3d90fd5b8291945091613f7a600493823d8411610cab57610c9d8183612ae9565b94919250613ed4565b613f8c90612abf565b61226d578138613eaf565b613fa390949194612abf565b9238613e7d565b87513d87823e3d90fd5b91929092613fc3818585614390565b809491809660008512156000146140df575050506001600160a01b0316906040519063961be39160e01b82526020908183600481875afa80156140bd576004936000916140c2575b50826001600160781b03809216956040519586809263705727b560e01b82525afa80156140bd57610b699461404e946000926140a0575b50501692839185612b4d565b91614071614065610108546001600160801b031690565b6001600160801b031690565b831161407c57505050565b94610c7561409b93610c706140949484979899612bd0565b8092612b2a565b920190565b6140b69250803d10610cab57610c9d8183612ae9565b3880614042565b611044565b6140d99150833d8511610cab57610c9d8183612ae9565b3861400b565b8093949297506001600160a01b03919596501660405163961be39160e01b815260208082600481865afa9182156140bd576000926141e8575b506004816001600160781b03809416946040519283809263705727b560e01b82525afa9182156140bd576000926141cb575b50501661415b81610b698885612b4d565b6101085492906001600160801b0384161061417a575050505050509190565b909193955061418b92949750612bd0565b9060801c11156141ba576141a16141a891613775565b8483614207565b906141b591938491613fb4565b905090565b6004604051630c2b153f60e31b8152fd5b6141e19250803d10610cab57610c9d8183612ae9565b388061414a565b816142009293503d8411610cab57610c9d8183612ae9565b9038614118565b6040516339420b4560e11b81529193926020926001600160a01b038316908481600481855afa9081156140bd57600091614373575b5061424681612f2d565b946040519263705727b560e01b84528184600481845afa80156140bd57600494600091614356575b50826142936142836140656101085460801c90565b6001600160781b03809416612ba6565b926040519687809263961be39160e01b82525afa80156140bd576142cb956142c694600092614339575b50501690612b2a565b612c39565b9160019586836142e56142de8888612b73565b8486613fb4565b50106141ba579291905b8484106143055750505050612c01929350612b73565b90919293808501881c90888561431e8985028688613fb4565b5010614330575050935b9291906142ef565b90955001614328565b61434f9250803d10610cab57610c9d8183612ae9565b38806142bd565b61436d9150833d8511610cab57610c9d8183612ae9565b3861426e565b61438a9150853d8711610c2457610c158183612ae9565b3861423c565b91906000928383126145de575b6001600160a01b038091169360409081519063961be39160e01b91828152602095600495878388818d5afa92831561361c5790849392918b9695936145bf575b5086519189838a8163705727b560e01b9a8b82525afa9283156145775785936145a0575b50169086519285845289848a81865afa938415614577578594614581575b50896001600160781b03809516978a8a518096819382525afa92831561457757918b9161446194938794614558575b508886808060ca54971694169216613c7d565b988289139788958b908761454e575b505085156144da575b50505050506144b45750501561449c575061449961409460cb5483612ba6565b91565b91906144ab612c019193613775565b60cb5490612ba6565b517f9a6114b7000000000000000000000000000000000000000000000000000000008152fd5b90919280949550891294856144f9575b50505050503880808080614479565b8192939495508787518095819382525afa938415613f52579361452f575b505061452286613775565b91161038808080806144ea565b614546929350803d10610cab57610c9d8183612ae9565b903880614517565b1095508a38614470565b6145709194508c8d3d10610cab57610c9d8183612ae9565b923861444e565b88513d87823e3d90fd5b6145999194508a3d8c11610cab57610c9d8183612ae9565b923861441f565b6145b89193508a3d8c11610cab57610c9d8183612ae9565b9138614401565b6145d7919350893d8b11610cab57610c9d8183612ae9565b91386143dd565b916145fa9061133461132a6145f460cb546136de565b9261371a565b9161439d565b9290919261460e8382612d49565b83156110955761462061462691612fa6565b92612fa6565b916001600160a01b03938482166040958651926339420b4560e11b908185526020958686600481885afa9586156147705789966146779361466f92600092614751575b5061477b565b988991613fb4565b9092819516938951938385528785600481895afa9485156147465788956000926146a792849261472e5750612c39565b9912614702575050600488518094819382525afa9283156146f757612c01949596506000936146d8575b5050612c39565b6146ef929350803d10610c2457610c158183612ae9565b9038806146d1565b86513d6000823e3d90fd5b93509350600488518094819382525afa9283156146f757612c01949596506000936146d8575050612c39565b610c1d919250883d8a11610c2457610c158183612ae9565b8b513d6000823e3d90fd5b6147699192508a3d8c11610c2457610c158183612ae9565b9038614669565b8a513d6000823e3d90fd5b9060ff811660128110156147a057509061479a612c58612c0193612c17565b90613737565b6012106147ab575090565b906147bb612c58612c0193612c04565b9061375a565b6147d26001600160a01b0391612fa6565b1660408051916318160ddd60e01b928381526020908181600481865afa9081156148be576000916148d9575b50156148c95782519363705727b560e01b85528185600481865afa9485156148be5760009561489d575b508190600485518095819382525afa928315614893575060009261485b575b50506001600160781b03612c019216612bd0565b81819392933d831161488c575b6148728183612ae9565b810103126102565750516001600160781b03612c01614847565b503d614868565b513d6000823e3d90fd5b829195506148b790823d8411610cab57610c9d8183612ae9565b9490614828565b84513d6000823e3d90fd5b50505050670de0b6b3a764000090565b908282813d83116148ff575b6148ef8183612ae9565b81010312610256575051386147fe565b503d6148e5565b6149176001600160a01b0391612fa6565b166040805190632672469960e21b82526020918281600481875afa908115614a3357600091614a06575b508151906339420b4560e11b82528382600481885afa9182156149e3579061497192916000926149ee5750612f6c565b9181519363961be39160e01b85528185600481845afa9485156149e3576000956149b4575b506001600160781b03929160d2916000525260002054921690030390565b60d2919550916149d96001600160781b039493823d8411610cab57610c9d8183612ae9565b9591509192614996565b83513d6000823e3d90fd5b61285f919250853d8711610c2457610c158183612ae9565b908382813d8311614a2c575b614a1c8183612ae9565b8101031261025657505138614941565b503d614a12565b82513d6000823e3d90fd5b6000198114612b375760010190565b6001600160a01b03811660005260d26020526040600020548015908115614a84575b5015614a785750565b614a8190614a90565b50565b905060ce541138614a6f565b9060006001600160a01b039283811680835260d260205260409182842054958615614c5a5760cd54670de0b6b3a7640000908103908111614c4657614adb614ae19160cc5490612b2a565b88612ba6565b9081614bb8575b5050614af660cd5487612ba6565b9081614b0b575b5050825260d2602052812055565b81614b1591613490565b509050823b156111e15783519063283c3d8160e21b82526004820152848160248183875af18015614bae57908591614b9a575b5050813b156111f05782519062b64f3d60e51b82526004820152838160248183865af18015614b8d5790849115614afd57614b8290612abf565b6118c4578238614afd565b50505051903d90823e3d90fd5b614ba390612abf565b6111f0578338614b48565b84513d87823e3d90fd5b60d05416908451906339420b4560e11b8252602082600481885afa9182156134555790614bec929188926112ad5750612c39565b90833b1561193a578451639e79eaa560e01b81526001600160a01b039190911660048201526024810191909152848160448183875af18015614bae57614c33575b80614ae8565b614c3f90949194612abf565b9238614c2d565b602486634e487b7160e01b81526011600452fd5b5092945050505056fea2646970667358221220a6b759c53e616bbb4a4640c845568c883bd544beaa0bb85f26d36b3f58291e2a64736f6c63430008120033",
  "devdoc": {
    "details": "Pool with high cov ratio fee protection Change log: - add `gap` to prevent storage collision for future upgrades",
    "events": {
      "Initialized(uint8)": {
        "details": "Triggered when the contract has been initialized or reinitialized."
      },
      "Paused(address)": {
        "details": "Emitted when the pause is triggered by `account`."
      },
      "PausedAsset(address,address)": {
        "details": "Emitted when the pause is triggered by `account`."
      },
      "Unpaused(address)": {
        "details": "Emitted when the pause is lifted by `account`."
      },
      "UnpausedAsset(address,address)": {
        "details": "Emitted when the pause is lifted by `account`."
      }
    },
    "kind": "dev",
    "methods": {
      "addAsset(address,address)": {
        "params": {
          "asset": "The address of the Wombat Asset contract",
          "token": "The address of token"
        }
      },
      "addressOfAsset(address)": {
        "details": "to be used externally",
        "params": {
          "token": "The address of ERC20 token"
        }
      },
      "deposit(address,uint256,uint256,address,uint256,bool)": {
        "details": "Asset needs to be created and added to pool before any operation. This function assumes tax free token.",
        "params": {
          "amount": "The amount to be deposited",
          "deadline": "The deadline to be respected",
          "to": "The user accountable for deposit, receiving the Wombat assets (lp)",
          "token": "The token address to be deposited"
        },
        "returns": {
          "liquidity": "Total asset liquidity minted"
        }
      },
      "exchangeRate(address)": {
        "params": {
          "token": "The address of the token"
        },
        "returns": {
          "xr": "The exchange rate of LP token"
        }
      },
      "isPaused(address)": {
        "details": "Function to return if the asset is paused. The return value is only useful when true. When the return value is false, the asset can be either not paused or not exist."
      },
      "mintFee(address)": {
        "params": {
          "token": "The address of the token to collect fee"
        }
      },
      "owner()": {
        "details": "Returns the address of the current owner."
      },
      "pause()": {
        "details": "pause pool, restricting certain operations"
      },
      "pauseAsset(address)": {
        "details": "pause asset, restricting deposit and swap operations"
      },
      "paused()": {
        "details": "Returns true if the contract is paused, and false otherwise."
      },
      "quoteAmountIn(address,address,int256)": {
        "details": "To be used by frontend",
        "params": {
          "fromToken": "The initial ERC20 token",
          "toAmount": "The given output amount",
          "toToken": "The token wanted by user"
        },
        "returns": {
          "amountIn": "The input amount required",
          "haircut": "The haircut that would be applied"
        }
      },
      "quotePotentialDeposit(address,uint256)": {
        "details": "To be used by frontend",
        "params": {
          "amount": "The amount to deposit",
          "token": "The token to deposit by user"
        },
        "returns": {
          "liquidity": "The potential liquidity user would receive",
          "reward": "reward"
        }
      },
      "quotePotentialSwap(address,address,int256)": {
        "details": "In reverse quote, the haircut is in the `fromAsset`",
        "params": {
          "fromAmount": "The given input amount",
          "fromToken": "The initial ERC20 token",
          "toToken": "The token wanted by user"
        },
        "returns": {
          "haircut": "The haircut that would be applied",
          "potentialOutcome": "The potential amount user would receive"
        }
      },
      "quotePotentialWithdraw(address,uint256)": {
        "details": "To be used by frontend",
        "params": {
          "liquidity": "The liquidity (amount of lp assets) to be withdrawn",
          "token": "The token to be withdrawn by user"
        },
        "returns": {
          "amount": "The potential amount user would receive",
          "fee": "The fee that would be applied"
        }
      },
      "quotePotentialWithdrawFromOtherAsset(address,address,uint256)": {
        "details": "take into account high cov ratio fee"
      },
      "removeAsset(address)": {
        "details": "Can only be called by owner",
        "params": {
          "token": "The address of token to remove"
        }
      },
      "renounceOwnership()": {
        "details": "Leaves the contract without owner. It will not be possible to call `onlyOwner` functions. Can only be called by the current owner. NOTE: Renouncing ownership will leave the contract without an owner, thereby disabling any functionality that is only available to the owner."
      },
      "setAmpFactor(uint256)": {
        "params": {
          "ampFactor_": "new pool's amplification factor"
        }
      },
      "setDev(address)": {
        "params": {
          "dev_": "new contract dev address"
        }
      },
      "setFeeTo(address)": {
        "params": {
          "feeTo_": "new fee beneficiary"
        }
      },
      "setHaircutRate(uint256)": {
        "params": {
          "haircutRate_": "new pool's haircutRate_"
        }
      },
      "swap(address,address,uint256,uint256,address,uint256)": {
        "details": "This function assumes tax free token.",
        "params": {
          "deadline": "The deadline to be respected",
          "fromAmount": "The amount of from token inserted",
          "fromToken": "The token being inserted into Pool by user for swap",
          "minimumToAmount": "The minimum amount that will be accepted by user as result",
          "to": "The user receiving the result of swap",
          "toToken": "The token wanted by user, leaving the Pool"
        }
      },
      "transferOwnership(address)": {
        "details": "Transfers ownership of the contract to a new account (`newOwner`). Can only be called by the current owner."
      },
      "transferTipBucket(address,uint256,address)": {
        "details": "unit of amount should be in WAD"
      },
      "unpause()": {
        "details": "unpause pool, enabling certain operations"
      },
      "unpauseAsset(address)": {
        "details": "unpause asset, enabling deposit and swap operations"
      },
      "withdraw(address,uint256,uint256,address,uint256)": {
        "params": {
          "deadline": "The deadline to be respected",
          "liquidity": "The liquidity to be withdrawn",
          "minimumAmount": "The minimum amount that will be accepted by user",
          "to": "The user receiving the withdrawal",
          "token": "The token to be withdrawn"
        },
        "returns": {
          "amount": "The total amount withdrawn"
        }
      },
      "withdrawFromOtherAsset(address,address,uint256,uint256,address,uint256)": {
        "params": {
          "deadline": "The deadline to be respected",
          "fromToken": "The corresponding token user holds the LP (Asset) from",
          "liquidity": "The liquidity to be withdrawn (in fromToken decimal)",
          "minimumAmount": "The minimum amount that will be accepted by user",
          "to": "The user receiving the withdrawal",
          "toToken": "The token wanting to be withdrawn (needs to be well covered)"
        },
        "returns": {
          "toAmount": "The total amount withdrawn"
        }
      }
    },
    "title": "HighCovRatioFeePoolV2",
    "version": 1
  },
  "userdoc": {
    "events": {
      "AssetAdded(address,address)": {
        "notice": "An event thats emitted when an asset is added to Pool"
      },
      "AssetRemoved(address,address)": {
        "notice": "An event thats emitted when asset is removed from Pool"
      },
      "Deposit(address,address,uint256,uint256,address)": {
        "notice": "An event thats emitted when a deposit is made to Pool"
      },
      "Swap(address,address,address,uint256,uint256,address)": {
        "notice": "An event thats emitted when a swap is made in Pool"
      },
      "Withdraw(address,address,uint256,uint256,address)": {
        "notice": "An event thats emitted when a withdrawal is made from Pool"
      }
    },
    "kind": "user",
    "methods": {
      "addAsset(address,address)": {
        "notice": "Adds asset to pool, reverts if asset already exists in pool"
      },
      "addressOfAsset(address)": {
        "notice": "Gets Asset corresponding to ERC20 token. Reverts if asset does not exists in Pool."
      },
      "ampFactor()": {
        "notice": "Amplification factor"
      },
      "deposit(address,uint256,uint256,address,uint256,bool)": {
        "notice": "Deposits amount of tokens into pool ensuring deadline"
      },
      "dev()": {
        "notice": "Dev address"
      },
      "exchangeRate(address)": {
        "notice": "Returns the exchange rate of the LP token"
      },
      "fillPool(address,uint256)": {
        "notice": "Move fund from tip bucket to the pool to keep r* = 1 as error accumulates unit of amount should be in WAD"
      },
      "getTokens()": {
        "notice": "Return list of tokens in the pool"
      },
      "haircutRate()": {
        "notice": "Haircut rate"
      },
      "initialize(uint256,uint256)": {
        "notice": "Initializes pool. Dev is set to be the account calling this function."
      },
      "lpDividendRatio()": {
        "notice": "LP dividend ratio : the ratio of haircut that should distribute to LP"
      },
      "mintFee(address)": {
        "notice": "Send fee collected to the fee beneficiary"
      },
      "mintFeeThreshold()": {
        "notice": "The threshold to mint fee (unit: WAD)"
      },
      "quoteAmountIn(address,address,int256)": {
        "notice": "Returns the minimum input asset amount required to buy the given output asset amount (accounting for fees and slippage)"
      },
      "quotePotentialDeposit(address,uint256)": {
        "notice": "Quotes potential deposit from pool"
      },
      "quotePotentialSwap(address,address,int256)": {
        "notice": "Given an input asset amount and token addresses, calculates the maximum output token amount (accounting for fees and slippage)."
      },
      "quotePotentialWithdraw(address,uint256)": {
        "notice": "Quotes potential withdrawal from pool"
      },
      "removeAsset(address)": {
        "notice": "Removes asset from asset struct"
      },
      "retentionRatio()": {
        "notice": "Retention ratio: the ratio of haircut that should stay in the pool"
      },
      "setAmpFactor(uint256)": {
        "notice": "Changes the pools amplification factor. Can only be set by the contract owner."
      },
      "setDev(address)": {
        "notice": "Changes the contract dev. Can only be set by the contract owner."
      },
      "setFeeTo(address)": {
        "notice": "Changes the fee beneficiary. Can only be set by the contract owner. This value cannot be set to 0 to avoid unsettled fee."
      },
      "setHaircutRate(uint256)": {
        "notice": "Changes the pools haircutRate. Can only be set by the contract owner."
      },
      "setMintFeeThreshold(uint256)": {
        "notice": "Set min fee to mint"
      },
      "swap(address,address,uint256,uint256,address,uint256)": {
        "notice": "Swap fromToken for toToken, ensures deadline and minimumToAmount and sends quoted amount to `to` address"
      },
      "withdraw(address,uint256,uint256,address,uint256)": {
        "notice": "Withdraws liquidity amount of asset to `to` address ensuring minimum amount required"
      },
      "withdrawFromOtherAsset(address,address,uint256,uint256,address,uint256)": {
        "notice": "Enables withdrawing liquidity from an asset using LP from a different asset"
      }
    },
    "version": 1
  },
  "storageLayout": {
    "storage": [
      {
        "astId": 184,
        "contract": "contracts/wombat-core/pool/HighCovRatioFeePoolV2.sol:HighCovRatioFeePoolV2",
        "label": "_initialized",
        "offset": 0,
        "slot": "0",
        "type": "t_uint8"
      },
      {
        "astId": 187,
        "contract": "contracts/wombat-core/pool/HighCovRatioFeePoolV2.sol:HighCovRatioFeePoolV2",
        "label": "_initializing",
        "offset": 1,
        "slot": "0",
        "type": "t_bool"
      },
      {
        "astId": 928,
        "contract": "contracts/wombat-core/pool/HighCovRatioFeePoolV2.sol:HighCovRatioFeePoolV2",
        "label": "__gap",
        "offset": 0,
        "slot": "1",
        "type": "t_array(t_uint256)50_storage"
      },
      {
        "astId": 56,
        "contract": "contracts/wombat-core/pool/HighCovRatioFeePoolV2.sol:HighCovRatioFeePoolV2",
        "label": "_owner",
        "offset": 0,
        "slot": "51",
        "type": "t_address"
      },
      {
        "astId": 176,
        "contract": "contracts/wombat-core/pool/HighCovRatioFeePoolV2.sol:HighCovRatioFeePoolV2",
        "label": "__gap",
        "offset": 0,
        "slot": "52",
        "type": "t_array(t_uint256)49_storage"
      },
      {
        "astId": 487,
        "contract": "contracts/wombat-core/pool/HighCovRatioFeePoolV2.sol:HighCovRatioFeePoolV2",
        "label": "_status",
        "offset": 0,
        "slot": "101",
        "type": "t_uint256"
      },
      {
        "astId": 556,
        "contract": "contracts/wombat-core/pool/HighCovRatioFeePoolV2.sol:HighCovRatioFeePoolV2",
        "label": "__gap",
        "offset": 0,
        "slot": "102",
        "type": "t_array(t_uint256)49_storage"
      },
      {
        "astId": 367,
        "contract": "contracts/wombat-core/pool/HighCovRatioFeePoolV2.sol:HighCovRatioFeePoolV2",
        "label": "_paused",
        "offset": 0,
        "slot": "151",
        "type": "t_bool"
      },
      {
        "astId": 472,
        "contract": "contracts/wombat-core/pool/HighCovRatioFeePoolV2.sol:HighCovRatioFeePoolV2",
        "label": "__gap",
        "offset": 0,
        "slot": "152",
        "type": "t_array(t_uint256)49_storage"
      },
      {
        "astId": 18842,
        "contract": "contracts/wombat-core/pool/HighCovRatioFeePoolV2.sol:HighCovRatioFeePoolV2",
        "label": "_pausedAssets",
        "offset": 0,
        "slot": "201",
        "type": "t_mapping(t_address,t_bool)"
      },
      {
        "astId": 21743,
        "contract": "contracts/wombat-core/pool/HighCovRatioFeePoolV2.sol:HighCovRatioFeePoolV2",
        "label": "ampFactor",
        "offset": 0,
        "slot": "202",
        "type": "t_uint256"
      },
      {
        "astId": 21746,
        "contract": "contracts/wombat-core/pool/HighCovRatioFeePoolV2.sol:HighCovRatioFeePoolV2",
        "label": "haircutRate",
        "offset": 0,
        "slot": "203",
        "type": "t_uint256"
      },
      {
        "astId": 21749,
        "contract": "contracts/wombat-core/pool/HighCovRatioFeePoolV2.sol:HighCovRatioFeePoolV2",
        "label": "retentionRatio",
        "offset": 0,
        "slot": "204",
        "type": "t_uint256"
      },
      {
        "astId": 21752,
        "contract": "contracts/wombat-core/pool/HighCovRatioFeePoolV2.sol:HighCovRatioFeePoolV2",
        "label": "lpDividendRatio",
        "offset": 0,
        "slot": "205",
        "type": "t_uint256"
      },
      {
        "astId": 21755,
        "contract": "contracts/wombat-core/pool/HighCovRatioFeePoolV2.sol:HighCovRatioFeePoolV2",
        "label": "mintFeeThreshold",
        "offset": 0,
        "slot": "206",
        "type": "t_uint256"
      },
      {
        "astId": 21758,
        "contract": "contracts/wombat-core/pool/HighCovRatioFeePoolV2.sol:HighCovRatioFeePoolV2",
        "label": "dev",
        "offset": 0,
        "slot": "207",
        "type": "t_address"
      },
      {
        "astId": 21760,
        "contract": "contracts/wombat-core/pool/HighCovRatioFeePoolV2.sol:HighCovRatioFeePoolV2",
        "label": "feeTo",
        "offset": 0,
        "slot": "208",
        "type": "t_address"
      },
      {
        "astId": 21762,
        "contract": "contracts/wombat-core/pool/HighCovRatioFeePoolV2.sol:HighCovRatioFeePoolV2",
        "label": "masterWombat",
        "offset": 0,
        "slot": "209",
        "type": "t_address"
      },
      {
        "astId": 21768,
        "contract": "contracts/wombat-core/pool/HighCovRatioFeePoolV2.sol:HighCovRatioFeePoolV2",
        "label": "_feeCollected",
        "offset": 0,
        "slot": "210",
        "type": "t_mapping(t_contract(IAsset)10136,t_uint256)"
      },
      {
        "astId": 21772,
        "contract": "contracts/wombat-core/pool/HighCovRatioFeePoolV2.sol:HighCovRatioFeePoolV2",
        "label": "_assets",
        "offset": 0,
        "slot": "211",
        "type": "t_struct(AssetMap)21740_storage"
      },
      {
        "astId": 21774,
        "contract": "contracts/wombat-core/pool/HighCovRatioFeePoolV2.sol:HighCovRatioFeePoolV2",
        "label": "_used1",
        "offset": 0,
        "slot": "214",
        "type": "t_uint128"
      },
      {
        "astId": 21776,
        "contract": "contracts/wombat-core/pool/HighCovRatioFeePoolV2.sol:HighCovRatioFeePoolV2",
        "label": "_used2",
        "offset": 16,
        "slot": "214",
        "type": "t_uint128"
      },
      {
        "astId": 21780,
        "contract": "contracts/wombat-core/pool/HighCovRatioFeePoolV2.sol:HighCovRatioFeePoolV2",
        "label": "gap",
        "offset": 0,
        "slot": "215",
        "type": "t_array(t_uint256)49_storage"
      },
      {
        "astId": 17866,
        "contract": "contracts/wombat-core/pool/HighCovRatioFeePoolV2.sol:HighCovRatioFeePoolV2",
        "label": "startCovRatio",
        "offset": 0,
        "slot": "264",
        "type": "t_uint128"
      },
      {
        "astId": 17868,
        "contract": "contracts/wombat-core/pool/HighCovRatioFeePoolV2.sol:HighCovRatioFeePoolV2",
        "label": "endCovRatio",
        "offset": 16,
        "slot": "264",
        "type": "t_uint128"
      },
      {
        "astId": 17872,
        "contract": "contracts/wombat-core/pool/HighCovRatioFeePoolV2.sol:HighCovRatioFeePoolV2",
        "label": "gap",
        "offset": 0,
        "slot": "265",
        "type": "t_array(t_uint256)50_storage"
      }
    ],
    "types": {
      "t_address": {
        "encoding": "inplace",
        "label": "address",
        "numberOfBytes": "20"
      },
      "t_array(t_address)dyn_storage": {
        "base": "t_address",
        "encoding": "dynamic_array",
        "label": "address[]",
        "numberOfBytes": "32"
      },
      "t_array(t_uint256)49_storage": {
        "base": "t_uint256",
        "encoding": "inplace",
        "label": "uint256[49]",
        "numberOfBytes": "1568"
      },
      "t_array(t_uint256)50_storage": {
        "base": "t_uint256",
        "encoding": "inplace",
        "label": "uint256[50]",
        "numberOfBytes": "1600"
      },
      "t_bool": {
        "encoding": "inplace",
        "label": "bool",
        "numberOfBytes": "1"
      },
      "t_contract(IAsset)10136": {
        "encoding": "inplace",
        "label": "contract IAsset",
        "numberOfBytes": "20"
      },
      "t_mapping(t_address,t_bool)": {
        "encoding": "mapping",
        "key": "t_address",
        "label": "mapping(address => bool)",
        "numberOfBytes": "32",
        "value": "t_bool"
      },
      "t_mapping(t_address,t_contract(IAsset)10136)": {
        "encoding": "mapping",
        "key": "t_address",
        "label": "mapping(address => contract IAsset)",
        "numberOfBytes": "32",
        "value": "t_contract(IAsset)10136"
      },
      "t_mapping(t_address,t_uint256)": {
        "encoding": "mapping",
        "key": "t_address",
        "label": "mapping(address => uint256)",
        "numberOfBytes": "32",
        "value": "t_uint256"
      },
      "t_mapping(t_contract(IAsset)10136,t_uint256)": {
        "encoding": "mapping",
        "key": "t_contract(IAsset)10136",
        "label": "mapping(contract IAsset => uint256)",
        "numberOfBytes": "32",
        "value": "t_uint256"
      },
      "t_struct(AssetMap)21740_storage": {
        "encoding": "inplace",
        "label": "struct PoolV2.AssetMap",
        "members": [
          {
            "astId": 21730,
            "contract": "contracts/wombat-core/pool/HighCovRatioFeePoolV2.sol:HighCovRatioFeePoolV2",
            "label": "keys",
            "offset": 0,
            "slot": "0",
            "type": "t_array(t_address)dyn_storage"
          },
          {
            "astId": 21735,
            "contract": "contracts/wombat-core/pool/HighCovRatioFeePoolV2.sol:HighCovRatioFeePoolV2",
            "label": "values",
            "offset": 0,
            "slot": "1",
            "type": "t_mapping(t_address,t_contract(IAsset)10136)"
          },
          {
            "astId": 21739,
            "contract": "contracts/wombat-core/pool/HighCovRatioFeePoolV2.sol:HighCovRatioFeePoolV2",
            "label": "indexOf",
            "offset": 0,
            "slot": "2",
            "type": "t_mapping(t_address,t_uint256)"
          }
        ],
        "numberOfBytes": "96"
      },
      "t_uint128": {
        "encoding": "inplace",
        "label": "uint128",
        "numberOfBytes": "16"
      },
      "t_uint256": {
        "encoding": "inplace",
        "label": "uint256",
        "numberOfBytes": "32"
      },
      "t_uint8": {
        "encoding": "inplace",
        "label": "uint8",
        "numberOfBytes": "1"
      }
    }
  }
}