{
  "address": "0x6569DDC1Cc2648c89BC8025046A7dd65EB8940F3",
  "abi": [
    {
      "inputs": [
        {
          "internalType": "address",
          "name": "_master",
          "type": "address"
        },
        {
          "internalType": "contract IERC20",
          "name": "_lpToken",
          "type": "address"
        },
        {
          "internalType": "uint256",
          "name": "_startTimestamp",
          "type": "uint256"
        },
        {
          "internalType": "contract IERC20",
          "name": "_rewardToken",
          "type": "address"
        },
        {
          "internalType": "uint96",
          "name": "_tokenPerSec",
          "type": "uint96"
        }
      ],
      "stateMutability": "nonpayable",
      "type": "constructor"
    },
    {
      "anonymous": false,
      "inputs": [
        {
          "indexed": true,
          "internalType": "address",
          "name": "rewardToken",
          "type": "address"
        },
        {
          "indexed": true,
          "internalType": "address",
          "name": "user",
          "type": "address"
        },
        {
          "indexed": false,
          "internalType": "uint256",
          "name": "amount",
          "type": "uint256"
        }
      ],
      "name": "OnReward",
      "type": "event"
    },
    {
      "anonymous": false,
      "inputs": [
        {
          "indexed": true,
          "internalType": "address",
          "name": "previousOwner",
          "type": "address"
        },
        {
          "indexed": true,
          "internalType": "address",
          "name": "newOwner",
          "type": "address"
        }
      ],
      "name": "OwnershipTransferred",
      "type": "event"
    },
    {
      "anonymous": false,
      "inputs": [
        {
          "indexed": true,
          "internalType": "address",
          "name": "rewardToken",
          "type": "address"
        },
        {
          "indexed": false,
          "internalType": "uint256",
          "name": "oldRate",
          "type": "uint256"
        },
        {
          "indexed": false,
          "internalType": "uint256",
          "name": "newRate",
          "type": "uint256"
        }
      ],
      "name": "RewardRateUpdated",
      "type": "event"
    },
    {
      "inputs": [],
      "name": "ACC_TOKEN_PRECISION",
      "outputs": [
        {
          "internalType": "uint256",
          "name": "",
          "type": "uint256"
        }
      ],
      "stateMutability": "view",
      "type": "function"
    },
    {
      "inputs": [
        {
          "internalType": "contract IERC20",
          "name": "_rewardToken",
          "type": "address"
        },
        {
          "internalType": "uint96",
          "name": "_tokenPerSec",
          "type": "uint96"
        }
      ],
      "name": "addRewardToken",
      "outputs": [],
      "stateMutability": "nonpayable",
      "type": "function"
    },
    {
      "inputs": [],
      "name": "balances",
      "outputs": [
        {
          "internalType": "uint256[]",
          "name": "balances_",
          "type": "uint256[]"
        }
      ],
      "stateMutability": "view",
      "type": "function"
    },
    {
      "inputs": [
        {
          "internalType": "address",
          "name": "token",
          "type": "address"
        }
      ],
      "name": "emergencyTokenWithdraw",
      "outputs": [],
      "stateMutability": "nonpayable",
      "type": "function"
    },
    {
      "inputs": [],
      "name": "emergencyWithdraw",
      "outputs": [],
      "stateMutability": "nonpayable",
      "type": "function"
    },
    {
      "inputs": [],
      "name": "lastRewardTimestamp",
      "outputs": [
        {
          "internalType": "uint256",
          "name": "",
          "type": "uint256"
        }
      ],
      "stateMutability": "view",
      "type": "function"
    },
    {
      "inputs": [],
      "name": "lpToken",
      "outputs": [
        {
          "internalType": "contract IERC20",
          "name": "",
          "type": "address"
        }
      ],
      "stateMutability": "view",
      "type": "function"
    },
    {
      "inputs": [],
      "name": "master",
      "outputs": [
        {
          "internalType": "address",
          "name": "",
          "type": "address"
        }
      ],
      "stateMutability": "view",
      "type": "function"
    },
    {
      "inputs": [
        {
          "internalType": "address",
          "name": "_user",
          "type": "address"
        },
        {
          "internalType": "uint256",
          "name": "_lpAmount",
          "type": "uint256"
        }
      ],
      "name": "onReward",
      "outputs": [
        {
          "internalType": "uint256[]",
          "name": "rewards",
          "type": "uint256[]"
        }
      ],
      "stateMutability": "nonpayable",
      "type": "function"
    },
    {
      "inputs": [],
      "name": "operator",
      "outputs": [
        {
          "internalType": "address",
          "name": "",
          "type": "address"
        }
      ],
      "stateMutability": "view",
      "type": "function"
    },
    {
      "inputs": [],
      "name": "owner",
      "outputs": [
        {
          "internalType": "address",
          "name": "",
          "type": "address"
        }
      ],
      "stateMutability": "view",
      "type": "function"
    },
    {
      "inputs": [
        {
          "internalType": "address",
          "name": "_user",
          "type": "address"
        }
      ],
      "name": "pendingTokens",
      "outputs": [
        {
          "internalType": "uint256[]",
          "name": "rewards",
          "type": "uint256[]"
        }
      ],
      "stateMutability": "view",
      "type": "function"
    },
    {
      "inputs": [],
      "name": "renounceOwnership",
      "outputs": [],
      "stateMutability": "nonpayable",
      "type": "function"
    },
    {
      "inputs": [
        {
          "internalType": "uint256",
          "name": "",
          "type": "uint256"
        }
      ],
      "name": "rewardInfo",
      "outputs": [
        {
          "internalType": "contract IERC20",
          "name": "rewardToken",
          "type": "address"
        },
        {
          "internalType": "uint96",
          "name": "tokenPerSec",
          "type": "uint96"
        },
        {
          "internalType": "uint128",
          "name": "accTokenPerShare",
          "type": "uint128"
        },
        {
          "internalType": "uint128",
          "name": "distributedAmount",
          "type": "uint128"
        }
      ],
      "stateMutability": "view",
      "type": "function"
    },
    {
      "inputs": [],
      "name": "rewardLength",
      "outputs": [
        {
          "internalType": "uint256",
          "name": "",
          "type": "uint256"
        }
      ],
      "stateMutability": "view",
      "type": "function"
    },
    {
      "inputs": [],
      "name": "rewardTokens",
      "outputs": [
        {
          "internalType": "contract IERC20[]",
          "name": "tokens",
          "type": "address[]"
        }
      ],
      "stateMutability": "view",
      "type": "function"
    },
    {
      "inputs": [
        {
          "internalType": "address",
          "name": "_operator",
          "type": "address"
        }
      ],
      "name": "setOperator",
      "outputs": [],
      "stateMutability": "nonpayable",
      "type": "function"
    },
    {
      "inputs": [
        {
          "internalType": "uint256",
          "name": "_tokenId",
          "type": "uint256"
        },
        {
          "internalType": "uint96",
          "name": "_tokenPerSec",
          "type": "uint96"
        }
      ],
      "name": "setRewardRate",
      "outputs": [],
      "stateMutability": "nonpayable",
      "type": "function"
    },
    {
      "inputs": [
        {
          "internalType": "address",
          "name": "newOwner",
          "type": "address"
        }
      ],
      "name": "transferOwnership",
      "outputs": [],
      "stateMutability": "nonpayable",
      "type": "function"
    },
    {
      "inputs": [],
      "name": "updateReward",
      "outputs": [],
      "stateMutability": "nonpayable",
      "type": "function"
    },
    {
      "inputs": [
        {
          "internalType": "uint256",
          "name": "",
          "type": "uint256"
        },
        {
          "internalType": "address",
          "name": "",
          "type": "address"
        }
      ],
      "name": "userInfo",
      "outputs": [
        {
          "internalType": "uint128",
          "name": "amount",
          "type": "uint128"
        },
        {
          "internalType": "uint128",
          "name": "rewardDebt",
          "type": "uint128"
        },
        {
          "internalType": "uint256",
          "name": "unpaidRewards",
          "type": "uint256"
        }
      ],
      "stateMutability": "view",
      "type": "function"
    },
    {
      "stateMutability": "payable",
      "type": "receive"
    }
  ],
  "transactionHash": "0x0e54920c4948f78064de3982ebac8a0dcf2fdb85e9aebce1efcb2b75afc88d16",
  "args": [
    "0x62A83C6791A3d7950D823BB71a38e47252b6b6F4",
    "0xB1Ad5C2573867E8157deD08d065fc761d606C3D9",
    1683093300,
    "0x5190F06EaceFA2C552dc6BD5e763b81C73293293",
    0
  ],
  "numDeployments": 1,
  "solcInputHash": "549ba383df0fd3d31c35761901651231",
  "bytecode": "0x60c0346200037557601f62001b3638819003918201601f1916830192916001600160401b0391828511848610176200037a578160a0928592604097885283398101031262000375578151916001600160a01b0391828416840362000375576020906200006d82840162000390565b9386840151936080620000836060830162000390565b9101516001600160601b038116959086900362000375576000968754988460018060a01b03199433868d16178b558c519b823391167f8be0079c531659141344cd1fd0a4f28419497f9722a3daafe3b4186f6b6457e08d80a36001805516998a3b158015906200036c575b156200030f57508482163b15620002b457803b156200025b57428310620002575760a0526080526003558751926080840190848210908211176200024357885286835283830185815288840191670de0b6b3a764000083526060850193888552600454680100000000000000008110156200022f5760018101806004558110156200021b5760048a52878a209651935160a01b909216921691909117600191821b9094019384559051915160801b6001600160801b0319166001600160801b03929092169190911791015584519283528201527f225033f2ea5486463cbb49ceda2823be38daddc85031ce2c637e7ad0950bc85a908390a2516117909081620003a68239608051818181610e7801526116a0015260a0518181816102680152818161050f01526116790152f35b634e487b7160e01b8a52603260045260248afd5b634e487b7160e01b8a52604160045260248afd5b634e487b7160e01b87526041600452602487fd5b8880fd5b8a5162461bcd60e51b815260048101889052602c60248201527f636f6e7374727563746f723a204d6173746572206d757374206265206120766160448201526b1b1a590818dbdb9d1c9858dd60a21b6064820152608490fd5b8a5162461bcd60e51b815260048101889052602e60248201527f636f6e7374727563746f723a204c5020746f6b656e206d75737420626520612060448201526d1d985b1a590818dbdb9d1c9858dd60921b6064820152608490fd5b62461bcd60e51b815260048101889052603260248201527f636f6e7374727563746f723a2072657761726420746f6b656e206d7573742062604482015271194818481d985b1a590818dbdb9d1c9858dd60721b6064820152608490fd5b508a15620000ee565b600080fd5b634e487b7160e01b600052604160045260246000fd5b51906001600160a01b0382168203620003755756fe608080604052600436101561001d575b50361561001b57600080fd5b005b60003560e01c9081630bc7936314610ec357508063570ca73514610e9c5780635fcbd28514610e58578063715018a614610dff5780637bb98a6814610d2c57806381a00f8314610ccb5780638da5cb5b14610ca457806393f1a40b14610c3b578063ad56882714610b8a578063b3ab15fb14610b4a578063b95c574614610b2c578063c031a66f14610994578063c2b18aa0146108c4578063c3723288146104ec578063db2e21bc146103ff578063edc9d7721461028c578063ee97f7f314610248578063eea0160414610225578063f2fde38b1461014d578063f36c0a72146101345763f8077fae14610111573861000f565b3461012f57600036600319011261012f576020600354604051908152f35b600080fd5b3461012f57600036600319011261012f5761001b611186565b3461012f57602036600319011261012f576101666110da565b61016e6110f0565b6001600160a01b038091169081156101bb57600054826001600160a01b0319821617600055167f8be0079c531659141344cd1fd0a4f28419497f9722a3daafe3b4186f6b6457e0600080a3005b608460405162461bcd60e51b815260206004820152602660248201527f4f776e61626c653a206e6577206f776e657220697320746865207a65726f206160448201527f64647265737300000000000000000000000000000000000000000000000000006064820152fd5b3461012f57600036600319011261012f576020604051670de0b6b3a76400008152f35b3461012f57600036600319011261012f5760206040516001600160a01b037f0000000000000000000000000000000000000000000000000000000000000000168152f35b3461012f57604036600319011261012f576004356001600160a01b0380821680920361012f576102ba611034565b6102c26110f0565b6102ca611186565b604051916102d783611148565b838352602083016bffffffffffffffffffffffff8093169182825260408501670de0b6b3a76400008152606086019160008352600454680100000000000000008110156103e95780600161032e920160045561108a565b6103d3576103956040976103c4966001947f225033f2ea5486463cbb49ceda2823be38daddc85031ce2c637e7ad0950bc85a9b51166001600160a01b0319855416178455511682906001600160a01b036001600160a01b031983549260a01b169116179055565b9151925160801b6fffffffffffffffffffffffffffffffff19166001600160801b039390931692909217910155565b815190600082526020820152a2005b634e487b7160e01b600052600060045260246000fd5b634e487b7160e01b600052604160045260246000fd5b3461012f57600036600319011261012f576104186110f0565b60045460005b81811061042757005b6001600160a01b036104388261108a565b505416906104446110f0565b816104725761046d9150610468600080808047335af161046261135e565b5061139e565b611289565b61041e565b6040516370a0823160e01b81523060048201526020908181602481875afa9182156104e0576000926104b0575b50506104689061046d9333906113e9565b90809250813d83116104d9575b6104c78183611164565b8101031261012f57518261046861049f565b503d6104bd565b6040513d6000823e3d90fd5b3461012f57604036600319011261012f576105056110da565b6001600160a01b037f000000000000000000000000000000000000000000000000000000000000000016330361085a5760026001541461081657600260015561054c611186565b6004546105588161130b565b9160005b828110610579576001805560405180610575868261104f565b0390f35b6105828161108a565b509080600052600560205260406000206001600160a01b03841660005260205260406000206001600160a01b038354169080548060801c908161068d575b50506106429061061a670de0b6b3a76400006106146106889760016001600160801b0391826105f0602435611702565b166fffffffffffffffffffffffffffffffff198854161787550154166024356112a5565b04611702565b6001600160801b036fffffffffffffffffffffffffffffffff1983549260801b169116179055565b61064c828761134a565b51906040519182527f986cbc32375de61d1fabfb01aef452f5c919f2180bb72fff0fb182126a02b52760206001600160a01b03871693a3611289565b61055c565b906106c3670de0b6b3a76400006106b76106c8946001600160801b038060018c01541691166112a5565b0460018501549061133d565b611298565b9382610756579061061a670de0b6b3a764000061061461064294610688988c8947918d8385116000146107305761071e94928492610713600080808088610718985af161046261135e565b61134a565b52611298565b60018601555b975050508192506105c0565b6107499350600080808088610713955af161046261135e565b5260006001860155610724565b6040516370a0823160e01b8152306004820152602081602481875afa9081156104e05789906000926107da575b506106146106429493888489670de0b6b3a7640000958d8b61061a996106889f116000146107ca5792849261071384610718946107c099976113e9565b6001860155610724565b61074994506107139186916113e9565b93929150506020833d60201161080e575b816107f860209383611164565b8101031261012f57915190919088610614610783565b3d91506107eb565b606460405162461bcd60e51b815260206004820152601f60248201527f5265656e7472616e637947756172643a207265656e7472616e742063616c6c006044820152fd5b608460405162461bcd60e51b815260206004820152602e60248201527f6f6e6c794d61737465723a206f6e6c79204d61737465722063616e2063616c6c60448201527f20746869732066756e6374696f6e0000000000000000000000000000000000006064820152fd5b3461012f57600036600319011261012f576004546108e1816112f3565b6108ee6040519182611164565b8181526108fa826112f3565b6020928383019291601f190136843760005b81811061095f57505090604051928392818401908285525180915260408401929160005b82811061093f57505050500390f35b83516001600160a01b031685528695509381019392810192600101610930565b806001600160a01b0361097d61097761098f9461108a565b50611619565b5116610989828661134a565b52611289565b61090c565b3461012f5760208060031936011261012f576109ae6110da565b906004546109bb8161130b565b91600093600354906001600160a01b038242119116955b8481106109e75760405180610575888261104f565b6109f36109778261108a565b908060005260058552604060002088600052855260406000206001600160801b03928360408201511690610a2561165b565b908680610b23575b610a7b575b5050906001610a63610a7695670de0b6b3a7640000610a58610a6c9686549384166112a5565b049060801c90611298565b9101549061133d565b610989828961134a565b6109d2565b610aa4906bffffffffffffffffffffffff8a610a9a8b97969742611298565b92015116906112a5565b92670de0b6b3a76400009586850294808604881490151715610b0d57670de0b6b3a7640000610a58610af9610a6394610af3610a6c99600198610a769d80821015600014610b055750906112b8565b9061133d565b95965050509550610a32565b9050906112b8565b634e487b7160e01b600052601160045260246000fd5b50811515610a2d565b3461012f57600036600319011261012f576020600454604051908152f35b3461012f57602036600319011261012f576001600160a01b03610b6b6110da565b610b736110f0565b166001600160a01b03196002541617600255600080f35b3461012f57602036600319011261012f576001600160a01b03610bab6110da565b610bb36110f0565b1680610bce575061001b600080808047335af161046261135e565b604051906370a0823160e01b8252306004830152602082602481845afa9081156104e057600091610c06575b61001b925033906113e9565b90506020823d8211610c33575b81610c2060209383611164565b8101031261012f5761001b915190610bfa565b3d9150610c13565b3461012f57604036600319011261012f576024356001600160a01b03811680910361012f5760043560005260056020526040600020906000526020526060604060002060018154910154604051916001600160801b038116835260801c60208301526040820152f35b3461012f57600036600319011261012f5760206001600160a01b0360005416604051908152f35b3461012f57602036600319011261012f5760043560045481101561012f57610cf460809161108a565b5060018154910154604051916001600160a01b038116835260a01c60208301526001600160801b0381166040830152821c6060820152f35b3461012f57600036600319011261012f57600454610d498161130b565b9060005b818110610d625760405180610575858261104f565b6001600160a01b03610d738261108a565b5054169081610d9157610d8c915047610989828661134a565b610d4d565b60405180926370a0823160e01b825230600483015281602460209384935afa9081156104e057600091610dcf575b50610d8c9250610989828661134a565b905082813d8311610df8575b610de58183611164565b8101031261012f57610d8c915185610dbf565b503d610ddb565b3461012f57600036600319011261012f57610e186110f0565b60006001600160a01b0381546001600160a01b031981168355167f8be0079c531659141344cd1fd0a4f28419497f9722a3daafe3b4186f6b6457e08280a3005b3461012f57600036600319011261012f5760206040516001600160a01b037f0000000000000000000000000000000000000000000000000000000000000000168152f35b3461012f57600036600319011261012f5760206001600160a01b0360025416604051908152f35b3461012f57604036600319011261012f5760043590610ee0611034565b916001600160a01b0391826000541633148015611027575b15610fe557506bffffffffffffffffffffffff83169269021e19e0c9bab24000008411610fa1577f225033f2ea5486463cbb49ceda2823be38daddc85031ce2c637e7ad0950bc85a92610f90604093610f4f611186565b610f8b610f5b8261108a565b505460a01c94610f6a8361108a565b50906001600160a01b036001600160a01b031983549260a01b169116179055565b61108a565b5054169382519182526020820152a2005b606460405162461bcd60e51b815260206004820152601460248201527f726577617264207261746520746f6f20686967680000000000000000000000006044820152fd5b8062461bcd60e51b6064925260206004820152601360248201527f6f6e6c794f70657261746f724f724f776e6572000000000000000000000000006044820152fd5b5082600254163314610ef8565b602435906bffffffffffffffffffffffff8216820361012f57565b6020908160408183019282815285518094520193019160005b828110611076575050505090565b835185529381019392810192600101611068565b6004548110156110c457600460005260011b7f8a35acfbc15ff81a39ae7d344fd709f28e8600b4aa8c65c6b64bfe7fe36bd19b0190600090565b634e487b7160e01b600052603260045260246000fd5b600435906001600160a01b038216820361012f57565b6001600160a01b0360005416330361110457565b606460405162461bcd60e51b815260206004820152602060248201527f4f776e61626c653a2063616c6c6572206973206e6f7420746865206f776e65726044820152fd5b6080810190811067ffffffffffffffff8211176103e957604052565b90601f8019910116810190811067ffffffffffffffff8211176103e957604052565b61118e61165b565b6003908154421161119d575050565b600490815491600091670de0b6b3a764000080821015935b8581106111c757505050505050429055565b6111d08161108a565b506111ea6111df895442611298565b825460a01c906112a5565b838102818104851482151715611274579161061a6104689261125f600161122661122161126899988e60001461126d578c906112b8565b611702565b9401936fffffffffffffffffffffffffffffffff198554916112526001600160801b03918285166112d8565b1691161791828555611702565b9060801c6112d8565b6111b5565b8b906112b8565b601187634e487b7160e01b6000525260246000fd5b6000198114610b0d5760010190565b91908203918211610b0d57565b81810292918115918404141715610b0d57565b81156112c2570490565b634e487b7160e01b600052601260045260246000fd5b9190916001600160801b0380809416911601918211610b0d57565b67ffffffffffffffff81116103e95760051b60200190565b90611315826112f3565b6113226040519182611164565b8281528092611333601f19916112f3565b0190602036910137565b91908201809211610b0d57565b80518210156110c45760209160051b010190565b3d15611399573d9067ffffffffffffffff82116103e9576040519161138d601f8201601f191660200184611164565b82523d6000602084013e565b606090565b156113a557565b606460405162461bcd60e51b815260206004820152600f60248201527f5472616e73666572206661696c656400000000000000000000000000000000006044820152fd5b919060405190602093848301937fa9059cbb0000000000000000000000000000000000000000000000000000000085526001600160a01b03809316602485015260448401526044835261143b83611148565b1660405190604082019282841067ffffffffffffffff8511176103e9576114a1936040528583527f5361666545524332303a206c6f772d6c6576656c2063616c6c206661696c656486840152600080958192519082855af161149b61135e565b91611546565b8051806114af575b50505050565b81849181010312611542578201519081159182150361153f57506114d5578080806114a9565b6084906040519062461bcd60e51b82526004820152602a60248201527f5361666545524332303a204552433230206f7065726174696f6e20646964206e60448201527f6f742073756363656564000000000000000000000000000000000000000000006064820152fd5b80fd5b5080fd5b919290156115a7575081511561155a575090565b3b156115635790565b606460405162461bcd60e51b815260206004820152601d60248201527f416464726573733a2063616c6c20746f206e6f6e2d636f6e74726163740000006044820152fd5b8251909150156115ba5750805190602001fd5b6040519062461bcd60e51b82528160208060048301528251908160248401526000935b828510611600575050604492506000838284010152601f80199101168101030190fd5b84810182015186860160440152938101938593506115dd565b9060405161162681611148565b60606001829480546001600160a01b038116855260a01c602085015201546001600160801b038116604084015260801c910152565b6040516370a0823160e01b81526020816024816001600160a01b03807f00000000000000000000000000000000000000000000000000000000000000001660048301527f0000000000000000000000000000000000000000000000000000000000000000165afa9081156104e0576000916116d4575090565b906020823d82116116fa575b816116ed60209383611164565b8101031261153f57505190565b3d91506116e0565b6001600160801b0390818111611716571690565b606460405162461bcd60e51b815260206004820152601060248201527f75696e74313238206f766572666c6f77000000000000000000000000000000006044820152fdfea2646970667358221220554ce0b7623fdced008b032c1d8514e0a95a8c981e04e1fc9d34f2d5d39f7a6864736f6c63430008120033",
  "devdoc": {
    "kind": "dev",
    "methods": {
      "emergencyTokenWithdraw(address)": {
        "details": "only to be called by owner"
      },
      "onReward(address,uint256)": {
        "details": "Assume `_getTotalShare` isn't updated yet when this function is called",
        "params": {
          "_lpAmount": "The new amount of LP",
          "_user": "Address of user"
        }
      },
      "owner()": {
        "details": "Returns the address of the current owner."
      },
      "pendingTokens(address)": {
        "params": {
          "_user": "Address of user."
        },
        "returns": {
          "rewards": "reward for a given user."
        }
      },
      "renounceOwnership()": {
        "details": "Leaves the contract without owner. It will not be possible to call `onlyOwner` functions anymore. Can only be called by the current owner. NOTE: Renouncing ownership will leave the contract without an owner, thereby removing any functionality that is only available to the owner."
      },
      "setRewardRate(uint256,uint96)": {
        "params": {
          "_tokenPerSec": "The number of tokens to distribute per second"
        }
      },
      "transferOwnership(address)": {
        "details": "Transfers ownership of the contract to a new account (`newOwner`). Can only be called by the current owner."
      }
    },
    "stateVariables": {
      "operator": {
        "details": "operator is able to set emission rate"
      }
    },
    "version": 1
  },
  "userdoc": {
    "kind": "user",
    "methods": {
      "balances()": {
        "notice": "View function to see balances of reward token."
      },
      "emergencyTokenWithdraw(address)": {
        "notice": "avoids loosing funds in case there is any tokens sent to this contract"
      },
      "emergencyWithdraw()": {
        "notice": "In case rewarder is stopped before emissions finished, this function allows withdrawal of remaining tokens."
      },
      "onReward(address,uint256)": {
        "notice": "Function called by Master whenever staker claims WOM harvest.Allows staker to also receive a 2nd reward token."
      },
      "operator()": {
        "notice": "address of the operator"
      },
      "pendingTokens(address)": {
        "notice": "View function to see pending tokens"
      },
      "rewardInfo(uint256)": {
        "notice": "Info of the rewardInfo."
      },
      "rewardLength()": {
        "notice": "returns reward length"
      },
      "setOperator(address)": {
        "notice": "Set operator address"
      },
      "setRewardRate(uint256,uint96)": {
        "notice": "Sets the distribution reward rate. This will also update the rewardInfo."
      },
      "userInfo(uint256,address)": {
        "notice": "tokenId => userId => UserInfo"
      }
    },
    "notice": "This is a sample contract to be used in the Master contract for partners to reward stakers with their native token alongside WOM. It assumes no minting rights, so requires a set amount of reward tokens to be transferred to this contract prior. E.g. say you've allocated 100,000 XYZ to the WOM-XYZ farm over 30 days. Then you would need to transfer 100,000 XYZ and set the block reward accordingly so it's fully distributed after 30 days. - This contract has no knowledge on the LP amount and Master is   responsible to pass the amount into this contract - Supports multiple reward tokens",
    "version": 1
  },
  "storageLayout": {
    "storage": [
      {
        "astId": 1419,
        "contract": "contracts/wombat-governance/rewarders/MultiRewarderPerSec.sol:MultiRewarderPerSec",
        "label": "_owner",
        "offset": 0,
        "slot": "0",
        "type": "t_address"
      },
      {
        "astId": 1535,
        "contract": "contracts/wombat-governance/rewarders/MultiRewarderPerSec.sol:MultiRewarderPerSec",
        "label": "_status",
        "offset": 0,
        "slot": "1",
        "type": "t_uint256"
      },
      {
        "astId": 37514,
        "contract": "contracts/wombat-governance/rewarders/MultiRewarderPerSec.sol:MultiRewarderPerSec",
        "label": "operator",
        "offset": 0,
        "slot": "2",
        "type": "t_address"
      },
      {
        "astId": 37516,
        "contract": "contracts/wombat-governance/rewarders/MultiRewarderPerSec.sol:MultiRewarderPerSec",
        "label": "lastRewardTimestamp",
        "offset": 0,
        "slot": "3",
        "type": "t_uint256"
      },
      {
        "astId": 37521,
        "contract": "contracts/wombat-governance/rewarders/MultiRewarderPerSec.sol:MultiRewarderPerSec",
        "label": "rewardInfo",
        "offset": 0,
        "slot": "4",
        "type": "t_array(t_struct(RewardInfo)37511_storage)dyn_storage"
      },
      {
        "astId": 37529,
        "contract": "contracts/wombat-governance/rewarders/MultiRewarderPerSec.sol:MultiRewarderPerSec",
        "label": "userInfo",
        "offset": 0,
        "slot": "5",
        "type": "t_mapping(t_uint256,t_mapping(t_address,t_struct(UserInfo)37501_storage))"
      }
    ],
    "types": {
      "t_address": {
        "encoding": "inplace",
        "label": "address",
        "numberOfBytes": "20"
      },
      "t_array(t_struct(RewardInfo)37511_storage)dyn_storage": {
        "base": "t_struct(RewardInfo)37511_storage",
        "encoding": "dynamic_array",
        "label": "struct MultiRewarderPerSec.RewardInfo[]",
        "numberOfBytes": "32"
      },
      "t_contract(IERC20)2243": {
        "encoding": "inplace",
        "label": "contract IERC20",
        "numberOfBytes": "20"
      },
      "t_mapping(t_address,t_struct(UserInfo)37501_storage)": {
        "encoding": "mapping",
        "key": "t_address",
        "label": "mapping(address => struct MultiRewarderPerSec.UserInfo)",
        "numberOfBytes": "32",
        "value": "t_struct(UserInfo)37501_storage"
      },
      "t_mapping(t_uint256,t_mapping(t_address,t_struct(UserInfo)37501_storage))": {
        "encoding": "mapping",
        "key": "t_uint256",
        "label": "mapping(uint256 => mapping(address => struct MultiRewarderPerSec.UserInfo))",
        "numberOfBytes": "32",
        "value": "t_mapping(t_address,t_struct(UserInfo)37501_storage)"
      },
      "t_struct(RewardInfo)37511_storage": {
        "encoding": "inplace",
        "label": "struct MultiRewarderPerSec.RewardInfo",
        "members": [
          {
            "astId": 37504,
            "contract": "contracts/wombat-governance/rewarders/MultiRewarderPerSec.sol:MultiRewarderPerSec",
            "label": "rewardToken",
            "offset": 0,
            "slot": "0",
            "type": "t_contract(IERC20)2243"
          },
          {
            "astId": 37506,
            "contract": "contracts/wombat-governance/rewarders/MultiRewarderPerSec.sol:MultiRewarderPerSec",
            "label": "tokenPerSec",
            "offset": 20,
            "slot": "0",
            "type": "t_uint96"
          },
          {
            "astId": 37508,
            "contract": "contracts/wombat-governance/rewarders/MultiRewarderPerSec.sol:MultiRewarderPerSec",
            "label": "accTokenPerShare",
            "offset": 0,
            "slot": "1",
            "type": "t_uint128"
          },
          {
            "astId": 37510,
            "contract": "contracts/wombat-governance/rewarders/MultiRewarderPerSec.sol:MultiRewarderPerSec",
            "label": "distributedAmount",
            "offset": 16,
            "slot": "1",
            "type": "t_uint128"
          }
        ],
        "numberOfBytes": "64"
      },
      "t_struct(UserInfo)37501_storage": {
        "encoding": "inplace",
        "label": "struct MultiRewarderPerSec.UserInfo",
        "members": [
          {
            "astId": 37496,
            "contract": "contracts/wombat-governance/rewarders/MultiRewarderPerSec.sol:MultiRewarderPerSec",
            "label": "amount",
            "offset": 0,
            "slot": "0",
            "type": "t_uint128"
          },
          {
            "astId": 37498,
            "contract": "contracts/wombat-governance/rewarders/MultiRewarderPerSec.sol:MultiRewarderPerSec",
            "label": "rewardDebt",
            "offset": 16,
            "slot": "0",
            "type": "t_uint128"
          },
          {
            "astId": 37500,
            "contract": "contracts/wombat-governance/rewarders/MultiRewarderPerSec.sol:MultiRewarderPerSec",
            "label": "unpaidRewards",
            "offset": 0,
            "slot": "1",
            "type": "t_uint256"
          }
        ],
        "numberOfBytes": "64"
      },
      "t_uint128": {
        "encoding": "inplace",
        "label": "uint128",
        "numberOfBytes": "16"
      },
      "t_uint256": {
        "encoding": "inplace",
        "label": "uint256",
        "numberOfBytes": "32"
      },
      "t_uint96": {
        "encoding": "inplace",
        "label": "uint96",
        "numberOfBytes": "12"
      }
    }
  }
}