{
  "address": "0x34E2F923bBa206358EcE221af73E8d121837F873",
  "abi": [
    {
      "anonymous": false,
      "inputs": [
        {
          "indexed": false,
          "internalType": "contract IERC20",
          "name": "lpToken",
          "type": "address"
        },
        {
          "indexed": false,
          "internalType": "uint256",
          "name": "amount",
          "type": "uint256"
        }
      ],
      "name": "DistributeReward",
      "type": "event"
    },
    {
      "anonymous": false,
      "inputs": [
        {
          "indexed": false,
          "internalType": "uint8",
          "name": "version",
          "type": "uint8"
        }
      ],
      "name": "Initialized",
      "type": "event"
    },
    {
      "anonymous": false,
      "inputs": [
        {
          "indexed": true,
          "internalType": "address",
          "name": "previousOwner",
          "type": "address"
        },
        {
          "indexed": true,
          "internalType": "address",
          "name": "newOwner",
          "type": "address"
        }
      ],
      "name": "OwnershipTransferred",
      "type": "event"
    },
    {
      "anonymous": false,
      "inputs": [
        {
          "indexed": false,
          "internalType": "address",
          "name": "account",
          "type": "address"
        }
      ],
      "name": "Paused",
      "type": "event"
    },
    {
      "anonymous": false,
      "inputs": [
        {
          "indexed": false,
          "internalType": "address",
          "name": "account",
          "type": "address"
        }
      ],
      "name": "Unpaused",
      "type": "event"
    },
    {
      "anonymous": false,
      "inputs": [
        {
          "indexed": false,
          "internalType": "uint256",
          "name": "baseAllocation",
          "type": "uint256"
        },
        {
          "indexed": false,
          "internalType": "uint256",
          "name": "votePartition",
          "type": "uint256"
        }
      ],
      "name": "UpdateEmissionPartition",
      "type": "event"
    },
    {
      "anonymous": false,
      "inputs": [
        {
          "indexed": false,
          "internalType": "address",
          "name": "user",
          "type": "address"
        },
        {
          "indexed": false,
          "internalType": "contract IERC20",
          "name": "lpToken",
          "type": "address"
        },
        {
          "indexed": false,
          "internalType": "uint256",
          "name": "amount",
          "type": "uint256"
        }
      ],
      "name": "UpdateVote",
      "type": "event"
    },
    {
      "inputs": [
        {
          "internalType": "contract IGauge",
          "name": "_gaugeManager",
          "type": "address"
        },
        {
          "internalType": "contract IERC20",
          "name": "_lpToken",
          "type": "address"
        },
        {
          "internalType": "contract IBribe",
          "name": "_bribe",
          "type": "address"
        }
      ],
      "name": "add",
      "outputs": [],
      "stateMutability": "nonpayable",
      "type": "function"
    },
    {
      "inputs": [],
      "name": "baseAllocation",
      "outputs": [
        {
          "internalType": "uint16",
          "name": "",
          "type": "uint16"
        }
      ],
      "stateMutability": "view",
      "type": "function"
    },
    {
      "inputs": [],
      "name": "baseIndex",
      "outputs": [
        {
          "internalType": "uint104",
          "name": "",
          "type": "uint104"
        }
      ],
      "stateMutability": "view",
      "type": "function"
    },
    {
      "inputs": [
        {
          "internalType": "contract IERC20[]",
          "name": "_lpTokens",
          "type": "address[]"
        }
      ],
      "name": "claimBribes",
      "outputs": [
        {
          "internalType": "uint256[][]",
          "name": "bribeRewards",
          "type": "uint256[][]"
        }
      ],
      "stateMutability": "nonpayable",
      "type": "function"
    },
    {
      "inputs": [
        {
          "internalType": "contract IERC20",
          "name": "_lpToken",
          "type": "address"
        }
      ],
      "name": "distribute",
      "outputs": [],
      "stateMutability": "nonpayable",
      "type": "function"
    },
    {
      "inputs": [],
      "name": "emergencyWomWithdraw",
      "outputs": [],
      "stateMutability": "nonpayable",
      "type": "function"
    },
    {
      "inputs": [],
      "name": "firstEpochStartTime",
      "outputs": [
        {
          "internalType": "uint40",
          "name": "",
          "type": "uint40"
        }
      ],
      "stateMutability": "view",
      "type": "function"
    },
    {
      "inputs": [
        {
          "internalType": "address",
          "name": "_user",
          "type": "address"
        },
        {
          "internalType": "contract IERC20",
          "name": "_lpToken",
          "type": "address"
        }
      ],
      "name": "getUserVotes",
      "outputs": [
        {
          "internalType": "uint256",
          "name": "",
          "type": "uint256"
        }
      ],
      "stateMutability": "view",
      "type": "function"
    },
    {
      "inputs": [
        {
          "internalType": "contract IERC20",
          "name": "",
          "type": "address"
        }
      ],
      "name": "infos",
      "outputs": [
        {
          "internalType": "uint104",
          "name": "supplyBaseIndex",
          "type": "uint104"
        },
        {
          "internalType": "uint104",
          "name": "supplyVoteIndex",
          "type": "uint104"
        },
        {
          "internalType": "uint40",
          "name": "nextEpochStartTime",
          "type": "uint40"
        },
        {
          "internalType": "uint128",
          "name": "claimable",
          "type": "uint128"
        },
        {
          "internalType": "bool",
          "name": "whitelist",
          "type": "bool"
        },
        {
          "internalType": "contract IGauge",
          "name": "gaugeManager",
          "type": "address"
        },
        {
          "internalType": "contract IBribe",
          "name": "bribe",
          "type": "address"
        }
      ],
      "stateMutability": "view",
      "type": "function"
    },
    {
      "inputs": [
        {
          "internalType": "contract IERC20",
          "name": "_wom",
          "type": "address"
        },
        {
          "internalType": "contract IVe",
          "name": "_veWom",
          "type": "address"
        },
        {
          "internalType": "uint88",
          "name": "_womPerSec",
          "type": "uint88"
        },
        {
          "internalType": "uint40",
          "name": "_startTimestamp",
          "type": "uint40"
        },
        {
          "internalType": "uint40",
          "name": "_firstEpochStartTime",
          "type": "uint40"
        },
        {
          "internalType": "uint16",
          "name": "_baseAllocation",
          "type": "uint16"
        }
      ],
      "name": "initialize",
      "outputs": [],
      "stateMutability": "nonpayable",
      "type": "function"
    },
    {
      "inputs": [],
      "name": "lastRewardTimestamp",
      "outputs": [
        {
          "internalType": "uint40",
          "name": "",
          "type": "uint40"
        }
      ],
      "stateMutability": "view",
      "type": "function"
    },
    {
      "inputs": [],
      "name": "lpTokenLength",
      "outputs": [
        {
          "internalType": "uint256",
          "name": "",
          "type": "uint256"
        }
      ],
      "stateMutability": "view",
      "type": "function"
    },
    {
      "inputs": [
        {
          "internalType": "uint256",
          "name": "",
          "type": "uint256"
        }
      ],
      "name": "lpTokens",
      "outputs": [
        {
          "internalType": "contract IERC20",
          "name": "",
          "type": "address"
        }
      ],
      "stateMutability": "view",
      "type": "function"
    },
    {
      "inputs": [],
      "name": "owner",
      "outputs": [
        {
          "internalType": "address",
          "name": "",
          "type": "address"
        }
      ],
      "stateMutability": "view",
      "type": "function"
    },
    {
      "inputs": [],
      "name": "pauseAll",
      "outputs": [],
      "stateMutability": "nonpayable",
      "type": "function"
    },
    {
      "inputs": [
        {
          "internalType": "contract IERC20",
          "name": "_lpToken",
          "type": "address"
        }
      ],
      "name": "pauseVoteEmission",
      "outputs": [],
      "stateMutability": "nonpayable",
      "type": "function"
    },
    {
      "inputs": [],
      "name": "paused",
      "outputs": [
        {
          "internalType": "bool",
          "name": "",
          "type": "bool"
        }
      ],
      "stateMutability": "view",
      "type": "function"
    },
    {
      "inputs": [
        {
          "internalType": "contract IERC20[]",
          "name": "_lpTokens",
          "type": "address[]"
        },
        {
          "internalType": "address",
          "name": "_user",
          "type": "address"
        }
      ],
      "name": "pendingBribes",
      "outputs": [
        {
          "internalType": "contract IERC20[][]",
          "name": "bribeTokenAddresses",
          "type": "address[][]"
        },
        {
          "internalType": "string[][]",
          "name": "bribeTokenSymbols",
          "type": "string[][]"
        },
        {
          "internalType": "uint256[][]",
          "name": "bribeRewards",
          "type": "uint256[][]"
        }
      ],
      "stateMutability": "view",
      "type": "function"
    },
    {
      "inputs": [
        {
          "internalType": "contract IERC20",
          "name": "_lpToken",
          "type": "address"
        }
      ],
      "name": "pendingWom",
      "outputs": [
        {
          "internalType": "uint256",
          "name": "",
          "type": "uint256"
        }
      ],
      "stateMutability": "view",
      "type": "function"
    },
    {
      "inputs": [],
      "name": "renounceOwnership",
      "outputs": [],
      "stateMutability": "nonpayable",
      "type": "function"
    },
    {
      "inputs": [],
      "name": "resumeAll",
      "outputs": [],
      "stateMutability": "nonpayable",
      "type": "function"
    },
    {
      "inputs": [
        {
          "internalType": "contract IERC20",
          "name": "_lpToken",
          "type": "address"
        }
      ],
      "name": "resumeVoteEmission",
      "outputs": [],
      "stateMutability": "nonpayable",
      "type": "function"
    },
    {
      "inputs": [
        {
          "internalType": "contract IERC20",
          "name": "_lpToken",
          "type": "address"
        },
        {
          "internalType": "uint128",
          "name": "_allocPoint",
          "type": "uint128"
        }
      ],
      "name": "setAllocPoint",
      "outputs": [],
      "stateMutability": "nonpayable",
      "type": "function"
    },
    {
      "inputs": [
        {
          "internalType": "uint16",
          "name": "_baseAllocation",
          "type": "uint16"
        }
      ],
      "name": "setBaseAllocation",
      "outputs": [],
      "stateMutability": "nonpayable",
      "type": "function"
    },
    {
      "inputs": [
        {
          "internalType": "contract IERC20",
          "name": "_lpToken",
          "type": "address"
        },
        {
          "internalType": "contract IBribe",
          "name": "_bribe",
          "type": "address"
        }
      ],
      "name": "setBribe",
      "outputs": [],
      "stateMutability": "nonpayable",
      "type": "function"
    },
    {
      "inputs": [
        {
          "internalType": "contract IERC20",
          "name": "_lpToken",
          "type": "address"
        },
        {
          "internalType": "contract IGauge",
          "name": "_gaugeManager",
          "type": "address"
        }
      ],
      "name": "setGauge",
      "outputs": [],
      "stateMutability": "nonpayable",
      "type": "function"
    },
    {
      "inputs": [
        {
          "internalType": "uint88",
          "name": "_womPerSec",
          "type": "uint88"
        }
      ],
      "name": "setWomPerSec",
      "outputs": [],
      "stateMutability": "nonpayable",
      "type": "function"
    },
    {
      "inputs": [],
      "name": "totalAllocPoint",
      "outputs": [
        {
          "internalType": "uint128",
          "name": "",
          "type": "uint128"
        }
      ],
      "stateMutability": "view",
      "type": "function"
    },
    {
      "inputs": [],
      "name": "totalWeight",
      "outputs": [
        {
          "internalType": "uint128",
          "name": "",
          "type": "uint128"
        }
      ],
      "stateMutability": "view",
      "type": "function"
    },
    {
      "inputs": [
        {
          "internalType": "address",
          "name": "newOwner",
          "type": "address"
        }
      ],
      "name": "transferOwnership",
      "outputs": [],
      "stateMutability": "nonpayable",
      "type": "function"
    },
    {
      "inputs": [],
      "name": "veWom",
      "outputs": [
        {
          "internalType": "contract IVe",
          "name": "",
          "type": "address"
        }
      ],
      "stateMutability": "view",
      "type": "function"
    },
    {
      "inputs": [
        {
          "internalType": "contract IERC20[]",
          "name": "_lpVote",
          "type": "address[]"
        },
        {
          "internalType": "int256[]",
          "name": "_deltas",
          "type": "int256[]"
        }
      ],
      "name": "vote",
      "outputs": [
        {
          "internalType": "uint256[][]",
          "name": "bribeRewards",
          "type": "uint256[][]"
        }
      ],
      "stateMutability": "nonpayable",
      "type": "function"
    },
    {
      "inputs": [],
      "name": "voteAllocation",
      "outputs": [
        {
          "internalType": "uint256",
          "name": "",
          "type": "uint256"
        }
      ],
      "stateMutability": "view",
      "type": "function"
    },
    {
      "inputs": [],
      "name": "voteIndex",
      "outputs": [
        {
          "internalType": "uint104",
          "name": "",
          "type": "uint104"
        }
      ],
      "stateMutability": "view",
      "type": "function"
    },
    {
      "inputs": [
        {
          "internalType": "address",
          "name": "",
          "type": "address"
        },
        {
          "internalType": "contract IERC20",
          "name": "",
          "type": "address"
        }
      ],
      "name": "votes",
      "outputs": [
        {
          "internalType": "uint256",
          "name": "",
          "type": "uint256"
        }
      ],
      "stateMutability": "view",
      "type": "function"
    },
    {
      "inputs": [
        {
          "internalType": "contract IERC20",
          "name": "",
          "type": "address"
        }
      ],
      "name": "weights",
      "outputs": [
        {
          "internalType": "uint128",
          "name": "allocPoint",
          "type": "uint128"
        },
        {
          "internalType": "uint128",
          "name": "voteWeight",
          "type": "uint128"
        }
      ],
      "stateMutability": "view",
      "type": "function"
    },
    {
      "inputs": [],
      "name": "wom",
      "outputs": [
        {
          "internalType": "contract IERC20",
          "name": "",
          "type": "address"
        }
      ],
      "stateMutability": "view",
      "type": "function"
    },
    {
      "inputs": [],
      "name": "womPerSec",
      "outputs": [
        {
          "internalType": "uint88",
          "name": "",
          "type": "uint88"
        }
      ],
      "stateMutability": "view",
      "type": "function"
    }
  ],
  "transactionHash": "0x2d3877a7466e6fb08695ab1696c007a308175cb2ba4057665aae7f4547fd0f96",
  "args": [],
  "numDeployments": 1,
  "solcInputHash": "7d28dd99a6b5ef09e5b13e2293d574e4",
  "bytecode": "0x6080806040523461001657612e19908161001c8239f35b600080fdfe6080604052600436101561001257600080fd5b6000803560e01c806308a931dd146122b557806311ced5591461228b57806317caf6f11461226a5780631bb5e2dc14612227578063237e6d64146121c0578063240f97741461207a57806325b3ec641461203d5780632efce57b14611b205780633e582ae614611af957806347c3577214611aae5780634895ed2114611a7f5780635844398a14611a55578063595c6a67146119835780635c975abb14611960578063622f83c9146118ac57806363453ae1146115b8578063715018a61461155c5780637c2e51ce146112075780638a81372f146111d95780638da5cb5b146111b257806394966ad8146110eb57806396c82e57146110c4578063a693686f14610eb9578063a7cac84614610e70578063af3d104f14610d8f578063b6da5b2014610d2e578063b9ee8f6614610d09578063c23ead3214610ceb578063c4bfce1814610cc6578063c519375414610c04578063c5a6222e14610bdd578063c6ddb64214610b41578063cad1b90614610af1578063eab4b0361461044b578063f13e550714610351578063f2fde38b146102aa578063f6e6c5af146101e65763f8077fae146101bf57600080fd5b346101e357806003193601126101e357602064ffffffffff60cc5416604051908152f35b80fd5b50346101e35760203660031901126101e35760043561ffff808216908183036102a5576102116124e0565b6103e882116102a1577f9f8465a6a057e31abb34517007c2dfa96e65b800c2f0840da63459f3269b743c91604091610247612865565b610250856129ee565b8351928352166020820152a17fffffffffffffffffffffffffffff0000ffffffffffffffffffffffffffffffff71ffff0000000000000000000000000000000060ce549260801b1691161760ce5580f35b8380fd5b600080fd5b50346101e35760203660031901126101e3576102c46123d4565b6102cc6124e0565b6001600160a01b038116156102e7576102e490612538565b80f35b608460405162461bcd60e51b815260206004820152602660248201527f4f776e61626c653a206e6577206f776e657220697320746865207a65726f206160448201527f64647265737300000000000000000000000000000000000000000000000000006064820152fd5b50346101e357806003193601126101e35761036a6124e0565b6001600160a01b0360c95416816040516370a0823160e01b81523060048201526020928382602481845afa801561040b5784928491610416575b5060405163a9059cbb60e01b8152336004820152602481019190915292839190829081604481015b03925af1801561040b576103de578280f35b816103fd92903d10610404575b6103f58183612605565b81019061284d565b5038808280f35b503d6103eb565b6040513d85823e3d90fd5b9350509082813d8311610444575b61042e8183612605565b810103126102a5579051839183916103cc6103a4565b503d610424565b50346101e35760403660031901126101e35760043567ffffffffffffffff8111610aed5761047d903690600401612400565b6104889291926123ea565b9261049282612627565b906104a06040519283612605565b8282526104bc601f196104b285612627565b016020840161263f565b6104c583612627565b946104d36040519687612605565b8386526104ef601f196104e586612627565b016020880161263f565b6104f88461265c565b93855b8181106106705750505050604051926060840191606085528051809352608085016005936020608082871b89010193019184905b82821061060b57505050508481036020860152855191828252602082019060208085871b85010198019481935b85851061057b5788806105778c8b8382036040850152612431565b0390f35b90919293949598601f198282030185528951908151808252602082019060208082881b850101940192875b8281106105c95750505050506020806001929b019501950193959492919061055c565b909192939460208080600193601f1987820301895289516105f5815180928185528580860191016124bd565b601f01601f1916010197019501939291016105a6565b90919293607f969596198982030182528451906020808351928381520192019088905b80821061064f5750505060208060019296019201920190929195949561052f565b9091926020806001926001600160a01b03875116815201940192019061062e565b6001600160a01b0361068e6106898385889b999b6126b8565b6126c8565b1680865260d1602052856001600160a01b03600360408320015416806106c3575b5050506106bb90612693565b9593956104fb565b90602491604051928380927fc031a66f0000000000000000000000000000000000000000000000000000000082526001600160a01b038a1660048301525afa908115610ae2578791610ac0575b5061071b83896127d1565b5261072682886127d1565b50855260d16020526004856001600160a01b03600360408320015416604051928380927fc2b18aa00000000000000000000000000000000000000000000000000000000082525afa908115610ab55786916109f1575b5061078782896127d1565b5261079281886127d1565b5061079d81886127d1565b51516107a881612627565b6107b56040519182612605565b8181526107d1601f196107c784612627565b016020830161263f565b6107db838b6127d1565b526107e6828a6127d1565b50855b8181106107f75786906106af565b80878a856001600160a01b036108178561081184866127d1565b516127d1565b51166108b55791505061082b91508b6127d1565b51906040519182604081011067ffffffffffffffff60408501111761089f57816108949184604061089a9601604052600381527f424e420000000000000000000000000000000000000000000000000000000000602082015261088e83836127d1565b526127d1565b50612693565b6107e9565b634e487b7160e01b600052604160045260246000fd5b6004936108116108cd926001600160a01b03946127d1565b5116604051928380927f95d89b410000000000000000000000000000000000000000000000000000000082525afa9081156109e6578b85918a9361092c575b509280926109206108949361089a966127d1565b519061088e83836127d1565b925050503d908189823e6109408282612605565b60208183810103126109e25780519067ffffffffffffffff82116109de57828101601f8383010112156109de57818101519167ffffffffffffffff831161089f5760405193610999601f8501601f191660200186612605565b83855282016020848385010101116109da57610920878f92956109ce61089496899896602061089a9b988186019201016124bd565b9550935050909361090c565b8a80fd5b8980fd5b8880fd5b6040513d8a823e3d90fd5b90503d8087833e610a028183612605565b6020828281010312610ab15781519067ffffffffffffffff8211610aad57808301601f838501011215610aad578183015190610a3d82612627565b93610a4b6040519586612605565b8285526020850191810160208460051b8684010101116109de57602084820101915b60208460051b86840101018310610a895750505050503861077c565b82516001600160a01b0381168103610aa957815260209283019201610a6d565b8b80fd5b8780fd5b8680fd5b6040513d88823e3d90fd5b610adc91503d8089833e610ad48183612605565b810190612757565b38610710565b6040513d89823e3d90fd5b5080fd5b50346101e35760403660031901126101e357610b0b6123d4565b6040610b156123ea565b926001600160a01b03809316815260d06020522091166000526020526020604060002054604051908152f35b50346101e35760203660031901126101e35760e09060406001600160a01b039182610b6a6123d4565b16815260d1602052209081549160ff600182015492600381600285015416930154169264ffffffffff604051956001600160681b0380821688528160681c16602088015260d01c1660408601526001600160801b038116606086015260801c161515608084015260a083015260c0820152f35b50346101e357806003193601126101e35760206001600160a01b0360c95416604051908152f35b50346101e35760203660031901126101e357610c1e6123d4565b610c266124e0565b6001600160a01b0381169081835260d160205260ff600160408520015460801c1615610c825780610c59610c66926127e5565b610c61612865565b612928565b815260d16020526001604082200160ff60801b19815416905580f35b606460405162461bcd60e51b815260206004820152601660248201527f766f7465723a206e6f742077686974656c6973746564000000000000000000006044820152fd5b50346101e357806003193601126101e357602061ffff60ce5460801c16604051908152f35b50346101e357806003193601126101e357602060cb54604051908152f35b50346101e357806003193601126101e357602064ffffffffff60ce5416604051908152f35b50346101e35760403660031901126101e357610d486123d4565b610d506123ea565b90610d596124e0565b610d62816127e5565b6001600160a01b03809116835260d16020526003604084200191166001600160a01b031982541617905580f35b50346101e357806003193601126101e357610da86124e0565b610db0612865565b60cb54815b818110610e41578260975460ff811615610dfd5760ff19166097557f5db9ee0a495bf2e6ff9c91a7834c1ba4fdd244a5e8aa4e537bd38aeae4b073aa6020604051338152a180f35b606460405162461bcd60e51b815260206004820152601460248201527f5061757361626c653a206e6f74207061757365640000000000000000000000006044820152fd5b80610e666001600160a01b03610e59610e6b94612387565b90549060031b1c16612928565b612693565b610db5565b50346101e35760203660031901126101e357604080916001600160a01b03610e966123d4565b16815260cf60205220548151906001600160801b038116825260801c6020820152f35b50346101e35760603660031901126101e357610ed36123d4565b610edb6123ea565b90604435906001600160a01b03928383168093036102a5578390610efd6124e0565b169182855260209160d1835260ff600160408820015460801c1661108057841690811561107c57831561107c5783865260d18352846002604088200154166110135790610fc6929184875260d183526003604088206001810170010000000000000000000000000000000060ff60801b19825416179055600281016001600160a01b03199485825416179055019182541617905560d1610f9b612ce4565b9184875252604085209064ffffffffff60d01b1964ffffffffff60d01b83549260d01b169116179055565b60cb5468010000000000000000811015610fff57806001610fea920160cb55612387565b909283549160031b92831b921b191617905580f35b602484634e487b7160e01b81526041600452fd5b6084836040519062461bcd60e51b825260048201526024808201527f566f7465723a2067617567654d616e6167657220697320616c7265616479206560448201527f78697374000000000000000000000000000000000000000000000000000000006064820152fd5b8580fd5b6064836040519062461bcd60e51b82526004820152601460248201527f766f7465723a20616c72656164792061646465640000000000000000000000006044820152fd5b50346101e357806003193601126101e35760206001600160801b0360cd5416604051908152f35b50346101e35760203660031901126101e3576111056123d4565b61110d6124e0565b6001600160a01b0381169081835260d160205260ff600160408520015460801c1661116e5780610c5961113f926127e5565b815260d16020526001604082200170010000000000000000000000000000000060ff60801b1982541617905580f35b606460405162461bcd60e51b815260206004820152601160248201527f766f7465723a206e6f74207061757365640000000000000000000000000000006044820152fd5b50346101e357806003193601126101e35760206001600160a01b0360335416604051908152f35b50346101e357806003193601126101e35760206affffffffffffffffffffff60ce5460281c16604051908152f35b50346101e35760c03660031901126101e3576112216123d4565b602435906001600160a01b03918281168091036102a157604435906affffffffffffffffffffff82168083036102a5576064359064ffffffffff928383168093036102a5576084359384168094036102a55760a4359161ffff8316908184036102a55789549860ff8a60081c16159889809a61154f575b8015611538575b156114ce5760ff19808c166001178d559a8a6114bd575b5042881061147957169182156114355783156113f1576103e8106109de5769021e19e0c9bab2400000106109e2577fffffffffffffffffffffffffffff000000000000000000000000000000000000926fffffffffffffffffffffff00000000009271ffff000000000000000000000000000000009261134560ff8d5460081c1661134081612580565b612580565b61134e33612538565b8b549a61136e60ff8d60081c1661136481612580565b6001606555612580565b609754166097556001600160a01b0319908160c954161760c95560ca54161760ca5560ce549464ffffffffff1960cc54161760cc5560801b169460281b16911617171760ce556113bc575080f35b61ff00191681557f7f26b83ff96e1f2b6a682f133852f6798a09c465da95921460cefb3847402498602060405160018152a180f35b606460405162461bcd60e51b815260206004820152601c60248201527f7665576f6d20616464726573732063616e6e6f74206265207a65726f000000006044820152fd5b606460405162461bcd60e51b815260206004820152601a60248201527f776f6d20616464726573732063616e6e6f74206265207a65726f0000000000006044820152fd5b606460405162461bcd60e51b815260206004820152601c60248201527f696e76616c6964205f666972737445706f6368537461727454696d65000000006044820152fd5b61ffff1916610101178c55386112b6565b608460405162461bcd60e51b815260206004820152602e60248201527f496e697469616c697a61626c653a20636f6e747261637420697320616c72656160448201527f647920696e697469616c697a65640000000000000000000000000000000000006064820152fd5b50303b15801561129f5750600160ff8c161461129f565b50600160ff8c1610611298565b50346101e357806003193601126101e3576115756124e0565b60006001600160a01b036033546001600160a01b03198116603355167f8be0079c531659141344cd1fd0a4f28419497f9722a3daafe3b4186f6b6457e08280a380f35b50346101e357602090816003193601126101e3576115d46123d4565b6001600160a01b038082169081845260d18086528160026040872001541633036118685784956116058596956127e5565b61160d612865565b61161686612928565b83855281815260408520936001600160801b03600186015416948515159081611852575b50806117e9575b611649578580f35b808652828252600160408720016fffffffffffffffffffffffffffffffff1981541690556116a4611678612ce4565b828852848452604088209064ffffffffff60d01b1964ffffffffff60d01b83549260d01b169116179055565b604080516001600160a01b0389168152602081018790527fe8b160e373db99a103e0a2abfa029b9c3fc8b328984a1ead8a65ae68ae646db79190a161172c82868660c95416848a5286835287600260408c200154168a60405180968195829463a9059cbb60e01b845260048401602090939291936001600160a01b0360408201951681520152565b03925af18015610ae2576117cc575b50855252600260408420015416803b156117c8576040517fb66503cf0000000000000000000000000000000000000000000000000000000081526001600160a01b0394909416600485015260248401919091528290604490829084905af180156117bd576117ae575b8181808080808580f35b6117b7906125f1565b386117a4565b6040513d84823e3d90fd5b8280fd5b6117e290833d8511610404576103f58183612605565b503861173b565b506024828560c95416604051928380926370a0823160e01b82523060048301525afa8015610ae25786918891611821575b5011611641565b809250848092503d831161184b575b61183a8183612605565b81010312610ab1578590513861181a565b503d611830565b64ffffffffff91505460d01c164210153861163a565b6064866040519062461bcd60e51b82526004820152601b60248201527f43616c6c6572206973206e6f74206761756765206d616e6167657200000000006044820152fd5b50346101e35760403660031901126101e3576118c66123d4565b6001600160801b03906024358281169182820361195c5761193d936118e96124e0565b6118f1612865565b6118fa82612928565b6001600160a01b0360cd5492169283875260cf6020526fffffffffffffffffffffffffffffffff199586916119388460408b2054168660801c612716565b61273c565b60801b1691161760cd55835260cf602052604083209182541617905580f35b8480fd5b50346101e357806003193601126101e357602060ff609754166040519015158152f35b50346101e357806003193601126101e35761199c6124e0565b6119a4612865565b60cb54815b818110611a38578260975460ff81166119f45760019060ff1916176097557f62e78cea01bee320cd4e420270b5ea74000d11b0c9f74754ebdbfc544b05a2586020604051338152a180f35b606460405162461bcd60e51b815260206004820152601060248201527f5061757361626c653a20706175736564000000000000000000000000000000006044820152fd5b80610e666001600160a01b03610e59611a5094612387565b6119a9565b50346101e357806003193601126101e35760206001600160681b0360cc5460901c16604051908152f35b50346101e357806003193601126101e357602061ffff611aa58160ce5460801c166129ee565b16604051908152f35b50346101e35760403660031901126101e3576040602091611acd6123d4565b611ad56123ea565b6001600160a01b03918216835260d085528383209116825283522054604051908152f35b50346101e357806003193601126101e35760206001600160a01b0360ca5416604051908152f35b50346101e35760403660031901126101e35767ffffffffffffffff6004358181116117c857611b53903690600401612400565b916024359081116102a157611b6c903690600401612400565b9091600260655414611ff9576002606555818403611fb557918492611b8f612865565b8391611b9a8661265c565b9385965b808810611c3157868681876001600160a01b0360ca5416803b156117c8576044839260405194859384927fb0dfaa7a00000000000000000000000000000000000000000000000000000000845233600485015260248401525af1801561040b576105779350611c22575b506001606555604051918291602083526020830190612431565b611c2b906125f1565b82611c08565b611c3f6106898983876126b8565b611c48816127e5565b611c538984866126b8565b35986001600160a01b038216895260cf602052604089205460801c8a611d4c575b899a50988098996001600160a01b038416825260d16020526001600160a01b036003604084200154169384611cbb575b505050611cb19150612693565b9750959495611b9e565b33835260d06020526001600160a01b036040842091168352602052606460408320548360405196879485936332ecd52560e11b8552336004860152602485015260448401525af180156109e657611cb1928991611d32575b50611d1e828b6127d1565b52611d29818a6127d1565b50878b80611ca4565b611d4691503d808b833e610ad48183612605565b8b611d13565b96611d5683612928565b898b1315611eb357338a5260d060205260408a206001600160a01b0384168b5260205260408a20611d888c825461272f565b9055611ddd611d9f611d9a8d8b61272f565b612d33565b6001600160a01b0385168c5260cf60205260408c20906001600160801b036fffffffffffffffffffffffffffffffff1983549260801b169116179055565b611de68b612d33565b60cd906fffffffffffffffffffffffffffffffff19825491611e126001600160801b039182851661273c565b1691161790555b898b82019b8c129112908015821691151617611e9f5788809a9998999733825260d0602052604082206001600160a01b03851683526020527f92aede651123b9757b46a79e4d37916de5f58649f7ef39380b0ad5d7273565f360606040842054604051903382526001600160a01b03881660208301526040820152a19050989798611c74565b602489634e487b7160e01b81526011600452fd5b338a5260d060205260408a206001600160a01b0384168b5260205260408a2054611edc8c6126dc565b11611f7157611f2e611d9f611d9a611f288e8e611f216040611efd846126dc565b9233815260d06020528181206001600160a01b038d16825260205220918254612709565b90556126dc565b8b612709565b611f3a611d9a8c6126dc565b60cd906fffffffffffffffffffffffffffffffff19825491611f666001600160801b0391828516612716565b169116179055611e19565b606460405162461bcd60e51b815260206004820152601560248201527f766f7465723a20766f746520756e646572666c6f7700000000000000000000006044820152fd5b606460405162461bcd60e51b815260206004820152601d60248201527f766f7465723a206172726179206c656e677468206e6f7420657175616c0000006044820152fd5b606460405162461bcd60e51b815260206004820152601f60248201527f5265656e7472616e637947756172643a207265656e7472616e742063616c6c006044820152fd5b50346101e35760203660031901126101e357602061207261205c6123d4565b612064612a35565b61206c612b19565b91612c09565b604051908152f35b50346101e357602080600319360112610aed5760043567ffffffffffffffff81116117c8576120ad903690600401612400565b92906120b88461265c565b93825b8181106120d5576040518581528061057781880189612431565b6120e36106898284866126b8565b6120ec816127e5565b6001600160a01b038091169081865260d18752600360408720015416908161211f575b505061211a90612693565b6120bb565b33865260d0875260408620908652865284604081205460cf88526064604083205460801c918360405195869485936332ecd52560e11b8552336004860152602485015260448401525af19081156121b5579061211a9291869161219b575b5061218882896127d1565b5261219381886127d1565b50903861210f565b6121af91503d8088833e610ad48183612605565b3861217d565b6040513d87823e3d90fd5b50346101e35760403660031901126101e3576121da6123d4565b6121e26123ea565b6121ea6124e0565b6001600160a01b038091169182156102a157612205816127e5565b16825260d160205260026040832001906001600160a01b031982541617905580f35b50346101e35760203660031901126101e3576004359060cb548210156101e35760206001600160a01b0361225a84612387565b9190546040519260031b1c168152f35b50346101e357806003193601126101e357602060cd5460801c604051908152f35b50346101e357806003193601126101e35760206001600160681b0360cc5460281c16604051908152f35b50346101e35760203660031901126101e3576004356affffffffffffffffffffff81168082036117c85769021e19e0c9bab2400000906122f36124e0565b1161234357612300612865565b7fffffffffffffffffffffffffffffffff0000000000000000000000ffffffffff6fffffffffffffffffffffff000000000060ce549260281b1691161760ce5580f35b606460405162461bcd60e51b815260206004820152601460248201527f726577617264207261746520746f6f20686967680000000000000000000000006044820152fd5b60cb548110156123be5760cb6000527fa7ce836d032b2bf62b7e2097a8e0a6d8aeb35405ad15271e96d3b0188a1d06fb0190600090565b634e487b7160e01b600052603260045260246000fd5b600435906001600160a01b03821682036102a557565b602435906001600160a01b03821682036102a557565b9181601f840112156102a55782359167ffffffffffffffff83116102a5576020808501948460051b0101116102a557565b908082519081815260208091019281808460051b830101950193600080925b858410612461575050505050505090565b9091929380959697601f1983820301855288519082808351928381520192019085905b8082106124a4575050509080600192990194019401929594939190612450565b9193806001929486518152019401920188939291612484565b60005b8381106124d05750506000910152565b81810151838201526020016124c0565b6001600160a01b036033541633036124f457565b606460405162461bcd60e51b815260206004820152602060248201527f4f776e61626c653a2063616c6c6572206973206e6f7420746865206f776e65726044820152fd5b603354906001600160a01b0380911691826001600160a01b0319821617603355167f8be0079c531659141344cd1fd0a4f28419497f9722a3daafe3b4186f6b6457e0600080a3565b1561258757565b608460405162461bcd60e51b815260206004820152602b60248201527f496e697469616c697a61626c653a20636f6e7472616374206973206e6f74206960448201527f6e697469616c697a696e670000000000000000000000000000000000000000006064820152fd5b67ffffffffffffffff811161089f57604052565b90601f8019910116810190811067ffffffffffffffff82111761089f57604052565b67ffffffffffffffff811161089f5760051b60200190565b60005b82811061264e57505050565b606082820152602001612642565b9061269161266983612627565b6126766040519182612605565b83815260208194612689601f1991612627565b01910161263f565b565b60001981146126a25760010190565b634e487b7160e01b600052601160045260246000fd5b91908110156123be5760051b0190565b356001600160a01b03811681036102a55790565b7f800000000000000000000000000000000000000000000000000000000000000081146126a25760000390565b919082039182116126a257565b6001600160801b0391821690821603919082116126a257565b919082018092116126a257565b9190916001600160801b03808094169116019182116126a257565b60209081818403126102a55780519067ffffffffffffffff82116102a557019180601f840112156102a557825161278d81612627565b9361279b6040519586612605565b818552838086019260051b8201019283116102a5578301905b8282106127c2575050505090565b815181529083019083016127b4565b80518210156123be5760209160051b010190565b6001600160a01b0380911660005260d1602052600260406000200154161561280957565b606460405162461bcd60e51b815260206004820152601d60248201527f566f7465723a2067617567654d616e61676572206e6f742065786973740000006044820152fd5b908160209103126102a5575180151581036102a55790565b60cc5464ffffffffff8082164211156129245771ffffffffffffffffffffffffff000000000061289b612896612a35565b612d8b565b60281b16807fffffffffffffffffffffffffffff00000000000000000000000000ffffffffff84161760cc557fff000000000000000000000000000000000000000000000000000000000000007effffffffffffffffffffffffff000000000000000000000000000000000000612913612896612b19565b60901b16924216931617171760cc55565b5050565b60cc546001600160a01b03612954611d9a6001600160681b039384808260901c169160281c1686612c09565b921660005260d16020526040600020916001600160801b036001840191166fffffffffffffffffffffffffffffffff1982541617905560cc5460281c16815490806001600160681b031983161783557fffffffffffff000000000000000000000000000000000000000000000000000079ffffffffffffffffffffffffff0000000000000000000000000060cc5460281c16921617179055565b9061ffff8092166103e8039182116126a257565b818102929181159184041417156126a257565b8115612a1f570490565b634e487b7160e01b600052601260045260246000fd5b60cc5464ffffffffff8116804211801590612b0c575b8015612b00575b612af057612a63612a8f9142612709565b61ffff612a8460ce54926affffffffffffffffffffff8460281c1690612a02565b9160801c1690612a02565b9064e8d4a51000918281029281840414901517156126a2576001600160681b036103e8612ada612ae59460cd5460801c670de0b6b3a764000080821015600014612ae8575090612a15565b049160281c1661272f565b90565b905090612a15565b5060281c6001600160681b031690565b5060ff60975416612a52565b5060cd5460801c15612a4b565b60cc5464ffffffffff8116804211801590612bf6575b8015612bea575b612bda57612b47612b7e9142612709565b612b6560ce54916affffffffffffffffffffff8360281c1690612a02565b90612b7761ffff809260801c166129ee565b1690612a02565b9064e8d4a51000918281029281840414901517156126a2576001600160681b036103e8612bcf612ae5946001600160801b0360cd5416670de0b6b3a764000080821015600014612ae8575090612a15565b049160901c1661272f565b5060901c6001600160681b031690565b5060ff60975416612b36565b506001600160801b0360cd541615612b2f565b6001600160a01b03169160009183835260209260d184526001600160681b0393612c3b60409386858520541690612709565b9386835260cf825264e8d4a510009081612c626001600160801b0397888888205416612a02565b049688855260d184526001868620015460ff8160801c1615612cd2575060019389989693612cbf612cac889560d195612ae59e612ccd9d9b528686528888205460681c1690612709565b8b865260cf84528686205460801c612a02565b04988352522001541661272f565b61272f565b95505050505050612ae593501661272f565b64ffffffffff8060ce5416804210612d2e5762093a8080612d058342612709565b04600181018091116126a2578181029181830414901517156126a257612d2a9161272f565b1690565b905090565b6001600160801b0390818111612d47571690565b606460405162461bcd60e51b815260206004820152601060248201527f75696e74313238206f766572666c6f77000000000000000000000000000000006044820152fd5b6001600160681b0390818111612d9f571690565b606460405162461bcd60e51b815260206004820152601060248201527f75696e74313034206f766572666c6f77000000000000000000000000000000006044820152fdfea2646970667358221220b05692d12d0ab48d77941e0d2294396553b45e705f0898a1f4b17ca0b53890c664736f6c63430008120033",
  "devdoc": {
    "events": {
      "Initialized(uint8)": {
        "details": "Triggered when the contract has been initialized or reinitialized."
      },
      "Paused(address)": {
        "details": "Emitted when the pause is triggered by `account`."
      },
      "Unpaused(address)": {
        "details": "Emitted when the pause is lifted by `account`."
      }
    },
    "kind": "dev",
    "methods": {
      "claimBribes(address[])": {
        "details": "This function looks safe from re-entrancy attack"
      },
      "distribute(address)": {
        "details": "This function looks safe from re-entrancy attack"
      },
      "owner()": {
        "details": "Returns the address of the current owner."
      },
      "paused()": {
        "details": "Returns true if the contract is paused, and false otherwise."
      },
      "renounceOwnership()": {
        "details": "Leaves the contract without owner. It will not be possible to call `onlyOwner` functions anymore. Can only be called by the current owner. NOTE: Renouncing ownership will leave the contract without an owner, thereby removing any functionality that is only available to the owner."
      },
      "transferOwnership(address)": {
        "details": "Transfers ownership of the contract to a new account (`newOwner`). Can only be called by the current owner."
      },
      "vote(address[],int256[])": {
        "params": {
          "_deltas": "change of vote for each LP tokens",
          "_lpVote": "address to LP tokens to vote"
        }
      }
    },
    "version": 1
  },
  "userdoc": {
    "kind": "user",
    "methods": {
      "add(address,address,address)": {
        "notice": "Add LP token into the Voter"
      },
      "claimBribes(address[])": {
        "notice": "Claim bribes for LP tokens"
      },
      "emergencyWomWithdraw()": {
        "notice": "In case we need to manually migrate WOM funds from Voter Sends all remaining wom from the contract to the owner"
      },
      "getUserVotes(address,address)": {
        "notice": "getter function to return vote of a LP token for a user"
      },
      "lpTokenLength()": {
        "notice": "returns LP tokens length"
      },
      "pauseAll()": {
        "notice": "Pause vote accumulation of WOM tokens for all assets Users can still vote/unvote and receive bribes."
      },
      "pauseVoteEmission(address)": {
        "notice": "Pause vote emission of WOM tokens for the gauge. Users can still vote/unvote and receive bribes."
      },
      "pendingBribes(address[],address)": {
        "notice": "Get pending bribes for LP tokens"
      },
      "pendingWom(address)": {
        "notice": "Amount of pending WOM for the LP token"
      },
      "resumeAll()": {
        "notice": "Resume vote accumulation of WOM tokens for all assets"
      },
      "resumeVoteEmission(address)": {
        "notice": "Resume vote accumulation of WOM tokens for the gauge."
      },
      "setBaseAllocation(uint16)": {
        "notice": "update the base and vote partition"
      },
      "setBribe(address,address)": {
        "notice": "get bribe address for LP token"
      },
      "setGauge(address,address)": {
        "notice": "get gaugeManager address for LP token"
      },
      "vote(address[],int256[])": {
        "notice": "Vote and unvote WOM emission for LP tokens. User can vote/unvote a un-whitelisted pool. But no WOM will be emitted. Bribes are also distributed by the Bribe contract. Amount of vote should be checked by veWom.vote(). This can also used to distribute bribes when _deltas are set to 0"
      },
      "voteAllocation()": {
        "notice": "Read-only functions"
      }
    },
    "notice": "Voter can handle gauge voting. WOM rewards are distributed to different gauges (MasterWombat->LpToken pair) according to the base allocation & voting weights. veWOM holders can participate in gauge voting to determine `voteAllocation()` of the WOM emission. They can  allocate their vote (1 veWOM = 1 vote) to one or more gauges. WOM accumulation to a gauge is proportional to the amount of vote it receives. Real-time WOM accumulation and epoch-based WOM distribution: Voting gauges accumulates WOM seconds by seconds according to the voting weight. When a user applies new allocation for their votes, accumulation rate of WOM of the gauge updates immediately. Note that only whitelisted gauges are able to accumulate WOM from users' votes. Accumulated WOM is distributed to LP in the next epoch at an even rate. 1 epoch last for 7 days. Base Allocation: `baseAllocation` of WOM emissions is distributed to gauges according to the allocation by `owner`. Other WOM emissions are deteremined by `votes` of veWOM holders. Flow to distribute reward: 1. `Voter.distribute(lpToken)` is called 2. WOM index (`baseIndex` and `voteIndex`) is updated and corresponding WOM accumulated over this period (`GaugeInfo.claimable`)    is updated. 3. At the beginning of each epoch, `GaugeInfo.claimable` amount of WOM is sent to the respective gauge    via `MasterWombat.notifyRewardAmount(IERC20 _lpToken, uint256 _amount)` 4. MasterWombat will update the corresponding `pool.rewardRate` and `pool.periodFinish` Bribe Bribe is natively supported by `Voter`. Third Party protocols can bribe to attract more votes from veWOM holders to increase WOM emissions to their tokens. Flow of bribe: 1. When users vote/unvote, `bribe.onVote` is called. The bribe contract works similar to `MultiRewarderPerSec`. Note: This should also works with boosted pool. But it doesn't work with interest rate model Note 2: Please refer to the comment of MasterWombatV3.notifyRewardAmount for front-running risk",
    "version": 1
  },
  "storageLayout": {
    "storage": [
      {
        "astId": 138,
        "contract": "contracts/wombat-governance/gauge/Voter.sol:Voter",
        "label": "_initialized",
        "offset": 0,
        "slot": "0",
        "type": "t_uint8"
      },
      {
        "astId": 141,
        "contract": "contracts/wombat-governance/gauge/Voter.sol:Voter",
        "label": "_initializing",
        "offset": 1,
        "slot": "0",
        "type": "t_bool"
      },
      {
        "astId": 825,
        "contract": "contracts/wombat-governance/gauge/Voter.sol:Voter",
        "label": "__gap",
        "offset": 0,
        "slot": "1",
        "type": "t_array(t_uint256)50_storage"
      },
      {
        "astId": 10,
        "contract": "contracts/wombat-governance/gauge/Voter.sol:Voter",
        "label": "_owner",
        "offset": 0,
        "slot": "51",
        "type": "t_address"
      },
      {
        "astId": 130,
        "contract": "contracts/wombat-governance/gauge/Voter.sol:Voter",
        "label": "__gap",
        "offset": 0,
        "slot": "52",
        "type": "t_array(t_uint256)49_storage"
      },
      {
        "astId": 441,
        "contract": "contracts/wombat-governance/gauge/Voter.sol:Voter",
        "label": "_status",
        "offset": 0,
        "slot": "101",
        "type": "t_uint256"
      },
      {
        "astId": 499,
        "contract": "contracts/wombat-governance/gauge/Voter.sol:Voter",
        "label": "__gap",
        "offset": 0,
        "slot": "102",
        "type": "t_array(t_uint256)49_storage"
      },
      {
        "astId": 321,
        "contract": "contracts/wombat-governance/gauge/Voter.sol:Voter",
        "label": "_paused",
        "offset": 0,
        "slot": "151",
        "type": "t_bool"
      },
      {
        "astId": 426,
        "contract": "contracts/wombat-governance/gauge/Voter.sol:Voter",
        "label": "__gap",
        "offset": 0,
        "slot": "152",
        "type": "t_array(t_uint256)49_storage"
      },
      {
        "astId": 31498,
        "contract": "contracts/wombat-governance/gauge/Voter.sol:Voter",
        "label": "wom",
        "offset": 0,
        "slot": "201",
        "type": "t_contract(IERC20)2197"
      },
      {
        "astId": 31501,
        "contract": "contracts/wombat-governance/gauge/Voter.sol:Voter",
        "label": "veWom",
        "offset": 0,
        "slot": "202",
        "type": "t_contract(IVe)31458"
      },
      {
        "astId": 31505,
        "contract": "contracts/wombat-governance/gauge/Voter.sol:Voter",
        "label": "lpTokens",
        "offset": 0,
        "slot": "203",
        "type": "t_array(t_contract(IERC20)2197)dyn_storage"
      },
      {
        "astId": 31507,
        "contract": "contracts/wombat-governance/gauge/Voter.sol:Voter",
        "label": "lastRewardTimestamp",
        "offset": 0,
        "slot": "204",
        "type": "t_uint40"
      },
      {
        "astId": 31509,
        "contract": "contracts/wombat-governance/gauge/Voter.sol:Voter",
        "label": "baseIndex",
        "offset": 5,
        "slot": "204",
        "type": "t_uint104"
      },
      {
        "astId": 31511,
        "contract": "contracts/wombat-governance/gauge/Voter.sol:Voter",
        "label": "voteIndex",
        "offset": 18,
        "slot": "204",
        "type": "t_uint104"
      },
      {
        "astId": 31513,
        "contract": "contracts/wombat-governance/gauge/Voter.sol:Voter",
        "label": "totalWeight",
        "offset": 0,
        "slot": "205",
        "type": "t_uint128"
      },
      {
        "astId": 31515,
        "contract": "contracts/wombat-governance/gauge/Voter.sol:Voter",
        "label": "totalAllocPoint",
        "offset": 16,
        "slot": "205",
        "type": "t_uint128"
      },
      {
        "astId": 31517,
        "contract": "contracts/wombat-governance/gauge/Voter.sol:Voter",
        "label": "firstEpochStartTime",
        "offset": 0,
        "slot": "206",
        "type": "t_uint40"
      },
      {
        "astId": 31519,
        "contract": "contracts/wombat-governance/gauge/Voter.sol:Voter",
        "label": "womPerSec",
        "offset": 5,
        "slot": "206",
        "type": "t_uint88"
      },
      {
        "astId": 31521,
        "contract": "contracts/wombat-governance/gauge/Voter.sol:Voter",
        "label": "baseAllocation",
        "offset": 16,
        "slot": "206",
        "type": "t_uint16"
      },
      {
        "astId": 31527,
        "contract": "contracts/wombat-governance/gauge/Voter.sol:Voter",
        "label": "weights",
        "offset": 0,
        "slot": "207",
        "type": "t_mapping(t_contract(IERC20)2197,t_struct(GaugeWeight)31489_storage)"
      },
      {
        "astId": 31534,
        "contract": "contracts/wombat-governance/gauge/Voter.sol:Voter",
        "label": "votes",
        "offset": 0,
        "slot": "208",
        "type": "t_mapping(t_address,t_mapping(t_contract(IERC20)2197,t_uint256))"
      },
      {
        "astId": 31540,
        "contract": "contracts/wombat-governance/gauge/Voter.sol:Voter",
        "label": "infos",
        "offset": 0,
        "slot": "209",
        "type": "t_mapping(t_contract(IERC20)2197,t_struct(GaugeInfo)31484_storage)"
      }
    ],
    "types": {
      "t_address": {
        "encoding": "inplace",
        "label": "address",
        "numberOfBytes": "20"
      },
      "t_array(t_contract(IERC20)2197)dyn_storage": {
        "base": "t_contract(IERC20)2197",
        "encoding": "dynamic_array",
        "label": "contract IERC20[]",
        "numberOfBytes": "32"
      },
      "t_array(t_uint256)49_storage": {
        "base": "t_uint256",
        "encoding": "inplace",
        "label": "uint256[49]",
        "numberOfBytes": "1568"
      },
      "t_array(t_uint256)50_storage": {
        "base": "t_uint256",
        "encoding": "inplace",
        "label": "uint256[50]",
        "numberOfBytes": "1600"
      },
      "t_bool": {
        "encoding": "inplace",
        "label": "bool",
        "numberOfBytes": "1"
      },
      "t_contract(IBribe)33156": {
        "encoding": "inplace",
        "label": "contract IBribe",
        "numberOfBytes": "20"
      },
      "t_contract(IERC20)2197": {
        "encoding": "inplace",
        "label": "contract IERC20",
        "numberOfBytes": "20"
      },
      "t_contract(IGauge)31450": {
        "encoding": "inplace",
        "label": "contract IGauge",
        "numberOfBytes": "20"
      },
      "t_contract(IVe)31458": {
        "encoding": "inplace",
        "label": "contract IVe",
        "numberOfBytes": "20"
      },
      "t_mapping(t_address,t_mapping(t_contract(IERC20)2197,t_uint256))": {
        "encoding": "mapping",
        "key": "t_address",
        "label": "mapping(address => mapping(contract IERC20 => uint256))",
        "numberOfBytes": "32",
        "value": "t_mapping(t_contract(IERC20)2197,t_uint256)"
      },
      "t_mapping(t_contract(IERC20)2197,t_struct(GaugeInfo)31484_storage)": {
        "encoding": "mapping",
        "key": "t_contract(IERC20)2197",
        "label": "mapping(contract IERC20 => struct Voter.GaugeInfo)",
        "numberOfBytes": "32",
        "value": "t_struct(GaugeInfo)31484_storage"
      },
      "t_mapping(t_contract(IERC20)2197,t_struct(GaugeWeight)31489_storage)": {
        "encoding": "mapping",
        "key": "t_contract(IERC20)2197",
        "label": "mapping(contract IERC20 => struct Voter.GaugeWeight)",
        "numberOfBytes": "32",
        "value": "t_struct(GaugeWeight)31489_storage"
      },
      "t_mapping(t_contract(IERC20)2197,t_uint256)": {
        "encoding": "mapping",
        "key": "t_contract(IERC20)2197",
        "label": "mapping(contract IERC20 => uint256)",
        "numberOfBytes": "32",
        "value": "t_uint256"
      },
      "t_struct(GaugeInfo)31484_storage": {
        "encoding": "inplace",
        "label": "struct Voter.GaugeInfo",
        "members": [
          {
            "astId": 31469,
            "contract": "contracts/wombat-governance/gauge/Voter.sol:Voter",
            "label": "supplyBaseIndex",
            "offset": 0,
            "slot": "0",
            "type": "t_uint104"
          },
          {
            "astId": 31471,
            "contract": "contracts/wombat-governance/gauge/Voter.sol:Voter",
            "label": "supplyVoteIndex",
            "offset": 13,
            "slot": "0",
            "type": "t_uint104"
          },
          {
            "astId": 31473,
            "contract": "contracts/wombat-governance/gauge/Voter.sol:Voter",
            "label": "nextEpochStartTime",
            "offset": 26,
            "slot": "0",
            "type": "t_uint40"
          },
          {
            "astId": 31475,
            "contract": "contracts/wombat-governance/gauge/Voter.sol:Voter",
            "label": "claimable",
            "offset": 0,
            "slot": "1",
            "type": "t_uint128"
          },
          {
            "astId": 31477,
            "contract": "contracts/wombat-governance/gauge/Voter.sol:Voter",
            "label": "whitelist",
            "offset": 16,
            "slot": "1",
            "type": "t_bool"
          },
          {
            "astId": 31480,
            "contract": "contracts/wombat-governance/gauge/Voter.sol:Voter",
            "label": "gaugeManager",
            "offset": 0,
            "slot": "2",
            "type": "t_contract(IGauge)31450"
          },
          {
            "astId": 31483,
            "contract": "contracts/wombat-governance/gauge/Voter.sol:Voter",
            "label": "bribe",
            "offset": 0,
            "slot": "3",
            "type": "t_contract(IBribe)33156"
          }
        ],
        "numberOfBytes": "128"
      },
      "t_struct(GaugeWeight)31489_storage": {
        "encoding": "inplace",
        "label": "struct Voter.GaugeWeight",
        "members": [
          {
            "astId": 31486,
            "contract": "contracts/wombat-governance/gauge/Voter.sol:Voter",
            "label": "allocPoint",
            "offset": 0,
            "slot": "0",
            "type": "t_uint128"
          },
          {
            "astId": 31488,
            "contract": "contracts/wombat-governance/gauge/Voter.sol:Voter",
            "label": "voteWeight",
            "offset": 16,
            "slot": "0",
            "type": "t_uint128"
          }
        ],
        "numberOfBytes": "32"
      },
      "t_uint104": {
        "encoding": "inplace",
        "label": "uint104",
        "numberOfBytes": "13"
      },
      "t_uint128": {
        "encoding": "inplace",
        "label": "uint128",
        "numberOfBytes": "16"
      },
      "t_uint16": {
        "encoding": "inplace",
        "label": "uint16",
        "numberOfBytes": "2"
      },
      "t_uint256": {
        "encoding": "inplace",
        "label": "uint256",
        "numberOfBytes": "32"
      },
      "t_uint40": {
        "encoding": "inplace",
        "label": "uint40",
        "numberOfBytes": "5"
      },
      "t_uint8": {
        "encoding": "inplace",
        "label": "uint8",
        "numberOfBytes": "1"
      },
      "t_uint88": {
        "encoding": "inplace",
        "label": "uint88",
        "numberOfBytes": "11"
      }
    }
  }
}