{
  "address": "0x51AbD2A24d225C80108252fb73AEd819f1Ef52Bd",
  "abi": [
    {
      "anonymous": false,
      "inputs": [
        {
          "indexed": false,
          "internalType": "uint8",
          "name": "version",
          "type": "uint8"
        }
      ],
      "name": "Initialized",
      "type": "event"
    },
    {
      "anonymous": false,
      "inputs": [
        {
          "indexed": false,
          "internalType": "bool",
          "name": "isDeprecated",
          "type": "bool"
        }
      ],
      "name": "IsDeprecatedUpdated",
      "type": "event"
    },
    {
      "anonymous": false,
      "inputs": [
        {
          "indexed": true,
          "internalType": "address",
          "name": "rewardToken",
          "type": "address"
        },
        {
          "indexed": true,
          "internalType": "address",
          "name": "user",
          "type": "address"
        },
        {
          "indexed": false,
          "internalType": "uint256",
          "name": "amount",
          "type": "uint256"
        }
      ],
      "name": "OnReward",
      "type": "event"
    },
    {
      "anonymous": false,
      "inputs": [
        {
          "indexed": true,
          "internalType": "address",
          "name": "previousOwner",
          "type": "address"
        },
        {
          "indexed": true,
          "internalType": "address",
          "name": "newOwner",
          "type": "address"
        }
      ],
      "name": "OwnershipTransferred",
      "type": "event"
    },
    {
      "anonymous": false,
      "inputs": [
        {
          "indexed": true,
          "internalType": "address",
          "name": "rewardToken",
          "type": "address"
        },
        {
          "indexed": false,
          "internalType": "uint256",
          "name": "oldRate",
          "type": "uint256"
        },
        {
          "indexed": false,
          "internalType": "uint256",
          "name": "newRate",
          "type": "uint256"
        }
      ],
      "name": "RewardRateUpdated",
      "type": "event"
    },
    {
      "anonymous": false,
      "inputs": [
        {
          "indexed": true,
          "internalType": "bytes32",
          "name": "role",
          "type": "bytes32"
        },
        {
          "indexed": true,
          "internalType": "bytes32",
          "name": "previousAdminRole",
          "type": "bytes32"
        },
        {
          "indexed": true,
          "internalType": "bytes32",
          "name": "newAdminRole",
          "type": "bytes32"
        }
      ],
      "name": "RoleAdminChanged",
      "type": "event"
    },
    {
      "anonymous": false,
      "inputs": [
        {
          "indexed": true,
          "internalType": "bytes32",
          "name": "role",
          "type": "bytes32"
        },
        {
          "indexed": true,
          "internalType": "address",
          "name": "account",
          "type": "address"
        },
        {
          "indexed": true,
          "internalType": "address",
          "name": "sender",
          "type": "address"
        }
      ],
      "name": "RoleGranted",
      "type": "event"
    },
    {
      "anonymous": false,
      "inputs": [
        {
          "indexed": true,
          "internalType": "bytes32",
          "name": "role",
          "type": "bytes32"
        },
        {
          "indexed": true,
          "internalType": "address",
          "name": "account",
          "type": "address"
        },
        {
          "indexed": true,
          "internalType": "address",
          "name": "sender",
          "type": "address"
        }
      ],
      "name": "RoleRevoked",
      "type": "event"
    },
    {
      "anonymous": false,
      "inputs": [
        {
          "indexed": true,
          "internalType": "address",
          "name": "rewardToken",
          "type": "address"
        },
        {
          "indexed": false,
          "internalType": "uint40",
          "name": "newStartTime",
          "type": "uint40"
        }
      ],
      "name": "StartTimeUpdated",
      "type": "event"
    },
    {
      "inputs": [],
      "name": "ACC_TOKEN_PRECISION",
      "outputs": [
        {
          "internalType": "uint256",
          "name": "",
          "type": "uint256"
        }
      ],
      "stateMutability": "view",
      "type": "function"
    },
    {
      "inputs": [],
      "name": "DEFAULT_ADMIN_ROLE",
      "outputs": [
        {
          "internalType": "bytes32",
          "name": "",
          "type": "bytes32"
        }
      ],
      "stateMutability": "view",
      "type": "function"
    },
    {
      "inputs": [],
      "name": "MAX_REWARD_TOKENS",
      "outputs": [
        {
          "internalType": "uint256",
          "name": "",
          "type": "uint256"
        }
      ],
      "stateMutability": "view",
      "type": "function"
    },
    {
      "inputs": [],
      "name": "ROLE_OPERATOR",
      "outputs": [
        {
          "internalType": "bytes32",
          "name": "",
          "type": "bytes32"
        }
      ],
      "stateMutability": "view",
      "type": "function"
    },
    {
      "inputs": [
        {
          "internalType": "address",
          "name": "_operator",
          "type": "address"
        }
      ],
      "name": "addOperator",
      "outputs": [],
      "stateMutability": "nonpayable",
      "type": "function"
    },
    {
      "inputs": [
        {
          "internalType": "contract IERC20",
          "name": "_rewardToken",
          "type": "address"
        },
        {
          "internalType": "uint40",
          "name": "_startTimestampOrNow",
          "type": "uint40"
        },
        {
          "internalType": "uint96",
          "name": "_tokenPerSec",
          "type": "uint96"
        }
      ],
      "name": "addRewardToken",
      "outputs": [],
      "stateMutability": "nonpayable",
      "type": "function"
    },
    {
      "inputs": [],
      "name": "balances",
      "outputs": [
        {
          "internalType": "uint256[]",
          "name": "balances_",
          "type": "uint256[]"
        }
      ],
      "stateMutability": "view",
      "type": "function"
    },
    {
      "inputs": [],
      "name": "bribeFactory",
      "outputs": [
        {
          "internalType": "contract IBribeRewarderFactory",
          "name": "",
          "type": "address"
        }
      ],
      "stateMutability": "view",
      "type": "function"
    },
    {
      "inputs": [],
      "name": "emergencyClaimReward",
      "outputs": [
        {
          "internalType": "uint256[]",
          "name": "rewards",
          "type": "uint256[]"
        }
      ],
      "stateMutability": "nonpayable",
      "type": "function"
    },
    {
      "inputs": [
        {
          "internalType": "address",
          "name": "token",
          "type": "address"
        }
      ],
      "name": "emergencyTokenWithdraw",
      "outputs": [],
      "stateMutability": "nonpayable",
      "type": "function"
    },
    {
      "inputs": [],
      "name": "emergencyWithdraw",
      "outputs": [],
      "stateMutability": "nonpayable",
      "type": "function"
    },
    {
      "inputs": [
        {
          "internalType": "bytes32",
          "name": "role",
          "type": "bytes32"
        }
      ],
      "name": "getRoleAdmin",
      "outputs": [
        {
          "internalType": "bytes32",
          "name": "",
          "type": "bytes32"
        }
      ],
      "stateMutability": "view",
      "type": "function"
    },
    {
      "inputs": [
        {
          "internalType": "bytes32",
          "name": "role",
          "type": "bytes32"
        },
        {
          "internalType": "uint256",
          "name": "index",
          "type": "uint256"
        }
      ],
      "name": "getRoleMember",
      "outputs": [
        {
          "internalType": "address",
          "name": "",
          "type": "address"
        }
      ],
      "stateMutability": "view",
      "type": "function"
    },
    {
      "inputs": [
        {
          "internalType": "bytes32",
          "name": "role",
          "type": "bytes32"
        }
      ],
      "name": "getRoleMemberCount",
      "outputs": [
        {
          "internalType": "uint256",
          "name": "",
          "type": "uint256"
        }
      ],
      "stateMutability": "view",
      "type": "function"
    },
    {
      "inputs": [
        {
          "internalType": "bytes32",
          "name": "role",
          "type": "bytes32"
        },
        {
          "internalType": "address",
          "name": "account",
          "type": "address"
        }
      ],
      "name": "grantRole",
      "outputs": [],
      "stateMutability": "nonpayable",
      "type": "function"
    },
    {
      "inputs": [
        {
          "internalType": "bytes32",
          "name": "role",
          "type": "bytes32"
        },
        {
          "internalType": "address",
          "name": "account",
          "type": "address"
        }
      ],
      "name": "hasRole",
      "outputs": [
        {
          "internalType": "bool",
          "name": "",
          "type": "bool"
        }
      ],
      "stateMutability": "view",
      "type": "function"
    },
    {
      "inputs": [
        {
          "internalType": "contract IBribeRewarderFactory",
          "name": "_bribeFactory",
          "type": "address"
        },
        {
          "internalType": "address",
          "name": "_master",
          "type": "address"
        },
        {
          "internalType": "contract IERC20",
          "name": "_lpToken",
          "type": "address"
        },
        {
          "internalType": "uint256",
          "name": "_startTimestamp",
          "type": "uint256"
        },
        {
          "internalType": "contract IERC20",
          "name": "_rewardToken",
          "type": "address"
        },
        {
          "internalType": "uint96",
          "name": "_tokenPerSec",
          "type": "uint96"
        }
      ],
      "name": "initialize",
      "outputs": [],
      "stateMutability": "nonpayable",
      "type": "function"
    },
    {
      "inputs": [],
      "name": "isDeprecated",
      "outputs": [
        {
          "internalType": "bool",
          "name": "",
          "type": "bool"
        }
      ],
      "stateMutability": "view",
      "type": "function"
    },
    {
      "inputs": [],
      "name": "isEmissionActive",
      "outputs": [
        {
          "internalType": "bool[]",
          "name": "isActive_",
          "type": "bool[]"
        }
      ],
      "stateMutability": "view",
      "type": "function"
    },
    {
      "inputs": [],
      "name": "lpToken",
      "outputs": [
        {
          "internalType": "contract IERC20",
          "name": "",
          "type": "address"
        }
      ],
      "stateMutability": "view",
      "type": "function"
    },
    {
      "inputs": [],
      "name": "master",
      "outputs": [
        {
          "internalType": "address",
          "name": "",
          "type": "address"
        }
      ],
      "stateMutability": "view",
      "type": "function"
    },
    {
      "inputs": [
        {
          "internalType": "address",
          "name": "",
          "type": "address"
        },
        {
          "internalType": "uint256",
          "name": "",
          "type": "uint256"
        }
      ],
      "name": "onReward",
      "outputs": [
        {
          "internalType": "uint256[]",
          "name": "",
          "type": "uint256[]"
        }
      ],
      "stateMutability": "nonpayable",
      "type": "function"
    },
    {
      "inputs": [
        {
          "internalType": "address",
          "name": "_user",
          "type": "address"
        },
        {
          "internalType": "uint256",
          "name": "_newVote",
          "type": "uint256"
        },
        {
          "internalType": "uint256",
          "name": "_originalTotalVotes",
          "type": "uint256"
        }
      ],
      "name": "onVote",
      "outputs": [
        {
          "internalType": "uint256[]",
          "name": "rewards",
          "type": "uint256[]"
        }
      ],
      "stateMutability": "nonpayable",
      "type": "function"
    },
    {
      "inputs": [],
      "name": "owner",
      "outputs": [
        {
          "internalType": "address",
          "name": "",
          "type": "address"
        }
      ],
      "stateMutability": "view",
      "type": "function"
    },
    {
      "inputs": [
        {
          "internalType": "address",
          "name": "_user",
          "type": "address"
        }
      ],
      "name": "pendingTokens",
      "outputs": [
        {
          "internalType": "uint256[]",
          "name": "tokens",
          "type": "uint256[]"
        }
      ],
      "stateMutability": "view",
      "type": "function"
    },
    {
      "inputs": [
        {
          "internalType": "address",
          "name": "_operator",
          "type": "address"
        }
      ],
      "name": "removeOperator",
      "outputs": [],
      "stateMutability": "nonpayable",
      "type": "function"
    },
    {
      "inputs": [],
      "name": "renounceOwnership",
      "outputs": [],
      "stateMutability": "nonpayable",
      "type": "function"
    },
    {
      "inputs": [
        {
          "internalType": "bytes32",
          "name": "role",
          "type": "bytes32"
        },
        {
          "internalType": "address",
          "name": "account",
          "type": "address"
        }
      ],
      "name": "renounceRole",
      "outputs": [],
      "stateMutability": "nonpayable",
      "type": "function"
    },
    {
      "inputs": [
        {
          "internalType": "bytes32",
          "name": "role",
          "type": "bytes32"
        },
        {
          "internalType": "address",
          "name": "account",
          "type": "address"
        }
      ],
      "name": "revokeRole",
      "outputs": [],
      "stateMutability": "nonpayable",
      "type": "function"
    },
    {
      "inputs": [
        {
          "internalType": "uint256",
          "name": "i",
          "type": "uint256"
        }
      ],
      "name": "rewardInfo",
      "outputs": [
        {
          "components": [
            {
              "internalType": "contract IERC20",
              "name": "rewardToken",
              "type": "address"
            },
            {
              "internalType": "uint96",
              "name": "tokenPerSec",
              "type": "uint96"
            },
            {
              "internalType": "uint128",
              "name": "accTokenPerShare",
              "type": "uint128"
            },
            {
              "internalType": "uint128",
              "name": "distributedAmount",
              "type": "uint128"
            },
            {
              "internalType": "uint128",
              "name": "claimedAmount",
              "type": "uint128"
            },
            {
              "internalType": "uint40",
              "name": "lastRewardTimestamp",
              "type": "uint40"
            }
          ],
          "internalType": "struct MultiRewarderPerSecV2.RewardInfo",
          "name": "info",
          "type": "tuple"
        }
      ],
      "stateMutability": "view",
      "type": "function"
    },
    {
      "inputs": [
        {
          "internalType": "uint256",
          "name": "",
          "type": "uint256"
        }
      ],
      "name": "rewardInfos",
      "outputs": [
        {
          "internalType": "contract IERC20",
          "name": "rewardToken",
          "type": "address"
        },
        {
          "internalType": "uint96",
          "name": "tokenPerSec",
          "type": "uint96"
        },
        {
          "internalType": "uint128",
          "name": "accTokenPerShare",
          "type": "uint128"
        },
        {
          "internalType": "uint128",
          "name": "distributedAmount",
          "type": "uint128"
        },
        {
          "internalType": "uint128",
          "name": "claimedAmount",
          "type": "uint128"
        },
        {
          "internalType": "uint40",
          "name": "lastRewardTimestamp",
          "type": "uint40"
        }
      ],
      "stateMutability": "view",
      "type": "function"
    },
    {
      "inputs": [],
      "name": "rewardLength",
      "outputs": [
        {
          "internalType": "uint256",
          "name": "",
          "type": "uint256"
        }
      ],
      "stateMutability": "view",
      "type": "function"
    },
    {
      "inputs": [],
      "name": "rewardTokenSurpluses",
      "outputs": [
        {
          "internalType": "int256[]",
          "name": "surpluses_",
          "type": "int256[]"
        }
      ],
      "stateMutability": "view",
      "type": "function"
    },
    {
      "inputs": [],
      "name": "rewardTokens",
      "outputs": [
        {
          "internalType": "contract IERC20[]",
          "name": "tokens",
          "type": "address[]"
        }
      ],
      "stateMutability": "view",
      "type": "function"
    },
    {
      "inputs": [],
      "name": "rewardsToDistribute",
      "outputs": [
        {
          "internalType": "uint256[]",
          "name": "rewards_",
          "type": "uint256[]"
        }
      ],
      "stateMutability": "view",
      "type": "function"
    },
    {
      "inputs": [],
      "name": "runoutTimestamps",
      "outputs": [
        {
          "internalType": "uint40[]",
          "name": "timestamps_",
          "type": "uint40[]"
        }
      ],
      "stateMutability": "view",
      "type": "function"
    },
    {
      "inputs": [
        {
          "internalType": "bool",
          "name": "_isDeprecated",
          "type": "bool"
        }
      ],
      "name": "setIsDeprecated",
      "outputs": [],
      "stateMutability": "nonpayable",
      "type": "function"
    },
    {
      "inputs": [
        {
          "internalType": "uint256",
          "name": "_tokenId",
          "type": "uint256"
        },
        {
          "internalType": "uint96",
          "name": "_tokenPerSec",
          "type": "uint96"
        },
        {
          "internalType": "uint40",
          "name": "_startTimestampToOverride",
          "type": "uint40"
        }
      ],
      "name": "setRewardRate",
      "outputs": [],
      "stateMutability": "nonpayable",
      "type": "function"
    },
    {
      "inputs": [
        {
          "internalType": "bytes4",
          "name": "interfaceId",
          "type": "bytes4"
        }
      ],
      "name": "supportsInterface",
      "outputs": [
        {
          "internalType": "bool",
          "name": "",
          "type": "bool"
        }
      ],
      "stateMutability": "view",
      "type": "function"
    },
    {
      "inputs": [
        {
          "internalType": "address",
          "name": "newOwner",
          "type": "address"
        }
      ],
      "name": "transferOwnership",
      "outputs": [],
      "stateMutability": "nonpayable",
      "type": "function"
    },
    {
      "inputs": [],
      "name": "updateReward",
      "outputs": [],
      "stateMutability": "nonpayable",
      "type": "function"
    },
    {
      "inputs": [
        {
          "internalType": "address",
          "name": "",
          "type": "address"
        }
      ],
      "name": "userBalanceInfo",
      "outputs": [
        {
          "internalType": "uint256",
          "name": "amount",
          "type": "uint256"
        }
      ],
      "stateMutability": "view",
      "type": "function"
    },
    {
      "inputs": [
        {
          "internalType": "uint256",
          "name": "",
          "type": "uint256"
        },
        {
          "internalType": "address",
          "name": "",
          "type": "address"
        }
      ],
      "name": "userRewardInfo",
      "outputs": [
        {
          "internalType": "uint128",
          "name": "rewardDebt",
          "type": "uint128"
        },
        {
          "internalType": "uint128",
          "name": "unpaidRewards",
          "type": "uint128"
        }
      ],
      "stateMutability": "view",
      "type": "function"
    },
    {
      "stateMutability": "payable",
      "type": "receive"
    }
  ],
  "transactionHash": "0x5e3d30580a7a474bc2ef6e81b845226cb77d6c59ceada8f93305984c7f4a196c",
  "args": [],
  "numDeployments": 1,
  "solcInputHash": "a5aa0658b19e47c08420cb7184d9dedb",
  "bytecode": "0x6080806040523461001657613874908161001c8239f35b600080fdfe608080604052600436101561001d575b50361561001b57600080fd5b005b60003560e01c90816301ffc9a7146124d457508063112a5d581461249957806312bc7bfd146121645780632474e18114611eb1578063248a9ca314611e825780632f2ff15d14611e0a57806336568abe14611d6b5780634e8a947e14611c575780635d0cde9714611c3b5780635fcbd28514611c1357806365d9aa4a14611858578063715018a6146117fd578063731994fc146113a95780637bb98a681461138d57806381a00f83146112d9578063858ce1a41461115157806389d6517f146110cf5780638bab3786146110735780638da5cb5b1461104c5780639010d07c1461100657806391d1485414610fb85780639870d7fe14610ee357806398a1b39714610ea8578063a217fddf14610e8c578063a5eceb1b14610a7a578063ac8a584a146109a9578063ad568827146108f8578063b95c5746146108d9578063c031a66f1461075c578063c2b18aa01461068b578063c37232881461060e578063c7178230146105e7578063ca15c873146105bb578063ccbd9b7514610522578063d547741f146104e3578063d5dd2c4f146104b7578063db2e21bc14610399578063eb4a78e014610371578063ee97f7f314610349578063eea0160414610326578063f2fde38b14610283578063f36c0a72146102625763f709f23b14610203573861000f565b3461025d57604036600319011261025d5761021c6125bb565b6004356000526101316020526001600160a01b0360406000209116600052602052604080600020548151906001600160801b038116825260801c6020820152f35b600080fd5b3461025d57600036600319011261025d5761001b61027e612fcb565b6130d7565b3461025d57602036600319011261025d5761029c6125a5565b6102a4612ae0565b6001600160a01b038116156102bc5761001b90612b38565b608460405162461bcd60e51b815260206004820152602660248201527f4f776e61626c653a206e6577206f776e657220697320746865207a65726f206160448201527f64647265737300000000000000000000000000000000000000000000000000006064820152fd5b3461025d57600036600319011261025d576020604051670de0b6b3a76400008152f35b3461025d57600036600319011261025d5760206001600160a01b0361012e5416604051908152f35b3461025d57600036600319011261025d5760206001600160a01b036101325416604051908152f35b3461025d57600036600319011261025d576103b2612ae0565b61012f544264ffffffffff1660005b8281106103ca57005b6103d38161260c565b5080546001600160a01b03168082556002909101805464ffffffffff60801b1916608085901b64ffffffffff60801b161790559061040f612ae0565b8161043d576104389150610433600080808047335af161042d613261565b506132a1565b612fa8565b6103c1565b6040516370a0823160e01b81523060048201526020908181602481875afa9182156104ab5760009261047b575b5050610433906104389333906132ec565b90809250813d83116104a4575b6104928183612a08565b8101031261025d57518261043361046a565b503d610488565b6040513d6000823e3d90fd5b3461025d57600036600319011261025d576104df6104d361352e565b604051918291826125d1565b0390f35b3461025d57604036600319011261025d5761001b6004356105026125bb565b9080600052609760205261051d60016040600020015461265e565b612a56565b3461025d57602036600319011261025d5760043580151580910361025d5760207fdf1c2ccfd21e3329e1124daf53bdfee90ba7d708a557bf15e5c4eddd57fa24c99161056c612ae0565b61013280547fffffffffffffffffffffff00ffffffffffffffffffffffffffffffffffffffff74ff00000000000000000000000000000000000000008460a01b169116179055604051908152a1005b3461025d57602036600319011261025d5760043560005260c96020526020604060002054604051908152f35b3461025d57600036600319011261025d57602060ff6101325460a01c166040519015158152f35b3461025d57604036600319011261025d576106276125a5565b5061063f6001600160a01b0361012e54163314612d3c565b610647612dad565b606460405162461bcd60e51b815260206004820152601b60248201527f43616c6c20427269626556322e6f6e566f746520696e737465616400000000006044820152fd5b3461025d57600036600319011261025d5761012f546106a981613217565b6106b66040519182612a08565b8181526106c282613217565b6020928383019291601f190136843760005b81811061072757505090604051928392818401908285525180915260408401929160005b82811061070757505050500390f35b83516001600160a01b0316855286955093810193928101926001016106f8565b806001600160a01b0361074561073f6107579461260c565b506134ce565b51166107518286613088565b52612fa8565b6106d4565b3461025d5760208060031936011261025d576107766125a5565b61012f54906107848261322f565b9161078d61352e565b916001600160a01b031660005b8281106107af57604051806104df87826125d1565b6107bb61073f8261260c565b908060005261013187526040600020836000528752604080600020926001600160801b0391829101511692886107ef612fcb565b80610847575b506108389291670de0b6b3a76400006108226108429761013061082e958b60005252604060002054612b80565b04905492831690612c53565b9060801c90612b93565b6107518288613088565b61079a565b929190506108558489613088565b5190670de0b6b3a764000093848302928084048614901517156108c3576108228c6101306108ad6108429a6108a761082e98670de0b6b3a7640000976108389c808210156000146108bb57509061309c565b90612b93565b9950509350505091926107f5565b90509061309c565b634e487b7160e01b600052601160045260246000fd5b3461025d57600036600319011261025d57602061012f54604051908152f35b3461025d57602036600319011261025d576001600160a01b036109196125a5565b610921612ae0565b168061093c575061001b600080808047335af161042d613261565b604051906370a0823160e01b8252306004830152602082602481845afa9081156104ab57600091610974575b61001b925033906132ec565b90506020823d82116109a1575b8161098e60209383612a08565b8101031261025d5761001b915190610968565b3d9150610981565b3461025d5760208060031936011261025d5761001b9060c96109c96125a5565b916109d2612ae0565b7f46a52cf33029de9f84853745a87af28464c80bf0346df1b32e205fc73319f62280600052609782526001600160a01b03604060002094169384600052825260ff60406000205416610a2d575b600052526040600020612c60565b80600052609782526040600020846000528252604060002060ff1981541690553384827ff6391f5c32d9c69d2a47ea670b442974b53935d1edc7fd64eb21e047a839171b600080a4610a1f565b3461025d57606036600319011261025d57610a936125a5565b602480359164ffffffffff928381169384820361025d576044918235956bffffffffffffffffffffffff871680970361025d573360009081527ffdc1535cdd2f355f3856ccff3baa99da917bdc4f8f249bcffd4d51836919939c602090815260409091205490969060ff168015610e73575b610b0e90612f45565b6001600160a01b039586610132541682898215928315610df6575b50505015610d8e57861694853b15801590610d86575b15610d1e57821580938115610d13575b5015610cd15761012f5491600a831015610c8f5760005b838110610c2c578a7f225033f2ea5486463cbb49ceda2823be38daddc85031ce2c637e7ad0950bc85a60408c8c8c8c8c8c610ba261027e612fcb565b15610c2757508042165b855192610bb8846129d6565b83528785840152670de0b6b3a7640000868401526000606084015260006080840152168060a0830152610bea82612e02565b7f99e4a80c4e66b0b3fbf1bbe586cf7708be5e406b09778228cdb64b480226c3898484845116928751908152a251169382519160008352820152a2005b610bac565b8789610c378361260c565b50541614610c4d57610c4890612fa8565b610b66565b60648a7f746f6b656e2068617320616c7265616479206265656e2061646465640000000085601c866040519462461bcd60e51b86526004860152840152820152fd5b7f72657761726420746f6b656e206c656e67746820657863656564656400000000606492601c8b936040519462461bcd60e51b86526004860152840152820152fd5b7f696e76616c6964205f737461727454696d657374616d70000000000000000000889160176064946040519462461bcd60e51b86526004860152840152820152fd5b90504211158a610b4f565b7f72657761726420746f6b656e206d75737420626520612076616c696420636f6e889160256084946040519462461bcd60e51b865260048601528401528201527f74726163740000000000000000000000000000000000000000000000000000006064820152fd5b508515610b3f565b6084887f72657761726420746f6b656e206d7573742062652077686974656c6973746564886031866040519462461bcd60e51b865260048601528401528201527f20627920627269626520666163746f72790000000000000000000000000000006064820152fd5b90919250604051928380927fbbe78b380000000000000000000000000000000000000000000000000000000082528c871660048301525afa9081156104ab57600091610e46575b5082898c610b29565b610e669150893d8b11610e6c575b610e5e8183612a08565b810190612f90565b8a610e3d565b503d610e54565b50610b0e6001600160a01b036033541633149050610b05565b3461025d57600036600319011261025d57602060405160008152f35b3461025d57600036600319011261025d5760206040517f46a52cf33029de9f84853745a87af28464c80bf0346df1b32e205fc73319f6228152f35b3461025d5760208060031936011261025d5761001b9060c9610f036125a5565b91610f0c612ae0565b7f46a52cf33029de9f84853745a87af28464c80bf0346df1b32e205fc73319f62280600052609782526001600160a01b03604060002094169384600052825260ff6040600020541615610f68575b600052526040600020612bc9565b806000526097825260406000208460005282526040600020600160ff198254161790553384827f2f8788117e7eff1d82e926ec794901d17c78024a50270940304540a733656f0d600080a4610f5a565b3461025d57604036600319011261025d57610fd16125bb565b60043560005260976020526001600160a01b0360406000209116600052602052602060ff604060002054166040519015158152f35b3461025d57604036600319011261025d5760043560005260c960205260206001600160a01b0361103c6024356040600020612bb1565b9190546040519260031b1c168152f35b3461025d57600036600319011261025d5760206001600160a01b0360335416604051908152f35b3461025d57600036600319011261025d5761108c613647565b604051809160208083018184528251809152816040850193019160005b8281106110b857505050500390f35b8351855286955093810193928101926001016110a9565b3461025d57602036600319011261025d5760043561012f5481101561025d576110f960c09161260c565b5064ffffffffff8154916002600182015491015490604051936001600160a01b038116855260a01c60208501526001600160801b0390818116604086015260801c60608501528116608084015260801c1660a0820152f35b3461025d57600036600319011261025d5761012f5461116f81613217565b61117c6040519182612a08565b81815261118882613217565b6020928383019291601f190136843761119f613728565b6111a7613647565b9060005b8381106111fc57868587604051928392818401908285525180915260408401929160005b8281106111de57505050500390f35b835164ffffffffff16855286955093810193928101926001016111cf565b61120861073f8261260c565b9060006112158286613088565b5113806112bf575b611231575b61122c9150612fa8565b6111ab565b60a06112666001600160801b03611259816080870151166112528689613088565b5190612b93565b9060608601511690612c53565b928981016bffffffffffffffffffffffff91828251169064ffffffffff94859101511602918083169283036108c3576112a56112ae9361122c97612b93565b9151169061309c565b166112b98288613088565b52611222565b506bffffffffffffffffffffffff8883015116151561121d565b3461025d57602036600319011261025d57600060a06040516112fa816129d6565b828152826020820152826040820152826060820152826080820152015260c061132761073f60043561260c565b64ffffffffff60a0604051926001600160a01b0381511684526bffffffffffffffffffffffff60208201511660208501526001600160801b03806040830151166040860152806060830151166060860152608082015116608085015201511660a0820152f35b3461025d57600036600319011261025d576104df6104d3613728565b3461025d5760c036600319011261025d576004356001600160a01b039081811680910361025d576113d86125bb565b604490813584811680910361025d5760649384359160849384359488861680960361025d5760a435966bffffffffffffffffffffffff881680980361025d576000549860ff8a60081c1615998a809b6117f0575b80156117d9575b156117725760ff1981166001176000558a611760575b50873b15801590611758575b156116f257843b1561168c57833b15611626574287106115c1575050507f99e4a80c4e66b0b3fbf1bbe586cf7708be5e406b09778228cdb64b480226c3899360209361158398999364ffffffffff936114be60ff60005460081c166114b981612ed4565b612ed4565b6114c733612b38565b6114dc60ff60005460081c166114b981612ed4565b600160fb556001600160a01b03199261013290848254161790558561012e91168382541617905561012d9182541617905516937f225033f2ea5486463cbb49ceda2823be38daddc85031ce2c637e7ad0950bc85a604080519761153e896129d6565b83895280868a0152670de0b6b3a7640000828a0152600060608a0152600060808a01528760a08a01528151906000825286820152a284511692604051908152a2612e02565b61158957005b61ff0019600054166000557f7f26b83ff96e1f2b6a682f133852f6798a09c465da95921460cefb3847402498602060405160018152a1005b7f74616d7000000000000000000000000000000000000000000000000000000000907f636f6e7374727563746f723a20696e76616c6964205f737461727454696d65736040519362461bcd60e51b855260206004860152602480860152840152820152fd5b7f6c696420636f6e74726163740000000000000000000000000000000000000000907f636f6e7374727563746f723a204d6173746572206d75737420626520612076616040519362461bcd60e51b855260206004860152602c6024860152840152820152fd5b7f76616c696420636f6e7472616374000000000000000000000000000000000000907f636f6e7374727563746f723a204c5020746f6b656e206d7573742062652061206040519362461bcd60e51b855260206004860152602e6024860152840152820152fd5b7f6520612076616c696420636f6e74726163740000000000000000000000000000907f636f6e7374727563746f723a2072657761726420746f6b656e206d75737420626040519362461bcd60e51b85526020600486015260326024860152840152820152fd5b508715611455565b61ffff1916610101176000558b611449565b507f647920696e697469616c697a6564000000000000000000000000000000000000907f496e697469616c697a61626c653a20636f6e747261637420697320616c7265616040519362461bcd60e51b855260206004860152602e6024860152840152820152fd5b50303b1580156114335750600160ff821614611433565b50600160ff82161061142c565b3461025d57600036600319011261025d57611816612ae0565b60006001600160a01b036033546001600160a01b03198116603355167f8be0079c531659141344cd1fd0a4f28419497f9722a3daafe3b4186f6b6457e08280a3005b3461025d57606036600319011261025d576118716125a5565b6118886001600160a01b0361012e54163314612d3c565b611890612dad565b61189b6044356130d7565b61012f54906118a98261322f565b9160005b8181106118f7576104df84846001600160a01b036001600160801b036118d46024356137e6565b169116600052610130602052604060002055600160fb55604051918291826125d1565b6119008161260c565b50908060005261013160205260406000206001600160a01b03851660005260205260406000206001600160a01b038354169080546001600160801b038116908115801590611c07575b6119da575b50506001600160801b0361197f670de0b6b3a76400006119798360016119d599015416602435612b80565b046137e6565b166001600160801b03198254161790556119998287613088565b51906040519182527f986cbc32375de61d1fabfb01aef452f5c919f2180bb72fff0fb182126a02b52760206001600160a01b03881693a3612fa8565b6118ad565b90611a19611a1e92610130602052670de0b6b3a7640000611a0e6040600020546001600160801b0360018c01541690612b80565b049060801c90612b93565b612c53565b93868884611b33576119796001600160801b036001819561197f956119d59b8b670de0b6b3a7640000974793848411600014611ae0579284611a7e611ab0948294611a796000808080611ad59d611ab59d5af161042d613261565b613088565b52611a88826137e6565b60028701906001600160801b03198a611aa58454938285166130bc565b169116179055612c53565b6137e6565b89546001600160801b031660809190911b6001600160801b031916178955565b99505050505061194e565b611b05945091611aff91611a7960008080808980995af161042d613261565b526137e6565b60028201906001600160801b031985611b228454938285166130bc565b169116179055828854168855611ad5565b50506040516370a0823160e01b8152306004820152602081602481875afa9081156104ab57888a91600093611bca575b506001600160801b0360018195858b8b670de0b6b3a764000097611979976119d59f61197f9b8f9111600014611bb45794611a7e611ab0948294611a7984611ab59996611baf9b6132ec565b611ad5565b611b05955091611a7985809593611aff956132ec565b925050506020813d602011611bff575b81611be760209383612a08565b8101031261025d575188886001600160801b03611b63565b3d9150611bda565b508060801c1515611949565b3461025d57600036600319011261025d5760206001600160a01b0361012d5416604051908152f35b3461025d57600036600319011261025d576020604051600a8152f35b3461025d57600036600319011261025d5761012f54611c7581613217565b611c826040519182612a08565b818152611c8e82613217565b6020928383019291601f1901368437611ca5613647565b60005b828110611cf55750505090604051928392818401908285525180915260408401929160005b828110611cdc57505050500390f35b8351151585528695509381019392810192600101611ccd565b80611d0561073f611d359361260c565b6000611d118386613088565b51139081611d50575b81611d3a575b50611d2b8287613088565b9015159052612fa8565b611ca8565b64ffffffffff915060a001511642101588611d20565b888101516bffffffffffffffffffffffff1615159150611d1a565b3461025d57604036600319011261025d57611d846125bb565b336001600160a01b03821603611da05761001b90600435612a56565b608460405162461bcd60e51b815260206004820152602f60248201527f416363657373436f6e74726f6c3a2063616e206f6e6c792072656e6f756e636560448201527f20726f6c657320666f722073656c6600000000000000000000000000000000006064820152fd5b3461025d57604036600319011261025d5761001b60043560c9611e2b6125bb565b918060005260209060978252611e4860016040600020015461265e565b80600052609782526001600160a01b03604060002094169384600052825260ff6040600020541615610f6857600052526040600020612bc9565b3461025d57602036600319011261025d5760043560005260976020526020600160406000200154604051908152f35b3461025d57606036600319011261025d576004356024356bffffffffffffffffffffffff811680820361025d576044359264ffffffffff841680850361025d573360009081527ffdc1535cdd2f355f3856ccff3baa99da917bdc4f8f249bcffd4d51836919939c602090815260409091205490959060ff16801561214b575b611f3990612f45565b61012f5483101561210757811590811591826120fd575b156120935769021e19e0c9bab2400000851161204f577f225033f2ea5486463cbb49ceda2823be38daddc85031ce2c637e7ad0950bc85a9593604095936001600160a01b039389611fe194611fa661027e612fcb565b611faf8561260c565b5080546001600160a01b03811660a09b8c1b6001600160a01b03191617825590991c9892611ff0575b5050505061260c565b505416948351928352820152a2005b8261203d889260027f99e4a80c4e66b0b3fbf1bbe586cf7708be5e406b09778228cdb64b480226c38996019064ffffffffff60801b1964ffffffffff60801b83549260801b169116179055565b5416928951908152a288808981611fd8565b6064876040519062461bcd60e51b82526004820152601460248201527f726577617264207261746520746f6f20686967680000000000000000000000006044820152fd5b6084876040519062461bcd60e51b82526004820152602160248201527f696e76616c6964205f737461727454696d657374616d70546f4f76657272696460448201527f65000000000000000000000000000000000000000000000000000000000000006064820152fd5b5042831015611f50565b6064866040519062461bcd60e51b82526004820152601060248201527f696e76616c6964205f746f6b656e4964000000000000000000000000000000006044820152fd5b50611f396001600160a01b036033541633149050611f30565b3461025d57600036600319011261025d5761217d612dad565b61218861027e612fcb565b60ff6101325460a01c161561242f5761012f546121a48161322f565b9060005b8181106121d5576104df833360005261013060205260006040812055600160fb55604051918291826125d1565b6121de8161260c565b5090806000526020610131815260406000203360005281526040600020926001600160a01b038154169084546001600160801b03908181168015801590612423575b612287575b5050600180920154161517156108c357836001600160801b031961228295541690557f986cbc32375de61d1fabfb01aef452f5c919f2180bb72fff0fb182126a02b5276122728488613088565b51926040519384523393a3612fa8565b6121a8565b611a196122b2926101308852670de0b6b3a7640000611a0e6040600020548760018a01541690612b80565b8361238a574790868a83831115612336579261230f92816122e8611ab09461232f97611a79600080808088335af161042d613261565b526122f2826137e6565b60028801906001600160801b031988611aa58454938285166130bc565b87546001600160801b031660809190911b6001600160801b031916178755565b8880612225565b505061235c9150612351600080808085335af161042d613261565b80611aff888c613088565b60028301906001600160801b0319836123798454938285166130bc565b16911617905580865416865561232f565b604051906370a0823160e01b82523060048301528582602481885afa9182156104ab576000926123f4575b50868a838311156123e2579261230f92816122e8611ab0946123dd97611a79848d33906132ec565b61232f565b505061235c91506123518133876132ec565b9091508581813d831161241c575b61240c8183612a08565b8101031261025d5751908a6123b5565b503d612402565b508160801c1515612220565b608460405162461bcd60e51b815260206004820152602260248201527f7265776172646572202f206272696265206973206e6f7420646570726563617460448201527f65640000000000000000000000000000000000000000000000000000000000006064820152fd5b3461025d57602036600319011261025d576001600160a01b036124ba6125a5565b166000526101306020526020604060002054604051908152f35b3461025d57602036600319011261025d57600435907fffffffff00000000000000000000000000000000000000000000000000000000821680920361025d57817f5a05180f0000000000000000000000000000000000000000000000000000000060209314908115612548575b5015158152f35b7f7965db0b0000000000000000000000000000000000000000000000000000000081149150811561257b575b5083612541565b7f01ffc9a70000000000000000000000000000000000000000000000000000000091501483612574565b600435906001600160a01b038216820361025d57565b602435906001600160a01b038216820361025d57565b6020908160408183019282815285518094520193019160005b8281106125f8575050505090565b8351855293810193928101926001016125ea565b61012f90815481101561264857600391600052027f232da9e50dad2971456a78fb5cd6ff6b75019984d6e918139ce990999420f9790190600090565b634e487b7160e01b600052603260045260246000fd5b600081815260209060978252604092838220338352835260ff8483205416156126875750505050565b835167ffffffffffffffff919033606082018481118382101761299f578752602a8252858201928736853782511561298b5760308453825191600192831015612977576078602185015360295b83811161290057506128be57908751946080860190868210908211176128aa57885260428552868501956060368837855115612896576030875385518210156128965790607860218701536041915b81831161281b575050506127d9579385936127bf936127b060489461277b7f416363657373436f6e74726f6c3a206163636f756e7420000000000000000000996127d59b519a8b9788015251809260378801906129b3565b8401917f206973206d697373696e6720726f6c65200000000000000000000000000000006037840152518093868401906129b3565b01036028810185520183612a08565b5191829162461bcd60e51b835260048301612a2a565b0390fd5b60648587519062461bcd60e51b825280600483015260248201527f537472696e67733a20686578206c656e67746820696e73756666696369656e746044820152fd5b909192600f81166010811015612882577f3031323334353637383961626364656600000000000000000000000000000000901a6128588589612ba0565b5360041c92801561286e57600019019190612723565b602482634e487b7160e01b81526011600452fd5b602483634e487b7160e01b81526032600452fd5b80634e487b7160e01b602492526032600452fd5b602487634e487b7160e01b81526041600452fd5b60648789519062461bcd60e51b825280600483015260248201527f537472696e67733a20686578206c656e67746820696e73756666696369656e746044820152fd5b90600f81166010811015612963577f3031323334353637383961626364656600000000000000000000000000000000901a61293b8387612ba0565b5360041c90801561294f57600019016126d4565b602488634e487b7160e01b81526011600452fd5b602489634e487b7160e01b81526032600452fd5b602487634e487b7160e01b81526032600452fd5b602486634e487b7160e01b81526032600452fd5b602486634e487b7160e01b81526041600452fd5b60005b8381106129c65750506000910152565b81810151838201526020016129b6565b60c0810190811067ffffffffffffffff8211176129f257604052565b634e487b7160e01b600052604160045260246000fd5b90601f8019910116810190811067ffffffffffffffff8211176129f257604052565b60409160208252612a4a81518092816020860152602086860191016129b3565b601f01601f1916010190565b906040612a959260009080825260976020526001600160a01b0383832094169384835260205260ff8383205416612a98575b815260c960205220612c60565b50565b808252609760205282822084835260205282822060ff1981541690553384827ff6391f5c32d9c69d2a47ea670b442974b53935d1edc7fd64eb21e047a839171b8580a4612a88565b6001600160a01b03603354163303612af457565b606460405162461bcd60e51b815260206004820152602060248201527f4f776e61626c653a2063616c6c6572206973206e6f7420746865206f776e65726044820152fd5b603354906001600160a01b0380911691826001600160a01b0319821617603355167f8be0079c531659141344cd1fd0a4f28419497f9722a3daafe3b4186f6b6457e0600080a3565b818102929181159184041417156108c357565b919082018092116108c357565b908151811015612648570160200190565b80548210156126485760005260206000200190600090565b91906001830160009082825280602052604082205415600014612c4d5784549468010000000000000000861015612c395783612c29612c12886001604098999a01855584612bb1565b819391549060031b91821b91600019901b19161790565b9055549382526020522055600190565b602483634e487b7160e01b81526041600452fd5b50925050565b919082039182116108c357565b90600182019060009281845282602052604084205490811515600014612d355760001991808301818111612d215782549084820191821161294f57808203612cec575b50505080548015612cd857820191612cbb8383612bb1565b909182549160031b1b191690555582526020526040812055600190565b602486634e487b7160e01b81526031600452fd5b612d0c612cfc612c129386612bb1565b90549060031b1c92839286612bb1565b90558652846020526040862055388080612ca3565b602487634e487b7160e01b81526011600452fd5b5050505090565b15612d4357565b608460405162461bcd60e51b815260206004820152602e60248201527f6f6e6c794d61737465723a206f6e6c79204d61737465722063616e2063616c6c60448201527f20746869732066756e6374696f6e0000000000000000000000000000000000006064820152fd5b600260fb5414612dbe57600260fb55565b606460405162461bcd60e51b815260206004820152601f60248201527f5265656e7472616e637947756172643a207265656e7472616e742063616c6c006044820152fd5b61012f8054680100000000000000008110156129f257612e279160018201905561260c565b612ebe57815160208301516001600160a01b039091166001600160a01b031960a092831b16178255612ebc9264ffffffffff91906040810151606082015160801b6001600160801b03199081166001600160801b039283161760018701559094600201946080830151169085541617845501511664ffffffffff60801b1964ffffffffff60801b83549260801b169116179055565b565b634e487b7160e01b600052600060045260246000fd5b15612edb57565b608460405162461bcd60e51b815260206004820152602b60248201527f496e697469616c697a61626c653a20636f6e7472616374206973206e6f74206960448201527f6e697469616c697a696e670000000000000000000000000000000000000000006064820152fd5b15612f4c57565b606460405162461bcd60e51b815260206004820152600e60248201527f6e6f7420617574686f72697a65640000000000000000000000000000000000006044820152fd5b9081602091031261025d5751801515810361025d5790565b60001981146108c35760010190565b51906001600160801b038216820361025d57565b6001600160a01b038061012e54169061012d54166040809160248251809581937fa7cac84600000000000000000000000000000000000000000000000000000000835260048301525afa90811561307e57600091613033575b506001600160801b0391501690565b82813d8311613077575b6130478183612a08565b81010312613074575061306e6020826130676001600160801b0394612fb7565b5001612fb7565b38613024565b80fd5b503d61303d565b513d6000823e3d90fd5b80518210156126485760209160051b010190565b81156130a6570490565b634e487b7160e01b600052601260045260246000fd5b9190916001600160801b03808094169116019182116108c357565b61012f546130e361352e565b9160005b8281106130f45750505050565b6130fd8161260c565b50906131098186613088565b518015801561316b575b50506002613138920164ffffffffff904282825460801c161061313d575b5050612fa8565b6130e7565b61316491421664ffffffffff60801b1964ffffffffff60801b83549260801b169116179055565b3880613131565b9092670de0b6b3a76400009182850290858204841417156108c357613138946131ec6131ad611ab061320b94600297808c101560001461321157508a9061309c565b916131e360018601936001600160801b03198554916131d66001600160801b03918285166130bc565b16911617918285556137e6565b9060801c6130bc565b6001600160801b036001600160801b031983549260801b169116179055565b92613113565b9061309c565b67ffffffffffffffff81116129f25760051b60200190565b9061323982613217565b6132466040519182612a08565b8281528092613257601f1991613217565b0190602036910137565b3d1561329c573d9067ffffffffffffffff82116129f25760405191613290601f8201601f191660200184612a08565b82523d6000602084013e565b606090565b156132a857565b606460405162461bcd60e51b815260206004820152600f60248201527f5472616e73666572206661696c656400000000000000000000000000000000006044820152fd5b60405160208101937fa9059cbb0000000000000000000000000000000000000000000000000000000085526001600160a01b038094166024830152604482015260448152608081019267ffffffffffffffff92828510848611176129f257169160c08201908111848210176129f257604052602083527f5361666545524332303a206c6f772d6c6576656c2063616c6c206661696c656460a0820152516133a493600091829182855af161339e613261565b9161343e565b8051908115918215613424575b5050156133ba57565b608460405162461bcd60e51b815260206004820152602a60248201527f5361666545524332303a204552433230206f7065726174696f6e20646964206e60448201527f6f742073756363656564000000000000000000000000000000000000000000006064820152fd5b6134379250602080918301019101612f90565b38806133b1565b9192901561349f5750815115613452575090565b3b1561345b5790565b606460405162461bcd60e51b815260206004820152601d60248201527f416464726573733a2063616c6c20746f206e6f6e2d636f6e74726163740000006044820152fd5b8251909150156134b25750805190602001fd5b6127d59060405191829162461bcd60e51b835260048301612a2a565b906040516134db816129d6565b60a064ffffffffff829480546001600160a01b0381168552831c602085015260026001820154916001600160801b0392838116604088015260801c60608701520154908116608085015260801c16910152565b61012f549061353c8261322f565b91613545613728565b9064ffffffffff42811660005b838110613560575050505050565b61356c61073f8261260c565b908360a083015116804210613623578303918483116108c3576135a86135f093866bffffffffffffffffffffffff602085015116911690612b80565b90600090608081016001600160801b039060606135cd8c611252898686511692613088565b93019282845116106135fc575b5050508082116135f557505b610751828a613088565b613552565b90506135e6565b61361b935081613612915116611252878d613088565b91511690612c53565b3880806135da565b506135f09150612fa8565b818103929160001380158285131691841216176108c357565b61012f549061365582613217565b6136626040519182612a08565b828152601f1961367184613217565b01366020830137809261368261352e565b9161368b613728565b6000805b84811061369e57505050505050565b6136aa61073f8261260c565b6001600160801b0380608083015116916136c48487613088565b51928584820194851291129080158216911516176137145761370f93926137059260606136f4930151169061362e565b6136fe838a613088565b519061362e565b6107518287613088565b61368f565b602485634e487b7160e01b81526011600452fd5b61012f54906137368261322f565b9160005b818110613745575050565b6001600160a01b036137568261260c565b50541690816137745761376f9150476107518287613088565b61373a565b6040805180936370a0823160e01b825230600483015281602460209687935afa91821561307e57506000916137b4575b5061376f92506107518287613088565b919282813d83116137df575b6137ca8183612a08565b8101031261307457509061376f9151386137a4565b503d6137c0565b6001600160801b03908181116137fa571690565b606460405162461bcd60e51b815260206004820152601060248201527f75696e74313238206f766572666c6f77000000000000000000000000000000006044820152fdfea2646970667358221220135409e7b630362efea161a7e7fcbec3a49f20f819e8408de5ab9581a2c315ac64736f6c63430008120033",
  "devdoc": {
    "events": {
      "Initialized(uint8)": {
        "details": "Triggered when the contract has been initialized or reinitialized."
      },
      "RoleAdminChanged(bytes32,bytes32,bytes32)": {
        "details": "Emitted when `newAdminRole` is set as ``role``'s admin role, replacing `previousAdminRole` `DEFAULT_ADMIN_ROLE` is the starting admin for all roles, despite {RoleAdminChanged} not being emitted signaling this. _Available since v3.1._"
      },
      "RoleGranted(bytes32,address,address)": {
        "details": "Emitted when `account` is granted `role`. `sender` is the account that originated the contract call, an admin role bearer except when using {AccessControl-_setupRole}."
      },
      "RoleRevoked(bytes32,address,address)": {
        "details": "Emitted when `account` is revoked `role`. `sender` is the account that originated the contract call:   - if using `revokeRole`, it is the admin role bearer   - if using `renounceRole`, it is the role bearer (i.e. `account`)"
      }
    },
    "kind": "dev",
    "methods": {
      "emergencyTokenWithdraw(address)": {
        "details": "only to be called by owner"
      },
      "getRoleAdmin(bytes32)": {
        "details": "Returns the admin role that controls `role`. See {grantRole} and {revokeRole}. To change a role's admin, use {_setRoleAdmin}."
      },
      "getRoleMember(bytes32,uint256)": {
        "details": "Returns one of the accounts that have `role`. `index` must be a value between 0 and {getRoleMemberCount}, non-inclusive. Role bearers are not sorted in any particular way, and their ordering may change at any point. WARNING: When using {getRoleMember} and {getRoleMemberCount}, make sure you perform all queries on the same block. See the following https://forum.openzeppelin.com/t/iterating-over-elements-on-enumerableset-in-openzeppelin-contracts/2296[forum post] for more information."
      },
      "getRoleMemberCount(bytes32)": {
        "details": "Returns the number of accounts that have `role`. Can be used together with {getRoleMember} to enumerate all bearers of a role."
      },
      "grantRole(bytes32,address)": {
        "details": "Grants `role` to `account`. If `account` had not been already granted `role`, emits a {RoleGranted} event. Requirements: - the caller must have ``role``'s admin role. May emit a {RoleGranted} event."
      },
      "hasRole(bytes32,address)": {
        "details": "Returns `true` if `account` has been granted `role`."
      },
      "owner()": {
        "details": "Returns the address of the current owner."
      },
      "renounceOwnership()": {
        "details": "Leaves the contract without owner. It will not be possible to call `onlyOwner` functions. Can only be called by the current owner. NOTE: Renouncing ownership will leave the contract without an owner, thereby disabling any functionality that is only available to the owner."
      },
      "renounceRole(bytes32,address)": {
        "details": "Revokes `role` from the calling account. Roles are often managed via {grantRole} and {revokeRole}: this function's purpose is to provide a mechanism for accounts to lose their privileges if they are compromised (such as when a trusted device is misplaced). If the calling account had been revoked `role`, emits a {RoleRevoked} event. Requirements: - the caller must be `account`. May emit a {RoleRevoked} event."
      },
      "revokeRole(bytes32,address)": {
        "details": "Revokes `role` from `account`. If `account` had been granted `role`, emits a {RoleRevoked} event. Requirements: - the caller must have ``role``'s admin role. May emit a {RoleRevoked} event."
      },
      "rewardTokenSurpluses()": {
        "returns": {
          "surpluses_": "surpluses of the reward tokens."
        }
      },
      "setRewardRate(uint256,uint96,uint40)": {
        "params": {
          "_startTimestampToOverride": "the start time for the token emission.        A value of 0 indicates no changes, while a future timestamp starts the emission at the specified time.",
          "_tokenId": "The token id",
          "_tokenPerSec": "The number of tokens to distribute per second"
        }
      },
      "supportsInterface(bytes4)": {
        "details": "See {IERC165-supportsInterface}."
      },
      "transferOwnership(address)": {
        "details": "Transfers ownership of the contract to a new account (`newOwner`). Can only be called by the current owner."
      }
    },
    "version": 1
  },
  "userdoc": {
    "kind": "user",
    "methods": {
      "balances()": {
        "notice": "View function to see balances of reward token."
      },
      "emergencyTokenWithdraw(address)": {
        "notice": "avoids loosing funds in case there is any tokens sent to this contract the reward token will not be stopped and keep accumulating debts"
      },
      "emergencyWithdraw()": {
        "notice": "In case rewarder is stopped before emissions finished, this function allows withdrawal of remaining tokens. there will be deficit which is equal to the unclaimed amount"
      },
      "initialize(address,address,address,uint256,address,uint96)": {
        "notice": "Initializes pool. Dev is set to be the account calling this function."
      },
      "lpToken()": {
        "notice": "Visualization of the relationship between distributedAmount, claimedAmount, rewardToDistribute, availableReward, surplus and balance: Case: emission is active. rewardToDistribute is growing at the rate of tokenPerSec. |<--------------distributedAmount------------->|<--rewardToDistribute*-->| |<-----claimedAmount----->|<-------------------------balance------------------------->|                                                |<-----------availableReward*--------->|                           |<-unclaimedAmount*->|                         |<-surplus*->| Case: reward running out. rewardToDistribute stopped growing. it is capped at availableReward. |<--------------distributedAmount------------->|<---------rewardToDistribute*-------->| |<-----claimedAmount----->|<-------------------------balance------------------------->|                                                |<-----------availableReward*--------->|                           |<-unclaimedAmount*->|                                       surplus* = 0 Case: balance emptied after emergencyWithdraw. |<--------------distributedAmount------------->| rewardToDistribute* = 0 |<-----claimedAmount----->|                      balance = 0, availableReward* = 0                           |<-unclaimedAmount*->| surplus* = - unclaimedAmount* (negative to indicate deficit) (Variables with * are not in the RewardInfo state, but can be derived from it.) balance, is the amount of reward token in this contract. Not all of them are available for distribution as some are reserved for unclaimed rewards. distributedAmount, is the amount of reward token that has been distributed up to lastRewardTimestamp. claimedAmount, is the amount of reward token that has been claimed by users. claimedAmount always <= distributedAmount. unclaimedAmount = distributedAmount - claimedAmount, is the amount of reward token in balance that is reserved to be claimed by users. availableReward = balance - unclaimedAmount, is the amount inside balance that is available for distribution (not reserved for unclaimed rewards). rewardToDistribute is the accumulated reward from [lastRewardTimestamp, now] that is yet to be distributed. as distributedAmount only accounts for the distributed amount up to lastRewardTimestamp. it is used in _updateReward(), and to be added to distributedAmount. to prevent bad debt, rewardToDistribute is capped at availableReward. as we cannot distribute more than the availableReward. rewardToDistribute = min(tokenPerSec * (now - lastRewardTimestamp), availableReward) surplus = availableReward - rewardToDistribute, is the amount inside balance that is available for future distribution."
      },
      "rewardInfo(uint256)": {
        "notice": "View function to preserve backward compatibility, as the previous version uses rewardInfo instead of rewardInfos"
      },
      "rewardInfos(uint256)": {
        "notice": "Info of the reward tokens."
      },
      "rewardTokenSurpluses()": {
        "notice": "View function to see surplus of each reward, i.e. reward balance - unclaimed amount it would be negative if there's bad debt/deficit, which would happend only if some token was emergencyWithdrawn."
      },
      "rewardsToDistribute()": {
        "notice": "the amount of reward accumulated since the lastRewardTimestamp and is to be distributed. the case that lastRewardTimestamp is in the future is also handled"
      },
      "runoutTimestamps()": {
        "notice": "View function to see the timestamp when the reward will runout based on current emission rate and balance left. a timestamp of 0 indicates that the token is not emitting or already run out. also works for the case that emission start time (lastRewardTimestamp) is in the future."
      },
      "setRewardRate(uint256,uint96,uint40)": {
        "notice": "Sets the distribution reward rate, and updates the emission start time if specified."
      },
      "userBalanceInfo(address)": {
        "notice": "userAddr => UserBalanceInfo"
      },
      "userRewardInfo(uint256,address)": {
        "notice": "tokenId => userId => UserRewardInfo"
      }
    },
    "notice": "Simple bribe per sec. Distribute bribe rewards to voters Bribe.onVote->updateReward() is a bit different from SimpleRewarder. Here we reduce the original total amount of share",
    "version": 1
  },
  "storageLayout": {
    "storage": [
      {
        "astId": 2926,
        "contract": "contracts/wombat-governance/gauge/BribeV2.sol:BribeV2",
        "label": "_initialized",
        "offset": 0,
        "slot": "0",
        "type": "t_uint8"
      },
      {
        "astId": 2929,
        "contract": "contracts/wombat-governance/gauge/BribeV2.sol:BribeV2",
        "label": "_initializing",
        "offset": 1,
        "slot": "0",
        "type": "t_bool"
      },
      {
        "astId": 3670,
        "contract": "contracts/wombat-governance/gauge/BribeV2.sol:BribeV2",
        "label": "__gap",
        "offset": 0,
        "slot": "1",
        "type": "t_array(t_uint256)50_storage"
      },
      {
        "astId": 2798,
        "contract": "contracts/wombat-governance/gauge/BribeV2.sol:BribeV2",
        "label": "_owner",
        "offset": 0,
        "slot": "51",
        "type": "t_address"
      },
      {
        "astId": 2918,
        "contract": "contracts/wombat-governance/gauge/BribeV2.sol:BribeV2",
        "label": "__gap",
        "offset": 0,
        "slot": "52",
        "type": "t_array(t_uint256)49_storage"
      },
      {
        "astId": 3943,
        "contract": "contracts/wombat-governance/gauge/BribeV2.sol:BribeV2",
        "label": "__gap",
        "offset": 0,
        "slot": "101",
        "type": "t_array(t_uint256)50_storage"
      },
      {
        "astId": 2393,
        "contract": "contracts/wombat-governance/gauge/BribeV2.sol:BribeV2",
        "label": "_roles",
        "offset": 0,
        "slot": "151",
        "type": "t_mapping(t_bytes32,t_struct(RoleData)2388_storage)"
      },
      {
        "astId": 2688,
        "contract": "contracts/wombat-governance/gauge/BribeV2.sol:BribeV2",
        "label": "__gap",
        "offset": 0,
        "slot": "152",
        "type": "t_array(t_uint256)49_storage"
      },
      {
        "astId": 2242,
        "contract": "contracts/wombat-governance/gauge/BribeV2.sol:BribeV2",
        "label": "_roleMembers",
        "offset": 0,
        "slot": "201",
        "type": "t_mapping(t_bytes32,t_struct(AddressSet)5253_storage)"
      },
      {
        "astId": 2352,
        "contract": "contracts/wombat-governance/gauge/BribeV2.sol:BribeV2",
        "label": "__gap",
        "offset": 0,
        "slot": "202",
        "type": "t_array(t_uint256)49_storage"
      },
      {
        "astId": 3229,
        "contract": "contracts/wombat-governance/gauge/BribeV2.sol:BribeV2",
        "label": "_status",
        "offset": 0,
        "slot": "251",
        "type": "t_uint256"
      },
      {
        "astId": 3298,
        "contract": "contracts/wombat-governance/gauge/BribeV2.sol:BribeV2",
        "label": "__gap",
        "offset": 0,
        "slot": "252",
        "type": "t_array(t_uint256)49_storage"
      },
      {
        "astId": 62458,
        "contract": "contracts/wombat-governance/gauge/BribeV2.sol:BribeV2",
        "label": "lpToken",
        "offset": 0,
        "slot": "301",
        "type": "t_contract(IERC20)8968"
      },
      {
        "astId": 62460,
        "contract": "contracts/wombat-governance/gauge/BribeV2.sol:BribeV2",
        "label": "master",
        "offset": 0,
        "slot": "302",
        "type": "t_address"
      },
      {
        "astId": 62465,
        "contract": "contracts/wombat-governance/gauge/BribeV2.sol:BribeV2",
        "label": "rewardInfos",
        "offset": 0,
        "slot": "303",
        "type": "t_array(t_struct(RewardInfo)62454_storage)dyn_storage"
      },
      {
        "astId": 62471,
        "contract": "contracts/wombat-governance/gauge/BribeV2.sol:BribeV2",
        "label": "userBalanceInfo",
        "offset": 0,
        "slot": "304",
        "type": "t_mapping(t_address,t_struct(UserBalanceInfo)62432_storage)"
      },
      {
        "astId": 62479,
        "contract": "contracts/wombat-governance/gauge/BribeV2.sol:BribeV2",
        "label": "userRewardInfo",
        "offset": 0,
        "slot": "305",
        "type": "t_mapping(t_uint256,t_mapping(t_address,t_struct(UserRewardInfo)62437_storage))"
      },
      {
        "astId": 62482,
        "contract": "contracts/wombat-governance/gauge/BribeV2.sol:BribeV2",
        "label": "bribeFactory",
        "offset": 0,
        "slot": "306",
        "type": "t_contract(IBribeRewarderFactory)55948"
      },
      {
        "astId": 62484,
        "contract": "contracts/wombat-governance/gauge/BribeV2.sol:BribeV2",
        "label": "isDeprecated",
        "offset": 20,
        "slot": "306",
        "type": "t_bool"
      },
      {
        "astId": 64279,
        "contract": "contracts/wombat-governance/gauge/BribeV2.sol:BribeV2",
        "label": "__gap",
        "offset": 0,
        "slot": "307",
        "type": "t_array(t_uint256)50_storage"
      }
    ],
    "types": {
      "t_address": {
        "encoding": "inplace",
        "label": "address",
        "numberOfBytes": "20"
      },
      "t_array(t_bytes32)dyn_storage": {
        "base": "t_bytes32",
        "encoding": "dynamic_array",
        "label": "bytes32[]",
        "numberOfBytes": "32"
      },
      "t_array(t_struct(RewardInfo)62454_storage)dyn_storage": {
        "base": "t_struct(RewardInfo)62454_storage",
        "encoding": "dynamic_array",
        "label": "struct MultiRewarderPerSecV2.RewardInfo[]",
        "numberOfBytes": "32"
      },
      "t_array(t_uint256)49_storage": {
        "base": "t_uint256",
        "encoding": "inplace",
        "label": "uint256[49]",
        "numberOfBytes": "1568"
      },
      "t_array(t_uint256)50_storage": {
        "base": "t_uint256",
        "encoding": "inplace",
        "label": "uint256[50]",
        "numberOfBytes": "1600"
      },
      "t_bool": {
        "encoding": "inplace",
        "label": "bool",
        "numberOfBytes": "1"
      },
      "t_bytes32": {
        "encoding": "inplace",
        "label": "bytes32",
        "numberOfBytes": "32"
      },
      "t_contract(IBribeRewarderFactory)55948": {
        "encoding": "inplace",
        "label": "contract IBribeRewarderFactory",
        "numberOfBytes": "20"
      },
      "t_contract(IERC20)8968": {
        "encoding": "inplace",
        "label": "contract IERC20",
        "numberOfBytes": "20"
      },
      "t_mapping(t_address,t_bool)": {
        "encoding": "mapping",
        "key": "t_address",
        "label": "mapping(address => bool)",
        "numberOfBytes": "32",
        "value": "t_bool"
      },
      "t_mapping(t_address,t_struct(UserBalanceInfo)62432_storage)": {
        "encoding": "mapping",
        "key": "t_address",
        "label": "mapping(address => struct MultiRewarderPerSecV2.UserBalanceInfo)",
        "numberOfBytes": "32",
        "value": "t_struct(UserBalanceInfo)62432_storage"
      },
      "t_mapping(t_address,t_struct(UserRewardInfo)62437_storage)": {
        "encoding": "mapping",
        "key": "t_address",
        "label": "mapping(address => struct MultiRewarderPerSecV2.UserRewardInfo)",
        "numberOfBytes": "32",
        "value": "t_struct(UserRewardInfo)62437_storage"
      },
      "t_mapping(t_bytes32,t_struct(AddressSet)5253_storage)": {
        "encoding": "mapping",
        "key": "t_bytes32",
        "label": "mapping(bytes32 => struct EnumerableSetUpgradeable.AddressSet)",
        "numberOfBytes": "32",
        "value": "t_struct(AddressSet)5253_storage"
      },
      "t_mapping(t_bytes32,t_struct(RoleData)2388_storage)": {
        "encoding": "mapping",
        "key": "t_bytes32",
        "label": "mapping(bytes32 => struct AccessControlUpgradeable.RoleData)",
        "numberOfBytes": "32",
        "value": "t_struct(RoleData)2388_storage"
      },
      "t_mapping(t_bytes32,t_uint256)": {
        "encoding": "mapping",
        "key": "t_bytes32",
        "label": "mapping(bytes32 => uint256)",
        "numberOfBytes": "32",
        "value": "t_uint256"
      },
      "t_mapping(t_uint256,t_mapping(t_address,t_struct(UserRewardInfo)62437_storage))": {
        "encoding": "mapping",
        "key": "t_uint256",
        "label": "mapping(uint256 => mapping(address => struct MultiRewarderPerSecV2.UserRewardInfo))",
        "numberOfBytes": "32",
        "value": "t_mapping(t_address,t_struct(UserRewardInfo)62437_storage)"
      },
      "t_struct(AddressSet)5253_storage": {
        "encoding": "inplace",
        "label": "struct EnumerableSetUpgradeable.AddressSet",
        "members": [
          {
            "astId": 5252,
            "contract": "contracts/wombat-governance/gauge/BribeV2.sol:BribeV2",
            "label": "_inner",
            "offset": 0,
            "slot": "0",
            "type": "t_struct(Set)4938_storage"
          }
        ],
        "numberOfBytes": "64"
      },
      "t_struct(RewardInfo)62454_storage": {
        "encoding": "inplace",
        "label": "struct MultiRewarderPerSecV2.RewardInfo",
        "members": [
          {
            "astId": 62441,
            "contract": "contracts/wombat-governance/gauge/BribeV2.sol:BribeV2",
            "label": "rewardToken",
            "offset": 0,
            "slot": "0",
            "type": "t_contract(IERC20)8968"
          },
          {
            "astId": 62443,
            "contract": "contracts/wombat-governance/gauge/BribeV2.sol:BribeV2",
            "label": "tokenPerSec",
            "offset": 20,
            "slot": "0",
            "type": "t_uint96"
          },
          {
            "astId": 62446,
            "contract": "contracts/wombat-governance/gauge/BribeV2.sol:BribeV2",
            "label": "accTokenPerShare",
            "offset": 0,
            "slot": "1",
            "type": "t_uint128"
          },
          {
            "astId": 62448,
            "contract": "contracts/wombat-governance/gauge/BribeV2.sol:BribeV2",
            "label": "distributedAmount",
            "offset": 16,
            "slot": "1",
            "type": "t_uint128"
          },
          {
            "astId": 62451,
            "contract": "contracts/wombat-governance/gauge/BribeV2.sol:BribeV2",
            "label": "claimedAmount",
            "offset": 0,
            "slot": "2",
            "type": "t_uint128"
          },
          {
            "astId": 62453,
            "contract": "contracts/wombat-governance/gauge/BribeV2.sol:BribeV2",
            "label": "lastRewardTimestamp",
            "offset": 16,
            "slot": "2",
            "type": "t_uint40"
          }
        ],
        "numberOfBytes": "96"
      },
      "t_struct(RoleData)2388_storage": {
        "encoding": "inplace",
        "label": "struct AccessControlUpgradeable.RoleData",
        "members": [
          {
            "astId": 2385,
            "contract": "contracts/wombat-governance/gauge/BribeV2.sol:BribeV2",
            "label": "members",
            "offset": 0,
            "slot": "0",
            "type": "t_mapping(t_address,t_bool)"
          },
          {
            "astId": 2387,
            "contract": "contracts/wombat-governance/gauge/BribeV2.sol:BribeV2",
            "label": "adminRole",
            "offset": 0,
            "slot": "1",
            "type": "t_bytes32"
          }
        ],
        "numberOfBytes": "64"
      },
      "t_struct(Set)4938_storage": {
        "encoding": "inplace",
        "label": "struct EnumerableSetUpgradeable.Set",
        "members": [
          {
            "astId": 4933,
            "contract": "contracts/wombat-governance/gauge/BribeV2.sol:BribeV2",
            "label": "_values",
            "offset": 0,
            "slot": "0",
            "type": "t_array(t_bytes32)dyn_storage"
          },
          {
            "astId": 4937,
            "contract": "contracts/wombat-governance/gauge/BribeV2.sol:BribeV2",
            "label": "_indexes",
            "offset": 0,
            "slot": "1",
            "type": "t_mapping(t_bytes32,t_uint256)"
          }
        ],
        "numberOfBytes": "64"
      },
      "t_struct(UserBalanceInfo)62432_storage": {
        "encoding": "inplace",
        "label": "struct MultiRewarderPerSecV2.UserBalanceInfo",
        "members": [
          {
            "astId": 62431,
            "contract": "contracts/wombat-governance/gauge/BribeV2.sol:BribeV2",
            "label": "amount",
            "offset": 0,
            "slot": "0",
            "type": "t_uint256"
          }
        ],
        "numberOfBytes": "32"
      },
      "t_struct(UserRewardInfo)62437_storage": {
        "encoding": "inplace",
        "label": "struct MultiRewarderPerSecV2.UserRewardInfo",
        "members": [
          {
            "astId": 62434,
            "contract": "contracts/wombat-governance/gauge/BribeV2.sol:BribeV2",
            "label": "rewardDebt",
            "offset": 0,
            "slot": "0",
            "type": "t_uint128"
          },
          {
            "astId": 62436,
            "contract": "contracts/wombat-governance/gauge/BribeV2.sol:BribeV2",
            "label": "unpaidRewards",
            "offset": 16,
            "slot": "0",
            "type": "t_uint128"
          }
        ],
        "numberOfBytes": "32"
      },
      "t_uint128": {
        "encoding": "inplace",
        "label": "uint128",
        "numberOfBytes": "16"
      },
      "t_uint256": {
        "encoding": "inplace",
        "label": "uint256",
        "numberOfBytes": "32"
      },
      "t_uint40": {
        "encoding": "inplace",
        "label": "uint40",
        "numberOfBytes": "5"
      },
      "t_uint8": {
        "encoding": "inplace",
        "label": "uint8",
        "numberOfBytes": "1"
      },
      "t_uint96": {
        "encoding": "inplace",
        "label": "uint96",
        "numberOfBytes": "12"
      }
    }
  }
}