{
  "address": "0xD0599dB1eDb0ce601AFCc59779fa21FEfaC83786",
  "abi": [
    {
      "anonymous": false,
      "inputs": [
        {
          "indexed": true,
          "internalType": "uint256",
          "name": "pid",
          "type": "uint256"
        },
        {
          "indexed": true,
          "internalType": "contract IERC20",
          "name": "lpToken",
          "type": "address"
        },
        {
          "indexed": false,
          "internalType": "contract IMultiRewarder",
          "name": "rewarder",
          "type": "address"
        }
      ],
      "name": "Add",
      "type": "event"
    },
    {
      "anonymous": false,
      "inputs": [
        {
          "indexed": true,
          "internalType": "address",
          "name": "user",
          "type": "address"
        },
        {
          "indexed": true,
          "internalType": "uint256",
          "name": "pid",
          "type": "uint256"
        },
        {
          "indexed": false,
          "internalType": "uint256",
          "name": "amount",
          "type": "uint256"
        }
      ],
      "name": "Deposit",
      "type": "event"
    },
    {
      "anonymous": false,
      "inputs": [
        {
          "indexed": true,
          "internalType": "address",
          "name": "user",
          "type": "address"
        },
        {
          "indexed": true,
          "internalType": "uint256",
          "name": "pid",
          "type": "uint256"
        },
        {
          "indexed": false,
          "internalType": "uint256",
          "name": "amount",
          "type": "uint256"
        }
      ],
      "name": "DepositFor",
      "type": "event"
    },
    {
      "anonymous": false,
      "inputs": [
        {
          "indexed": true,
          "internalType": "address",
          "name": "user",
          "type": "address"
        },
        {
          "indexed": true,
          "internalType": "uint256",
          "name": "pid",
          "type": "uint256"
        },
        {
          "indexed": false,
          "internalType": "uint256",
          "name": "amount",
          "type": "uint256"
        }
      ],
      "name": "EmergencyWithdraw",
      "type": "event"
    },
    {
      "anonymous": false,
      "inputs": [
        {
          "indexed": false,
          "internalType": "address",
          "name": "owner",
          "type": "address"
        },
        {
          "indexed": false,
          "internalType": "uint256",
          "name": "balance",
          "type": "uint256"
        }
      ],
      "name": "EmergencyWomWithdraw",
      "type": "event"
    },
    {
      "anonymous": false,
      "inputs": [
        {
          "indexed": true,
          "internalType": "address",
          "name": "user",
          "type": "address"
        },
        {
          "indexed": true,
          "internalType": "uint256",
          "name": "pid",
          "type": "uint256"
        },
        {
          "indexed": false,
          "internalType": "uint256",
          "name": "amount",
          "type": "uint256"
        }
      ],
      "name": "Harvest",
      "type": "event"
    },
    {
      "anonymous": false,
      "inputs": [
        {
          "indexed": false,
          "internalType": "uint8",
          "name": "version",
          "type": "uint8"
        }
      ],
      "name": "Initialized",
      "type": "event"
    },
    {
      "anonymous": false,
      "inputs": [
        {
          "indexed": true,
          "internalType": "address",
          "name": "previousOwner",
          "type": "address"
        },
        {
          "indexed": true,
          "internalType": "address",
          "name": "newOwner",
          "type": "address"
        }
      ],
      "name": "OwnershipTransferred",
      "type": "event"
    },
    {
      "anonymous": false,
      "inputs": [
        {
          "indexed": false,
          "internalType": "address",
          "name": "account",
          "type": "address"
        }
      ],
      "name": "Paused",
      "type": "event"
    },
    {
      "anonymous": false,
      "inputs": [
        {
          "indexed": true,
          "internalType": "uint256",
          "name": "pid",
          "type": "uint256"
        },
        {
          "indexed": false,
          "internalType": "contract IMultiRewarder",
          "name": "rewarder",
          "type": "address"
        }
      ],
      "name": "SetRewarder",
      "type": "event"
    },
    {
      "anonymous": false,
      "inputs": [
        {
          "indexed": false,
          "internalType": "address",
          "name": "account",
          "type": "address"
        }
      ],
      "name": "Unpaused",
      "type": "event"
    },
    {
      "anonymous": false,
      "inputs": [
        {
          "indexed": true,
          "internalType": "address",
          "name": "user",
          "type": "address"
        },
        {
          "indexed": false,
          "internalType": "uint256",
          "name": "basePartition",
          "type": "uint256"
        },
        {
          "indexed": false,
          "internalType": "uint256",
          "name": "boostedPartition",
          "type": "uint256"
        }
      ],
      "name": "UpdateEmissionPartition",
      "type": "event"
    },
    {
      "anonymous": false,
      "inputs": [
        {
          "indexed": true,
          "internalType": "address",
          "name": "user",
          "type": "address"
        },
        {
          "indexed": false,
          "internalType": "address",
          "name": "oldVeWOM",
          "type": "address"
        },
        {
          "indexed": false,
          "internalType": "address",
          "name": "newVeWOM",
          "type": "address"
        }
      ],
      "name": "UpdateVeWOM",
      "type": "event"
    },
    {
      "anonymous": false,
      "inputs": [
        {
          "indexed": true,
          "internalType": "address",
          "name": "user",
          "type": "address"
        },
        {
          "indexed": false,
          "internalType": "address",
          "name": "oldVoter",
          "type": "address"
        },
        {
          "indexed": false,
          "internalType": "address",
          "name": "newVoter",
          "type": "address"
        }
      ],
      "name": "UpdateVoter",
      "type": "event"
    },
    {
      "anonymous": false,
      "inputs": [
        {
          "indexed": true,
          "internalType": "address",
          "name": "user",
          "type": "address"
        },
        {
          "indexed": true,
          "internalType": "uint256",
          "name": "pid",
          "type": "uint256"
        },
        {
          "indexed": false,
          "internalType": "uint256",
          "name": "amount",
          "type": "uint256"
        }
      ],
      "name": "Withdraw",
      "type": "event"
    },
    {
      "inputs": [],
      "name": "ACC_TOKEN_PRECISION",
      "outputs": [
        {
          "internalType": "uint256",
          "name": "",
          "type": "uint256"
        }
      ],
      "stateMutability": "view",
      "type": "function"
    },
    {
      "inputs": [],
      "name": "REWARD_DURATION",
      "outputs": [
        {
          "internalType": "uint256",
          "name": "",
          "type": "uint256"
        }
      ],
      "stateMutability": "view",
      "type": "function"
    },
    {
      "inputs": [
        {
          "internalType": "contract IERC20",
          "name": "_lpToken",
          "type": "address"
        },
        {
          "internalType": "contract IMultiRewarder",
          "name": "_rewarder",
          "type": "address"
        }
      ],
      "name": "add",
      "outputs": [],
      "stateMutability": "nonpayable",
      "type": "function"
    },
    {
      "inputs": [],
      "name": "basePartition",
      "outputs": [
        {
          "internalType": "uint16",
          "name": "",
          "type": "uint16"
        }
      ],
      "stateMutability": "view",
      "type": "function"
    },
    {
      "inputs": [],
      "name": "boostedPartition",
      "outputs": [
        {
          "internalType": "uint256",
          "name": "",
          "type": "uint256"
        }
      ],
      "stateMutability": "view",
      "type": "function"
    },
    {
      "inputs": [
        {
          "internalType": "uint256",
          "name": "_pid",
          "type": "uint256"
        }
      ],
      "name": "calRewardPerUnit",
      "outputs": [
        {
          "internalType": "uint256",
          "name": "accWomPerShare",
          "type": "uint256"
        },
        {
          "internalType": "uint256",
          "name": "accWomPerFactorShare",
          "type": "uint256"
        }
      ],
      "stateMutability": "view",
      "type": "function"
    },
    {
      "inputs": [
        {
          "internalType": "uint256",
          "name": "_pid",
          "type": "uint256"
        },
        {
          "internalType": "uint256",
          "name": "_amount",
          "type": "uint256"
        }
      ],
      "name": "deposit",
      "outputs": [
        {
          "internalType": "uint256",
          "name": "reward",
          "type": "uint256"
        },
        {
          "internalType": "uint256[]",
          "name": "additionalRewards",
          "type": "uint256[]"
        }
      ],
      "stateMutability": "nonpayable",
      "type": "function"
    },
    {
      "inputs": [
        {
          "internalType": "uint256",
          "name": "_pid",
          "type": "uint256"
        },
        {
          "internalType": "uint256",
          "name": "_amount",
          "type": "uint256"
        },
        {
          "internalType": "address",
          "name": "_user",
          "type": "address"
        }
      ],
      "name": "depositFor",
      "outputs": [],
      "stateMutability": "nonpayable",
      "type": "function"
    },
    {
      "inputs": [
        {
          "internalType": "uint256",
          "name": "_pid",
          "type": "uint256"
        }
      ],
      "name": "emergencyWithdraw",
      "outputs": [],
      "stateMutability": "nonpayable",
      "type": "function"
    },
    {
      "inputs": [],
      "name": "emergencyWomWithdraw",
      "outputs": [],
      "stateMutability": "nonpayable",
      "type": "function"
    },
    {
      "inputs": [
        {
          "internalType": "address",
          "name": "asset",
          "type": "address"
        }
      ],
      "name": "getAssetPid",
      "outputs": [
        {
          "internalType": "uint256",
          "name": "",
          "type": "uint256"
        }
      ],
      "stateMutability": "view",
      "type": "function"
    },
    {
      "inputs": [
        {
          "internalType": "contract IERC20",
          "name": "_wom",
          "type": "address"
        },
        {
          "internalType": "contract IVeWom",
          "name": "_veWom",
          "type": "address"
        },
        {
          "internalType": "address",
          "name": "_voter",
          "type": "address"
        },
        {
          "internalType": "uint16",
          "name": "_basePartition",
          "type": "uint16"
        }
      ],
      "name": "initialize",
      "outputs": [],
      "stateMutability": "nonpayable",
      "type": "function"
    },
    {
      "inputs": [
        {
          "internalType": "uint256",
          "name": "_periodFinish",
          "type": "uint256"
        }
      ],
      "name": "lastTimeRewardApplicable",
      "outputs": [
        {
          "internalType": "uint256",
          "name": "",
          "type": "uint256"
        }
      ],
      "stateMutability": "view",
      "type": "function"
    },
    {
      "inputs": [],
      "name": "massUpdatePools",
      "outputs": [],
      "stateMutability": "nonpayable",
      "type": "function"
    },
    {
      "inputs": [
        {
          "internalType": "uint256[]",
          "name": "_pids",
          "type": "uint256[]"
        }
      ],
      "name": "migrate",
      "outputs": [],
      "stateMutability": "nonpayable",
      "type": "function"
    },
    {
      "inputs": [
        {
          "internalType": "uint256[]",
          "name": "_pids",
          "type": "uint256[]"
        }
      ],
      "name": "multiClaim",
      "outputs": [
        {
          "internalType": "uint256",
          "name": "reward",
          "type": "uint256"
        },
        {
          "internalType": "uint256[]",
          "name": "amounts",
          "type": "uint256[]"
        },
        {
          "internalType": "uint256[][]",
          "name": "additionalRewards",
          "type": "uint256[][]"
        }
      ],
      "stateMutability": "nonpayable",
      "type": "function"
    },
    {
      "inputs": [
        {
          "internalType": "address",
          "name": "_lpToken",
          "type": "address"
        },
        {
          "internalType": "uint256",
          "name": "_amount",
          "type": "uint256"
        }
      ],
      "name": "notifyRewardAmount",
      "outputs": [],
      "stateMutability": "nonpayable",
      "type": "function"
    },
    {
      "inputs": [],
      "name": "owner",
      "outputs": [
        {
          "internalType": "address",
          "name": "",
          "type": "address"
        }
      ],
      "stateMutability": "view",
      "type": "function"
    },
    {
      "inputs": [],
      "name": "pause",
      "outputs": [],
      "stateMutability": "nonpayable",
      "type": "function"
    },
    {
      "inputs": [],
      "name": "paused",
      "outputs": [
        {
          "internalType": "bool",
          "name": "",
          "type": "bool"
        }
      ],
      "stateMutability": "view",
      "type": "function"
    },
    {
      "inputs": [
        {
          "internalType": "uint256",
          "name": "_pid",
          "type": "uint256"
        },
        {
          "internalType": "address",
          "name": "_user",
          "type": "address"
        }
      ],
      "name": "pendingTokens",
      "outputs": [
        {
          "internalType": "uint256",
          "name": "pendingRewards",
          "type": "uint256"
        },
        {
          "internalType": "contract IERC20[]",
          "name": "bonusTokenAddresses",
          "type": "address[]"
        },
        {
          "internalType": "string[]",
          "name": "bonusTokenSymbols",
          "type": "string[]"
        },
        {
          "internalType": "uint256[]",
          "name": "pendingBonusRewards",
          "type": "uint256[]"
        }
      ],
      "stateMutability": "view",
      "type": "function"
    },
    {
      "inputs": [
        {
          "internalType": "uint256",
          "name": "_pid",
          "type": "uint256"
        }
      ],
      "name": "poolInfo",
      "outputs": [
        {
          "internalType": "contract IERC20",
          "name": "lpToken",
          "type": "address"
        },
        {
          "internalType": "uint96",
          "name": "allocPoint",
          "type": "uint96"
        },
        {
          "internalType": "contract IMultiRewarder",
          "name": "rewarder",
          "type": "address"
        },
        {
          "internalType": "uint256",
          "name": "sumOfFactors",
          "type": "uint256"
        },
        {
          "internalType": "uint104",
          "name": "accWomPerShare",
          "type": "uint104"
        },
        {
          "internalType": "uint104",
          "name": "accWomPerFactorShare",
          "type": "uint104"
        },
        {
          "internalType": "uint40",
          "name": "lastRewardTimestamp",
          "type": "uint40"
        }
      ],
      "stateMutability": "view",
      "type": "function"
    },
    {
      "inputs": [
        {
          "internalType": "uint256",
          "name": "",
          "type": "uint256"
        }
      ],
      "name": "poolInfoV3",
      "outputs": [
        {
          "internalType": "contract IERC20",
          "name": "lpToken",
          "type": "address"
        },
        {
          "internalType": "contract IMultiRewarder",
          "name": "rewarder",
          "type": "address"
        },
        {
          "internalType": "uint40",
          "name": "periodFinish",
          "type": "uint40"
        },
        {
          "internalType": "uint128",
          "name": "sumOfFactors",
          "type": "uint128"
        },
        {
          "internalType": "uint128",
          "name": "rewardRate",
          "type": "uint128"
        },
        {
          "internalType": "uint104",
          "name": "accWomPerShare",
          "type": "uint104"
        },
        {
          "internalType": "uint104",
          "name": "accWomPerFactorShare",
          "type": "uint104"
        },
        {
          "internalType": "uint40",
          "name": "lastRewardTimestamp",
          "type": "uint40"
        }
      ],
      "stateMutability": "view",
      "type": "function"
    },
    {
      "inputs": [],
      "name": "poolLength",
      "outputs": [
        {
          "internalType": "uint256",
          "name": "",
          "type": "uint256"
        }
      ],
      "stateMutability": "view",
      "type": "function"
    },
    {
      "inputs": [],
      "name": "renounceOwnership",
      "outputs": [],
      "stateMutability": "nonpayable",
      "type": "function"
    },
    {
      "inputs": [
        {
          "internalType": "uint256",
          "name": "_pid",
          "type": "uint256"
        }
      ],
      "name": "rewarderBonusTokenInfo",
      "outputs": [
        {
          "internalType": "contract IERC20[]",
          "name": "bonusTokenAddresses",
          "type": "address[]"
        },
        {
          "internalType": "string[]",
          "name": "bonusTokenSymbols",
          "type": "string[]"
        }
      ],
      "stateMutability": "view",
      "type": "function"
    },
    {
      "inputs": [
        {
          "internalType": "contract IMasterWombatV3",
          "name": "_newMasterWombat",
          "type": "address"
        }
      ],
      "name": "setNewMasterWombat",
      "outputs": [],
      "stateMutability": "nonpayable",
      "type": "function"
    },
    {
      "inputs": [
        {
          "internalType": "uint256",
          "name": "_pid",
          "type": "uint256"
        },
        {
          "internalType": "contract IMultiRewarder",
          "name": "_rewarder",
          "type": "address"
        }
      ],
      "name": "setRewarder",
      "outputs": [],
      "stateMutability": "nonpayable",
      "type": "function"
    },
    {
      "inputs": [
        {
          "internalType": "contract IVeWom",
          "name": "_newVeWom",
          "type": "address"
        }
      ],
      "name": "setVeWom",
      "outputs": [],
      "stateMutability": "nonpayable",
      "type": "function"
    },
    {
      "inputs": [
        {
          "internalType": "address",
          "name": "_newVoter",
          "type": "address"
        }
      ],
      "name": "setVoter",
      "outputs": [],
      "stateMutability": "nonpayable",
      "type": "function"
    },
    {
      "inputs": [
        {
          "internalType": "address",
          "name": "newOwner",
          "type": "address"
        }
      ],
      "name": "transferOwnership",
      "outputs": [],
      "stateMutability": "nonpayable",
      "type": "function"
    },
    {
      "inputs": [],
      "name": "unpause",
      "outputs": [],
      "stateMutability": "nonpayable",
      "type": "function"
    },
    {
      "inputs": [
        {
          "internalType": "uint16",
          "name": "_basePartition",
          "type": "uint16"
        }
      ],
      "name": "updateEmissionPartition",
      "outputs": [],
      "stateMutability": "nonpayable",
      "type": "function"
    },
    {
      "inputs": [
        {
          "internalType": "address",
          "name": "_user",
          "type": "address"
        },
        {
          "internalType": "uint256",
          "name": "_newVeWomBalance",
          "type": "uint256"
        }
      ],
      "name": "updateFactor",
      "outputs": [],
      "stateMutability": "nonpayable",
      "type": "function"
    },
    {
      "inputs": [
        {
          "internalType": "uint256",
          "name": "_pid",
          "type": "uint256"
        }
      ],
      "name": "updatePool",
      "outputs": [],
      "stateMutability": "nonpayable",
      "type": "function"
    },
    {
      "inputs": [
        {
          "internalType": "uint256",
          "name": "",
          "type": "uint256"
        },
        {
          "internalType": "address",
          "name": "",
          "type": "address"
        }
      ],
      "name": "userInfo",
      "outputs": [
        {
          "internalType": "uint128",
          "name": "amount",
          "type": "uint128"
        },
        {
          "internalType": "uint128",
          "name": "factor",
          "type": "uint128"
        },
        {
          "internalType": "uint128",
          "name": "rewardDebt",
          "type": "uint128"
        },
        {
          "internalType": "uint128",
          "name": "pendingWom",
          "type": "uint128"
        }
      ],
      "stateMutability": "view",
      "type": "function"
    },
    {
      "inputs": [],
      "name": "veWom",
      "outputs": [
        {
          "internalType": "contract IVeWom",
          "name": "",
          "type": "address"
        }
      ],
      "stateMutability": "view",
      "type": "function"
    },
    {
      "inputs": [],
      "name": "voter",
      "outputs": [
        {
          "internalType": "address",
          "name": "",
          "type": "address"
        }
      ],
      "stateMutability": "view",
      "type": "function"
    },
    {
      "inputs": [
        {
          "internalType": "uint256",
          "name": "_pid",
          "type": "uint256"
        },
        {
          "internalType": "uint256",
          "name": "_amount",
          "type": "uint256"
        }
      ],
      "name": "withdraw",
      "outputs": [
        {
          "internalType": "uint256",
          "name": "reward",
          "type": "uint256"
        },
        {
          "internalType": "uint256[]",
          "name": "additionalRewards",
          "type": "uint256[]"
        }
      ],
      "stateMutability": "nonpayable",
      "type": "function"
    },
    {
      "inputs": [],
      "name": "wom",
      "outputs": [
        {
          "internalType": "contract IERC20",
          "name": "",
          "type": "address"
        }
      ],
      "stateMutability": "view",
      "type": "function"
    }
  ],
  "transactionHash": "0xa7af56be446d8dbfefe486995372afe7ae79e88cfc0c927e689bd1534bab41c8",
  "args": [],
  "numDeployments": 1,
  "solcInputHash": "f69478c090fcdc72c3ea9798b655ba5a",
  "bytecode": "0x6080806040523461001657613692908161001c8239f35b600080fdfe608080604052600436101561001357600080fd5b60003560e01c908163081e3eda14612223575080631526fe27146121545780631983dbf5146120a75780632e11275714611df45780633e582ae614611dcd5780633f4ba83a14611d3157806343de320714611c4f578063441a3e7014611aed57806346c96aac14611ac65780634bc2a65714611a475780634ed73d281461196b5780634f00a93e1461171a57806351eb05a6146116fe57806352c28fab146113875780635312ea8e146111e45780635ade228a146111c65780635c975abb146111a3578063630b5ba11461118a578063715018a61461112f5780638456cb59146110d55780638da5cb5b146110ae57806390210d7e14610f9d57806393f1a40b14610f2d5780639b128de614610e9c578063abfef11114610e77578063af929a8014610e1a578063b163e79314610d76578063b66503cf14610b1d578063b8be44e714610af3578063bc70fdbc14610aac578063be159bea14610a7d578063c5a6222e14610a56578063d1e2ac8814610a13578063d93bf4fe1461072c578063e2bbb1581461060f578063eea01604146105ef578063eeca1562146105bc578063f13e55071461041c578063f2fde38b146103775763ffcd4263146101d757600080fd5b34610372576040366003190112610372576004356101f3612254565b6060918261028a849261020581612317565b5094600161021283613386565b8460009692965260d06020526040600020956001600160a01b0380951696876000526020526102828464e8d4a5100061027360406000209561026d8754916102646001600160801b0398898516612839565b9260801c612839565b9061284c565b04930154928360801c9061284c565b9116906125ec565b9601541690816102dc575b505050906102ca6102d8926102bc6040519687968752608060208801526080870190612367565b9085820360408701526123c7565b908382036060850152612296565b0390f35b9093506102ee9195506000925061308b565b9190946024604051809581937fc031a66f00000000000000000000000000000000000000000000000000000000835260048301525afa918215610366576102d8926102ca91600091610343575b509238610295565b61036091503d806000833e61035881836125ca565b810190612996565b3861033b565b6040513d6000823e3d90fd5b600080fd5b346103725760203660031901126103725761039061223e565b610398612438565b6001600160a01b038116156103b2576103b090612490565b005b608460405162461bcd60e51b815260206004820152602660248201527f4f776e61626c653a206e6577206f776e657220697320746865207a65726f206160448201527f64647265737300000000000000000000000000000000000000000000000000006064820152fd5b3461037257600036600319011261037257610435612438565b6001600160a01b038060c95416906040516370a0823160e01b918282523060048301526020938483602481845afa801561036657859360009161058a575b5060405163a9059cbb60e01b815233600482015260248101919091529290839060449082906000905af191821561036657849261055d575b5060c954169160246040518094819382523060048301525afa9182156103665760009261050d575b60408051338152602081018590527f2b58f1b72aa1f2865f8da73af0eaff3a2b5b670c59fed83005919fe6c23cf35c91819081015b0390a1005b90809250813d8311610556575b61052481836125ca565b8101031261037257516105087f2b58f1b72aa1f2865f8da73af0eaff3a2b5b670c59fed83005919fe6c23cf35c6104d3565b503d61051a565b61057c90833d8511610583575b61057481836125ca565b8101906128df565b50846104ab565b503d61056a565b84819592503d83116105b5575b6105a181836125ca565b810103126103725791518492906000610473565b503d610597565b34610372576020366003190112610372576004358042106000146105e757506020425b604051908152f35b6020906105df565b3461037257600036600319011261037257602060405164e8d4a510008152f35b346103725761061d36612280565b610625612910565b61062d612549565b61063682612317565b5090826000526001600160a01b0360209360d08552604060002033600052855261068161067a846001600160801b036040600020610673866126cd565b541661284c565b3383612d1c565b94546040516323b872dd60e01b815233600482015230602482015260448101869052919591949193879186916064918391600091165af1938415610366576102d89461070f575b506040519081527f90890809c654f11d6e72a28fa60149770a0d11ec6c92319d6ceb2bb0a4ea1a15863392a360016065556040805194859485528401526040830190612296565b61072590873d89116105835761057481836125ca565b50866106c8565b346103725761073a366122ca565b610742612910565b6001600160a01b0360cb5416156109cf57610766610761368385612891565b612a10565b50505060005b81811061077a576001606555005b8060051b83013560005260d06020526040600020336000526020526040600020906001600160801b03825416806107bc575b506107b79150612696565b61076c565b61083f60206107d08460051b880135612317565b50926001600160a01b038454166001600160a01b0360cb541660006040518096819582947f095ea7b3000000000000000000000000000000000000000000000000000000008452600484019092916001600160801b036020916001600160a01b03604085019616845216910152565b03925af18015610366576109b0575b506001600160a01b0360cb5416926001600160a01b03825416604051907faf929a800000000000000000000000000000000000000000000000000000000082526004820152602081602481885afa9081156103665760009161097e575b506001600160801b03825416853b156103725760646000928360405198899485937f90210d7e000000000000000000000000000000000000000000000000000000008552600485015260248401523360448401525af1908115610366576107b79460029261096f575b505460801c9101906001600160801b03196001600160801b0361093b8454938285166128f7565b1691161790558060051b84013560005260d060205260406000203360005260205260006001604082208281550155846107ac565b610978906125b6565b87610914565b90506020813d6020116109a8575b81610999602093836125ca565b810103126103725751876108ab565b3d915061098c565b6109c89060203d6020116105835761057481836125ca565b508561084e565b606460405162461bcd60e51b815260206004820152600960248201527f746f2077686572653f00000000000000000000000000000000000000000000006044820152fd5b34610372576020366003190112610372576004356001600160a01b03811680910361037257610a40612438565b6001600160a01b031960cb54161760cb55600080f35b346103725760003660031901126103725760206001600160a01b0360c95416604051908152f35b3461037257600036600319011261037257602061ffff610aa38160cc5460a01c16613077565b16604051908152f35b3461037257602036600319011261037257610ae56102d8610ace60043561308b565b604092919251938493604085526040850190612367565b9083820360208501526123c7565b34610372576020366003190112610372576040610b11600435613386565b82519182526020820152f35b3461037257604036600319011261037257610b3661223e565b6024908135906001600160a01b03908160cc54163303610d0c578215610cc8571660005260d16020526040600020546000198101908111610cb357610b7a90612317565b50600381019064ffffffffff9182815460d01c1693600183019484865460a01c1680821015600014610c46575050610c03926002610bbf62093a80610be1940461352e565b9101906001600160801b036001600160801b031983549260801b169116179055565b805464ffffffffff60d01b191642841660d01b64ffffffffff60d01b16179055565b62093a804201804211610c3157825464ffffffffff60a01b1916911660a01b64ffffffffff60a01b16179055005b83634e487b7160e01b60005260116004526000fd5b03848111610c9e57610c7a62093a80610c74610c999461026d6002610c039901958a875460801c9116612839565b0461352e565b6001600160801b036001600160801b031983549260801b169116179055565b610be1565b86634e487b7160e01b60005260116004526000fd5b82634e487b7160e01b60005260116004526000fd5b606484601f6040519162461bcd60e51b8352602060048401528201527f6e6f74696679526577617264416d6f756e743a207a65726f20616d6f756e74006044820152fd5b60848460216040519162461bcd60e51b8352602060048401528201527f4d6173746572576f6d6261743a2063616c6c6572206973206e6f7420566f746560448201527f72000000000000000000000000000000000000000000000000000000000000006064820152fd5b346103725760203660031901126103725760043560cf5481101561037257610da061010091612317565b506001600160a01b0390818154169160018201549160036002820154910154916040519485528316602085015264ffffffffff809360a01c1660408501526001600160801b038116606085015260801c60808401526001600160681b0380821660a08501528160681c1660c084015260d01c1660e0820152f35b34610372576020366003190112610372576001600160a01b03610e3b61223e565b1660005260d16020526040600020546000198101908111610e6157602090604051908152f35b634e487b7160e01b600052601160045260246000fd5b3461037257600036600319011261037257602061ffff60cc5460a01c16604051908152f35b3461037257602036600319011261037257610eb561223e565b610ebd612438565b6001600160a01b0380911680156103725760ca80546001600160a01b03198116831790915560408051939091166001600160a01b039081168452909116602083015233917fa0956d8e03557278fdb89913cec4e0f21da09587edf25b3eecc0079cdb757ef591819081015b0390a2005b3461037257604036600319011261037257610f46612254565b60043560005260d06020526001600160a01b03604060002091166000526020526080604060002060018154910154604051916001600160801b03908181168452841c602084015281166040830152821c6060820152f35b3461037257606036600319011261037257600435602435610fbc61226a565b90610fc5612910565b610fcd612549565b610fd683612317565b50918360005260209060d082526040600020936110206001600160a01b039283811696876000528552611019866001600160801b0360406000206106738c6126cd565b9088612d1c565b5050546040516323b872dd60e01b8152336004820152306024820152604481018590529391839185916064918391600091165af1928315610366577f16f3fbfd4bcc50a5cecb2e53e398a1ad77d89f63288ef540d862b264ed57eb1f93611091575b50604051908152a36001606555005b6110a790833d85116105835761057481836125ca565b5085611082565b346103725760003660031901126103725760206001600160a01b0360335416604051908152f35b34610372576000366003190112610372576110ee612438565b6110f6612549565b600160ff1960975416176097557f62e78cea01bee320cd4e420270b5ea74000d11b0c9f74754ebdbfc544b05a2586020604051338152a1005b3461037257600036600319011261037257611148612438565b60006001600160a01b036033546001600160a01b03198116603355167f8be0079c531659141344cd1fd0a4f28419497f9722a3daafe3b4186f6b6457e08280a3005b34610372576000366003190112610372576103b06126a5565b3461037257600036600319011261037257602060ff609754166040519015158152f35b3461037257600036600319011261037257602060405162093a808152f35b34610372576020806003193601126103725760043590611202612910565b61120b82612317565b508260005260d0825260406000203360005282526040600020906001600160a01b039182825416926000856112826001600160801b03968786541660405194858094819363a9059cbb60e01b835233600484019092916001600160801b036020916001600160a01b03604085019616845216910152565b03925af180156103665761136a575b50600161129d87612317565b500154168061130f575b506002600192018054936112c1835460801c8287166128f7565b166001600160801b031980951617905560008155019081541690557fbb757047c2b5f3974fe26b7c10f732e7bce710b0952a71082702781e62ae059560405191600083523392a36001606555005b916000809360446040518096819363186e465160e31b83523360048401528160248401525af19081156103665760019360029261134f575b5092506112a7565b611363903d806000833e61035881836125ca565b5087611347565b61138090863d88116105835761057481836125ca565b5086611291565b34610372576040366003190112610372576113a061223e565b6113a8612254565b906113b1612438565b6001600160a01b0380911691823b1561169457811690813b1580159061168c575b15611639578260005260ce6020526040600020546115f55760405164ffffffffff4281166113ff83612599565b858352602083018581526040840182815260608501946000865260808101956000875260a08201926000845260c08301976000895260e0840196875260cf54680100000000000000008110156115df5780600161145f920160cf55612317565b9390936115c9576114bf61154e978a6114e3958e6115709f60039a5116906001600160a01b031991828b5416178a5560018a0194511690845416178355511664ffffffffff60a01b1964ffffffffff60a01b83549260a01b169116179055565b51905160801b6001600160801b0319166001600160801b0391909116176002830155565b01946001600160681b03809251166001600160681b0319875416178655511684907fffffffffffff00000000000000000000000000ffffffffffffffffffffffffff79ffffffffffffffffffffffffff0000000000000000000000000083549260681b169116179055565b51825464ffffffffff60d01b1916911660d01b64ffffffffff60d01b16179055565b60cf548260005260d160205260406000205561158b826125f9565b5060cf54600019810191908211610e615760207fec85b1d1f037ff3a8722aaf5d4d8e7d93c7ff10c056430c18d76a9ec23aa397e91604051908152a3005b634e487b7160e01b600052600060045260246000fd5b634e487b7160e01b600052604160045260246000fd5b606460405162461bcd60e51b815260206004820152601560248201527f6164643a204c5020616c726561647920616464656400000000000000000000006044820152fd5b608460405162461bcd60e51b815260206004820152602660248201527f6164643a207265776172646572206d75737420626520636f6e7472616374206f60448201526572207a65726f60d01b6064820152fd5b5081156113d2565b608460405162461bcd60e51b815260206004820152602660248201527f6164643a204c5020746f6b656e206d75737420626520612076616c696420636f60448201527f6e747261637400000000000000000000000000000000000000000000000000006064820152fd5b34610372576020366003190112610372576103b06004356126cd565b346103725760403660031901126103725761173361223e565b6024356001600160a01b038060ca541633036119015760cf54921660005b83811061175a57005b80600052602060d0815260406000209083600052528260406000206001600160801b0380825416156118f55761178f846126cd565b61179884612317565b50908254926003830192828454956001600160681b0390818816838216906117bf91612839565b9164e8d4a5100080936068938360809c861c16908c1c906117df91612839565b6117e89161284c565b049760018701988954908682166117fe916125ec565b6118079061352e565b611812918c1c612d01565b89546001600160801b031660809190911b6001600160801b0319161789558487549b818d16906118429082612839565b9061184c916135de565b976118568961352e565b81546001600160801b031660809190911b6001600160801b031916178155541690549082821661188591612839565b921c166118929086612839565b61189b9161284c565b046118a59061352e565b16936001600160801b03199485825416179055600201948554941c90828516906118ce9161284c565b906118d8916125ec565b6118e19061352e565b1691161790556118f090612696565b611751565b5050506118f090612696565b608460405162461bcd60e51b815260206004820152602160248201527f4d6173746572576f6d6261743a2063616c6c6572206973206e6f74205665576f60448201527f6d000000000000000000000000000000000000000000000000000000000000006064820152fd5b346103725761199661076161197f366122ca565b611987612910565b61198f612549565b3691612891565b9190600190816065556040519283526119bb6020916060838601526060850190612296565b9083820360408501528451908183528083019281808460051b8301019701936000915b8483106119eb5787890388f35b9091929394958098601f198382030184528588518180825194858152019101926000905b85818310611a305750505081925098019301930191949392909795976119de565b919380919386518152019401920188929391611a0f565b3461037257602036600319011261037257611a6061223e565b611a68612438565b60cc80546001600160a01b039283166001600160a01b03198216811790925560408051939091168352602083019190915233917f9db5e84498cff91ecd1f5666fa2ecf069530eb27baffabaccefafc06bbd3cee39181908101610f28565b346103725760003660031901126103725760206001600160a01b0360cc5416604051908152f35b3461037257611afb36612280565b611b03612910565b611b0b612549565b611b1482612317565b50908260005260209260d08452604060002033600052845260406000206001600160801b0390838282541610611c0b5761067a848493611b6693611b5f6001600160a01b03976126cd565b54166125ec565b945460405163a9059cbb60e01b815233600482015260248101869052919591949193879186916044918391600091165af1938415610366576102d894611bee575b506040519081527ff279e6a1f5e320cca91135676d9cb6e44ca8a08c0b88342bcdb1144f6511b568863392a360016065556040805194859485528401526040830190612296565b611c0490873d89116105835761057481836125ca565b5086611ba7565b6064866040519062461bcd60e51b82526004820152601c60248201527f77697468647261773a206e6f7420656e6f7567682062616c616e6365000000006044820152fd5b34610372576040366003190112610372576004356001600160a01b03611c73612254565b611c7b612438565b16803b15801590611d29575b15611cd65760207f858b2cab7b344488967106b3c498c1f59de0a26b500923d9e4e06918909cd511916001611cbb85612317565b5001816001600160a01b0319825416179055604051908152a2005b608460405162461bcd60e51b815260206004820152602660248201527f7365743a207265776172646572206d75737420626520636f6e7472616374206f60448201526572207a65726f60d01b6064820152fd5b508015611c87565b3461037257600036600319011261037257611d4a612438565b60975460ff811615611d895760ff19166097557f5db9ee0a495bf2e6ff9c91a7834c1ba4fdd244a5e8aa4e537bd38aeae4b073aa6020604051338152a1005b606460405162461bcd60e51b815260206004820152601460248201527f5061757361626c653a206e6f74207061757365640000000000000000000000006044820152fd5b346103725760003660031901126103725760206001600160a01b0360ca5416604051908152f35b3461037257608036600319011261037257611e0d61223e565b611e15612254565b611e1d61226a565b60643561ffff811692838203610372576000549460ff8660081c16159485809661209a575b8015612083575b156120195760ff198781166001176000559686612007575b506001600160a01b03809216908115611fc3576103e810611f5957817fffffffffffffffffffff0000000000000000000000000000000000000000000093611eb960ff60005460081c16611eb4816124d8565b6124d8565b611ec233612490565b60005498611ee360ff8b60081c16611ed9816124d8565b60016065556124d8565b609754166097556001600160a01b0319928360c954161760c955169060ca54161760ca5561ffff60a01b60cc549360a01b1693169116171760cc55611f2457005b61ff0019166000557f7f26b83ff96e1f2b6a682f133852f6798a09c465da95921460cefb3847402498602060405160018152a1005b608460405162461bcd60e51b815260206004820152602760248201527f6261736520706172746974696f6e206d75737420626520696e2072616e67652060448201527f302c2031303030000000000000000000000000000000000000000000000000006064820152fd5b606460405162461bcd60e51b815260206004820152601a60248201527f776f6d20616464726573732063616e6e6f74206265207a65726f0000000000006044820152fd5b61ffff19166101011760005587611e61565b608460405162461bcd60e51b815260206004820152602e60248201527f496e697469616c697a61626c653a20636f6e747261637420697320616c72656160448201527f647920696e697469616c697a65640000000000000000000000000000000000006064820152fd5b50303b158015611e495750600160ff881614611e49565b50600160ff881610611e42565b346103725760203660031901126103725760043561ffff80821691828103610372576120d1612438565b6103e8831161037257612120906120e66126a5565b60cc547fffffffffffffffffffff0000ffffffffffffffffffffffffffffffffffffffff61ffff60a01b8360a01b1691161760cc55613077565b6040519283521660208201527f7fd921cf733c788915a229b0ea58095c44ae2c275ed7835501e5135fe3c1ed0560403392a2005b346103725760203660031901126103725760e0612172600435612317565b508160405161218081612599565b6001600160a01b038084541693848352600181015491821680602085015264ffffffffff809360a01c16604085015260036002830154926001600160801b0384169384606088015260801c60808701520154936001600160681b0393848616948560a08401528660681c16958660c084015260d01c1695869101526040519586526000602087015260408601526060850152608084015260a083015260c0820152f35b346103725760003660031901126103725760209060cf548152f35b600435906001600160a01b038216820361037257565b602435906001600160a01b038216820361037257565b604435906001600160a01b038216820361037257565b6040906003190112610372576004359060243590565b90815180825260208080930193019160005b8281106122b6575050505090565b8351855293810193928101926001016122a8565b9060206003198301126103725760043567ffffffffffffffff9283821161037257806023830112156103725781600401359384116103725760248460051b83010111610372576024019190565b60cf548110156123515760cf60005260021b7facb8d954e2cfef495862221e91bd7523613cf8808827cb33edfe4904cc51bf290190600090565b634e487b7160e01b600052603260045260246000fd5b90815180825260208080930193019160005b828110612387575050505090565b83516001600160a01b031685529381019392810192600101612379565b60005b8381106123b75750506000910152565b81810151838201526020016123a7565b908082519081815260208091019281808460051b8301019501936000915b8483106123f55750505050505090565b909192939495848080600193601f1980878303018852601f8c51612424815180928187528780880191016123a4565b0116010198019301930191949392906123e5565b6001600160a01b0360335416330361244c57565b606460405162461bcd60e51b815260206004820152602060248201527f4f776e61626c653a2063616c6c6572206973206e6f7420746865206f776e65726044820152fd5b603354906001600160a01b0380911691826001600160a01b0319821617603355167f8be0079c531659141344cd1fd0a4f28419497f9722a3daafe3b4186f6b6457e0600080a3565b156124df57565b608460405162461bcd60e51b815260206004820152602b60248201527f496e697469616c697a61626c653a20636f6e7472616374206973206e6f74206960448201527f6e697469616c697a696e670000000000000000000000000000000000000000006064820152fd5b60ff6097541661255557565b606460405162461bcd60e51b815260206004820152601060248201527f5061757361626c653a20706175736564000000000000000000000000000000006044820152fd5b610100810190811067ffffffffffffffff8211176115df57604052565b67ffffffffffffffff81116115df57604052565b90601f8019910116810190811067ffffffffffffffff8211176115df57604052565b91908203918211610e6157565b600081815260ce60205260408120546126915760cd546801000000000000000081101561267d57600181018060cd558110156126695790826040927f83978b4c69c48dd978ab43fe30f077615294f938fb7f936d9eb340e51ea7db2e015560cd5492815260ce6020522055600190565b602482634e487b7160e01b81526032600452fd5b602482634e487b7160e01b81526041600452fd5b905090565b6000198114610e615760010190565b60cf5460005b8181106126b6575050565b806126c36126c8926126cd565b612696565b6126ab565b6126d681612317565b50906003820180549164ffffffffff90818460d01c1642116126fa575b5050505050565b61273361271f6127b6956001600160681b0361271861277e95613386565b9390613586565b16906001600160681b031916178555613586565b83547fffffffffffff00000000000000000000000000ffffffffffffffffffffffffff1660689190911b79ffffffffffffffffffffffffff0000000000000000000000000016178355565b80600185015460a01c168042106000146128345750425b825464ffffffffff60d01b1916911660d01b64ffffffffff60d01b16179055565b6001600160a01b038060cc541691826127d1575b80806126f3565b5416813b15610372576000916024839260405194859384927f63453ae100000000000000000000000000000000000000000000000000000000845260048401525af1801561036657612825575b80806127ca565b61282e906125b6565b3861281e565b612795565b81810292918115918404141715610e6157565b91908201809211610e6157565b8115612863570490565b634e487b7160e01b600052601260045260246000fd5b67ffffffffffffffff81116115df5760051b60200190565b929161289c82612879565b916128aa60405193846125ca565b829481845260208094019160051b810192831161037257905b8282106128d05750505050565b813581529083019083016128c3565b90816020910312610372575180151581036103725790565b6001600160801b039182169082160391908211610e6157565b600260655414612921576002606555565b606460405162461bcd60e51b815260206004820152601f60248201527f5265656e7472616e637947756172643a207265656e7472616e742063616c6c006044820152fd5b60005b82811061297457505050565b606082820152602001612968565b80518210156123515760209160051b010190565b60209081818403126103725780519067ffffffffffffffff821161037257019180601f840112156103725782516129cc81612879565b936129da60405195866125ca565b818552838086019260051b820101928311610372578301905b828210612a01575050505090565b815181529083019083016129f3565b90612a3e9160008151612a2281612879565b90612a3060405192836125ca565b808252601f19958691612879565b0136602083013780612a78845196612a6e612a5889612879565b98612a666040519a8b6125ca565b808a52612879565b0160208801612965565b8560005b8551811015612c9857612a8f8187612982565b5160005260d06020526040600020336000526020526040600020612abc612ab68389612982565b516126cd565b805490876001600160801b038316612ae0575b505050612adb90612696565b612a7c565b6001600160801b0397612bba6001600160a01b0393612b0d612b0788600196999899612982565b51612317565b509264e8d4a51000612b46600386015461026d8f612b388d6001600160681b03928386169116612839565b9260681c168c60801c612839565b0491612b66612b5d87830154948560801c9061284c565b8e8516906125ec565b9c8d931686820155856001600160801b03612bb164e8d4a51000610c748d61026d60038c0154916001600160681b03612ba3818516898416612839565b9360681c169060801c612839565b1691015561284c565b98612bc5858a612982565b52612bd0848b612982565b51612bdb858a612982565b516040519081527f71bab65ced2e5750775a0613be067df48ef06cf92a496ebf7663ae066092495460203392a30154169182612c1b575b81925087612acf565b60405163186e465160e31b81523360048201526001600160801b03919091166024820152916000908390604490829084905af1801561036657612adb92600091612c7d575b50612c6b828b612982565b52612c76818a612982565b5038612c12565b612c9291503d806000833e61035881836125ca565b38612c60565b5060c95460405163a9059cbb60e01b8152336004820152602481018690529497509195909450929150602090829060449082906000906001600160a01b03165af1801561036657612ce65750565b612cfe9060203d6020116105835761057481836125ca565b50565b9190916001600160801b0380809416911601918211610e6157565b6000936060939092612d2d83612317565b508360005260d060205260406000206001600160a01b03831660005260205260406000209384546001600160801b038116908115801590613067575b612f6a575b5050506001600160801b03612d828461352e565b16926001600160801b03199260248585885416179586885560206001600160a01b0360ca5416604051938480926370a0823160e01b82526001600160a01b03881660048301525afa91821561036657600092612f34575b50612df381612dee612e1894612df894612839565b6135de565b61352e565b87546001600160801b031660809190911b6001600160801b031916178755565b612e4c64e8d4a51000610c74885461026d6003880154916001600160681b03612ba38185166001600160801b038416612839565b6001600160801b03600188019116858254161790556001600160a01b036001840154169081612eb6575b505050612eae6001600160801b03612ea8600282940196612ea388549760801c915460801c848916612d01565b6128f7565b1661352e565b169116179055565b60405163186e465160e31b81526001600160a01b039190911660048201526024810192909252919650906000908290604490829084905af18015610366576001600160801b03612ea86002612eae938395600091612f19575b5099945050612e76565b612f2e91503d806000833e61035881836125ca565b38612f0f565b91506020823d602011612f62575b81612f4f602093836125ca565b8101031261037257905190612df3612dd9565b3d9150612f42565b64e8d4a510009299509061026d612f9692600386015492612ba36001600160681b039182861690612839565b04966001600160801b03612fbf612fb660018801549a8b60801c9061284c565b828b16906125ec565b9816600186015560c95460405163a9059cbb60e01b81526001600160a01b038581166004830152602482018b9052909160209183916044918391600091165af1801561036657613048575b506040518881527f71bab65ced2e5750775a0613be067df48ef06cf92a496ebf7663ae066092495460206001600160a01b03861692a3388080612d6e565b6130609060203d6020116105835761057481836125ca565b503861300a565b50600187015460801c1515612d69565b9061ffff8092166103e803918211610e6157565b613096600191612317565b5001546001600160a01b0390811691821561337d576040928351928380927fc2b18aa0000000000000000000000000000000000000000000000000000000008252600091829160049586915afa9485156133715781956132d2575b50849585519261310084612879565b9261310d835194856125ca565b848452601f198061311d87612879565b019261312d602094858801612965565b8599835b8881106131445750505050505050505050565b89836131508385612982565b51166131d25750865187810181811067ffffffffffffffff8211176131bf578852600381527f424e420000000000000000000000000000000000000000000000000000000000878201526131ba91906131a9828b612982565b526131b4818a612982565b50612696565b613131565b60248760418e634e487b7160e01b835252fd5b9085846131df8386612982565b51168951938480927f95d89b410000000000000000000000000000000000000000000000000000000082525afa80156132c8578690613228575b6131ba92506131a9828b612982565b50903d8087833e61323981836125ca565b81019087818303126132c457805167ffffffffffffffff918282116132c05701601f928084830112156132c05781519283116132ac576132818a898d519686011601856125ca565b8284528983830101116132a85782916132a3918a806131ba97960191016123a4565b613219565b8780fd5b5060248860418f634e487b7160e01b835252fd5b8880fd5b8680fd5b88513d88823e3d90fd5b9094503d8086833e6132e481836125ca565b81019060209081818403126132c45780519067ffffffffffffffff82116132a857019180601f840112156132c457825161331d81612879565b9361332a8a5195866125ca565b818552838086019260051b8201019283116132c0578301905b828210613355575050505093386130f1565b8151868116810361336d578152908301908301613343565b8980fd5b508551903d90823e3d90fd5b60609250829150565b90613392602492612317565b509060206001600160a01b03835416604051948580926370a0823160e01b82523060048301525afa928315610366576000936134f8575b506003820154916001600160681b03808416908460681c16938515908180156134e4575b6134dc5760026134226134309264ffffffffff80600189015460a01c168042106000146134d6575042915b60d01c16906125ec565b940154938460801c90612839565b64e8d4a5100090818102918183041490151715610e615761ffff968760cc5460a01c169361345e8584612839565b6103e89485840293840486141715610e615761347d9261026d91612859565b966001600160801b038095169384613498575b505050505050565b906134aa6134b1939298969798613077565b1690612839565b9102928316928303610e61576134ca9261026d91612859565b90388080808080613490565b91613418565b509094505050565b5064ffffffffff8160d01c164211156133ed565b90926020823d8211613526575b81613512602093836125ca565b8101031261352357505191386133c9565b80fd5b3d9150613505565b6001600160801b0390818111613542571690565b606460405162461bcd60e51b815260206004820152601060248201527f75696e74313238206f766572666c6f77000000000000000000000000000000006044820152fd5b6001600160681b039081811161359a571690565b606460405162461bcd60e51b815260206004820152601060248201527f75696e74313034206f766572666c6f77000000000000000000000000000000006044820152fd5b91906000600384111561364d57508281118015613645575b1561363f5750815b6136118361360c8184612859565b61284c565b600190811c915b84830361362457505050565b909193506136368461360c8184612859565b821c9190613618565b916135fe565b5080156135f6565b92905061365657565b6001915056fea264697066735822122003a850e751c0637f0014b598be6922b662ee26585e18d4165a7b7164895a46fe64736f6c63430008120033",
  "devdoc": {
    "details": "Updates: - Compatible with gauge voting",
    "events": {
      "Initialized(uint8)": {
        "details": "Triggered when the contract has been initialized or reinitialized."
      },
      "Paused(address)": {
        "details": "Emitted when the pause is triggered by `account`."
      },
      "Unpaused(address)": {
        "details": "Emitted when the pause is lifted by `account`."
      }
    },
    "kind": "dev",
    "methods": {
      "add(address,address)": {
        "details": "Reverts if the same LP token is added more than once.",
        "params": {
          "_lpToken": "the corresponding lp token",
          "_rewarder": "the rewarder"
        }
      },
      "deposit(uint256,uint256)": {
        "details": "it is possible to call this function with _amount == 0 to claim current rewards",
        "params": {
          "_amount": "amount to deposit",
          "_pid": "the pool id"
        }
      },
      "depositFor(uint256,uint256,address)": {
        "details": "user must initiate transaction from masterchef",
        "params": {
          "_amount": "amount to deposit",
          "_pid": "the pool id",
          "_user": "the user being represented"
        }
      },
      "emergencyWithdraw(uint256)": {
        "params": {
          "_pid": "the pool id"
        }
      },
      "massUpdatePools()": {
        "details": "Be careful of gas spending!"
      },
      "migrate(uint256[])": {
        "details": "Assume the orginal MasterWombat has stopped emisions hence we skip IVoter(voter).distribute() to save gas cost"
      },
      "multiClaim(uint256[])": {
        "params": {
          "_pids": "array pids, pools to claim"
        }
      },
      "notifyRewardAmount(address,uint256)": {
        "details": "Refer to synthetix/StakingRewards.sol notifyRewardAmount Note: This looks safe from reentrancy."
      },
      "owner()": {
        "details": "Returns the address of the current owner."
      },
      "pause()": {
        "details": "pause pool, restricting certain operations"
      },
      "paused()": {
        "details": "Returns true if the contract is paused, and false otherwise."
      },
      "pendingTokens(uint256,address)": {
        "params": {
          "_pid": "the pool id",
          "_user": "the user address"
        }
      },
      "renounceOwnership()": {
        "details": "Leaves the contract without owner. It will not be possible to call `onlyOwner` functions anymore. Can only be called by the current owner. NOTE: Renouncing ownership will leave the contract without an owner, thereby removing any functionality that is only available to the owner."
      },
      "rewarderBonusTokenInfo(uint256)": {
        "params": {
          "_pid": "the pool id"
        }
      },
      "setRewarder(uint256,address)": {
        "params": {
          "_pid": "the pool id",
          "_rewarder": "the rewarder"
        }
      },
      "setVeWom(address)": {
        "params": {
          "_newVeWom": "the new VeWom address"
        }
      },
      "setVoter(address)": {
        "params": {
          "_newVoter": "the new Voter address"
        }
      },
      "transferOwnership(address)": {
        "details": "Transfers ownership of the contract to a new account (`newOwner`). Can only be called by the current owner."
      },
      "unpause()": {
        "details": "unpause pool, enabling certain operations"
      },
      "updateEmissionPartition(uint16)": {
        "params": {
          "_basePartition": "the future base partition"
        }
      },
      "updateFactor(address,uint256)": {
        "details": "can only be called by veWom",
        "params": {
          "_newVeWomBalance": "the amount of veWOM",
          "_user": "the user to update"
        }
      },
      "updatePool(uint256)": {
        "params": {
          "_pid": "the pool id"
        }
      },
      "withdraw(uint256,uint256)": {
        "params": {
          "_amount": "the amount to withdraw",
          "_pid": "the pool id"
        }
      }
    },
    "title": "MasterWombatV3",
    "version": 1
  },
  "userdoc": {
    "kind": "user",
    "methods": {
      "add(address,address)": {
        "notice": "Add a new lp to the pool. Can only be called by the owner."
      },
      "deposit(uint256,uint256)": {
        "notice": "Deposit LP tokens to MasterChef for WOM allocation."
      },
      "depositFor(uint256,uint256,address)": {
        "notice": "Deposit LP tokens to MasterChef for WOM allocation on behalf of user"
      },
      "emergencyWithdraw(uint256)": {
        "notice": "Withdraw without caring about rewards. EMERGENCY ONLY."
      },
      "emergencyWomWithdraw()": {
        "notice": "In case we need to manually migrate WOM funds from MasterChef Sends all remaining wom from the contract to the owner"
      },
      "massUpdatePools()": {
        "notice": "Update reward variables for all pools."
      },
      "migrate(uint256[])": {
        "notice": "Helper function to migrate fund from multiple pools to the new MasterWombat.user must initiate transaction from masterchef"
      },
      "multiClaim(uint256[])": {
        "notice": "claims rewards for multiple pids"
      },
      "notifyRewardAmount(address,uint256)": {
        "notice": "Distribute WOM over a period of 7 days"
      },
      "pendingTokens(uint256,address)": {
        "notice": "View function to see pending WOMs on frontend."
      },
      "poolInfo(uint256)": {
        "notice": "[Deprecated] A backward compatible function to return the PoolInfo struct in MasterWombatV2"
      },
      "poolLength()": {
        "notice": "returns pool length"
      },
      "rewarderBonusTokenInfo(uint256)": {
        "notice": "Get bonus token info from the rewarder contract for a given pool, if it is a double reward farm"
      },
      "setRewarder(uint256,address)": {
        "notice": "Update the given pool's rewarder"
      },
      "setVeWom(address)": {
        "notice": "updates veWom address"
      },
      "setVoter(address)": {
        "notice": "updates voter address"
      },
      "updateEmissionPartition(uint16)": {
        "notice": "updates emission partition"
      },
      "updateFactor(address,uint256)": {
        "notice": "updates factor after any veWom token operation (minting/burning)"
      },
      "updatePool(uint256)": {
        "notice": "Update reward variables of the given pool"
      },
      "withdraw(uint256,uint256)": {
        "notice": "Withdraw LP tokens from MasterWombat.Automatically harvest pending rewards and sends to user"
      }
    },
    "notice": "MasterWombat is a boss. He is not afraid of any snakes. In fact, he drinks their venoms. So, veWom holders boost their (boosted) emissions. This contract rewards users in function of their amount of lp staked (base pool) factor (boosted pool) Factor and sumOfFactors are updated by contract VeWom.sol after any veWom minting/burning (veERC20Upgradeable hook). Note that it's ownable and the owner wields tremendous power. The ownership will be transferred to a governance smart contract once Wombat is sufficiently distributed and the community can show to govern itself.",
    "version": 1
  },
  "storageLayout": {
    "storage": [
      {
        "astId": 184,
        "contract": "contracts/wombat-governance/MasterWombatV3.sol:MasterWombatV3",
        "label": "_initialized",
        "offset": 0,
        "slot": "0",
        "type": "t_uint8"
      },
      {
        "astId": 187,
        "contract": "contracts/wombat-governance/MasterWombatV3.sol:MasterWombatV3",
        "label": "_initializing",
        "offset": 1,
        "slot": "0",
        "type": "t_bool"
      },
      {
        "astId": 871,
        "contract": "contracts/wombat-governance/MasterWombatV3.sol:MasterWombatV3",
        "label": "__gap",
        "offset": 0,
        "slot": "1",
        "type": "t_array(t_uint256)50_storage"
      },
      {
        "astId": 56,
        "contract": "contracts/wombat-governance/MasterWombatV3.sol:MasterWombatV3",
        "label": "_owner",
        "offset": 0,
        "slot": "51",
        "type": "t_address"
      },
      {
        "astId": 176,
        "contract": "contracts/wombat-governance/MasterWombatV3.sol:MasterWombatV3",
        "label": "__gap",
        "offset": 0,
        "slot": "52",
        "type": "t_array(t_uint256)49_storage"
      },
      {
        "astId": 487,
        "contract": "contracts/wombat-governance/MasterWombatV3.sol:MasterWombatV3",
        "label": "_status",
        "offset": 0,
        "slot": "101",
        "type": "t_uint256"
      },
      {
        "astId": 545,
        "contract": "contracts/wombat-governance/MasterWombatV3.sol:MasterWombatV3",
        "label": "__gap",
        "offset": 0,
        "slot": "102",
        "type": "t_array(t_uint256)49_storage"
      },
      {
        "astId": 367,
        "contract": "contracts/wombat-governance/MasterWombatV3.sol:MasterWombatV3",
        "label": "_paused",
        "offset": 0,
        "slot": "151",
        "type": "t_bool"
      },
      {
        "astId": 472,
        "contract": "contracts/wombat-governance/MasterWombatV3.sol:MasterWombatV3",
        "label": "__gap",
        "offset": 0,
        "slot": "152",
        "type": "t_array(t_uint256)49_storage"
      },
      {
        "astId": 29610,
        "contract": "contracts/wombat-governance/MasterWombatV3.sol:MasterWombatV3",
        "label": "wom",
        "offset": 0,
        "slot": "201",
        "type": "t_contract(IERC20)2243"
      },
      {
        "astId": 29613,
        "contract": "contracts/wombat-governance/MasterWombatV3.sol:MasterWombatV3",
        "label": "veWom",
        "offset": 0,
        "slot": "202",
        "type": "t_contract(IVeWom)35698"
      },
      {
        "astId": 29616,
        "contract": "contracts/wombat-governance/MasterWombatV3.sol:MasterWombatV3",
        "label": "newMasterWombat",
        "offset": 0,
        "slot": "203",
        "type": "t_contract(IMasterWombatV3)35579"
      },
      {
        "astId": 29618,
        "contract": "contracts/wombat-governance/MasterWombatV3.sol:MasterWombatV3",
        "label": "voter",
        "offset": 0,
        "slot": "204",
        "type": "t_address"
      },
      {
        "astId": 29620,
        "contract": "contracts/wombat-governance/MasterWombatV3.sol:MasterWombatV3",
        "label": "basePartition",
        "offset": 20,
        "slot": "204",
        "type": "t_uint16"
      },
      {
        "astId": 29623,
        "contract": "contracts/wombat-governance/MasterWombatV3.sol:MasterWombatV3",
        "label": "lpTokens",
        "offset": 0,
        "slot": "205",
        "type": "t_struct(AddressSet)5633_storage"
      },
      {
        "astId": 29627,
        "contract": "contracts/wombat-governance/MasterWombatV3.sol:MasterWombatV3",
        "label": "poolInfoV3",
        "offset": 0,
        "slot": "207",
        "type": "t_array(t_struct(PoolInfoV3)29601_storage)dyn_storage"
      },
      {
        "astId": 29634,
        "contract": "contracts/wombat-governance/MasterWombatV3.sol:MasterWombatV3",
        "label": "userInfo",
        "offset": 0,
        "slot": "208",
        "type": "t_mapping(t_uint256,t_mapping(t_address,t_struct(UserInfo)29582_storage))"
      },
      {
        "astId": 29638,
        "contract": "contracts/wombat-governance/MasterWombatV3.sol:MasterWombatV3",
        "label": "assetPid",
        "offset": 0,
        "slot": "209",
        "type": "t_mapping(t_address,t_uint256)"
      }
    ],
    "types": {
      "t_address": {
        "encoding": "inplace",
        "label": "address",
        "numberOfBytes": "20"
      },
      "t_array(t_bytes32)dyn_storage": {
        "base": "t_bytes32",
        "encoding": "dynamic_array",
        "label": "bytes32[]",
        "numberOfBytes": "32"
      },
      "t_array(t_struct(PoolInfoV3)29601_storage)dyn_storage": {
        "base": "t_struct(PoolInfoV3)29601_storage",
        "encoding": "dynamic_array",
        "label": "struct MasterWombatV3.PoolInfoV3[]",
        "numberOfBytes": "32"
      },
      "t_array(t_uint256)49_storage": {
        "base": "t_uint256",
        "encoding": "inplace",
        "label": "uint256[49]",
        "numberOfBytes": "1568"
      },
      "t_array(t_uint256)50_storage": {
        "base": "t_uint256",
        "encoding": "inplace",
        "label": "uint256[50]",
        "numberOfBytes": "1600"
      },
      "t_bool": {
        "encoding": "inplace",
        "label": "bool",
        "numberOfBytes": "1"
      },
      "t_bytes32": {
        "encoding": "inplace",
        "label": "bytes32",
        "numberOfBytes": "32"
      },
      "t_contract(IERC20)2243": {
        "encoding": "inplace",
        "label": "contract IERC20",
        "numberOfBytes": "20"
      },
      "t_contract(IMasterWombatV3)35579": {
        "encoding": "inplace",
        "label": "contract IMasterWombatV3",
        "numberOfBytes": "20"
      },
      "t_contract(IMultiRewarder)35619": {
        "encoding": "inplace",
        "label": "contract IMultiRewarder",
        "numberOfBytes": "20"
      },
      "t_contract(IVeWom)35698": {
        "encoding": "inplace",
        "label": "contract IVeWom",
        "numberOfBytes": "20"
      },
      "t_mapping(t_address,t_struct(UserInfo)29582_storage)": {
        "encoding": "mapping",
        "key": "t_address",
        "label": "mapping(address => struct MasterWombatV3.UserInfo)",
        "numberOfBytes": "32",
        "value": "t_struct(UserInfo)29582_storage"
      },
      "t_mapping(t_address,t_uint256)": {
        "encoding": "mapping",
        "key": "t_address",
        "label": "mapping(address => uint256)",
        "numberOfBytes": "32",
        "value": "t_uint256"
      },
      "t_mapping(t_bytes32,t_uint256)": {
        "encoding": "mapping",
        "key": "t_bytes32",
        "label": "mapping(bytes32 => uint256)",
        "numberOfBytes": "32",
        "value": "t_uint256"
      },
      "t_mapping(t_uint256,t_mapping(t_address,t_struct(UserInfo)29582_storage))": {
        "encoding": "mapping",
        "key": "t_uint256",
        "label": "mapping(uint256 => mapping(address => struct MasterWombatV3.UserInfo))",
        "numberOfBytes": "32",
        "value": "t_mapping(t_address,t_struct(UserInfo)29582_storage)"
      },
      "t_struct(AddressSet)5633_storage": {
        "encoding": "inplace",
        "label": "struct EnumerableSet.AddressSet",
        "members": [
          {
            "astId": 5632,
            "contract": "contracts/wombat-governance/MasterWombatV3.sol:MasterWombatV3",
            "label": "_inner",
            "offset": 0,
            "slot": "0",
            "type": "t_struct(Set)5318_storage"
          }
        ],
        "numberOfBytes": "64"
      },
      "t_struct(PoolInfoV3)29601_storage": {
        "encoding": "inplace",
        "label": "struct MasterWombatV3.PoolInfoV3",
        "members": [
          {
            "astId": 29585,
            "contract": "contracts/wombat-governance/MasterWombatV3.sol:MasterWombatV3",
            "label": "lpToken",
            "offset": 0,
            "slot": "0",
            "type": "t_contract(IERC20)2243"
          },
          {
            "astId": 29588,
            "contract": "contracts/wombat-governance/MasterWombatV3.sol:MasterWombatV3",
            "label": "rewarder",
            "offset": 0,
            "slot": "1",
            "type": "t_contract(IMultiRewarder)35619"
          },
          {
            "astId": 29590,
            "contract": "contracts/wombat-governance/MasterWombatV3.sol:MasterWombatV3",
            "label": "periodFinish",
            "offset": 20,
            "slot": "1",
            "type": "t_uint40"
          },
          {
            "astId": 29592,
            "contract": "contracts/wombat-governance/MasterWombatV3.sol:MasterWombatV3",
            "label": "sumOfFactors",
            "offset": 0,
            "slot": "2",
            "type": "t_uint128"
          },
          {
            "astId": 29594,
            "contract": "contracts/wombat-governance/MasterWombatV3.sol:MasterWombatV3",
            "label": "rewardRate",
            "offset": 16,
            "slot": "2",
            "type": "t_uint128"
          },
          {
            "astId": 29596,
            "contract": "contracts/wombat-governance/MasterWombatV3.sol:MasterWombatV3",
            "label": "accWomPerShare",
            "offset": 0,
            "slot": "3",
            "type": "t_uint104"
          },
          {
            "astId": 29598,
            "contract": "contracts/wombat-governance/MasterWombatV3.sol:MasterWombatV3",
            "label": "accWomPerFactorShare",
            "offset": 13,
            "slot": "3",
            "type": "t_uint104"
          },
          {
            "astId": 29600,
            "contract": "contracts/wombat-governance/MasterWombatV3.sol:MasterWombatV3",
            "label": "lastRewardTimestamp",
            "offset": 26,
            "slot": "3",
            "type": "t_uint40"
          }
        ],
        "numberOfBytes": "128"
      },
      "t_struct(Set)5318_storage": {
        "encoding": "inplace",
        "label": "struct EnumerableSet.Set",
        "members": [
          {
            "astId": 5313,
            "contract": "contracts/wombat-governance/MasterWombatV3.sol:MasterWombatV3",
            "label": "_values",
            "offset": 0,
            "slot": "0",
            "type": "t_array(t_bytes32)dyn_storage"
          },
          {
            "astId": 5317,
            "contract": "contracts/wombat-governance/MasterWombatV3.sol:MasterWombatV3",
            "label": "_indexes",
            "offset": 0,
            "slot": "1",
            "type": "t_mapping(t_bytes32,t_uint256)"
          }
        ],
        "numberOfBytes": "64"
      },
      "t_struct(UserInfo)29582_storage": {
        "encoding": "inplace",
        "label": "struct MasterWombatV3.UserInfo",
        "members": [
          {
            "astId": 29575,
            "contract": "contracts/wombat-governance/MasterWombatV3.sol:MasterWombatV3",
            "label": "amount",
            "offset": 0,
            "slot": "0",
            "type": "t_uint128"
          },
          {
            "astId": 29577,
            "contract": "contracts/wombat-governance/MasterWombatV3.sol:MasterWombatV3",
            "label": "factor",
            "offset": 16,
            "slot": "0",
            "type": "t_uint128"
          },
          {
            "astId": 29579,
            "contract": "contracts/wombat-governance/MasterWombatV3.sol:MasterWombatV3",
            "label": "rewardDebt",
            "offset": 0,
            "slot": "1",
            "type": "t_uint128"
          },
          {
            "astId": 29581,
            "contract": "contracts/wombat-governance/MasterWombatV3.sol:MasterWombatV3",
            "label": "pendingWom",
            "offset": 16,
            "slot": "1",
            "type": "t_uint128"
          }
        ],
        "numberOfBytes": "64"
      },
      "t_uint104": {
        "encoding": "inplace",
        "label": "uint104",
        "numberOfBytes": "13"
      },
      "t_uint128": {
        "encoding": "inplace",
        "label": "uint128",
        "numberOfBytes": "16"
      },
      "t_uint16": {
        "encoding": "inplace",
        "label": "uint16",
        "numberOfBytes": "2"
      },
      "t_uint256": {
        "encoding": "inplace",
        "label": "uint256",
        "numberOfBytes": "32"
      },
      "t_uint40": {
        "encoding": "inplace",
        "label": "uint40",
        "numberOfBytes": "5"
      },
      "t_uint8": {
        "encoding": "inplace",
        "label": "uint8",
        "numberOfBytes": "1"
      }
    }
  }
}