{
  "address": "0xB98aB93942d7614071f7C3aF1F3B898214BC04Af",
  "abi": [
    {
      "inputs": [
        {
          "internalType": "contract IERC20",
          "name": "_token",
          "type": "address"
        },
        {
          "internalType": "uint256",
          "name": "_initialPrice",
          "type": "uint256"
        },
        {
          "internalType": "uint256",
          "name": "_maxDeviation",
          "type": "uint256"
        }
      ],
      "stateMutability": "nonpayable",
      "type": "constructor"
    },
    {
      "anonymous": false,
      "inputs": [
        {
          "indexed": true,
          "internalType": "address",
          "name": "previousOwner",
          "type": "address"
        },
        {
          "indexed": true,
          "internalType": "address",
          "name": "newOwner",
          "type": "address"
        }
      ],
      "name": "OwnershipTransferred",
      "type": "event"
    },
    {
      "anonymous": false,
      "inputs": [
        {
          "indexed": true,
          "internalType": "bytes32",
          "name": "role",
          "type": "bytes32"
        },
        {
          "indexed": true,
          "internalType": "bytes32",
          "name": "previousAdminRole",
          "type": "bytes32"
        },
        {
          "indexed": true,
          "internalType": "bytes32",
          "name": "newAdminRole",
          "type": "bytes32"
        }
      ],
      "name": "RoleAdminChanged",
      "type": "event"
    },
    {
      "anonymous": false,
      "inputs": [
        {
          "indexed": true,
          "internalType": "bytes32",
          "name": "role",
          "type": "bytes32"
        },
        {
          "indexed": true,
          "internalType": "address",
          "name": "account",
          "type": "address"
        },
        {
          "indexed": true,
          "internalType": "address",
          "name": "sender",
          "type": "address"
        }
      ],
      "name": "RoleGranted",
      "type": "event"
    },
    {
      "anonymous": false,
      "inputs": [
        {
          "indexed": true,
          "internalType": "bytes32",
          "name": "role",
          "type": "bytes32"
        },
        {
          "indexed": true,
          "internalType": "address",
          "name": "account",
          "type": "address"
        },
        {
          "indexed": true,
          "internalType": "address",
          "name": "sender",
          "type": "address"
        }
      ],
      "name": "RoleRevoked",
      "type": "event"
    },
    {
      "anonymous": false,
      "inputs": [
        {
          "indexed": false,
          "internalType": "uint256",
          "name": "newPrice",
          "type": "uint256"
        }
      ],
      "name": "SetLatestPrice",
      "type": "event"
    },
    {
      "inputs": [],
      "name": "DEFAULT_ADMIN_ROLE",
      "outputs": [
        {
          "internalType": "bytes32",
          "name": "",
          "type": "bytes32"
        }
      ],
      "stateMutability": "view",
      "type": "function"
    },
    {
      "inputs": [],
      "name": "ROLE_OPERATOR",
      "outputs": [
        {
          "internalType": "bytes32",
          "name": "",
          "type": "bytes32"
        }
      ],
      "stateMutability": "view",
      "type": "function"
    },
    {
      "inputs": [
        {
          "internalType": "address",
          "name": "_operator",
          "type": "address"
        }
      ],
      "name": "addOperator",
      "outputs": [],
      "stateMutability": "nonpayable",
      "type": "function"
    },
    {
      "inputs": [
        {
          "internalType": "contract IERC20",
          "name": "_token",
          "type": "address"
        }
      ],
      "name": "getLatestPrice",
      "outputs": [
        {
          "internalType": "uint256",
          "name": "",
          "type": "uint256"
        }
      ],
      "stateMutability": "view",
      "type": "function"
    },
    {
      "inputs": [
        {
          "internalType": "bytes32",
          "name": "role",
          "type": "bytes32"
        }
      ],
      "name": "getRoleAdmin",
      "outputs": [
        {
          "internalType": "bytes32",
          "name": "",
          "type": "bytes32"
        }
      ],
      "stateMutability": "view",
      "type": "function"
    },
    {
      "inputs": [
        {
          "internalType": "bytes32",
          "name": "role",
          "type": "bytes32"
        },
        {
          "internalType": "uint256",
          "name": "index",
          "type": "uint256"
        }
      ],
      "name": "getRoleMember",
      "outputs": [
        {
          "internalType": "address",
          "name": "",
          "type": "address"
        }
      ],
      "stateMutability": "view",
      "type": "function"
    },
    {
      "inputs": [
        {
          "internalType": "bytes32",
          "name": "role",
          "type": "bytes32"
        }
      ],
      "name": "getRoleMemberCount",
      "outputs": [
        {
          "internalType": "uint256",
          "name": "",
          "type": "uint256"
        }
      ],
      "stateMutability": "view",
      "type": "function"
    },
    {
      "inputs": [
        {
          "internalType": "bytes32",
          "name": "role",
          "type": "bytes32"
        },
        {
          "internalType": "address",
          "name": "account",
          "type": "address"
        }
      ],
      "name": "grantRole",
      "outputs": [],
      "stateMutability": "nonpayable",
      "type": "function"
    },
    {
      "inputs": [
        {
          "internalType": "bytes32",
          "name": "role",
          "type": "bytes32"
        },
        {
          "internalType": "address",
          "name": "account",
          "type": "address"
        }
      ],
      "name": "hasRole",
      "outputs": [
        {
          "internalType": "bool",
          "name": "",
          "type": "bool"
        }
      ],
      "stateMutability": "view",
      "type": "function"
    },
    {
      "inputs": [],
      "name": "lastUpdate",
      "outputs": [
        {
          "internalType": "uint256",
          "name": "",
          "type": "uint256"
        }
      ],
      "stateMutability": "view",
      "type": "function"
    },
    {
      "inputs": [],
      "name": "maxDeviation",
      "outputs": [
        {
          "internalType": "uint256",
          "name": "",
          "type": "uint256"
        }
      ],
      "stateMutability": "view",
      "type": "function"
    },
    {
      "inputs": [],
      "name": "owner",
      "outputs": [
        {
          "internalType": "address",
          "name": "",
          "type": "address"
        }
      ],
      "stateMutability": "view",
      "type": "function"
    },
    {
      "inputs": [
        {
          "internalType": "address",
          "name": "_operator",
          "type": "address"
        }
      ],
      "name": "removeOperator",
      "outputs": [],
      "stateMutability": "nonpayable",
      "type": "function"
    },
    {
      "inputs": [],
      "name": "renounceOwnership",
      "outputs": [],
      "stateMutability": "nonpayable",
      "type": "function"
    },
    {
      "inputs": [
        {
          "internalType": "bytes32",
          "name": "role",
          "type": "bytes32"
        },
        {
          "internalType": "address",
          "name": "account",
          "type": "address"
        }
      ],
      "name": "renounceRole",
      "outputs": [],
      "stateMutability": "nonpayable",
      "type": "function"
    },
    {
      "inputs": [
        {
          "internalType": "bytes32",
          "name": "role",
          "type": "bytes32"
        },
        {
          "internalType": "address",
          "name": "account",
          "type": "address"
        }
      ],
      "name": "revokeRole",
      "outputs": [],
      "stateMutability": "nonpayable",
      "type": "function"
    },
    {
      "inputs": [
        {
          "internalType": "uint256",
          "name": "_newPrice",
          "type": "uint256"
        }
      ],
      "name": "setLatestPrice",
      "outputs": [],
      "stateMutability": "nonpayable",
      "type": "function"
    },
    {
      "inputs": [
        {
          "internalType": "bytes4",
          "name": "interfaceId",
          "type": "bytes4"
        }
      ],
      "name": "supportsInterface",
      "outputs": [
        {
          "internalType": "bool",
          "name": "",
          "type": "bool"
        }
      ],
      "stateMutability": "view",
      "type": "function"
    },
    {
      "inputs": [],
      "name": "token",
      "outputs": [
        {
          "internalType": "contract IERC20",
          "name": "",
          "type": "address"
        }
      ],
      "stateMutability": "view",
      "type": "function"
    },
    {
      "inputs": [
        {
          "internalType": "address",
          "name": "newOwner",
          "type": "address"
        }
      ],
      "name": "transferOwnership",
      "outputs": [],
      "stateMutability": "nonpayable",
      "type": "function"
    }
  ],
  "transactionHash": "0x4cb97ba8b5c31eade19579d0974e0a28e9003a8adb597041b75451520db88ea6",
  "args": [
    "0x484c2D6e3cDd945a8B2DF735e079178C1036578c",
    "1064824882536441618",
    "10000000000000000"
  ],
  "numDeployments": 1,
  "solcInputHash": "44e8ce44467b86c7a5d911cba6e2b5f8",
  "bytecode": "0x60c03461016c57601f61127538819003918201601f191683019291906001600160401b0384118385101761017157816060928492604096875283398101031261016c5780516001600160a01b0390818116810361016c576020838101519385015160008054336001600160a01b03198216811783556100f597929660029692167f8be0079c531659141344cd1fd0a4f28419497f9722a3daafe3b4186f6b6457e08880a360805260045560a0527f46a52cf33029de9f84853745a87af28464c80bf0346df1b32e205fc73319f62280845260018252858420338552825260ff868520541615610123575b83525282339120610187565b5051611063908161021282396080518181816102400152610867015260a05181818161019501526107ee0152f35b808452600182528584203385528252858420600160ff198254161790553333827f2f8788117e7eff1d82e926ec794901d17c78024a50270940304540a733656f0d8780a46100e9565b600080fd5b634e487b7160e01b600052604160045260246000fd5b9190600183016000908282528060205260408220541560001461020b57845494680100000000000000008610156101f757600186018082558610156101e357836040949596828552602085200155549382526020522055600190565b634e487b7160e01b83526032600452602483fd5b634e487b7160e01b83526041600452602483fd5b5092505056fe608060408181526004908136101561001657600080fd5b600092833560e01c90816301ffc9a7146108d95750806316345f181461083b578063248a9ca3146108115780632a1bab73146107d65780632f2ff15d1461076b57806336568abe146106cb578063715018a6146106625780638da5cb5b1461063c5780639010d07c146105fa57806391d14854146105b45780639870d7fe146104ee57806398a1b397146104b3578063a217fddf14610498578063ac8a584a146103d2578063c0463711146103b3578063ca15c8731461038b578063d547741f1461034f578063f2fde38b14610268578063fc0c546a146102205763fc9bb7fe1461010057600080fd5b3461021c57602036600319011261021c578135917f46a52cf33029de9f84853745a87af28464c80bf0346df1b32e205fc73319f6228452600160205281842033855260205260ff8285205416156101da579160209181847f703f506d59e4fc32b8f9be70cf429def3be7c485ccc8720ac9a3d1408f05e3a2955482818110156000146101c8576101bb9161019391610ee3565b7f00000000000000000000000000000000000000000000000000000000000000001015610fe2565b554260035551908152a180f35b610193906101d592610ee3565b6101bb565b6020606492519162461bcd60e51b8352820152600e60248201527f6e6f7420617574686f72697a65640000000000000000000000000000000000006044820152fd5b8280fd5b838234610264578160031936011261026457602090516001600160a01b037f0000000000000000000000000000000000000000000000000000000000000000168152f35b5080fd5b50903461021c57602036600319011261021c576102836109c6565b9061028c610dc2565b6001600160a01b038092169283156102e657505082548273ffffffffffffffffffffffffffffffffffffffff198216178455167f8be0079c531659141344cd1fd0a4f28419497f9722a3daafe3b4186f6b6457e08380a380f35b906020608492519162461bcd60e51b8352820152602660248201527f4f776e61626c653a206e6577206f776e657220697320746865207a65726f206160448201527f64647265737300000000000000000000000000000000000000000000000000006064820152fd5b503461021c578060031936011261021c57610388913561038360016103726109ab565b9383875281602052862001546109dc565b610d38565b80f35b50903461021c57602036600319011261021c5760209282913581526002845220549051908152f35b8382346102645781600319360112610264576020906003549051908152f35b8382346102645760208060031936011261021c5761044e9160026103f46109c6565b926103fd610dc2565b7f46a52cf33029de9f84853745a87af28464c80bf0346df1b32e205fc73319f622808752600182526001600160a01b03848820951694858852825260ff8488205416610452575b8652528320610f06565b5080f35b808752600182528387208588528252838720805460ff191690553385827ff6391f5c32d9c69d2a47ea670b442974b53935d1edc7fd64eb21e047a839171b8a80a4610444565b83823461026457816003193601126102645751908152602090f35b838234610264578160031936011261026457602090517f46a52cf33029de9f84853745a87af28464c80bf0346df1b32e205fc73319f6228152f35b8382346102645760208060031936011261021c5761044e9160026105106109c6565b92610519610dc2565b7f46a52cf33029de9f84853745a87af28464c80bf0346df1b32e205fc73319f622808752600182526001600160a01b03848820951694858852825260ff84882054161561056b575b8652528320610e59565b808752600182528387208588528252838720600160ff198254161790553385827f2f8788117e7eff1d82e926ec794901d17c78024a50270940304540a733656f0d8a80a4610561565b50903461021c578160031936011261021c578160209360ff926105d56109ab565b90358252600186526001600160a01b0383832091168252855220541690519015158152f35b50903461021c578160031936011261021c5761062d6020936001600160a01b039235815260028552836024359120610e41565b92905490519260031b1c168152f35b8382346102645781600319360112610264576001600160a01b0360209254169051908152f35b83346106c857806003193601126106c85761067b610dc2565b806001600160a01b03815473ffffffffffffffffffffffffffffffffffffffff1981168355167f8be0079c531659141344cd1fd0a4f28419497f9722a3daafe3b4186f6b6457e08280a380f35b80fd5b509190346102645782600319360112610264576106e66109ab565b90336001600160a01b0383160361070257906103889135610d38565b608490602085519162461bcd60e51b8352820152602f60248201527f416363657373436f6e74726f6c3a2063616e206f6e6c792072656e6f756e636560448201527f20726f6c657320666f722073656c6600000000000000000000000000000000006064820152fd5b503461021c578060031936011261021c5761044e913590600261078c6109ab565b92808652602090600182526107a6600185892001546109dc565b808752600182526001600160a01b03848820951694858852825260ff84882054161561056b578652528320610e59565b838234610264578160031936011261026457602090517f00000000000000000000000000000000000000000000000000000000000000008152f35b50903461021c57602036600319011261021c57816020936001923581528285522001549051908152f35b5091346106c85760203660031901126106c8578135906001600160a01b03908183168093036106c857507f0000000000000000000000000000000000000000000000000000000000000000160361089757549051908152602090f35b6020606492519162461bcd60e51b8352820152600d60248201527f756e6b6e6f776e20746f6b656e000000000000000000000000000000000000006044820152fd5b8490843461021c57602036600319011261021c57357fffffffff00000000000000000000000000000000000000000000000000000000811680910361021c57602092507f5a05180f00000000000000000000000000000000000000000000000000000000811490811561094e575b5015158152f35b7f7965db0b00000000000000000000000000000000000000000000000000000000811491508115610981575b5083610947565b7f01ffc9a7000000000000000000000000000000000000000000000000000000009150148361097a565b602435906001600160a01b03821682036109c157565b600080fd5b600435906001600160a01b03821682036109c157565b60009080825260016020818152604093848120338252825260ff858220541615610a07575050505050565b33855193606085019567ffffffffffffffff9686811088821117610d01578852602a86528486019288368537865115610ced57603084538651831015610ced576078602188015360295b838111610c765750610b93578751906080820182811089821117610c6257895260428252858201926060368537825115610c4e57603084538251811015610c4e57607860218401536041905b808211610bd5575050610b935791610b2894939188936067989951968793610af28886019a7f416363657373436f6e74726f6c3a206163636f756e74200000000000000000008c525180926037880190610d15565b8401917f206973206d697373696e6720726f6c652000000000000000000000000000000060378401525180936048840190610d15565b0103602881018552601f19968791011684019684881090881117610b7f575092610b7660449593601f938880975262461bcd60e51b8752600487015251809281602488015287870190610d15565b01168101030190fd5b80634e487b7160e01b602492526041600452fd5b60648589519062461bcd60e51b825280600483015260248201527f537472696e67733a20686578206c656e67746820696e73756666696369656e746044820152fd5b9091600f81166010811015610c3a577f3031323334353637383961626364656600000000000000000000000000000000901a610c118486610e1a565b5360041c918015610c26576000190190610a9d565b602487634e487b7160e01b81526011600452fd5b602488634e487b7160e01b81526032600452fd5b602486634e487b7160e01b81526032600452fd5b602486634e487b7160e01b81526041600452fd5b90600f81166010811015610cd9577f3031323334353637383961626364656600000000000000000000000000000000901a610cb1838a610e1a565b5360041c908015610cc55760001901610a51565b602486634e487b7160e01b81526011600452fd5b602487634e487b7160e01b81526032600452fd5b602485634e487b7160e01b81526032600452fd5b602485634e487b7160e01b81526041600452fd5b60005b838110610d285750506000910152565b8181015183820152602001610d18565b906040610d779260009080825260016020526001600160a01b0383832094169384835260205260ff8383205416610d7a575b8152600260205220610f06565b50565b808252600160205282822084835260205282822060ff1981541690553384827ff6391f5c32d9c69d2a47ea670b442974b53935d1edc7fd64eb21e047a839171b8580a4610d6a565b6001600160a01b03600054163303610dd657565b606460405162461bcd60e51b815260206004820152602060248201527f4f776e61626c653a2063616c6c6572206973206e6f7420746865206f776e65726044820152fd5b908151811015610e2b570160200190565b634e487b7160e01b600052603260045260246000fd5b8054821015610e2b5760005260206000200190600090565b91906001830160009082825280602052604082205415600014610edd5784549468010000000000000000861015610ec95783610eb9610ea2886001604098999a01855584610e41565b819391549060031b91821b91600019901b19161790565b9055549382526020522055600190565b602483634e487b7160e01b81526041600452fd5b50925050565b91908203918211610ef057565b634e487b7160e01b600052601160045260246000fd5b90600182019060009281845282602052604084205490811515600014610fdb5760001991808301818111610c2657825490848201918211610fc757808203610f92575b50505080548015610f7e57820191610f618383610e41565b909182549160031b1b191690555582526020526040812055600190565b602486634e487b7160e01b81526031600452fd5b610fb2610fa2610ea29386610e41565b90549060031b1c92839286610e41565b90558652846020526040862055388080610f49565b602488634e487b7160e01b81526011600452fd5b5050505090565b15610fe957565b606460405162461bcd60e51b815260206004820152601a60248201527f6d6178446576696174696f6e206e6f74207265737065637465640000000000006044820152fdfea26469706673582212200959ea06487efcde86c83bebb914ec90a78a463696cdc4b2887248e59ce9abaa64736f6c63430008120033",
  "devdoc": {
    "details": "This contract is used as a temporary solution and should be migrated to use oracle when possible",
    "events": {
      "RoleAdminChanged(bytes32,bytes32,bytes32)": {
        "details": "Emitted when `newAdminRole` is set as ``role``'s admin role, replacing `previousAdminRole` `DEFAULT_ADMIN_ROLE` is the starting admin for all roles, despite {RoleAdminChanged} not being emitted signaling this. _Available since v3.1._"
      },
      "RoleGranted(bytes32,address,address)": {
        "details": "Emitted when `account` is granted `role`. `sender` is the account that originated the contract call, an admin role bearer except when using {AccessControl-_setupRole}."
      },
      "RoleRevoked(bytes32,address,address)": {
        "details": "Emitted when `account` is revoked `role`. `sender` is the account that originated the contract call:   - if using `revokeRole`, it is the admin role bearer   - if using `renounceRole`, it is the role bearer (i.e. `account`)"
      }
    },
    "kind": "dev",
    "methods": {
      "getRoleAdmin(bytes32)": {
        "details": "Returns the admin role that controls `role`. See {grantRole} and {revokeRole}. To change a role's admin, use {_setRoleAdmin}."
      },
      "getRoleMember(bytes32,uint256)": {
        "details": "Returns one of the accounts that have `role`. `index` must be a value between 0 and {getRoleMemberCount}, non-inclusive. Role bearers are not sorted in any particular way, and their ordering may change at any point. WARNING: When using {getRoleMember} and {getRoleMemberCount}, make sure you perform all queries on the same block. See the following https://forum.openzeppelin.com/t/iterating-over-elements-on-enumerableset-in-openzeppelin-contracts/2296[forum post] for more information."
      },
      "getRoleMemberCount(bytes32)": {
        "details": "Returns the number of accounts that have `role`. Can be used together with {getRoleMember} to enumerate all bearers of a role."
      },
      "grantRole(bytes32,address)": {
        "details": "Grants `role` to `account`. If `account` had not been already granted `role`, emits a {RoleGranted} event. Requirements: - the caller must have ``role``'s admin role. May emit a {RoleGranted} event."
      },
      "hasRole(bytes32,address)": {
        "details": "Returns `true` if `account` has been granted `role`."
      },
      "owner()": {
        "details": "Returns the address of the current owner."
      },
      "renounceOwnership()": {
        "details": "Leaves the contract without owner. It will not be possible to call `onlyOwner` functions. Can only be called by the current owner. NOTE: Renouncing ownership will leave the contract without an owner, thereby disabling any functionality that is only available to the owner."
      },
      "renounceRole(bytes32,address)": {
        "details": "Revokes `role` from the calling account. Roles are often managed via {grantRole} and {revokeRole}: this function's purpose is to provide a mechanism for accounts to lose their privileges if they are compromised (such as when a trusted device is misplaced). If the calling account had been revoked `role`, emits a {RoleRevoked} event. Requirements: - the caller must be `account`. May emit a {RoleRevoked} event."
      },
      "revokeRole(bytes32,address)": {
        "details": "Revokes `role` from `account`. If `account` had been granted `role`, emits a {RoleRevoked} event. Requirements: - the caller must have ``role``'s admin role. May emit a {RoleRevoked} event."
      },
      "supportsInterface(bytes4)": {
        "details": "See {IERC165-supportsInterface}."
      },
      "transferOwnership(address)": {
        "details": "Transfers ownership of the contract to a new account (`newOwner`). Can only be called by the current owner."
      }
    },
    "version": 1
  },
  "userdoc": {
    "kind": "user",
    "methods": {
      "getLatestPrice(address)": {
        "notice": "return price of the asset in 18 decimals"
      },
      "maxDeviation()": {
        "notice": "max deviation allowed for updating oracle in case wrong parameter is supplied"
      }
    },
    "notice": "Price feed managed by operator",
    "version": 1
  },
  "storageLayout": {
    "storage": [
      {
        "astId": 3924,
        "contract": "contracts/wombat-core/libraries/GovernedPriceFeed.sol:GovernedPriceFeed",
        "label": "_owner",
        "offset": 0,
        "slot": "0",
        "type": "t_address"
      },
      {
        "astId": 3402,
        "contract": "contracts/wombat-core/libraries/GovernedPriceFeed.sol:GovernedPriceFeed",
        "label": "_roles",
        "offset": 0,
        "slot": "1",
        "type": "t_mapping(t_bytes32,t_struct(RoleData)3397_storage)"
      },
      {
        "astId": 3712,
        "contract": "contracts/wombat-core/libraries/GovernedPriceFeed.sol:GovernedPriceFeed",
        "label": "_roleMembers",
        "offset": 0,
        "slot": "2",
        "type": "t_mapping(t_bytes32,t_struct(AddressSet)10747_storage)"
      },
      {
        "astId": 15029,
        "contract": "contracts/wombat-core/libraries/GovernedPriceFeed.sol:GovernedPriceFeed",
        "label": "lastUpdate",
        "offset": 0,
        "slot": "3",
        "type": "t_uint256"
      },
      {
        "astId": 15031,
        "contract": "contracts/wombat-core/libraries/GovernedPriceFeed.sol:GovernedPriceFeed",
        "label": "_price",
        "offset": 0,
        "slot": "4",
        "type": "t_uint256"
      }
    ],
    "types": {
      "t_address": {
        "encoding": "inplace",
        "label": "address",
        "numberOfBytes": "20"
      },
      "t_array(t_bytes32)dyn_storage": {
        "base": "t_bytes32",
        "encoding": "dynamic_array",
        "label": "bytes32[]",
        "numberOfBytes": "32"
      },
      "t_bool": {
        "encoding": "inplace",
        "label": "bool",
        "numberOfBytes": "1"
      },
      "t_bytes32": {
        "encoding": "inplace",
        "label": "bytes32",
        "numberOfBytes": "32"
      },
      "t_mapping(t_address,t_bool)": {
        "encoding": "mapping",
        "key": "t_address",
        "label": "mapping(address => bool)",
        "numberOfBytes": "32",
        "value": "t_bool"
      },
      "t_mapping(t_bytes32,t_struct(AddressSet)10747_storage)": {
        "encoding": "mapping",
        "key": "t_bytes32",
        "label": "mapping(bytes32 => struct EnumerableSet.AddressSet)",
        "numberOfBytes": "32",
        "value": "t_struct(AddressSet)10747_storage"
      },
      "t_mapping(t_bytes32,t_struct(RoleData)3397_storage)": {
        "encoding": "mapping",
        "key": "t_bytes32",
        "label": "mapping(bytes32 => struct AccessControl.RoleData)",
        "numberOfBytes": "32",
        "value": "t_struct(RoleData)3397_storage"
      },
      "t_mapping(t_bytes32,t_uint256)": {
        "encoding": "mapping",
        "key": "t_bytes32",
        "label": "mapping(bytes32 => uint256)",
        "numberOfBytes": "32",
        "value": "t_uint256"
      },
      "t_struct(AddressSet)10747_storage": {
        "encoding": "inplace",
        "label": "struct EnumerableSet.AddressSet",
        "members": [
          {
            "astId": 10746,
            "contract": "contracts/wombat-core/libraries/GovernedPriceFeed.sol:GovernedPriceFeed",
            "label": "_inner",
            "offset": 0,
            "slot": "0",
            "type": "t_struct(Set)10432_storage"
          }
        ],
        "numberOfBytes": "64"
      },
      "t_struct(RoleData)3397_storage": {
        "encoding": "inplace",
        "label": "struct AccessControl.RoleData",
        "members": [
          {
            "astId": 3394,
            "contract": "contracts/wombat-core/libraries/GovernedPriceFeed.sol:GovernedPriceFeed",
            "label": "members",
            "offset": 0,
            "slot": "0",
            "type": "t_mapping(t_address,t_bool)"
          },
          {
            "astId": 3396,
            "contract": "contracts/wombat-core/libraries/GovernedPriceFeed.sol:GovernedPriceFeed",
            "label": "adminRole",
            "offset": 0,
            "slot": "1",
            "type": "t_bytes32"
          }
        ],
        "numberOfBytes": "64"
      },
      "t_struct(Set)10432_storage": {
        "encoding": "inplace",
        "label": "struct EnumerableSet.Set",
        "members": [
          {
            "astId": 10427,
            "contract": "contracts/wombat-core/libraries/GovernedPriceFeed.sol:GovernedPriceFeed",
            "label": "_values",
            "offset": 0,
            "slot": "0",
            "type": "t_array(t_bytes32)dyn_storage"
          },
          {
            "astId": 10431,
            "contract": "contracts/wombat-core/libraries/GovernedPriceFeed.sol:GovernedPriceFeed",
            "label": "_indexes",
            "offset": 0,
            "slot": "1",
            "type": "t_mapping(t_bytes32,t_uint256)"
          }
        ],
        "numberOfBytes": "64"
      },
      "t_uint256": {
        "encoding": "inplace",
        "label": "uint256",
        "numberOfBytes": "32"
      }
    }
  }
}