{
  "address": "0x9A65781bFff8E43E4345D6B1b5157B2657F2735D",
  "abi": [
    {
      "inputs": [
        {
          "internalType": "contract IWNative",
          "name": "_wNative",
          "type": "address"
        }
      ],
      "stateMutability": "nonpayable",
      "type": "constructor"
    },
    {
      "anonymous": false,
      "inputs": [
        {
          "indexed": true,
          "internalType": "address",
          "name": "previousOwner",
          "type": "address"
        },
        {
          "indexed": true,
          "internalType": "address",
          "name": "newOwner",
          "type": "address"
        }
      ],
      "name": "OwnershipTransferred",
      "type": "event"
    },
    {
      "inputs": [
        {
          "internalType": "contract IPool",
          "name": "pool",
          "type": "address"
        },
        {
          "internalType": "uint256",
          "name": "minimumLiquidity",
          "type": "uint256"
        },
        {
          "internalType": "address",
          "name": "to",
          "type": "address"
        },
        {
          "internalType": "uint256",
          "name": "deadline",
          "type": "uint256"
        },
        {
          "internalType": "bool",
          "name": "shouldStake",
          "type": "bool"
        }
      ],
      "name": "addLiquidityNative",
      "outputs": [
        {
          "internalType": "uint256",
          "name": "liquidity",
          "type": "uint256"
        }
      ],
      "stateMutability": "payable",
      "type": "function"
    },
    {
      "inputs": [
        {
          "internalType": "address[]",
          "name": "tokens",
          "type": "address[]"
        },
        {
          "internalType": "address",
          "name": "pool",
          "type": "address"
        }
      ],
      "name": "approveSpendingByPool",
      "outputs": [],
      "stateMutability": "nonpayable",
      "type": "function"
    },
    {
      "inputs": [
        {
          "internalType": "address[]",
          "name": "tokenPath",
          "type": "address[]"
        },
        {
          "internalType": "address[]",
          "name": "poolPath",
          "type": "address[]"
        },
        {
          "internalType": "uint256",
          "name": "amountOut",
          "type": "uint256"
        }
      ],
      "name": "getAmountIn",
      "outputs": [
        {
          "internalType": "uint256",
          "name": "amountIn",
          "type": "uint256"
        },
        {
          "internalType": "uint256[]",
          "name": "haircuts",
          "type": "uint256[]"
        }
      ],
      "stateMutability": "view",
      "type": "function"
    },
    {
      "inputs": [
        {
          "internalType": "address[]",
          "name": "tokenPath",
          "type": "address[]"
        },
        {
          "internalType": "address[]",
          "name": "poolPath",
          "type": "address[]"
        },
        {
          "internalType": "int256",
          "name": "amountIn",
          "type": "int256"
        }
      ],
      "name": "getAmountOut",
      "outputs": [
        {
          "internalType": "uint256",
          "name": "amountOut",
          "type": "uint256"
        },
        {
          "internalType": "uint256[]",
          "name": "haircuts",
          "type": "uint256[]"
        }
      ],
      "stateMutability": "view",
      "type": "function"
    },
    {
      "inputs": [],
      "name": "owner",
      "outputs": [
        {
          "internalType": "address",
          "name": "",
          "type": "address"
        }
      ],
      "stateMutability": "view",
      "type": "function"
    },
    {
      "inputs": [
        {
          "internalType": "contract IPool",
          "name": "pool",
          "type": "address"
        },
        {
          "internalType": "address",
          "name": "fromToken",
          "type": "address"
        },
        {
          "internalType": "uint256",
          "name": "liquidity",
          "type": "uint256"
        },
        {
          "internalType": "uint256",
          "name": "minimumAmount",
          "type": "uint256"
        },
        {
          "internalType": "address",
          "name": "to",
          "type": "address"
        },
        {
          "internalType": "uint256",
          "name": "deadline",
          "type": "uint256"
        }
      ],
      "name": "removeLiquidityFromOtherAssetAsNative",
      "outputs": [
        {
          "internalType": "uint256",
          "name": "amount",
          "type": "uint256"
        }
      ],
      "stateMutability": "nonpayable",
      "type": "function"
    },
    {
      "inputs": [
        {
          "internalType": "contract IPool",
          "name": "pool",
          "type": "address"
        },
        {
          "internalType": "uint256",
          "name": "liquidity",
          "type": "uint256"
        },
        {
          "internalType": "uint256",
          "name": "minimumAmount",
          "type": "uint256"
        },
        {
          "internalType": "address",
          "name": "to",
          "type": "address"
        },
        {
          "internalType": "uint256",
          "name": "deadline",
          "type": "uint256"
        }
      ],
      "name": "removeLiquidityNative",
      "outputs": [
        {
          "internalType": "uint256",
          "name": "amount",
          "type": "uint256"
        }
      ],
      "stateMutability": "nonpayable",
      "type": "function"
    },
    {
      "inputs": [],
      "name": "renounceOwnership",
      "outputs": [],
      "stateMutability": "nonpayable",
      "type": "function"
    },
    {
      "inputs": [
        {
          "internalType": "address[]",
          "name": "tokenPath",
          "type": "address[]"
        },
        {
          "internalType": "address[]",
          "name": "poolPath",
          "type": "address[]"
        },
        {
          "internalType": "uint256",
          "name": "minimumamountOut",
          "type": "uint256"
        },
        {
          "internalType": "address",
          "name": "to",
          "type": "address"
        },
        {
          "internalType": "uint256",
          "name": "deadline",
          "type": "uint256"
        }
      ],
      "name": "swapExactNativeForTokens",
      "outputs": [
        {
          "internalType": "uint256",
          "name": "amountOut",
          "type": "uint256"
        }
      ],
      "stateMutability": "payable",
      "type": "function"
    },
    {
      "inputs": [
        {
          "internalType": "address[]",
          "name": "tokenPath",
          "type": "address[]"
        },
        {
          "internalType": "address[]",
          "name": "poolPath",
          "type": "address[]"
        },
        {
          "internalType": "uint256",
          "name": "amountIn",
          "type": "uint256"
        },
        {
          "internalType": "uint256",
          "name": "minimumamountOut",
          "type": "uint256"
        },
        {
          "internalType": "address",
          "name": "to",
          "type": "address"
        },
        {
          "internalType": "uint256",
          "name": "deadline",
          "type": "uint256"
        }
      ],
      "name": "swapExactTokensForNative",
      "outputs": [
        {
          "internalType": "uint256",
          "name": "amountOut",
          "type": "uint256"
        }
      ],
      "stateMutability": "nonpayable",
      "type": "function"
    },
    {
      "inputs": [
        {
          "internalType": "address[]",
          "name": "tokenPath",
          "type": "address[]"
        },
        {
          "internalType": "address[]",
          "name": "poolPath",
          "type": "address[]"
        },
        {
          "internalType": "uint256",
          "name": "amountIn",
          "type": "uint256"
        },
        {
          "internalType": "uint256",
          "name": "minimumamountOut",
          "type": "uint256"
        },
        {
          "internalType": "address",
          "name": "to",
          "type": "address"
        },
        {
          "internalType": "uint256",
          "name": "deadline",
          "type": "uint256"
        }
      ],
      "name": "swapExactTokensForTokens",
      "outputs": [
        {
          "internalType": "uint256",
          "name": "amountOut",
          "type": "uint256"
        }
      ],
      "stateMutability": "nonpayable",
      "type": "function"
    },
    {
      "inputs": [
        {
          "internalType": "address",
          "name": "newOwner",
          "type": "address"
        }
      ],
      "name": "transferOwnership",
      "outputs": [],
      "stateMutability": "nonpayable",
      "type": "function"
    },
    {
      "inputs": [],
      "name": "wNative",
      "outputs": [
        {
          "internalType": "contract IWNative",
          "name": "",
          "type": "address"
        }
      ],
      "stateMutability": "view",
      "type": "function"
    },
    {
      "stateMutability": "payable",
      "type": "receive"
    }
  ],
  "transactionHash": "0x66af3addedabf15a8e5dab434eb78940e111257d8e0d881c3f62cc893c33392a",
  "args": [
    "0x4200000000000000000000000000000000000006"
  ],
  "numDeployments": 1,
  "solcInputHash": "f69478c090fcdc72c3ea9798b655ba5a",
  "bytecode": "0x60a03461012957601f611c0338819003918201601f19168301916001600160401b0383118484101761012e5780849260209460405283398101031261012957516001600160a01b03808216808303610129576000543360018060a01b0319821617600055604051923391167f8be0079c531659141344cd1fd0a4f28419497f9722a3daafe3b4186f6b6457e0600080a3156100d95750608052604051611abe908161014582396080518181816029015281816102110152818161090c01528181610b2001528181610cc601528181610fe401526110780152f35b62461bcd60e51b815260206004820152602560248201527f576f6d626174526f757465723a20774e6174697665206973207a65726f206164604482015264647265737360d81b6064820152608490fd5b600080fd5b634e487b7160e01b600052604160045260246000fdfe60806040818152600480361015610056575b505050361561001f57600080fd5b6001600160a01b037f000000000000000000000000000000000000000000000000000000000000000016330361005157005b600080fd5b600092833560e01c908163018ad00114611008575080632d68efc914610fc45780633226288e14610de75780636248fced14610c88578063715018a614610c215780637eeb195514610a6457806385335cc0146108ca5780638d8f82e6146106e25780638da5cb5b146106bc578063b9e598c1146104cc578063d44107a414610417578063f048d48f146101da5763f2fde38b0361001157346101d65760203660031901126101d657610107611218565b906101106112dd565b6001600160a01b0380921692831561016d5750506000548273ffffffffffffffffffffffffffffffffffffffff19821617600055167f8be0079c531659141344cd1fd0a4f28419497f9722a3daafe3b4186f6b6457e0600080a380f35b906020608492519162461bcd60e51b8352820152602660248201527f4f776e61626c653a206e6577206f776e657220697320746865207a65726f206160448201527f64647265737300000000000000000000000000000000000000000000000000006064820152fd5b8280fd5b509190346104135760a0366003190112610413576101f6611218565b926024356102026111ec565b916001600160a01b03809616867f0000000000000000000000000000000000000000000000000000000000000000169285519763e9249cc760e01b895284848a01526020988981602481875afa90811561040957918a918a9384916103dc575b5089516323b872dd60e01b8152338882019081523060208201526040810187905290948593849283906060010393165af180156103d2578992899695949260a4926103a5575b508851998a9384927f09a5fca300000000000000000000000000000000000000000000000000000000845288888501526024840152604435604484015230606484015260843560848401525af195861561039b57839661036c575b50813b156101d65785602484928388519586948593632e1a7d4d60e01b85528401525af180156103625790859291610347575b505061034191611a08565b51908152f35b81925061035390611394565b61035f57808491610336565b80fd5b84513d84823e3d90fd5b9095508681813d8311610394575b61038481836113da565b8101031261005157519438610303565b503d61037a565b85513d85823e3d90fd5b6103c490853d87116103cb575b6103bc81836113da565b8101906113fc565b50386102a8565b503d6103b2565b87513d8a823e3d90fd5b6103fc9150833d8511610402575b6103f481836113da565b810190611626565b38610262565b503d6103ea565b88513d8b823e3d90fd5b5080fd5b509190346104135761043f61042b36611272565b999199979097969296959395421115611645565b61044c6002841015611690565b60001983018381116104b9576104639086146116db565b82156104a6576020898961034161049d8b8b8b8b8b8b610498856001600160a01b0361048e84611380565b1630903390611771565b6117cd565b92831015611726565b8060328b634e487b7160e01b6024945252fd5b60248260118d634e487b7160e01b835252fd5b509190346104135760603660031901126104135767ffffffffffffffff9083358281116106b85761050090369086016111bb565b93909260249081359081116101d65761051c90369088016111bb565b969095839561052e6002831015611690565b60001982018281116106a65761054d908a9493929a99969599146116db565b6044359861055a846119c2565b9885945b808610610577578851806105738d8d8361122e565b0390f35b9091929394959698506001600160a01b0361059b61059688848d61135a565b611380565b166105aa61059688878761135a565b60018801808911610694579161061f9b9c9d916105cc6105968d958a8a61135a565b9084519d8e94859384937f4fdd64e50000000000000000000000000000000000000000000000000000000085528d85016040919493929460608201956001600160a01b0380921683521660208201520152565b03915afa801561068a5787998891610657575b5061063d878d6119f4565b526106488996611335565b94939291909a9996959a61055e565b905061067a919950883d8a11610683575b61067281836113da565b8101906117b7565b98909838610632565b503d610668565b88513d89823e3d90fd5b848a60118a634e487b7160e01b835252fd5b8486601186634e487b7160e01b835252fd5b8380fd5b5050346104135781600319360112610413576001600160a01b0360209254169051908152f35b5090346101d657806003193601126101d657813567ffffffffffffffff81116106b85761071290369084016111bb565b92909161071d611202565b906107266112dd565b6001600160a01b0391821690865b86811061073f578780f35b86868561075061059685858561135a565b1685876107b0610596878951977f095ea7b300000000000000000000000000000000000000000000000000000000976107ab60209a8a8c8201526024988982015260449960008b8301528a82526107a6826113be565b611414565b61135a565b169286517fdd62ed3e000000000000000000000000000000000000000000000000000000008152308b820152888382015285818581885afa9081156108bf57600091610892575b5061082c5786519485015283018690526000198382015282526108279291610822916107a6826113be565b611335565b610734565b60848a7f5361666545524332303a20617070726f76652066726f6d206e6f6e2d7a65726f856036868a8d519562461bcd60e51b87528601528401528201527f20746f206e6f6e2d7a65726f20616c6c6f77616e6365000000000000000000006064820152fd5b908682813d83116108b8575b6108a881836113da565b8101031261035f575051386107f7565b503d61089e565b88513d6000823e3d90fd5b5090346101d6576108da36611272565b9560009a9794929995919a198101818111610a51576108fd61059682848961135a565b906001600160a01b03988992837f0000000000000000000000000000000000000000000000000000000000000000169a8b9116036109e8579061094561094c92421115611645565b85146116db565b81156109d5579185939161096b86610972979561048e61097b9a611380565b30946117cd565b95861015611726565b813b156101d65784602484928387519586948593632e1a7d4d60e01b85528401525af180156109cb576109b7575b505061034182602094611a08565b6109c18291611394565b61035f57806109a9565b83513d84823e3d90fd5b602489603289634e487b7160e01b835252fd5b60848960208e519162461bcd60e51b8352820152602860248201527f746865206c61737420616464726573732073686f756c6420626520777261707060448201527f656420746f6b656e0000000000000000000000000000000000000000000000006064820152fd5b602489601189634e487b7160e01b835252fd5b5090346101d65760c03660031901126101d657610a7f611218565b91610a88611202565b9360443593608435926001600160a01b03918285168503610051578216958286519863e9249cc760e01b8a52169283838a015260209889816024818c5afa908115610bfa578691610c04575b5087516323b872dd60e01b8152338582019081523060208201526040810185905290918b918391908290036060019082908a9087165af18015610bfa579160c4918b9493610bdd575b507f000000000000000000000000000000000000000000000000000000000000000016948689519a8b9485937f0f91f06f000000000000000000000000000000000000000000000000000000008552888501528860248501526044840152606435606484015230608484015260a43560a48401525af195861561039b57839661036c5750813b156101d65785602484928388519586948593632e1a7d4d60e01b85528401525af18015610362579085929161034757505061034191611a08565b610bf390853d87116103cb576103bc81836113da565b5038610b1d565b88513d88823e3d90fd5b610c1b91508a3d8c11610402576103f481836113da565b38610ad4565b833461035f578060031936011261035f57610c3a6112dd565b60006001600160a01b03815473ffffffffffffffffffffffffffffffffffffffff1981168355167f8be0079c531659141344cd1fd0a4f28419497f9722a3daafe3b4186f6b6457e08280a380f35b50919060a036600319011261041357610c9f611218565b604435936001600160a01b03808616809603610de35760843592831515809403610ddf57817f00000000000000000000000000000000000000000000000000000000000000001693843b15610ddb578551630d0e30db60e41b815287818681348a5af180156103d257610dbe575b5060c4926020959492889288519a8b9788967f6281baef00000000000000000000000000000000000000000000000000000000885287015234602487015260243560448701526064860152606435608486015260a4850152165af1918215610db35791610d7f575b6020925051908152f35b90506020823d8211610dab575b81610d99602093836113da565b81010312610051576020915190610d75565b3d9150610d8c565b9051903d90823e3d90fd5b92602095949297610dd060c495611394565b979294955092610d0d565b8680fd5b8580fd5b8480fd5b5090346101d65760603660031901126101d65767ffffffffffffffff92823584811161041357610e1a90369085016111bb565b91909460243590811161041357610e3490369086016111bb565b91948591610e456002861015611690565b60001994808601818111610fb157610e659086959493929a9796146116db565b60443595610e72856119c2565b998591825b610e89578951806105738e8e8361122e565b9091929394959680989a508301838111610f6d5789610ea9828a8861135a565b610eb290611380565b6001600160a01b0316610ec683868661135a565b610ecf90611380565b90610edb87878761135a565b610ee490611380565b83517ffca8f3080000000000000000000000000000000000000000000000000000000081526001600160a01b039384168b8201908152939091166020840152604083019e909e528d918290819060600103915afa908115610fa757879b8892610f80575b50610f53908d6119f4565b5289928015610f6d57880191908298979695949398610e77565b602487601188634e487b7160e01b835252fd5b610f539c50610f9d9192508b3d8d116106835761067281836113da565b9b909b9190610f48565b8a513d89823e3d90fd5b602485601186634e487b7160e01b835252fd5b505034610413578160031936011261041357602090516001600160a01b037f0000000000000000000000000000000000000000000000000000000000000000168152f35b83858460a03660031901126104135767ffffffffffffffff9181358381116104135761103790369084016111bb565b90936024359081116101d65761105090369085016111bb565b93909261105b6111ec565b9783156111a85761106b87611380565b906001600160a01b0391827f000000000000000000000000000000000000000000000000000000000000000016928391160361114157506110b0426084351015611645565b600019840184811161112e576110c79087146116db565b803b15610413578190885193848092630d0e30db60e41b825234905af19081156111235750916111059593916020989593611114575b5034936117cd565b90610341604435831015611726565b61111d90611394565b886110fd565b8751903d90823e3d90fd5b602483601186634e487b7160e01b835252fd5b8060208562461bcd60e51b60849452820152602960248201527f74686520666972737420616464726573732073686f756c64206265207772617060448201527f70656420746f6b656e00000000000000000000000000000000000000000000006064820152fd5b506032602492634e487b7160e01b835252fd5b9181601f840112156100515782359167ffffffffffffffff8311610051576020808501948460051b01011161005157565b606435906001600160a01b038216820361005157565b602435906001600160a01b038216820361005157565b600435906001600160a01b038216820361005157565b9060609160408101918152602092816040858094015285518094520193019160005b82811061125e575050505090565b835185529381019392810192600101611250565b60c06003198201126100515767ffffffffffffffff91600435838111610051578261129f916004016111bb565b93909392602435918211610051576112b9916004016111bb565b909160443590606435906084356001600160a01b0381168103610051579060a43590565b6001600160a01b036000541633036112f157565b606460405162461bcd60e51b815260206004820152602060248201527f4f776e61626c653a2063616c6c6572206973206e6f7420746865206f776e65726044820152fd5b60001981146113445760010190565b634e487b7160e01b600052601160045260246000fd5b919081101561136a5760051b0190565b634e487b7160e01b600052603260045260246000fd5b356001600160a01b03811681036100515790565b67ffffffffffffffff81116113a857604052565b634e487b7160e01b600052604160045260246000fd5b6080810190811067ffffffffffffffff8211176113a857604052565b90601f8019910116810190811067ffffffffffffffff8211176113a857604052565b90816020910312610051575180151581036100515790565b6001600160a01b0316604051604081019181831067ffffffffffffffff8411176113a857611484926040526000806020958685527f5361666545524332303a206c6f772d6c6576656c2063616c6c206661696c656487860152868151910182855af161147e611513565b91611553565b8051908161149157505050565b82806114a19383010191016113fc565b156114a95750565b6084906040519062461bcd60e51b82526004820152602a60248201527f5361666545524332303a204552433230206f7065726174696f6e20646964206e60448201527f6f742073756363656564000000000000000000000000000000000000000000006064820152fd5b3d1561154e573d9067ffffffffffffffff82116113a85760405191611542601f8201601f1916602001846113da565b82523d6000602084013e565b606090565b919290156115b45750815115611567575090565b3b156115705790565b606460405162461bcd60e51b815260206004820152601d60248201527f416464726573733a2063616c6c20746f206e6f6e2d636f6e74726163740000006044820152fd5b8251909150156115c75750805190602001fd5b6040519062461bcd60e51b82528160208060048301528251908160248401526000935b82851061160d575050604492506000838284010152601f80199101168101030190fd5b84810182015186860160440152938101938593506115ea565b9081602091031261005157516001600160a01b03811681036100515790565b1561164c57565b606460405162461bcd60e51b815260206004820152600760248201527f65787069726564000000000000000000000000000000000000000000000000006044820152fd5b1561169757565b606460405162461bcd60e51b815260206004820152601260248201527f696e76616c696420746f6b656e207061746800000000000000000000000000006044820152fd5b156116e257565b606460405162461bcd60e51b815260206004820152601160248201527f696e76616c696420706f6f6c20706174680000000000000000000000000000006044820152fd5b1561172d57565b606460405162461bcd60e51b815260206004820152601160248201527f616d6f756e744f757420746f6f206c6f770000000000000000000000000000006044820152fd5b6040516323b872dd60e01b60208201526001600160a01b0392831660248201529290911660448301526064808301939093529181526117b5916107a66084836113da565b565b9190826040910312610051576020825192015190565b9592919093926000935b6000198401848111611344578510156118d9576001600160a01b0361180061059687878761135a565b169061181061059687898c61135a565b9060018701918288116113445760009361183161059661188a958c8f61135a565b60408051639908fc8b60e01b81526001600160a01b03948516600482015291909316602482015260448101939093526000606484015230608484015260001960a4840152909391928492849291839190829060c4820190565b03925af19182156118cf57906118ab92916000926118b1575b505094611335565b936117d7565b6118c79250803d106106835761067281836113da565b5038806118a3565b513d6000823e3d90fd5b93509590939160001981019281841161134457610596826119239261191d6105966001600160a01b036119146105968b60009a60409f61135a565b1698838961135a565b9561135a565b8551639908fc8b60e01b81526001600160a01b03938416600482015290831660248201526044810194909452600060648501529416608483015260001960a48301529092839160c49183915af190811561199e57600091611982575090565b61199a915060403d81116106835761067281836113da565b5090565b6040513d6000823e3d90fd5b67ffffffffffffffff81116113a85760051b60200190565b906119cc826119aa565b6119d960405191826113da565b82815280926119ea601f19916119aa565b0190602036910137565b805182101561136a5760209160051b010190565b604051602081019080821067ffffffffffffffff8311176113a8576000938493848094938194604052525af1611a3c611513565b5015611a4457565b606460405162461bcd60e51b815260206004820152601960248201527f5f736166655472616e736665724e6174697665206661696c73000000000000006044820152fdfea2646970667358221220633a2109b82b0aef6e9bc073190a88354dac1c31e81185fc0f134af7194120d064736f6c63430008120033",
  "devdoc": {
    "details": "Owner is allowed and required to approve token spending by pools via approveSpendingByPool function. With great thanks to the uniswap team for your contribution to the opensource community reference: https://github.com/Uniswap/v2-periphery/blob/master/contracts/UniswapV2Router02.sol",
    "kind": "dev",
    "methods": {
      "approveSpendingByPool(address[],address)": {
        "details": "needs to be done after asset deployment for router to be able to support the tokens",
        "params": {
          "pool": "to be approved to spend",
          "tokens": "array of tokens to be approved"
        }
      },
      "getAmountIn(address[],address[],uint256)": {
        "params": {
          "amountOut": "The to amount",
          "poolPath": "The token pool path",
          "tokenPath": "The token swap path"
        },
        "returns": {
          "amountIn": "The potential final amount user would receive"
        }
      },
      "getAmountOut(address[],address[],int256)": {
        "params": {
          "amountIn": "The from amount",
          "poolPath": "The token pool path",
          "tokenPath": "The token swap path"
        },
        "returns": {
          "amountOut": "The potential final amount user would receive"
        }
      },
      "owner()": {
        "details": "Returns the address of the current owner."
      },
      "renounceOwnership()": {
        "details": "Leaves the contract without owner. It will not be possible to call `onlyOwner` functions anymore. Can only be called by the current owner. NOTE: Renouncing ownership will leave the contract without an owner, thereby removing any functionality that is only available to the owner."
      },
      "swapExactTokensForTokens(address[],address[],uint256,uint256,address,uint256)": {
        "params": {
          "amountIn": "the amount in",
          "deadline": "the deadline to respect",
          "minimumamountOut": "the minimum amount to get for user",
          "poolPath": "An array of pool addresses. The pools where the pathTokens are contained in order.",
          "to": "the user to send the tokens to",
          "tokenPath": "The first element of the path is the input token, the last element is the output token."
        },
        "returns": {
          "amountOut": "received by user"
        }
      },
      "transferOwnership(address)": {
        "details": "Transfers ownership of the contract to a new account (`newOwner`). Can only be called by the current owner."
      }
    },
    "title": "WombatRouter",
    "version": 1
  },
  "userdoc": {
    "kind": "user",
    "methods": {
      "approveSpendingByPool(address[],address)": {
        "notice": "approve spending of router tokens by pool"
      },
      "getAmountIn(address[],address[],uint256)": {
        "notice": "Returns the minimum input asset amount required to buy the given output asset amount (accounting for fees and slippage) Note: This function should be used as estimation only. The actual swap amount might be different due to precision error (the error is typically under 1e-6)"
      },
      "getAmountOut(address[],address[],int256)": {
        "notice": "Given an input asset amount and an array of token addresses, calculates the maximum output token amount (accounting for fees and slippage)."
      },
      "swapExactTokensForTokens(address[],address[],uint256,uint256,address,uint256)": {
        "notice": "Swaps an exact amount of input tokens for as many output tokens as possible, along the route determined by the path"
      }
    },
    "notice": "Allows routing on different wombat pools",
    "version": 1
  },
  "storageLayout": {
    "storage": [
      {
        "astId": 1419,
        "contract": "contracts/wombat-core/libraries/WombatRouter.sol:WombatRouter",
        "label": "_owner",
        "offset": 0,
        "slot": "0",
        "type": "t_address"
      }
    ],
    "types": {
      "t_address": {
        "encoding": "inplace",
        "label": "address",
        "numberOfBytes": "20"
      }
    }
  }
}