{
  "address": "0x6521a549834F5E6d253CD2e5F4fbe4048f86cd7b",
  "abi": [
    {
      "inputs": [],
      "name": "CORE_UNDERFLOW",
      "type": "error"
    },
    {
      "inputs": [],
      "name": "WOMBAT_AMOUNT_TOO_LOW",
      "type": "error"
    },
    {
      "inputs": [],
      "name": "WOMBAT_ASSET_ALREADY_EXIST",
      "type": "error"
    },
    {
      "inputs": [],
      "name": "WOMBAT_ASSET_ALREADY_PAUSED",
      "type": "error"
    },
    {
      "inputs": [],
      "name": "WOMBAT_ASSET_NOT_EXISTS",
      "type": "error"
    },
    {
      "inputs": [],
      "name": "WOMBAT_ASSET_NOT_PAUSED",
      "type": "error"
    },
    {
      "inputs": [],
      "name": "WOMBAT_CASH_NOT_ENOUGH",
      "type": "error"
    },
    {
      "inputs": [],
      "name": "WOMBAT_EXPIRED",
      "type": "error"
    },
    {
      "inputs": [],
      "name": "WOMBAT_FORBIDDEN",
      "type": "error"
    },
    {
      "inputs": [],
      "name": "WOMBAT_INVALID_VALUE",
      "type": "error"
    },
    {
      "inputs": [],
      "name": "WOMBAT_SAME_ADDRESS",
      "type": "error"
    },
    {
      "inputs": [],
      "name": "WOMBAT_ZERO_ADDRESS",
      "type": "error"
    },
    {
      "inputs": [],
      "name": "WOMBAT_ZERO_AMOUNT",
      "type": "error"
    },
    {
      "inputs": [],
      "name": "WOMBAT_ZERO_LIQUIDITY",
      "type": "error"
    },
    {
      "anonymous": false,
      "inputs": [
        {
          "indexed": true,
          "internalType": "address",
          "name": "token",
          "type": "address"
        },
        {
          "indexed": true,
          "internalType": "address",
          "name": "asset",
          "type": "address"
        }
      ],
      "name": "AssetAdded",
      "type": "event"
    },
    {
      "anonymous": false,
      "inputs": [
        {
          "indexed": true,
          "internalType": "address",
          "name": "token",
          "type": "address"
        },
        {
          "indexed": true,
          "internalType": "address",
          "name": "asset",
          "type": "address"
        }
      ],
      "name": "AssetRemoved",
      "type": "event"
    },
    {
      "anonymous": false,
      "inputs": [
        {
          "indexed": true,
          "internalType": "address",
          "name": "sender",
          "type": "address"
        },
        {
          "indexed": false,
          "internalType": "address",
          "name": "token",
          "type": "address"
        },
        {
          "indexed": false,
          "internalType": "uint256",
          "name": "amount",
          "type": "uint256"
        },
        {
          "indexed": false,
          "internalType": "uint256",
          "name": "liquidity",
          "type": "uint256"
        },
        {
          "indexed": true,
          "internalType": "address",
          "name": "to",
          "type": "address"
        }
      ],
      "name": "Deposit",
      "type": "event"
    },
    {
      "anonymous": false,
      "inputs": [
        {
          "indexed": false,
          "internalType": "address",
          "name": "token",
          "type": "address"
        },
        {
          "indexed": false,
          "internalType": "uint256",
          "name": "amount",
          "type": "uint256"
        }
      ],
      "name": "FillPool",
      "type": "event"
    },
    {
      "anonymous": false,
      "inputs": [
        {
          "indexed": false,
          "internalType": "uint8",
          "name": "version",
          "type": "uint8"
        }
      ],
      "name": "Initialized",
      "type": "event"
    },
    {
      "anonymous": false,
      "inputs": [
        {
          "indexed": true,
          "internalType": "address",
          "name": "previousOwner",
          "type": "address"
        },
        {
          "indexed": true,
          "internalType": "address",
          "name": "newOwner",
          "type": "address"
        }
      ],
      "name": "OwnershipTransferred",
      "type": "event"
    },
    {
      "anonymous": false,
      "inputs": [
        {
          "indexed": false,
          "internalType": "address",
          "name": "account",
          "type": "address"
        }
      ],
      "name": "Paused",
      "type": "event"
    },
    {
      "anonymous": false,
      "inputs": [
        {
          "indexed": false,
          "internalType": "address",
          "name": "asset",
          "type": "address"
        },
        {
          "indexed": false,
          "internalType": "address",
          "name": "account",
          "type": "address"
        }
      ],
      "name": "PausedAsset",
      "type": "event"
    },
    {
      "anonymous": false,
      "inputs": [
        {
          "indexed": false,
          "internalType": "uint256",
          "name": "value",
          "type": "uint256"
        }
      ],
      "name": "SetAmpFactor",
      "type": "event"
    },
    {
      "anonymous": false,
      "inputs": [
        {
          "indexed": false,
          "internalType": "address",
          "name": "addr",
          "type": "address"
        }
      ],
      "name": "SetDev",
      "type": "event"
    },
    {
      "anonymous": false,
      "inputs": [
        {
          "indexed": false,
          "internalType": "uint256",
          "name": "lpDividendRatio",
          "type": "uint256"
        },
        {
          "indexed": false,
          "internalType": "uint256",
          "name": "retentionRatio",
          "type": "uint256"
        }
      ],
      "name": "SetFee",
      "type": "event"
    },
    {
      "anonymous": false,
      "inputs": [
        {
          "indexed": false,
          "internalType": "address",
          "name": "addr",
          "type": "address"
        }
      ],
      "name": "SetFeeTo",
      "type": "event"
    },
    {
      "anonymous": false,
      "inputs": [
        {
          "indexed": false,
          "internalType": "uint256",
          "name": "value",
          "type": "uint256"
        }
      ],
      "name": "SetHaircutRate",
      "type": "event"
    },
    {
      "anonymous": false,
      "inputs": [
        {
          "indexed": false,
          "internalType": "address",
          "name": "addr",
          "type": "address"
        }
      ],
      "name": "SetMasterWombat",
      "type": "event"
    },
    {
      "anonymous": false,
      "inputs": [
        {
          "indexed": false,
          "internalType": "uint256",
          "name": "value",
          "type": "uint256"
        }
      ],
      "name": "SetMintFeeThreshold",
      "type": "event"
    },
    {
      "anonymous": false,
      "inputs": [
        {
          "indexed": true,
          "internalType": "address",
          "name": "sender",
          "type": "address"
        },
        {
          "indexed": false,
          "internalType": "address",
          "name": "fromToken",
          "type": "address"
        },
        {
          "indexed": false,
          "internalType": "address",
          "name": "toToken",
          "type": "address"
        },
        {
          "indexed": false,
          "internalType": "uint256",
          "name": "fromAmount",
          "type": "uint256"
        },
        {
          "indexed": false,
          "internalType": "uint256",
          "name": "toAmount",
          "type": "uint256"
        },
        {
          "indexed": true,
          "internalType": "address",
          "name": "to",
          "type": "address"
        }
      ],
      "name": "Swap",
      "type": "event"
    },
    {
      "anonymous": false,
      "inputs": [
        {
          "indexed": false,
          "internalType": "address",
          "name": "token",
          "type": "address"
        },
        {
          "indexed": false,
          "internalType": "uint256",
          "name": "amount",
          "type": "uint256"
        },
        {
          "indexed": false,
          "internalType": "address",
          "name": "to",
          "type": "address"
        }
      ],
      "name": "TransferTipBucket",
      "type": "event"
    },
    {
      "anonymous": false,
      "inputs": [
        {
          "indexed": false,
          "internalType": "address",
          "name": "account",
          "type": "address"
        }
      ],
      "name": "Unpaused",
      "type": "event"
    },
    {
      "anonymous": false,
      "inputs": [
        {
          "indexed": false,
          "internalType": "address",
          "name": "asset",
          "type": "address"
        },
        {
          "indexed": false,
          "internalType": "address",
          "name": "account",
          "type": "address"
        }
      ],
      "name": "UnpausedAsset",
      "type": "event"
    },
    {
      "anonymous": false,
      "inputs": [
        {
          "indexed": true,
          "internalType": "address",
          "name": "sender",
          "type": "address"
        },
        {
          "indexed": false,
          "internalType": "address",
          "name": "token",
          "type": "address"
        },
        {
          "indexed": false,
          "internalType": "uint256",
          "name": "amount",
          "type": "uint256"
        },
        {
          "indexed": false,
          "internalType": "uint256",
          "name": "liquidity",
          "type": "uint256"
        },
        {
          "indexed": true,
          "internalType": "address",
          "name": "to",
          "type": "address"
        }
      ],
      "name": "Withdraw",
      "type": "event"
    },
    {
      "inputs": [
        {
          "internalType": "address",
          "name": "token",
          "type": "address"
        },
        {
          "internalType": "address",
          "name": "asset",
          "type": "address"
        }
      ],
      "name": "addAsset",
      "outputs": [],
      "stateMutability": "nonpayable",
      "type": "function"
    },
    {
      "inputs": [
        {
          "internalType": "address",
          "name": "token",
          "type": "address"
        }
      ],
      "name": "addressOfAsset",
      "outputs": [
        {
          "internalType": "address",
          "name": "",
          "type": "address"
        }
      ],
      "stateMutability": "view",
      "type": "function"
    },
    {
      "inputs": [],
      "name": "ampFactor",
      "outputs": [
        {
          "internalType": "uint256",
          "name": "",
          "type": "uint256"
        }
      ],
      "stateMutability": "view",
      "type": "function"
    },
    {
      "inputs": [
        {
          "internalType": "address",
          "name": "token",
          "type": "address"
        },
        {
          "internalType": "uint256",
          "name": "amount",
          "type": "uint256"
        },
        {
          "internalType": "uint256",
          "name": "minimumLiquidity",
          "type": "uint256"
        },
        {
          "internalType": "address",
          "name": "to",
          "type": "address"
        },
        {
          "internalType": "uint256",
          "name": "deadline",
          "type": "uint256"
        },
        {
          "internalType": "bool",
          "name": "shouldStake",
          "type": "bool"
        }
      ],
      "name": "deposit",
      "outputs": [
        {
          "internalType": "uint256",
          "name": "liquidity",
          "type": "uint256"
        }
      ],
      "stateMutability": "nonpayable",
      "type": "function"
    },
    {
      "inputs": [],
      "name": "dev",
      "outputs": [
        {
          "internalType": "address",
          "name": "",
          "type": "address"
        }
      ],
      "stateMutability": "view",
      "type": "function"
    },
    {
      "inputs": [
        {
          "internalType": "address",
          "name": "token",
          "type": "address"
        }
      ],
      "name": "exchangeRate",
      "outputs": [
        {
          "internalType": "uint256",
          "name": "xr",
          "type": "uint256"
        }
      ],
      "stateMutability": "view",
      "type": "function"
    },
    {
      "inputs": [],
      "name": "feeTo",
      "outputs": [
        {
          "internalType": "address",
          "name": "",
          "type": "address"
        }
      ],
      "stateMutability": "view",
      "type": "function"
    },
    {
      "inputs": [
        {
          "internalType": "address",
          "name": "token",
          "type": "address"
        },
        {
          "internalType": "uint256",
          "name": "amount",
          "type": "uint256"
        }
      ],
      "name": "fillPool",
      "outputs": [],
      "stateMutability": "nonpayable",
      "type": "function"
    },
    {
      "inputs": [],
      "name": "getTokens",
      "outputs": [
        {
          "internalType": "address[]",
          "name": "",
          "type": "address[]"
        }
      ],
      "stateMutability": "view",
      "type": "function"
    },
    {
      "inputs": [],
      "name": "globalEquilCovRatio",
      "outputs": [
        {
          "internalType": "uint256",
          "name": "equilCovRatio",
          "type": "uint256"
        },
        {
          "internalType": "uint256",
          "name": "invariantInUint",
          "type": "uint256"
        }
      ],
      "stateMutability": "view",
      "type": "function"
    },
    {
      "inputs": [],
      "name": "haircutRate",
      "outputs": [
        {
          "internalType": "uint256",
          "name": "",
          "type": "uint256"
        }
      ],
      "stateMutability": "view",
      "type": "function"
    },
    {
      "inputs": [
        {
          "internalType": "uint256",
          "name": "ampFactor_",
          "type": "uint256"
        },
        {
          "internalType": "uint256",
          "name": "haircutRate_",
          "type": "uint256"
        }
      ],
      "name": "initialize",
      "outputs": [],
      "stateMutability": "nonpayable",
      "type": "function"
    },
    {
      "inputs": [],
      "name": "lpDividendRatio",
      "outputs": [
        {
          "internalType": "uint256",
          "name": "",
          "type": "uint256"
        }
      ],
      "stateMutability": "view",
      "type": "function"
    },
    {
      "inputs": [],
      "name": "masterWombat",
      "outputs": [
        {
          "internalType": "address",
          "name": "",
          "type": "address"
        }
      ],
      "stateMutability": "view",
      "type": "function"
    },
    {
      "inputs": [
        {
          "internalType": "address",
          "name": "token",
          "type": "address"
        }
      ],
      "name": "mintFee",
      "outputs": [],
      "stateMutability": "nonpayable",
      "type": "function"
    },
    {
      "inputs": [],
      "name": "mintFeeThreshold",
      "outputs": [
        {
          "internalType": "uint256",
          "name": "",
          "type": "uint256"
        }
      ],
      "stateMutability": "view",
      "type": "function"
    },
    {
      "inputs": [],
      "name": "owner",
      "outputs": [
        {
          "internalType": "address",
          "name": "",
          "type": "address"
        }
      ],
      "stateMutability": "view",
      "type": "function"
    },
    {
      "inputs": [],
      "name": "pause",
      "outputs": [],
      "stateMutability": "nonpayable",
      "type": "function"
    },
    {
      "inputs": [
        {
          "internalType": "address",
          "name": "token",
          "type": "address"
        }
      ],
      "name": "pauseAsset",
      "outputs": [],
      "stateMutability": "nonpayable",
      "type": "function"
    },
    {
      "inputs": [],
      "name": "paused",
      "outputs": [
        {
          "internalType": "bool",
          "name": "",
          "type": "bool"
        }
      ],
      "stateMutability": "view",
      "type": "function"
    },
    {
      "inputs": [
        {
          "internalType": "address",
          "name": "fromToken",
          "type": "address"
        },
        {
          "internalType": "address",
          "name": "toToken",
          "type": "address"
        },
        {
          "internalType": "int256",
          "name": "toAmount",
          "type": "int256"
        }
      ],
      "name": "quoteAmountIn",
      "outputs": [
        {
          "internalType": "uint256",
          "name": "amountIn",
          "type": "uint256"
        },
        {
          "internalType": "uint256",
          "name": "haircut",
          "type": "uint256"
        }
      ],
      "stateMutability": "view",
      "type": "function"
    },
    {
      "inputs": [
        {
          "internalType": "address",
          "name": "token",
          "type": "address"
        },
        {
          "internalType": "uint256",
          "name": "amount",
          "type": "uint256"
        }
      ],
      "name": "quotePotentialDeposit",
      "outputs": [
        {
          "internalType": "uint256",
          "name": "liquidity",
          "type": "uint256"
        },
        {
          "internalType": "uint256",
          "name": "reward",
          "type": "uint256"
        }
      ],
      "stateMutability": "view",
      "type": "function"
    },
    {
      "inputs": [
        {
          "internalType": "address",
          "name": "fromToken",
          "type": "address"
        },
        {
          "internalType": "address",
          "name": "toToken",
          "type": "address"
        },
        {
          "internalType": "int256",
          "name": "fromAmount",
          "type": "int256"
        }
      ],
      "name": "quotePotentialSwap",
      "outputs": [
        {
          "internalType": "uint256",
          "name": "potentialOutcome",
          "type": "uint256"
        },
        {
          "internalType": "uint256",
          "name": "haircut",
          "type": "uint256"
        }
      ],
      "stateMutability": "view",
      "type": "function"
    },
    {
      "inputs": [
        {
          "internalType": "address",
          "name": "token",
          "type": "address"
        },
        {
          "internalType": "uint256",
          "name": "liquidity",
          "type": "uint256"
        }
      ],
      "name": "quotePotentialWithdraw",
      "outputs": [
        {
          "internalType": "uint256",
          "name": "amount",
          "type": "uint256"
        },
        {
          "internalType": "uint256",
          "name": "fee",
          "type": "uint256"
        }
      ],
      "stateMutability": "view",
      "type": "function"
    },
    {
      "inputs": [
        {
          "internalType": "address",
          "name": "fromToken",
          "type": "address"
        },
        {
          "internalType": "address",
          "name": "toToken",
          "type": "address"
        },
        {
          "internalType": "uint256",
          "name": "liquidity",
          "type": "uint256"
        }
      ],
      "name": "quotePotentialWithdrawFromOtherAsset",
      "outputs": [
        {
          "internalType": "uint256",
          "name": "amount",
          "type": "uint256"
        },
        {
          "internalType": "uint256",
          "name": "withdrewAmount",
          "type": "uint256"
        }
      ],
      "stateMutability": "view",
      "type": "function"
    },
    {
      "inputs": [
        {
          "internalType": "address",
          "name": "token",
          "type": "address"
        }
      ],
      "name": "removeAsset",
      "outputs": [],
      "stateMutability": "nonpayable",
      "type": "function"
    },
    {
      "inputs": [],
      "name": "renounceOwnership",
      "outputs": [],
      "stateMutability": "nonpayable",
      "type": "function"
    },
    {
      "inputs": [],
      "name": "retentionRatio",
      "outputs": [
        {
          "internalType": "uint256",
          "name": "",
          "type": "uint256"
        }
      ],
      "stateMutability": "view",
      "type": "function"
    },
    {
      "inputs": [
        {
          "internalType": "uint256",
          "name": "ampFactor_",
          "type": "uint256"
        }
      ],
      "name": "setAmpFactor",
      "outputs": [],
      "stateMutability": "nonpayable",
      "type": "function"
    },
    {
      "inputs": [
        {
          "internalType": "address",
          "name": "dev_",
          "type": "address"
        }
      ],
      "name": "setDev",
      "outputs": [],
      "stateMutability": "nonpayable",
      "type": "function"
    },
    {
      "inputs": [
        {
          "internalType": "uint256",
          "name": "lpDividendRatio_",
          "type": "uint256"
        },
        {
          "internalType": "uint256",
          "name": "retentionRatio_",
          "type": "uint256"
        }
      ],
      "name": "setFee",
      "outputs": [],
      "stateMutability": "nonpayable",
      "type": "function"
    },
    {
      "inputs": [
        {
          "internalType": "address",
          "name": "feeTo_",
          "type": "address"
        }
      ],
      "name": "setFeeTo",
      "outputs": [],
      "stateMutability": "nonpayable",
      "type": "function"
    },
    {
      "inputs": [
        {
          "internalType": "uint256",
          "name": "haircutRate_",
          "type": "uint256"
        }
      ],
      "name": "setHaircutRate",
      "outputs": [],
      "stateMutability": "nonpayable",
      "type": "function"
    },
    {
      "inputs": [
        {
          "internalType": "address",
          "name": "masterWombat_",
          "type": "address"
        }
      ],
      "name": "setMasterWombat",
      "outputs": [],
      "stateMutability": "nonpayable",
      "type": "function"
    },
    {
      "inputs": [
        {
          "internalType": "uint256",
          "name": "mintFeeThreshold_",
          "type": "uint256"
        }
      ],
      "name": "setMintFeeThreshold",
      "outputs": [],
      "stateMutability": "nonpayable",
      "type": "function"
    },
    {
      "inputs": [
        {
          "internalType": "address",
          "name": "fromToken",
          "type": "address"
        },
        {
          "internalType": "address",
          "name": "toToken",
          "type": "address"
        },
        {
          "internalType": "uint256",
          "name": "fromAmount",
          "type": "uint256"
        },
        {
          "internalType": "uint256",
          "name": "minimumToAmount",
          "type": "uint256"
        },
        {
          "internalType": "address",
          "name": "to",
          "type": "address"
        },
        {
          "internalType": "uint256",
          "name": "deadline",
          "type": "uint256"
        }
      ],
      "name": "swap",
      "outputs": [
        {
          "internalType": "uint256",
          "name": "actualToAmount",
          "type": "uint256"
        },
        {
          "internalType": "uint256",
          "name": "haircut",
          "type": "uint256"
        }
      ],
      "stateMutability": "nonpayable",
      "type": "function"
    },
    {
      "inputs": [
        {
          "internalType": "address",
          "name": "token",
          "type": "address"
        }
      ],
      "name": "tipBucketBalance",
      "outputs": [
        {
          "internalType": "uint256",
          "name": "balance",
          "type": "uint256"
        }
      ],
      "stateMutability": "view",
      "type": "function"
    },
    {
      "inputs": [
        {
          "internalType": "address",
          "name": "newOwner",
          "type": "address"
        }
      ],
      "name": "transferOwnership",
      "outputs": [],
      "stateMutability": "nonpayable",
      "type": "function"
    },
    {
      "inputs": [
        {
          "internalType": "address",
          "name": "token",
          "type": "address"
        },
        {
          "internalType": "uint256",
          "name": "amount",
          "type": "uint256"
        },
        {
          "internalType": "address",
          "name": "to",
          "type": "address"
        }
      ],
      "name": "transferTipBucket",
      "outputs": [],
      "stateMutability": "nonpayable",
      "type": "function"
    },
    {
      "inputs": [],
      "name": "unpause",
      "outputs": [],
      "stateMutability": "nonpayable",
      "type": "function"
    },
    {
      "inputs": [
        {
          "internalType": "address",
          "name": "token",
          "type": "address"
        }
      ],
      "name": "unpauseAsset",
      "outputs": [],
      "stateMutability": "nonpayable",
      "type": "function"
    },
    {
      "inputs": [
        {
          "internalType": "address",
          "name": "token",
          "type": "address"
        },
        {
          "internalType": "uint256",
          "name": "liquidity",
          "type": "uint256"
        },
        {
          "internalType": "uint256",
          "name": "minimumAmount",
          "type": "uint256"
        },
        {
          "internalType": "address",
          "name": "to",
          "type": "address"
        },
        {
          "internalType": "uint256",
          "name": "deadline",
          "type": "uint256"
        }
      ],
      "name": "withdraw",
      "outputs": [
        {
          "internalType": "uint256",
          "name": "amount",
          "type": "uint256"
        }
      ],
      "stateMutability": "nonpayable",
      "type": "function"
    },
    {
      "inputs": [
        {
          "internalType": "address",
          "name": "fromToken",
          "type": "address"
        },
        {
          "internalType": "address",
          "name": "toToken",
          "type": "address"
        },
        {
          "internalType": "uint256",
          "name": "liquidity",
          "type": "uint256"
        },
        {
          "internalType": "uint256",
          "name": "minimumAmount",
          "type": "uint256"
        },
        {
          "internalType": "address",
          "name": "to",
          "type": "address"
        },
        {
          "internalType": "uint256",
          "name": "deadline",
          "type": "uint256"
        }
      ],
      "name": "withdrawFromOtherAsset",
      "outputs": [
        {
          "internalType": "uint256",
          "name": "toAmount",
          "type": "uint256"
        }
      ],
      "stateMutability": "nonpayable",
      "type": "function"
    }
  ],
  "transactionHash": "0x620f2857bf611c6ba69e77f91012af6176924ff7cfaa368b0f16a9dcf95d6935",
  "args": [],
  "numDeployments": 1,
  "solcInputHash": "b7359be393ed32bec06f3c2ef71fdf08",
  "bytecode": "0x608080604052346100165761453b908161001c8239f35b600080fdfe61010080604052600436101561001457600080fd5b600090813560e01c908163017b8292146126ca57508063017e7e58146126a35780630705999d14612630578063070f81d91461244457806309a5fca3146120575780630f91f06f14611c0f5780633753b14a14611b875780633bd61ba814611b605780633f4ba83a14611ac35780634a5e42b1146119615780634fdd64e51461194d57806352f7c988146118925780635c975abb1461186f5780635cfe092e1461185157806361858e23146117b75780636281baef146114575780636922d5ca14611439578063715018a6146113dd578063815bfd29146113bf5780638456cb59146113645780638a2dfe091461118c5780638da5cb5b14611165578063907448ed146110d857806391cca3db146110b157806393aeea0214610f595780639908fc8b14610cf75780639abacb4114610c315780639e4416b714610bd3578063a4275ceb146108ef578063aa6ca80814610829578063d043c565146107db578063d0dd0e56146107bd578063d30ffeda14610799578063d477f05f14610726578063da489997146105e2578063dc3b7c8b146105b6578063e4a301161461042a578063e9249cc7146103fa578063f2fde38b14610356578063f46901ed146102e3578063f57e84d51461025b578063f8b49e721461022e5763fca8f308146101fb57600080fd5b3461022b57604061021f61021961021136612771565b929092613392565b91613ee1565b82519182526020820152f35b80fd5b503461022b57602036600319011261022b5761025861025361024e6126e6565b612b99565b614328565b80f35b503461022b57602036600319011261022b576004356102786127bc565b670de0b6b3a764000081116102b9576020817fc6e60196bbe5909add58d5ae8a27082013670bce0855321773c33085af5c32439260cb55604051908152a180f35b60046040517f12b019e1000000000000000000000000000000000000000000000000000000008152fd5b503461022b57602036600319011261022b577ff6b59ffc88fbb27f33470b919e00b41139ee340eb349521f0cbbc1504ce29c3e60206001600160a01b036103286126e6565b6103306127bc565b6103398161291a565b16806001600160a01b031960d054161760d055604051908152a180f35b503461022b57602036600319011261022b576103706126e6565b6103786127bc565b6001600160a01b038116156103905761025890612814565b608460405162461bcd60e51b815260206004820152602660248201527f4f776e61626c653a206e6577206f776e657220697320746865207a65726f206160448201527f64647265737300000000000000000000000000000000000000000000000000006064820152fd5b503461022b57602036600319011261022b5760206001600160a01b0361042161024e6126e6565b16604051908152f35b503461022b57610439366127a6565b9082549160ff8360081c1615918280936105a9575b8015610592575b156105285760ff1984811660011786559383610517575b5061048660ff865460081c166104818161285c565b61285c565b61048f33612814565b8454936104af60ff8660081c166104a58161285c565b600160655561285c565b6097541660975560ca5560cb55670de0b6b3a764000060cd55336001600160a01b031960cf54161760cf556104e2575080f35b61ff00191681557f7f26b83ff96e1f2b6a682f133852f6798a09c465da95921460cefb3847402498602060405160018152a180f35b61ffff19166101011785553861046c565b608460405162461bcd60e51b815260206004820152602e60248201527f496e697469616c697a61626c653a20636f6e747261637420697320616c72656160448201527f647920696e697469616c697a65640000000000000000000000000000000000006064820152fd5b50303b1580156104555750600160ff851614610455565b50600160ff85161061044e565b503461022b57602036600319011261022b5760206105da6105d56126e6565b61409c565b604051908152f35b503461022b57604036600319011261022b576105fc6126e6565b610604612712565b61060c6127bc565b6106158161291a565b61061e8261291a565b610641826001600160a01b0380911660005260d460205260406000205416151590565b6106fc576001600160a01b03809116911680835260d460205260408320826001600160a01b031982541617905560d35460d5602052806040852055680100000000000000008110156106e8576106bf6106a182600185940160d3556128cd565b819391549060031b916001600160a01b03809116831b921b19161790565b90557f0bb5715f0f217c2fe9a0c877ea87d474380c641102f3440ee2a4c8b9d97909188380a380f35b602484634e487b7160e01b81526041600452fd5b60046040517f8991c4c4000000000000000000000000000000000000000000000000000000008152fd5b503461022b57602036600319011261022b577f8daa6bb00de042a7d51816fcee4a3d5c1e91a2128fd64fa1a9a38afa0d26beb560206001600160a01b0361076b6126e6565b6107736127bc565b61077c8161291a565b16806001600160a01b031960cf54161760cf55604051908152a180f35b503461022b57602036600319011261022b5760206105da6107b86126e6565b6141e1565b503461022b578060031936011261022b57602060cb54604051908152f35b503461022b57602036600319011261022b577f935ce123b6388f8dbf76890f8240a48198f1e0a884f26939aa604a46bb65b706602060043561081b6127bc565b8060ce55604051908152a180f35b503461022b578060031936011261022b57604051809160d354908183526020809301809260d383527f915c3eb987b20e1af620c1403197bf687fb7f18513b3a73fde6e78c7072c41a690835b8181106108d2575050508461088b9103856129a1565b60405193838594850191818652518092526040850193925b8281106108b257505050500390f35b83516001600160a01b0316855286955093810193928101926001016108a3565b82546001600160a01b031684529286019260019283019201610875565b503461022b57606036600319011261022b576109096126e6565b610911612712565b906044359061091f82613046565b61092983826138cb565b61093281612b99565b9161093c84612b99565b6001600160a01b0361094e8386613625565b50509416916040519063961be39160e01b8252602082600481875afa8015610b7057610990876001600160781b036020936004968d91610bbc575b5016612954565b946040519384809263705727b560e01b82525afa908115610b70576001600160781b036109cd926001600160a01b03948b91610b9d575016612954565b9116906040519263961be39160e01b8452602084600481865afa928315610b70576004948994610b7b575b506020906040519586809263705727b560e01b82525afa8015610b705786610a5c94610a5694610a4494610a62988d95610b3f575b506001600160781b038060ca549616931690613933565b610a5060cb5482613909565b90612954565b92612b99565b93612b99565b91604051926020846004816001600160a01b036339420b4560e11b998a8352165afa918215610b3457610aaa6020936004926001600160a01b03978a92610b1c575b50612a44565b9560405195869384928352165afa918215610b115790610ad3929160409592610ae05750612a44565b9082519182526020820152f35b610b0391925060203d602011610b0a575b610afb81836129a1565b8101906129c3565b9038610aa4565b503d610af1565b6040513d86823e3d90fd5b610b03919250863d8811610b0a57610afb81836129a1565b6040513d88823e3d90fd5b610b6291955060203d602011610b69575b610b5a81836129a1565b810190612b40565b9338610a2d565b503d610b50565b6040513d8a823e3d90fd5b6020919450610b9690823d8411610b6957610b5a81836129a1565b93906109f8565b610bb6915060203d602011610b6957610b5a81836129a1565b38610989565b610bb69150853d8711610b6957610b5a81836129a1565b503461022b57602036600319011261022b57600435610bf06127bc565b670de0b6b3a764000081116102b9576020817f294c562dcfcd9be941287844539aeba4ae641cd1fc9a2883337c6b2e87cbd98a9260ca55604051908152a180f35b503461022b57602036600319011261022b57610c4b6126e6565b610c53612ae2565b6001600160a01b03811680835260c960205260ff60408420541615610ccd57825260c960209081526040808420805460ff1916905580516001600160a01b03909316835233918301919091527fdb198487a4c70aa000c3b1020f52688b4b86d3ebcedc84a793e03ed3b480902c9190819081015b0390a180f35b60046040517f855b7373000000000000000000000000000000000000000000000000000000008152fd5b503461022b57610d0636612728565b919493909260a052608052610d19612bf6565b610d21612a92565b610d2d608051846138cb565b60a05115610f2f57610d4790610d428361291a565b612ebd565b610d5082612af6565b610d5982612b99565b610d64608051612b99565b91604051946339420b4560e11b93848752602060c0526001600160a01b0393848216956020896004818a5afa988915610f24578a99610f03575b5085821660e0526040519081528960c0518260048160e0515afa928315610ef6578795610dfe95610deb8d610de58198610df898610df19891610ed7575b5060a051612b5f565b93612b5f565b92613abf565b9990612a44565b97612a44565b941692610e1160a05160e0513387612c4b565b803b15610ed357604051639e79eaa560e01b81526001600160a01b0383166004820152602481018790529087908290604490829084905af18015610ec857610eb0575b50604080965051928352816080511660c05184015260a0518684015284606084015216907f54787c404bb33c88e86f4baf88183a3b0141d0a848e6a9f7a13b66ae3a9b73d160803392a36001606555825191825260c051820152f35b610eba8791612977565b610ec45785610e54565b8580fd5b6040513d89823e3d90fd5b8680fd5b610ef0915060c0513d8111610b0a57610afb81836129a1565b38610ddc565b50604051903d90823e3d90fd5b610f1d91995060c0513d8111610b0a57610afb81836129a1565b9738610d9e565b6040513d8c823e3d90fd5b60046040517fb483c10f000000000000000000000000000000000000000000000000000000008152fd5b503461022b57606036600319011261022b57610f736126e6565b602435906044356001600160a01b03808216918281036110ac57610f956127bc565b610f9e84612b99565b90610fa8856141e1565b86116102b95782879216906040516339420b4560e11b8152602081600481865afa8015610b1157610fe191859161108e575b5088612a44565b823b1561108a57604051639e79eaa560e01b81526001600160a01b0392909216600483015260248201529082908290604490829084905af1801561107f57611061575b50927f5f22a22ebe30686f71d42a70ccacf870a335e22ee2ac6d257af1b2551582eda692856060936040519316835260208301526040820152a180f35b61106e9094939294612977565b61107b5790918438611024565b8480fd5b6040513d84823e3d90fd5b8380fd5b6110a6915060203d8111610b0a57610afb81836129a1565b38610fda565b600080fd5b503461022b578060031936011261022b5760206001600160a01b0360cf5416604051908152f35b503461022b57604036600319011261022b5760206001600160a01b036110fc6126e6565b61111661110f6024359261024e84613046565b9182613625565b94919290506004604051809581936339420b4560e11b8352165afa918215610b115790610ad392916040959261114c5750612a44565b610b0391925060203d8111610b0a57610afb81836129a1565b503461022b578060031936011261022b5760206001600160a01b0360335416604051908152f35b503461022b578060031936011261022b57808160ca54928060d3545b8083106111e257604085610ad3886111dd6111d8896111d36111c987613337565b60028305906132df565b613377565b613392565b613a81565b9091936112226111f1866128cd565b91906001600160a01b03928391549060031b1c166001600160a01b0380911660005260d46020526040600020541690565b166040519063961be39160e01b82526020908183600481845afa928315610b34578693611340575b50816004916040519283809263705727b560e01b82525afa918215610b34578692611323575b50506001600160781b03809116918215611316571661128e90613337565b9481806002978882056112a0916132df565b906112aa91613377565b9182916112b6916132df565b966112c08a613337565b9082056112cc916132df565b906112d691613377565b6112df9161331e565b6112e891613354565b6112f1906132bb565b670de0b6b3a76400009005611305916132df565b9361130f90614319565b91906111a8565b5050509361130f90614319565b6113399250803d10610b6957610b5a81836129a1565b3880611270565b600491935061135c8391823d8411610b6957610b5a81836129a1565b93915061124a565b503461022b578060031936011261022b5761137d612ae2565b611385612a92565b600160ff1960975416176097557f62e78cea01bee320cd4e420270b5ea74000d11b0c9f74754ebdbfc544b05a2586020604051338152a180f35b503461022b578060031936011261022b57602060cd54604051908152f35b503461022b578060031936011261022b576113f66127bc565b60006001600160a01b036033546001600160a01b03198116603355167f8be0079c531659141344cd1fd0a4f28419497f9722a3daafe3b4186f6b6457e08280a380f35b503461022b578060031936011261022b57602060cc54604051908152f35b503461022b5760c036600319011261022b576114716126e6565b602435604435916114806126fc565b9260a43590811591821503610ec457611497612bf6565b61149f612a92565b8315610f2f576114ae8561291a565b6114b9608435612ebd565b6114c283612af6565b6114cb83612b99565b6001600160a01b0392838216906114e6878333888a16612c4b565b156115aa576020600491604051928380926339420b4560e11b82525afa908115610b70579261154d9261154789937ff5dd9317b9e63ac316ce44acc85f670b54b339cfa3e9076e1dd55065b922314b979660209c9161158d575b5089612b5f565b90612eef565b945b61157d8660405193849316963396846040919493926001600160a01b03606083019616825260208201520152565b0390a36001606555604051908152f35b6115a491508c3d8111610b0a57610afb81836129a1565b38611540565b906115bd8460d19994989599541661291a565b604051966339420b4560e11b88526020978881600481875afa9081156117ac576115fb9392916115f4918791611795575089612b5f565b3092612eef565b60d1546040517f095ea7b30000000000000000000000000000000000000000000000000000000081529089166001600160a01b0316600482015260248101829052909690818160448187875af18015610b1157611768575b508760d1541691604051907faf929a8000000000000000000000000000000000000000000000000000000000825260048201528181602481865afa918215610b1157849261173a575b5050813b156117365782916064839260405194859384927f90210d7e00000000000000000000000000000000000000000000000000000000845260048401528b60248401528c891660448401525af1801561107f57611722575b50506020947ff5dd9317b9e63ac316ce44acc85f670b54b339cfa3e9076e1dd55065b922314b9161154f565b61172c8291612977565b61022b57806116f6565b8280fd5b90809250813d8311611761575b61175181836129a1565b810103126110ac5751388061169c565b503d611747565b61178790823d841161178e575b61177f81836129a1565b810190612bde565b5038611653565b503d611775565b6115a491508b3d8d11610b0a57610afb81836129a1565b6040513d87823e3d90fd5b503461022b57604036600319011261022b576117d461024e6126e6565b6040516339420b4560e11b81526020816004816001600160a01b0386165afa9081156118465761181b92916118159160409591611828575b50602435612b5f565b906130a8565b8351928352602083015250f35b611840915060203d8111610b0a57610afb81836129a1565b3861180c565b6040513d85823e3d90fd5b503461022b578060031936011261022b57602060ce54604051908152f35b503461022b578060031936011261022b57602060ff609754166040519015158152f35b503461022b576118a1366127a6565b906118aa6127bc565b670de0b6b3a7640000818301116102b957825b60d35481101561191157806119076102536001600160a01b036118e261190c956128cd565b90549060031b1c166001600160a01b0380911660005260d46020526040600020541690565b614319565b6118bd565b506040907f032dc6a2d839eb179729a55633fdf1c41a1fc4739394154117005db2b354b9b5928060cc558160cd5582519182526020820152a180f35b503461022b57604061021f61021936612771565b503461022b57602036600319011261022b5761197b6126e6565b6119836127bc565b6119a6816001600160a01b0380911660005260d460205260406000205416151590565b15611a99576001600160a01b038091169081835260d4602052604083208054906001600160a01b03198216905560d5602052604084205460d3549060001991828101908111611a85576106a1856119ff611a24936128cd565b90549060031b1c169283895260d56020528060408a20558789528860408120556128cd565b905560d3548015611a715701611a39816128cd565b8482549160031b1b1916905560d35516907f0fa1e4606af435f32f05b3804033d2933e691fab32ee74d2db6fa82d2741f1ea8380a380f35b602486634e487b7160e01b81526031600452fd5b602487634e487b7160e01b81526011600452fd5b60046040517fecb004d4000000000000000000000000000000000000000000000000000000008152fd5b503461022b578060031936011261022b57611adc612ae2565b60975460ff811615611b1c5760ff19166097557f5db9ee0a495bf2e6ff9c91a7834c1ba4fdd244a5e8aa4e537bd38aeae4b073aa6020604051338152a180f35b606460405162461bcd60e51b815260206004820152601460248201527f5061757361626c653a206e6f74207061757365640000000000000000000000006044820152fd5b503461022b578060031936011261022b5760206001600160a01b0360d15416604051908152f35b503461022b57602036600319011261022b577fdcb65c0553aaa433aadd180404ff195259c48f78aa50f877ebcb4bb215129a4e610cc7611bc56126e6565b611bcd612ae2565b611bd681612af6565b6001600160a01b031680845260c960209081526040808620805460ff191660011790558051928352339183019190915290918291820190565b503461022b57611c62611c59611c2436612728565b611c35989495929793969198612bf6565b611c3d612a92565b611c468961291a565b611c4f87613046565b610d4286846138cb565b61024e81612af6565b611c6b83612b99565b94611c81856001600160a01b0384163381612c4b565b600090611c8d83614328565b611c978684613625565b5090926001600160a01b0385163b1561022b57604051632770a7eb60e21b81526001600160a01b038616600482015260248101899052818180604481010381836001600160a01b038b165af1801561107f57612048575b50906001600160a01b0385163b15611efb576040516313f3df3160e31b81528460048201528281602481836001600160a01b038b165af1801561184657908391612034575b50506001600160a01b0385163b15611efb576040519063d8b8785360e01b825260048201528181602481836001600160a01b038a165af1801561107f57908291612020575b505060405163705727b560e01b81526020816004816001600160a01b0389165afa90811561107f57906001600160781b03918391612001575b501615159081611f31575b50611f2057604051906339420b4560e11b82526020826004816001600160a01b038c165afa9182156117ac57611e019493928992610deb928892611eff575b50612b5f565b50604051906339420b4560e11b82526020826004816001600160a01b038a165afa9182156118465790611e3b92918492610ae05750612a44565b936001600160a01b0381163b15611efb57604051639e79eaa560e01b81526001600160a01b0387811660048301526024820187905290918391839160449183918591165af1801561107f57611ee7575b50507ffb80d861da582b723be2d19507ce3e03851820c464abea89156ec77e089b1ad96001600160a01b0360209561157d6040519283921695873396846040919493926001600160a01b03606083019616825260208201520152565b611ef18291612977565b61022b5780611e8b565b5080fd5b611f1991925060203d602011610b0a57610afb81836129a1565b9038611dfb565b60046040516316fde3bd60e21b8152fd5b60405163961be39160e01b815291506020826004816001600160a01b0389165afa918215610ef6578192611fe0575b5060405163705727b560e01b81526020816004816001600160a01b038a165afa918215611fd4576001600160781b03611fae93662386f26fc100009593829391611fb5575b501691166135f4565b1038611dbc565b611fce915060203d602011610b6957610b5a81836129a1565b38611fa5565b604051903d90823e3d90fd5b611ffa91925060203d602011610b6957610b5a81836129a1565b9038611f60565b61201a915060203d602011610b6957610b5a81836129a1565b38611db1565b61202990612977565b61022b578038611d78565b61203d90612977565b611efb578138611d33565b61205190612977565b38611cee565b503461022b5760a036600319011261022b576120716126e6565b6120796126fc565b612081612bf6565b612089612a92565b612094602435613046565b61209d8161291a565b6120a8608435612ebd565b6120b182612b99565b916120c96024356001600160a01b0385163381612c4b565b6040516339420b4560e11b81526020816004816001600160a01b0388165afa9081156117ac578591612425575b5061210381604435612b5f565b9061210d85614328565b61212661211c60243587613625565b5091908094613077565b6001600160a01b0386163b156110ac57604051632770a7eb60e21b81526001600160a01b03871660048201526024803590820152600090818180604481010381836001600160a01b038d165af1801561107f57612416575b50906001600160a01b0387163b15611efb576040516313f3df3160e31b81528460048201528281602481836001600160a01b038d165af1801561184657908391612402575b50506001600160a01b0387163b15611efb576040519063d8b8785360e01b825260048201528181602481836001600160a01b038c165af1801561107f579082916123ee575b505060405163705727b560e01b908181526020816004816001600160a01b038c165afa90811561184657906001600160781b039184916123cf575b501615159182612330575b5050611f205761225d91612a44565b926001600160a01b0381163b1561107b57846040518092639e79eaa560e01b825281836001600160a01b03826122ad8b8b60048401602090939291936001600160a01b0360408201951681520152565b0393165af180156117ac5761231c575b50602093507ffb80d861da582b723be2d19507ce3e03851820c464abea89156ec77e089b1ad96001600160a01b036040519316928061157d33948760243591846040919493926001600160a01b03606083019616825260208201520152565b6123268591612977565b61108a57836122bd565b60405163961be39160e01b81529250906020836004816001600160a01b038c165afa92831561107f5782936123ae575b506040519081526020816004816001600160a01b038c165afa918215611fd4576001600160781b036123a693662386f26fc100009593829391611fb557501691166135f4565b10388061224e565b6123c891935060203d602011610b6957610b5a81836129a1565b9138612360565b6123e8915060203d602011610b6957610b5a81836129a1565b38612243565b6123f790612977565b61022b578038612208565b61240b90612977565b611efb5781386121c3565b61241f90612977565b3861217e565b61243e915060203d602011610b0a57610afb81836129a1565b386120f6565b503461022b57604036600319011261022b5761245e6126e6565b9060243561246a612ae2565b6001600160a01b0361247b84612b99565b16604051632672469960e21b81526020908181600481865afa9081156117ac578591612603575b50604051906339420b4560e11b82528282600481875afa918215610b3457906124d2929187926125eb5750612b5f565b60405163961be39160e01b81528281600481875afa908115610b345761252193926001600160781b0360d293612511938a916125ce575b501690612954565b9184875252604085205490612954565b82116102b957803b156117365782809160246040518094819362b64f3d60e51b83528760048401525af180156118465761259d575b50604080516001600160a01b039094168452602084019190915290917f4941e18a2bcbb0f9fa0081238f26793a8ad8c202b913ae8bf5f7e523f68ff1379181908101610cc7565b916125c87f4941e18a2bcbb0f9fa0081238f26793a8ad8c202b913ae8bf5f7e523f68ff13793612977565b91612556565b6125e59150863d8811610b6957610b5a81836129a1565b38612509565b611f19919250843d8611610b0a57610afb81836129a1565b90508181813d8311612629575b61261a81836129a1565b8101031261107b5751386124a2565b503d612610565b503461022b57602036600319011261022b577ffeb9010869b6ccec4557ddbbce947afeace5efc66cdff52c5e533c09336a8f2d60206001600160a01b036126756126e6565b61267d6127bc565b6126868161291a565b16806001600160a01b031960d154161760d155604051908152a180f35b503461022b578060031936011261022b5760206001600160a01b0360d05416604051908152f35b905034611efb5781600319360112611efb5760209060ca548152f35b600435906001600160a01b03821682036110ac57565b606435906001600160a01b03821682036110ac57565b602435906001600160a01b03821682036110ac57565b60c09060031901126110ac576001600160a01b0360043581811681036110ac579160243582811681036110ac5791604435916064359160843590811681036110ac579060a43590565b60609060031901126110ac576001600160a01b039060043582811681036110ac579160243590811681036110ac579060443590565b60409060031901126110ac576004359060243590565b6001600160a01b036033541633036127d057565b606460405162461bcd60e51b815260206004820152602060248201527f4f776e61626c653a2063616c6c6572206973206e6f7420746865206f776e65726044820152fd5b603354906001600160a01b0380911691826001600160a01b0319821617603355167f8be0079c531659141344cd1fd0a4f28419497f9722a3daafe3b4186f6b6457e0600080a3565b1561286357565b608460405162461bcd60e51b815260206004820152602b60248201527f496e697469616c697a61626c653a20636f6e7472616374206973206e6f74206960448201527f6e697469616c697a696e670000000000000000000000000000000000000000006064820152fd5b60d3548110156129045760d36000527f915c3eb987b20e1af620c1403197bf687fb7f18513b3a73fde6e78c7072c41a60190600090565b634e487b7160e01b600052603260045260246000fd5b6001600160a01b03161561292a57565b60046040517f0bd3e3ed000000000000000000000000000000000000000000000000000000008152fd5b9190820391821161296157565b634e487b7160e01b600052601160045260246000fd5b67ffffffffffffffff811161298b57604052565b634e487b7160e01b600052604160045260246000fd5b90601f8019910116810190811067ffffffffffffffff82111761298b57604052565b908160209103126110ac575160ff811681036110ac5790565b60ff6011199116019060ff821161296157565b60ff166012039060ff821161296157565b60ff16604d811161296157600a0a90565b8181029291811591840414171561296157565b8115612a2e570490565b634e487b7160e01b600052601260045260246000fd5b9060ff81166012811015612a71575090612a68612a63612a6e936129ef565b612a00565b90612a24565b90565b601210612a7c575090565b90612a8c612a63612a6e936129dc565b90612a11565b60ff60975416612a9e57565b606460405162461bcd60e51b815260206004820152601060248201527f5061757361626c653a20706175736564000000000000000000000000000000006044820152fd5b6001600160a01b0360cf54163303611f2057565b6001600160a01b031660005260c960205260ff60406000205416612b1657565b60046040517f8654830a000000000000000000000000000000000000000000000000000000008152fd5b908160209103126110ac57516001600160781b03811681036110ac5790565b9060ff81166012811015612b7e575090612a8c612a63612a6e936129ef565b601210612b89575090565b90612a68612a63612a6e936129dc565b612bbc816001600160a01b0380911660005260d460205260406000205416151590565b15611a99576001600160a01b0380911660005260d46020526040600020541690565b908160209103126110ac575180151581036110ac5790565b600260655414612c07576002606555565b606460405162461bcd60e51b815260206004820152601f60248201527f5265656e7472616e637947756172643a207265656e7472616e742063616c6c006044820152fd5b93929190604051602093848201927f23b872dd0000000000000000000000000000000000000000000000000000000084526001600160a01b039485809216602485015216604483015260648201526064815260a081019267ffffffffffffffff968285108886111761298b57169060e081018481108882111761298b576040528484527f5361666545524332303a206c6f772d6c6576656c2063616c6c206661696c656460c0820152600080938192519082855af1903d15612ddd573d968711612dc957612d3a94959660405190612d2c88601f19601f84011601836129a1565b81528093873d92013e612dea565b80519081612d4757505050565b8280612d57938301019101612bde565b15612d5f5750565b6084906040519062461bcd60e51b82526004820152602a60248201527f5361666545524332303a204552433230206f7065726174696f6e20646964206e60448201527f6f742073756363656564000000000000000000000000000000000000000000006064820152fd5b602483634e487b7160e01b81526041600452fd5b9150612d3a939495506060915b91929015612e4b5750815115612dfe575090565b3b15612e075790565b606460405162461bcd60e51b815260206004820152601d60248201527f416464726573733a2063616c6c20746f206e6f6e2d636f6e74726163740000006044820152fd5b825190915015612e5e5750805190602001fd5b6040519062461bcd60e51b82528160208060048301528251908160248401526000935b828510612ea4575050604492506000838284010152601f80199101168101030190fd5b8481018201518686016044015293810193859350612e81565b4211612ec557565b60046040517f549b6335000000000000000000000000000000000000000000000000000000008152fd5b6001600160a01b0391929493612f0482614328565b612f0e84836130a8565b50939092612f26848099612f2182613046565b613077565b1690813b156110ac57604093845162b64f3d60e51b81526000966004820152868160248183885af1801561303c57613029575b50823b15610ec45784519063283c3d8160e21b82526004820152858160248183875af1801561301f5790869161300b575b5050813b1561107b5783517f40c10f190000000000000000000000000000000000000000000000000000000081526001600160a01b03919091166004820152602481019290925290919083908390604490829084905af19081156130025750612ff1575050565b612ffb8291612977565b61022b5750565b513d84823e3d90fd5b61301490612977565b61107b578438612f8a565b85513d88823e3d90fd5b61303590969196612977565b9438612f59565b86513d89823e3d90fd5b1561304d57565b60046040517f3f3835e7000000000000000000000000000000000000000000000000000000008152fd5b1161307e57565b60046040517ff512a720000000000000000000000000000000000000000000000000000000008152fd5b6000916001600160a01b036000921660409081519363961be39160e01b85526020938486600481865afa958615613262578296613243575b5083519063705727b560e01b968783528683600481885afa928315613239578493613212575b5061312661312b9160ca54906001600160781b03808097169116856133a3565b61326c565b9781891061320957508703955b84519081528581600481875afa9081156131ff5783916131e2575b501693846131645750505050508192565b806004938551948580926318160ddd60e01b82525afa9384156131d7575081936131a2575b5050509061319a61319f9285612a11565b612a24565b92565b9091809350813d83116131d0575b6131ba81836129a1565b8101031261022b57505161319a61319f38613189565b503d6131b0565b51913d9150823e3d90fd5b6131f99150863d8811610b6957610b5a81836129a1565b38613153565b85513d85823e3d90fd5b96975096613138565b61312b91935061323161312691893d8b11610b6957610b5a81836129a1565b939150613106565b86513d86823e3d90fd5b61325b919650853d8711610b6957610b5a81836129a1565b94386130e0565b84513d84823e3d90fd5b600081126132775790565b606460405162461bcd60e51b815260206004820152601660248201527f76616c7565206d75737420626520706f736974697665000000000000000000006044820152fd5b906706f05b59d3b20000916000838201938412911290801582169115161761296157565b9190916000838201938412911290801582169115161761296157565b90670de0b6b3a76400006000838203931281841281169184139015161761296157565b8181039291600013801582851316918412161761296157565b90670de0b6b3a76400009182810292818405149015171561296157565b818102929160008212600160ff1b82141661296157818405149015171561296157565b8115612a2e57600160ff1b8114600019831416612961570590565b600160ff1b81146129615760000390565b9190811561353e5760006133b784836132df565b12613514576133d6816133d0846111d36111c984613337565b946132df565b670de0b6b3a764000091826133fb6133f66133f0896132fb565b85613354565b6132bb565b05908361340b6133f6878a613354565b05908160011b9160028305036129615761342885939284936132df565b96613433878a613354565b9061343d91613377565b6134469161331e565b6134509084613354565b613459906132bb565b05918061346591613354565b61346e906132bb565b056134789161331e565b91816134848287613354565b61348d906132bb565b059061349891613354565b6134a1906132bb565b056134ab916132df565b916134b68280613354565b928160021b9060048205830361296157613502613510946134fc6134ec6002986134e6613507966111d398613354565b9061331e565b916134f681613392565b92613545565b906132df565b613337565b848305906132df565b0590565b60046040517fae032660000000000000000000000000000000000000000000000000000000008152fd5b5050905090565b9190600060038413156135e5575060008113806135db575b156135a457915b60028061357a856135758186613377565b6132df565b05915b84830361358957505050565b919350908161359c856135758185613377565b05919061357d565b60008112806135c9575b156135c2576135bc90613392565b91613564565b5081613564565b50826135d482613392565b13156135ae565b508281131561355d565b9290506135ee57565b60019150565b90670de0b6b3a764000091828102928184041490151715612961578060011c820180921161296157612a6e91612a24565b916000926001600160a01b036000911690604080519063705727b560e01b938483526020968784600481855afa9384156138c157859461389e575b50613675906001600160781b03809516612a11565b82516318160ddd60e01b81528881600481865afa908115613894578691613865575b506136a191612a24565b966136ab88613046565b6136b488613392565b94835163961be39160e01b81528281600481875afa90811561385b5783918791849161383e575b501697600486518096819382525afa938415613834575092613817575b5050169060ca549061370a81846132df565b908361371586613337565b60028205613722916132df565b9061372c91613377565b809461373785613337565b90670de0b6b3a764000096808894936002869505613754916132df565b9061375e91613377565b6137679161331e565b61377091613354565b613779906132bb565b0591613784856132fb565b61378d91613354565b613796906132bb565b056137a0916132df565b600290059283926137b18480613354565b92806137bc91613354565b6137c591613354565b6137ce906132bb565b056137d8916132df565b906137e291613545565b6137eb916132df565b6137f49161331e565b6137fd9061326c565b928383106138105750612a6e8383612954565b9092508192565b61382d9250803d10610b6957610b5a81836129a1565b38806136f8565b51903d90823e3d90fd5b6138559150833d8511610b6957610b5a81836129a1565b386136db565b85513d84823e3d90fd5b90508881813d831161388d575b61387c81836129a1565b81010312610ec457516136a1613697565b503d613872565b84513d88823e3d90fd5b6136759194506138ba90893d8b11610b6957610b5a81836129a1565b9390613660565b83513d87823e3d90fd5b6001600160a01b039081169116146138df57565b60046040517feeb7911f000000000000000000000000000000000000000000000000000000008152fd5b9061391391612a11565b6706f05b59d3b20000810180911161296157670de0b6b3a7640000900490565b9390949180158015613a79575b613514578381819261395289896132df565b978061395e8380613354565b9061396891613377565b98670de0b6b3a7640000809a8c61397f8880613354565b9061398991613377565b613992916132df565b61399c908a613354565b6139a5906132bb565b056139af9161331e565b956139b9916132df565b6139c290613337565b600282056139cf916132df565b906139d991613377565b806139e387613337565b600282056139f0916132df565b906139fa91613377565b613a039161331e565b613a0c91613354565b90613a1691613377565b91613a2090613337565b60028205613a2d916132df565b90613a3791613377565b613a409161331e565b90613a4a91613a81565b613a5391613354565b613a5c906132bb565b0590613a679161331e565b6000811215612a6e57612a6e90613392565b508315613940565b613a8b8180613354565b908260021b928084056004149015171561296157613aba81613ab5613510946134fc600297613337565b613545565b61331e565b90929391613ace818584613c6a565b90948195613add818099613077565b6000926001600160a01b038093169485855260209360d285526040978887208481540190551690813b15610ec4578591602483928a51948593849262b64f3d60e51b845260048401525af18015613c6057613c4d575b50843b1561108a578551916313f3df3160e31b8352016004820152828160248183885af180156131ff57908391613c39575b505083519263961be39160e01b84528184600481845afa9384156131ff578394613c13575b50908060049286519384809263705727b560e01b82525afa928315613c085791613bd39391662386f26fc10000959392613beb575b50506001600160781b0380911691166135f4565b10613bdb5750565b600490516316fde3bd60e21b8152fd5b613c019250803d10610b6957610b5a81836129a1565b3880613bbf565b8551903d90823e3d90fd5b8291945091613c30600493823d8411610b6957610b5a81836129a1565b94919250613b8a565b613c4290612977565b611efb578138613b65565b613c5990949194612977565b9238613b33565b87513d87823e3d90fd5b9190600092838312613ebf575b6001600160a01b038091169360409081519063961be39160e01b91828152602095600495878388818d5afa9283156132395790849392918b969593613ea0575b5086519189838a8163705727b560e01b9a8b82525afa928315613e58578593613e81575b50169086519285845289848a81865afa938415613e58578594613e62575b50896001600160781b03809516978a8a518096819382525afa928315613e5857918b91613d3b94938794613e39575b508886808060ca54971694169216613933565b988289139788958b9087613e2f575b50508515613dbb575b5050505050613d9557505015613d7d5750613d7a613d7360cb5483613909565b8092612954565b91565b9190613d8c612a6e9193613392565b60cb5490613909565b517f9a6114b7000000000000000000000000000000000000000000000000000000008152fd5b9091928094955089129485613dda575b50505050503880808080613d53565b8192939495508787518095819382525afa938415613c085793613e10575b5050613e0386613392565b9116103880808080613dcb565b613e27929350803d10610b6957610b5a81836129a1565b903880613df8565b1095508a38613d4a565b613e519194508c8d3d10610b6957610b5a81836129a1565b9238613d28565b88513d87823e3d90fd5b613e7a9194508a3d8c11610b6957610b5a81836129a1565b9238613cf9565b613e999193508a3d8c11610b6957610b5a81836129a1565b9138613cdb565b613eb8919350893d8b11610b6957610b5a81836129a1565b9138613cb7565b91613edb906111d36111c9613ed560cb546132fb565b92613337565b91613c77565b92909192613eef83826138cb565b8315610f2f57610a56613f0191612b99565b916001600160a01b03938482166040958651926339420b4560e11b908185526020958686600481885afa95861561404b578996613f5293613f4a9260009261402c575b50614056565b988991613c6a565b9092819516938951938385528785600481895afa948515614021578895600092613f829284926140095750612a44565b9912613fdd575050600488518094819382525afa928315613fd257612a6e94959650600093613fb3575b5050612a44565b613fca929350803d10610b0a57610afb81836129a1565b903880613fac565b86513d6000823e3d90fd5b93509350600488518094819382525afa928315613fd257612a6e94959650600093613fb3575050612a44565b610b03919250883d8a11610b0a57610afb81836129a1565b8b513d6000823e3d90fd5b6140449192508a3d8c11610b0a57610afb81836129a1565b9038613f44565b8a513d6000823e3d90fd5b9060ff8116601281101561407b575090614075612a63612a6e936129ef565b90613354565b601210614086575090565b90614096612a63612a6e936129dc565b90613377565b6140ad6001600160a01b0391612b99565b1660408051916318160ddd60e01b928381526020908181600481865afa908115614199576000916141b4575b50156141a45782519363705727b560e01b85528185600481865afa94851561419957600095614178575b508190600485518095819382525afa92831561416e5750600092614136575b50506001600160781b03612a6e92166135f4565b81819392933d8311614167575b61414d81836129a1565b8101031261022b5750516001600160781b03612a6e614122565b503d614143565b513d6000823e3d90fd5b8291955061419290823d8411610b6957610b5a81836129a1565b9490614103565b84513d6000823e3d90fd5b50505050670de0b6b3a764000090565b908282813d83116141da575b6141ca81836129a1565b8101031261022b575051386140d9565b503d6141c0565b6141f26001600160a01b0391612b99565b166040805190632672469960e21b82526020918281600481875afa90811561430e576000916142e1575b508151906339420b4560e11b82528382600481885afa9182156142be579061424c92916000926142c95750612b5f565b9181519363961be39160e01b85528185600481845afa9485156142be5760009561428f575b506001600160781b03929160d2916000525260002054921690030390565b60d2919550916142b46001600160781b039493823d8411610b6957610b5a81836129a1565b9591509192614271565b83513d6000823e3d90fd5b611f19919250853d8711610b0a57610afb81836129a1565b908382813d8311614307575b6142f781836129a1565b8101031261022b5750513861421c565b503d6142ed565b82513d6000823e3d90fd5b60001981146129615760010190565b6000906001600160a01b03908181169081845260d26020526040928385205490811580156144fa575b6144f25760cd54670de0b6b3a7640000908103908111611a855761437b6143819160cc5490612954565b83613909565b9081614458575b505060cd5461439691613909565b90816143ab575b5050825260d2602052812055565b816143b5916130a8565b509050823b1561107b5783519063283c3d8160e21b82526004820152848160248183875af1801561444e5790859161443a575b5050813b1561108a5782519062b64f3d60e51b82526004820152838160248183865af1801561442d579084911561439d5761442290612977565b61173657823861439d565b50505051903d90823e3d90fd5b61444390612977565b61108a5783386143e8565b84513d87823e3d90fd5b60d05416908551906339420b4560e11b8252602082600481895afa9182156144e8579061448c9291899261114c5750612a44565b90843b15610ed3578551639e79eaa560e01b81526001600160a01b039190911660048201526024810191909152858160448183885af1801561301f576144d3575b80614388565b946144e16143969296612977565b94906144cd565b87513d8a823e3d90fd5b505050505050565b5060ce54821061435156fea26469706673582212204c189fb767adc667c322bfecefbea5ca3d44c446695a5119bfb10d63b246959764736f6c63430008120033",
  "devdoc": {
    "details": "The main entry-point of Wombat protocol Note: All variables are 18 decimals, except from that of underlying tokens Change log: - add `gap` to prevent storage collision for future upgrades",
    "events": {
      "Initialized(uint8)": {
        "details": "Triggered when the contract has been initialized or reinitialized."
      },
      "Paused(address)": {
        "details": "Emitted when the pause is triggered by `account`."
      },
      "PausedAsset(address,address)": {
        "details": "Emitted when the pause is triggered by `account`."
      },
      "Unpaused(address)": {
        "details": "Emitted when the pause is lifted by `account`."
      },
      "UnpausedAsset(address,address)": {
        "details": "Emitted when the pause is lifted by `account`."
      }
    },
    "kind": "dev",
    "methods": {
      "addAsset(address,address)": {
        "params": {
          "asset": "The address of the Wombat Asset contract",
          "token": "The address of token"
        }
      },
      "addressOfAsset(address)": {
        "details": "to be used externally",
        "params": {
          "token": "The address of ERC20 token"
        }
      },
      "deposit(address,uint256,uint256,address,uint256,bool)": {
        "details": "Asset needs to be created and added to pool before any operation. This function assumes tax free token.",
        "params": {
          "amount": "The amount to be deposited",
          "deadline": "The deadline to be respected",
          "to": "The user accountable for deposit, receiving the Wombat assets (lp)",
          "token": "The token address to be deposited"
        },
        "returns": {
          "liquidity": "Total asset liquidity minted"
        }
      },
      "exchangeRate(address)": {
        "params": {
          "token": "The address of the token"
        },
        "returns": {
          "xr": "The exchange rate of LP token"
        }
      },
      "mintFee(address)": {
        "params": {
          "token": "The address of the token to collect fee"
        }
      },
      "owner()": {
        "details": "Returns the address of the current owner."
      },
      "pause()": {
        "details": "pause pool, restricting certain operations"
      },
      "pauseAsset(address)": {
        "details": "pause asset, restricting deposit and swap operations"
      },
      "paused()": {
        "details": "Returns true if the contract is paused, and false otherwise."
      },
      "quoteAmountIn(address,address,int256)": {
        "details": "To be used by frontend",
        "params": {
          "fromToken": "The initial ERC20 token",
          "toAmount": "The given output amount",
          "toToken": "The token wanted by user"
        },
        "returns": {
          "amountIn": "The input amount required",
          "haircut": "The haircut that would be applied"
        }
      },
      "quotePotentialDeposit(address,uint256)": {
        "details": "To be used by frontend",
        "params": {
          "amount": "The amount to deposit",
          "token": "The token to deposit by user"
        },
        "returns": {
          "liquidity": "The potential liquidity user would receive",
          "reward": "reward"
        }
      },
      "quotePotentialSwap(address,address,int256)": {
        "details": "In reverse quote, the haircut is in the `fromAsset`",
        "params": {
          "fromAmount": "The given input amount",
          "fromToken": "The initial ERC20 token",
          "toToken": "The token wanted by user"
        },
        "returns": {
          "haircut": "The haircut that would be applied",
          "potentialOutcome": "The potential amount user would receive"
        }
      },
      "quotePotentialWithdraw(address,uint256)": {
        "details": "To be used by frontend",
        "params": {
          "liquidity": "The liquidity (amount of lp assets) to be withdrawn",
          "token": "The token to be withdrawn by user"
        },
        "returns": {
          "amount": "The potential amount user would receive",
          "fee": "The fee that would be applied"
        }
      },
      "quotePotentialWithdrawFromOtherAsset(address,address,uint256)": {
        "details": "To be used by frontend",
        "params": {
          "fromToken": "The corresponding token user holds the LP (Asset) from",
          "liquidity": "The liquidity (amount of the lp assets) to be withdrawn",
          "toToken": "The token wanting to be withdrawn (needs to be well covered)"
        },
        "returns": {
          "amount": "The potential amount user would receive",
          "withdrewAmount": "The amount of the from-token that is withdrew"
        }
      },
      "removeAsset(address)": {
        "details": "Can only be called by owner",
        "params": {
          "token": "The address of token to remove"
        }
      },
      "renounceOwnership()": {
        "details": "Leaves the contract without owner. It will not be possible to call `onlyOwner` functions anymore. Can only be called by the current owner. NOTE: Renouncing ownership will leave the contract without an owner, thereby removing any functionality that is only available to the owner."
      },
      "setAmpFactor(uint256)": {
        "params": {
          "ampFactor_": "new pool's amplification factor"
        }
      },
      "setDev(address)": {
        "params": {
          "dev_": "new contract dev address"
        }
      },
      "setFeeTo(address)": {
        "params": {
          "feeTo_": "new fee beneficiary"
        }
      },
      "setHaircutRate(uint256)": {
        "params": {
          "haircutRate_": "new pool's haircutRate_"
        }
      },
      "swap(address,address,uint256,uint256,address,uint256)": {
        "details": "This function assumes tax free token.",
        "params": {
          "deadline": "The deadline to be respected",
          "fromAmount": "The amount of from token inserted",
          "fromToken": "The token being inserted into Pool by user for swap",
          "minimumToAmount": "The minimum amount that will be accepted by user as result",
          "to": "The user receiving the result of swap",
          "toToken": "The token wanted by user, leaving the Pool"
        }
      },
      "transferOwnership(address)": {
        "details": "Transfers ownership of the contract to a new account (`newOwner`). Can only be called by the current owner."
      },
      "transferTipBucket(address,uint256,address)": {
        "details": "unit of amount should be in WAD"
      },
      "unpause()": {
        "details": "unpause pool, enabling certain operations"
      },
      "unpauseAsset(address)": {
        "details": "unpause asset, enabling deposit and swap operations"
      },
      "withdraw(address,uint256,uint256,address,uint256)": {
        "params": {
          "deadline": "The deadline to be respected",
          "liquidity": "The liquidity to be withdrawn",
          "minimumAmount": "The minimum amount that will be accepted by user",
          "to": "The user receiving the withdrawal",
          "token": "The token to be withdrawn"
        },
        "returns": {
          "amount": "The total amount withdrawn"
        }
      },
      "withdrawFromOtherAsset(address,address,uint256,uint256,address,uint256)": {
        "params": {
          "deadline": "The deadline to be respected",
          "fromToken": "The corresponding token user holds the LP (Asset) from",
          "liquidity": "The liquidity to be withdrawn (in fromToken decimal)",
          "minimumAmount": "The minimum amount that will be accepted by user",
          "to": "The user receiving the withdrawal",
          "toToken": "The token wanting to be withdrawn (needs to be well covered)"
        },
        "returns": {
          "toAmount": "The total amount withdrawn"
        }
      }
    },
    "title": "Pool V2",
    "version": 1
  },
  "userdoc": {
    "events": {
      "AssetAdded(address,address)": {
        "notice": "An event thats emitted when an asset is added to Pool"
      },
      "AssetRemoved(address,address)": {
        "notice": "An event thats emitted when asset is removed from Pool"
      },
      "Deposit(address,address,uint256,uint256,address)": {
        "notice": "An event thats emitted when a deposit is made to Pool"
      },
      "Swap(address,address,address,uint256,uint256,address)": {
        "notice": "An event thats emitted when a swap is made in Pool"
      },
      "Withdraw(address,address,uint256,uint256,address)": {
        "notice": "An event thats emitted when a withdrawal is made from Pool"
      }
    },
    "kind": "user",
    "methods": {
      "addAsset(address,address)": {
        "notice": "Adds asset to pool, reverts if asset already exists in pool"
      },
      "addressOfAsset(address)": {
        "notice": "Gets Asset corresponding to ERC20 token. Reverts if asset does not exists in Pool."
      },
      "ampFactor()": {
        "notice": "Amplification factor"
      },
      "deposit(address,uint256,uint256,address,uint256,bool)": {
        "notice": "Deposits amount of tokens into pool ensuring deadline"
      },
      "dev()": {
        "notice": "Dev address"
      },
      "exchangeRate(address)": {
        "notice": "Returns the exchange rate of the LP token"
      },
      "fillPool(address,uint256)": {
        "notice": "Move fund from tip bucket to the pool to keep r* = 1 as error accumulates unit of amount should be in WAD"
      },
      "getTokens()": {
        "notice": "Return list of tokens in the pool"
      },
      "haircutRate()": {
        "notice": "Haircut rate"
      },
      "initialize(uint256,uint256)": {
        "notice": "Initializes pool. Dev is set to be the account calling this function."
      },
      "lpDividendRatio()": {
        "notice": "LP dividend ratio : the ratio of haircut that should distribute to LP"
      },
      "mintFee(address)": {
        "notice": "Send fee collected to the fee beneficiary"
      },
      "mintFeeThreshold()": {
        "notice": "The threshold to mint fee (unit: WAD)"
      },
      "quoteAmountIn(address,address,int256)": {
        "notice": "Returns the minimum input asset amount required to buy the given output asset amount (accounting for fees and slippage)"
      },
      "quotePotentialDeposit(address,uint256)": {
        "notice": "Quotes potential deposit from pool"
      },
      "quotePotentialSwap(address,address,int256)": {
        "notice": "Given an input asset amount and token addresses, calculates the maximum output token amount (accounting for fees and slippage)."
      },
      "quotePotentialWithdraw(address,uint256)": {
        "notice": "Quotes potential withdrawal from pool"
      },
      "quotePotentialWithdrawFromOtherAsset(address,address,uint256)": {
        "notice": "Quotes potential withdrawal from other asset from the pool"
      },
      "removeAsset(address)": {
        "notice": "Removes asset from asset struct"
      },
      "retentionRatio()": {
        "notice": "Retention ratio: the ratio of haircut that should stay in the pool"
      },
      "setAmpFactor(uint256)": {
        "notice": "Changes the pools amplification factor. Can only be set by the contract owner."
      },
      "setDev(address)": {
        "notice": "Changes the contract dev. Can only be set by the contract owner."
      },
      "setFeeTo(address)": {
        "notice": "Changes the fee beneficiary. Can only be set by the contract owner. This value cannot be set to 0 to avoid unsettled fee."
      },
      "setHaircutRate(uint256)": {
        "notice": "Changes the pools haircutRate. Can only be set by the contract owner."
      },
      "setMintFeeThreshold(uint256)": {
        "notice": "Set min fee to mint"
      },
      "swap(address,address,uint256,uint256,address,uint256)": {
        "notice": "Swap fromToken for toToken, ensures deadline and minimumToAmount and sends quoted amount to `to` address"
      },
      "withdraw(address,uint256,uint256,address,uint256)": {
        "notice": "Withdraws liquidity amount of asset to `to` address ensuring minimum amount required"
      },
      "withdrawFromOtherAsset(address,address,uint256,uint256,address,uint256)": {
        "notice": "Enables withdrawing liquidity from an asset using LP from a different asset"
      }
    },
    "notice": "Manages deposits, withdrawals and swaps. Holds a mapping of assets and parameters.",
    "version": 1
  },
  "storageLayout": {
    "storage": [
      {
        "astId": 138,
        "contract": "contracts/wombat-core/pool/PoolV2.sol:PoolV2",
        "label": "_initialized",
        "offset": 0,
        "slot": "0",
        "type": "t_uint8"
      },
      {
        "astId": 141,
        "contract": "contracts/wombat-core/pool/PoolV2.sol:PoolV2",
        "label": "_initializing",
        "offset": 1,
        "slot": "0",
        "type": "t_bool"
      },
      {
        "astId": 825,
        "contract": "contracts/wombat-core/pool/PoolV2.sol:PoolV2",
        "label": "__gap",
        "offset": 0,
        "slot": "1",
        "type": "t_array(t_uint256)50_storage"
      },
      {
        "astId": 10,
        "contract": "contracts/wombat-core/pool/PoolV2.sol:PoolV2",
        "label": "_owner",
        "offset": 0,
        "slot": "51",
        "type": "t_address"
      },
      {
        "astId": 130,
        "contract": "contracts/wombat-core/pool/PoolV2.sol:PoolV2",
        "label": "__gap",
        "offset": 0,
        "slot": "52",
        "type": "t_array(t_uint256)49_storage"
      },
      {
        "astId": 441,
        "contract": "contracts/wombat-core/pool/PoolV2.sol:PoolV2",
        "label": "_status",
        "offset": 0,
        "slot": "101",
        "type": "t_uint256"
      },
      {
        "astId": 499,
        "contract": "contracts/wombat-core/pool/PoolV2.sol:PoolV2",
        "label": "__gap",
        "offset": 0,
        "slot": "102",
        "type": "t_array(t_uint256)49_storage"
      },
      {
        "astId": 321,
        "contract": "contracts/wombat-core/pool/PoolV2.sol:PoolV2",
        "label": "_paused",
        "offset": 0,
        "slot": "151",
        "type": "t_bool"
      },
      {
        "astId": 426,
        "contract": "contracts/wombat-core/pool/PoolV2.sol:PoolV2",
        "label": "__gap",
        "offset": 0,
        "slot": "152",
        "type": "t_array(t_uint256)49_storage"
      },
      {
        "astId": 15048,
        "contract": "contracts/wombat-core/pool/PoolV2.sol:PoolV2",
        "label": "_pausedAssets",
        "offset": 0,
        "slot": "201",
        "type": "t_mapping(t_address,t_bool)"
      },
      {
        "astId": 17936,
        "contract": "contracts/wombat-core/pool/PoolV2.sol:PoolV2",
        "label": "ampFactor",
        "offset": 0,
        "slot": "202",
        "type": "t_uint256"
      },
      {
        "astId": 17939,
        "contract": "contracts/wombat-core/pool/PoolV2.sol:PoolV2",
        "label": "haircutRate",
        "offset": 0,
        "slot": "203",
        "type": "t_uint256"
      },
      {
        "astId": 17942,
        "contract": "contracts/wombat-core/pool/PoolV2.sol:PoolV2",
        "label": "retentionRatio",
        "offset": 0,
        "slot": "204",
        "type": "t_uint256"
      },
      {
        "astId": 17945,
        "contract": "contracts/wombat-core/pool/PoolV2.sol:PoolV2",
        "label": "lpDividendRatio",
        "offset": 0,
        "slot": "205",
        "type": "t_uint256"
      },
      {
        "astId": 17948,
        "contract": "contracts/wombat-core/pool/PoolV2.sol:PoolV2",
        "label": "mintFeeThreshold",
        "offset": 0,
        "slot": "206",
        "type": "t_uint256"
      },
      {
        "astId": 17951,
        "contract": "contracts/wombat-core/pool/PoolV2.sol:PoolV2",
        "label": "dev",
        "offset": 0,
        "slot": "207",
        "type": "t_address"
      },
      {
        "astId": 17953,
        "contract": "contracts/wombat-core/pool/PoolV2.sol:PoolV2",
        "label": "feeTo",
        "offset": 0,
        "slot": "208",
        "type": "t_address"
      },
      {
        "astId": 17955,
        "contract": "contracts/wombat-core/pool/PoolV2.sol:PoolV2",
        "label": "masterWombat",
        "offset": 0,
        "slot": "209",
        "type": "t_address"
      },
      {
        "astId": 17961,
        "contract": "contracts/wombat-core/pool/PoolV2.sol:PoolV2",
        "label": "_feeCollected",
        "offset": 0,
        "slot": "210",
        "type": "t_mapping(t_contract(IAsset)6620,t_uint256)"
      },
      {
        "astId": 17965,
        "contract": "contracts/wombat-core/pool/PoolV2.sol:PoolV2",
        "label": "_assets",
        "offset": 0,
        "slot": "211",
        "type": "t_struct(AssetMap)17933_storage"
      },
      {
        "astId": 17967,
        "contract": "contracts/wombat-core/pool/PoolV2.sol:PoolV2",
        "label": "_used1",
        "offset": 0,
        "slot": "214",
        "type": "t_uint128"
      },
      {
        "astId": 17969,
        "contract": "contracts/wombat-core/pool/PoolV2.sol:PoolV2",
        "label": "_used2",
        "offset": 16,
        "slot": "214",
        "type": "t_uint128"
      },
      {
        "astId": 17973,
        "contract": "contracts/wombat-core/pool/PoolV2.sol:PoolV2",
        "label": "gap",
        "offset": 0,
        "slot": "215",
        "type": "t_array(t_uint256)49_storage"
      }
    ],
    "types": {
      "t_address": {
        "encoding": "inplace",
        "label": "address",
        "numberOfBytes": "20"
      },
      "t_array(t_address)dyn_storage": {
        "base": "t_address",
        "encoding": "dynamic_array",
        "label": "address[]",
        "numberOfBytes": "32"
      },
      "t_array(t_uint256)49_storage": {
        "base": "t_uint256",
        "encoding": "inplace",
        "label": "uint256[49]",
        "numberOfBytes": "1568"
      },
      "t_array(t_uint256)50_storage": {
        "base": "t_uint256",
        "encoding": "inplace",
        "label": "uint256[50]",
        "numberOfBytes": "1600"
      },
      "t_bool": {
        "encoding": "inplace",
        "label": "bool",
        "numberOfBytes": "1"
      },
      "t_contract(IAsset)6620": {
        "encoding": "inplace",
        "label": "contract IAsset",
        "numberOfBytes": "20"
      },
      "t_mapping(t_address,t_bool)": {
        "encoding": "mapping",
        "key": "t_address",
        "label": "mapping(address => bool)",
        "numberOfBytes": "32",
        "value": "t_bool"
      },
      "t_mapping(t_address,t_contract(IAsset)6620)": {
        "encoding": "mapping",
        "key": "t_address",
        "label": "mapping(address => contract IAsset)",
        "numberOfBytes": "32",
        "value": "t_contract(IAsset)6620"
      },
      "t_mapping(t_address,t_uint256)": {
        "encoding": "mapping",
        "key": "t_address",
        "label": "mapping(address => uint256)",
        "numberOfBytes": "32",
        "value": "t_uint256"
      },
      "t_mapping(t_contract(IAsset)6620,t_uint256)": {
        "encoding": "mapping",
        "key": "t_contract(IAsset)6620",
        "label": "mapping(contract IAsset => uint256)",
        "numberOfBytes": "32",
        "value": "t_uint256"
      },
      "t_struct(AssetMap)17933_storage": {
        "encoding": "inplace",
        "label": "struct PoolV2.AssetMap",
        "members": [
          {
            "astId": 17923,
            "contract": "contracts/wombat-core/pool/PoolV2.sol:PoolV2",
            "label": "keys",
            "offset": 0,
            "slot": "0",
            "type": "t_array(t_address)dyn_storage"
          },
          {
            "astId": 17928,
            "contract": "contracts/wombat-core/pool/PoolV2.sol:PoolV2",
            "label": "values",
            "offset": 0,
            "slot": "1",
            "type": "t_mapping(t_address,t_contract(IAsset)6620)"
          },
          {
            "astId": 17932,
            "contract": "contracts/wombat-core/pool/PoolV2.sol:PoolV2",
            "label": "indexOf",
            "offset": 0,
            "slot": "2",
            "type": "t_mapping(t_address,t_uint256)"
          }
        ],
        "numberOfBytes": "96"
      },
      "t_uint128": {
        "encoding": "inplace",
        "label": "uint128",
        "numberOfBytes": "16"
      },
      "t_uint256": {
        "encoding": "inplace",
        "label": "uint256",
        "numberOfBytes": "32"
      },
      "t_uint8": {
        "encoding": "inplace",
        "label": "uint8",
        "numberOfBytes": "1"
      }
    }
  }
}