{
  "address": "0x9a59F56F96A780F74167eC911ca59699bfc73bA6",
  "abi": [
    {
      "inputs": [],
      "name": "CORE_CASH_NOT_ENOUGH",
      "type": "error"
    },
    {
      "inputs": [],
      "name": "CORE_COV_RATIO_LIMIT_EXCEEDED",
      "type": "error"
    },
    {
      "inputs": [],
      "name": "CORE_INVALID_HIGH_COV_RATIO_FEE",
      "type": "error"
    },
    {
      "inputs": [],
      "name": "CORE_INVALID_VALUE",
      "type": "error"
    },
    {
      "inputs": [],
      "name": "CORE_UNDERFLOW",
      "type": "error"
    },
    {
      "inputs": [],
      "name": "CORE_ZERO_LIQUIDITY",
      "type": "error"
    },
    {
      "inputs": [
        {
          "internalType": "int256",
          "name": "D",
          "type": "int256"
        },
        {
          "internalType": "int256",
          "name": "SL",
          "type": "int256"
        },
        {
          "internalType": "int256",
          "name": "A",
          "type": "int256"
        }
      ],
      "name": "equilCovRatio",
      "outputs": [
        {
          "internalType": "int256",
          "name": "er",
          "type": "int256"
        }
      ],
      "stateMutability": "pure",
      "type": "function"
    },
    {
      "inputs": [
        {
          "internalType": "int256",
          "name": "D_i",
          "type": "int256"
        },
        {
          "internalType": "int256",
          "name": "A_i",
          "type": "int256"
        },
        {
          "internalType": "int256",
          "name": "L_i",
          "type": "int256"
        },
        {
          "internalType": "int256",
          "name": "A",
          "type": "int256"
        },
        {
          "internalType": "int256",
          "name": "_equilCovRatio",
          "type": "int256"
        }
      ],
      "name": "exactDepositLiquidityImpl",
      "outputs": [
        {
          "internalType": "int256",
          "name": "liquidity",
          "type": "int256"
        }
      ],
      "stateMutability": "pure",
      "type": "function"
    },
    {
      "inputs": [
        {
          "internalType": "int256",
          "name": "D_i",
          "type": "int256"
        },
        {
          "internalType": "int256",
          "name": "A_i",
          "type": "int256"
        },
        {
          "internalType": "int256",
          "name": "L_i",
          "type": "int256"
        },
        {
          "internalType": "int256",
          "name": "A",
          "type": "int256"
        }
      ],
      "name": "exactDepositLiquidityInEquilImpl",
      "outputs": [
        {
          "internalType": "int256",
          "name": "liquidity",
          "type": "int256"
        }
      ],
      "stateMutability": "pure",
      "type": "function"
    },
    {
      "inputs": [
        {
          "internalType": "uint256",
          "name": "fromAssetCash",
          "type": "uint256"
        },
        {
          "internalType": "uint256",
          "name": "fromAssetLiability",
          "type": "uint256"
        },
        {
          "internalType": "uint256",
          "name": "fromAmount",
          "type": "uint256"
        },
        {
          "internalType": "uint256",
          "name": "quotedToAmount",
          "type": "uint256"
        },
        {
          "internalType": "uint256",
          "name": "startCovRatio",
          "type": "uint256"
        },
        {
          "internalType": "uint256",
          "name": "endCovRatio",
          "type": "uint256"
        }
      ],
      "name": "highCovRatioFee",
      "outputs": [
        {
          "internalType": "uint256",
          "name": "fee",
          "type": "uint256"
        }
      ],
      "stateMutability": "pure",
      "type": "function"
    },
    {
      "inputs": [
        {
          "internalType": "contract IAsset",
          "name": "asset",
          "type": "IAsset"
        },
        {
          "internalType": "uint256",
          "name": "amount",
          "type": "uint256"
        },
        {
          "internalType": "uint256",
          "name": "ampFactor",
          "type": "uint256"
        },
        {
          "internalType": "int256",
          "name": "_equilCovRatio",
          "type": "int256"
        }
      ],
      "name": "quoteDepositLiquidity",
      "outputs": [
        {
          "internalType": "uint256",
          "name": "lpTokenToMint",
          "type": "uint256"
        },
        {
          "internalType": "uint256",
          "name": "liabilityToMint",
          "type": "uint256"
        }
      ],
      "stateMutability": "view",
      "type": "function"
    },
    {
      "inputs": [
        {
          "internalType": "contract IAsset",
          "name": "fromAsset",
          "type": "IAsset"
        },
        {
          "internalType": "contract IAsset",
          "name": "toAsset",
          "type": "IAsset"
        },
        {
          "internalType": "int256",
          "name": "fromAmount",
          "type": "int256"
        },
        {
          "internalType": "uint256",
          "name": "ampFactor",
          "type": "uint256"
        },
        {
          "internalType": "uint256",
          "name": "scaleFactor",
          "type": "uint256"
        },
        {
          "internalType": "uint256",
          "name": "haircutRate",
          "type": "uint256"
        }
      ],
      "name": "quoteSwap",
      "outputs": [
        {
          "internalType": "uint256",
          "name": "actualToAmount",
          "type": "uint256"
        },
        {
          "internalType": "uint256",
          "name": "haircut",
          "type": "uint256"
        }
      ],
      "stateMutability": "view",
      "type": "function"
    },
    {
      "inputs": [
        {
          "internalType": "uint256",
          "name": "fromAmount",
          "type": "uint256"
        },
        {
          "internalType": "contract IAsset",
          "name": "toAsset",
          "type": "IAsset"
        },
        {
          "internalType": "uint256",
          "name": "ampFactor",
          "type": "uint256"
        },
        {
          "internalType": "uint256",
          "name": "scaleFactor",
          "type": "uint256"
        },
        {
          "internalType": "uint256",
          "name": "haircutRate",
          "type": "uint256"
        }
      ],
      "name": "quoteSwapCreditForTokens",
      "outputs": [
        {
          "internalType": "uint256",
          "name": "actualToAmount",
          "type": "uint256"
        },
        {
          "internalType": "uint256",
          "name": "toTokenFee",
          "type": "uint256"
        }
      ],
      "stateMutability": "view",
      "type": "function"
    },
    {
      "inputs": [
        {
          "internalType": "contract IAsset",
          "name": "fromAsset",
          "type": "IAsset"
        },
        {
          "internalType": "uint256",
          "name": "fromAmount",
          "type": "uint256"
        },
        {
          "internalType": "uint256",
          "name": "ampFactor",
          "type": "uint256"
        },
        {
          "internalType": "uint256",
          "name": "scaleFactor",
          "type": "uint256"
        },
        {
          "internalType": "uint256",
          "name": "haircutRate",
          "type": "uint256"
        },
        {
          "internalType": "uint256",
          "name": "startCovRatio",
          "type": "uint256"
        },
        {
          "internalType": "uint256",
          "name": "endCovRatio",
          "type": "uint256"
        }
      ],
      "name": "quoteSwapTokensForCredit",
      "outputs": [
        {
          "internalType": "uint256",
          "name": "creditAmount",
          "type": "uint256"
        },
        {
          "internalType": "uint256",
          "name": "fromTokenFee",
          "type": "uint256"
        }
      ],
      "stateMutability": "view",
      "type": "function"
    },
    {
      "inputs": [
        {
          "internalType": "contract IAsset",
          "name": "asset",
          "type": "IAsset"
        },
        {
          "internalType": "uint256",
          "name": "liquidity",
          "type": "uint256"
        },
        {
          "internalType": "uint256",
          "name": "ampFactor",
          "type": "uint256"
        },
        {
          "internalType": "int256",
          "name": "_equilCovRatio",
          "type": "int256"
        },
        {
          "internalType": "uint256",
          "name": "withdrawalHaircutRate",
          "type": "uint256"
        }
      ],
      "name": "quoteWithdrawAmount",
      "outputs": [
        {
          "internalType": "uint256",
          "name": "amount",
          "type": "uint256"
        },
        {
          "internalType": "uint256",
          "name": "liabilityToBurn",
          "type": "uint256"
        },
        {
          "internalType": "uint256",
          "name": "withdrawalHaircut",
          "type": "uint256"
        }
      ],
      "stateMutability": "view",
      "type": "function"
    },
    {
      "inputs": [
        {
          "internalType": "contract IAsset",
          "name": "fromAsset",
          "type": "IAsset"
        },
        {
          "internalType": "contract IAsset",
          "name": "toAsset",
          "type": "IAsset"
        },
        {
          "internalType": "uint256",
          "name": "liquidity",
          "type": "uint256"
        },
        {
          "internalType": "uint256",
          "name": "ampFactor",
          "type": "uint256"
        },
        {
          "internalType": "uint256",
          "name": "scaleFactor",
          "type": "uint256"
        },
        {
          "internalType": "uint256",
          "name": "haircutRate",
          "type": "uint256"
        },
        {
          "internalType": "uint256",
          "name": "startCovRatio",
          "type": "uint256"
        },
        {
          "internalType": "uint256",
          "name": "endCovRatio",
          "type": "uint256"
        },
        {
          "internalType": "int256",
          "name": "_equilCovRatio",
          "type": "int256"
        },
        {
          "internalType": "uint256",
          "name": "withdrawalHaircutRate",
          "type": "uint256"
        }
      ],
      "name": "quoteWithdrawAmountFromOtherAsset",
      "outputs": [
        {
          "internalType": "uint256",
          "name": "finalAmount",
          "type": "uint256"
        },
        {
          "internalType": "uint256",
          "name": "withdrewAmount",
          "type": "uint256"
        }
      ],
      "stateMutability": "view",
      "type": "function"
    },
    {
      "inputs": [
        {
          "internalType": "int256",
          "name": "Ax",
          "type": "int256"
        },
        {
          "internalType": "int256",
          "name": "Lx",
          "type": "int256"
        },
        {
          "internalType": "int256",
          "name": "delta_credit",
          "type": "int256"
        },
        {
          "internalType": "int256",
          "name": "A",
          "type": "int256"
        }
      ],
      "name": "swapFromCreditQuote",
      "outputs": [
        {
          "internalType": "uint256",
          "name": "quote",
          "type": "uint256"
        }
      ],
      "stateMutability": "pure",
      "type": "function"
    },
    {
      "inputs": [
        {
          "internalType": "int256",
          "name": "Ax",
          "type": "int256"
        },
        {
          "internalType": "int256",
          "name": "Ay",
          "type": "int256"
        },
        {
          "internalType": "int256",
          "name": "Lx",
          "type": "int256"
        },
        {
          "internalType": "int256",
          "name": "Ly",
          "type": "int256"
        },
        {
          "internalType": "int256",
          "name": "Dx",
          "type": "int256"
        },
        {
          "internalType": "int256",
          "name": "A",
          "type": "int256"
        }
      ],
      "name": "swapQuoteFunc",
      "outputs": [
        {
          "internalType": "uint256",
          "name": "quote",
          "type": "uint256"
        }
      ],
      "stateMutability": "pure",
      "type": "function"
    },
    {
      "inputs": [
        {
          "internalType": "int256",
          "name": "Ax",
          "type": "int256"
        },
        {
          "internalType": "int256",
          "name": "Lx",
          "type": "int256"
        },
        {
          "internalType": "int256",
          "name": "Dx",
          "type": "int256"
        },
        {
          "internalType": "int256",
          "name": "A",
          "type": "int256"
        }
      ],
      "name": "swapToCreditQuote",
      "outputs": [
        {
          "internalType": "uint256",
          "name": "quote",
          "type": "uint256"
        }
      ],
      "stateMutability": "pure",
      "type": "function"
    },
    {
      "inputs": [
        {
          "internalType": "int256",
          "name": "delta_i",
          "type": "int256"
        },
        {
          "internalType": "int256",
          "name": "A_i",
          "type": "int256"
        },
        {
          "internalType": "int256",
          "name": "L_i",
          "type": "int256"
        },
        {
          "internalType": "int256",
          "name": "A",
          "type": "int256"
        },
        {
          "internalType": "int256",
          "name": "_equilCovRatio",
          "type": "int256"
        }
      ],
      "name": "withdrawalAmountImpl",
      "outputs": [
        {
          "internalType": "int256",
          "name": "amount",
          "type": "int256"
        }
      ],
      "stateMutability": "pure",
      "type": "function"
    },
    {
      "inputs": [
        {
          "internalType": "int256",
          "name": "delta_i",
          "type": "int256"
        },
        {
          "internalType": "int256",
          "name": "A_i",
          "type": "int256"
        },
        {
          "internalType": "int256",
          "name": "L_i",
          "type": "int256"
        },
        {
          "internalType": "int256",
          "name": "A",
          "type": "int256"
        }
      ],
      "name": "withdrawalAmountInEquilImpl",
      "outputs": [
        {
          "internalType": "int256",
          "name": "amount",
          "type": "int256"
        }
      ],
      "stateMutability": "pure",
      "type": "function"
    }
  ],
  "transactionHash": "0x21548e3615a7ab7b0ffb3e6b24b963129ff3bd2ecfa4bb2c4023aab97d9acd37",
  "args": [],
  "numDeployments": 1,
  "solcInputHash": "c4d721227887f647184bf33c305ed81f",
  "bytecode": "0x6080806040523461001a57611dfa9081610020823930815050f35b600080fdfe604060808152600436101561001357600080fd5b60003560e01c80631df0f4f214610ba95780631f86566214610b915780632841c1ad14610b795780632f6599bb14610b4f5780634c5b402d14610b375780635dbcd62c1461085557806362d2ab101461083d57806367146f2914610811578063691b5fb6146107f957806391810795146107b7578063d7454c5314610774578063df4912981461075c578063e02a44c6146103b4578063efd7af77146100f75763f50fc03e146100c257600080fd5b60c03660031901126100f2576020906100eb60a4356084356064356044356024356004356114ba565b9051908152f35b600080fd5b506101403660031901126100f25761010d610bde565b610115610bf4565b6064359061012e61012435610104358460443587610d6d565b92909180946001600160a01b038097169088519363961be39160e01b928386526020978887600481855afa96871561033457600097610391575b5061018690610181876001600160781b03809a16610d60565b610d60565b968b5190898260048163705727b560e01b968782525afa918215610386576101b9928991600091610369575b5016610d60565b99670de0b6b3a764000095608435670de0b6b3a763ffff19810161033f575b50506001600160ff1b03926101ef848a1115610cea565b8c5195865216938881600481885afa918215610334578991600093610315575b5061021c848d1115610cea565b60048d518097819382525afa91821561030a5786610284978b948d93610268988d6000936102d5575b50508061025761025f92891115610cea565b881115610cea565b169216886114ba565b9061027d61027860a43584610ca1565b611096565b0490610d60565b9360c4359081158015906102ca575b6102a5575b5050508351928352820152f35b916102bb9186866102c196989560e43594611bf8565b90610d60565b91388080610298565b5060e4351515610293565b61025f92935090816102fb92903d10610303575b6102f38183610c4a565b810190610c82565b91908d610245565b503d6102e9565b8b513d6000823e3d90fd5b61032d919350823d8411610303576102f38183610c4a565b913861020f565b8c513d6000823e3d90fd5b8780939c5061035982610360949f9c610359828592610ca1565b049c610ca1565b049838806101d8565b61038091508c8d3d10610303576102f38183610c4a565b386101b2565b8d513d6000823e3d90fd5b6101869197506103ad908a3d8c11610303576102f38183610c4a565b9690610168565b5060c03660031901126100f2576103c9610bde565b6103d1610bf4565b604435906000821261072b575b83519063961be39160e01b82526001600160a01b03916020816004818689165afa8015610720576001600160781b0391600091610701575b50169085519163705727b560e01b92838152602081600481888b165afa8015610658576001600160781b03916000916106e2575b5016918488519163961be39160e01b83521690602081600481855afa9081156106d7576000916106b8575b50608435670de0b6b3a76400008103610663575b506001600160781b036020916104a86001600160ff1b03861115610cea565b16946104bd6001600160ff1b03871115610cea565b6104d06001600160ff1b03861115610cea565b60048a518094819382525afa91821561065857610519938792600094610637575b50856001600160781b03606435956105126001600160ff1b03881115610cea565b16926114ba565b936000841392839286908461062d575b505082156105a8575b5050610598571561056f5750610561670de0b6b3a764000061055961027860a43585610ca1565b048092610d60565b905b82519182526020820152f35b90610592610278670de0b6b3a7640000929361058d60a43591610d4f565b610ca1565b04610563565b60048451631c4bd71760e01b8152fd5b60008512925090826105be575b50503880610532565b6020919250600487518094819363961be39160e01b8352165afa90811561062257600091610603575b506001600160781b036105f984610d4f565b91161038806105b5565b61061c915060203d602011610303576102f38183610c4a565b386105e7565b85513d6000823e3d90fd5b1092508538610529565b61065191945060203d602011610303576102f38183610c4a565b92386104f1565b88513d6000823e3d90fd5b670de0b6b3a76400006106af8282610695828261068e6020999f9c9b986001600160781b0399610ca1565b0499610ca1565b04976106aa6001600160ff1b03831115610cea565b611133565b05979150610489565b6106d1915060203d602011610303576102f38183610c4a565b38610475565b89513d6000823e3d90fd5b6106fb915060203d602011610303576102f38183610c4a565b3861044a565b61071a915060203d602011610303576102f38183610c4a565b38610416565b86513d6000823e3d90fd5b906107569061075161074761074160a4356110b8565b926110f4565b60028305906111ad565b611156565b906103de565b6020826100eb61076b36610c0a565b9291909161173c565b5060603660031901126100f2576020906100eb6024356107b26107ad61079b6004356110f4565b926107516044359460028305906111ad565b610d4f565b611cbd565b5060a03660031901126100f2576060906107e76107d2610bde565b60843590606435906044359060243590610d6d565b91929081519384526020840152820152f35b6020826100eb61080836610c28565b9392909261163e565b5060a03660031901126100f257610563610829610bf4565b608435906064359060443590600435611357565b6020826100eb61084c36610c28565b939290926118d9565b5060803660031901126100f25761086a610bde565b602435604435606435670de0b6b3a76400008103610a4557506001600160ff1b039061089882841115610cea565b845163961be39160e01b81526001600160a01b038516936020938483600481895afa928315610658576004968691600095610a26575b5089519788809263705727b560e01b82525afa908115610658576001600160a01b039661091e96600093610a01575b505061090b90851115610cea565b6001600160781b03809116921690611a7d565b61092b6000821215610cea565b915b169082519163705727b560e01b83526020928381600481855afa8015610622576001600160781b03916000916109e4575b501683816109765750505080915b8351928352820152f35b6004928651938480926318160ddd60e01b82525afa918215610622576000926109b3575b506109a86109ad9284610ca1565b610cca565b9161096c565b91508382813d83116109dd575b6109ca8183610c4a565b810103126100f2579051906109a861099a565b503d6109c0565b6109fb9150853d8711610303576102f38183610c4a565b3861095e565b61090b9293509081610a1e92903d10610303576102f38183610c4a565b9190386108fd565b610a3e919550823d8411610303576102f38183610c4a565b93386108ce565b6001600160ff1b0391610a5a83851115610cea565b855163961be39160e01b81526001600160a01b0386169460209485836004818a5afa9283156106d7576004978791600095610b18575b508a519889809263705727b560e01b82525afa9081156106d7576001600160a01b0397610ae097600093610af3575b5050610acd90851115610cea565b6001600160781b038091169216906118d9565b610aed6000821215610cea565b9161092d565b610acd9293509081610b1092903d10610303576102f38183610c4a565b919038610abf565b610b30919550823d8411610303576102f38183610c4a565b9338610a90565b6020826100eb610b4636610c0a565b92919091611a7d565b5060c03660031901126100f2576020906100eb60a435608435606435604435602435600435611bf8565b6020826100eb610b8836610c0a565b92919091611b8b565b6020826100eb610ba036610c0a565b92919091611b00565b5060e03660031901126100f257610563610bc1610bde565b60c4359060a43590608435906064359060443590602435906111c9565b600435906001600160a01b03821682036100f257565b602435906001600160a01b03821682036100f257565b60809060031901126100f25760043590602435906044359060643590565b60a09060031901126100f2576004359060243590604435906064359060843590565b90601f8019910116810190811067ffffffffffffffff821117610c6c57604052565b634e487b7160e01b600052604160045260246000fd5b908160209103126100f257516001600160781b03811681036100f25790565b81810292918115918404141715610cb457565b634e487b7160e01b600052601160045260246000fd5b8115610cd4570490565b634e487b7160e01b600052601260045260246000fd5b15610cf157565b60646040517f08c379a000000000000000000000000000000000000000000000000000000000815260206004820152601660248201527f76616c7565206d75737420626520706f736974697665000000000000000000006044820152fd5b600160ff1b8114610cb45760000390565b91908203918211610cb457565b9491929093946000936001600160a01b0360009216956040805163705727b560e01b918282526020996004948b848781855afa93841561108c578894611069575b50610dc3906001600160781b03809516610ca1565b82516318160ddd60e01b81528c818881865afa90811561105f57899161102c575b50610dee91610cca565b9a8b1561100457908b91670de0b6b3a7640000998a8114600014610f1c5750610e216001600160ff1b0380941115610cea565b610e2a8d610d4f565b9584519763961be39160e01b895282898281875afa988915610f12578b99610eef575b5090829186518095819382525afa938415610ee65750928492610e90979592610e999997958b93610ec1575b5050610e8790871115610cea565b1692169061173c565b91821215610cea565b905b819580610ea757505050565b610ebe939650829450610278906105599293610ca1565b92565b610e879293509081610ede92903d10610303576102f38183610c4a565b919038610e79565b513d8a823e3d90fd5b8392919950610f0a90833d8511610303576102f38183610c4a565b989091610e4d565b86513d8d823e3d90fd5b9796959493929190610f3c6001600160ff1b03936107ad85821115610cea565b9584519763961be39160e01b895282898281875afa988915610ffa578c99610fd7575b5090829186518095819382525afa938415610fce5750928492610fa399979592610e909997958c93610fa9575b5050610f9a90871115610cea565b1692169061163e565b90610e9b565b610f9a9293509081610fc692903d10610303576102f38183610c4a565b919038610f8c565b513d8b823e3d90fd5b8392919950610ff290833d8511610303576102f38183610c4a565b989091610f5f565b86513d8e823e3d90fd5b8583517fd4b6d81b000000000000000000000000000000000000000000000000000000008152fd5b90508c81813d8311611058575b6110438183610c4a565b810103126110545751610dee610de4565b8880fd5b503d611039565b84513d8b823e3d90fd5b610dc3919450611085908d803d10610303576102f38183610c4a565b9390610dae565b83513d8a823e3d90fd5b906706f05b59d3b200008201809211610cb457565b91908201809211610cb457565b90670de0b6b3a764000060008382039312818412811691841390151617610cb457565b81810392916000138015828513169184121617610cb457565b90670de0b6b3a764000091828102928184051490151715610cb457565b908160011b916002830503610cb457565b908160021b916004830503610cb457565b818102929160008212600160ff1b821416610cb4578184051490151715610cb457565b8115610cd457600160ff1b8114600019831416610cb4570590565b9081670de0b6b3a764000001918212600116610cb457565b906706f05b59d3b200009160008382019384129112908015821691151617610cb457565b91909160008382019384129112908015821691151617610cb457565b909591938615611348576001600160a01b03610278916111f4670de0b6b3a76400009384928b610ca1565b049216916040519363961be39160e01b85526020918286600481885afa91821561131d57600496600093611329575b50836001600160781b03809416966040519889809263705727b560e01b82525afa90811561131d576112cf9a61127384611281968f9b9561127b966112889a600092611300575b5050169a610d60565b8d8a8a611bf8565b906110ab565b8098610d60565b938181036112d2575b50506112ca6001600160ff1b036112aa81841115610cea565b6112b681851115610cea565b6112c281861115610cea565b851115610cea565b611b00565b91565b816112f082826112e9826112f797989a999a610ca1565b0497610ca1565b0493610ca1565b04913880611291565b6113169250803d10610303576102f38183610c4a565b388061126a565b6040513d6000823e3d90fd5b611341919350843d8611610303576102f38183610c4a565b9138611223565b50505050505050600090600090565b9392919084156114ad576001600160a01b03169060405163961be39160e01b815260208082600481875afa91821561131d5760009261148e575b506004816001600160781b03809416956040519283809263705727b560e01b82525afa91821561131d57600092611471575b505016670de0b6b3a764000093848103611458575b50908561141c926114166001600160ff1b036113f681881115610cea565b61140281841115610cea565b61140e81851115610cea565b841115610cea565b84611b8b565b80941515918261144e575b505061143d576105596102786112cf9385610ca1565b6004604051631c4bd71760e01b8152fd5b1090508338611427565b611468859161141c949398610ca1565b049590916113d8565b6114879250803d10610303576102f38183610c4a565b38806113c3565b816114a69293503d8411610303576102f38183610c4a565b9038611391565b5050505050600090600090565b9390949180158015611624575b6115fa57838181926114d989896111ad565b97806114e58380611133565b906114ef91611156565b98670de0b6b3a7640000809a8c6115068880611133565b9061151091611156565b611519916111ad565b611523908a611133565b61152c90611189565b05611536916110db565b95611540916111ad565b611549906110f4565b60028205611556916111ad565b9061156091611156565b8061156a876110f4565b60028205611577916111ad565b9061158191611156565b61158a916110db565b61159391611133565b9061159d91611156565b916115a7906110f4565b600282056115b4916111ad565b906115be91611156565b6115c7916110db565b906115d191611cbd565b6115da91611133565b6115e390611189565b05906115ee916110db565b6115f79061162c565b90565b60046040517fae032660000000000000000000000000000000000000000000000000000000008152fd5b5083156114c7565b60008112156115f7576115f790610d4f565b92919382919461164e85826111ad565b9481611659886110f4565b60028205611666916111ad565b9061167091611156565b91670de0b6b3a76400009584838861168a81988297611133565b61169390611189565b059261169e91611133565b906116a891611156565b6116b1916110db565b92806116bc876110f4565b600282056116c9916111ad565b906116d391611156565b6116dc916110db565b6116e591611133565b6116ee90611189565b05906116f9916111ad565b61170290610d4f565b938061170d91611133565b61171690611189565b0561172091611133565b61172990611189565b0561173391611cbd565b6115f7916110db565b92909261174981846111ad565b9083611754866110f4565b60028205611761916111ad565b9061176b91611156565b8094611776856110f4565b90670de0b6b3a764000096808894936002869505611793916111ad565b9061179d91611156565b6117a6916110db565b6117af91611133565b6117b890611189565b05916117c3856110b8565b6117cc91611133565b6117d590611189565b056117df916111ad565b600290059283926117f08480611133565b92806117fb91611133565b61180491611133565b61180d90611189565b05611817916111ad565b906118219161182a565b611733916111ad565b9190600060038413156118ca575060008113806118c0575b1561188957915b60028061185f8561185a8186611156565b6111ad565b05915b84830361186e57505050565b91935090816118818561185a8185611156565b059190611862565b60008112806118ae575b156118a7576118a190610d4f565b91611849565b5081611849565b50826118b982610d4f565b1315611893565b5082811315611842565b9290506118d357565b60019150565b9092938215611a755760006118ee83866111ad565b126115fa578391836118ff846110f4565b6002820561190c916111ad565b9061191691611156565b94611920916111ad565b90670de0b6b3a764000080938282611939819587611133565b61194290611189565b059061194e8a87611133565b9061195891611156565b611961916110db565b8261196c888b611133565b61197590611189565b0561197f90611111565b611988916111ad565b96611993878a611133565b9061199d91611156565b6119a6916110db565b6119b09084611133565b6119b990611189565b0591806119c591611133565b6119ce90611189565b056119d8916110db565b91816119e48287611133565b6119ed90611189565b05906119f891611133565b611a0190611189565b05611a0b916111ad565b611a158280611133565b90611a1f84611122565b90611a2991611133565b611a32916110db565b611a3b82610d4f565b91611a459161182a565b611a4e916111ad565b611a57906110f4565b60028205611a64916111ad565b90611a6e91611156565b6002900590565b509250505090565b9190918115611af9576000611a9282856111ad565b126115fa57829082611aa3836110f4565b60028205611ab0916111ad565b90611aba91611156565b93611ac4916111ad565b670de0b6b3a764000080809381611ada896110b8565b611ae49086611133565b611aed90611189565b058261196c888b611133565b9250505090565b611b7a82611b74611b8093611b5d611b63611b4d6115f79a98610751611b869b61185a611b48611b2f896110f4565b92611b42866107516002820580976111ad565b996111ad565b6110f4565b611b5d816107516107478c6110f4565b906110db565b91611b5d816107516107478b6110f4565b90611133565b91611171565b90611156565b61162c565b90611bf1611bec82611b746115f7976107b2610751611be6611bd9611b869b611bd488611bc8670de0b6b3a76400009d8f610747610751916110f4565b958693611b748a611171565b6110db565b91610751610747866110f4565b906111ad565b611189565b05906110db565b90959492939195611c1481611c0f600099856110ab565b611c91565b91838311611c25575b505050505050565b611c3b9596975090611c3691611c91565b611cfa565b90670de0b6b3a764000091828111611c6757611c5a9161027891610ca1565b0490388080808080611c1d565b60046040517f5c7c5649000000000000000000000000000000000000000000000000000000008152fd5b90670de0b6b3a764000091828102928184041490151715610cb4576109a86115f7928260011c906110ab565b611cc78180611133565b908260021b9280840560041490151715610cb457611bd481611cf1611cf694611be66002976110f4565b61182a565b0590565b929182821115611d2e5760046040517fa6af4260000000000000000000000000000000000000000000000000000000008152fd5b808211801590611dba575b611db1576115f793611d8c92611d8391611d7d90848111611d9257611d7760005b610181611d678887610d60565b611d718988610d60565b90610ca1565b92610d60565b90610cca565b60011c92610d60565b90611c91565b611d77611dac611da28784610d60565b611d718885610d60565b611d5a565b50505050600090565b5083821115611d3956fea26469706673582212200781bd3aa07556046e3b5247e831256b3643fdd3f7f6acd9430b5d0ab9b4a8bf64736f6c63430008120033",
  "devdoc": {
    "details": "Uses OpenZeppelin's SignedSafeMath and DSMath's WAD for calculations. Change log: - Move view functinos (quotes, high cov ratio fee) from the Pool contract to this contract - Add quote functions for cross chain swaps",
    "kind": "dev",
    "methods": {
      "quoteSwap(IAsset,IAsset,int256,uint256,uint256,uint256)": {
        "params": {
          "fromAmount": "The amount to quote",
          "fromAsset": "The initial asset",
          "toAsset": "The asset wanted by user"
        },
        "returns": {
          "actualToAmount": "The actual amount user would receive",
          "haircut": "The haircut that will be applied"
        }
      },
      "quoteSwapCreditForTokens(uint256,IAsset,uint256,uint256,uint256)": {
        "details": "reverse quote is not supported"
      },
      "quoteSwapTokensForCredit(IAsset,uint256,uint256,uint256,uint256,uint256,uint256)": {
        "details": "reverse quote is not supported haircut is calculated in the fromToken when swapping tokens for credit"
      },
      "quoteWithdrawAmount(IAsset,uint256,uint256,int256,uint256)": {
        "params": {
          "_equilCovRatio": "global equilibrium coverage ratio",
          "asset": "The asset willing to be withdrawn",
          "liquidity": "The liquidity willing to be withdrawn",
          "withdrawalHaircutRate": "withdraw haircut rate"
        },
        "returns": {
          "amount": "Total amount to be withdrawn from Pool",
          "liabilityToBurn": "Total liability to be burned by Pool",
          "withdrawalHaircut": "Total withdrawal haircut"
        }
      },
      "swapFromCreditQuote(int256,int256,int256,int256)": {
        "details": "This function always returns >= 0"
      },
      "swapQuoteFunc(int256,int256,int256,int256,int256,int256)": {
        "details": "This function always returns >= 0",
        "params": {
          "A": "amplification factor",
          "Ax": "asset of token x",
          "Ay": "asset of token y",
          "Dx": "delta x, i.e. token x amount inputted",
          "Lx": "liability of token x",
          "Ly": "liability of token y"
        },
        "returns": {
          "quote": "The quote for amount of token y swapped for token x amount inputted"
        }
      },
      "swapToCreditQuote(int256,int256,int256,int256)": {
        "details": "This function always returns >= 0"
      },
      "withdrawalAmountImpl(int256,int256,int256,int256,int256)": {
        "details": "Calculate the withdrawal amount for any r*"
      },
      "withdrawalAmountInEquilImpl(int256,int256,int256,int256)": {
        "details": "should be used only when r* = 1"
      }
    },
    "title": "CoreV3",
    "version": 1
  },
  "userdoc": {
    "kind": "user",
    "methods": {
      "exactDepositLiquidityImpl(int256,int256,int256,int256,int256)": {
        "notice": "return the deposit reward in token amount when target liquidity (LP amount) is known"
      },
      "exactDepositLiquidityInEquilImpl(int256,int256,int256,int256)": {
        "notice": "return the deposit reward in token amount when target liquidity (LP amount) is known"
      },
      "quoteDepositLiquidity(IAsset,uint256,uint256,int256)": {
        "notice": "This function calculate the exactly amount of liquidity of the deposit. Assumes r* = 1"
      },
      "quoteSwap(IAsset,IAsset,int256,uint256,uint256,uint256)": {
        "notice": "Quotes the actual amount user would receive in a swap, taking in account slippage and haircut"
      },
      "quoteWithdrawAmount(IAsset,uint256,uint256,int256,uint256)": {
        "notice": "Calculates fee and liability to burn in case of withdrawal"
      },
      "swapFromCreditQuote(int256,int256,int256,int256)": {
        "notice": "quote swapping from credit for tokens"
      },
      "swapQuoteFunc(int256,int256,int256,int256,int256,int256)": {
        "notice": "Core Wombat stableswap equation"
      },
      "swapToCreditQuote(int256,int256,int256,int256)": {
        "notice": "quote swapping from tokens for credit"
      }
    },
    "notice": "Handles math operations of Wombat protocol. Assume all params are signed integer with 18 decimals",
    "version": 1
  },
  "storageLayout": {
    "storage": [],
    "types": null
  }
}