{
  "address": "0xAc1d730545c8fc00530f0118ee374F943ca10a45",
  "abi": [
    {
      "inputs": [],
      "name": "ADAPTOR__CONTRACT_NOT_TRUSTED",
      "type": "error"
    },
    {
      "inputs": [],
      "name": "ADAPTOR__INVALID_TOKEN",
      "type": "error"
    },
    {
      "inputs": [
        {
          "internalType": "bytes32",
          "name": "_hash",
          "type": "bytes32"
        }
      ],
      "name": "ADAPTOR__MESSAGE_ALREADY_DELIVERED",
      "type": "error"
    },
    {
      "anonymous": false,
      "inputs": [
        {
          "indexed": false,
          "internalType": "uint8",
          "name": "version",
          "type": "uint8"
        }
      ],
      "name": "Initialized",
      "type": "event"
    },
    {
      "anonymous": false,
      "inputs": [
        {
          "indexed": false,
          "internalType": "uint256",
          "name": "emitterChainId",
          "type": "uint256"
        },
        {
          "indexed": false,
          "internalType": "address",
          "name": "emitterAddress",
          "type": "address"
        },
        {
          "indexed": false,
          "internalType": "uint256",
          "name": "nonce",
          "type": "uint256"
        },
        {
          "indexed": false,
          "internalType": "bytes",
          "name": "data",
          "type": "bytes"
        }
      ],
      "name": "LogError",
      "type": "event"
    },
    {
      "anonymous": false,
      "inputs": [
        {
          "indexed": true,
          "internalType": "address",
          "name": "previousOwner",
          "type": "address"
        },
        {
          "indexed": true,
          "internalType": "address",
          "name": "newOwner",
          "type": "address"
        }
      ],
      "name": "OwnershipTransferred",
      "type": "event"
    },
    {
      "anonymous": false,
      "inputs": [
        {
          "indexed": false,
          "internalType": "address",
          "name": "account",
          "type": "address"
        }
      ],
      "name": "Paused",
      "type": "event"
    },
    {
      "anonymous": false,
      "inputs": [
        {
          "indexed": false,
          "internalType": "address",
          "name": "account",
          "type": "address"
        }
      ],
      "name": "Unpaused",
      "type": "event"
    },
    {
      "inputs": [
        {
          "internalType": "uint16",
          "name": "",
          "type": "uint16"
        }
      ],
      "name": "adaptorAddress",
      "outputs": [
        {
          "internalType": "address",
          "name": "",
          "type": "address"
        }
      ],
      "stateMutability": "view",
      "type": "function"
    },
    {
      "inputs": [
        {
          "internalType": "uint256",
          "name": "wormholeChainId",
          "type": "uint256"
        },
        {
          "internalType": "address",
          "name": "tokenAddr",
          "type": "address"
        }
      ],
      "name": "approveToken",
      "outputs": [],
      "stateMutability": "nonpayable",
      "type": "function"
    },
    {
      "inputs": [
        {
          "internalType": "address",
          "name": "toToken",
          "type": "address"
        },
        {
          "internalType": "uint256",
          "name": "toChain",
          "type": "uint256"
        },
        {
          "internalType": "uint256",
          "name": "fromAmount",
          "type": "uint256"
        },
        {
          "internalType": "uint256",
          "name": "minimumToAmount",
          "type": "uint256"
        },
        {
          "internalType": "address",
          "name": "receiver",
          "type": "address"
        },
        {
          "internalType": "uint32",
          "name": "nonce",
          "type": "uint32"
        }
      ],
      "name": "bridgeCreditAndSwapForTokens",
      "outputs": [
        {
          "internalType": "uint256",
          "name": "trackingId",
          "type": "uint256"
        }
      ],
      "stateMutability": "payable",
      "type": "function"
    },
    {
      "inputs": [
        {
          "internalType": "bytes32",
          "name": "",
          "type": "bytes32"
        }
      ],
      "name": "deliveredMessage",
      "outputs": [
        {
          "internalType": "bool",
          "name": "",
          "type": "bool"
        }
      ],
      "stateMutability": "view",
      "type": "function"
    },
    {
      "inputs": [
        {
          "internalType": "uint16",
          "name": "toChain",
          "type": "uint16"
        },
        {
          "internalType": "uint32",
          "name": "gasLimit",
          "type": "uint32"
        },
        {
          "internalType": "uint256",
          "name": "receiveValue",
          "type": "uint256"
        }
      ],
      "name": "estimateDeliveryFee",
      "outputs": [
        {
          "internalType": "uint256",
          "name": "deliveryFee",
          "type": "uint256"
        }
      ],
      "stateMutability": "view",
      "type": "function"
    },
    {
      "inputs": [
        {
          "internalType": "uint16",
          "name": "toChain",
          "type": "uint16"
        },
        {
          "internalType": "uint32",
          "name": "gasLimit",
          "type": "uint32"
        }
      ],
      "name": "estimateRedeliveryFee",
      "outputs": [
        {
          "internalType": "uint256",
          "name": "redeliveryFee",
          "type": "uint256"
        }
      ],
      "stateMutability": "view",
      "type": "function"
    },
    {
      "inputs": [
        {
          "internalType": "contract IWormholeRelayer",
          "name": "_relayer",
          "type": "address"
        },
        {
          "internalType": "contract IWormhole",
          "name": "_wormhole",
          "type": "address"
        },
        {
          "internalType": "contract IMegaPool",
          "name": "_megaPool",
          "type": "address"
        }
      ],
      "name": "initialize",
      "outputs": [],
      "stateMutability": "nonpayable",
      "type": "function"
    },
    {
      "inputs": [],
      "name": "megaPool",
      "outputs": [
        {
          "internalType": "contract IMegaPool",
          "name": "",
          "type": "address"
        }
      ],
      "stateMutability": "view",
      "type": "function"
    },
    {
      "inputs": [],
      "name": "owner",
      "outputs": [
        {
          "internalType": "address",
          "name": "",
          "type": "address"
        }
      ],
      "stateMutability": "view",
      "type": "function"
    },
    {
      "inputs": [],
      "name": "paused",
      "outputs": [
        {
          "internalType": "bool",
          "name": "",
          "type": "bool"
        }
      ],
      "stateMutability": "view",
      "type": "function"
    },
    {
      "inputs": [
        {
          "internalType": "bytes[]",
          "name": "vaas",
          "type": "bytes[]"
        },
        {
          "internalType": "bytes[]",
          "name": "",
          "type": "bytes[]"
        }
      ],
      "name": "receiveWormholeMessages",
      "outputs": [],
      "stateMutability": "nonpayable",
      "type": "function"
    },
    {
      "inputs": [],
      "name": "relayer",
      "outputs": [
        {
          "internalType": "contract IWormholeRelayer",
          "name": "",
          "type": "address"
        }
      ],
      "stateMutability": "view",
      "type": "function"
    },
    {
      "inputs": [],
      "name": "renounceOwnership",
      "outputs": [],
      "stateMutability": "nonpayable",
      "type": "function"
    },
    {
      "inputs": [
        {
          "internalType": "uint16",
          "name": "sourceChain",
          "type": "uint16"
        },
        {
          "internalType": "bytes32",
          "name": "sourceTxHash",
          "type": "bytes32"
        },
        {
          "internalType": "uint32",
          "name": "sourceNonce",
          "type": "uint32"
        },
        {
          "internalType": "uint16",
          "name": "targetChain",
          "type": "uint16"
        }
      ],
      "name": "requestResend",
      "outputs": [],
      "stateMutability": "payable",
      "type": "function"
    },
    {
      "inputs": [
        {
          "internalType": "uint256",
          "name": "wormholeChainId",
          "type": "uint256"
        },
        {
          "internalType": "address",
          "name": "tokenAddr",
          "type": "address"
        }
      ],
      "name": "revokeToken",
      "outputs": [],
      "stateMutability": "nonpayable",
      "type": "function"
    },
    {
      "inputs": [
        {
          "internalType": "uint16",
          "name": "wormholeChainId",
          "type": "uint16"
        },
        {
          "internalType": "address",
          "name": "addr",
          "type": "address"
        }
      ],
      "name": "setAdaptorAddress",
      "outputs": [],
      "stateMutability": "nonpayable",
      "type": "function"
    },
    {
      "inputs": [
        {
          "internalType": "address",
          "name": "newOwner",
          "type": "address"
        }
      ],
      "name": "transferOwnership",
      "outputs": [],
      "stateMutability": "nonpayable",
      "type": "function"
    },
    {
      "inputs": [
        {
          "internalType": "uint256",
          "name": "",
          "type": "uint256"
        },
        {
          "internalType": "address",
          "name": "",
          "type": "address"
        }
      ],
      "name": "validToken",
      "outputs": [
        {
          "internalType": "bool",
          "name": "",
          "type": "bool"
        }
      ],
      "stateMutability": "view",
      "type": "function"
    },
    {
      "inputs": [],
      "name": "wormhole",
      "outputs": [
        {
          "internalType": "contract IWormhole",
          "name": "",
          "type": "address"
        }
      ],
      "stateMutability": "view",
      "type": "function"
    }
  ],
  "transactionHash": "0x3e106a1f2500d84356611eb40f118253e31dad2baebe7d04930cbef805e69326",
  "args": [],
  "numDeployments": 2,
  "solcInputHash": "e5f000640841150c802f8cbfa0be7eba",
  "bytecode": "0x6080806040523461001657612012908161001c8239f35b600080fdfe6080604052600436101561001257600080fd5b60003560e01c806333a5dab11461014757806357599e401461014257806359cae1171461013d5780635c975abb146101385780636bc8fa1c1461013357806371233d3b1461012e578063715018a6146101295780637419a2da146101245780638406c0791461011f57806384acd1bb1461011a5780638da5cb5b14610115578063b1d190a614610110578063bdc990541461010b578063c0c53b8b14610106578063cad816ef14610101578063d2180e61146100fc578063db4a002f146100f7578063f2fde38b146100f25763f704d63d146100ed57600080fd5b610f9f565b610ef8565b610e89565b610df9565b610be8565b610925565b6108fe565b6108bb565b610894565b61086d565b610846565b610749565b6106dd565b610686565b610654565b610631565b610594565b6103cf565b61016b565b61ffff81160361015857565b600080fd5b63ffffffff81160361015857565b34610158576060366003190112610158576004356101888161014c565b602435906101958261015d565b6101b66101aa60fe546001600160a01b031690565b6001600160a01b031690565b90604051916310fc145b60e01b83526020928381600481855afa90811561035d5761023e9585916000936103a0575b506040517f624e4b3e00000000000000000000000000000000000000000000000000000000815261ffff8616600482015263ffffffff90911660248201526001600160a01b038316604482015295869081906064820190565b0381855afa91821561035d57600495600093610381575b508461026c6101aa60ff546001600160a01b031690565b60405197888092631a90a21960e01b82525afa95861561035d576102f896869461029e92600092610362575b50611a4c565b936040518097819482937f573c945400000000000000000000000000000000000000000000000000000000845260443590600485019160409194936001600160a01b039161ffff6060860197168552602085015216910152565b03915afa90811561035d5761032a9361031a9360009361032e575b5050611a4c565b6040519081529081906020820190565b0390f35b61034e929350803d10610356575b6103468183610a76565b810190611ade565b903880610313565b503d61033c565b611378565b61037a919250863d8811610356576103468183610a76565b9038610298565b610399919350853d8711610356576103468183610a76565b9138610255565b6103c1919350823d84116103c8575b6103b98183610a76565b810190611384565b91386101e5565b503d6103af565b6080366003190112610158576004356103e78161014c565b6044356103f38161015d565b606435916104008361014c565b6104156101aa60fe546001600160a01b031690565b60405163421a178b60e01b81526000948582600481865afa91821561035d57869261055b575b5061047c9061045561044b610a98565b61ffff9096168652565b61047160209660243588880152604087019063ffffffff169052565b61ffff166060850152565b600160808401528460a08401523460c08401528460e0840152610100830152604051906310fc145b60e01b82528382600481845afa90811561035d576104fb938593879361053c575b506040518095819482937f932546f9000000000000000000000000000000000000000000000000000000008452600484016113e7565b039134905af1801561035d5761050f578280f35b8161052e92903d10610535575b6105268183610a76565b8101906113ae565b5038808280f35b503d61051c565b610554919350843d86116103c8576103b98183610a76565b91386104c5565b61047c91925061057c903d8089833e6105748183610a76565b810190611352565b919061043b565b6001600160a01b0381160361015857565b34610158576040366003190112610158576024356004356105b482610583565b6105bc6110cf565b60009181835260cb60205260ff6105e98260408620906001600160a01b0316600052602052604060002090565b5416156106225761061791835260cb60205260408320906001600160a01b0316600052602052604060002090565b805460ff1916905580f35b8280fd5b600091031261015857565b3461015857600036600319011261015857602060ff609754166040519015158152f35b3461015857602036600319011261015857600435600052610101602052602060ff604060002054166040519015158152f35b3461015857604036600319011261015857602060ff6106d16024356106aa81610583565b60043560005260cb84526040600020906001600160a01b0316600052602052604060002090565b54166040519015158152f35b3461015857600080600319360112610746576106f76110cf565b806001600160a01b0360335473ffffffffffffffffffffffffffffffffffffffff198116603355167f8be0079c531659141344cd1fd0a4f28419497f9722a3daafe3b4186f6b6457e08280a380f35b80fd5b60c03660031901126101585760043561076181610583565b6024359060843561077181610583565b60a4359061077e8261015d565b6001600160a01b0360c954163303610802578360005260cb60205260ff6107bc846040600020906001600160a01b0316600052602052604060002090565b5416156107d85761032a9361031a936064359160443591611bb6565b60046040517f859ce673000000000000000000000000000000000000000000000000000000008152fd5b606460405162461bcd60e51b815260206004820152601760248201527f41646170746f723a206e6f7420617574686f72697a65640000000000000000006044820152fd5b346101585760003660031901126101585760206001600160a01b0360fe5416604051908152f35b346101585760003660031901126101585760206001600160a01b0360ff5416604051908152f35b346101585760003660031901126101585760206001600160a01b0360335416604051908152f35b346101585760203660031901126101585761ffff6004356108db8161014c565b1660005261010060205260206001600160a01b0360406000205416604051908152f35b346101585760003660031901126101585760206001600160a01b0360c95416604051908152f35b346101585760603660031901126101585760043561094281610583565b61099f60243561095181610583565b6044359061095e82610583565b6000549361098360ff8660081c161580968197610a1d575b81156109fd575b50611183565b84610996600160ff196000541617600055565b6109e4576111f4565b6109a557005b6109b561ff001960005416600055565b604051600181527f7f26b83ff96e1f2b6a682f133852f6798a09c465da95921460cefb384740249890602090a1005b6109f861010061ff00196000541617600055565b6111f4565b303b15915081610a0f575b503861097d565b6001915060ff161438610a08565b600160ff8216109150610976565b634e487b7160e01b600052604160045260246000fd5b6080810190811067ffffffffffffffff821117610a5d57604052565b610a2b565b67ffffffffffffffff8111610a5d57604052565b90601f8019910116810190811067ffffffffffffffff821117610a5d57604052565b60405190610120820182811067ffffffffffffffff821117610a5d57604052565b60405190610160820182811067ffffffffffffffff821117610a5d57604052565b6040519060c0820182811067ffffffffffffffff821117610a5d57604052565b67ffffffffffffffff8111610a5d5760051b60200190565b67ffffffffffffffff8111610a5d57601f01601f191660200190565b9080601f8301121561015857813591610b4683610afa565b92604090610b5682519586610a76565b808552602093848087019260051b8501019381851161015857858101925b858410610b85575050505050505090565b833567ffffffffffffffff811161015857820183603f82011215610158578781013591610bb183610b12565b610bbd88519182610a76565b838152858885850101116101585760008a8581968b8397018386013783010152815201930192610b74565b34610158576040806003193601126101585767ffffffffffffffff906004803583811161015857610c1c9036908301610b2e565b9060243584811161015857610c349036908301610b2e565b50610c57610c506101aa6101aa60fe546001600160a01b031690565b3314611489565b81519260005b610c66856114fe565b811015610df757610cc6906000610c886101aa60ff546001600160a01b031690565b610c92838861151a565b5190855180809681947fc0fd8bde0000000000000000000000000000000000000000000000000000000083528a8301611735565b03915afa90811561035d57610c6692610dbb92600090818291610dcb575b610cef929350611746565b6060810189610d28610d1b610d06845161ffff1690565b61ffff16600052610100602052604060002090565b546001600160a01b031690565b9160808401926001600160a01b03610d4a6101aa86516001600160a01b031690565b911603610dc257610d8e610d9c8561ffff60a095610dac610d7160e0610db49b015161198b565b9a929791989099610d86610140890151611a7c565b5161ffff1690565b9a516001600160a01b031690565b94015167ffffffffffffffff1690565b1696166117e8565b50506114ea565b9050610c5d565b505050506114ea565b5050610cef91610dec913d8091833e610de48183610a76565b810190611619565b919250829190610ce4565b005b3461015857604036600319011261015857602435600435610e1982610583565b610e216110cf565b60009181835260cb60205260ff610e4e8260408620906001600160a01b0316600052602052604060002090565b541661062257610e7b91835260cb60205260408320906001600160a01b0316600052602052604060002090565b805460ff1916600117905580f35b3461015857604036600319011261015857600435610ea68161014c565b61ffff60243591610eb683610583565b610ebe6110cf565b166000526101006020526001600160a01b036040600020911673ffffffffffffffffffffffffffffffffffffffff19825416179055600080f35b3461015857602036600319011261015857600435610f1581610583565b610f1d6110cf565b6001600160a01b03811615610f3557610df790611127565b608460405162461bcd60e51b815260206004820152602660248201527f4f776e61626c653a206e6577206f776e657220697320746865207a65726f206160448201527f64647265737300000000000000000000000000000000000000000000000000006064820152fd5b3461015857604036600319011261015857600435610fbc8161014c565b60243590610fc98261015d565b610fde6101aa60fe546001600160a01b031690565b91604051906310fc145b60e01b82526020938483600481845afa91821561035d5761106a9486946000946110b0575b50604051958694859384937f1a54b66a0000000000000000000000000000000000000000000000000000000085526004850191604091949363ffffffff6001600160a01b039261ffff606087019816865216602085015216910152565b03915afa90811561035d5761032a92600092611093575b50506040519081529081906020820190565b6110a99250803d10610356576103468183610a76565b3880611081565b6110c8919450853d87116103c8576103b98183610a76565b923861100d565b6001600160a01b036033541633036110e357565b606460405162461bcd60e51b815260206004820152602060248201527f4f776e61626c653a2063616c6c6572206973206e6f7420746865206f776e65726044820152fd5b603354906001600160a01b03809116918273ffffffffffffffffffffffffffffffffffffffff19821617603355167f8be0079c531659141344cd1fd0a4f28419497f9722a3daafe3b4186f6b6457e0600080a3565b1561015857565b1561118a57565b608460405162461bcd60e51b815260206004820152602e60248201527f496e697469616c697a61626c653a20636f6e747261637420697320616c72656160448201527f647920696e697469616c697a65640000000000000000000000000000000000006064820152fd5b916001600160a01b0380928173ffffffffffffffffffffffffffffffffffffffff1995168560fe54161760fe55168360ff54161760ff5561124e60ff60005460081c1661124081611279565b61124981611279565b611279565b61125733611127565b61126860ff60005460081c16611279565b6001606555169060c954161760c955565b1561128057565b608460405162461bcd60e51b815260206004820152602b60248201527f496e697469616c697a61626c653a20636f6e7472616374206973206e6f74206960448201527f6e697469616c697a696e670000000000000000000000000000000000000000006064820152fd5b60005b8381106112fd5750506000910152565b81810151838201526020016112ed565b81601f8201121561015857805161132381610b12565b926113316040519485610a76565b818452602082840101116101585761134f91602080850191016112ea565b90565b9060208282031261015857815167ffffffffffffffff81116101585761134f920161130d565b6040513d6000823e3d90fd5b90816020910312610158575161134f81610583565b519067ffffffffffffffff8216820361015857565b908160209103126101585761134f90611399565b906020916113db815180928185528580860191016112ea565b601f01601f1916010190565b92916020611477611487936040875261140760408801825161ffff169052565b808301516060880152604081015163ffffffff166080880152606081015161ffff1660a0880152608081015160ff1660c088015260a081015160ff1660e088015260c0810151610100908189015260e08201519161012092838a01520151906101408801526101608701906113c2565b9401906001600160a01b03169052565b565b1561149057565b606460405162461bcd60e51b815260206004820152600e60248201527f6e6f7420617574686f72697a65640000000000000000000000000000000000006044820152fd5b634e487b7160e01b600052601160045260246000fd5b60001981146114f95760010190565b6114d4565b6000198101919082116114f957565b919082039182116114f957565b805182101561152e5760209160051b010190565b634e487b7160e01b600052603260045260246000fd5b519060ff8216820361015857565b51906114878261015d565b51906114878261014c565b81601f820112156101585780519061157f82610afa565b9260409261158f84519586610a76565b808552602091828087019260071b85010193818511610158578301915b8483106115bc5750505050505090565b608083830312610158578360809187516115d581610a41565b8551815282860151838201526115ec898701611544565b8982015260606115fd818801611544565b908201528152019201916115ac565b5190811515820361015857565b90916060828403126101585781519167ffffffffffffffff92838111610158578101610160818603126101585761164e610ab9565b9061165881611544565b825261166660208201611552565b602083015261167760408201611552565b60408301526116886060820161155d565b6060830152608081015160808301526116a360a08201611399565b60a08301526116b460c08201611544565b60c083015260e081015185811161015857866116d191830161130d565b60e08301526101006116e4818301611552565b90830152610120808201518681116101585787611702918401611568565b9083015261014080910151908201529361171e6020830161160c565b9360408301519081116101585761134f920161130d565b90602061134f9281815201906113c2565b1561174e5750565b6117729060405191829162461bcd60e51b83526020600484015260248301906113c2565b0390fd5b9190826040910312610158576020825192015190565b3d156117b7573d9061179d82610b12565b916117ab6040519384610a76565b82523d6000602084013e565b606090565b90926001600160a01b0360809361134f96958452166020830152604082015281606082015201906113c2565b839796949592956118046101aa60c9546001600160a01b031690565b604080517f8e4b4d600000000000000000000000000000000000000000000000000000000081526001600160a01b03998a166004820152602481019790975260448701929092529684166064860152608485018690529384818060a4810103816000809b5af187918161195b575b5061194d5750907f27ee0f3d8737cb51dd7564bc60c6fc5b568f00faf467af122f020a11a66ba154916118b26118a661178c565b878751948594856117bc565b0390a16118ca6101aa60c9546001600160a01b031690565b91823b1561194957517f53a284d0000000000000000000000000000000000000000000000000000000008152600481018790526001600160a01b03919091166024820152604481019290925282908290606490829084905af1801561035d5761193257509190565b8061193f61194592610a62565b80610626565b9190565b8480fd5b975050505050505060019190565b61197c919250863d8811611984575b6119748183610a76565b810190611776565b509038611872565b503d61196a565b6014815110611a0857602081015160601c60348251106119c4576034820151926119bd6119b784611a6c565b93611a59565b9193929190565b606460405162461bcd60e51b815260206004820152601560248201527f746f55696e743235365f6f75744f66426f756e647300000000000000000000006044820152fd5b606460405162461bcd60e51b815260206004820152601560248201527f746f416464726573735f6f75744f66426f756e647300000000000000000000006044820152fd5b919082018092116114f957565b6068815110611a08576074015160601c90565b60548151106119c4576054015190565b80600052610101908160205260ff60406000205416611aad576000526020526040600020600160ff19825416179055565b602490604051907f488375260000000000000000000000000000000000000000000000000000000082526004820152fd5b90816020910312610158575190565b9291611b1160409163ffffffff60c8941686526060602087015260608601906113c2565b930152565b908160011b917f7fffffffffffffffffffffffffffffffffffffffffffffffffffffffffffffff8116036114f957565b9193926001600160a01b039063ffffffff611ba960a06040956060885261ffff8151166060890152602081015160808901528681015182890152606081015160c0890152608081015160e0890152015160c06101008801526101208701906113c2565b9616602085015216910152565b9395949095929192611bd36101aa60ff546001600160a01b031690565b604094855196631a90a21960e01b928389526020986004978a828a81865afa94851561035d578b948893600097611f58575b5091611c4a949391611c1693611f87565b89519485809481937fb19a437e0000000000000000000000000000000000000000000000000000000083528b8d8401611aed565b03925af1801561035d5767ffffffffffffffff91600091611f3b575b50169761ffff90611c798282111561117c565b1690611c906101aa60fe546001600160a01b031690565b92611cad610d1b8461ffff16600052610100602052604060002090565b918751898180611cf37faf24c7b000000000000000000000000000000000000000000000000000000000978883528c83019190916001600160a01b036020820193169052565b0381895afa92831561035d578a91600094611f1a575b5089519485526001600160a01b0316888501908152929392839081906020015b0381885afa91821561035d57600092611efb575b50611d536101aa60ff546001600160a01b031690565b9288518281528a818a81885afa90811561035d57611d8391611d7d91600091611ede575b50611b16565b3461150d565b89519363421a178b60e01b85526000858b818b5afa92831561035d578c95600094611ec3575b50611dbf611db5610ada565b61ffff9099168952565b858801528a87015260608601526000608086015260a08501528688518094819382525afa801561035d57611dfc91600091611ea6575b503461150d565b8551946310fc145b60e01b865287868281875afa96871561035d578896600098611e83575b50611e589051978896879586947fc1dd78a40000000000000000000000000000000000000000000000000000000086528501611b46565b03925af1801561035d57611e6a575050565b81611e8092903d10610535576105268183610a76565b50565b611e58919850611e9f90883d8a116103c8576103b98183610a76565b9790611e21565b611ebd9150883d8a11610356576103468183610a76565b38611df5565b611ed791943d8091833e6105748183610a76565b9238611da9565b611ef591508d803d10610356576103468183610a76565b38611d77565b611f13919250893d8b11610356576103468183610a76565b9038611d3d565b611d299450611f3590833d8511610356576103468183610a76565b93611d09565b611f529150883d8a11610535576105268183610a76565b38611c66565b611c169391975091611f7b611c4a969593883d8a11610356576103468183610a76565b97919350919394611c05565b91929092604051936bffffffffffffffffffffffff19809460601b1660208601526034850152605484015260601b1660748201526068815260a0810181811067ffffffffffffffff821117610a5d576040529056fea2646970667358221220c4e0365f74634e947b54ef7dea504a6e76c791e2a2233978bfe490b567278f9b64736f6c63430008120033",
  "devdoc": {
    "events": {
      "Initialized(uint8)": {
        "details": "Triggered when the contract has been initialized or reinitialized."
      },
      "Paused(address)": {
        "details": "Emitted when the pause is triggered by `account`."
      },
      "Unpaused(address)": {
        "details": "Emitted when the pause is lifted by `account`."
      }
    },
    "kind": "dev",
    "methods": {
      "bridgeCreditAndSwapForTokens(address,uint256,uint256,uint256,address,uint32)": {
        "details": "Nonce must be non-zero, otherwise wormhole will revert the message"
      },
      "estimateDeliveryFee(uint16,uint32,uint256)": {
        "details": "TODO: Add a mock relayer to test this function",
        "params": {
          "gasLimit": "gas limit of the callback function on the designated network",
          "receiveValue": "target amount of gas token to receive",
          "toChain": "wormhole chain ID"
        }
      },
      "owner()": {
        "details": "Returns the address of the current owner."
      },
      "paused()": {
        "details": "Returns true if the contract is paused, and false otherwise."
      },
      "receiveWormholeMessages(bytes[],bytes[])": {
        "details": "core relayer is assumed to be trusted so re-entrancy protection is not required Note: This function should NOT throw; Otherwise it will be a delivery failure (ref: https://book.wormhole.com/technical/evm/relayer.html#delivery-failures)"
      },
      "renounceOwnership()": {
        "details": "Leaves the contract without owner. It will not be possible to call `onlyOwner` functions anymore. Can only be called by the current owner. NOTE: Renouncing ownership will leave the contract without an owner, thereby removing any functionality that is only available to the owner."
      },
      "requestResend(uint16,bytes32,uint32,uint16)": {
        "details": "Redeliver could actually be invoked permisionless on any of the chain that wormhole supports Delivery fee attached to the txn should be done off-chain via `WormholeAdaptor.estimateRedeliveryFee` to reduce gas cost"
      },
      "transferOwnership(address)": {
        "details": "Transfers ownership of the contract to a new account (`newOwner`). Can only be called by the current owner."
      }
    },
    "stateVariables": {
      "adaptorAddress": {
        "details": "wormhole chainId => adaptor address"
      },
      "deliveredMessage": {
        "details": "hash => is message delivered"
      }
    },
    "title": "WormholeAdaptor",
    "version": 1
  },
  "userdoc": {
    "kind": "user",
    "methods": {
      "approveToken(uint256,address)": {
        "notice": "Permisioneed functions"
      },
      "estimateDeliveryFee(uint16,uint32,uint256)": {
        "notice": "Estimate the amount of message value required to deliver a message with given `gasLimit` and `receiveValue` A buffer should be added to `gasLimit` in case the amount of gas required is higher than the expectation"
      },
      "requestResend(uint16,bytes32,uint32,uint16)": {
        "notice": "A convinience function to redeliver"
      },
      "validToken(uint256,address)": {
        "notice": "whether the token is valid"
      }
    },
    "notice": "`WormholeAdaptor` uses the generic relayer of wormhole to send message across different networks",
    "version": 1
  },
  "storageLayout": {
    "storage": [
      {
        "astId": 138,
        "contract": "contracts/wombat-core/pool/WormholeAdaptor.sol:WormholeAdaptor",
        "label": "_initialized",
        "offset": 0,
        "slot": "0",
        "type": "t_uint8"
      },
      {
        "astId": 141,
        "contract": "contracts/wombat-core/pool/WormholeAdaptor.sol:WormholeAdaptor",
        "label": "_initializing",
        "offset": 1,
        "slot": "0",
        "type": "t_bool"
      },
      {
        "astId": 825,
        "contract": "contracts/wombat-core/pool/WormholeAdaptor.sol:WormholeAdaptor",
        "label": "__gap",
        "offset": 0,
        "slot": "1",
        "type": "t_array(t_uint256)50_storage"
      },
      {
        "astId": 10,
        "contract": "contracts/wombat-core/pool/WormholeAdaptor.sol:WormholeAdaptor",
        "label": "_owner",
        "offset": 0,
        "slot": "51",
        "type": "t_address"
      },
      {
        "astId": 130,
        "contract": "contracts/wombat-core/pool/WormholeAdaptor.sol:WormholeAdaptor",
        "label": "__gap",
        "offset": 0,
        "slot": "52",
        "type": "t_array(t_uint256)49_storage"
      },
      {
        "astId": 441,
        "contract": "contracts/wombat-core/pool/WormholeAdaptor.sol:WormholeAdaptor",
        "label": "_status",
        "offset": 0,
        "slot": "101",
        "type": "t_uint256"
      },
      {
        "astId": 499,
        "contract": "contracts/wombat-core/pool/WormholeAdaptor.sol:WormholeAdaptor",
        "label": "__gap",
        "offset": 0,
        "slot": "102",
        "type": "t_array(t_uint256)49_storage"
      },
      {
        "astId": 321,
        "contract": "contracts/wombat-core/pool/WormholeAdaptor.sol:WormholeAdaptor",
        "label": "_paused",
        "offset": 0,
        "slot": "151",
        "type": "t_bool"
      },
      {
        "astId": 426,
        "contract": "contracts/wombat-core/pool/WormholeAdaptor.sol:WormholeAdaptor",
        "label": "__gap",
        "offset": 0,
        "slot": "152",
        "type": "t_array(t_uint256)49_storage"
      },
      {
        "astId": 2571,
        "contract": "contracts/wombat-core/pool/WormholeAdaptor.sol:WormholeAdaptor",
        "label": "megaPool",
        "offset": 0,
        "slot": "201",
        "type": "t_contract(IMegaPool)1881"
      },
      {
        "astId": 2573,
        "contract": "contracts/wombat-core/pool/WormholeAdaptor.sol:WormholeAdaptor",
        "label": "_used",
        "offset": 0,
        "slot": "202",
        "type": "t_uint256"
      },
      {
        "astId": 2580,
        "contract": "contracts/wombat-core/pool/WormholeAdaptor.sol:WormholeAdaptor",
        "label": "validToken",
        "offset": 0,
        "slot": "203",
        "type": "t_mapping(t_uint256,t_mapping(t_address,t_bool))"
      },
      {
        "astId": 2584,
        "contract": "contracts/wombat-core/pool/WormholeAdaptor.sol:WormholeAdaptor",
        "label": "_gap",
        "offset": 0,
        "slot": "204",
        "type": "t_array(t_uint256)50_storage"
      },
      {
        "astId": 9208,
        "contract": "contracts/wombat-core/pool/WormholeAdaptor.sol:WormholeAdaptor",
        "label": "relayer",
        "offset": 0,
        "slot": "254",
        "type": "t_contract(IWormholeRelayer)2546"
      },
      {
        "astId": 9211,
        "contract": "contracts/wombat-core/pool/WormholeAdaptor.sol:WormholeAdaptor",
        "label": "wormhole",
        "offset": 0,
        "slot": "255",
        "type": "t_contract(IWormhole)2329"
      },
      {
        "astId": 9216,
        "contract": "contracts/wombat-core/pool/WormholeAdaptor.sol:WormholeAdaptor",
        "label": "adaptorAddress",
        "offset": 0,
        "slot": "256",
        "type": "t_mapping(t_uint16,t_address)"
      },
      {
        "astId": 9221,
        "contract": "contracts/wombat-core/pool/WormholeAdaptor.sol:WormholeAdaptor",
        "label": "deliveredMessage",
        "offset": 0,
        "slot": "257",
        "type": "t_mapping(t_bytes32,t_bool)"
      }
    ],
    "types": {
      "t_address": {
        "encoding": "inplace",
        "label": "address",
        "numberOfBytes": "20"
      },
      "t_array(t_uint256)49_storage": {
        "base": "t_uint256",
        "encoding": "inplace",
        "label": "uint256[49]",
        "numberOfBytes": "1568"
      },
      "t_array(t_uint256)50_storage": {
        "base": "t_uint256",
        "encoding": "inplace",
        "label": "uint256[50]",
        "numberOfBytes": "1600"
      },
      "t_bool": {
        "encoding": "inplace",
        "label": "bool",
        "numberOfBytes": "1"
      },
      "t_bytes32": {
        "encoding": "inplace",
        "label": "bytes32",
        "numberOfBytes": "32"
      },
      "t_contract(IMegaPool)1881": {
        "encoding": "inplace",
        "label": "contract IMegaPool",
        "numberOfBytes": "20"
      },
      "t_contract(IWormhole)2329": {
        "encoding": "inplace",
        "label": "contract IWormhole",
        "numberOfBytes": "20"
      },
      "t_contract(IWormholeRelayer)2546": {
        "encoding": "inplace",
        "label": "contract IWormholeRelayer",
        "numberOfBytes": "20"
      },
      "t_mapping(t_address,t_bool)": {
        "encoding": "mapping",
        "key": "t_address",
        "label": "mapping(address => bool)",
        "numberOfBytes": "32",
        "value": "t_bool"
      },
      "t_mapping(t_bytes32,t_bool)": {
        "encoding": "mapping",
        "key": "t_bytes32",
        "label": "mapping(bytes32 => bool)",
        "numberOfBytes": "32",
        "value": "t_bool"
      },
      "t_mapping(t_uint16,t_address)": {
        "encoding": "mapping",
        "key": "t_uint16",
        "label": "mapping(uint16 => address)",
        "numberOfBytes": "32",
        "value": "t_address"
      },
      "t_mapping(t_uint256,t_mapping(t_address,t_bool))": {
        "encoding": "mapping",
        "key": "t_uint256",
        "label": "mapping(uint256 => mapping(address => bool))",
        "numberOfBytes": "32",
        "value": "t_mapping(t_address,t_bool)"
      },
      "t_uint16": {
        "encoding": "inplace",
        "label": "uint16",
        "numberOfBytes": "2"
      },
      "t_uint256": {
        "encoding": "inplace",
        "label": "uint256",
        "numberOfBytes": "32"
      },
      "t_uint8": {
        "encoding": "inplace",
        "label": "uint8",
        "numberOfBytes": "1"
      }
    }
  }
}