{
  "address": "0xDa01302C86ECcd5bc94c1086777acF3c3Af7EF63",
  "abi": [
    {
      "inputs": [],
      "name": "CORE_CASH_NOT_ENOUGH",
      "type": "error"
    },
    {
      "inputs": [],
      "name": "CORE_COV_RATIO_LIMIT_EXCEEDED",
      "type": "error"
    },
    {
      "inputs": [],
      "name": "CORE_INVALID_HIGH_COV_RATIO_FEE",
      "type": "error"
    },
    {
      "inputs": [],
      "name": "CORE_INVALID_VALUE",
      "type": "error"
    },
    {
      "inputs": [],
      "name": "CORE_UNDERFLOW",
      "type": "error"
    },
    {
      "inputs": [],
      "name": "CORE_ZERO_LIQUIDITY",
      "type": "error"
    },
    {
      "inputs": [
        {
          "internalType": "int256",
          "name": "D",
          "type": "int256"
        },
        {
          "internalType": "int256",
          "name": "SL",
          "type": "int256"
        },
        {
          "internalType": "int256",
          "name": "delta_i",
          "type": "int256"
        },
        {
          "internalType": "int256",
          "name": "A_i",
          "type": "int256"
        },
        {
          "internalType": "int256",
          "name": "L_i",
          "type": "int256"
        },
        {
          "internalType": "int256",
          "name": "A",
          "type": "int256"
        }
      ],
      "name": "depositRewardImpl",
      "outputs": [
        {
          "internalType": "int256",
          "name": "v",
          "type": "int256"
        }
      ],
      "stateMutability": "pure",
      "type": "function"
    },
    {
      "inputs": [
        {
          "internalType": "int256",
          "name": "D",
          "type": "int256"
        },
        {
          "internalType": "int256",
          "name": "SL",
          "type": "int256"
        },
        {
          "internalType": "int256",
          "name": "A",
          "type": "int256"
        }
      ],
      "name": "equilCovRatio",
      "outputs": [
        {
          "internalType": "int256",
          "name": "er",
          "type": "int256"
        }
      ],
      "stateMutability": "pure",
      "type": "function"
    },
    {
      "inputs": [
        {
          "internalType": "int256",
          "name": "D_i",
          "type": "int256"
        },
        {
          "internalType": "int256",
          "name": "A_i",
          "type": "int256"
        },
        {
          "internalType": "int256",
          "name": "L_i",
          "type": "int256"
        },
        {
          "internalType": "int256",
          "name": "A",
          "type": "int256"
        }
      ],
      "name": "exactDepositLiquidityInEquilImpl",
      "outputs": [
        {
          "internalType": "int256",
          "name": "liquidity",
          "type": "int256"
        }
      ],
      "stateMutability": "pure",
      "type": "function"
    },
    {
      "inputs": [
        {
          "internalType": "uint256",
          "name": "fromAssetCash",
          "type": "uint256"
        },
        {
          "internalType": "uint256",
          "name": "fromAssetLiability",
          "type": "uint256"
        },
        {
          "internalType": "uint256",
          "name": "fromAmount",
          "type": "uint256"
        },
        {
          "internalType": "uint256",
          "name": "quotedToAmount",
          "type": "uint256"
        },
        {
          "internalType": "uint256",
          "name": "startCovRatio",
          "type": "uint256"
        },
        {
          "internalType": "uint256",
          "name": "endCovRatio",
          "type": "uint256"
        }
      ],
      "name": "highCovRatioFee",
      "outputs": [
        {
          "internalType": "uint256",
          "name": "fee",
          "type": "uint256"
        }
      ],
      "stateMutability": "pure",
      "type": "function"
    },
    {
      "inputs": [
        {
          "internalType": "contract IAsset",
          "name": "asset",
          "type": "IAsset"
        },
        {
          "internalType": "uint256",
          "name": "amount",
          "type": "uint256"
        },
        {
          "internalType": "uint256",
          "name": "ampFactor",
          "type": "uint256"
        }
      ],
      "name": "quoteDepositLiquidityInEquil",
      "outputs": [
        {
          "internalType": "uint256",
          "name": "lpTokenToMint",
          "type": "uint256"
        },
        {
          "internalType": "uint256",
          "name": "liabilityToMint",
          "type": "uint256"
        },
        {
          "internalType": "uint256",
          "name": "reward",
          "type": "uint256"
        }
      ],
      "stateMutability": "view",
      "type": "function"
    },
    {
      "inputs": [
        {
          "internalType": "contract IAsset",
          "name": "fromAsset",
          "type": "IAsset"
        },
        {
          "internalType": "contract IAsset",
          "name": "toAsset",
          "type": "IAsset"
        },
        {
          "internalType": "int256",
          "name": "fromAmount",
          "type": "int256"
        },
        {
          "internalType": "uint256",
          "name": "ampFactor",
          "type": "uint256"
        },
        {
          "internalType": "uint256",
          "name": "scaleFactor",
          "type": "uint256"
        },
        {
          "internalType": "uint256",
          "name": "haircutRate",
          "type": "uint256"
        }
      ],
      "name": "quoteSwap",
      "outputs": [
        {
          "internalType": "uint256",
          "name": "actualToAmount",
          "type": "uint256"
        },
        {
          "internalType": "uint256",
          "name": "haircut",
          "type": "uint256"
        }
      ],
      "stateMutability": "view",
      "type": "function"
    },
    {
      "inputs": [
        {
          "internalType": "uint256",
          "name": "fromAmount",
          "type": "uint256"
        },
        {
          "internalType": "contract IAsset",
          "name": "toAsset",
          "type": "IAsset"
        },
        {
          "internalType": "uint256",
          "name": "ampFactor",
          "type": "uint256"
        },
        {
          "internalType": "uint256",
          "name": "scaleFactor",
          "type": "uint256"
        },
        {
          "internalType": "uint256",
          "name": "haircutRate",
          "type": "uint256"
        }
      ],
      "name": "quoteSwapCreditForTokens",
      "outputs": [
        {
          "internalType": "uint256",
          "name": "actualToAmount",
          "type": "uint256"
        },
        {
          "internalType": "uint256",
          "name": "haircut",
          "type": "uint256"
        }
      ],
      "stateMutability": "view",
      "type": "function"
    },
    {
      "inputs": [
        {
          "internalType": "contract IAsset",
          "name": "fromAsset",
          "type": "IAsset"
        },
        {
          "internalType": "uint256",
          "name": "fromAmount",
          "type": "uint256"
        },
        {
          "internalType": "uint256",
          "name": "ampFactor",
          "type": "uint256"
        },
        {
          "internalType": "uint256",
          "name": "scaleFactor",
          "type": "uint256"
        },
        {
          "internalType": "uint256",
          "name": "startCovRatio",
          "type": "uint256"
        },
        {
          "internalType": "uint256",
          "name": "endCovRatio",
          "type": "uint256"
        }
      ],
      "name": "quoteSwapTokensForCredit",
      "outputs": [
        {
          "internalType": "uint256",
          "name": "creditAmount",
          "type": "uint256"
        },
        {
          "internalType": "uint256",
          "name": "haircut",
          "type": "uint256"
        }
      ],
      "stateMutability": "view",
      "type": "function"
    },
    {
      "inputs": [
        {
          "internalType": "contract IAsset",
          "name": "asset",
          "type": "IAsset"
        },
        {
          "internalType": "uint256",
          "name": "liquidity",
          "type": "uint256"
        },
        {
          "internalType": "uint256",
          "name": "ampFactor",
          "type": "uint256"
        }
      ],
      "name": "quoteWithdrawAmount",
      "outputs": [
        {
          "internalType": "uint256",
          "name": "amount",
          "type": "uint256"
        },
        {
          "internalType": "uint256",
          "name": "liabilityToBurn",
          "type": "uint256"
        },
        {
          "internalType": "uint256",
          "name": "fee",
          "type": "uint256"
        }
      ],
      "stateMutability": "view",
      "type": "function"
    },
    {
      "inputs": [
        {
          "internalType": "contract IAsset",
          "name": "fromAsset",
          "type": "IAsset"
        },
        {
          "internalType": "contract IAsset",
          "name": "toAsset",
          "type": "IAsset"
        },
        {
          "internalType": "uint256",
          "name": "liquidity",
          "type": "uint256"
        },
        {
          "internalType": "uint256",
          "name": "ampFactor",
          "type": "uint256"
        },
        {
          "internalType": "uint256",
          "name": "scaleFactor",
          "type": "uint256"
        },
        {
          "internalType": "uint256",
          "name": "haircutRate",
          "type": "uint256"
        },
        {
          "internalType": "uint256",
          "name": "startCovRatio",
          "type": "uint256"
        },
        {
          "internalType": "uint256",
          "name": "endCovRatio",
          "type": "uint256"
        }
      ],
      "name": "quoteWithdrawAmountFromOtherAsset",
      "outputs": [
        {
          "internalType": "uint256",
          "name": "finalAmount",
          "type": "uint256"
        },
        {
          "internalType": "uint256",
          "name": "withdrewAmount",
          "type": "uint256"
        }
      ],
      "stateMutability": "view",
      "type": "function"
    },
    {
      "inputs": [
        {
          "internalType": "int256",
          "name": "Ax",
          "type": "int256"
        },
        {
          "internalType": "int256",
          "name": "Lx",
          "type": "int256"
        },
        {
          "internalType": "int256",
          "name": "delta_credit",
          "type": "int256"
        },
        {
          "internalType": "int256",
          "name": "A",
          "type": "int256"
        }
      ],
      "name": "swapFromCreditQuote",
      "outputs": [
        {
          "internalType": "int256",
          "name": "quote",
          "type": "int256"
        }
      ],
      "stateMutability": "pure",
      "type": "function"
    },
    {
      "inputs": [
        {
          "internalType": "int256",
          "name": "Ax",
          "type": "int256"
        },
        {
          "internalType": "int256",
          "name": "Ay",
          "type": "int256"
        },
        {
          "internalType": "int256",
          "name": "Lx",
          "type": "int256"
        },
        {
          "internalType": "int256",
          "name": "Ly",
          "type": "int256"
        },
        {
          "internalType": "int256",
          "name": "Dx",
          "type": "int256"
        },
        {
          "internalType": "int256",
          "name": "A",
          "type": "int256"
        }
      ],
      "name": "swapQuoteFunc",
      "outputs": [
        {
          "internalType": "uint256",
          "name": "quote",
          "type": "uint256"
        }
      ],
      "stateMutability": "pure",
      "type": "function"
    },
    {
      "inputs": [
        {
          "internalType": "int256",
          "name": "Ax",
          "type": "int256"
        },
        {
          "internalType": "int256",
          "name": "Lx",
          "type": "int256"
        },
        {
          "internalType": "int256",
          "name": "Dx",
          "type": "int256"
        },
        {
          "internalType": "int256",
          "name": "A",
          "type": "int256"
        }
      ],
      "name": "swapToCreditQuote",
      "outputs": [
        {
          "internalType": "int256",
          "name": "quote",
          "type": "int256"
        }
      ],
      "stateMutability": "pure",
      "type": "function"
    },
    {
      "inputs": [
        {
          "internalType": "int256",
          "name": "delta_i",
          "type": "int256"
        },
        {
          "internalType": "int256",
          "name": "A_i",
          "type": "int256"
        },
        {
          "internalType": "int256",
          "name": "L_i",
          "type": "int256"
        },
        {
          "internalType": "int256",
          "name": "A",
          "type": "int256"
        }
      ],
      "name": "withdrawalAmountInEquilImpl",
      "outputs": [
        {
          "internalType": "int256",
          "name": "amount",
          "type": "int256"
        }
      ],
      "stateMutability": "pure",
      "type": "function"
    }
  ],
  "transactionHash": "0x314af65e654c22f497301df622fb96b9c913565c36cdc88a380c2dbee4c10f12",
  "args": [],
  "solcInputHash": "7d30d23a7df531766c7f8ad3938bd88d",
  "bytecode": "0x6080806040523461001a57611a959081610020823930815050f35b600080fdfe6040608081526004908136101561001557600080fd5b6000803560e01c80631f86566214610cb25780632841c1ad14610c9a5780632f6599bb14610c6c5780634c5b402d14610c5457806367146f2914610adf5780637b33fce7146108e0578063af633c40146108ae578063b94f2f9a14610667578063d7454c5314610624578063df4912981461060c578063e02a44c6146102f5578063e24a186a146102da578063f50fc03e146102b85763f6ae404f146100ba57600080fd5b6100c336610d19565b9291946001600160a01b038396169285519463961be39160e01b865260209384878581895afa968715610253578397610299575b5087519163705727b560e01b97888452868487818b5afa93841561028f578594610266575b5061014691610141916effffffffffffffffffffffffffffff80809716911685611683565b610e11565b98818a1061025d57508803955b875190815284818581895afa908115610253578391610226575b501693846101a057505050505061019c9083925b51938493846040919493926060820195825260208201520152565b0390f35b83908751938480926318160ddd60e01b82525afa92831561021a5781936101e2575b50505061019c92916101d76101dc9287610dc8565b610df1565b92610181565b9091809350813d8311610213575b6101fa8183610d69565b81010312610210575051816101d76101dc6101c2565b80fd5b503d6101f0565b508551903d90823e3d90fd5b6102469150853d871161024c575b61023e8183610d69565b810190610da1565b3861016d565b503d610234565b88513d85823e3d90fd5b96985097610153565b6101419194509161028661014693893d8b1161024c5761023e8183610d69565b9491509161011c565b8a513d87823e3d90fd5b6102b1919750853d871161024c5761023e8183610d69565b95386100f7565b6020836102d36102c736610d43565b9493909392919261119c565b9051908152f35b6020836102d36102e936610d43565b94939093929192611314565b50829060c03660031901126102105761030c610d03565b91610315610ced565b916044359060843592828281126105d9575b5086519463961be39160e01b8087526001600160a01b038098169360209889898681895afa9889156105cf5782996105b0575b506effffffffffffffffffffffffffffff8099168b519163705727b560e01b928381528c8189818c5afa90811561058957908c918e8792610593575b5050169516918c51908582528c828981875afa91821561058957908e8e92879461056a575b50670de0b6b3a76400008d819e8203610538575b50508990518096819382525afa92831561052e57918b8a9261040595948f889661050f575b50501696878d60643595169261119c565b978187139586948a9086610505575b50508415610488575b5050505061047a575015610458575061044c9061044461043f60a43585610dc8565b61108b565b048092610e8b565b915b8351928352820152f35b929161043f610473919461046e60a43591610e7a565b610dc8565b049061044e565b8651631c4bd71760e01b8152fd5b90919293508983881294856104a6575b50505050508880808061041d565b909192939450858c518094819382525afa9283156104fa57926104db575b506104ce85610e7a565b9116108880808981610498565b6104f3919250883d8a1161024c5761023e8183610d69565b90896104c4565b8a51903d90823e3d90fd5b109450898d610414565b610526929650803d1061024c5761023e8183610d69565b93388f6103f4565b8d513d86823e3d90fd5b80828d949f9c98828261055161055f9661055894610dc8565b049a610dc8565b049b611106565b059b90508c386103cf565b610582919450833d851161024c5761023e8183610d69565b92386103bb565b8e513d87823e3d90fd5b6105a99250803d1061024c5761023e8183610d69565b8f8e610396565b6105c89199508a3d8c1161024c5761023e8183610d69565b978b61035a565b8b513d84823e3d90fd5b6106059193506106006105f66105f060a4356110ad565b926110e9565b6002830590611180565b611129565b9187610327565b6020836102d361061b36610cca565b929190916114dd565b50606036600319011261021057506102d360209261066261065d61064b60243593356110e9565b92610600604435946002830590611180565b610e7a565b611997565b5082906101003660031901126102105761067f610d03565b610687610ced565b926044359060643561069a818486610e98565b505091829588519063961be39160e01b928383526001600160a01b0380981660209889858481855afa94851561052e57849561088f575b506106ee886effffffffffffffffffffffffffffff809716610e8b565b988d518b81868163705727b560e01b978882525afa90811561088457610721929188918e8992610867575b505016610e8b565b9b670de0b6b3a764000098608435670de0b6b3a763ffff19810161083d575b505016918c5195865289868281865afa95861561052e57908a9291859761081e575b508d518094819382525afa91821561081357836107ab9796948b9461079497948e94916107f6575b501692168861119c565b906107a461043f60a43584610dc8565b0490610e8b565b9360c4359081158015906107eb575b6107cc575b5050508351928352820152f35b9085856107e0949360e498969835946118d2565b9003918480806107bf565b5060e43515156107ba565b61080d91508c8d3d1061024c5761023e8183610d69565b8f61078a565b8b51903d90823e3d90fd5b610836919750833d851161024c5761023e8183610d69565b958e610762565b8a61085e929f9c81949f5082826108578261085794610dc8565b049e610dc8565b049a8e80610740565b61087d9250803d1061024c5761023e8183610d69565b388e610719565b508e513d87823e3d90fd5b6108a79195508a3d8c1161024c5761023e8183610d69565b938d6106d1565b61019c836108c46108be36610d19565b91610e98565b9251918252602082015260408101919091529081906060820190565b50829060c0366003190112610210576108f7610d03565b835163961be39160e01b8082526020928491602435916001600160a01b03168260643587878b81865afa968715610a5957908a92918798610ac0575b506effffffffffffffffffffffffffffff809816918c518a8163705727b560e01b9687825281895afa908115610ab657908a918a91610a99575b501691670de0b6b3a764000090818103610a63575b505050610997918661014192604435926117fb565b988a5193845287848281865afa938415610a5957908892918795610a3a575b508b518094819382525afa938415610a2f57916109ea95949391899394610a10575b5060a4359480608435951691166118d2565b806109fb575b508351928352820152f35b610a089192508093610e8b565b9190846109f0565b610a28919450873d891161024c5761023e8183610d69565b928a6109d8565b8951903d90823e3d90fd5b610a52919550833d851161024c5761023e8183610d69565b938c6109b6565b8b513d88823e3d90fd5b610141939298508082610a888282610a81610a8f966109979b610dc8565b0496610dc8565b0499610dc8565b0496918193610982565b610ab091508c8d3d1061024c5761023e8183610d69565b8f61096d565b8e513d8b823e3d90fd5b610ad8919850893d8b1161024c5761023e8183610d69565b968c610933565b508260a0366003190112610c5057803591610af8610ced565b9060643591608435916001600160a01b0386921690875163961be39160e01b815260209788828981875afa918215610c46578392610c27575b5087896effffffffffffffffffffffffffffff809416958c519283809263705727b560e01b82525afa9384156108135793610c08575b50670de0b6b3a7640000968791828203610be8575b505050610b93918461014192604435921685611873565b94821515918290879082610bde575b5050610bd0575015610bc057509061044461043f61044c9385610dc8565b93926104739161043f9195610dc8565b8751631c4bd71760e01b8152fd5b109050868a610ba2565b610141939650610b93949291610bfd91610dc8565b049491879193610b7c565b610c20919350893d8b1161024c5761023e8183610d69565b918a610b67565b610c3f919250893d8b1161024c5761023e8183610d69565b908a610b31565b8a513d85823e3d90fd5b5080fd5b6020836102d3610c6336610cca565b92919091611683565b5060c036600319011261021057506102d360209260a4359060843590606435906044359060243590356118d2565b6020836102d3610ca936610cca565b92919091611873565b6020836102d3610cc136610cca565b929190916117fb565b6080906003190112610ce85760043590602435906044359060643590565b600080fd5b602435906001600160a01b0382168203610ce857565b600435906001600160a01b0382168203610ce857565b6060906003190112610ce8576004356001600160a01b0381168103610ce857906024359060443590565b60c0906003190112610ce857600435906024359060443590606435906084359060a43590565b90601f8019910116810190811067ffffffffffffffff821117610d8b57604052565b634e487b7160e01b600052604160045260246000fd5b90816020910312610ce857516effffffffffffffffffffffffffffff81168103610ce85790565b81810292918115918404141715610ddb57565b634e487b7160e01b600052601160045260246000fd5b8115610dfb570490565b634e487b7160e01b600052601260045260246000fd5b60008112610e1c5790565b60646040517f08c379a000000000000000000000000000000000000000000000000000000000815260206004820152601660248201527f76616c7565206d75737420626520706f736974697665000000000000000000006044820152fd5b600160ff1b8114610ddb5760000390565b91908203918211610ddb57565b9290916000936001600160a01b036000911690604080519063705727b560e01b938483526020978884600481855afa93841561108157859461105e575b50610ef2906effffffffffffffffffffffffffffff809516610dc8565b82516318160ddd60e01b81528981600481865afa908115611054578691611021575b50610f1e91610df1565b978815610ff857610f2e89610e7a565b9483519663961be39160e01b88528288600481875afa978815610fee578298610fcd575b508290600486518096819382525afa938415610fc35750928492610141979592610f8999979592610fa6575b5050169216906114dd565b92838310610f9f5750610f9c8383610e8b565b90565b9092508192565b610fbc9250803d1061024c5761023e8183610d69565b3880610f7e565b51903d90823e3d90fd5b83919850610fe790823d841161024c5761023e8183610d69565b9790610f52565b85513d84823e3d90fd5b600483517fd4b6d81b000000000000000000000000000000000000000000000000000000008152fd5b90508981813d831161104d575b6110388183610d69565b810103126110495751610f1e610f14565b8580fd5b503d61102e565b84513d88823e3d90fd5b610ef291945061107a908a3d8c1161024c5761023e8183610d69565b9390610ed5565b83513d87823e3d90fd5b906706f05b59d3b200008201809211610ddb57565b91908201809211610ddb57565b90670de0b6b3a764000060008382039312818412811691841390151617610ddb57565b81810392916000138015828513169184121617610ddb57565b90670de0b6b3a764000091828102928184051490151715610ddb57565b818102929160008212600160ff1b821416610ddb578184051490151715610ddb57565b8115610dfb57600160ff1b8114600019831416610ddb570590565b9081670de0b6b3a764000001918212600116610ddb57565b906706f05b59d3b200009160008382019384129112908015821691151617610ddb57565b91909160008382019384129112908015821691151617610ddb57565b939094918015801561130c575b6112e257838181926111bb8989611180565b97806111c78380611106565b906111d191611129565b98670de0b6b3a7640000809a8c6111e88880611106565b906111f291611129565b6111fb91611180565b611205908a611106565b61120e9061115c565b05611218916110d0565b9561122291611180565b61122b906110e9565b6002820561123891611180565b9061124291611129565b8061124c876110e9565b6002820561125991611180565b9061126391611129565b61126c916110d0565b61127591611106565b9061127f91611129565b91611289906110e9565b6002820561129691611180565b906112a091611129565b6112a9916110d0565b906112b391611997565b6112bc91611106565b6112c59061115c565b05906112d0916110d0565b6000811215610f9c57610f9c90610e7a565b60046040517fae032660000000000000000000000000000000000000000000000000000000008152fd5b5083156111a9565b949392919483156114d2576113298287611180565b156114c45782809286928661133f8a98976110e9565b6002820561134c91611180565b9061135691611129565b918781611362846110e9565b670de0b6b3a76400009b828d9592600287940561137e91611180565b9061138891611129565b61139190610e7a565b9061139b91611997565b6113a59083611106565b6113ae9061115c565b056113b99083611180565b6113c38284611180565b906113cd906110e9565b600282056113da91611180565b906113e491611129565b916113ee91611180565b90806113f9886110e9565b6002820561140691611180565b9061141091611129565b611419916110d0565b61142291611106565b61142b9061115c565b0592611436916110d0565b906114418487611106565b9061144b91611129565b61145491611180565b9061145e916110d0565b6114688585611180565b90611472906110e9565b6002820561147f91611180565b9061148991611129565b9061149391611997565b9261149d91611180565b936114a791611180565b906114b191611106565b6114ba9061115c565b05610f9c916110d0565b50509150610f9c92506110d0565b505050505050600090565b9290926114ea8184611180565b90836114f5866110e9565b6002820561150291611180565b9061150c91611129565b8094611517856110e9565b90670de0b6b3a76400009680889493600286950561153491611180565b9061153e91611129565b611547916110d0565b61155091611106565b6115599061115c565b0591611564856110ad565b61156d91611106565b6115769061115c565b0561158091611180565b600290059283926115918480611106565b928061159c91611106565b6115a591611106565b6115ae9061115c565b056115b891611180565b906115c2916115d4565b6115cb91611180565b610f9c916110d0565b9190600060038413156116745750600081138061166a575b1561163357915b600280611609856116048186611129565b611180565b05915b84830361161857505050565b919350908161162b856116048185611129565b05919061160c565b6000811280611658575b156116515761164b90610e7a565b916115f3565b50816115f3565b508261166382610e7a565b131561163d565b50828113156115ec565b92905061167d57565b60019150565b919081156117f45760006116978483611180565b126112e2576116b6816116b0846106006105f6846110e9565b94611180565b670de0b6b3a764000091826116db6116d66116d0896110ad565b85611106565b61115c565b0590836116eb6116d6878a611106565b05908160011b916002830503610ddb576117088593928493611180565b96611713878a611106565b9061171d91611129565b611726916110d0565b6117309084611106565b6117399061115c565b05918061174591611106565b61174e9061115c565b05611758916110d0565b91816117648287611106565b61176d9061115c565b059061177891611106565b6117819061115c565b0561178b91611180565b916117968280611106565b928160021b90600482058303610ddb576117e26117f0946117dc6117cc6002986117c66117e79661060098611106565b906110d0565b916117d681610e7a565b926115d4565b90611180565b6110e9565b84830590611180565b0590565b5050905090565b81611861611867926117c661185061184061186d97610600610f9c9b9a6116046117e2611827896110e9565b9261183a86610600600282058097611180565b99611180565b6117c6816106006105f68c6110e9565b916117c6816106006105f68b6110e9565b90611106565b91611144565b90611129565b916116d682611861610f9c966106626106006117dc6118be6118cb986118b9886118ad670de0b6b3a76400009d8f6105f6610600916110e9565b9586936118618a611144565b6110d0565b916106006105f6866110e9565b05906110d0565b909594929391956118ee816118e9600099856110a0565b61196b565b918383116118ff575b505050505050565b61191595969750906119109161196b565b6119d0565b90670de0b6b3a764000091828111611941576119349161043f91610dc8565b04903880808080806118f7565b60046040517f5c7c5649000000000000000000000000000000000000000000000000000000008152fd5b90670de0b6b3a764000091828102928184041490151715610ddb576101d7610f9c928260011c906110a0565b6119a18180611106565b908260021b9280840560041490151715610ddb576118b9816119cb6117f0946117dc6002976110e9565b6115d4565b9092919082841115611a065760046040517fa6af4260000000000000000000000000000000000000000000000000000000008152fd5b818411801590611a55575b611a4c57610f9c93611a3691838111611a41576000905b848303920391800203610df1565b60011c91039061196b565b838103800290611a28565b50505050600090565b5080841115611a1156fea2646970667358221220f6ad1c5505d8f0153aa87ad7f4ece90e1387311f34c3a4ae27d7d683acc138b764736f6c63430008110033",
  "devdoc": {
    "details": "Uses OpenZeppelin's SignedSafeMath and DSMath's WAD for calculations. Change log: - Move view functinos (quotes, high cov ratio fee) from the Pool contract to this contract - Add quote functions for cross chain swaps",
    "kind": "dev",
    "methods": {
      "depositRewardImpl(int256,int256,int256,int256,int256,int256)": {
        "returns": {
          "v": "positive value indicates a reward and negative value indicates a fee"
        }
      },
      "quoteSwap(IAsset,IAsset,int256,uint256,uint256,uint256)": {
        "params": {
          "fromAmount": "The amount to quote",
          "fromAsset": "The initial asset",
          "toAsset": "The asset wanted by user"
        },
        "returns": {
          "actualToAmount": "The actual amount user would receive",
          "haircut": "The haircut that will be applied"
        }
      },
      "quoteWithdrawAmount(IAsset,uint256,uint256)": {
        "params": {
          "asset": "The asset willing to be withdrawn",
          "liquidity": "The liquidity willing to be withdrawn"
        },
        "returns": {
          "amount": "Total amount to be withdrawn from Pool",
          "fee": "fee",
          "liabilityToBurn": "Total liability to be burned by Pool"
        }
      },
      "swapQuoteFunc(int256,int256,int256,int256,int256,int256)": {
        "details": "This function always returns >= 0",
        "params": {
          "A": "amplification factor",
          "Ax": "asset of token x",
          "Ay": "asset of token y",
          "Dx": "delta x, i.e. token x amount inputted",
          "Lx": "liability of token x",
          "Ly": "liability of token y"
        },
        "returns": {
          "quote": "The quote for amount of token y swapped for token x amount inputted"
        }
      },
      "withdrawalAmountInEquilImpl(int256,int256,int256,int256)": {
        "details": "should be used only when r* = 1"
      }
    },
    "title": "CoreV3",
    "version": 1
  },
  "userdoc": {
    "kind": "user",
    "methods": {
      "exactDepositLiquidityInEquilImpl(int256,int256,int256,int256)": {
        "notice": "return the deposit reward in token amount when target liquidity (LP amount) is known"
      },
      "quoteDepositLiquidityInEquil(IAsset,uint256,uint256)": {
        "notice": "This function calculate the exactly amount of liquidity of the deposit. Assumes r* = 1"
      },
      "quoteSwap(IAsset,IAsset,int256,uint256,uint256,uint256)": {
        "notice": "Quotes the actual amount user would receive in a swap, taking in account slippage and haircut"
      },
      "quoteWithdrawAmount(IAsset,uint256,uint256)": {
        "notice": "Calculates fee and liability to burn in case of withdrawal"
      },
      "swapQuoteFunc(int256,int256,int256,int256,int256,int256)": {
        "notice": "Core Wombat stableswap equation"
      }
    },
    "notice": "Handles math operations of Wombat protocol. Assume all params are signed integer with 18 decimals",
    "version": 1
  },
  "storageLayout": {
    "storage": [],
    "types": null
  }
}