{
  "address": "0xfDb30AEedC23ccc4ae91a65B497b32044b117eAC",
  "abi": [
    {
      "inputs": [],
      "name": "POOL__CREDIT_NOT_ENOUGH",
      "type": "error"
    },
    {
      "inputs": [],
      "name": "POOL__REACH_MAXIMUM_BURNED_CREDIT",
      "type": "error"
    },
    {
      "inputs": [],
      "name": "POOL__REACH_MAXIMUM_MINTED_CREDIT",
      "type": "error"
    },
    {
      "inputs": [],
      "name": "POOL__SWAP_CREDIT_FOR_TOKENS_DISABLED",
      "type": "error"
    },
    {
      "inputs": [],
      "name": "POOL__SWAP_TOKENS_FOR_CREDIT_DISABLED",
      "type": "error"
    },
    {
      "inputs": [],
      "name": "WOMBAT_AMOUNT_TOO_LOW",
      "type": "error"
    },
    {
      "inputs": [],
      "name": "WOMBAT_ASSET_ALREADY_EXIST",
      "type": "error"
    },
    {
      "inputs": [],
      "name": "WOMBAT_ASSET_ALREADY_PAUSED",
      "type": "error"
    },
    {
      "inputs": [],
      "name": "WOMBAT_ASSET_NOT_EXISTS",
      "type": "error"
    },
    {
      "inputs": [],
      "name": "WOMBAT_ASSET_NOT_PAUSED",
      "type": "error"
    },
    {
      "inputs": [],
      "name": "WOMBAT_CASH_NOT_ENOUGH",
      "type": "error"
    },
    {
      "inputs": [],
      "name": "WOMBAT_COV_RATIO_LIMIT_EXCEEDED",
      "type": "error"
    },
    {
      "inputs": [],
      "name": "WOMBAT_EXPIRED",
      "type": "error"
    },
    {
      "inputs": [],
      "name": "WOMBAT_FORBIDDEN",
      "type": "error"
    },
    {
      "inputs": [],
      "name": "WOMBAT_INVALID_VALUE",
      "type": "error"
    },
    {
      "inputs": [],
      "name": "WOMBAT_SAME_ADDRESS",
      "type": "error"
    },
    {
      "inputs": [],
      "name": "WOMBAT_ZERO_ADDRESS",
      "type": "error"
    },
    {
      "inputs": [],
      "name": "WOMBAT_ZERO_AMOUNT",
      "type": "error"
    },
    {
      "inputs": [],
      "name": "WOMBAT_ZERO_LIQUIDITY",
      "type": "error"
    },
    {
      "anonymous": false,
      "inputs": [
        {
          "indexed": true,
          "internalType": "address",
          "name": "token",
          "type": "address"
        },
        {
          "indexed": true,
          "internalType": "address",
          "name": "asset",
          "type": "address"
        }
      ],
      "name": "AssetAdded",
      "type": "event"
    },
    {
      "anonymous": false,
      "inputs": [
        {
          "indexed": true,
          "internalType": "address",
          "name": "token",
          "type": "address"
        },
        {
          "indexed": true,
          "internalType": "address",
          "name": "asset",
          "type": "address"
        }
      ],
      "name": "AssetRemoved",
      "type": "event"
    },
    {
      "anonymous": false,
      "inputs": [
        {
          "indexed": true,
          "internalType": "address",
          "name": "sender",
          "type": "address"
        },
        {
          "indexed": false,
          "internalType": "address",
          "name": "token",
          "type": "address"
        },
        {
          "indexed": false,
          "internalType": "uint256",
          "name": "amount",
          "type": "uint256"
        },
        {
          "indexed": false,
          "internalType": "uint256",
          "name": "liquidity",
          "type": "uint256"
        },
        {
          "indexed": true,
          "internalType": "address",
          "name": "to",
          "type": "address"
        }
      ],
      "name": "Deposit",
      "type": "event"
    },
    {
      "anonymous": false,
      "inputs": [
        {
          "indexed": false,
          "internalType": "address",
          "name": "token",
          "type": "address"
        },
        {
          "indexed": false,
          "internalType": "uint256",
          "name": "amount",
          "type": "uint256"
        }
      ],
      "name": "FillPool",
      "type": "event"
    },
    {
      "anonymous": false,
      "inputs": [
        {
          "indexed": true,
          "internalType": "address",
          "name": "receiver",
          "type": "address"
        },
        {
          "indexed": false,
          "internalType": "uint256",
          "name": "creditAmount",
          "type": "uint256"
        },
        {
          "indexed": true,
          "internalType": "uint256",
          "name": "trackingId",
          "type": "uint256"
        }
      ],
      "name": "MintCredit",
      "type": "event"
    },
    {
      "anonymous": false,
      "inputs": [
        {
          "indexed": true,
          "internalType": "address",
          "name": "previousOwner",
          "type": "address"
        },
        {
          "indexed": true,
          "internalType": "address",
          "name": "newOwner",
          "type": "address"
        }
      ],
      "name": "OwnershipTransferred",
      "type": "event"
    },
    {
      "anonymous": false,
      "inputs": [
        {
          "indexed": false,
          "internalType": "address",
          "name": "account",
          "type": "address"
        }
      ],
      "name": "Paused",
      "type": "event"
    },
    {
      "anonymous": false,
      "inputs": [
        {
          "indexed": false,
          "internalType": "address",
          "name": "asset",
          "type": "address"
        },
        {
          "indexed": false,
          "internalType": "address",
          "name": "account",
          "type": "address"
        }
      ],
      "name": "PausedAsset",
      "type": "event"
    },
    {
      "anonymous": false,
      "inputs": [
        {
          "indexed": false,
          "internalType": "uint256",
          "name": "value",
          "type": "uint256"
        }
      ],
      "name": "SetAmpFactor",
      "type": "event"
    },
    {
      "anonymous": false,
      "inputs": [
        {
          "indexed": false,
          "internalType": "address",
          "name": "addr",
          "type": "address"
        }
      ],
      "name": "SetDev",
      "type": "event"
    },
    {
      "anonymous": false,
      "inputs": [
        {
          "indexed": false,
          "internalType": "uint256",
          "name": "lpDividendRatio",
          "type": "uint256"
        },
        {
          "indexed": false,
          "internalType": "uint256",
          "name": "retentionRatio",
          "type": "uint256"
        }
      ],
      "name": "SetFee",
      "type": "event"
    },
    {
      "anonymous": false,
      "inputs": [
        {
          "indexed": false,
          "internalType": "address",
          "name": "addr",
          "type": "address"
        }
      ],
      "name": "SetFeeTo",
      "type": "event"
    },
    {
      "anonymous": false,
      "inputs": [
        {
          "indexed": false,
          "internalType": "uint256",
          "name": "value",
          "type": "uint256"
        }
      ],
      "name": "SetHaircutRate",
      "type": "event"
    },
    {
      "anonymous": false,
      "inputs": [
        {
          "indexed": false,
          "internalType": "address",
          "name": "addr",
          "type": "address"
        }
      ],
      "name": "SetMasterWombat",
      "type": "event"
    },
    {
      "anonymous": false,
      "inputs": [
        {
          "indexed": false,
          "internalType": "uint256",
          "name": "value",
          "type": "uint256"
        }
      ],
      "name": "SetMintFeeThreshold",
      "type": "event"
    },
    {
      "anonymous": false,
      "inputs": [
        {
          "indexed": true,
          "internalType": "address",
          "name": "sender",
          "type": "address"
        },
        {
          "indexed": false,
          "internalType": "address",
          "name": "fromToken",
          "type": "address"
        },
        {
          "indexed": false,
          "internalType": "address",
          "name": "toToken",
          "type": "address"
        },
        {
          "indexed": false,
          "internalType": "uint256",
          "name": "fromAmount",
          "type": "uint256"
        },
        {
          "indexed": false,
          "internalType": "uint256",
          "name": "toAmount",
          "type": "uint256"
        },
        {
          "indexed": true,
          "internalType": "address",
          "name": "to",
          "type": "address"
        }
      ],
      "name": "Swap",
      "type": "event"
    },
    {
      "anonymous": false,
      "inputs": [
        {
          "indexed": false,
          "internalType": "uint256",
          "name": "creditAmount",
          "type": "uint256"
        },
        {
          "indexed": true,
          "internalType": "address",
          "name": "toToken",
          "type": "address"
        },
        {
          "indexed": false,
          "internalType": "uint256",
          "name": "toAmount",
          "type": "uint256"
        },
        {
          "indexed": true,
          "internalType": "address",
          "name": "receiver",
          "type": "address"
        },
        {
          "indexed": true,
          "internalType": "uint256",
          "name": "trackingId",
          "type": "uint256"
        }
      ],
      "name": "SwapCreditForTokens",
      "type": "event"
    },
    {
      "anonymous": false,
      "inputs": [
        {
          "indexed": true,
          "internalType": "address",
          "name": "sender",
          "type": "address"
        },
        {
          "indexed": true,
          "internalType": "address",
          "name": "fromToken",
          "type": "address"
        },
        {
          "indexed": false,
          "internalType": "uint256",
          "name": "fromAmount",
          "type": "uint256"
        },
        {
          "indexed": false,
          "internalType": "uint256",
          "name": "creditAmount",
          "type": "uint256"
        },
        {
          "indexed": true,
          "internalType": "uint256",
          "name": "trackingId",
          "type": "uint256"
        }
      ],
      "name": "SwapTokensForCredit",
      "type": "event"
    },
    {
      "anonymous": false,
      "inputs": [
        {
          "indexed": false,
          "internalType": "address",
          "name": "token",
          "type": "address"
        },
        {
          "indexed": false,
          "internalType": "uint256",
          "name": "amount",
          "type": "uint256"
        },
        {
          "indexed": false,
          "internalType": "address",
          "name": "to",
          "type": "address"
        }
      ],
      "name": "TransferTipBucket",
      "type": "event"
    },
    {
      "anonymous": false,
      "inputs": [
        {
          "indexed": false,
          "internalType": "address",
          "name": "account",
          "type": "address"
        }
      ],
      "name": "Unpaused",
      "type": "event"
    },
    {
      "anonymous": false,
      "inputs": [
        {
          "indexed": false,
          "internalType": "address",
          "name": "asset",
          "type": "address"
        },
        {
          "indexed": false,
          "internalType": "address",
          "name": "account",
          "type": "address"
        }
      ],
      "name": "UnpausedAsset",
      "type": "event"
    },
    {
      "anonymous": false,
      "inputs": [
        {
          "indexed": true,
          "internalType": "address",
          "name": "sender",
          "type": "address"
        },
        {
          "indexed": false,
          "internalType": "address",
          "name": "token",
          "type": "address"
        },
        {
          "indexed": false,
          "internalType": "uint256",
          "name": "amount",
          "type": "uint256"
        },
        {
          "indexed": false,
          "internalType": "uint256",
          "name": "liquidity",
          "type": "uint256"
        },
        {
          "indexed": true,
          "internalType": "address",
          "name": "to",
          "type": "address"
        }
      ],
      "name": "Withdraw",
      "type": "event"
    },
    {
      "inputs": [],
      "name": "adaptor",
      "outputs": [
        {
          "internalType": "contract IAdaptor",
          "name": "",
          "type": "address"
        }
      ],
      "stateMutability": "view",
      "type": "function"
    },
    {
      "inputs": [
        {
          "internalType": "address",
          "name": "token",
          "type": "address"
        },
        {
          "internalType": "address",
          "name": "asset",
          "type": "address"
        }
      ],
      "name": "addAsset",
      "outputs": [],
      "stateMutability": "nonpayable",
      "type": "function"
    },
    {
      "inputs": [
        {
          "internalType": "address",
          "name": "token",
          "type": "address"
        }
      ],
      "name": "addressOfAsset",
      "outputs": [
        {
          "internalType": "address",
          "name": "",
          "type": "address"
        }
      ],
      "stateMutability": "view",
      "type": "function"
    },
    {
      "inputs": [],
      "name": "ampFactor",
      "outputs": [
        {
          "internalType": "uint256",
          "name": "",
          "type": "uint256"
        }
      ],
      "stateMutability": "view",
      "type": "function"
    },
    {
      "inputs": [
        {
          "internalType": "address",
          "name": "toToken",
          "type": "address"
        },
        {
          "internalType": "uint256",
          "name": "fromAmount",
          "type": "uint256"
        },
        {
          "internalType": "uint256",
          "name": "minimumToAmount",
          "type": "uint256"
        },
        {
          "internalType": "address",
          "name": "receiver",
          "type": "address"
        },
        {
          "internalType": "uint256",
          "name": "trackingId",
          "type": "uint256"
        }
      ],
      "name": "completeSwapCreditForTokens",
      "outputs": [
        {
          "internalType": "uint256",
          "name": "actualToAmount",
          "type": "uint256"
        },
        {
          "internalType": "uint256",
          "name": "haircut",
          "type": "uint256"
        }
      ],
      "stateMutability": "nonpayable",
      "type": "function"
    },
    {
      "inputs": [
        {
          "internalType": "address",
          "name": "",
          "type": "address"
        }
      ],
      "name": "creditBalance",
      "outputs": [
        {
          "internalType": "uint256",
          "name": "",
          "type": "uint256"
        }
      ],
      "stateMutability": "view",
      "type": "function"
    },
    {
      "inputs": [],
      "name": "crossChainHaircut",
      "outputs": [
        {
          "internalType": "uint64",
          "name": "",
          "type": "uint64"
        }
      ],
      "stateMutability": "view",
      "type": "function"
    },
    {
      "inputs": [
        {
          "internalType": "address",
          "name": "token",
          "type": "address"
        },
        {
          "internalType": "uint256",
          "name": "amount",
          "type": "uint256"
        },
        {
          "internalType": "uint256",
          "name": "minimumLiquidity",
          "type": "uint256"
        },
        {
          "internalType": "address",
          "name": "to",
          "type": "address"
        },
        {
          "internalType": "uint256",
          "name": "deadline",
          "type": "uint256"
        },
        {
          "internalType": "bool",
          "name": "shouldStake",
          "type": "bool"
        }
      ],
      "name": "deposit",
      "outputs": [
        {
          "internalType": "uint256",
          "name": "liquidity",
          "type": "uint256"
        }
      ],
      "stateMutability": "nonpayable",
      "type": "function"
    },
    {
      "inputs": [],
      "name": "dev",
      "outputs": [
        {
          "internalType": "address",
          "name": "",
          "type": "address"
        }
      ],
      "stateMutability": "view",
      "type": "function"
    },
    {
      "inputs": [],
      "name": "endCovRatio",
      "outputs": [
        {
          "internalType": "uint128",
          "name": "",
          "type": "uint128"
        }
      ],
      "stateMutability": "view",
      "type": "function"
    },
    {
      "inputs": [
        {
          "internalType": "address",
          "name": "token",
          "type": "address"
        }
      ],
      "name": "exchangeRate",
      "outputs": [
        {
          "internalType": "uint256",
          "name": "xr",
          "type": "uint256"
        }
      ],
      "stateMutability": "view",
      "type": "function"
    },
    {
      "inputs": [],
      "name": "feeTo",
      "outputs": [
        {
          "internalType": "address",
          "name": "",
          "type": "address"
        }
      ],
      "stateMutability": "view",
      "type": "function"
    },
    {
      "inputs": [
        {
          "internalType": "address",
          "name": "token",
          "type": "address"
        },
        {
          "internalType": "uint256",
          "name": "amount",
          "type": "uint256"
        }
      ],
      "name": "fillPool",
      "outputs": [],
      "stateMutability": "nonpayable",
      "type": "function"
    },
    {
      "inputs": [],
      "name": "getTokens",
      "outputs": [
        {
          "internalType": "address[]",
          "name": "",
          "type": "address[]"
        }
      ],
      "stateMutability": "view",
      "type": "function"
    },
    {
      "inputs": [],
      "name": "globalEquilCovRatio",
      "outputs": [
        {
          "internalType": "uint256",
          "name": "equilCovRatio",
          "type": "uint256"
        },
        {
          "internalType": "uint256",
          "name": "invariantInUint",
          "type": "uint256"
        }
      ],
      "stateMutability": "view",
      "type": "function"
    },
    {
      "inputs": [],
      "name": "globalEquilCovRatioWithCredit",
      "outputs": [
        {
          "internalType": "uint256",
          "name": "equilCovRatio",
          "type": "uint256"
        },
        {
          "internalType": "uint256",
          "name": "invariantInUint",
          "type": "uint256"
        }
      ],
      "stateMutability": "view",
      "type": "function"
    },
    {
      "inputs": [],
      "name": "haircutRate",
      "outputs": [
        {
          "internalType": "uint256",
          "name": "",
          "type": "uint256"
        }
      ],
      "stateMutability": "view",
      "type": "function"
    },
    {
      "inputs": [
        {
          "internalType": "uint256",
          "name": "ampFactor_",
          "type": "uint256"
        },
        {
          "internalType": "uint256",
          "name": "haircutRate_",
          "type": "uint256"
        }
      ],
      "name": "initialize",
      "outputs": [],
      "stateMutability": "nonpayable",
      "type": "function"
    },
    {
      "inputs": [],
      "name": "lpDividendRatio",
      "outputs": [
        {
          "internalType": "uint256",
          "name": "",
          "type": "uint256"
        }
      ],
      "stateMutability": "view",
      "type": "function"
    },
    {
      "inputs": [],
      "name": "masterWombat",
      "outputs": [
        {
          "internalType": "address",
          "name": "",
          "type": "address"
        }
      ],
      "stateMutability": "view",
      "type": "function"
    },
    {
      "inputs": [],
      "name": "maximumNetBurnedCredit",
      "outputs": [
        {
          "internalType": "uint128",
          "name": "",
          "type": "uint128"
        }
      ],
      "stateMutability": "view",
      "type": "function"
    },
    {
      "inputs": [],
      "name": "maximumNetMintedCredit",
      "outputs": [
        {
          "internalType": "uint128",
          "name": "",
          "type": "uint128"
        }
      ],
      "stateMutability": "view",
      "type": "function"
    },
    {
      "inputs": [
        {
          "internalType": "uint256",
          "name": "creditAmount",
          "type": "uint256"
        },
        {
          "internalType": "address",
          "name": "receiver",
          "type": "address"
        },
        {
          "internalType": "uint256",
          "name": "trackingId",
          "type": "uint256"
        }
      ],
      "name": "mintCredit",
      "outputs": [],
      "stateMutability": "nonpayable",
      "type": "function"
    },
    {
      "inputs": [
        {
          "internalType": "address",
          "name": "token",
          "type": "address"
        }
      ],
      "name": "mintFee",
      "outputs": [],
      "stateMutability": "nonpayable",
      "type": "function"
    },
    {
      "inputs": [],
      "name": "mintFeeThreshold",
      "outputs": [
        {
          "internalType": "uint256",
          "name": "",
          "type": "uint256"
        }
      ],
      "stateMutability": "view",
      "type": "function"
    },
    {
      "inputs": [],
      "name": "owner",
      "outputs": [
        {
          "internalType": "address",
          "name": "",
          "type": "address"
        }
      ],
      "stateMutability": "view",
      "type": "function"
    },
    {
      "inputs": [],
      "name": "pause",
      "outputs": [],
      "stateMutability": "nonpayable",
      "type": "function"
    },
    {
      "inputs": [
        {
          "internalType": "address",
          "name": "token",
          "type": "address"
        }
      ],
      "name": "pauseAsset",
      "outputs": [],
      "stateMutability": "nonpayable",
      "type": "function"
    },
    {
      "inputs": [],
      "name": "paused",
      "outputs": [
        {
          "internalType": "bool",
          "name": "",
          "type": "bool"
        }
      ],
      "stateMutability": "view",
      "type": "function"
    },
    {
      "inputs": [
        {
          "internalType": "address",
          "name": "fromToken",
          "type": "address"
        },
        {
          "internalType": "address",
          "name": "toToken",
          "type": "address"
        },
        {
          "internalType": "int256",
          "name": "toAmount",
          "type": "int256"
        }
      ],
      "name": "quoteAmountIn",
      "outputs": [
        {
          "internalType": "uint256",
          "name": "amountIn",
          "type": "uint256"
        },
        {
          "internalType": "uint256",
          "name": "haircut",
          "type": "uint256"
        }
      ],
      "stateMutability": "view",
      "type": "function"
    },
    {
      "inputs": [
        {
          "internalType": "address",
          "name": "token",
          "type": "address"
        },
        {
          "internalType": "uint256",
          "name": "amount",
          "type": "uint256"
        }
      ],
      "name": "quotePotentialDeposit",
      "outputs": [
        {
          "internalType": "uint256",
          "name": "liquidity",
          "type": "uint256"
        },
        {
          "internalType": "uint256",
          "name": "reward",
          "type": "uint256"
        }
      ],
      "stateMutability": "view",
      "type": "function"
    },
    {
      "inputs": [
        {
          "internalType": "address",
          "name": "fromToken",
          "type": "address"
        },
        {
          "internalType": "address",
          "name": "toToken",
          "type": "address"
        },
        {
          "internalType": "int256",
          "name": "fromAmount",
          "type": "int256"
        }
      ],
      "name": "quotePotentialSwap",
      "outputs": [
        {
          "internalType": "uint256",
          "name": "potentialOutcome",
          "type": "uint256"
        },
        {
          "internalType": "uint256",
          "name": "haircut",
          "type": "uint256"
        }
      ],
      "stateMutability": "view",
      "type": "function"
    },
    {
      "inputs": [
        {
          "internalType": "address",
          "name": "token",
          "type": "address"
        },
        {
          "internalType": "uint256",
          "name": "liquidity",
          "type": "uint256"
        }
      ],
      "name": "quotePotentialWithdraw",
      "outputs": [
        {
          "internalType": "uint256",
          "name": "amount",
          "type": "uint256"
        },
        {
          "internalType": "uint256",
          "name": "fee",
          "type": "uint256"
        }
      ],
      "stateMutability": "view",
      "type": "function"
    },
    {
      "inputs": [
        {
          "internalType": "address",
          "name": "fromToken",
          "type": "address"
        },
        {
          "internalType": "address",
          "name": "toToken",
          "type": "address"
        },
        {
          "internalType": "uint256",
          "name": "liquidity",
          "type": "uint256"
        }
      ],
      "name": "quotePotentialWithdrawFromOtherAsset",
      "outputs": [
        {
          "internalType": "uint256",
          "name": "finalAmount",
          "type": "uint256"
        },
        {
          "internalType": "uint256",
          "name": "withdrewAmount",
          "type": "uint256"
        }
      ],
      "stateMutability": "view",
      "type": "function"
    },
    {
      "inputs": [
        {
          "internalType": "address",
          "name": "toToken",
          "type": "address"
        },
        {
          "internalType": "uint256",
          "name": "fromCreditAmount",
          "type": "uint256"
        }
      ],
      "name": "quoteSwapCreditForTokens",
      "outputs": [
        {
          "internalType": "uint256",
          "name": "amount",
          "type": "uint256"
        }
      ],
      "stateMutability": "view",
      "type": "function"
    },
    {
      "inputs": [
        {
          "internalType": "address",
          "name": "fromToken",
          "type": "address"
        },
        {
          "internalType": "uint256",
          "name": "fromAmount",
          "type": "uint256"
        }
      ],
      "name": "quoteSwapTokensForCredit",
      "outputs": [
        {
          "internalType": "uint256",
          "name": "creditAmount",
          "type": "uint256"
        },
        {
          "internalType": "uint256",
          "name": "haircut",
          "type": "uint256"
        }
      ],
      "stateMutability": "view",
      "type": "function"
    },
    {
      "inputs": [
        {
          "internalType": "address",
          "name": "token",
          "type": "address"
        }
      ],
      "name": "removeAsset",
      "outputs": [],
      "stateMutability": "nonpayable",
      "type": "function"
    },
    {
      "inputs": [],
      "name": "renounceOwnership",
      "outputs": [],
      "stateMutability": "nonpayable",
      "type": "function"
    },
    {
      "inputs": [],
      "name": "retentionRatio",
      "outputs": [
        {
          "internalType": "uint256",
          "name": "",
          "type": "uint256"
        }
      ],
      "stateMutability": "view",
      "type": "function"
    },
    {
      "inputs": [
        {
          "internalType": "contract IAdaptor",
          "name": "_adaptor",
          "type": "address"
        }
      ],
      "name": "setAdaptorAddr",
      "outputs": [],
      "stateMutability": "nonpayable",
      "type": "function"
    },
    {
      "inputs": [
        {
          "internalType": "uint256",
          "name": "ampFactor_",
          "type": "uint256"
        }
      ],
      "name": "setAmpFactor",
      "outputs": [],
      "stateMutability": "nonpayable",
      "type": "function"
    },
    {
      "inputs": [
        {
          "internalType": "uint128",
          "name": "startCovRatio_",
          "type": "uint128"
        },
        {
          "internalType": "uint128",
          "name": "endCovRatio_",
          "type": "uint128"
        }
      ],
      "name": "setCovRatioFeeParam",
      "outputs": [],
      "stateMutability": "nonpayable",
      "type": "function"
    },
    {
      "inputs": [
        {
          "internalType": "uint64",
          "name": "_crossChainHaircut",
          "type": "uint64"
        }
      ],
      "name": "setCrossChainHaircut",
      "outputs": [],
      "stateMutability": "nonpayable",
      "type": "function"
    },
    {
      "inputs": [
        {
          "internalType": "address",
          "name": "dev_",
          "type": "address"
        }
      ],
      "name": "setDev",
      "outputs": [],
      "stateMutability": "nonpayable",
      "type": "function"
    },
    {
      "inputs": [
        {
          "internalType": "uint256",
          "name": "lpDividendRatio_",
          "type": "uint256"
        },
        {
          "internalType": "uint256",
          "name": "retentionRatio_",
          "type": "uint256"
        }
      ],
      "name": "setFee",
      "outputs": [],
      "stateMutability": "nonpayable",
      "type": "function"
    },
    {
      "inputs": [
        {
          "internalType": "address",
          "name": "feeTo_",
          "type": "address"
        }
      ],
      "name": "setFeeTo",
      "outputs": [],
      "stateMutability": "nonpayable",
      "type": "function"
    },
    {
      "inputs": [
        {
          "internalType": "uint256",
          "name": "haircutRate_",
          "type": "uint256"
        }
      ],
      "name": "setHaircutRate",
      "outputs": [],
      "stateMutability": "nonpayable",
      "type": "function"
    },
    {
      "inputs": [
        {
          "internalType": "address",
          "name": "masterWombat_",
          "type": "address"
        }
      ],
      "name": "setMasterWombat",
      "outputs": [],
      "stateMutability": "nonpayable",
      "type": "function"
    },
    {
      "inputs": [
        {
          "internalType": "uint128",
          "name": "_maximumNetBurnedCredit",
          "type": "uint128"
        }
      ],
      "name": "setMaximumNetBurnedCredit",
      "outputs": [],
      "stateMutability": "nonpayable",
      "type": "function"
    },
    {
      "inputs": [
        {
          "internalType": "uint128",
          "name": "_maximumNetMintedCredit",
          "type": "uint128"
        }
      ],
      "name": "setMaximumNetMintedCredit",
      "outputs": [],
      "stateMutability": "nonpayable",
      "type": "function"
    },
    {
      "inputs": [
        {
          "internalType": "uint256",
          "name": "mintFeeThreshold_",
          "type": "uint256"
        }
      ],
      "name": "setMintFeeThreshold",
      "outputs": [],
      "stateMutability": "nonpayable",
      "type": "function"
    },
    {
      "inputs": [
        {
          "internalType": "bool",
          "name": "enable",
          "type": "bool"
        }
      ],
      "name": "setSwapCreditForTokensEnabled",
      "outputs": [],
      "stateMutability": "nonpayable",
      "type": "function"
    },
    {
      "inputs": [
        {
          "internalType": "bool",
          "name": "enable",
          "type": "bool"
        }
      ],
      "name": "setSwapTokensForCreditEnabled",
      "outputs": [],
      "stateMutability": "nonpayable",
      "type": "function"
    },
    {
      "inputs": [],
      "name": "startCovRatio",
      "outputs": [
        {
          "internalType": "uint128",
          "name": "",
          "type": "uint128"
        }
      ],
      "stateMutability": "view",
      "type": "function"
    },
    {
      "inputs": [
        {
          "internalType": "address",
          "name": "fromToken",
          "type": "address"
        },
        {
          "internalType": "address",
          "name": "toToken",
          "type": "address"
        },
        {
          "internalType": "uint256",
          "name": "fromAmount",
          "type": "uint256"
        },
        {
          "internalType": "uint256",
          "name": "minimumToAmount",
          "type": "uint256"
        },
        {
          "internalType": "address",
          "name": "to",
          "type": "address"
        },
        {
          "internalType": "uint256",
          "name": "deadline",
          "type": "uint256"
        }
      ],
      "name": "swap",
      "outputs": [
        {
          "internalType": "uint256",
          "name": "actualToAmount",
          "type": "uint256"
        },
        {
          "internalType": "uint256",
          "name": "haircut",
          "type": "uint256"
        }
      ],
      "stateMutability": "nonpayable",
      "type": "function"
    },
    {
      "inputs": [
        {
          "internalType": "address",
          "name": "toToken",
          "type": "address"
        },
        {
          "internalType": "uint256",
          "name": "fromAmount",
          "type": "uint256"
        },
        {
          "internalType": "uint256",
          "name": "minimumToAmount",
          "type": "uint256"
        },
        {
          "internalType": "address",
          "name": "receiver",
          "type": "address"
        }
      ],
      "name": "swapCreditForTokens",
      "outputs": [
        {
          "internalType": "uint256",
          "name": "actualToAmount",
          "type": "uint256"
        },
        {
          "internalType": "uint256",
          "name": "haircut",
          "type": "uint256"
        }
      ],
      "stateMutability": "nonpayable",
      "type": "function"
    },
    {
      "inputs": [
        {
          "internalType": "address",
          "name": "toToken",
          "type": "address"
        },
        {
          "internalType": "uint256",
          "name": "toChain",
          "type": "uint256"
        },
        {
          "internalType": "uint256",
          "name": "fromAmount",
          "type": "uint256"
        },
        {
          "internalType": "uint256",
          "name": "minimumToAmount",
          "type": "uint256"
        },
        {
          "internalType": "address",
          "name": "receiver",
          "type": "address"
        },
        {
          "internalType": "uint32",
          "name": "nonce",
          "type": "uint32"
        }
      ],
      "name": "swapCreditForTokensCrossChain",
      "outputs": [
        {
          "internalType": "uint256",
          "name": "trackingId",
          "type": "uint256"
        }
      ],
      "stateMutability": "payable",
      "type": "function"
    },
    {
      "inputs": [
        {
          "internalType": "address",
          "name": "fromToken",
          "type": "address"
        },
        {
          "internalType": "address",
          "name": "toToken",
          "type": "address"
        },
        {
          "internalType": "uint256",
          "name": "toChain",
          "type": "uint256"
        },
        {
          "internalType": "uint256",
          "name": "fromAmount",
          "type": "uint256"
        },
        {
          "internalType": "uint256",
          "name": "minimumCreditAmount",
          "type": "uint256"
        },
        {
          "internalType": "uint256",
          "name": "minimumToAmount",
          "type": "uint256"
        },
        {
          "internalType": "address",
          "name": "receiver",
          "type": "address"
        },
        {
          "internalType": "uint32",
          "name": "nonce",
          "type": "uint32"
        }
      ],
      "name": "swapTokensForTokensCrossChain",
      "outputs": [
        {
          "internalType": "uint256",
          "name": "creditAmount",
          "type": "uint256"
        },
        {
          "internalType": "uint256",
          "name": "haircut",
          "type": "uint256"
        },
        {
          "internalType": "uint256",
          "name": "trackingId",
          "type": "uint256"
        }
      ],
      "stateMutability": "payable",
      "type": "function"
    },
    {
      "inputs": [
        {
          "internalType": "address",
          "name": "token",
          "type": "address"
        }
      ],
      "name": "tipBucketBalance",
      "outputs": [
        {
          "internalType": "uint256",
          "name": "balance",
          "type": "uint256"
        }
      ],
      "stateMutability": "view",
      "type": "function"
    },
    {
      "inputs": [],
      "name": "totalCreditBurned",
      "outputs": [
        {
          "internalType": "uint128",
          "name": "",
          "type": "uint128"
        }
      ],
      "stateMutability": "view",
      "type": "function"
    },
    {
      "inputs": [],
      "name": "totalCreditMinted",
      "outputs": [
        {
          "internalType": "uint128",
          "name": "",
          "type": "uint128"
        }
      ],
      "stateMutability": "view",
      "type": "function"
    },
    {
      "inputs": [
        {
          "internalType": "address",
          "name": "newOwner",
          "type": "address"
        }
      ],
      "name": "transferOwnership",
      "outputs": [],
      "stateMutability": "nonpayable",
      "type": "function"
    },
    {
      "inputs": [
        {
          "internalType": "address",
          "name": "token",
          "type": "address"
        },
        {
          "internalType": "uint256",
          "name": "amount",
          "type": "uint256"
        },
        {
          "internalType": "address",
          "name": "to",
          "type": "address"
        }
      ],
      "name": "transferTipBucket",
      "outputs": [],
      "stateMutability": "nonpayable",
      "type": "function"
    },
    {
      "inputs": [],
      "name": "unpause",
      "outputs": [],
      "stateMutability": "nonpayable",
      "type": "function"
    },
    {
      "inputs": [
        {
          "internalType": "address",
          "name": "token",
          "type": "address"
        }
      ],
      "name": "unpauseAsset",
      "outputs": [],
      "stateMutability": "nonpayable",
      "type": "function"
    },
    {
      "inputs": [
        {
          "internalType": "address",
          "name": "token",
          "type": "address"
        },
        {
          "internalType": "uint256",
          "name": "liquidity",
          "type": "uint256"
        },
        {
          "internalType": "uint256",
          "name": "minimumAmount",
          "type": "uint256"
        },
        {
          "internalType": "address",
          "name": "to",
          "type": "address"
        },
        {
          "internalType": "uint256",
          "name": "deadline",
          "type": "uint256"
        }
      ],
      "name": "withdraw",
      "outputs": [
        {
          "internalType": "uint256",
          "name": "amount",
          "type": "uint256"
        }
      ],
      "stateMutability": "nonpayable",
      "type": "function"
    },
    {
      "inputs": [
        {
          "internalType": "address",
          "name": "fromToken",
          "type": "address"
        },
        {
          "internalType": "address",
          "name": "toToken",
          "type": "address"
        },
        {
          "internalType": "uint256",
          "name": "liquidity",
          "type": "uint256"
        },
        {
          "internalType": "uint256",
          "name": "minimumAmount",
          "type": "uint256"
        },
        {
          "internalType": "address",
          "name": "to",
          "type": "address"
        },
        {
          "internalType": "uint256",
          "name": "deadline",
          "type": "uint256"
        }
      ],
      "name": "withdrawFromOtherAsset",
      "outputs": [
        {
          "internalType": "uint256",
          "name": "toAmount",
          "type": "uint256"
        }
      ],
      "stateMutability": "nonpayable",
      "type": "function"
    }
  ],
  "transactionHash": "0x9e04ad38de367405fc19fd751a1afd2f61e371560b8f7349dcff62a0aea9ea2d",
  "args": [],
  "solcInputHash": "19313200000ccf0f849b145dcbc5c113",
  "bytecode": "0x6080806040523461001757615fb990816200001d8239f35b600080fdfe60806040526004361015610013575b600080fd5b60003560e01c8062b0af4d1461054e578063017b829214610545578063017e7e581461053c57806306a22c90146105335780630705999d1461052a578063070f81d91461052157806307a237c51461051857806309a5fca31461050f57806309f1fd3e146105065780630aa42de0146104fd5780630f91f06f146104f45780633753b14a146104eb5780633bd61ba8146104e25780633f4ba83a146104d95780634a5e42b1146104d05780634a6fee0e146104c75780634ba2adfc146104be5780634d31a070146104b55780634fdd64e5146104ac57806352f7c988146104a357806353a284d01461049a5780635c975abb146104915780635cfe092e1461048857806361858e231461047f5780636281baef1461047657806362fad13b1461046d5780636922d5ca14610464578063715018a61461045b57806374cbbdb9146104525780637f809d2914610449578063815bfd29146104405780638456cb5914610437578063873e73c31461042e5780638a2dfe09146104255780638da5cb5b1461041c5780638de66a68146104135780638e4b4d601461040a578063907448ed1461040157806391cca3db146103f857806393aeea02146103ef5780639908fc8b146103e65780639abacb41146103dd5780639e4416b7146103d45780639ee08e32146103cb578063a4275ceb146103c2578063aa6ca808146103b9578063bb0a8ad2146103b0578063c2cd9b2b146103a7578063cf1ba03a1461039e578063d043c56514610395578063d0dd0e561461038c578063d114444d14610383578063d30ffeda1461037a578063d477f05f14610371578063da48999714610368578063dc3b7c8b1461035f578063e4a3011614610356578063e9249cc71461034d578063f2fde38b14610344578063f46901ed1461033b578063f57e84d514610332578063f89830e514610329578063f8b49e7214610320578063fb7f5cc214610317578063fc8b9c061461030e578063fca8f308146103055763fffd5980146102fd57600080fd5b61000e61387f565b5061000e613862565b5061000e613822565b5061000e6137f9565b5061000e6137d5565b5061000e613755565b5061000e6136ea565b5061000e61366c565b5061000e6135bd565b5061000e613589565b5061000e613435565b5061000e61340d565b5061000e6132f9565b5061000e61327b565b5061000e613253565b5061000e613029565b5061000e61300a565b5061000e612faf565b5061000e612f50565b5061000e612f27565b5061000e612efa565b5061000e612e32565b5061000e612c20565b5061000e612b7e565b5061000e612b13565b5061000e612a4c565b5061000e61280c565b5061000e61269b565b5061000e612673565b5061000e61254c565b5061000e61238b565b5061000e6121d3565b5061000e6121ab565b5061000e612159565b5061000e611efd565b5061000e611e9d565b5061000e611e7e565b5061000e611cba565b5061000e611c97565b5061000e611c33565b5061000e611c14565b5061000e611b26565b5061000e611716565b5061000e6115db565b5061000e6115bc565b5061000e611598565b5061000e6114f5565b5061000e611423565b5061000e6113f9565b5061000e6113a4565b5061000e611381565b5061000e6112d9565b5061000e6110f6565b5061000e611059565b5061000e611031565b5061000e610fa5565b5061000e610d78565b5061000e610d14565b5061000e610cc6565b5061000e610b10565b5061000e610a5b565b5061000e6107f7565b5061000e610779565b5061000e610650565b5061000e6105f1565b5061000e6105d2565b5061000e61056d565b600435906001600160801b038216820361000e57565b503461000e57602036600319011261000e57610587610557565b61059d6001600160a01b036033541633146138a8565b6001600160801b0361013d91166fffffffffffffffffffffffffffffffff19825416179055600080f35b600091031261000e57565b503461000e57600036600319011261000e57602060ca54604051908152f35b503461000e57600036600319011261000e5760206001600160a01b0360d05416604051908152f35b6001600160a01b0381160361000e57565b60a4359063ffffffff8216820361000e57565b60e4359063ffffffff8216820361000e57565b5060c036600319011261000e5761073a60043561066c81610619565b602060843560443561067d82610619565b61068561062a565b9361069560026065541415613af2565b60026065556106a960ff6097541615613b3d565b6106b383836140df565b61013b54604051633a0cd16d60e11b81526001600160a01b039283166004820152602480359082015260448101939093526064803590840152928116608483015263ffffffff9490941660a482015292839160c49183913491165af190811561076c575b60009161073e575b5061072a6001606555565b6040519081529081906020820190565b0390f35b61075f915060203d8111610765575b61075781836139ab565b810190613b88565b3861071f565b503d61074d565b6107746139e3565b610717565b503461000e57602036600319011261000e577ffeb9010869b6ccec4557ddbbce947afeace5efc66cdff52c5e533c09336a8f2d60206004356107ba81610619565b6001600160a01b03906107d2826033541633146138a8565b6107db816145ab565b16806001600160a01b031960d154161760d155604051908152a1005b503461000e5760408060031936011261000e57600490813561081881610619565b602435916108246148bb565b61082d826148e0565b906108ef6001600160a01b038316926108e86108ce8451632672469960e21b81526001600160781b036108a08b838a818360209788935afa908115610a44575b600091610a27575b50848b8b51938480926339420b4560e11b82525afa918215610a1a575b6000926109eb575b50613e5b565b918b818951809263961be39160e01b8252818d5afa9182156109de575b6000926109b1575b50501690614839565b916001600160a01b031660005260d2602052604060002090565b5490614839565b84116109a257813b1561000e57610946600085610977947f4941e18a2bcbb0f9fa0081238f26793a8ad8c202b913ae8bf5f7e523f68ff1379883865180968195829462b64f3d60e51b845283019190602083019252565b03925af18015610995575b61097c575b505192839283602090939291936001600160a01b0360408201951681520152565b0390a1005b8061098961098f92613952565b806105c7565b38610956565b61099d6139e3565b610951565b8490516312b019e160e01b8152fd5b6109d09250803d106109d7575b6109c881836139ab565b810190614144565b38806108c5565b503d6109be565b6109e66139e3565b6108bd565b610a0c919250853d8711610a13575b610a0481836139ab565b8101906139f0565b903861089a565b503d6109fa565b610a226139e3565b610892565b610a3e9150853d87116107655761075781836139ab565b38610875565b610a4c6139e3565b61086d565b8015150361000e57565b503461000e57602036600319011261000e57600435610a7981610a51565b610a8f6001600160a01b036033541633146138a8565b61013b80547fffffffffffffffffffff00ffffffffffffffffffffffffffffffffffffffffff1691151560a81b75ff00000000000000000000000000000000000000000016919091179055005b60a090600319011261000e57600435610af481610619565b906024359060443590606435610b0981610619565b9060843590565b503461000e57610b62610b2236610adc565b610b3760026065979397969496541415613af2565b6002606555610b4b60ff6097541615613b3d565b610b548461457a565b610b5d866145ab565b614925565b610b6b816148e0565b610bc96001600160a01b039485831692610b8786853381613b97565b604051906339420b4560e11b825286602083600481895afa928315610cb9575b600093610c93575b50610bbe83610bc49495613e5b565b91614e88565b613a97565b93813b1561000e57604051639e79eaa560e01b81526001600160a01b03871660048201526024810186905261073a967ffb80d861da582b723be2d19507ce3e03851820c464abea89156ec77e089b1ad9939091906000908290604490829084905af18015610c86575b610c73575b50610c666040519283921695873396846040919493926001600160a01b03606083019616825260208201520152565b0390a361072a6001606555565b80610989610c8092613952565b38610c37565b610c8e6139e3565b610c32565b610bc49350610cb2610bbe9160203d8111610a1357610a0481836139ab565b9350610baf565b610cc16139e3565b610ba7565b503461000e57602036600319011261000e57600435610ce481610619565b6001600160a01b03610cfb816033541633146138a8565b61013b91166001600160a01b0319825416179055600080f35b503461000e57600036600319011261000e57602061013d5460801c604051908152f35b60c090600319011261000e57600435610d4f81610619565b90602435610d5c81610619565b906044359060643590608435610d7181610619565b9060a43590565b503461000e57610d8736610d37565b606595919492955460021415610d9c90613af2565b600260655560975460ff1615610db190613b3d565b610dba856145ab565b610dc38461457a565b610dcd83836145e5565b610dd690614925565b610ddf81614530565b610de8906148e0565b610df1826148e0565b946001600160a01b0390610e09858484163381613b97565b610e138584614b64565b82881693604051906339420b4560e11b9283835260209a8b80858a815a91600492fa610e8297610e5d96610e57938315610f98575b600093610f79575b5050613e5b565b92614f8b565b506040519182528882600481885afa918215610f6c575b600092610f4d575b50613a97565b94823b1561000e57604051639e79eaa560e01b81526001600160a01b0382166004820152602481018790527ffb80d861da582b723be2d19507ce3e03851820c464abea89156ec77e089b1ad9936000908290604490829084905af18015610f40575b610f2d575b50610f186040519283921695873396846040919493926001600160a01b03606083019616825260208201520152565b0390a3610f256001606555565b604051908152f35b80610989610f3a92613952565b38610ee9565b610f486139e3565b610ee4565b610f65919250893d8b11610a1357610a0481836139ab565b9038610e7c565b610f746139e3565b610e74565b610f90929350803d10610a1357610a0481836139ab565b90388f610e50565b610fa06139e3565b610e48565b503461000e57602036600319011261000e577fdcb65c0553aaa433aadd180404ff195259c48f78aa50f877ebcb4bb215129a4e610977600435610fe781610619565b610fef6148bb565b610ff881614530565b6001600160a01b0316600081815260c96020908152604091829020805460ff191660011790558151928352339083015290918291820190565b503461000e57600036600319011261000e5760206001600160a01b0360d15416604051908152f35b503461000e57600036600319011261000e576110736148bb565b60975460ff8116156110b25760ff19166097557f5db9ee0a495bf2e6ff9c91a7834c1ba4fdd244a5e8aa4e537bd38aeae4b073aa6020604051338152a1005b606460405162461bcd60e51b815260206004820152601460248201527f5061757361626c653a206e6f74207061757365640000000000000000000000006044820152fd5b503461000e57602036600319011261000e5760043561111481610619565b6001600160a01b0361112b816033541633146138a8565b611155611151836001600160a01b0380911660005260d460205260406000205416151590565b1590565b6112af578061119661118a61117d856001600160a01b031660005260d4602052604060002090565b546001600160a01b031690565b6001600160a01b031690565b6111c66111b6856001600160a01b031660005260d4602052604060002090565b6001600160a01b03198154169055565b61127d6111e6856001600160a01b031660005260d5602052604060002090565b546112586112136112006111fb60d354614814565b61474e565b90546001600160a01b039160031b1c1690565b9180611232846001600160a01b031660005260d5602052604060002090565b556000611252896001600160a01b031660005260d5602052604060002090565b5561474e565b90919082549060031b916001600160a01b039283811b93849216901b16911916179055565b611285614846565b1691167f0fa1e4606af435f32f05b3804033d2933e691fab32ee74d2db6fa82d2741f1ea600080a3005b60046040517fecb004d4000000000000000000000000000000000000000000000000000000008152fd5b503461000e57604036600319011261000e576112f3610557565b6024356001600160801b038082169283830361000e5761131f6001600160a01b036033541633146138a8565b1691670de0b6b3a76400008310908115611377575b50611366576001600160801b0390911660809190911b6fffffffffffffffffffffffffffffffff19161761010855005b005b60046040516312b019e160e01b8152fd5b9050821138611334565b503461000e57600036600319011261000e57602061013c5460801c604051908152f35b503461000e57600036600319011261000e5760206001600160801b0361013c5416604051908152f35b606090600319011261000e576004356113e581610619565b906024356113f281610619565b9060443590565b503461000e5761141161140b366113cd565b916156f9565b60408051928352602083019190915290f35b503461000e57604036600319011261000e576004356024356114516001600160a01b036033541633146138a8565b670de0b6b3a7640000828201116113665760005b60d3548110156114ae57806114a461149f6114826114a994615c96565b6001600160a01b0380911660005260d46020526040600020541690565b615ce3565b615afd565b611465565b507f032dc6a2d839eb179729a55633fdf1c41a1fc4739394154117005db2b354b9b5918160cc558060cd556109776040519283928360209093929193604081019481520152565b503461000e57606036600319011261000e5760043560243561151681610619565b61152560ff6097541615613b3d565b6001600160a01b03908161013b5416330361000e57168060005261013e602052604060002080549083820180921161158b575b55604051918252604435917f3273470b4a94285bb523353bdeb5ec3109c1be68c2ac15a7873d39452b9ed32a90602090a3005b611593613a09565b611558565b503461000e57600036600319011261000e57602060ff609754166040519015158152f35b503461000e57600036600319011261000e57602060ce54604051908152f35b503461000e57604036600319011261000e576116016004356115fc81610619565b6148e0565b606061163e6040516339420b4560e11b81526020816004816001600160a01b0388165afa908115611709575b6000916116eb575b50602435613e5b565b60ca5460405163f6ae404f60e01b81526001600160a01b03949094166004850152602484019190915260448301528160648173Da01302C86ECcd5bc94c1086777acF3c3Af7EF635af49081156116de575b60009081926116ab575b50604080519182526020820192909252f35b90506116ce915060603d81116116d7575b6116c681836139ab565b810190614957565b91905038611699565b503d6116bc565b6116e66139e3565b61168f565b611703915060203d8111610a1357610a0481836139ab565b38611635565b6117116139e3565b61162d565b503461000e5760c036600319011261000e576004803561173581610619565b6024356064359161174583610619565b60a4359361175285610a51565b61176160026065541415613af2565b600260655561177560ff6097541615613b3d565b6000948315611b1657611787856145ab565b611792608435614925565b61179b83614530565b6117a4836148e0565b906001600160a01b0396878316916117c08784338c8a16613b97565b6118875750857ff5dd9317b9e63ac316ce44acc85f670b54b339cfa3e9076e1dd55065b922314b9361073a9893602061182a94604051938480926339420b4560e11b82525afa91821561187a575b60009261185a575b506118246044359289613e5b565b90614972565b945b610c668660405193849316963396846040919493926001600160a01b03606083019616825260208201520152565b61187391925060203d8111610a1357610a0481836139ab565b9038611816565b6118826139e3565b61180e565b96916118e6906118aa6118a560d1999499546001600160a01b031690565b6145ab565b6040516339420b4560e11b81526020996118da918b8189818e5afa918215611b09575b91611aec575b5088613e5b565b90309160443591614972565b9561194788886118fe60d1546001600160a01b031690565b60405193849283927f095ea7b30000000000000000000000000000000000000000000000000000000084528a8401602090939291936001600160a01b0360408201951681520152565b03816000865af18015611adf575b611ab2575b506119ba8861197761118a61118a60d1546001600160a01b031690565b92604051809381927faf929a800000000000000000000000000000000000000000000000000000000083528983019190916001600160a01b036020820193169052565b0381855afa988915611aa5575b600099611a86575b5050803b1561000e57604080517f90210d7e000000000000000000000000000000000000000000000000000000008152948501988952602089018890526001600160a01b0383169089015261073a977ff5dd9317b9e63ac316ce44acc85f670b54b339cfa3e9076e1dd55065b922314b949160009183919082908490829060600103925af18015611a79575b611a66575b5061182c565b80610989611a7392613952565b38611a60565b611a816139e3565b611a5b565b611a9d929950803d106107655761075781836139ab565b9638806119cf565b611aad6139e3565b6119c7565b611ad190893d8b11611ad8575b611ac981836139ab565b810190613c74565b503861195a565b503d611abf565b611ae76139e3565b611955565b611b0391508b3d8d11610a1357610a0481836139ab565b386118d3565b611b116139e3565b6118cd565b5060405163b483c10f60e01b8152fd5b503461000e57600036600319011261000e576020611baf611b45615b19565b9290611b81611b6461013c546001600160801b0381169060801c614405565b91611b7b60ca5493611b7585613e91565b906144a0565b9061441e565b93604051938492839263d7454c5360e01b845287600485016040919493926060820195825260208201520152565b038173Da01302C86ECcd5bc94c1086777acF3c3Af7EF635af4908115611c07575b600091611be95750604080519182526020820192909252f35b611c01915060203d81116107655761075781836139ab565b38611699565b611c0f6139e3565b611bd0565b503461000e57600036600319011261000e57602060cc54604051908152f35b503461000e57600080600319360112611c9457806033546001600160a01b03196001600160a01b03821691611c693384146138a8565b166033557f8be0079c531659141344cd1fd0a4f28419497f9722a3daafe3b4186f6b6457e08280a380f35b80fd5b503461000e57600036600319011261000e5760206101085460801c604051908152f35b503461000e5760408060031936011261000e57600435611cd981610619565b611ce5602435916148e0565b61013b549060ff8260a01c1615611e6e5760ca5484516367146f2960e01b8152600481018590526001600160a01b0383811660248301526044820192909252670de0b6b3a7640000606482015260b09390931c67ffffffffffffffff166084840152611da7929091858260a48173Da01302C86ECcd5bc94c1086777acF3c3Af7EF635af4918215611e61575b600092611e2e575b5060209060048751809581936339420b4560e11b8352165afa918215611e21575b600092611e085750613a97565b90611de9611ddd611dbf61013c54938460801c613ea7565b926001600160801b03611dd561013d5460801c90565b911690613eb4565b6001600160801b031690565b10611df8579051908152602090f35b600482516332a9eed360e11b8152fd5b610f6591925060203d8111610a1357610a0481836139ab565b611e296139e3565b611d9a565b6020919250611e5290873d8911611e5a575b611e4a81836139ab565b8101906139cd565b509190611d79565b503d611e40565b611e696139e3565b611d71565b60048451633b26060360e11b8152fd5b503461000e57600036600319011261000e57602060cd54604051908152f35b503461000e57600036600319011261000e57611eb76148bb565b6001609754611ec960ff821615613b3d565b60ff1916176097557f62e78cea01bee320cd4e420270b5ea74000d11b0c9f74754ebdbfc544b05a2586020604051338152a1005b503461000e57608036600319011261000e57600435611f1b81610619565b60643590602435611f2b83610619565b611f3a60026065541415613af2565b6002606555611f4e60ff6097541615613b3d565b611f5883826140df565b801561214857611f67826148e0565b916001600160a01b039182841694604051946339420b4560e11b86526020866004818a5afa95861561213b575b60009661210f575b5085611fc2611fbb611fc89386611fb585604435613e5b565b91614163565b9890613a97565b96613a97565b95803b1561000e57604051639e79eaa560e01b81526001600160a01b038316600482015260248101879052906000908290604490829084905af18015612102575b6120ef575b50612018826144d8565b61205e61203261013c9261202d845460801c90565b613eb4565b61013c906001600160801b036fffffffffffffffffffffffffffffffff1983549260801b169116179055565b54612082611ddd61207261013d5460801c90565b6001600160801b03841690613eb4565b9060801c116120de57604080519283526020830186905260009491821693909116917f9d7031d6c62aaf1dd8765c9c971388930abacb85982fbff0e4278551a6bffecb9190a46001606555604080519182526020820192909252f35b60046040516332a9eed360e11b8152fd5b806109896120fc92613952565b3861200e565b61210a6139e3565b612009565b611fbb965090611fc2612132611fc89360203d8111610a1357610a0481836139ab565b97505090611f9c565b6121436139e3565b611f94565b600460405163b483c10f60e01b8152fd5b503461000e57600036600319011261000e576020611baf612178615b19565b60ca5460405163d7454c5360e01b8152600481018490526024810192909252604482015290929091829081906064820190565b503461000e57600036600319011261000e5760206001600160a01b0360335416604051908152f35b503461000e5760408060031936011261000e576121f56004356115fc81610619565b61013b546122079060a81c60ff161590565b61237b5761224382516339420b4560e11b81526020816004816001600160a01b0387165afa908115611709576000916116eb5750602435613e5b565b60ca54610108548451637b33fce760e01b81526001600160a01b0394909416600485015260248401929092526044830152670de0b6b3a764000060648301526001600160801b03808216608484015260809190911c60a483015291808260c48173Da01302C86ECcd5bc94c1086777acF3c3Af7EF635af492831561236e575b6000928394612349575b5061230a611ddd6122ec866122e78761013c54968716613ea7565b613ea7565b9261230061013d546001600160801b031690565b9060801c90613eb4565b1061232057519081526020810191909152604090f35b600490517f8c68dbbe000000000000000000000000000000000000000000000000000000008152fd5b909350816123649293503d8411611e5a57611e4a81836139ab565b91909192386122cc565b6123766139e3565b6122c2565b60048251637a44a0f560e01b8152fd5b503461000e5761239a36610adc565b91926123ae60ff6097969396541615613b3d565b6001600160a01b03948561013b5416330361000e578115612148576123d2836148e0565b9580871696604051966339420b4560e11b88526020886004818c5afa97881561253f575b60009861250d575b5061241c6124156124229387611fb58c8096613e5b565b9990613a97565b97613a97565b96803b1561000e57604051639e79eaa560e01b81526001600160a01b038416600482015260248101889052906000908290604490829084905af18015612500575b6124ed575b50612472836144d8565b61248761203261013c9261202d845460801c90565b5461249b611ddd61207261013d5460801c90565b9060801c116120de5760408051938452602084018790529181169316917f9d7031d6c62aaf1dd8765c9c971388930abacb85982fbff0e4278551a6bffecb9190a4604080519182526020820192909252f35b806109896124fa92613952565b38612468565b6125086139e3565b612463565b611fb59850612415612422938761253461241c9460203d8111610a1357610a0481836139ab565b9b50509350506123fe565b6125476139e3565b6123f6565b503461000e57604036600319011261000e5760043561256a81610619565b6125b8606061257f602435936115fc8561457a565b60ca546040516302bd8cf160e61b81526001600160a01b0383166004820152602481019590955260448501529291829081906064820190565b038173Da01302C86ECcd5bc94c1086777acF3c3Af7EF635af4918215612666575b600091829361262e575b5061261d9160206001600160a01b03926004604051809581936339420b4560e11b8352165afa918215611e2157600092611e085750613a97565b604080519182526020820192909252f35b6001600160a01b0391935061261d925061265760209160603d81116116d7576116c681836139ab565b929190509194925050916125e3565b61266e6139e3565b6125d9565b503461000e57600036600319011261000e5760206001600160a01b0360cf5416604051908152f35b503461000e57606036600319011261000e576004356126b981610619565b602435604435916126c983610619565b6001600160a01b036126e0816033541633146138a8565b6126e9826148e0565b6126f2836159b4565b841161136657166127296040516339420b4560e11b8152602081600481865afa9081156127ff575b6000916127e1575b5084613a97565b93813b1561000e57604051639e79eaa560e01b81526001600160a01b038216600482015260248101959095527f5f22a22ebe30686f71d42a70ccacf870a335e22ee2ac6d257af1b2551582eda694610977926000908290604490829084905af180156127d4575b6127c1575b50604051938493849193929060409160608401956001600160a01b038093168552602085015216910152565b806109896127ce92613952565b38612795565b6127dc6139e3565b612790565b6127f9915060203d8111610a1357610a0481836139ab565b38612722565b6128076139e3565b61271a565b503461000e5761281b36610d37565b61282f600260659794969597541415613af2565b600260655561284360ff6097541615613b3d565b61284d84846145e5565b85156121485761286090610b5d836145ab565b61286982614530565b612872826148e0565b9461287c846148e0565b916001600160a01b039182841693604051976339420b4560e11b808a528a60208b6004818b5afa9a8b15612a3f575b60009b612a18575b5084928b92888493169d8e916040518093819282525a92600491602094fa92831597610e57612912976128ff61290c976129059761291c9d612a0b575b6000916129ec575b508b613e5b565b93613e5b565b9c90613a97565b9a613a97565b9933868916613b97565b833b1561000e57604051639e79eaa560e01b81526001600160a01b0383166004820152602481018890527f54787c404bb33c88e86f4baf88183a3b0141d0a848e6a9f7a13b66ae3a9b73d1946129bf92899290916000908290604490829084905af180156129df575b6129cc575b506040519485941697339785909260609295949360808301966001600160a01b03809216845216602083015260408201520152565b0390a361261d6001606555565b806109896129d992613952565b3861298a565b6129e76139e3565b612985565b612a05915060203d602011610a1357610a0481836139ab565b386128f8565b612a136139e3565b6128f0565b87929b5092612a36869460203d602011610a1357610a0481836139ab565b9b9250926128b3565b612a476139e3565b6128ab565b503461000e57602036600319011261000e57600435612a6a81610619565b612a726148bb565b6001600160a01b0381169060009180835260c960205260ff60408420541615612ae957825260c960209081526040808420805460ff1916905580516001600160a01b0393909316835233918301919091527fdb198487a4c70aa000c3b1020f52688b4b86d3ebcedc84a793e03ed3b480902c91a180f35b60046040517f855b7373000000000000000000000000000000000000000000000000000000008152fd5b503461000e57602036600319011261000e57600435612b3e6001600160a01b036033541633146138a8565b670de0b6b3a76400008111611366576020817f294c562dcfcd9be941287844539aeba4ae641cd1fc9a2883337c6b2e87cbd98a9260ca55604051908152a1005b503461000e57602036600319011261000e5760043567ffffffffffffffff811680820361000e57670de0b6b3a764000090612bc56001600160a01b036033541633146138a8565b101561000e5761013b907fffff0000000000000000ffffffffffffffffffffffffffffffffffffffffffff7dffffffffffffffff0000000000000000000000000000000000000000000083549260b01b169116179055600080f35b503461000e57606036600319011261000e57600435612c3e81610619565b612d0d61073a612d9c602435612c5381610619565b612c76612c7060443596612c668861457a565b6115fc84826145e5565b916148e0565b60ca5460cb5461010854604080517fb94f2f9a0000000000000000000000000000000000000000000000000000000081526001600160a01b03808816600483015286166024820152604481019a909a5260648a0193909352670de0b6b3a764000060848a015260a48901919091526001600160801b03811660c489015260801c60e488015290959094859082908190610104820190565b038173Da01302C86ECcd5bc94c1086777acF3c3Af7EF635af4918215612e25575b6000918293612e04575b508551926339420b4560e11b978885526004612d786020968794858285816001600160a01b03809b165afa918215612df7575b600092612ddf5750613a97565b99895194859384928352165afa928315612dd2575b600093612db3575b5050613a97565b915191825260208201929092529081906040820190565b612dca929350803d10610a1357610a0481836139ab565b903880612d95565b612dda6139e3565b612d8d565b610f65919250863d8811610a1357610a0481836139ab565b612dff6139e3565b612d6b565b909250612e1e9150853d8711611e5a57611e4a81836139ab565b9138612d38565b612e2d6139e3565b612d2e565b503461000e57600080600319360112611c9457604051809160d354908183526020809301809260d383527f915c3eb987b20e1af620c1403197bf687fb7f18513b3a73fde6e78c7072c41a690835b818110612edd5750505084612e969103856139ab565b60405193838594850191818652518092526040850193925b828110612ebd57505050500390f35b83516001600160a01b031685528695509381019392810192600101612eae565b82546001600160a01b031684529286019260019283019201612e80565b503461000e57600036600319011261000e57602067ffffffffffffffff61013b5460b01c16604051908152f35b503461000e57600036600319011261000e5760206001600160a01b0361013b5416604051908152f35b503461000e57602036600319011261000e57612f6a610557565b612f806001600160a01b036033541633146138a8565b61013d906001600160801b036fffffffffffffffffffffffffffffffff1983549260801b169116179055600080f35b503461000e57602036600319011261000e577f935ce123b6388f8dbf76890f8240a48198f1e0a884f26939aa604a46bb65b7066020600435612ffd6001600160a01b036033541633146138a8565b8060ce55604051908152a1005b503461000e57600036600319011261000e57602060cb54604051908152f35b5061010036600319011261000e5760043561304381610619565b60243561304f81610619565b60643560c4359261305f84610619565b61306761063d565b61307660026065541415613af2565b600260655561308a60ff6097541615613b3d565b82156121485761073a926004916130a084614530565b6130a9876145ab565b6130b2846148e0565b61310d6001600160a01b038096169582166130cf8582338a613b97565b6040519283916339420b4560e11b835282602098899687935afa918215613246575b600092613227575b506131076084359287613e5b565b90613ecf565b98909761312661118a61013b546001600160a01b031690565b604051633a0cd16d60e11b81526001600160a01b03928316600482015260448035602483015281018b905260a48035606483015292909316608484015263ffffffff90941690820152918290818060c48101039134905af192831561321a575b6000936131fb575b50509181927f8900881feb21943c006d040b3a8510f7780104f915ac29f448cdaf220007887f604051806131d18933958360209093929193604081019481520152565b0390a46131de6001606555565b604051938493846040919493926060820195825260208201520152565b613212929350803d106107655761075781836139ab565b90388061318e565b6132226139e3565b613186565b61323f919250843d8611610a1357610a0481836139ab565b90386130f9565b61324e6139e3565b6130f1565b503461000e57602036600319011261000e576020610f2560043561327681610619565b6159b4565b503461000e57602036600319011261000e577f8daa6bb00de042a7d51816fcee4a3d5c1e91a2128fd64fa1a9a38afa0d26beb560206004356132bc81610619565b6001600160a01b03906132d4826033541633146138a8565b6132dd816145ab565b16806001600160a01b031960cf54161760cf55604051908152a1005b503461000e57604036600319011261000e5760043561331781610619565b60243561332381610619565b6001600160a01b039061333b826033541633146138a8565b613344816145ab565b61334d836145ab565b613370836001600160a01b0380911660005260d460205260406000205416151590565b6133e35781169082166133bc60009382855260d46020526133aa8460408720906001600160a01b03166001600160a01b0319825416179055565b60d35460d56020526040862055614793565b7f0bb5715f0f217c2fe9a0c877ea87d474380c641102f3440ee2a4c8b9d97909188380a380f35b60046040517f8991c4c4000000000000000000000000000000000000000000000000000000008152fd5b503461000e57602036600319011261000e576020610f2560043561343081610619565b61586b565b503461000e57604036600319011261000e5760005460ff8160081c1690816000146135805750303b155b156135165715806134eb575b613479602435600435614654565b6134d6575b6134a76101086714d1120d7b1600006fffffffffffffffffffffffffffffffff19825416179055565b6113646101087718fae27693b40000000000000000000000000000000000006001600160801b03825416179055565b6134e661ff001960005416600055565b61347e565b6134ff61010061ff00196000541617600055565b613511600160ff196000541617600055565b61346b565b608460405162461bcd60e51b815260206004820152602e60248201527f496e697469616c697a61626c653a20636f6e747261637420697320616c72656160448201527f647920696e697469616c697a65640000000000000000000000000000000000006064820152fd5b60ff161561345f565b503461000e57602036600319011261000e5760206001600160a01b036135b46004356115fc81610619565b16604051908152f35b503461000e57602036600319011261000e576004356135db81610619565b6001600160a01b036135f2816033541633146138a8565b81161561360257611364906138f3565b608460405162461bcd60e51b815260206004820152602660248201527f4f776e61626c653a206e6577206f776e657220697320746865207a65726f206160448201527f64647265737300000000000000000000000000000000000000000000000000006064820152fd5b503461000e57602036600319011261000e577ff6b59ffc88fbb27f33470b919e00b41139ee340eb349521f0cbbc1504ce29c3e60206004356136ad81610619565b6001600160a01b03906136c5826033541633146138a8565b6136ce816145ab565b16806001600160a01b031960d054161760d055604051908152a1005b503461000e57602036600319011261000e576004356137156001600160a01b036033541633146138a8565b670de0b6b3a76400008111611366576020817fc6e60196bbe5909add58d5ae8a27082013670bce0855321773c33085af5c32439260cb55604051908152a1005b503461000e57602036600319011261000e5760043561377381610a51565b6137896001600160a01b036033541633146138a8565b61013b80547fffffffffffffffffffffff00ffffffffffffffffffffffffffffffffffffffff1691151560a01b74ff000000000000000000000000000000000000000016919091179055005b503461000e57602036600319011261000e5761136461149f6004356115fc81610619565b503461000e57600036600319011261000e5760206001600160801b036101085416604051908152f35b503461000e57602036600319011261000e576001600160a01b0360043561384881610619565b1660005261013e6020526020604060002054604051908152f35b503461000e5761141161140b613877366113cd565b92909261513f565b503461000e57600036600319011261000e5760206001600160801b0361013d5416604051908152f35b156138af57565b606460405162461bcd60e51b815260206004820152602060248201527f4f776e61626c653a2063616c6c6572206973206e6f7420746865206f776e65726044820152fd5b603354906001600160a01b0380911691826001600160a01b0319821617603355167f8be0079c531659141344cd1fd0a4f28419497f9722a3daafe3b4186f6b6457e0600080a3565b50634e487b7160e01b600052604160045260246000fd5b67ffffffffffffffff811161396657604052565b61396e61393b565b604052565b60a0810190811067ffffffffffffffff82111761396657604052565b6040810190811067ffffffffffffffff82111761396657604052565b90601f8019910116810190811067ffffffffffffffff82111761396657604052565b919082604091031261000e576020825192015190565b506040513d6000823e3d90fd5b9081602091031261000e575160ff8116810361000e5790565b50634e487b7160e01b600052601160045260246000fd5b60ff6011199116019060ff8211613a3357565b613a3b613a09565b565b60ff166012039060ff8211613a3357565b60ff16604d8111613a60575b600a0a90565b613a68613a09565b613a5a565b81810292918115918404141715613a3357565b50634e487b7160e01b600052601260045260246000fd5b9060ff81166012811015613ace5750613ab2613ab791613a3d565b613a4e565b908115613ac2570490565b613aca613a80565b0490565b601210613ad9575090565b90613ae9613ab2613aef93613a20565b90613a6d565b90565b15613af957565b606460405162461bcd60e51b815260206004820152601f60248201527f5265656e7472616e637947756172643a207265656e7472616e742063616c6c006044820152fd5b15613b4457565b606460405162461bcd60e51b815260206004820152601060248201527f5061757361626c653a20706175736564000000000000000000000000000000006044820152fd5b9081602091031261000e575190565b600091613c4f949383926040519560208701937f23b872dd0000000000000000000000000000000000000000000000000000000085526001600160a01b03938480921660248a0152166044880152606487015260648652613bf786613973565b16908260405195613c078761398f565b602087527f5361666545524332303a206c6f772d6c6576656c2063616c6c206661696c65646020880152613c3d843b1515613cfa565b51925af1613c49613d45565b90613d93565b805180613c5a575050565b81602080613c6f93613a3b9501019101613c74565b613c89565b9081602091031261000e5751613aef81610a51565b15613c9057565b608460405162461bcd60e51b815260206004820152602a60248201527f5361666545524332303a204552433230206f7065726174696f6e20646964206e60448201527f6f742073756363656564000000000000000000000000000000000000000000006064820152fd5b15613d0157565b606460405162461bcd60e51b815260206004820152601d60248201527f416464726573733a2063616c6c20746f206e6f6e2d636f6e74726163740000006044820152fd5b3d15613d8e573d9067ffffffffffffffff8211613d81575b60405191613d75601f8201601f1916602001846139ab565b82523d6000602084013e565b613d8961393b565b613d5d565b606090565b90919015613d9f575090565b815115613daf5750805190602001fd5b6040519062461bcd60e51b82528160208060048301528251908160248401526000935b828510613df5575050604492506000838284010152601f80199101168101030190fd5b8481018201518686016044015293810193859350613dd2565b60ff81166012811015613e285750613ab2613aef91613a3d565b601210613e355750600190565b613ab2613e4191613a20565b8015613e4e575b60010490565b613e56613a80565b613e48565b9060ff81166012811015613e7a575090613ae9613ab2613aef93613a3d565b601210613e85575090565b613ab2613ab791613a20565b90670de0b6b3a7640000918201809211613a3357565b91908201809211613a3357565b9190916001600160801b0380809416911601918211613a3357565b919290613ee661115161013b5460ff9060a81c1690565b6140ce5760ca546101085460408051637b33fce760e01b81526001600160a01b0387166004820152602481018590526044810193909352670de0b6b3a764000060648401526001600160801b03808316608485015260809290921c60a4840152929091838160c48173Da01302C86ECcd5bc94c1086777acF3c3Af7EF635af480156140c1575b60009182916140a2575b506001600160a01b038197613f8c84809b614623565b613fbb613fa160d0546001600160a01b031690565b6001600160a01b031660005261013e602052604060002090565b613fc6848254613ea7565b90551691823b1561000e57855162b64f3d60e51b815260048101949094526140119361400c936000908290602490829084905af18015614095575b614082575b50613ea7565b6144d8565b61405361402c61013c9261202d84546001600160801b031690565b6001600160801b0361013c91166fffffffffffffffffffffffffffffffff19825416179055565b5490614078611ddd61406e61013d546001600160801b031690565b8460801c90613eb4565b9116116123205750565b8061098961408f92613952565b38614006565b61409d6139e3565b614001565b90506140bb9150843d8611611e5a57611e4a81836139ab565b38613f76565b6140c96139e3565b613f6c565b6004604051637a44a0f560e01b8152fd5b906140e9906145ab565b8015612148573360005261013e80602052816040600020541061411a57336000526020526040600020908154039055565b60046040517fdb52be33000000000000000000000000000000000000000000000000000000008152fd5b9081602091031261000e57516001600160781b038116810361000e5790565b91929061013b5460ff8160a01c16156143a75760ca54604080516367146f2960e01b815260048101949094526001600160a01b03861660248501526044840191909152670de0b6b3a7640000606484015260b09190911c67ffffffffffffffff16608483015290818160a48173Da01302C86ECcd5bc94c1086777acF3c3Af7EF635af4801561439a575b6000918291614377575b50806001600160a01b03614242929661421185809a614623565b61422e816001600160a01b031660005260d2602052604060002090565b614239848254613ea7565b90551692613ea7565b813b1561000e5782516313f3df3160e31b81526004810191909152662386f26fc10000916142e49160008160248183865af1801561436a575b614357575b5083519063961be39160e01b82526020908183600481845afa92831561434a575b600093614326575b508160049187519283809263705727b560e01b82525afa918215614319575b6000926142fc575b50506001600160781b0380911691166143b8565b106142ec5750565b600490516316fde3bd60e21b8152fd5b6143129250803d106109d7576109c881836139ab565b38806142d0565b6143216139e3565b6142c8565b60049193506143428391823d84116109d7576109c881836139ab565b9391506142a9565b6143526139e3565b6142a1565b8061098961436492613952565b38614280565b6143726139e3565b61427b565b61424292506143939150833d8511611e5a57611e4a81836139ab565b90916141f7565b6143a26139e3565b6141ed565b6004604051633b26060360e11b8152fd5b670de0b6b3a7640000908181029181830414901517156143f8575b8160011c81018091116143eb575b8115613ac2570490565b6143f3613a09565b6143e1565b614400613a09565b6143d3565b81810392916000138015828513169184121617613a3357565b91909160008382019384129112908015821691151617613a3357565b818102929160008212600160ff1b82141661445e575b8184051490151715613a3357565b614466613a09565b614450565b8115614493575b600160ff1b8114600019831416614487570590565b61448f613a09565b0590565b61449b613a80565b614472565b670de0b6b3a7640000916144b39161443a565b6706f05b59d3b200009060008282019283129112908015821691151617614487570590565b6001600160801b03908181116144ec571690565b606460405162461bcd60e51b815260206004820152601060248201527f75696e74313238206f766572666c6f77000000000000000000000000000000006044820152fd5b6001600160a01b031660005260c960205260ff6040600020541661455057565b60046040517f8654830a000000000000000000000000000000000000000000000000000000008152fd5b1561458157565b60046040517f3f3835e7000000000000000000000000000000000000000000000000000000008152fd5b6001600160a01b0316156145bb57565b60046040517f0bd3e3ed000000000000000000000000000000000000000000000000000000008152fd5b6001600160a01b039081169116146145f957565b60046040517feeb7911f000000000000000000000000000000000000000000000000000000008152fd5b1161462a57565b60046040517ff512a720000000000000000000000000000000000000000000000000000000008152fd5b61466e60ff60005460081c16614669816146c6565b6146c6565b614677336138f3565b61469660ff60005460081c1661468c816146c6565b60016065556146c6565b60ff196097541660975560ca5560cb55670de0b6b3a764000060cd55336001600160a01b031960cf54161760cf55565b156146cd57565b608460405162461bcd60e51b815260206004820152602b60248201527f496e697469616c697a61626c653a20636f6e7472616374206973206e6f74206960448201527f6e697469616c697a696e670000000000000000000000000000000000000000006064820152fd5b50634e487b7160e01b600052603260045260246000fd5b60d354811015614786575b60d36000527f915c3eb987b20e1af620c1403197bf687fb7f18513b3a73fde6e78c7072c41a60190600090565b61478e614737565b614759565b6001600160a01b0360d35468010000000000000000811015614807575b600181018060d3558110156147fa575b60d36000527f915c3eb987b20e1af620c1403197bf687fb7f18513b3a73fde6e78c7072c41a60191166001600160a01b0319825416179055565b614802614737565b6147c0565b61480f61393b565b6147b0565b600019810191908211613a3357565b90670de0b6b3a7640000918203918211613a3357565b91908203918211613a3357565b60d35480156148a5577f915c3eb987b20e1af620c1403197bf687fb7f18513b3a73fde6e78c7072c41a560001982019180831015614898575b60d3600052016001600160a01b0319815416905560d355565b6148a0614737565b61487f565b634e487b7160e01b600052603160045260246000fd5b6001600160a01b0360cf541633036148cf57565b60046040516316fde3bd60e21b8152fd5b614903816001600160a01b0380911660005260d460205260406000205416151590565b156112af576001600160a01b0380911660005260d46020526040600020541690565b421161492d57565b60046040517f549b6335000000000000000000000000000000000000000000000000000000008152fd5b9081606091031261000e578051916040602083015192015190565b6149bf90949391929461498481615ce3565b606060ca546040518094819263f6ae404f60e01b83528886600485016040919493926001600160a01b03606083019616825260208201520152565b038173Da01302C86ECcd5bc94c1086777acF3c3Af7EF635af4908115614b57575b6000928392614b29575b506001600160a01b0390614a08848099614a038261457a565b614623565b1693843b1561000e5760405162b64f3d60e51b8152600481019190915260008160248183895af18015614b1c575b614b09575b50833b1561000e5760405163283c3d8160e21b8152600481019190915260008160248183885af18015614afc575b614ae9575b50823b1561000e576040517f40c10f190000000000000000000000000000000000000000000000000000000081526001600160a01b039290921660048301526024820152906000908290604490829084905af18015614adc575b614acf5750565b80610989613a3b92613952565b614ae46139e3565b614ac8565b80610989614af692613952565b38614a6e565b614b046139e3565b614a69565b80610989614b1692613952565b38614a3b565b614b246139e3565b614a36565b6001600160a01b039350614b4c91925060603d81116116d7576116c681836139ab565b5092909291906149ea565b614b5f6139e3565b6149e0565b9190614b6f83615ce3565b60ca549060409081516302bd8cf160e61b815260608180614bb0600497868b8a85016040919493926001600160a01b03606083019616825260208201520152565b038173Da01302C86ECcd5bc94c1086777acF3c3Af7EF635af4908115614e7b575b6000908192614e59575b506001600160a01b0381971692833b1561000e578451632770a7eb60e21b81526001600160a01b038516878201908152602081019290925290600090829081906040015b038183885af18015614e4c575b614e39575b50823b1561000e5783516313f3df3160e31b81528581019182529060009082908190602001038183875af18015614e2c575b614e19575b50813b1561000e5782517fd8b878530000000000000000000000000000000000000000000000000000000081528481019182529060009082908190602001038183865af18015614e0c575b614df9575b50815163705727b560e01b80825260209283838781845afa928315614dec575b600093614dcd575b506001600160781b0380931615159283614d0f575b5050509050614d02575050565b516316fde3bd60e21b8152fd5b614d6b9350662386f26fc100009486519263961be39160e01b845281848a81845afa938415614dc0575b600094614d9f575b50818394958a8a518094819382525afa918215614d92575b600092614d75575b50501691166143b8565b1080388080614cf5565b614d8b9250803d106109d7576109c881836139ab565b3880614d61565b614d9a6139e3565b614d59565b839450614db98391823d84116109d7576109c881836139ab565b9450614d41565b614dc86139e3565b614d39565b614de5919350843d86116109d7576109c881836139ab565b9138614ce0565b614df46139e3565b614cd8565b80610989614e0692613952565b38614cb8565b614e146139e3565b614cb3565b80610989614e2692613952565b38614c68565b614e346139e3565b614c63565b80610989614e4692613952565b38614c31565b614e546139e3565b614c2c565b9050614e73915060603d81116116d7576116c681836139ab565b509038614bdb565b614e836139e3565b614bd1565b929192614e9481615ce3565b60ca549160409182516302bd8cf160e61b815260608180614ed560049887878b85016040919493926001600160a01b03606083019616825260208201520152565b038173Da01302C86ECcd5bc94c1086777acF3c3Af7EF635af4918215614f7e575b6000918293614f52575b506001600160a01b0390614f1583809a614623565b1692833b1561000e578451632770a7eb60e21b81526001600160a01b03851687820190815260208101929092529060009082908190604001614c1f565b614f759193506001600160a01b03925060603d81116116d7576116c681836139ab565b50929091614f00565b614f866139e3565b614ef6565b90929391614f9a81858461515e565b90928195614fa9858099614623565b614fc6816001600160a01b031660005260d2602052604060002090565b8381540190556001600160a01b0380921693843b1561000e5760405162b64f3d60e51b8152600481019190915260009485908290602490829084905af18015615132575b61511f575b501692833b1561511b576040516313f3df3160e31b815291016004820152662386f26fc10000926150b4929091818160248183875af1801561510e575b6150fb575b506040519163961be39160e01b83526020908184600481845afa9384156150ee575b83946150c8575b5090806004926040519384809263705727b560e01b82525afa9283156150bb575b926142fc5750506001600160781b0380911691166143b8565b106148cf57565b6150c36139e3565b61509b565b82919450916150e5600493823d84116109d7576109c881836139ab565b9491925061507a565b6150f66139e3565b615073565b8061098961510892613952565b38615051565b6151166139e3565b61504c565b8280fd5b8061098961512c92613952565b3861500f565b61513a6139e3565b61500a565b600160ff1b8114615151575b60000390565b615159613a09565b61514b565b92919261516c848383615635565b94909185836000958685121560001461531557505050906001600160a01b038392166040519163961be39160e01b8352600460209384848183858183995afa928315615308575b8a936152e9575b506040519384809263705727b560e01b82525afa9182156152dc575b88926152b9575b50610108546040517f2f6599bb0000000000000000000000000000000000000000000000000000000081526001600160781b039283166004820152929091166024830152604482019290925260648101949094526001600160801b038116608485015260801c60a4840152828060c481015b038173Da01302C86ECcd5bc94c1086777acF3c3Af7EF635af49384156152ac575b93615287575b50508161528291614839565b920190565b61528292935090816152a492903d106107655761075781836139ab565b919038615276565b6152b46139e3565b615270565b61524f9192506152d590853d87116109d7576109c881836139ab565b91906151dd565b6152e46139e3565b6151d6565b615301919350823d84116109d7576109c881836139ab565b91386151ba565b6153106139e3565b6151b3565b6001600160a01b039196929850809493955016906040519063961be39160e01b825260208083600481875afa92831561546d575b829361544b575b50806004916001600160781b03809516956040519384809263705727b560e01b82525afa92831561543e575b92615421575b505016615398816153938885613ea7565b6143b8565b6101085492906001600160801b038416106153b7575050505050509190565b90919395506153c8929497506143b8565b9060801c11156153f7576153de6153e59161513f565b848361547a565b906153f29193849161515e565b905090565b60046040517f6158a9f8000000000000000000000000000000000000000000000000000000008152fd5b6154379250803d106109d7576109c881836139ab565b3880615382565b6154466139e3565b61537c565b819350615466906004923d86116109d7576109c881836139ab565b9290615350565b6154756139e3565b615349565b6040516339420b4560e11b815291939260209261553a906001600160a01b0384168582600481845afa9182156155f7575b6000926155d4575b50610bc4906154c183613e0e565b966040519063705727b560e01b82528082600481865afa9182156155c7575b6000926155a8575b5060048161550f6154ff611ddd6101085460801c90565b6001600160781b03809616615604565b946040519283809263961be39160e01b82525afa9182156109de576000926109b15750501690614839565b91600195868361555461554d8888613a6d565b848661515e565b50106153f7579291905b8484106155745750505050613aef929350613a6d565b90919293808501881c90888561558d898502868861515e565b501061559f575050935b92919061555e565b90955001615597565b816155c09293503d84116109d7576109c881836139ab565b90386154e8565b6155cf6139e3565b6154e0565b610bc49192506155f090873d8911610a1357610a0481836139ab565b91906154b3565b6155ff6139e3565b6154ab565b670de0b6b3a76400009161561791613a6d565b6706f05b59d3b20000810180911161562d570490565b613aca613a09565b90929160ca549060cb5492604051957fe02a44c60000000000000000000000000000000000000000000000000000000087526001600160a01b03809216600488015216602486015260448501526064840152670de0b6b3a7640000608484015260a483015260408260c48173Da01302C86ECcd5bc94c1086777acF3c3Af7EF635af49182156156ec575b60009081936156cd57509190565b90506156e891925060403d8111611e5a57611e4a81836139ab565b9091565b6156f46139e3565b6156bf565b92919261570682826145e5565b831561214857612c70615718916148e0565b92836001600160a01b036157928185166000615768604051976157606339420b4560e11b998a81526020998a826004818a5afa918215615818575b86926157f9575b50615825565b9a8b9161515e565b939094849616946040519089825288826004818a5afa9182156157ec575b8492610f4d5750613a97565b98126157c157505082613aef9460046040518094819382525afa928315612dd257600093612db3575050613a97565b9150915082613aef9460046040518094819382525afa928315612dd257600093612db3575050613a97565b6157f46139e3565b615786565b6158119192508b3d8d11610a1357610a0481836139ab565b903861575a565b6158206139e3565b615753565b9060ff8116601281101561584a575090615844613ab2613aef93613a3d565b9061443a565b601210615855575090565b90615865613ab2613aef93613a20565b9061446b565b61118a615877916148e0565b6040517f18160ddd000000000000000000000000000000000000000000000000000000008082526020918281600481875afa9081156159a7575b60009161598a575b501561597b57613aef92826040519263705727b560e01b84528184600481865afa93841561596e575b60009461594f575b5060046040518094819382525afa928315615942575b600093615918575b50506001600160781b03166143b8565b6001600160781b03929350908161593a92903d106107655761075781836139ab565b919038615908565b61594a6139e3565b615900565b615967919450823d84116109d7576109c881836139ab565b92386158ea565b6159766139e3565b6158e2565b505050670de0b6b3a764000090565b6159a19150833d85116107655761075781836139ab565b386158b9565b6159af6139e3565b6158b1565b6159c0615a21916148e0565b6001600160a01b038116906004604051632672469960e21b8152602094818681858295895afa908115615af0575b600091615ad3575b50604051906339420b4560e11b8252838286818a5afa918215615ac6575b600092615aae5750613e5b565b936040519283809263961be39160e01b82525afa938415615aa1575b600094615a75575b5050615a6c6001600160781b03916001600160a01b031660005260d2602052604060002090565b54921690030390565b6001600160781b03929450615a6c9181615a9a92903d106109d7576109c881836139ab565b9391615a45565b615aa96139e3565b615a3d565b610a0c919250843d8611610a1357610a0481836139ab565b615ace6139e3565b615a14565b615aea9150833d85116107655761075781836139ab565b386159f6565b615af86139e3565b6159ee565b6001906000198114615b0d570190565b615b15613a09565b0190565b6000906000908160ca548160d354915b828410615b365750505050565b90919295615b4961118a61148289615c96565b60409081519163961be39160e01b835260209160049183858481855afa948515615c4a575b8895615c27575b50908391519283809263705727b560e01b82525afa918215615c1a575b8692615bfd575b50506001600160781b03809116918215615bf05782611b75615bd182615bcb615be297615be89997611b7b9716615c57565b9c61441e565b9a615bdc8189615c57565b90614405565b96615afd565b929190615b29565b50505095615be890615afd565b615c139250803d106109d7576109c881836139ab565b3880615b99565b615c226139e3565b615b92565b8492919550615c4290833d85116109d7576109c881836139ab565b949091615b75565b615c526139e3565b615b6e565b90615c84613aef92670de0b6b3a764000090818102918183051490151715615c89575b600283059061441e565b61446b565b615c91613a09565b615c7a565b6001600160a01b039060d354811015615cd6575b60d36000527f915c3eb987b20e1af620c1403197bf687fb7f18513b3a73fde6e78c7072c41a601541690565b615cde614737565b615caa565b615d00816001600160a01b031660005260d2602052604060002090565b5480158015615f78575b615f7457615d2e615d28615d1f60cd54614823565b60cc5490614839565b82615604565b9081615eb6575b615d43915060cd5490615604565b80615d67575b506001600160a01b0316600090815260d26020526040812055565b55565b60ca5460405163f6ae404f60e01b81526001600160a01b0384166004820152602481018390526044810191909152909160608260648173Da01302C86ECcd5bc94c1086777acF3c3Af7EF635af4918215615ea9575b600092615e86575b506001600160a01b03811691823b1561000e5760405163283c3d8160e21b8152600481019190915260008160248183875af18015615e79575b615e66575b50813b1561000e5760405162b64f3d60e51b81526004810193909352600092615d649284908290602490829084905af18015615e59575b615e46575b509150615d49565b80610989615e5392613952565b38615e3e565b615e616139e3565b615e39565b80610989615e7392613952565b38615e02565b615e816139e3565b615dfd565b615e9f91925060603d81116116d7576116c681836139ab565b5090509038615dc4565b615eb16139e3565b615dbc565b6001600160a01b038316615f01615ed560d0546001600160a01b031690565b93604051906339420b4560e11b8252602082600481875afa918215611e2157600092611e085750613a97565b92813b1561000e57604051639e79eaa560e01b81526001600160a01b039190911660048201526024810193909352615d4392906000908290604490829084905af18015615f67575b615f54575b50615d35565b80610989615f6192613952565b38615f4e565b615f6f6139e3565b615f49565b5050565b5060ce548110615d0a56fea2646970667358221220713a905d02c90a8a74a73cd4d09c00f667bb3b346e3b45a94e41bbf69e52034364736f6c63430008110033",
  "deployedBytecode": "0x60806040526004361015610013575b600080fd5b60003560e01c8062b0af4d1461054e578063017b829214610545578063017e7e581461053c57806306a22c90146105335780630705999d1461052a578063070f81d91461052157806307a237c51461051857806309a5fca31461050f57806309f1fd3e146105065780630aa42de0146104fd5780630f91f06f146104f45780633753b14a146104eb5780633bd61ba8146104e25780633f4ba83a146104d95780634a5e42b1146104d05780634a6fee0e146104c75780634ba2adfc146104be5780634d31a070146104b55780634fdd64e5146104ac57806352f7c988146104a357806353a284d01461049a5780635c975abb146104915780635cfe092e1461048857806361858e231461047f5780636281baef1461047657806362fad13b1461046d5780636922d5ca14610464578063715018a61461045b57806374cbbdb9146104525780637f809d2914610449578063815bfd29146104405780638456cb5914610437578063873e73c31461042e5780638a2dfe09146104255780638da5cb5b1461041c5780638de66a68146104135780638e4b4d601461040a578063907448ed1461040157806391cca3db146103f857806393aeea02146103ef5780639908fc8b146103e65780639abacb41146103dd5780639e4416b7146103d45780639ee08e32146103cb578063a4275ceb146103c2578063aa6ca808146103b9578063bb0a8ad2146103b0578063c2cd9b2b146103a7578063cf1ba03a1461039e578063d043c56514610395578063d0dd0e561461038c578063d114444d14610383578063d30ffeda1461037a578063d477f05f14610371578063da48999714610368578063dc3b7c8b1461035f578063e4a3011614610356578063e9249cc71461034d578063f2fde38b14610344578063f46901ed1461033b578063f57e84d514610332578063f89830e514610329578063f8b49e7214610320578063fb7f5cc214610317578063fc8b9c061461030e578063fca8f308146103055763fffd5980146102fd57600080fd5b61000e61387f565b5061000e613862565b5061000e613822565b5061000e6137f9565b5061000e6137d5565b5061000e613755565b5061000e6136ea565b5061000e61366c565b5061000e6135bd565b5061000e613589565b5061000e613435565b5061000e61340d565b5061000e6132f9565b5061000e61327b565b5061000e613253565b5061000e613029565b5061000e61300a565b5061000e612faf565b5061000e612f50565b5061000e612f27565b5061000e612efa565b5061000e612e32565b5061000e612c20565b5061000e612b7e565b5061000e612b13565b5061000e612a4c565b5061000e61280c565b5061000e61269b565b5061000e612673565b5061000e61254c565b5061000e61238b565b5061000e6121d3565b5061000e6121ab565b5061000e612159565b5061000e611efd565b5061000e611e9d565b5061000e611e7e565b5061000e611cba565b5061000e611c97565b5061000e611c33565b5061000e611c14565b5061000e611b26565b5061000e611716565b5061000e6115db565b5061000e6115bc565b5061000e611598565b5061000e6114f5565b5061000e611423565b5061000e6113f9565b5061000e6113a4565b5061000e611381565b5061000e6112d9565b5061000e6110f6565b5061000e611059565b5061000e611031565b5061000e610fa5565b5061000e610d78565b5061000e610d14565b5061000e610cc6565b5061000e610b10565b5061000e610a5b565b5061000e6107f7565b5061000e610779565b5061000e610650565b5061000e6105f1565b5061000e6105d2565b5061000e61056d565b600435906001600160801b038216820361000e57565b503461000e57602036600319011261000e57610587610557565b61059d6001600160a01b036033541633146138a8565b6001600160801b0361013d91166fffffffffffffffffffffffffffffffff19825416179055600080f35b600091031261000e57565b503461000e57600036600319011261000e57602060ca54604051908152f35b503461000e57600036600319011261000e5760206001600160a01b0360d05416604051908152f35b6001600160a01b0381160361000e57565b60a4359063ffffffff8216820361000e57565b60e4359063ffffffff8216820361000e57565b5060c036600319011261000e5761073a60043561066c81610619565b602060843560443561067d82610619565b61068561062a565b9361069560026065541415613af2565b60026065556106a960ff6097541615613b3d565b6106b383836140df565b61013b54604051633a0cd16d60e11b81526001600160a01b039283166004820152602480359082015260448101939093526064803590840152928116608483015263ffffffff9490941660a482015292839160c49183913491165af190811561076c575b60009161073e575b5061072a6001606555565b6040519081529081906020820190565b0390f35b61075f915060203d8111610765575b61075781836139ab565b810190613b88565b3861071f565b503d61074d565b6107746139e3565b610717565b503461000e57602036600319011261000e577ffeb9010869b6ccec4557ddbbce947afeace5efc66cdff52c5e533c09336a8f2d60206004356107ba81610619565b6001600160a01b03906107d2826033541633146138a8565b6107db816145ab565b16806001600160a01b031960d154161760d155604051908152a1005b503461000e5760408060031936011261000e57600490813561081881610619565b602435916108246148bb565b61082d826148e0565b906108ef6001600160a01b038316926108e86108ce8451632672469960e21b81526001600160781b036108a08b838a818360209788935afa908115610a44575b600091610a27575b50848b8b51938480926339420b4560e11b82525afa918215610a1a575b6000926109eb575b50613e5b565b918b818951809263961be39160e01b8252818d5afa9182156109de575b6000926109b1575b50501690614839565b916001600160a01b031660005260d2602052604060002090565b5490614839565b84116109a257813b1561000e57610946600085610977947f4941e18a2bcbb0f9fa0081238f26793a8ad8c202b913ae8bf5f7e523f68ff1379883865180968195829462b64f3d60e51b845283019190602083019252565b03925af18015610995575b61097c575b505192839283602090939291936001600160a01b0360408201951681520152565b0390a1005b8061098961098f92613952565b806105c7565b38610956565b61099d6139e3565b610951565b8490516312b019e160e01b8152fd5b6109d09250803d106109d7575b6109c881836139ab565b810190614144565b38806108c5565b503d6109be565b6109e66139e3565b6108bd565b610a0c919250853d8711610a13575b610a0481836139ab565b8101906139f0565b903861089a565b503d6109fa565b610a226139e3565b610892565b610a3e9150853d87116107655761075781836139ab565b38610875565b610a4c6139e3565b61086d565b8015150361000e57565b503461000e57602036600319011261000e57600435610a7981610a51565b610a8f6001600160a01b036033541633146138a8565b61013b80547fffffffffffffffffffff00ffffffffffffffffffffffffffffffffffffffffff1691151560a81b75ff00000000000000000000000000000000000000000016919091179055005b60a090600319011261000e57600435610af481610619565b906024359060443590606435610b0981610619565b9060843590565b503461000e57610b62610b2236610adc565b610b3760026065979397969496541415613af2565b6002606555610b4b60ff6097541615613b3d565b610b548461457a565b610b5d866145ab565b614925565b610b6b816148e0565b610bc96001600160a01b039485831692610b8786853381613b97565b604051906339420b4560e11b825286602083600481895afa928315610cb9575b600093610c93575b50610bbe83610bc49495613e5b565b91614e88565b613a97565b93813b1561000e57604051639e79eaa560e01b81526001600160a01b03871660048201526024810186905261073a967ffb80d861da582b723be2d19507ce3e03851820c464abea89156ec77e089b1ad9939091906000908290604490829084905af18015610c86575b610c73575b50610c666040519283921695873396846040919493926001600160a01b03606083019616825260208201520152565b0390a361072a6001606555565b80610989610c8092613952565b38610c37565b610c8e6139e3565b610c32565b610bc49350610cb2610bbe9160203d8111610a1357610a0481836139ab565b9350610baf565b610cc16139e3565b610ba7565b503461000e57602036600319011261000e57600435610ce481610619565b6001600160a01b03610cfb816033541633146138a8565b61013b91166001600160a01b0319825416179055600080f35b503461000e57600036600319011261000e57602061013d5460801c604051908152f35b60c090600319011261000e57600435610d4f81610619565b90602435610d5c81610619565b906044359060643590608435610d7181610619565b9060a43590565b503461000e57610d8736610d37565b606595919492955460021415610d9c90613af2565b600260655560975460ff1615610db190613b3d565b610dba856145ab565b610dc38461457a565b610dcd83836145e5565b610dd690614925565b610ddf81614530565b610de8906148e0565b610df1826148e0565b946001600160a01b0390610e09858484163381613b97565b610e138584614b64565b82881693604051906339420b4560e11b9283835260209a8b80858a815a91600492fa610e8297610e5d96610e57938315610f98575b600093610f79575b5050613e5b565b92614f8b565b506040519182528882600481885afa918215610f6c575b600092610f4d575b50613a97565b94823b1561000e57604051639e79eaa560e01b81526001600160a01b0382166004820152602481018790527ffb80d861da582b723be2d19507ce3e03851820c464abea89156ec77e089b1ad9936000908290604490829084905af18015610f40575b610f2d575b50610f186040519283921695873396846040919493926001600160a01b03606083019616825260208201520152565b0390a3610f256001606555565b604051908152f35b80610989610f3a92613952565b38610ee9565b610f486139e3565b610ee4565b610f65919250893d8b11610a1357610a0481836139ab565b9038610e7c565b610f746139e3565b610e74565b610f90929350803d10610a1357610a0481836139ab565b90388f610e50565b610fa06139e3565b610e48565b503461000e57602036600319011261000e577fdcb65c0553aaa433aadd180404ff195259c48f78aa50f877ebcb4bb215129a4e610977600435610fe781610619565b610fef6148bb565b610ff881614530565b6001600160a01b0316600081815260c96020908152604091829020805460ff191660011790558151928352339083015290918291820190565b503461000e57600036600319011261000e5760206001600160a01b0360d15416604051908152f35b503461000e57600036600319011261000e576110736148bb565b60975460ff8116156110b25760ff19166097557f5db9ee0a495bf2e6ff9c91a7834c1ba4fdd244a5e8aa4e537bd38aeae4b073aa6020604051338152a1005b606460405162461bcd60e51b815260206004820152601460248201527f5061757361626c653a206e6f74207061757365640000000000000000000000006044820152fd5b503461000e57602036600319011261000e5760043561111481610619565b6001600160a01b0361112b816033541633146138a8565b611155611151836001600160a01b0380911660005260d460205260406000205416151590565b1590565b6112af578061119661118a61117d856001600160a01b031660005260d4602052604060002090565b546001600160a01b031690565b6001600160a01b031690565b6111c66111b6856001600160a01b031660005260d4602052604060002090565b6001600160a01b03198154169055565b61127d6111e6856001600160a01b031660005260d5602052604060002090565b546112586112136112006111fb60d354614814565b61474e565b90546001600160a01b039160031b1c1690565b9180611232846001600160a01b031660005260d5602052604060002090565b556000611252896001600160a01b031660005260d5602052604060002090565b5561474e565b90919082549060031b916001600160a01b039283811b93849216901b16911916179055565b611285614846565b1691167f0fa1e4606af435f32f05b3804033d2933e691fab32ee74d2db6fa82d2741f1ea600080a3005b60046040517fecb004d4000000000000000000000000000000000000000000000000000000008152fd5b503461000e57604036600319011261000e576112f3610557565b6024356001600160801b038082169283830361000e5761131f6001600160a01b036033541633146138a8565b1691670de0b6b3a76400008310908115611377575b50611366576001600160801b0390911660809190911b6fffffffffffffffffffffffffffffffff19161761010855005b005b60046040516312b019e160e01b8152fd5b9050821138611334565b503461000e57600036600319011261000e57602061013c5460801c604051908152f35b503461000e57600036600319011261000e5760206001600160801b0361013c5416604051908152f35b606090600319011261000e576004356113e581610619565b906024356113f281610619565b9060443590565b503461000e5761141161140b366113cd565b916156f9565b60408051928352602083019190915290f35b503461000e57604036600319011261000e576004356024356114516001600160a01b036033541633146138a8565b670de0b6b3a7640000828201116113665760005b60d3548110156114ae57806114a461149f6114826114a994615c96565b6001600160a01b0380911660005260d46020526040600020541690565b615ce3565b615afd565b611465565b507f032dc6a2d839eb179729a55633fdf1c41a1fc4739394154117005db2b354b9b5918160cc558060cd556109776040519283928360209093929193604081019481520152565b503461000e57606036600319011261000e5760043560243561151681610619565b61152560ff6097541615613b3d565b6001600160a01b03908161013b5416330361000e57168060005261013e602052604060002080549083820180921161158b575b55604051918252604435917f3273470b4a94285bb523353bdeb5ec3109c1be68c2ac15a7873d39452b9ed32a90602090a3005b611593613a09565b611558565b503461000e57600036600319011261000e57602060ff609754166040519015158152f35b503461000e57600036600319011261000e57602060ce54604051908152f35b503461000e57604036600319011261000e576116016004356115fc81610619565b6148e0565b606061163e6040516339420b4560e11b81526020816004816001600160a01b0388165afa908115611709575b6000916116eb575b50602435613e5b565b60ca5460405163f6ae404f60e01b81526001600160a01b03949094166004850152602484019190915260448301528160648173__$64c1823877363665b8c9607be5e0799ede$__5af49081156116de575b60009081926116ab575b50604080519182526020820192909252f35b90506116ce915060603d81116116d7575b6116c681836139ab565b810190614957565b91905038611699565b503d6116bc565b6116e66139e3565b61168f565b611703915060203d8111610a1357610a0481836139ab565b38611635565b6117116139e3565b61162d565b503461000e5760c036600319011261000e576004803561173581610619565b6024356064359161174583610619565b60a4359361175285610a51565b61176160026065541415613af2565b600260655561177560ff6097541615613b3d565b6000948315611b1657611787856145ab565b611792608435614925565b61179b83614530565b6117a4836148e0565b906001600160a01b0396878316916117c08784338c8a16613b97565b6118875750857ff5dd9317b9e63ac316ce44acc85f670b54b339cfa3e9076e1dd55065b922314b9361073a9893602061182a94604051938480926339420b4560e11b82525afa91821561187a575b60009261185a575b506118246044359289613e5b565b90614972565b945b610c668660405193849316963396846040919493926001600160a01b03606083019616825260208201520152565b61187391925060203d8111610a1357610a0481836139ab565b9038611816565b6118826139e3565b61180e565b96916118e6906118aa6118a560d1999499546001600160a01b031690565b6145ab565b6040516339420b4560e11b81526020996118da918b8189818e5afa918215611b09575b91611aec575b5088613e5b565b90309160443591614972565b9561194788886118fe60d1546001600160a01b031690565b60405193849283927f095ea7b30000000000000000000000000000000000000000000000000000000084528a8401602090939291936001600160a01b0360408201951681520152565b03816000865af18015611adf575b611ab2575b506119ba8861197761118a61118a60d1546001600160a01b031690565b92604051809381927faf929a800000000000000000000000000000000000000000000000000000000083528983019190916001600160a01b036020820193169052565b0381855afa988915611aa5575b600099611a86575b5050803b1561000e57604080517f90210d7e000000000000000000000000000000000000000000000000000000008152948501988952602089018890526001600160a01b0383169089015261073a977ff5dd9317b9e63ac316ce44acc85f670b54b339cfa3e9076e1dd55065b922314b949160009183919082908490829060600103925af18015611a79575b611a66575b5061182c565b80610989611a7392613952565b38611a60565b611a816139e3565b611a5b565b611a9d929950803d106107655761075781836139ab565b9638806119cf565b611aad6139e3565b6119c7565b611ad190893d8b11611ad8575b611ac981836139ab565b810190613c74565b503861195a565b503d611abf565b611ae76139e3565b611955565b611b0391508b3d8d11610a1357610a0481836139ab565b386118d3565b611b116139e3565b6118cd565b5060405163b483c10f60e01b8152fd5b503461000e57600036600319011261000e576020611baf611b45615b19565b9290611b81611b6461013c546001600160801b0381169060801c614405565b91611b7b60ca5493611b7585613e91565b906144a0565b9061441e565b93604051938492839263d7454c5360e01b845287600485016040919493926060820195825260208201520152565b038173__$64c1823877363665b8c9607be5e0799ede$__5af4908115611c07575b600091611be95750604080519182526020820192909252f35b611c01915060203d81116107655761075781836139ab565b38611699565b611c0f6139e3565b611bd0565b503461000e57600036600319011261000e57602060cc54604051908152f35b503461000e57600080600319360112611c9457806033546001600160a01b03196001600160a01b03821691611c693384146138a8565b166033557f8be0079c531659141344cd1fd0a4f28419497f9722a3daafe3b4186f6b6457e08280a380f35b80fd5b503461000e57600036600319011261000e5760206101085460801c604051908152f35b503461000e5760408060031936011261000e57600435611cd981610619565b611ce5602435916148e0565b61013b549060ff8260a01c1615611e6e5760ca5484516367146f2960e01b8152600481018590526001600160a01b0383811660248301526044820192909252670de0b6b3a7640000606482015260b09390931c67ffffffffffffffff166084840152611da7929091858260a48173__$64c1823877363665b8c9607be5e0799ede$__5af4918215611e61575b600092611e2e575b5060209060048751809581936339420b4560e11b8352165afa918215611e21575b600092611e085750613a97565b90611de9611ddd611dbf61013c54938460801c613ea7565b926001600160801b03611dd561013d5460801c90565b911690613eb4565b6001600160801b031690565b10611df8579051908152602090f35b600482516332a9eed360e11b8152fd5b610f6591925060203d8111610a1357610a0481836139ab565b611e296139e3565b611d9a565b6020919250611e5290873d8911611e5a575b611e4a81836139ab565b8101906139cd565b509190611d79565b503d611e40565b611e696139e3565b611d71565b60048451633b26060360e11b8152fd5b503461000e57600036600319011261000e57602060cd54604051908152f35b503461000e57600036600319011261000e57611eb76148bb565b6001609754611ec960ff821615613b3d565b60ff1916176097557f62e78cea01bee320cd4e420270b5ea74000d11b0c9f74754ebdbfc544b05a2586020604051338152a1005b503461000e57608036600319011261000e57600435611f1b81610619565b60643590602435611f2b83610619565b611f3a60026065541415613af2565b6002606555611f4e60ff6097541615613b3d565b611f5883826140df565b801561214857611f67826148e0565b916001600160a01b039182841694604051946339420b4560e11b86526020866004818a5afa95861561213b575b60009661210f575b5085611fc2611fbb611fc89386611fb585604435613e5b565b91614163565b9890613a97565b96613a97565b95803b1561000e57604051639e79eaa560e01b81526001600160a01b038316600482015260248101879052906000908290604490829084905af18015612102575b6120ef575b50612018826144d8565b61205e61203261013c9261202d845460801c90565b613eb4565b61013c906001600160801b036fffffffffffffffffffffffffffffffff1983549260801b169116179055565b54612082611ddd61207261013d5460801c90565b6001600160801b03841690613eb4565b9060801c116120de57604080519283526020830186905260009491821693909116917f9d7031d6c62aaf1dd8765c9c971388930abacb85982fbff0e4278551a6bffecb9190a46001606555604080519182526020820192909252f35b60046040516332a9eed360e11b8152fd5b806109896120fc92613952565b3861200e565b61210a6139e3565b612009565b611fbb965090611fc2612132611fc89360203d8111610a1357610a0481836139ab565b97505090611f9c565b6121436139e3565b611f94565b600460405163b483c10f60e01b8152fd5b503461000e57600036600319011261000e576020611baf612178615b19565b60ca5460405163d7454c5360e01b8152600481018490526024810192909252604482015290929091829081906064820190565b503461000e57600036600319011261000e5760206001600160a01b0360335416604051908152f35b503461000e5760408060031936011261000e576121f56004356115fc81610619565b61013b546122079060a81c60ff161590565b61237b5761224382516339420b4560e11b81526020816004816001600160a01b0387165afa908115611709576000916116eb5750602435613e5b565b60ca54610108548451637b33fce760e01b81526001600160a01b0394909416600485015260248401929092526044830152670de0b6b3a764000060648301526001600160801b03808216608484015260809190911c60a483015291808260c48173__$64c1823877363665b8c9607be5e0799ede$__5af492831561236e575b6000928394612349575b5061230a611ddd6122ec866122e78761013c54968716613ea7565b613ea7565b9261230061013d546001600160801b031690565b9060801c90613eb4565b1061232057519081526020810191909152604090f35b600490517f8c68dbbe000000000000000000000000000000000000000000000000000000008152fd5b909350816123649293503d8411611e5a57611e4a81836139ab565b91909192386122cc565b6123766139e3565b6122c2565b60048251637a44a0f560e01b8152fd5b503461000e5761239a36610adc565b91926123ae60ff6097969396541615613b3d565b6001600160a01b03948561013b5416330361000e578115612148576123d2836148e0565b9580871696604051966339420b4560e11b88526020886004818c5afa97881561253f575b60009861250d575b5061241c6124156124229387611fb58c8096613e5b565b9990613a97565b97613a97565b96803b1561000e57604051639e79eaa560e01b81526001600160a01b038416600482015260248101889052906000908290604490829084905af18015612500575b6124ed575b50612472836144d8565b61248761203261013c9261202d845460801c90565b5461249b611ddd61207261013d5460801c90565b9060801c116120de5760408051938452602084018790529181169316917f9d7031d6c62aaf1dd8765c9c971388930abacb85982fbff0e4278551a6bffecb9190a4604080519182526020820192909252f35b806109896124fa92613952565b38612468565b6125086139e3565b612463565b611fb59850612415612422938761253461241c9460203d8111610a1357610a0481836139ab565b9b50509350506123fe565b6125476139e3565b6123f6565b503461000e57604036600319011261000e5760043561256a81610619565b6125b8606061257f602435936115fc8561457a565b60ca546040516302bd8cf160e61b81526001600160a01b0383166004820152602481019590955260448501529291829081906064820190565b038173__$64c1823877363665b8c9607be5e0799ede$__5af4918215612666575b600091829361262e575b5061261d9160206001600160a01b03926004604051809581936339420b4560e11b8352165afa918215611e2157600092611e085750613a97565b604080519182526020820192909252f35b6001600160a01b0391935061261d925061265760209160603d81116116d7576116c681836139ab565b929190509194925050916125e3565b61266e6139e3565b6125d9565b503461000e57600036600319011261000e5760206001600160a01b0360cf5416604051908152f35b503461000e57606036600319011261000e576004356126b981610619565b602435604435916126c983610619565b6001600160a01b036126e0816033541633146138a8565b6126e9826148e0565b6126f2836159b4565b841161136657166127296040516339420b4560e11b8152602081600481865afa9081156127ff575b6000916127e1575b5084613a97565b93813b1561000e57604051639e79eaa560e01b81526001600160a01b038216600482015260248101959095527f5f22a22ebe30686f71d42a70ccacf870a335e22ee2ac6d257af1b2551582eda694610977926000908290604490829084905af180156127d4575b6127c1575b50604051938493849193929060409160608401956001600160a01b038093168552602085015216910152565b806109896127ce92613952565b38612795565b6127dc6139e3565b612790565b6127f9915060203d8111610a1357610a0481836139ab565b38612722565b6128076139e3565b61271a565b503461000e5761281b36610d37565b61282f600260659794969597541415613af2565b600260655561284360ff6097541615613b3d565b61284d84846145e5565b85156121485761286090610b5d836145ab565b61286982614530565b612872826148e0565b9461287c846148e0565b916001600160a01b039182841693604051976339420b4560e11b808a528a60208b6004818b5afa9a8b15612a3f575b60009b612a18575b5084928b92888493169d8e916040518093819282525a92600491602094fa92831597610e57612912976128ff61290c976129059761291c9d612a0b575b6000916129ec575b508b613e5b565b93613e5b565b9c90613a97565b9a613a97565b9933868916613b97565b833b1561000e57604051639e79eaa560e01b81526001600160a01b0383166004820152602481018890527f54787c404bb33c88e86f4baf88183a3b0141d0a848e6a9f7a13b66ae3a9b73d1946129bf92899290916000908290604490829084905af180156129df575b6129cc575b506040519485941697339785909260609295949360808301966001600160a01b03809216845216602083015260408201520152565b0390a361261d6001606555565b806109896129d992613952565b3861298a565b6129e76139e3565b612985565b612a05915060203d602011610a1357610a0481836139ab565b386128f8565b612a136139e3565b6128f0565b87929b5092612a36869460203d602011610a1357610a0481836139ab565b9b9250926128b3565b612a476139e3565b6128ab565b503461000e57602036600319011261000e57600435612a6a81610619565b612a726148bb565b6001600160a01b0381169060009180835260c960205260ff60408420541615612ae957825260c960209081526040808420805460ff1916905580516001600160a01b0393909316835233918301919091527fdb198487a4c70aa000c3b1020f52688b4b86d3ebcedc84a793e03ed3b480902c91a180f35b60046040517f855b7373000000000000000000000000000000000000000000000000000000008152fd5b503461000e57602036600319011261000e57600435612b3e6001600160a01b036033541633146138a8565b670de0b6b3a76400008111611366576020817f294c562dcfcd9be941287844539aeba4ae641cd1fc9a2883337c6b2e87cbd98a9260ca55604051908152a1005b503461000e57602036600319011261000e5760043567ffffffffffffffff811680820361000e57670de0b6b3a764000090612bc56001600160a01b036033541633146138a8565b101561000e5761013b907fffff0000000000000000ffffffffffffffffffffffffffffffffffffffffffff7dffffffffffffffff0000000000000000000000000000000000000000000083549260b01b169116179055600080f35b503461000e57606036600319011261000e57600435612c3e81610619565b612d0d61073a612d9c602435612c5381610619565b612c76612c7060443596612c668861457a565b6115fc84826145e5565b916148e0565b60ca5460cb5461010854604080517fb94f2f9a0000000000000000000000000000000000000000000000000000000081526001600160a01b03808816600483015286166024820152604481019a909a5260648a0193909352670de0b6b3a764000060848a015260a48901919091526001600160801b03811660c489015260801c60e488015290959094859082908190610104820190565b038173__$64c1823877363665b8c9607be5e0799ede$__5af4918215612e25575b6000918293612e04575b508551926339420b4560e11b978885526004612d786020968794858285816001600160a01b03809b165afa918215612df7575b600092612ddf5750613a97565b99895194859384928352165afa928315612dd2575b600093612db3575b5050613a97565b915191825260208201929092529081906040820190565b612dca929350803d10610a1357610a0481836139ab565b903880612d95565b612dda6139e3565b612d8d565b610f65919250863d8811610a1357610a0481836139ab565b612dff6139e3565b612d6b565b909250612e1e9150853d8711611e5a57611e4a81836139ab565b9138612d38565b612e2d6139e3565b612d2e565b503461000e57600080600319360112611c9457604051809160d354908183526020809301809260d383527f915c3eb987b20e1af620c1403197bf687fb7f18513b3a73fde6e78c7072c41a690835b818110612edd5750505084612e969103856139ab565b60405193838594850191818652518092526040850193925b828110612ebd57505050500390f35b83516001600160a01b031685528695509381019392810192600101612eae565b82546001600160a01b031684529286019260019283019201612e80565b503461000e57600036600319011261000e57602067ffffffffffffffff61013b5460b01c16604051908152f35b503461000e57600036600319011261000e5760206001600160a01b0361013b5416604051908152f35b503461000e57602036600319011261000e57612f6a610557565b612f806001600160a01b036033541633146138a8565b61013d906001600160801b036fffffffffffffffffffffffffffffffff1983549260801b169116179055600080f35b503461000e57602036600319011261000e577f935ce123b6388f8dbf76890f8240a48198f1e0a884f26939aa604a46bb65b7066020600435612ffd6001600160a01b036033541633146138a8565b8060ce55604051908152a1005b503461000e57600036600319011261000e57602060cb54604051908152f35b5061010036600319011261000e5760043561304381610619565b60243561304f81610619565b60643560c4359261305f84610619565b61306761063d565b61307660026065541415613af2565b600260655561308a60ff6097541615613b3d565b82156121485761073a926004916130a084614530565b6130a9876145ab565b6130b2846148e0565b61310d6001600160a01b038096169582166130cf8582338a613b97565b6040519283916339420b4560e11b835282602098899687935afa918215613246575b600092613227575b506131076084359287613e5b565b90613ecf565b98909761312661118a61013b546001600160a01b031690565b604051633a0cd16d60e11b81526001600160a01b03928316600482015260448035602483015281018b905260a48035606483015292909316608484015263ffffffff90941690820152918290818060c48101039134905af192831561321a575b6000936131fb575b50509181927f8900881feb21943c006d040b3a8510f7780104f915ac29f448cdaf220007887f604051806131d18933958360209093929193604081019481520152565b0390a46131de6001606555565b604051938493846040919493926060820195825260208201520152565b613212929350803d106107655761075781836139ab565b90388061318e565b6132226139e3565b613186565b61323f919250843d8611610a1357610a0481836139ab565b90386130f9565b61324e6139e3565b6130f1565b503461000e57602036600319011261000e576020610f2560043561327681610619565b6159b4565b503461000e57602036600319011261000e577f8daa6bb00de042a7d51816fcee4a3d5c1e91a2128fd64fa1a9a38afa0d26beb560206004356132bc81610619565b6001600160a01b03906132d4826033541633146138a8565b6132dd816145ab565b16806001600160a01b031960cf54161760cf55604051908152a1005b503461000e57604036600319011261000e5760043561331781610619565b60243561332381610619565b6001600160a01b039061333b826033541633146138a8565b613344816145ab565b61334d836145ab565b613370836001600160a01b0380911660005260d460205260406000205416151590565b6133e35781169082166133bc60009382855260d46020526133aa8460408720906001600160a01b03166001600160a01b0319825416179055565b60d35460d56020526040862055614793565b7f0bb5715f0f217c2fe9a0c877ea87d474380c641102f3440ee2a4c8b9d97909188380a380f35b60046040517f8991c4c4000000000000000000000000000000000000000000000000000000008152fd5b503461000e57602036600319011261000e576020610f2560043561343081610619565b61586b565b503461000e57604036600319011261000e5760005460ff8160081c1690816000146135805750303b155b156135165715806134eb575b613479602435600435614654565b6134d6575b6134a76101086714d1120d7b1600006fffffffffffffffffffffffffffffffff19825416179055565b6113646101087718fae27693b40000000000000000000000000000000000006001600160801b03825416179055565b6134e661ff001960005416600055565b61347e565b6134ff61010061ff00196000541617600055565b613511600160ff196000541617600055565b61346b565b608460405162461bcd60e51b815260206004820152602e60248201527f496e697469616c697a61626c653a20636f6e747261637420697320616c72656160448201527f647920696e697469616c697a65640000000000000000000000000000000000006064820152fd5b60ff161561345f565b503461000e57602036600319011261000e5760206001600160a01b036135b46004356115fc81610619565b16604051908152f35b503461000e57602036600319011261000e576004356135db81610619565b6001600160a01b036135f2816033541633146138a8565b81161561360257611364906138f3565b608460405162461bcd60e51b815260206004820152602660248201527f4f776e61626c653a206e6577206f776e657220697320746865207a65726f206160448201527f64647265737300000000000000000000000000000000000000000000000000006064820152fd5b503461000e57602036600319011261000e577ff6b59ffc88fbb27f33470b919e00b41139ee340eb349521f0cbbc1504ce29c3e60206004356136ad81610619565b6001600160a01b03906136c5826033541633146138a8565b6136ce816145ab565b16806001600160a01b031960d054161760d055604051908152a1005b503461000e57602036600319011261000e576004356137156001600160a01b036033541633146138a8565b670de0b6b3a76400008111611366576020817fc6e60196bbe5909add58d5ae8a27082013670bce0855321773c33085af5c32439260cb55604051908152a1005b503461000e57602036600319011261000e5760043561377381610a51565b6137896001600160a01b036033541633146138a8565b61013b80547fffffffffffffffffffffff00ffffffffffffffffffffffffffffffffffffffff1691151560a01b74ff000000000000000000000000000000000000000016919091179055005b503461000e57602036600319011261000e5761136461149f6004356115fc81610619565b503461000e57600036600319011261000e5760206001600160801b036101085416604051908152f35b503461000e57602036600319011261000e576001600160a01b0360043561384881610619565b1660005261013e6020526020604060002054604051908152f35b503461000e5761141161140b613877366113cd565b92909261513f565b503461000e57600036600319011261000e5760206001600160801b0361013d5416604051908152f35b156138af57565b606460405162461bcd60e51b815260206004820152602060248201527f4f776e61626c653a2063616c6c6572206973206e6f7420746865206f776e65726044820152fd5b603354906001600160a01b0380911691826001600160a01b0319821617603355167f8be0079c531659141344cd1fd0a4f28419497f9722a3daafe3b4186f6b6457e0600080a3565b50634e487b7160e01b600052604160045260246000fd5b67ffffffffffffffff811161396657604052565b61396e61393b565b604052565b60a0810190811067ffffffffffffffff82111761396657604052565b6040810190811067ffffffffffffffff82111761396657604052565b90601f8019910116810190811067ffffffffffffffff82111761396657604052565b919082604091031261000e576020825192015190565b506040513d6000823e3d90fd5b9081602091031261000e575160ff8116810361000e5790565b50634e487b7160e01b600052601160045260246000fd5b60ff6011199116019060ff8211613a3357565b613a3b613a09565b565b60ff166012039060ff8211613a3357565b60ff16604d8111613a60575b600a0a90565b613a68613a09565b613a5a565b81810292918115918404141715613a3357565b50634e487b7160e01b600052601260045260246000fd5b9060ff81166012811015613ace5750613ab2613ab791613a3d565b613a4e565b908115613ac2570490565b613aca613a80565b0490565b601210613ad9575090565b90613ae9613ab2613aef93613a20565b90613a6d565b90565b15613af957565b606460405162461bcd60e51b815260206004820152601f60248201527f5265656e7472616e637947756172643a207265656e7472616e742063616c6c006044820152fd5b15613b4457565b606460405162461bcd60e51b815260206004820152601060248201527f5061757361626c653a20706175736564000000000000000000000000000000006044820152fd5b9081602091031261000e575190565b600091613c4f949383926040519560208701937f23b872dd0000000000000000000000000000000000000000000000000000000085526001600160a01b03938480921660248a0152166044880152606487015260648652613bf786613973565b16908260405195613c078761398f565b602087527f5361666545524332303a206c6f772d6c6576656c2063616c6c206661696c65646020880152613c3d843b1515613cfa565b51925af1613c49613d45565b90613d93565b805180613c5a575050565b81602080613c6f93613a3b9501019101613c74565b613c89565b9081602091031261000e5751613aef81610a51565b15613c9057565b608460405162461bcd60e51b815260206004820152602a60248201527f5361666545524332303a204552433230206f7065726174696f6e20646964206e60448201527f6f742073756363656564000000000000000000000000000000000000000000006064820152fd5b15613d0157565b606460405162461bcd60e51b815260206004820152601d60248201527f416464726573733a2063616c6c20746f206e6f6e2d636f6e74726163740000006044820152fd5b3d15613d8e573d9067ffffffffffffffff8211613d81575b60405191613d75601f8201601f1916602001846139ab565b82523d6000602084013e565b613d8961393b565b613d5d565b606090565b90919015613d9f575090565b815115613daf5750805190602001fd5b6040519062461bcd60e51b82528160208060048301528251908160248401526000935b828510613df5575050604492506000838284010152601f80199101168101030190fd5b8481018201518686016044015293810193859350613dd2565b60ff81166012811015613e285750613ab2613aef91613a3d565b601210613e355750600190565b613ab2613e4191613a20565b8015613e4e575b60010490565b613e56613a80565b613e48565b9060ff81166012811015613e7a575090613ae9613ab2613aef93613a3d565b601210613e85575090565b613ab2613ab791613a20565b90670de0b6b3a7640000918201809211613a3357565b91908201809211613a3357565b9190916001600160801b0380809416911601918211613a3357565b919290613ee661115161013b5460ff9060a81c1690565b6140ce5760ca546101085460408051637b33fce760e01b81526001600160a01b0387166004820152602481018590526044810193909352670de0b6b3a764000060648401526001600160801b03808316608485015260809290921c60a4840152929091838160c48173__$64c1823877363665b8c9607be5e0799ede$__5af480156140c1575b60009182916140a2575b506001600160a01b038197613f8c84809b614623565b613fbb613fa160d0546001600160a01b031690565b6001600160a01b031660005261013e602052604060002090565b613fc6848254613ea7565b90551691823b1561000e57855162b64f3d60e51b815260048101949094526140119361400c936000908290602490829084905af18015614095575b614082575b50613ea7565b6144d8565b61405361402c61013c9261202d84546001600160801b031690565b6001600160801b0361013c91166fffffffffffffffffffffffffffffffff19825416179055565b5490614078611ddd61406e61013d546001600160801b031690565b8460801c90613eb4565b9116116123205750565b8061098961408f92613952565b38614006565b61409d6139e3565b614001565b90506140bb9150843d8611611e5a57611e4a81836139ab565b38613f76565b6140c96139e3565b613f6c565b6004604051637a44a0f560e01b8152fd5b906140e9906145ab565b8015612148573360005261013e80602052816040600020541061411a57336000526020526040600020908154039055565b60046040517fdb52be33000000000000000000000000000000000000000000000000000000008152fd5b9081602091031261000e57516001600160781b038116810361000e5790565b91929061013b5460ff8160a01c16156143a75760ca54604080516367146f2960e01b815260048101949094526001600160a01b03861660248501526044840191909152670de0b6b3a7640000606484015260b09190911c67ffffffffffffffff16608483015290818160a48173__$64c1823877363665b8c9607be5e0799ede$__5af4801561439a575b6000918291614377575b50806001600160a01b03614242929661421185809a614623565b61422e816001600160a01b031660005260d2602052604060002090565b614239848254613ea7565b90551692613ea7565b813b1561000e5782516313f3df3160e31b81526004810191909152662386f26fc10000916142e49160008160248183865af1801561436a575b614357575b5083519063961be39160e01b82526020908183600481845afa92831561434a575b600093614326575b508160049187519283809263705727b560e01b82525afa918215614319575b6000926142fc575b50506001600160781b0380911691166143b8565b106142ec5750565b600490516316fde3bd60e21b8152fd5b6143129250803d106109d7576109c881836139ab565b38806142d0565b6143216139e3565b6142c8565b60049193506143428391823d84116109d7576109c881836139ab565b9391506142a9565b6143526139e3565b6142a1565b8061098961436492613952565b38614280565b6143726139e3565b61427b565b61424292506143939150833d8511611e5a57611e4a81836139ab565b90916141f7565b6143a26139e3565b6141ed565b6004604051633b26060360e11b8152fd5b670de0b6b3a7640000908181029181830414901517156143f8575b8160011c81018091116143eb575b8115613ac2570490565b6143f3613a09565b6143e1565b614400613a09565b6143d3565b81810392916000138015828513169184121617613a3357565b91909160008382019384129112908015821691151617613a3357565b818102929160008212600160ff1b82141661445e575b8184051490151715613a3357565b614466613a09565b614450565b8115614493575b600160ff1b8114600019831416614487570590565b61448f613a09565b0590565b61449b613a80565b614472565b670de0b6b3a7640000916144b39161443a565b6706f05b59d3b200009060008282019283129112908015821691151617614487570590565b6001600160801b03908181116144ec571690565b606460405162461bcd60e51b815260206004820152601060248201527f75696e74313238206f766572666c6f77000000000000000000000000000000006044820152fd5b6001600160a01b031660005260c960205260ff6040600020541661455057565b60046040517f8654830a000000000000000000000000000000000000000000000000000000008152fd5b1561458157565b60046040517f3f3835e7000000000000000000000000000000000000000000000000000000008152fd5b6001600160a01b0316156145bb57565b60046040517f0bd3e3ed000000000000000000000000000000000000000000000000000000008152fd5b6001600160a01b039081169116146145f957565b60046040517feeb7911f000000000000000000000000000000000000000000000000000000008152fd5b1161462a57565b60046040517ff512a720000000000000000000000000000000000000000000000000000000008152fd5b61466e60ff60005460081c16614669816146c6565b6146c6565b614677336138f3565b61469660ff60005460081c1661468c816146c6565b60016065556146c6565b60ff196097541660975560ca5560cb55670de0b6b3a764000060cd55336001600160a01b031960cf54161760cf55565b156146cd57565b608460405162461bcd60e51b815260206004820152602b60248201527f496e697469616c697a61626c653a20636f6e7472616374206973206e6f74206960448201527f6e697469616c697a696e670000000000000000000000000000000000000000006064820152fd5b50634e487b7160e01b600052603260045260246000fd5b60d354811015614786575b60d36000527f915c3eb987b20e1af620c1403197bf687fb7f18513b3a73fde6e78c7072c41a60190600090565b61478e614737565b614759565b6001600160a01b0360d35468010000000000000000811015614807575b600181018060d3558110156147fa575b60d36000527f915c3eb987b20e1af620c1403197bf687fb7f18513b3a73fde6e78c7072c41a60191166001600160a01b0319825416179055565b614802614737565b6147c0565b61480f61393b565b6147b0565b600019810191908211613a3357565b90670de0b6b3a7640000918203918211613a3357565b91908203918211613a3357565b60d35480156148a5577f915c3eb987b20e1af620c1403197bf687fb7f18513b3a73fde6e78c7072c41a560001982019180831015614898575b60d3600052016001600160a01b0319815416905560d355565b6148a0614737565b61487f565b634e487b7160e01b600052603160045260246000fd5b6001600160a01b0360cf541633036148cf57565b60046040516316fde3bd60e21b8152fd5b614903816001600160a01b0380911660005260d460205260406000205416151590565b156112af576001600160a01b0380911660005260d46020526040600020541690565b421161492d57565b60046040517f549b6335000000000000000000000000000000000000000000000000000000008152fd5b9081606091031261000e578051916040602083015192015190565b6149bf90949391929461498481615ce3565b606060ca546040518094819263f6ae404f60e01b83528886600485016040919493926001600160a01b03606083019616825260208201520152565b038173__$64c1823877363665b8c9607be5e0799ede$__5af4908115614b57575b6000928392614b29575b506001600160a01b0390614a08848099614a038261457a565b614623565b1693843b1561000e5760405162b64f3d60e51b8152600481019190915260008160248183895af18015614b1c575b614b09575b50833b1561000e5760405163283c3d8160e21b8152600481019190915260008160248183885af18015614afc575b614ae9575b50823b1561000e576040517f40c10f190000000000000000000000000000000000000000000000000000000081526001600160a01b039290921660048301526024820152906000908290604490829084905af18015614adc575b614acf5750565b80610989613a3b92613952565b614ae46139e3565b614ac8565b80610989614af692613952565b38614a6e565b614b046139e3565b614a69565b80610989614b1692613952565b38614a3b565b614b246139e3565b614a36565b6001600160a01b039350614b4c91925060603d81116116d7576116c681836139ab565b5092909291906149ea565b614b5f6139e3565b6149e0565b9190614b6f83615ce3565b60ca549060409081516302bd8cf160e61b815260608180614bb0600497868b8a85016040919493926001600160a01b03606083019616825260208201520152565b038173__$64c1823877363665b8c9607be5e0799ede$__5af4908115614e7b575b6000908192614e59575b506001600160a01b0381971692833b1561000e578451632770a7eb60e21b81526001600160a01b038516878201908152602081019290925290600090829081906040015b038183885af18015614e4c575b614e39575b50823b1561000e5783516313f3df3160e31b81528581019182529060009082908190602001038183875af18015614e2c575b614e19575b50813b1561000e5782517fd8b878530000000000000000000000000000000000000000000000000000000081528481019182529060009082908190602001038183865af18015614e0c575b614df9575b50815163705727b560e01b80825260209283838781845afa928315614dec575b600093614dcd575b506001600160781b0380931615159283614d0f575b5050509050614d02575050565b516316fde3bd60e21b8152fd5b614d6b9350662386f26fc100009486519263961be39160e01b845281848a81845afa938415614dc0575b600094614d9f575b50818394958a8a518094819382525afa918215614d92575b600092614d75575b50501691166143b8565b1080388080614cf5565b614d8b9250803d106109d7576109c881836139ab565b3880614d61565b614d9a6139e3565b614d59565b839450614db98391823d84116109d7576109c881836139ab565b9450614d41565b614dc86139e3565b614d39565b614de5919350843d86116109d7576109c881836139ab565b9138614ce0565b614df46139e3565b614cd8565b80610989614e0692613952565b38614cb8565b614e146139e3565b614cb3565b80610989614e2692613952565b38614c68565b614e346139e3565b614c63565b80610989614e4692613952565b38614c31565b614e546139e3565b614c2c565b9050614e73915060603d81116116d7576116c681836139ab565b509038614bdb565b614e836139e3565b614bd1565b929192614e9481615ce3565b60ca549160409182516302bd8cf160e61b815260608180614ed560049887878b85016040919493926001600160a01b03606083019616825260208201520152565b038173__$64c1823877363665b8c9607be5e0799ede$__5af4918215614f7e575b6000918293614f52575b506001600160a01b0390614f1583809a614623565b1692833b1561000e578451632770a7eb60e21b81526001600160a01b03851687820190815260208101929092529060009082908190604001614c1f565b614f759193506001600160a01b03925060603d81116116d7576116c681836139ab565b50929091614f00565b614f866139e3565b614ef6565b90929391614f9a81858461515e565b90928195614fa9858099614623565b614fc6816001600160a01b031660005260d2602052604060002090565b8381540190556001600160a01b0380921693843b1561000e5760405162b64f3d60e51b8152600481019190915260009485908290602490829084905af18015615132575b61511f575b501692833b1561511b576040516313f3df3160e31b815291016004820152662386f26fc10000926150b4929091818160248183875af1801561510e575b6150fb575b506040519163961be39160e01b83526020908184600481845afa9384156150ee575b83946150c8575b5090806004926040519384809263705727b560e01b82525afa9283156150bb575b926142fc5750506001600160781b0380911691166143b8565b106148cf57565b6150c36139e3565b61509b565b82919450916150e5600493823d84116109d7576109c881836139ab565b9491925061507a565b6150f66139e3565b615073565b8061098961510892613952565b38615051565b6151166139e3565b61504c565b8280fd5b8061098961512c92613952565b3861500f565b61513a6139e3565b61500a565b600160ff1b8114615151575b60000390565b615159613a09565b61514b565b92919261516c848383615635565b94909185836000958685121560001461531557505050906001600160a01b038392166040519163961be39160e01b8352600460209384848183858183995afa928315615308575b8a936152e9575b506040519384809263705727b560e01b82525afa9182156152dc575b88926152b9575b50610108546040517f2f6599bb0000000000000000000000000000000000000000000000000000000081526001600160781b039283166004820152929091166024830152604482019290925260648101949094526001600160801b038116608485015260801c60a4840152828060c481015b038173__$64c1823877363665b8c9607be5e0799ede$__5af49384156152ac575b93615287575b50508161528291614839565b920190565b61528292935090816152a492903d106107655761075781836139ab565b919038615276565b6152b46139e3565b615270565b61524f9192506152d590853d87116109d7576109c881836139ab565b91906151dd565b6152e46139e3565b6151d6565b615301919350823d84116109d7576109c881836139ab565b91386151ba565b6153106139e3565b6151b3565b6001600160a01b039196929850809493955016906040519063961be39160e01b825260208083600481875afa92831561546d575b829361544b575b50806004916001600160781b03809516956040519384809263705727b560e01b82525afa92831561543e575b92615421575b505016615398816153938885613ea7565b6143b8565b6101085492906001600160801b038416106153b7575050505050509190565b90919395506153c8929497506143b8565b9060801c11156153f7576153de6153e59161513f565b848361547a565b906153f29193849161515e565b905090565b60046040517f6158a9f8000000000000000000000000000000000000000000000000000000008152fd5b6154379250803d106109d7576109c881836139ab565b3880615382565b6154466139e3565b61537c565b819350615466906004923d86116109d7576109c881836139ab565b9290615350565b6154756139e3565b615349565b6040516339420b4560e11b815291939260209261553a906001600160a01b0384168582600481845afa9182156155f7575b6000926155d4575b50610bc4906154c183613e0e565b966040519063705727b560e01b82528082600481865afa9182156155c7575b6000926155a8575b5060048161550f6154ff611ddd6101085460801c90565b6001600160781b03809616615604565b946040519283809263961be39160e01b82525afa9182156109de576000926109b15750501690614839565b91600195868361555461554d8888613a6d565b848661515e565b50106153f7579291905b8484106155745750505050613aef929350613a6d565b90919293808501881c90888561558d898502868861515e565b501061559f575050935b92919061555e565b90955001615597565b816155c09293503d84116109d7576109c881836139ab565b90386154e8565b6155cf6139e3565b6154e0565b610bc49192506155f090873d8911610a1357610a0481836139ab565b91906154b3565b6155ff6139e3565b6154ab565b670de0b6b3a76400009161561791613a6d565b6706f05b59d3b20000810180911161562d570490565b613aca613a09565b90929160ca549060cb5492604051957fe02a44c60000000000000000000000000000000000000000000000000000000087526001600160a01b03809216600488015216602486015260448501526064840152670de0b6b3a7640000608484015260a483015260408260c48173__$64c1823877363665b8c9607be5e0799ede$__5af49182156156ec575b60009081936156cd57509190565b90506156e891925060403d8111611e5a57611e4a81836139ab565b9091565b6156f46139e3565b6156bf565b92919261570682826145e5565b831561214857612c70615718916148e0565b92836001600160a01b036157928185166000615768604051976157606339420b4560e11b998a81526020998a826004818a5afa918215615818575b86926157f9575b50615825565b9a8b9161515e565b939094849616946040519089825288826004818a5afa9182156157ec575b8492610f4d5750613a97565b98126157c157505082613aef9460046040518094819382525afa928315612dd257600093612db3575050613a97565b9150915082613aef9460046040518094819382525afa928315612dd257600093612db3575050613a97565b6157f46139e3565b615786565b6158119192508b3d8d11610a1357610a0481836139ab565b903861575a565b6158206139e3565b615753565b9060ff8116601281101561584a575090615844613ab2613aef93613a3d565b9061443a565b601210615855575090565b90615865613ab2613aef93613a20565b9061446b565b61118a615877916148e0565b6040517f18160ddd000000000000000000000000000000000000000000000000000000008082526020918281600481875afa9081156159a7575b60009161598a575b501561597b57613aef92826040519263705727b560e01b84528184600481865afa93841561596e575b60009461594f575b5060046040518094819382525afa928315615942575b600093615918575b50506001600160781b03166143b8565b6001600160781b03929350908161593a92903d106107655761075781836139ab565b919038615908565b61594a6139e3565b615900565b615967919450823d84116109d7576109c881836139ab565b92386158ea565b6159766139e3565b6158e2565b505050670de0b6b3a764000090565b6159a19150833d85116107655761075781836139ab565b386158b9565b6159af6139e3565b6158b1565b6159c0615a21916148e0565b6001600160a01b038116906004604051632672469960e21b8152602094818681858295895afa908115615af0575b600091615ad3575b50604051906339420b4560e11b8252838286818a5afa918215615ac6575b600092615aae5750613e5b565b936040519283809263961be39160e01b82525afa938415615aa1575b600094615a75575b5050615a6c6001600160781b03916001600160a01b031660005260d2602052604060002090565b54921690030390565b6001600160781b03929450615a6c9181615a9a92903d106109d7576109c881836139ab565b9391615a45565b615aa96139e3565b615a3d565b610a0c919250843d8611610a1357610a0481836139ab565b615ace6139e3565b615a14565b615aea9150833d85116107655761075781836139ab565b386159f6565b615af86139e3565b6159ee565b6001906000198114615b0d570190565b615b15613a09565b0190565b6000906000908160ca548160d354915b828410615b365750505050565b90919295615b4961118a61148289615c96565b60409081519163961be39160e01b835260209160049183858481855afa948515615c4a575b8895615c27575b50908391519283809263705727b560e01b82525afa918215615c1a575b8692615bfd575b50506001600160781b03809116918215615bf05782611b75615bd182615bcb615be297615be89997611b7b9716615c57565b9c61441e565b9a615bdc8189615c57565b90614405565b96615afd565b929190615b29565b50505095615be890615afd565b615c139250803d106109d7576109c881836139ab565b3880615b99565b615c226139e3565b615b92565b8492919550615c4290833d85116109d7576109c881836139ab565b949091615b75565b615c526139e3565b615b6e565b90615c84613aef92670de0b6b3a764000090818102918183051490151715615c89575b600283059061441e565b61446b565b615c91613a09565b615c7a565b6001600160a01b039060d354811015615cd6575b60d36000527f915c3eb987b20e1af620c1403197bf687fb7f18513b3a73fde6e78c7072c41a601541690565b615cde614737565b615caa565b615d00816001600160a01b031660005260d2602052604060002090565b5480158015615f78575b615f7457615d2e615d28615d1f60cd54614823565b60cc5490614839565b82615604565b9081615eb6575b615d43915060cd5490615604565b80615d67575b506001600160a01b0316600090815260d26020526040812055565b55565b60ca5460405163f6ae404f60e01b81526001600160a01b0384166004820152602481018390526044810191909152909160608260648173__$64c1823877363665b8c9607be5e0799ede$__5af4918215615ea9575b600092615e86575b506001600160a01b03811691823b1561000e5760405163283c3d8160e21b8152600481019190915260008160248183875af18015615e79575b615e66575b50813b1561000e5760405162b64f3d60e51b81526004810193909352600092615d649284908290602490829084905af18015615e59575b615e46575b509150615d49565b80610989615e5392613952565b38615e3e565b615e616139e3565b615e39565b80610989615e7392613952565b38615e02565b615e816139e3565b615dfd565b615e9f91925060603d81116116d7576116c681836139ab565b5090509038615dc4565b615eb16139e3565b615dbc565b6001600160a01b038316615f01615ed560d0546001600160a01b031690565b93604051906339420b4560e11b8252602082600481875afa918215611e2157600092611e085750613a97565b92813b1561000e57604051639e79eaa560e01b81526001600160a01b039190911660048201526024810193909352615d4392906000908290604490829084905af18015615f67575b615f54575b50615d35565b80610989615f6192613952565b38615f4e565b615f6f6139e3565b615f49565b5050565b5060ce548110615d0a56fea2646970667358221220713a905d02c90a8a74a73cd4d09c00f667bb3b346e3b45a94e41bbf69e52034364736f6c63430008110033",
  "libraries": {
    "CoreV3": "0xDa01302C86ECcd5bc94c1086777acF3c3Af7EF63"
  },
  "devdoc": {
    "details": "Refer to note of `swapTokensForTokensCrossChain` for procedure of a cross-chain swapTODO: write documents for protection mechanism and implement it Note: All variables are 18 decimals, except from that of parameters of external functions and underlying tokens",
    "events": {
      "SwapCreditForTokens(uint256,address,uint256,address,uint256)": {
        "details": "`trackingId` 0 means the swap is on the same chain. Otherwise it is a cross-chain swap with `trackingId`"
      },
      "SwapTokensForCredit(address,address,uint256,uint256,uint256)": {
        "details": "`trackingId` 0 means the swap is on the same chain. Otherwise a cross-chain swap with `trackingId` is followed"
      }
    },
    "kind": "dev",
    "methods": {
      "addAsset(address,address)": {
        "params": {
          "asset": "The address of the Wombat Asset contract",
          "token": "The address of token"
        }
      },
      "addressOfAsset(address)": {
        "details": "to be used externally",
        "params": {
          "token": "The address of ERC20 token"
        }
      },
      "deposit(address,uint256,uint256,address,uint256,bool)": {
        "details": "Asset needs to be created and added to pool before any operation. This function assumes tax free token.",
        "params": {
          "amount": "The amount to be deposited",
          "deadline": "The deadline to be respected",
          "to": "The user accountable for deposit, receiving the Wombat assets (lp)",
          "token": "The token address to be deposited"
        },
        "returns": {
          "liquidity": "Total asset liquidity minted"
        }
      },
      "exchangeRate(address)": {
        "params": {
          "token": "The address of the token"
        },
        "returns": {
          "xr": "The exchange rate of LP token"
        }
      },
      "mintFee(address)": {
        "params": {
          "token": "The address of the token to collect fee"
        }
      },
      "owner()": {
        "details": "Returns the address of the current owner."
      },
      "pause()": {
        "details": "pause pool, restricting certain operations"
      },
      "pauseAsset(address)": {
        "details": "pause asset, restricting deposit and swap operations"
      },
      "paused()": {
        "details": "Returns true if the contract is paused, and false otherwise."
      },
      "quoteAmountIn(address,address,int256)": {
        "details": "To be used by frontend",
        "params": {
          "fromToken": "The initial ERC20 token",
          "toAmount": "The given output amount",
          "toToken": "The token wanted by user"
        },
        "returns": {
          "amountIn": "The input amount required",
          "haircut": "The haircut that would be applied"
        }
      },
      "quotePotentialDeposit(address,uint256)": {
        "details": "To be used by frontend",
        "params": {
          "amount": "The amount to deposit",
          "token": "The token to deposit by user"
        },
        "returns": {
          "liquidity": "The potential liquidity user would receive",
          "reward": "reward"
        }
      },
      "quotePotentialSwap(address,address,int256)": {
        "details": "In reverse quote, the haircut is in the `fromAsset`",
        "params": {
          "fromAmount": "The given input amount",
          "fromToken": "The initial ERC20 token",
          "toToken": "The token wanted by user"
        },
        "returns": {
          "haircut": "The haircut that would be applied",
          "potentialOutcome": "The potential amount user would receive"
        }
      },
      "quotePotentialWithdraw(address,uint256)": {
        "details": "To be used by frontend",
        "params": {
          "liquidity": "The liquidity (amount of lp assets) to be withdrawn",
          "token": "The token to be withdrawn by user"
        },
        "returns": {
          "amount": "The potential amount user would receive",
          "fee": "The fee that would be applied"
        }
      },
      "quotePotentialWithdrawFromOtherAsset(address,address,uint256)": {
        "details": "take into account high cov ratio fee"
      },
      "removeAsset(address)": {
        "details": "Can only be called by owner",
        "params": {
          "token": "The address of token to remove"
        }
      },
      "renounceOwnership()": {
        "details": "Leaves the contract without owner. It will not be possible to call `onlyOwner` functions anymore. Can only be called by the current owner. NOTE: Renouncing ownership will leave the contract without an owner, thereby removing any functionality that is only available to the owner."
      },
      "setAmpFactor(uint256)": {
        "params": {
          "ampFactor_": "new pool's amplification factor"
        }
      },
      "setDev(address)": {
        "params": {
          "dev_": "new contract dev address"
        }
      },
      "setFeeTo(address)": {
        "params": {
          "feeTo_": "new fee beneficiary"
        }
      },
      "setHaircutRate(uint256)": {
        "params": {
          "haircutRate_": "new pool's haircutRate_"
        }
      },
      "swap(address,address,uint256,uint256,address,uint256)": {
        "details": "This function assumes tax free token.",
        "params": {
          "deadline": "The deadline to be respected",
          "fromAmount": "The amount of from token inserted",
          "fromToken": "The token being inserted into Pool by user for swap",
          "minimumToAmount": "The minimum amount that will be accepted by user as result",
          "to": "The user receiving the result of swap",
          "toToken": "The token wanted by user, leaving the Pool"
        }
      },
      "swapTokensForTokensCrossChain(address,address,uint256,uint256,uint256,uint256,address,uint32)": {
        "details": "Steps: 1. Swap `fromToken` for credit; 2. Notify relayer to bridge credit to the `toChain`; 3. Relayer invoke `completeSwapCreditForTokens` to swap credit for `toToken` in the `toChain` Note: haircut returned here is just high cov ratio fee."
      },
      "transferOwnership(address)": {
        "details": "Transfers ownership of the contract to a new account (`newOwner`). Can only be called by the current owner."
      },
      "transferTipBucket(address,uint256,address)": {
        "details": "unit of amount should be in WAD"
      },
      "unpause()": {
        "details": "unpause pool, enabling certain operations"
      },
      "unpauseAsset(address)": {
        "details": "unpause asset, enabling deposit and swap operations"
      },
      "withdraw(address,uint256,uint256,address,uint256)": {
        "params": {
          "deadline": "The deadline to be respected",
          "liquidity": "The liquidity to be withdrawn",
          "minimumAmount": "The minimum amount that will be accepted by user",
          "to": "The user receiving the withdrawal",
          "token": "The token to be withdrawn"
        },
        "returns": {
          "amount": "The total amount withdrawn"
        }
      },
      "withdrawFromOtherAsset(address,address,uint256,uint256,address,uint256)": {
        "params": {
          "deadline": "The deadline to be respected",
          "fromToken": "The corresponding token user holds the LP (Asset) from",
          "liquidity": "The liquidity to be withdrawn (in fromToken decimal)",
          "minimumAmount": "The minimum amount that will be accepted by user",
          "to": "The user receiving the withdrawal",
          "toToken": "The token wanting to be withdrawn (needs to be well covered)"
        },
        "returns": {
          "toAmount": "The total amount withdrawn"
        }
      }
    },
    "title": "Mega Pool",
    "version": 1
  },
  "userdoc": {
    "errors": {
      "POOL__CREDIT_NOT_ENOUGH()": [
        {
          "notice": "Errors"
        }
      ]
    },
    "events": {
      "AssetAdded(address,address)": {
        "notice": "An event thats emitted when an asset is added to Pool"
      },
      "AssetRemoved(address,address)": {
        "notice": "An event thats emitted when asset is removed from Pool"
      },
      "Deposit(address,address,uint256,uint256,address)": {
        "notice": "An event thats emitted when a deposit is made to Pool"
      },
      "Swap(address,address,address,uint256,uint256,address)": {
        "notice": "An event thats emitted when a swap is made in Pool"
      },
      "SwapCreditForTokens(uint256,address,uint256,address,uint256)": {
        "notice": "Event that is emitted when credit is swapped into token"
      },
      "SwapTokensForCredit(address,address,uint256,uint256,uint256)": {
        "notice": "Event that is emitted when token is swapped into credit"
      },
      "Withdraw(address,address,uint256,uint256,address)": {
        "notice": "An event thats emitted when a withdrawal is made from Pool"
      }
    },
    "kind": "user",
    "methods": {
      "adaptor()": {
        "notice": "Storage"
      },
      "addAsset(address,address)": {
        "notice": "Adds asset to pool, reverts if asset already exists in pool"
      },
      "addressOfAsset(address)": {
        "notice": "Gets Asset corresponding to ERC20 token. Reverts if asset does not exists in Pool."
      },
      "ampFactor()": {
        "notice": "Amplification factor"
      },
      "completeSwapCreditForTokens(address,uint256,uint256,address,uint256)": {
        "notice": "Swap credit to tokens; should be called by the adaptor"
      },
      "deposit(address,uint256,uint256,address,uint256,bool)": {
        "notice": "Deposits amount of tokens into pool ensuring deadline"
      },
      "dev()": {
        "notice": "Dev address"
      },
      "exchangeRate(address)": {
        "notice": "Returns the exchange rate of the LP token"
      },
      "fillPool(address,uint256)": {
        "notice": "Move fund from tip bucket to the pool to keep r* = 1 as error accumulates unit of amount should be in WAD"
      },
      "getTokens()": {
        "notice": "Return list of tokens in the pool"
      },
      "globalEquilCovRatioWithCredit()": {
        "notice": "Calculate the r* and invariant when all credits are settled"
      },
      "haircutRate()": {
        "notice": "Haircut rate"
      },
      "initialize(uint256,uint256)": {
        "notice": "Initializes pool. Dev is set to be the account calling this function."
      },
      "lpDividendRatio()": {
        "notice": "LP dividend ratio : the ratio of haircut that should distribute to LP"
      },
      "maximumNetMintedCredit()": {
        "notice": "the maximum allowed amount of net mint credit. `totalCreditMinted - totalCreditBurned` should be smaller than this value"
      },
      "mintCredit(uint256,address,uint256)": {
        "notice": "In case `completeSwapCreditForTokens` fails, adaptor should mint credit to the respective user"
      },
      "mintFee(address)": {
        "notice": "Send fee collected to the fee beneficiary"
      },
      "mintFeeThreshold()": {
        "notice": "The threshold to mint fee (unit: WAD)"
      },
      "quoteAmountIn(address,address,int256)": {
        "notice": "Returns the minimum input asset amount required to buy the given output asset amount (accounting for fees and slippage)"
      },
      "quotePotentialDeposit(address,uint256)": {
        "notice": "Quotes potential deposit from pool"
      },
      "quotePotentialSwap(address,address,int256)": {
        "notice": "Given an input asset amount and token addresses, calculates the maximum output token amount (accounting for fees and slippage)."
      },
      "quotePotentialWithdraw(address,uint256)": {
        "notice": "Quotes potential withdrawal from pool"
      },
      "quoteSwapCreditForTokens(address,uint256)": {
        "notice": "Read-only functions"
      },
      "removeAsset(address)": {
        "notice": "Removes asset from asset struct"
      },
      "retentionRatio()": {
        "notice": "Retention ratio: the ratio of haircut that should stay in the pool"
      },
      "setAmpFactor(uint256)": {
        "notice": "Changes the pools amplification factor. Can only be set by the contract owner."
      },
      "setDev(address)": {
        "notice": "Changes the contract dev. Can only be set by the contract owner."
      },
      "setFeeTo(address)": {
        "notice": "Changes the fee beneficiary. Can only be set by the contract owner. This value cannot be set to 0 to avoid unsettled fee."
      },
      "setHaircutRate(uint256)": {
        "notice": "Changes the pools haircutRate. Can only be set by the contract owner."
      },
      "setMintFeeThreshold(uint256)": {
        "notice": "Set min fee to mint"
      },
      "swap(address,address,uint256,uint256,address,uint256)": {
        "notice": "Swap fromToken for toToken, ensures deadline and minimumToAmount and sends quoted amount to `to` address"
      },
      "swapCreditForTokens(address,uint256,uint256,address)": {
        "notice": "Swap credit for tokens (same chain)"
      },
      "swapCreditForTokensCrossChain(address,uint256,uint256,uint256,address,uint32)": {
        "notice": "Bridge credit and swap it for `toToken` in the `toChain` Nonce must be non-zero, otherwise wormhole will revert the message"
      },
      "swapTokensForTokensCrossChain(address,address,uint256,uint256,uint256,uint256,address,uint32)": {
        "notice": "Initiate a cross chain swap"
      },
      "withdraw(address,uint256,uint256,address,uint256)": {
        "notice": "Withdraws liquidity amount of asset to `to` address ensuring minimum amount required"
      },
      "withdrawFromOtherAsset(address,address,uint256,uint256,address,uint256)": {
        "notice": "Enables withdrawing liquidity from an asset using LP from a different asset"
      }
    },
    "notice": "Mega Pool is able to handle cross-chain swaps in addition to ordinary swap within its own chain",
    "version": 1
  },
  "storageLayout": {
    "storage": [
      {
        "astId": 130,
        "contract": "contracts/wombat-core/pool/MegaPool.sol:MegaPool",
        "label": "_initialized",
        "offset": 0,
        "slot": "0",
        "type": "t_bool"
      },
      {
        "astId": 133,
        "contract": "contracts/wombat-core/pool/MegaPool.sol:MegaPool",
        "label": "_initializing",
        "offset": 1,
        "slot": "0",
        "type": "t_bool"
      },
      {
        "astId": 651,
        "contract": "contracts/wombat-core/pool/MegaPool.sol:MegaPool",
        "label": "__gap",
        "offset": 0,
        "slot": "1",
        "type": "t_array(t_uint256)50_storage"
      },
      {
        "astId": 10,
        "contract": "contracts/wombat-core/pool/MegaPool.sol:MegaPool",
        "label": "_owner",
        "offset": 0,
        "slot": "51",
        "type": "t_address"
      },
      {
        "astId": 122,
        "contract": "contracts/wombat-core/pool/MegaPool.sol:MegaPool",
        "label": "__gap",
        "offset": 0,
        "slot": "52",
        "type": "t_array(t_uint256)49_storage"
      },
      {
        "astId": 322,
        "contract": "contracts/wombat-core/pool/MegaPool.sol:MegaPool",
        "label": "_status",
        "offset": 0,
        "slot": "101",
        "type": "t_uint256"
      },
      {
        "astId": 366,
        "contract": "contracts/wombat-core/pool/MegaPool.sol:MegaPool",
        "label": "__gap",
        "offset": 0,
        "slot": "102",
        "type": "t_array(t_uint256)49_storage"
      },
      {
        "astId": 218,
        "contract": "contracts/wombat-core/pool/MegaPool.sol:MegaPool",
        "label": "_paused",
        "offset": 0,
        "slot": "151",
        "type": "t_bool"
      },
      {
        "astId": 307,
        "contract": "contracts/wombat-core/pool/MegaPool.sol:MegaPool",
        "label": "__gap",
        "offset": 0,
        "slot": "152",
        "type": "t_array(t_uint256)49_storage"
      },
      {
        "astId": 6665,
        "contract": "contracts/wombat-core/pool/MegaPool.sol:MegaPool",
        "label": "_pausedAssets",
        "offset": 0,
        "slot": "201",
        "type": "t_mapping(t_address,t_bool)"
      },
      {
        "astId": 6807,
        "contract": "contracts/wombat-core/pool/MegaPool.sol:MegaPool",
        "label": "ampFactor",
        "offset": 0,
        "slot": "202",
        "type": "t_uint256"
      },
      {
        "astId": 6810,
        "contract": "contracts/wombat-core/pool/MegaPool.sol:MegaPool",
        "label": "haircutRate",
        "offset": 0,
        "slot": "203",
        "type": "t_uint256"
      },
      {
        "astId": 6813,
        "contract": "contracts/wombat-core/pool/MegaPool.sol:MegaPool",
        "label": "retentionRatio",
        "offset": 0,
        "slot": "204",
        "type": "t_uint256"
      },
      {
        "astId": 6816,
        "contract": "contracts/wombat-core/pool/MegaPool.sol:MegaPool",
        "label": "lpDividendRatio",
        "offset": 0,
        "slot": "205",
        "type": "t_uint256"
      },
      {
        "astId": 6819,
        "contract": "contracts/wombat-core/pool/MegaPool.sol:MegaPool",
        "label": "mintFeeThreshold",
        "offset": 0,
        "slot": "206",
        "type": "t_uint256"
      },
      {
        "astId": 6822,
        "contract": "contracts/wombat-core/pool/MegaPool.sol:MegaPool",
        "label": "dev",
        "offset": 0,
        "slot": "207",
        "type": "t_address"
      },
      {
        "astId": 6824,
        "contract": "contracts/wombat-core/pool/MegaPool.sol:MegaPool",
        "label": "feeTo",
        "offset": 0,
        "slot": "208",
        "type": "t_address"
      },
      {
        "astId": 6826,
        "contract": "contracts/wombat-core/pool/MegaPool.sol:MegaPool",
        "label": "masterWombat",
        "offset": 0,
        "slot": "209",
        "type": "t_address"
      },
      {
        "astId": 6832,
        "contract": "contracts/wombat-core/pool/MegaPool.sol:MegaPool",
        "label": "_feeCollected",
        "offset": 0,
        "slot": "210",
        "type": "t_mapping(t_contract(IAsset)1484,t_uint256)"
      },
      {
        "astId": 6836,
        "contract": "contracts/wombat-core/pool/MegaPool.sol:MegaPool",
        "label": "_assets",
        "offset": 0,
        "slot": "211",
        "type": "t_struct(AssetMap)6794_storage"
      },
      {
        "astId": 6838,
        "contract": "contracts/wombat-core/pool/MegaPool.sol:MegaPool",
        "label": "_used1",
        "offset": 0,
        "slot": "214",
        "type": "t_uint128"
      },
      {
        "astId": 6840,
        "contract": "contracts/wombat-core/pool/MegaPool.sol:MegaPool",
        "label": "_used2",
        "offset": 16,
        "slot": "214",
        "type": "t_uint128"
      },
      {
        "astId": 6844,
        "contract": "contracts/wombat-core/pool/MegaPool.sol:MegaPool",
        "label": "gap",
        "offset": 0,
        "slot": "215",
        "type": "t_array(t_uint256)49_storage"
      },
      {
        "astId": 5315,
        "contract": "contracts/wombat-core/pool/MegaPool.sol:MegaPool",
        "label": "startCovRatio",
        "offset": 0,
        "slot": "264",
        "type": "t_uint128"
      },
      {
        "astId": 5317,
        "contract": "contracts/wombat-core/pool/MegaPool.sol:MegaPool",
        "label": "endCovRatio",
        "offset": 16,
        "slot": "264",
        "type": "t_uint128"
      },
      {
        "astId": 5321,
        "contract": "contracts/wombat-core/pool/MegaPool.sol:MegaPool",
        "label": "gap",
        "offset": 0,
        "slot": "265",
        "type": "t_array(t_uint256)50_storage"
      },
      {
        "astId": 5739,
        "contract": "contracts/wombat-core/pool/MegaPool.sol:MegaPool",
        "label": "adaptor",
        "offset": 0,
        "slot": "315",
        "type": "t_contract(IAdaptor)1395"
      },
      {
        "astId": 5741,
        "contract": "contracts/wombat-core/pool/MegaPool.sol:MegaPool",
        "label": "swapCreditForTokensEnabled",
        "offset": 20,
        "slot": "315",
        "type": "t_bool"
      },
      {
        "astId": 5743,
        "contract": "contracts/wombat-core/pool/MegaPool.sol:MegaPool",
        "label": "swapTokensForCreditEnabled",
        "offset": 21,
        "slot": "315",
        "type": "t_bool"
      },
      {
        "astId": 5745,
        "contract": "contracts/wombat-core/pool/MegaPool.sol:MegaPool",
        "label": "crossChainHaircut",
        "offset": 22,
        "slot": "315",
        "type": "t_uint64"
      },
      {
        "astId": 5747,
        "contract": "contracts/wombat-core/pool/MegaPool.sol:MegaPool",
        "label": "totalCreditMinted",
        "offset": 0,
        "slot": "316",
        "type": "t_uint128"
      },
      {
        "astId": 5749,
        "contract": "contracts/wombat-core/pool/MegaPool.sol:MegaPool",
        "label": "totalCreditBurned",
        "offset": 16,
        "slot": "316",
        "type": "t_uint128"
      },
      {
        "astId": 5752,
        "contract": "contracts/wombat-core/pool/MegaPool.sol:MegaPool",
        "label": "maximumNetMintedCredit",
        "offset": 0,
        "slot": "317",
        "type": "t_uint128"
      },
      {
        "astId": 5754,
        "contract": "contracts/wombat-core/pool/MegaPool.sol:MegaPool",
        "label": "maximumNetBurnedCredit",
        "offset": 16,
        "slot": "317",
        "type": "t_uint128"
      },
      {
        "astId": 5758,
        "contract": "contracts/wombat-core/pool/MegaPool.sol:MegaPool",
        "label": "creditBalance",
        "offset": 0,
        "slot": "318",
        "type": "t_mapping(t_address,t_uint256)"
      },
      {
        "astId": 5762,
        "contract": "contracts/wombat-core/pool/MegaPool.sol:MegaPool",
        "label": "_gap",
        "offset": 0,
        "slot": "319",
        "type": "t_array(t_uint256)50_storage"
      }
    ],
    "types": {
      "t_address": {
        "encoding": "inplace",
        "label": "address",
        "numberOfBytes": "20"
      },
      "t_array(t_address)dyn_storage": {
        "base": "t_address",
        "encoding": "dynamic_array",
        "label": "address[]",
        "numberOfBytes": "32"
      },
      "t_array(t_uint256)49_storage": {
        "base": "t_uint256",
        "encoding": "inplace",
        "label": "uint256[49]",
        "numberOfBytes": "1568"
      },
      "t_array(t_uint256)50_storage": {
        "base": "t_uint256",
        "encoding": "inplace",
        "label": "uint256[50]",
        "numberOfBytes": "1600"
      },
      "t_bool": {
        "encoding": "inplace",
        "label": "bool",
        "numberOfBytes": "1"
      },
      "t_contract(IAdaptor)1395": {
        "encoding": "inplace",
        "label": "contract IAdaptor",
        "numberOfBytes": "20"
      },
      "t_contract(IAsset)1484": {
        "encoding": "inplace",
        "label": "contract IAsset",
        "numberOfBytes": "20"
      },
      "t_mapping(t_address,t_bool)": {
        "encoding": "mapping",
        "key": "t_address",
        "label": "mapping(address => bool)",
        "numberOfBytes": "32",
        "value": "t_bool"
      },
      "t_mapping(t_address,t_contract(IAsset)1484)": {
        "encoding": "mapping",
        "key": "t_address",
        "label": "mapping(address => contract IAsset)",
        "numberOfBytes": "32",
        "value": "t_contract(IAsset)1484"
      },
      "t_mapping(t_address,t_uint256)": {
        "encoding": "mapping",
        "key": "t_address",
        "label": "mapping(address => uint256)",
        "numberOfBytes": "32",
        "value": "t_uint256"
      },
      "t_mapping(t_contract(IAsset)1484,t_uint256)": {
        "encoding": "mapping",
        "key": "t_contract(IAsset)1484",
        "label": "mapping(contract IAsset => uint256)",
        "numberOfBytes": "32",
        "value": "t_uint256"
      },
      "t_struct(AssetMap)6794_storage": {
        "encoding": "inplace",
        "label": "struct PoolV2.AssetMap",
        "members": [
          {
            "astId": 6784,
            "contract": "contracts/wombat-core/pool/MegaPool.sol:MegaPool",
            "label": "keys",
            "offset": 0,
            "slot": "0",
            "type": "t_array(t_address)dyn_storage"
          },
          {
            "astId": 6789,
            "contract": "contracts/wombat-core/pool/MegaPool.sol:MegaPool",
            "label": "values",
            "offset": 0,
            "slot": "1",
            "type": "t_mapping(t_address,t_contract(IAsset)1484)"
          },
          {
            "astId": 6793,
            "contract": "contracts/wombat-core/pool/MegaPool.sol:MegaPool",
            "label": "indexOf",
            "offset": 0,
            "slot": "2",
            "type": "t_mapping(t_address,t_uint256)"
          }
        ],
        "numberOfBytes": "96"
      },
      "t_uint128": {
        "encoding": "inplace",
        "label": "uint128",
        "numberOfBytes": "16"
      },
      "t_uint256": {
        "encoding": "inplace",
        "label": "uint256",
        "numberOfBytes": "32"
      },
      "t_uint64": {
        "encoding": "inplace",
        "label": "uint64",
        "numberOfBytes": "8"
      }
    }
  }
}