{
  "address": "0x54C76c9a1ed61546F3D5d7FD1451dC24B6f0AC2C",
  "abi": [
    {
      "anonymous": false,
      "inputs": [
        {
          "indexed": true,
          "internalType": "address",
          "name": "token",
          "type": "address"
        },
        {
          "indexed": true,
          "internalType": "address",
          "name": "asset",
          "type": "address"
        }
      ],
      "name": "AssetAdded",
      "type": "event"
    },
    {
      "anonymous": false,
      "inputs": [
        {
          "indexed": true,
          "internalType": "address",
          "name": "sender",
          "type": "address"
        },
        {
          "indexed": false,
          "internalType": "address",
          "name": "token",
          "type": "address"
        },
        {
          "indexed": false,
          "internalType": "uint256",
          "name": "amount",
          "type": "uint256"
        },
        {
          "indexed": false,
          "internalType": "uint256",
          "name": "liquidity",
          "type": "uint256"
        },
        {
          "indexed": true,
          "internalType": "address",
          "name": "to",
          "type": "address"
        }
      ],
      "name": "Deposit",
      "type": "event"
    },
    {
      "anonymous": false,
      "inputs": [
        {
          "indexed": true,
          "internalType": "address",
          "name": "previousOwner",
          "type": "address"
        },
        {
          "indexed": true,
          "internalType": "address",
          "name": "newOwner",
          "type": "address"
        }
      ],
      "name": "OwnershipTransferred",
      "type": "event"
    },
    {
      "anonymous": false,
      "inputs": [
        {
          "indexed": false,
          "internalType": "address",
          "name": "account",
          "type": "address"
        }
      ],
      "name": "Paused",
      "type": "event"
    },
    {
      "anonymous": false,
      "inputs": [
        {
          "indexed": true,
          "internalType": "address",
          "name": "sender",
          "type": "address"
        },
        {
          "indexed": false,
          "internalType": "address",
          "name": "fromToken",
          "type": "address"
        },
        {
          "indexed": false,
          "internalType": "address",
          "name": "toToken",
          "type": "address"
        },
        {
          "indexed": false,
          "internalType": "uint256",
          "name": "fromAmount",
          "type": "uint256"
        },
        {
          "indexed": false,
          "internalType": "uint256",
          "name": "toAmount",
          "type": "uint256"
        },
        {
          "indexed": true,
          "internalType": "address",
          "name": "to",
          "type": "address"
        }
      ],
      "name": "Swap",
      "type": "event"
    },
    {
      "anonymous": false,
      "inputs": [
        {
          "indexed": false,
          "internalType": "address",
          "name": "account",
          "type": "address"
        }
      ],
      "name": "Unpaused",
      "type": "event"
    },
    {
      "anonymous": false,
      "inputs": [
        {
          "indexed": true,
          "internalType": "address",
          "name": "sender",
          "type": "address"
        },
        {
          "indexed": false,
          "internalType": "address",
          "name": "token",
          "type": "address"
        },
        {
          "indexed": false,
          "internalType": "uint256",
          "name": "amount",
          "type": "uint256"
        },
        {
          "indexed": false,
          "internalType": "uint256",
          "name": "liquidity",
          "type": "uint256"
        },
        {
          "indexed": true,
          "internalType": "address",
          "name": "to",
          "type": "address"
        }
      ],
      "name": "Withdraw",
      "type": "event"
    },
    {
      "inputs": [
        {
          "internalType": "address",
          "name": "token",
          "type": "address"
        },
        {
          "internalType": "address",
          "name": "asset",
          "type": "address"
        }
      ],
      "name": "addAsset",
      "outputs": [],
      "stateMutability": "nonpayable",
      "type": "function"
    },
    {
      "inputs": [
        {
          "internalType": "address",
          "name": "token",
          "type": "address"
        }
      ],
      "name": "assetOf",
      "outputs": [
        {
          "internalType": "address",
          "name": "",
          "type": "address"
        }
      ],
      "stateMutability": "view",
      "type": "function"
    },
    {
      "inputs": [
        {
          "internalType": "address",
          "name": "token",
          "type": "address"
        },
        {
          "internalType": "uint256",
          "name": "amount",
          "type": "uint256"
        },
        {
          "internalType": "address",
          "name": "to",
          "type": "address"
        },
        {
          "internalType": "uint256",
          "name": "deadline",
          "type": "uint256"
        }
      ],
      "name": "deposit",
      "outputs": [
        {
          "internalType": "uint256",
          "name": "liquidity",
          "type": "uint256"
        }
      ],
      "stateMutability": "nonpayable",
      "type": "function"
    },
    {
      "inputs": [],
      "name": "getC1",
      "outputs": [
        {
          "internalType": "uint256",
          "name": "",
          "type": "uint256"
        }
      ],
      "stateMutability": "view",
      "type": "function"
    },
    {
      "inputs": [],
      "name": "getDev",
      "outputs": [
        {
          "internalType": "address",
          "name": "",
          "type": "address"
        }
      ],
      "stateMutability": "view",
      "type": "function"
    },
    {
      "inputs": [],
      "name": "getHaircutRate",
      "outputs": [
        {
          "internalType": "uint256",
          "name": "",
          "type": "uint256"
        }
      ],
      "stateMutability": "view",
      "type": "function"
    },
    {
      "inputs": [],
      "name": "getPriceOracle",
      "outputs": [
        {
          "internalType": "address",
          "name": "",
          "type": "address"
        }
      ],
      "stateMutability": "view",
      "type": "function"
    },
    {
      "inputs": [],
      "name": "getRetentionRatio",
      "outputs": [
        {
          "internalType": "uint256",
          "name": "",
          "type": "uint256"
        }
      ],
      "stateMutability": "view",
      "type": "function"
    },
    {
      "inputs": [],
      "name": "getSlippageParamK",
      "outputs": [
        {
          "internalType": "uint256",
          "name": "",
          "type": "uint256"
        }
      ],
      "stateMutability": "view",
      "type": "function"
    },
    {
      "inputs": [],
      "name": "getSlippageParamN",
      "outputs": [
        {
          "internalType": "uint256",
          "name": "",
          "type": "uint256"
        }
      ],
      "stateMutability": "view",
      "type": "function"
    },
    {
      "inputs": [],
      "name": "getWETH",
      "outputs": [
        {
          "internalType": "address",
          "name": "",
          "type": "address"
        }
      ],
      "stateMutability": "view",
      "type": "function"
    },
    {
      "inputs": [],
      "name": "getWETHForwarder",
      "outputs": [
        {
          "internalType": "address",
          "name": "",
          "type": "address"
        }
      ],
      "stateMutability": "view",
      "type": "function"
    },
    {
      "inputs": [],
      "name": "getXThreshold",
      "outputs": [
        {
          "internalType": "uint256",
          "name": "",
          "type": "uint256"
        }
      ],
      "stateMutability": "view",
      "type": "function"
    },
    {
      "inputs": [
        {
          "internalType": "address",
          "name": "weth_",
          "type": "address"
        }
      ],
      "name": "initialize",
      "outputs": [],
      "stateMutability": "nonpayable",
      "type": "function"
    },
    {
      "inputs": [],
      "name": "owner",
      "outputs": [
        {
          "internalType": "address",
          "name": "",
          "type": "address"
        }
      ],
      "stateMutability": "view",
      "type": "function"
    },
    {
      "inputs": [],
      "name": "pause",
      "outputs": [],
      "stateMutability": "nonpayable",
      "type": "function"
    },
    {
      "inputs": [],
      "name": "paused",
      "outputs": [
        {
          "internalType": "bool",
          "name": "",
          "type": "bool"
        }
      ],
      "stateMutability": "view",
      "type": "function"
    },
    {
      "inputs": [
        {
          "internalType": "address",
          "name": "fromToken",
          "type": "address"
        },
        {
          "internalType": "address",
          "name": "toToken",
          "type": "address"
        },
        {
          "internalType": "uint256",
          "name": "fromAmount",
          "type": "uint256"
        }
      ],
      "name": "quotePotentialSwap",
      "outputs": [
        {
          "internalType": "uint256",
          "name": "potentialOutcome",
          "type": "uint256"
        },
        {
          "internalType": "uint256",
          "name": "haircut",
          "type": "uint256"
        }
      ],
      "stateMutability": "view",
      "type": "function"
    },
    {
      "inputs": [
        {
          "internalType": "address",
          "name": "token",
          "type": "address"
        },
        {
          "internalType": "uint256",
          "name": "liquidity",
          "type": "uint256"
        }
      ],
      "name": "quotePotentialWithdraw",
      "outputs": [
        {
          "internalType": "uint256",
          "name": "amount",
          "type": "uint256"
        },
        {
          "internalType": "uint256",
          "name": "fee",
          "type": "uint256"
        },
        {
          "internalType": "bool",
          "name": "enoughCash",
          "type": "bool"
        }
      ],
      "stateMutability": "view",
      "type": "function"
    },
    {
      "inputs": [],
      "name": "renounceOwnership",
      "outputs": [],
      "stateMutability": "nonpayable",
      "type": "function"
    },
    {
      "inputs": [
        {
          "internalType": "uint256",
          "name": "c1_",
          "type": "uint256"
        }
      ],
      "name": "setC1",
      "outputs": [],
      "stateMutability": "nonpayable",
      "type": "function"
    },
    {
      "inputs": [
        {
          "internalType": "address",
          "name": "dev",
          "type": "address"
        }
      ],
      "name": "setDev",
      "outputs": [],
      "stateMutability": "nonpayable",
      "type": "function"
    },
    {
      "inputs": [
        {
          "internalType": "uint256",
          "name": "haircutRate_",
          "type": "uint256"
        }
      ],
      "name": "setHaircutRate",
      "outputs": [],
      "stateMutability": "nonpayable",
      "type": "function"
    },
    {
      "inputs": [
        {
          "internalType": "address",
          "name": "priceOracle",
          "type": "address"
        }
      ],
      "name": "setPriceOracle",
      "outputs": [],
      "stateMutability": "nonpayable",
      "type": "function"
    },
    {
      "inputs": [
        {
          "internalType": "uint256",
          "name": "retentionRatio_",
          "type": "uint256"
        }
      ],
      "name": "setRetentionRatio",
      "outputs": [],
      "stateMutability": "nonpayable",
      "type": "function"
    },
    {
      "inputs": [
        {
          "internalType": "uint256",
          "name": "k_",
          "type": "uint256"
        }
      ],
      "name": "setSlippageParamK",
      "outputs": [],
      "stateMutability": "nonpayable",
      "type": "function"
    },
    {
      "inputs": [
        {
          "internalType": "uint256",
          "name": "n_",
          "type": "uint256"
        }
      ],
      "name": "setSlippageParamN",
      "outputs": [],
      "stateMutability": "nonpayable",
      "type": "function"
    },
    {
      "inputs": [
        {
          "internalType": "address",
          "name": "weth_",
          "type": "address"
        }
      ],
      "name": "setWETH",
      "outputs": [],
      "stateMutability": "nonpayable",
      "type": "function"
    },
    {
      "inputs": [
        {
          "internalType": "address payable",
          "name": "wethForwarder",
          "type": "address"
        }
      ],
      "name": "setWETHForwarder",
      "outputs": [],
      "stateMutability": "nonpayable",
      "type": "function"
    },
    {
      "inputs": [
        {
          "internalType": "uint256",
          "name": "xThreshold_",
          "type": "uint256"
        }
      ],
      "name": "setXThreshold",
      "outputs": [],
      "stateMutability": "nonpayable",
      "type": "function"
    },
    {
      "inputs": [
        {
          "internalType": "address",
          "name": "fromToken",
          "type": "address"
        },
        {
          "internalType": "address",
          "name": "toToken",
          "type": "address"
        },
        {
          "internalType": "uint256",
          "name": "fromAmount",
          "type": "uint256"
        },
        {
          "internalType": "uint256",
          "name": "minimumToAmount",
          "type": "uint256"
        },
        {
          "internalType": "address",
          "name": "to",
          "type": "address"
        },
        {
          "internalType": "uint256",
          "name": "deadline",
          "type": "uint256"
        }
      ],
      "name": "swap",
      "outputs": [],
      "stateMutability": "nonpayable",
      "type": "function"
    },
    {
      "inputs": [
        {
          "internalType": "address",
          "name": "newOwner",
          "type": "address"
        }
      ],
      "name": "transferOwnership",
      "outputs": [],
      "stateMutability": "nonpayable",
      "type": "function"
    },
    {
      "inputs": [],
      "name": "unpause",
      "outputs": [],
      "stateMutability": "nonpayable",
      "type": "function"
    },
    {
      "inputs": [
        {
          "internalType": "address",
          "name": "token",
          "type": "address"
        },
        {
          "internalType": "uint256",
          "name": "liquidity",
          "type": "uint256"
        },
        {
          "internalType": "uint256",
          "name": "minimumAmount",
          "type": "uint256"
        },
        {
          "internalType": "address",
          "name": "to",
          "type": "address"
        },
        {
          "internalType": "uint256",
          "name": "deadline",
          "type": "uint256"
        }
      ],
      "name": "withdraw",
      "outputs": [
        {
          "internalType": "uint256",
          "name": "amount",
          "type": "uint256"
        }
      ],
      "stateMutability": "nonpayable",
      "type": "function"
    }
  ],
  "transactionHash": "0xa79e149908edf1966a588765f818ca3666f69af42198beeb8f6a2a39ae229f18",
  "args": [],
  "solcInputHash": "90db8cc53bd2911a81fe521a3239f9b0",
  "bytecode": "0x6080604052652d79883d200060c955600660ca55670514e25460b6034660cb5567045b0b23c09c02cf60cc55660e35fa931a000060cd55670de0b6b3a764000060ce5534801561004e57600080fd5b506148d68061005e6000396000f3fe608060405234801561001057600080fd5b50600436106102265760003560e01c80637fdd5a8e1161012a578063b2b94784116100bd578063d477f05f1161008c578063f2fde38b11610071578063f2fde38b1461046b578063f57e84d51461047e578063fca513a81461049157600080fd5b8063d477f05f14610445578063da4899971461045857600080fd5b8063b2b9478414610406578063c4d66de814610419578063cae5f11e1461042c578063cb733d7a1461043d57600080fd5b806390d25074116100f957806390d25074146103c55780639908fc8b146103d85780639b2d8a4f146103eb578063a76f54d2146103fe57600080fd5b80637fdd5a8e146103745780638456cb591461037c5780638da5cb5b14610384578063907448ed1461039557600080fd5b806355af008a116101bd5780636772fa781161018c57806371f962111161017157806371f96211146103515780637727c655146103645780637a1c36d11461036c57600080fd5b80636772fa7814610336578063715018a61461034957600080fd5b806355af008a146102f257806357eab9b2146102fa5780635b769f3c1461030d5780635c975abb1461032057600080fd5b806344db964a116101f957806344db964a146102a85780634ddc439a146102bb57806350d94966146102cc578063530e784f146102df57600080fd5b806309a5fca31461022b57806309bb9267146102515780633f4ba83a1461027657806343c2e2f514610280575b600080fd5b61023e61023936600461450d565b6104a2565b6040519081526020015b60405180910390f35b60cf546001600160a01b03165b6040516001600160a01b039091168152602001610248565b61027e61071d565b005b61029361028e3660046143f1565b6107de565b60408051928352602083019190915201610248565b61027e6102b6366004614581565b610b32565b60d1546001600160a01b031661025e565b61027e6102da366004614581565b610ba6565b61027e6102ed36600461437e565b610c05565b61023e610cf1565b61027e61030836600461437e565b610d55565b61027e61031b36600461437e565b610e41565b60975460ff166040519015158152602001610248565b61027e610344366004614581565b610f51565b61027e610fb0565b61025e61035f36600461437e565b611016565b61023e611027565b61023e61108b565b61023e6110ef565b61027e611153565b6033546001600160a01b031661025e565b6103a86103a3366004614499565b61120d565b604080519384526020840192909252151590820152606001610248565b61023e6103d33660046144c5565b611380565b61027e6103e6366004614432565b61160b565b61027e6103f9366004614581565b611d08565b61023e611d7c565b61027e610414366004614581565b611de0565b61027e61042736600461437e565b611e3f565b60d0546001600160a01b031661025e565b61023e611ff4565b61027e61045336600461437e565b612058565b61027e6104663660046143b8565b612142565b61027e61047936600461437e565b61237c565b61027e61048c366004614581565b61245e565b60d2546001600160a01b031661025e565b600081428110156104fa5760405162461bcd60e51b815260206004820152601160248201527f506c6174797075733a204558504952454400000000000000000000000000000060448201526064015b60405180910390fd5b6002606554141561054d5760405162461bcd60e51b815260206004820152601f60248201527f5265656e7472616e637947756172643a207265656e7472616e742063616c6c0060448201526064016104f1565b600260655560975460ff16156105a55760405162461bcd60e51b815260206004820152601060248201527f5061757361626c653a207061757365640000000000000000000000000000000060448201526064016104f1565b600086116105f55760405162461bcd60e51b815260206004820152601b60248201527f506c6174797075733a205a45524f5f41535345545f414d4f554e54000000000060448201526064016104f1565b6001600160a01b03871661064b5760405162461bcd60e51b815260206004820152601660248201527f506c6174797075733a205a45524f5f414444524553530000000000000000000060448201526064016104f1565b6001600160a01b0384166106a15760405162461bcd60e51b815260206004820152601660248201527f506c6174797075733a205a45524f5f414444524553530000000000000000000060448201526064016104f1565b60006106ac886124d2565b90506106ba8188888861255a565b604080516001600160a01b038b81168252602082018490529181018a905291945086169033907ffb80d861da582b723be2d19507ce3e03851820c464abea89156ec77e089b1ad99060600160405180910390a35050600160655595945050505050565b60cf546001600160a01b031633146107775760405162461bcd60e51b815260206004820152601360248201527f506c6174797075733a20464f5242494444454e0000000000000000000000000060448201526064016104f1565b600260655414156107ca5760405162461bcd60e51b815260206004820152601f60248201527f5265656e7472616e637947756172643a207265656e7472616e742063616c6c0060448201526064016104f1565b60026065556107d76127b7565b6001606555565b6000806107ed60975460ff1690565b1561083a5760405162461bcd60e51b815260206004820152601060248201527f5061757361626c653a207061757365640000000000000000000000000000000060448201526064016104f1565b6001600160a01b0385166108905760405162461bcd60e51b815260206004820152601660248201527f506c6174797075733a205a45524f5f414444524553530000000000000000000060448201526064016104f1565b6001600160a01b0384166108e65760405162461bcd60e51b815260206004820152601660248201527f506c6174797075733a205a45524f5f414444524553530000000000000000000060448201526064016104f1565b836001600160a01b0316856001600160a01b031614156109485760405162461bcd60e51b815260206004820152601660248201527f506c6174797075733a2053414d455f414444524553530000000000000000000060448201526064016104f1565b600083116109985760405162461bcd60e51b815260206004820152601a60248201527f506c6174797075733a205a45524f5f46524f4d5f414d4f554e5400000000000060448201526064016104f1565b60006109a3866124d2565b905060006109b0866124d2565b9050816001600160a01b0316637e1317fa6040518163ffffffff1660e01b815260040160206040518083038186803b1580156109eb57600080fd5b505afa1580156109ff573d6000803e3d6000fd5b505050506040513d601f19601f82011682018060405250810190610a23919061439b565b6001600160a01b0316816001600160a01b0316637e1317fa6040518163ffffffff1660e01b815260040160206040518083038186803b158015610a6557600080fd5b505afa158015610a79573d6000803e3d6000fd5b505050506040513d601f19601f82011682018060405250810190610a9d919061439b565b6001600160a01b031614610b195760405162461bcd60e51b815260206004820152602660248201527f506c6174797075733a20494e544552504f4f4c5f535741505f4e4f545f53555060448201527f504f52544544000000000000000000000000000000000000000000000000000060648201526084016104f1565b610b24828287612871565b909890975095505050505050565b6033546001600160a01b03163314610b8c5760405162461bcd60e51b815260206004820181905260248201527f4f776e61626c653a2063616c6c6572206973206e6f7420746865206f776e657260448201526064016104f1565b670de0b6b3a7640000811115610ba157600080fd5b60ce55565b6033546001600160a01b03163314610c005760405162461bcd60e51b815260206004820181905260248201527f4f776e61626c653a2063616c6c6572206973206e6f7420746865206f776e657260448201526064016104f1565b60cb55565b6033546001600160a01b03163314610c5f5760405162461bcd60e51b815260206004820181905260248201527f4f776e61626c653a2063616c6c6572206973206e6f7420746865206f776e657260448201526064016104f1565b60026065541415610cb25760405162461bcd60e51b815260206004820152601f60248201527f5265656e7472616e637947756172643a207265656e7472616e742063616c6c0060448201526064016104f1565b60d280547fffffffffffffffffffffffff0000000000000000000000000000000000000000166001600160a01b03929092169190911790556001606555565b6033546000906001600160a01b03163314610d4e5760405162461bcd60e51b815260206004820181905260248201527f4f776e61626c653a2063616c6c6572206973206e6f7420746865206f776e657260448201526064016104f1565b5060c95490565b6033546001600160a01b03163314610daf5760405162461bcd60e51b815260206004820181905260248201527f4f776e61626c653a2063616c6c6572206973206e6f7420746865206f776e657260448201526064016104f1565b60026065541415610e025760405162461bcd60e51b815260206004820152601f60248201527f5265656e7472616e637947756172643a207265656e7472616e742063616c6c0060448201526064016104f1565b60d180547fffffffffffffffffffffffff0000000000000000000000000000000000000000166001600160a01b03929092169190911790556001606555565b6033546001600160a01b03163314610e9b5760405162461bcd60e51b815260206004820181905260248201527f4f776e61626c653a2063616c6c6572206973206e6f7420746865206f776e657260448201526064016104f1565b6001600160a01b038116610f175760405162461bcd60e51b815260206004820152602560248201527f506c6174797075733a205745544820616464726573732063616e6e6f7420626560448201527f207a65726f00000000000000000000000000000000000000000000000000000060648201526084016104f1565b60d080547fffffffffffffffffffffffff0000000000000000000000000000000000000000166001600160a01b0392909216919091179055565b6033546001600160a01b03163314610fab5760405162461bcd60e51b815260206004820181905260248201527f4f776e61626c653a2063616c6c6572206973206e6f7420746865206f776e657260448201526064016104f1565b60cc55565b6033546001600160a01b0316331461100a5760405162461bcd60e51b815260206004820181905260248201527f4f776e61626c653a2063616c6c6572206973206e6f7420746865206f776e657260448201526064016104f1565b6110146000612b80565b565b6000611021826124d2565b92915050565b6033546000906001600160a01b031633146110845760405162461bcd60e51b815260206004820181905260248201527f4f776e61626c653a2063616c6c6572206973206e6f7420746865206f776e657260448201526064016104f1565b5060ca5490565b6033546000906001600160a01b031633146110e85760405162461bcd60e51b815260206004820181905260248201527f4f776e61626c653a2063616c6c6572206973206e6f7420746865206f776e657260448201526064016104f1565b5060cc5490565b6033546000906001600160a01b0316331461114c5760405162461bcd60e51b815260206004820181905260248201527f4f776e61626c653a2063616c6c6572206973206e6f7420746865206f776e657260448201526064016104f1565b5060cd5490565b60cf546001600160a01b031633146111ad5760405162461bcd60e51b815260206004820152601360248201527f506c6174797075733a20464f5242494444454e0000000000000000000000000060448201526064016104f1565b600260655414156112005760405162461bcd60e51b815260206004820152601f60248201527f5265656e7472616e637947756172643a207265656e7472616e742063616c6c0060448201526064016104f1565b60026065556107d7612bea565b600080600061121e60975460ff1690565b1561126b5760405162461bcd60e51b815260206004820152601060248201527f5061757361626c653a207061757365640000000000000000000000000000000060448201526064016104f1565b6001600160a01b0385166112c15760405162461bcd60e51b815260206004820152601660248201527f506c6174797075733a205a45524f5f414444524553530000000000000000000060448201526064016104f1565b600084116113375760405162461bcd60e51b815260206004820152602d60248201527f506c6174797075733a206c6971756964697479206d757374206265206772656160448201527f746572207468616e207a65726f0000000000000000000000000000000000000060648201526084016104f1565b6000611342866124d2565b905060006113508287612c90565b919650909450905061136284826147d6565b8510156113725760009250611377565b600192505b50509250925092565b600081428110156113d35760405162461bcd60e51b815260206004820152601160248201527f506c6174797075733a204558504952454400000000000000000000000000000060448201526064016104f1565b600260655414156114265760405162461bcd60e51b815260206004820152601f60248201527f5265656e7472616e637947756172643a207265656e7472616e742063616c6c0060448201526064016104f1565b600260655560975460ff161561147e5760405162461bcd60e51b815260206004820152601060248201527f5061757361626c653a207061757365640000000000000000000000000000000060448201526064016104f1565b600085116114ce5760405162461bcd60e51b815260206004820152601560248201527f506c6174797075733a205a45524f5f414d4f554e54000000000000000000000060448201526064016104f1565b6001600160a01b0386166115245760405162461bcd60e51b815260206004820152601660248201527f506c6174797075733a205a45524f5f414444524553530000000000000000000060448201526064016104f1565b6001600160a01b03841661157a5760405162461bcd60e51b815260206004820152601660248201527f506c6174797075733a205a45524f5f414444524553530000000000000000000060448201526064016104f1565b856000611586826124d2565b905061159d6001600160a01b03831633838a61301f565b6115a88188886130ad565b604080516001600160a01b038b81168252602082018b905291810183905291955087169033907ff5dd9317b9e63ac316ce44acc85f670b54b339cfa3e9076e1dd55065b922314b9060600160405180910390a35050600160655550949350505050565b804281101561165c5760405162461bcd60e51b815260206004820152601160248201527f506c6174797075733a204558504952454400000000000000000000000000000060448201526064016104f1565b600260655414156116af5760405162461bcd60e51b815260206004820152601f60248201527f5265656e7472616e637947756172643a207265656e7472616e742063616c6c0060448201526064016104f1565b600260655560975460ff16156117075760405162461bcd60e51b815260206004820152601060248201527f5061757361626c653a207061757365640000000000000000000000000000000060448201526064016104f1565b6001600160a01b03871661175d5760405162461bcd60e51b815260206004820152601660248201527f506c6174797075733a205a45524f5f414444524553530000000000000000000060448201526064016104f1565b6001600160a01b0386166117b35760405162461bcd60e51b815260206004820152601660248201527f506c6174797075733a205a45524f5f414444524553530000000000000000000060448201526064016104f1565b856001600160a01b0316876001600160a01b031614156118155760405162461bcd60e51b815260206004820152601660248201527f506c6174797075733a2053414d455f414444524553530000000000000000000060448201526064016104f1565b600085116118655760405162461bcd60e51b815260206004820152601a60248201527f506c6174797075733a205a45524f5f46524f4d5f414d4f554e5400000000000060448201526064016104f1565b6001600160a01b0383166118bb5760405162461bcd60e51b815260206004820152601660248201527f506c6174797075733a205a45524f5f414444524553530000000000000000000060448201526064016104f1565b8660006118c7826124d2565b905060006118d4896124d2565b9050816001600160a01b0316637e1317fa6040518163ffffffff1660e01b815260040160206040518083038186803b15801561190f57600080fd5b505afa158015611923573d6000803e3d6000fd5b505050506040513d601f19601f82011682018060405250810190611947919061439b565b6001600160a01b0316816001600160a01b0316637e1317fa6040518163ffffffff1660e01b815260040160206040518083038186803b15801561198957600080fd5b505afa15801561199d573d6000803e3d6000fd5b505050506040513d601f19601f820116820180604052508101906119c1919061439b565b6001600160a01b031614611a3d5760405162461bcd60e51b815260206004820152602660248201527f506c6174797075733a20494e544552504f4f4c5f535741505f4e4f545f53555060448201527f504f52544544000000000000000000000000000000000000000000000000000060648201526084016104f1565b600080611a4b84848c612871565b9150915081891115611a9f5760405162461bcd60e51b815260206004820152601860248201527f506c6174797075733a20414d4f554e545f544f4f5f4c4f57000000000000000060448201526064016104f1565b611ab46001600160a01b03861633868d61301f565b6040517f16c9e7a0000000000000000000000000000000000000000000000000000000008152600481018b90526001600160a01b038516906316c9e7a090602401600060405180830381600087803b158015611b0f57600080fd5b505af1158015611b23573d6000803e3d6000fd5b50506040517f9f9ef988000000000000000000000000000000000000000000000000000000008152600481018590526001600160a01b0386169250639f9ef9889150602401600060405180830381600087803b158015611b8257600080fd5b505af1158015611b96573d6000803e3d6000fd5b50505050826001600160a01b031663a0f0f604611bb58360ce54613520565b6040518263ffffffff1660e01b8152600401611bd391815260200190565b600060405180830381600087803b158015611bed57600080fd5b505af1158015611c01573d6000803e3d6000fd5b50506040517f9e79eaa50000000000000000000000000000000000000000000000000000000081526001600160a01b038b811660048301526024820186905286169250639e79eaa59150604401600060405180830381600087803b158015611c6857600080fd5b505af1158015611c7c573d6000803e3d6000fd5b50505050876001600160a01b0316336001600160a01b03167f54787c404bb33c88e86f4baf88183a3b0141d0a848e6a9f7a13b66ae3a9b73d18e8e8e87604051611ced94939291906001600160a01b0394851681529290931660208301526040820152606081019190915260800190565b60405180910390a35050600160655550505050505050505050565b6033546001600160a01b03163314611d625760405162461bcd60e51b815260206004820181905260248201527f4f776e61626c653a2063616c6c6572206973206e6f7420746865206f776e657260448201526064016104f1565b670de0b6b3a7640000811115611d7757600080fd5b60c955565b6033546000906001600160a01b03163314611dd95760405162461bcd60e51b815260206004820181905260248201527f4f776e61626c653a2063616c6c6572206973206e6f7420746865206f776e657260448201526064016104f1565b5060cb5490565b6033546001600160a01b03163314611e3a5760405162461bcd60e51b815260206004820181905260248201527f4f776e61626c653a2063616c6c6572206973206e6f7420746865206f776e657260448201526064016104f1565b60ca55565b600054610100900460ff1680611e58575060005460ff16155b611eca5760405162461bcd60e51b815260206004820152602e60248201527f496e697469616c697a61626c653a20636f6e747261637420697320616c72656160448201527f647920696e697469616c697a656400000000000000000000000000000000000060648201526084016104f1565b600054610100900460ff16158015611eec576000805461ffff19166101011790555b6001600160a01b038216611f685760405162461bcd60e51b815260206004820152602560248201527f506c6174797075733a205745544820616464726573732063616e6e6f7420626560448201527f207a65726f00000000000000000000000000000000000000000000000000000060648201526084016104f1565b611f70613545565b611f78613633565b611f80613716565b60cf8054337fffffffffffffffffffffffff00000000000000000000000000000000000000009182161790915560d080549091166001600160a01b0384161790558015611ff057600080547fffffffffffffffffffffffffffffffffffffffffffffffffffffffffffff00ff1690555b5050565b6033546000906001600160a01b031633146120515760405162461bcd60e51b815260206004820181905260248201527f4f776e61626c653a2063616c6c6572206973206e6f7420746865206f776e657260448201526064016104f1565b5060ce5490565b6033546001600160a01b031633146120b25760405162461bcd60e51b815260206004820181905260248201527f4f776e61626c653a2063616c6c6572206973206e6f7420746865206f776e657260448201526064016104f1565b6001600160a01b0381166121085760405162461bcd60e51b815260206004820181905260248201527f506c6174797075733a20616464726573732063616e6e6f74206265207a65726f60448201526064016104f1565b60cf80547fffffffffffffffffffffffff0000000000000000000000000000000000000000166001600160a01b0392909216919091179055565b6033546001600160a01b0316331461219c5760405162461bcd60e51b815260206004820181905260248201527f4f776e61626c653a2063616c6c6572206973206e6f7420746865206f776e657260448201526064016104f1565b600260655414156121ef5760405162461bcd60e51b815260206004820152601f60248201527f5265656e7472616e637947756172643a207265656e7472616e742063616c6c0060448201526064016104f1565b60026065556001600160a01b03821661224a5760405162461bcd60e51b815260206004820152601660248201527f506c6174797075733a205a45524f5f414444524553530000000000000000000060448201526064016104f1565b6001600160a01b0381166122a05760405162461bcd60e51b815260206004820152601660248201527f506c6174797075733a205a45524f5f414444524553530000000000000000000060448201526064016104f1565b6001600160a01b03828116600090815260d3602052604090205416156123085760405162461bcd60e51b815260206004820152601660248201527f506c6174797075733a2041535345545f4558495354530000000000000000000060448201526064016104f1565b6001600160a01b03828116600081815260d3602052604080822080547fffffffffffffffffffffffff0000000000000000000000000000000000000000169486169485179055517f0bb5715f0f217c2fe9a0c877ea87d474380c641102f3440ee2a4c8b9d97909189190a350506001606555565b6033546001600160a01b031633146123d65760405162461bcd60e51b815260206004820181905260248201527f4f776e61626c653a2063616c6c6572206973206e6f7420746865206f776e657260448201526064016104f1565b6001600160a01b0381166124525760405162461bcd60e51b815260206004820152602660248201527f4f776e61626c653a206e6577206f776e657220697320746865207a65726f206160448201527f646472657373000000000000000000000000000000000000000000000000000060648201526084016104f1565b61245b81612b80565b50565b6033546001600160a01b031633146124b85760405162461bcd60e51b815260206004820181905260248201527f4f776e61626c653a2063616c6c6572206973206e6f7420746865206f776e657260448201526064016104f1565b670de0b6b3a76400008111156124cd57600080fd5b60cd55565b6001600160a01b03818116600090815260d3602052604081205490911661253b5760405162461bcd60e51b815260206004820152601960248201527f506c6174797075733a2041535345545f4e4f545f45584953540000000000000060448201526064016104f1565b506001600160a01b03908116600090815260d360205260409020541690565b60006125716001600160a01b03861633878761301f565b600061257d8686612c90565b509092509050818411156125d35760405162461bcd60e51b815260206004820152601860248201527f506c6174797075733a20414d4f554e545f544f4f5f4c4f57000000000000000060448201526064016104f1565b6040517f9dc29fac0000000000000000000000000000000000000000000000000000000081526001600160a01b038716600482018190526024820187905290639dc29fac90604401600060405180830381600087803b15801561263557600080fd5b505af1158015612649573d6000803e3d6000fd5b50506040517f9f9ef988000000000000000000000000000000000000000000000000000000008152600481018590526001600160a01b0389169250639f9ef9889150602401600060405180830381600087803b1580156126a857600080fd5b505af11580156126bc573d6000803e3d6000fd5b50506040517fd8b87853000000000000000000000000000000000000000000000000000000008152600481018490526001600160a01b038916925063d8b878539150602401600060405180830381600087803b15801561271b57600080fd5b505af115801561272f573d6000803e3d6000fd5b50506040517f9e79eaa50000000000000000000000000000000000000000000000000000000081526001600160a01b0386811660048301526024820186905289169250639e79eaa59150604401600060405180830381600087803b15801561279657600080fd5b505af11580156127aa573d6000803e3d6000fd5b5050505050949350505050565b60975460ff166128095760405162461bcd60e51b815260206004820152601460248201527f5061757361626c653a206e6f742070617573656400000000000000000000000060448201526064016104f1565b609780547fffffffffffffffffffffffffffffffffffffffffffffffffffffffffffffff001690557f5db9ee0a495bf2e6ff9c91a7834c1ba4fdd244a5e8aa4e537bd38aeae4b073aa335b6040516001600160a01b03909116815260200160405180910390a1565b600080600061288186868661381c565b905080856001600160a01b031663961be3916040518163ffffffff1660e01b815260040160206040518083038186803b1580156128bd57600080fd5b505afa1580156128d1573d6000803e3d6000fd5b505050506040513d601f19601f820116820180604052508101906128f5919061459a565b10156129435760405162461bcd60e51b815260206004820152601b60248201527f506c6174797075733a20494e53554646494349454e545f43415348000000000060448201526064016104f1565b6000612a3e60c95460ca5460cb5460cc548b6001600160a01b031663961be3916040518163ffffffff1660e01b815260040160206040518083038186803b15801561298d57600080fd5b505afa1580156129a1573d6000803e3d6000fd5b505050506040513d601f19601f820116820180604052508101906129c5919061459a565b8c6001600160a01b031663705727b56040518163ffffffff1660e01b815260040160206040518083038186803b1580156129fe57600080fd5b505afa158015612a12573d6000803e3d6000fd5b505050506040513d601f19601f82011682018060405250810190612a36919061459a565b8b6001613ba0565b90506000612b3b60c95460ca5460cb5460cc548b6001600160a01b031663961be3916040518163ffffffff1660e01b815260040160206040518083038186803b158015612a8a57600080fd5b505afa158015612a9e573d6000803e3d6000fd5b505050506040513d601f19601f82011682018060405250810190612ac2919061459a565b8c6001600160a01b031663705727b56040518163ffffffff1660e01b815260040160206040518083038186803b158015612afb57600080fd5b505afa158015612b0f573d6000803e3d6000fd5b505050506040513d601f19601f82011682018060405250810190612b33919061459a565b896000613ba0565b90506000612b498383613c65565b90506000612b578583613c84565b9050612b658160cd54613cb8565b9550612b7186826147d6565b96505050505050935093915050565b603380546001600160a01b038381167fffffffffffffffffffffffff0000000000000000000000000000000000000000831681179093556040519116919082907f8be0079c531659141344cd1fd0a4f28419497f9722a3daafe3b4186f6b6457e090600090a35050565b60975460ff1615612c3d5760405162461bcd60e51b815260206004820152601060248201527f5061757361626c653a207061757365640000000000000000000000000000000060448201526064016104f1565b609780547fffffffffffffffffffffffffffffffffffffffffffffffffffffffffffffff001660011790557f62e78cea01bee320cd4e420270b5ea74000d11b0c9f74754ebdbfc544b05a2586128543390565b6000806000846001600160a01b03166318160ddd6040518163ffffffff1660e01b815260040160206040518083038186803b158015612cce57600080fd5b505afa158015612ce2573d6000803e3d6000fd5b505050506040513d601f19601f82011682018060405250810190612d06919061459a565b84866001600160a01b031663705727b56040518163ffffffff1660e01b815260040160206040518083038186803b158015612d4057600080fd5b505afa158015612d54573d6000803e3d6000fd5b505050506040513d601f19601f82011682018060405250810190612d78919061459a565b612d829190614799565b612d8c919061465b565b915060008211612e045760405162461bcd60e51b815260206004820152602760248201527f506c6174797075733a20494e53554646494349454e545f4c495155494449545960448201527f5f4255524e45440000000000000000000000000000000000000000000000000060648201526084016104f1565b612efb60c95460ca5460cb5460cc54896001600160a01b031663961be3916040518163ffffffff1660e01b815260040160206040518083038186803b158015612e4c57600080fd5b505afa158015612e60573d6000803e3d6000fd5b505050506040513d601f19601f82011682018060405250810190612e84919061459a565b8a6001600160a01b031663705727b56040518163ffffffff1660e01b815260040160206040518083038186803b158015612ebd57600080fd5b505afa158015612ed1573d6000803e3d6000fd5b505050506040513d601f19601f82011682018060405250810190612ef5919061459a565b88613cc4565b90508082111561301357612f0f81836147d6565b856001600160a01b031663961be3916040518163ffffffff1660e01b815260040160206040518083038186803b158015612f4857600080fd5b505afa158015612f5c573d6000803e3d6000fd5b505050506040513d601f19601f82011682018060405250810190612f80919061459a565b101561300257846001600160a01b031663961be3916040518163ffffffff1660e01b815260040160206040518083038186803b158015612fbf57600080fd5b505afa158015612fd3573d6000803e3d6000fd5b505050506040513d601f19601f82011682018060405250810190612ff7919061459a565b925060009050613018565b61300c81836147d6565b9250613018565b600092505b9250925092565b604080516001600160a01b0385811660248301528416604482015260648082018490528251808303909101815260849091019091526020810180517bffffffffffffffffffffffffffffffffffffffffffffffffffffffff167f23b872dd000000000000000000000000000000000000000000000000000000001790526130a7908590613db9565b50505050565b60006001600160a01b03821661312b5760405162461bcd60e51b815260206004820152602860248201527f506c6174797075733a20546f207573657220616464726573732063616e6e6f7460448201527f206265207a65726f00000000000000000000000000000000000000000000000060648201526084016104f1565b6000846001600160a01b03166318160ddd6040518163ffffffff1660e01b815260040160206040518083038186803b15801561316657600080fd5b505afa15801561317a573d6000803e3d6000fd5b505050506040513d601f19601f8201168201806040525081019061319e919061459a565b90506000856001600160a01b031663705727b56040518163ffffffff1660e01b815260040160206040518083038186803b1580156131db57600080fd5b505afa1580156131ef573d6000803e3d6000fd5b505050506040513d601f19601f82011682018060405250810190613213919061459a565b9050600061330e60c95460ca5460cb5460cc548b6001600160a01b031663961be3916040518163ffffffff1660e01b815260040160206040518083038186803b15801561325f57600080fd5b505afa158015613273573d6000803e3d6000fd5b505050506040513d601f19601f82011682018060405250810190613297919061459a565b8c6001600160a01b031663705727b56040518163ffffffff1660e01b815260040160206040518083038186803b1580156132d057600080fd5b505afa1580156132e4573d6000803e3d6000fd5b505050506040513d601f19601f82011682018060405250810190613308919061459a565b8c613ea3565b9050811561333b57818361332283896147d6565b61332c9190614799565b613336919061465b565b613345565b61334581876147d6565b9350600084116133bd5760405162461bcd60e51b815260206004820152602760248201527f506c6174797075733a20494e53554646494349454e545f4c495155494449545960448201527f5f4d494e5445440000000000000000000000000000000000000000000000000060648201526084016104f1565b6040517f16c9e7a0000000000000000000000000000000000000000000000000000000008152600481018790526001600160a01b038816906316c9e7a090602401600060405180830381600087803b15801561341857600080fd5b505af115801561342c573d6000803e3d6000fd5b50505050866001600160a01b031663a0f0f604828861344b91906147d6565b6040518263ffffffff1660e01b815260040161346991815260200190565b600060405180830381600087803b15801561348357600080fd5b505af1158015613497573d6000803e3d6000fd5b50506040517f40c10f190000000000000000000000000000000000000000000000000000000081526001600160a01b038881166004830152602482018890528a1692506340c10f199150604401600060405180830381600087803b1580156134fe57600080fd5b505af1158015613512573d6000803e3d6000fd5b505050505050509392505050565b600061353e61353783670de0b6b3a76400006147d6565b8490613c84565b9392505050565b600054610100900460ff168061355e575060005460ff16155b6135d05760405162461bcd60e51b815260206004820152602e60248201527f496e697469616c697a61626c653a20636f6e747261637420697320616c72656160448201527f647920696e697469616c697a656400000000000000000000000000000000000060648201526084016104f1565b600054610100900460ff161580156135f2576000805461ffff19166101011790555b6135fa613f48565b613602614025565b801561245b57600080547fffffffffffffffffffffffffffffffffffffffffffffffffffffffffffff00ff16905550565b600054610100900460ff168061364c575060005460ff16155b6136be5760405162461bcd60e51b815260206004820152602e60248201527f496e697469616c697a61626c653a20636f6e747261637420697320616c72656160448201527f647920696e697469616c697a656400000000000000000000000000000000000060648201526084016104f1565b600054610100900460ff161580156136e0576000805461ffff19166101011790555b6001606555801561245b57600080547fffffffffffffffffffffffffffffffffffffffffffffffffffffffffffff00ff16905550565b600054610100900460ff168061372f575060005460ff16155b6137a15760405162461bcd60e51b815260206004820152602e60248201527f496e697469616c697a61626c653a20636f6e747261637420697320616c72656160448201527f647920696e697469616c697a656400000000000000000000000000000000000060648201526084016104f1565b600054610100900460ff161580156137c3576000805461ffff19166101011790555b609780547fffffffffffffffffffffffffffffffffffffffffffffffffffffffffffffff00169055801561245b57600080547fffffffffffffffffffffffffffffffffffffffffffffffffffffffffffff00ff16905550565b6000670de0b6b3a7640000846001600160a01b031663313ce5676040518163ffffffff1660e01b815260040160206040518083038186803b15801561386057600080fd5b505afa158015613874573d6000803e3d6000fd5b505050506040513d601f19601f8201168201806040525081019061389891906145b3565b6138a390600a6146d0565b846001600160a01b031663313ce5676040518163ffffffff1660e01b815260040160206040518083038186803b1580156138dc57600080fd5b505afa1580156138f0573d6000803e3d6000fd5b505050506040513d601f19601f8201168201806040525081019061391491906145b3565b61391f90600a6146d0565b613b7a60d260009054906101000a90046001600160a01b03166001600160a01b0316630fa3977b886001600160a01b0316632495a5996040518163ffffffff1660e01b815260040160206040518083038186803b15801561397f57600080fd5b505afa158015613993573d6000803e3d6000fd5b505050506040513d601f19601f820116820180604052508101906139b7919061439b565b6040517fffffffff0000000000000000000000000000000000000000000000000000000060e084901b1681526001600160a01b03909116600482015260240160206040518083038186803b158015613a0e57600080fd5b505afa158015613a22573d6000803e3d6000fd5b505050506040513d601f19601f82011682018060405250810190613a46919061459a565b60d260009054906101000a90046001600160a01b03166001600160a01b031663b3596f078a6001600160a01b0316632495a5996040518163ffffffff1660e01b815260040160206040518083038186803b158015613aa357600080fd5b505afa158015613ab7573d6000803e3d6000fd5b505050506040513d601f19601f82011682018060405250810190613adb919061439b565b6040517fffffffff0000000000000000000000000000000000000000000000000000000060e084901b1681526001600160a01b03909116600482015260240160206040518083038186803b158015613b3257600080fd5b505afa158015613b46573d6000803e3d6000fd5b505050506040513d601f19601f82011682018060405250810190613b6a919061459a565b613b749088614799565b90613c84565b613b849190614799565b613b8e919061465b565b613b98919061465b565b949350505050565b600080613bad86866140db565b905060008315613bd257613bcb86613bc5878a614643565b906140db565b9050613be3565b613be086613bc5878a6147d6565b90505b80821415613bf657600092505050613c59565b6000613c058c8c8c8c876140fb565b90506000613c168d8d8d8d876140fb565b905082841115613c4257613c37613c2d84866147d6565b613bc584846147d6565b945050505050613c59565b613c37613c4f85856147d6565b613bc583856147d6565b98975050505050505050565b600081613c7a84670de0b6b3a7640000614643565b61353e91906147d6565b6000670de0b6b3a7640000613c9a60028261465b565b613ca48486614799565b613cae9190614643565b61353e919061465b565b600061353e8383613c84565b600080613cd185856140db565b9050670de0b6b3a76400008110613cec576000915050613dae565b828411613cfd576000915050613dae565b600083861115613d1857613d1184876147d6565b9050613d1c565b5060005b6000613d32613d2b86886147d6565b83906140db565b90506000613d438c8c8c8c886140fb565b90506000613d548d8d8d8d876140fb565b90506000613d6d8e8e8e8e670de0b6b3a76400006140fb565b9050613d798984613c84565b613d83828a613c84565b613d9184613b748c8e6147d6565b613d9b9190614643565b613da591906147d6565b96505050505050505b979650505050505050565b6000613e0e826040518060400160405280602081526020017f5361666545524332303a206c6f772d6c6576656c2063616c6c206661696c6564815250856001600160a01b03166141729092919063ffffffff16565b805190915015613e9e5780806020019051810190613e2c919061455f565b613e9e5760405162461bcd60e51b815260206004820152602a60248201527f5361666545524332303a204552433230206f7065726174696f6e20646964206e60448201527f6f7420737563636565640000000000000000000000000000000000000000000060648201526084016104f1565b505050565b600082613eb257506000613dae565b6000613ebe85856140db565b9050670de0b6b3a76400008111613ed9576000915050613dae565b6000613ef2613ee88587614643565b613bc58689614643565b90506000613f038b8b8b8b876140fb565b90506000613f148c8c8c8c876140fb565b9050613f208783613c84565b613f2e82613b74898b614643565b613f3891906147d6565b9c9b505050505050505050505050565b600054610100900460ff1680613f61575060005460ff16155b613fd35760405162461bcd60e51b815260206004820152602e60248201527f496e697469616c697a61626c653a20636f6e747261637420697320616c72656160448201527f647920696e697469616c697a656400000000000000000000000000000000000060648201526084016104f1565b600054610100900460ff16158015613602576000805461ffff1916610101179055801561245b57600080547fffffffffffffffffffffffffffffffffffffffffffffffffffffffffffff00ff16905550565b600054610100900460ff168061403e575060005460ff16155b6140b05760405162461bcd60e51b815260206004820152602e60248201527f496e697469616c697a61626c653a20636f6e747261637420697320616c72656160448201527f647920696e697469616c697a656400000000000000000000000000000000000060648201526084016104f1565b600054610100900460ff161580156140d2576000805461ffff19166101011790555b61360233612b80565b6000816140e960028261465b565b613ca4670de0b6b3a764000086614799565b6000828210156141165761410f82856147d6565b9050614169565b61410f6b033b2e3c9fd0803ce8000000670de0b6b3a764000061414e888261413e8589614799565b614148919061465b565b90614181565b6141589190614799565b614162919061465b565b87906140db565b95945050505050565b6060613b9884846000856141f7565b600061418e600283614819565b6141a4576b033b2e3c9fd0803ce80000006141a6565b825b90506141b360028361465b565b91505b8115611021576141c6838461432b565b92506141d3600283614819565b156141e5576141e2818461432b565b90505b6141f060028361465b565b91506141b6565b60608247101561426f5760405162461bcd60e51b815260206004820152602660248201527f416464726573733a20696e73756666696369656e742062616c616e636520666f60448201527f722063616c6c000000000000000000000000000000000000000000000000000060648201526084016104f1565b843b6142bd5760405162461bcd60e51b815260206004820152601d60248201527f416464726573733a2063616c6c20746f206e6f6e2d636f6e747261637400000060448201526064016104f1565b600080866001600160a01b031685876040516142d991906145d6565b60006040518083038185875af1925050503d8060008114614316576040519150601f19603f3d011682016040523d82523d6000602084013e61431b565b606091505b5091509150613dae828286614345565b60006b033b2e3c9fd0803ce8000000613c9a60028261465b565b6060831561435457508161353e565b8251156143645782518084602001fd5b8160405162461bcd60e51b81526004016104f191906145f2565b60006020828403121561439057600080fd5b813561353e8161488b565b6000602082840312156143ad57600080fd5b815161353e8161488b565b600080604083850312156143cb57600080fd5b82356143d68161488b565b915060208301356143e68161488b565b809150509250929050565b60008060006060848603121561440657600080fd5b83356144118161488b565b925060208401356144218161488b565b929592945050506040919091013590565b60008060008060008060c0878903121561444b57600080fd5b86356144568161488b565b955060208701356144668161488b565b9450604087013593506060870135925060808701356144848161488b565b8092505060a087013590509295509295509295565b600080604083850312156144ac57600080fd5b82356144b78161488b565b946020939093013593505050565b600080600080608085870312156144db57600080fd5b84356144e68161488b565b93506020850135925060408501356144fd8161488b565b9396929550929360600135925050565b600080600080600060a0868803121561452557600080fd5b85356145308161488b565b94506020860135935060408601359250606086013561454e8161488b565b949793965091946080013592915050565b60006020828403121561457157600080fd5b8151801515811461353e57600080fd5b60006020828403121561459357600080fd5b5035919050565b6000602082840312156145ac57600080fd5b5051919050565b6000602082840312156145c557600080fd5b815160ff8116811461353e57600080fd5b600082516145e88184602087016147ed565b9190910192915050565b60208152600082518060208401526146118160408501602087016147ed565b601f017fffffffffffffffffffffffffffffffffffffffffffffffffffffffffffffffe0169190910160400192915050565b600082198211156146565761465661482d565b500190565b60008261466a5761466a61485c565b500490565b600181815b808511156146c857817fffffffffffffffffffffffffffffffffffffffffffffffffffffffffffffffff048211156146ae576146ae61482d565b808516156146bb57918102915b93841c9390800290614674565b509250929050565b600061353e60ff8416836000826146e957506001611021565b816146f657506000611021565b816001811461470c576002811461471657614732565b6001915050611021565b60ff8411156147275761472761482d565b50506001821b611021565b5060208310610133831016604e8410600b8410161715614755575081810a611021565b61475f838361466f565b807fffffffffffffffffffffffffffffffffffffffffffffffffffffffffffffffff048211156147915761479161482d565b029392505050565b6000817fffffffffffffffffffffffffffffffffffffffffffffffffffffffffffffffff04831182151516156147d1576147d161482d565b500290565b6000828210156147e8576147e861482d565b500390565b60005b838110156148085781810151838201526020016147f0565b838111156130a75750506000910152565b6000826148285761482861485c565b500690565b7f4e487b7100000000000000000000000000000000000000000000000000000000600052601160045260246000fd5b7f4e487b7100000000000000000000000000000000000000000000000000000000600052601260045260246000fd5b6001600160a01b038116811461245b57600080fdfea2646970667358221220a248ad323c053906e5b147025371ce861c6824937244502868bd1deb544506b564736f6c63430008050033",
  "devdoc": {
    "details": "The main entry-point of Wombat protocol",
    "kind": "dev",
    "methods": {
      "addAsset(address,address)": {
        "params": {
          "asset": "The address of the Wombat Asset contract",
          "token": "The address of token"
        }
      },
      "assetOf(address)": {
        "details": "to be used externally",
        "params": {
          "token": "The address of ERC20 token"
        }
      },
      "deposit(address,uint256,address,uint256)": {
        "details": "Asset needs to be created and added to pool before any operation",
        "params": {
          "amount": "The amount to be deposited",
          "deadline": "The deadline to be respected",
          "to": "The user accountable for deposit, receiving the Wombat assets (lp)",
          "token": "The token address to be deposited"
        },
        "returns": {
          "liquidity": "Total asset liquidity minted"
        }
      },
      "getC1()": {
        "returns": {
          "_0": "The current C1 slippage parameter in Pool"
        }
      },
      "getDev()": {
        "returns": {
          "_0": "The current Dev address for Pool"
        }
      },
      "getHaircutRate()": {
        "returns": {
          "_0": "The current Haircut parameter in Pool"
        }
      },
      "getPriceOracle()": {
        "returns": {
          "_0": "The current Price Oracle address for Pool"
        }
      },
      "getRetentionRatio()": {
        "returns": {
          "_0": "The current retention ratio parameter in Pool"
        }
      },
      "getSlippageParamK()": {
        "returns": {
          "_0": "The current K slippage parameter in Pool"
        }
      },
      "getSlippageParamN()": {
        "returns": {
          "_0": "The current N slippage parameter in Pool"
        }
      },
      "getWETH()": {
        "returns": {
          "_0": "The current WETH address for Pool"
        }
      },
      "getWETHForwarder()": {
        "returns": {
          "_0": "The current WETHForwarder address for Pool"
        }
      },
      "getXThreshold()": {
        "returns": {
          "_0": "The current XThreshold slippage parameter in Pool"
        }
      },
      "initialize(address)": {
        "params": {
          "weth_": "The weth address used to wrap eth (or BSC in our case) tokens by Pool."
        }
      },
      "owner()": {
        "details": "Returns the address of the current owner."
      },
      "pause()": {
        "details": "pause pool, restricting certain operations"
      },
      "paused()": {
        "details": "Returns true if the contract is paused, and false otherwise."
      },
      "quotePotentialSwap(address,address,uint256)": {
        "details": "To be used by frontend",
        "params": {
          "fromAmount": "The amount to quote",
          "fromToken": "The initial ERC20 token",
          "toToken": "The token wanted by user"
        },
        "returns": {
          "haircut": "The haircut that would be applied",
          "potentialOutcome": "The potential amount user would receive"
        }
      },
      "quotePotentialWithdraw(address,uint256)": {
        "details": "To be used by frontend",
        "params": {
          "liquidity": "The liquidity (amount of lp assets) to be withdrawn",
          "token": "The token to be withdrawn by user"
        },
        "returns": {
          "amount": "The potential amount user would receive",
          "enoughCash": "does the pool have enough cash? (cash >= liabilityToBurn - fee)",
          "fee": "The fee that would be applied"
        }
      },
      "renounceOwnership()": {
        "details": "Leaves the contract without owner. It will not be possible to call `onlyOwner` functions anymore. Can only be called by the current owner. NOTE: Renouncing ownership will leave the contract without an owner, thereby removing any functionality that is only available to the owner."
      },
      "setC1(uint256)": {
        "params": {
          "c1_": "new pool's slippage param C1"
        }
      },
      "setDev(address)": {
        "params": {
          "dev": "new contract dev address"
        }
      },
      "setHaircutRate(uint256)": {
        "params": {
          "haircutRate_": "new pool's haircutRate_"
        }
      },
      "setPriceOracle(address)": {
        "params": {
          "priceOracle": "new pool's priceOracle addres"
        }
      },
      "setRetentionRatio(uint256)": {
        "params": {
          "retentionRatio_": "new pool's retentionRatio"
        }
      },
      "setSlippageParamK(uint256)": {
        "params": {
          "k_": "new pool's slippage param K"
        }
      },
      "setSlippageParamN(uint256)": {
        "params": {
          "n_": "new pool's slippage param N"
        }
      },
      "setWETH(address)": {
        "params": {
          "weth_": "new pool's WETH address"
        }
      },
      "setWETHForwarder(address)": {
        "params": {
          "wethForwarder": "new pool's WETHForwarder address"
        }
      },
      "setXThreshold(uint256)": {
        "params": {
          "xThreshold_": "new pool's slippage param xThreshold"
        }
      },
      "swap(address,address,uint256,uint256,address,uint256)": {
        "params": {
          "deadline": "The deadline to be respected",
          "fromAmount": "The amount of from token inserted",
          "fromToken": "The token being inserted into Pool by user for swap",
          "minimumToAmount": "The minimum amount that will be accepted by user as result",
          "to": "The user receiving the result of swap",
          "toToken": "The token wanted by user, leaving the Pool"
        }
      },
      "transferOwnership(address)": {
        "details": "Transfers ownership of the contract to a new account (`newOwner`). Can only be called by the current owner."
      },
      "unpause()": {
        "details": "unpause pool, enabling certain operations"
      },
      "withdraw(address,uint256,uint256,address,uint256)": {
        "params": {
          "deadline": "The deadline to be respected",
          "liquidity": "The liquidity to be withdrawn",
          "minimumAmount": "The minimum amount that will be accepted by user",
          "to": "The user receiving the withdrawal",
          "token": "The token to be withdrawn"
        },
        "returns": {
          "amount": "The total amount withdrawn"
        }
      }
    },
    "title": "Pool",
    "version": 1
  },
  "userdoc": {
    "events": {
      "AssetAdded(address,address)": {
        "notice": "An event thats emitted when an asset is added to Pool"
      },
      "Deposit(address,address,uint256,uint256,address)": {
        "notice": "An event thats emitted when a deposit is made to Pool"
      },
      "Swap(address,address,address,uint256,uint256,address)": {
        "notice": "An event thats emitted when a swap is made in Pool"
      },
      "Withdraw(address,address,uint256,uint256,address)": {
        "notice": "An event thats emitted when a withdrawal is made from Pool"
      }
    },
    "kind": "user",
    "methods": {
      "addAsset(address,address)": {
        "notice": "Adds asset to pool, reverts if asset already exists in pool"
      },
      "assetOf(address)": {
        "notice": "Gets Asset corresponding to ERC20 token. Reverts if asset does not exists in Pool."
      },
      "deposit(address,uint256,address,uint256)": {
        "notice": "Deposits amount of tokens into pool ensuring deadline"
      },
      "getC1()": {
        "notice": "Gets current C1 slippage parameter"
      },
      "getDev()": {
        "notice": "Gets current Dev address"
      },
      "getHaircutRate()": {
        "notice": "Gets current Haircut parameter"
      },
      "getPriceOracle()": {
        "notice": "Gets current Price Oracle address"
      },
      "getRetentionRatio()": {
        "notice": "Gets current retention ratio parameter"
      },
      "getSlippageParamK()": {
        "notice": "Gets current K slippage parameter"
      },
      "getSlippageParamN()": {
        "notice": "Gets current N slippage parameter"
      },
      "getWETH()": {
        "notice": "Gets current WETH address"
      },
      "getWETHForwarder()": {
        "notice": "Gets current WETHForwarder address"
      },
      "getXThreshold()": {
        "notice": "Gets current XThreshold slippage parameter"
      },
      "initialize(address)": {
        "notice": "Initializes pool. Dev is set to be the account calling this function."
      },
      "quotePotentialSwap(address,address,uint256)": {
        "notice": "Quotes potential outcome of a swap given current state, taking in account slippage and haircut"
      },
      "quotePotentialWithdraw(address,uint256)": {
        "notice": "Quotes potential withdrawal from pool"
      },
      "setC1(uint256)": {
        "notice": "Changes the pools slippage param C1. Can only be set by the contract owner."
      },
      "setDev(address)": {
        "notice": "Changes the contract dev. Can only be set by the contract owner."
      },
      "setHaircutRate(uint256)": {
        "notice": "Changes the pools haircutRate. Can only be set by the contract owner."
      },
      "setPriceOracle(address)": {
        "notice": "Changes the pools priceOracle. Can only be set by the contract owner."
      },
      "setRetentionRatio(uint256)": {
        "notice": "Changes the pools retentionRatio. Can only be set by the contract owner."
      },
      "setSlippageParamK(uint256)": {
        "notice": "Changes the pools slippage param K. Can only be set by the contract owner."
      },
      "setSlippageParamN(uint256)": {
        "notice": "Changes the pools slippage param N. Can only be set by the contract owner."
      },
      "setWETH(address)": {
        "notice": "Changes the pools WETH. Can only be set by the contract owner."
      },
      "setWETHForwarder(address)": {
        "notice": "Changes the pools WETHForwarder. Can only be set by the contract owner."
      },
      "setXThreshold(uint256)": {
        "notice": "Changes the pools slippage param xThreshold. Can only be set by the contract owner."
      },
      "swap(address,address,uint256,uint256,address,uint256)": {
        "notice": "Swap fromToken for toToken, ensures deadline and minimumToAmount and sends quoted amount to `to` address"
      },
      "withdraw(address,uint256,uint256,address,uint256)": {
        "notice": "Withdraws liquidity amount of asset to `to` address ensuring minimum amount required"
      }
    },
    "notice": "Manages deposits, withdrawals and swaps. Holds a mapping of assets and parameters.",
    "version": 1
  },
  "storageLayout": {
    "storage": [
      {
        "astId": 130,
        "contract": "contracts/pool/Pool.sol:Pool",
        "label": "_initialized",
        "offset": 0,
        "slot": "0",
        "type": "t_bool"
      },
      {
        "astId": 133,
        "contract": "contracts/pool/Pool.sol:Pool",
        "label": "_initializing",
        "offset": 1,
        "slot": "0",
        "type": "t_bool"
      },
      {
        "astId": 383,
        "contract": "contracts/pool/Pool.sol:Pool",
        "label": "__gap",
        "offset": 0,
        "slot": "1",
        "type": "t_array(t_uint256)50_storage"
      },
      {
        "astId": 10,
        "contract": "contracts/pool/Pool.sol:Pool",
        "label": "_owner",
        "offset": 0,
        "slot": "51",
        "type": "t_address"
      },
      {
        "astId": 123,
        "contract": "contracts/pool/Pool.sol:Pool",
        "label": "__gap",
        "offset": 0,
        "slot": "52",
        "type": "t_array(t_uint256)49_storage"
      },
      {
        "astId": 297,
        "contract": "contracts/pool/Pool.sol:Pool",
        "label": "_status",
        "offset": 0,
        "slot": "101",
        "type": "t_uint256"
      },
      {
        "astId": 340,
        "contract": "contracts/pool/Pool.sol:Pool",
        "label": "__gap",
        "offset": 0,
        "slot": "102",
        "type": "t_array(t_uint256)49_storage"
      },
      {
        "astId": 191,
        "contract": "contracts/pool/Pool.sol:Pool",
        "label": "_paused",
        "offset": 0,
        "slot": "151",
        "type": "t_bool"
      },
      {
        "astId": 282,
        "contract": "contracts/pool/Pool.sol:Pool",
        "label": "__gap",
        "offset": 0,
        "slot": "152",
        "type": "t_array(t_uint256)49_storage"
      },
      {
        "astId": 3119,
        "contract": "contracts/pool/Pool.sol:Pool",
        "label": "_slippageParamK",
        "offset": 0,
        "slot": "201",
        "type": "t_uint256"
      },
      {
        "astId": 3122,
        "contract": "contracts/pool/Pool.sol:Pool",
        "label": "_slippageParamN",
        "offset": 0,
        "slot": "202",
        "type": "t_uint256"
      },
      {
        "astId": 3125,
        "contract": "contracts/pool/Pool.sol:Pool",
        "label": "_c1",
        "offset": 0,
        "slot": "203",
        "type": "t_uint256"
      },
      {
        "astId": 3128,
        "contract": "contracts/pool/Pool.sol:Pool",
        "label": "_xThreshold",
        "offset": 0,
        "slot": "204",
        "type": "t_uint256"
      },
      {
        "astId": 3136,
        "contract": "contracts/pool/Pool.sol:Pool",
        "label": "_haircutRate",
        "offset": 0,
        "slot": "205",
        "type": "t_uint256"
      },
      {
        "astId": 3140,
        "contract": "contracts/pool/Pool.sol:Pool",
        "label": "_retentionRatio",
        "offset": 0,
        "slot": "206",
        "type": "t_uint256"
      },
      {
        "astId": 3143,
        "contract": "contracts/pool/Pool.sol:Pool",
        "label": "_dev",
        "offset": 0,
        "slot": "207",
        "type": "t_address"
      },
      {
        "astId": 3146,
        "contract": "contracts/pool/Pool.sol:Pool",
        "label": "_weth",
        "offset": 0,
        "slot": "208",
        "type": "t_address"
      },
      {
        "astId": 3150,
        "contract": "contracts/pool/Pool.sol:Pool",
        "label": "_wethForwarder",
        "offset": 0,
        "slot": "209",
        "type": "t_contract(WETHForwarder)4735"
      },
      {
        "astId": 3154,
        "contract": "contracts/pool/Pool.sol:Pool",
        "label": "_priceOracle",
        "offset": 0,
        "slot": "210",
        "type": "t_contract(IPriceOracleGetter)2149"
      },
      {
        "astId": 3160,
        "contract": "contracts/pool/Pool.sol:Pool",
        "label": "_assets",
        "offset": 0,
        "slot": "211",
        "type": "t_mapping(t_address,t_contract(Asset)2124)"
      }
    ],
    "types": {
      "t_address": {
        "encoding": "inplace",
        "label": "address",
        "numberOfBytes": "20"
      },
      "t_array(t_uint256)49_storage": {
        "base": "t_uint256",
        "encoding": "inplace",
        "label": "uint256[49]",
        "numberOfBytes": "1568"
      },
      "t_array(t_uint256)50_storage": {
        "base": "t_uint256",
        "encoding": "inplace",
        "label": "uint256[50]",
        "numberOfBytes": "1600"
      },
      "t_bool": {
        "encoding": "inplace",
        "label": "bool",
        "numberOfBytes": "1"
      },
      "t_contract(Asset)2124": {
        "encoding": "inplace",
        "label": "contract Asset",
        "numberOfBytes": "20"
      },
      "t_contract(IPriceOracleGetter)2149": {
        "encoding": "inplace",
        "label": "contract IPriceOracleGetter",
        "numberOfBytes": "20"
      },
      "t_contract(WETHForwarder)4735": {
        "encoding": "inplace",
        "label": "contract WETHForwarder",
        "numberOfBytes": "20"
      },
      "t_mapping(t_address,t_contract(Asset)2124)": {
        "encoding": "mapping",
        "key": "t_address",
        "label": "mapping(address => contract Asset)",
        "numberOfBytes": "32",
        "value": "t_contract(Asset)2124"
      },
      "t_uint256": {
        "encoding": "inplace",
        "label": "uint256",
        "numberOfBytes": "32"
      }
    }
  }
}