{
  "address": "0x17A4F45785fb3602B90fe0B09305930e311b2E39",
  "abi": [
    {
      "inputs": [
        {
          "internalType": "address",
          "name": "weth",
          "type": "address"
        }
      ],
      "stateMutability": "nonpayable",
      "type": "constructor"
    },
    {
      "anonymous": false,
      "inputs": [
        {
          "indexed": true,
          "internalType": "address",
          "name": "previousOwner",
          "type": "address"
        },
        {
          "indexed": true,
          "internalType": "address",
          "name": "newOwner",
          "type": "address"
        }
      ],
      "name": "OwnershipTransferred",
      "type": "event"
    },
    {
      "inputs": [],
      "name": "owner",
      "outputs": [
        {
          "internalType": "address",
          "name": "",
          "type": "address"
        }
      ],
      "stateMutability": "view",
      "type": "function"
    },
    {
      "inputs": [],
      "name": "renounceOwnership",
      "outputs": [],
      "stateMutability": "nonpayable",
      "type": "function"
    },
    {
      "inputs": [
        {
          "internalType": "address",
          "name": "pool",
          "type": "address"
        }
      ],
      "name": "setPool",
      "outputs": [],
      "stateMutability": "nonpayable",
      "type": "function"
    },
    {
      "inputs": [
        {
          "internalType": "address",
          "name": "newOwner",
          "type": "address"
        }
      ],
      "name": "transferOwnership",
      "outputs": [],
      "stateMutability": "nonpayable",
      "type": "function"
    },
    {
      "inputs": [
        {
          "internalType": "address payable",
          "name": "to",
          "type": "address"
        },
        {
          "internalType": "uint256",
          "name": "amount",
          "type": "uint256"
        }
      ],
      "name": "unwrapAndTransfer",
      "outputs": [],
      "stateMutability": "nonpayable",
      "type": "function"
    },
    {
      "stateMutability": "payable",
      "type": "receive"
    }
  ],
  "transactionHash": "0xba88e20435dd560e535c5d8a846c71433b16f6312c2acf1ca36d802cd57db8db",
  "args": [
    "0xd00ae08403B9bbb9124bB305C09058E32C39A48c"
  ],
  "solcInputHash": "90db8cc53bd2911a81fe521a3239f9b0",
  "bytecode": "0x608060405234801561001057600080fd5b50604051610b00380380610b0083398101604081905261002f9161010b565b610038336100bb565b600180556001600160a01b0381166100965760405162461bcd60e51b815260206004820152601b60248201527f7765746820616464726573732063616e6e6f74206265207a65726f0000000000604482015260640160405180910390fd5b600280546001600160a01b0319166001600160a01b039290921691909117905561013b565b600080546001600160a01b038381166001600160a01b0319831681178455604051919092169283917f8be0079c531659141344cd1fd0a4f28419497f9722a3daafe3b4186f6b6457e09190a35050565b60006020828403121561011d57600080fd5b81516001600160a01b038116811461013457600080fd5b9392505050565b6109b68061014a6000396000f3fe60806040526004361061005e5760003560e01c80638ce43367116100435780638ce43367146100c65780638da5cb5b146100e6578063f2fde38b1461011f57600080fd5b80634437152a14610091578063715018a6146100b157600080fd5b3661008c5760025473ffffffffffffffffffffffffffffffffffffffff16331461008a5761008a61092f565b005b600080fd5b34801561009d57600080fd5b5061008a6100ac3660046108c6565b61013f565b3480156100bd57600080fd5b5061008a610289565b3480156100d257600080fd5b5061008a6100e13660046108ea565b610316565b3480156100f257600080fd5b506000546040805173ffffffffffffffffffffffffffffffffffffffff9092168252519081900360200190f35b34801561012b57600080fd5b5061008a61013a3660046108c6565b6105c2565b60005473ffffffffffffffffffffffffffffffffffffffff1633146101c5576040517f08c379a000000000000000000000000000000000000000000000000000000000815260206004820181905260248201527f4f776e61626c653a2063616c6c6572206973206e6f7420746865206f776e657260448201526064015b60405180910390fd5b73ffffffffffffffffffffffffffffffffffffffff8116610242576040517f08c379a000000000000000000000000000000000000000000000000000000000815260206004820152601b60248201527f506f6f6c20616464726573732063616e6e6f74206265207a65726f000000000060448201526064016101bc565b600380547fffffffffffffffffffffffff00000000000000000000000000000000000000001673ffffffffffffffffffffffffffffffffffffffff92909216919091179055565b60005473ffffffffffffffffffffffffffffffffffffffff16331461030a576040517f08c379a000000000000000000000000000000000000000000000000000000000815260206004820181905260248201527f4f776e61626c653a2063616c6c6572206973206e6f7420746865206f776e657260448201526064016101bc565b61031460006106f2565b565b60035473ffffffffffffffffffffffffffffffffffffffff163314610397576040517f08c379a000000000000000000000000000000000000000000000000000000000815260206004820152601360248201527f506c6174797075733a20464f5242494444454e0000000000000000000000000060448201526064016101bc565b60026001541415610404576040517f08c379a000000000000000000000000000000000000000000000000000000000815260206004820152601f60248201527f5265656e7472616e637947756172643a207265656e7472616e742063616c6c0060448201526064016101bc565b60026001819055546040517f70a0823100000000000000000000000000000000000000000000000000000000815230600482015273ffffffffffffffffffffffffffffffffffffffff90911690829082906370a0823190602401602060405180830381600087803b15801561047857600080fd5b505af115801561048c573d6000803e3d6000fd5b505050506040513d601f19601f820116820180604052508101906104b09190610916565b1015610518576040517f08c379a000000000000000000000000000000000000000000000000000000000815260206004820152601b60248201527f506c6174797075733a20494e53554646494349454e545f57455448000000000060448201526064016101bc565b6040517f2e1a7d4d0000000000000000000000000000000000000000000000000000000081526004810183905273ffffffffffffffffffffffffffffffffffffffff821690632e1a7d4d90602401600060405180830381600087803b15801561058057600080fd5b505af1158015610594573d6000803e3d6000fd5b506105b99250505073ffffffffffffffffffffffffffffffffffffffff841683610767565b50506001805550565b60005473ffffffffffffffffffffffffffffffffffffffff163314610643576040517f08c379a000000000000000000000000000000000000000000000000000000000815260206004820181905260248201527f4f776e61626c653a2063616c6c6572206973206e6f7420746865206f776e657260448201526064016101bc565b73ffffffffffffffffffffffffffffffffffffffff81166106e6576040517f08c379a000000000000000000000000000000000000000000000000000000000815260206004820152602660248201527f4f776e61626c653a206e6577206f776e657220697320746865207a65726f206160448201527f646472657373000000000000000000000000000000000000000000000000000060648201526084016101bc565b6106ef816106f2565b50565b6000805473ffffffffffffffffffffffffffffffffffffffff8381167fffffffffffffffffffffffff0000000000000000000000000000000000000000831681178455604051919092169283917f8be0079c531659141344cd1fd0a4f28419497f9722a3daafe3b4186f6b6457e09190a35050565b804710156107d1576040517f08c379a000000000000000000000000000000000000000000000000000000000815260206004820152601d60248201527f416464726573733a20696e73756666696369656e742062616c616e636500000060448201526064016101bc565b60008273ffffffffffffffffffffffffffffffffffffffff168260405160006040518083038185875af1925050503d806000811461082b576040519150601f19603f3d011682016040523d82523d6000602084013e610830565b606091505b50509050806108c1576040517f08c379a000000000000000000000000000000000000000000000000000000000815260206004820152603a60248201527f416464726573733a20756e61626c6520746f2073656e642076616c75652c207260448201527f6563697069656e74206d6179206861766520726576657274656400000000000060648201526084016101bc565b505050565b6000602082840312156108d857600080fd5b81356108e38161095e565b9392505050565b600080604083850312156108fd57600080fd5b82356109088161095e565b946020939093013593505050565b60006020828403121561092857600080fd5b5051919050565b7f4e487b7100000000000000000000000000000000000000000000000000000000600052600160045260246000fd5b73ffffffffffffffffffffffffffffffffffffffff811681146106ef57600080fdfea2646970667358221220b0ec832f8e002248122c1d4d85218fa7b42837969a45856cce18b29c4f7cd07c64736f6c63430008050033",
  "devdoc": {
    "details": "Allows transfer of WETH avoiding out-of-gas error (in case pool is ever deployed through proxy).",
    "kind": "dev",
    "methods": {
      "constructor": {
        "params": {
          "weth": "The weth address to be used."
        }
      },
      "owner()": {
        "details": "Returns the address of the current owner."
      },
      "renounceOwnership()": {
        "details": "Leaves the contract without owner. It will not be possible to call `onlyOwner` functions anymore. Can only be called by the current owner. NOTE: Renouncing ownership will leave the contract without an owner, thereby removing any functionality that is only available to the owner."
      },
      "setPool(address)": {
        "params": {
          "pool": "new contract pool address"
        }
      },
      "transferOwnership(address)": {
        "details": "Transfers ownership of the contract to a new account (`newOwner`). Can only be called by the current owner."
      },
      "unwrapAndTransfer(address,uint256)": {
        "params": {
          "amount": "total amount to be transferred",
          "to": "address receiving"
        }
      }
    },
    "title": "WETHForwarder",
    "version": 1
  },
  "userdoc": {
    "kind": "user",
    "methods": {
      "constructor": {
        "notice": "Constructor."
      },
      "setPool(address)": {
        "notice": "Changes the pool. Can only be set by the contract owner."
      },
      "unwrapAndTransfer(address,uint256)": {
        "notice": "Unwrap and transfer eth. Can only be called by pool"
      }
    },
    "notice": "Temporary WETH holder and is responsible to unwrap and forward actual ETH to user",
    "version": 1
  },
  "storageLayout": {
    "storage": [
      {
        "astId": 392,
        "contract": "contracts/pool/WETHForwarder.sol:WETHForwarder",
        "label": "_owner",
        "offset": 0,
        "slot": "0",
        "type": "t_address"
      },
      {
        "astId": 499,
        "contract": "contracts/pool/WETHForwarder.sol:WETHForwarder",
        "label": "_status",
        "offset": 0,
        "slot": "1",
        "type": "t_uint256"
      },
      {
        "astId": 4618,
        "contract": "contracts/pool/WETHForwarder.sol:WETHForwarder",
        "label": "_weth",
        "offset": 0,
        "slot": "2",
        "type": "t_address"
      },
      {
        "astId": 4621,
        "contract": "contracts/pool/WETHForwarder.sol:WETHForwarder",
        "label": "_pool",
        "offset": 0,
        "slot": "3",
        "type": "t_address"
      }
    ],
    "types": {
      "t_address": {
        "encoding": "inplace",
        "label": "address",
        "numberOfBytes": "20"
      },
      "t_uint256": {
        "encoding": "inplace",
        "label": "uint256",
        "numberOfBytes": "32"
      }
    }
  }
}