{
  "address": "0xAB8D5b703edBed5733271d1Af5134e1C667dda0D",
  "abi": [
    {
      "inputs": [
        {
          "internalType": "address",
          "name": "underlyingToken_",
          "type": "address"
        },
        {
          "internalType": "string",
          "name": "name_",
          "type": "string"
        },
        {
          "internalType": "string",
          "name": "symbol_",
          "type": "string"
        }
      ],
      "stateMutability": "nonpayable",
      "type": "constructor"
    },
    {
      "inputs": [],
      "name": "ASSET_OVERFLOW",
      "type": "error"
    },
    {
      "inputs": [],
      "name": "WOMBAT_FORBIDDEN",
      "type": "error"
    },
    {
      "anonymous": false,
      "inputs": [
        {
          "indexed": true,
          "internalType": "address",
          "name": "owner",
          "type": "address"
        },
        {
          "indexed": true,
          "internalType": "address",
          "name": "spender",
          "type": "address"
        },
        {
          "indexed": false,
          "internalType": "uint256",
          "name": "value",
          "type": "uint256"
        }
      ],
      "name": "Approval",
      "type": "event"
    },
    {
      "anonymous": false,
      "inputs": [
        {
          "indexed": true,
          "internalType": "address",
          "name": "previousOwner",
          "type": "address"
        },
        {
          "indexed": true,
          "internalType": "address",
          "name": "newOwner",
          "type": "address"
        }
      ],
      "name": "OwnershipTransferred",
      "type": "event"
    },
    {
      "anonymous": false,
      "inputs": [
        {
          "indexed": false,
          "internalType": "uint256",
          "name": "previousMaxSupply",
          "type": "uint256"
        },
        {
          "indexed": false,
          "internalType": "uint256",
          "name": "newMaxSupply",
          "type": "uint256"
        }
      ],
      "name": "SetMaxSupply",
      "type": "event"
    },
    {
      "anonymous": false,
      "inputs": [
        {
          "indexed": false,
          "internalType": "address",
          "name": "previousPoolAddr",
          "type": "address"
        },
        {
          "indexed": false,
          "internalType": "address",
          "name": "newPoolAddr",
          "type": "address"
        }
      ],
      "name": "SetPool",
      "type": "event"
    },
    {
      "anonymous": false,
      "inputs": [
        {
          "indexed": true,
          "internalType": "address",
          "name": "from",
          "type": "address"
        },
        {
          "indexed": true,
          "internalType": "address",
          "name": "to",
          "type": "address"
        },
        {
          "indexed": false,
          "internalType": "uint256",
          "name": "value",
          "type": "uint256"
        }
      ],
      "name": "Transfer",
      "type": "event"
    },
    {
      "inputs": [],
      "name": "DOMAIN_SEPARATOR",
      "outputs": [
        {
          "internalType": "bytes32",
          "name": "",
          "type": "bytes32"
        }
      ],
      "stateMutability": "view",
      "type": "function"
    },
    {
      "inputs": [
        {
          "internalType": "uint256",
          "name": "amount",
          "type": "uint256"
        }
      ],
      "name": "addCash",
      "outputs": [],
      "stateMutability": "nonpayable",
      "type": "function"
    },
    {
      "inputs": [
        {
          "internalType": "uint256",
          "name": "amount",
          "type": "uint256"
        }
      ],
      "name": "addLiability",
      "outputs": [],
      "stateMutability": "nonpayable",
      "type": "function"
    },
    {
      "inputs": [
        {
          "internalType": "address",
          "name": "owner",
          "type": "address"
        },
        {
          "internalType": "address",
          "name": "spender",
          "type": "address"
        }
      ],
      "name": "allowance",
      "outputs": [
        {
          "internalType": "uint256",
          "name": "",
          "type": "uint256"
        }
      ],
      "stateMutability": "view",
      "type": "function"
    },
    {
      "inputs": [
        {
          "internalType": "address",
          "name": "spender",
          "type": "address"
        },
        {
          "internalType": "uint256",
          "name": "amount",
          "type": "uint256"
        }
      ],
      "name": "approve",
      "outputs": [
        {
          "internalType": "bool",
          "name": "",
          "type": "bool"
        }
      ],
      "stateMutability": "nonpayable",
      "type": "function"
    },
    {
      "inputs": [
        {
          "internalType": "address",
          "name": "account",
          "type": "address"
        }
      ],
      "name": "balanceOf",
      "outputs": [
        {
          "internalType": "uint256",
          "name": "",
          "type": "uint256"
        }
      ],
      "stateMutability": "view",
      "type": "function"
    },
    {
      "inputs": [
        {
          "internalType": "address",
          "name": "to",
          "type": "address"
        },
        {
          "internalType": "uint256",
          "name": "amount",
          "type": "uint256"
        }
      ],
      "name": "burn",
      "outputs": [],
      "stateMutability": "nonpayable",
      "type": "function"
    },
    {
      "inputs": [],
      "name": "cash",
      "outputs": [
        {
          "internalType": "uint120",
          "name": "",
          "type": "uint120"
        }
      ],
      "stateMutability": "view",
      "type": "function"
    },
    {
      "inputs": [],
      "name": "decimals",
      "outputs": [
        {
          "internalType": "uint8",
          "name": "",
          "type": "uint8"
        }
      ],
      "stateMutability": "view",
      "type": "function"
    },
    {
      "inputs": [
        {
          "internalType": "address",
          "name": "spender",
          "type": "address"
        },
        {
          "internalType": "uint256",
          "name": "subtractedValue",
          "type": "uint256"
        }
      ],
      "name": "decreaseAllowance",
      "outputs": [
        {
          "internalType": "bool",
          "name": "",
          "type": "bool"
        }
      ],
      "stateMutability": "nonpayable",
      "type": "function"
    },
    {
      "inputs": [
        {
          "internalType": "address",
          "name": "spender",
          "type": "address"
        },
        {
          "internalType": "uint256",
          "name": "addedValue",
          "type": "uint256"
        }
      ],
      "name": "increaseAllowance",
      "outputs": [
        {
          "internalType": "bool",
          "name": "",
          "type": "bool"
        }
      ],
      "stateMutability": "nonpayable",
      "type": "function"
    },
    {
      "inputs": [],
      "name": "liability",
      "outputs": [
        {
          "internalType": "uint120",
          "name": "",
          "type": "uint120"
        }
      ],
      "stateMutability": "view",
      "type": "function"
    },
    {
      "inputs": [],
      "name": "maxSupply",
      "outputs": [
        {
          "internalType": "uint256",
          "name": "",
          "type": "uint256"
        }
      ],
      "stateMutability": "view",
      "type": "function"
    },
    {
      "inputs": [
        {
          "internalType": "address",
          "name": "to",
          "type": "address"
        },
        {
          "internalType": "uint256",
          "name": "amount",
          "type": "uint256"
        }
      ],
      "name": "mint",
      "outputs": [],
      "stateMutability": "nonpayable",
      "type": "function"
    },
    {
      "inputs": [],
      "name": "name",
      "outputs": [
        {
          "internalType": "string",
          "name": "",
          "type": "string"
        }
      ],
      "stateMutability": "view",
      "type": "function"
    },
    {
      "inputs": [
        {
          "internalType": "address",
          "name": "owner",
          "type": "address"
        }
      ],
      "name": "nonces",
      "outputs": [
        {
          "internalType": "uint256",
          "name": "",
          "type": "uint256"
        }
      ],
      "stateMutability": "view",
      "type": "function"
    },
    {
      "inputs": [],
      "name": "owner",
      "outputs": [
        {
          "internalType": "address",
          "name": "",
          "type": "address"
        }
      ],
      "stateMutability": "view",
      "type": "function"
    },
    {
      "inputs": [
        {
          "internalType": "address",
          "name": "owner",
          "type": "address"
        },
        {
          "internalType": "address",
          "name": "spender",
          "type": "address"
        },
        {
          "internalType": "uint256",
          "name": "value",
          "type": "uint256"
        },
        {
          "internalType": "uint256",
          "name": "deadline",
          "type": "uint256"
        },
        {
          "internalType": "uint8",
          "name": "v",
          "type": "uint8"
        },
        {
          "internalType": "bytes32",
          "name": "r",
          "type": "bytes32"
        },
        {
          "internalType": "bytes32",
          "name": "s",
          "type": "bytes32"
        }
      ],
      "name": "permit",
      "outputs": [],
      "stateMutability": "nonpayable",
      "type": "function"
    },
    {
      "inputs": [],
      "name": "pool",
      "outputs": [
        {
          "internalType": "address",
          "name": "",
          "type": "address"
        }
      ],
      "stateMutability": "view",
      "type": "function"
    },
    {
      "inputs": [
        {
          "internalType": "uint256",
          "name": "amount",
          "type": "uint256"
        }
      ],
      "name": "removeCash",
      "outputs": [],
      "stateMutability": "nonpayable",
      "type": "function"
    },
    {
      "inputs": [
        {
          "internalType": "uint256",
          "name": "amount",
          "type": "uint256"
        }
      ],
      "name": "removeLiability",
      "outputs": [],
      "stateMutability": "nonpayable",
      "type": "function"
    },
    {
      "inputs": [],
      "name": "renounceOwnership",
      "outputs": [],
      "stateMutability": "nonpayable",
      "type": "function"
    },
    {
      "inputs": [
        {
          "internalType": "uint256",
          "name": "maxSupply_",
          "type": "uint256"
        }
      ],
      "name": "setMaxSupply",
      "outputs": [],
      "stateMutability": "nonpayable",
      "type": "function"
    },
    {
      "inputs": [
        {
          "internalType": "address",
          "name": "pool_",
          "type": "address"
        }
      ],
      "name": "setPool",
      "outputs": [],
      "stateMutability": "nonpayable",
      "type": "function"
    },
    {
      "inputs": [],
      "name": "symbol",
      "outputs": [
        {
          "internalType": "string",
          "name": "",
          "type": "string"
        }
      ],
      "stateMutability": "view",
      "type": "function"
    },
    {
      "inputs": [],
      "name": "totalSupply",
      "outputs": [
        {
          "internalType": "uint256",
          "name": "",
          "type": "uint256"
        }
      ],
      "stateMutability": "view",
      "type": "function"
    },
    {
      "inputs": [
        {
          "internalType": "address",
          "name": "to",
          "type": "address"
        },
        {
          "internalType": "uint256",
          "name": "amount",
          "type": "uint256"
        }
      ],
      "name": "transfer",
      "outputs": [
        {
          "internalType": "bool",
          "name": "",
          "type": "bool"
        }
      ],
      "stateMutability": "nonpayable",
      "type": "function"
    },
    {
      "inputs": [
        {
          "internalType": "address",
          "name": "from",
          "type": "address"
        },
        {
          "internalType": "address",
          "name": "to",
          "type": "address"
        },
        {
          "internalType": "uint256",
          "name": "amount",
          "type": "uint256"
        }
      ],
      "name": "transferFrom",
      "outputs": [
        {
          "internalType": "bool",
          "name": "",
          "type": "bool"
        }
      ],
      "stateMutability": "nonpayable",
      "type": "function"
    },
    {
      "inputs": [
        {
          "internalType": "address",
          "name": "newOwner",
          "type": "address"
        }
      ],
      "name": "transferOwnership",
      "outputs": [],
      "stateMutability": "nonpayable",
      "type": "function"
    },
    {
      "inputs": [
        {
          "internalType": "address",
          "name": "to",
          "type": "address"
        },
        {
          "internalType": "uint256",
          "name": "amount",
          "type": "uint256"
        }
      ],
      "name": "transferUnderlyingToken",
      "outputs": [],
      "stateMutability": "nonpayable",
      "type": "function"
    },
    {
      "inputs": [],
      "name": "underlyingToken",
      "outputs": [
        {
          "internalType": "address",
          "name": "",
          "type": "address"
        }
      ],
      "stateMutability": "view",
      "type": "function"
    },
    {
      "inputs": [],
      "name": "underlyingTokenBalance",
      "outputs": [
        {
          "internalType": "uint256",
          "name": "",
          "type": "uint256"
        }
      ],
      "stateMutability": "view",
      "type": "function"
    },
    {
      "inputs": [],
      "name": "underlyingTokenDecimals",
      "outputs": [
        {
          "internalType": "uint8",
          "name": "",
          "type": "uint8"
        }
      ],
      "stateMutability": "view",
      "type": "function"
    }
  ],
  "transactionHash": "0xde11efcff8d164b89d40cd7f230f73de48da77032298566562e2453b612166ec",
  "args": [
    "0x5cf1c3F9c0EaBCd0EFF825C0d5c8A8B16b11626a",
    "Wombat Decentralized USD Asset",
    "LP-USDD"
  ],
  "numDeployments": 1,
  "solcInputHash": "a401cfd8cd19e00a7ec098c42ae9513a",
  "bytecode": "0x610180604090808252346200050757620022e980380380916200002382856200050c565b83398101606082820312620005075781516001600160a01b038082169490858303620005075760208581015190956001600160401b03918281116200050757866200007091830162000530565b9584820151838111620005075762000089920162000530565b9583519684880188811084821117620004f157855260019687895282890191603160f81b83526000958654903360018060a01b031983161788553391167f8be0079c531659141344cd1fd0a4f28419497f9722a3daafe3b4186f6b6457e08880a3815198858a11620004dd576004998a54908282811c92168015620004d2575b87831014620004bf57601f9182811162000477575b50808783821160011462000415578a9162000409575b50600019600383901b1c191690831b178b555b825190878211620003f65760059384548481811c91168015620003eb575b89821014620003d75782811162000391575b50879183116001146200032d579282939183928b9462000321575b50501b916000199060031b1c19161790555b82815191012097519020958760e05261010098878a524660a052855197838901907f8b73c3c69bb8fe3d512ecc4cf759cc79239f7b179b0ffacaa9a75d522b39400f9a8b8352888b015260608a01524660808a01523060a08a015260a0895260c0890194898610908611176200030e57848752885190206080523060c05261012098895261014096875263313ce56760e01b84528291849182905afa95861562000304578396620002b7575b505050506101609283525192611d419485620005a8863960805185611b51015260a05185611c1d015260c05185611b22015260e05185611ba001525184611bc601525183611b7d01525182818161084301528181610bd1015261128501525181610ded0152f35b908092939496503d8311620002fc575b620002d381856200050c565b81010312620002f857519060ff82168203620002f55750913880808062000250565b80fd5b5080fd5b503d620002c7565b84513d85823e3d90fd5b634e487b7160e01b865260418352602486fd5b01519250388062000192565b848a52878a20919083601f1981168c5b8b888383106200037957505050106200035f575b505050811b019055620001a4565b015160001960f88460031b161c1916905538808062000351565b8686015188559096019594850194879350016200033d565b858b52888b2083808601881c8201928b8710620003cd575b01871c019085905b828110620003c157505062000177565b8c8155018590620003b1565b92508192620003a9565b50634e487b7160e01b8a5260228d5260248afd5b90607f169062000165565b634e487b7160e01b895260418c52602489fd5b90508501513862000134565b8d8b52888b2085935090601f1983168c5b8b82821062000460575050831162000446575b5050811b018b5562000147565b87015160001960f88460031b161c19169055388062000439565b838b01518555889690940193928301920162000426565b8c8a52878a208380840160051c8201928a8510620004b5575b0160051c019084905b828110620004a95750506200011e565b8b815501849062000499565b9250819262000490565b634e487b7160e01b895260228c52602489fd5b91607f169162000109565b634e487b7160e01b87526041600452602487fd5b634e487b7160e01b600052604160045260246000fd5b600080fd5b601f909101601f19168101906001600160401b03821190821017620004f157604052565b919080601f8401121562000507578251906001600160401b038211620004f157604051916020916200056c601f8301601f19168401856200050c565b818452828287010111620005075760005b8181106200059357508260009394955001015290565b85810183015184820184015282016200057d56fe6080604081815260048036101561001557600080fd5b600092833560e01c90816306fdde031461143057508063095ea7b31461140657806316c9e7a0146113bb57806316f0115b1461139357806318160ddd1461137457806323b872dd146112a95780632495a59914611265578063313ce567146112495780633644e5151461122557806339509351146111d657806340c10f191461101e5780634437152a14610f2c5780636f8b44b014610ed9578063705727b514610eae57806370a0823114610e77578063715018a614610e115780637284168a14610dd35780637ecebe0014610d9c5780638da5cb5b14610d7657806395d89b4114610c74578063961be39114610c4c57806399c91a6414610b845780639dc29fac14610a0f5780639e79eaa5146108115780639f9ef98814610760578063a0f0f604146106ab578063a457c2d7146105eb578063a9059cbb146105ba578063d505accf146103d3578063d5abeb01146103b4578063d8b87853146102c4578063dd62ed3e146102775763f2fde38b1461018e57600080fd5b34610273576020366003190112610273576101a761156d565b906101b061159e565b6001600160a01b0380921692831561020a57505082548273ffffffffffffffffffffffffffffffffffffffff198216178455167f8be0079c531659141344cd1fd0a4f28419497f9722a3daafe3b4186f6b6457e08380a380f35b906020608492519162461bcd60e51b8352820152602660248201527f4f776e61626c653a206e6577206f776e657220697320746865207a65726f206160448201527f64647265737300000000000000000000000000000000000000000000000000006064820152fd5b8280fd5b5050346102c057806003193601126102c0578060209261029561156d565b61029d611588565b6001600160a01b0391821683526002865283832091168252845220549051908152f35b5080fd5b509034610273576020366003190112610273578135916001600160a01b036008541633036103a657600954926001600160781b0391828560781c16938285106103635750507fffff000000000000000000000000000000ffffffffffffffffffffffffffffff927dffffffffffffffffffffffffffffff00000000000000000000000000000092610356921690611cf2565b60781b1691161760095580f35b906020606492519162461bcd60e51b8352820152601e60248201527f576f6d6261743a20494e53554646494349454e545f4c494142494c49545900006044820152fd5b90516316fde3bd60e21b8152fd5b5050346102c057816003193601126102c057602090600a549051908152f35b508290346102c05760e03660031901126102c0576103ef61156d565b6103f7611588565b906044359260643560843560ff811681036105b657814211610573576001600160a01b0390818516928389526006602052898920908154916001830190558a519060208201927f6e71edae12b1b97f4d1f60370fef10105fa2faae0126114a169c64845d6126c98452868d840152858a1660608401528a608084015260a083015260c082015260c0815260e0810181811067ffffffffffffffff821117610560578b5251902061050891610500916104ad611b18565b918c519160208301937f1901000000000000000000000000000000000000000000000000000000000000855260228401526042830152604282526104f0826115f6565b60c4359260a43592519020611a89565b919091611957565b160361051d575061051a939450611823565b80f35b606490602087519162461bcd60e51b8352820152601e60248201527f45524332305065726d69743a20696e76616c6964207369676e617475726500006044820152fd5b60248b604189634e487b7160e01b835252fd5b60648360208a519162461bcd60e51b8352820152601d60248201527f45524332305065726d69743a206578706972656420646561646c696e650000006044820152fd5b8680fd5b5050346102c057806003193601126102c0576020906105e46105da61156d565b602435903361166d565b5160018152f35b5082346106a857826003193601126106a85761060561156d565b91836024359233815260026020528181206001600160a01b038616825260205220549082821061063f576020856105e48585038733611823565b608490602086519162461bcd60e51b8352820152602560248201527f45524332303a2064656372656173656420616c6c6f77616e63652062656c6f7760448201527f207a65726f0000000000000000000000000000000000000000000000000000006064820152fd5b80fd5b509034610273576020366003190112610273578135916001600160a01b036008541633036103a6576001600160781b039182841161073a5750507dffffffffffffffffffffffffffffff000000000000000000000000000000610356827fffff000000000000000000000000000000ffffffffffffffffffffffffffffff936009549516908560781c16611cd7565b517fd305209a000000000000000000000000000000000000000000000000000000008152fd5b5034610273576020366003190112610273578035916001600160a01b0360085416330361080457600954926001600160781b0392838516928284106107c157505090826107ae921690611cf2565b16906001600160781b0319161760095580f35b906020606492519162461bcd60e51b8352820152601960248201527f576f6d6261743a20494e53554646494349454e545f43415348000000000000006044820152fd5b516316fde3bd60e21b8152fd5b50903461027357806003193601126102735761082b61156d565b906001600160a01b039182600854163303610a0057827f000000000000000000000000000000000000000000000000000000000000000016825190602094858301937fa9059cbb0000000000000000000000000000000000000000000000000000000085521660248301526024356044830152604482526108ab826115f6565b83519267ffffffffffffffff92848601848111868210176109ed5786528685527f5361666545524332303a206c6f772d6c6576656c2063616c6c206661696c65648588015251889182919082855af1903d156109de573d9283116109cb579061093393929185519261092688601f19601f8401160185611628565b83523d898885013e611c43565b80518061093e578580f35b818491810103126109c7578201518015908115036109c7576109605780808580f35b60849350519162461bcd60e51b8352820152602a60248201527f5361666545524332303a204552433230206f7065726174696f6e20646964206e60448201527f6f742073756363656564000000000000000000000000000000000000000000006064820152fd5b8480fd5b602488604189634e487b7160e01b835252fd5b90610933939250606091611c43565b60248a60418b634e487b7160e01b835252fd5b8382516316fde3bd60e21b8152fd5b508290346102c057826003193601126102c057610a2a61156d565b602435906001600160a01b039081600854163303610b755716918215610b0c5782845260016020528484205490828210610aa357508184957fddf252ad1be2c89b69c2b068fc378daa952ba7f163c4a11628f55a4df523b3ef93602093868852600185520381872055816003540360035551908152a380f35b608490602087519162461bcd60e51b8352820152602260248201527f45524332303a206275726e20616d6f756e7420657863656564732062616c616e60448201527f63650000000000000000000000000000000000000000000000000000000000006064820152fd5b608490602086519162461bcd60e51b8352820152602160248201527f45524332303a206275726e2066726f6d20746865207a65726f2061646472657360448201527f73000000000000000000000000000000000000000000000000000000000000006064820152fd5b8386516316fde3bd60e21b8152fd5b5090346102735782600319360112610273578051917f70a0823100000000000000000000000000000000000000000000000000000000835230908301526020826024816001600160a01b037f0000000000000000000000000000000000000000000000000000000000000000165afa918215610c42578392610c0b575b6020838351908152f35b9091506020813d8211610c3a575b81610c2660209383611628565b810103126102735760209250519038610c01565b3d9150610c19565b81513d85823e3d90fd5b5050346102c057816003193601126102c0576020906001600160781b03600954169051908152f35b509034610273578260031936011261027357805191836005549060019082821c928281168015610d6c575b6020958686108214610d595750848852908115610d375750600114610cde575b610cda8686610cd0828b0383611628565b5191829182611524565b0390f35b929550600583527f036b6384b5eca791c62761152d0c79bb0604c104a5fb6f4eb0703f3154bb3db05b828410610d245750505082610cda94610cd0928201019438610cbf565b8054868501880152928601928101610d07565b60ff191687860152505050151560051b8301019250610cd082610cda38610cbf565b836022602492634e487b7160e01b835252fd5b93607f1693610c9f565b5050346102c057816003193601126102c0576001600160a01b0360209254169051908152f35b5050346102c05760203660031901126102c057806020926001600160a01b03610dc361156d565b1681526006845220549051908152f35b5050346102c057816003193601126102c0576020905160ff7f0000000000000000000000000000000000000000000000000000000000000000168152f35b83346106a857806003193601126106a857610e2a61159e565b806001600160a01b03815473ffffffffffffffffffffffffffffffffffffffff1981168355167f8be0079c531659141344cd1fd0a4f28419497f9722a3daafe3b4186f6b6457e08280a380f35b5050346102c05760203660031901126102c057806020926001600160a01b03610e9e61156d565b1681526001845220549051908152f35b5050346102c057816003193601126102c0576020906001600160781b0360095460781c169051908152f35b5034610273576020366003190112610273577f4e4144d58c74765aab6b864c8cb807767198960f6ae6b4b135c56d41b639b7fe903591610f1761159e565b600a548151908152836020820152a1600a5580f35b50903461027357602036600319011261027357610f4761156d565b90610f5061159e565b6001600160a01b03809216928315610fb65750907f390ace337562623e4cf938891cfa7e80b7b2e6ff395963aba93e537ce67e842c73ffffffffffffffffffffffffffffffffffffffff19926008549281519084168152856020820152a1161760085580f35b6020608492519162461bcd60e51b8352820152602360248201527f576f6d6261743a20506f6f6c20616464726573732063616e6e6f74206265207a60448201527f65726f00000000000000000000000000000000000000000000000000000000006064820152fd5b50903461027357806003193601126102735761103861156d565b90602435916001600160a01b0390816008541633036111c757600a54806110f3575b50169283156110b157506020827fddf252ad1be2c89b69c2b068fc378daa952ba7f163c4a11628f55a4df523b3ef92611096879560035461164a565b6003558585526001835280852082815401905551908152a380f35b6020606492519162461bcd60e51b8352820152601f60248201527f45524332303a206d696e7420746f20746865207a65726f2061646472657373006044820152fd5b83517f18160ddd0000000000000000000000000000000000000000000000000000000081526020818881305afa80156111bd578890611186575b61113891508661164a565b11611143573861105a565b606485602085519162461bcd60e51b8352820152601a60248201527f576f6d6261743a204d41585f535550504c595f524541434845440000000000006044820152fd5b506020813d82116111b5575b8161119f60209383611628565b810103126111b157611138905161112d565b8780fd5b3d9150611192565b85513d8a823e3d90fd5b8483516316fde3bd60e21b8152fd5b5050346102c057806003193601126102c0576105e460209261121e6111f961156d565b91338152600286528481206001600160a01b038416825286528460243591205461164a565b9033611823565b5050346102c057816003193601126102c057602090611242611b18565b9051908152f35b5050346102c057816003193601126102c0576020905160128152f35b5050346102c057816003193601126102c057602090516001600160a01b037f0000000000000000000000000000000000000000000000000000000000000000168152f35b508290346102c05760603660031901126102c0576112c561156d565b6112cd611588565b9184604435946001600160a01b038416815260026020528181203382526020522054906000198203611308575b6020866105e487878761166d565b8482106113315750918391611326602096956105e495033383611823565b9193948193506112fa565b606490602087519162461bcd60e51b8352820152601d60248201527f45524332303a20696e73756666696369656e7420616c6c6f77616e63650000006044820152fd5b5050346102c057816003193601126102c0576020906003549051908152f35b5050346102c057816003193601126102c0576020906001600160a01b03600854169051908152f35b509034610273576020366003190112610273578135916001600160a01b036008541633036103a6576001600160781b039182841161073a5750506107ae816009549316828416611cd7565b5050346102c057806003193601126102c0576020906105e461142661156d565b6024359033611823565b90508284346106a857806003193601126106a857809380549160019083821c9282851694851561151a575b6020958686108114611507578589529081156114e3575060011461148b575b610cda8787610cd0828c0383611628565b81529295507f8a35acfbc15ff81a39ae7d344fd709f28e8600b4aa8c65c6b64bfe7fe36bd19b5b8284106114d05750505082610cda94610cd09282010194868061147a565b80548685018801529286019281016114b2565b60ff19168887015250505050151560051b8301019250610cd082610cda868061147a565b602484602285634e487b7160e01b835252fd5b93607f169361145b565b6020808252825181830181905290939260005b82811061155957505060409293506000838284010152601f8019910116010190565b818101860151848201604001528501611537565b600435906001600160a01b038216820361158357565b600080fd5b602435906001600160a01b038216820361158357565b6001600160a01b036000541633036115b257565b606460405162461bcd60e51b815260206004820152602060248201527f4f776e61626c653a2063616c6c6572206973206e6f7420746865206f776e65726044820152fd5b6080810190811067ffffffffffffffff82111761161257604052565b634e487b7160e01b600052604160045260246000fd5b90601f8019910116810190811067ffffffffffffffff82111761161257604052565b9190820180921161165757565b634e487b7160e01b600052601160045260246000fd5b6001600160a01b038091169182156117b9571691821561174f57600082815260016020526040812054918083106116e557604082827fddf252ad1be2c89b69c2b068fc378daa952ba7f163c4a11628f55a4df523b3ef95876020965260018652038282205586815220818154019055604051908152a3565b608460405162461bcd60e51b815260206004820152602660248201527f45524332303a207472616e7366657220616d6f756e742065786365656473206260448201527f616c616e636500000000000000000000000000000000000000000000000000006064820152fd5b608460405162461bcd60e51b815260206004820152602360248201527f45524332303a207472616e7366657220746f20746865207a65726f206164647260448201527f65737300000000000000000000000000000000000000000000000000000000006064820152fd5b608460405162461bcd60e51b815260206004820152602560248201527f45524332303a207472616e736665722066726f6d20746865207a65726f20616460448201527f64726573730000000000000000000000000000000000000000000000000000006064820152fd5b6001600160a01b038091169182156118ee57169182156118845760207f8c5be1e5ebec7d5bd14f71427d1e84f3dd0314c0f7b2291e5b200ac8c7c3b925918360005260028252604060002085600052825280604060002055604051908152a3565b608460405162461bcd60e51b815260206004820152602260248201527f45524332303a20617070726f766520746f20746865207a65726f20616464726560448201527f73730000000000000000000000000000000000000000000000000000000000006064820152fd5b608460405162461bcd60e51b8152602060048201526024808201527f45524332303a20617070726f76652066726f6d20746865207a65726f2061646460448201527f72657373000000000000000000000000000000000000000000000000000000006064820152fd5b6005811015611a7357806119685750565b600181036119b457606460405162461bcd60e51b815260206004820152601860248201527f45434453413a20696e76616c6964207369676e617475726500000000000000006044820152fd5b60028103611a0057606460405162461bcd60e51b815260206004820152601f60248201527f45434453413a20696e76616c6964207369676e6174757265206c656e677468006044820152fd5b600314611a0957565b608460405162461bcd60e51b815260206004820152602260248201527f45434453413a20696e76616c6964207369676e6174757265202773272076616c60448201527f75650000000000000000000000000000000000000000000000000000000000006064820152fd5b634e487b7160e01b600052602160045260246000fd5b9291907f7fffffffffffffffffffffffffffffff5d576e7357a4501ddfe92f46681b20a08311611b0c5791608094939160ff602094604051948552168484015260408301526060820152600093849182805260015afa15611aff5781516001600160a01b03811615611af9579190565b50600190565b50604051903d90823e3d90fd5b50505050600090600390565b6001600160a01b037f000000000000000000000000000000000000000000000000000000000000000016301480611c1a575b15611b73577f000000000000000000000000000000000000000000000000000000000000000090565b60405160208101907f000000000000000000000000000000000000000000000000000000000000000082527f000000000000000000000000000000000000000000000000000000000000000060408201527f000000000000000000000000000000000000000000000000000000000000000060608201524660808201523060a082015260a0815260c0810181811067ffffffffffffffff8211176116125760405251902090565b507f00000000000000000000000000000000000000000000000000000000000000004614611b4a565b91929015611ca45750815115611c57575090565b3b15611c605790565b606460405162461bcd60e51b815260206004820152601d60248201527f416464726573733a2063616c6c20746f206e6f6e2d636f6e74726163740000006044820152fd5b825190915015611cb75750805190602001fd5b611cd39060405191829162461bcd60e51b835260048301611524565b0390fd5b9190916001600160781b038080941691160191821161165757565b6001600160781b0391821690821603919082116116575756fea2646970667358221220336b1567c66aca9bfad7b553bad1642d233d2d7de0974bd99a9eb127b2d9caea64736f6c63430008120033",
  "devdoc": {
    "details": "Expect to be owned by Timelock for management, and pool links to Pool for coordination",
    "events": {
      "Approval(address,address,uint256)": {
        "details": "Emitted when the allowance of a `spender` for an `owner` is set by a call to {approve}. `value` is the new allowance."
      },
      "Transfer(address,address,uint256)": {
        "details": "Emitted when `value` tokens are moved from one account (`from`) to another (`to`). Note that `value` may be zero."
      }
    },
    "kind": "dev",
    "methods": {
      "DOMAIN_SEPARATOR()": {
        "details": "See {IERC20Permit-DOMAIN_SEPARATOR}."
      },
      "addCash(uint256)": {
        "params": {
          "amount": "amount to add"
        }
      },
      "addLiability(uint256)": {
        "params": {
          "amount": "amount to add"
        }
      },
      "allowance(address,address)": {
        "details": "See {IERC20-allowance}."
      },
      "approve(address,uint256)": {
        "details": "See {IERC20-approve}. NOTE: If `amount` is the maximum `uint256`, the allowance is not updated on `transferFrom`. This is semantically equivalent to an infinite approval. Requirements: - `spender` cannot be the zero address."
      },
      "balanceOf(address)": {
        "details": "See {IERC20-balanceOf}."
      },
      "burn(address,uint256)": {
        "params": {
          "amount": "amount to burn",
          "to": "address holding the tokens"
        }
      },
      "constructor": {
        "params": {
          "name_": "The name of the asset",
          "symbol_": "The symbol of the asset",
          "underlyingToken_": "The token represented by the asset"
        }
      },
      "decimals()": {
        "returns": {
          "_0": "decimals for asset"
        }
      },
      "decreaseAllowance(address,uint256)": {
        "details": "Atomically decreases the allowance granted to `spender` by the caller. This is an alternative to {approve} that can be used as a mitigation for problems described in {IERC20-approve}. Emits an {Approval} event indicating the updated allowance. Requirements: - `spender` cannot be the zero address. - `spender` must have allowance for the caller of at least `subtractedValue`."
      },
      "increaseAllowance(address,uint256)": {
        "details": "Atomically increases the allowance granted to `spender` by the caller. This is an alternative to {approve} that can be used as a mitigation for problems described in {IERC20-approve}. Emits an {Approval} event indicating the updated allowance. Requirements: - `spender` cannot be the zero address."
      },
      "mint(address,uint256)": {
        "params": {
          "amount": "amount to transfer",
          "to": "address to transfer the token to"
        }
      },
      "name()": {
        "details": "Returns the name of the token."
      },
      "nonces(address)": {
        "details": "See {IERC20Permit-nonces}."
      },
      "owner()": {
        "details": "Returns the address of the current owner."
      },
      "permit(address,address,uint256,uint256,uint8,bytes32,bytes32)": {
        "details": "See {IERC20Permit-permit}."
      },
      "removeCash(uint256)": {
        "params": {
          "amount": "amount to remove"
        }
      },
      "removeLiability(uint256)": {
        "params": {
          "amount": "amount to remove"
        }
      },
      "renounceOwnership()": {
        "details": "Leaves the contract without owner. It will not be possible to call `onlyOwner` functions anymore. Can only be called by the current owner. NOTE: Renouncing ownership will leave the contract without an owner, thereby removing any functionality that is only available to the owner."
      },
      "setMaxSupply(uint256)": {
        "params": {
          "maxSupply_": "the new asset's max supply"
        }
      },
      "setPool(address)": {
        "params": {
          "pool_": "new pool's address"
        }
      },
      "symbol()": {
        "details": "Returns the symbol of the token, usually a shorter version of the name."
      },
      "totalSupply()": {
        "details": "See {IERC20-totalSupply}."
      },
      "transfer(address,uint256)": {
        "details": "See {IERC20-transfer}. Requirements: - `to` cannot be the zero address. - the caller must have a balance of at least `amount`."
      },
      "transferFrom(address,address,uint256)": {
        "details": "See {IERC20-transferFrom}. Emits an {Approval} event indicating the updated allowance. This is not required by the EIP. See the note at the beginning of {ERC20}. NOTE: Does not update the allowance if the current allowance is the maximum `uint256`. Requirements: - `from` and `to` cannot be the zero address. - `from` must have a balance of at least `amount`. - the caller must have allowance for ``from``'s tokens of at least `amount`."
      },
      "transferOwnership(address)": {
        "details": "Transfers ownership of the contract to a new account (`newOwner`). Can only be called by the current owner."
      },
      "transferUnderlyingToken(address,uint256)": {
        "details": "Not to be confused with transferring Wombat Assets.",
        "params": {
          "amount": "amount to transfer",
          "to": "address to transfer the token to"
        }
      },
      "underlyingTokenBalance()": {
        "returns": {
          "_0": "Returns the actual balance of ERC20 underlyingToken"
        }
      }
    },
    "stateVariables": {
      "cash": {
        "details": "18.18 fixed point decimals"
      },
      "liability": {
        "details": "18.18 fixed point decimals"
      },
      "maxSupply": {
        "details": "if 0, means asset has no max"
      }
    },
    "title": "Asset",
    "version": 1
  },
  "userdoc": {
    "events": {
      "SetMaxSupply(uint256,uint256)": {
        "notice": "An event thats emitted when max supply is updated"
      },
      "SetPool(address,address)": {
        "notice": "An event thats emitted when pool address is updated"
      }
    },
    "kind": "user",
    "methods": {
      "addCash(uint256)": {
        "notice": "Adds cash, expects actual ERC20 underlyingToken got transferred in. Can only be called by Pool."
      },
      "addLiability(uint256)": {
        "notice": "Adds deposit or dividend, expect LP underlyingToken minted in case of deposit. Can only be called by Pool."
      },
      "burn(address,uint256)": {
        "notice": "Burn ERC20 Asset LP Token, expect pool coordinates other state updates. Can only be called by Pool."
      },
      "cash()": {
        "notice": "Cash balance, normally it should align with IERC20(underlyingToken).balanceOf(address(this))"
      },
      "constructor": {
        "notice": "Constructor."
      },
      "decimals()": {
        "notice": "Returns the decimals of Asset, fixed to 18 decimals"
      },
      "liability()": {
        "notice": "Total liability, equals to the sum of deposit and dividend"
      },
      "maxSupply()": {
        "notice": "maxSupply the maximum amount of asset the pool is allowed to mint. The unit is the same as the underlying token"
      },
      "mint(address,uint256)": {
        "notice": "Mint ERC20 Asset LP Token, expect pool coordinates other state updates. Can only be called by Pool."
      },
      "pool()": {
        "notice": "The Pool"
      },
      "removeCash(uint256)": {
        "notice": "Deducts cash, expect actual ERC20 got transferred out (by transferUnderlyingToken()). Can only be called by Pool."
      },
      "removeLiability(uint256)": {
        "notice": "Removes deposit and dividend earned, expect LP underlyingToken burnt. Can only be called by Pool."
      },
      "setMaxSupply(uint256)": {
        "notice": "Changes asset max supply. Can only be set by the contract owner. 18 decimals"
      },
      "setPool(address)": {
        "notice": "TODO: move pool address setup within contract initializationChanges the pool. Can only be set by the contract owner."
      },
      "transferUnderlyingToken(address,uint256)": {
        "notice": "Transfers ERC20 underlyingToken from this contract to another account. Can only be called by Pool."
      },
      "underlyingToken()": {
        "notice": "The underlying underlyingToken represented by this asset"
      },
      "underlyingTokenBalance()": {
        "notice": "Get underlying Token Balance"
      }
    },
    "notice": "Contract presenting an asset in a pool",
    "version": 1
  },
  "storageLayout": {
    "storage": [
      {
        "astId": 834,
        "contract": "contracts/wombat-core/asset/Asset.sol:Asset",
        "label": "_owner",
        "offset": 0,
        "slot": "0",
        "type": "t_address"
      },
      {
        "astId": 1009,
        "contract": "contracts/wombat-core/asset/Asset.sol:Asset",
        "label": "_balances",
        "offset": 0,
        "slot": "1",
        "type": "t_mapping(t_address,t_uint256)"
      },
      {
        "astId": 1015,
        "contract": "contracts/wombat-core/asset/Asset.sol:Asset",
        "label": "_allowances",
        "offset": 0,
        "slot": "2",
        "type": "t_mapping(t_address,t_mapping(t_address,t_uint256))"
      },
      {
        "astId": 1017,
        "contract": "contracts/wombat-core/asset/Asset.sol:Asset",
        "label": "_totalSupply",
        "offset": 0,
        "slot": "3",
        "type": "t_uint256"
      },
      {
        "astId": 1019,
        "contract": "contracts/wombat-core/asset/Asset.sol:Asset",
        "label": "_name",
        "offset": 0,
        "slot": "4",
        "type": "t_string_storage"
      },
      {
        "astId": 1021,
        "contract": "contracts/wombat-core/asset/Asset.sol:Asset",
        "label": "_symbol",
        "offset": 0,
        "slot": "5",
        "type": "t_string_storage"
      },
      {
        "astId": 1706,
        "contract": "contracts/wombat-core/asset/Asset.sol:Asset",
        "label": "_nonces",
        "offset": 0,
        "slot": "6",
        "type": "t_mapping(t_address,t_struct(Counter)2646_storage)"
      },
      {
        "astId": 1714,
        "contract": "contracts/wombat-core/asset/Asset.sol:Asset",
        "label": "_PERMIT_TYPEHASH_DEPRECATED_SLOT",
        "offset": 0,
        "slot": "7",
        "type": "t_bytes32"
      },
      {
        "astId": 5292,
        "contract": "contracts/wombat-core/asset/Asset.sol:Asset",
        "label": "pool",
        "offset": 0,
        "slot": "8",
        "type": "t_address"
      },
      {
        "astId": 5296,
        "contract": "contracts/wombat-core/asset/Asset.sol:Asset",
        "label": "cash",
        "offset": 0,
        "slot": "9",
        "type": "t_uint120"
      },
      {
        "astId": 5300,
        "contract": "contracts/wombat-core/asset/Asset.sol:Asset",
        "label": "liability",
        "offset": 15,
        "slot": "9",
        "type": "t_uint120"
      },
      {
        "astId": 5303,
        "contract": "contracts/wombat-core/asset/Asset.sol:Asset",
        "label": "maxSupply",
        "offset": 0,
        "slot": "10",
        "type": "t_uint256"
      }
    ],
    "types": {
      "t_address": {
        "encoding": "inplace",
        "label": "address",
        "numberOfBytes": "20"
      },
      "t_bytes32": {
        "encoding": "inplace",
        "label": "bytes32",
        "numberOfBytes": "32"
      },
      "t_mapping(t_address,t_mapping(t_address,t_uint256))": {
        "encoding": "mapping",
        "key": "t_address",
        "label": "mapping(address => mapping(address => uint256))",
        "numberOfBytes": "32",
        "value": "t_mapping(t_address,t_uint256)"
      },
      "t_mapping(t_address,t_struct(Counter)2646_storage)": {
        "encoding": "mapping",
        "key": "t_address",
        "label": "mapping(address => struct Counters.Counter)",
        "numberOfBytes": "32",
        "value": "t_struct(Counter)2646_storage"
      },
      "t_mapping(t_address,t_uint256)": {
        "encoding": "mapping",
        "key": "t_address",
        "label": "mapping(address => uint256)",
        "numberOfBytes": "32",
        "value": "t_uint256"
      },
      "t_string_storage": {
        "encoding": "bytes",
        "label": "string",
        "numberOfBytes": "32"
      },
      "t_struct(Counter)2646_storage": {
        "encoding": "inplace",
        "label": "struct Counters.Counter",
        "members": [
          {
            "astId": 2645,
            "contract": "contracts/wombat-core/asset/Asset.sol:Asset",
            "label": "_value",
            "offset": 0,
            "slot": "0",
            "type": "t_uint256"
          }
        ],
        "numberOfBytes": "32"
      },
      "t_uint120": {
        "encoding": "inplace",
        "label": "uint120",
        "numberOfBytes": "15"
      },
      "t_uint256": {
        "encoding": "inplace",
        "label": "uint256",
        "numberOfBytes": "32"
      }
    }
  }
}