{
  "address": "0x1BF6D0F4A6FaeeAA3f2bB466b5f4F4D78d446317",
  "abi": [
    {
      "inputs": [
        {
          "internalType": "address",
          "name": "underlyingToken_",
          "type": "address"
        },
        {
          "internalType": "string",
          "name": "name_",
          "type": "string"
        },
        {
          "internalType": "string",
          "name": "symbol_",
          "type": "string"
        }
      ],
      "stateMutability": "nonpayable",
      "type": "constructor"
    },
    {
      "inputs": [],
      "name": "ASSET_OVERFLOW",
      "type": "error"
    },
    {
      "inputs": [],
      "name": "WOMBAT_FORBIDDEN",
      "type": "error"
    },
    {
      "anonymous": false,
      "inputs": [
        {
          "indexed": true,
          "internalType": "address",
          "name": "owner",
          "type": "address"
        },
        {
          "indexed": true,
          "internalType": "address",
          "name": "spender",
          "type": "address"
        },
        {
          "indexed": false,
          "internalType": "uint256",
          "name": "value",
          "type": "uint256"
        }
      ],
      "name": "Approval",
      "type": "event"
    },
    {
      "anonymous": false,
      "inputs": [
        {
          "indexed": true,
          "internalType": "address",
          "name": "previousOwner",
          "type": "address"
        },
        {
          "indexed": true,
          "internalType": "address",
          "name": "newOwner",
          "type": "address"
        }
      ],
      "name": "OwnershipTransferred",
      "type": "event"
    },
    {
      "anonymous": false,
      "inputs": [
        {
          "indexed": false,
          "internalType": "uint256",
          "name": "previousMaxSupply",
          "type": "uint256"
        },
        {
          "indexed": false,
          "internalType": "uint256",
          "name": "newMaxSupply",
          "type": "uint256"
        }
      ],
      "name": "SetMaxSupply",
      "type": "event"
    },
    {
      "anonymous": false,
      "inputs": [
        {
          "indexed": false,
          "internalType": "address",
          "name": "previousPoolAddr",
          "type": "address"
        },
        {
          "indexed": false,
          "internalType": "address",
          "name": "newPoolAddr",
          "type": "address"
        }
      ],
      "name": "SetPool",
      "type": "event"
    },
    {
      "anonymous": false,
      "inputs": [
        {
          "indexed": true,
          "internalType": "address",
          "name": "from",
          "type": "address"
        },
        {
          "indexed": true,
          "internalType": "address",
          "name": "to",
          "type": "address"
        },
        {
          "indexed": false,
          "internalType": "uint256",
          "name": "value",
          "type": "uint256"
        }
      ],
      "name": "Transfer",
      "type": "event"
    },
    {
      "inputs": [],
      "name": "DOMAIN_SEPARATOR",
      "outputs": [
        {
          "internalType": "bytes32",
          "name": "",
          "type": "bytes32"
        }
      ],
      "stateMutability": "view",
      "type": "function"
    },
    {
      "inputs": [
        {
          "internalType": "uint256",
          "name": "amount",
          "type": "uint256"
        }
      ],
      "name": "addCash",
      "outputs": [],
      "stateMutability": "nonpayable",
      "type": "function"
    },
    {
      "inputs": [
        {
          "internalType": "uint256",
          "name": "amount",
          "type": "uint256"
        }
      ],
      "name": "addLiability",
      "outputs": [],
      "stateMutability": "nonpayable",
      "type": "function"
    },
    {
      "inputs": [
        {
          "internalType": "address",
          "name": "owner",
          "type": "address"
        },
        {
          "internalType": "address",
          "name": "spender",
          "type": "address"
        }
      ],
      "name": "allowance",
      "outputs": [
        {
          "internalType": "uint256",
          "name": "",
          "type": "uint256"
        }
      ],
      "stateMutability": "view",
      "type": "function"
    },
    {
      "inputs": [
        {
          "internalType": "address",
          "name": "spender",
          "type": "address"
        },
        {
          "internalType": "uint256",
          "name": "amount",
          "type": "uint256"
        }
      ],
      "name": "approve",
      "outputs": [
        {
          "internalType": "bool",
          "name": "",
          "type": "bool"
        }
      ],
      "stateMutability": "nonpayable",
      "type": "function"
    },
    {
      "inputs": [
        {
          "internalType": "address",
          "name": "account",
          "type": "address"
        }
      ],
      "name": "balanceOf",
      "outputs": [
        {
          "internalType": "uint256",
          "name": "",
          "type": "uint256"
        }
      ],
      "stateMutability": "view",
      "type": "function"
    },
    {
      "inputs": [
        {
          "internalType": "address",
          "name": "to",
          "type": "address"
        },
        {
          "internalType": "uint256",
          "name": "amount",
          "type": "uint256"
        }
      ],
      "name": "burn",
      "outputs": [],
      "stateMutability": "nonpayable",
      "type": "function"
    },
    {
      "inputs": [],
      "name": "cash",
      "outputs": [
        {
          "internalType": "uint120",
          "name": "",
          "type": "uint120"
        }
      ],
      "stateMutability": "view",
      "type": "function"
    },
    {
      "inputs": [],
      "name": "decimals",
      "outputs": [
        {
          "internalType": "uint8",
          "name": "",
          "type": "uint8"
        }
      ],
      "stateMutability": "view",
      "type": "function"
    },
    {
      "inputs": [
        {
          "internalType": "address",
          "name": "spender",
          "type": "address"
        },
        {
          "internalType": "uint256",
          "name": "subtractedValue",
          "type": "uint256"
        }
      ],
      "name": "decreaseAllowance",
      "outputs": [
        {
          "internalType": "bool",
          "name": "",
          "type": "bool"
        }
      ],
      "stateMutability": "nonpayable",
      "type": "function"
    },
    {
      "inputs": [],
      "name": "getRelativePrice",
      "outputs": [
        {
          "internalType": "uint256",
          "name": "",
          "type": "uint256"
        }
      ],
      "stateMutability": "view",
      "type": "function"
    },
    {
      "inputs": [
        {
          "internalType": "address",
          "name": "spender",
          "type": "address"
        },
        {
          "internalType": "uint256",
          "name": "addedValue",
          "type": "uint256"
        }
      ],
      "name": "increaseAllowance",
      "outputs": [
        {
          "internalType": "bool",
          "name": "",
          "type": "bool"
        }
      ],
      "stateMutability": "nonpayable",
      "type": "function"
    },
    {
      "inputs": [],
      "name": "liability",
      "outputs": [
        {
          "internalType": "uint120",
          "name": "",
          "type": "uint120"
        }
      ],
      "stateMutability": "view",
      "type": "function"
    },
    {
      "inputs": [],
      "name": "maxSupply",
      "outputs": [
        {
          "internalType": "uint256",
          "name": "",
          "type": "uint256"
        }
      ],
      "stateMutability": "view",
      "type": "function"
    },
    {
      "inputs": [
        {
          "internalType": "address",
          "name": "to",
          "type": "address"
        },
        {
          "internalType": "uint256",
          "name": "amount",
          "type": "uint256"
        }
      ],
      "name": "mint",
      "outputs": [],
      "stateMutability": "nonpayable",
      "type": "function"
    },
    {
      "inputs": [],
      "name": "name",
      "outputs": [
        {
          "internalType": "string",
          "name": "",
          "type": "string"
        }
      ],
      "stateMutability": "view",
      "type": "function"
    },
    {
      "inputs": [
        {
          "internalType": "address",
          "name": "owner",
          "type": "address"
        }
      ],
      "name": "nonces",
      "outputs": [
        {
          "internalType": "uint256",
          "name": "",
          "type": "uint256"
        }
      ],
      "stateMutability": "view",
      "type": "function"
    },
    {
      "inputs": [],
      "name": "owner",
      "outputs": [
        {
          "internalType": "address",
          "name": "",
          "type": "address"
        }
      ],
      "stateMutability": "view",
      "type": "function"
    },
    {
      "inputs": [
        {
          "internalType": "address",
          "name": "owner",
          "type": "address"
        },
        {
          "internalType": "address",
          "name": "spender",
          "type": "address"
        },
        {
          "internalType": "uint256",
          "name": "value",
          "type": "uint256"
        },
        {
          "internalType": "uint256",
          "name": "deadline",
          "type": "uint256"
        },
        {
          "internalType": "uint8",
          "name": "v",
          "type": "uint8"
        },
        {
          "internalType": "bytes32",
          "name": "r",
          "type": "bytes32"
        },
        {
          "internalType": "bytes32",
          "name": "s",
          "type": "bytes32"
        }
      ],
      "name": "permit",
      "outputs": [],
      "stateMutability": "nonpayable",
      "type": "function"
    },
    {
      "inputs": [],
      "name": "pool",
      "outputs": [
        {
          "internalType": "address",
          "name": "",
          "type": "address"
        }
      ],
      "stateMutability": "view",
      "type": "function"
    },
    {
      "inputs": [
        {
          "internalType": "uint256",
          "name": "amount",
          "type": "uint256"
        }
      ],
      "name": "removeCash",
      "outputs": [],
      "stateMutability": "nonpayable",
      "type": "function"
    },
    {
      "inputs": [
        {
          "internalType": "uint256",
          "name": "amount",
          "type": "uint256"
        }
      ],
      "name": "removeLiability",
      "outputs": [],
      "stateMutability": "nonpayable",
      "type": "function"
    },
    {
      "inputs": [],
      "name": "renounceOwnership",
      "outputs": [],
      "stateMutability": "nonpayable",
      "type": "function"
    },
    {
      "inputs": [
        {
          "internalType": "uint256",
          "name": "maxSupply_",
          "type": "uint256"
        }
      ],
      "name": "setMaxSupply",
      "outputs": [],
      "stateMutability": "nonpayable",
      "type": "function"
    },
    {
      "inputs": [
        {
          "internalType": "address",
          "name": "pool_",
          "type": "address"
        }
      ],
      "name": "setPool",
      "outputs": [],
      "stateMutability": "nonpayable",
      "type": "function"
    },
    {
      "inputs": [],
      "name": "symbol",
      "outputs": [
        {
          "internalType": "string",
          "name": "",
          "type": "string"
        }
      ],
      "stateMutability": "view",
      "type": "function"
    },
    {
      "inputs": [],
      "name": "totalSupply",
      "outputs": [
        {
          "internalType": "uint256",
          "name": "",
          "type": "uint256"
        }
      ],
      "stateMutability": "view",
      "type": "function"
    },
    {
      "inputs": [
        {
          "internalType": "address",
          "name": "recipient",
          "type": "address"
        },
        {
          "internalType": "uint256",
          "name": "amount",
          "type": "uint256"
        }
      ],
      "name": "transfer",
      "outputs": [
        {
          "internalType": "bool",
          "name": "",
          "type": "bool"
        }
      ],
      "stateMutability": "nonpayable",
      "type": "function"
    },
    {
      "inputs": [
        {
          "internalType": "address",
          "name": "sender",
          "type": "address"
        },
        {
          "internalType": "address",
          "name": "recipient",
          "type": "address"
        },
        {
          "internalType": "uint256",
          "name": "amount",
          "type": "uint256"
        }
      ],
      "name": "transferFrom",
      "outputs": [
        {
          "internalType": "bool",
          "name": "",
          "type": "bool"
        }
      ],
      "stateMutability": "nonpayable",
      "type": "function"
    },
    {
      "inputs": [
        {
          "internalType": "address",
          "name": "newOwner",
          "type": "address"
        }
      ],
      "name": "transferOwnership",
      "outputs": [],
      "stateMutability": "nonpayable",
      "type": "function"
    },
    {
      "inputs": [
        {
          "internalType": "address",
          "name": "to",
          "type": "address"
        },
        {
          "internalType": "uint256",
          "name": "amount",
          "type": "uint256"
        }
      ],
      "name": "transferUnderlyingToken",
      "outputs": [],
      "stateMutability": "nonpayable",
      "type": "function"
    },
    {
      "inputs": [],
      "name": "underlyingToken",
      "outputs": [
        {
          "internalType": "address",
          "name": "",
          "type": "address"
        }
      ],
      "stateMutability": "view",
      "type": "function"
    },
    {
      "inputs": [],
      "name": "underlyingTokenBalance",
      "outputs": [
        {
          "internalType": "uint256",
          "name": "",
          "type": "uint256"
        }
      ],
      "stateMutability": "view",
      "type": "function"
    },
    {
      "inputs": [],
      "name": "underlyingTokenDecimals",
      "outputs": [
        {
          "internalType": "uint8",
          "name": "",
          "type": "uint8"
        }
      ],
      "stateMutability": "view",
      "type": "function"
    }
  ],
  "transactionHash": "0xba545e297ddb7bab41a6f3f21b4fd407571b21484d79dcd930d9e6477c420d44",
  "args": [
    "0xae13d989daC2f0dEbFf460aC112a837C89BAa7cd",
    "Wombat Testnet Wrapped BNB Asset",
    "LP-TWBNB"
  ],
  "solcInputHash": "b2fc5f6dcf7fe7b36514f5acf6388e79",
  "bytecode": "0x61018060408181523462000526576200296580380380916200002282866200052b565b84398201606083820312620005265782516001600160a01b038082169390848303620005265760208681015190966001600160401b03918281116200052657866200006f9183016200054f565b958482015183811162000526576200008892016200054f565b968351978489018981108482111762000510578552600196878a52828a0191603160f81b83526000958654903360018060a01b031983161788553391167f8be0079c531659141344cd1fd0a4f28419497f9722a3daafe3b4186f6b6457e0888a51a3815198858a11620004fc576004998a54908282811c92168015620004f1575b87831014620004de57601f9182811162000496575b50808783821160011462000434578a9162000428575b50600019600383901b1c191690831b178b555b825190878211620004155760059384548481811c911680156200040a575b89821014620003f657828111620003b0575b50879183116001146200034c579282939183928b9462000340575b50501b916000199060031b1c19161790555b82815191012098519020958860c0528660e0524660a052845196828801907f8b73c3c69bb8fe3d512ecc4cf759cc79239f7b179b0ffacaa9a75d522b39400f9a8b8352878a015260608901524660808901523060a089015260a0885260c0880193888510908511176200032d5782918491828852895190206080526101009a8b52816101209a7f6e71edae12b1b97f4d1f60370fef10105fa2faae0126114a169c64845d6126c98c52610140998a5263313ce56760e01b82525afa95861562000323578396620002d6575b50505050610160928352519261238d9485620005d8863960805185611f00015260a05185611eda015260c05185611f4f015260e05185611f7501525184611f2c0152518361142d01525182818161076101528181610e37015261104501525181610c460152f35b908092939496503d83116200031b575b620002f281856200052b565b810103126200031757519060ff8216820362000314575091388080806200026f565b80fd5b5080fd5b503d620002e6565b84513d85823e3d90fd5b634e487b7160e01b855260418252602485fd5b01519250388062000192565b848a52878a20919083601f1981168c5b8b888383106200039857505050106200037e575b505050811b019055620001a4565b015160001960f88460031b161c1916905538808062000370565b8686015188559096019594850194879350016200035c565b858b52888b2083808601881c8201928b8710620003ec575b01871c019085905b828110620003e057505062000177565b8c8155018590620003d0565b92508192620003c8565b50634e487b7160e01b8a5260228d5260248afd5b90607f169062000165565b634e487b7160e01b895260418c52602489fd5b90508501513862000134565b8d8b52888b2085935090601f1983168c5b8b8282106200047f575050831162000465575b5050811b018b5562000147565b87015160001960f88460031b161c19169055388062000458565b838b01518555889690940193928301920162000445565b8c8a52878a208380840160051c8201928a8510620004d4575b0160051c019084905b828110620004c85750506200011e565b8b8155018490620004b8565b92508192620004af565b634e487b7160e01b895260228c52602489fd5b91607f169162000109565b634e487b7160e01b87526041600452602487fd5b634e487b7160e01b600052604160045260246000fd5b600080fd5b601f909101601f19168101906001600160401b038211908210176200051057604052565b9080601f8301121562000526578151906001600160401b0382116200051057604051926020916200058a601f8501601f19168401866200052b565b838552828483010111620005265782906000905b83838310620005be57505011620005b457505090565b6000918301015290565b819350828193920101518282880101520183916200059e56fe60806040526004361015610013575b600080fd5b60003560e01c806306fdde03146102bb578063095ea7b3146102b257806316c9e7a0146102a957806316f0115b146102a057806318160ddd1461029757806323b872dd1461028e5780632495a599146102855780632fa3a0d21461027c578063313ce567146102735780633644e5151461026a578063395093511461026157806340c10f19146102585780634437152a1461024f5780636f8b44b014610246578063705727b51461023d57806370a0823114610234578063715018a61461022b5780637284168a146102225780637ecebe00146102195780638da5cb5b1461021057806395d89b4114610207578063961be391146101fe57806399c91a64146101f55780639dc29fac146101ec5780639e79eaa5146101e35780639f9ef988146101da578063a0f0f604146101d1578063a457c2d7146101c8578063a9059cbb146101bf578063d505accf146101b6578063d5abeb01146101ad578063d8b87853146101a4578063dd62ed3e1461019b5763f2fde38b1461019357600080fd5b61000e61167a565b5061000e611602565b5061000e61155b565b5061000e61153c565b5061000e611399565b5061000e611372565b5061000e61129e565b5061000e6111eb565b5061000e611126565b5061000e611001565b5061000e610e9c565b5061000e610ddb565b5061000e610dab565b5061000e610ce7565b5061000e610cb2565b5061000e610c6a565b5061000e610c2b565b5061000e610ba4565b5061000e610b5c565b5061000e610b29565b5061000e610aba565b5061000e610975565b5061000e610851565b5061000e6107ea565b5061000e6107c6565b5061000e6107a9565b5061000e610785565b5061000e610733565b5061000e61062a565b5061000e61060b565b5061000e6105d6565b5061000e6104f6565b5061000e6104c4565b5061000e61033a565b919091602080825283519081818401526000945b828610610324575050601f817fffffffffffffffffffffffffffffffffffffffffffffffffffffffffffffffe0926040959611610317575b0116010190565b6000858286010152610310565b85810182015184870160400152948101946102d8565b503461000e5760008060031936011261047b5760405190806004549060019180831c92808216928315610471575b602092838610851461044457858852602088019490811561040557506001146103ac575b6103a88761039c81890382611861565b604051918291826102c4565b0390f35b600460005294509192917f8a35acfbc15ff81a39ae7d344fd709f28e8600b4aa8c65c6b64bfe7fe36bd19b5b8386106103f4575050509101905061039c826103a8388061038c565b8054858701529482019481016103d8565b7fffffffffffffffffffffffffffffffffffffffffffffffffffffffffffffff001685525050505090151560051b01905061039c826103a8388061038c565b6024827f4e487b710000000000000000000000000000000000000000000000000000000081526022600452fd5b93607f1693610368565b80fd5b6004359073ffffffffffffffffffffffffffffffffffffffff8216820361000e57565b6024359073ffffffffffffffffffffffffffffffffffffffff8216820361000e57565b503461000e57604060031936011261000e576104eb6104e161047e565b6024359033611b13565b602060405160018152f35b503461000e57602060031936011261000e5760043573ffffffffffffffffffffffffffffffffffffffff6007541633036105ac576effffffffffffffffffffffffffffff80821161058257806105747fffffffffffffffffffffffffffffffffff000000000000000000000000000000926008549416828516612313565b169116176008556000604051f35b60046040517fd305209a000000000000000000000000000000000000000000000000000000008152fd5b60046040517f5bf78ef4000000000000000000000000000000000000000000000000000000008152fd5b503461000e57600060031936011261000e57602073ffffffffffffffffffffffffffffffffffffffff60075416604051908152f35b503461000e57600060031936011261000e576020600354604051908152f35b503461000e57606060031936011261000e5761064461047e565b61064c6104a1565b9061065b6044358093836119cc565b73ffffffffffffffffffffffffffffffffffffffff811660005260026020526106a760406000203373ffffffffffffffffffffffffffffffffffffffff16600052602052604060002090565b54918083106106c9576106bd9203903390611b13565b60405160018152602090f35b608460405162461bcd60e51b815260206004820152602860248201527f45524332303a207472616e7366657220616d6f756e742065786365656473206160448201527f6c6c6f77616e63650000000000000000000000000000000000000000000000006064820152fd5b503461000e57600060031936011261000e57602060405173ffffffffffffffffffffffffffffffffffffffff7f0000000000000000000000000000000000000000000000000000000000000000168152f35b503461000e57600060031936011261000e576020604051670de0b6b3a76400008152f35b503461000e57600060031936011261000e57602060405160128152f35b503461000e57600060031936011261000e5760206107e2611ed7565b604051908152f35b503461000e57604060031936011261000e576104eb61080761047e565b33600052600260205261084a6024356108448360406000209073ffffffffffffffffffffffffffffffffffffffff16600052602052604060002090565b546118d2565b9033611b13565b503461000e57604060031936011261000e5761086b61047e565b60243573ffffffffffffffffffffffffffffffffffffffff6007541633036105ac57600954806108a2575b506108a0916121b4565b005b6108eb6040517f18160ddd000000000000000000000000000000000000000000000000000000008152602081600481305afa908115610968575b60009161093a575b50836118d2565b116108f65738610896565b606460405162461bcd60e51b815260206004820152601a60248201527f576f6d6261743a204d41585f535550504c595f524541434845440000000000006044820152fd5b61095b915060203d8111610961575b6109538183611861565b810190612029565b386108e4565b503d610949565b610970611d55565b6108dc565b503461000e57602060031936011261000e5761098f61047e565b73ffffffffffffffffffffffffffffffffffffffff906109b482600054163314611732565b81811615610a50576007546040805173ffffffffffffffffffffffffffffffffffffffff949092168416825292821660208201526108a0927f390ace337562623e4cf938891cfa7e80b7b2e6ff395963aba93e537ce67e842c91a173ffffffffffffffffffffffffffffffffffffffff167fffffffffffffffffffffffff00000000000000000000000000000000000000006007541617600755565b608460405162461bcd60e51b815260206004820152602360248201527f576f6d6261743a20506f6f6c20616464726573732063616e6e6f74206265207a60448201527f65726f00000000000000000000000000000000000000000000000000000000006064820152fd5b503461000e57602060031936011261000e57600435610af273ffffffffffffffffffffffffffffffffffffffff600054163314611732565b7f4e4144d58c74765aab6b864c8cb807767198960f6ae6b4b135c56d41b639b7fe60406009548151908152836020820152a1600955005b503461000e57600060031936011261000e5760206effffffffffffffffffffffffffffff60085460781c16604051908152f35b503461000e57602060031936011261000e5773ffffffffffffffffffffffffffffffffffffffff610b8b61047e565b1660005260016020526020604060002054604051908152f35b503461000e5760008060031936011261047b5780547fffffffffffffffffffffffff000000000000000000000000000000000000000073ffffffffffffffffffffffffffffffffffffffff821691610bfd338414611732565b16825581604051917f8be0079c531659141344cd1fd0a4f28419497f9722a3daafe3b4186f6b6457e08284a3f35b503461000e57600060031936011261000e57602060405160ff7f0000000000000000000000000000000000000000000000000000000000000000168152f35b503461000e57602060031936011261000e5773ffffffffffffffffffffffffffffffffffffffff610c9961047e565b1660005260066020526020604060002054604051908152f35b503461000e57600060031936011261000e57602073ffffffffffffffffffffffffffffffffffffffff60005416604051908152f35b503461000e5760008060031936011261047b5760405190806005549060019180831c92808216928315610da1575b60209283861085146104445785885260208801949081156104055750600114610d48576103a88761039c81890382611861565b600560005294509192917f036b6384b5eca791c62761152d0c79bb0604c104a5fb6f4eb0703f3154bb3db05b838610610d90575050509101905061039c826103a8388061038c565b805485870152948201948101610d74565b93607f1693610d15565b503461000e57600060031936011261000e5760206effffffffffffffffffffffffffffff60085416604051908152f35b503461000e57600060031936011261000e5760206040517f70a08231000000000000000000000000000000000000000000000000000000008152306004820152818160248173ffffffffffffffffffffffffffffffffffffffff7f0000000000000000000000000000000000000000000000000000000000000000165afa908115610e8f575b600091610e72575b50604051908152f35b610e899150823d8111610961576109538183611861565b38610e69565b610e97611d55565b610e61565b503461000e57604060031936011261000e57610eb661047e565b60243573ffffffffffffffffffffffffffffffffffffffff806007541633036105ac578216908115610f9757610f928184610f6d7fddf252ad1be2c89b69c2b068fc378daa952ba7f163c4a11628f55a4df523b3ef94610f3860009873ffffffffffffffffffffffffffffffffffffffff166000526001602052604060002090565b54610f458282101561228b565b039173ffffffffffffffffffffffffffffffffffffffff166000526001602052604060002090565b55610f82610f7d826003546122fc565b600355565b6040519081529081906020820190565b0390a3005b608460405162461bcd60e51b815260206004820152602160248201527f45524332303a206275726e2066726f6d20746865207a65726f2061646472657360448201527f73000000000000000000000000000000000000000000000000000000000000006064820152fd5b503461000e57604060031936011261000e5761101b61047e565b73ffffffffffffffffffffffffffffffffffffffff806007541633036105ac5760008061110393837f000000000000000000000000000000000000000000000000000000000000000016906040519460208601917fa9059cbb0000000000000000000000000000000000000000000000000000000083521660248601526024356044860152604485526110ad8561181c565b82604051956110bb87611845565b602087527f5361666545524332303a206c6f772d6c6576656c2063616c6c206661696c656460208801526110f1843b15156120c1565b51925af16110fd61210c565b90612178565b80518061110c57005b81602080611121936108a09501019101612038565b612050565b503461000e57602060031936011261000e5760043573ffffffffffffffffffffffffffffffffffffffff6007541633036105ac57600854906effffffffffffffffffffffffffffff808316918083106111a7577fffffffffffffffffffffffffffffffffff0000000000000000000000000000009282610574921690612337565b606460405162461bcd60e51b815260206004820152601960248201527f576f6d6261743a20494e53554646494349454e545f43415348000000000000006044820152fd5b503461000e57602060031936011261000e5760043573ffffffffffffffffffffffffffffffffffffffff6007541633036105ac576effffffffffffffffffffffffffffff9081811161058257816108a09261124e92169060085460781c16612313565b7fffff000000000000000000000000000000ffffffffffffffffffffffffffffff7dffffffffffffffffffffffffffffff0000000000000000000000000000006008549260781b16911617600855565b503461000e57604060031936011261000e576112b861047e565b602435903360005260026020526112f38160406000209073ffffffffffffffffffffffffffffffffffffffff16600052602052604060002090565b5491808310611308576106bd92039033611b13565b608460405162461bcd60e51b815260206004820152602560248201527f45524332303a2064656372656173656420616c6c6f77616e63652062656c6f7760448201527f207a65726f0000000000000000000000000000000000000000000000000000006064820152fd5b503461000e57604060031936011261000e576104eb61138f61047e565b60243590336119cc565b503461000e5760e060031936011261000e576113b361047e565b6113bb6104a1565b60443590606435926084359360ff8516850361000e578042116114f8576114d36114f39161148f6108a0976114bb61141c8773ffffffffffffffffffffffffffffffffffffffff166000526006602052604060002090815491600183019055565b9360405193849160208301968c8c8c7f00000000000000000000000000000000000000000000000000000000000000008b929160a094919796959260c0850198855273ffffffffffffffffffffffffffffffffffffffff8092166020860152166040840152606083015260808201520152565b037fffffffffffffffffffffffffffffffffffffffffffffffffffffffffffffffe08101845283611861565b6114ce60c4359360a43593519020611fd7565b611dad565b73ffffffffffffffffffffffffffffffffffffffff808416911614611c99565b611b13565b606460405162461bcd60e51b815260206004820152601d60248201527f45524332305065726d69743a206578706972656420646561646c696e650000006044820152fd5b503461000e57600060031936011261000e576020600954604051908152f35b503461000e57602060031936011261000e5760043573ffffffffffffffffffffffffffffffffffffffff6007541633036105ac576effffffffffffffffffffffffffffff908160085460781c168181106115be576108a09261124e921690612337565b606460405162461bcd60e51b815260206004820152601e60248201527f576f6d6261743a20494e53554646494349454e545f4c494142494c49545900006044820152fd5b503461000e57604060031936011261000e57602061167161162161047e565b73ffffffffffffffffffffffffffffffffffffffff61163e6104a1565b91166000526002835260406000209073ffffffffffffffffffffffffffffffffffffffff16600052602052604060002090565b54604051908152f35b503461000e57602060031936011261000e5761169461047e565b73ffffffffffffffffffffffffffffffffffffffff6116b881600054163314611732565b8116156116c8576108a09061177d565b608460405162461bcd60e51b815260206004820152602660248201527f4f776e61626c653a206e6577206f776e657220697320746865207a65726f206160448201527f64647265737300000000000000000000000000000000000000000000000000006064820152fd5b1561173957565b606460405162461bcd60e51b815260206004820152602060248201527f4f776e61626c653a2063616c6c6572206973206e6f7420746865206f776e65726044820152fd5b6000549073ffffffffffffffffffffffffffffffffffffffff80911691827fffffffffffffffffffffffff0000000000000000000000000000000000000000821617600055167f8be0079c531659141344cd1fd0a4f28419497f9722a3daafe3b4186f6b6457e06000604051a3565b507f4e487b7100000000000000000000000000000000000000000000000000000000600052604160045260246000fd5b6080810190811067ffffffffffffffff82111761183857604052565b6118406117ec565b604052565b6040810190811067ffffffffffffffff82111761183857604052565b90601f7fffffffffffffffffffffffffffffffffffffffffffffffffffffffffffffffe0910116810190811067ffffffffffffffff82111761183857604052565b507f4e487b7100000000000000000000000000000000000000000000000000000000600052601160045260246000fd5b811981116118de570190565b6118e66118a2565b0190565b156118f157565b608460405162461bcd60e51b815260206004820152602360248201527f45524332303a207472616e7366657220746f20746865207a65726f206164647260448201527f65737300000000000000000000000000000000000000000000000000000000006064820152fd5b1561196257565b608460405162461bcd60e51b815260206004820152602660248201527f45524332303a207472616e7366657220616d6f756e742065786365656473206260448201527f616c616e636500000000000000000000000000000000000000000000000000006064820152fd5b919073ffffffffffffffffffffffffffffffffffffffff90818416928315611aa957611a87827fddf252ad1be2c89b69c2b068fc378daa952ba7f163c4a11628f55a4df523b3ef94611aa4941696611a258815156118ea565b611a6084611a538373ffffffffffffffffffffffffffffffffffffffff166000526001602052604060002090565b54610f458282101561195b565b5573ffffffffffffffffffffffffffffffffffffffff166000526001602052604060002090565b611a928282546118d2565b90556040519081529081906020820190565b0390a3565b608460405162461bcd60e51b815260206004820152602560248201527f45524332303a207472616e736665722066726f6d20746865207a65726f20616460448201527f64726573730000000000000000000000000000000000000000000000000000006064820152fd5b9073ffffffffffffffffffffffffffffffffffffffff91828116928315611c30578216938415611bc65780611bb57f8c5be1e5ebec7d5bd14f71427d1e84f3dd0314c0f7b2291e5b200ac8c7c3b92594611b90611aa49573ffffffffffffffffffffffffffffffffffffffff166000526002602052604060002090565b9073ffffffffffffffffffffffffffffffffffffffff16600052602052604060002090565b556040519081529081906020820190565b608460405162461bcd60e51b815260206004820152602260248201527f45524332303a20617070726f766520746f20746865207a65726f20616464726560448201527f73730000000000000000000000000000000000000000000000000000000000006064820152fd5b608460405162461bcd60e51b8152602060048201526024808201527f45524332303a20617070726f76652066726f6d20746865207a65726f2061646460448201527f72657373000000000000000000000000000000000000000000000000000000006064820152fd5b15611ca057565b606460405162461bcd60e51b815260206004820152601e60248201527f45524332305065726d69743a20696e76616c6964207369676e617475726500006044820152fd5b15611ceb57565b608460405162461bcd60e51b815260206004820152602260248201527f45434453413a20696e76616c6964207369676e6174757265202776272076616c60448201527f75650000000000000000000000000000000000000000000000000000000000006064820152fd5b506040513d6000823e3d90fd5b15611d6957565b606460405162461bcd60e51b815260206004820152601860248201527f45434453413a20696e76616c6964207369676e617475726500000000000000006044820152fd5b9291927f7fffffffffffffffffffffffffffffff5d576e7357a4501ddfe92f46681b20a08311611e6d57611e1f600093602095611df960ff8616601b8114908115611e62575b50611ce4565b604051948594859094939260ff6060936080840197845216602083015260408201520152565b838052039060015afa15611e55575b600051611e5273ffffffffffffffffffffffffffffffffffffffff82161515611d62565b90565b611e5d611d55565b611e2e565b601c91501438611df3565b608460405162461bcd60e51b815260206004820152602260248201527f45434453413a20696e76616c6964207369676e6174757265202773272076616c60448201527f75650000000000000000000000000000000000000000000000000000000000006064820152fd5b467f000000000000000000000000000000000000000000000000000000000000000003611f22577f000000000000000000000000000000000000000000000000000000000000000090565b60405160208101907f000000000000000000000000000000000000000000000000000000000000000082527f000000000000000000000000000000000000000000000000000000000000000060408201527f000000000000000000000000000000000000000000000000000000000000000060608201524660808201523060a082015260a0815260c0810181811067ffffffffffffffff821117611fca575b60405251902090565b611fd26117ec565b611fc1565b611fdf611ed7565b906040519060208201927f1901000000000000000000000000000000000000000000000000000000000000845260228301526042820152604281526120238161181c565b51902090565b9081602091031261000e575190565b9081602091031261000e5751801515810361000e5790565b1561205757565b608460405162461bcd60e51b815260206004820152602a60248201527f5361666545524332303a204552433230206f7065726174696f6e20646964206e60448201527f6f742073756363656564000000000000000000000000000000000000000000006064820152fd5b156120c857565b606460405162461bcd60e51b815260206004820152601d60248201527f416464726573733a2063616c6c20746f206e6f6e2d636f6e74726163740000006044820152fd5b3d15612173573d9067ffffffffffffffff8211612166575b6040519161215a60207fffffffffffffffffffffffffffffffffffffffffffffffffffffffffffffffe0601f8401160184611861565b82523d6000602084013e565b61216e6117ec565b612124565b606090565b90919015612184575090565b8151156121945750805190602001fd5b6121b09060405191829162461bcd60e51b8352600483016102c4565b0390fd5b73ffffffffffffffffffffffffffffffffffffffff8116918215612247576020816122316000946122087fddf252ad1be2c89b69c2b068fc378daa952ba7f163c4a11628f55a4df523b3ef956003546118d2565b60035573ffffffffffffffffffffffffffffffffffffffff166000526001602052604060002090565b61223c8282546118d2565b9055604051908152a3565b606460405162461bcd60e51b815260206004820152601f60248201527f45524332303a206d696e7420746f20746865207a65726f2061646472657373006044820152fd5b1561229257565b608460405162461bcd60e51b815260206004820152602260248201527f45524332303a206275726e20616d6f756e7420657863656564732062616c616e60448201527f63650000000000000000000000000000000000000000000000000000000000006064820152fd5b818110612307570390565b61230f6118a2565b0390565b906effffffffffffffffffffffffffffff80809316911680920381116118de570190565b6effffffffffffffffffffffffffffff918216911681811061230757039056fea26469706673582212203886ade3736621b3da563781e7f1a2500e73c78e39bb360ec0e2f15f3cf796ea64736f6c634300080f0033",
  "devdoc": {
    "details": "The relative price of an asset may change over time. For example, the ratio of staked BNB : BNB increases as staking reward accrues.",
    "kind": "dev",
    "methods": {
      "DOMAIN_SEPARATOR()": {
        "details": "See {IERC20Permit-DOMAIN_SEPARATOR}."
      },
      "addCash(uint256)": {
        "params": {
          "amount": "amount to add"
        }
      },
      "addLiability(uint256)": {
        "params": {
          "amount": "amount to add"
        }
      },
      "allowance(address,address)": {
        "details": "See {IERC20-allowance}."
      },
      "approve(address,uint256)": {
        "details": "See {IERC20-approve}. Requirements: - `spender` cannot be the zero address."
      },
      "balanceOf(address)": {
        "details": "See {IERC20-balanceOf}."
      },
      "burn(address,uint256)": {
        "params": {
          "amount": "amount to burn",
          "to": "address holding the tokens"
        }
      },
      "decimals()": {
        "returns": {
          "_0": "decimals for asset"
        }
      },
      "decreaseAllowance(address,uint256)": {
        "details": "Atomically decreases the allowance granted to `spender` by the caller. This is an alternative to {approve} that can be used as a mitigation for problems described in {IERC20-approve}. Emits an {Approval} event indicating the updated allowance. Requirements: - `spender` cannot be the zero address. - `spender` must have allowance for the caller of at least `subtractedValue`."
      },
      "increaseAllowance(address,uint256)": {
        "details": "Atomically increases the allowance granted to `spender` by the caller. This is an alternative to {approve} that can be used as a mitigation for problems described in {IERC20-approve}. Emits an {Approval} event indicating the updated allowance. Requirements: - `spender` cannot be the zero address."
      },
      "mint(address,uint256)": {
        "params": {
          "amount": "amount to transfer",
          "to": "address to transfer the token to"
        }
      },
      "name()": {
        "details": "Returns the name of the token."
      },
      "nonces(address)": {
        "details": "See {IERC20Permit-nonces}."
      },
      "owner()": {
        "details": "Returns the address of the current owner."
      },
      "permit(address,address,uint256,uint256,uint8,bytes32,bytes32)": {
        "details": "See {IERC20Permit-permit}."
      },
      "removeCash(uint256)": {
        "params": {
          "amount": "amount to remove"
        }
      },
      "removeLiability(uint256)": {
        "params": {
          "amount": "amount to remove"
        }
      },
      "renounceOwnership()": {
        "details": "Leaves the contract without owner. It will not be possible to call `onlyOwner` functions anymore. Can only be called by the current owner. NOTE: Renouncing ownership will leave the contract without an owner, thereby removing any functionality that is only available to the owner."
      },
      "setMaxSupply(uint256)": {
        "params": {
          "maxSupply_": "the new asset's max supply"
        }
      },
      "setPool(address)": {
        "params": {
          "pool_": "new pool's address"
        }
      },
      "symbol()": {
        "details": "Returns the symbol of the token, usually a shorter version of the name."
      },
      "totalSupply()": {
        "details": "See {IERC20-totalSupply}."
      },
      "transfer(address,uint256)": {
        "details": "See {IERC20-transfer}. Requirements: - `recipient` cannot be the zero address. - the caller must have a balance of at least `amount`."
      },
      "transferFrom(address,address,uint256)": {
        "details": "See {IERC20-transferFrom}. Emits an {Approval} event indicating the updated allowance. This is not required by the EIP. See the note at the beginning of {ERC20}. Requirements: - `sender` and `recipient` cannot be the zero address. - `sender` must have a balance of at least `amount`. - the caller must have allowance for ``sender``'s tokens of at least `amount`."
      },
      "transferOwnership(address)": {
        "details": "Transfers ownership of the contract to a new account (`newOwner`). Can only be called by the current owner."
      },
      "transferUnderlyingToken(address,uint256)": {
        "details": "Not to be confused with transferring Wombat Assets.",
        "params": {
          "amount": "amount to transfer",
          "to": "address to transfer the token to"
        }
      },
      "underlyingTokenBalance()": {
        "returns": {
          "_0": "Returns the actual balance of ERC20 underlyingToken"
        }
      }
    },
    "title": "Asset with Dynamic Price",
    "version": 1
  },
  "userdoc": {
    "events": {
      "SetMaxSupply(uint256,uint256)": {
        "notice": "An event thats emitted when max supply is updated"
      },
      "SetPool(address,address)": {
        "notice": "An event thats emitted when pool address is updated"
      }
    },
    "kind": "user",
    "methods": {
      "addCash(uint256)": {
        "notice": "Adds cash, expects actual ERC20 underlyingToken got transferred in. Can only be called by Pool."
      },
      "addLiability(uint256)": {
        "notice": "Adds deposit or dividend, expect LP underlyingToken minted in case of deposit. Can only be called by Pool."
      },
      "burn(address,uint256)": {
        "notice": "Burn ERC20 Asset LP Token, expect pool coordinates other state updates. Can only be called by Pool."
      },
      "cash()": {
        "notice": "Cash balance, normally it should align with IERC20(underlyingToken).balanceOf(address(this))"
      },
      "decimals()": {
        "notice": "Returns the decimals of Asset, fixed to 18 decimals"
      },
      "getRelativePrice()": {
        "notice": "get the relative price in WAD"
      },
      "liability()": {
        "notice": "Total liability, equals to the sum of deposit and dividend"
      },
      "maxSupply()": {
        "notice": "maxSupply the maximum amount of asset the pool is allowed to mint. The unit is the same as the underlying token"
      },
      "mint(address,uint256)": {
        "notice": "Mint ERC20 Asset LP Token, expect pool coordinates other state updates. Can only be called by Pool."
      },
      "pool()": {
        "notice": "The Pool"
      },
      "removeCash(uint256)": {
        "notice": "Deducts cash, expect actual ERC20 got transferred out (by transferUnderlyingToken()). Can only be called by Pool."
      },
      "removeLiability(uint256)": {
        "notice": "Removes deposit and dividend earned, expect LP underlyingToken burnt. Can only be called by Pool."
      },
      "setMaxSupply(uint256)": {
        "notice": "Changes asset max supply. Can only be set by the contract owner. 18 decimals"
      },
      "setPool(address)": {
        "notice": "TODO: move pool address setup within contract initializationChanges the pool. Can only be set by the contract owner."
      },
      "transferUnderlyingToken(address,uint256)": {
        "notice": "Transfers ERC20 underlyingToken from this contract to another account. Can only be called by Pool."
      },
      "underlyingToken()": {
        "notice": "The underlying underlyingToken represented by this asset"
      },
      "underlyingTokenBalance()": {
        "notice": "Get underlying Token Balance"
      }
    },
    "notice": "Contract presenting an asset in a pool",
    "version": 1
  },
  "storageLayout": {
    "storage": [
      {
        "astId": 660,
        "contract": "contracts/wombat-core/asset/DynamicAsset.sol:DynamicAsset",
        "label": "_owner",
        "offset": 0,
        "slot": "0",
        "type": "t_address"
      },
      {
        "astId": 812,
        "contract": "contracts/wombat-core/asset/DynamicAsset.sol:DynamicAsset",
        "label": "_balances",
        "offset": 0,
        "slot": "1",
        "type": "t_mapping(t_address,t_uint256)"
      },
      {
        "astId": 818,
        "contract": "contracts/wombat-core/asset/DynamicAsset.sol:DynamicAsset",
        "label": "_allowances",
        "offset": 0,
        "slot": "2",
        "type": "t_mapping(t_address,t_mapping(t_address,t_uint256))"
      },
      {
        "astId": 820,
        "contract": "contracts/wombat-core/asset/DynamicAsset.sol:DynamicAsset",
        "label": "_totalSupply",
        "offset": 0,
        "slot": "3",
        "type": "t_uint256"
      },
      {
        "astId": 822,
        "contract": "contracts/wombat-core/asset/DynamicAsset.sol:DynamicAsset",
        "label": "_name",
        "offset": 0,
        "slot": "4",
        "type": "t_string_storage"
      },
      {
        "astId": 824,
        "contract": "contracts/wombat-core/asset/DynamicAsset.sol:DynamicAsset",
        "label": "_symbol",
        "offset": 0,
        "slot": "5",
        "type": "t_string_storage"
      },
      {
        "astId": 1468,
        "contract": "contracts/wombat-core/asset/DynamicAsset.sol:DynamicAsset",
        "label": "_nonces",
        "offset": 0,
        "slot": "6",
        "type": "t_mapping(t_address,t_struct(Counter)2313_storage)"
      },
      {
        "astId": 3721,
        "contract": "contracts/wombat-core/asset/DynamicAsset.sol:DynamicAsset",
        "label": "pool",
        "offset": 0,
        "slot": "7",
        "type": "t_address"
      },
      {
        "astId": 3725,
        "contract": "contracts/wombat-core/asset/DynamicAsset.sol:DynamicAsset",
        "label": "cash",
        "offset": 0,
        "slot": "8",
        "type": "t_uint120"
      },
      {
        "astId": 3729,
        "contract": "contracts/wombat-core/asset/DynamicAsset.sol:DynamicAsset",
        "label": "liability",
        "offset": 15,
        "slot": "8",
        "type": "t_uint120"
      },
      {
        "astId": 3732,
        "contract": "contracts/wombat-core/asset/DynamicAsset.sol:DynamicAsset",
        "label": "maxSupply",
        "offset": 0,
        "slot": "9",
        "type": "t_uint256"
      }
    ],
    "types": {
      "t_address": {
        "encoding": "inplace",
        "label": "address",
        "numberOfBytes": "20"
      },
      "t_mapping(t_address,t_mapping(t_address,t_uint256))": {
        "encoding": "mapping",
        "key": "t_address",
        "label": "mapping(address => mapping(address => uint256))",
        "numberOfBytes": "32",
        "value": "t_mapping(t_address,t_uint256)"
      },
      "t_mapping(t_address,t_struct(Counter)2313_storage)": {
        "encoding": "mapping",
        "key": "t_address",
        "label": "mapping(address => struct Counters.Counter)",
        "numberOfBytes": "32",
        "value": "t_struct(Counter)2313_storage"
      },
      "t_mapping(t_address,t_uint256)": {
        "encoding": "mapping",
        "key": "t_address",
        "label": "mapping(address => uint256)",
        "numberOfBytes": "32",
        "value": "t_uint256"
      },
      "t_string_storage": {
        "encoding": "bytes",
        "label": "string",
        "numberOfBytes": "32"
      },
      "t_struct(Counter)2313_storage": {
        "encoding": "inplace",
        "label": "struct Counters.Counter",
        "members": [
          {
            "astId": 2312,
            "contract": "contracts/wombat-core/asset/DynamicAsset.sol:DynamicAsset",
            "label": "_value",
            "offset": 0,
            "slot": "0",
            "type": "t_uint256"
          }
        ],
        "numberOfBytes": "32"
      },
      "t_uint120": {
        "encoding": "inplace",
        "label": "uint120",
        "numberOfBytes": "15"
      },
      "t_uint256": {
        "encoding": "inplace",
        "label": "uint256",
        "numberOfBytes": "32"
      }
    }
  }
}