{
  "address": "0x41FDf92c5E3E86931c3Bcb9a8F0f5362b7C2ab95",
  "abi": [
    {
      "inputs": [
        {
          "internalType": "address",
          "name": "underlyingToken_",
          "type": "address"
        },
        {
          "internalType": "string",
          "name": "name_",
          "type": "string"
        },
        {
          "internalType": "string",
          "name": "symbol_",
          "type": "string"
        },
        {
          "internalType": "address",
          "name": "aggregateAccount_",
          "type": "address"
        }
      ],
      "stateMutability": "nonpayable",
      "type": "constructor"
    },
    {
      "anonymous": false,
      "inputs": [
        {
          "indexed": true,
          "internalType": "address",
          "name": "owner",
          "type": "address"
        },
        {
          "indexed": true,
          "internalType": "address",
          "name": "spender",
          "type": "address"
        },
        {
          "indexed": false,
          "internalType": "uint256",
          "name": "value",
          "type": "uint256"
        }
      ],
      "name": "Approval",
      "type": "event"
    },
    {
      "anonymous": false,
      "inputs": [
        {
          "indexed": true,
          "internalType": "address",
          "name": "previousOwner",
          "type": "address"
        },
        {
          "indexed": true,
          "internalType": "address",
          "name": "newOwner",
          "type": "address"
        }
      ],
      "name": "OwnershipTransferred",
      "type": "event"
    },
    {
      "anonymous": false,
      "inputs": [
        {
          "indexed": true,
          "internalType": "address",
          "name": "from",
          "type": "address"
        },
        {
          "indexed": true,
          "internalType": "address",
          "name": "to",
          "type": "address"
        },
        {
          "indexed": false,
          "internalType": "uint256",
          "name": "value",
          "type": "uint256"
        }
      ],
      "name": "Transfer",
      "type": "event"
    },
    {
      "inputs": [],
      "name": "_name",
      "outputs": [
        {
          "internalType": "string",
          "name": "",
          "type": "string"
        }
      ],
      "stateMutability": "view",
      "type": "function"
    },
    {
      "inputs": [],
      "name": "_symbol",
      "outputs": [
        {
          "internalType": "string",
          "name": "",
          "type": "string"
        }
      ],
      "stateMutability": "view",
      "type": "function"
    },
    {
      "inputs": [
        {
          "internalType": "uint256",
          "name": "amount",
          "type": "uint256"
        }
      ],
      "name": "addCash",
      "outputs": [],
      "stateMutability": "nonpayable",
      "type": "function"
    },
    {
      "inputs": [
        {
          "internalType": "uint256",
          "name": "amount",
          "type": "uint256"
        }
      ],
      "name": "addLiability",
      "outputs": [],
      "stateMutability": "nonpayable",
      "type": "function"
    },
    {
      "inputs": [],
      "name": "aggregateAccount",
      "outputs": [
        {
          "internalType": "address",
          "name": "",
          "type": "address"
        }
      ],
      "stateMutability": "view",
      "type": "function"
    },
    {
      "inputs": [
        {
          "internalType": "address",
          "name": "owner",
          "type": "address"
        },
        {
          "internalType": "address",
          "name": "spender",
          "type": "address"
        }
      ],
      "name": "allowance",
      "outputs": [
        {
          "internalType": "uint256",
          "name": "",
          "type": "uint256"
        }
      ],
      "stateMutability": "view",
      "type": "function"
    },
    {
      "inputs": [
        {
          "internalType": "address",
          "name": "spender",
          "type": "address"
        },
        {
          "internalType": "uint256",
          "name": "amount",
          "type": "uint256"
        }
      ],
      "name": "approve",
      "outputs": [
        {
          "internalType": "bool",
          "name": "",
          "type": "bool"
        }
      ],
      "stateMutability": "nonpayable",
      "type": "function"
    },
    {
      "inputs": [
        {
          "internalType": "address",
          "name": "account",
          "type": "address"
        }
      ],
      "name": "balanceOf",
      "outputs": [
        {
          "internalType": "uint256",
          "name": "",
          "type": "uint256"
        }
      ],
      "stateMutability": "view",
      "type": "function"
    },
    {
      "inputs": [
        {
          "internalType": "address",
          "name": "to",
          "type": "address"
        },
        {
          "internalType": "uint256",
          "name": "amount",
          "type": "uint256"
        }
      ],
      "name": "burn",
      "outputs": [],
      "stateMutability": "nonpayable",
      "type": "function"
    },
    {
      "inputs": [],
      "name": "cash",
      "outputs": [
        {
          "internalType": "uint256",
          "name": "",
          "type": "uint256"
        }
      ],
      "stateMutability": "view",
      "type": "function"
    },
    {
      "inputs": [],
      "name": "decimals",
      "outputs": [
        {
          "internalType": "uint8",
          "name": "",
          "type": "uint8"
        }
      ],
      "stateMutability": "view",
      "type": "function"
    },
    {
      "inputs": [
        {
          "internalType": "address",
          "name": "spender",
          "type": "address"
        },
        {
          "internalType": "uint256",
          "name": "subtractedValue",
          "type": "uint256"
        }
      ],
      "name": "decreaseAllowance",
      "outputs": [
        {
          "internalType": "bool",
          "name": "",
          "type": "bool"
        }
      ],
      "stateMutability": "nonpayable",
      "type": "function"
    },
    {
      "inputs": [
        {
          "internalType": "address",
          "name": "spender",
          "type": "address"
        },
        {
          "internalType": "uint256",
          "name": "addedValue",
          "type": "uint256"
        }
      ],
      "name": "increaseAllowance",
      "outputs": [
        {
          "internalType": "bool",
          "name": "",
          "type": "bool"
        }
      ],
      "stateMutability": "nonpayable",
      "type": "function"
    },
    {
      "inputs": [
        {
          "internalType": "address",
          "name": "underlyingToken_",
          "type": "address"
        },
        {
          "internalType": "string",
          "name": "name_",
          "type": "string"
        },
        {
          "internalType": "string",
          "name": "symbol_",
          "type": "string"
        },
        {
          "internalType": "address",
          "name": "aggregateAccount_",
          "type": "address"
        }
      ],
      "name": "initialize",
      "outputs": [],
      "stateMutability": "nonpayable",
      "type": "function"
    },
    {
      "inputs": [],
      "name": "liability",
      "outputs": [
        {
          "internalType": "uint256",
          "name": "",
          "type": "uint256"
        }
      ],
      "stateMutability": "view",
      "type": "function"
    },
    {
      "inputs": [
        {
          "internalType": "address",
          "name": "to",
          "type": "address"
        },
        {
          "internalType": "uint256",
          "name": "amount",
          "type": "uint256"
        }
      ],
      "name": "mint",
      "outputs": [],
      "stateMutability": "nonpayable",
      "type": "function"
    },
    {
      "inputs": [],
      "name": "name",
      "outputs": [
        {
          "internalType": "string",
          "name": "",
          "type": "string"
        }
      ],
      "stateMutability": "view",
      "type": "function"
    },
    {
      "inputs": [],
      "name": "owner",
      "outputs": [
        {
          "internalType": "address",
          "name": "",
          "type": "address"
        }
      ],
      "stateMutability": "view",
      "type": "function"
    },
    {
      "inputs": [],
      "name": "pool",
      "outputs": [
        {
          "internalType": "address",
          "name": "",
          "type": "address"
        }
      ],
      "stateMutability": "view",
      "type": "function"
    },
    {
      "inputs": [
        {
          "internalType": "uint256",
          "name": "amount",
          "type": "uint256"
        }
      ],
      "name": "removeCash",
      "outputs": [],
      "stateMutability": "nonpayable",
      "type": "function"
    },
    {
      "inputs": [
        {
          "internalType": "uint256",
          "name": "amount",
          "type": "uint256"
        }
      ],
      "name": "removeLiability",
      "outputs": [],
      "stateMutability": "nonpayable",
      "type": "function"
    },
    {
      "inputs": [],
      "name": "renounceOwnership",
      "outputs": [],
      "stateMutability": "nonpayable",
      "type": "function"
    },
    {
      "inputs": [
        {
          "internalType": "address",
          "name": "pool_",
          "type": "address"
        }
      ],
      "name": "setPool",
      "outputs": [],
      "stateMutability": "nonpayable",
      "type": "function"
    },
    {
      "inputs": [],
      "name": "symbol",
      "outputs": [
        {
          "internalType": "string",
          "name": "",
          "type": "string"
        }
      ],
      "stateMutability": "view",
      "type": "function"
    },
    {
      "inputs": [],
      "name": "totalSupply",
      "outputs": [
        {
          "internalType": "uint256",
          "name": "",
          "type": "uint256"
        }
      ],
      "stateMutability": "view",
      "type": "function"
    },
    {
      "inputs": [
        {
          "internalType": "address",
          "name": "recipient",
          "type": "address"
        },
        {
          "internalType": "uint256",
          "name": "amount",
          "type": "uint256"
        }
      ],
      "name": "transfer",
      "outputs": [
        {
          "internalType": "bool",
          "name": "",
          "type": "bool"
        }
      ],
      "stateMutability": "nonpayable",
      "type": "function"
    },
    {
      "inputs": [
        {
          "internalType": "address",
          "name": "sender",
          "type": "address"
        },
        {
          "internalType": "address",
          "name": "recipient",
          "type": "address"
        },
        {
          "internalType": "uint256",
          "name": "amount",
          "type": "uint256"
        }
      ],
      "name": "transferFrom",
      "outputs": [
        {
          "internalType": "bool",
          "name": "",
          "type": "bool"
        }
      ],
      "stateMutability": "nonpayable",
      "type": "function"
    },
    {
      "inputs": [
        {
          "internalType": "address",
          "name": "newOwner",
          "type": "address"
        }
      ],
      "name": "transferOwnership",
      "outputs": [],
      "stateMutability": "nonpayable",
      "type": "function"
    },
    {
      "inputs": [
        {
          "internalType": "address",
          "name": "to",
          "type": "address"
        },
        {
          "internalType": "uint256",
          "name": "amount",
          "type": "uint256"
        }
      ],
      "name": "transferUnderlyingToken",
      "outputs": [],
      "stateMutability": "nonpayable",
      "type": "function"
    },
    {
      "inputs": [],
      "name": "underlyingToken",
      "outputs": [
        {
          "internalType": "address",
          "name": "",
          "type": "address"
        }
      ],
      "stateMutability": "view",
      "type": "function"
    },
    {
      "inputs": [],
      "name": "underlyingTokenBalance",
      "outputs": [
        {
          "internalType": "uint256",
          "name": "",
          "type": "uint256"
        }
      ],
      "stateMutability": "view",
      "type": "function"
    }
  ],
  "transactionHash": "0xab93849c07d35942da6ceae751c4b176600c2a6f324891dd713e07df4600da13",
  "args": [
    "0x254dF1f8A8Fa9B7bFAd9e25bF912ea71484332cE",
    "Wombat USD Coin Asset",
    "LP-USDC",
    "0xEc61d2E5780dC9636dF55ab761D8748F7899298f"
  ],
  "solcInputHash": "f350c71861db71ee9f149ff4faa66744",
  "bytecode": "0x60806040523480156200001157600080fd5b50604051620024a5380380620024a583398101604081905262000034916200046d565b828262000041336200008d565b815162000056906004906020850190620002f3565b5080516200006c906005906020840190620002f3565b5050506200008384848484620000dd60201b60201c565b5050505062000550565b600080546001600160a01b038381166001600160a01b0319831681178455604051919092169283917f8be0079c531659141344cd1fd0a4f28419497f9722a3daafe3b4186f6b6457e09190a35050565b600054600160a81b900460ff1680620001005750600054600160a01b900460ff16155b620001695760405162461bcd60e51b815260206004820152602e60248201527f496e697469616c697a61626c653a20636f6e747261637420697320616c72656160448201526d191e481a5b9a5d1a585b1a5e995960921b60648201526084015b60405180910390fd5b600054600160a81b900460ff1615801562000194576000805461ffff60a01b191661010160a01b1790555b6001600160a01b038516620001f85760405162461bcd60e51b8152602060048201526024808201527f576f6d6261743a20546f6b656e20616464726573732063616e6e6f74206265206044820152637a65726f60e01b606482015260840162000160565b6001600160a01b038216620002695760405162461bcd60e51b815260206004820152603060248201527f576f6d6261743a20416767726567617465206163636f756e742061646472657360448201526f732063616e6e6f74206265207a65726f60801b606482015260840162000160565b600a80546001600160a01b0319163317905583516200029090600b906020870190620002f3565b508251620002a690600c906020860190620002f3565b50600680546001600160a01b038088166001600160a01b031992831617909255600d8054928516929091169190911790558015620002ec576000805460ff60a81b191690555b5050505050565b8280546200030190620004fd565b90600052602060002090601f01602090048101928262000325576000855562000370565b82601f106200034057805160ff191683800117855562000370565b8280016001018555821562000370579182015b828111156200037057825182559160200191906001019062000353565b506200037e92915062000382565b5090565b5b808211156200037e576000815560010162000383565b80516001600160a01b0381168114620003b157600080fd5b919050565b600082601f830112620003c857600080fd5b81516001600160401b0380821115620003e557620003e56200053a565b604051601f8301601f19908116603f011681019082821181831017156200041057620004106200053a565b816040528381526020925086838588010111156200042d57600080fd5b600091505b8382101562000451578582018301518183018401529082019062000432565b83821115620004635760008385830101525b9695505050505050565b600080600080608085870312156200048457600080fd5b6200048f8562000399565b60208601519094506001600160401b0380821115620004ad57600080fd5b620004bb88838901620003b6565b94506040870151915080821115620004d257600080fd5b50620004e187828801620003b6565b925050620004f26060860162000399565b905092959194509250565b600181811c908216806200051257607f821691505b602082108114156200053457634e487b7160e01b600052602260045260246000fd5b50919050565b634e487b7160e01b600052604160045260246000fd5b611f4580620005606000396000f3fe608060405234801561001057600080fd5b50600436106101e55760003560e01c80637e1317fa1161010f578063a0f0f604116100a2578063d28d885211610071578063d28d8852146103ee578063d8b87853146103f6578063dd62ed3e14610409578063f2fde38b1461044257600080fd5b8063a0f0f604146103ad578063a457c2d7146103c0578063a9059cbb146103d3578063b09f1266146103e657600080fd5b806399c91a64116100de57806399c91a641461036c5780639dc29fac146103745780639e79eaa5146103875780639f9ef9881461039a57600080fd5b80637e1317fa1461033a5780638da5cb5b1461034b57806395d89b411461035c578063961be3911461036457600080fd5b8063313ce56711610187578063613d25bb11610156578063613d25bb146102ee578063705727b51461030157806370a0823114610309578063715018a61461033257600080fd5b8063313ce5671461029b57806339509351146102b557806340c10f19146102c85780634437152a146102db57600080fd5b806316f0115b116101c357806316f0115b1461024057806318160ddd1461026557806323b872dd146102775780632495a5991461028a57600080fd5b806306fdde03146101ea578063095ea7b31461020857806316c9e7a01461022b575b600080fd5b6101f2610455565b6040516101ff9190611db1565b60405180910390f35b61021b610216366004611cf4565b6104e7565b60405190151581526020016101ff565b61023e610239366004611d40565b6104fd565b005b6007546001600160a01b03165b6040516001600160a01b0390911681526020016101ff565b6003545b6040519081526020016101ff565b61021b610285366004611c33565b610576565b6006546001600160a01b031661024d565b6102a3610637565b60405160ff90911681526020016101ff565b61021b6102c3366004611cf4565b6106d2565b61023e6102d6366004611cf4565b61070e565b61023e6102e9366004611be5565b610776565b61023e6102fc366004611c6f565b610886565b600954610269565b610269610317366004611be5565b6001600160a01b031660009081526001602052604090205490565b61023e610b6b565b600d546001600160a01b031661024d565b6000546001600160a01b031661024d565b6101f2610bd1565b600854610269565b610269610be0565b61023e610382366004611cf4565b610c75565b61023e610395366004611cf4565b610cd9565b61023e6103a8366004611d40565b610d4a565b61023e6103bb366004611d40565b610e08565b61021b6103ce366004611cf4565b610e74565b61021b6103e1366004611cf4565b610f25565b6101f2610f32565b6101f2610fc0565b61023e610404366004611d40565b610fcd565b610269610417366004611c00565b6001600160a01b03918216600090815260026020908152604080832093909416825291909152205490565b61023e610450366004611be5565b61108b565b60606004805461046490611e5d565b80601f016020809104026020016040519081016040528092919081815260200182805461049090611e5d565b80156104dd5780601f106104b2576101008083540402835291602001916104dd565b820191906000526020600020905b8154815290600101906020018083116104c057829003601f168201915b5050505050905090565b60006104f433848461116d565b50600192915050565b6007546001600160a01b0316331461055c5760405162461bcd60e51b815260206004820152601160248201527f576f6d6261743a20464f5242494444454e00000000000000000000000000000060448201526064015b60405180910390fd5b806008600082825461056e9190611e02565b909155505050565b60006105838484846112c6565b6001600160a01b03841660009081526002602090815260408083203384529091529020548281101561061d5760405162461bcd60e51b815260206004820152602860248201527f45524332303a207472616e7366657220616d6f756e742065786365656473206160448201527f6c6c6f77616e63650000000000000000000000000000000000000000000000006064820152608401610553565b61062a853385840361116d565b60019150505b9392505050565b600654604080517f313ce56700000000000000000000000000000000000000000000000000000000815290516000926001600160a01b03169163313ce567916004808301926020929190829003018186803b15801561069557600080fd5b505afa1580156106a9573d6000803e3d6000fd5b505050506040513d601f19601f820116820180604052508101906106cd9190611d72565b905090565b3360008181526002602090815260408083206001600160a01b038716845290915281205490916104f4918590610709908690611e02565b61116d565b6007546001600160a01b031633146107685760405162461bcd60e51b815260206004820152601160248201527f576f6d6261743a20464f5242494444454e0000000000000000000000000000006044820152606401610553565b61077282826114df565b5050565b6000546001600160a01b031633146107d05760405162461bcd60e51b815260206004820181905260248201527f4f776e61626c653a2063616c6c6572206973206e6f7420746865206f776e65726044820152606401610553565b6001600160a01b03811661084c5760405162461bcd60e51b815260206004820152602360248201527f576f6d6261743a20506f6f6c20616464726573732063616e6e6f74206265207a60448201527f65726f00000000000000000000000000000000000000000000000000000000006064820152608401610553565b600780547fffffffffffffffffffffffff0000000000000000000000000000000000000000166001600160a01b0392909216919091179055565b6000547501000000000000000000000000000000000000000000900460ff16806108cb575060005474010000000000000000000000000000000000000000900460ff16155b61093d5760405162461bcd60e51b815260206004820152602e60248201527f496e697469616c697a61626c653a20636f6e747261637420697320616c72656160448201527f647920696e697469616c697a65640000000000000000000000000000000000006064820152608401610553565b6000547501000000000000000000000000000000000000000000900460ff161580156109a457600080547fffffffffffffffffffff0000ffffffffffffffffffffffffffffffffffffffff1675010100000000000000000000000000000000000000001790555b6001600160a01b038516610a1f5760405162461bcd60e51b8152602060048201526024808201527f576f6d6261743a20546f6b656e20616464726573732063616e6e6f742062652060448201527f7a65726f000000000000000000000000000000000000000000000000000000006064820152608401610553565b6001600160a01b038216610a9b5760405162461bcd60e51b815260206004820152603060248201527f576f6d6261743a20416767726567617465206163636f756e742061646472657360448201527f732063616e6e6f74206265207a65726f000000000000000000000000000000006064820152608401610553565b600a80547fffffffffffffffffffffffff000000000000000000000000000000000000000016331790558351610ad890600b906020870190611a85565b508251610aec90600c906020860190611a85565b50600680546001600160a01b038088167fffffffffffffffffffffffff000000000000000000000000000000000000000092831617909255600d8054928516929091169190911790558015610b6457600080547fffffffffffffffffffff00ffffffffffffffffffffffffffffffffffffffffff1690555b5050505050565b6000546001600160a01b03163314610bc55760405162461bcd60e51b815260206004820181905260248201527f4f776e61626c653a2063616c6c6572206973206e6f7420746865206f776e65726044820152606401610553565b610bcf60006115be565b565b60606005805461046490611e5d565b6006546040517f70a082310000000000000000000000000000000000000000000000000000000081523060048201526000916001600160a01b0316906370a082319060240160206040518083038186803b158015610c3d57600080fd5b505afa158015610c51573d6000803e3d6000fd5b505050506040513d601f19601f820116820180604052508101906106cd9190611d59565b6007546001600160a01b03163314610ccf5760405162461bcd60e51b815260206004820152601160248201527f576f6d6261743a20464f5242494444454e0000000000000000000000000000006044820152606401610553565b6107728282611626565b6007546001600160a01b03163314610d335760405162461bcd60e51b815260206004820152601160248201527f576f6d6261743a20464f5242494444454e0000000000000000000000000000006044820152606401610553565b600654610772906001600160a01b031683836117a8565b6007546001600160a01b03163314610da45760405162461bcd60e51b815260206004820152601160248201527f576f6d6261743a20464f5242494444454e0000000000000000000000000000006044820152606401610553565b806008541015610df65760405162461bcd60e51b815260206004820152601960248201527f576f6d6261743a20494e53554646494349454e545f43415348000000000000006044820152606401610553565b806008600082825461056e9190611e1a565b6007546001600160a01b03163314610e625760405162461bcd60e51b815260206004820152601160248201527f576f6d6261743a20464f5242494444454e0000000000000000000000000000006044820152606401610553565b806009600082825461056e9190611e02565b3360009081526002602090815260408083206001600160a01b038616845290915281205482811015610f0e5760405162461bcd60e51b815260206004820152602560248201527f45524332303a2064656372656173656420616c6c6f77616e63652062656c6f7760448201527f207a65726f0000000000000000000000000000000000000000000000000000006064820152608401610553565b610f1b338585840361116d565b5060019392505050565b60006104f43384846112c6565b600c8054610f3f90611e5d565b80601f0160208091040260200160405190810160405280929190818152602001828054610f6b90611e5d565b8015610fb85780601f10610f8d57610100808354040283529160200191610fb8565b820191906000526020600020905b815481529060010190602001808311610f9b57829003601f168201915b505050505081565b600b8054610f3f90611e5d565b6007546001600160a01b031633146110275760405162461bcd60e51b815260206004820152601160248201527f576f6d6261743a20464f5242494444454e0000000000000000000000000000006044820152606401610553565b8060095410156110795760405162461bcd60e51b815260206004820152601e60248201527f576f6d6261743a20494e53554646494349454e545f4c494142494c49545900006044820152606401610553565b806009600082825461056e9190611e1a565b6000546001600160a01b031633146110e55760405162461bcd60e51b815260206004820181905260248201527f4f776e61626c653a2063616c6c6572206973206e6f7420746865206f776e65726044820152606401610553565b6001600160a01b0381166111615760405162461bcd60e51b815260206004820152602660248201527f4f776e61626c653a206e6577206f776e657220697320746865207a65726f206160448201527f64647265737300000000000000000000000000000000000000000000000000006064820152608401610553565b61116a816115be565b50565b6001600160a01b0383166111e85760405162461bcd60e51b8152602060048201526024808201527f45524332303a20617070726f76652066726f6d20746865207a65726f2061646460448201527f72657373000000000000000000000000000000000000000000000000000000006064820152608401610553565b6001600160a01b0382166112645760405162461bcd60e51b815260206004820152602260248201527f45524332303a20617070726f766520746f20746865207a65726f20616464726560448201527f73730000000000000000000000000000000000000000000000000000000000006064820152608401610553565b6001600160a01b0383811660008181526002602090815260408083209487168084529482529182902085905590518481527f8c5be1e5ebec7d5bd14f71427d1e84f3dd0314c0f7b2291e5b200ac8c7c3b92591015b60405180910390a3505050565b6001600160a01b0383166113425760405162461bcd60e51b815260206004820152602560248201527f45524332303a207472616e736665722066726f6d20746865207a65726f20616460448201527f64726573730000000000000000000000000000000000000000000000000000006064820152608401610553565b6001600160a01b0382166113be5760405162461bcd60e51b815260206004820152602360248201527f45524332303a207472616e7366657220746f20746865207a65726f206164647260448201527f65737300000000000000000000000000000000000000000000000000000000006064820152608401610553565b6001600160a01b0383166000908152600160205260409020548181101561144d5760405162461bcd60e51b815260206004820152602660248201527f45524332303a207472616e7366657220616d6f756e742065786365656473206260448201527f616c616e636500000000000000000000000000000000000000000000000000006064820152608401610553565b6001600160a01b03808516600090815260016020526040808220858503905591851681529081208054849290611484908490611e02565b92505081905550826001600160a01b0316846001600160a01b03167fddf252ad1be2c89b69c2b068fc378daa952ba7f163c4a11628f55a4df523b3ef846040516114d091815260200190565b60405180910390a35b50505050565b6001600160a01b0382166115355760405162461bcd60e51b815260206004820152601f60248201527f45524332303a206d696e7420746f20746865207a65726f2061646472657373006044820152606401610553565b80600360008282546115479190611e02565b90915550506001600160a01b03821660009081526001602052604081208054839290611574908490611e02565b90915550506040518181526001600160a01b038316906000907fddf252ad1be2c89b69c2b068fc378daa952ba7f163c4a11628f55a4df523b3ef9060200160405180910390a35050565b600080546001600160a01b038381167fffffffffffffffffffffffff0000000000000000000000000000000000000000831681178455604051919092169283917f8be0079c531659141344cd1fd0a4f28419497f9722a3daafe3b4186f6b6457e09190a35050565b6001600160a01b0382166116a25760405162461bcd60e51b815260206004820152602160248201527f45524332303a206275726e2066726f6d20746865207a65726f2061646472657360448201527f73000000000000000000000000000000000000000000000000000000000000006064820152608401610553565b6001600160a01b038216600090815260016020526040902054818110156117315760405162461bcd60e51b815260206004820152602260248201527f45524332303a206275726e20616d6f756e7420657863656564732062616c616e60448201527f63650000000000000000000000000000000000000000000000000000000000006064820152608401610553565b6001600160a01b0383166000908152600160205260408120838303905560038054849290611760908490611e1a565b90915550506040518281526000906001600160a01b038516907fddf252ad1be2c89b69c2b068fc378daa952ba7f163c4a11628f55a4df523b3ef906020016112b9565b505050565b604080516001600160a01b03848116602483015260448083018590528351808403909101815260649092018352602080830180517bffffffffffffffffffffffffffffffffffffffffffffffffffffffff167fa9059cbb0000000000000000000000000000000000000000000000000000000017905283518085019094528084527f5361666545524332303a206c6f772d6c6576656c2063616c6c206661696c6564908401526117a3928692916000916118669185169084906118f6565b8051909150156117a357808060200190518101906118849190611d1e565b6117a35760405162461bcd60e51b815260206004820152602a60248201527f5361666545524332303a204552433230206f7065726174696f6e20646964206e60448201527f6f742073756363656564000000000000000000000000000000000000000000006064820152608401610553565b6060611905848460008561190d565b949350505050565b6060824710156119855760405162461bcd60e51b815260206004820152602660248201527f416464726573733a20696e73756666696369656e742062616c616e636520666f60448201527f722063616c6c00000000000000000000000000000000000000000000000000006064820152608401610553565b843b6119d35760405162461bcd60e51b815260206004820152601d60248201527f416464726573733a2063616c6c20746f206e6f6e2d636f6e74726163740000006044820152606401610553565b600080866001600160a01b031685876040516119ef9190611d95565b60006040518083038185875af1925050503d8060008114611a2c576040519150601f19603f3d011682016040523d82523d6000602084013e611a31565b606091505b5091509150611a41828286611a4c565b979650505050505050565b60608315611a5b575081610630565b825115611a6b5782518084602001fd5b8160405162461bcd60e51b81526004016105539190611db1565b828054611a9190611e5d565b90600052602060002090601f016020900481019282611ab35760008555611af9565b82601f10611acc57805160ff1916838001178555611af9565b82800160010185558215611af9579182015b82811115611af9578251825591602001919060010190611ade565b50611b05929150611b09565b5090565b5b80821115611b055760008155600101611b0a565b80356001600160a01b0381168114611b3557600080fd5b919050565b600082601f830112611b4b57600080fd5b813567ffffffffffffffff80821115611b6657611b66611ee0565b604051601f83017fffffffffffffffffffffffffffffffffffffffffffffffffffffffffffffffe0908116603f01168101908282118183101715611bac57611bac611ee0565b81604052838152866020858801011115611bc557600080fd5b836020870160208301376000602085830101528094505050505092915050565b600060208284031215611bf757600080fd5b61063082611b1e565b60008060408385031215611c1357600080fd5b611c1c83611b1e565b9150611c2a60208401611b1e565b90509250929050565b600080600060608486031215611c4857600080fd5b611c5184611b1e565b9250611c5f60208501611b1e565b9150604084013590509250925092565b60008060008060808587031215611c8557600080fd5b611c8e85611b1e565b9350602085013567ffffffffffffffff80821115611cab57600080fd5b611cb788838901611b3a565b94506040870135915080821115611ccd57600080fd5b50611cda87828801611b3a565b925050611ce960608601611b1e565b905092959194509250565b60008060408385031215611d0757600080fd5b611d1083611b1e565b946020939093013593505050565b600060208284031215611d3057600080fd5b8151801515811461063057600080fd5b600060208284031215611d5257600080fd5b5035919050565b600060208284031215611d6b57600080fd5b5051919050565b600060208284031215611d8457600080fd5b815160ff8116811461063057600080fd5b60008251611da7818460208701611e31565b9190910192915050565b6020815260008251806020840152611dd0816040850160208701611e31565b601f017fffffffffffffffffffffffffffffffffffffffffffffffffffffffffffffffe0169190910160400192915050565b60008219821115611e1557611e15611eb1565b500190565b600082821015611e2c57611e2c611eb1565b500390565b60005b83811015611e4c578181015183820152602001611e34565b838111156114d95750506000910152565b600181811c90821680611e7157607f821691505b60208210811415611eab577f4e487b7100000000000000000000000000000000000000000000000000000000600052602260045260246000fd5b50919050565b7f4e487b7100000000000000000000000000000000000000000000000000000000600052601160045260246000fd5b7f4e487b7100000000000000000000000000000000000000000000000000000000600052604160045260246000fdfea2646970667358221220226ff9ea83e93dfd391bd488045d64611bd5b2950ac308e7ea59ab16f794187964736f6c63430008050033",
  "devdoc": {
    "details": "Expect to be owned by Timelock for management, and _pool links to Pool for coordination",
    "kind": "dev",
    "methods": {
      "addCash(uint256)": {
        "params": {
          "amount": "amount to add"
        }
      },
      "addLiability(uint256)": {
        "params": {
          "amount": "amount to add"
        }
      },
      "aggregateAccount()": {
        "returns": {
          "_0": "The current Aggregate Account address for Asset"
        }
      },
      "allowance(address,address)": {
        "details": "See {IERC20-allowance}."
      },
      "approve(address,uint256)": {
        "details": "See {IERC20-approve}. Requirements: - `spender` cannot be the zero address."
      },
      "balanceOf(address)": {
        "details": "See {IERC20-balanceOf}."
      },
      "burn(address,uint256)": {
        "params": {
          "amount": "amount to burn",
          "to": "address holding the tokens"
        }
      },
      "constructor": {
        "params": {
          "aggregateAccount_": "The aggregate account to which the the asset belongs",
          "name_": "The name of the asset",
          "symbol_": "The symbol of the asset",
          "underlyingToken_": "The token represented by the asset"
        }
      },
      "decimals()": {
        "returns": {
          "_0": "The current decimals for underlying token"
        }
      },
      "decreaseAllowance(address,uint256)": {
        "details": "Atomically decreases the allowance granted to `spender` by the caller. This is an alternative to {approve} that can be used as a mitigation for problems described in {IERC20-approve}. Emits an {Approval} event indicating the updated allowance. Requirements: - `spender` cannot be the zero address. - `spender` must have allowance for the caller of at least `subtractedValue`."
      },
      "increaseAllowance(address,uint256)": {
        "details": "Atomically increases the allowance granted to `spender` by the caller. This is an alternative to {approve} that can be used as a mitigation for problems described in {IERC20-approve}. Emits an {Approval} event indicating the updated allowance. Requirements: - `spender` cannot be the zero address."
      },
      "initialize(address,string,string,address)": {
        "details": "_ suffix to avoid shadowing underlyingToken() name and  symbol",
        "params": {
          "aggregateAccount_": "The aggregate account to which the the asset belongs",
          "name_": "The name of the asset",
          "symbol_": "The symbol of the asset",
          "underlyingToken_": "The token represented by the asset"
        }
      },
      "mint(address,uint256)": {
        "params": {
          "amount": "amount to transfer",
          "to": "address to transfer the token to"
        }
      },
      "name()": {
        "details": "Returns the name of the token."
      },
      "owner()": {
        "details": "Returns the address of the current owner."
      },
      "pool()": {
        "returns": {
          "_0": "The current Pool address for Asset"
        }
      },
      "removeCash(uint256)": {
        "params": {
          "amount": "amount to remove"
        }
      },
      "removeLiability(uint256)": {
        "params": {
          "amount": "amount to remove"
        }
      },
      "renounceOwnership()": {
        "details": "Leaves the contract without owner. It will not be possible to call `onlyOwner` functions anymore. Can only be called by the current owner. NOTE: Renouncing ownership will leave the contract without an owner, thereby removing any functionality that is only available to the owner."
      },
      "setPool(address)": {
        "params": {
          "pool_": "new pool's address"
        }
      },
      "symbol()": {
        "details": "Returns the symbol of the token, usually a shorter version of the name."
      },
      "totalSupply()": {
        "details": "See {IERC20-totalSupply}."
      },
      "transfer(address,uint256)": {
        "details": "See {IERC20-transfer}. Requirements: - `recipient` cannot be the zero address. - the caller must have a balance of at least `amount`."
      },
      "transferFrom(address,address,uint256)": {
        "details": "See {IERC20-transferFrom}. Emits an {Approval} event indicating the updated allowance. This is not required by the EIP. See the note at the beginning of {ERC20}. Requirements: - `sender` and `recipient` cannot be the zero address. - `sender` must have a balance of at least `amount`. - the caller must have allowance for ``sender``'s tokens of at least `amount`."
      },
      "transferOwnership(address)": {
        "details": "Transfers ownership of the contract to a new account (`newOwner`). Can only be called by the current owner."
      },
      "transferUnderlyingToken(address,uint256)": {
        "details": "Not to be confused with transferring Wombat Assets.",
        "params": {
          "amount": "amount to transfer",
          "to": "address to transfer the token to"
        }
      },
      "underlyingToken()": {
        "returns": {
          "_0": "The current address of ERC20 underlyingToken for Asset"
        }
      },
      "underlyingTokenBalance()": {
        "returns": {
          "_0": "Returns the actual balance of ERC20 underlyingToken"
        }
      }
    },
    "title": "Asset",
    "version": 1
  },
  "userdoc": {
    "kind": "user",
    "methods": {
      "_name()": {
        "notice": "Name of the asset"
      },
      "_symbol()": {
        "notice": "Symbol of the asset"
      },
      "addCash(uint256)": {
        "notice": "Adds cash, expects actual ERC20 underlyingToken got transferred in. Can only be called by Pool."
      },
      "addLiability(uint256)": {
        "notice": "Adds deposit or dividend, expect LP underlyingToken minted in case of deposit. Can only be called by Pool."
      },
      "aggregateAccount()": {
        "notice": "Returns the address of the Aggregate Account 'holding' this asset"
      },
      "burn(address,uint256)": {
        "notice": "Burn ERC20 Asset LP Token, expect pool coordinates other state updates. Can only be called by Pool."
      },
      "cash()": {
        "notice": "Returns the amount of underlyingToken transferrable, expect to match underlyingTokenBalance()"
      },
      "constructor": {
        "notice": "Constructor."
      },
      "decimals()": {
        "notice": "Returns the decimals of ERC20 underlyingToken"
      },
      "initialize(address,string,string,address)": {
        "notice": "Initializer."
      },
      "liability()": {
        "notice": "Returns the amount of liability, the total deposit and dividend"
      },
      "mint(address,uint256)": {
        "notice": "Mint ERC20 Asset LP Token, expect pool coordinates other state updates. Can only be called by Pool."
      },
      "pool()": {
        "notice": "Gets current Pool address"
      },
      "removeCash(uint256)": {
        "notice": "Deducts cash, expect actual ERC20 got transferred out (by transferUnderlyingToken()). Can only be called by Pool."
      },
      "removeLiability(uint256)": {
        "notice": "Removes deposit and dividend earned, expect LP underlyingToken burnt. Can only be called by Pool."
      },
      "setPool(address)": {
        "notice": "TODO: move pool address setup within contract initializationChanges the pool. Can only be set by the contract owner."
      },
      "transferUnderlyingToken(address,uint256)": {
        "notice": "Transfers ERC20 underlyingToken from this contract to another account. Can only be called by Pool."
      },
      "underlyingToken()": {
        "notice": "Returns the address of ERC20 underlyingToken represented by this asset"
      },
      "underlyingTokenBalance()": {
        "notice": "Get underlying Token Balance"
      }
    },
    "notice": "Contract presenting an asset in a pool",
    "version": 1
  },
  "storageLayout": {
    "storage": [
      {
        "astId": 393,
        "contract": "contracts/asset/Asset.sol:Asset",
        "label": "_owner",
        "offset": 0,
        "slot": "0",
        "type": "t_address"
      },
      {
        "astId": 130,
        "contract": "contracts/asset/Asset.sol:Asset",
        "label": "_initialized",
        "offset": 20,
        "slot": "0",
        "type": "t_bool"
      },
      {
        "astId": 133,
        "contract": "contracts/asset/Asset.sol:Asset",
        "label": "_initializing",
        "offset": 21,
        "slot": "0",
        "type": "t_bool"
      },
      {
        "astId": 505,
        "contract": "contracts/asset/Asset.sol:Asset",
        "label": "_balances",
        "offset": 0,
        "slot": "1",
        "type": "t_mapping(t_address,t_uint256)"
      },
      {
        "astId": 511,
        "contract": "contracts/asset/Asset.sol:Asset",
        "label": "_allowances",
        "offset": 0,
        "slot": "2",
        "type": "t_mapping(t_address,t_mapping(t_address,t_uint256))"
      },
      {
        "astId": 513,
        "contract": "contracts/asset/Asset.sol:Asset",
        "label": "_totalSupply",
        "offset": 0,
        "slot": "3",
        "type": "t_uint256"
      },
      {
        "astId": 515,
        "contract": "contracts/asset/Asset.sol:Asset",
        "label": "_name",
        "offset": 0,
        "slot": "4",
        "type": "t_string_storage"
      },
      {
        "astId": 517,
        "contract": "contracts/asset/Asset.sol:Asset",
        "label": "_symbol",
        "offset": 0,
        "slot": "5",
        "type": "t_string_storage"
      },
      {
        "astId": 1758,
        "contract": "contracts/asset/Asset.sol:Asset",
        "label": "_underlyingToken",
        "offset": 0,
        "slot": "6",
        "type": "t_address"
      },
      {
        "astId": 1761,
        "contract": "contracts/asset/Asset.sol:Asset",
        "label": "_pool",
        "offset": 0,
        "slot": "7",
        "type": "t_address"
      },
      {
        "astId": 1764,
        "contract": "contracts/asset/Asset.sol:Asset",
        "label": "_cash",
        "offset": 0,
        "slot": "8",
        "type": "t_uint256"
      },
      {
        "astId": 1767,
        "contract": "contracts/asset/Asset.sol:Asset",
        "label": "_liability",
        "offset": 0,
        "slot": "9",
        "type": "t_uint256"
      },
      {
        "astId": 1770,
        "contract": "contracts/asset/Asset.sol:Asset",
        "label": "_owner",
        "offset": 0,
        "slot": "10",
        "type": "t_address"
      },
      {
        "astId": 1773,
        "contract": "contracts/asset/Asset.sol:Asset",
        "label": "_name",
        "offset": 0,
        "slot": "11",
        "type": "t_string_storage"
      },
      {
        "astId": 1776,
        "contract": "contracts/asset/Asset.sol:Asset",
        "label": "_symbol",
        "offset": 0,
        "slot": "12",
        "type": "t_string_storage"
      },
      {
        "astId": 1779,
        "contract": "contracts/asset/Asset.sol:Asset",
        "label": "_aggregateAccount",
        "offset": 0,
        "slot": "13",
        "type": "t_address"
      }
    ],
    "types": {
      "t_address": {
        "encoding": "inplace",
        "label": "address",
        "numberOfBytes": "20"
      },
      "t_bool": {
        "encoding": "inplace",
        "label": "bool",
        "numberOfBytes": "1"
      },
      "t_mapping(t_address,t_mapping(t_address,t_uint256))": {
        "encoding": "mapping",
        "key": "t_address",
        "label": "mapping(address => mapping(address => uint256))",
        "numberOfBytes": "32",
        "value": "t_mapping(t_address,t_uint256)"
      },
      "t_mapping(t_address,t_uint256)": {
        "encoding": "mapping",
        "key": "t_address",
        "label": "mapping(address => uint256)",
        "numberOfBytes": "32",
        "value": "t_uint256"
      },
      "t_string_storage": {
        "encoding": "bytes",
        "label": "string",
        "numberOfBytes": "32"
      },
      "t_uint256": {
        "encoding": "inplace",
        "label": "uint256",
        "numberOfBytes": "32"
      }
    }
  }
}