{
  "address": "0x9895C939fAc1F6Aa19bE6D9cA5370ca7a70Da5f7",
  "abi": [
    {
      "anonymous": false,
      "inputs": [
        {
          "indexed": true,
          "internalType": "uint256",
          "name": "pid",
          "type": "uint256"
        },
        {
          "indexed": true,
          "internalType": "contract IERC20",
          "name": "lpToken",
          "type": "address"
        },
        {
          "indexed": false,
          "internalType": "contract IBoostedMultiRewarder",
          "name": "boostedRewarder",
          "type": "address"
        }
      ],
      "name": "Add",
      "type": "event"
    },
    {
      "anonymous": false,
      "inputs": [
        {
          "indexed": true,
          "internalType": "address",
          "name": "user",
          "type": "address"
        },
        {
          "indexed": true,
          "internalType": "uint256",
          "name": "pid",
          "type": "uint256"
        },
        {
          "indexed": false,
          "internalType": "uint256",
          "name": "amount",
          "type": "uint256"
        }
      ],
      "name": "Deposit",
      "type": "event"
    },
    {
      "anonymous": false,
      "inputs": [
        {
          "indexed": true,
          "internalType": "address",
          "name": "user",
          "type": "address"
        },
        {
          "indexed": true,
          "internalType": "uint256",
          "name": "pid",
          "type": "uint256"
        },
        {
          "indexed": false,
          "internalType": "uint256",
          "name": "amount",
          "type": "uint256"
        }
      ],
      "name": "DepositFor",
      "type": "event"
    },
    {
      "anonymous": false,
      "inputs": [
        {
          "indexed": true,
          "internalType": "address",
          "name": "user",
          "type": "address"
        },
        {
          "indexed": true,
          "internalType": "uint256",
          "name": "pid",
          "type": "uint256"
        },
        {
          "indexed": false,
          "internalType": "uint256",
          "name": "amount",
          "type": "uint256"
        }
      ],
      "name": "EmergencyWithdraw",
      "type": "event"
    },
    {
      "anonymous": false,
      "inputs": [
        {
          "indexed": false,
          "internalType": "address",
          "name": "owner",
          "type": "address"
        },
        {
          "indexed": false,
          "internalType": "uint256",
          "name": "balance",
          "type": "uint256"
        }
      ],
      "name": "EmergencyWomWithdraw",
      "type": "event"
    },
    {
      "anonymous": false,
      "inputs": [
        {
          "indexed": true,
          "internalType": "address",
          "name": "user",
          "type": "address"
        },
        {
          "indexed": true,
          "internalType": "uint256",
          "name": "pid",
          "type": "uint256"
        },
        {
          "indexed": false,
          "internalType": "uint256",
          "name": "amount",
          "type": "uint256"
        }
      ],
      "name": "Harvest",
      "type": "event"
    },
    {
      "anonymous": false,
      "inputs": [
        {
          "indexed": false,
          "internalType": "uint8",
          "name": "version",
          "type": "uint8"
        }
      ],
      "name": "Initialized",
      "type": "event"
    },
    {
      "anonymous": false,
      "inputs": [
        {
          "indexed": true,
          "internalType": "address",
          "name": "previousOwner",
          "type": "address"
        },
        {
          "indexed": true,
          "internalType": "address",
          "name": "newOwner",
          "type": "address"
        }
      ],
      "name": "OwnershipTransferred",
      "type": "event"
    },
    {
      "anonymous": false,
      "inputs": [
        {
          "indexed": false,
          "internalType": "address",
          "name": "account",
          "type": "address"
        }
      ],
      "name": "Paused",
      "type": "event"
    },
    {
      "anonymous": false,
      "inputs": [
        {
          "indexed": true,
          "internalType": "uint256",
          "name": "pid",
          "type": "uint256"
        },
        {
          "indexed": false,
          "internalType": "contract IBoostedMultiRewarder",
          "name": "boostedRewarder",
          "type": "address"
        }
      ],
      "name": "SetBoostedRewarder",
      "type": "event"
    },
    {
      "anonymous": false,
      "inputs": [
        {
          "indexed": true,
          "internalType": "uint256",
          "name": "pid",
          "type": "uint256"
        },
        {
          "indexed": false,
          "internalType": "contract IMultiRewarder",
          "name": "rewarder",
          "type": "address"
        }
      ],
      "name": "SetRewarder",
      "type": "event"
    },
    {
      "anonymous": false,
      "inputs": [
        {
          "indexed": false,
          "internalType": "address",
          "name": "account",
          "type": "address"
        }
      ],
      "name": "Unpaused",
      "type": "event"
    },
    {
      "anonymous": false,
      "inputs": [
        {
          "indexed": true,
          "internalType": "address",
          "name": "user",
          "type": "address"
        },
        {
          "indexed": false,
          "internalType": "uint256",
          "name": "basePartition",
          "type": "uint256"
        },
        {
          "indexed": false,
          "internalType": "uint256",
          "name": "boostedPartition",
          "type": "uint256"
        }
      ],
      "name": "UpdateEmissionPartition",
      "type": "event"
    },
    {
      "anonymous": false,
      "inputs": [
        {
          "indexed": true,
          "internalType": "address",
          "name": "user",
          "type": "address"
        },
        {
          "indexed": false,
          "internalType": "address",
          "name": "oldVeWOM",
          "type": "address"
        },
        {
          "indexed": false,
          "internalType": "address",
          "name": "newVeWOM",
          "type": "address"
        }
      ],
      "name": "UpdateVeWOM",
      "type": "event"
    },
    {
      "anonymous": false,
      "inputs": [
        {
          "indexed": true,
          "internalType": "address",
          "name": "user",
          "type": "address"
        },
        {
          "indexed": false,
          "internalType": "address",
          "name": "oldVoter",
          "type": "address"
        },
        {
          "indexed": false,
          "internalType": "address",
          "name": "newVoter",
          "type": "address"
        }
      ],
      "name": "UpdateVoter",
      "type": "event"
    },
    {
      "anonymous": false,
      "inputs": [
        {
          "indexed": true,
          "internalType": "address",
          "name": "user",
          "type": "address"
        },
        {
          "indexed": true,
          "internalType": "uint256",
          "name": "pid",
          "type": "uint256"
        },
        {
          "indexed": false,
          "internalType": "uint256",
          "name": "amount",
          "type": "uint256"
        }
      ],
      "name": "Withdraw",
      "type": "event"
    },
    {
      "inputs": [],
      "name": "ACC_TOKEN_PRECISION",
      "outputs": [
        {
          "internalType": "uint256",
          "name": "",
          "type": "uint256"
        }
      ],
      "stateMutability": "view",
      "type": "function"
    },
    {
      "inputs": [],
      "name": "REWARD_DURATION",
      "outputs": [
        {
          "internalType": "uint256",
          "name": "",
          "type": "uint256"
        }
      ],
      "stateMutability": "view",
      "type": "function"
    },
    {
      "inputs": [
        {
          "internalType": "contract IERC20",
          "name": "_lpToken",
          "type": "address"
        },
        {
          "internalType": "contract IBoostedMultiRewarder",
          "name": "_boostedRewarder",
          "type": "address"
        }
      ],
      "name": "add",
      "outputs": [],
      "stateMutability": "nonpayable",
      "type": "function"
    },
    {
      "inputs": [],
      "name": "basePartition",
      "outputs": [
        {
          "internalType": "uint16",
          "name": "",
          "type": "uint16"
        }
      ],
      "stateMutability": "view",
      "type": "function"
    },
    {
      "inputs": [],
      "name": "boostedPartition",
      "outputs": [
        {
          "internalType": "uint256",
          "name": "",
          "type": "uint256"
        }
      ],
      "stateMutability": "view",
      "type": "function"
    },
    {
      "inputs": [
        {
          "internalType": "uint256",
          "name": "",
          "type": "uint256"
        }
      ],
      "name": "boostedRewarders",
      "outputs": [
        {
          "internalType": "contract IBoostedMultiRewarder",
          "name": "",
          "type": "address"
        }
      ],
      "stateMutability": "view",
      "type": "function"
    },
    {
      "inputs": [],
      "name": "bribeRewarderFactory",
      "outputs": [
        {
          "internalType": "contract IBribeRewarderFactory",
          "name": "",
          "type": "address"
        }
      ],
      "stateMutability": "view",
      "type": "function"
    },
    {
      "inputs": [
        {
          "internalType": "uint256",
          "name": "_pid",
          "type": "uint256"
        }
      ],
      "name": "calRewardPerUnit",
      "outputs": [
        {
          "internalType": "uint256",
          "name": "accWomPerShare",
          "type": "uint256"
        },
        {
          "internalType": "uint256",
          "name": "accWomPerFactorShare",
          "type": "uint256"
        }
      ],
      "stateMutability": "view",
      "type": "function"
    },
    {
      "inputs": [
        {
          "internalType": "uint256",
          "name": "_pid",
          "type": "uint256"
        },
        {
          "internalType": "uint256",
          "name": "_amount",
          "type": "uint256"
        }
      ],
      "name": "deposit",
      "outputs": [
        {
          "internalType": "uint256",
          "name": "reward",
          "type": "uint256"
        },
        {
          "internalType": "uint256[]",
          "name": "additionalRewards",
          "type": "uint256[]"
        }
      ],
      "stateMutability": "nonpayable",
      "type": "function"
    },
    {
      "inputs": [
        {
          "internalType": "uint256",
          "name": "_pid",
          "type": "uint256"
        },
        {
          "internalType": "uint256",
          "name": "_amount",
          "type": "uint256"
        },
        {
          "internalType": "address",
          "name": "_user",
          "type": "address"
        }
      ],
      "name": "depositFor",
      "outputs": [],
      "stateMutability": "nonpayable",
      "type": "function"
    },
    {
      "inputs": [
        {
          "internalType": "uint256",
          "name": "_pid",
          "type": "uint256"
        }
      ],
      "name": "emergencyWithdraw",
      "outputs": [],
      "stateMutability": "nonpayable",
      "type": "function"
    },
    {
      "inputs": [],
      "name": "emergencyWomWithdraw",
      "outputs": [],
      "stateMutability": "nonpayable",
      "type": "function"
    },
    {
      "inputs": [
        {
          "internalType": "address",
          "name": "asset",
          "type": "address"
        }
      ],
      "name": "getAssetPid",
      "outputs": [
        {
          "internalType": "uint256",
          "name": "",
          "type": "uint256"
        }
      ],
      "stateMutability": "view",
      "type": "function"
    },
    {
      "inputs": [
        {
          "internalType": "uint256",
          "name": "_pid",
          "type": "uint256"
        }
      ],
      "name": "getSumOfFactors",
      "outputs": [
        {
          "internalType": "uint256",
          "name": "",
          "type": "uint256"
        }
      ],
      "stateMutability": "view",
      "type": "function"
    },
    {
      "inputs": [
        {
          "internalType": "contract IERC20",
          "name": "_wom",
          "type": "address"
        },
        {
          "internalType": "contract IVeWom",
          "name": "_veWom",
          "type": "address"
        },
        {
          "internalType": "address",
          "name": "_voter",
          "type": "address"
        },
        {
          "internalType": "uint16",
          "name": "_basePartition",
          "type": "uint16"
        }
      ],
      "name": "initialize",
      "outputs": [],
      "stateMutability": "nonpayable",
      "type": "function"
    },
    {
      "inputs": [
        {
          "internalType": "uint256",
          "name": "_periodFinish",
          "type": "uint256"
        }
      ],
      "name": "lastTimeRewardApplicable",
      "outputs": [
        {
          "internalType": "uint256",
          "name": "",
          "type": "uint256"
        }
      ],
      "stateMutability": "view",
      "type": "function"
    },
    {
      "inputs": [],
      "name": "massUpdatePools",
      "outputs": [],
      "stateMutability": "nonpayable",
      "type": "function"
    },
    {
      "inputs": [
        {
          "internalType": "uint256[]",
          "name": "_pids",
          "type": "uint256[]"
        }
      ],
      "name": "migrate",
      "outputs": [],
      "stateMutability": "nonpayable",
      "type": "function"
    },
    {
      "inputs": [
        {
          "internalType": "uint256[]",
          "name": "_pids",
          "type": "uint256[]"
        }
      ],
      "name": "multiClaim",
      "outputs": [
        {
          "internalType": "uint256",
          "name": "reward",
          "type": "uint256"
        },
        {
          "internalType": "uint256[]",
          "name": "amounts",
          "type": "uint256[]"
        },
        {
          "internalType": "uint256[][]",
          "name": "additionalRewards",
          "type": "uint256[][]"
        }
      ],
      "stateMutability": "nonpayable",
      "type": "function"
    },
    {
      "inputs": [
        {
          "internalType": "address",
          "name": "_lpToken",
          "type": "address"
        },
        {
          "internalType": "uint256",
          "name": "_amount",
          "type": "uint256"
        }
      ],
      "name": "notifyRewardAmount",
      "outputs": [],
      "stateMutability": "nonpayable",
      "type": "function"
    },
    {
      "inputs": [],
      "name": "owner",
      "outputs": [
        {
          "internalType": "address",
          "name": "",
          "type": "address"
        }
      ],
      "stateMutability": "view",
      "type": "function"
    },
    {
      "inputs": [],
      "name": "pause",
      "outputs": [],
      "stateMutability": "nonpayable",
      "type": "function"
    },
    {
      "inputs": [],
      "name": "paused",
      "outputs": [
        {
          "internalType": "bool",
          "name": "",
          "type": "bool"
        }
      ],
      "stateMutability": "view",
      "type": "function"
    },
    {
      "inputs": [
        {
          "internalType": "uint256",
          "name": "_pid",
          "type": "uint256"
        },
        {
          "internalType": "address",
          "name": "_user",
          "type": "address"
        }
      ],
      "name": "pendingTokens",
      "outputs": [
        {
          "internalType": "uint256",
          "name": "pendingRewards",
          "type": "uint256"
        },
        {
          "internalType": "contract IERC20[]",
          "name": "bonusTokenAddresses",
          "type": "address[]"
        },
        {
          "internalType": "string[]",
          "name": "bonusTokenSymbols",
          "type": "string[]"
        },
        {
          "internalType": "uint256[]",
          "name": "pendingBonusRewards",
          "type": "uint256[]"
        }
      ],
      "stateMutability": "view",
      "type": "function"
    },
    {
      "inputs": [
        {
          "internalType": "uint256",
          "name": "_pid",
          "type": "uint256"
        }
      ],
      "name": "poolInfo",
      "outputs": [
        {
          "internalType": "contract IERC20",
          "name": "lpToken",
          "type": "address"
        },
        {
          "internalType": "uint96",
          "name": "allocPoint",
          "type": "uint96"
        },
        {
          "internalType": "contract IMultiRewarder",
          "name": "rewarder",
          "type": "address"
        },
        {
          "internalType": "uint256",
          "name": "sumOfFactors",
          "type": "uint256"
        },
        {
          "internalType": "uint104",
          "name": "accWomPerShare",
          "type": "uint104"
        },
        {
          "internalType": "uint104",
          "name": "accWomPerFactorShare",
          "type": "uint104"
        },
        {
          "internalType": "uint40",
          "name": "lastRewardTimestamp",
          "type": "uint40"
        }
      ],
      "stateMutability": "view",
      "type": "function"
    },
    {
      "inputs": [
        {
          "internalType": "uint256",
          "name": "",
          "type": "uint256"
        }
      ],
      "name": "poolInfoV3",
      "outputs": [
        {
          "internalType": "contract IERC20",
          "name": "lpToken",
          "type": "address"
        },
        {
          "internalType": "contract IMultiRewarder",
          "name": "rewarder",
          "type": "address"
        },
        {
          "internalType": "uint40",
          "name": "periodFinish",
          "type": "uint40"
        },
        {
          "internalType": "uint128",
          "name": "sumOfFactors",
          "type": "uint128"
        },
        {
          "internalType": "uint128",
          "name": "rewardRate",
          "type": "uint128"
        },
        {
          "internalType": "uint104",
          "name": "accWomPerShare",
          "type": "uint104"
        },
        {
          "internalType": "uint104",
          "name": "accWomPerFactorShare",
          "type": "uint104"
        },
        {
          "internalType": "uint40",
          "name": "lastRewardTimestamp",
          "type": "uint40"
        }
      ],
      "stateMutability": "view",
      "type": "function"
    },
    {
      "inputs": [],
      "name": "poolLength",
      "outputs": [
        {
          "internalType": "uint256",
          "name": "",
          "type": "uint256"
        }
      ],
      "stateMutability": "view",
      "type": "function"
    },
    {
      "inputs": [],
      "name": "renounceOwnership",
      "outputs": [],
      "stateMutability": "nonpayable",
      "type": "function"
    },
    {
      "inputs": [
        {
          "internalType": "uint256",
          "name": "_pid",
          "type": "uint256"
        }
      ],
      "name": "rewarderBonusTokenInfo",
      "outputs": [
        {
          "internalType": "contract IERC20[]",
          "name": "bonusTokenAddresses",
          "type": "address[]"
        },
        {
          "internalType": "string[]",
          "name": "bonusTokenSymbols",
          "type": "string[]"
        }
      ],
      "stateMutability": "view",
      "type": "function"
    },
    {
      "inputs": [
        {
          "internalType": "contract IBribeRewarderFactory",
          "name": "_bribeRewarderFactory",
          "type": "address"
        }
      ],
      "name": "setBribeRewarderFactory",
      "outputs": [],
      "stateMutability": "nonpayable",
      "type": "function"
    },
    {
      "inputs": [
        {
          "internalType": "contract IMasterWombatV3",
          "name": "_newMasterWombat",
          "type": "address"
        }
      ],
      "name": "setNewMasterWombat",
      "outputs": [],
      "stateMutability": "nonpayable",
      "type": "function"
    },
    {
      "inputs": [
        {
          "internalType": "uint256",
          "name": "_pid",
          "type": "uint256"
        },
        {
          "internalType": "contract IBoostedMultiRewarder",
          "name": "_boostedRewarder",
          "type": "address"
        }
      ],
      "name": "setRewarder",
      "outputs": [],
      "stateMutability": "nonpayable",
      "type": "function"
    },
    {
      "inputs": [
        {
          "internalType": "contract IVeWom",
          "name": "_newVeWom",
          "type": "address"
        }
      ],
      "name": "setVeWom",
      "outputs": [],
      "stateMutability": "nonpayable",
      "type": "function"
    },
    {
      "inputs": [
        {
          "internalType": "address",
          "name": "_newVoter",
          "type": "address"
        }
      ],
      "name": "setVoter",
      "outputs": [],
      "stateMutability": "nonpayable",
      "type": "function"
    },
    {
      "inputs": [
        {
          "internalType": "address",
          "name": "newOwner",
          "type": "address"
        }
      ],
      "name": "transferOwnership",
      "outputs": [],
      "stateMutability": "nonpayable",
      "type": "function"
    },
    {
      "inputs": [],
      "name": "unpause",
      "outputs": [],
      "stateMutability": "nonpayable",
      "type": "function"
    },
    {
      "inputs": [
        {
          "internalType": "uint16",
          "name": "_basePartition",
          "type": "uint16"
        }
      ],
      "name": "updateEmissionPartition",
      "outputs": [],
      "stateMutability": "nonpayable",
      "type": "function"
    },
    {
      "inputs": [
        {
          "internalType": "address",
          "name": "_user",
          "type": "address"
        },
        {
          "internalType": "uint256",
          "name": "_newVeWomBalance",
          "type": "uint256"
        }
      ],
      "name": "updateFactor",
      "outputs": [],
      "stateMutability": "nonpayable",
      "type": "function"
    },
    {
      "inputs": [
        {
          "internalType": "uint256",
          "name": "_pid",
          "type": "uint256"
        }
      ],
      "name": "updatePool",
      "outputs": [],
      "stateMutability": "nonpayable",
      "type": "function"
    },
    {
      "inputs": [
        {
          "internalType": "uint256",
          "name": "",
          "type": "uint256"
        },
        {
          "internalType": "address",
          "name": "",
          "type": "address"
        }
      ],
      "name": "userInfo",
      "outputs": [
        {
          "internalType": "uint128",
          "name": "amount",
          "type": "uint128"
        },
        {
          "internalType": "uint128",
          "name": "factor",
          "type": "uint128"
        },
        {
          "internalType": "uint128",
          "name": "rewardDebt",
          "type": "uint128"
        },
        {
          "internalType": "uint128",
          "name": "pendingWom",
          "type": "uint128"
        }
      ],
      "stateMutability": "view",
      "type": "function"
    },
    {
      "inputs": [],
      "name": "veWom",
      "outputs": [
        {
          "internalType": "contract IVeWom",
          "name": "",
          "type": "address"
        }
      ],
      "stateMutability": "view",
      "type": "function"
    },
    {
      "inputs": [],
      "name": "voter",
      "outputs": [
        {
          "internalType": "address",
          "name": "",
          "type": "address"
        }
      ],
      "stateMutability": "view",
      "type": "function"
    },
    {
      "inputs": [
        {
          "internalType": "uint256",
          "name": "_pid",
          "type": "uint256"
        },
        {
          "internalType": "uint256",
          "name": "_amount",
          "type": "uint256"
        }
      ],
      "name": "withdraw",
      "outputs": [
        {
          "internalType": "uint256",
          "name": "reward",
          "type": "uint256"
        },
        {
          "internalType": "uint256[]",
          "name": "additionalRewards",
          "type": "uint256[]"
        }
      ],
      "stateMutability": "nonpayable",
      "type": "function"
    },
    {
      "inputs": [],
      "name": "wom",
      "outputs": [
        {
          "internalType": "contract IERC20",
          "name": "",
          "type": "address"
        }
      ],
      "stateMutability": "view",
      "type": "function"
    }
  ],
  "transactionHash": "0xbbac36abf3e374e9f4344ba18fbdcac46cd9cef9f30afb75705421503e559127",
  "args": [],
  "numDeployments": 1,
  "solcInputHash": "363cecd2023599fe1fb7650111e28756",
  "bytecode": "0x6080806040523461001657613ea4908161001c8239f35b600080fdfe608080604052600436101561001357600080fd5b60003560e01c908163081e3eda146125ec575080631526fe271461251d5780631983dbf5146124705780632e112757146121bd5780633e582ae6146121965780633f4ba83a146120fa57806343de320714611fb4578063441a3e7014611e5257806346c96aac14611e2b5780634bc2a65714611dac5780634ed73d2814611cd05780634f00a93e146119c357806351eb05a6146119a757806352c28fab146116245780635312ea8e146114455780635ade228a146114275780635c975abb146114045780635da36238146113d0578063630b5ba1146113b7578063715018a61461135c5780637544d7d9146113195780638456cb59146112bf57806384cd668b146112985780638da5cb5b1461127157806390210d7e1461116057806393f1a40b146110f05780639b128de61461105f578063abfef1111461103a578063af929a8014610f93578063b163e79314610eef578063b66503cf14610c96578063b8be44e714610c6c578063bc70fdbc14610c25578063be159bea14610bf6578063c5a6222e14610bcf578063ca6f309d14610b9a578063d1e2ac8814610b57578063d93bf4fe14610870578063e2bbb15814610753578063eea0160414610733578063eeca156214610700578063f13e550714610560578063f2fde38b146104bb5763ffcd42631461020357600080fd5b346104b65760403660031901126104b65760043561021f61261d565b9060606102a761022e83613b15565b8460009392935260d06020526040600020926001600160a01b03809716938460005260205261029f600164e8d4a5100061029060406000209561028a8754916102816001600160801b0398898516612c0f565b9260801c612c0f565b906129c2565b04930154928360801c906129c2565b9116906129b5565b926102b1816136db565b9290958060016102c0856126e0565b500154169260005260d260205260406000205416918015808015906104ad575b61032b575b8787610327886103198961030b6040519687968752608060208801526080870190612730565b908582036040870152612790565b90838203606085015261265f565b0390f35b9294509091156103a5575060009060246040518095819363c031a66f60e01b835260048301525afa918215610399576103279261031991600091610376575b50915b919238806102e5565b61039391503d806000833e61038b8183612993565b810190612dac565b3861036a565b6040513d6000823e3d90fd5b9280610402575060009060246040518095819363c031a66f60e01b835260048301525afa9182156103995761032792610319916000916103e7575b509161036d565b6103fc91503d806000833e61038b8183612993565b386103e0565b92906040519060008260248163c031a66f60e01b968782528560048301525afa9182156103995760009261048d575b506024600092936040519687938492835260048301525afa92831561039957610327936103199261046a92600092610470575b50613cbd565b9161036d565b6104869192503d806000833e61038b8183612993565b9038610464565b600092506104a66024913d8086833e61038b8183612993565b9250610431565b508315156102e0565b600080fd5b346104b65760203660031901126104b6576104d4612607565b6104dc612801565b6001600160a01b038116156104f6576104f490612859565b005b608460405162461bcd60e51b815260206004820152602660248201527f4f776e61626c653a206e6577206f776e657220697320746865207a65726f206160448201527f64647265737300000000000000000000000000000000000000000000000000006064820152fd5b346104b65760003660031901126104b657610579612801565b6001600160a01b038060c95416906040516370a0823160e01b918282523060048301526020938483602481845afa80156103995785936000916106ce575b5060405163a9059cbb60e01b815233600482015260248101919091529290839060449082906000905af19182156103995784926106a1575b5060c954169160246040518094819382523060048301525afa91821561039957600092610651575b60408051338152602081018590527f2b58f1b72aa1f2865f8da73af0eaff3a2b5b670c59fed83005919fe6c23cf35c91819081015b0390a1005b90809250813d831161069a575b6106688183612993565b810103126104b6575161064c7f2b58f1b72aa1f2865f8da73af0eaff3a2b5b670c59fed83005919fe6c23cf35c610617565b503d61065e565b6106c090833d85116106c7575b6106b88183612993565b810190612ca8565b50846105ef565b503d6106ae565b84819592503d83116106f9575b6106e58183612993565b810103126104b657915184929060006105b7565b503d6106db565b346104b65760203660031901126104b65760043580421060001461072b57506020425b604051908152f35b602090610723565b346104b65760003660031901126104b657602060405164e8d4a510008152f35b346104b65761076136612649565b610769612cd9565b610771612912565b61077a826126e0565b5090826000526001600160a01b0360209360d0855260406000203360005285526107c56107be846001600160801b0360406000206107b786612aa3565b54166129c2565b3383613155565b94546040516323b872dd60e01b815233600482015230602482015260448101869052919591949193879186916064918391600091165af19384156103995761032794610853575b506040519081527f90890809c654f11d6e72a28fa60149770a0d11ec6c92319d6ceb2bb0a4ea1a15863392a36001606555604080519485948552840152604083019061265f565b61086990873d89116106c7576106b88183612993565b508661080c565b346104b65761087e36612693565b610886612cd9565b6001600160a01b0360cb541615610b13576108aa6108a5368385612c5a565b612e26565b50505060005b8181106108be576001606555005b8060051b83013560005260d06020526040600020336000526020526040600020906001600160801b0382541680610900575b506108fb9150612a6c565b6108b0565b61098360206109148460051b8801356126e0565b50926001600160a01b038454166001600160a01b0360cb541660006040518096819582947f095ea7b3000000000000000000000000000000000000000000000000000000008452600484019092916001600160801b036020916001600160a01b03604085019616845216910152565b03925af1801561039957610af4575b506001600160a01b0360cb5416926001600160a01b03825416604051907faf929a800000000000000000000000000000000000000000000000000000000082526004820152602081602481885afa90811561039957600091610ac2575b506001600160801b03825416853b156104b65760646000928360405198899485937f90210d7e000000000000000000000000000000000000000000000000000000008552600485015260248401523360448401525af1908115610399576108fb94600292610ab3575b505460801c9101906001600160801b03196001600160801b03610a7f845493828516612cc0565b1691161790558060051b84013560005260d060205260406000203360005260205260006001604082208281550155846108f0565b610abc9061297f565b87610a58565b90506020813d602011610aec575b81610add60209383612993565b810103126104b65751876109ef565b3d9150610ad0565b610b0c9060203d6020116106c7576106b88183612993565b5085610992565b606460405162461bcd60e51b815260206004820152600960248201527f746f2077686572653f00000000000000000000000000000000000000000000006044820152fd5b346104b65760203660031901126104b6576004356001600160a01b0381168091036104b657610b84612801565b6001600160a01b031960cb54161760cb55600080f35b346104b65760203660031901126104b65760043560005260d260205260206001600160a01b0360406000205416604051908152f35b346104b65760003660031901126104b65760206001600160a01b0360c95416604051908152f35b346104b65760003660031901126104b657602061ffff610c1c8160cc5460a01c1661363d565b16604051908152f35b346104b65760203660031901126104b657610c5e610327610c476004356136db565b604092919251938493604085526040850190612730565b908382036020850152612790565b346104b65760203660031901126104b6576040610c8a600435613b15565b82519182526020820152f35b346104b65760403660031901126104b657610caf612607565b6024908135906001600160a01b03908160cc54163303610e85578215610e41571660005260d16020526040600020546000198101908111610e2c57610cf3906126e0565b50600381019064ffffffffff9182815460d01c1693600183019484865460a01c1680821015600014610dbf575050610d7c926002610d3862093a80610d5a9404613d40565b9101906001600160801b036001600160801b031983549260801b169116179055565b805464ffffffffff60d01b191642841660d01b64ffffffffff60d01b16179055565b62093a804201804211610daa57825464ffffffffff60a01b1916911660a01b64ffffffffff60a01b16179055005b83634e487b7160e01b60005260116004526000fd5b03848111610e1757610df362093a80610ded610e129461028a6002610d7c9901958a875460801c9116612c0f565b04613d40565b6001600160801b036001600160801b031983549260801b169116179055565b610d5a565b86634e487b7160e01b60005260116004526000fd5b82634e487b7160e01b60005260116004526000fd5b606484601f6040519162461bcd60e51b8352602060048401528201527f6e6f74696679526577617264416d6f756e743a207a65726f20616d6f756e74006044820152fd5b60848460216040519162461bcd60e51b8352602060048401528201527f4d6173746572576f6d6261743a2063616c6c6572206973206e6f7420566f746560448201527f72000000000000000000000000000000000000000000000000000000000000006064820152fd5b346104b65760203660031901126104b65760043560cf548110156104b657610f19610100916126e0565b506001600160a01b0390818154169160018201549160036002820154910154916040519485528316602085015264ffffffffff809360a01c1660408501526001600160801b038116606085015260801c60808401526001600160681b0380821660a08501528160681c1660c084015260d01c1660e0820152f35b346104b65760203660031901126104b6576001600160a01b03610fb4612607565b1660005260d16020526040600020548015610ff6576000198101908111610fe057602090604051908152f35b634e487b7160e01b600052601160045260246000fd5b606460405162461bcd60e51b815260206004820152600b60248201527f696e76616c6964207069640000000000000000000000000000000000000000006044820152fd5b346104b65760003660031901126104b657602061ffff60cc5460a01c16604051908152f35b346104b65760203660031901126104b657611078612607565b611080612801565b6001600160a01b0380911680156104b65760ca80546001600160a01b03198116831790915560408051939091166001600160a01b039081168452909116602083015233917fa0956d8e03557278fdb89913cec4e0f21da09587edf25b3eecc0079cdb757ef591819081015b0390a2005b346104b65760403660031901126104b65761110961261d565b60043560005260d06020526001600160a01b03604060002091166000526020526080604060002060018154910154604051916001600160801b03908181168452841c602084015281166040830152821c6060820152f35b346104b65760603660031901126104b65760043560243561117f612633565b90611188612cd9565b611190612912565b611199836126e0565b50918360005260209060d082526040600020936111e36001600160a01b0392838116968760005285526111dc866001600160801b0360406000206107b78c612aa3565b9088613155565b5050546040516323b872dd60e01b8152336004820152306024820152604481018590529391839185916064918391600091165af1928315610399577f16f3fbfd4bcc50a5cecb2e53e398a1ad77d89f63288ef540d862b264ed57eb1f93611254575b50604051908152a36001606555005b61126a90833d85116106c7576106b88183612993565b5085611245565b346104b65760003660031901126104b65760206001600160a01b0360335416604051908152f35b346104b65760003660031901126104b65760206001600160a01b0360d35416604051908152f35b346104b65760003660031901126104b6576112d8612801565b6112e0612912565b600160ff1960975416176097557f62e78cea01bee320cd4e420270b5ea74000d11b0c9f74754ebdbfc544b05a2586020604051338152a1005b346104b65760203660031901126104b6576004356001600160a01b0381168091036104b657611346612801565b6001600160a01b031960d354161760d355600080f35b346104b65760003660031901126104b657611375612801565b60006001600160a01b036033546001600160a01b03198116603355167f8be0079c531659141344cd1fd0a4f28419497f9722a3daafe3b4186f6b6457e08280a3005b346104b65760003660031901126104b6576104f4612a7b565b346104b65760203660031901126104b65760206001600160801b0360026113f86004356126e0565b50015416604051908152f35b346104b65760003660031901126104b657602060ff609754166040519015158152f35b346104b65760003660031901126104b657602060405162093a808152f35b346104b6576020806003193601126104b65760043590611463612cd9565b61146c826126e0565b508260005260d0825260406000203360005282526000604081206001611491866126e0565b5001546001600160a01b03908116806115d8575b5085835260d285528060408420541680611586575b508354825460405163a9059cbb60e01b81523360048201526001600160801b039182166024820152909590949092879286926044928492165af190811561039957600193600292611569575b500180549361151b835460801c828716612cc0565b166001600160801b031980951617905560008155019081541690557fbb757047c2b5f3974fe26b7c10f732e7bce710b0952a71082702781e62ae059560405191600083523392a36001606555005b61157f90873d89116106c7576106b88183612993565b5087611506565b8390606460405180968193631963b13960e21b83523360048401528160248401528160448401525af192831561039957600093156114ba576115d1903d8086833e61038b8183612993565b50866114ba565b839060446040518096819363186e465160e31b83523360048401528160248401525af192831561039957600093156114a55761161d903d8086833e61038b8183612993565b50866114a5565b346104b65760403660031901126104b65761163d612607565b61164561261d565b9061164e612801565b6001600160a01b0380911691823b1561193d578116803b15801590611935575b156118db5782600052602060ce81526040600020546118975760405164ffffffffff42811661169c83612962565b8683528383016000815260408401828152606085016000815260808601906000825260a08701936000855260c08801976000895260e0810196875260cf5468010000000000000000811015611881578060016116fb920160cf556126e0565b95909561186b578c899251169c6001600160a01b03199d8e885416178755600187019351168d845416178355511661174f919064ffffffffff60a01b1964ffffffffff60a01b83549260a01b169116179055565b51905160801b6001600160801b0319166001600160801b0391909116176002820155600301936001600160681b03809251166001600160681b031986541617855551166117e29084907fffffffffffff00000000000000000000000000ffffffffffffffffffffffffff79ffffffffffffffffffffffffff0000000000000000000000000083549260681b169116179055565b51825464ffffffffff60d01b1916911660d01b64ffffffffff60d01b1617905560cf5491600019830193838511610fe0577fec85b1d1f037ff3a8722aaf5d4d8e7d93c7ff10c056430c18d76a9ec23aa397e938660005260d184526040600020558460005260d2835281604060002091825416179055611861856129cf565b50604051908152a3005b634e487b7160e01b600052600060045260246000fd5b634e487b7160e01b600052604160045260246000fd5b6064906040519062461bcd60e51b82526004820152601560248201527f6164643a204c5020616c726561647920616464656400000000000000000000006044820152fd5b608460405162461bcd60e51b815260206004820152602d60248201527f6164643a20626f6f737465645265776172646572206d75737420626520636f6e60448201526c7472616374206f72207a65726f60981b6064820152fd5b50801561166e565b608460405162461bcd60e51b815260206004820152602660248201527f6164643a204c5020746f6b656e206d75737420626520612076616c696420636f60448201527f6e747261637400000000000000000000000000000000000000000000000000006064820152fd5b346104b65760203660031901126104b6576104f4600435612aa3565b346104b65760403660031901126104b6576119dc612607565b6001600160a01b0360ca54163303611c665760cf5460005b8181106119fd57005b8060005260d060205260406000206001600160a01b0384166000526020526040600020906001600160801b0382541615611c5c57611a3a81612aa3565b611a43816126e0565b5091611a8764e8d4a51000610ded835461028a6003880154916001600160681b03611a798185166001600160801b038416612c0f565b9360681c169060801c612c0f565b611adb611abb6001840192611ab26001600160801b03611aac86549382851690612cc0565b16613d40565b9060801c612d91565b82546001600160801b031660809190911b6001600160801b031916178255565b815490611afc6001600160801b038316611af760243582612c0f565b613df0565b92611b09611abb85613d40565b54906001600160801b03611b4864e8d4a51000610ded60038a015461028a6001600160681b03611b3d818416888b16612c0f565b9260681c168a612c0f565b166001600160801b03198254161790558360005260d26020526001600160a01b036040600020541680611bc3575b50506001600160801b03196001600160801b03611bb3611bae6002611bbe980195611ba987549660801c918588166129c2565b6129b5565b613d40565b169116179055612a6c565b6119f4565b803b156104b6576040517fb024b4370000000000000000000000000000000000000000000000000000000081526001600160a01b038916600482015260809290921c60248301526000908290604490829084905af1801561039957611bb3611bae6002611bbe986001600160801b0319956001600160801b0395611c4d575b509850505050611b76565b611c569061297f565b8c611c42565b611bbe9150612a6c565b608460405162461bcd60e51b815260206004820152602160248201527f4d6173746572576f6d6261743a2063616c6c6572206973206e6f74205665576f60448201527f6d000000000000000000000000000000000000000000000000000000000000006064820152fd5b346104b657611cfb6108a5611ce436612693565b611cec612cd9565b611cf4612912565b3691612c5a565b919060019081606555604051928352611d20602091606083860152606085019061265f565b9083820360408501528451908183528083019281808460051b8301019701936000915b848310611d505787890388f35b9091929394958098601f198382030184528588518180825194858152019101926000905b85818310611d95575050508192509801930193019194939290979597611d43565b919380919386518152019401920188929391611d74565b346104b65760203660031901126104b657611dc5612607565b611dcd612801565b60cc80546001600160a01b039283166001600160a01b03198216811790925560408051939091168352602083019190915233917f9db5e84498cff91ecd1f5666fa2ecf069530eb27baffabaccefafc06bbd3cee391819081016110eb565b346104b65760003660031901126104b65760206001600160a01b0360cc5416604051908152f35b346104b657611e6036612649565b611e68612cd9565b611e70612912565b611e79826126e0565b50908260005260209260d08452604060002033600052845260406000206001600160801b0390838282541610611f70576107be848493611ecb93611ec46001600160a01b0397612aa3565b54166129b5565b945460405163a9059cbb60e01b815233600482015260248101869052919591949193879186916044918391600091165af19384156103995761032794611f53575b506040519081527ff279e6a1f5e320cca91135676d9cb6e44ca8a08c0b88342bcdb1144f6511b568863392a36001606555604080519485948552840152604083019061265f565b611f6990873d89116106c7576106b88183612993565b5086611f0c565b6064866040519062461bcd60e51b82526004820152601c60248201527f77697468647261773a206e6f7420656e6f7567682062616c616e6365000000006044820152fd5b346104b65760403660031901126104b657600435611fd061261d565b6001600160a01b03908160d35416331480156120ed575b156120a95716803b158015906120a1575b156120475760207f287a7483759b38235382ea705de3448dfe2ed81f04b8893ceaba580dbcdafe4b918360005260d282526040600020816001600160a01b0319825416179055604051908152a2005b608460405162461bcd60e51b815260206004820152602d60248201527f7365743a20626f6f737465645265776172646572206d75737420626520636f6e60448201526c7472616374206f72207a65726f60981b6064820152fd5b508015611ff8565b606460405162461bcd60e51b815260206004820152600e60248201527f6e6f7420617574686f72697a65640000000000000000000000000000000000006044820152fd5b5081603354163314611fe7565b346104b65760003660031901126104b657612113612801565b60975460ff8116156121525760ff19166097557f5db9ee0a495bf2e6ff9c91a7834c1ba4fdd244a5e8aa4e537bd38aeae4b073aa6020604051338152a1005b606460405162461bcd60e51b815260206004820152601460248201527f5061757361626c653a206e6f74207061757365640000000000000000000000006044820152fd5b346104b65760003660031901126104b65760206001600160a01b0360ca5416604051908152f35b346104b65760803660031901126104b6576121d6612607565b6121de61261d565b6121e6612633565b60643561ffff8116928382036104b6576000549460ff8660081c161594858096612463575b801561244c575b156123e25760ff1987811660011760005596866123d0575b506001600160a01b0380921690811561238c576103e81061232257817fffffffffffffffffffff000000000000000000000000000000000000000000009361228260ff60005460081c1661227d816128a1565b6128a1565b61228b33612859565b600054986122ac60ff8b60081c166122a2816128a1565b60016065556128a1565b609754166097556001600160a01b0319928360c954161760c955169060ca54161760ca5561ffff60a01b60cc549360a01b1693169116171760cc556122ed57005b61ff0019166000557f7f26b83ff96e1f2b6a682f133852f6798a09c465da95921460cefb3847402498602060405160018152a1005b608460405162461bcd60e51b815260206004820152602760248201527f6261736520706172746974696f6e206d75737420626520696e2072616e67652060448201527f302c2031303030000000000000000000000000000000000000000000000000006064820152fd5b606460405162461bcd60e51b815260206004820152601a60248201527f776f6d20616464726573732063616e6e6f74206265207a65726f0000000000006044820152fd5b61ffff1916610101176000558761222a565b608460405162461bcd60e51b815260206004820152602e60248201527f496e697469616c697a61626c653a20636f6e747261637420697320616c72656160448201527f647920696e697469616c697a65640000000000000000000000000000000000006064820152fd5b50303b1580156122125750600160ff881614612212565b50600160ff88161061220b565b346104b65760203660031901126104b65760043561ffff808216918281036104b65761249a612801565b6103e883116104b6576124e9906124af612a7b565b60cc547fffffffffffffffffffff0000ffffffffffffffffffffffffffffffffffffffff61ffff60a01b8360a01b1691161760cc5561363d565b6040519283521660208201527f7fd921cf733c788915a229b0ea58095c44ae2c275ed7835501e5135fe3c1ed0560403392a2005b346104b65760203660031901126104b65760e061253b6004356126e0565b508160405161254981612962565b6001600160a01b038084541693848352600181015491821680602085015264ffffffffff809360a01c16604085015260036002830154926001600160801b0384169384606088015260801c60808701520154936001600160681b0393848616948560a08401528660681c16958660c084015260d01c1695869101526040519586526000602087015260408601526060850152608084015260a083015260c0820152f35b346104b65760003660031901126104b65760209060cf548152f35b600435906001600160a01b03821682036104b657565b602435906001600160a01b03821682036104b657565b604435906001600160a01b03821682036104b657565b60409060031901126104b6576004359060243590565b90815180825260208080930193019160005b82811061267f575050505090565b835185529381019392810192600101612671565b9060206003198301126104b65760043567ffffffffffffffff928382116104b657806023830112156104b65781600401359384116104b65760248460051b830101116104b6576024019190565b60cf5481101561271a5760cf60005260021b7facb8d954e2cfef495862221e91bd7523613cf8808827cb33edfe4904cc51bf290190600090565b634e487b7160e01b600052603260045260246000fd5b90815180825260208080930193019160005b828110612750575050505090565b83516001600160a01b031685529381019392810192600101612742565b60005b8381106127805750506000910152565b8181015183820152602001612770565b908082519081815260208091019281808460051b8301019501936000915b8483106127be5750505050505090565b909192939495848080600193601f1980878303018852601f8c516127ed8151809281875287808801910161276d565b0116010198019301930191949392906127ae565b6001600160a01b0360335416330361281557565b606460405162461bcd60e51b815260206004820152602060248201527f4f776e61626c653a2063616c6c6572206973206e6f7420746865206f776e65726044820152fd5b603354906001600160a01b0380911691826001600160a01b0319821617603355167f8be0079c531659141344cd1fd0a4f28419497f9722a3daafe3b4186f6b6457e0600080a3565b156128a857565b608460405162461bcd60e51b815260206004820152602b60248201527f496e697469616c697a61626c653a20636f6e7472616374206973206e6f74206960448201527f6e697469616c697a696e670000000000000000000000000000000000000000006064820152fd5b60ff6097541661291e57565b606460405162461bcd60e51b815260206004820152601060248201527f5061757361626c653a20706175736564000000000000000000000000000000006044820152fd5b610100810190811067ffffffffffffffff82111761188157604052565b67ffffffffffffffff811161188157604052565b90601f8019910116810190811067ffffffffffffffff82111761188157604052565b91908203918211610fe057565b91908201809211610fe057565b600081815260ce6020526040812054612a675760cd5468010000000000000000811015612a5357600181018060cd55811015612a3f5790826040927f83978b4c69c48dd978ab43fe30f077615294f938fb7f936d9eb340e51ea7db2e015560cd5492815260ce6020522055600190565b602482634e487b7160e01b81526032600452fd5b602482634e487b7160e01b81526041600452fd5b905090565b6000198114610fe05760010190565b60cf5460005b818110612a8c575050565b80612a99612a9e92612aa3565b612a6c565b612a81565b612aac816126e0565b50906003820180549164ffffffffff90818460d01c164211612ad0575b5050505050565b612b09612af5612b8c956001600160681b03612aee612b5495613b15565b9390613d98565b16906001600160681b031916178555613d98565b83547fffffffffffff00000000000000000000000000ffffffffffffffffffffffffff1660689190911b79ffffffffffffffffffffffffff0000000000000000000000000016178355565b80600185015460a01c16804210600014612c0a5750425b825464ffffffffff60d01b1916911660d01b64ffffffffff60d01b16179055565b6001600160a01b038060cc54169182612ba7575b8080612ac9565b5416813b156104b6576000916024839260405194859384927f63453ae100000000000000000000000000000000000000000000000000000000845260048401525af1801561039957612bfb575b8080612ba0565b612c049061297f565b38612bf4565b612b6b565b81810292918115918404141715610fe057565b8115612c2c570490565b634e487b7160e01b600052601260045260246000fd5b67ffffffffffffffff81116118815760051b60200190565b9291612c6582612c42565b91612c736040519384612993565b829481845260208094019160051b81019283116104b657905b828210612c995750505050565b81358152908301908301612c8c565b908160209103126104b6575180151581036104b65790565b6001600160801b039182169082160391908211610fe057565b600260655414612cea576002606555565b606460405162461bcd60e51b815260206004820152601f60248201527f5265656e7472616e637947756172643a207265656e7472616e742063616c6c006044820152fd5b90612d3882612c42565b612d456040519182612993565b8281528092612d56601f1991612c42565b0190602036910137565b60005b828110612d6f57505050565b606082820152602001612d63565b805182101561271a5760209160051b010190565b9190916001600160801b0380809416911601918211610fe057565b60209081818403126104b65780519067ffffffffffffffff82116104b657019180601f840112156104b6578251612de281612c42565b93612df06040519586612993565b818552838086019260051b8201019283116104b6578301905b828210612e17575050505090565b81518152908301908301612e09565b906000612e338351612d2e565b92805193612e6a612e4386612c42565b95612e516040519788612993565b808752612e60601f1991612c42565b0160208701612d60565b8460005b83518110156130ec57612e818185612d7d565b5160005260d06020526040600020336000526020526040600020612eae612ea88387612d7d565b51612aa3565b80546001600160801b038116612ecf575b5050612eca90612a6c565b612e6e565b6001906001600160801b0397612f62612ef4612eee878b989798612d7d565b516126e0565b5091612f3564e8d4a51000610ded600386015461028a6001600160681b03612f278184166001600160801b038c16612c0f565b9260681c168960801c612c0f565b908b612f54878a015482612f4c8260801c87612d91565b911690612cc0565b169b8c9216868901556129c2565b98612f6d8589612d7d565b52612f788489612d7d565b51612f838589612d7d565b516040519081527f71bab65ced2e5750775a0613be067df48ef06cf92a496ebf7663ae066092495460203392a36001600160a01b0392839101541680613072575b5050612fd08287612d7d565b5160005260d2602052604060002054169182612fef575b819250612ebf565b60009260648492546040519586938492631963b13960e21b84523360048501526001600160801b038116602485015260801c60448401525af1801561039957612eca92600091613057575b50613045828a612d7d565b526130508189612d7d565b5038612fe7565b61306c91503d806000833e61038b8183612993565b3861303a565b60405163186e465160e31b81523360048201526001600160801b039290921660248301526000908290604490829084905af1908115610399576000916130d1575b506130be838b612d7d565b526130c9828a612d7d565b503880612fc4565b6130e691503d806000833e61038b8183612993565b386130b3565b5060c95460405163a9059cbb60e01b8152336004820152602481018690529496509194909390925090602090829060449082906000906001600160a01b03165af180156103995761313a5750565b6131529060203d6020116106c7576106b88183612993565b50565b9290600093606093613166826126e0565b508260005260d060205260406000206001600160a01b03851660005260205260406000209384546001600160801b03811690811580159061362d575b613528575b50506001600160801b036131ba84613d40565b16936001600160801b03199360248686895416179687895560206001600160a01b0360ca5416604051938480926370a0823160e01b82526001600160a01b038a1660048301525afa918215610399576000926134f2575b50611bae81611af76132469461322694612c0f565b88546001600160801b031660809190911b6001600160801b031916178855565b61327064e8d4a51000610ded600387015461028a8b546001600160681b03611a7981851689612c0f565b6001600160801b03600189019116868254161790556001600160a01b036001850154169160005260d26020526001600160a01b0360406000205416918015808015906134e9575b6132f9575b50505050506132f1611bae60026001600160801b03930195836132eb88549760801c925460801c828916612d91565b166129b5565b169116179055565b9091929394995060001461338c57508554604051631963b13960e21b81526001600160a01b03949094166004850152602484019190915260801c60448301526000908290606490829084905af190811561039957611bae60026001600160801b03936132f193600091613371575b50985b93386132bc565b61338691503d806000833e61038b8183612993565b38613367565b9290918061340d575060405163186e465160e31b81526001600160a01b039190911660048201526024810191909152906000908290604490829084905af190811561039957611bae60026001600160801b03936132f1936000916133f2575b509861336a565b61340791503d806000833e61038b8183612993565b386133eb565b60405163186e465160e31b81526001600160a01b03831660048201526024810184905293919290916000908590604490829084905af1938415610399576000946134c2575b508654604051631963b13960e21b81526001600160a01b039094166004850152602484019190915260801c60448301526000908290818381606481015b03925af180156103995760026134bc611bae926001600160801b03956132f1956000926104705750613cbd565b9861336a565b61348f93919450916134df6000933d8086833e61038b8183612993565b9491935091613452565b508315156132b7565b91506020823d602011613520575b8161350d60209383612993565b810103126104b657905190611bae613211565b3d9150613500565b61355792995064e8d4a510009161028a610ded92600387015492611a796001600160681b039182861690612c0f565b966001600160801b038061358061357760018901549b8c60801c90612d91565b828c1690612cc0565b91909916600187015560c95460405163a9059cbb60e01b81526001600160a01b0384811660048301529a909216602483018190529960209183916044918391600091165af180156103995761360e575b50836040518981527f71bab65ced2e5750775a0613be067df48ef06cf92a496ebf7663ae066092495460206001600160a01b03851692a338806131a7565b6136269060203d6020116106c7576106b88183612993565b50386135d0565b50600187015460801c15156131a2565b9061ffff8092166103e803918211610fe057565b60209081818403126104b65780519067ffffffffffffffff82116104b657019180601f840112156104b657825161368781612c42565b936136956040519586612993565b818552838086019260051b8201019283116104b6578301905b8282106136bc575050505090565b81516001600160a01b03811681036104b65781529083019083016136ae565b6060906136e7816126e0565b50906001600160a01b0391826001809201541690600092835260209160d2835260409185838620541690821580801590613b0c575b613905575b5050505084519161373183612c42565b9361373e83519586612993565b838552601f1961375a8161375187612c42565b01848801612d60565b8596825b8681106137715750505050505050509091565b8161377c828c612d7d565b51166137fe57855186810181811067ffffffffffffffff8211176137ea578752600681527f4e61746976650000000000000000000000000000000000000000000000000000868201526137e591906137d4828b612d7d565b526137df818a612d7d565b50612a6c565b61375e565b602486634e487b7160e01b81526041600452fd5b838261380a838d612d7d565b51168751918280927f95d89b4100000000000000000000000000000000000000000000000000000000825260049384915afa9182156138fb57869261385b575b5050906137e5916137d4828b612d7d565b9091503d8087833e61386d8183612993565b810187828203126138e057815167ffffffffffffffff928382116138f7570190601f938185840112156138f75782519384116138e457506138b689888c51968601160185612993565b8284528883830101116138e05782916138d89189806137e5979601910161276d565b90913861384a565b8680fd5b886041602492634e487b7160e01b835252fd5b8880fd5b88513d88823e3d90fd5b869394985060001461396e5750600492508651928380926306158c5560e51b82525afa908115613964578391613942575b50935b38808080613721565b61395e91503d8085833e6139568183612993565b810190613651565b38613936565b85513d85823e3d90fd5b90806139ba5750506004918651928380926306158c5560e51b82525afa9081156139645783916139a0575b5093613939565b6139b491503d8085833e6139568183612993565b38613999565b90915086519285846004816306158c5560e51b948582525afa9384156138fb579086918295613af0575b50600489518094819382525afa908115613ae6579082918691613acc575b50613a1084518251906129c2565b93613a1a85612c42565b94613a278a519687612993565b808652613a36601f1991612c42565b01368787013786935b613a96575b508186925b613a58575b5050505093613939565b8151831015613a915787613a75613a6e85612a6c565b9484612d7d565b5116613a8a613a8386612a6c565b9587612d7d565b5280613a49565b613a4e565b8051841015613ac757613ac18489613aaf869785612d7d565b5116613abb8289612d7d565b52612a6c565b93613a3f565b613a44565b613ae091503d8088833e6139568183612993565b38613a02565b87513d87823e3d90fd5b613b059195503d8084833e6139568183612993565b93386139e4565b5082151561371c565b90613b216024926126e0565b509060206001600160a01b03835416604051948580926370a0823160e01b82523060048301525afa92831561039957600093613c87575b506003820154916001600160681b03808416908460681c1693851590818015613c73575b613c6b576002613bb1613bbf9264ffffffffff80600189015460a01c16804210600014613c65575042915b60d01c16906129b5565b940154938460801c90612c0f565b64e8d4a5100090818102918183041490151715610fe05761ffff968760cc5460a01c1693613bed8584612c0f565b6103e89485840293840486141715610fe057613c0c9261028a91612c22565b966001600160801b038095169384613c27575b505050505050565b90613c39613c4093929896979861363d565b1690612c0f565b9102928316928303610fe057613c599261028a91612c22565b90388080808080613c1f565b91613ba7565b509094505050565b5064ffffffffff8160d01c16421115613b7c565b90926020823d8211613cb5575b81613ca160209383612993565b81010312613cb25750519138613b58565b80fd5b3d9150613c94565b613cd2613ccd82518451906129c2565b612d2e565b9260005b8251811015613cfd5780613ced613cf89285612d7d565b51613abb8288612d7d565b613cd6565b9150916000925b8151841015613d3a57613d20613d1985612a6c565b9483612d7d565b51613d34613d2d85612a6c565b9487612d7d565b52613d04565b92505050565b6001600160801b0390818111613d54571690565b606460405162461bcd60e51b815260206004820152601060248201527f75696e74313238206f766572666c6f77000000000000000000000000000000006044820152fd5b6001600160681b0390818111613dac571690565b606460405162461bcd60e51b815260206004820152601060248201527f75696e74313034206f766572666c6f77000000000000000000000000000000006044820152fd5b919060006003841115613e5f57508281118015613e57575b15613e515750815b613e2383613e1e8184612c22565b6129c2565b600190811c915b848303613e3657505050565b90919350613e4884613e1e8184612c22565b821c9190613e2a565b91613e10565b508015613e08565b929050613e6857565b6001915056fea2646970667358221220bd0e5d69b65129fd1e7f781f4bdddfdc03c8a6d4c8d984b31f728a283f2f181964736f6c63430008120033",
  "devdoc": {
    "details": "Updates: - Compatible with gauge voting - Add support for BoostedMultiRewarder",
    "events": {
      "Initialized(uint8)": {
        "details": "Triggered when the contract has been initialized or reinitialized."
      },
      "Paused(address)": {
        "details": "Emitted when the pause is triggered by `account`."
      },
      "Unpaused(address)": {
        "details": "Emitted when the pause is lifted by `account`."
      }
    },
    "kind": "dev",
    "methods": {
      "add(address,address)": {
        "details": "Reverts if the same LP token is added more than once.",
        "params": {
          "_boostedRewarder": "the rewarder",
          "_lpToken": "the corresponding lp token"
        }
      },
      "deposit(uint256,uint256)": {
        "details": "it is possible to call this function with _amount == 0 to claim current rewards",
        "params": {
          "_amount": "amount to deposit",
          "_pid": "the pool id"
        }
      },
      "depositFor(uint256,uint256,address)": {
        "details": "user must initiate transaction from masterchef",
        "params": {
          "_amount": "amount to deposit",
          "_pid": "the pool id",
          "_user": "the user being represented"
        }
      },
      "emergencyWithdraw(uint256)": {
        "params": {
          "_pid": "the pool id"
        }
      },
      "massUpdatePools()": {
        "details": "Be careful of gas spending!"
      },
      "migrate(uint256[])": {
        "details": "Assume the orginal MasterWombat has stopped emisions hence we skip IVoter(voter).distribute() to save gas cost"
      },
      "multiClaim(uint256[])": {
        "params": {
          "_pids": "array pids, pools to claim"
        }
      },
      "notifyRewardAmount(address,uint256)": {
        "details": "Refer to synthetix/StakingRewards.sol notifyRewardAmount Note: This looks safe from reentrancy."
      },
      "owner()": {
        "details": "Returns the address of the current owner."
      },
      "pause()": {
        "details": "pause pool, restricting certain operations"
      },
      "paused()": {
        "details": "Returns true if the contract is paused, and false otherwise."
      },
      "pendingTokens(uint256,address)": {
        "params": {
          "_pid": "the pool id",
          "_user": "the user address"
        }
      },
      "renounceOwnership()": {
        "details": "Leaves the contract without owner. It will not be possible to call `onlyOwner` functions. Can only be called by the current owner. NOTE: Renouncing ownership will leave the contract without an owner, thereby disabling any functionality that is only available to the owner."
      },
      "rewarderBonusTokenInfo(uint256)": {
        "params": {
          "_pid": "the pool id"
        }
      },
      "setRewarder(uint256,address)": {
        "params": {
          "_boostedRewarder": "the boostedRewarder",
          "_pid": "the pool id"
        }
      },
      "setVeWom(address)": {
        "params": {
          "_newVeWom": "the new VeWom address"
        }
      },
      "setVoter(address)": {
        "params": {
          "_newVoter": "the new Voter address"
        }
      },
      "transferOwnership(address)": {
        "details": "Transfers ownership of the contract to a new account (`newOwner`). Can only be called by the current owner."
      },
      "unpause()": {
        "details": "unpause pool, enabling certain operations"
      },
      "updateEmissionPartition(uint16)": {
        "params": {
          "_basePartition": "the future base partition"
        }
      },
      "updateFactor(address,uint256)": {
        "details": "can only be called by veWom",
        "params": {
          "_newVeWomBalance": "the amount of veWOM",
          "_user": "the user to update"
        }
      },
      "updatePool(uint256)": {
        "params": {
          "_pid": "the pool id"
        }
      },
      "withdraw(uint256,uint256)": {
        "params": {
          "_amount": "the amount to withdraw",
          "_pid": "the pool id"
        }
      }
    },
    "stateVariables": {
      "poolInfoV3": {
        "details": "Note that `poolInfoV3[pid].rewarder` will be deprecated and it may co-exist with boostedRewarders[pid]"
      }
    },
    "title": "BoostedMasterWombat",
    "version": 1
  },
  "userdoc": {
    "kind": "user",
    "methods": {
      "add(address,address)": {
        "notice": "Add a new lp to the pool. Can only be called by the owner."
      },
      "deposit(uint256,uint256)": {
        "notice": "Deposit LP tokens to MasterChef for WOM allocation."
      },
      "depositFor(uint256,uint256,address)": {
        "notice": "Deposit LP tokens to MasterChef for WOM allocation on behalf of user"
      },
      "emergencyWithdraw(uint256)": {
        "notice": "Withdraw without caring about rewards. EMERGENCY ONLY."
      },
      "emergencyWomWithdraw()": {
        "notice": "In case we need to manually migrate WOM funds from MasterChef Sends all remaining wom from the contract to the owner"
      },
      "massUpdatePools()": {
        "notice": "Update reward variables for all pools."
      },
      "migrate(uint256[])": {
        "notice": "Helper function to migrate fund from multiple pools to the new MasterWombat.user must initiate transaction from masterchef"
      },
      "multiClaim(uint256[])": {
        "notice": "claims rewards for multiple pids"
      },
      "notifyRewardAmount(address,uint256)": {
        "notice": "Distribute WOM over a period of 7 days"
      },
      "pendingTokens(uint256,address)": {
        "notice": "View function to see pending WOMs on frontend."
      },
      "poolInfo(uint256)": {
        "notice": "[Deprecated] A backward compatible function to return the PoolInfo struct in MasterWombatV2"
      },
      "poolInfoV3(uint256)": {
        "notice": "Info of each pool."
      },
      "poolLength()": {
        "notice": "returns pool length"
      },
      "rewarderBonusTokenInfo(uint256)": {
        "notice": "Get bonus token info from the rewarder contract for a given pool, if it is a double reward farm"
      },
      "setRewarder(uint256,address)": {
        "notice": "Update the given pool's boostedRewarder"
      },
      "setVeWom(address)": {
        "notice": "updates veWom address"
      },
      "setVoter(address)": {
        "notice": "updates voter address"
      },
      "updateEmissionPartition(uint16)": {
        "notice": "updates emission partition"
      },
      "updateFactor(address,uint256)": {
        "notice": "updates factor after any veWom token operation (minting/burning)"
      },
      "updatePool(uint256)": {
        "notice": "Update reward variables of the given pool"
      },
      "withdraw(uint256,uint256)": {
        "notice": "Withdraw LP tokens from MasterWombat.Automatically harvest pending rewards and sends to user"
      }
    },
    "notice": "MasterWombat is a boss. He is not afraid of any snakes. In fact, he drinks their venoms. So, veWom holders boost their (boosted) emissions. This contract rewards users in function of their amount of lp staked (base pool) factor (boosted pool) Factor and sumOfFactors are updated by contract VeWom.sol after any veWom minting/burning (veERC20Upgradeable hook). Note that it's ownable and the owner wields tremendous power. The ownership will be transferred to a governance smart contract once Wombat is sufficiently distributed and the community can show to govern itself.",
    "version": 1
  },
  "storageLayout": {
    "storage": [
      {
        "astId": 763,
        "contract": "contracts/wombat-governance/BoostedMasterWombat.sol:BoostedMasterWombat",
        "label": "_initialized",
        "offset": 0,
        "slot": "0",
        "type": "t_uint8"
      },
      {
        "astId": 766,
        "contract": "contracts/wombat-governance/BoostedMasterWombat.sol:BoostedMasterWombat",
        "label": "_initializing",
        "offset": 1,
        "slot": "0",
        "type": "t_bool"
      },
      {
        "astId": 1507,
        "contract": "contracts/wombat-governance/BoostedMasterWombat.sol:BoostedMasterWombat",
        "label": "__gap",
        "offset": 0,
        "slot": "1",
        "type": "t_array(t_uint256)50_storage"
      },
      {
        "astId": 635,
        "contract": "contracts/wombat-governance/BoostedMasterWombat.sol:BoostedMasterWombat",
        "label": "_owner",
        "offset": 0,
        "slot": "51",
        "type": "t_address"
      },
      {
        "astId": 755,
        "contract": "contracts/wombat-governance/BoostedMasterWombat.sol:BoostedMasterWombat",
        "label": "__gap",
        "offset": 0,
        "slot": "52",
        "type": "t_array(t_uint256)49_storage"
      },
      {
        "astId": 1066,
        "contract": "contracts/wombat-governance/BoostedMasterWombat.sol:BoostedMasterWombat",
        "label": "_status",
        "offset": 0,
        "slot": "101",
        "type": "t_uint256"
      },
      {
        "astId": 1135,
        "contract": "contracts/wombat-governance/BoostedMasterWombat.sol:BoostedMasterWombat",
        "label": "__gap",
        "offset": 0,
        "slot": "102",
        "type": "t_array(t_uint256)49_storage"
      },
      {
        "astId": 946,
        "contract": "contracts/wombat-governance/BoostedMasterWombat.sol:BoostedMasterWombat",
        "label": "_paused",
        "offset": 0,
        "slot": "151",
        "type": "t_bool"
      },
      {
        "astId": 1051,
        "contract": "contracts/wombat-governance/BoostedMasterWombat.sol:BoostedMasterWombat",
        "label": "__gap",
        "offset": 0,
        "slot": "152",
        "type": "t_array(t_uint256)49_storage"
      },
      {
        "astId": 32595,
        "contract": "contracts/wombat-governance/BoostedMasterWombat.sol:BoostedMasterWombat",
        "label": "wom",
        "offset": 0,
        "slot": "201",
        "type": "t_contract(IERC20)6805"
      },
      {
        "astId": 32598,
        "contract": "contracts/wombat-governance/BoostedMasterWombat.sol:BoostedMasterWombat",
        "label": "veWom",
        "offset": 0,
        "slot": "202",
        "type": "t_contract(IVeWom)45262"
      },
      {
        "astId": 32601,
        "contract": "contracts/wombat-governance/BoostedMasterWombat.sol:BoostedMasterWombat",
        "label": "newMasterWombat",
        "offset": 0,
        "slot": "203",
        "type": "t_contract(IMasterWombatV3)45093"
      },
      {
        "astId": 32603,
        "contract": "contracts/wombat-governance/BoostedMasterWombat.sol:BoostedMasterWombat",
        "label": "voter",
        "offset": 0,
        "slot": "204",
        "type": "t_address"
      },
      {
        "astId": 32605,
        "contract": "contracts/wombat-governance/BoostedMasterWombat.sol:BoostedMasterWombat",
        "label": "basePartition",
        "offset": 20,
        "slot": "204",
        "type": "t_uint16"
      },
      {
        "astId": 32608,
        "contract": "contracts/wombat-governance/BoostedMasterWombat.sol:BoostedMasterWombat",
        "label": "lpTokens",
        "offset": 0,
        "slot": "205",
        "type": "t_struct(AddressSet)10747_storage"
      },
      {
        "astId": 32613,
        "contract": "contracts/wombat-governance/BoostedMasterWombat.sol:BoostedMasterWombat",
        "label": "poolInfoV3",
        "offset": 0,
        "slot": "207",
        "type": "t_array(t_struct(PoolInfoV3)32586_storage)dyn_storage"
      },
      {
        "astId": 32620,
        "contract": "contracts/wombat-governance/BoostedMasterWombat.sol:BoostedMasterWombat",
        "label": "userInfo",
        "offset": 0,
        "slot": "208",
        "type": "t_mapping(t_uint256,t_mapping(t_address,t_struct(UserInfo)32567_storage))"
      },
      {
        "astId": 32624,
        "contract": "contracts/wombat-governance/BoostedMasterWombat.sol:BoostedMasterWombat",
        "label": "assetPid",
        "offset": 0,
        "slot": "209",
        "type": "t_mapping(t_address,t_uint256)"
      },
      {
        "astId": 32630,
        "contract": "contracts/wombat-governance/BoostedMasterWombat.sol:BoostedMasterWombat",
        "label": "boostedRewarders",
        "offset": 0,
        "slot": "210",
        "type": "t_mapping(t_uint256,t_contract(IBoostedMultiRewarder)44683)"
      },
      {
        "astId": 32633,
        "contract": "contracts/wombat-governance/BoostedMasterWombat.sol:BoostedMasterWombat",
        "label": "bribeRewarderFactory",
        "offset": 0,
        "slot": "211",
        "type": "t_contract(IBribeRewarderFactory)44731"
      }
    ],
    "types": {
      "t_address": {
        "encoding": "inplace",
        "label": "address",
        "numberOfBytes": "20"
      },
      "t_array(t_bytes32)dyn_storage": {
        "base": "t_bytes32",
        "encoding": "dynamic_array",
        "label": "bytes32[]",
        "numberOfBytes": "32"
      },
      "t_array(t_struct(PoolInfoV3)32586_storage)dyn_storage": {
        "base": "t_struct(PoolInfoV3)32586_storage",
        "encoding": "dynamic_array",
        "label": "struct BoostedMasterWombat.PoolInfoV3[]",
        "numberOfBytes": "32"
      },
      "t_array(t_uint256)49_storage": {
        "base": "t_uint256",
        "encoding": "inplace",
        "label": "uint256[49]",
        "numberOfBytes": "1568"
      },
      "t_array(t_uint256)50_storage": {
        "base": "t_uint256",
        "encoding": "inplace",
        "label": "uint256[50]",
        "numberOfBytes": "1600"
      },
      "t_bool": {
        "encoding": "inplace",
        "label": "bool",
        "numberOfBytes": "1"
      },
      "t_bytes32": {
        "encoding": "inplace",
        "label": "bytes32",
        "numberOfBytes": "32"
      },
      "t_contract(IBoostedMultiRewarder)44683": {
        "encoding": "inplace",
        "label": "contract IBoostedMultiRewarder",
        "numberOfBytes": "20"
      },
      "t_contract(IBribeRewarderFactory)44731": {
        "encoding": "inplace",
        "label": "contract IBribeRewarderFactory",
        "numberOfBytes": "20"
      },
      "t_contract(IERC20)6805": {
        "encoding": "inplace",
        "label": "contract IERC20",
        "numberOfBytes": "20"
      },
      "t_contract(IMasterWombatV3)45093": {
        "encoding": "inplace",
        "label": "contract IMasterWombatV3",
        "numberOfBytes": "20"
      },
      "t_contract(IMultiRewarder)45133": {
        "encoding": "inplace",
        "label": "contract IMultiRewarder",
        "numberOfBytes": "20"
      },
      "t_contract(IVeWom)45262": {
        "encoding": "inplace",
        "label": "contract IVeWom",
        "numberOfBytes": "20"
      },
      "t_mapping(t_address,t_struct(UserInfo)32567_storage)": {
        "encoding": "mapping",
        "key": "t_address",
        "label": "mapping(address => struct BoostedMasterWombat.UserInfo)",
        "numberOfBytes": "32",
        "value": "t_struct(UserInfo)32567_storage"
      },
      "t_mapping(t_address,t_uint256)": {
        "encoding": "mapping",
        "key": "t_address",
        "label": "mapping(address => uint256)",
        "numberOfBytes": "32",
        "value": "t_uint256"
      },
      "t_mapping(t_bytes32,t_uint256)": {
        "encoding": "mapping",
        "key": "t_bytes32",
        "label": "mapping(bytes32 => uint256)",
        "numberOfBytes": "32",
        "value": "t_uint256"
      },
      "t_mapping(t_uint256,t_contract(IBoostedMultiRewarder)44683)": {
        "encoding": "mapping",
        "key": "t_uint256",
        "label": "mapping(uint256 => contract IBoostedMultiRewarder)",
        "numberOfBytes": "32",
        "value": "t_contract(IBoostedMultiRewarder)44683"
      },
      "t_mapping(t_uint256,t_mapping(t_address,t_struct(UserInfo)32567_storage))": {
        "encoding": "mapping",
        "key": "t_uint256",
        "label": "mapping(uint256 => mapping(address => struct BoostedMasterWombat.UserInfo))",
        "numberOfBytes": "32",
        "value": "t_mapping(t_address,t_struct(UserInfo)32567_storage)"
      },
      "t_struct(AddressSet)10747_storage": {
        "encoding": "inplace",
        "label": "struct EnumerableSet.AddressSet",
        "members": [
          {
            "astId": 10746,
            "contract": "contracts/wombat-governance/BoostedMasterWombat.sol:BoostedMasterWombat",
            "label": "_inner",
            "offset": 0,
            "slot": "0",
            "type": "t_struct(Set)10432_storage"
          }
        ],
        "numberOfBytes": "64"
      },
      "t_struct(PoolInfoV3)32586_storage": {
        "encoding": "inplace",
        "label": "struct BoostedMasterWombat.PoolInfoV3",
        "members": [
          {
            "astId": 32570,
            "contract": "contracts/wombat-governance/BoostedMasterWombat.sol:BoostedMasterWombat",
            "label": "lpToken",
            "offset": 0,
            "slot": "0",
            "type": "t_contract(IERC20)6805"
          },
          {
            "astId": 32573,
            "contract": "contracts/wombat-governance/BoostedMasterWombat.sol:BoostedMasterWombat",
            "label": "rewarder",
            "offset": 0,
            "slot": "1",
            "type": "t_contract(IMultiRewarder)45133"
          },
          {
            "astId": 32575,
            "contract": "contracts/wombat-governance/BoostedMasterWombat.sol:BoostedMasterWombat",
            "label": "periodFinish",
            "offset": 20,
            "slot": "1",
            "type": "t_uint40"
          },
          {
            "astId": 32577,
            "contract": "contracts/wombat-governance/BoostedMasterWombat.sol:BoostedMasterWombat",
            "label": "sumOfFactors",
            "offset": 0,
            "slot": "2",
            "type": "t_uint128"
          },
          {
            "astId": 32579,
            "contract": "contracts/wombat-governance/BoostedMasterWombat.sol:BoostedMasterWombat",
            "label": "rewardRate",
            "offset": 16,
            "slot": "2",
            "type": "t_uint128"
          },
          {
            "astId": 32581,
            "contract": "contracts/wombat-governance/BoostedMasterWombat.sol:BoostedMasterWombat",
            "label": "accWomPerShare",
            "offset": 0,
            "slot": "3",
            "type": "t_uint104"
          },
          {
            "astId": 32583,
            "contract": "contracts/wombat-governance/BoostedMasterWombat.sol:BoostedMasterWombat",
            "label": "accWomPerFactorShare",
            "offset": 13,
            "slot": "3",
            "type": "t_uint104"
          },
          {
            "astId": 32585,
            "contract": "contracts/wombat-governance/BoostedMasterWombat.sol:BoostedMasterWombat",
            "label": "lastRewardTimestamp",
            "offset": 26,
            "slot": "3",
            "type": "t_uint40"
          }
        ],
        "numberOfBytes": "128"
      },
      "t_struct(Set)10432_storage": {
        "encoding": "inplace",
        "label": "struct EnumerableSet.Set",
        "members": [
          {
            "astId": 10427,
            "contract": "contracts/wombat-governance/BoostedMasterWombat.sol:BoostedMasterWombat",
            "label": "_values",
            "offset": 0,
            "slot": "0",
            "type": "t_array(t_bytes32)dyn_storage"
          },
          {
            "astId": 10431,
            "contract": "contracts/wombat-governance/BoostedMasterWombat.sol:BoostedMasterWombat",
            "label": "_indexes",
            "offset": 0,
            "slot": "1",
            "type": "t_mapping(t_bytes32,t_uint256)"
          }
        ],
        "numberOfBytes": "64"
      },
      "t_struct(UserInfo)32567_storage": {
        "encoding": "inplace",
        "label": "struct BoostedMasterWombat.UserInfo",
        "members": [
          {
            "astId": 32560,
            "contract": "contracts/wombat-governance/BoostedMasterWombat.sol:BoostedMasterWombat",
            "label": "amount",
            "offset": 0,
            "slot": "0",
            "type": "t_uint128"
          },
          {
            "astId": 32562,
            "contract": "contracts/wombat-governance/BoostedMasterWombat.sol:BoostedMasterWombat",
            "label": "factor",
            "offset": 16,
            "slot": "0",
            "type": "t_uint128"
          },
          {
            "astId": 32564,
            "contract": "contracts/wombat-governance/BoostedMasterWombat.sol:BoostedMasterWombat",
            "label": "rewardDebt",
            "offset": 0,
            "slot": "1",
            "type": "t_uint128"
          },
          {
            "astId": 32566,
            "contract": "contracts/wombat-governance/BoostedMasterWombat.sol:BoostedMasterWombat",
            "label": "pendingWom",
            "offset": 16,
            "slot": "1",
            "type": "t_uint128"
          }
        ],
        "numberOfBytes": "64"
      },
      "t_uint104": {
        "encoding": "inplace",
        "label": "uint104",
        "numberOfBytes": "13"
      },
      "t_uint128": {
        "encoding": "inplace",
        "label": "uint128",
        "numberOfBytes": "16"
      },
      "t_uint16": {
        "encoding": "inplace",
        "label": "uint16",
        "numberOfBytes": "2"
      },
      "t_uint256": {
        "encoding": "inplace",
        "label": "uint256",
        "numberOfBytes": "32"
      },
      "t_uint40": {
        "encoding": "inplace",
        "label": "uint40",
        "numberOfBytes": "5"
      },
      "t_uint8": {
        "encoding": "inplace",
        "label": "uint8",
        "numberOfBytes": "1"
      }
    }
  }
}