{
  "address": "0xe6e3508c358F090fe9A8500A31a7fc1BDc3A62Fa",
  "abi": [
    {
      "anonymous": false,
      "inputs": [
        {
          "indexed": false,
          "internalType": "uint8",
          "name": "version",
          "type": "uint8"
        }
      ],
      "name": "Initialized",
      "type": "event"
    },
    {
      "anonymous": false,
      "inputs": [
        {
          "indexed": true,
          "internalType": "address",
          "name": "rewardToken",
          "type": "address"
        },
        {
          "indexed": true,
          "internalType": "address",
          "name": "user",
          "type": "address"
        },
        {
          "indexed": false,
          "internalType": "uint256",
          "name": "amount",
          "type": "uint256"
        }
      ],
      "name": "OnReward",
      "type": "event"
    },
    {
      "anonymous": false,
      "inputs": [
        {
          "indexed": true,
          "internalType": "address",
          "name": "previousOwner",
          "type": "address"
        },
        {
          "indexed": true,
          "internalType": "address",
          "name": "newOwner",
          "type": "address"
        }
      ],
      "name": "OwnershipTransferred",
      "type": "event"
    },
    {
      "anonymous": false,
      "inputs": [
        {
          "indexed": true,
          "internalType": "address",
          "name": "rewardToken",
          "type": "address"
        },
        {
          "indexed": false,
          "internalType": "uint256",
          "name": "oldRate",
          "type": "uint256"
        },
        {
          "indexed": false,
          "internalType": "uint256",
          "name": "newRate",
          "type": "uint256"
        }
      ],
      "name": "RewardRateUpdated",
      "type": "event"
    },
    {
      "anonymous": false,
      "inputs": [
        {
          "indexed": true,
          "internalType": "bytes32",
          "name": "role",
          "type": "bytes32"
        },
        {
          "indexed": true,
          "internalType": "bytes32",
          "name": "previousAdminRole",
          "type": "bytes32"
        },
        {
          "indexed": true,
          "internalType": "bytes32",
          "name": "newAdminRole",
          "type": "bytes32"
        }
      ],
      "name": "RoleAdminChanged",
      "type": "event"
    },
    {
      "anonymous": false,
      "inputs": [
        {
          "indexed": true,
          "internalType": "bytes32",
          "name": "role",
          "type": "bytes32"
        },
        {
          "indexed": true,
          "internalType": "address",
          "name": "account",
          "type": "address"
        },
        {
          "indexed": true,
          "internalType": "address",
          "name": "sender",
          "type": "address"
        }
      ],
      "name": "RoleGranted",
      "type": "event"
    },
    {
      "anonymous": false,
      "inputs": [
        {
          "indexed": true,
          "internalType": "bytes32",
          "name": "role",
          "type": "bytes32"
        },
        {
          "indexed": true,
          "internalType": "address",
          "name": "account",
          "type": "address"
        },
        {
          "indexed": true,
          "internalType": "address",
          "name": "sender",
          "type": "address"
        }
      ],
      "name": "RoleRevoked",
      "type": "event"
    },
    {
      "anonymous": false,
      "inputs": [
        {
          "indexed": true,
          "internalType": "address",
          "name": "rewardToken",
          "type": "address"
        },
        {
          "indexed": false,
          "internalType": "uint40",
          "name": "newStartTime",
          "type": "uint40"
        }
      ],
      "name": "StartTimeUpdated",
      "type": "event"
    },
    {
      "inputs": [],
      "name": "ACC_TOKEN_PRECISION",
      "outputs": [
        {
          "internalType": "uint256",
          "name": "",
          "type": "uint256"
        }
      ],
      "stateMutability": "view",
      "type": "function"
    },
    {
      "inputs": [],
      "name": "DEFAULT_ADMIN_ROLE",
      "outputs": [
        {
          "internalType": "bytes32",
          "name": "",
          "type": "bytes32"
        }
      ],
      "stateMutability": "view",
      "type": "function"
    },
    {
      "inputs": [],
      "name": "ROLE_OPERATOR",
      "outputs": [
        {
          "internalType": "bytes32",
          "name": "",
          "type": "bytes32"
        }
      ],
      "stateMutability": "view",
      "type": "function"
    },
    {
      "inputs": [
        {
          "internalType": "address",
          "name": "_operator",
          "type": "address"
        }
      ],
      "name": "addOperator",
      "outputs": [],
      "stateMutability": "nonpayable",
      "type": "function"
    },
    {
      "inputs": [
        {
          "internalType": "contract IERC20",
          "name": "_rewardToken",
          "type": "address"
        },
        {
          "internalType": "uint40",
          "name": "_startTimestampOrNow",
          "type": "uint40"
        },
        {
          "internalType": "uint96",
          "name": "_tokenPerSec",
          "type": "uint96"
        }
      ],
      "name": "addRewardToken",
      "outputs": [],
      "stateMutability": "nonpayable",
      "type": "function"
    },
    {
      "inputs": [],
      "name": "balances",
      "outputs": [
        {
          "internalType": "uint256[]",
          "name": "balances_",
          "type": "uint256[]"
        }
      ],
      "stateMutability": "view",
      "type": "function"
    },
    {
      "inputs": [],
      "name": "bribeFactory",
      "outputs": [
        {
          "internalType": "contract IBribeRewarderFactory",
          "name": "",
          "type": "address"
        }
      ],
      "stateMutability": "view",
      "type": "function"
    },
    {
      "inputs": [],
      "name": "emergencyClaimReward",
      "outputs": [
        {
          "internalType": "uint256[]",
          "name": "rewards",
          "type": "uint256[]"
        }
      ],
      "stateMutability": "nonpayable",
      "type": "function"
    },
    {
      "inputs": [
        {
          "internalType": "address",
          "name": "token",
          "type": "address"
        }
      ],
      "name": "emergencyTokenWithdraw",
      "outputs": [],
      "stateMutability": "nonpayable",
      "type": "function"
    },
    {
      "inputs": [],
      "name": "emergencyWithdraw",
      "outputs": [],
      "stateMutability": "nonpayable",
      "type": "function"
    },
    {
      "inputs": [
        {
          "internalType": "bytes32",
          "name": "role",
          "type": "bytes32"
        }
      ],
      "name": "getRoleAdmin",
      "outputs": [
        {
          "internalType": "bytes32",
          "name": "",
          "type": "bytes32"
        }
      ],
      "stateMutability": "view",
      "type": "function"
    },
    {
      "inputs": [
        {
          "internalType": "bytes32",
          "name": "role",
          "type": "bytes32"
        },
        {
          "internalType": "uint256",
          "name": "index",
          "type": "uint256"
        }
      ],
      "name": "getRoleMember",
      "outputs": [
        {
          "internalType": "address",
          "name": "",
          "type": "address"
        }
      ],
      "stateMutability": "view",
      "type": "function"
    },
    {
      "inputs": [
        {
          "internalType": "bytes32",
          "name": "role",
          "type": "bytes32"
        }
      ],
      "name": "getRoleMemberCount",
      "outputs": [
        {
          "internalType": "uint256",
          "name": "",
          "type": "uint256"
        }
      ],
      "stateMutability": "view",
      "type": "function"
    },
    {
      "inputs": [
        {
          "internalType": "bytes32",
          "name": "role",
          "type": "bytes32"
        },
        {
          "internalType": "address",
          "name": "account",
          "type": "address"
        }
      ],
      "name": "grantRole",
      "outputs": [],
      "stateMutability": "nonpayable",
      "type": "function"
    },
    {
      "inputs": [
        {
          "internalType": "bytes32",
          "name": "role",
          "type": "bytes32"
        },
        {
          "internalType": "address",
          "name": "account",
          "type": "address"
        }
      ],
      "name": "hasRole",
      "outputs": [
        {
          "internalType": "bool",
          "name": "",
          "type": "bool"
        }
      ],
      "stateMutability": "view",
      "type": "function"
    },
    {
      "inputs": [
        {
          "internalType": "contract IBribeRewarderFactory",
          "name": "_bribeFactory",
          "type": "address"
        },
        {
          "internalType": "address",
          "name": "_master",
          "type": "address"
        },
        {
          "internalType": "contract IERC20",
          "name": "_lpToken",
          "type": "address"
        },
        {
          "internalType": "uint256",
          "name": "_startTimestamp",
          "type": "uint256"
        },
        {
          "internalType": "contract IERC20",
          "name": "_rewardToken",
          "type": "address"
        },
        {
          "internalType": "uint96",
          "name": "_tokenPerSec",
          "type": "uint96"
        }
      ],
      "name": "initialize",
      "outputs": [],
      "stateMutability": "nonpayable",
      "type": "function"
    },
    {
      "inputs": [],
      "name": "isDeprecated",
      "outputs": [
        {
          "internalType": "bool",
          "name": "",
          "type": "bool"
        }
      ],
      "stateMutability": "view",
      "type": "function"
    },
    {
      "inputs": [],
      "name": "isEmissionActive",
      "outputs": [
        {
          "internalType": "bool[]",
          "name": "isActive_",
          "type": "bool[]"
        }
      ],
      "stateMutability": "view",
      "type": "function"
    },
    {
      "inputs": [],
      "name": "lpToken",
      "outputs": [
        {
          "internalType": "contract IERC20",
          "name": "",
          "type": "address"
        }
      ],
      "stateMutability": "view",
      "type": "function"
    },
    {
      "inputs": [],
      "name": "master",
      "outputs": [
        {
          "internalType": "address",
          "name": "",
          "type": "address"
        }
      ],
      "stateMutability": "view",
      "type": "function"
    },
    {
      "inputs": [
        {
          "internalType": "address",
          "name": "",
          "type": "address"
        },
        {
          "internalType": "uint256",
          "name": "",
          "type": "uint256"
        }
      ],
      "name": "onReward",
      "outputs": [
        {
          "internalType": "uint256[]",
          "name": "",
          "type": "uint256[]"
        }
      ],
      "stateMutability": "nonpayable",
      "type": "function"
    },
    {
      "inputs": [
        {
          "internalType": "address",
          "name": "_user",
          "type": "address"
        },
        {
          "internalType": "uint256",
          "name": "_newVote",
          "type": "uint256"
        },
        {
          "internalType": "uint256",
          "name": "_originalTotalVotes",
          "type": "uint256"
        }
      ],
      "name": "onVote",
      "outputs": [
        {
          "internalType": "uint256[]",
          "name": "rewards",
          "type": "uint256[]"
        }
      ],
      "stateMutability": "nonpayable",
      "type": "function"
    },
    {
      "inputs": [],
      "name": "owner",
      "outputs": [
        {
          "internalType": "address",
          "name": "",
          "type": "address"
        }
      ],
      "stateMutability": "view",
      "type": "function"
    },
    {
      "inputs": [
        {
          "internalType": "address",
          "name": "_user",
          "type": "address"
        }
      ],
      "name": "pendingTokens",
      "outputs": [
        {
          "internalType": "uint256[]",
          "name": "tokens",
          "type": "uint256[]"
        }
      ],
      "stateMutability": "view",
      "type": "function"
    },
    {
      "inputs": [
        {
          "internalType": "address",
          "name": "_operator",
          "type": "address"
        }
      ],
      "name": "removeOperator",
      "outputs": [],
      "stateMutability": "nonpayable",
      "type": "function"
    },
    {
      "inputs": [],
      "name": "renounceOwnership",
      "outputs": [],
      "stateMutability": "nonpayable",
      "type": "function"
    },
    {
      "inputs": [
        {
          "internalType": "bytes32",
          "name": "role",
          "type": "bytes32"
        },
        {
          "internalType": "address",
          "name": "account",
          "type": "address"
        }
      ],
      "name": "renounceRole",
      "outputs": [],
      "stateMutability": "nonpayable",
      "type": "function"
    },
    {
      "inputs": [
        {
          "internalType": "bytes32",
          "name": "role",
          "type": "bytes32"
        },
        {
          "internalType": "address",
          "name": "account",
          "type": "address"
        }
      ],
      "name": "revokeRole",
      "outputs": [],
      "stateMutability": "nonpayable",
      "type": "function"
    },
    {
      "inputs": [
        {
          "internalType": "uint256",
          "name": "i",
          "type": "uint256"
        }
      ],
      "name": "rewardInfo",
      "outputs": [
        {
          "components": [
            {
              "internalType": "contract IERC20",
              "name": "rewardToken",
              "type": "address"
            },
            {
              "internalType": "uint96",
              "name": "tokenPerSec",
              "type": "uint96"
            },
            {
              "internalType": "uint128",
              "name": "accTokenPerShare",
              "type": "uint128"
            },
            {
              "internalType": "uint128",
              "name": "distributedAmount",
              "type": "uint128"
            },
            {
              "internalType": "uint128",
              "name": "claimedAmount",
              "type": "uint128"
            },
            {
              "internalType": "uint40",
              "name": "lastRewardTimestamp",
              "type": "uint40"
            }
          ],
          "internalType": "struct MultiRewarderPerSecV2.RewardInfo",
          "name": "info",
          "type": "tuple"
        }
      ],
      "stateMutability": "view",
      "type": "function"
    },
    {
      "inputs": [
        {
          "internalType": "uint256",
          "name": "",
          "type": "uint256"
        }
      ],
      "name": "rewardInfos",
      "outputs": [
        {
          "internalType": "contract IERC20",
          "name": "rewardToken",
          "type": "address"
        },
        {
          "internalType": "uint96",
          "name": "tokenPerSec",
          "type": "uint96"
        },
        {
          "internalType": "uint128",
          "name": "accTokenPerShare",
          "type": "uint128"
        },
        {
          "internalType": "uint128",
          "name": "distributedAmount",
          "type": "uint128"
        },
        {
          "internalType": "uint128",
          "name": "claimedAmount",
          "type": "uint128"
        },
        {
          "internalType": "uint40",
          "name": "lastRewardTimestamp",
          "type": "uint40"
        }
      ],
      "stateMutability": "view",
      "type": "function"
    },
    {
      "inputs": [],
      "name": "rewardLength",
      "outputs": [
        {
          "internalType": "uint256",
          "name": "",
          "type": "uint256"
        }
      ],
      "stateMutability": "view",
      "type": "function"
    },
    {
      "inputs": [],
      "name": "rewardTokenSurpluses",
      "outputs": [
        {
          "internalType": "int256[]",
          "name": "surpluses_",
          "type": "int256[]"
        }
      ],
      "stateMutability": "view",
      "type": "function"
    },
    {
      "inputs": [],
      "name": "rewardTokens",
      "outputs": [
        {
          "internalType": "contract IERC20[]",
          "name": "tokens",
          "type": "address[]"
        }
      ],
      "stateMutability": "view",
      "type": "function"
    },
    {
      "inputs": [],
      "name": "rewardsToDistribute",
      "outputs": [
        {
          "internalType": "uint256[]",
          "name": "rewards_",
          "type": "uint256[]"
        }
      ],
      "stateMutability": "view",
      "type": "function"
    },
    {
      "inputs": [],
      "name": "runoutTimestamps",
      "outputs": [
        {
          "internalType": "uint40[]",
          "name": "timestamps_",
          "type": "uint40[]"
        }
      ],
      "stateMutability": "view",
      "type": "function"
    },
    {
      "inputs": [
        {
          "internalType": "bool",
          "name": "_isDeprecated",
          "type": "bool"
        }
      ],
      "name": "setIsDeprecated",
      "outputs": [],
      "stateMutability": "nonpayable",
      "type": "function"
    },
    {
      "inputs": [
        {
          "internalType": "uint256",
          "name": "_tokenId",
          "type": "uint256"
        },
        {
          "internalType": "uint96",
          "name": "_tokenPerSec",
          "type": "uint96"
        },
        {
          "internalType": "uint40",
          "name": "_startTimestampToOverride",
          "type": "uint40"
        }
      ],
      "name": "setRewardRate",
      "outputs": [],
      "stateMutability": "nonpayable",
      "type": "function"
    },
    {
      "inputs": [
        {
          "internalType": "bytes4",
          "name": "interfaceId",
          "type": "bytes4"
        }
      ],
      "name": "supportsInterface",
      "outputs": [
        {
          "internalType": "bool",
          "name": "",
          "type": "bool"
        }
      ],
      "stateMutability": "view",
      "type": "function"
    },
    {
      "inputs": [
        {
          "internalType": "address",
          "name": "newOwner",
          "type": "address"
        }
      ],
      "name": "transferOwnership",
      "outputs": [],
      "stateMutability": "nonpayable",
      "type": "function"
    },
    {
      "inputs": [],
      "name": "updateReward",
      "outputs": [],
      "stateMutability": "nonpayable",
      "type": "function"
    },
    {
      "inputs": [
        {
          "internalType": "address",
          "name": "",
          "type": "address"
        }
      ],
      "name": "userBalanceInfo",
      "outputs": [
        {
          "internalType": "uint256",
          "name": "amount",
          "type": "uint256"
        }
      ],
      "stateMutability": "view",
      "type": "function"
    },
    {
      "inputs": [
        {
          "internalType": "uint256",
          "name": "",
          "type": "uint256"
        },
        {
          "internalType": "address",
          "name": "",
          "type": "address"
        }
      ],
      "name": "userRewardInfo",
      "outputs": [
        {
          "internalType": "uint128",
          "name": "rewardDebt",
          "type": "uint128"
        },
        {
          "internalType": "uint128",
          "name": "unpaidRewards",
          "type": "uint128"
        }
      ],
      "stateMutability": "view",
      "type": "function"
    },
    {
      "stateMutability": "payable",
      "type": "receive"
    }
  ],
  "transactionHash": "0x22979d5a6f3a41ec353301d747cce6f3dde3e9f98abcf19c20c0f3e84ecfc586",
  "args": [],
  "numDeployments": 1,
  "solcInputHash": "363cecd2023599fe1fb7650111e28756",
  "bytecode": "0x60808060405234610016576137db908161001c8239f35b600080fdfe608080604052600436101561001d575b50361561001b57600080fd5b005b60003560e01c90816301ffc9a71461243b57508063112a5d581461240057806312bc7bfd146120cb5780632474e18114611e18578063248a9ca314611de95780632f2ff15d14611d7157806336568abe14611cd25780634e8a947e14611bbe5780635fcbd28514611b9657806365d9aa4a146117db578063715018a614611780578063731994fc1461132c5780637bb98a681461131057806381a00f831461125c578063858ce1a4146110d457806389d6517f146110525780638bab378614610ff65780638da5cb5b14610fcf5780639010d07c14610f8957806391d1485414610f3b5780639870d7fe14610e6657806398a1b39714610e2b578063a217fddf14610e0f578063a5eceb1b14610a48578063ac8a584a14610977578063ad568827146108c6578063b95c5746146108a7578063c031a66f1461072a578063c2b18aa014610659578063c3723288146105dc578063c7178230146105b5578063ca15c87314610589578063ccbd9b7514610517578063d547741f146104d8578063d5dd2c4f146104ac578063db2e21bc1461038e578063eb4a78e014610366578063ee97f7f31461033e578063eea016041461031b578063f2fde38b14610278578063f36c0a72146102575763f709f23b146101f8573861000f565b3461025257604036600319011261025257610211612522565b6004356000526101316020526001600160a01b0360406000209116600052602052604080600020548151906001600160801b038116825260801c6020820152f35b600080fd5b346102525760003660031901126102525761001b610273612f32565b61303e565b346102525760203660031901126102525761029161250c565b610299612a47565b6001600160a01b038116156102b15761001b90612a9f565b608460405162461bcd60e51b815260206004820152602660248201527f4f776e61626c653a206e6577206f776e657220697320746865207a65726f206160448201527f64647265737300000000000000000000000000000000000000000000000000006064820152fd5b34610252576000366003190112610252576020604051670de0b6b3a76400008152f35b346102525760003660031901126102525760206001600160a01b0361012e5416604051908152f35b346102525760003660031901126102525760206001600160a01b036101325416604051908152f35b34610252576000366003190112610252576103a7612a47565b61012f544264ffffffffff1660005b8281106103bf57005b6103c881612573565b5080546001600160a01b03168082556002909101805464ffffffffff60801b1916608085901b64ffffffffff60801b1617905590610404612a47565b816104325761042d9150610428600080808047335af16104226131c8565b50613208565b612f0f565b6103b6565b6040516370a0823160e01b81523060048201526020908181602481875afa9182156104a057600092610470575b50506104289061042d933390613253565b90809250813d8311610499575b610487818361296f565b8101031261025257518261042861045f565b503d61047d565b6040513d6000823e3d90fd5b34610252576000366003190112610252576104d46104c8613495565b60405191829182612538565b0390f35b346102525760403660031901126102525761001b6004356104f7612522565b908060005260976020526105126001604060002001546125c5565b6129bd565b34610252576020366003190112610252576004358015158091036102525761053d612a47565b610132907fffffffffffffffffffffff00ffffffffffffffffffffffffffffffffffffffff74ff000000000000000000000000000000000000000083549260a01b169116179055600080f35b346102525760203660031901126102525760043560005260c96020526020604060002054604051908152f35b3461025257600036600319011261025257602060ff6101325460a01c166040519015158152f35b34610252576040366003190112610252576105f561250c565b5061060d6001600160a01b0361012e54163314612ca3565b610615612d14565b606460405162461bcd60e51b815260206004820152601b60248201527f43616c6c20427269626556322e6f6e566f746520696e737465616400000000006044820152fd5b346102525760003660031901126102525761012f546106778161317e565b610684604051918261296f565b8181526106908261317e565b6020928383019291601f190136843760005b8181106106f557505090604051928392818401908285525180915260408401929160005b8281106106d557505050500390f35b83516001600160a01b0316855286955093810193928101926001016106c6565b806001600160a01b0361071361070d61072594612573565b50613435565b511661071f8286612fef565b52612f0f565b6106a2565b34610252576020806003193601126102525761074461250c565b61012f549061075282613196565b9161075b613495565b916001600160a01b031660005b82811061077d57604051806104d48782612538565b61078961070d82612573565b908060005261013187526040600020836000528752604080600020926001600160801b0391829101511692886107bd612f32565b80610815575b506108069291670de0b6b3a76400006107f0610810976101306107fc958b60005252604060002054612ae7565b04905492831690612bba565b9060801c90612afa565b61071f8288612fef565b610768565b929190506108238489612fef565b5190670de0b6b3a76400009384830292808404861490151715610891576107f08c61013061087b6108109a6108756107fc98670de0b6b3a7640000976108069c80821015600014610889575090613003565b90612afa565b9950509350505091926107c3565b905090613003565b634e487b7160e01b600052601160045260246000fd5b3461025257600036600319011261025257602061012f54604051908152f35b34610252576020366003190112610252576001600160a01b036108e761250c565b6108ef612a47565b168061090a575061001b600080808047335af16104226131c8565b604051906370a0823160e01b8252306004830152602082602481845afa9081156104a057600091610942575b61001b92503390613253565b90506020823d821161096f575b8161095c6020938361296f565b810103126102525761001b915190610936565b3d915061094f565b34610252576020806003193601126102525761001b9060c961099761250c565b916109a0612a47565b7f46a52cf33029de9f84853745a87af28464c80bf0346df1b32e205fc73319f62280600052609782526001600160a01b03604060002094169384600052825260ff604060002054166109fb575b600052526040600020612bc7565b80600052609782526040600020846000528252604060002060ff1981541690553384827ff6391f5c32d9c69d2a47ea670b442974b53935d1edc7fd64eb21e047a839171b600080a46109ed565b3461025257606036600319011261025257610a6161250c565b602480359164ffffffffff9283811693848203610252576044918235956bffffffffffffffffffffffff8716809703610252573360009081527ffdc1535cdd2f355f3856ccff3baa99da917bdc4f8f249bcffd4d51836919939c602090815260409091205490969060ff168015610df6575b610adc90612eac565b6001600160a01b039586610132541682898215928315610d79575b50505015610d1157861694853b15801590610d09575b15610ca157821580938115610c96575b5015610c545761012f549160005b838110610bf1578a7f225033f2ea5486463cbb49ceda2823be38daddc85031ce2c637e7ad0950bc85a60408c8c8c8c8c8c610b67610273612f32565b15610bec57508042165b855192610b7d8461293d565b83528785840152670de0b6b3a7640000868401526000606084015260006080840152168060a0830152610baf82612d69565b7f99e4a80c4e66b0b3fbf1bbe586cf7708be5e406b09778228cdb64b480226c3898484845116928751908152a251169382519160008352820152a2005b610b71565b8789610bfc83612573565b50541614610c1257610c0d90612f0f565b610b2b565b60648a7f746f6b656e2068617320616c7265616479206265656e2061646465640000000085601c866040519462461bcd60e51b86526004860152840152820152fd5b7f696e76616c6964205f737461727454696d657374616d70000000000000000000889160176064946040519462461bcd60e51b86526004860152840152820152fd5b90504211158a610b1d565b7f72657761726420746f6b656e206d75737420626520612076616c696420636f6e889160256084946040519462461bcd60e51b865260048601528401528201527f74726163740000000000000000000000000000000000000000000000000000006064820152fd5b508515610b0d565b6084887f72657761726420746f6b656e206d7573742062652077686974656c6973746564886031866040519462461bcd60e51b865260048601528401528201527f20627920627269626520666163746f72790000000000000000000000000000006064820152fd5b90919250604051928380927fbbe78b380000000000000000000000000000000000000000000000000000000082528c871660048301525afa9081156104a057600091610dc9575b5082898c610af7565b610de99150893d8b11610def575b610de1818361296f565b810190612ef7565b8a610dc0565b503d610dd7565b50610adc6001600160a01b036033541633149050610ad3565b3461025257600036600319011261025257602060405160008152f35b346102525760003660031901126102525760206040517f46a52cf33029de9f84853745a87af28464c80bf0346df1b32e205fc73319f6228152f35b34610252576020806003193601126102525761001b9060c9610e8661250c565b91610e8f612a47565b7f46a52cf33029de9f84853745a87af28464c80bf0346df1b32e205fc73319f62280600052609782526001600160a01b03604060002094169384600052825260ff6040600020541615610eeb575b600052526040600020612b30565b806000526097825260406000208460005282526040600020600160ff198254161790553384827f2f8788117e7eff1d82e926ec794901d17c78024a50270940304540a733656f0d600080a4610edd565b3461025257604036600319011261025257610f54612522565b60043560005260976020526001600160a01b0360406000209116600052602052602060ff604060002054166040519015158152f35b346102525760403660031901126102525760043560005260c960205260206001600160a01b03610fbf6024356040600020612b18565b9190546040519260031b1c168152f35b346102525760003660031901126102525760206001600160a01b0360335416604051908152f35b346102525760003660031901126102525761100f6135ae565b604051809160208083018184528251809152816040850193019160005b82811061103b57505050500390f35b83518552869550938101939281019260010161102c565b346102525760203660031901126102525760043561012f548110156102525761107c60c091612573565b5064ffffffffff8154916002600182015491015490604051936001600160a01b038116855260a01c60208501526001600160801b0390818116604086015260801c60608501528116608084015260801c1660a0820152f35b346102525760003660031901126102525761012f546110f28161317e565b6110ff604051918261296f565b81815261110b8261317e565b6020928383019291601f190136843761112261368f565b61112a6135ae565b9060005b83811061117f57868587604051928392818401908285525180915260408401929160005b82811061116157505050500390f35b835164ffffffffff1685528695509381019392810192600101611152565b61118b61070d82612573565b9060006111988286612fef565b511380611242575b6111b4575b6111af9150612f0f565b61112e565b60a06111e96001600160801b036111dc816080870151166111d58689612fef565b5190612afa565b9060608601511690612bba565b928981016bffffffffffffffffffffffff91828251169064ffffffffff948591015116029180831692830361089157611228611231936111af97612afa565b91511690613003565b1661123c8288612fef565b526111a5565b506bffffffffffffffffffffffff888301511615156111a0565b3461025257602036600319011261025257600060a060405161127d8161293d565b828152826020820152826040820152826060820152826080820152015260c06112aa61070d600435612573565b64ffffffffff60a0604051926001600160a01b0381511684526bffffffffffffffffffffffff60208201511660208501526001600160801b03806040830151166040860152806060830151166060860152608082015116608085015201511660a0820152f35b34610252576000366003190112610252576104d46104c861368f565b346102525760c0366003190112610252576004356001600160a01b03908181168091036102525761135b612522565b6044908135848116809103610252576064938435916084938435948886168096036102525760a435966bffffffffffffffffffffffff8816809803610252576000549860ff8a60081c1615998a809b611773575b801561175c575b156116f55760ff1981166001176000558a6116e3575b50873b158015906116db575b1561167557843b1561160f57833b156115a957428710611544575050507f99e4a80c4e66b0b3fbf1bbe586cf7708be5e406b09778228cdb64b480226c3899360209361150698999364ffffffffff9361144160ff60005460081c1661143c81612e3b565b612e3b565b61144a33612a9f565b61145f60ff60005460081c1661143c81612e3b565b600160fb556001600160a01b03199261013290848254161790558561012e91168382541617905561012d9182541617905516937f225033f2ea5486463cbb49ceda2823be38daddc85031ce2c637e7ad0950bc85a60408051976114c18961293d565b83895280868a0152670de0b6b3a7640000828a0152600060608a0152600060808a01528760a08a01528151906000825286820152a284511692604051908152a2612d69565b61150c57005b61ff0019600054166000557f7f26b83ff96e1f2b6a682f133852f6798a09c465da95921460cefb3847402498602060405160018152a1005b7f74616d7000000000000000000000000000000000000000000000000000000000907f636f6e7374727563746f723a20696e76616c6964205f737461727454696d65736040519362461bcd60e51b855260206004860152602480860152840152820152fd5b7f6c696420636f6e74726163740000000000000000000000000000000000000000907f636f6e7374727563746f723a204d6173746572206d75737420626520612076616040519362461bcd60e51b855260206004860152602c6024860152840152820152fd5b7f76616c696420636f6e7472616374000000000000000000000000000000000000907f636f6e7374727563746f723a204c5020746f6b656e206d7573742062652061206040519362461bcd60e51b855260206004860152602e6024860152840152820152fd5b7f6520612076616c696420636f6e74726163740000000000000000000000000000907f636f6e7374727563746f723a2072657761726420746f6b656e206d75737420626040519362461bcd60e51b85526020600486015260326024860152840152820152fd5b5087156113d8565b61ffff1916610101176000558b6113cc565b507f647920696e697469616c697a6564000000000000000000000000000000000000907f496e697469616c697a61626c653a20636f6e747261637420697320616c7265616040519362461bcd60e51b855260206004860152602e6024860152840152820152fd5b50303b1580156113b65750600160ff8216146113b6565b50600160ff8216106113af565b3461025257600036600319011261025257611799612a47565b60006001600160a01b036033546001600160a01b03198116603355167f8be0079c531659141344cd1fd0a4f28419497f9722a3daafe3b4186f6b6457e08280a3005b34610252576060366003190112610252576117f461250c565b61180b6001600160a01b0361012e54163314612ca3565b611813612d14565b61181e60443561303e565b61012f549061182c82613196565b9160005b81811061187a576104d484846001600160a01b036001600160801b0361185760243561374d565b169116600052610130602052604060002055600160fb5560405191829182612538565b61188381612573565b50908060005261013160205260406000206001600160a01b03851660005260205260406000206001600160a01b038354169080546001600160801b038116908115801590611b8a575b61195d575b50506001600160801b03611902670de0b6b3a76400006118fc83600161195899015416602435612ae7565b0461374d565b166001600160801b031982541617905561191c8287612fef565b51906040519182527f986cbc32375de61d1fabfb01aef452f5c919f2180bb72fff0fb182126a02b52760206001600160a01b03881693a3612f0f565b611830565b9061199c6119a192610130602052670de0b6b3a76400006119916040600020546001600160801b0360018c01541690612ae7565b049060801c90612afa565b612bba565b93868884611ab6576118fc6001600160801b0360018195611902956119589b8b670de0b6b3a7640000974793848411600014611a63579284611a01611a339482946119fc6000808080611a589d611a389d5af16104226131c8565b612fef565b52611a0b8261374d565b60028701906001600160801b03198a611a28845493828516613023565b169116179055612bba565b61374d565b89546001600160801b031660809190911b6001600160801b031916178955565b9950505050506118d1565b611a88945091611a82916119fc60008080808980995af16104226131c8565b5261374d565b60028201906001600160801b031985611aa5845493828516613023565b169116179055828854168855611a58565b50506040516370a0823160e01b8152306004820152602081602481875afa9081156104a057888a91600093611b4d575b506001600160801b0360018195858b8b670de0b6b3a7640000976118fc976119589f6119029b8f9111600014611b375794611a01611a339482946119fc84611a389996611b329b613253565b611a58565b611a889550916119fc85809593611a8295613253565b925050506020813d602011611b82575b81611b6a6020938361296f565b81010312610252575188886001600160801b03611ae6565b3d9150611b5d565b508060801c15156118cc565b346102525760003660031901126102525760206001600160a01b0361012d5416604051908152f35b346102525760003660031901126102525761012f54611bdc8161317e565b611be9604051918261296f565b818152611bf58261317e565b6020928383019291601f1901368437611c0c6135ae565b60005b828110611c5c5750505090604051928392818401908285525180915260408401929160005b828110611c4357505050500390f35b8351151585528695509381019392810192600101611c34565b80611c6c61070d611c9c93612573565b6000611c788386612fef565b51139081611cb7575b81611ca1575b50611c928287612fef565b9015159052612f0f565b611c0f565b64ffffffffff915060a001511642101588611c87565b888101516bffffffffffffffffffffffff1615159150611c81565b3461025257604036600319011261025257611ceb612522565b336001600160a01b03821603611d075761001b906004356129bd565b608460405162461bcd60e51b815260206004820152602f60248201527f416363657373436f6e74726f6c3a2063616e206f6e6c792072656e6f756e636560448201527f20726f6c657320666f722073656c6600000000000000000000000000000000006064820152fd5b346102525760403660031901126102525761001b60043560c9611d92612522565b918060005260209060978252611daf6001604060002001546125c5565b80600052609782526001600160a01b03604060002094169384600052825260ff6040600020541615610eeb57600052526040600020612b30565b346102525760203660031901126102525760043560005260976020526020600160406000200154604051908152f35b34610252576060366003190112610252576004356024356bffffffffffffffffffffffff8116808203610252576044359264ffffffffff8416808503610252573360009081527ffdc1535cdd2f355f3856ccff3baa99da917bdc4f8f249bcffd4d51836919939c602090815260409091205490959060ff1680156120b2575b611ea090612eac565b61012f5483101561206e5781159081159182612064575b15611ffa5769021e19e0c9bab24000008511611fb6577f225033f2ea5486463cbb49ceda2823be38daddc85031ce2c637e7ad0950bc85a9593604095936001600160a01b039389611f4894611f0d610273612f32565b611f1685612573565b5080546001600160a01b03811660a09b8c1b6001600160a01b03191617825590991c9892611f57575b50505050612573565b505416948351928352820152a2005b82611fa4889260027f99e4a80c4e66b0b3fbf1bbe586cf7708be5e406b09778228cdb64b480226c38996019064ffffffffff60801b1964ffffffffff60801b83549260801b169116179055565b5416928951908152a288808981611f3f565b6064876040519062461bcd60e51b82526004820152601460248201527f726577617264207261746520746f6f20686967680000000000000000000000006044820152fd5b6084876040519062461bcd60e51b82526004820152602160248201527f696e76616c6964205f737461727454696d657374616d70546f4f76657272696460448201527f65000000000000000000000000000000000000000000000000000000000000006064820152fd5b5042831015611eb7565b6064866040519062461bcd60e51b82526004820152601060248201527f696e76616c6964205f746f6b656e4964000000000000000000000000000000006044820152fd5b50611ea06001600160a01b036033541633149050611e97565b34610252576000366003190112610252576120e4612d14565b6120ef610273612f32565b60ff6101325460a01c16156123965761012f5461210b81613196565b9060005b81811061213c576104d4833360005261013060205260006040812055600160fb5560405191829182612538565b61214581612573565b5090806000526020610131815260406000203360005281526040600020926001600160a01b038154169084546001600160801b0390818116801580159061238a575b6121ee575b50506001809201541615171561089157836001600160801b03196121e995541690557f986cbc32375de61d1fabfb01aef452f5c919f2180bb72fff0fb182126a02b5276121d98488612fef565b51926040519384523393a3612f0f565b61210f565b61199c612219926101308852670de0b6b3a76400006119916040600020548760018a01541690612ae7565b836122f1574790868a8383111561229d5792612276928161224f611a3394612296976119fc600080808088335af16104226131c8565b526122598261374d565b60028801906001600160801b031988611a28845493828516613023565b87546001600160801b031660809190911b6001600160801b031916178755565b888061218c565b50506122c391506122b8600080808085335af16104226131c8565b80611a82888c612fef565b60028301906001600160801b0319836122e0845493828516613023565b169116179055808654168655612296565b604051906370a0823160e01b82523060048301528582602481885afa9182156104a05760009261235b575b50868a838311156123495792612276928161224f611a3394612344976119fc848d3390613253565b612296565b50506122c391506122b8813387613253565b9091508581813d8311612383575b612373818361296f565b810103126102525751908a61231c565b503d612369565b508160801c1515612187565b608460405162461bcd60e51b815260206004820152602260248201527f7265776172646572202f206272696265206973206e6f7420646570726563617460448201527f65640000000000000000000000000000000000000000000000000000000000006064820152fd5b34610252576020366003190112610252576001600160a01b0361242161250c565b166000526101306020526020604060002054604051908152f35b3461025257602036600319011261025257600435907fffffffff00000000000000000000000000000000000000000000000000000000821680920361025257817f5a05180f00000000000000000000000000000000000000000000000000000000602093149081156124af575b5015158152f35b7f7965db0b000000000000000000000000000000000000000000000000000000008114915081156124e2575b50836124a8565b7f01ffc9a700000000000000000000000000000000000000000000000000000000915014836124db565b600435906001600160a01b038216820361025257565b602435906001600160a01b038216820361025257565b6020908160408183019282815285518094520193019160005b82811061255f575050505090565b835185529381019392810192600101612551565b61012f9081548110156125af57600391600052027f232da9e50dad2971456a78fb5cd6ff6b75019984d6e918139ce990999420f9790190600090565b634e487b7160e01b600052603260045260246000fd5b600081815260209060978252604092838220338352835260ff8483205416156125ee5750505050565b835167ffffffffffffffff9190336060820184811183821017612906578752602a825285820192873685378251156128f257603084538251916001928310156128de576078602185015360295b83811161286757506128255790875194608086019086821090821117612811578852604285528685019560603688378551156127fd576030875385518210156127fd5790607860218701536041915b8183116127825750505061274057938593612726936127176048946126e27f416363657373436f6e74726f6c3a206163636f756e74200000000000000000009961273c9b519a8b97880152518092603788019061291a565b8401917f206973206d697373696e6720726f6c652000000000000000000000000000000060378401525180938684019061291a565b0103602881018552018361296f565b5191829162461bcd60e51b835260048301612991565b0390fd5b60648587519062461bcd60e51b825280600483015260248201527f537472696e67733a20686578206c656e67746820696e73756666696369656e746044820152fd5b909192600f811660108110156127e9577f3031323334353637383961626364656600000000000000000000000000000000901a6127bf8589612b07565b5360041c9280156127d55760001901919061268a565b602482634e487b7160e01b81526011600452fd5b602483634e487b7160e01b81526032600452fd5b80634e487b7160e01b602492526032600452fd5b602487634e487b7160e01b81526041600452fd5b60648789519062461bcd60e51b825280600483015260248201527f537472696e67733a20686578206c656e67746820696e73756666696369656e746044820152fd5b90600f811660108110156128ca577f3031323334353637383961626364656600000000000000000000000000000000901a6128a28387612b07565b5360041c9080156128b6576000190161263b565b602488634e487b7160e01b81526011600452fd5b602489634e487b7160e01b81526032600452fd5b602487634e487b7160e01b81526032600452fd5b602486634e487b7160e01b81526032600452fd5b602486634e487b7160e01b81526041600452fd5b60005b83811061292d5750506000910152565b818101518382015260200161291d565b60c0810190811067ffffffffffffffff82111761295957604052565b634e487b7160e01b600052604160045260246000fd5b90601f8019910116810190811067ffffffffffffffff82111761295957604052565b604091602082526129b1815180928160208601526020868601910161291a565b601f01601f1916010190565b9060406129fc9260009080825260976020526001600160a01b0383832094169384835260205260ff83832054166129ff575b815260c960205220612bc7565b50565b808252609760205282822084835260205282822060ff1981541690553384827ff6391f5c32d9c69d2a47ea670b442974b53935d1edc7fd64eb21e047a839171b8580a46129ef565b6001600160a01b03603354163303612a5b57565b606460405162461bcd60e51b815260206004820152602060248201527f4f776e61626c653a2063616c6c6572206973206e6f7420746865206f776e65726044820152fd5b603354906001600160a01b0380911691826001600160a01b0319821617603355167f8be0079c531659141344cd1fd0a4f28419497f9722a3daafe3b4186f6b6457e0600080a3565b8181029291811591840414171561089157565b9190820180921161089157565b9081518110156125af570160200190565b80548210156125af5760005260206000200190600090565b91906001830160009082825280602052604082205415600014612bb45784549468010000000000000000861015612ba05783612b90612b79886001604098999a01855584612b18565b819391549060031b91821b91600019901b19161790565b9055549382526020522055600190565b602483634e487b7160e01b81526041600452fd5b50925050565b9190820391821161089157565b90600182019060009281845282602052604084205490811515600014612c9c5760001991808301818111612c88578254908482019182116128b657808203612c53575b50505080548015612c3f57820191612c228383612b18565b909182549160031b1b191690555582526020526040812055600190565b602486634e487b7160e01b81526031600452fd5b612c73612c63612b799386612b18565b90549060031b1c92839286612b18565b90558652846020526040862055388080612c0a565b602487634e487b7160e01b81526011600452fd5b5050505090565b15612caa57565b608460405162461bcd60e51b815260206004820152602e60248201527f6f6e6c794d61737465723a206f6e6c79204d61737465722063616e2063616c6c60448201527f20746869732066756e6374696f6e0000000000000000000000000000000000006064820152fd5b600260fb5414612d2557600260fb55565b606460405162461bcd60e51b815260206004820152601f60248201527f5265656e7472616e637947756172643a207265656e7472616e742063616c6c006044820152fd5b61012f80546801000000000000000081101561295957612d8e91600182019055612573565b612e2557815160208301516001600160a01b039091166001600160a01b031960a092831b16178255612e239264ffffffffff91906040810151606082015160801b6001600160801b03199081166001600160801b039283161760018701559094600201946080830151169085541617845501511664ffffffffff60801b1964ffffffffff60801b83549260801b169116179055565b565b634e487b7160e01b600052600060045260246000fd5b15612e4257565b608460405162461bcd60e51b815260206004820152602b60248201527f496e697469616c697a61626c653a20636f6e7472616374206973206e6f74206960448201527f6e697469616c697a696e670000000000000000000000000000000000000000006064820152fd5b15612eb357565b606460405162461bcd60e51b815260206004820152600e60248201527f6e6f7420617574686f72697a65640000000000000000000000000000000000006044820152fd5b90816020910312610252575180151581036102525790565b60001981146108915760010190565b51906001600160801b038216820361025257565b6001600160a01b038061012e54169061012d54166040809160248251809581937fa7cac84600000000000000000000000000000000000000000000000000000000835260048301525afa908115612fe557600091612f9a575b506001600160801b0391501690565b82813d8311612fde575b612fae818361296f565b81010312612fdb5750612fd5602082612fce6001600160801b0394612f1e565b5001612f1e565b38612f8b565b80fd5b503d612fa4565b513d6000823e3d90fd5b80518210156125af5760209160051b010190565b811561300d570490565b634e487b7160e01b600052601260045260246000fd5b9190916001600160801b038080941691160191821161089157565b61012f5461304a613495565b9160005b82811061305b5750505050565b61306481612573565b50906130708186612fef565b51801580156130d2575b5050600261309f920164ffffffffff904282825460801c16106130a4575b5050612f0f565b61304e565b6130cb91421664ffffffffff60801b1964ffffffffff60801b83549260801b169116179055565b3880613098565b9092670de0b6b3a76400009182850290858204841417156108915761309f94613153613114611a3361317294600297808c101560001461317857508a90613003565b9161314a60018601936001600160801b031985549161313d6001600160801b0391828516613023565b169116179182855561374d565b9060801c613023565b6001600160801b036001600160801b031983549260801b169116179055565b9261307a565b90613003565b67ffffffffffffffff81116129595760051b60200190565b906131a08261317e565b6131ad604051918261296f565b82815280926131be601f199161317e565b0190602036910137565b3d15613203573d9067ffffffffffffffff821161295957604051916131f7601f8201601f19166020018461296f565b82523d6000602084013e565b606090565b1561320f57565b606460405162461bcd60e51b815260206004820152600f60248201527f5472616e73666572206661696c656400000000000000000000000000000000006044820152fd5b60405160208101937fa9059cbb0000000000000000000000000000000000000000000000000000000085526001600160a01b038094166024830152604482015260448152608081019267ffffffffffffffff928285108486111761295957169160c082019081118482101761295957604052602083527f5361666545524332303a206c6f772d6c6576656c2063616c6c206661696c656460a08201525161330b93600091829182855af16133056131c8565b916133a5565b805190811591821561338b575b50501561332157565b608460405162461bcd60e51b815260206004820152602a60248201527f5361666545524332303a204552433230206f7065726174696f6e20646964206e60448201527f6f742073756363656564000000000000000000000000000000000000000000006064820152fd5b61339e9250602080918301019101612ef7565b3880613318565b9192901561340657508151156133b9575090565b3b156133c25790565b606460405162461bcd60e51b815260206004820152601d60248201527f416464726573733a2063616c6c20746f206e6f6e2d636f6e74726163740000006044820152fd5b8251909150156134195750805190602001fd5b61273c9060405191829162461bcd60e51b835260048301612991565b906040516134428161293d565b60a064ffffffffff829480546001600160a01b0381168552831c602085015260026001820154916001600160801b0392838116604088015260801c60608701520154908116608085015260801c16910152565b61012f54906134a382613196565b916134ac61368f565b9064ffffffffff42811660005b8381106134c7575050505050565b6134d361070d82612573565b908360a08301511680421061358a578303918483116108915761350f61355793866bffffffffffffffffffffffff602085015116911690612ae7565b90600090608081016001600160801b039060606135348c6111d5898686511692612fef565b9301928284511610613563575b50505080821161355c57505b61071f828a612fef565b6134b9565b905061354d565b6135829350816135799151166111d5878d612fef565b91511690612bba565b388080613541565b506135579150612f0f565b8181039291600013801582851316918412161761089157565b61012f54906135bc8261317e565b6135c9604051918261296f565b828152601f196135d88461317e565b0136602083013780926135e9613495565b916135f261368f565b6000805b84811061360557505050505050565b61361161070d82612573565b6001600160801b03806080830151169161362b8487612fef565b519285848201948512911290801582169115161761367b57613676939261366c92606061365b9301511690613595565b613665838a612fef565b5190613595565b61071f8287612fef565b6135f6565b602485634e487b7160e01b81526011600452fd5b61012f549061369d82613196565b9160005b8181106136ac575050565b6001600160a01b036136bd82612573565b50541690816136db576136d691504761071f8287612fef565b6136a1565b6040805180936370a0823160e01b825230600483015281602460209687935afa918215612fe5575060009161371b575b506136d6925061071f8287612fef565b919282813d8311613746575b613731818361296f565b81010312612fdb5750906136d691513861370b565b503d613727565b6001600160801b0390818111613761571690565b606460405162461bcd60e51b815260206004820152601060248201527f75696e74313238206f766572666c6f77000000000000000000000000000000006044820152fdfea26469706673582212206e77d19384f6fc4a937114d45423c812cff1866285bf638b1a8457c436210af464736f6c63430008120033",
  "devdoc": {
    "events": {
      "Initialized(uint8)": {
        "details": "Triggered when the contract has been initialized or reinitialized."
      },
      "RoleAdminChanged(bytes32,bytes32,bytes32)": {
        "details": "Emitted when `newAdminRole` is set as ``role``'s admin role, replacing `previousAdminRole` `DEFAULT_ADMIN_ROLE` is the starting admin for all roles, despite {RoleAdminChanged} not being emitted signaling this. _Available since v3.1._"
      },
      "RoleGranted(bytes32,address,address)": {
        "details": "Emitted when `account` is granted `role`. `sender` is the account that originated the contract call, an admin role bearer except when using {AccessControl-_setupRole}."
      },
      "RoleRevoked(bytes32,address,address)": {
        "details": "Emitted when `account` is revoked `role`. `sender` is the account that originated the contract call:   - if using `revokeRole`, it is the admin role bearer   - if using `renounceRole`, it is the role bearer (i.e. `account`)"
      }
    },
    "kind": "dev",
    "methods": {
      "emergencyTokenWithdraw(address)": {
        "details": "only to be called by owner"
      },
      "getRoleAdmin(bytes32)": {
        "details": "Returns the admin role that controls `role`. See {grantRole} and {revokeRole}. To change a role's admin, use {_setRoleAdmin}."
      },
      "getRoleMember(bytes32,uint256)": {
        "details": "Returns one of the accounts that have `role`. `index` must be a value between 0 and {getRoleMemberCount}, non-inclusive. Role bearers are not sorted in any particular way, and their ordering may change at any point. WARNING: When using {getRoleMember} and {getRoleMemberCount}, make sure you perform all queries on the same block. See the following https://forum.openzeppelin.com/t/iterating-over-elements-on-enumerableset-in-openzeppelin-contracts/2296[forum post] for more information."
      },
      "getRoleMemberCount(bytes32)": {
        "details": "Returns the number of accounts that have `role`. Can be used together with {getRoleMember} to enumerate all bearers of a role."
      },
      "grantRole(bytes32,address)": {
        "details": "Grants `role` to `account`. If `account` had not been already granted `role`, emits a {RoleGranted} event. Requirements: - the caller must have ``role``'s admin role. May emit a {RoleGranted} event."
      },
      "hasRole(bytes32,address)": {
        "details": "Returns `true` if `account` has been granted `role`."
      },
      "owner()": {
        "details": "Returns the address of the current owner."
      },
      "renounceOwnership()": {
        "details": "Leaves the contract without owner. It will not be possible to call `onlyOwner` functions. Can only be called by the current owner. NOTE: Renouncing ownership will leave the contract without an owner, thereby disabling any functionality that is only available to the owner."
      },
      "renounceRole(bytes32,address)": {
        "details": "Revokes `role` from the calling account. Roles are often managed via {grantRole} and {revokeRole}: this function's purpose is to provide a mechanism for accounts to lose their privileges if they are compromised (such as when a trusted device is misplaced). If the calling account had been revoked `role`, emits a {RoleRevoked} event. Requirements: - the caller must be `account`. May emit a {RoleRevoked} event."
      },
      "revokeRole(bytes32,address)": {
        "details": "Revokes `role` from `account`. If `account` had been granted `role`, emits a {RoleRevoked} event. Requirements: - the caller must have ``role``'s admin role. May emit a {RoleRevoked} event."
      },
      "rewardTokenSurpluses()": {
        "returns": {
          "surpluses_": "surpluses of the reward tokens."
        }
      },
      "setRewardRate(uint256,uint96,uint40)": {
        "params": {
          "_startTimestampToOverride": "the start time for the token emission.        A value of 0 indicates no changes, while a future timestamp starts the emission at the specified time.",
          "_tokenId": "The token id",
          "_tokenPerSec": "The number of tokens to distribute per second"
        }
      },
      "supportsInterface(bytes4)": {
        "details": "See {IERC165-supportsInterface}."
      },
      "transferOwnership(address)": {
        "details": "Transfers ownership of the contract to a new account (`newOwner`). Can only be called by the current owner."
      }
    },
    "version": 1
  },
  "userdoc": {
    "kind": "user",
    "methods": {
      "balances()": {
        "notice": "View function to see balances of reward token."
      },
      "emergencyTokenWithdraw(address)": {
        "notice": "avoids loosing funds in case there is any tokens sent to this contract the reward token will not be stopped and keep accumulating debts"
      },
      "emergencyWithdraw()": {
        "notice": "In case rewarder is stopped before emissions finished, this function allows withdrawal of remaining tokens. there will be deficit which is equal to the unclaimed amount"
      },
      "initialize(address,address,address,uint256,address,uint96)": {
        "notice": "Initializes pool. Dev is set to be the account calling this function."
      },
      "lpToken()": {
        "notice": "Visualization of the relationship between distributedAmount, claimedAmount, rewardToDistribute, availableReward, surplus and balance: Case: emission is active. rewardToDistribute is growing at the rate of tokenPerSec. |<--------------distributedAmount------------->|<--rewardToDistribute*-->| |<-----claimedAmount----->|<-------------------------balance------------------------->|                                                |<-----------availableReward*--------->|                           |<-unclaimedAmount*->|                         |<-surplus*->| Case: reward running out. rewardToDistribute stopped growing. it is capped at availableReward. |<--------------distributedAmount------------->|<---------rewardToDistribute*-------->| |<-----claimedAmount----->|<-------------------------balance------------------------->|                                                |<-----------availableReward*--------->|                           |<-unclaimedAmount*->|                                       surplus* = 0 Case: balance emptied after emergencyWithdraw. |<--------------distributedAmount------------->| rewardToDistribute* = 0 |<-----claimedAmount----->|                      balance = 0, availableReward* = 0                           |<-unclaimedAmount*->| surplus* = - unclaimedAmount* (negative to indicate deficit) (Variables with * are not in the RewardInfo state, but can be derived from it.) balance, is the amount of reward token in this contract. Not all of them are available for distribution as some are reserved for unclaimed rewards. distributedAmount, is the amount of reward token that has been distributed up to lastRewardTimestamp. claimedAmount, is the amount of reward token that has been claimed by users. claimedAmount always <= distributedAmount. unclaimedAmount = distributedAmount - claimedAmount, is the amount of reward token in balance that is reserved to be claimed by users. availableReward = balance - unclaimedAmount, is the amount inside balance that is available for distribution (not reserved for unclaimed rewards). rewardToDistribute is the accumulated reward from [lastRewardTimestamp, now] that is yet to be distributed. as distributedAmount only accounts for the distributed amount up to lastRewardTimestamp. it is used in _updateReward(), and to be added to distributedAmount. to prevent bad debt, rewardToDistribute is capped at availableReward. as we cannot distribute more than the availableReward. rewardToDistribute = min(tokenPerSec * (now - lastRewardTimestamp), availableReward) surplus = availableReward - rewardToDistribute, is the amount inside balance that is available for future distribution."
      },
      "rewardInfo(uint256)": {
        "notice": "View function to preserve backward compatibility, as the previous version uses rewardInfo instead of rewardInfos"
      },
      "rewardInfos(uint256)": {
        "notice": "Info of the reward tokens."
      },
      "rewardTokenSurpluses()": {
        "notice": "View function to see surplus of each reward, i.e. reward balance - unclaimed amount it would be negative if there's bad debt/deficit, which would happend only if some token was emergencyWithdrawn."
      },
      "rewardsToDistribute()": {
        "notice": "the amount of reward accumulated since the lastRewardTimestamp and is to be distributed. the case that lastRewardTimestamp is in the future is also handled"
      },
      "runoutTimestamps()": {
        "notice": "View function to see the timestamp when the reward will runout based on current emission rate and balance left. a timestamp of 0 indicates that the token is not emitting or already run out. also works for the case that emission start time (lastRewardTimestamp) is in the future."
      },
      "setRewardRate(uint256,uint96,uint40)": {
        "notice": "Sets the distribution reward rate, and updates the emission start time if specified."
      },
      "userBalanceInfo(address)": {
        "notice": "userAddr => UserBalanceInfo"
      },
      "userRewardInfo(uint256,address)": {
        "notice": "tokenId => userId => UserRewardInfo"
      }
    },
    "notice": "Simple bribe per sec. Distribute bribe rewards to voters Bribe.onVote->updateReward() is a bit different from SimpleRewarder. Here we reduce the original total amount of share",
    "version": 1
  },
  "storageLayout": {
    "storage": [
      {
        "astId": 763,
        "contract": "contracts/wombat-governance/gauge/BribeV2.sol:BribeV2",
        "label": "_initialized",
        "offset": 0,
        "slot": "0",
        "type": "t_uint8"
      },
      {
        "astId": 766,
        "contract": "contracts/wombat-governance/gauge/BribeV2.sol:BribeV2",
        "label": "_initializing",
        "offset": 1,
        "slot": "0",
        "type": "t_bool"
      },
      {
        "astId": 1507,
        "contract": "contracts/wombat-governance/gauge/BribeV2.sol:BribeV2",
        "label": "__gap",
        "offset": 0,
        "slot": "1",
        "type": "t_array(t_uint256)50_storage"
      },
      {
        "astId": 635,
        "contract": "contracts/wombat-governance/gauge/BribeV2.sol:BribeV2",
        "label": "_owner",
        "offset": 0,
        "slot": "51",
        "type": "t_address"
      },
      {
        "astId": 755,
        "contract": "contracts/wombat-governance/gauge/BribeV2.sol:BribeV2",
        "label": "__gap",
        "offset": 0,
        "slot": "52",
        "type": "t_array(t_uint256)49_storage"
      },
      {
        "astId": 1780,
        "contract": "contracts/wombat-governance/gauge/BribeV2.sol:BribeV2",
        "label": "__gap",
        "offset": 0,
        "slot": "101",
        "type": "t_array(t_uint256)50_storage"
      },
      {
        "astId": 230,
        "contract": "contracts/wombat-governance/gauge/BribeV2.sol:BribeV2",
        "label": "_roles",
        "offset": 0,
        "slot": "151",
        "type": "t_mapping(t_bytes32,t_struct(RoleData)225_storage)"
      },
      {
        "astId": 525,
        "contract": "contracts/wombat-governance/gauge/BribeV2.sol:BribeV2",
        "label": "__gap",
        "offset": 0,
        "slot": "152",
        "type": "t_array(t_uint256)49_storage"
      },
      {
        "astId": 79,
        "contract": "contracts/wombat-governance/gauge/BribeV2.sol:BribeV2",
        "label": "_roleMembers",
        "offset": 0,
        "slot": "201",
        "type": "t_mapping(t_bytes32,t_struct(AddressSet)3090_storage)"
      },
      {
        "astId": 189,
        "contract": "contracts/wombat-governance/gauge/BribeV2.sol:BribeV2",
        "label": "__gap",
        "offset": 0,
        "slot": "202",
        "type": "t_array(t_uint256)49_storage"
      },
      {
        "astId": 1066,
        "contract": "contracts/wombat-governance/gauge/BribeV2.sol:BribeV2",
        "label": "_status",
        "offset": 0,
        "slot": "251",
        "type": "t_uint256"
      },
      {
        "astId": 1135,
        "contract": "contracts/wombat-governance/gauge/BribeV2.sol:BribeV2",
        "label": "__gap",
        "offset": 0,
        "slot": "252",
        "type": "t_array(t_uint256)49_storage"
      },
      {
        "astId": 51214,
        "contract": "contracts/wombat-governance/gauge/BribeV2.sol:BribeV2",
        "label": "lpToken",
        "offset": 0,
        "slot": "301",
        "type": "t_contract(IERC20)6805"
      },
      {
        "astId": 51216,
        "contract": "contracts/wombat-governance/gauge/BribeV2.sol:BribeV2",
        "label": "master",
        "offset": 0,
        "slot": "302",
        "type": "t_address"
      },
      {
        "astId": 51221,
        "contract": "contracts/wombat-governance/gauge/BribeV2.sol:BribeV2",
        "label": "rewardInfos",
        "offset": 0,
        "slot": "303",
        "type": "t_array(t_struct(RewardInfo)51210_storage)dyn_storage"
      },
      {
        "astId": 51227,
        "contract": "contracts/wombat-governance/gauge/BribeV2.sol:BribeV2",
        "label": "userBalanceInfo",
        "offset": 0,
        "slot": "304",
        "type": "t_mapping(t_address,t_struct(UserBalanceInfo)51188_storage)"
      },
      {
        "astId": 51235,
        "contract": "contracts/wombat-governance/gauge/BribeV2.sol:BribeV2",
        "label": "userRewardInfo",
        "offset": 0,
        "slot": "305",
        "type": "t_mapping(t_uint256,t_mapping(t_address,t_struct(UserRewardInfo)51193_storage))"
      },
      {
        "astId": 51238,
        "contract": "contracts/wombat-governance/gauge/BribeV2.sol:BribeV2",
        "label": "bribeFactory",
        "offset": 0,
        "slot": "306",
        "type": "t_contract(IBribeRewarderFactory)44731"
      },
      {
        "astId": 51240,
        "contract": "contracts/wombat-governance/gauge/BribeV2.sol:BribeV2",
        "label": "isDeprecated",
        "offset": 20,
        "slot": "306",
        "type": "t_bool"
      },
      {
        "astId": 53020,
        "contract": "contracts/wombat-governance/gauge/BribeV2.sol:BribeV2",
        "label": "__gap",
        "offset": 0,
        "slot": "307",
        "type": "t_array(t_uint256)50_storage"
      }
    ],
    "types": {
      "t_address": {
        "encoding": "inplace",
        "label": "address",
        "numberOfBytes": "20"
      },
      "t_array(t_bytes32)dyn_storage": {
        "base": "t_bytes32",
        "encoding": "dynamic_array",
        "label": "bytes32[]",
        "numberOfBytes": "32"
      },
      "t_array(t_struct(RewardInfo)51210_storage)dyn_storage": {
        "base": "t_struct(RewardInfo)51210_storage",
        "encoding": "dynamic_array",
        "label": "struct MultiRewarderPerSecV2.RewardInfo[]",
        "numberOfBytes": "32"
      },
      "t_array(t_uint256)49_storage": {
        "base": "t_uint256",
        "encoding": "inplace",
        "label": "uint256[49]",
        "numberOfBytes": "1568"
      },
      "t_array(t_uint256)50_storage": {
        "base": "t_uint256",
        "encoding": "inplace",
        "label": "uint256[50]",
        "numberOfBytes": "1600"
      },
      "t_bool": {
        "encoding": "inplace",
        "label": "bool",
        "numberOfBytes": "1"
      },
      "t_bytes32": {
        "encoding": "inplace",
        "label": "bytes32",
        "numberOfBytes": "32"
      },
      "t_contract(IBribeRewarderFactory)44731": {
        "encoding": "inplace",
        "label": "contract IBribeRewarderFactory",
        "numberOfBytes": "20"
      },
      "t_contract(IERC20)6805": {
        "encoding": "inplace",
        "label": "contract IERC20",
        "numberOfBytes": "20"
      },
      "t_mapping(t_address,t_bool)": {
        "encoding": "mapping",
        "key": "t_address",
        "label": "mapping(address => bool)",
        "numberOfBytes": "32",
        "value": "t_bool"
      },
      "t_mapping(t_address,t_struct(UserBalanceInfo)51188_storage)": {
        "encoding": "mapping",
        "key": "t_address",
        "label": "mapping(address => struct MultiRewarderPerSecV2.UserBalanceInfo)",
        "numberOfBytes": "32",
        "value": "t_struct(UserBalanceInfo)51188_storage"
      },
      "t_mapping(t_address,t_struct(UserRewardInfo)51193_storage)": {
        "encoding": "mapping",
        "key": "t_address",
        "label": "mapping(address => struct MultiRewarderPerSecV2.UserRewardInfo)",
        "numberOfBytes": "32",
        "value": "t_struct(UserRewardInfo)51193_storage"
      },
      "t_mapping(t_bytes32,t_struct(AddressSet)3090_storage)": {
        "encoding": "mapping",
        "key": "t_bytes32",
        "label": "mapping(bytes32 => struct EnumerableSetUpgradeable.AddressSet)",
        "numberOfBytes": "32",
        "value": "t_struct(AddressSet)3090_storage"
      },
      "t_mapping(t_bytes32,t_struct(RoleData)225_storage)": {
        "encoding": "mapping",
        "key": "t_bytes32",
        "label": "mapping(bytes32 => struct AccessControlUpgradeable.RoleData)",
        "numberOfBytes": "32",
        "value": "t_struct(RoleData)225_storage"
      },
      "t_mapping(t_bytes32,t_uint256)": {
        "encoding": "mapping",
        "key": "t_bytes32",
        "label": "mapping(bytes32 => uint256)",
        "numberOfBytes": "32",
        "value": "t_uint256"
      },
      "t_mapping(t_uint256,t_mapping(t_address,t_struct(UserRewardInfo)51193_storage))": {
        "encoding": "mapping",
        "key": "t_uint256",
        "label": "mapping(uint256 => mapping(address => struct MultiRewarderPerSecV2.UserRewardInfo))",
        "numberOfBytes": "32",
        "value": "t_mapping(t_address,t_struct(UserRewardInfo)51193_storage)"
      },
      "t_struct(AddressSet)3090_storage": {
        "encoding": "inplace",
        "label": "struct EnumerableSetUpgradeable.AddressSet",
        "members": [
          {
            "astId": 3089,
            "contract": "contracts/wombat-governance/gauge/BribeV2.sol:BribeV2",
            "label": "_inner",
            "offset": 0,
            "slot": "0",
            "type": "t_struct(Set)2775_storage"
          }
        ],
        "numberOfBytes": "64"
      },
      "t_struct(RewardInfo)51210_storage": {
        "encoding": "inplace",
        "label": "struct MultiRewarderPerSecV2.RewardInfo",
        "members": [
          {
            "astId": 51197,
            "contract": "contracts/wombat-governance/gauge/BribeV2.sol:BribeV2",
            "label": "rewardToken",
            "offset": 0,
            "slot": "0",
            "type": "t_contract(IERC20)6805"
          },
          {
            "astId": 51199,
            "contract": "contracts/wombat-governance/gauge/BribeV2.sol:BribeV2",
            "label": "tokenPerSec",
            "offset": 20,
            "slot": "0",
            "type": "t_uint96"
          },
          {
            "astId": 51202,
            "contract": "contracts/wombat-governance/gauge/BribeV2.sol:BribeV2",
            "label": "accTokenPerShare",
            "offset": 0,
            "slot": "1",
            "type": "t_uint128"
          },
          {
            "astId": 51204,
            "contract": "contracts/wombat-governance/gauge/BribeV2.sol:BribeV2",
            "label": "distributedAmount",
            "offset": 16,
            "slot": "1",
            "type": "t_uint128"
          },
          {
            "astId": 51207,
            "contract": "contracts/wombat-governance/gauge/BribeV2.sol:BribeV2",
            "label": "claimedAmount",
            "offset": 0,
            "slot": "2",
            "type": "t_uint128"
          },
          {
            "astId": 51209,
            "contract": "contracts/wombat-governance/gauge/BribeV2.sol:BribeV2",
            "label": "lastRewardTimestamp",
            "offset": 16,
            "slot": "2",
            "type": "t_uint40"
          }
        ],
        "numberOfBytes": "96"
      },
      "t_struct(RoleData)225_storage": {
        "encoding": "inplace",
        "label": "struct AccessControlUpgradeable.RoleData",
        "members": [
          {
            "astId": 222,
            "contract": "contracts/wombat-governance/gauge/BribeV2.sol:BribeV2",
            "label": "members",
            "offset": 0,
            "slot": "0",
            "type": "t_mapping(t_address,t_bool)"
          },
          {
            "astId": 224,
            "contract": "contracts/wombat-governance/gauge/BribeV2.sol:BribeV2",
            "label": "adminRole",
            "offset": 0,
            "slot": "1",
            "type": "t_bytes32"
          }
        ],
        "numberOfBytes": "64"
      },
      "t_struct(Set)2775_storage": {
        "encoding": "inplace",
        "label": "struct EnumerableSetUpgradeable.Set",
        "members": [
          {
            "astId": 2770,
            "contract": "contracts/wombat-governance/gauge/BribeV2.sol:BribeV2",
            "label": "_values",
            "offset": 0,
            "slot": "0",
            "type": "t_array(t_bytes32)dyn_storage"
          },
          {
            "astId": 2774,
            "contract": "contracts/wombat-governance/gauge/BribeV2.sol:BribeV2",
            "label": "_indexes",
            "offset": 0,
            "slot": "1",
            "type": "t_mapping(t_bytes32,t_uint256)"
          }
        ],
        "numberOfBytes": "64"
      },
      "t_struct(UserBalanceInfo)51188_storage": {
        "encoding": "inplace",
        "label": "struct MultiRewarderPerSecV2.UserBalanceInfo",
        "members": [
          {
            "astId": 51187,
            "contract": "contracts/wombat-governance/gauge/BribeV2.sol:BribeV2",
            "label": "amount",
            "offset": 0,
            "slot": "0",
            "type": "t_uint256"
          }
        ],
        "numberOfBytes": "32"
      },
      "t_struct(UserRewardInfo)51193_storage": {
        "encoding": "inplace",
        "label": "struct MultiRewarderPerSecV2.UserRewardInfo",
        "members": [
          {
            "astId": 51190,
            "contract": "contracts/wombat-governance/gauge/BribeV2.sol:BribeV2",
            "label": "rewardDebt",
            "offset": 0,
            "slot": "0",
            "type": "t_uint128"
          },
          {
            "astId": 51192,
            "contract": "contracts/wombat-governance/gauge/BribeV2.sol:BribeV2",
            "label": "unpaidRewards",
            "offset": 16,
            "slot": "0",
            "type": "t_uint128"
          }
        ],
        "numberOfBytes": "32"
      },
      "t_uint128": {
        "encoding": "inplace",
        "label": "uint128",
        "numberOfBytes": "16"
      },
      "t_uint256": {
        "encoding": "inplace",
        "label": "uint256",
        "numberOfBytes": "32"
      },
      "t_uint40": {
        "encoding": "inplace",
        "label": "uint40",
        "numberOfBytes": "5"
      },
      "t_uint8": {
        "encoding": "inplace",
        "label": "uint8",
        "numberOfBytes": "1"
      },
      "t_uint96": {
        "encoding": "inplace",
        "label": "uint96",
        "numberOfBytes": "12"
      }
    }
  }
}