{
  "address": "0xF38CD9795fE0E6575839C350f318886759Da836c",
  "abi": [
    {
      "inputs": [
        {
          "internalType": "address",
          "name": "_master",
          "type": "address"
        },
        {
          "internalType": "contract IERC20",
          "name": "_lpToken",
          "type": "address"
        },
        {
          "internalType": "uint256",
          "name": "_startTimestamp",
          "type": "uint256"
        },
        {
          "internalType": "contract IERC20",
          "name": "_rewardToken",
          "type": "address"
        },
        {
          "internalType": "uint96",
          "name": "_tokenPerSec",
          "type": "uint96"
        }
      ],
      "stateMutability": "nonpayable",
      "type": "constructor"
    },
    {
      "anonymous": false,
      "inputs": [
        {
          "indexed": true,
          "internalType": "address",
          "name": "rewardToken",
          "type": "address"
        },
        {
          "indexed": true,
          "internalType": "address",
          "name": "user",
          "type": "address"
        },
        {
          "indexed": false,
          "internalType": "uint256",
          "name": "amount",
          "type": "uint256"
        }
      ],
      "name": "OnReward",
      "type": "event"
    },
    {
      "anonymous": false,
      "inputs": [
        {
          "indexed": true,
          "internalType": "address",
          "name": "previousOwner",
          "type": "address"
        },
        {
          "indexed": true,
          "internalType": "address",
          "name": "newOwner",
          "type": "address"
        }
      ],
      "name": "OwnershipTransferred",
      "type": "event"
    },
    {
      "anonymous": false,
      "inputs": [
        {
          "indexed": true,
          "internalType": "address",
          "name": "rewardToken",
          "type": "address"
        },
        {
          "indexed": false,
          "internalType": "uint256",
          "name": "oldRate",
          "type": "uint256"
        },
        {
          "indexed": false,
          "internalType": "uint256",
          "name": "newRate",
          "type": "uint256"
        }
      ],
      "name": "RewardRateUpdated",
      "type": "event"
    },
    {
      "inputs": [
        {
          "internalType": "contract IERC20",
          "name": "_rewardToken",
          "type": "address"
        },
        {
          "internalType": "uint96",
          "name": "_tokenPerSec",
          "type": "uint96"
        }
      ],
      "name": "addRewardToken",
      "outputs": [],
      "stateMutability": "nonpayable",
      "type": "function"
    },
    {
      "inputs": [],
      "name": "balances",
      "outputs": [
        {
          "internalType": "uint256[]",
          "name": "balances_",
          "type": "uint256[]"
        }
      ],
      "stateMutability": "view",
      "type": "function"
    },
    {
      "inputs": [
        {
          "internalType": "address",
          "name": "token",
          "type": "address"
        }
      ],
      "name": "emergencyTokenWithdraw",
      "outputs": [],
      "stateMutability": "nonpayable",
      "type": "function"
    },
    {
      "inputs": [],
      "name": "emergencyWithdraw",
      "outputs": [],
      "stateMutability": "nonpayable",
      "type": "function"
    },
    {
      "inputs": [],
      "name": "lastRewardTimestamp",
      "outputs": [
        {
          "internalType": "uint256",
          "name": "",
          "type": "uint256"
        }
      ],
      "stateMutability": "view",
      "type": "function"
    },
    {
      "inputs": [],
      "name": "lpToken",
      "outputs": [
        {
          "internalType": "contract IERC20",
          "name": "",
          "type": "address"
        }
      ],
      "stateMutability": "view",
      "type": "function"
    },
    {
      "inputs": [],
      "name": "master",
      "outputs": [
        {
          "internalType": "address",
          "name": "",
          "type": "address"
        }
      ],
      "stateMutability": "view",
      "type": "function"
    },
    {
      "inputs": [
        {
          "internalType": "address",
          "name": "_user",
          "type": "address"
        },
        {
          "internalType": "uint256",
          "name": "_lpAmount",
          "type": "uint256"
        }
      ],
      "name": "onReward",
      "outputs": [
        {
          "internalType": "uint256[]",
          "name": "rewards",
          "type": "uint256[]"
        }
      ],
      "stateMutability": "nonpayable",
      "type": "function"
    },
    {
      "inputs": [
        {
          "internalType": "address",
          "name": "user",
          "type": "address"
        },
        {
          "internalType": "uint256",
          "name": "newVote",
          "type": "uint256"
        },
        {
          "internalType": "uint256",
          "name": "originalTotalVotes",
          "type": "uint256"
        }
      ],
      "name": "onVote",
      "outputs": [
        {
          "internalType": "uint256[]",
          "name": "rewards",
          "type": "uint256[]"
        }
      ],
      "stateMutability": "nonpayable",
      "type": "function"
    },
    {
      "inputs": [],
      "name": "operator",
      "outputs": [
        {
          "internalType": "address",
          "name": "",
          "type": "address"
        }
      ],
      "stateMutability": "view",
      "type": "function"
    },
    {
      "inputs": [],
      "name": "owner",
      "outputs": [
        {
          "internalType": "address",
          "name": "",
          "type": "address"
        }
      ],
      "stateMutability": "view",
      "type": "function"
    },
    {
      "inputs": [
        {
          "internalType": "address",
          "name": "_user",
          "type": "address"
        }
      ],
      "name": "pendingTokens",
      "outputs": [
        {
          "internalType": "uint256[]",
          "name": "tokens",
          "type": "uint256[]"
        }
      ],
      "stateMutability": "view",
      "type": "function"
    },
    {
      "inputs": [],
      "name": "renounceOwnership",
      "outputs": [],
      "stateMutability": "nonpayable",
      "type": "function"
    },
    {
      "inputs": [
        {
          "internalType": "uint256",
          "name": "",
          "type": "uint256"
        }
      ],
      "name": "rewardInfo",
      "outputs": [
        {
          "internalType": "contract IERC20",
          "name": "rewardToken",
          "type": "address"
        },
        {
          "internalType": "uint96",
          "name": "tokenPerSec",
          "type": "uint96"
        },
        {
          "internalType": "uint128",
          "name": "accTokenPerShare",
          "type": "uint128"
        }
      ],
      "stateMutability": "view",
      "type": "function"
    },
    {
      "inputs": [],
      "name": "rewardLength",
      "outputs": [
        {
          "internalType": "uint256",
          "name": "",
          "type": "uint256"
        }
      ],
      "stateMutability": "view",
      "type": "function"
    },
    {
      "inputs": [],
      "name": "rewardTokens",
      "outputs": [
        {
          "internalType": "contract IERC20[]",
          "name": "tokens",
          "type": "address[]"
        }
      ],
      "stateMutability": "view",
      "type": "function"
    },
    {
      "inputs": [
        {
          "internalType": "address",
          "name": "_operator",
          "type": "address"
        }
      ],
      "name": "setOperator",
      "outputs": [],
      "stateMutability": "nonpayable",
      "type": "function"
    },
    {
      "inputs": [
        {
          "internalType": "uint256",
          "name": "_tokenId",
          "type": "uint256"
        },
        {
          "internalType": "uint96",
          "name": "_tokenPerSec",
          "type": "uint96"
        }
      ],
      "name": "setRewardRate",
      "outputs": [],
      "stateMutability": "nonpayable",
      "type": "function"
    },
    {
      "inputs": [
        {
          "internalType": "address",
          "name": "newOwner",
          "type": "address"
        }
      ],
      "name": "transferOwnership",
      "outputs": [],
      "stateMutability": "nonpayable",
      "type": "function"
    },
    {
      "inputs": [],
      "name": "updateReward",
      "outputs": [],
      "stateMutability": "nonpayable",
      "type": "function"
    },
    {
      "inputs": [
        {
          "internalType": "uint256",
          "name": "",
          "type": "uint256"
        },
        {
          "internalType": "address",
          "name": "",
          "type": "address"
        }
      ],
      "name": "userInfo",
      "outputs": [
        {
          "internalType": "uint128",
          "name": "amount",
          "type": "uint128"
        },
        {
          "internalType": "uint128",
          "name": "rewardDebt",
          "type": "uint128"
        },
        {
          "internalType": "uint256",
          "name": "unpaidRewards",
          "type": "uint256"
        }
      ],
      "stateMutability": "view",
      "type": "function"
    },
    {
      "stateMutability": "payable",
      "type": "receive"
    }
  ],
  "transactionHash": "0x7e5219daa116d47d68755d53c1ca94264fea453a6696ebc200e4c3057dfde68b",
  "args": [
    "0x8C0e9334DBFAC1b9184bC01Ef638BA705cc13EaF",
    "0xA1a8d6688A2DEF14d6bD3A76E3AA2bdB5670C567",
    1667213029,
    "0x9bbC325Eb7a7367bE610bCe614C91EF7F29c69dc",
    "100000000000000000"
  ],
  "solcInputHash": "66139c59c64e54fe5e689060f1c158f4",
  "bytecode": "0x60c0346200037257601f6200236838819003918201601f1916830192916001600160401b03918285118486101762000377578160a0928592604097885283398101031262000372578151916001600160a01b03808416840362000372576020906200006c8284016200038d565b938684015193608062000082606083016200038d565b9101516001600160601b038116959086900362000372576000968754988560018060a01b03199433868d16178b558c519b8c7f8be0079c531659141344cd1fd0a4f28419497f9722a3daafe3b4186f6b6457e08d8533941692a36001805516998a3b1580159062000369575b156200030c57508582163b15620002b157803b156200025857428310620002545760a0526080526003558751916060830190811183821017620002405788528682528382019085825288830193670de0b6b3a76400008552600454680100000000000000008110156200022c5760018101806004558110156200021857600489528689209451935160a01b909216921691909117600191821b9092019182559151910180546001600160801b0319166001600160801b039290921691909117905584519283528201527f225033f2ea5486463cbb49ceda2823be38daddc85031ce2c637e7ad0950bc85a908390a251611fc59081620003a382396080518181816102ed01526116db015260a0518181816103a101528181610f150152818161130801526117020152f35b634e487b7160e01b89526032600452602489fd5b634e487b7160e01b89526041600452602489fd5b634e487b7160e01b87526041600452602487fd5b8880fd5b8a5162461bcd60e51b815260048101889052602c60248201527f636f6e7374727563746f723a204d6173746572206d757374206265206120766160448201526b1b1a590818dbdb9d1c9858dd60a21b6064820152608490fd5b8a5162461bcd60e51b815260048101889052602e60248201527f636f6e7374727563746f723a204c5020746f6b656e206d75737420626520612060448201526d1d985b1a590818dbdb9d1c9858dd60921b6064820152608490fd5b62461bcd60e51b815260048101889052603260248201527f636f6e7374727563746f723a2072657761726420746f6b656e206d7573742062604482015271194818481d985b1a590818dbdb9d1c9858dd60721b6064820152608490fd5b508a15620000ee565b600080fd5b634e487b7160e01b600052604160045260246000fd5b51906001600160a01b0382168203620003725756fe6080604052600436101561001b575b361561001957600080fd5b005b60003560e01c80630bc79363146101bf578063570ca735146101b65780635fcbd285146101ad57806365d9aa4a146101a4578063715018a61461019b5780637bb98a681461019257806381a00f83146101895780638da5cb5b1461018057806393f1a40b14610177578063ad5688271461016e578063b3ab15fb14610165578063b95c57461461015c578063c031a66f14610153578063c2b18aa01461014a578063c372328814610141578063db2e21bc14610138578063edc9d7721461012f578063ee97f7f314610126578063f2fde38b1461011d578063f36c0a72146101145763f8077fae0361000e5761010f611405565b61000e565b5061010f6113e8565b5061010f61132c565b5061010f6112da565b5061010f6110a5565b5061010f610f8f565b5061010f610ede565b5061010f610e30565b5061010f610c6e565b5061010f610c4f565b5061010f610bdb565b5061010f610af8565b5061010f610a71565b5061010f610a3c565b5061010f6109cc565b5061010f61081d565b5061010f610793565b5061010f61036a565b5061010f6102bf565b5061010f61028a565b5061010f6101e8565b602435906bffffffffffffffffffffffff821682036101e357565b600080fd5b50346101e35760406003193601126101e3576102026101c8565b73ffffffffffffffffffffffffffffffffffffffff8060005416331490811561027c575b50156102385761001990600435611a00565b606460405162461bcd60e51b815260206004820152601360248201527f6f6e6c794f70657261746f724f724f776e6572000000000000000000000000006044820152fd5b905060025416331438610226565b50346101e35760006003193601126101e357602073ffffffffffffffffffffffffffffffffffffffff60025416604051908152f35b50346101e35760006003193601126101e357602060405173ffffffffffffffffffffffffffffffffffffffff7f0000000000000000000000000000000000000000000000000000000000000000168152f35b73ffffffffffffffffffffffffffffffffffffffff8116036101e357565b6020908160408183019282815285518094520193019160005b828110610356575050505090565b835185529381019392810192600101610348565b50346101e35760606003193601126101e357610387600435610311565b6103c873ffffffffffffffffffffffffffffffffffffffff7f00000000000000000000000000000000000000000000000000000000000000001633146114de565b6103d76002600154141561154f565b60026001556103e760443561190e565b6004546103f381611b4c565b9060005b81811061041b576104178361040b60018055565b6040519182918261032f565b0390f35b806104286105db92610984565b5061057861046b600435610446856000526005602052604060002090565b9073ffffffffffffffffffffffffffffffffffffffff16600052602052604060002090565b61053861053361052861052061050b600161049a895473ffffffffffffffffffffffffffffffffffffffff1690565b988d88548060801c6105e0575b50506104f46104b7602435611f2e565b89906fffffffffffffffffffffffffffffffff167fffffffffffffffffffffffffffffffff00000000000000000000000000000000825416179055565b01546fffffffffffffffffffffffffffffffff1690565b6fffffffffffffffffffffffffffffffff1690565b6024356118a4565b64e8d4a51000900490565b611f2e565b6fffffffffffffffffffffffffffffffff7fffffffffffffffffffffffffffffffff0000000000000000000000000000000083549260801b169116179055565b6105828286611bb6565b517f986cbc32375de61d1fabfb01aef452f5c919f2180bb72fff0fb182126a02b527604051806105d373ffffffffffffffffffffffffffffffffffffffff8060043516961694829190602083019252565b0390a361180f565b6103f7565b8c61063a8b6106358761062661052861060e61050b848c01546fffffffffffffffffffffffffffffffff1690565b6fffffffffffffffffffffffffffffffff89166118a4565b92019460801c91855490611b9b565b611849565b8d73ffffffffffffffffffffffffffffffffffffffff8116806106c957505047918282116000146106a2576106928391610698959661068d60008080604051886004355af1610687611bd8565b50611c44565b611bb6565b52611849565b90555b8d386104a7565b6106c291925060009461068d868080604051886004355af1610687611bd8565b525561069b565b6040517f70a0823100000000000000000000000000000000000000000000000000000000815230600482015291956020949290918590829060249082905afa948515610786575b600095610757575b5050838311156107415783916106929161068d8461073a989960043590611c8f565b905561069b565b82935061068d6106c29360009760043590611c8f565b610777929550803d1061077f575b61076f818361162b565b810190611ba7565b923880610718565b503d610765565b61078e611689565b610710565b50346101e35760008060031936011261081a5780547fffffffffffffffffffffffff000000000000000000000000000000000000000073ffffffffffffffffffffffffffffffffffffffff8216916107ec338414611424565b16825581604051917f8be0079c531659141344cd1fd0a4f28419497f9722a3daafe3b4186f6b6457e08284a3f35b80fd5b50346101e35760008060031936011261081a5760049081549061083f82611b4c565b92815b8381106108575760405180610417878261032f565b8061089e61088561086a6108cb94610984565b505473ffffffffffffffffffffffffffffffffffffffff1690565b73ffffffffffffffffffffffffffffffffffffffff1690565b73ffffffffffffffffffffffffffffffffffffffff81166108d05750476108c58288611bb6565b5261180f565b610842565b6040517f70a0823100000000000000000000000000000000000000000000000000000000815230858201908152602092839183919082908190850103915afa918215610947575b869261092a575b50506108c58288611bb6565b6109409250803d1061077f5761076f818361162b565b388061091e565b61094f611689565b610917565b507f4e487b7100000000000000000000000000000000000000000000000000000000600052603260045260246000fd5b6004548110156109bf575b600460005260011b7f8a35acfbc15ff81a39ae7d344fd709f28e8600b4aa8c65c6b64bfe7fe36bd19b0190600090565b6109c7610954565b61098f565b50346101e35760206003193601126101e3576004356004548110156101e3576109f6606091610984565b506fffffffffffffffffffffffffffffffff60018254920154166040519173ffffffffffffffffffffffffffffffffffffffff8116835260a01c60208301526040820152f35b50346101e35760006003193601126101e357602073ffffffffffffffffffffffffffffffffffffffff60005416604051908152f35b50346101e35760406003193601126101e3576060610ac9602435610a9481610311565b600435600052600560205260406000209073ffffffffffffffffffffffffffffffffffffffff16600052602052604060002090565b60018154910154604051916fffffffffffffffffffffffffffffffff8116835260801c60208301526040820152f35b50346101e35760206003193601126101e357600435610b1681610311565b73ffffffffffffffffffffffffffffffffffffffff600091610b3c828454163314611424565b1680610b5e5750610b598180804760405190335af1610687611bd8565b604051f35b6040517f70a08231000000000000000000000000000000000000000000000000000000008152306004820152610b5991602082602481845afa918215610bce575b8492610bae575b503390611c8f565b610bc791925060203d811161077f5761076f818361162b565b9038610ba6565b610bd6611689565b610b9f565b50346101e35760206003193601126101e357600435610bf981610311565b73ffffffffffffffffffffffffffffffffffffffff90610c1e82600054163314611424565b167fffffffffffffffffffffffff000000000000000000000000000000000000000060025416176002556000604051f35b50346101e35760006003193601126101e3576020600454604051908152f35b50346101e3576020806003193601126101e35760043590610c8e82610311565b60045490610c9b82611b4c565b92600060035491824211915b858110610cbc5760405180610417898261032f565b80610d63610cd5610ccf610d6d94610984565b50611edf565b6001610d5a610cf287610446876000526005602052604060002090565b92610d1361050b60408301516fffffffffffffffffffffffffffffffff1690565b90610d1c611696565b908c8c8c80610dd6575b610d72575b50505050610d506105288554926fffffffffffffffffffffffffffffffff84166118a4565b9060801c90611849565b91015490611b9b565b6108c5828a611bb6565b610ca7565b610dbd610dc793610db7610da6610dcd989795610d92610dc29642611849565b9301516bffffffffffffffffffffffff1690565b6bffffffffffffffffffffffff1690565b906118a4565b611860565b6118d5565b90611b9b565b38808c8c610d2b565b50831515610d26565b6020908160408183019282815285518094520193019160005b828110610e06575050505090565b835173ffffffffffffffffffffffffffffffffffffffff1685529381019392810192600101610df8565b50346101e35760006003193601126101e357600454610e4e81611b25565b90610e5c604051928361162b565b8082527fffffffffffffffffffffffffffffffffffffffffffffffffffffffffffffffe0610e8982611b25565b0136602084013760005b818110610ea857604051806104178582610ddf565b8073ffffffffffffffffffffffffffffffffffffffff610ecd610ccf610ed994610984565b51166108c58286611bb6565b610e93565b50346101e35760406003193601126101e357610efb600435610311565b610f3c73ffffffffffffffffffffffffffffffffffffffff7f00000000000000000000000000000000000000000000000000000000000000001633146114de565b610f4b6002600154141561154f565b606460405162461bcd60e51b815260206004820152601360248201527f43616c6c206f6e566f746520696e7374656164000000000000000000000000006044820152fd5b50346101e35760008060031936011261081a5773ffffffffffffffffffffffffffffffffffffffff610fc5818354163314611424565b6004805491835b838110610fd95784604051f35b8082610fe761101993610984565b505416610ff8338589541614611424565b8061101e57506110148680804760405190335af1610687611bd8565b61180f565b610fcc565b6040517f70a082310000000000000000000000000000000000000000000000000000000081523086820190815261101492602092909183908290819083010381855afa928315611098575b8a93611079575b50503390611c8f565b611090929350803d1061077f5761076f818361162b565b903880611070565b6110a0611689565b611069565b50346101e35760406003193601126101e3576004356110c381610311565b6110cb6101c8565b9073ffffffffffffffffffffffffffffffffffffffff6110f081600054163314611424565b6111006110fb611696565b61190e565b806040519261110e846115ca565b169283835260208301926bffffffffffffffffffffffff9081831685526040810194670de0b6b3a7640000865261115f600454680100000000000000008110156112cd575b60018101600455610984565b92909261129e577f225033f2ea5486463cbb49ceda2823be38daddc85031ce2c637e7ad0950bc85a96611233611273956001946111ee6112999a6fffffffffffffffffffffffffffffffff965116889073ffffffffffffffffffffffffffffffffffffffff167fffffffffffffffffffffffff0000000000000000000000000000000000000000825416179055565b51865473ffffffffffffffffffffffffffffffffffffffff16911660a01b7fffffffffffffffffffffffff000000000000000000000000000000000000000016178555565b51169101906fffffffffffffffffffffffffffffffff167fffffffffffffffffffffffffffffffff00000000000000000000000000000000825416179055565b60408051600081526bffffffffffffffffffffffff909216602083015290918291820190565b0390a2005b7f4e487b7100000000000000000000000000000000000000000000000000000000600052600060045260246000fd5b6112d561159a565b611153565b50346101e35760006003193601126101e357602060405173ffffffffffffffffffffffffffffffffffffffff7f0000000000000000000000000000000000000000000000000000000000000000168152f35b50346101e35760206003193601126101e35760043561134a81610311565b73ffffffffffffffffffffffffffffffffffffffff61136e81600054163314611424565b81161561137e576100199061146f565b608460405162461bcd60e51b815260206004820152602660248201527f4f776e61626c653a206e6577206f776e657220697320746865207a65726f206160448201527f64647265737300000000000000000000000000000000000000000000000000006064820152fd5b50346101e35760006003193601126101e3576100196110fb611696565b50346101e35760006003193601126101e3576020600354604051908152f35b1561142b57565b606460405162461bcd60e51b815260206004820152602060248201527f4f776e61626c653a2063616c6c6572206973206e6f7420746865206f776e65726044820152fd5b6000549073ffffffffffffffffffffffffffffffffffffffff80911691827fffffffffffffffffffffffff0000000000000000000000000000000000000000821617600055167f8be0079c531659141344cd1fd0a4f28419497f9722a3daafe3b4186f6b6457e06000604051a3565b156114e557565b608460405162461bcd60e51b815260206004820152602e60248201527f6f6e6c794d61737465723a206f6e6c79204d61737465722063616e2063616c6c60448201527f20746869732066756e6374696f6e0000000000000000000000000000000000006064820152fd5b1561155657565b606460405162461bcd60e51b815260206004820152601f60248201527f5265656e7472616e637947756172643a207265656e7472616e742063616c6c006044820152fd5b507f4e487b7100000000000000000000000000000000000000000000000000000000600052604160045260246000fd5b6060810190811067ffffffffffffffff8211176115e657604052565b6115ee61159a565b604052565b6080810190811067ffffffffffffffff8211176115e657604052565b6040810190811067ffffffffffffffff8211176115e657604052565b90601f7fffffffffffffffffffffffffffffffffffffffffffffffffffffffffffffffe0910116810190811067ffffffffffffffff8211176115e657604052565b51906fffffffffffffffffffffffffffffffff821682036101e357565b506040513d6000823e3d90fd5b60408051907fa7cac846000000000000000000000000000000000000000000000000000000008252808260248173ffffffffffffffffffffffffffffffffffffffff807f00000000000000000000000000000000000000000000000000000000000000001660048301527f0000000000000000000000000000000000000000000000000000000000000000165afa9182156117d2575b600092611758575b505060200151611755906fffffffffffffffffffffffffffffffff1661050b565b90565b90918282813d83116117cb575b61176f818361162b565b8101031261081a57506020826117b38261050b946117559651938085019085821067ffffffffffffffff8311176117be575b526117ab8161166c565b84520161166c565b828201529250611734565b6117c661159a565b6117a1565b503d611765565b6117da611689565b61172c565b507f4e487b7100000000000000000000000000000000000000000000000000000000600052601160045260246000fd5b6001907fffffffffffffffffffffffffffffffffffffffffffffffffffffffffffffffff811461183d570190565b6118456117df565b0190565b818110611854570390565b61185c6117df565b0390565b64e8d4a5100090807fffffffffffffffffffffffffffffffffffffffffffffffffffffffffffffffff04821181151516611898570290565b6118a06117df565b0290565b807fffffffffffffffffffffffffffffffffffffffffffffffffffffffffffffffff04821181151516611898570290565b81156118df570490565b7f4e487b7100000000000000000000000000000000000000000000000000000000600052601260045260246000fd5b600380544211806119f7575b611922575050565b6004549160005b83811061193f575050505061193d42600355565b565b8061101461194f6119d893610984565b50600161197661053387610dc2610dbd8b548042106119ea575b875460a01c9042036118a4565b9101906fffffffffffffffffffffffffffffffff908180845416911680920381116119dd575b016fffffffffffffffffffffffffffffffff167fffffffffffffffffffffffffffffffff00000000000000000000000000000000825416179055565b611929565b6119e56117df565b61199c565b6119f26117df565b611969565b5081151561191a565b906bffffffffffffffffffffffff81169169021e19e0c9bab24000008311611ae1577f225033f2ea5486463cbb49ceda2823be38daddc85031ce2c637e7ad0950bc85a9173ffffffffffffffffffffffffffffffffffffffff611ad0604093611a6a6110fb611696565b611acb611a7682610984565b505460a01c94611a8583610984565b509073ffffffffffffffffffffffffffffffffffffffff7fffffffffffffffffffffffff000000000000000000000000000000000000000083549260a01b169116179055565b610984565b5054169382519182526020820152a2565b606460405162461bcd60e51b815260206004820152601460248201527f726577617264207261746520746f6f20686967680000000000000000000000006044820152fd5b60209067ffffffffffffffff8111611b3f575b60051b0190565b611b4761159a565b611b38565b90611b5682611b25565b611b63604051918261162b565b8281527fffffffffffffffffffffffffffffffffffffffffffffffffffffffffffffffe0611b918294611b25565b0190602036910137565b8119811161183d570190565b908160209103126101e3575190565b6020918151811015611bcb575b60051b010190565b611bd3610954565b611bc3565b3d15611c3f573d9067ffffffffffffffff8211611c32575b60405191611c2660207fffffffffffffffffffffffffffffffffffffffffffffffffffffffffffffffe0601f840116018461162b565b82523d6000602084013e565b611c3a61159a565b611bf0565b606090565b15611c4b57565b606460405162461bcd60e51b815260206004820152600f60248201527f5472616e73666572206661696c656400000000000000000000000000000000006044820152fd5b9160405191602093848401927fa9059cbb00000000000000000000000000000000000000000000000000000000845273ffffffffffffffffffffffffffffffffffffffff8093166024860152604485015260448452611ced846115f3565b169060405192611cfc8461160f565b8484527f5361666545524332303a206c6f772d6c6576656c2063616c6c206661696c656485850152823b15611d6d57611d48939260009283809351925af1611d42611bd8565b90611e3a565b80519081611d5557505050565b8261193d93611d68938301019101611db1565b611dc9565b6064856040519062461bcd60e51b82526004820152601d60248201527f416464726573733a2063616c6c20746f206e6f6e2d636f6e74726163740000006044820152fd5b908160209103126101e3575180151581036101e35790565b15611dd057565b608460405162461bcd60e51b815260206004820152602a60248201527f5361666545524332303a204552433230206f7065726174696f6e20646964206e60448201527f6f742073756363656564000000000000000000000000000000000000000000006064820152fd5b90919015611e46575090565b815115611e565750805190602001fd5b6040519062461bcd60e51b82528160208060048301528251928360248401526000915b848310611ec6575050601f836044947fffffffffffffffffffffffffffffffffffffffffffffffffffffffffffffffe09311611eb9575b01168101030190fd5b6000858286010152611eb0565b8183018101518684016044015285935091820191611e79565b90604051611eec816115ca565b60406fffffffffffffffffffffffffffffffff60018395805473ffffffffffffffffffffffffffffffffffffffff8116865260a01c6020860152015416910152565b6fffffffffffffffffffffffffffffffff90818111611f4b571690565b606460405162461bcd60e51b815260206004820152601060248201527f75696e74313238206f766572666c6f77000000000000000000000000000000006044820152fdfea2646970667358221220fc11a7aced139132e7f3b96a0b84969b82d7931997c56316ff5f8b23f85fddd864736f6c634300080f0033",
  "devdoc": {
    "kind": "dev",
    "methods": {
      "emergencyTokenWithdraw(address)": {
        "details": "only to be called by owner"
      },
      "onReward(address,uint256)": {
        "details": "Assume `_getTotalShare` isn't updated yet when this function is called",
        "params": {
          "_lpAmount": "The new amount of LP",
          "_user": "Address of user"
        }
      },
      "owner()": {
        "details": "Returns the address of the current owner."
      },
      "renounceOwnership()": {
        "details": "Leaves the contract without owner. It will not be possible to call `onlyOwner` functions anymore. Can only be called by the current owner. NOTE: Renouncing ownership will leave the contract without an owner, thereby removing any functionality that is only available to the owner."
      },
      "setRewardRate(uint256,uint96)": {
        "params": {
          "_tokenPerSec": "The number of tokens to distribute per second"
        }
      },
      "transferOwnership(address)": {
        "details": "Transfers ownership of the contract to a new account (`newOwner`). Can only be called by the current owner."
      }
    },
    "version": 1
  },
  "userdoc": {
    "kind": "user",
    "methods": {
      "balances()": {
        "notice": "View function to see balances of reward token."
      },
      "emergencyTokenWithdraw(address)": {
        "notice": "avoids loosing funds in case there is any tokens sent to this contract"
      },
      "emergencyWithdraw()": {
        "notice": "In case rewarder is stopped before emissions finished, this function allows withdrawal of remaining tokens."
      },
      "onReward(address,uint256)": {
        "notice": "Function called by Master whenever staker claims WOM harvest.Allows staker to also receive a 2nd reward token."
      },
      "operator()": {
        "notice": "address of the operator"
      },
      "rewardInfo(uint256)": {
        "notice": "Info of the rewardInfo."
      },
      "setOperator(address)": {
        "notice": "Set operator address"
      },
      "setRewardRate(uint256,uint96)": {
        "notice": "Sets the distribution reward rate. This will also update the rewardInfo."
      },
      "userInfo(uint256,address)": {
        "notice": "tokenId => userId => UserInfo"
      }
    },
    "notice": "Simple bribe per sec. Distribute bribe rewards to voters Bribe.onVote->updateReward() is a bit different from SimpleRewarder. Here we reduce the original total amount of share",
    "version": 1
  },
  "storageLayout": {
    "storage": [
      {
        "astId": 660,
        "contract": "contracts/wombat-governance/gauge/Bribe.sol:Bribe",
        "label": "_owner",
        "offset": 0,
        "slot": "0",
        "type": "t_address"
      },
      {
        "astId": 767,
        "contract": "contracts/wombat-governance/gauge/Bribe.sol:Bribe",
        "label": "_status",
        "offset": 0,
        "slot": "1",
        "type": "t_uint256"
      },
      {
        "astId": 21813,
        "contract": "contracts/wombat-governance/gauge/Bribe.sol:Bribe",
        "label": "operator",
        "offset": 0,
        "slot": "2",
        "type": "t_address"
      },
      {
        "astId": 21815,
        "contract": "contracts/wombat-governance/gauge/Bribe.sol:Bribe",
        "label": "lastRewardTimestamp",
        "offset": 0,
        "slot": "3",
        "type": "t_uint256"
      },
      {
        "astId": 21820,
        "contract": "contracts/wombat-governance/gauge/Bribe.sol:Bribe",
        "label": "rewardInfo",
        "offset": 0,
        "slot": "4",
        "type": "t_array(t_struct(RewardInfo)21810_storage)dyn_storage"
      },
      {
        "astId": 21828,
        "contract": "contracts/wombat-governance/gauge/Bribe.sol:Bribe",
        "label": "userInfo",
        "offset": 0,
        "slot": "5",
        "type": "t_mapping(t_uint256,t_mapping(t_address,t_struct(UserInfo)21802_storage))"
      }
    ],
    "types": {
      "t_address": {
        "encoding": "inplace",
        "label": "address",
        "numberOfBytes": "20"
      },
      "t_array(t_struct(RewardInfo)21810_storage)dyn_storage": {
        "base": "t_struct(RewardInfo)21810_storage",
        "encoding": "dynamic_array",
        "label": "struct MultiRewarderPerSec.RewardInfo[]",
        "numberOfBytes": "32"
      },
      "t_contract(IERC20)1420": {
        "encoding": "inplace",
        "label": "contract IERC20",
        "numberOfBytes": "20"
      },
      "t_mapping(t_address,t_struct(UserInfo)21802_storage)": {
        "encoding": "mapping",
        "key": "t_address",
        "label": "mapping(address => struct MultiRewarderPerSec.UserInfo)",
        "numberOfBytes": "32",
        "value": "t_struct(UserInfo)21802_storage"
      },
      "t_mapping(t_uint256,t_mapping(t_address,t_struct(UserInfo)21802_storage))": {
        "encoding": "mapping",
        "key": "t_uint256",
        "label": "mapping(uint256 => mapping(address => struct MultiRewarderPerSec.UserInfo))",
        "numberOfBytes": "32",
        "value": "t_mapping(t_address,t_struct(UserInfo)21802_storage)"
      },
      "t_struct(RewardInfo)21810_storage": {
        "encoding": "inplace",
        "label": "struct MultiRewarderPerSec.RewardInfo",
        "members": [
          {
            "astId": 21805,
            "contract": "contracts/wombat-governance/gauge/Bribe.sol:Bribe",
            "label": "rewardToken",
            "offset": 0,
            "slot": "0",
            "type": "t_contract(IERC20)1420"
          },
          {
            "astId": 21807,
            "contract": "contracts/wombat-governance/gauge/Bribe.sol:Bribe",
            "label": "tokenPerSec",
            "offset": 20,
            "slot": "0",
            "type": "t_uint96"
          },
          {
            "astId": 21809,
            "contract": "contracts/wombat-governance/gauge/Bribe.sol:Bribe",
            "label": "accTokenPerShare",
            "offset": 0,
            "slot": "1",
            "type": "t_uint128"
          }
        ],
        "numberOfBytes": "64"
      },
      "t_struct(UserInfo)21802_storage": {
        "encoding": "inplace",
        "label": "struct MultiRewarderPerSec.UserInfo",
        "members": [
          {
            "astId": 21797,
            "contract": "contracts/wombat-governance/gauge/Bribe.sol:Bribe",
            "label": "amount",
            "offset": 0,
            "slot": "0",
            "type": "t_uint128"
          },
          {
            "astId": 21799,
            "contract": "contracts/wombat-governance/gauge/Bribe.sol:Bribe",
            "label": "rewardDebt",
            "offset": 16,
            "slot": "0",
            "type": "t_uint128"
          },
          {
            "astId": 21801,
            "contract": "contracts/wombat-governance/gauge/Bribe.sol:Bribe",
            "label": "unpaidRewards",
            "offset": 0,
            "slot": "1",
            "type": "t_uint256"
          }
        ],
        "numberOfBytes": "64"
      },
      "t_uint128": {
        "encoding": "inplace",
        "label": "uint128",
        "numberOfBytes": "16"
      },
      "t_uint256": {
        "encoding": "inplace",
        "label": "uint256",
        "numberOfBytes": "32"
      },
      "t_uint96": {
        "encoding": "inplace",
        "label": "uint96",
        "numberOfBytes": "12"
      }
    }
  }
}