{
  "address": "0x3c0829fd5B56691feE6806086E89c83FfC071fc5",
  "abi": [
    {
      "inputs": [
        {
          "internalType": "uint256",
          "name": "_maxPriceAgeBound",
          "type": "uint256"
        }
      ],
      "stateMutability": "nonpayable",
      "type": "constructor"
    },
    {
      "anonymous": false,
      "inputs": [
        {
          "indexed": true,
          "internalType": "address",
          "name": "previousOwner",
          "type": "address"
        },
        {
          "indexed": true,
          "internalType": "address",
          "name": "newOwner",
          "type": "address"
        }
      ],
      "name": "OwnershipTransferred",
      "type": "event"
    },
    {
      "anonymous": false,
      "inputs": [
        {
          "indexed": false,
          "internalType": "uint256",
          "name": "maxPriceAgeBound",
          "type": "uint256"
        }
      ],
      "name": "SetMaxPriceAgeBound",
      "type": "event"
    },
    {
      "anonymous": false,
      "inputs": [
        {
          "indexed": false,
          "internalType": "contract IPriceFeed",
          "name": "priceFeed",
          "type": "address"
        }
      ],
      "name": "UpdateFallbackPriceFeed",
      "type": "event"
    },
    {
      "anonymous": false,
      "inputs": [
        {
          "indexed": false,
          "internalType": "contract IERC20",
          "name": "token",
          "type": "address"
        },
        {
          "indexed": false,
          "internalType": "contract AggregatorV3Interface",
          "name": "priceFeed",
          "type": "address"
        },
        {
          "indexed": false,
          "internalType": "uint256",
          "name": "maxPriceAge",
          "type": "uint256"
        }
      ],
      "name": "UpdatePriceFeed",
      "type": "event"
    },
    {
      "inputs": [],
      "name": "fallbackPriceFeed",
      "outputs": [
        {
          "internalType": "contract IPriceFeed",
          "name": "",
          "type": "address"
        }
      ],
      "stateMutability": "view",
      "type": "function"
    },
    {
      "inputs": [
        {
          "internalType": "contract IERC20",
          "name": "_token",
          "type": "address"
        }
      ],
      "name": "getLatestPrice",
      "outputs": [
        {
          "internalType": "uint256",
          "name": "price",
          "type": "uint256"
        }
      ],
      "stateMutability": "view",
      "type": "function"
    },
    {
      "inputs": [
        {
          "internalType": "contract IERC20",
          "name": "",
          "type": "address"
        }
      ],
      "name": "maxPriceAge",
      "outputs": [
        {
          "internalType": "uint256",
          "name": "",
          "type": "uint256"
        }
      ],
      "stateMutability": "view",
      "type": "function"
    },
    {
      "inputs": [],
      "name": "maxPriceAgeBound",
      "outputs": [
        {
          "internalType": "uint256",
          "name": "",
          "type": "uint256"
        }
      ],
      "stateMutability": "view",
      "type": "function"
    },
    {
      "inputs": [],
      "name": "owner",
      "outputs": [
        {
          "internalType": "address",
          "name": "",
          "type": "address"
        }
      ],
      "stateMutability": "view",
      "type": "function"
    },
    {
      "inputs": [],
      "name": "renounceOwnership",
      "outputs": [],
      "stateMutability": "nonpayable",
      "type": "function"
    },
    {
      "inputs": [
        {
          "internalType": "contract IERC20",
          "name": "_token",
          "type": "address"
        },
        {
          "internalType": "contract AggregatorV3Interface",
          "name": "_priceFeed",
          "type": "address"
        },
        {
          "internalType": "uint256",
          "name": "_maxPriceAge",
          "type": "uint256"
        }
      ],
      "name": "setChainlinkUsdPriceFeed",
      "outputs": [],
      "stateMutability": "nonpayable",
      "type": "function"
    },
    {
      "inputs": [
        {
          "internalType": "contract IPriceFeed",
          "name": "_fallbackPriceFeed",
          "type": "address"
        }
      ],
      "name": "setFallbackPriceFeed",
      "outputs": [],
      "stateMutability": "nonpayable",
      "type": "function"
    },
    {
      "inputs": [
        {
          "internalType": "uint256",
          "name": "_maxPriceAgeBound",
          "type": "uint256"
        }
      ],
      "name": "setMaxPriceAgeBound",
      "outputs": [],
      "stateMutability": "nonpayable",
      "type": "function"
    },
    {
      "inputs": [
        {
          "internalType": "address",
          "name": "newOwner",
          "type": "address"
        }
      ],
      "name": "transferOwnership",
      "outputs": [],
      "stateMutability": "nonpayable",
      "type": "function"
    },
    {
      "inputs": [
        {
          "internalType": "contract IERC20",
          "name": "",
          "type": "address"
        }
      ],
      "name": "usdPriceFeeds",
      "outputs": [
        {
          "internalType": "contract AggregatorV3Interface",
          "name": "",
          "type": "address"
        }
      ],
      "stateMutability": "view",
      "type": "function"
    }
  ],
  "transactionHash": "0xb7baa0f952a0193c12d696d67ac433de86ae52718a3e8d111b4c478bb8d28c04",
  "args": [
    86400
  ],
  "numDeployments": 1,
  "solcInputHash": "677157ab1959102ac614f15c41c6b273",
  "bytecode": "0x6080346100c257601f61097a38819003918201601f19168301916001600160401b038311848410176100c7578084926020946040528339810103126100c2575160008054336001600160a01b03198216811783557fdbf066993ca6a3a38bfd6eb48f33d3ecd4f034d6f720786ec998d16a8a213bd29360209390926001600160a01b0316907f8be0079c531659141344cd1fd0a4f28419497f9722a3daafe3b4186f6b6457e09080a380600255604051908152a160405161089c90816100de8239f35b600080fd5b634e487b7160e01b600052604160045260246000fdfe60406080815260048036101561001457600080fd5b600091823560e01c8063051adf121461047657806316345f181461044957806328734f491461042a5780635109d3d1146103b05780635f0e3f11146102b35780636579b73e1461027c578063715018a6146102135780638da5cb5b146101ed578063b8c400f0146101c5578063f0e0626f146101875763f2fde38b1461009957600080fd5b34610183576020366003190112610183578135916001600160a01b039182841680940361017f576100c86104df565b831561011657505082548273ffffffffffffffffffffffffffffffffffffffff198216178455167f8be0079c531659141344cd1fd0a4f28419497f9722a3daafe3b4186f6b6457e08380a380f35b906020608492519162461bcd60e51b8352820152602660248201527f4f776e61626c653a206e6577206f776e657220697320746865207a65726f206160448201527f64647265737300000000000000000000000000000000000000000000000000006064820152fd5b8480fd5b8280fd5b8382346101c15760203660031901126101c157602091816001600160a01b0391826101b06104c4565b168152603585522054169051908152f35b5080fd5b8382346101c157816003193601126101c1576020906001600160a01b03600154169051908152f35b8382346101c157816003193601126101c1576001600160a01b0360209254169051908152f35b833461027957806003193601126102795761022c6104df565b806001600160a01b03815473ffffffffffffffffffffffffffffffffffffffff1981168355167f8be0079c531659141344cd1fd0a4f28419497f9722a3daafe3b4186f6b6457e08280a380f35b80fd5b8382346101c15760203660031901126101c157806020926001600160a01b036102a36104c4565b1681526036845220549051908152f35b509034610183576060366003190112610183576102ce6104c4565b91602435926001600160a01b03908185168095036103ac57604435936102f26104df565b6002548511610369575091606093917f89b115188dd337ce01bac8d633ca5f7264ea8c7b812085d6c5b3cacd5e7d3f639593169283875260356020528187208173ffffffffffffffffffffffffffffffffffffffff198254161790556036602052828288205581519384526020840152820152a180f35b606490602085519162461bcd60e51b8352820152601460248201527f696e76616c6964205f6d617850726963654167650000000000000000000000006044820152fd5b8580fd5b5090346101835760203660031901126101835735906001600160a01b038216809203610183577f6cff7fca5d8d3ff53de63073399d617b38b793a4e9d03d57dfe1ab2c88c477df916020916104036104df565b8173ffffffffffffffffffffffffffffffffffffffff19600154161760015551908152a180f35b8382346101c157816003193601126101c1576020906002549051908152f35b8382346101c15760203660031901126101c15760209061046f61046a6104c4565b610586565b9051908152f35b509034610183576020366003190112610183577fdbf066993ca6a3a38bfd6eb48f33d3ecd4f034d6f720786ec998d16a8a213bd29160209135906104b86104df565b8160025551908152a180f35b600435906001600160a01b03821682036104da57565b600080fd5b6001600160a01b036000541633036104f357565b606460405162461bcd60e51b815260206004820152602060248201527f4f776e61626c653a2063616c6c6572206973206e6f7420746865206f776e65726044820152fd5b90601f8019910116810190811067ffffffffffffffff82111761055957604052565b634e487b7160e01b600052604160045260246000fd5b519069ffffffffffffffffffff821682036104da57565b6001600160a01b0390818116916000838152602091603583526040908183205416928151937ffeaf968c00000000000000000000000000000000000000000000000000000000855260049660a0868981855afa801561077e578596869161072c575b50420390428211610719578552603683528385205410156106155750505050506106129150610788565b90565b9091928481959650131561071557670de0b6b3a7640000948581029581870414901517156107025790808392879451948580927f313ce5670000000000000000000000000000000000000000000000000000000082525afa9182156106f9575083916106c0575b5060ff915016604d81116106ad57600a0a92831561069a5750500490565b906012602492634e487b7160e01b835252fd5b602482601186634e487b7160e01b835252fd5b905081813d83116106f2575b6106d68183610537565b810103126101c1575160ff811681036101c15760ff903861067c565b503d6106cc565b513d85823e3d90fd5b602484601188634e487b7160e01b835252fd5b8380fd5b60248660118b634e487b7160e01b835252fd5b96505060a0863d8211610776575b8161074760a09383610537565b8101031261017f576107588661056f565b508286015161076e60806060890151980161056f565b5095386105e8565b3d915061073a565b84513d87823e3d90fd5b6001546001600160a01b039081169190821561082257602460209260405194859384927f16345f180000000000000000000000000000000000000000000000000000000084521660048301525afa908115610816576000916107e8575090565b906020823d821161080e575b8161080160209383610537565b8101031261027957505190565b3d91506107f4565b6040513d6000823e3d90fd5b606460405162461bcd60e51b815260206004820152601060248201527f507269636520697320746f6f206f6c64000000000000000000000000000000006044820152fdfea264697066735822122099b0c819b366ab7ae09bb36efa1caba5bd00cc8f724806afb1c86679be4e0ec664736f6c63430008120033",
  "devdoc": {
    "kind": "dev",
    "methods": {
      "owner()": {
        "details": "Returns the address of the current owner."
      },
      "renounceOwnership()": {
        "details": "Leaves the contract without owner. It will not be possible to call `onlyOwner` functions. Can only be called by the current owner. NOTE: Renouncing ownership will leave the contract without an owner, thereby disabling any functionality that is only available to the owner."
      },
      "transferOwnership(address)": {
        "details": "Transfers ownership of the contract to a new account (`newOwner`). Can only be called by the current owner."
      }
    },
    "title": "Chainlink Price Feed",
    "version": 1
  },
  "userdoc": {
    "kind": "user",
    "methods": {
      "fallbackPriceFeed()": {
        "notice": "the fallback price feed in case the price is not available on Pyth"
      },
      "getLatestPrice(address)": {
        "notice": "Returns the latest price."
      }
    },
    "notice": "Contract to get the latest prices for multiple tokens from Chainlink",
    "version": 1
  },
  "storageLayout": {
    "storage": [
      {
        "astId": 1476,
        "contract": "contracts/wombat-core/asset/ChainlinkPriceFeed.sol:ChainlinkPriceFeed",
        "label": "_owner",
        "offset": 0,
        "slot": "0",
        "type": "t_address"
      },
      {
        "astId": 9270,
        "contract": "contracts/wombat-core/asset/ChainlinkPriceFeed.sol:ChainlinkPriceFeed",
        "label": "fallbackPriceFeed",
        "offset": 0,
        "slot": "1",
        "type": "t_contract(IPriceFeed)10508"
      },
      {
        "astId": 9272,
        "contract": "contracts/wombat-core/asset/ChainlinkPriceFeed.sol:ChainlinkPriceFeed",
        "label": "maxPriceAgeBound",
        "offset": 0,
        "slot": "2",
        "type": "t_uint256"
      },
      {
        "astId": 9357,
        "contract": "contracts/wombat-core/asset/ChainlinkPriceFeed.sol:ChainlinkPriceFeed",
        "label": "__gap",
        "offset": 0,
        "slot": "3",
        "type": "t_array(t_uint256)50_storage"
      },
      {
        "astId": 9097,
        "contract": "contracts/wombat-core/asset/ChainlinkPriceFeed.sol:ChainlinkPriceFeed",
        "label": "usdPriceFeeds",
        "offset": 0,
        "slot": "53",
        "type": "t_mapping(t_contract(IERC20)4216,t_contract(AggregatorV3Interface)45)"
      },
      {
        "astId": 9102,
        "contract": "contracts/wombat-core/asset/ChainlinkPriceFeed.sol:ChainlinkPriceFeed",
        "label": "maxPriceAge",
        "offset": 0,
        "slot": "54",
        "type": "t_mapping(t_contract(IERC20)4216,t_uint256)"
      }
    ],
    "types": {
      "t_address": {
        "encoding": "inplace",
        "label": "address",
        "numberOfBytes": "20"
      },
      "t_array(t_uint256)50_storage": {
        "base": "t_uint256",
        "encoding": "inplace",
        "label": "uint256[50]",
        "numberOfBytes": "1600"
      },
      "t_contract(AggregatorV3Interface)45": {
        "encoding": "inplace",
        "label": "contract AggregatorV3Interface",
        "numberOfBytes": "20"
      },
      "t_contract(IERC20)4216": {
        "encoding": "inplace",
        "label": "contract IERC20",
        "numberOfBytes": "20"
      },
      "t_contract(IPriceFeed)10508": {
        "encoding": "inplace",
        "label": "contract IPriceFeed",
        "numberOfBytes": "20"
      },
      "t_mapping(t_contract(IERC20)4216,t_contract(AggregatorV3Interface)45)": {
        "encoding": "mapping",
        "key": "t_contract(IERC20)4216",
        "label": "mapping(contract IERC20 => contract AggregatorV3Interface)",
        "numberOfBytes": "32",
        "value": "t_contract(AggregatorV3Interface)45"
      },
      "t_mapping(t_contract(IERC20)4216,t_uint256)": {
        "encoding": "mapping",
        "key": "t_contract(IERC20)4216",
        "label": "mapping(contract IERC20 => uint256)",
        "numberOfBytes": "32",
        "value": "t_uint256"
      },
      "t_uint256": {
        "encoding": "inplace",
        "label": "uint256",
        "numberOfBytes": "32"
      }
    }
  }
}