{
  "address": "0xcB06389b8deB0c63C07406d1C12a7c1175F181B2",
  "abi": [
    {
      "anonymous": false,
      "inputs": [
        {
          "indexed": false,
          "internalType": "uint8",
          "name": "version",
          "type": "uint8"
        }
      ],
      "name": "Initialized",
      "type": "event"
    },
    {
      "anonymous": false,
      "inputs": [
        {
          "indexed": true,
          "internalType": "address",
          "name": "previousOwner",
          "type": "address"
        },
        {
          "indexed": true,
          "internalType": "address",
          "name": "newOwner",
          "type": "address"
        }
      ],
      "name": "OwnershipTransferred",
      "type": "event"
    },
    {
      "anonymous": false,
      "inputs": [
        {
          "indexed": false,
          "internalType": "contract IPriceFeed",
          "name": "priceFeed",
          "type": "address"
        }
      ],
      "name": "UpdateFallbackPriceFeed",
      "type": "event"
    },
    {
      "anonymous": false,
      "inputs": [
        {
          "indexed": false,
          "internalType": "contract IERC20",
          "name": "token",
          "type": "address"
        },
        {
          "indexed": false,
          "internalType": "contract AggregatorV3Interface",
          "name": "priceFeed",
          "type": "address"
        }
      ],
      "name": "UpdatePriceFeed",
      "type": "event"
    },
    {
      "inputs": [
        {
          "internalType": "contract IERC20",
          "name": "_token",
          "type": "address"
        }
      ],
      "name": "getLatestPrice",
      "outputs": [
        {
          "internalType": "uint256",
          "name": "price",
          "type": "uint256"
        }
      ],
      "stateMutability": "view",
      "type": "function"
    },
    {
      "inputs": [],
      "name": "initialize",
      "outputs": [],
      "stateMutability": "nonpayable",
      "type": "function"
    },
    {
      "inputs": [],
      "name": "owner",
      "outputs": [
        {
          "internalType": "address",
          "name": "",
          "type": "address"
        }
      ],
      "stateMutability": "view",
      "type": "function"
    },
    {
      "inputs": [],
      "name": "renounceOwnership",
      "outputs": [],
      "stateMutability": "nonpayable",
      "type": "function"
    },
    {
      "inputs": [
        {
          "internalType": "contract IERC20",
          "name": "_token",
          "type": "address"
        },
        {
          "internalType": "contract AggregatorV3Interface",
          "name": "_priceFeed",
          "type": "address"
        }
      ],
      "name": "setChainlinkUsdPriceFeed",
      "outputs": [],
      "stateMutability": "nonpayable",
      "type": "function"
    },
    {
      "inputs": [
        {
          "internalType": "contract IPriceFeed",
          "name": "_fallbackPriceFeed",
          "type": "address"
        }
      ],
      "name": "setFallbackPriceFeed",
      "outputs": [],
      "stateMutability": "nonpayable",
      "type": "function"
    },
    {
      "inputs": [
        {
          "internalType": "uint96",
          "name": "_maxPriceAge",
          "type": "uint96"
        }
      ],
      "name": "setMaxPriceAge",
      "outputs": [],
      "stateMutability": "nonpayable",
      "type": "function"
    },
    {
      "inputs": [
        {
          "internalType": "address",
          "name": "newOwner",
          "type": "address"
        }
      ],
      "name": "transferOwnership",
      "outputs": [],
      "stateMutability": "nonpayable",
      "type": "function"
    },
    {
      "inputs": [
        {
          "internalType": "contract IERC20",
          "name": "",
          "type": "address"
        }
      ],
      "name": "usdPriceFeeds",
      "outputs": [
        {
          "internalType": "contract AggregatorV3Interface",
          "name": "",
          "type": "address"
        }
      ],
      "stateMutability": "view",
      "type": "function"
    }
  ],
  "transactionHash": "0x90524eca1250abc37ef506ac35a24150770aa458a605126ee6db5cc79e471235",
  "args": [],
  "numDeployments": 1,
  "solcInputHash": "7f01062a9daa6d31d7be479e2aed011c",
  "bytecode": "0x6080806040523461001657610924908161001c8239f35b600080fdfe6040608081526004908136101561001557600080fd5b600091823560e01c8063113039631461042457806316345f18146103f75780635109d3d11461038b57806358b0c4ba14610338578063715018a6146102da5780638129fc1c1461019a5780638da5cb5b14610172578063f0e0626f146101345763f2fde38b1461008457600080fd5b34610130576020366003190112610130578035916001600160a01b03831680840361012c576100b16104c4565b156100c357836100c08461051c565b80f35b906020608492519162461bcd60e51b8352820152602660248201527f4f776e61626c653a206e6577206f776e657220697320746865207a65726f206160448201527f64647265737300000000000000000000000000000000000000000000000000006064820152fd5b8480fd5b8280fd5b50503461016e57602036600319011261016e57602091816001600160a01b03918261015d6104a9565b168152609885522054169051908152f35b5080fd5b50503461016e578160031936011261016e576020906001600160a01b03603354169051908152f35b5034610130578260031936011261013057825460ff8160081c1615918280936102cd575b80156102b6575b1561024d575060ff19811660011784558161023c575b506101f560ff845460081c166101f081610564565b610564565b6101fe3361051c565b610206575080f35b60207f7f26b83ff96e1f2b6a682f133852f6798a09c465da95921460cefb38474024989161ff001984541684555160018152a180f35b61ffff1916610101178355386101db565b608490602085519162461bcd60e51b8352820152602e60248201527f496e697469616c697a61626c653a20636f6e747261637420697320616c72656160448201527f647920696e697469616c697a65640000000000000000000000000000000000006064820152fd5b50303b1580156101c55750600160ff8316146101c5565b50600160ff8316106101be565b83346103355780600319360112610335576102f36104c4565b806001600160a01b036033546001600160a01b03198116603355167f8be0079c531659141344cd1fd0a4f28419497f9722a3daafe3b4186f6b6457e08280a380f35b80fd5b83823461016e57602036600319011261016e57356bffffffffffffffffffffffff8116810361016e576103696104c4565b6001600160a01b036001600160a01b03196065549260a01b1691161760655580f35b50346101305760203660031901126101305735906001600160a01b038216809203610130577f6cff7fca5d8d3ff53de63073399d617b38b793a4e9d03d57dfe1ab2c88c477df916020916103dd6104c4565b816001600160a01b0319606554161760655551908152a180f35b50503461016e57602036600319011261016e5760209061041d6104186104a9565b610624565b9051908152f35b50503461016e578060031936011261016e5761043e6104a9565b906024356001600160a01b0380821680920361012c577f0c19c511fd3cdf7b4524c00cd2176627ee9fdd2644d68683e6cc04b79280f3169361047e6104c4565b16908185526098602052828520816001600160a01b031982541617905582519182526020820152a180f35b600435906001600160a01b03821682036104bf57565b600080fd5b6001600160a01b036033541633036104d857565b606460405162461bcd60e51b815260206004820152602060248201527f4f776e61626c653a2063616c6c6572206973206e6f7420746865206f776e65726044820152fd5b603354906001600160a01b0380911691826001600160a01b0319821617603355167f8be0079c531659141344cd1fd0a4f28419497f9722a3daafe3b4186f6b6457e0600080a3565b1561056b57565b608460405162461bcd60e51b815260206004820152602b60248201527f496e697469616c697a61626c653a20636f6e7472616374206973206e6f74206960448201527f6e697469616c697a696e670000000000000000000000000000000000000000006064820152fd5b90601f8019910116810190811067ffffffffffffffff8211176105f757604052565b634e487b7160e01b600052604160045260246000fd5b519069ffffffffffffffffffff821682036104bf57565b6001600160a01b039060009180821683526020906098825260408420541692604051917ffeaf968c00000000000000000000000000000000000000000000000000000000835260049460a0848781845afa801561078d57839484916107be575b5042034281116107ab5760655460a01c10156106ab57505050506106a89150610810565b90565b90918381949550131561013057670de0b6b3a7640000938481029481860414901517156107985790808592604051938480927f313ce5670000000000000000000000000000000000000000000000000000000082525afa90811561078d578391610754575b5060ff915016604d811161074157600a0a92831561072e5750500490565b906012602492634e487b7160e01b835252fd5b602482601186634e487b7160e01b835252fd5b905081813d8311610786575b61076a81836105d5565b8101031261016e575160ff8116810361016e5760ff9038610710565b503d610760565b6040513d85823e3d90fd5b602483601187634e487b7160e01b835252fd5b602484601189634e487b7160e01b835252fd5b94505060a0843d8211610808575b816107d960a093836105d5565b81010312610130576107ea8461060d565b508184015161080060806060870151960161060d565b509338610684565b3d91506107cc565b6065546001600160a01b03908116919082156108aa57602460209260405194859384927f16345f180000000000000000000000000000000000000000000000000000000084521660048301525afa90811561089e57600091610870575090565b906020823d8211610896575b81610889602093836105d5565b8101031261033557505190565b3d915061087c565b6040513d6000823e3d90fd5b606460405162461bcd60e51b815260206004820152601060248201527f507269636520697320746f6f206f6c64000000000000000000000000000000006044820152fdfea264697066735822122058e61d2e038572d31e60cf9fb27aabf75f228d36cefa7c54a1e64d64d541ab1464736f6c63430008120033",
  "devdoc": {
    "events": {
      "Initialized(uint8)": {
        "details": "Triggered when the contract has been initialized or reinitialized."
      }
    },
    "kind": "dev",
    "methods": {
      "owner()": {
        "details": "Returns the address of the current owner."
      },
      "renounceOwnership()": {
        "details": "Leaves the contract without owner. It will not be possible to call `onlyOwner` functions anymore. Can only be called by the current owner. NOTE: Renouncing ownership will leave the contract without an owner, thereby removing any functionality that is only available to the owner."
      },
      "transferOwnership(address)": {
        "details": "Transfers ownership of the contract to a new account (`newOwner`). Can only be called by the current owner."
      }
    },
    "title": "Chainlink Price Feed",
    "version": 1
  },
  "userdoc": {
    "kind": "user",
    "methods": {
      "getLatestPrice(address)": {
        "notice": "Returns the latest price."
      }
    },
    "notice": "Contract to get the latest prices for multiple tokens from Chainlink",
    "version": 1
  },
  "storageLayout": {
    "storage": [
      {
        "astId": 184,
        "contract": "contracts/wombat-core/asset/ChainlinkPriceFeed.sol:ChainlinkPriceFeed",
        "label": "_initialized",
        "offset": 0,
        "slot": "0",
        "type": "t_uint8"
      },
      {
        "astId": 187,
        "contract": "contracts/wombat-core/asset/ChainlinkPriceFeed.sol:ChainlinkPriceFeed",
        "label": "_initializing",
        "offset": 1,
        "slot": "0",
        "type": "t_bool"
      },
      {
        "astId": 871,
        "contract": "contracts/wombat-core/asset/ChainlinkPriceFeed.sol:ChainlinkPriceFeed",
        "label": "__gap",
        "offset": 0,
        "slot": "1",
        "type": "t_array(t_uint256)50_storage"
      },
      {
        "astId": 56,
        "contract": "contracts/wombat-core/asset/ChainlinkPriceFeed.sol:ChainlinkPriceFeed",
        "label": "_owner",
        "offset": 0,
        "slot": "51",
        "type": "t_address"
      },
      {
        "astId": 176,
        "contract": "contracts/wombat-core/asset/ChainlinkPriceFeed.sol:ChainlinkPriceFeed",
        "label": "__gap",
        "offset": 0,
        "slot": "52",
        "type": "t_array(t_uint256)49_storage"
      },
      {
        "astId": 6768,
        "contract": "contracts/wombat-core/asset/ChainlinkPriceFeed.sol:ChainlinkPriceFeed",
        "label": "fallbackPriceFeed",
        "offset": 0,
        "slot": "101",
        "type": "t_contract(IPriceFeed)7878"
      },
      {
        "astId": 6770,
        "contract": "contracts/wombat-core/asset/ChainlinkPriceFeed.sol:ChainlinkPriceFeed",
        "label": "maxPriceAge",
        "offset": 20,
        "slot": "101",
        "type": "t_uint96"
      },
      {
        "astId": 6774,
        "contract": "contracts/wombat-core/asset/ChainlinkPriceFeed.sol:ChainlinkPriceFeed",
        "label": "_gap",
        "offset": 0,
        "slot": "102",
        "type": "t_array(t_uint256)50_storage"
      },
      {
        "astId": 6619,
        "contract": "contracts/wombat-core/asset/ChainlinkPriceFeed.sol:ChainlinkPriceFeed",
        "label": "usdPriceFeeds",
        "offset": 0,
        "slot": "152",
        "type": "t_mapping(t_contract(IERC20)2243,t_contract(AggregatorV3Interface)45)"
      }
    ],
    "types": {
      "t_address": {
        "encoding": "inplace",
        "label": "address",
        "numberOfBytes": "20"
      },
      "t_array(t_uint256)49_storage": {
        "base": "t_uint256",
        "encoding": "inplace",
        "label": "uint256[49]",
        "numberOfBytes": "1568"
      },
      "t_array(t_uint256)50_storage": {
        "base": "t_uint256",
        "encoding": "inplace",
        "label": "uint256[50]",
        "numberOfBytes": "1600"
      },
      "t_bool": {
        "encoding": "inplace",
        "label": "bool",
        "numberOfBytes": "1"
      },
      "t_contract(AggregatorV3Interface)45": {
        "encoding": "inplace",
        "label": "contract AggregatorV3Interface",
        "numberOfBytes": "20"
      },
      "t_contract(IERC20)2243": {
        "encoding": "inplace",
        "label": "contract IERC20",
        "numberOfBytes": "20"
      },
      "t_contract(IPriceFeed)7878": {
        "encoding": "inplace",
        "label": "contract IPriceFeed",
        "numberOfBytes": "20"
      },
      "t_mapping(t_contract(IERC20)2243,t_contract(AggregatorV3Interface)45)": {
        "encoding": "mapping",
        "key": "t_contract(IERC20)2243",
        "label": "mapping(contract IERC20 => contract AggregatorV3Interface)",
        "numberOfBytes": "32",
        "value": "t_contract(AggregatorV3Interface)45"
      },
      "t_uint256": {
        "encoding": "inplace",
        "label": "uint256",
        "numberOfBytes": "32"
      },
      "t_uint8": {
        "encoding": "inplace",
        "label": "uint8",
        "numberOfBytes": "1"
      },
      "t_uint96": {
        "encoding": "inplace",
        "label": "uint96",
        "numberOfBytes": "12"
      }
    }
  }
}