{
  "address": "0x3dd65188B818712c52732CBBd230e68FbF55A336",
  "abi": [
    {
      "inputs": [],
      "name": "CORE_CASH_NOT_ENOUGH",
      "type": "error"
    },
    {
      "inputs": [],
      "name": "CORE_COV_RATIO_LIMIT_EXCEEDED",
      "type": "error"
    },
    {
      "inputs": [],
      "name": "CORE_INVALID_HIGH_COV_RATIO_FEE",
      "type": "error"
    },
    {
      "inputs": [],
      "name": "CORE_INVALID_VALUE",
      "type": "error"
    },
    {
      "inputs": [],
      "name": "CORE_UNDERFLOW",
      "type": "error"
    },
    {
      "inputs": [],
      "name": "CORE_ZERO_LIQUIDITY",
      "type": "error"
    },
    {
      "inputs": [
        {
          "internalType": "int256",
          "name": "D",
          "type": "int256"
        },
        {
          "internalType": "int256",
          "name": "SL",
          "type": "int256"
        },
        {
          "internalType": "int256",
          "name": "A",
          "type": "int256"
        }
      ],
      "name": "equilCovRatio",
      "outputs": [
        {
          "internalType": "int256",
          "name": "er",
          "type": "int256"
        }
      ],
      "stateMutability": "pure",
      "type": "function"
    },
    {
      "inputs": [
        {
          "internalType": "int256",
          "name": "D_i",
          "type": "int256"
        },
        {
          "internalType": "int256",
          "name": "A_i",
          "type": "int256"
        },
        {
          "internalType": "int256",
          "name": "L_i",
          "type": "int256"
        },
        {
          "internalType": "int256",
          "name": "A",
          "type": "int256"
        },
        {
          "internalType": "int256",
          "name": "_equilCovRatio",
          "type": "int256"
        }
      ],
      "name": "exactDepositLiquidityImpl",
      "outputs": [
        {
          "internalType": "int256",
          "name": "liquidity",
          "type": "int256"
        }
      ],
      "stateMutability": "pure",
      "type": "function"
    },
    {
      "inputs": [
        {
          "internalType": "int256",
          "name": "D_i",
          "type": "int256"
        },
        {
          "internalType": "int256",
          "name": "A_i",
          "type": "int256"
        },
        {
          "internalType": "int256",
          "name": "L_i",
          "type": "int256"
        },
        {
          "internalType": "int256",
          "name": "A",
          "type": "int256"
        }
      ],
      "name": "exactDepositLiquidityInEquilImpl",
      "outputs": [
        {
          "internalType": "int256",
          "name": "liquidity",
          "type": "int256"
        }
      ],
      "stateMutability": "pure",
      "type": "function"
    },
    {
      "inputs": [
        {
          "internalType": "uint256",
          "name": "fromAssetCash",
          "type": "uint256"
        },
        {
          "internalType": "uint256",
          "name": "fromAssetLiability",
          "type": "uint256"
        },
        {
          "internalType": "uint256",
          "name": "fromAmount",
          "type": "uint256"
        },
        {
          "internalType": "uint256",
          "name": "quotedToAmount",
          "type": "uint256"
        },
        {
          "internalType": "uint256",
          "name": "startCovRatio",
          "type": "uint256"
        },
        {
          "internalType": "uint256",
          "name": "endCovRatio",
          "type": "uint256"
        }
      ],
      "name": "highCovRatioFee",
      "outputs": [
        {
          "internalType": "uint256",
          "name": "fee",
          "type": "uint256"
        }
      ],
      "stateMutability": "pure",
      "type": "function"
    },
    {
      "inputs": [
        {
          "internalType": "contract IAsset",
          "name": "asset",
          "type": "IAsset"
        },
        {
          "internalType": "uint256",
          "name": "amount",
          "type": "uint256"
        },
        {
          "internalType": "uint256",
          "name": "ampFactor",
          "type": "uint256"
        },
        {
          "internalType": "int256",
          "name": "_equilCovRatio",
          "type": "int256"
        }
      ],
      "name": "quoteDepositLiquidity",
      "outputs": [
        {
          "internalType": "uint256",
          "name": "lpTokenToMint",
          "type": "uint256"
        },
        {
          "internalType": "uint256",
          "name": "liabilityToMint",
          "type": "uint256"
        }
      ],
      "stateMutability": "view",
      "type": "function"
    },
    {
      "inputs": [
        {
          "internalType": "contract IAsset",
          "name": "fromAsset",
          "type": "IAsset"
        },
        {
          "internalType": "contract IAsset",
          "name": "toAsset",
          "type": "IAsset"
        },
        {
          "internalType": "int256",
          "name": "fromAmount",
          "type": "int256"
        },
        {
          "internalType": "uint256",
          "name": "ampFactor",
          "type": "uint256"
        },
        {
          "internalType": "uint256",
          "name": "scaleFactor",
          "type": "uint256"
        },
        {
          "internalType": "uint256",
          "name": "haircutRate",
          "type": "uint256"
        }
      ],
      "name": "quoteSwap",
      "outputs": [
        {
          "internalType": "uint256",
          "name": "actualToAmount",
          "type": "uint256"
        },
        {
          "internalType": "uint256",
          "name": "haircut",
          "type": "uint256"
        }
      ],
      "stateMutability": "view",
      "type": "function"
    },
    {
      "inputs": [
        {
          "internalType": "uint256",
          "name": "fromAmount",
          "type": "uint256"
        },
        {
          "internalType": "contract IAsset",
          "name": "toAsset",
          "type": "IAsset"
        },
        {
          "internalType": "uint256",
          "name": "ampFactor",
          "type": "uint256"
        },
        {
          "internalType": "uint256",
          "name": "scaleFactor",
          "type": "uint256"
        },
        {
          "internalType": "uint256",
          "name": "haircutRate",
          "type": "uint256"
        }
      ],
      "name": "quoteSwapCreditForTokens",
      "outputs": [
        {
          "internalType": "uint256",
          "name": "actualToAmount",
          "type": "uint256"
        },
        {
          "internalType": "uint256",
          "name": "haircut",
          "type": "uint256"
        }
      ],
      "stateMutability": "view",
      "type": "function"
    },
    {
      "inputs": [
        {
          "internalType": "contract IAsset",
          "name": "fromAsset",
          "type": "IAsset"
        },
        {
          "internalType": "uint256",
          "name": "fromAmount",
          "type": "uint256"
        },
        {
          "internalType": "uint256",
          "name": "ampFactor",
          "type": "uint256"
        },
        {
          "internalType": "uint256",
          "name": "scaleFactor",
          "type": "uint256"
        },
        {
          "internalType": "uint256",
          "name": "haircutRate",
          "type": "uint256"
        },
        {
          "internalType": "uint256",
          "name": "startCovRatio",
          "type": "uint256"
        },
        {
          "internalType": "uint256",
          "name": "endCovRatio",
          "type": "uint256"
        }
      ],
      "name": "quoteSwapTokensForCredit",
      "outputs": [
        {
          "internalType": "uint256",
          "name": "creditAmount",
          "type": "uint256"
        },
        {
          "internalType": "uint256",
          "name": "feeInFromToken",
          "type": "uint256"
        }
      ],
      "stateMutability": "view",
      "type": "function"
    },
    {
      "inputs": [
        {
          "internalType": "contract IAsset",
          "name": "asset",
          "type": "IAsset"
        },
        {
          "internalType": "uint256",
          "name": "liquidity",
          "type": "uint256"
        },
        {
          "internalType": "uint256",
          "name": "ampFactor",
          "type": "uint256"
        },
        {
          "internalType": "int256",
          "name": "_equilCovRatio",
          "type": "int256"
        },
        {
          "internalType": "uint256",
          "name": "withdrawalHaircutRate",
          "type": "uint256"
        }
      ],
      "name": "quoteWithdrawAmount",
      "outputs": [
        {
          "internalType": "uint256",
          "name": "amount",
          "type": "uint256"
        },
        {
          "internalType": "uint256",
          "name": "liabilityToBurn",
          "type": "uint256"
        },
        {
          "internalType": "uint256",
          "name": "withdrawalHaircut",
          "type": "uint256"
        }
      ],
      "stateMutability": "view",
      "type": "function"
    },
    {
      "inputs": [
        {
          "internalType": "contract IAsset",
          "name": "fromAsset",
          "type": "IAsset"
        },
        {
          "internalType": "contract IAsset",
          "name": "toAsset",
          "type": "IAsset"
        },
        {
          "internalType": "uint256",
          "name": "liquidity",
          "type": "uint256"
        },
        {
          "internalType": "uint256",
          "name": "ampFactor",
          "type": "uint256"
        },
        {
          "internalType": "uint256",
          "name": "scaleFactor",
          "type": "uint256"
        },
        {
          "internalType": "uint256",
          "name": "haircutRate",
          "type": "uint256"
        },
        {
          "internalType": "uint256",
          "name": "startCovRatio",
          "type": "uint256"
        },
        {
          "internalType": "uint256",
          "name": "endCovRatio",
          "type": "uint256"
        },
        {
          "internalType": "int256",
          "name": "_equilCovRatio",
          "type": "int256"
        },
        {
          "internalType": "uint256",
          "name": "withdrawalHaircutRate",
          "type": "uint256"
        }
      ],
      "name": "quoteWithdrawAmountFromOtherAsset",
      "outputs": [
        {
          "internalType": "uint256",
          "name": "finalAmount",
          "type": "uint256"
        },
        {
          "internalType": "uint256",
          "name": "withdrewAmount",
          "type": "uint256"
        }
      ],
      "stateMutability": "view",
      "type": "function"
    },
    {
      "inputs": [
        {
          "internalType": "int256",
          "name": "Ax",
          "type": "int256"
        },
        {
          "internalType": "int256",
          "name": "Lx",
          "type": "int256"
        },
        {
          "internalType": "int256",
          "name": "delta_credit",
          "type": "int256"
        },
        {
          "internalType": "int256",
          "name": "A",
          "type": "int256"
        }
      ],
      "name": "swapFromCreditQuote",
      "outputs": [
        {
          "internalType": "uint256",
          "name": "quote",
          "type": "uint256"
        }
      ],
      "stateMutability": "pure",
      "type": "function"
    },
    {
      "inputs": [
        {
          "internalType": "int256",
          "name": "Ax",
          "type": "int256"
        },
        {
          "internalType": "int256",
          "name": "Ay",
          "type": "int256"
        },
        {
          "internalType": "int256",
          "name": "Lx",
          "type": "int256"
        },
        {
          "internalType": "int256",
          "name": "Ly",
          "type": "int256"
        },
        {
          "internalType": "int256",
          "name": "Dx",
          "type": "int256"
        },
        {
          "internalType": "int256",
          "name": "A",
          "type": "int256"
        }
      ],
      "name": "swapQuoteFunc",
      "outputs": [
        {
          "internalType": "uint256",
          "name": "quote",
          "type": "uint256"
        }
      ],
      "stateMutability": "pure",
      "type": "function"
    },
    {
      "inputs": [
        {
          "internalType": "int256",
          "name": "Ax",
          "type": "int256"
        },
        {
          "internalType": "int256",
          "name": "Lx",
          "type": "int256"
        },
        {
          "internalType": "int256",
          "name": "Dx",
          "type": "int256"
        },
        {
          "internalType": "int256",
          "name": "A",
          "type": "int256"
        }
      ],
      "name": "swapToCreditQuote",
      "outputs": [
        {
          "internalType": "uint256",
          "name": "quote",
          "type": "uint256"
        }
      ],
      "stateMutability": "pure",
      "type": "function"
    },
    {
      "inputs": [
        {
          "internalType": "int256",
          "name": "delta_i",
          "type": "int256"
        },
        {
          "internalType": "int256",
          "name": "A_i",
          "type": "int256"
        },
        {
          "internalType": "int256",
          "name": "L_i",
          "type": "int256"
        },
        {
          "internalType": "int256",
          "name": "A",
          "type": "int256"
        },
        {
          "internalType": "int256",
          "name": "_equilCovRatio",
          "type": "int256"
        }
      ],
      "name": "withdrawalAmountImpl",
      "outputs": [
        {
          "internalType": "int256",
          "name": "amount",
          "type": "int256"
        }
      ],
      "stateMutability": "pure",
      "type": "function"
    },
    {
      "inputs": [
        {
          "internalType": "int256",
          "name": "delta_i",
          "type": "int256"
        },
        {
          "internalType": "int256",
          "name": "A_i",
          "type": "int256"
        },
        {
          "internalType": "int256",
          "name": "L_i",
          "type": "int256"
        },
        {
          "internalType": "int256",
          "name": "A",
          "type": "int256"
        }
      ],
      "name": "withdrawalAmountInEquilImpl",
      "outputs": [
        {
          "internalType": "int256",
          "name": "amount",
          "type": "int256"
        }
      ],
      "stateMutability": "pure",
      "type": "function"
    }
  ],
  "transactionHash": "0x6fdf1a32655d3ff4facd9b5f2456b8684cfadee16b03770b14cf2bb29081afc9",
  "args": [],
  "numDeployments": 2,
  "solcInputHash": "3f9c2456f68b38bf6a5942c97bd9a8d2",
  "bytecode": "0x6080806040523461001a57611c2f9081610020823930815050f35b600080fdfe6040608081526004908136101561001557600080fd5b6000803560e01c80631df0f4f214610ab05780631f86566214610a985780632841c1ad14610a805780632f6599bb14610a525780634c5b402d14610a3a5780635dbcd62c1461078357806362d2ab101461076b57806367146f2914610731578063691b5fb61461071957806391810795146106d2578063d7454c531461068f578063df49129814610677578063e02a44c614610381578063efd7af77146100fc5763f50fc03e146100c557600080fd5b60c03660031901126100f957506100f260209260a4359060843590606435906044359060243590356112ef565b9051908152f35b80fd5b5082906101403660031901126100f957610114610ae6565b61011c610b01565b926064359161013661012435610104358560443585610c7e565b9491929093839689519163961be39160e01b938484526001600160a01b03809116906020998a868581865afa958615610377578596610354575b5061018e906101898a6001600160781b03809916610c71565b610c71565b988d518b81868163705727b560e01b978882525afa908115610349576101c1929188918e899261032c575b505016610c71565b9b670de0b6b3a764000098608435670de0b6b3a763ffff198101610302575b505016918c5195865289868281865afa9586156102f857908a929185976102d9575b508d518094819382525afa9182156102ce57836102509796948b9461023497948e94916102a1575b50169216886112ef565b9061024961024460a43584610bae565b610f38565b0490610c71565b9360c435908115801590610296575b610271575b5050508351928352820152f35b9161028791868661028d96989560e43594611a2d565b90610c71565b91848080610264565b5060e435151561025f565b6102c191508c8d3d106102c7575b6102b98183610b57565b810190610b8f565b8f61022a565b503d6102af565b8b51903d90823e3d90fd5b6102f1919750833d85116102c7576102b98183610b57565b958e610202565b8d513d86823e3d90fd5b8a610323929f9c81949f50828261031c8261031c94610bae565b049e610bae565b049a8e806101e0565b6103429250803d106102c7576102b98183610b57565b388e6101b9565b508e513d87823e3d90fd5b61018e919650610370908c8d3d106102c7576102b98183610b57565b9590610170565b8e513d87823e3d90fd5b50829060c03660031901126100f957610398610ae6565b916103a1610b01565b91604435906084359282828112610644575b5086519463961be39160e01b8087526001600160a01b038098169360209889898681895afa98891561063a57829961061b575b506001600160781b038099168b519163705727b560e01b928381528c8189818c5afa90811561037757908c918e87926105fe575b5050169516918c51908582528c828981875afa91821561037757908e8e9287946105df575b50670de0b6b3a76400008d819e82036105ad575b50508990518096819382525afa9283156102f857918b8a9261048995948f889661058e575b50501696878d6064359516926112ef565b978187139586948a9086610584575b50508415610507575b505050506104f95750156104d757506104cb906104c361024460a43585610bae565b048092610c71565b915b8351928352820152f35b92916102446104f291946104ed60a43591610c60565b610bae565b04906104cd565b8651631c4bd71760e01b8152fd5b9091929350898388129485610525575b5050505050888080806104a1565b909192939450858c518094819382525afa928315610579579261055a575b5061054d85610c60565b9116108880808981610517565b610572919250883d8a116102c7576102b98183610b57565b9089610543565b8a51903d90823e3d90fd5b109450898d610498565b6105a5929650803d106102c7576102b98183610b57565b93388f610478565b80828d949f9c9882826105c66105d4966105cd94610bae565b049a610bae565b049b610fd5565b059b90508c38610453565b6105f7919450833d85116102c7576102b98183610b57565b923861043f565b6106149250803d106102c7576102b98183610b57565b8f8e61041a565b6106339199508a3d8c116102c7576102b98183610b57565b978b6103e6565b8b513d84823e3d90fd5b61067091935061066b61066161065b60a435610f5a565b92610f96565b600283059061104f565b610ff8565b91876103b3565b6020836100f261068636610b17565b92919091611571565b5060603660031901126100f957506100f26020926106cd6106c86106b66024359335610f96565b9261066b60443594600283059061104f565b610c60565b611af2565b509060a0366003190112610715576060906107036106ee610ae6565b60843590606435906044359060243590610c7e565b91929081519384526020840152820152f35b5080fd5b6020836100f261072836610b35565b93929092611473565b50829060a03660031901126100f9575061075f9061074d610b01565b608435916064359160443591356111c2565b82519182526020820152f35b6020836100f261077a36610b35565b9392909261170e565b50829060803660031901126100f95761079a610ae6565b90604435602435606435670de0b6b3a7640000810361096c5750855163961be39160e01b81529060206001600160a01b03861681848981845afa93841561094157908891879561094b575b5082908a519283809263705727b560e01b82525afa91821561094157926001600160a01b0395926108369592610831958992610924575b50506001600160781b038091169216906118b2565b610bf7565b925b169084519363705727b560e01b855260209485818381875afa90811561091a5786916001600160781b039185916108fd575b5016938461088357505050505080918351928352820152f35b8751928380926318160ddd60e01b82525afa9182156108f25780926108be575b5050906108b36108b89284610bae565b610bd7565b916104cd565b9091508482813d83116108eb575b6108d68183610b57565b810103126100f95750516108b36108b86108a3565b503d6108cc565b8651903d90823e3d90fd5b6109149150833d85116102c7576102b98183610b57565b8961086a565b87513d85823e3d90fd5b61093a9250803d106102c7576102b98183610b57565b8b8061081c565b89513d88823e3d90fd5b8391955061096590823d84116102c7576102b98183610b57565b94906107e5565b865163961be39160e01b815290929160206001600160a01b03871681848a81845afa938415610a0f579089918895610a19575b5082908b519283809263705727b560e01b82525afa918215610a0f57926109ec959261083195926001600160a01b0398958a926109f2575b50506001600160781b0380911692169061170e565b92610838565b610a089250803d106102c7576102b98183610b57565b8c806109d7565b8a513d89823e3d90fd5b83919550610a3390823d84116102c7576102b98183610b57565b949061099f565b6020836100f2610a4936610b17565b929190916118b2565b5060c03660031901126100f957506100f260209260a435906084359060643590604435906024359035611a2d565b6020836100f2610a8f36610b17565b929190916119c0565b6020836100f2610aa736610b17565b92919091611935565b5060e03660031901126100f9575061075f610ac9610ae6565b60c4359060a435906084359060643590604435906024359061106b565b600435906001600160a01b0382168203610afc57565b600080fd5b602435906001600160a01b0382168203610afc57565b6080906003190112610afc5760043590602435906044359060643590565b60a0906003190112610afc576004359060243590604435906064359060843590565b90601f8019910116810190811067ffffffffffffffff821117610b7957604052565b634e487b7160e01b600052604160045260246000fd5b90816020910312610afc57516001600160781b0381168103610afc5790565b81810292918115918404141715610bc157565b634e487b7160e01b600052601160045260246000fd5b8115610be1570490565b634e487b7160e01b600052601260045260246000fd5b60008112610c025790565b60646040517f08c379a000000000000000000000000000000000000000000000000000000000815260206004820152601660248201527f76616c7565206d75737420626520706f736974697665000000000000000000006044820152fd5b600160ff1b8114610bc15760000390565b91908203918211610bc157565b9394919290926000936001600160a01b0360009616604080519063705727b560e01b92838352602060049581858881865afa948515610f2e578c95610f0b575b50610cd3906001600160781b03809616610bae565b83516318160ddd60e01b815282818981875afa908115610f01578d91610ece575b50610cfe91610bd7565b9a8b15610ea657670de0b6b3a764000098808a03610df55750610d208c610c60565b9584519763961be39160e01b895283898281885afa988915610deb578399610dc8575b5090839186518096819382525afa938415610dbe5750928492610831979592610d7999979592610da1575b505016921690611571565b905b819580610d8757505050565b610d9e939650829450610244906104c39293610bae565b92565b610db79250803d106102c7576102b98183610b57565b3880610d6e565b51903d90823e3d90fd5b8492919950610de390833d85116102c7576102b98183610b57565b989091610d43565b86513d85823e3d90fd5b9796959493929190610e068d610c60565b9584519763961be39160e01b895283898281885afa988915610deb578399610e83575b5090839186518096819382525afa938415610dbe5750928492610e609997959261083199979592610e66575b505016921690611473565b90610d7b565b610e7c9250803d106102c7576102b98183610b57565b3880610e55565b8492919950610e9e90833d85116102c7576102b98183610b57565b989091610e29565b8684517fd4b6d81b000000000000000000000000000000000000000000000000000000008152fd5b90508281813d8311610efa575b610ee58183610b57565b81010312610ef65751610cfe610cf4565b8c80fd5b503d610edb565b85513d8f823e3d90fd5b610cd3919550610f2790833d85116102c7576102b98183610b57565b9490610cbe565b84513d8e823e3d90fd5b906706f05b59d3b200008201809211610bc157565b91908201809211610bc157565b90670de0b6b3a764000060008382039312818412811691841390151617610bc157565b81810392916000138015828513169184121617610bc157565b90670de0b6b3a764000091828102928184051490151715610bc157565b908160011b916002830503610bc157565b908160021b916004830503610bc157565b818102929160008212600160ff1b821416610bc1578184051490151715610bc157565b8115610be157600160ff1b8114600019831416610bc1570590565b9081670de0b6b3a764000001918212600116610bc157565b906706f05b59d3b200009160008382019384129112908015821691151617610bc157565b91909160008382019384129112908015821691151617610bc157565b9095919386156111b3576001600160a01b0361024491611096670de0b6b3a76400009384928b610bae565b049216916040519363961be39160e01b85526020918286600481885afa91821561118857600496600093611194575b50836001600160781b03809416966040519889809263705727b560e01b82525afa9081156111885761113a9a61111584611123968f9b9561111d9661112a9a60009261116b575b5050169a610c71565b8d8a8a611a2d565b90610f4d565b8098610c71565b9381810361113d575b5050611935565b91565b8161115b82826111548261116297989a999a610bae565b0497610bae565b0493610bae565b04913880611133565b6111819250803d106102c7576102b98183610b57565b388061110c565b6040513d6000823e3d90fd5b6111ac919350843d86116102c7576102b98183610b57565b91386110c5565b50505050505050600090600090565b9392919084156112e2576001600160a01b03169060405163961be39160e01b815260208082600481875afa918215611188576000926112c3575b506004816001600160781b03809416956040519283809263705727b560e01b82525afa918215611188576000926112a6575b5050670de0b6b3a76400009485810361128d575b506112519291879116846119c0565b809415159182611283575b5050611272576104c361024461113a9385610bae565b6004604051631c4bd71760e01b8152fd5b109050833861125c565b61129d8691611251959499610bae565b04969192611242565b6112bc9250803d106102c7576102b98183610b57565b388061122e565b816112db9293503d84116102c7576102b98183610b57565b90386111fc565b5050505050600090600090565b9390949180158015611459575b61142f578381819261130e898961104f565b978061131a8380610fd5565b9061132491610ff8565b98670de0b6b3a7640000809a8c61133b8880610fd5565b9061134591610ff8565b61134e9161104f565b611358908a610fd5565b6113619061102b565b0561136b91610f7d565b956113759161104f565b61137e90610f96565b6002820561138b9161104f565b9061139591610ff8565b8061139f87610f96565b600282056113ac9161104f565b906113b691610ff8565b6113bf91610f7d565b6113c891610fd5565b906113d291610ff8565b916113dc90610f96565b600282056113e99161104f565b906113f391610ff8565b6113fc91610f7d565b9061140691611af2565b61140f91610fd5565b6114189061102b565b059061142391610f7d565b61142c90611461565b90565b60046040517fae032660000000000000000000000000000000000000000000000000000000008152fd5b5083156112fc565b600081121561142c5761142c90610c60565b929193829194611483858261104f565b948161148e88610f96565b6002820561149b9161104f565b906114a591610ff8565b91670de0b6b3a7640000958483886114bf81988297610fd5565b6114c89061102b565b05926114d391610fd5565b906114dd91610ff8565b6114e691610f7d565b92806114f187610f96565b600282056114fe9161104f565b9061150891610ff8565b61151191610f7d565b61151a91610fd5565b6115239061102b565b059061152e9161104f565b61153790610c60565b938061154291610fd5565b61154b9061102b565b0561155591610fd5565b61155e9061102b565b0561156891611af2565b61142c91610f7d565b92909261157e818461104f565b908361158986610f96565b600282056115969161104f565b906115a091610ff8565b80946115ab85610f96565b90670de0b6b3a7640000968088949360028695056115c89161104f565b906115d291610ff8565b6115db91610f7d565b6115e491610fd5565b6115ed9061102b565b05916115f885610f5a565b61160191610fd5565b61160a9061102b565b056116149161104f565b600290059283926116258480610fd5565b928061163091610fd5565b61163991610fd5565b6116429061102b565b0561164c9161104f565b906116569161165f565b6115689161104f565b9190600060038413156116ff575060008113806116f5575b156116be57915b6002806116948561168f8186610ff8565b61104f565b05915b8483036116a357505050565b91935090816116b68561168f8185610ff8565b059190611697565b60008112806116e3575b156116dc576116d690610c60565b9161167e565b508161167e565b50826116ee82610c60565b13156116c8565b5082811315611677565b92905061170857565b60019150565b90929382156118aa576000611723838661104f565b1261142f5783918361173484610f96565b600282056117419161104f565b9061174b91610ff8565b946117559161104f565b90670de0b6b3a76400008093828261176e819587610fd5565b6117779061102b565b05906117838a87610fd5565b9061178d91610ff8565b61179691610f7d565b826117a1888b610fd5565b6117aa9061102b565b056117b490610fb3565b6117bd9161104f565b966117c8878a610fd5565b906117d291610ff8565b6117db91610f7d565b6117e59084610fd5565b6117ee9061102b565b0591806117fa91610fd5565b6118039061102b565b0561180d91610f7d565b91816118198287610fd5565b6118229061102b565b059061182d91610fd5565b6118369061102b565b056118409161104f565b61184a8280610fd5565b9061185484610fc4565b9061185e91610fd5565b61186791610f7d565b61187082610c60565b9161187a9161165f565b6118839161104f565b61188c90610f96565b600282056118999161104f565b906118a391610ff8565b6002900590565b509250505090565b919091811561192e5760006118c7828561104f565b1261142f578290826118d883610f96565b600282056118e59161104f565b906118ef91610ff8565b936118f99161104f565b670de0b6b3a76400008080938161190f89610f5a565b6119199086610fd5565b6119229061102b565b05826117a1888b610fd5565b9250505090565b6119af826119a96119b59361199261199861198261142c9a9861066b6119bb9b61168f61197d61196489610f96565b926119778661066b60028205809761104f565b9961104f565b610f96565b6119928161066b6106618c610f96565b90610f7d565b916119928161066b6106618b610f96565b90610fd5565b91611013565b90610ff8565b611461565b90611a26611a21826119a961142c976106cd61066b611a1b611a0e6119bb9b611a09886119fd670de0b6b3a76400009d8f61066161066b91610f96565b9586936119a98a611013565b610f7d565b9161066b61066186610f96565b9061104f565b61102b565b0590610f7d565b90959492939195611a4981611a4460009985610f4d565b611ac6565b91838311611a5a575b505050505050565b611a709596975090611a6b91611ac6565b611b2f565b90670de0b6b3a764000091828111611a9c57611a8f9161024491610bae565b0490388080808080611a52565b60046040517f5c7c5649000000000000000000000000000000000000000000000000000000008152fd5b90670de0b6b3a764000091828102928184041490151715610bc1576108b361142c928260011c90610f4d565b611afc8180610fd5565b908260021b9280840560041490151715610bc157611a0981611b26611b2b94611a1b600297610f96565b61165f565b0590565b929182821115611b635760046040517fa6af4260000000000000000000000000000000000000000000000000000000008152fd5b808211801590611bef575b611be65761142c93611bc192611bb891611bb290848111611bc757611bac60005b610189611b9c8887610c71565b611ba68988610c71565b90610bae565b92610c71565b90610bd7565b60011c92610c71565b90611ac6565b611bac611be1611bd78784610c71565b611ba68885610c71565b611b8f565b50505050600090565b5083821115611b6e56fea2646970667358221220264a8586a9f187981b2db1f6509585b5a6bbac48cb4f8beed0a089bb987f4abd64736f6c63430008120033",
  "devdoc": {
    "details": "Uses OpenZeppelin's SignedSafeMath and DSMath's WAD for calculations. Change log: - Move view functinos (quotes, high cov ratio fee) from the Pool contract to this contract - Add quote functions for cross chain swaps",
    "kind": "dev",
    "methods": {
      "quoteSwap(IAsset,IAsset,int256,uint256,uint256,uint256)": {
        "params": {
          "fromAmount": "The amount to quote",
          "fromAsset": "The initial asset",
          "toAsset": "The asset wanted by user"
        },
        "returns": {
          "actualToAmount": "The actual amount user would receive",
          "haircut": "The haircut that will be applied"
        }
      },
      "quoteSwapCreditForTokens(uint256,IAsset,uint256,uint256,uint256)": {
        "details": "reverse quote is not supported"
      },
      "quoteSwapTokensForCredit(IAsset,uint256,uint256,uint256,uint256,uint256,uint256)": {
        "details": "reverse quote is not supported haircut is calculated in the fromToken when swapping tokens for credit"
      },
      "quoteWithdrawAmount(IAsset,uint256,uint256,int256,uint256)": {
        "params": {
          "_equilCovRatio": "global equilibrium coverage ratio",
          "asset": "The asset willing to be withdrawn",
          "liquidity": "The liquidity willing to be withdrawn",
          "withdrawalHaircutRate": "withdraw haircut rate"
        },
        "returns": {
          "amount": "Total amount to be withdrawn from Pool",
          "liabilityToBurn": "Total liability to be burned by Pool",
          "withdrawalHaircut": "Total withdrawal haircut"
        }
      },
      "swapFromCreditQuote(int256,int256,int256,int256)": {
        "details": "This function always returns >= 0"
      },
      "swapQuoteFunc(int256,int256,int256,int256,int256,int256)": {
        "details": "This function always returns >= 0",
        "params": {
          "A": "amplification factor",
          "Ax": "asset of token x",
          "Ay": "asset of token y",
          "Dx": "delta x, i.e. token x amount inputted",
          "Lx": "liability of token x",
          "Ly": "liability of token y"
        },
        "returns": {
          "quote": "The quote for amount of token y swapped for token x amount inputted"
        }
      },
      "swapToCreditQuote(int256,int256,int256,int256)": {
        "details": "This function always returns >= 0"
      },
      "withdrawalAmountImpl(int256,int256,int256,int256,int256)": {
        "details": "Calculate the withdrawal amount for any r*"
      },
      "withdrawalAmountInEquilImpl(int256,int256,int256,int256)": {
        "details": "should be used only when r* = 1"
      }
    },
    "title": "CoreV3",
    "version": 1
  },
  "userdoc": {
    "kind": "user",
    "methods": {
      "exactDepositLiquidityImpl(int256,int256,int256,int256,int256)": {
        "notice": "return the deposit reward in token amount when target liquidity (LP amount) is known"
      },
      "exactDepositLiquidityInEquilImpl(int256,int256,int256,int256)": {
        "notice": "return the deposit reward in token amount when target liquidity (LP amount) is known"
      },
      "quoteDepositLiquidity(IAsset,uint256,uint256,int256)": {
        "notice": "This function calculate the exactly amount of liquidity of the deposit. Assumes r* = 1"
      },
      "quoteSwap(IAsset,IAsset,int256,uint256,uint256,uint256)": {
        "notice": "Quotes the actual amount user would receive in a swap, taking in account slippage and haircut"
      },
      "quoteWithdrawAmount(IAsset,uint256,uint256,int256,uint256)": {
        "notice": "Calculates fee and liability to burn in case of withdrawal"
      },
      "swapFromCreditQuote(int256,int256,int256,int256)": {
        "notice": "quote swapping from credit for tokens"
      },
      "swapQuoteFunc(int256,int256,int256,int256,int256,int256)": {
        "notice": "Core Wombat stableswap equation"
      },
      "swapToCreditQuote(int256,int256,int256,int256)": {
        "notice": "quote swapping from tokens for credit"
      }
    },
    "notice": "Handles math operations of Wombat protocol. Assume all params are signed integer with 18 decimals",
    "version": 1
  },
  "storageLayout": {
    "storage": [],
    "types": null
  }
}