{
  "address": "0xA0cAFB078aCe08a6B8C1efA1F47cCc615C879F7c",
  "abi": [
    {
      "inputs": [],
      "name": "CORE_UNDERFLOW",
      "type": "error"
    },
    {
      "inputs": [],
      "name": "WOMBAT_AMOUNT_TOO_LOW",
      "type": "error"
    },
    {
      "inputs": [],
      "name": "WOMBAT_ASSET_ALREADY_EXIST",
      "type": "error"
    },
    {
      "inputs": [],
      "name": "WOMBAT_ASSET_ALREADY_PAUSED",
      "type": "error"
    },
    {
      "inputs": [],
      "name": "WOMBAT_ASSET_NOT_EXISTS",
      "type": "error"
    },
    {
      "inputs": [],
      "name": "WOMBAT_ASSET_NOT_PAUSED",
      "type": "error"
    },
    {
      "inputs": [],
      "name": "WOMBAT_CASH_NOT_ENOUGH",
      "type": "error"
    },
    {
      "inputs": [],
      "name": "WOMBAT_EXPIRED",
      "type": "error"
    },
    {
      "inputs": [],
      "name": "WOMBAT_FORBIDDEN",
      "type": "error"
    },
    {
      "inputs": [],
      "name": "WOMBAT_INVALID_VALUE",
      "type": "error"
    },
    {
      "inputs": [],
      "name": "WOMBAT_SAME_ADDRESS",
      "type": "error"
    },
    {
      "inputs": [],
      "name": "WOMBAT_ZERO_ADDRESS",
      "type": "error"
    },
    {
      "inputs": [],
      "name": "WOMBAT_ZERO_AMOUNT",
      "type": "error"
    },
    {
      "inputs": [],
      "name": "WOMBAT_ZERO_LIQUIDITY",
      "type": "error"
    },
    {
      "anonymous": false,
      "inputs": [
        {
          "indexed": true,
          "internalType": "address",
          "name": "token",
          "type": "address"
        },
        {
          "indexed": true,
          "internalType": "address",
          "name": "asset",
          "type": "address"
        }
      ],
      "name": "AssetAdded",
      "type": "event"
    },
    {
      "anonymous": false,
      "inputs": [
        {
          "indexed": true,
          "internalType": "address",
          "name": "token",
          "type": "address"
        },
        {
          "indexed": true,
          "internalType": "address",
          "name": "asset",
          "type": "address"
        }
      ],
      "name": "AssetRemoved",
      "type": "event"
    },
    {
      "anonymous": false,
      "inputs": [
        {
          "indexed": true,
          "internalType": "address",
          "name": "sender",
          "type": "address"
        },
        {
          "indexed": false,
          "internalType": "address",
          "name": "token",
          "type": "address"
        },
        {
          "indexed": false,
          "internalType": "uint256",
          "name": "amount",
          "type": "uint256"
        },
        {
          "indexed": false,
          "internalType": "uint256",
          "name": "liquidity",
          "type": "uint256"
        },
        {
          "indexed": true,
          "internalType": "address",
          "name": "to",
          "type": "address"
        }
      ],
      "name": "Deposit",
      "type": "event"
    },
    {
      "anonymous": false,
      "inputs": [
        {
          "indexed": false,
          "internalType": "address",
          "name": "token",
          "type": "address"
        },
        {
          "indexed": false,
          "internalType": "uint256",
          "name": "amount",
          "type": "uint256"
        }
      ],
      "name": "FillPool",
      "type": "event"
    },
    {
      "anonymous": false,
      "inputs": [
        {
          "indexed": true,
          "internalType": "address",
          "name": "previousOwner",
          "type": "address"
        },
        {
          "indexed": true,
          "internalType": "address",
          "name": "newOwner",
          "type": "address"
        }
      ],
      "name": "OwnershipTransferred",
      "type": "event"
    },
    {
      "anonymous": false,
      "inputs": [
        {
          "indexed": false,
          "internalType": "address",
          "name": "account",
          "type": "address"
        }
      ],
      "name": "Paused",
      "type": "event"
    },
    {
      "anonymous": false,
      "inputs": [
        {
          "indexed": false,
          "internalType": "address",
          "name": "asset",
          "type": "address"
        },
        {
          "indexed": false,
          "internalType": "address",
          "name": "account",
          "type": "address"
        }
      ],
      "name": "PausedAsset",
      "type": "event"
    },
    {
      "anonymous": false,
      "inputs": [
        {
          "indexed": false,
          "internalType": "uint256",
          "name": "value",
          "type": "uint256"
        }
      ],
      "name": "SetAmpFactor",
      "type": "event"
    },
    {
      "anonymous": false,
      "inputs": [
        {
          "indexed": false,
          "internalType": "address",
          "name": "addr",
          "type": "address"
        }
      ],
      "name": "SetDev",
      "type": "event"
    },
    {
      "anonymous": false,
      "inputs": [
        {
          "indexed": false,
          "internalType": "uint256",
          "name": "lpDividendRatio",
          "type": "uint256"
        },
        {
          "indexed": false,
          "internalType": "uint256",
          "name": "retentionRatio",
          "type": "uint256"
        }
      ],
      "name": "SetFee",
      "type": "event"
    },
    {
      "anonymous": false,
      "inputs": [
        {
          "indexed": false,
          "internalType": "address",
          "name": "addr",
          "type": "address"
        }
      ],
      "name": "SetFeeTo",
      "type": "event"
    },
    {
      "anonymous": false,
      "inputs": [
        {
          "indexed": false,
          "internalType": "uint256",
          "name": "value",
          "type": "uint256"
        }
      ],
      "name": "SetHaircutRate",
      "type": "event"
    },
    {
      "anonymous": false,
      "inputs": [
        {
          "indexed": false,
          "internalType": "address",
          "name": "addr",
          "type": "address"
        }
      ],
      "name": "SetMasterWombat",
      "type": "event"
    },
    {
      "anonymous": false,
      "inputs": [
        {
          "indexed": false,
          "internalType": "uint256",
          "name": "value",
          "type": "uint256"
        }
      ],
      "name": "SetMintFeeThreshold",
      "type": "event"
    },
    {
      "anonymous": false,
      "inputs": [
        {
          "indexed": true,
          "internalType": "address",
          "name": "sender",
          "type": "address"
        },
        {
          "indexed": false,
          "internalType": "address",
          "name": "fromToken",
          "type": "address"
        },
        {
          "indexed": false,
          "internalType": "address",
          "name": "toToken",
          "type": "address"
        },
        {
          "indexed": false,
          "internalType": "uint256",
          "name": "fromAmount",
          "type": "uint256"
        },
        {
          "indexed": false,
          "internalType": "uint256",
          "name": "toAmount",
          "type": "uint256"
        },
        {
          "indexed": true,
          "internalType": "address",
          "name": "to",
          "type": "address"
        }
      ],
      "name": "Swap",
      "type": "event"
    },
    {
      "anonymous": false,
      "inputs": [
        {
          "indexed": false,
          "internalType": "address",
          "name": "token",
          "type": "address"
        },
        {
          "indexed": false,
          "internalType": "uint256",
          "name": "amount",
          "type": "uint256"
        },
        {
          "indexed": false,
          "internalType": "address",
          "name": "to",
          "type": "address"
        }
      ],
      "name": "TransferTipBucket",
      "type": "event"
    },
    {
      "anonymous": false,
      "inputs": [
        {
          "indexed": false,
          "internalType": "address",
          "name": "account",
          "type": "address"
        }
      ],
      "name": "Unpaused",
      "type": "event"
    },
    {
      "anonymous": false,
      "inputs": [
        {
          "indexed": false,
          "internalType": "address",
          "name": "asset",
          "type": "address"
        },
        {
          "indexed": false,
          "internalType": "address",
          "name": "account",
          "type": "address"
        }
      ],
      "name": "UnpausedAsset",
      "type": "event"
    },
    {
      "anonymous": false,
      "inputs": [
        {
          "indexed": true,
          "internalType": "address",
          "name": "sender",
          "type": "address"
        },
        {
          "indexed": false,
          "internalType": "address",
          "name": "token",
          "type": "address"
        },
        {
          "indexed": false,
          "internalType": "uint256",
          "name": "amount",
          "type": "uint256"
        },
        {
          "indexed": false,
          "internalType": "uint256",
          "name": "liquidity",
          "type": "uint256"
        },
        {
          "indexed": true,
          "internalType": "address",
          "name": "to",
          "type": "address"
        }
      ],
      "name": "Withdraw",
      "type": "event"
    },
    {
      "inputs": [
        {
          "internalType": "address",
          "name": "token",
          "type": "address"
        },
        {
          "internalType": "address",
          "name": "asset",
          "type": "address"
        }
      ],
      "name": "addAsset",
      "outputs": [],
      "stateMutability": "nonpayable",
      "type": "function"
    },
    {
      "inputs": [
        {
          "internalType": "address",
          "name": "token",
          "type": "address"
        }
      ],
      "name": "addressOfAsset",
      "outputs": [
        {
          "internalType": "address",
          "name": "",
          "type": "address"
        }
      ],
      "stateMutability": "view",
      "type": "function"
    },
    {
      "inputs": [],
      "name": "ampFactor",
      "outputs": [
        {
          "internalType": "uint256",
          "name": "",
          "type": "uint256"
        }
      ],
      "stateMutability": "view",
      "type": "function"
    },
    {
      "inputs": [
        {
          "internalType": "address",
          "name": "token",
          "type": "address"
        },
        {
          "internalType": "uint256",
          "name": "amount",
          "type": "uint256"
        },
        {
          "internalType": "uint256",
          "name": "minimumLiquidity",
          "type": "uint256"
        },
        {
          "internalType": "address",
          "name": "to",
          "type": "address"
        },
        {
          "internalType": "uint256",
          "name": "deadline",
          "type": "uint256"
        },
        {
          "internalType": "bool",
          "name": "shouldStake",
          "type": "bool"
        }
      ],
      "name": "deposit",
      "outputs": [
        {
          "internalType": "uint256",
          "name": "liquidity",
          "type": "uint256"
        }
      ],
      "stateMutability": "nonpayable",
      "type": "function"
    },
    {
      "inputs": [],
      "name": "dev",
      "outputs": [
        {
          "internalType": "address",
          "name": "",
          "type": "address"
        }
      ],
      "stateMutability": "view",
      "type": "function"
    },
    {
      "inputs": [
        {
          "internalType": "address",
          "name": "token",
          "type": "address"
        }
      ],
      "name": "exchangeRate",
      "outputs": [
        {
          "internalType": "uint256",
          "name": "xr",
          "type": "uint256"
        }
      ],
      "stateMutability": "view",
      "type": "function"
    },
    {
      "inputs": [],
      "name": "feeTo",
      "outputs": [
        {
          "internalType": "address",
          "name": "",
          "type": "address"
        }
      ],
      "stateMutability": "view",
      "type": "function"
    },
    {
      "inputs": [
        {
          "internalType": "address",
          "name": "token",
          "type": "address"
        },
        {
          "internalType": "uint256",
          "name": "amount",
          "type": "uint256"
        }
      ],
      "name": "fillPool",
      "outputs": [],
      "stateMutability": "nonpayable",
      "type": "function"
    },
    {
      "inputs": [],
      "name": "getTokens",
      "outputs": [
        {
          "internalType": "address[]",
          "name": "",
          "type": "address[]"
        }
      ],
      "stateMutability": "view",
      "type": "function"
    },
    {
      "inputs": [],
      "name": "globalEquilCovRatio",
      "outputs": [
        {
          "internalType": "uint256",
          "name": "equilCovRatio",
          "type": "uint256"
        },
        {
          "internalType": "uint256",
          "name": "invariantInUint",
          "type": "uint256"
        }
      ],
      "stateMutability": "view",
      "type": "function"
    },
    {
      "inputs": [],
      "name": "haircutRate",
      "outputs": [
        {
          "internalType": "uint256",
          "name": "",
          "type": "uint256"
        }
      ],
      "stateMutability": "view",
      "type": "function"
    },
    {
      "inputs": [
        {
          "internalType": "uint256",
          "name": "ampFactor_",
          "type": "uint256"
        },
        {
          "internalType": "uint256",
          "name": "haircutRate_",
          "type": "uint256"
        }
      ],
      "name": "initialize",
      "outputs": [],
      "stateMutability": "nonpayable",
      "type": "function"
    },
    {
      "inputs": [],
      "name": "lpDividendRatio",
      "outputs": [
        {
          "internalType": "uint256",
          "name": "",
          "type": "uint256"
        }
      ],
      "stateMutability": "view",
      "type": "function"
    },
    {
      "inputs": [],
      "name": "masterWombat",
      "outputs": [
        {
          "internalType": "address",
          "name": "",
          "type": "address"
        }
      ],
      "stateMutability": "view",
      "type": "function"
    },
    {
      "inputs": [
        {
          "internalType": "address",
          "name": "token",
          "type": "address"
        }
      ],
      "name": "mintFee",
      "outputs": [],
      "stateMutability": "nonpayable",
      "type": "function"
    },
    {
      "inputs": [],
      "name": "mintFeeThreshold",
      "outputs": [
        {
          "internalType": "uint256",
          "name": "",
          "type": "uint256"
        }
      ],
      "stateMutability": "view",
      "type": "function"
    },
    {
      "inputs": [],
      "name": "owner",
      "outputs": [
        {
          "internalType": "address",
          "name": "",
          "type": "address"
        }
      ],
      "stateMutability": "view",
      "type": "function"
    },
    {
      "inputs": [],
      "name": "pause",
      "outputs": [],
      "stateMutability": "nonpayable",
      "type": "function"
    },
    {
      "inputs": [
        {
          "internalType": "address",
          "name": "token",
          "type": "address"
        }
      ],
      "name": "pauseAsset",
      "outputs": [],
      "stateMutability": "nonpayable",
      "type": "function"
    },
    {
      "inputs": [],
      "name": "paused",
      "outputs": [
        {
          "internalType": "bool",
          "name": "",
          "type": "bool"
        }
      ],
      "stateMutability": "view",
      "type": "function"
    },
    {
      "inputs": [
        {
          "internalType": "address",
          "name": "fromToken",
          "type": "address"
        },
        {
          "internalType": "address",
          "name": "toToken",
          "type": "address"
        },
        {
          "internalType": "int256",
          "name": "toAmount",
          "type": "int256"
        }
      ],
      "name": "quoteAmountIn",
      "outputs": [
        {
          "internalType": "uint256",
          "name": "amountIn",
          "type": "uint256"
        },
        {
          "internalType": "uint256",
          "name": "haircut",
          "type": "uint256"
        }
      ],
      "stateMutability": "view",
      "type": "function"
    },
    {
      "inputs": [
        {
          "internalType": "address",
          "name": "token",
          "type": "address"
        },
        {
          "internalType": "uint256",
          "name": "amount",
          "type": "uint256"
        }
      ],
      "name": "quotePotentialDeposit",
      "outputs": [
        {
          "internalType": "uint256",
          "name": "liquidity",
          "type": "uint256"
        },
        {
          "internalType": "uint256",
          "name": "reward",
          "type": "uint256"
        }
      ],
      "stateMutability": "view",
      "type": "function"
    },
    {
      "inputs": [
        {
          "internalType": "address",
          "name": "fromToken",
          "type": "address"
        },
        {
          "internalType": "address",
          "name": "toToken",
          "type": "address"
        },
        {
          "internalType": "int256",
          "name": "fromAmount",
          "type": "int256"
        }
      ],
      "name": "quotePotentialSwap",
      "outputs": [
        {
          "internalType": "uint256",
          "name": "potentialOutcome",
          "type": "uint256"
        },
        {
          "internalType": "uint256",
          "name": "haircut",
          "type": "uint256"
        }
      ],
      "stateMutability": "view",
      "type": "function"
    },
    {
      "inputs": [
        {
          "internalType": "address",
          "name": "token",
          "type": "address"
        },
        {
          "internalType": "uint256",
          "name": "liquidity",
          "type": "uint256"
        }
      ],
      "name": "quotePotentialWithdraw",
      "outputs": [
        {
          "internalType": "uint256",
          "name": "amount",
          "type": "uint256"
        },
        {
          "internalType": "uint256",
          "name": "fee",
          "type": "uint256"
        }
      ],
      "stateMutability": "view",
      "type": "function"
    },
    {
      "inputs": [
        {
          "internalType": "address",
          "name": "fromToken",
          "type": "address"
        },
        {
          "internalType": "address",
          "name": "toToken",
          "type": "address"
        },
        {
          "internalType": "uint256",
          "name": "liquidity",
          "type": "uint256"
        }
      ],
      "name": "quotePotentialWithdrawFromOtherAsset",
      "outputs": [
        {
          "internalType": "uint256",
          "name": "amount",
          "type": "uint256"
        },
        {
          "internalType": "uint256",
          "name": "withdrewAmount",
          "type": "uint256"
        }
      ],
      "stateMutability": "view",
      "type": "function"
    },
    {
      "inputs": [
        {
          "internalType": "address",
          "name": "token",
          "type": "address"
        }
      ],
      "name": "removeAsset",
      "outputs": [],
      "stateMutability": "nonpayable",
      "type": "function"
    },
    {
      "inputs": [],
      "name": "renounceOwnership",
      "outputs": [],
      "stateMutability": "nonpayable",
      "type": "function"
    },
    {
      "inputs": [],
      "name": "retentionRatio",
      "outputs": [
        {
          "internalType": "uint256",
          "name": "",
          "type": "uint256"
        }
      ],
      "stateMutability": "view",
      "type": "function"
    },
    {
      "inputs": [
        {
          "internalType": "uint256",
          "name": "ampFactor_",
          "type": "uint256"
        }
      ],
      "name": "setAmpFactor",
      "outputs": [],
      "stateMutability": "nonpayable",
      "type": "function"
    },
    {
      "inputs": [
        {
          "internalType": "address",
          "name": "dev_",
          "type": "address"
        }
      ],
      "name": "setDev",
      "outputs": [],
      "stateMutability": "nonpayable",
      "type": "function"
    },
    {
      "inputs": [
        {
          "internalType": "uint256",
          "name": "lpDividendRatio_",
          "type": "uint256"
        },
        {
          "internalType": "uint256",
          "name": "retentionRatio_",
          "type": "uint256"
        }
      ],
      "name": "setFee",
      "outputs": [],
      "stateMutability": "nonpayable",
      "type": "function"
    },
    {
      "inputs": [
        {
          "internalType": "address",
          "name": "feeTo_",
          "type": "address"
        }
      ],
      "name": "setFeeTo",
      "outputs": [],
      "stateMutability": "nonpayable",
      "type": "function"
    },
    {
      "inputs": [
        {
          "internalType": "uint256",
          "name": "haircutRate_",
          "type": "uint256"
        }
      ],
      "name": "setHaircutRate",
      "outputs": [],
      "stateMutability": "nonpayable",
      "type": "function"
    },
    {
      "inputs": [
        {
          "internalType": "address",
          "name": "masterWombat_",
          "type": "address"
        }
      ],
      "name": "setMasterWombat",
      "outputs": [],
      "stateMutability": "nonpayable",
      "type": "function"
    },
    {
      "inputs": [
        {
          "internalType": "uint256",
          "name": "mintFeeThreshold_",
          "type": "uint256"
        }
      ],
      "name": "setMintFeeThreshold",
      "outputs": [],
      "stateMutability": "nonpayable",
      "type": "function"
    },
    {
      "inputs": [
        {
          "internalType": "address",
          "name": "fromToken",
          "type": "address"
        },
        {
          "internalType": "address",
          "name": "toToken",
          "type": "address"
        },
        {
          "internalType": "uint256",
          "name": "fromAmount",
          "type": "uint256"
        },
        {
          "internalType": "uint256",
          "name": "minimumToAmount",
          "type": "uint256"
        },
        {
          "internalType": "address",
          "name": "to",
          "type": "address"
        },
        {
          "internalType": "uint256",
          "name": "deadline",
          "type": "uint256"
        }
      ],
      "name": "swap",
      "outputs": [
        {
          "internalType": "uint256",
          "name": "actualToAmount",
          "type": "uint256"
        },
        {
          "internalType": "uint256",
          "name": "haircut",
          "type": "uint256"
        }
      ],
      "stateMutability": "nonpayable",
      "type": "function"
    },
    {
      "inputs": [
        {
          "internalType": "address",
          "name": "token",
          "type": "address"
        }
      ],
      "name": "tipBucketBalance",
      "outputs": [
        {
          "internalType": "uint256",
          "name": "balance",
          "type": "uint256"
        }
      ],
      "stateMutability": "view",
      "type": "function"
    },
    {
      "inputs": [
        {
          "internalType": "address",
          "name": "newOwner",
          "type": "address"
        }
      ],
      "name": "transferOwnership",
      "outputs": [],
      "stateMutability": "nonpayable",
      "type": "function"
    },
    {
      "inputs": [
        {
          "internalType": "address",
          "name": "token",
          "type": "address"
        },
        {
          "internalType": "uint256",
          "name": "amount",
          "type": "uint256"
        },
        {
          "internalType": "address",
          "name": "to",
          "type": "address"
        }
      ],
      "name": "transferTipBucket",
      "outputs": [],
      "stateMutability": "nonpayable",
      "type": "function"
    },
    {
      "inputs": [],
      "name": "unpause",
      "outputs": [],
      "stateMutability": "nonpayable",
      "type": "function"
    },
    {
      "inputs": [
        {
          "internalType": "address",
          "name": "token",
          "type": "address"
        }
      ],
      "name": "unpauseAsset",
      "outputs": [],
      "stateMutability": "nonpayable",
      "type": "function"
    },
    {
      "inputs": [
        {
          "internalType": "address",
          "name": "token",
          "type": "address"
        },
        {
          "internalType": "uint256",
          "name": "liquidity",
          "type": "uint256"
        },
        {
          "internalType": "uint256",
          "name": "minimumAmount",
          "type": "uint256"
        },
        {
          "internalType": "address",
          "name": "to",
          "type": "address"
        },
        {
          "internalType": "uint256",
          "name": "deadline",
          "type": "uint256"
        }
      ],
      "name": "withdraw",
      "outputs": [
        {
          "internalType": "uint256",
          "name": "amount",
          "type": "uint256"
        }
      ],
      "stateMutability": "nonpayable",
      "type": "function"
    },
    {
      "inputs": [
        {
          "internalType": "address",
          "name": "fromToken",
          "type": "address"
        },
        {
          "internalType": "address",
          "name": "toToken",
          "type": "address"
        },
        {
          "internalType": "uint256",
          "name": "liquidity",
          "type": "uint256"
        },
        {
          "internalType": "uint256",
          "name": "minimumAmount",
          "type": "uint256"
        },
        {
          "internalType": "address",
          "name": "to",
          "type": "address"
        },
        {
          "internalType": "uint256",
          "name": "deadline",
          "type": "uint256"
        }
      ],
      "name": "withdrawFromOtherAsset",
      "outputs": [
        {
          "internalType": "uint256",
          "name": "toAmount",
          "type": "uint256"
        }
      ],
      "stateMutability": "nonpayable",
      "type": "function"
    }
  ],
  "transactionHash": "0x942dd8c97bc8c91a7d093a5fa4507a9d07044fa6d228b967d9e3fcdd7f332314",
  "args": [],
  "solcInputHash": "3f11f1b01ef900a6c9411388c74edaf2",
  "bytecode": "0x608080604052346100175761567590816200001d8239f35b600080fdfe60806040526004361015610013575b600080fd5b60003560e01c8063017b82921461036f578063017e7e58146103665780630705999d1461035d578063070f81d91461035457806309a5fca31461034b5780630f91f06f146103425780633753b14a146103395780633bd61ba8146103305780633f4ba83a146103275780634a5e42b11461031e5780634fdd64e51461031557806352f7c9881461030c5780635c975abb146103035780635cfe092e146102fa57806361858e23146102f15780636281baef146102e85780636922d5ca146102df578063715018a6146102d6578063815bfd29146102cd5780638456cb59146102c45780638a2dfe09146102bb5780638da5cb5b146102b2578063907448ed146102a957806391cca3db146102a057806393aeea02146102975780639908fc8b1461028e5780639abacb41146102855780639e4416b71461027c578063a4275ceb14610273578063aa6ca8081461026a578063d043c56514610261578063d0dd0e5614610258578063d30ffeda1461024f578063d477f05f14610246578063da4899971461023d578063dc3b7c8b14610234578063e4a301161461022b578063e9249cc714610222578063f2fde38b14610219578063f46901ed14610210578063f57e84d514610207578063f8b49e72146101fe5763fca8f308146101f657600080fd5b61000e612675565b5061000e612655565b5061000e6125ea565b5061000e612558565b5061000e612493565b5061000e612463565b5061000e612317565b5061000e6122f3565b5061000e6121ad565b5061000e61211b565b5061000e6120ef565b5061000e6120d0565b5061000e612075565b5061000e611fad565b5061000e611eca565b5061000e611e5f565b5061000e611d82565b5061000e611b29565b5061000e6119a7565b5061000e61197f565b5061000e6118e0565b5061000e6118b8565b5061000e611658565b5061000e6115df565b5061000e6115c0565b5061000e611541565b5061000e611522565b5061000e61110a565b5061000e611060565b5061000e611041565b5061000e61101d565b5061000e610f15565b5061000e610eeb565b5061000e610cb9565b5061000e610be4565b5061000e610bbc565b5061000e610b16565b5061000e6109c1565b5061000e61077f565b5061000e6104b4565b5061000e610422565b5061000e6103a2565b5061000e610383565b600091031261000e57565b503461000e57600060031936011261000e57602060ca54604051908152f35b503461000e57600060031936011261000e5760206001600160a01b0360d05416604051908152f35b600435906001600160a01b038216820361000e57565b606435906001600160a01b038216820361000e57565b604435906001600160a01b038216820361000e57565b602435906001600160a01b038216820361000e57565b503461000e57602060031936011261000e577ffeb9010869b6ccec4557ddbbce947afeace5efc66cdff52c5e533c09336a8f2d602061045f6103ca565b6001600160a01b039061047782603354163314612692565b610480816129c0565b16807fffffffffffffffffffffffff000000000000000000000000000000000000000060d154161760d155604051908152a1005b503461000e5760408060031936011261000e576104cf6103ca565b906024356104db612938565b6104e483612cfb565b906105e16001600160a01b038316926105da6105c086517f99c91a640000000000000000000000000000000000000000000000000000000081526effffffffffffffffffffffffffffff6105796004838a818360209788935afa908115610772575b600091610745575b50848b8d51938480926339420b4560e11b82525afa918215610738575b600092610709575b5061315b565b9189517f961be39100000000000000000000000000000000000000000000000000000000815281816004818d5afa9182156106fc575b6000926106cf575b50501690612bb0565b916001600160a01b031660005260d2602052604060002090565b5490612bb0565b81116106a657813b1561000e576000937f4941e18a2bcbb0f9fa0081238f26793a8ad8c202b913ae8bf5f7e523f68ff1379285855180927f16c9e7a000000000000000000000000000000000000000000000000000000000825281838161065089600483019190602083019252565b03925af18015610699575b610680575b5083516001600160a01b039190911681526020810191909152604090a151f35b8061068d61069392612c61565b80610378565b38610660565b6106a1612d59565b61065b565b600483517f12b019e1000000000000000000000000000000000000000000000000000000008152fd5b6106ee9250803d106106f5575b6106e68183612cba565b8101906133d2565b38806105b7565b503d6106dc565b610704612d59565b6105af565b61072a919250853d8711610731575b6107228183612cba565b810190612d40565b9038610573565b503d610718565b610740612d59565b61056b565b6107659150853d871161076b575b61075d8183612cba565b810190612d7e565b3861054e565b503d610753565b61077a612d59565b610546565b503461000e5760a060031936011261000e576107996103ca565b602435906107a56103e0565b916107b56002606554141561286e565b60026065556107c960ff60975416156128d3565b6107d281613370565b6107db836129c0565b6107e66084356131a7565b6107ef82612cfb565b916001600160a01b03926108508482169161080c85843381612d8d565b604051906339420b4560e11b8252602082600481875afa91821561096b575b600092610947575b5061084b90866108458460443561315b565b9161409b565b613d43565b93813b1561000e576040517f9e79eaa50000000000000000000000000000000000000000000000000000000081526001600160a01b038716600482015260248101869052610923967ffb80d861da582b723be2d19507ce3e03851820c464abea89156ec77e089b1ad9939091906000908290604490829084905af1801561093a575b610927575b506109066040519283921695873396846040919493926001600160a01b03606083019616825260208201520152565b0390a36109136001606555565b6040519081529081906020820190565b0390f35b8061068d61093492612c61565b386108d7565b610942612d59565b6108d2565b61084b9192506109649060203d8111610731576107228183612cba565b9190610833565b610973612d59565b61082b565b60031960c091011261000e576001600160a01b03600435818116810361000e5791602435828116810361000e57916044359160643591608435908116810361000e579060a43590565b503461000e57610a2f610a216109d636610978565b6109ec600260659995979498939954141561286e565b6002606555610a0060ff60975416156128d3565b610a09886129c0565b610a1286613370565b610a1c8584614474565b6131a7565b610a2a81612976565b612cfb565b610850610a3b83612cfb565b6001600160a01b0395610a52868886163381612d8d565b610a9e610a5f8786613d79565b948884169560405194610a98866339420b4560e11b968782528a82600460209b8c935afa918215610b09575b600092610af1575061315b565b926149f4565b50906040519081528281600481885afa928315610ae4575b600093610ac5575b5050613d43565b610adc929350803d10610731576107228183612cba565b903880610abe565b610aec612d59565b610ab6565b61072a919250893d8b11610731576107228183612cba565b610b11612d59565b610a8b565b503461000e57602060031936011261000e577fdcb65c0553aaa433aadd180404ff195259c48f78aa50f877ebcb4bb215129a4e610bb2610b546103ca565b610b636002606554141561286e565b6002606555610b70612938565b610b7981612976565b6001600160a01b0316600081815260c96020908152604091829020805460ff191660011790558151928352339083015290918291820190565b0390a16001606555005b503461000e57600060031936011261000e5760206001600160a01b0360d15416604051908152f35b503461000e57600060031936011261000e57610c056002606554141561286e565b6002606555610c12612938565b60975460ff811615610c5b5760ff19166097557f5db9ee0a495bf2e6ff9c91a7834c1ba4fdd244a5e8aa4e537bd38aeae4b073aa6020604051338152a1610c596001606555565b005b60646040517f08c379a000000000000000000000000000000000000000000000000000000000815260206004820152601460248201527f5061757361626c653a206e6f74207061757365640000000000000000000000006044820152fd5b503461000e57602060031936011261000e57610cd36103ca565b6001600160a01b03610cea81603354163314612692565b610d14610d10836001600160a01b0380911660005260d460205260406000205416151590565b1590565b610e8c5781610d57610d4b610d3e6000956001600160a01b031660005260d4602052604060002090565b546001600160a01b031690565b6001600160a01b031690565b91610da0610d78836001600160a01b031660005260d4602052604060002090565b7fffffffffffffffffffffffff00000000000000000000000000000000000000008154169055565b610e56610dc0836001600160a01b031660005260d5602052604060002090565b54610e31610ded610dda610dd560d354612b80565b612aa2565b90546001600160a01b039160031b1c1690565b9180610e0c846001600160a01b031660005260d5602052604060002090565b5587610e2b876001600160a01b031660005260d5602052604060002090565b55612aa2565b90919082549060031b916001600160a01b039283811b93849216901b16911916179055565b610e5e612bbb565b80604051931691167f0fa1e4606af435f32f05b3804033d2933e691fab32ee74d2db6fa82d2741f1ea8484a3f35b60046040517fecb004d4000000000000000000000000000000000000000000000000000000008152fd5b600319606091011261000e576001600160a01b0390600435828116810361000e5791602435908116810361000e579060443590565b503461000e57610f03610efd36610eb6565b91614f7e565b60408051928352602083019190915290f35b503461000e57604060031936011261000e57600435602435610f436001600160a01b03603354163314612692565b670de0b6b3a7640000610f568383612a2a565b11610ff35760005b60d354811015610fa75780610f9d610f98610f7b610fa294615254565b6001600160a01b0380911660005260d46020526040600020541690565b6153d2565b615244565b610f5e565b507f032dc6a2d839eb179729a55633fdf1c41a1fc4739394154117005db2b354b9b5918160cc558060cd55610fee6040519283928360209093929193604081019481520152565b0390a1005b60046040517f12b019e1000000000000000000000000000000000000000000000000000000008152fd5b503461000e57600060031936011261000e57602060ff609754166040519015158152f35b503461000e57600060031936011261000e57602060ce54604051908152f35b503461000e57604060031936011261000e576110c1611080610a2a6103ca565b6110bb6040516339420b4560e11b81526020816004816001600160a01b0387165afa9081156110f3575b6000916110d5575b5060243561315b565b906133f9565b604080519384526020840191909152919050f35b6110ed915060203d8111610731576107228183612cba565b386110b2565b6110fb612d59565b6110aa565b8015150361000e57565b503461000e5760c060031936011261000e576111246103ca565b604435906024356111336103e0565b9160a4359361114185611100565b6111506002606554141561286e565b600260655561116460ff60975416156128d3565b60009483156114f857611176856129c0565b6111816084356131a7565b61118a83612976565b61119383612cfb565b906001600160a01b0396878316916111af8784338c8a16612d8d565b6112725750857ff5dd9317b9e63ac316ce44acc85f670b54b339cfa3e9076e1dd55065b922314b9361092398936112116004602061121796604051928380926339420b4560e11b82525afa908115611265575b600091611247575b508961315b565b906131d9565b945b6109068660405193849316963396846040919493926001600160a01b03606083019616825260208201520152565b61125f915060203d8111610731576107228183612cba565b3861120a565b61126d612d59565b611202565b96916112cb919361129361128e60d1546001600160a01b031690565b6129c0565b6112c4604051996339420b4560e11b8b5260209a8b816004818b5afa9182156114eb575b916114ce575b508861315b565b30926131d9565b9461132d87876112e360d1546001600160a01b031690565b60405193849283927f095ea7b300000000000000000000000000000000000000000000000000000000845260048401602090939291936001600160a01b0360408201951681520152565b03816000885af180156114c1575b611494575b506113a08761135d610d4b610d4b60d1546001600160a01b031690565b6040517faf929a800000000000000000000000000000000000000000000000000000000081526001600160a01b0390961660048701529491829081906024820190565b0381875afa978815611487575b600098611468575b5050823b1561000e576040517f90210d7e0000000000000000000000000000000000000000000000000000000081526004810197909752602487018690526001600160a01b0381166044880152610923967ff5dd9317b9e63ac316ce44acc85f670b54b339cfa3e9076e1dd55065b922314b936000908290606490829084905af1801561145b575b611448575b50611219565b8061068d61145592612c61565b38611442565b611463612d59565b61143d565b61147f929850803d1061076b5761075d8183612cba565b9538806113b5565b61148f612d59565b6113ad565b6114b390883d8a116114ba575b6114ab8183612cba565b810190612d66565b5038611340565b503d6114a1565b6114c9612d59565b61133b565b6114e591508b3d8d11610731576107228183612cba565b386112bd565b6114f3612d59565b6112b7565b60046040517fb483c10f000000000000000000000000000000000000000000000000000000008152fd5b503461000e57600060031936011261000e57602060cc54604051908152f35b503461000e576000806003193601126115bd576033547fffffffffffffffffffffffff00000000000000000000000000000000000000006001600160a01b0382169161158e338414612692565b1660335581604051917f8be0079c531659141344cd1fd0a4f28419497f9722a3daafe3b4186f6b6457e08284a3f35b80fd5b503461000e57600060031936011261000e57602060cd54604051908152f35b503461000e57600060031936011261000e576116006002606554141561286e565b600260655561160d612938565b600160ff1960975461162260ff8216156128d3565b16176097557f62e78cea01bee320cd4e420270b5ea74000d11b0c9f74754ebdbfc544b05a2586020604051338152a16001606555005b503461000e576000806003193601126115bd57808060ca54918060d354905b8183106116ab578561169a866116956116908885613c62565b613a9e565b614840565b604080519182526020820192909252f35b9091946116bd610d4b610f7b88615254565b9360409081517f961be39100000000000000000000000000000000000000000000000000000000815260209660049188818481855afa9081156118ab575b879161188e575b50888551927f705727b500000000000000000000000000000000000000000000000000000000845281848681845afa938415611881575b8994611859575b506001600160a01b039293946effffffffffffffffffffffffffffff8096169751809481937f2fa3a0d2000000000000000000000000000000000000000000000000000000008352165afa98891561184c575b879961182d575b5050831561181e57611805846117f36117e1826117ed6118179a986117c98f989b61180b9a6118119d16613c62565b976117e66117e1670de0b6b3a7640000988993613998565b613677565b05906136ee565b9c613998565b05916117ff818c613c62565b906137c1565b90613c81565b906136ee565b95615244565b9190611677565b50509450509461181790615244565b611844929950803d1061076b5761075d8183612cba565b96388061179a565b611854612d59565b611793565b6001600160a01b0393945061187a90833d85116106f5576106e68183612cba565b9392611740565b611889612d59565b611739565b6118a59150893d8b116106f5576106e68183612cba565b38611702565b6118b3612d59565b6116fb565b503461000e57600060031936011261000e5760206001600160a01b0360335416604051908152f35b503461000e57604060031936011261000e57602061169a6001600160a01b036119076103ca565b61192161191a60243592610a2a84613370565b918261415b565b95919290506004604051809581936339420b4560e11b8352165afa918215611972575b600092611952575b50613d43565b61196b91925060203d8111610731576107228183612cba565b903861194c565b61197a612d59565b611944565b503461000e57600060031936011261000e5760206001600160a01b0360cf5416604051908152f35b503461000e57606060031936011261000e576119c16103ca565b6024356119cc6103f6565b916001600160a01b036119e481603354163314612692565b6119ed82612cfb565b6119f6836152a1565b8411610ff35716611a2d6040516339420b4560e11b8152602081600481865afa908115611b1c575b600091611afe575b5084613d43565b93813b1561000e576040517f9e79eaa50000000000000000000000000000000000000000000000000000000081526001600160a01b038216600482015260248101959095527f5f22a22ebe30686f71d42a70ccacf870a335e22ee2ac6d257af1b2551582eda694610fee926000908290604490829084905af18015611af1575b611ade575b50604051938493849193929060409160608401956001600160a01b038093168552602085015216910152565b8061068d611aeb92612c61565b38611ab2565b611af9612d59565b611aad565b611b16915060203d8111610731576107228183612cba565b38611a26565b611b24612d59565b611a1e565b503461000e57611b3836610978565b611b4c60026065979496959754141561286e565b6002606555611b6060ff60975416156128d3565b611b6a8484614474565b85156114f857611b7d90610a1c836129c0565b611b8682612976565b611b8f82612cfb565b94611b9984612cfb565b916001600160a01b039182841693604051976339420b4560e11b808a528a60208b6004818b5afa9a8b15611d75575b60009b611d4e575b5084928b92888493169d8e916040518093819282525a92600491602094fa92831597610a98611c2f97611c1c611c2997611c2297611c399d611d41575b600091611d22575b508b61315b565b9361315b565b9c90613d43565b9a613d43565b9933868916612d8d565b833b1561000e576040517f9e79eaa50000000000000000000000000000000000000000000000000000000081526001600160a01b0383166004820152602481018890527f54787c404bb33c88e86f4baf88183a3b0141d0a848e6a9f7a13b66ae3a9b73d194611cf592899290916000908290604490829084905af18015611d15575b611d02575b506040519485941697339785909260609295949360808301966001600160a01b03809216845216602083015260408201520152565b0390a361169a6001606555565b8061068d611d0f92612c61565b38611cc0565b611d1d612d59565b611cbb565b611d3b915060203d602011610731576107228183612cba565b38611c15565b611d49612d59565b611c0d565b87929b5092611d6c869460203d602011610731576107228183612cba565b9b925092611bd0565b611d7d612d59565b611bc8565b503461000e57602060031936011261000e57611d9c6103ca565b611dab6002606554141561286e565b6002606555611db8612938565b6001600160a01b0381168060005260c960205260ff6040600020541615611e3557600090815260c96020908152604091829020805460ff1916905581516001600160a01b0393909316835233908301527fdb198487a4c70aa000c3b1020f52688b4b86d3ebcedc84a793e03ed3b480902c91a1610c596001606555565b60046040517f855b7373000000000000000000000000000000000000000000000000000000008152fd5b503461000e57602060031936011261000e57600435611e8a6001600160a01b03603354163314612692565b670de0b6b3a76400008111610ff3576020817f294c562dcfcd9be941287844539aeba4ae641cd1fc9a2883337c6b2e87cbd98a9260ca55604051908152a1005b503461000e57606060031936011261000e57611ee46103ca565b61169a611f1e611ef261040c565b92611f24611f16604435611f0581613370565b611f0f8785614474565b86846144b2565b939092612cfb565b94612cfb565b93604051926339420b4560e11b958685526004611f656020968794858285816001600160a01b03809b165afa918215611fa0575b600092611f885750613d43565b9760405194859384928352165afa928315610ae457600093610ac5575050613d43565b61196b919250863d8811610731576107228183612cba565b611fa8612d59565b611f58565b503461000e576000806003193601126115bd57604051809160d354908183526020809301809260d383527f915c3eb987b20e1af620c1403197bf687fb7f18513b3a73fde6e78c7072c41a690835b8181106120585750505084612011910385612cba565b60405193838594850191818652518092526040850193925b82811061203857505050500390f35b83516001600160a01b031685528695509381019392810192600101612029565b82546001600160a01b031684529286019260019283019201611ffb565b503461000e57602060031936011261000e577f935ce123b6388f8dbf76890f8240a48198f1e0a884f26939aa604a46bb65b70660206004356120c36001600160a01b03603354163314612692565b8060ce55604051908152a1005b503461000e57600060031936011261000e57602060cb54604051908152f35b503461000e57602060031936011261000e57602061211361210e6103ca565b6152a1565b604051908152f35b503461000e57602060031936011261000e577f8daa6bb00de042a7d51816fcee4a3d5c1e91a2128fd64fa1a9a38afa0d26beb560206121586103ca565b6001600160a01b039061217082603354163314612692565b612179816129c0565b16807fffffffffffffffffffffffff000000000000000000000000000000000000000060cf54161760cf55604051908152a1005b503461000e57604060031936011261000e576121c76103ca565b6121cf61040c565b906001600160a01b036121e781603354163314612692565b6121f66002606554141561286e565b6002606555612204836129c0565b61220d826129c0565b612230826001600160a01b0380911660005260d460205260406000205416151590565b6122c95761229581600094169183169283855260d46020526122838360408720906001600160a01b03167fffffffffffffffffffffffff0000000000000000000000000000000000000000825416179055565b60d35460d56020526040862055612ae7565b604051917f0bb5715f0f217c2fe9a0c877ea87d474380c641102f3440ee2a4c8b9d97909188484a36122c76001606555565bf35b60046040517f8991c4c4000000000000000000000000000000000000000000000000000000008152fd5b503461000e57602060031936011261000e5760206121136123126103ca565b6150d2565b503461000e57604060031936011261000e5760005460ff8160081c16908160001461245a5750303b155b156123d657158061238e575b61235b602435600435612759565b61236157005b610c597fffffffffffffffffffffffffffffffffffffffffffffffffffffffffffff00ff60005416600055565b6123bf6101007fffffffffffffffffffffffffffffffffffffffffffffffffffffffffffff00ff6000541617600055565b6123d1600160ff196000541617600055565b61234d565b60846040517f08c379a000000000000000000000000000000000000000000000000000000000815260206004820152602e60248201527f496e697469616c697a61626c653a20636f6e747261637420697320616c72656160448201527f647920696e697469616c697a65640000000000000000000000000000000000006064820152fd5b60ff1615612341565b503461000e57602060031936011261000e5760206001600160a01b0361248a610a2a6103ca565b16604051908152f35b503461000e57602060031936011261000e576124ad6103ca565b6001600160a01b036124c481603354163314612692565b8116156124d457610c59906126f7565b60846040517f08c379a000000000000000000000000000000000000000000000000000000000815260206004820152602660248201527f4f776e61626c653a206e6577206f776e657220697320746865207a65726f206160448201527f64647265737300000000000000000000000000000000000000000000000000006064820152fd5b503461000e57602060031936011261000e577ff6b59ffc88fbb27f33470b919e00b41139ee340eb349521f0cbbc1504ce29c3e60206125956103ca565b6001600160a01b03906125ad82603354163314612692565b6125b6816129c0565b16807fffffffffffffffffffffffff000000000000000000000000000000000000000060d054161760d055604051908152a1005b503461000e57602060031936011261000e576004356126156001600160a01b03603354163314612692565b670de0b6b3a76400008111610ff3576020817fc6e60196bbe5909add58d5ae8a27082013670bce0855321773c33085af5c32439260cb55604051908152a1005b503461000e57602060031936011261000e57610c59610f98610a2a6103ca565b503461000e57610f03610efd61268a36610eb6565b929092613a9e565b1561269957565b60646040517f08c379a000000000000000000000000000000000000000000000000000000000815260206004820152602060248201527f4f776e61626c653a2063616c6c6572206973206e6f7420746865206f776e65726044820152fd5b603354906001600160a01b0380911691827fffffffffffffffffffffffff0000000000000000000000000000000000000000821617603355167f8be0079c531659141344cd1fd0a4f28419497f9722a3daafe3b4186f6b6457e06000604051a3565b61277360ff60005460081c1661276e816127e3565b6127e3565b61277c336126f7565b61279b60ff60005460081c16612791816127e3565b60016065556127e3565b60ff196097541660975560ca5560cb55670de0b6b3a764000060cd55337fffffffffffffffffffffffff000000000000000000000000000000000000000060cf54161760cf55565b156127ea57565b60846040517f08c379a000000000000000000000000000000000000000000000000000000000815260206004820152602b60248201527f496e697469616c697a61626c653a20636f6e7472616374206973206e6f74206960448201527f6e697469616c697a696e670000000000000000000000000000000000000000006064820152fd5b1561287557565b60646040517f08c379a000000000000000000000000000000000000000000000000000000000815260206004820152601f60248201527f5265656e7472616e637947756172643a207265656e7472616e742063616c6c006044820152fd5b156128da57565b60646040517f08c379a000000000000000000000000000000000000000000000000000000000815260206004820152601060248201527f5061757361626c653a20706175736564000000000000000000000000000000006044820152fd5b6001600160a01b0360cf5416330361294c57565b60046040517f5bf78ef4000000000000000000000000000000000000000000000000000000008152fd5b6001600160a01b031660005260c960205260ff6040600020541661299657565b60046040517f8654830a000000000000000000000000000000000000000000000000000000008152fd5b6001600160a01b0316156129d057565b60046040517f0bd3e3ed000000000000000000000000000000000000000000000000000000008152fd5b507f4e487b7100000000000000000000000000000000000000000000000000000000600052601160045260246000fd5b81198111612a36570190565b612a3e6129fa565b0190565b507f4e487b7100000000000000000000000000000000000000000000000000000000600052604160045260246000fd5b507f4e487b7100000000000000000000000000000000000000000000000000000000600052603260045260246000fd5b60d354811015612ada575b60d36000527f915c3eb987b20e1af620c1403197bf687fb7f18513b3a73fde6e78c7072c41a60190600090565b612ae2612a72565b612aad565b6001600160a01b0360d35468010000000000000000811015612b73575b600181018060d355811015612b66575b60d36000527f915c3eb987b20e1af620c1403197bf687fb7f18513b3a73fde6e78c7072c41a60191167fffffffffffffffffffffffff0000000000000000000000000000000000000000825416179055565b612b6e612a72565b612b14565b612b7b612a42565b612b04565b6000199060018110612a36570190565b670de0b6b3a7640000818110612ba4570390565b612bac6129fa565b0390565b818110612ba4570390565b60d3548015612c32577f915c3eb987b20e1af620c1403197bf687fb7f18513b3a73fde6e78c7072c41a560001982019180831015612c25575b60d3600052017fffffffffffffffffffffffff0000000000000000000000000000000000000000815416905560d355565b612c2d612a72565b612bf4565b7f4e487b7100000000000000000000000000000000000000000000000000000000600052603160045260246000fd5b67ffffffffffffffff8111612c7557604052565b612c7d612a42565b604052565b60a0810190811067ffffffffffffffff821117612c7557604052565b6040810190811067ffffffffffffffff821117612c7557604052565b90601f7fffffffffffffffffffffffffffffffffffffffffffffffffffffffffffffffe0910116810190811067ffffffffffffffff821117612c7557604052565b612d1e816001600160a01b0380911660005260d460205260406000205416151590565b15610e8c576001600160a01b0380911660005260d46020526040600020541690565b9081602091031261000e575160ff8116810361000e5790565b506040513d6000823e3d90fd5b9081602091031261000e5751612d7b81611100565b90565b9081602091031261000e575190565b600091612e45949383926040519560208701937f23b872dd0000000000000000000000000000000000000000000000000000000085526001600160a01b03938480921660248a0152166044880152606487015260648652612ded86612c82565b16908260405195612dfd87612c9e565b602087527f5361666545524332303a206c6f772d6c6576656c2063616c6c206661696c65646020880152612e33843b1515612ef7565b51925af1612e3f612f5c565b90612fc8565b805180612e50575050565b81602080612e6593612e6a9501019101612d66565b612e6c565b565b15612e7357565b60846040517f08c379a000000000000000000000000000000000000000000000000000000000815260206004820152602a60248201527f5361666545524332303a204552433230206f7065726174696f6e20646964206e60448201527f6f742073756363656564000000000000000000000000000000000000000000006064820152fd5b15612efe57565b60646040517f08c379a000000000000000000000000000000000000000000000000000000000815260206004820152601d60248201527f416464726573733a2063616c6c20746f206e6f6e2d636f6e74726163740000006044820152fd5b3d15612fc3573d9067ffffffffffffffff8211612fb6575b60405191612faa60207fffffffffffffffffffffffffffffffffffffffffffffffffffffffffffffffe0601f8401160184612cba565b82523d6000602084013e565b612fbe612a42565b612f74565b606090565b90919015612fd4575090565b815115612fe45750805190602001fd5b604051907f08c379a00000000000000000000000000000000000000000000000000000000082528160208060048301528251928360248401526000915b84831061306e575050601f836044947fffffffffffffffffffffffffffffffffffffffffffffffffffffffffffffffe09311613061575b01168101030190fd5b6000858286010152613058565b8183018101518684016044015285935091820191613021565b60ff7fffffffffffffffffffffffffffffffffffffffffffffffffffffffffffffffee911660128110612a36570190565b60ff16806012106130ca575b60120390565b6130d26129fa565b6130c4565b60ff16604d81116130e9575b600a0a90565b6130f16129fa565b6130e3565b507f4e487b7100000000000000000000000000000000000000000000000000000000600052601260045260246000fd5b8115613130570490565b6131386130f6565b0490565b806000190482118115151661314f570290565b6131576129fa565b0290565b9060ff8116601281101561318557509061317f61317a612d7b936130b8565b6130d7565b9061313c565b601210613190575090565b61317a61319c91613087565b908115613130570490565b42116131af57565b60046040517f549b6335000000000000000000000000000000000000000000000000000000008152fd5b939192936131e6816153d2565b6001600160a01b036131f883836133f9565b5091909261321084809861320b82613370565b6133a1565b1690813b1561000e576040517f16c9e7a00000000000000000000000000000000000000000000000000000000081526004810194909452600093848160248183875af18015613363575b613350575b50813b1561334c576040517fa0f0f6040000000000000000000000000000000000000000000000000000000081526004810191909152838160248183865af1801561333f575b61332c575b50803b15613328576040517f40c10f190000000000000000000000000000000000000000000000000000000081526001600160a01b039690961660048701526024860191909152929391928290604490829084905af1801561331b575b61330e5750565b8061068d612e6a92612c61565b613323612d59565b613307565b8280fd5b8061068d61333992612c61565b386132aa565b613347612d59565b6132a5565b8380fd5b8061068d61335d92612c61565b3861325f565b61336b612d59565b61325a565b1561337757565b60046040517f3f3835e7000000000000000000000000000000000000000000000000000000008152fd5b116133a857565b60046040517ff512a720000000000000000000000000000000000000000000000000000000008152fd5b9081602091031261000e57516effffffffffffffffffffffffffffff8116810361000e5790565b906001600160a01b0360009216604051917f961be3910000000000000000000000000000000000000000000000000000000083526020908184600481865afa938415613601575b6000946135e2575b50604051907f705727b500000000000000000000000000000000000000000000000000000000948583528383600481885afa9283156135d5575b6000936135ae575b506134b26134b79160ca54906effffffffffffffffffffffffffffff80809716911685613ad9565b61360e565b958187106135a557506134ca9086612bb0565b935b6040519081528281600481875afa908115613598575b60009161357b575b5016906000826134fc57505050508192565b6004826135499361354e96604051938480927f18160ddd0000000000000000000000000000000000000000000000000000000082525afa92831561356e575b92613551575b50508561313c565b613126565b92565b6135679250803d1061076b5761075d8183612cba565b3880613541565b613576612d59565b61353b565b6135929150833d85116106f5576106e68183612cba565b386134ea565b6135a0612d59565b6134e2565b949550946134cc565b6134b79193506135cd6134b291863d88116106f5576106e68183612cba565b93915061348a565b6135dd612d59565b613482565b6135fa919450823d84116106f5576106e68183612cba565b9238613448565b613609612d59565b613440565b600081126136195790565b60646040517f08c379a000000000000000000000000000000000000000000000000000000000815260206004820152601660248201527f76616c7565206d75737420626520706f736974697665000000000000000000006044820152fd5b60008112906706f05b59d3b2000091817f7fffffffffffffffffffffffffffffffffffffffffffffffffffffffffffffff0383138115166136e1575b817f800000000000000000000000000000000000000000000000000000000000000003831216612a36570190565b6136e96129fa565b6136b3565b60008112817f7fffffffffffffffffffffffffffffffffffffffffffffffffffffffffffffff0383138115166136e157817f800000000000000000000000000000000000000000000000000000000000000003831216612a36570190565b670de0b6b3a76400006000821280157f800000000000000000000000000000000000000000000000000000000000000084018312166137b4575b827f7fffffffffffffffffffffffffffffffffffffffffffffffffffffffffffffff01821316612ba4570390565b6137bc6129fa565b613786565b60008212827f80000000000000000000000000000000000000000000000000000000000000000182128115166137b457827f7fffffffffffffffffffffffffffffffffffffffffffffffffffffffffffffff01821316612ba4570390565b6001817f7fffffffffffffffffffffffffffffffffffffffffffffffffffffffffffffff04600211600083131616613895575b60017fc0000000000000000000000000000000000000000000000000000000000000008212600083121616613888575b60011b90565b6138906129fa565b613882565b61389d6129fa565b613852565b6001817f7fffffffffffffffffffffffffffffffffffffffffffffffffffffffffffffff04600411600083131616613918575b60017fe000000000000000000000000000000000000000000000000000000000000000821260008312161661390b575b60021b90565b6139136129fa565b613905565b6139206129fa565b6138d5565b670de0b6b3a76400009060017809392ee8e921d5d073aff322e62439fcf32d7f344649470f90821160008313161661398b575b60017ffffffffffffffff6c6d11716de2a2f8c500cdd19dbc6030cd280cbb9b6b8f070821260008312161661314f570290565b6139936129fa565b613958565b600082136000821390837f7fffffffffffffffffffffffffffffffffffffffffffffffffffffffffffffff818104851183851616613a40575b60008212927f800000000000000000000000000000000000000000000000000000000000000094848787058512911616613a33575b82600087129505861290851616613a26575b05831291161661314f570290565b613a2e6129fa565b613a18565b613a3b6129fa565b613a06565b613a486129fa565b6139d1565b8115613a91575b60001982147f8000000000000000000000000000000000000000000000000000000000000000821416613a85570590565b613a8d6129fa565b0590565b613a996130f6565b613a54565b7f80000000000000000000000000000000000000000000000000000000000000008114613acc575b60000390565b613ad46129fa565b613ac6565b90918015613c5b576000613aed83856136ee565b12613c3157829181613afe84613925565b60028205613b0b916136ee565b90613b1591613a4d565b93613b1f916136ee565b670de0b6b3a7640000809381613b348861374c565b613b3e9085613998565b613b4790613677565b0582613b53868a613998565b613b5c90613677565b05613b669061381f565b613b6f916136ee565b95613b7a8589613998565b90613b8491613a4d565b613b8d916137c1565b613b979083613c81565b9180613ba291613998565b613bab90613677565b05613bb5916137c1565b91613bc08286613998565b613bc990613677565b0590613bd491613c81565b613bdd916136ee565b613be78280613998565b90613bf1846138a2565b90613bfb91613998565b613c04916137c1565b613c0d82613a9e565b91613c1791613c97565b613c20916136ee565b90613c2a91613c62565b6002900590565b60046040517fae032660000000000000000000000000000000000000000000000000000000008152fd5b5091505090565b90613c7c613c72612d7b93613925565b60028305906136ee565b613a4d565b6117e1670de0b6b3a764000092613a8d92613998565b919060006003841315613d3457506000811380613d2a575b15613cf357915b613ccc613c2a84613cc78185613a4d565b6136ee565b905b838203613cd9575050565b909250613ced613c2a84613cc78185613a4d565b90613cce565b6000811280613d18575b15613d1157613d0b90613a9e565b91613cb6565b5081613cb6565b5082613d2382613a9e565b1315613cfd565b5082811315613caf565b929050613d3d57565b60019150565b9060ff81166012811015613d5e575061317a61319c916130b8565b601210613d69575090565b9061317f61317a612d7b93613087565b9190613d84836153d2565b613d8e818461415b565b5090936001600160a01b031684813b1561000e576040928351917f9dc29fac000000000000000000000000000000000000000000000000000000008352600092838180613df660049a898c8401602090939291936001600160a01b0360408201951681520152565b038183895af1801561408e575b61407b575b50833b156133285784517f9f9ef98800000000000000000000000000000000000000000000000000000000815286810191825290839082908190602001038183885af1801561406e575b61405b575b50823b156140575783517fd8b8785300000000000000000000000000000000000000000000000000000000815285810191825290829082908190602001038183875af1801561404a575b614037575b5082517f705727b5000000000000000000000000000000000000000000000000000000009081815260209081818881885afa90811561402a575b849161400d575b506effffffffffffffffffffffffffffff80911615159384613f38575b505050509050613f12575050565b517f5bf78ef4000000000000000000000000000000000000000000000000000000008152fd5b613faa9450662386f26fc10000958751937f961be39100000000000000000000000000000000000000000000000000000000855280858b81855afa948515614000575b8395613fdf575b50808495968b8b518095819382525afa928315613fd2575b92613fb5575b5050169116614126565b108038808080613f04565b613fcb9250803d106106f5576106e68183612cba565b3880613fa0565b613fda612d59565b613f9a565b849550613ff98291823d84116106f5576106e68183612cba565b9550613f82565b614008612d59565b613f7b565b6140249150823d84116106f5576106e68183612cba565b38613ee7565b614032612d59565b613ee0565b8061068d61404492612c61565b38613ea6565b614052612d59565b613ea1565b5080fd5b8061068d61406892612c61565b38613e57565b614076612d59565b613e52565b8061068d61408892612c61565b38613e08565b614096612d59565b613e03565b6001600160a01b03909392936140b0816153d2565b6140ba838261415b565b509290916140c98380986133a1565b1690813b1561000e576040928351917f9dc29fac000000000000000000000000000000000000000000000000000000008352600092838180613df660049a898c8401602090939291936001600160a01b0360408201951681520152565b61312690670de0b6b3a7640000816000190481118215151661414e575b8360011c9102612a2a565b6141566129fa565b614143565b916001600160a01b036000931691604051927f705727b500000000000000000000000000000000000000000000000000000000908185526020928386600481855afa958615614370575b60009661433b575b509161429d939161421b6141d66134b2956effffffffffffffffffffffffffffff809a1661313c565b604051907f18160ddd0000000000000000000000000000000000000000000000000000000082528582600481875afa91821561432e575b60009261430f575b50613126565b9661422588613370565b61422e88613a9e565b9184604051947f961be3910000000000000000000000000000000000000000000000000000000086528186600481865afa958615614302575b6000966142e3575b5060046040518094819382525afa9485156142d6575b6000956142b7575b50508060ca54941692169061437d565b928383106142b05750612d7b8383612bb0565b9092508192565b6142ce929550803d106106f5576106e68183612cba565b92388061428d565b6142de612d59565b614285565b6142fb919650823d84116106f5576106e68183612cba565b943861426f565b61430a612d59565b614267565b614327919250863d881161076b5761075d8183612cba565b9038614215565b614336612d59565b61420d565b6134b2939196509161421b6141d6614363879561429d983d88116106f5576106e68183612cba565b98939550505091936141ad565b614378612d59565b6141a5565b92909261438a81846136ee565b908361439586613925565b600282056143a2916136ee565b906143ac91613a4d565b80946143b785613925565b90670de0b6b3a7640000968088949360028695056143d4916136ee565b906143de91613a4d565b6143e7916137c1565b6143f091613998565b6143f990613677565b05916144048561374c565b61440d91613998565b61441690613677565b05614420916136ee565b600290059283926144318480613998565b928061443c91613998565b61444591613998565b61444e90613677565b05614458916136ee565b9061446291613c97565b61446b916136ee565b612d7b916137c1565b6001600160a01b0390811691161461448857565b60046040517feeb7911f000000000000000000000000000000000000000000000000000000008152fd5b6144be6144c491612cfb565b91612cfb565b6144ce838361415b565b50509182936001600160a01b03808316604051917f961be39100000000000000000000000000000000000000000000000000000000958684526020978885600481875afa948515614716575b6000956146f7575b5061459682614590614546846effffffffffffffffffffffffffffff809a16612bb0565b98888d60405181816004817f705727b5000000000000000000000000000000000000000000000000000000009e8f82525afa9182156146ea575b6000926146cd575b505016612bb0565b986148e2565b670de0b6b3a76400008103614673575b505092879592614618988a9693614606999616916040519687528187600481865afa968715614666575b600097614647575b5060046040518094819382525afa96871561463a575b60009761461b575b50508060ca549616931690614778565b61461260cb5482614723565b90612bb0565b91565b614632929750803d106106f5576106e68183612cba565b9438806145f6565b614642612d59565b6145ee565b61465f919750823d84116106f5576106e68183612cba565b95386145d8565b61466e612d59565b6145d0565b8997939a50986146bc6146a28b6146b66146a2826146189f6146069f9c999d6146b0916146a2919d9a9d61313c565b670de0b6b3a7640000900490565b9961313c565b9761313c565b9a93969295985098819497506145a6565b6146e39250803d106106f5576106e68183612cba565b388f614588565b6146f2612d59565b614580565b61470f919550893d8b116106f5576106e68183612cba565b9338614522565b61471e612d59565b61451a565b61473f670de0b6b3a7640000926706f05b59d3b200009261313c565b7ffffffffffffffffffffffffffffffffffffffffffffffffff90fa4a62c4dffff811161476b57010490565b6147736129fa565b010490565b92919493909385158015614838575b613c3157611695846117ff8561481b81613c7c8c6147f96148116148269f8f6148219f61480c6118059f8f85670de0b6b3a76400006147ff6117e1614806948f6147f99061180b8c613c7c6147f2613c7c9f9e613c729f6147eb613c7c91836136ee565b9c80613998565b9380613998565b90613998565b05906137c1565b9d6136ee565b613925565b6117ff818c613c62565b92613c62565b6137c1565b6000811215612d7b57612d7b90613a9e565b508215614787565b80614821613a8d926148c360029561180b61485b8480613998565b9160017f1fffffffffffffffffffffffffffffffffffffffffffffffffffffffffffffff82116000831316166148d5575b60017fe00000000000000000000000000000000000000000000000000000000000000082126000831216166148c8575b881b613925565b613c97565b6148d06129fa565b6148bc565b6148dd6129fa565b61488c565b90612d7b91604051907f2fa3a0d200000000000000000000000000000000000000000000000000000000808352602093849182856004816001600160a01b038098165afa9485156149e7575b6000956149c5575b5060049060405194859384928352165afa9283156149b8575b600093614999575b50507812725dd1d243aba0e75fe645cc4873f9e65afe688c928e1f21811160011661498c575b670de0b6b3a764000002613126565b6149946129fa565b61497d565b6149b0929350803d1061076b5761075d8183612cba565b903880614957565b6149c0612d59565b61494f565b60049195506149e090843d861161076b5761075d8183612cba565b9490614936565b6149ef612d59565b61492e565b92939190614a03828286614c42565b8093919395614a138580996133a1565b614a30846001600160a01b031660005260d2602052604060002090565b614a3b838254612a2a565b90556001600160a01b0380911693843b1561000e576040517f16c9e7a00000000000000000000000000000000000000000000000000000000081526004810194909452600094614aa7949086908290602490829084905af18015614c35575b614c22575b501693612a2a565b823b15614057576040517f9f9ef9880000000000000000000000000000000000000000000000000000000081526004810191909152662386f26fc1000092614b9e929091818160248183875af18015614c15575b614c02575b50604051917f961be3910000000000000000000000000000000000000000000000000000000083526020908184600481845afa938415614bf5575b8394614bcf575b509080600492604051938480927f705727b50000000000000000000000000000000000000000000000000000000082525afa928315614bc2575b92614ba5575b50506effffffffffffffffffffffffffffff8091169116614126565b1061294c57565b614bbb9250803d106106f5576106e68183612cba565b3880614b82565b614bca612d59565b614b7c565b8291945091614bec600493823d84116106f5576106e68183612cba565b94919250614b42565b614bfd612d59565b614b3b565b8061068d614c0f92612c61565b38614b00565b614c1d612d59565b614afb565b8061068d614c2f92612c61565b38614a9f565b614c3d612d59565b614a9a565b91906000808312614f62575b6001600160a01b03918285169460409182519384847f961be391000000000000000000000000000000000000000000000000000000009384835260209889848d60049b8c915afa938415614f55575b8594614f36575b508b614d276effffffffffffffffffffffffffffff80961693868d8d818c848d8c51848187817f705727b5000000000000000000000000000000000000000000000000000000009e8f82525afa918215614f29575b91614f0c575b50169886169a519283918252818c5afa918215614eff575b8b92614ee2575b505016996148e2565b670de0b6b3a76400008103614e9e575b50918b918b614d6995948c8c518097819382525afa938415614e91575b8794614e72575b50888660ca54951692614778565b988289139788958b9087614e68575b50508515614de6575b5050505050614dc057505015614da85750614618614da160cb5483614723565b8092612bb0565b9190614db7612d7b9193613a9e565b60cb5490614723565b517f9a6114b7000000000000000000000000000000000000000000000000000000008152fd5b9091928094955089129485614e05575b50505050503880808080614d81565b8192939495508787518095819382525afa938415614e5b575b93614e3c575b5050614e2f86613a9e565b9116103880808080614df6565b614e53929350803d106106f5576106e68183612cba565b903880614e24565b614e63612d59565b614e1e565b1095508a38614d78565b614e8a9194508c8d3d106106f5576106e68183612cba565b9238614d5b565b614e99612d59565b614d54565b9b614ed7614ec98e8e9f6146a2816146b66146a2614ec394614d699d9c9b9a9b61313c565b93613998565b670de0b6b3a7640000900590565b9c5091909293614d37565b614ef89250803d106106f5576106e68183612cba565b388f614d1e565b614f07612d59565b614d17565b614f239150843d86116106f5576106e68183612cba565b38614cff565b614f31612d59565b614cf9565b614f4e9194508a3d8c116106f5576106e68183612cba565b9238614ca4565b614f5d612d59565b614c9d565b91614f7890614f7260cb5461374c565b90613c62565b91614c4e565b92919092614f8c8482614474565b81156114f857612d7b91614fab614fa5614fef93612cfb565b95612cfb565b60405161501e614ff56339420b4560e11b988984528460209788956001600160a01b039887826004818d89165afa918215615085575b600092615066575b50615092565b91614c42565b9490931692604051908982528382600481885afa918215615059575b6000926150415750613d43565b9660046040518094819382525afa928315610ae457600093610ac5575050613d43565b61196b919250843d8611610731576107228183612cba565b615061612d59565b615011565b61507e919250883d8a11610731576107228183612cba565b9038614fe9565b61508d612d59565b614fe1565b9060ff811660128110156150b15750906147f961317a612d7b936130b8565b6012106150bc575090565b906150cc61317a612d7b93613087565b90613a4d565b610d4b6150de91612cfb565b6040517f18160ddd000000000000000000000000000000000000000000000000000000008082526020918281600481875afa908115615237575b60009161521a575b501561520b57612d7b9282604051927f705727b50000000000000000000000000000000000000000000000000000000084528184600481865afa9384156151fe575b6000946151df575b5060046040518094819382525afa9283156151d2575b6000936151a0575b50506effffffffffffffffffffffffffffff16614126565b6effffffffffffffffffffffffffffff92935090816151ca92903d1061076b5761075d8183612cba565b919038615188565b6151da612d59565b615180565b6151f7919450823d84116106f5576106e68183612cba565b923861516a565b615206612d59565b615162565b505050670de0b6b3a764000090565b6152319150833d851161076b5761075d8183612cba565b38615120565b61523f612d59565b615118565b6001906000198114612a36570190565b6001600160a01b039060d354811015615294575b60d36000527f915c3eb987b20e1af620c1403197bf687fb7f18513b3a73fde6e78c7072c41a601541690565b61529c612a72565b615268565b6152ad612d7b91612cfb565b6105da6105c06001600160a01b0383166effffffffffffffffffffffffffffff61533f60046040517f99c91a640000000000000000000000000000000000000000000000000000000081526020928184818582958a5afa9081156153c5575b6000916153a8575b50604051906339420b4560e11b8252838286818b5afa91821561539b575b600092615383575061315b565b94604051928380927f961be3910000000000000000000000000000000000000000000000000000000082525afa9182156106fc576000926106cf5750501690612bb0565b61072a919250843d8611610731576107228183612cba565b6153a3612d59565b615332565b6153bf9150833d851161076b5761075d8183612cba565b38615314565b6153cd612d59565b61530c565b6153ef816001600160a01b031660005260d2602052604060002090565b5480158015615634575b6156305761541d61541761540e60cd54612b90565b60cc5490612bb0565b82614723565b9081615559575b615432915060cd5490614723565b80615456575b506001600160a01b0316600090815260d26020526040812055565b55565b61546081836133f9565b50916001600160a01b0384169150813b1561000e576040517fa0f0f6040000000000000000000000000000000000000000000000000000000081526004810193909352600092838160248183875af1801561554c575b615539575b50813b15613328576040517f16c9e7a000000000000000000000000000000000000000000000000000000000815260048101919091526000936154539390928290602490829084905af1801561552c575b615519575b509150615438565b8061068d61552692612c61565b38615511565b615534612d59565b61550c565b8061068d61554692612c61565b386154bb565b615554612d59565b6154b6565b6001600160a01b0383166155a461557860d0546001600160a01b031690565b93604051906339420b4560e11b8252602082600481875afa918215611972576000926119525750613d43565b92813b1561000e576040517f9e79eaa50000000000000000000000000000000000000000000000000000000081526001600160a01b03919091166004820152602481019390935261543292906000908290604490829084905af18015615623575b615610575b50615424565b8061068d61561d92612c61565b3861560a565b61562b612d59565b615605565b5050565b5060ce5481106153f956fea2646970667358221220cfeb001e5e905005253ffadb5bc51861faa2a4974e88c72401f75d307f0d5adb64736f6c634300080f0033",
  "devdoc": {
    "details": "Supports dynamic assets. Assume r* to be close to 1. Be aware that r* changes when the relative price of the asset updates",
    "kind": "dev",
    "methods": {
      "addAsset(address,address)": {
        "params": {
          "asset": "The address of the Wombat Asset contract",
          "token": "The address of token"
        }
      },
      "addressOfAsset(address)": {
        "details": "to be used externally",
        "params": {
          "token": "The address of ERC20 token"
        }
      },
      "deposit(address,uint256,uint256,address,uint256,bool)": {
        "details": "Asset needs to be created and added to pool before any operation. This function assumes tax free token.",
        "params": {
          "amount": "The amount to be deposited",
          "deadline": "The deadline to be respected",
          "to": "The user accountable for deposit, receiving the Wombat assets (lp)",
          "token": "The token address to be deposited"
        },
        "returns": {
          "liquidity": "Total asset liquidity minted"
        }
      },
      "exchangeRate(address)": {
        "params": {
          "token": "The address of the token"
        },
        "returns": {
          "xr": "The exchange rate of LP token"
        }
      },
      "mintFee(address)": {
        "params": {
          "token": "The address of the token to collect fee"
        }
      },
      "owner()": {
        "details": "Returns the address of the current owner."
      },
      "pause()": {
        "details": "pause pool, restricting certain operations"
      },
      "pauseAsset(address)": {
        "details": "pause asset, restricting deposit and swap operations"
      },
      "paused()": {
        "details": "Returns true if the contract is paused, and false otherwise."
      },
      "quoteAmountIn(address,address,int256)": {
        "details": "To be used by frontend",
        "params": {
          "fromToken": "The initial ERC20 token",
          "toAmount": "The given output amount",
          "toToken": "The token wanted by user"
        },
        "returns": {
          "amountIn": "The input amount required",
          "haircut": "The haircut that would be applied"
        }
      },
      "quotePotentialDeposit(address,uint256)": {
        "details": "To be used by frontend",
        "params": {
          "amount": "The amount to deposit",
          "token": "The token to deposit by user"
        },
        "returns": {
          "liquidity": "The potential liquidity user would receive",
          "reward": "reward"
        }
      },
      "quotePotentialSwap(address,address,int256)": {
        "details": "To be used by frontend",
        "params": {
          "fromAmount": "The given input amount",
          "fromToken": "The initial ERC20 token",
          "toToken": "The token wanted by user"
        },
        "returns": {
          "haircut": "The haircut that would be applied",
          "potentialOutcome": "The potential amount user would receive"
        }
      },
      "quotePotentialWithdraw(address,uint256)": {
        "details": "To be used by frontend",
        "params": {
          "liquidity": "The liquidity (amount of lp assets) to be withdrawn",
          "token": "The token to be withdrawn by user"
        },
        "returns": {
          "amount": "The potential amount user would receive",
          "fee": "The fee that would be applied"
        }
      },
      "quotePotentialWithdrawFromOtherAsset(address,address,uint256)": {
        "details": "To be used by frontend",
        "params": {
          "fromToken": "The corresponding token user holds the LP (Asset) from",
          "liquidity": "The liquidity (amount of the lp assets) to be withdrawn",
          "toToken": "The token wanting to be withdrawn (needs to be well covered)"
        },
        "returns": {
          "amount": "The potential amount user would receive",
          "withdrewAmount": "The amount of the from-token that is withdrew"
        }
      },
      "removeAsset(address)": {
        "details": "Can only be called by owner",
        "params": {
          "token": "The address of token to remove"
        }
      },
      "renounceOwnership()": {
        "details": "Leaves the contract without owner. It will not be possible to call `onlyOwner` functions anymore. Can only be called by the current owner. NOTE: Renouncing ownership will leave the contract without an owner, thereby removing any functionality that is only available to the owner."
      },
      "setAmpFactor(uint256)": {
        "params": {
          "ampFactor_": "new pool's amplification factor"
        }
      },
      "setDev(address)": {
        "params": {
          "dev_": "new contract dev address"
        }
      },
      "setFeeTo(address)": {
        "params": {
          "feeTo_": "new fee beneficiary"
        }
      },
      "setHaircutRate(uint256)": {
        "params": {
          "haircutRate_": "new pool's haircutRate_"
        }
      },
      "swap(address,address,uint256,uint256,address,uint256)": {
        "details": "This function assumes tax free token.",
        "params": {
          "deadline": "The deadline to be respected",
          "fromAmount": "The amount of from token inserted",
          "fromToken": "The token being inserted into Pool by user for swap",
          "minimumToAmount": "The minimum amount that will be accepted by user as result",
          "to": "The user receiving the result of swap",
          "toToken": "The token wanted by user, leaving the Pool"
        }
      },
      "transferOwnership(address)": {
        "details": "Transfers ownership of the contract to a new account (`newOwner`). Can only be called by the current owner."
      },
      "unpause()": {
        "details": "unpause pool, enabling certain operations"
      },
      "unpauseAsset(address)": {
        "details": "unpause asset, enabling deposit and swap operations"
      },
      "withdraw(address,uint256,uint256,address,uint256)": {
        "params": {
          "deadline": "The deadline to be respected",
          "liquidity": "The liquidity to be withdrawn",
          "minimumAmount": "The minimum amount that will be accepted by user",
          "to": "The user receiving the withdrawal",
          "token": "The token to be withdrawn"
        },
        "returns": {
          "amount": "The total amount withdrawn"
        }
      },
      "withdrawFromOtherAsset(address,address,uint256,uint256,address,uint256)": {
        "params": {
          "deadline": "The deadline to be respected",
          "fromToken": "The corresponding token user holds the LP (Asset) from",
          "liquidity": "The liquidity to be withdrawn (in fromToken decimal)",
          "minimumAmount": "The minimum amount that will be accepted by user",
          "to": "The user receiving the withdrawal",
          "toToken": "The token wanting to be withdrawn (needs to be well covered)"
        },
        "returns": {
          "toAmount": "The total amount withdrawn"
        }
      }
    },
    "title": "Dynamic Pool",
    "version": 1
  },
  "userdoc": {
    "events": {
      "AssetAdded(address,address)": {
        "notice": "An event thats emitted when an asset is added to Pool"
      },
      "AssetRemoved(address,address)": {
        "notice": "An event thats emitted when asset is removed from Pool"
      },
      "Deposit(address,address,uint256,uint256,address)": {
        "notice": "An event thats emitted when a deposit is made to Pool"
      },
      "Swap(address,address,address,uint256,uint256,address)": {
        "notice": "An event thats emitted when a swap is made in Pool"
      },
      "Withdraw(address,address,uint256,uint256,address)": {
        "notice": "An event thats emitted when a withdrawal is made from Pool"
      }
    },
    "kind": "user",
    "methods": {
      "addAsset(address,address)": {
        "notice": "Adds asset to pool, reverts if asset already exists in pool"
      },
      "addressOfAsset(address)": {
        "notice": "Gets Asset corresponding to ERC20 token. Reverts if asset does not exists in Pool."
      },
      "ampFactor()": {
        "notice": "Amplification factor"
      },
      "deposit(address,uint256,uint256,address,uint256,bool)": {
        "notice": "Deposits amount of tokens into pool ensuring deadline"
      },
      "dev()": {
        "notice": "Dev address"
      },
      "exchangeRate(address)": {
        "notice": "Returns the exchange rate of the LP token"
      },
      "getTokens()": {
        "notice": "Return list of tokens in the pool"
      },
      "haircutRate()": {
        "notice": "Haircut rate"
      },
      "initialize(uint256,uint256)": {
        "notice": "Initializes pool. Dev is set to be the account calling this function."
      },
      "lpDividendRatio()": {
        "notice": "LP dividend ratio : the ratio of haircut that should distribute to LP"
      },
      "mintFee(address)": {
        "notice": "Send fee collected to the fee beneficiary"
      },
      "mintFeeThreshold()": {
        "notice": "The threshold to mint fee (unit: WAD)"
      },
      "quoteAmountIn(address,address,int256)": {
        "notice": "Returns the minimum input asset amount required to buy the given output asset amount (accounting for fees and slippage)"
      },
      "quotePotentialDeposit(address,uint256)": {
        "notice": "Quotes potential deposit from pool"
      },
      "quotePotentialSwap(address,address,int256)": {
        "notice": "Given an input asset amount and token addresses, calculates the maximum output token amount (accounting for fees and slippage)."
      },
      "quotePotentialWithdraw(address,uint256)": {
        "notice": "Quotes potential withdrawal from pool"
      },
      "quotePotentialWithdrawFromOtherAsset(address,address,uint256)": {
        "notice": "Quotes potential withdrawal from other asset from the pool"
      },
      "removeAsset(address)": {
        "notice": "Removes asset from asset struct"
      },
      "retentionRatio()": {
        "notice": "Retention ratio: the ratio of haircut that should stay in the pool"
      },
      "setAmpFactor(uint256)": {
        "notice": "Changes the pools amplification factor. Can only be set by the contract owner."
      },
      "setDev(address)": {
        "notice": "Changes the contract dev. Can only be set by the contract owner."
      },
      "setFeeTo(address)": {
        "notice": "Changes the fee beneficiary. Can only be set by the contract owner. This value cannot be set to 0 to avoid unsettled fee."
      },
      "setHaircutRate(uint256)": {
        "notice": "Changes the pools haircutRate. Can only be set by the contract owner."
      },
      "setMintFeeThreshold(uint256)": {
        "notice": "Set min fee to mint"
      },
      "swap(address,address,uint256,uint256,address,uint256)": {
        "notice": "Swap fromToken for toToken, ensures deadline and minimumToAmount and sends quoted amount to `to` address"
      },
      "withdraw(address,uint256,uint256,address,uint256)": {
        "notice": "Withdraws liquidity amount of asset to `to` address ensuring minimum amount required"
      },
      "withdrawFromOtherAsset(address,address,uint256,uint256,address,uint256)": {
        "notice": "Enables withdrawing liquidity from an asset using LP from a different asset"
      }
    },
    "notice": "Manages deposits, withdrawals and swaps. Holds a mapping of assets and parameters.",
    "version": 1
  },
  "storageLayout": {
    "storage": [
      {
        "astId": 130,
        "contract": "contracts/wombat-core/pool/DynamicPool.sol:DynamicPool",
        "label": "_initialized",
        "offset": 0,
        "slot": "0",
        "type": "t_bool"
      },
      {
        "astId": 133,
        "contract": "contracts/wombat-core/pool/DynamicPool.sol:DynamicPool",
        "label": "_initializing",
        "offset": 1,
        "slot": "0",
        "type": "t_bool"
      },
      {
        "astId": 651,
        "contract": "contracts/wombat-core/pool/DynamicPool.sol:DynamicPool",
        "label": "__gap",
        "offset": 0,
        "slot": "1",
        "type": "t_array(t_uint256)50_storage"
      },
      {
        "astId": 10,
        "contract": "contracts/wombat-core/pool/DynamicPool.sol:DynamicPool",
        "label": "_owner",
        "offset": 0,
        "slot": "51",
        "type": "t_address"
      },
      {
        "astId": 122,
        "contract": "contracts/wombat-core/pool/DynamicPool.sol:DynamicPool",
        "label": "__gap",
        "offset": 0,
        "slot": "52",
        "type": "t_array(t_uint256)49_storage"
      },
      {
        "astId": 322,
        "contract": "contracts/wombat-core/pool/DynamicPool.sol:DynamicPool",
        "label": "_status",
        "offset": 0,
        "slot": "101",
        "type": "t_uint256"
      },
      {
        "astId": 366,
        "contract": "contracts/wombat-core/pool/DynamicPool.sol:DynamicPool",
        "label": "__gap",
        "offset": 0,
        "slot": "102",
        "type": "t_array(t_uint256)49_storage"
      },
      {
        "astId": 218,
        "contract": "contracts/wombat-core/pool/DynamicPool.sol:DynamicPool",
        "label": "_paused",
        "offset": 0,
        "slot": "151",
        "type": "t_bool"
      },
      {
        "astId": 307,
        "contract": "contracts/wombat-core/pool/DynamicPool.sol:DynamicPool",
        "label": "__gap",
        "offset": 0,
        "slot": "152",
        "type": "t_array(t_uint256)49_storage"
      },
      {
        "astId": 6335,
        "contract": "contracts/wombat-core/pool/DynamicPool.sol:DynamicPool",
        "label": "_pausedAssets",
        "offset": 0,
        "slot": "201",
        "type": "t_mapping(t_address,t_bool)"
      },
      {
        "astId": 6469,
        "contract": "contracts/wombat-core/pool/DynamicPool.sol:DynamicPool",
        "label": "ampFactor",
        "offset": 0,
        "slot": "202",
        "type": "t_uint256"
      },
      {
        "astId": 6472,
        "contract": "contracts/wombat-core/pool/DynamicPool.sol:DynamicPool",
        "label": "haircutRate",
        "offset": 0,
        "slot": "203",
        "type": "t_uint256"
      },
      {
        "astId": 6475,
        "contract": "contracts/wombat-core/pool/DynamicPool.sol:DynamicPool",
        "label": "retentionRatio",
        "offset": 0,
        "slot": "204",
        "type": "t_uint256"
      },
      {
        "astId": 6478,
        "contract": "contracts/wombat-core/pool/DynamicPool.sol:DynamicPool",
        "label": "lpDividendRatio",
        "offset": 0,
        "slot": "205",
        "type": "t_uint256"
      },
      {
        "astId": 6481,
        "contract": "contracts/wombat-core/pool/DynamicPool.sol:DynamicPool",
        "label": "mintFeeThreshold",
        "offset": 0,
        "slot": "206",
        "type": "t_uint256"
      },
      {
        "astId": 6484,
        "contract": "contracts/wombat-core/pool/DynamicPool.sol:DynamicPool",
        "label": "dev",
        "offset": 0,
        "slot": "207",
        "type": "t_address"
      },
      {
        "astId": 6486,
        "contract": "contracts/wombat-core/pool/DynamicPool.sol:DynamicPool",
        "label": "feeTo",
        "offset": 0,
        "slot": "208",
        "type": "t_address"
      },
      {
        "astId": 6488,
        "contract": "contracts/wombat-core/pool/DynamicPool.sol:DynamicPool",
        "label": "masterWombat",
        "offset": 0,
        "slot": "209",
        "type": "t_address"
      },
      {
        "astId": 6494,
        "contract": "contracts/wombat-core/pool/DynamicPool.sol:DynamicPool",
        "label": "_feeCollected",
        "offset": 0,
        "slot": "210",
        "type": "t_mapping(t_contract(IAsset)4205,t_uint256)"
      },
      {
        "astId": 6498,
        "contract": "contracts/wombat-core/pool/DynamicPool.sol:DynamicPool",
        "label": "_assets",
        "offset": 0,
        "slot": "211",
        "type": "t_struct(AssetMap)6466_storage"
      }
    ],
    "types": {
      "t_address": {
        "encoding": "inplace",
        "label": "address",
        "numberOfBytes": "20"
      },
      "t_array(t_address)dyn_storage": {
        "base": "t_address",
        "encoding": "dynamic_array",
        "label": "address[]",
        "numberOfBytes": "32"
      },
      "t_array(t_uint256)49_storage": {
        "base": "t_uint256",
        "encoding": "inplace",
        "label": "uint256[49]",
        "numberOfBytes": "1568"
      },
      "t_array(t_uint256)50_storage": {
        "base": "t_uint256",
        "encoding": "inplace",
        "label": "uint256[50]",
        "numberOfBytes": "1600"
      },
      "t_bool": {
        "encoding": "inplace",
        "label": "bool",
        "numberOfBytes": "1"
      },
      "t_contract(IAsset)4205": {
        "encoding": "inplace",
        "label": "contract IAsset",
        "numberOfBytes": "20"
      },
      "t_mapping(t_address,t_bool)": {
        "encoding": "mapping",
        "key": "t_address",
        "label": "mapping(address => bool)",
        "numberOfBytes": "32",
        "value": "t_bool"
      },
      "t_mapping(t_address,t_contract(IAsset)4205)": {
        "encoding": "mapping",
        "key": "t_address",
        "label": "mapping(address => contract IAsset)",
        "numberOfBytes": "32",
        "value": "t_contract(IAsset)4205"
      },
      "t_mapping(t_address,t_uint256)": {
        "encoding": "mapping",
        "key": "t_address",
        "label": "mapping(address => uint256)",
        "numberOfBytes": "32",
        "value": "t_uint256"
      },
      "t_mapping(t_contract(IAsset)4205,t_uint256)": {
        "encoding": "mapping",
        "key": "t_contract(IAsset)4205",
        "label": "mapping(contract IAsset => uint256)",
        "numberOfBytes": "32",
        "value": "t_uint256"
      },
      "t_struct(AssetMap)6466_storage": {
        "encoding": "inplace",
        "label": "struct Pool.AssetMap",
        "members": [
          {
            "astId": 6456,
            "contract": "contracts/wombat-core/pool/DynamicPool.sol:DynamicPool",
            "label": "keys",
            "offset": 0,
            "slot": "0",
            "type": "t_array(t_address)dyn_storage"
          },
          {
            "astId": 6461,
            "contract": "contracts/wombat-core/pool/DynamicPool.sol:DynamicPool",
            "label": "values",
            "offset": 0,
            "slot": "1",
            "type": "t_mapping(t_address,t_contract(IAsset)4205)"
          },
          {
            "astId": 6465,
            "contract": "contracts/wombat-core/pool/DynamicPool.sol:DynamicPool",
            "label": "indexOf",
            "offset": 0,
            "slot": "2",
            "type": "t_mapping(t_address,t_uint256)"
          }
        ],
        "numberOfBytes": "96"
      },
      "t_uint256": {
        "encoding": "inplace",
        "label": "uint256",
        "numberOfBytes": "32"
      }
    }
  }
}