{
  "address": "0xDA6bd11f30DD2bb9B9B9D094752403C064c5B4A2",
  "abi": [
    {
      "anonymous": false,
      "inputs": [
        {
          "indexed": true,
          "internalType": "uint256",
          "name": "pid",
          "type": "uint256"
        },
        {
          "indexed": false,
          "internalType": "uint256",
          "name": "allocPoint",
          "type": "uint256"
        },
        {
          "indexed": true,
          "internalType": "contract IERC20",
          "name": "lpToken",
          "type": "address"
        },
        {
          "indexed": true,
          "internalType": "contract IRewarder",
          "name": "rewarder",
          "type": "address"
        }
      ],
      "name": "Add",
      "type": "event"
    },
    {
      "anonymous": false,
      "inputs": [
        {
          "indexed": true,
          "internalType": "address",
          "name": "user",
          "type": "address"
        },
        {
          "indexed": true,
          "internalType": "uint256",
          "name": "pid",
          "type": "uint256"
        },
        {
          "indexed": false,
          "internalType": "uint256",
          "name": "amount",
          "type": "uint256"
        }
      ],
      "name": "Deposit",
      "type": "event"
    },
    {
      "anonymous": false,
      "inputs": [
        {
          "indexed": true,
          "internalType": "address",
          "name": "user",
          "type": "address"
        },
        {
          "indexed": true,
          "internalType": "uint256",
          "name": "pid",
          "type": "uint256"
        },
        {
          "indexed": false,
          "internalType": "uint256",
          "name": "amount",
          "type": "uint256"
        }
      ],
      "name": "DepositFor",
      "type": "event"
    },
    {
      "anonymous": false,
      "inputs": [
        {
          "indexed": true,
          "internalType": "address",
          "name": "user",
          "type": "address"
        },
        {
          "indexed": true,
          "internalType": "uint256",
          "name": "pid",
          "type": "uint256"
        },
        {
          "indexed": false,
          "internalType": "uint256",
          "name": "amount",
          "type": "uint256"
        }
      ],
      "name": "EmergencyWithdraw",
      "type": "event"
    },
    {
      "anonymous": false,
      "inputs": [
        {
          "indexed": true,
          "internalType": "address",
          "name": "user",
          "type": "address"
        },
        {
          "indexed": true,
          "internalType": "uint256",
          "name": "pid",
          "type": "uint256"
        },
        {
          "indexed": false,
          "internalType": "uint256",
          "name": "amount",
          "type": "uint256"
        }
      ],
      "name": "Harvest",
      "type": "event"
    },
    {
      "anonymous": false,
      "inputs": [
        {
          "indexed": true,
          "internalType": "address",
          "name": "previousOwner",
          "type": "address"
        },
        {
          "indexed": true,
          "internalType": "address",
          "name": "newOwner",
          "type": "address"
        }
      ],
      "name": "OwnershipTransferred",
      "type": "event"
    },
    {
      "anonymous": false,
      "inputs": [
        {
          "indexed": false,
          "internalType": "address",
          "name": "account",
          "type": "address"
        }
      ],
      "name": "Paused",
      "type": "event"
    },
    {
      "anonymous": false,
      "inputs": [
        {
          "indexed": true,
          "internalType": "uint256",
          "name": "pid",
          "type": "uint256"
        },
        {
          "indexed": false,
          "internalType": "uint256",
          "name": "allocPoint",
          "type": "uint256"
        },
        {
          "indexed": true,
          "internalType": "contract IRewarder",
          "name": "rewarder",
          "type": "address"
        },
        {
          "indexed": false,
          "internalType": "bool",
          "name": "overwrite",
          "type": "bool"
        }
      ],
      "name": "Set",
      "type": "event"
    },
    {
      "anonymous": false,
      "inputs": [
        {
          "indexed": false,
          "internalType": "address",
          "name": "account",
          "type": "address"
        }
      ],
      "name": "Unpaused",
      "type": "event"
    },
    {
      "anonymous": false,
      "inputs": [
        {
          "indexed": true,
          "internalType": "address",
          "name": "user",
          "type": "address"
        },
        {
          "indexed": false,
          "internalType": "uint256",
          "name": "basePartition",
          "type": "uint256"
        },
        {
          "indexed": false,
          "internalType": "uint256",
          "name": "boostedPartition",
          "type": "uint256"
        }
      ],
      "name": "UpdateEmissionPartition",
      "type": "event"
    },
    {
      "anonymous": false,
      "inputs": [
        {
          "indexed": true,
          "internalType": "address",
          "name": "user",
          "type": "address"
        },
        {
          "indexed": false,
          "internalType": "uint256",
          "name": "womPerSec",
          "type": "uint256"
        }
      ],
      "name": "UpdateEmissionRate",
      "type": "event"
    },
    {
      "anonymous": false,
      "inputs": [
        {
          "indexed": true,
          "internalType": "uint256",
          "name": "pid",
          "type": "uint256"
        },
        {
          "indexed": false,
          "internalType": "uint256",
          "name": "lastRewardTimestamp",
          "type": "uint256"
        },
        {
          "indexed": false,
          "internalType": "uint256",
          "name": "lpSupply",
          "type": "uint256"
        },
        {
          "indexed": false,
          "internalType": "uint256",
          "name": "accWomPerShare",
          "type": "uint256"
        }
      ],
      "name": "UpdatePool",
      "type": "event"
    },
    {
      "anonymous": false,
      "inputs": [
        {
          "indexed": true,
          "internalType": "address",
          "name": "user",
          "type": "address"
        },
        {
          "indexed": false,
          "internalType": "address",
          "name": "oldVeWOM",
          "type": "address"
        },
        {
          "indexed": false,
          "internalType": "address",
          "name": "newVeWOM",
          "type": "address"
        }
      ],
      "name": "UpdateVeWOM",
      "type": "event"
    },
    {
      "anonymous": false,
      "inputs": [
        {
          "indexed": true,
          "internalType": "address",
          "name": "user",
          "type": "address"
        },
        {
          "indexed": true,
          "internalType": "uint256",
          "name": "pid",
          "type": "uint256"
        },
        {
          "indexed": false,
          "internalType": "uint256",
          "name": "amount",
          "type": "uint256"
        }
      ],
      "name": "Withdraw",
      "type": "event"
    },
    {
      "inputs": [
        {
          "internalType": "uint256",
          "name": "_allocPoint",
          "type": "uint256"
        },
        {
          "internalType": "contract IERC20",
          "name": "_lpToken",
          "type": "address"
        },
        {
          "internalType": "contract IRewarder",
          "name": "_rewarder",
          "type": "address"
        }
      ],
      "name": "add",
      "outputs": [],
      "stateMutability": "nonpayable",
      "type": "function"
    },
    {
      "inputs": [],
      "name": "basePartition",
      "outputs": [
        {
          "internalType": "uint256",
          "name": "",
          "type": "uint256"
        }
      ],
      "stateMutability": "view",
      "type": "function"
    },
    {
      "inputs": [],
      "name": "boostedPartition",
      "outputs": [
        {
          "internalType": "uint256",
          "name": "",
          "type": "uint256"
        }
      ],
      "stateMutability": "view",
      "type": "function"
    },
    {
      "inputs": [
        {
          "internalType": "uint256",
          "name": "_pid",
          "type": "uint256"
        },
        {
          "internalType": "uint256",
          "name": "_amount",
          "type": "uint256"
        }
      ],
      "name": "deposit",
      "outputs": [
        {
          "internalType": "uint256",
          "name": "",
          "type": "uint256"
        },
        {
          "internalType": "uint256",
          "name": "",
          "type": "uint256"
        }
      ],
      "stateMutability": "nonpayable",
      "type": "function"
    },
    {
      "inputs": [
        {
          "internalType": "uint256",
          "name": "_pid",
          "type": "uint256"
        },
        {
          "internalType": "uint256",
          "name": "_amount",
          "type": "uint256"
        },
        {
          "internalType": "address",
          "name": "_user",
          "type": "address"
        }
      ],
      "name": "depositFor",
      "outputs": [],
      "stateMutability": "nonpayable",
      "type": "function"
    },
    {
      "inputs": [
        {
          "internalType": "uint256",
          "name": "_pid",
          "type": "uint256"
        }
      ],
      "name": "emergencyWithdraw",
      "outputs": [],
      "stateMutability": "nonpayable",
      "type": "function"
    },
    {
      "inputs": [],
      "name": "emergencyWomWithdraw",
      "outputs": [],
      "stateMutability": "nonpayable",
      "type": "function"
    },
    {
      "inputs": [
        {
          "internalType": "contract IERC20",
          "name": "_wom",
          "type": "address"
        },
        {
          "internalType": "contract IVeWom",
          "name": "_veWom",
          "type": "address"
        },
        {
          "internalType": "uint256",
          "name": "_womPerSec",
          "type": "uint256"
        },
        {
          "internalType": "uint256",
          "name": "_basePartition",
          "type": "uint256"
        },
        {
          "internalType": "uint256",
          "name": "_startTimestamp",
          "type": "uint256"
        }
      ],
      "name": "initialize",
      "outputs": [],
      "stateMutability": "nonpayable",
      "type": "function"
    },
    {
      "inputs": [],
      "name": "massUpdatePools",
      "outputs": [],
      "stateMutability": "nonpayable",
      "type": "function"
    },
    {
      "inputs": [
        {
          "internalType": "uint256[]",
          "name": "_pids",
          "type": "uint256[]"
        }
      ],
      "name": "migrate",
      "outputs": [],
      "stateMutability": "nonpayable",
      "type": "function"
    },
    {
      "inputs": [
        {
          "internalType": "uint256[]",
          "name": "_pids",
          "type": "uint256[]"
        }
      ],
      "name": "multiClaim",
      "outputs": [
        {
          "internalType": "uint256",
          "name": "",
          "type": "uint256"
        },
        {
          "internalType": "uint256[]",
          "name": "",
          "type": "uint256[]"
        },
        {
          "internalType": "uint256[]",
          "name": "",
          "type": "uint256[]"
        }
      ],
      "stateMutability": "nonpayable",
      "type": "function"
    },
    {
      "inputs": [],
      "name": "owner",
      "outputs": [
        {
          "internalType": "address",
          "name": "",
          "type": "address"
        }
      ],
      "stateMutability": "view",
      "type": "function"
    },
    {
      "inputs": [],
      "name": "pause",
      "outputs": [],
      "stateMutability": "nonpayable",
      "type": "function"
    },
    {
      "inputs": [],
      "name": "paused",
      "outputs": [
        {
          "internalType": "bool",
          "name": "",
          "type": "bool"
        }
      ],
      "stateMutability": "view",
      "type": "function"
    },
    {
      "inputs": [
        {
          "internalType": "uint256",
          "name": "_pid",
          "type": "uint256"
        },
        {
          "internalType": "address",
          "name": "_user",
          "type": "address"
        }
      ],
      "name": "pendingTokens",
      "outputs": [
        {
          "internalType": "uint256",
          "name": "pendingRewards",
          "type": "uint256"
        },
        {
          "internalType": "address",
          "name": "bonusTokenAddress",
          "type": "address"
        },
        {
          "internalType": "string",
          "name": "bonusTokenSymbol",
          "type": "string"
        },
        {
          "internalType": "uint256",
          "name": "pendingBonusRewards",
          "type": "uint256"
        }
      ],
      "stateMutability": "view",
      "type": "function"
    },
    {
      "inputs": [
        {
          "internalType": "uint256",
          "name": "",
          "type": "uint256"
        },
        {
          "internalType": "address",
          "name": "",
          "type": "address"
        }
      ],
      "name": "pendingWom",
      "outputs": [
        {
          "internalType": "uint256",
          "name": "",
          "type": "uint256"
        }
      ],
      "stateMutability": "view",
      "type": "function"
    },
    {
      "inputs": [
        {
          "internalType": "uint256",
          "name": "",
          "type": "uint256"
        }
      ],
      "name": "poolInfo",
      "outputs": [
        {
          "internalType": "contract IERC20",
          "name": "lpToken",
          "type": "address"
        },
        {
          "internalType": "uint256",
          "name": "allocPoint",
          "type": "uint256"
        },
        {
          "internalType": "uint256",
          "name": "lastRewardTimestamp",
          "type": "uint256"
        },
        {
          "internalType": "uint256",
          "name": "accWomPerShare",
          "type": "uint256"
        },
        {
          "internalType": "contract IRewarder",
          "name": "rewarder",
          "type": "address"
        },
        {
          "internalType": "uint256",
          "name": "sumOfFactors",
          "type": "uint256"
        },
        {
          "internalType": "uint256",
          "name": "accWomPerFactorShare",
          "type": "uint256"
        }
      ],
      "stateMutability": "view",
      "type": "function"
    },
    {
      "inputs": [],
      "name": "poolLength",
      "outputs": [
        {
          "internalType": "uint256",
          "name": "",
          "type": "uint256"
        }
      ],
      "stateMutability": "view",
      "type": "function"
    },
    {
      "inputs": [],
      "name": "renounceOwnership",
      "outputs": [],
      "stateMutability": "nonpayable",
      "type": "function"
    },
    {
      "inputs": [
        {
          "internalType": "uint256",
          "name": "_pid",
          "type": "uint256"
        }
      ],
      "name": "rewarderBonusTokenInfo",
      "outputs": [
        {
          "internalType": "address",
          "name": "bonusTokenAddress",
          "type": "address"
        },
        {
          "internalType": "string",
          "name": "bonusTokenSymbol",
          "type": "string"
        }
      ],
      "stateMutability": "view",
      "type": "function"
    },
    {
      "inputs": [
        {
          "internalType": "uint256",
          "name": "_pid",
          "type": "uint256"
        },
        {
          "internalType": "uint256",
          "name": "_allocPoint",
          "type": "uint256"
        },
        {
          "internalType": "contract IRewarder",
          "name": "_rewarder",
          "type": "address"
        },
        {
          "internalType": "bool",
          "name": "overwrite",
          "type": "bool"
        }
      ],
      "name": "set",
      "outputs": [],
      "stateMutability": "nonpayable",
      "type": "function"
    },
    {
      "inputs": [
        {
          "internalType": "contract IMasterWombat",
          "name": "_newMasterWombat",
          "type": "address"
        }
      ],
      "name": "setNewMasterWombat",
      "outputs": [],
      "stateMutability": "nonpayable",
      "type": "function"
    },
    {
      "inputs": [
        {
          "internalType": "contract IVeWom",
          "name": "_newVeWom",
          "type": "address"
        }
      ],
      "name": "setVeWom",
      "outputs": [],
      "stateMutability": "nonpayable",
      "type": "function"
    },
    {
      "inputs": [],
      "name": "startTimestamp",
      "outputs": [
        {
          "internalType": "uint256",
          "name": "",
          "type": "uint256"
        }
      ],
      "stateMutability": "view",
      "type": "function"
    },
    {
      "inputs": [],
      "name": "totalAllocPoint",
      "outputs": [
        {
          "internalType": "uint256",
          "name": "",
          "type": "uint256"
        }
      ],
      "stateMutability": "view",
      "type": "function"
    },
    {
      "inputs": [
        {
          "internalType": "address",
          "name": "newOwner",
          "type": "address"
        }
      ],
      "name": "transferOwnership",
      "outputs": [],
      "stateMutability": "nonpayable",
      "type": "function"
    },
    {
      "inputs": [],
      "name": "unpause",
      "outputs": [],
      "stateMutability": "nonpayable",
      "type": "function"
    },
    {
      "inputs": [
        {
          "internalType": "uint256",
          "name": "_basePartition",
          "type": "uint256"
        }
      ],
      "name": "updateEmissionPartition",
      "outputs": [],
      "stateMutability": "nonpayable",
      "type": "function"
    },
    {
      "inputs": [
        {
          "internalType": "uint256",
          "name": "_womPerSec",
          "type": "uint256"
        }
      ],
      "name": "updateEmissionRate",
      "outputs": [],
      "stateMutability": "nonpayable",
      "type": "function"
    },
    {
      "inputs": [
        {
          "internalType": "address",
          "name": "_user",
          "type": "address"
        },
        {
          "internalType": "uint256",
          "name": "_newVeWomBalance",
          "type": "uint256"
        }
      ],
      "name": "updateFactor",
      "outputs": [],
      "stateMutability": "nonpayable",
      "type": "function"
    },
    {
      "inputs": [
        {
          "internalType": "uint256",
          "name": "_pid",
          "type": "uint256"
        }
      ],
      "name": "updatePool",
      "outputs": [],
      "stateMutability": "nonpayable",
      "type": "function"
    },
    {
      "inputs": [
        {
          "internalType": "uint256",
          "name": "",
          "type": "uint256"
        },
        {
          "internalType": "address",
          "name": "",
          "type": "address"
        }
      ],
      "name": "userInfo",
      "outputs": [
        {
          "internalType": "uint256",
          "name": "amount",
          "type": "uint256"
        },
        {
          "internalType": "uint256",
          "name": "rewardDebt",
          "type": "uint256"
        },
        {
          "internalType": "uint256",
          "name": "factor",
          "type": "uint256"
        }
      ],
      "stateMutability": "view",
      "type": "function"
    },
    {
      "inputs": [],
      "name": "veWom",
      "outputs": [
        {
          "internalType": "contract IVeWom",
          "name": "",
          "type": "address"
        }
      ],
      "stateMutability": "view",
      "type": "function"
    },
    {
      "inputs": [
        {
          "internalType": "uint256",
          "name": "_pid",
          "type": "uint256"
        },
        {
          "internalType": "uint256",
          "name": "_amount",
          "type": "uint256"
        }
      ],
      "name": "withdraw",
      "outputs": [
        {
          "internalType": "uint256",
          "name": "",
          "type": "uint256"
        },
        {
          "internalType": "uint256",
          "name": "",
          "type": "uint256"
        }
      ],
      "stateMutability": "nonpayable",
      "type": "function"
    },
    {
      "inputs": [],
      "name": "wom",
      "outputs": [
        {
          "internalType": "contract IERC20",
          "name": "",
          "type": "address"
        }
      ],
      "stateMutability": "view",
      "type": "function"
    },
    {
      "inputs": [],
      "name": "womPerSec",
      "outputs": [
        {
          "internalType": "uint256",
          "name": "",
          "type": "uint256"
        }
      ],
      "stateMutability": "view",
      "type": "function"
    }
  ],
  "transactionHash": "0x038469cf49eb01653c9de871e4f15d81475d312b3e37f373584528d9f2a283e0",
  "args": [],
  "solcInputHash": "c4221922d26810ce6dc4d25d2c3cce4a",
  "bytecode": "0x608060405234801561001057600080fd5b506143c2806100206000396000f3fe608060405234801561001057600080fd5b506004361061025c5760003560e01c806390210d7e11610145578063d13f90b4116100bd578063e6fd48bc1161008c578063f2fde38b11610071578063f2fde38b1461055d578063f98ed45c14610570578063ffcd42631461058357600080fd5b8063e6fd48bc1461054c578063f13e55071461055557600080fd5b8063d13f90b414610500578063d1e2ac8814610513578063d93bf4fe14610526578063e2bbb1581461053957600080fd5b8063ab7de09811610114578063bc70fdbc116100f9578063bc70fdbc146104c3578063be159bea146104e4578063c5a6222e146104ed57600080fd5b8063ab7de098146104a7578063abfef111146104ba57600080fd5b806390210d7e1461040157806393f1a40b146104145780639b128de614610469578063a7bb616b1461047c57600080fd5b806351eb05a6116101d8578063715018a6116101a757806388bba42f1161018c57806388bba42f146103d45780638a81372f146103e75780638da5cb5b146103f057600080fd5b8063715018a6146103c45780638456cb59146103cc57600080fd5b806351eb05a6146103805780635312ea8e146103935780635c975abb146103a6578063630b5ba1146103bc57600080fd5b80633e582ae61161022f578063441a3e7011610214578063441a3e70146103235780634ed73d281461034b5780634f00a93e1461036d57600080fd5b80633e582ae6146102f05780633f4ba83a1461031b57600080fd5b8063081e3eda146102615780630ba84cd2146102785780631526fe271461028d57806317caf6f1146102e7575b600080fd5b60d1545b6040519081526020015b60405180910390f35b61028b610286366004613fbb565b6105a6565b005b6102a061029b366004613fbb565b610639565b604080516001600160a01b03988916815260208101979097528601949094526060850192909252909316608083015260a082019290925260c081019190915260e00161026f565b61026560cf5481565b60ca54610303906001600160a01b031681565b6040516001600160a01b03909116815260200161026f565b61028b610694565b61033661033136600461405f565b6106e6565b6040805192835260208301919091520161026f565b61035e610359366004613def565b610b35565b60405161026f939291906141ea565b61028b61037b366004613d4e565b610bf3565b61028b61038e366004613fbb565b610e0b565b61028b6103a1366004613fbb565b610e17565b60975460ff16604051901515815260200161026f565b61028b610f39565b61028b610f64565b61028b610fb6565b61028b6103e23660046140af565b611006565b61026560cc5481565b6033546001600160a01b0316610303565b61028b61040f366004614081565b611213565b61044e610422366004613fed565b60d460209081526000928352604080842090915290825290208054600182015460029092015490919083565b6040805193845260208401929092529082015260600161026f565b61028b610477366004613d31565b61164f565b61026561048a366004613fed565b60d560209081526000928352604080842090915290825290205481565b61028b6104b536600461401d565b611715565b61026560cd5481565b6104d66104d1366004613fbb565b611ab1565b60405161026f92919061417c565b61026560ce5481565b60c954610303906001600160a01b031681565b61028b61050e366004613ed6565b611c8c565b61028b610521366004613d31565b611eca565b61028b610534366004613d7a565b611f34565b61033661054736600461405f565b6121e6565b61026560d05481565b61028b612581565b61028b61056b366004613d31565b61265d565b61028b61057e366004613fbb565b61272a565b610596610591366004613fed565b6127e1565b60405161026f94939291906141b1565b6033546001600160a01b031633146105f35760405162461bcd60e51b8152602060048201819052602482015260008051602061436d83398151915260448201526064015b60405180910390fd5b6105fb610f39565b60cc81905560405181815233907fe2492e003bbe8afa53088b406f0c1cb5d9e280370fc72a74cf116ffd343c4053906020015b60405180910390a250565b60d1818154811061064957600080fd5b600091825260209091206007909102018054600182015460028301546003840154600485015460058601546006909601546001600160a01b0395861697509395929491939116919087565b6033546001600160a01b031633146106dc5760405162461bcd60e51b8152602060048201819052602482015260008051602061436d83398151915260448201526064016105ea565b6106e4612adf565b565b6000806002606554141561073c5760405162461bcd60e51b815260206004820152601f60248201527f5265656e7472616e637947756172643a207265656e7472616e742063616c6c0060448201526064016105ea565b600260655560975460ff16156107875760405162461bcd60e51b815260206004820152601060248201526f14185d5cd8589b194e881c185d5cd95960821b60448201526064016105ea565b600060d1858154811061079c5761079c61431d565b6000918252602080832088845260d48252604080852033865290925292208054600790920290920192508511156108155760405162461bcd60e51b815260206004820152601260248201527f77697468647261773a206e6f7420676f6f64000000000000000000000000000060448201526064016105ea565b61081e86612b7b565b6001810154600087815260d5602090815260408083203384529091528120546006850154600285015492939264e8d4a510009161085a9161428a565b6003870154865461086b919061428a565b6108759190614250565b61087f9190614268565b6108899190614250565b61089391906142a9565b600088815260d5602090815260408083203380855292528220919091559091506108bd9082612d7e565b905086336001600160a01b03167f71bab65ced2e5750775a0613be067df48ef06cf92a496ebf7663ae0660924954836040516108fb91815260200190565b60405180910390a3600282015482546109159088906142a9565b835560ca546040516370a0823160e01b81523360048201526109a6916001600160a01b0316906370a08231906024015b60206040518083038186803b15801561095d57600080fd5b505afa158015610971573d6000803e3d6000fd5b505050506040513d601f19601f820116820180604052508101906109959190613fd4565b84546109a1919061428a565b612f78565b60028401819055600585015482916109bd91614250565b6109c791906142a9565b60058501556006840154600284015464e8d4a51000916109e69161428a565b600386015485546109f7919061428a565b610a019190614250565b610a0b9190614268565b8360010181905550600060d18981548110610a2857610a2861431d565b600091825260208220600460079092020101546001600160a01b031691508115610ad257845460405163186e465160e31b815233600482015260248101919091526001600160a01b0383169063c372328890604401602060405180830381600087803b158015610a9757600080fd5b505af1158015610aab573d6000803e3d6000fd5b505050506040513d601f19601f82011682018060405250810190610acf9190613fd4565b90505b8554610ae8906001600160a01b0316338b612fe8565b6040518981528a9033907ff279e6a1f5e320cca91135676d9cb6e44ca8a08c0b88342bcdb1144f6511b568906020015b60405180910390a360016065559299929850919650505050505050565b600060608060026065541415610b8d5760405162461bcd60e51b815260206004820152601f60248201527f5265656e7472616e637947756172643a207265656e7472616e742063616c6c0060448201526064016105ea565b600260655560975460ff1615610bd85760405162461bcd60e51b815260206004820152601060248201526f14185d5cd8589b194e881c185d5cd95960821b60448201526064016105ea565b610be18461307d565b92509250925060016065559193909250565b60ca546001600160a01b03163314610c735760405162461bcd60e51b815260206004820152602160248201527f4d6173746572576f6d6261743a2063616c6c6572206973206e6f74205665576f60448201527f6d0000000000000000000000000000000000000000000000000000000000000060648201526084016105ea565b60d15460005b81811015610e0557600081815260d4602090815260408083206001600160a01b038816845290915290208054610caf5750610df5565b600060d18381548110610cc457610cc461431d565b90600052602060002090600702019050610cdd83612b7b565b6000826001015464e8d4a5100083600601548560020154610cfe919061428a565b60038501548654610d0f919061428a565b610d199190614250565b610d239190614268565b610d2d91906142a9565b600085815260d5602090815260408083206001600160a01b038c168452909152812080549293508392909190610d64908490614250565b909155505060028301548354600090610d81906109a1908a61428a565b60028601819055600685015490915064e8d4a5100090610da1908361428a565b60038601548754610db2919061428a565b610dbc9190614250565b610dc69190614268565b600186015560058401548290610ddd908390614250565b610de791906142a9565b846005018190555050505050505b610dfe816142ec565b9050610c79565b50505050565b610e1481612b7b565b50565b60026065541415610e6a5760405162461bcd60e51b815260206004820152601f60248201527f5265656e7472616e637947756172643a207265656e7472616e742063616c6c0060448201526064016105ea565b6002606581905550600060d18281548110610e8757610e8761431d565b6000918252602080832085845260d482526040808520338087529352909320805460079093029093018054909450610ecc926001600160a01b03919091169190612fe8565b80600201548260050154610ee091906142a9565b600583015560006002820181905580825560018201819055604051908152839033907fbb757047c2b5f3974fe26b7c10f732e7bce710b0952a71082702781e62ae05959060200160405180910390a35050600160655550565b60d15460005b81811015610f6057610f5081612b7b565b610f59816142ec565b9050610f3f565b5050565b6033546001600160a01b03163314610fac5760405162461bcd60e51b8152602060048201819052602482015260008051602061436d83398151915260448201526064016105ea565b6106e46000613589565b6033546001600160a01b03163314610ffe5760405162461bcd60e51b8152602060048201819052602482015260008051602061436d83398151915260448201526064016105ea565b6106e46135db565b6033546001600160a01b0316331461104e5760405162461bcd60e51b8152602060048201819052602482015260008051602061436d83398151915260448201526064016105ea565b813b15158061106457506001600160a01b038216155b6110bf5760405162461bcd60e51b815260206004820152602660248201527f7365743a207265776172646572206d75737420626520636f6e7472616374206f60448201526572207a65726f60d01b60648201526084016105ea565b6110c7610f39565b8260d185815481106110db576110db61431d565b90600052602060002090600702016001015460cf546110fa91906142a9565b6111049190614250565b60cf819055508260d1858154811061111e5761111e61431d565b9060005260206000209060070201600101819055508015611183578160d1858154811061114d5761114d61431d565b906000526020600020906007020160040160006101000a8154816001600160a01b0302191690836001600160a01b031602179055505b806111bd5760d1848154811061119b5761119b61431d565b60009182526020909120600460079092020101546001600160a01b03166111bf565b815b6001600160a01b0316847fa54644aae5c48c5971516f334e4fe8ecbc7930e23f34877d4203c6551e67ffaa85846040516112059291909182521515602082015260400190565b60405180910390a350505050565b600260655414156112665760405162461bcd60e51b815260206004820152601f60248201527f5265656e7472616e637947756172643a207265656e7472616e742063616c6c0060448201526064016105ea565b6002606555326001600160a01b038216146112c35760405162461bcd60e51b815260206004820152601060248201527f6465706f736974466f723a207775743f0000000000000000000000000000000060448201526064016105ea565b600060d184815481106112d8576112d861431d565b6000918252602080832087845260d4825260408085206001600160a01b038816865290925292206007909102909101915061131285612b7b565b80541561140e576001810154600086815260d5602090815260408083206001600160a01b03881684529091528120546006850154600285015492939264e8d4a510009161135e9161428a565b6003870154865461136f919061428a565b6113799190614250565b6113839190614268565b61138d9190614250565b61139791906142a9565b600087815260d5602090815260408083206001600160a01b038916845290915281205590506113c68482612d7e565b905085846001600160a01b03167f71bab65ced2e5750775a0613be067df48ef06cf92a496ebf7663ae06609249548360405161140491815260200190565b60405180910390a3505b838160000160008282546114229190614250565b9091555050600281015460ca546040516370a0823160e01b81526001600160a01b0386811660048301526114b79216906370a082319060240160206040518083038186803b15801561147357600080fd5b505afa158015611487573d6000803e3d6000fd5b505050506040513d601f19601f820116820180604052508101906114ab9190613fd4565b83546109a1919061428a565b60028301819055600584015482916114ce91614250565b6114d891906142a9565b60058401556006830154600283015464e8d4a51000916114f79161428a565b60038501548454611508919061428a565b6115129190614250565b61151c9190614268565b8260010181905550600060d187815481106115395761153961431d565b60009182526020909120600460079092020101546001600160a01b0316905080156115e657825460405163186e465160e31b81526001600160a01b03878116600483015260248201929092529082169063c372328890604401602060405180830381600087803b1580156115ac57600080fd5b505af11580156115c0573d6000803e3d6000fd5b505050506040513d601f19601f820116820180604052508101906115e49190613fd4565b505b83546115fd906001600160a01b0316333089613656565b86856001600160a01b03167f16f3fbfd4bcc50a5cecb2e53e398a1ad77d89f63288ef540d862b264ed57eb1f8860405161163991815260200190565b60405180910390a3505060016065555050505050565b6033546001600160a01b031633146116975760405162461bcd60e51b8152602060048201819052602482015260008051602061436d83398151915260448201526064016105ea565b6001600160a01b0381166116aa57600080fd5b6116b2610f39565b60ca80546001600160a01b038381166001600160a01b0319831681179093556040805191909216808252602082019390935233917fa0956d8e03557278fdb89913cec4e0f21da09587edf25b3eecc0079cdb757ef5910160405180910390a25050565b6033546001600160a01b0316331461175d5760405162461bcd60e51b8152602060048201819052602482015260008051602061436d83398151915260448201526064016105ea565b813b6117d15760405162461bcd60e51b815260206004820152602660248201527f6164643a204c5020746f6b656e206d75737420626520612076616c696420636f60448201527f6e7472616374000000000000000000000000000000000000000000000000000060648201526084016105ea565b803b1515806117e757506001600160a01b038116155b6118425760405162461bcd60e51b815260206004820152602660248201527f6164643a207265776172646572206d75737420626520636f6e7472616374206f60448201526572207a65726f60d01b60648201526084016105ea565b61184d60d2836136a7565b1561189a5760405162461bcd60e51b815260206004820152601560248201527f6164643a204c5020616c7265616479206164646564000000000000000000000060448201526064016105ea565b6118a2610f39565b600060d05442116118b55760d0546118b7565b425b90508360cf546118c79190614250565b60cf556040805160e0810182526001600160a01b038086168252602082018781529282018481526000606084018181528784166080860190815260a0860183815260c0870184815260d180546001810182559552965160079094027f695fb3134ad82c3b8022bc5464edd0bcc9424ef672b52245dcb6ab2374327ce3810180549588166001600160a01b031996871617905597517f695fb3134ad82c3b8022bc5464edd0bcc9424ef672b52245dcb6ab2374327ce489015593517f695fb3134ad82c3b8022bc5464edd0bcc9424ef672b52245dcb6ab2374327ce588015590517f695fb3134ad82c3b8022bc5464edd0bcc9424ef672b52245dcb6ab2374327ce6870155517f695fb3134ad82c3b8022bc5464edd0bcc9424ef672b52245dcb6ab2374327ce78601805491909416911617909155517f695fb3134ad82c3b8022bc5464edd0bcc9424ef672b52245dcb6ab2374327ce8830155517f695fb3134ad82c3b8022bc5464edd0bcc9424ef672b52245dcb6ab2374327ce990910155611a5160d2846136cc565b50816001600160a01b0316836001600160a01b0316600160d180549050611a7891906142a9565b6040518781527f4b16bd2431ad24dc020ab0e1de7fcb6563dead6a24fb10089d6c23e97a70381f9060200160405180910390a450505050565b60006060600060d18481548110611aca57611aca61431d565b6000918252602090912060079091020160048101549091506001600160a01b031615611c8657600480820154604080517ff7c618c100000000000000000000000000000000000000000000000000000000815290516001600160a01b039092169263f7c618c1928282019260209290829003018186803b158015611b4d57600080fd5b505afa158015611b61573d6000803e3d6000fd5b505050506040513d601f19601f82011682018060405250810190611b859190613eb9565b92508060040160009054906101000a90046001600160a01b03166001600160a01b031663f7c618c16040518163ffffffff1660e01b815260040160206040518083038186803b158015611bd757600080fd5b505afa158015611beb573d6000803e3d6000fd5b505050506040513d601f19601f82011682018060405250810190611c0f9190613eb9565b6001600160a01b03166395d89b416040518163ffffffff1660e01b815260040160006040518083038186803b158015611c4757600080fd5b505afa158015611c5b573d6000803e3d6000fd5b505050506040513d6000823e601f3d908101601f19168201604052611c839190810190613f27565b91505b50915091565b600054610100900460ff1680611ca5575060005460ff16155b611d085760405162461bcd60e51b815260206004820152602e60248201527f496e697469616c697a61626c653a20636f6e747261637420697320616c72656160448201526d191e481a5b9a5d1a585b1a5e995960921b60648201526084016105ea565b600054610100900460ff16158015611d2a576000805461ffff19166101011790555b6001600160a01b038616611d805760405162461bcd60e51b815260206004820152601a60248201527f776f6d20616464726573732063616e6e6f74206265207a65726f00000000000060448201526064016105ea565b83611dcd5760405162461bcd60e51b815260206004820152601a60248201527f776f6d20706572207365632063616e6e6f74206265207a65726f00000000000060448201526064016105ea565b6103e8831115611e455760405162461bcd60e51b815260206004820152602760248201527f6261736520706172746974696f6e206d75737420626520696e2072616e67652060448201527f302c20313030300000000000000000000000000000000000000000000000000060648201526084016105ea565b611e4d6136e1565b611e556137a3565b611e5d61385a565b60c980546001600160a01b038089166001600160a01b03199283161790925560ca80549288169290911691909117905560cc84905560cd839055611ea3836103e86142a9565b60ce5560d0829055600060cf558015611ec2576000805461ff00191690555b505050505050565b6033546001600160a01b03163314611f125760405162461bcd60e51b8152602060048201819052602482015260008051602061436d83398151915260448201526064016105ea565b60cb80546001600160a01b0319166001600160a01b0392909216919091179055565b60026065541415611f875760405162461bcd60e51b815260206004820152601f60248201527f5265656e7472616e637947756172643a207265656e7472616e742063616c6c0060448201526064016105ea565b600260655560cb546001600160a01b0316611fe45760405162461bcd60e51b815260206004820152600960248201527f746f2077686572653f000000000000000000000000000000000000000000000060448201526064016105ea565b61202082828080602002602001604051908101604052809392919081815260200183836020028082843760009201919091525061307d92505050565b50505060005b818110156121dc5760008383838181106120425761204261431d565b60209081029290920135600081815260d484526040808220338352909452929092208054929350911590506121c957600060d183815481106120865761208661431d565b60009182526020909120600790910201805460cb5484546040517f095ea7b30000000000000000000000000000000000000000000000000000000081526001600160a01b0392831660048201526024810191909152929350169063095ea7b390604401602060405180830381600087803b15801561210357600080fd5b505af1158015612117573d6000803e3d6000fd5b505050506040513d601f19601f8201168201806040525081019061213b9190613e9c565b5060cb5482546040517f90210d7e0000000000000000000000000000000000000000000000000000000081526004810186905260248101919091523360448201526001600160a01b03909116906390210d7e90606401600060405180830381600087803b1580156121ab57600080fd5b505af11580156121bf573d6000803e3d6000fd5b5050600084555050505b5050806121d5906142ec565b9050612026565b5050600160655550565b6000806002606554141561223c5760405162461bcd60e51b815260206004820152601f60248201527f5265656e7472616e637947756172643a207265656e7472616e742063616c6c0060448201526064016105ea565b600260655560975460ff16156122875760405162461bcd60e51b815260206004820152601060248201526f14185d5cd8589b194e881c185d5cd95960821b60448201526064016105ea565b600060d1858154811061229c5761229c61431d565b6000918252602080832088845260d4825260408085203386529092529220600790910290910191506122cd86612b7b565b8054600090156123ba576001820154600088815260d5602090815260408083203384529091529020546006850154600285015464e8d4a51000916123109161428a565b60038701548654612321919061428a565b61232b9190614250565b6123359190614268565b61233f9190614250565b61234991906142a9565b600088815260d5602090815260408083203380855292528220919091559091506123739082612d7e565b905086336001600160a01b03167f71bab65ced2e5750775a0613be067df48ef06cf92a496ebf7663ae0660924954836040516123b191815260200190565b60405180910390a35b858260000160008282546123ce9190614250565b9091555050600282015460ca546040516370a0823160e01b815233600482015261240a916001600160a01b0316906370a0823190602401610945565b600284018190556005850154829161242191614250565b61242b91906142a9565b60058501556006840154600284015464e8d4a510009161244a9161428a565b6003860154855461245b919061428a565b6124659190614250565b61246f9190614268565b8360010181905550600060d1898154811061248c5761248c61431d565b600091825260208220600460079092020101546001600160a01b03169150811561253657845460405163186e465160e31b815233600482015260248101919091526001600160a01b0383169063c372328890604401602060405180830381600087803b1580156124fb57600080fd5b505af115801561250f573d6000803e3d6000fd5b505050506040513d601f19601f820116820180604052508101906125339190613fd4565b90505b855461254d906001600160a01b031633308c613656565b6040518981528a9033907f90890809c654f11d6e72a28fa60149770a0d11ec6c92319d6ceb2bb0a4ea1a1590602001610b18565b6033546001600160a01b031633146125c95760405162461bcd60e51b8152602060048201819052602482015260008051602061436d83398151915260448201526064016105ea565b60c9546040516370a0823160e01b81523060048201526106e49133916001600160a01b03909116906370a082319060240160206040518083038186803b15801561261257600080fd5b505afa158015612626573d6000803e3d6000fd5b505050506040513d601f19601f8201168201806040525081019061264a9190613fd4565b60c9546001600160a01b03169190612fe8565b6033546001600160a01b031633146126a55760405162461bcd60e51b8152602060048201819052602482015260008051602061436d83398151915260448201526064016105ea565b6001600160a01b0381166127215760405162461bcd60e51b815260206004820152602660248201527f4f776e61626c653a206e6577206f776e657220697320746865207a65726f206160448201527f646472657373000000000000000000000000000000000000000000000000000060648201526084016105ea565b610e1481613589565b6033546001600160a01b031633146127725760405162461bcd60e51b8152602060048201819052602482015260008051602061436d83398151915260448201526064016105ea565b6103e881111561278157600080fd5b612789610f39565b60cd81905561279a816103e86142a9565b60ce55337f7fd921cf733c788915a229b0ea58095c44ae2c275ed7835501e5135fe3c1ed05826127cc816103e86142a9565b6040805192835260208301919091520161062e565b600080606060008060d187815481106127fc576127fc61431d565b600091825260208083208a845260d4825260408085206001600160a01b038c81168752935280852060079490940290910160038101546006820154825493516370a0823160e01b81523060048201529297509495909493909216906370a082319060240160206040518083038186803b15801561287857600080fd5b505afa15801561288c573d6000803e3d6000fd5b505050506040513d601f19601f820116820180604052508101906128b09190613fd4565b90508460020154421180156128c457508015155b1561299c5760008560020154426128db91906142a9565b9050600060cf54876001015460cc54846128f5919061428a565b6128ff919061428a565b6129099190614268565b9050612917836103e861428a565b60cd546129298364e8d4a5100061428a565b612933919061428a565b61293d9190614268565b6129479086614250565b94508660050154600014612999576005870154612966906103e861428a565b60ce546129788364e8d4a5100061428a565b612982919061428a565b61298c9190614268565b6129969085614250565b93505b50505b600184015460008c815260d5602090815260408083206001600160a01b038f168452909152902054600286015464e8d4a51000906129db90869061428a565b87546129e890889061428a565b6129f29190614250565b6129fc9190614268565b612a069190614250565b612a1091906142a9565b60048601549099506001600160a01b031615612ad157612a2f8b611ab1565b6004878101546040517fc031a66f0000000000000000000000000000000000000000000000000000000081526001600160a01b038f811693820193909352939b50919950169063c031a66f9060240160206040518083038186803b158015612a9657600080fd5b505afa158015612aaa573d6000803e3d6000fd5b505050506040513d601f19601f82011682018060405250810190612ace9190613fd4565b95505b505050505092959194509250565b60975460ff16612b315760405162461bcd60e51b815260206004820152601460248201527f5061757361626c653a206e6f742070617573656400000000000000000000000060448201526064016105ea565b6097805460ff191690557f5db9ee0a495bf2e6ff9c91a7834c1ba4fdd244a5e8aa4e537bd38aeae4b073aa335b6040516001600160a01b03909116815260200160405180910390a1565b600060d18281548110612b9057612b9061431d565b906000526020600020906007020190508060020154421115610f605780546040516370a0823160e01b81523060048201526000916001600160a01b0316906370a082319060240160206040518083038186803b158015612bef57600080fd5b505afa158015612c03573d6000803e3d6000fd5b505050506040513d601f19601f82011682018060405250810190612c279190613fd4565b905080612c3957504260029091015550565b6000826002015442612c4b91906142a9565b9050600060cf54846001015460cc5484612c65919061428a565b612c6f919061428a565b612c799190614268565b9050612c87836103e861428a565b60cd54612c998364e8d4a5100061428a565b612ca3919061428a565b612cad9190614268565b846003016000828254612cc09190614250565b90915550506005840154612cda5760006006850155612d2a565b6005840154612ceb906103e861428a565b60ce54612cfd8364e8d4a5100061428a565b612d07919061428a565b612d119190614268565b846006016000828254612d249190614250565b90915550505b42600285018190556003850154604080519283526020830186905282015285907f3be3541fc42237d611b30329040bfa4569541d156560acdbbae57640d20b8f469060600160405180910390a25050505050565b60c9546040516370a0823160e01b815230600482015260009182916001600160a01b03909116906370a082319060240160206040518083038186803b158015612dc657600080fd5b505afa158015612dda573d6000803e3d6000fd5b505050506040513d601f19601f82011682018060405250810190612dfe9190613fd4565b905060008111612e505760405162461bcd60e51b815260206004820152601760248201527f4e6f20746f6b656e7320746f206469737472696275746500000000000000000060448201526064016105ea565b80831115612ee65760c95460405163a9059cbb60e01b81526001600160a01b038681166004830152602482018490529091169063a9059cbb90604401602060405180830381600087803b158015612ea657600080fd5b505af1158015612eba573d6000803e3d6000fd5b505050506040513d601f19601f82011682018060405250810190612ede9190613e9c565b509050612f72565b60c95460405163a9059cbb60e01b81526001600160a01b038681166004830152602482018690529091169063a9059cbb90604401602060405180830381600087803b158015612f3457600080fd5b505af1158015612f48573d6000803e3d6000fd5b505050506040513d601f19601f82011682018060405250810190612f6c9190613e9c565b50829150505b92915050565b60006003821115612fd95750806000612f92600283614268565b612f9d906001614250565b90505b81811015612fd357905080600281612fb88186614268565b612fc29190614250565b612fcc9190614268565b9050612fa0565b50919050565b8115612fe3575060015b919050565b6040516001600160a01b03831660248201526044810182905261307890849063a9059cbb60e01b906064015b60408051601f198184030181529190526020810180517bffffffffffffffffffffffffffffffffffffffffffffffffffffffff167fffffffff0000000000000000000000000000000000000000000000000000000090931692909217909152613916565b505050565b6000606080600080855167ffffffffffffffff81111561309f5761309f614333565b6040519080825280602002602001820160405280156130c8578160200160208202803683370190505b5090506000865167ffffffffffffffff8111156130e7576130e7614333565b604051908082528060200260200182016040528015613110578160200160208202803683370190505b50905060005b87518110156133ed57600060d460008a84815181106131375761313761431d565b6020908102919091018101518252818101929092526040908101600090812033825290925290208054909150156133dc5761318a89838151811061317d5761317d61431d565b6020026020010151612b7b565b600060d18a84815181106131a0576131a061431d565b6020026020010151815481106131b8576131b861431d565b906000526020600020906007020190506000826001015460d560008d87815181106131e5576131e561431d565b602002602001015181526020019081526020016000206000336001600160a01b03166001600160a01b031681526020019081526020016000205464e8d4a5100084600601548660020154613239919061428a565b6003860154875461324a919061428a565b6132549190614250565b61325e9190614268565b6132689190614250565b61327291906142a9565b9050600060d560008d878151811061328c5761328c61431d565b602090810291909101810151825281810192909252604090810160009081203382529092529020556006820154600284015464e8d4a51000916132ce9161428a565b600384015485546132df919061428a565b6132e99190614250565b6132f39190614268565b60018401556133028188614250565b9650808685815181106133175761331761431d565b602090810291909101015260048201546001600160a01b031680156133d857835460405163186e465160e31b815233600482015260248101919091526001600160a01b0382169063c372328890604401602060405180830381600087803b15801561338157600080fd5b505af1158015613395573d6000803e3d6000fd5b505050506040513d601f19601f820116820180604052508101906133b99190613fd4565b8686815181106133cb576133cb61431d565b6020026020010181815250505b5050505b506133e6816142ec565b9050613116565b5060006133fa3385612d7e565b90508381146134e95760005b88518110156134e357848482815181106134225761342261431d565b602002602001015183613435919061428a565b61343f9190614268565b8482815181106134515761345161431d565b60200260200101818152505088818151811061346f5761346f61431d565b6020026020010151336001600160a01b03167f71bab65ced2e5750775a0613be067df48ef06cf92a496ebf7663ae06609249548684815181106134b4576134b461431d565b60200260200101516040516134cb91815260200190565b60405180910390a36134dc816142ec565b9050613406565b5061357d565b60005b885181101561357b578881815181106135075761350761431d565b6020026020010151336001600160a01b03167f71bab65ced2e5750775a0613be067df48ef06cf92a496ebf7663ae066092495486848151811061354c5761354c61431d565b602002602001015160405161356391815260200190565b60405180910390a3613574816142ec565b90506134ec565b505b97919650945092505050565b603380546001600160a01b038381166001600160a01b0319831681179093556040519116919082907f8be0079c531659141344cd1fd0a4f28419497f9722a3daafe3b4186f6b6457e090600090a35050565b60975460ff16156136215760405162461bcd60e51b815260206004820152601060248201526f14185d5cd8589b194e881c185d5cd95960821b60448201526064016105ea565b6097805460ff191660011790557f62e78cea01bee320cd4e420270b5ea74000d11b0c9f74754ebdbfc544b05a258612b5e3390565b6040516001600160a01b0380851660248301528316604482015260648101829052610e059085907f23b872dd0000000000000000000000000000000000000000000000000000000090608401613014565b6001600160a01b038116600090815260018301602052604081205415155b9392505050565b60006136c5836001600160a01b0384166139fb565b600054610100900460ff16806136fa575060005460ff16155b61375d5760405162461bcd60e51b815260206004820152602e60248201527f496e697469616c697a61626c653a20636f6e747261637420697320616c72656160448201526d191e481a5b9a5d1a585b1a5e995960921b60648201526084016105ea565b600054610100900460ff1615801561377f576000805461ffff19166101011790555b613787613a4a565b61378f613afb565b8015610e14576000805461ff001916905550565b600054610100900460ff16806137bc575060005460ff16155b61381f5760405162461bcd60e51b815260206004820152602e60248201527f496e697469616c697a61626c653a20636f6e747261637420697320616c72656160448201526d191e481a5b9a5d1a585b1a5e995960921b60648201526084016105ea565b600054610100900460ff16158015613841576000805461ffff19166101011790555b60016065558015610e14576000805461ff001916905550565b600054610100900460ff1680613873575060005460ff16155b6138d65760405162461bcd60e51b815260206004820152602e60248201527f496e697469616c697a61626c653a20636f6e747261637420697320616c72656160448201526d191e481a5b9a5d1a585b1a5e995960921b60648201526084016105ea565b600054610100900460ff161580156138f8576000805461ffff19166101011790555b6097805460ff191690558015610e14576000805461ff001916905550565b600061396b826040518060400160405280602081526020017f5361666545524332303a206c6f772d6c6576656c2063616c6c206661696c6564815250856001600160a01b0316613ba29092919063ffffffff16565b80519091501561307857808060200190518101906139899190613e9c565b6130785760405162461bcd60e51b815260206004820152602a60248201527f5361666545524332303a204552433230206f7065726174696f6e20646964206e60448201527f6f7420737563636565640000000000000000000000000000000000000000000060648201526084016105ea565b6000818152600183016020526040812054613a4257508154600181810184556000848152602080822090930184905584548482528286019093526040902091909155612f72565b506000612f72565b600054610100900460ff1680613a63575060005460ff16155b613ac65760405162461bcd60e51b815260206004820152602e60248201527f496e697469616c697a61626c653a20636f6e747261637420697320616c72656160448201526d191e481a5b9a5d1a585b1a5e995960921b60648201526084016105ea565b600054610100900460ff1615801561378f576000805461ffff19166101011790558015610e14576000805461ff001916905550565b600054610100900460ff1680613b14575060005460ff16155b613b775760405162461bcd60e51b815260206004820152602e60248201527f496e697469616c697a61626c653a20636f6e747261637420697320616c72656160448201526d191e481a5b9a5d1a585b1a5e995960921b60648201526084016105ea565b600054610100900460ff16158015613b99576000805461ffff19166101011790555b61378f33613589565b6060613bb18484600085613bb9565b949350505050565b606082471015613c315760405162461bcd60e51b815260206004820152602660248201527f416464726573733a20696e73756666696369656e742062616c616e636520666f60448201527f722063616c6c000000000000000000000000000000000000000000000000000060648201526084016105ea565b843b613c7f5760405162461bcd60e51b815260206004820152601d60248201527f416464726573733a2063616c6c20746f206e6f6e2d636f6e747261637400000060448201526064016105ea565b600080866001600160a01b03168587604051613c9b9190614160565b60006040518083038185875af1925050503d8060008114613cd8576040519150601f19603f3d011682016040523d82523d6000602084013e613cdd565b606091505b5091509150613ced828286613cf8565b979650505050505050565b60608315613d075750816136c5565b825115613d175782518084602001fd5b8160405162461bcd60e51b81526004016105ea919061419e565b600060208284031215613d4357600080fd5b81356136c581614349565b60008060408385031215613d6157600080fd5b8235613d6c81614349565b946020939093013593505050565b60008060208385031215613d8d57600080fd5b823567ffffffffffffffff80821115613da557600080fd5b818501915085601f830112613db957600080fd5b813581811115613dc857600080fd5b8660208260051b8501011115613ddd57600080fd5b60209290920196919550909350505050565b60006020808385031215613e0257600080fd5b823567ffffffffffffffff80821115613e1a57600080fd5b818501915085601f830112613e2e57600080fd5b813581811115613e4057613e40614333565b8060051b9150613e5184830161421f565b8181528481019084860184860187018a1015613e6c57600080fd5b600095505b83861015613e8f578035835260019590950194918601918601613e71565b5098975050505050505050565b600060208284031215613eae57600080fd5b81516136c58161435e565b600060208284031215613ecb57600080fd5b81516136c581614349565b600080600080600060a08688031215613eee57600080fd5b8535613ef981614349565b94506020860135613f0981614349565b94979496505050506040830135926060810135926080909101359150565b600060208284031215613f3957600080fd5b815167ffffffffffffffff80821115613f5157600080fd5b818401915084601f830112613f6557600080fd5b815181811115613f7757613f77614333565b613f8a601f8201601f191660200161421f565b9150808252856020828501011115613fa157600080fd5b613fb28160208401602086016142c0565b50949350505050565b600060208284031215613fcd57600080fd5b5035919050565b600060208284031215613fe657600080fd5b5051919050565b6000806040838503121561400057600080fd5b82359150602083013561401281614349565b809150509250929050565b60008060006060848603121561403257600080fd5b83359250602084013561404481614349565b9150604084013561405481614349565b809150509250925092565b6000806040838503121561407257600080fd5b50508035926020909101359150565b60008060006060848603121561409657600080fd5b8335925060208401359150604084013561405481614349565b600080600080608085870312156140c557600080fd5b843593506020850135925060408501356140de81614349565b915060608501356140ee8161435e565b939692955090935050565b600081518084526020808501945080840160005b838110156141295781518752958201959082019060010161410d565b509495945050505050565b6000815180845261414c8160208601602086016142c0565b601f01601f19169290920160200192915050565b600082516141728184602087016142c0565b9190910192915050565b6001600160a01b0383168152604060208201526000613bb16040830184614134565b6020815260006136c56020830184614134565b8481526001600160a01b03841660208201526080604082015260006141d96080830185614134565b905082606083015295945050505050565b83815260606020820152600061420360608301856140f9565b828103604084015261421581856140f9565b9695505050505050565b604051601f8201601f1916810167ffffffffffffffff8111828210171561424857614248614333565b604052919050565b6000821982111561426357614263614307565b500190565b60008261428557634e487b7160e01b600052601260045260246000fd5b500490565b60008160001904831182151516156142a4576142a4614307565b500290565b6000828210156142bb576142bb614307565b500390565b60005b838110156142db5781810151838201526020016142c3565b83811115610e055750506000910152565b600060001982141561430057614300614307565b5060010190565b634e487b7160e01b600052601160045260246000fd5b634e487b7160e01b600052603260045260246000fd5b634e487b7160e01b600052604160045260246000fd5b6001600160a01b0381168114610e1457600080fd5b8015158114610e1457600080fdfe4f776e61626c653a2063616c6c6572206973206e6f7420746865206f776e6572a2646970667358221220596eebac6c00778bd8f7d976d34a04bc4a317acac54b5df8edeaadc44be4cd1f64736f6c63430008050033",
  "devdoc": {
    "kind": "dev",
    "methods": {
      "add(uint256,address,address)": {
        "details": "Reverts if the same LP token is added more than once.",
        "params": {
          "_allocPoint": "allocation points for this LP",
          "_lpToken": "the corresponding lp token",
          "_rewarder": "the rewarder"
        }
      },
      "deposit(uint256,uint256)": {
        "details": "it is possible to call this function with _amount == 0 to claim current rewards",
        "params": {
          "_amount": "amount to deposit",
          "_pid": "the pool id"
        }
      },
      "depositFor(uint256,uint256,address)": {
        "details": "user must initiate transaction from masterchef",
        "params": {
          "_amount": "amount to deposit",
          "_pid": "the pool id",
          "_user": "the user being represented"
        }
      },
      "emergencyWithdraw(uint256)": {
        "params": {
          "_pid": "the pool id"
        }
      },
      "massUpdatePools()": {
        "details": "Be careful of gas spending!"
      },
      "migrate(uint256[])": {
        "details": "Assume the orginal MasterWombat has stopped emisions hence we can skip updatePool() to save gas cost"
      },
      "multiClaim(uint256[])": {
        "params": {
          "_pids": "array pids, pools to claim"
        }
      },
      "owner()": {
        "details": "Returns the address of the current owner."
      },
      "pause()": {
        "details": "pause pool, restricting certain operations"
      },
      "paused()": {
        "details": "Returns true if the contract is paused, and false otherwise."
      },
      "pendingTokens(uint256,address)": {
        "params": {
          "_pid": "the pool id",
          "_user": "the user address TODO include factor operations"
        }
      },
      "renounceOwnership()": {
        "details": "Leaves the contract without owner. It will not be possible to call `onlyOwner` functions anymore. Can only be called by the current owner. NOTE: Renouncing ownership will leave the contract without an owner, thereby removing any functionality that is only available to the owner."
      },
      "rewarderBonusTokenInfo(uint256)": {
        "params": {
          "_pid": "the pool id"
        }
      },
      "set(uint256,uint256,address,bool)": {
        "params": {
          "_allocPoint": "allocation points",
          "_pid": "the pool id",
          "_rewarder": "the rewarder",
          "overwrite": "overwrite rewarder?"
        }
      },
      "setVeWom(address)": {
        "params": {
          "_newVeWom": "the new VeWom address"
        }
      },
      "transferOwnership(address)": {
        "details": "Transfers ownership of the contract to a new account (`newOwner`). Can only be called by the current owner."
      },
      "unpause()": {
        "details": "unpause pool, enabling certain operations"
      },
      "updateEmissionPartition(uint256)": {
        "params": {
          "_basePartition": "the future base partition"
        }
      },
      "updateEmissionRate(uint256)": {
        "details": "Pancake has to add hidden dummy pools inorder to alter the emission,here we make it simple and transparent to all.",
        "params": {
          "_womPerSec": "wom amount to be updated"
        }
      },
      "updateFactor(address,uint256)": {
        "details": "can only be called by veWom",
        "params": {
          "_newVeWomBalance": "the amount of veWOM",
          "_user": "the user to update"
        }
      },
      "updatePool(uint256)": {
        "params": {
          "_pid": "the pool id"
        }
      },
      "withdraw(uint256,uint256)": {
        "params": {
          "_amount": "the amount to withdraw",
          "_pid": "the pool id"
        }
      }
    },
    "version": 1
  },
  "userdoc": {
    "kind": "user",
    "methods": {
      "add(uint256,address,address)": {
        "notice": "Add a new lp to the pool. Can only be called by the owner."
      },
      "deposit(uint256,uint256)": {
        "notice": "Deposit LP tokens to MasterChef for WOM allocation."
      },
      "depositFor(uint256,uint256,address)": {
        "notice": "Deposit LP tokens to MasterChef for WOM allocation on behalf of user"
      },
      "emergencyWithdraw(uint256)": {
        "notice": "Withdraw without caring about rewards. EMERGENCY ONLY."
      },
      "emergencyWomWithdraw()": {
        "notice": "In case we need to manually migrate WOM funds from MasterChef Sends all remaining wom from the contract to the owner"
      },
      "massUpdatePools()": {
        "notice": "Update reward variables for all pools."
      },
      "migrate(uint256[])": {
        "notice": "Helper function to migrate fund from multiple pools to the new MasterWombat.user must initiate transaction from masterchef"
      },
      "multiClaim(uint256[])": {
        "notice": "claims rewards for multiple pids"
      },
      "pendingTokens(uint256,address)": {
        "notice": "View function to see pending WOMs on frontend."
      },
      "poolLength()": {
        "notice": "returns pool length"
      },
      "rewarderBonusTokenInfo(uint256)": {
        "notice": "Get bonus token info from the rewarder contract for a given pool, if it is a double reward farm"
      },
      "set(uint256,uint256,address,bool)": {
        "notice": "Update the given pool's WOM allocation point. Can only be called by the owner."
      },
      "setVeWom(address)": {
        "notice": "updates veWom address"
      },
      "updateEmissionPartition(uint256)": {
        "notice": "updates emission partition"
      },
      "updateEmissionRate(uint256)": {
        "notice": "updates emission rate"
      },
      "updateFactor(address,uint256)": {
        "notice": "updates factor after any veWom token operation (minting/burning)"
      },
      "updatePool(uint256)": {
        "notice": "Update reward variables of the given pool to be up-to-date."
      },
      "withdraw(uint256,uint256)": {
        "notice": "Withdraw LP tokens from MasterWombat.Automatically harvest pending rewards and sends to user"
      }
    },
    "notice": "MasterWombat is a boss. He says \"go f your blocks maki boy, I'm gonna use timestamp instead\" In addition, he feeds himself from Venom. So, veWom holders boost their (boosted) emissions. This contract rewards users in function of their amount of lp staked (base pool) factor (boosted pool) Factor and sumOfFactors are updated by contract VeWom.sol after any veWom minting/burning (veERC20Upgradeable hook). Note that it's ownable and the owner wields tremendous power. The ownership will be transferred to a governance smart contract once Wombat is sufficiently distributed and the community can show to govern itself.",
    "version": 1
  },
  "storageLayout": {
    "storage": [
      {
        "astId": 567,
        "contract": "contracts/wombat-governance/MasterWombat.sol:MasterWombat",
        "label": "_initialized",
        "offset": 0,
        "slot": "0",
        "type": "t_bool"
      },
      {
        "astId": 570,
        "contract": "contracts/wombat-governance/MasterWombat.sol:MasterWombat",
        "label": "_initializing",
        "offset": 1,
        "slot": "0",
        "type": "t_bool"
      },
      {
        "astId": 1141,
        "contract": "contracts/wombat-governance/MasterWombat.sol:MasterWombat",
        "label": "__gap",
        "offset": 0,
        "slot": "1",
        "type": "t_array(t_uint256)50_storage"
      },
      {
        "astId": 10,
        "contract": "contracts/wombat-governance/MasterWombat.sol:MasterWombat",
        "label": "_owner",
        "offset": 0,
        "slot": "51",
        "type": "t_address"
      },
      {
        "astId": 123,
        "contract": "contracts/wombat-governance/MasterWombat.sol:MasterWombat",
        "label": "__gap",
        "offset": 0,
        "slot": "52",
        "type": "t_array(t_uint256)49_storage"
      },
      {
        "astId": 811,
        "contract": "contracts/wombat-governance/MasterWombat.sol:MasterWombat",
        "label": "_status",
        "offset": 0,
        "slot": "101",
        "type": "t_uint256"
      },
      {
        "astId": 854,
        "contract": "contracts/wombat-governance/MasterWombat.sol:MasterWombat",
        "label": "__gap",
        "offset": 0,
        "slot": "102",
        "type": "t_array(t_uint256)49_storage"
      },
      {
        "astId": 705,
        "contract": "contracts/wombat-governance/MasterWombat.sol:MasterWombat",
        "label": "_paused",
        "offset": 0,
        "slot": "151",
        "type": "t_bool"
      },
      {
        "astId": 796,
        "contract": "contracts/wombat-governance/MasterWombat.sol:MasterWombat",
        "label": "__gap",
        "offset": 0,
        "slot": "152",
        "type": "t_array(t_uint256)49_storage"
      },
      {
        "astId": 8812,
        "contract": "contracts/wombat-governance/MasterWombat.sol:MasterWombat",
        "label": "wom",
        "offset": 0,
        "slot": "201",
        "type": "t_contract(IERC20)1930"
      },
      {
        "astId": 8815,
        "contract": "contracts/wombat-governance/MasterWombat.sol:MasterWombat",
        "label": "veWom",
        "offset": 0,
        "slot": "202",
        "type": "t_contract(IVeWom)12304"
      },
      {
        "astId": 8818,
        "contract": "contracts/wombat-governance/MasterWombat.sol:MasterWombat",
        "label": "newMasterWombat",
        "offset": 0,
        "slot": "203",
        "type": "t_contract(IMasterWombat)12221"
      },
      {
        "astId": 8820,
        "contract": "contracts/wombat-governance/MasterWombat.sol:MasterWombat",
        "label": "womPerSec",
        "offset": 0,
        "slot": "204",
        "type": "t_uint256"
      },
      {
        "astId": 8822,
        "contract": "contracts/wombat-governance/MasterWombat.sol:MasterWombat",
        "label": "basePartition",
        "offset": 0,
        "slot": "205",
        "type": "t_uint256"
      },
      {
        "astId": 8824,
        "contract": "contracts/wombat-governance/MasterWombat.sol:MasterWombat",
        "label": "boostedPartition",
        "offset": 0,
        "slot": "206",
        "type": "t_uint256"
      },
      {
        "astId": 8826,
        "contract": "contracts/wombat-governance/MasterWombat.sol:MasterWombat",
        "label": "totalAllocPoint",
        "offset": 0,
        "slot": "207",
        "type": "t_uint256"
      },
      {
        "astId": 8828,
        "contract": "contracts/wombat-governance/MasterWombat.sol:MasterWombat",
        "label": "startTimestamp",
        "offset": 0,
        "slot": "208",
        "type": "t_uint256"
      },
      {
        "astId": 8832,
        "contract": "contracts/wombat-governance/MasterWombat.sol:MasterWombat",
        "label": "poolInfo",
        "offset": 0,
        "slot": "209",
        "type": "t_array(t_struct(PoolInfo)8809_storage)dyn_storage"
      },
      {
        "astId": 8835,
        "contract": "contracts/wombat-governance/MasterWombat.sol:MasterWombat",
        "label": "lpTokens",
        "offset": 0,
        "slot": "210",
        "type": "t_struct(AddressSet)3918_storage"
      },
      {
        "astId": 8842,
        "contract": "contracts/wombat-governance/MasterWombat.sol:MasterWombat",
        "label": "userInfo",
        "offset": 0,
        "slot": "212",
        "type": "t_mapping(t_uint256,t_mapping(t_address,t_struct(UserInfo)8792_storage))"
      },
      {
        "astId": 8848,
        "contract": "contracts/wombat-governance/MasterWombat.sol:MasterWombat",
        "label": "pendingWom",
        "offset": 0,
        "slot": "213",
        "type": "t_mapping(t_uint256,t_mapping(t_address,t_uint256))"
      }
    ],
    "types": {
      "t_address": {
        "encoding": "inplace",
        "label": "address",
        "numberOfBytes": "20"
      },
      "t_array(t_bytes32)dyn_storage": {
        "base": "t_bytes32",
        "encoding": "dynamic_array",
        "label": "bytes32[]",
        "numberOfBytes": "32"
      },
      "t_array(t_struct(PoolInfo)8809_storage)dyn_storage": {
        "base": "t_struct(PoolInfo)8809_storage",
        "encoding": "dynamic_array",
        "label": "struct MasterWombat.PoolInfo[]",
        "numberOfBytes": "32"
      },
      "t_array(t_uint256)49_storage": {
        "base": "t_uint256",
        "encoding": "inplace",
        "label": "uint256[49]",
        "numberOfBytes": "1568"
      },
      "t_array(t_uint256)50_storage": {
        "base": "t_uint256",
        "encoding": "inplace",
        "label": "uint256[50]",
        "numberOfBytes": "1600"
      },
      "t_bool": {
        "encoding": "inplace",
        "label": "bool",
        "numberOfBytes": "1"
      },
      "t_bytes32": {
        "encoding": "inplace",
        "label": "bytes32",
        "numberOfBytes": "32"
      },
      "t_contract(IERC20)1930": {
        "encoding": "inplace",
        "label": "contract IERC20",
        "numberOfBytes": "20"
      },
      "t_contract(IMasterWombat)12221": {
        "encoding": "inplace",
        "label": "contract IMasterWombat",
        "numberOfBytes": "20"
      },
      "t_contract(IRewarder)12247": {
        "encoding": "inplace",
        "label": "contract IRewarder",
        "numberOfBytes": "20"
      },
      "t_contract(IVeWom)12304": {
        "encoding": "inplace",
        "label": "contract IVeWom",
        "numberOfBytes": "20"
      },
      "t_mapping(t_address,t_struct(UserInfo)8792_storage)": {
        "encoding": "mapping",
        "key": "t_address",
        "label": "mapping(address => struct MasterWombat.UserInfo)",
        "numberOfBytes": "32",
        "value": "t_struct(UserInfo)8792_storage"
      },
      "t_mapping(t_address,t_uint256)": {
        "encoding": "mapping",
        "key": "t_address",
        "label": "mapping(address => uint256)",
        "numberOfBytes": "32",
        "value": "t_uint256"
      },
      "t_mapping(t_bytes32,t_uint256)": {
        "encoding": "mapping",
        "key": "t_bytes32",
        "label": "mapping(bytes32 => uint256)",
        "numberOfBytes": "32",
        "value": "t_uint256"
      },
      "t_mapping(t_uint256,t_mapping(t_address,t_struct(UserInfo)8792_storage))": {
        "encoding": "mapping",
        "key": "t_uint256",
        "label": "mapping(uint256 => mapping(address => struct MasterWombat.UserInfo))",
        "numberOfBytes": "32",
        "value": "t_mapping(t_address,t_struct(UserInfo)8792_storage)"
      },
      "t_mapping(t_uint256,t_mapping(t_address,t_uint256))": {
        "encoding": "mapping",
        "key": "t_uint256",
        "label": "mapping(uint256 => mapping(address => uint256))",
        "numberOfBytes": "32",
        "value": "t_mapping(t_address,t_uint256)"
      },
      "t_struct(AddressSet)3918_storage": {
        "encoding": "inplace",
        "label": "struct EnumerableSet.AddressSet",
        "members": [
          {
            "astId": 3917,
            "contract": "contracts/wombat-governance/MasterWombat.sol:MasterWombat",
            "label": "_inner",
            "offset": 0,
            "slot": "0",
            "type": "t_struct(Set)3647_storage"
          }
        ],
        "numberOfBytes": "64"
      },
      "t_struct(PoolInfo)8809_storage": {
        "encoding": "inplace",
        "label": "struct MasterWombat.PoolInfo",
        "members": [
          {
            "astId": 8795,
            "contract": "contracts/wombat-governance/MasterWombat.sol:MasterWombat",
            "label": "lpToken",
            "offset": 0,
            "slot": "0",
            "type": "t_contract(IERC20)1930"
          },
          {
            "astId": 8797,
            "contract": "contracts/wombat-governance/MasterWombat.sol:MasterWombat",
            "label": "allocPoint",
            "offset": 0,
            "slot": "1",
            "type": "t_uint256"
          },
          {
            "astId": 8799,
            "contract": "contracts/wombat-governance/MasterWombat.sol:MasterWombat",
            "label": "lastRewardTimestamp",
            "offset": 0,
            "slot": "2",
            "type": "t_uint256"
          },
          {
            "astId": 8801,
            "contract": "contracts/wombat-governance/MasterWombat.sol:MasterWombat",
            "label": "accWomPerShare",
            "offset": 0,
            "slot": "3",
            "type": "t_uint256"
          },
          {
            "astId": 8804,
            "contract": "contracts/wombat-governance/MasterWombat.sol:MasterWombat",
            "label": "rewarder",
            "offset": 0,
            "slot": "4",
            "type": "t_contract(IRewarder)12247"
          },
          {
            "astId": 8806,
            "contract": "contracts/wombat-governance/MasterWombat.sol:MasterWombat",
            "label": "sumOfFactors",
            "offset": 0,
            "slot": "5",
            "type": "t_uint256"
          },
          {
            "astId": 8808,
            "contract": "contracts/wombat-governance/MasterWombat.sol:MasterWombat",
            "label": "accWomPerFactorShare",
            "offset": 0,
            "slot": "6",
            "type": "t_uint256"
          }
        ],
        "numberOfBytes": "224"
      },
      "t_struct(Set)3647_storage": {
        "encoding": "inplace",
        "label": "struct EnumerableSet.Set",
        "members": [
          {
            "astId": 3642,
            "contract": "contracts/wombat-governance/MasterWombat.sol:MasterWombat",
            "label": "_values",
            "offset": 0,
            "slot": "0",
            "type": "t_array(t_bytes32)dyn_storage"
          },
          {
            "astId": 3646,
            "contract": "contracts/wombat-governance/MasterWombat.sol:MasterWombat",
            "label": "_indexes",
            "offset": 0,
            "slot": "1",
            "type": "t_mapping(t_bytes32,t_uint256)"
          }
        ],
        "numberOfBytes": "64"
      },
      "t_struct(UserInfo)8792_storage": {
        "encoding": "inplace",
        "label": "struct MasterWombat.UserInfo",
        "members": [
          {
            "astId": 8787,
            "contract": "contracts/wombat-governance/MasterWombat.sol:MasterWombat",
            "label": "amount",
            "offset": 0,
            "slot": "0",
            "type": "t_uint256"
          },
          {
            "astId": 8789,
            "contract": "contracts/wombat-governance/MasterWombat.sol:MasterWombat",
            "label": "rewardDebt",
            "offset": 0,
            "slot": "1",
            "type": "t_uint256"
          },
          {
            "astId": 8791,
            "contract": "contracts/wombat-governance/MasterWombat.sol:MasterWombat",
            "label": "factor",
            "offset": 0,
            "slot": "2",
            "type": "t_uint256"
          }
        ],
        "numberOfBytes": "96"
      },
      "t_uint256": {
        "encoding": "inplace",
        "label": "uint256",
        "numberOfBytes": "32"
      }
    }
  }
}