{
  "address": "0x0aD7C148A7cbBDE935c7f01697e8Fc3A0Cbc4A17",
  "abi": [
    {
      "anonymous": false,
      "inputs": [
        {
          "indexed": true,
          "internalType": "uint256",
          "name": "pid",
          "type": "uint256"
        },
        {
          "indexed": false,
          "internalType": "uint256",
          "name": "allocPoint",
          "type": "uint256"
        },
        {
          "indexed": true,
          "internalType": "contract IERC20",
          "name": "lpToken",
          "type": "address"
        },
        {
          "indexed": true,
          "internalType": "contract IRewarder",
          "name": "rewarder",
          "type": "address"
        }
      ],
      "name": "Add",
      "type": "event"
    },
    {
      "anonymous": false,
      "inputs": [
        {
          "indexed": true,
          "internalType": "address",
          "name": "user",
          "type": "address"
        },
        {
          "indexed": true,
          "internalType": "uint256",
          "name": "pid",
          "type": "uint256"
        },
        {
          "indexed": false,
          "internalType": "uint256",
          "name": "amount",
          "type": "uint256"
        }
      ],
      "name": "Deposit",
      "type": "event"
    },
    {
      "anonymous": false,
      "inputs": [
        {
          "indexed": true,
          "internalType": "address",
          "name": "user",
          "type": "address"
        },
        {
          "indexed": true,
          "internalType": "uint256",
          "name": "pid",
          "type": "uint256"
        },
        {
          "indexed": false,
          "internalType": "uint256",
          "name": "amount",
          "type": "uint256"
        }
      ],
      "name": "DepositFor",
      "type": "event"
    },
    {
      "anonymous": false,
      "inputs": [
        {
          "indexed": true,
          "internalType": "address",
          "name": "user",
          "type": "address"
        },
        {
          "indexed": true,
          "internalType": "uint256",
          "name": "pid",
          "type": "uint256"
        },
        {
          "indexed": false,
          "internalType": "uint256",
          "name": "amount",
          "type": "uint256"
        }
      ],
      "name": "EmergencyWithdraw",
      "type": "event"
    },
    {
      "anonymous": false,
      "inputs": [
        {
          "indexed": true,
          "internalType": "address",
          "name": "user",
          "type": "address"
        },
        {
          "indexed": true,
          "internalType": "uint256",
          "name": "pid",
          "type": "uint256"
        },
        {
          "indexed": false,
          "internalType": "uint256",
          "name": "amount",
          "type": "uint256"
        }
      ],
      "name": "Harvest",
      "type": "event"
    },
    {
      "anonymous": false,
      "inputs": [
        {
          "indexed": true,
          "internalType": "address",
          "name": "previousOwner",
          "type": "address"
        },
        {
          "indexed": true,
          "internalType": "address",
          "name": "newOwner",
          "type": "address"
        }
      ],
      "name": "OwnershipTransferred",
      "type": "event"
    },
    {
      "anonymous": false,
      "inputs": [
        {
          "indexed": false,
          "internalType": "address",
          "name": "account",
          "type": "address"
        }
      ],
      "name": "Paused",
      "type": "event"
    },
    {
      "anonymous": false,
      "inputs": [
        {
          "indexed": true,
          "internalType": "uint256",
          "name": "pid",
          "type": "uint256"
        },
        {
          "indexed": false,
          "internalType": "uint256",
          "name": "allocPoint",
          "type": "uint256"
        },
        {
          "indexed": true,
          "internalType": "contract IRewarder",
          "name": "rewarder",
          "type": "address"
        },
        {
          "indexed": false,
          "internalType": "bool",
          "name": "overwrite",
          "type": "bool"
        }
      ],
      "name": "Set",
      "type": "event"
    },
    {
      "anonymous": false,
      "inputs": [
        {
          "indexed": false,
          "internalType": "address",
          "name": "account",
          "type": "address"
        }
      ],
      "name": "Unpaused",
      "type": "event"
    },
    {
      "anonymous": false,
      "inputs": [
        {
          "indexed": true,
          "internalType": "address",
          "name": "user",
          "type": "address"
        },
        {
          "indexed": false,
          "internalType": "uint256",
          "name": "basePartition",
          "type": "uint256"
        },
        {
          "indexed": false,
          "internalType": "uint256",
          "name": "boostedPartition",
          "type": "uint256"
        }
      ],
      "name": "UpdateEmissionPartition",
      "type": "event"
    },
    {
      "anonymous": false,
      "inputs": [
        {
          "indexed": true,
          "internalType": "address",
          "name": "user",
          "type": "address"
        },
        {
          "indexed": false,
          "internalType": "uint256",
          "name": "womPerSec",
          "type": "uint256"
        }
      ],
      "name": "UpdateEmissionRate",
      "type": "event"
    },
    {
      "anonymous": false,
      "inputs": [
        {
          "indexed": true,
          "internalType": "uint256",
          "name": "pid",
          "type": "uint256"
        },
        {
          "indexed": false,
          "internalType": "uint256",
          "name": "lastRewardTimestamp",
          "type": "uint256"
        },
        {
          "indexed": false,
          "internalType": "uint256",
          "name": "lpSupply",
          "type": "uint256"
        },
        {
          "indexed": false,
          "internalType": "uint256",
          "name": "accWomPerShare",
          "type": "uint256"
        }
      ],
      "name": "UpdatePool",
      "type": "event"
    },
    {
      "anonymous": false,
      "inputs": [
        {
          "indexed": true,
          "internalType": "address",
          "name": "user",
          "type": "address"
        },
        {
          "indexed": false,
          "internalType": "address",
          "name": "oldVeWOM",
          "type": "address"
        },
        {
          "indexed": false,
          "internalType": "address",
          "name": "newVeWOM",
          "type": "address"
        }
      ],
      "name": "UpdateVeWOM",
      "type": "event"
    },
    {
      "anonymous": false,
      "inputs": [
        {
          "indexed": true,
          "internalType": "address",
          "name": "user",
          "type": "address"
        },
        {
          "indexed": true,
          "internalType": "uint256",
          "name": "pid",
          "type": "uint256"
        },
        {
          "indexed": false,
          "internalType": "uint256",
          "name": "amount",
          "type": "uint256"
        }
      ],
      "name": "Withdraw",
      "type": "event"
    },
    {
      "inputs": [
        {
          "internalType": "uint256",
          "name": "_allocPoint",
          "type": "uint256"
        },
        {
          "internalType": "contract IERC20",
          "name": "_lpToken",
          "type": "address"
        },
        {
          "internalType": "contract IRewarder",
          "name": "_rewarder",
          "type": "address"
        }
      ],
      "name": "add",
      "outputs": [],
      "stateMutability": "nonpayable",
      "type": "function"
    },
    {
      "inputs": [],
      "name": "basePartition",
      "outputs": [
        {
          "internalType": "uint256",
          "name": "",
          "type": "uint256"
        }
      ],
      "stateMutability": "view",
      "type": "function"
    },
    {
      "inputs": [],
      "name": "boostedPartition",
      "outputs": [
        {
          "internalType": "uint256",
          "name": "",
          "type": "uint256"
        }
      ],
      "stateMutability": "view",
      "type": "function"
    },
    {
      "inputs": [
        {
          "internalType": "uint256",
          "name": "_pid",
          "type": "uint256"
        },
        {
          "internalType": "uint256",
          "name": "_amount",
          "type": "uint256"
        }
      ],
      "name": "deposit",
      "outputs": [
        {
          "internalType": "uint256",
          "name": "",
          "type": "uint256"
        },
        {
          "internalType": "uint256",
          "name": "",
          "type": "uint256"
        }
      ],
      "stateMutability": "nonpayable",
      "type": "function"
    },
    {
      "inputs": [
        {
          "internalType": "uint256",
          "name": "_pid",
          "type": "uint256"
        },
        {
          "internalType": "uint256",
          "name": "_amount",
          "type": "uint256"
        },
        {
          "internalType": "address",
          "name": "_user",
          "type": "address"
        }
      ],
      "name": "depositFor",
      "outputs": [],
      "stateMutability": "nonpayable",
      "type": "function"
    },
    {
      "inputs": [
        {
          "internalType": "uint256",
          "name": "_pid",
          "type": "uint256"
        }
      ],
      "name": "emergencyWithdraw",
      "outputs": [],
      "stateMutability": "nonpayable",
      "type": "function"
    },
    {
      "inputs": [],
      "name": "emergencyWomWithdraw",
      "outputs": [],
      "stateMutability": "nonpayable",
      "type": "function"
    },
    {
      "inputs": [
        {
          "internalType": "address",
          "name": "asset",
          "type": "address"
        }
      ],
      "name": "getAssetPid",
      "outputs": [
        {
          "internalType": "uint256",
          "name": "",
          "type": "uint256"
        }
      ],
      "stateMutability": "view",
      "type": "function"
    },
    {
      "inputs": [
        {
          "internalType": "contract IERC20",
          "name": "_wom",
          "type": "address"
        },
        {
          "internalType": "contract IVeWom",
          "name": "_veWom",
          "type": "address"
        },
        {
          "internalType": "uint256",
          "name": "_womPerSec",
          "type": "uint256"
        },
        {
          "internalType": "uint256",
          "name": "_basePartition",
          "type": "uint256"
        },
        {
          "internalType": "uint256",
          "name": "_startTimestamp",
          "type": "uint256"
        }
      ],
      "name": "initialize",
      "outputs": [],
      "stateMutability": "nonpayable",
      "type": "function"
    },
    {
      "inputs": [],
      "name": "massUpdatePools",
      "outputs": [],
      "stateMutability": "nonpayable",
      "type": "function"
    },
    {
      "inputs": [
        {
          "internalType": "uint256[]",
          "name": "_pids",
          "type": "uint256[]"
        }
      ],
      "name": "migrate",
      "outputs": [],
      "stateMutability": "nonpayable",
      "type": "function"
    },
    {
      "inputs": [
        {
          "internalType": "uint256[]",
          "name": "_pids",
          "type": "uint256[]"
        }
      ],
      "name": "multiClaim",
      "outputs": [
        {
          "internalType": "uint256",
          "name": "",
          "type": "uint256"
        },
        {
          "internalType": "uint256[]",
          "name": "",
          "type": "uint256[]"
        },
        {
          "internalType": "uint256[]",
          "name": "",
          "type": "uint256[]"
        }
      ],
      "stateMutability": "nonpayable",
      "type": "function"
    },
    {
      "inputs": [],
      "name": "owner",
      "outputs": [
        {
          "internalType": "address",
          "name": "",
          "type": "address"
        }
      ],
      "stateMutability": "view",
      "type": "function"
    },
    {
      "inputs": [],
      "name": "pause",
      "outputs": [],
      "stateMutability": "nonpayable",
      "type": "function"
    },
    {
      "inputs": [],
      "name": "paused",
      "outputs": [
        {
          "internalType": "bool",
          "name": "",
          "type": "bool"
        }
      ],
      "stateMutability": "view",
      "type": "function"
    },
    {
      "inputs": [
        {
          "internalType": "uint256",
          "name": "_pid",
          "type": "uint256"
        },
        {
          "internalType": "address",
          "name": "_user",
          "type": "address"
        }
      ],
      "name": "pendingTokens",
      "outputs": [
        {
          "internalType": "uint256",
          "name": "pendingRewards",
          "type": "uint256"
        },
        {
          "internalType": "address",
          "name": "bonusTokenAddress",
          "type": "address"
        },
        {
          "internalType": "string",
          "name": "bonusTokenSymbol",
          "type": "string"
        },
        {
          "internalType": "uint256",
          "name": "pendingBonusRewards",
          "type": "uint256"
        }
      ],
      "stateMutability": "view",
      "type": "function"
    },
    {
      "inputs": [
        {
          "internalType": "uint256",
          "name": "",
          "type": "uint256"
        },
        {
          "internalType": "address",
          "name": "",
          "type": "address"
        }
      ],
      "name": "pendingWom",
      "outputs": [
        {
          "internalType": "uint256",
          "name": "",
          "type": "uint256"
        }
      ],
      "stateMutability": "view",
      "type": "function"
    },
    {
      "inputs": [
        {
          "internalType": "uint256",
          "name": "",
          "type": "uint256"
        }
      ],
      "name": "poolInfo",
      "outputs": [
        {
          "internalType": "contract IERC20",
          "name": "lpToken",
          "type": "address"
        },
        {
          "internalType": "uint256",
          "name": "allocPoint",
          "type": "uint256"
        },
        {
          "internalType": "uint256",
          "name": "lastRewardTimestamp",
          "type": "uint256"
        },
        {
          "internalType": "uint256",
          "name": "accWomPerShare",
          "type": "uint256"
        },
        {
          "internalType": "contract IRewarder",
          "name": "rewarder",
          "type": "address"
        },
        {
          "internalType": "uint256",
          "name": "sumOfFactors",
          "type": "uint256"
        },
        {
          "internalType": "uint256",
          "name": "accWomPerFactorShare",
          "type": "uint256"
        }
      ],
      "stateMutability": "view",
      "type": "function"
    },
    {
      "inputs": [],
      "name": "poolLength",
      "outputs": [
        {
          "internalType": "uint256",
          "name": "",
          "type": "uint256"
        }
      ],
      "stateMutability": "view",
      "type": "function"
    },
    {
      "inputs": [],
      "name": "renounceOwnership",
      "outputs": [],
      "stateMutability": "nonpayable",
      "type": "function"
    },
    {
      "inputs": [
        {
          "internalType": "uint256",
          "name": "_pid",
          "type": "uint256"
        }
      ],
      "name": "rewarderBonusTokenInfo",
      "outputs": [
        {
          "internalType": "address",
          "name": "bonusTokenAddress",
          "type": "address"
        },
        {
          "internalType": "string",
          "name": "bonusTokenSymbol",
          "type": "string"
        }
      ],
      "stateMutability": "view",
      "type": "function"
    },
    {
      "inputs": [
        {
          "internalType": "uint256",
          "name": "_pid",
          "type": "uint256"
        },
        {
          "internalType": "uint256",
          "name": "_allocPoint",
          "type": "uint256"
        },
        {
          "internalType": "contract IRewarder",
          "name": "_rewarder",
          "type": "address"
        },
        {
          "internalType": "bool",
          "name": "overwrite",
          "type": "bool"
        }
      ],
      "name": "set",
      "outputs": [],
      "stateMutability": "nonpayable",
      "type": "function"
    },
    {
      "inputs": [
        {
          "internalType": "contract IMasterWombat",
          "name": "_newMasterWombat",
          "type": "address"
        }
      ],
      "name": "setNewMasterWombat",
      "outputs": [],
      "stateMutability": "nonpayable",
      "type": "function"
    },
    {
      "inputs": [
        {
          "internalType": "contract IVeWom",
          "name": "_newVeWom",
          "type": "address"
        }
      ],
      "name": "setVeWom",
      "outputs": [],
      "stateMutability": "nonpayable",
      "type": "function"
    },
    {
      "inputs": [],
      "name": "startTimestamp",
      "outputs": [
        {
          "internalType": "uint256",
          "name": "",
          "type": "uint256"
        }
      ],
      "stateMutability": "view",
      "type": "function"
    },
    {
      "inputs": [],
      "name": "totalAllocPoint",
      "outputs": [
        {
          "internalType": "uint256",
          "name": "",
          "type": "uint256"
        }
      ],
      "stateMutability": "view",
      "type": "function"
    },
    {
      "inputs": [
        {
          "internalType": "address",
          "name": "newOwner",
          "type": "address"
        }
      ],
      "name": "transferOwnership",
      "outputs": [],
      "stateMutability": "nonpayable",
      "type": "function"
    },
    {
      "inputs": [],
      "name": "unpause",
      "outputs": [],
      "stateMutability": "nonpayable",
      "type": "function"
    },
    {
      "inputs": [
        {
          "internalType": "uint256",
          "name": "_basePartition",
          "type": "uint256"
        }
      ],
      "name": "updateEmissionPartition",
      "outputs": [],
      "stateMutability": "nonpayable",
      "type": "function"
    },
    {
      "inputs": [
        {
          "internalType": "uint256",
          "name": "_womPerSec",
          "type": "uint256"
        }
      ],
      "name": "updateEmissionRate",
      "outputs": [],
      "stateMutability": "nonpayable",
      "type": "function"
    },
    {
      "inputs": [
        {
          "internalType": "address",
          "name": "_user",
          "type": "address"
        },
        {
          "internalType": "uint256",
          "name": "_newVeWomBalance",
          "type": "uint256"
        }
      ],
      "name": "updateFactor",
      "outputs": [],
      "stateMutability": "nonpayable",
      "type": "function"
    },
    {
      "inputs": [
        {
          "internalType": "uint256",
          "name": "_pid",
          "type": "uint256"
        }
      ],
      "name": "updatePool",
      "outputs": [],
      "stateMutability": "nonpayable",
      "type": "function"
    },
    {
      "inputs": [
        {
          "internalType": "uint256",
          "name": "",
          "type": "uint256"
        },
        {
          "internalType": "address",
          "name": "",
          "type": "address"
        }
      ],
      "name": "userInfo",
      "outputs": [
        {
          "internalType": "uint256",
          "name": "amount",
          "type": "uint256"
        },
        {
          "internalType": "uint256",
          "name": "rewardDebt",
          "type": "uint256"
        },
        {
          "internalType": "uint256",
          "name": "factor",
          "type": "uint256"
        }
      ],
      "stateMutability": "view",
      "type": "function"
    },
    {
      "inputs": [],
      "name": "veWom",
      "outputs": [
        {
          "internalType": "contract IVeWom",
          "name": "",
          "type": "address"
        }
      ],
      "stateMutability": "view",
      "type": "function"
    },
    {
      "inputs": [
        {
          "internalType": "uint256",
          "name": "_pid",
          "type": "uint256"
        },
        {
          "internalType": "uint256",
          "name": "_amount",
          "type": "uint256"
        }
      ],
      "name": "withdraw",
      "outputs": [
        {
          "internalType": "uint256",
          "name": "",
          "type": "uint256"
        },
        {
          "internalType": "uint256",
          "name": "",
          "type": "uint256"
        }
      ],
      "stateMutability": "nonpayable",
      "type": "function"
    },
    {
      "inputs": [],
      "name": "wom",
      "outputs": [
        {
          "internalType": "contract IERC20",
          "name": "",
          "type": "address"
        }
      ],
      "stateMutability": "view",
      "type": "function"
    },
    {
      "inputs": [],
      "name": "womPerSec",
      "outputs": [
        {
          "internalType": "uint256",
          "name": "",
          "type": "uint256"
        }
      ],
      "stateMutability": "view",
      "type": "function"
    }
  ],
  "transactionHash": "0xcb4a61dcb07265873cbf1802aa1e3996853eee43b30e46738dd5e85db9177f11",
  "args": [],
  "solcInputHash": "cc8fa6e2cd2014da09908c4fc7433c7f",
  "bytecode": "0x608060405234801561001057600080fd5b5061442f806100206000396000f3fe608060405234801561001057600080fd5b50600436106102775760003560e01c806390210d7e11610160578063c5a6222e116100d8578063e6fd48bc1161008c578063f2fde38b11610071578063f2fde38b1461058b578063f98ed45c1461059e578063ffcd4263146105b157600080fd5b8063e6fd48bc1461057a578063f13e55071461058357600080fd5b8063d1e2ac88116100bd578063d1e2ac8814610541578063d93bf4fe14610554578063e2bbb1581461056757600080fd5b8063c5a6222e1461051b578063d13f90b41461052e57600080fd5b8063ab7de0981161012f578063af929a8011610114578063af929a80146104de578063bc70fdbc146104f1578063be159bea1461051257600080fd5b8063ab7de098146104c2578063abfef111146104d557600080fd5b806390210d7e1461041c57806393f1a40b1461042f5780639b128de614610484578063a7bb616b1461049757600080fd5b806351eb05a6116101f3578063715018a6116101c257806388bba42f116101a757806388bba42f146103ef5780638a81372f146104025780638da5cb5b1461040b57600080fd5b8063715018a6146103df5780638456cb59146103e757600080fd5b806351eb05a61461039b5780635312ea8e146103ae5780635c975abb146103c1578063630b5ba1146103d757600080fd5b80633e582ae61161024a578063441a3e701161022f578063441a3e701461033e5780634ed73d28146103665780634f00a93e1461038857600080fd5b80633e582ae61461030b5780633f4ba83a1461033657600080fd5b8063081e3eda1461027c5780630ba84cd2146102935780631526fe27146102a857806317caf6f114610302575b600080fd5b60d1545b6040519081526020015b60405180910390f35b6102a66102a1366004614028565b6105d4565b005b6102bb6102b6366004614028565b610667565b604080516001600160a01b03988916815260208101979097528601949094526060850192909252909316608083015260a082019290925260c081019190915260e00161028a565b61028060cf5481565b60ca5461031e906001600160a01b031681565b6040516001600160a01b03909116815260200161028a565b6102a66106c2565b61035161034c3660046140cc565b610714565b6040805192835260208301919091520161028a565b610379610374366004613e5c565b610b63565b60405161028a93929190614257565b6102a6610396366004613dbb565b610c21565b6102a66103a9366004614028565b610e39565b6102a66103bc366004614028565b610e45565b60975460ff16604051901515815260200161028a565b6102a6610f67565b6102a6610f92565b6102a6610fe4565b6102a66103fd36600461411c565b611034565b61028060cc5481565b6033546001600160a01b031661031e565b6102a661042a3660046140ee565b611241565b61046961043d36600461405a565b60d460209081526000928352604080842090915290825290208054600182015460029092015490919083565b6040805193845260208401929092529082015260600161028a565b6102a6610492366004613d9e565b61167d565b6102806104a536600461405a565b60d560209081526000928352604080842090915290825290205481565b6102a66104d036600461408a565b611743565b61028060cd5481565b6102806104ec366004613d9e565b611af6565b6105046104ff366004614028565b611b21565b60405161028a9291906141e9565b61028060ce5481565b60c95461031e906001600160a01b031681565b6102a661053c366004613f43565b611cfc565b6102a661054f366004613d9e565b611f3a565b6102a6610562366004613de7565b611fa4565b6103516105753660046140cc565b612256565b61028060d05481565b6102a66125f1565b6102a6610599366004613d9e565b6126cd565b6102a66105ac366004614028565b61279a565b6105c46105bf36600461405a565b612851565b60405161028a949392919061421e565b6033546001600160a01b031633146106215760405162461bcd60e51b815260206004820181905260248201526000805160206143da83398151915260448201526064015b60405180910390fd5b610629610f67565b60cc81905560405181815233907fe2492e003bbe8afa53088b406f0c1cb5d9e280370fc72a74cf116ffd343c4053906020015b60405180910390a250565b60d1818154811061067757600080fd5b600091825260209091206007909102018054600182015460028301546003840154600485015460058601546006909601546001600160a01b0395861697509395929491939116919087565b6033546001600160a01b0316331461070a5760405162461bcd60e51b815260206004820181905260248201526000805160206143da8339815191526044820152606401610618565b610712612b4f565b565b6000806002606554141561076a5760405162461bcd60e51b815260206004820152601f60248201527f5265656e7472616e637947756172643a207265656e7472616e742063616c6c006044820152606401610618565b600260655560975460ff16156107b55760405162461bcd60e51b815260206004820152601060248201526f14185d5cd8589b194e881c185d5cd95960821b6044820152606401610618565b600060d185815481106107ca576107ca61438a565b6000918252602080832088845260d48252604080852033865290925292208054600790920290920192508511156108435760405162461bcd60e51b815260206004820152601260248201527f77697468647261773a206e6f7420676f6f6400000000000000000000000000006044820152606401610618565b61084c86612beb565b6001810154600087815260d5602090815260408083203384529091528120546006850154600285015492939264e8d4a5100091610888916142f7565b6003870154865461089991906142f7565b6108a391906142bd565b6108ad91906142d5565b6108b791906142bd565b6108c19190614316565b600088815260d5602090815260408083203380855292528220919091559091506108eb9082612dee565b905086336001600160a01b03167f71bab65ced2e5750775a0613be067df48ef06cf92a496ebf7663ae06609249548360405161092991815260200190565b60405180910390a360028201548254610943908890614316565b835560ca546040516370a0823160e01b81523360048201526109d4916001600160a01b0316906370a08231906024015b60206040518083038186803b15801561098b57600080fd5b505afa15801561099f573d6000803e3d6000fd5b505050506040513d601f19601f820116820180604052508101906109c39190614041565b84546109cf91906142f7565b612fe5565b60028401819055600585015482916109eb916142bd565b6109f59190614316565b60058501556006840154600284015464e8d4a5100091610a14916142f7565b60038601548554610a2591906142f7565b610a2f91906142bd565b610a3991906142d5565b8360010181905550600060d18981548110610a5657610a5661438a565b600091825260208220600460079092020101546001600160a01b031691508115610b0057845460405163186e465160e31b815233600482015260248101919091526001600160a01b0383169063c372328890604401602060405180830381600087803b158015610ac557600080fd5b505af1158015610ad9573d6000803e3d6000fd5b505050506040513d601f19601f82011682018060405250810190610afd9190614041565b90505b8554610b16906001600160a01b0316338b613055565b6040518981528a9033907ff279e6a1f5e320cca91135676d9cb6e44ca8a08c0b88342bcdb1144f6511b568906020015b60405180910390a360016065559299929850919650505050505050565b600060608060026065541415610bbb5760405162461bcd60e51b815260206004820152601f60248201527f5265656e7472616e637947756172643a207265656e7472616e742063616c6c006044820152606401610618565b600260655560975460ff1615610c065760405162461bcd60e51b815260206004820152601060248201526f14185d5cd8589b194e881c185d5cd95960821b6044820152606401610618565b610c0f846130ea565b92509250925060016065559193909250565b60ca546001600160a01b03163314610ca15760405162461bcd60e51b815260206004820152602160248201527f4d6173746572576f6d6261743a2063616c6c6572206973206e6f74205665576f60448201527f6d000000000000000000000000000000000000000000000000000000000000006064820152608401610618565b60d15460005b81811015610e3357600081815260d4602090815260408083206001600160a01b038816845290915290208054610cdd5750610e23565b600060d18381548110610cf257610cf261438a565b90600052602060002090600702019050610d0b83612beb565b6000826001015464e8d4a5100083600601548560020154610d2c91906142f7565b60038501548654610d3d91906142f7565b610d4791906142bd565b610d5191906142d5565b610d5b9190614316565b600085815260d5602090815260408083206001600160a01b038c168452909152812080549293508392909190610d929084906142bd565b909155505060028301548354600090610daf906109cf908a6142f7565b60028601819055600685015490915064e8d4a5100090610dcf90836142f7565b60038601548754610de091906142f7565b610dea91906142bd565b610df491906142d5565b600186015560058401548290610e0b9083906142bd565b610e159190614316565b846005018190555050505050505b610e2c81614359565b9050610ca7565b50505050565b610e4281612beb565b50565b60026065541415610e985760405162461bcd60e51b815260206004820152601f60248201527f5265656e7472616e637947756172643a207265656e7472616e742063616c6c006044820152606401610618565b6002606581905550600060d18281548110610eb557610eb561438a565b6000918252602080832085845260d482526040808520338087529352909320805460079093029093018054909450610efa926001600160a01b03919091169190613055565b80600201548260050154610f0e9190614316565b600583015560006002820181905580825560018201819055604051908152839033907fbb757047c2b5f3974fe26b7c10f732e7bce710b0952a71082702781e62ae05959060200160405180910390a35050600160655550565b60d15460005b81811015610f8e57610f7e81612beb565b610f8781614359565b9050610f6d565b5050565b6033546001600160a01b03163314610fda5760405162461bcd60e51b815260206004820181905260248201526000805160206143da8339815191526044820152606401610618565b61071260006135f6565b6033546001600160a01b0316331461102c5760405162461bcd60e51b815260206004820181905260248201526000805160206143da8339815191526044820152606401610618565b610712613648565b6033546001600160a01b0316331461107c5760405162461bcd60e51b815260206004820181905260248201526000805160206143da8339815191526044820152606401610618565b813b15158061109257506001600160a01b038216155b6110ed5760405162461bcd60e51b815260206004820152602660248201527f7365743a207265776172646572206d75737420626520636f6e7472616374206f60448201526572207a65726f60d01b6064820152608401610618565b6110f5610f67565b8260d185815481106111095761110961438a565b90600052602060002090600702016001015460cf546111289190614316565b61113291906142bd565b60cf819055508260d1858154811061114c5761114c61438a565b90600052602060002090600702016001018190555080156111b1578160d1858154811061117b5761117b61438a565b906000526020600020906007020160040160006101000a8154816001600160a01b0302191690836001600160a01b031602179055505b806111eb5760d184815481106111c9576111c961438a565b60009182526020909120600460079092020101546001600160a01b03166111ed565b815b6001600160a01b0316847fa54644aae5c48c5971516f334e4fe8ecbc7930e23f34877d4203c6551e67ffaa85846040516112339291909182521515602082015260400190565b60405180910390a350505050565b600260655414156112945760405162461bcd60e51b815260206004820152601f60248201527f5265656e7472616e637947756172643a207265656e7472616e742063616c6c006044820152606401610618565b6002606555326001600160a01b038216146112f15760405162461bcd60e51b815260206004820152601060248201527f6465706f736974466f723a207775743f000000000000000000000000000000006044820152606401610618565b600060d184815481106113065761130661438a565b6000918252602080832087845260d4825260408085206001600160a01b038816865290925292206007909102909101915061134085612beb565b80541561143c576001810154600086815260d5602090815260408083206001600160a01b03881684529091528120546006850154600285015492939264e8d4a510009161138c916142f7565b6003870154865461139d91906142f7565b6113a791906142bd565b6113b191906142d5565b6113bb91906142bd565b6113c59190614316565b600087815260d5602090815260408083206001600160a01b038916845290915281205590506113f48482612dee565b905085846001600160a01b03167f71bab65ced2e5750775a0613be067df48ef06cf92a496ebf7663ae06609249548360405161143291815260200190565b60405180910390a3505b8381600001600082825461145091906142bd565b9091555050600281015460ca546040516370a0823160e01b81526001600160a01b0386811660048301526114e59216906370a082319060240160206040518083038186803b1580156114a157600080fd5b505afa1580156114b5573d6000803e3d6000fd5b505050506040513d601f19601f820116820180604052508101906114d99190614041565b83546109cf91906142f7565b60028301819055600584015482916114fc916142bd565b6115069190614316565b60058401556006830154600283015464e8d4a5100091611525916142f7565b6003850154845461153691906142f7565b61154091906142bd565b61154a91906142d5565b8260010181905550600060d187815481106115675761156761438a565b60009182526020909120600460079092020101546001600160a01b03169050801561161457825460405163186e465160e31b81526001600160a01b03878116600483015260248201929092529082169063c372328890604401602060405180830381600087803b1580156115da57600080fd5b505af11580156115ee573d6000803e3d6000fd5b505050506040513d601f19601f820116820180604052508101906116129190614041565b505b835461162b906001600160a01b03163330896136c3565b86856001600160a01b03167f16f3fbfd4bcc50a5cecb2e53e398a1ad77d89f63288ef540d862b264ed57eb1f8860405161166791815260200190565b60405180910390a3505060016065555050505050565b6033546001600160a01b031633146116c55760405162461bcd60e51b815260206004820181905260248201526000805160206143da8339815191526044820152606401610618565b6001600160a01b0381166116d857600080fd5b6116e0610f67565b60ca80546001600160a01b038381166001600160a01b0319831681179093556040805191909216808252602082019390935233917fa0956d8e03557278fdb89913cec4e0f21da09587edf25b3eecc0079cdb757ef5910160405180910390a25050565b6033546001600160a01b0316331461178b5760405162461bcd60e51b815260206004820181905260248201526000805160206143da8339815191526044820152606401610618565b813b6117ff5760405162461bcd60e51b815260206004820152602660248201527f6164643a204c5020746f6b656e206d75737420626520612076616c696420636f60448201527f6e747261637400000000000000000000000000000000000000000000000000006064820152608401610618565b803b15158061181557506001600160a01b038116155b6118705760405162461bcd60e51b815260206004820152602660248201527f6164643a207265776172646572206d75737420626520636f6e7472616374206f60448201526572207a65726f60d01b6064820152608401610618565b61187b60d283613714565b156118c85760405162461bcd60e51b815260206004820152601560248201527f6164643a204c5020616c726561647920616464656400000000000000000000006044820152606401610618565b6118d0610f67565b600060d05442116118e35760d0546118e5565b425b90508360cf546118f591906142bd565b60cf556040805160e0810182526001600160a01b0380861680835260208084018981528486018781526000606087018181528a87166080890190815260a0890183815260c08a0184815260d180546001810182558187529b516007909c027f695fb3134ad82c3b8022bc5464edd0bcc9424ef672b52245dcb6ab2374327ce3810180549d8d166001600160a01b03199e8f1617905597517f695fb3134ad82c3b8022bc5464edd0bcc9424ef672b52245dcb6ab2374327ce489015595517f695fb3134ad82c3b8022bc5464edd0bcc9424ef672b52245dcb6ab2374327ce588015592517f695fb3134ad82c3b8022bc5464edd0bcc9424ef672b52245dcb6ab2374327ce687015590517f695fb3134ad82c3b8022bc5464edd0bcc9424ef672b52245dcb6ab2374327ce7860180549190991699169890981790965595517f695fb3134ad82c3b8022bc5464edd0bcc9424ef672b52245dcb6ab2374327ce883015593517f695fb3134ad82c3b8022bc5464edd0bcc9424ef672b52245dcb6ab2374327ce990910155915490835260d690915291902055611a9660d284613739565b50816001600160a01b0316836001600160a01b0316600160d180549050611abd9190614316565b6040518781527f4b16bd2431ad24dc020ab0e1de7fcb6563dead6a24fb10089d6c23e97a70381f9060200160405180910390a450505050565b6001600160a01b038116600090815260d66020526040812054611b1b90600190614316565b92915050565b60006060600060d18481548110611b3a57611b3a61438a565b6000918252602090912060079091020160048101549091506001600160a01b031615611cf657600480820154604080517ff7c618c100000000000000000000000000000000000000000000000000000000815290516001600160a01b039092169263f7c618c1928282019260209290829003018186803b158015611bbd57600080fd5b505afa158015611bd1573d6000803e3d6000fd5b505050506040513d601f19601f82011682018060405250810190611bf59190613f26565b92508060040160009054906101000a90046001600160a01b03166001600160a01b031663f7c618c16040518163ffffffff1660e01b815260040160206040518083038186803b158015611c4757600080fd5b505afa158015611c5b573d6000803e3d6000fd5b505050506040513d601f19601f82011682018060405250810190611c7f9190613f26565b6001600160a01b03166395d89b416040518163ffffffff1660e01b815260040160006040518083038186803b158015611cb757600080fd5b505afa158015611ccb573d6000803e3d6000fd5b505050506040513d6000823e601f3d908101601f19168201604052611cf39190810190613f94565b91505b50915091565b600054610100900460ff1680611d15575060005460ff16155b611d785760405162461bcd60e51b815260206004820152602e60248201527f496e697469616c697a61626c653a20636f6e747261637420697320616c72656160448201526d191e481a5b9a5d1a585b1a5e995960921b6064820152608401610618565b600054610100900460ff16158015611d9a576000805461ffff19166101011790555b6001600160a01b038616611df05760405162461bcd60e51b815260206004820152601a60248201527f776f6d20616464726573732063616e6e6f74206265207a65726f0000000000006044820152606401610618565b83611e3d5760405162461bcd60e51b815260206004820152601a60248201527f776f6d20706572207365632063616e6e6f74206265207a65726f0000000000006044820152606401610618565b6103e8831115611eb55760405162461bcd60e51b815260206004820152602760248201527f6261736520706172746974696f6e206d75737420626520696e2072616e67652060448201527f302c2031303030000000000000000000000000000000000000000000000000006064820152608401610618565b611ebd61374e565b611ec5613810565b611ecd6138c7565b60c980546001600160a01b038089166001600160a01b03199283161790925560ca80549288169290911691909117905560cc84905560cd839055611f13836103e8614316565b60ce5560d0829055600060cf558015611f32576000805461ff00191690555b505050505050565b6033546001600160a01b03163314611f825760405162461bcd60e51b815260206004820181905260248201526000805160206143da8339815191526044820152606401610618565b60cb80546001600160a01b0319166001600160a01b0392909216919091179055565b60026065541415611ff75760405162461bcd60e51b815260206004820152601f60248201527f5265656e7472616e637947756172643a207265656e7472616e742063616c6c006044820152606401610618565b600260655560cb546001600160a01b03166120545760405162461bcd60e51b815260206004820152600960248201527f746f2077686572653f00000000000000000000000000000000000000000000006044820152606401610618565b6120908282808060200260200160405190810160405280939291908181526020018383602002808284376000920191909152506130ea92505050565b50505060005b8181101561224c5760008383838181106120b2576120b261438a565b60209081029290920135600081815260d4845260408082203383529094529290922080549293509115905061223957600060d183815481106120f6576120f661438a565b60009182526020909120600790910201805460cb5484546040517f095ea7b30000000000000000000000000000000000000000000000000000000081526001600160a01b0392831660048201526024810191909152929350169063095ea7b390604401602060405180830381600087803b15801561217357600080fd5b505af1158015612187573d6000803e3d6000fd5b505050506040513d601f19601f820116820180604052508101906121ab9190613f09565b5060cb5482546040517f90210d7e0000000000000000000000000000000000000000000000000000000081526004810186905260248101919091523360448201526001600160a01b03909116906390210d7e90606401600060405180830381600087803b15801561221b57600080fd5b505af115801561222f573d6000803e3d6000fd5b5050600084555050505b50508061224590614359565b9050612096565b5050600160655550565b600080600260655414156122ac5760405162461bcd60e51b815260206004820152601f60248201527f5265656e7472616e637947756172643a207265656e7472616e742063616c6c006044820152606401610618565b600260655560975460ff16156122f75760405162461bcd60e51b815260206004820152601060248201526f14185d5cd8589b194e881c185d5cd95960821b6044820152606401610618565b600060d1858154811061230c5761230c61438a565b6000918252602080832088845260d48252604080852033865290925292206007909102909101915061233d86612beb565b80546000901561242a576001820154600088815260d5602090815260408083203384529091529020546006850154600285015464e8d4a5100091612380916142f7565b6003870154865461239191906142f7565b61239b91906142bd565b6123a591906142d5565b6123af91906142bd565b6123b99190614316565b600088815260d5602090815260408083203380855292528220919091559091506123e39082612dee565b905086336001600160a01b03167f71bab65ced2e5750775a0613be067df48ef06cf92a496ebf7663ae06609249548360405161242191815260200190565b60405180910390a35b8582600001600082825461243e91906142bd565b9091555050600282015460ca546040516370a0823160e01b815233600482015261247a916001600160a01b0316906370a0823190602401610973565b6002840181905560058501548291612491916142bd565b61249b9190614316565b60058501556006840154600284015464e8d4a51000916124ba916142f7565b600386015485546124cb91906142f7565b6124d591906142bd565b6124df91906142d5565b8360010181905550600060d189815481106124fc576124fc61438a565b600091825260208220600460079092020101546001600160a01b0316915081156125a657845460405163186e465160e31b815233600482015260248101919091526001600160a01b0383169063c372328890604401602060405180830381600087803b15801561256b57600080fd5b505af115801561257f573d6000803e3d6000fd5b505050506040513d601f19601f820116820180604052508101906125a39190614041565b90505b85546125bd906001600160a01b031633308c6136c3565b6040518981528a9033907f90890809c654f11d6e72a28fa60149770a0d11ec6c92319d6ceb2bb0a4ea1a1590602001610b46565b6033546001600160a01b031633146126395760405162461bcd60e51b815260206004820181905260248201526000805160206143da8339815191526044820152606401610618565b60c9546040516370a0823160e01b81523060048201526107129133916001600160a01b03909116906370a082319060240160206040518083038186803b15801561268257600080fd5b505afa158015612696573d6000803e3d6000fd5b505050506040513d601f19601f820116820180604052508101906126ba9190614041565b60c9546001600160a01b03169190613055565b6033546001600160a01b031633146127155760405162461bcd60e51b815260206004820181905260248201526000805160206143da8339815191526044820152606401610618565b6001600160a01b0381166127915760405162461bcd60e51b815260206004820152602660248201527f4f776e61626c653a206e6577206f776e657220697320746865207a65726f206160448201527f64647265737300000000000000000000000000000000000000000000000000006064820152608401610618565b610e42816135f6565b6033546001600160a01b031633146127e25760405162461bcd60e51b815260206004820181905260248201526000805160206143da8339815191526044820152606401610618565b6103e88111156127f157600080fd5b6127f9610f67565b60cd81905561280a816103e8614316565b60ce55337f7fd921cf733c788915a229b0ea58095c44ae2c275ed7835501e5135fe3c1ed058261283c816103e8614316565b6040805192835260208301919091520161065c565b600080606060008060d1878154811061286c5761286c61438a565b600091825260208083208a845260d4825260408085206001600160a01b038c81168752935280852060079490940290910160038101546006820154825493516370a0823160e01b81523060048201529297509495909493909216906370a082319060240160206040518083038186803b1580156128e857600080fd5b505afa1580156128fc573d6000803e3d6000fd5b505050506040513d601f19601f820116820180604052508101906129209190614041565b905084600201544211801561293457508015155b15612a0c57600085600201544261294b9190614316565b9050600060cf54876001015460cc548461296591906142f7565b61296f91906142f7565b61297991906142d5565b9050612987836103e86142f7565b60cd546129998364e8d4a510006142f7565b6129a391906142f7565b6129ad91906142d5565b6129b790866142bd565b94508660050154600014612a095760058701546129d6906103e86142f7565b60ce546129e88364e8d4a510006142f7565b6129f291906142f7565b6129fc91906142d5565b612a0690856142bd565b93505b50505b600184015460008c815260d5602090815260408083206001600160a01b038f168452909152902054600286015464e8d4a5100090612a4b9086906142f7565b8754612a589088906142f7565b612a6291906142bd565b612a6c91906142d5565b612a7691906142bd565b612a809190614316565b60048601549099506001600160a01b031615612b4157612a9f8b611b21565b6004878101546040517fc031a66f0000000000000000000000000000000000000000000000000000000081526001600160a01b038f811693820193909352939b50919950169063c031a66f9060240160206040518083038186803b158015612b0657600080fd5b505afa158015612b1a573d6000803e3d6000fd5b505050506040513d601f19601f82011682018060405250810190612b3e9190614041565b95505b505050505092959194509250565b60975460ff16612ba15760405162461bcd60e51b815260206004820152601460248201527f5061757361626c653a206e6f74207061757365640000000000000000000000006044820152606401610618565b6097805460ff191690557f5db9ee0a495bf2e6ff9c91a7834c1ba4fdd244a5e8aa4e537bd38aeae4b073aa335b6040516001600160a01b03909116815260200160405180910390a1565b600060d18281548110612c0057612c0061438a565b906000526020600020906007020190508060020154421115610f8e5780546040516370a0823160e01b81523060048201526000916001600160a01b0316906370a082319060240160206040518083038186803b158015612c5f57600080fd5b505afa158015612c73573d6000803e3d6000fd5b505050506040513d601f19601f82011682018060405250810190612c979190614041565b905080612ca957504260029091015550565b6000826002015442612cbb9190614316565b9050600060cf54846001015460cc5484612cd591906142f7565b612cdf91906142f7565b612ce991906142d5565b9050612cf7836103e86142f7565b60cd54612d098364e8d4a510006142f7565b612d1391906142f7565b612d1d91906142d5565b846003016000828254612d3091906142bd565b90915550506005840154612d4a5760006006850155612d9a565b6005840154612d5b906103e86142f7565b60ce54612d6d8364e8d4a510006142f7565b612d7791906142f7565b612d8191906142d5565b846006016000828254612d9491906142bd565b90915550505b42600285018190556003850154604080519283526020830186905282015285907f3be3541fc42237d611b30329040bfa4569541d156560acdbbae57640d20b8f469060600160405180910390a25050505050565b60c9546040516370a0823160e01b815230600482015260009182916001600160a01b03909116906370a082319060240160206040518083038186803b158015612e3657600080fd5b505afa158015612e4a573d6000803e3d6000fd5b505050506040513d601f19601f82011682018060405250810190612e6e9190614041565b905060008111612ec05760405162461bcd60e51b815260206004820152601760248201527f4e6f20746f6b656e7320746f20646973747269627574650000000000000000006044820152606401610618565b80831115612f565760c95460405163a9059cbb60e01b81526001600160a01b038681166004830152602482018490529091169063a9059cbb90604401602060405180830381600087803b158015612f1657600080fd5b505af1158015612f2a573d6000803e3d6000fd5b505050506040513d601f19601f82011682018060405250810190612f4e9190613f09565b509050611b1b565b60c95460405163a9059cbb60e01b81526001600160a01b038681166004830152602482018690529091169063a9059cbb90604401602060405180830381600087803b158015612fa457600080fd5b505af1158015612fb8573d6000803e3d6000fd5b505050506040513d601f19601f82011682018060405250810190612fdc9190613f09565b50919392505050565b600060038211156130465750806000612fff6002836142d5565b61300a9060016142bd565b90505b818110156130405790508060028161302581866142d5565b61302f91906142bd565b61303991906142d5565b905061300d565b50919050565b8115613050575060015b919050565b6040516001600160a01b0383166024820152604481018290526130e590849063a9059cbb60e01b906064015b60408051601f198184030181529190526020810180517bffffffffffffffffffffffffffffffffffffffffffffffffffffffff167fffffffff0000000000000000000000000000000000000000000000000000000090931692909217909152613983565b505050565b6000606080600080855167ffffffffffffffff81111561310c5761310c6143a0565b604051908082528060200260200182016040528015613135578160200160208202803683370190505b5090506000865167ffffffffffffffff811115613154576131546143a0565b60405190808252806020026020018201604052801561317d578160200160208202803683370190505b50905060005b875181101561345a57600060d460008a84815181106131a4576131a461438a565b602090810291909101810151825281810192909252604090810160009081203382529092529020805490915015613449576131f78983815181106131ea576131ea61438a565b6020026020010151612beb565b600060d18a848151811061320d5761320d61438a565b6020026020010151815481106132255761322561438a565b906000526020600020906007020190506000826001015460d560008d87815181106132525761325261438a565b602002602001015181526020019081526020016000206000336001600160a01b03166001600160a01b031681526020019081526020016000205464e8d4a51000846006015486600201546132a691906142f7565b600386015487546132b791906142f7565b6132c191906142bd565b6132cb91906142d5565b6132d591906142bd565b6132df9190614316565b9050600060d560008d87815181106132f9576132f961438a565b602090810291909101810151825281810192909252604090810160009081203382529092529020556006820154600284015464e8d4a510009161333b916142f7565b6003840154855461334c91906142f7565b61335691906142bd565b61336091906142d5565b600184015561336f81886142bd565b9650808685815181106133845761338461438a565b602090810291909101015260048201546001600160a01b0316801561344557835460405163186e465160e31b815233600482015260248101919091526001600160a01b0382169063c372328890604401602060405180830381600087803b1580156133ee57600080fd5b505af1158015613402573d6000803e3d6000fd5b505050506040513d601f19601f820116820180604052508101906134269190614041565b8686815181106134385761343861438a565b6020026020010181815250505b5050505b5061345381614359565b9050613183565b5060006134673385612dee565b90508381146135565760005b8851811015613550578484828151811061348f5761348f61438a565b6020026020010151836134a291906142f7565b6134ac91906142d5565b8482815181106134be576134be61438a565b6020026020010181815250508881815181106134dc576134dc61438a565b6020026020010151336001600160a01b03167f71bab65ced2e5750775a0613be067df48ef06cf92a496ebf7663ae06609249548684815181106135215761352161438a565b602002602001015160405161353891815260200190565b60405180910390a361354981614359565b9050613473565b506135ea565b60005b88518110156135e8578881815181106135745761357461438a565b6020026020010151336001600160a01b03167f71bab65ced2e5750775a0613be067df48ef06cf92a496ebf7663ae06609249548684815181106135b9576135b961438a565b60200260200101516040516135d091815260200190565b60405180910390a36135e181614359565b9050613559565b505b97919650945092505050565b603380546001600160a01b038381166001600160a01b0319831681179093556040519116919082907f8be0079c531659141344cd1fd0a4f28419497f9722a3daafe3b4186f6b6457e090600090a35050565b60975460ff161561368e5760405162461bcd60e51b815260206004820152601060248201526f14185d5cd8589b194e881c185d5cd95960821b6044820152606401610618565b6097805460ff191660011790557f62e78cea01bee320cd4e420270b5ea74000d11b0c9f74754ebdbfc544b05a258612bce3390565b6040516001600160a01b0380851660248301528316604482015260648101829052610e339085907f23b872dd0000000000000000000000000000000000000000000000000000000090608401613081565b6001600160a01b038116600090815260018301602052604081205415155b9392505050565b6000613732836001600160a01b038416613a68565b600054610100900460ff1680613767575060005460ff16155b6137ca5760405162461bcd60e51b815260206004820152602e60248201527f496e697469616c697a61626c653a20636f6e747261637420697320616c72656160448201526d191e481a5b9a5d1a585b1a5e995960921b6064820152608401610618565b600054610100900460ff161580156137ec576000805461ffff19166101011790555b6137f4613ab7565b6137fc613b68565b8015610e42576000805461ff001916905550565b600054610100900460ff1680613829575060005460ff16155b61388c5760405162461bcd60e51b815260206004820152602e60248201527f496e697469616c697a61626c653a20636f6e747261637420697320616c72656160448201526d191e481a5b9a5d1a585b1a5e995960921b6064820152608401610618565b600054610100900460ff161580156138ae576000805461ffff19166101011790555b60016065558015610e42576000805461ff001916905550565b600054610100900460ff16806138e0575060005460ff16155b6139435760405162461bcd60e51b815260206004820152602e60248201527f496e697469616c697a61626c653a20636f6e747261637420697320616c72656160448201526d191e481a5b9a5d1a585b1a5e995960921b6064820152608401610618565b600054610100900460ff16158015613965576000805461ffff19166101011790555b6097805460ff191690558015610e42576000805461ff001916905550565b60006139d8826040518060400160405280602081526020017f5361666545524332303a206c6f772d6c6576656c2063616c6c206661696c6564815250856001600160a01b0316613c0f9092919063ffffffff16565b8051909150156130e557808060200190518101906139f69190613f09565b6130e55760405162461bcd60e51b815260206004820152602a60248201527f5361666545524332303a204552433230206f7065726174696f6e20646964206e60448201527f6f742073756363656564000000000000000000000000000000000000000000006064820152608401610618565b6000818152600183016020526040812054613aaf57508154600181810184556000848152602080822090930184905584548482528286019093526040902091909155611b1b565b506000611b1b565b600054610100900460ff1680613ad0575060005460ff16155b613b335760405162461bcd60e51b815260206004820152602e60248201527f496e697469616c697a61626c653a20636f6e747261637420697320616c72656160448201526d191e481a5b9a5d1a585b1a5e995960921b6064820152608401610618565b600054610100900460ff161580156137fc576000805461ffff19166101011790558015610e42576000805461ff001916905550565b600054610100900460ff1680613b81575060005460ff16155b613be45760405162461bcd60e51b815260206004820152602e60248201527f496e697469616c697a61626c653a20636f6e747261637420697320616c72656160448201526d191e481a5b9a5d1a585b1a5e995960921b6064820152608401610618565b600054610100900460ff16158015613c06576000805461ffff19166101011790555b6137fc336135f6565b6060613c1e8484600085613c26565b949350505050565b606082471015613c9e5760405162461bcd60e51b815260206004820152602660248201527f416464726573733a20696e73756666696369656e742062616c616e636520666f60448201527f722063616c6c00000000000000000000000000000000000000000000000000006064820152608401610618565b843b613cec5760405162461bcd60e51b815260206004820152601d60248201527f416464726573733a2063616c6c20746f206e6f6e2d636f6e74726163740000006044820152606401610618565b600080866001600160a01b03168587604051613d0891906141cd565b60006040518083038185875af1925050503d8060008114613d45576040519150601f19603f3d011682016040523d82523d6000602084013e613d4a565b606091505b5091509150613d5a828286613d65565b979650505050505050565b60608315613d74575081613732565b825115613d845782518084602001fd5b8160405162461bcd60e51b8152600401610618919061420b565b600060208284031215613db057600080fd5b8135613732816143b6565b60008060408385031215613dce57600080fd5b8235613dd9816143b6565b946020939093013593505050565b60008060208385031215613dfa57600080fd5b823567ffffffffffffffff80821115613e1257600080fd5b818501915085601f830112613e2657600080fd5b813581811115613e3557600080fd5b8660208260051b8501011115613e4a57600080fd5b60209290920196919550909350505050565b60006020808385031215613e6f57600080fd5b823567ffffffffffffffff80821115613e8757600080fd5b818501915085601f830112613e9b57600080fd5b813581811115613ead57613ead6143a0565b8060051b9150613ebe84830161428c565b8181528481019084860184860187018a1015613ed957600080fd5b600095505b83861015613efc578035835260019590950194918601918601613ede565b5098975050505050505050565b600060208284031215613f1b57600080fd5b8151613732816143cb565b600060208284031215613f3857600080fd5b8151613732816143b6565b600080600080600060a08688031215613f5b57600080fd5b8535613f66816143b6565b94506020860135613f76816143b6565b94979496505050506040830135926060810135926080909101359150565b600060208284031215613fa657600080fd5b815167ffffffffffffffff80821115613fbe57600080fd5b818401915084601f830112613fd257600080fd5b815181811115613fe457613fe46143a0565b613ff7601f8201601f191660200161428c565b915080825285602082850101111561400e57600080fd5b61401f81602084016020860161432d565b50949350505050565b60006020828403121561403a57600080fd5b5035919050565b60006020828403121561405357600080fd5b5051919050565b6000806040838503121561406d57600080fd5b82359150602083013561407f816143b6565b809150509250929050565b60008060006060848603121561409f57600080fd5b8335925060208401356140b1816143b6565b915060408401356140c1816143b6565b809150509250925092565b600080604083850312156140df57600080fd5b50508035926020909101359150565b60008060006060848603121561410357600080fd5b833592506020840135915060408401356140c1816143b6565b6000806000806080858703121561413257600080fd5b8435935060208501359250604085013561414b816143b6565b9150606085013561415b816143cb565b939692955090935050565b600081518084526020808501945080840160005b838110156141965781518752958201959082019060010161417a565b509495945050505050565b600081518084526141b981602086016020860161432d565b601f01601f19169290920160200192915050565b600082516141df81846020870161432d565b9190910192915050565b6001600160a01b0383168152604060208201526000613c1e60408301846141a1565b60208152600061373260208301846141a1565b8481526001600160a01b038416602082015260806040820152600061424660808301856141a1565b905082606083015295945050505050565b8381526060602082015260006142706060830185614166565b82810360408401526142828185614166565b9695505050505050565b604051601f8201601f1916810167ffffffffffffffff811182821017156142b5576142b56143a0565b604052919050565b600082198211156142d0576142d0614374565b500190565b6000826142f257634e487b7160e01b600052601260045260246000fd5b500490565b600081600019048311821515161561431157614311614374565b500290565b60008282101561432857614328614374565b500390565b60005b83811015614348578181015183820152602001614330565b83811115610e335750506000910152565b600060001982141561436d5761436d614374565b5060010190565b634e487b7160e01b600052601160045260246000fd5b634e487b7160e01b600052603260045260246000fd5b634e487b7160e01b600052604160045260246000fd5b6001600160a01b0381168114610e4257600080fd5b8015158114610e4257600080fdfe4f776e61626c653a2063616c6c6572206973206e6f7420746865206f776e6572a26469706673582212208ba0f5fa3f0ac2d429cb9ef6b21cef0db40621210271b16f2b4c39d3b6681f9564736f6c63430008050033",
  "devdoc": {
    "kind": "dev",
    "methods": {
      "add(uint256,address,address)": {
        "details": "Reverts if the same LP token is added more than once.",
        "params": {
          "_allocPoint": "allocation points for this LP",
          "_lpToken": "the corresponding lp token",
          "_rewarder": "the rewarder"
        }
      },
      "deposit(uint256,uint256)": {
        "details": "it is possible to call this function with _amount == 0 to claim current rewards",
        "params": {
          "_amount": "amount to deposit",
          "_pid": "the pool id"
        }
      },
      "depositFor(uint256,uint256,address)": {
        "details": "user must initiate transaction from masterchef",
        "params": {
          "_amount": "amount to deposit",
          "_pid": "the pool id",
          "_user": "the user being represented"
        }
      },
      "emergencyWithdraw(uint256)": {
        "params": {
          "_pid": "the pool id"
        }
      },
      "massUpdatePools()": {
        "details": "Be careful of gas spending!"
      },
      "migrate(uint256[])": {
        "details": "Assume the orginal MasterWombat has stopped emisions hence we can skip updatePool() to save gas cost"
      },
      "multiClaim(uint256[])": {
        "params": {
          "_pids": "array pids, pools to claim"
        }
      },
      "owner()": {
        "details": "Returns the address of the current owner."
      },
      "pause()": {
        "details": "pause pool, restricting certain operations"
      },
      "paused()": {
        "details": "Returns true if the contract is paused, and false otherwise."
      },
      "pendingTokens(uint256,address)": {
        "params": {
          "_pid": "the pool id",
          "_user": "the user address"
        }
      },
      "renounceOwnership()": {
        "details": "Leaves the contract without owner. It will not be possible to call `onlyOwner` functions anymore. Can only be called by the current owner. NOTE: Renouncing ownership will leave the contract without an owner, thereby removing any functionality that is only available to the owner."
      },
      "rewarderBonusTokenInfo(uint256)": {
        "params": {
          "_pid": "the pool id"
        }
      },
      "set(uint256,uint256,address,bool)": {
        "params": {
          "_allocPoint": "allocation points",
          "_pid": "the pool id",
          "_rewarder": "the rewarder",
          "overwrite": "overwrite rewarder?"
        }
      },
      "setVeWom(address)": {
        "params": {
          "_newVeWom": "the new VeWom address"
        }
      },
      "transferOwnership(address)": {
        "details": "Transfers ownership of the contract to a new account (`newOwner`). Can only be called by the current owner."
      },
      "unpause()": {
        "details": "unpause pool, enabling certain operations"
      },
      "updateEmissionPartition(uint256)": {
        "params": {
          "_basePartition": "the future base partition"
        }
      },
      "updateEmissionRate(uint256)": {
        "details": "Pancake has to add hidden dummy pools inorder to alter the emission,here we make it simple and transparent to all.",
        "params": {
          "_womPerSec": "wom amount to be updated"
        }
      },
      "updateFactor(address,uint256)": {
        "details": "can only be called by veWom",
        "params": {
          "_newVeWomBalance": "the amount of veWOM",
          "_user": "the user to update"
        }
      },
      "updatePool(uint256)": {
        "params": {
          "_pid": "the pool id"
        }
      },
      "withdraw(uint256,uint256)": {
        "params": {
          "_amount": "the amount to withdraw",
          "_pid": "the pool id"
        }
      }
    },
    "title": "MasterWombat MasterWombat is a boss. He is not afraid of any snakes. In fact, he drinks their venoms. So, veWom holders boost their (boosted) emissions. This contract rewards users in function of their amount of lp staked (base pool) factor (boosted pool) Factor and sumOfFactors are updated by contract VeWom.sol after any veWom minting/burning (veERC20Upgradeable hook). Note that it's ownable and the owner wields tremendous power. The ownership will be transferred to a governance smart contract once Wombat is sufficiently distributed and the community can show to govern itself.",
    "version": 1
  },
  "userdoc": {
    "kind": "user",
    "methods": {
      "add(uint256,address,address)": {
        "notice": "Add a new lp to the pool. Can only be called by the owner."
      },
      "deposit(uint256,uint256)": {
        "notice": "Deposit LP tokens to MasterChef for WOM allocation."
      },
      "depositFor(uint256,uint256,address)": {
        "notice": "Deposit LP tokens to MasterChef for WOM allocation on behalf of user"
      },
      "emergencyWithdraw(uint256)": {
        "notice": "Withdraw without caring about rewards. EMERGENCY ONLY."
      },
      "emergencyWomWithdraw()": {
        "notice": "In case we need to manually migrate WOM funds from MasterChef Sends all remaining wom from the contract to the owner"
      },
      "massUpdatePools()": {
        "notice": "Update reward variables for all pools."
      },
      "migrate(uint256[])": {
        "notice": "Helper function to migrate fund from multiple pools to the new MasterWombat.user must initiate transaction from masterchef"
      },
      "multiClaim(uint256[])": {
        "notice": "claims rewards for multiple pids"
      },
      "pendingTokens(uint256,address)": {
        "notice": "View function to see pending WOMs on frontend."
      },
      "poolLength()": {
        "notice": "returns pool length"
      },
      "rewarderBonusTokenInfo(uint256)": {
        "notice": "Get bonus token info from the rewarder contract for a given pool, if it is a double reward farm"
      },
      "set(uint256,uint256,address,bool)": {
        "notice": "Update the given pool's WOM allocation point. Can only be called by the owner."
      },
      "setVeWom(address)": {
        "notice": "updates veWom address"
      },
      "updateEmissionPartition(uint256)": {
        "notice": "updates emission partition"
      },
      "updateEmissionRate(uint256)": {
        "notice": "updates emission rate"
      },
      "updateFactor(address,uint256)": {
        "notice": "updates factor after any veWom token operation (minting/burning)"
      },
      "updatePool(uint256)": {
        "notice": "Update reward variables of the given pool to be up-to-date."
      },
      "withdraw(uint256,uint256)": {
        "notice": "Withdraw LP tokens from MasterWombat.Automatically harvest pending rewards and sends to user"
      }
    },
    "version": 1
  },
  "storageLayout": {
    "storage": [
      {
        "astId": 567,
        "contract": "contracts/wombat-governance/MasterWombat.sol:MasterWombat",
        "label": "_initialized",
        "offset": 0,
        "slot": "0",
        "type": "t_bool"
      },
      {
        "astId": 570,
        "contract": "contracts/wombat-governance/MasterWombat.sol:MasterWombat",
        "label": "_initializing",
        "offset": 1,
        "slot": "0",
        "type": "t_bool"
      },
      {
        "astId": 1141,
        "contract": "contracts/wombat-governance/MasterWombat.sol:MasterWombat",
        "label": "__gap",
        "offset": 0,
        "slot": "1",
        "type": "t_array(t_uint256)50_storage"
      },
      {
        "astId": 10,
        "contract": "contracts/wombat-governance/MasterWombat.sol:MasterWombat",
        "label": "_owner",
        "offset": 0,
        "slot": "51",
        "type": "t_address"
      },
      {
        "astId": 123,
        "contract": "contracts/wombat-governance/MasterWombat.sol:MasterWombat",
        "label": "__gap",
        "offset": 0,
        "slot": "52",
        "type": "t_array(t_uint256)49_storage"
      },
      {
        "astId": 811,
        "contract": "contracts/wombat-governance/MasterWombat.sol:MasterWombat",
        "label": "_status",
        "offset": 0,
        "slot": "101",
        "type": "t_uint256"
      },
      {
        "astId": 854,
        "contract": "contracts/wombat-governance/MasterWombat.sol:MasterWombat",
        "label": "__gap",
        "offset": 0,
        "slot": "102",
        "type": "t_array(t_uint256)49_storage"
      },
      {
        "astId": 705,
        "contract": "contracts/wombat-governance/MasterWombat.sol:MasterWombat",
        "label": "_paused",
        "offset": 0,
        "slot": "151",
        "type": "t_bool"
      },
      {
        "astId": 796,
        "contract": "contracts/wombat-governance/MasterWombat.sol:MasterWombat",
        "label": "__gap",
        "offset": 0,
        "slot": "152",
        "type": "t_array(t_uint256)49_storage"
      },
      {
        "astId": 8982,
        "contract": "contracts/wombat-governance/MasterWombat.sol:MasterWombat",
        "label": "wom",
        "offset": 0,
        "slot": "201",
        "type": "t_contract(IERC20)1930"
      },
      {
        "astId": 8985,
        "contract": "contracts/wombat-governance/MasterWombat.sol:MasterWombat",
        "label": "veWom",
        "offset": 0,
        "slot": "202",
        "type": "t_contract(IVeWom)12510"
      },
      {
        "astId": 8988,
        "contract": "contracts/wombat-governance/MasterWombat.sol:MasterWombat",
        "label": "newMasterWombat",
        "offset": 0,
        "slot": "203",
        "type": "t_contract(IMasterWombat)12427"
      },
      {
        "astId": 8990,
        "contract": "contracts/wombat-governance/MasterWombat.sol:MasterWombat",
        "label": "womPerSec",
        "offset": 0,
        "slot": "204",
        "type": "t_uint256"
      },
      {
        "astId": 8992,
        "contract": "contracts/wombat-governance/MasterWombat.sol:MasterWombat",
        "label": "basePartition",
        "offset": 0,
        "slot": "205",
        "type": "t_uint256"
      },
      {
        "astId": 8994,
        "contract": "contracts/wombat-governance/MasterWombat.sol:MasterWombat",
        "label": "boostedPartition",
        "offset": 0,
        "slot": "206",
        "type": "t_uint256"
      },
      {
        "astId": 8996,
        "contract": "contracts/wombat-governance/MasterWombat.sol:MasterWombat",
        "label": "totalAllocPoint",
        "offset": 0,
        "slot": "207",
        "type": "t_uint256"
      },
      {
        "astId": 8998,
        "contract": "contracts/wombat-governance/MasterWombat.sol:MasterWombat",
        "label": "startTimestamp",
        "offset": 0,
        "slot": "208",
        "type": "t_uint256"
      },
      {
        "astId": 9002,
        "contract": "contracts/wombat-governance/MasterWombat.sol:MasterWombat",
        "label": "poolInfo",
        "offset": 0,
        "slot": "209",
        "type": "t_array(t_struct(PoolInfo)8979_storage)dyn_storage"
      },
      {
        "astId": 9005,
        "contract": "contracts/wombat-governance/MasterWombat.sol:MasterWombat",
        "label": "lpTokens",
        "offset": 0,
        "slot": "210",
        "type": "t_struct(AddressSet)3918_storage"
      },
      {
        "astId": 9012,
        "contract": "contracts/wombat-governance/MasterWombat.sol:MasterWombat",
        "label": "userInfo",
        "offset": 0,
        "slot": "212",
        "type": "t_mapping(t_uint256,t_mapping(t_address,t_struct(UserInfo)8962_storage))"
      },
      {
        "astId": 9018,
        "contract": "contracts/wombat-governance/MasterWombat.sol:MasterWombat",
        "label": "pendingWom",
        "offset": 0,
        "slot": "213",
        "type": "t_mapping(t_uint256,t_mapping(t_address,t_uint256))"
      },
      {
        "astId": 9022,
        "contract": "contracts/wombat-governance/MasterWombat.sol:MasterWombat",
        "label": "assetPid",
        "offset": 0,
        "slot": "214",
        "type": "t_mapping(t_address,t_uint256)"
      }
    ],
    "types": {
      "t_address": {
        "encoding": "inplace",
        "label": "address",
        "numberOfBytes": "20"
      },
      "t_array(t_bytes32)dyn_storage": {
        "base": "t_bytes32",
        "encoding": "dynamic_array",
        "label": "bytes32[]",
        "numberOfBytes": "32"
      },
      "t_array(t_struct(PoolInfo)8979_storage)dyn_storage": {
        "base": "t_struct(PoolInfo)8979_storage",
        "encoding": "dynamic_array",
        "label": "struct MasterWombat.PoolInfo[]",
        "numberOfBytes": "32"
      },
      "t_array(t_uint256)49_storage": {
        "base": "t_uint256",
        "encoding": "inplace",
        "label": "uint256[49]",
        "numberOfBytes": "1568"
      },
      "t_array(t_uint256)50_storage": {
        "base": "t_uint256",
        "encoding": "inplace",
        "label": "uint256[50]",
        "numberOfBytes": "1600"
      },
      "t_bool": {
        "encoding": "inplace",
        "label": "bool",
        "numberOfBytes": "1"
      },
      "t_bytes32": {
        "encoding": "inplace",
        "label": "bytes32",
        "numberOfBytes": "32"
      },
      "t_contract(IERC20)1930": {
        "encoding": "inplace",
        "label": "contract IERC20",
        "numberOfBytes": "20"
      },
      "t_contract(IMasterWombat)12427": {
        "encoding": "inplace",
        "label": "contract IMasterWombat",
        "numberOfBytes": "20"
      },
      "t_contract(IRewarder)12453": {
        "encoding": "inplace",
        "label": "contract IRewarder",
        "numberOfBytes": "20"
      },
      "t_contract(IVeWom)12510": {
        "encoding": "inplace",
        "label": "contract IVeWom",
        "numberOfBytes": "20"
      },
      "t_mapping(t_address,t_struct(UserInfo)8962_storage)": {
        "encoding": "mapping",
        "key": "t_address",
        "label": "mapping(address => struct MasterWombat.UserInfo)",
        "numberOfBytes": "32",
        "value": "t_struct(UserInfo)8962_storage"
      },
      "t_mapping(t_address,t_uint256)": {
        "encoding": "mapping",
        "key": "t_address",
        "label": "mapping(address => uint256)",
        "numberOfBytes": "32",
        "value": "t_uint256"
      },
      "t_mapping(t_bytes32,t_uint256)": {
        "encoding": "mapping",
        "key": "t_bytes32",
        "label": "mapping(bytes32 => uint256)",
        "numberOfBytes": "32",
        "value": "t_uint256"
      },
      "t_mapping(t_uint256,t_mapping(t_address,t_struct(UserInfo)8962_storage))": {
        "encoding": "mapping",
        "key": "t_uint256",
        "label": "mapping(uint256 => mapping(address => struct MasterWombat.UserInfo))",
        "numberOfBytes": "32",
        "value": "t_mapping(t_address,t_struct(UserInfo)8962_storage)"
      },
      "t_mapping(t_uint256,t_mapping(t_address,t_uint256))": {
        "encoding": "mapping",
        "key": "t_uint256",
        "label": "mapping(uint256 => mapping(address => uint256))",
        "numberOfBytes": "32",
        "value": "t_mapping(t_address,t_uint256)"
      },
      "t_struct(AddressSet)3918_storage": {
        "encoding": "inplace",
        "label": "struct EnumerableSet.AddressSet",
        "members": [
          {
            "astId": 3917,
            "contract": "contracts/wombat-governance/MasterWombat.sol:MasterWombat",
            "label": "_inner",
            "offset": 0,
            "slot": "0",
            "type": "t_struct(Set)3647_storage"
          }
        ],
        "numberOfBytes": "64"
      },
      "t_struct(PoolInfo)8979_storage": {
        "encoding": "inplace",
        "label": "struct MasterWombat.PoolInfo",
        "members": [
          {
            "astId": 8965,
            "contract": "contracts/wombat-governance/MasterWombat.sol:MasterWombat",
            "label": "lpToken",
            "offset": 0,
            "slot": "0",
            "type": "t_contract(IERC20)1930"
          },
          {
            "astId": 8967,
            "contract": "contracts/wombat-governance/MasterWombat.sol:MasterWombat",
            "label": "allocPoint",
            "offset": 0,
            "slot": "1",
            "type": "t_uint256"
          },
          {
            "astId": 8969,
            "contract": "contracts/wombat-governance/MasterWombat.sol:MasterWombat",
            "label": "lastRewardTimestamp",
            "offset": 0,
            "slot": "2",
            "type": "t_uint256"
          },
          {
            "astId": 8971,
            "contract": "contracts/wombat-governance/MasterWombat.sol:MasterWombat",
            "label": "accWomPerShare",
            "offset": 0,
            "slot": "3",
            "type": "t_uint256"
          },
          {
            "astId": 8974,
            "contract": "contracts/wombat-governance/MasterWombat.sol:MasterWombat",
            "label": "rewarder",
            "offset": 0,
            "slot": "4",
            "type": "t_contract(IRewarder)12453"
          },
          {
            "astId": 8976,
            "contract": "contracts/wombat-governance/MasterWombat.sol:MasterWombat",
            "label": "sumOfFactors",
            "offset": 0,
            "slot": "5",
            "type": "t_uint256"
          },
          {
            "astId": 8978,
            "contract": "contracts/wombat-governance/MasterWombat.sol:MasterWombat",
            "label": "accWomPerFactorShare",
            "offset": 0,
            "slot": "6",
            "type": "t_uint256"
          }
        ],
        "numberOfBytes": "224"
      },
      "t_struct(Set)3647_storage": {
        "encoding": "inplace",
        "label": "struct EnumerableSet.Set",
        "members": [
          {
            "astId": 3642,
            "contract": "contracts/wombat-governance/MasterWombat.sol:MasterWombat",
            "label": "_values",
            "offset": 0,
            "slot": "0",
            "type": "t_array(t_bytes32)dyn_storage"
          },
          {
            "astId": 3646,
            "contract": "contracts/wombat-governance/MasterWombat.sol:MasterWombat",
            "label": "_indexes",
            "offset": 0,
            "slot": "1",
            "type": "t_mapping(t_bytes32,t_uint256)"
          }
        ],
        "numberOfBytes": "64"
      },
      "t_struct(UserInfo)8962_storage": {
        "encoding": "inplace",
        "label": "struct MasterWombat.UserInfo",
        "members": [
          {
            "astId": 8957,
            "contract": "contracts/wombat-governance/MasterWombat.sol:MasterWombat",
            "label": "amount",
            "offset": 0,
            "slot": "0",
            "type": "t_uint256"
          },
          {
            "astId": 8959,
            "contract": "contracts/wombat-governance/MasterWombat.sol:MasterWombat",
            "label": "rewardDebt",
            "offset": 0,
            "slot": "1",
            "type": "t_uint256"
          },
          {
            "astId": 8961,
            "contract": "contracts/wombat-governance/MasterWombat.sol:MasterWombat",
            "label": "factor",
            "offset": 0,
            "slot": "2",
            "type": "t_uint256"
          }
        ],
        "numberOfBytes": "96"
      },
      "t_uint256": {
        "encoding": "inplace",
        "label": "uint256",
        "numberOfBytes": "32"
      }
    }
  }
}