{
  "address": "0xBC1618F6BAa1F9E0E9b25F6a7dd5714A191D9F6c",
  "abi": [
    {
      "anonymous": false,
      "inputs": [
        {
          "indexed": true,
          "internalType": "uint256",
          "name": "pid",
          "type": "uint256"
        },
        {
          "indexed": false,
          "internalType": "uint256",
          "name": "allocPoint",
          "type": "uint256"
        },
        {
          "indexed": true,
          "internalType": "contract IERC20",
          "name": "lpToken",
          "type": "address"
        },
        {
          "indexed": true,
          "internalType": "contract IMultiRewarder",
          "name": "rewarder",
          "type": "address"
        }
      ],
      "name": "Add",
      "type": "event"
    },
    {
      "anonymous": false,
      "inputs": [
        {
          "indexed": true,
          "internalType": "address",
          "name": "user",
          "type": "address"
        },
        {
          "indexed": true,
          "internalType": "uint256",
          "name": "pid",
          "type": "uint256"
        },
        {
          "indexed": false,
          "internalType": "uint256",
          "name": "amount",
          "type": "uint256"
        }
      ],
      "name": "Deposit",
      "type": "event"
    },
    {
      "anonymous": false,
      "inputs": [
        {
          "indexed": true,
          "internalType": "address",
          "name": "user",
          "type": "address"
        },
        {
          "indexed": true,
          "internalType": "uint256",
          "name": "pid",
          "type": "uint256"
        },
        {
          "indexed": false,
          "internalType": "uint256",
          "name": "amount",
          "type": "uint256"
        }
      ],
      "name": "DepositFor",
      "type": "event"
    },
    {
      "anonymous": false,
      "inputs": [
        {
          "indexed": true,
          "internalType": "address",
          "name": "user",
          "type": "address"
        },
        {
          "indexed": true,
          "internalType": "uint256",
          "name": "pid",
          "type": "uint256"
        },
        {
          "indexed": false,
          "internalType": "uint256",
          "name": "amount",
          "type": "uint256"
        }
      ],
      "name": "EmergencyWithdraw",
      "type": "event"
    },
    {
      "anonymous": false,
      "inputs": [
        {
          "indexed": false,
          "internalType": "address",
          "name": "owner",
          "type": "address"
        },
        {
          "indexed": false,
          "internalType": "uint256",
          "name": "balance",
          "type": "uint256"
        }
      ],
      "name": "EmergencyWomWithdraw",
      "type": "event"
    },
    {
      "anonymous": false,
      "inputs": [
        {
          "indexed": true,
          "internalType": "address",
          "name": "user",
          "type": "address"
        },
        {
          "indexed": true,
          "internalType": "uint256",
          "name": "pid",
          "type": "uint256"
        },
        {
          "indexed": false,
          "internalType": "uint256",
          "name": "amount",
          "type": "uint256"
        }
      ],
      "name": "Harvest",
      "type": "event"
    },
    {
      "anonymous": false,
      "inputs": [
        {
          "indexed": true,
          "internalType": "address",
          "name": "previousOwner",
          "type": "address"
        },
        {
          "indexed": true,
          "internalType": "address",
          "name": "newOwner",
          "type": "address"
        }
      ],
      "name": "OwnershipTransferred",
      "type": "event"
    },
    {
      "anonymous": false,
      "inputs": [
        {
          "indexed": false,
          "internalType": "address",
          "name": "account",
          "type": "address"
        }
      ],
      "name": "Paused",
      "type": "event"
    },
    {
      "anonymous": false,
      "inputs": [
        {
          "indexed": true,
          "internalType": "uint256",
          "name": "pid",
          "type": "uint256"
        },
        {
          "indexed": false,
          "internalType": "uint256",
          "name": "allocPoint",
          "type": "uint256"
        },
        {
          "indexed": true,
          "internalType": "contract IMultiRewarder",
          "name": "rewarder",
          "type": "address"
        },
        {
          "indexed": false,
          "internalType": "bool",
          "name": "overwrite",
          "type": "bool"
        }
      ],
      "name": "Set",
      "type": "event"
    },
    {
      "anonymous": false,
      "inputs": [
        {
          "indexed": false,
          "internalType": "address",
          "name": "account",
          "type": "address"
        }
      ],
      "name": "Unpaused",
      "type": "event"
    },
    {
      "anonymous": false,
      "inputs": [
        {
          "indexed": true,
          "internalType": "address",
          "name": "user",
          "type": "address"
        },
        {
          "indexed": false,
          "internalType": "uint256",
          "name": "basePartition",
          "type": "uint256"
        },
        {
          "indexed": false,
          "internalType": "uint256",
          "name": "boostedPartition",
          "type": "uint256"
        }
      ],
      "name": "UpdateEmissionPartition",
      "type": "event"
    },
    {
      "anonymous": false,
      "inputs": [
        {
          "indexed": true,
          "internalType": "address",
          "name": "user",
          "type": "address"
        },
        {
          "indexed": false,
          "internalType": "uint256",
          "name": "womPerSec",
          "type": "uint256"
        }
      ],
      "name": "UpdateEmissionRate",
      "type": "event"
    },
    {
      "anonymous": false,
      "inputs": [
        {
          "indexed": true,
          "internalType": "uint256",
          "name": "pid",
          "type": "uint256"
        },
        {
          "indexed": false,
          "internalType": "uint256",
          "name": "lastRewardTimestamp",
          "type": "uint256"
        },
        {
          "indexed": false,
          "internalType": "uint256",
          "name": "lpSupply",
          "type": "uint256"
        },
        {
          "indexed": false,
          "internalType": "uint256",
          "name": "accWomPerShare",
          "type": "uint256"
        }
      ],
      "name": "UpdatePool",
      "type": "event"
    },
    {
      "anonymous": false,
      "inputs": [
        {
          "indexed": true,
          "internalType": "address",
          "name": "user",
          "type": "address"
        },
        {
          "indexed": false,
          "internalType": "address",
          "name": "oldVeWOM",
          "type": "address"
        },
        {
          "indexed": false,
          "internalType": "address",
          "name": "newVeWOM",
          "type": "address"
        }
      ],
      "name": "UpdateVeWOM",
      "type": "event"
    },
    {
      "anonymous": false,
      "inputs": [
        {
          "indexed": true,
          "internalType": "address",
          "name": "user",
          "type": "address"
        },
        {
          "indexed": true,
          "internalType": "uint256",
          "name": "pid",
          "type": "uint256"
        },
        {
          "indexed": false,
          "internalType": "uint256",
          "name": "amount",
          "type": "uint256"
        }
      ],
      "name": "Withdraw",
      "type": "event"
    },
    {
      "inputs": [
        {
          "internalType": "uint96",
          "name": "_allocPoint",
          "type": "uint96"
        },
        {
          "internalType": "contract IERC20",
          "name": "_lpToken",
          "type": "address"
        },
        {
          "internalType": "contract IMultiRewarder",
          "name": "_rewarder",
          "type": "address"
        }
      ],
      "name": "add",
      "outputs": [],
      "stateMutability": "nonpayable",
      "type": "function"
    },
    {
      "inputs": [],
      "name": "basePartition",
      "outputs": [
        {
          "internalType": "uint16",
          "name": "",
          "type": "uint16"
        }
      ],
      "stateMutability": "view",
      "type": "function"
    },
    {
      "inputs": [],
      "name": "boostedPartition",
      "outputs": [
        {
          "internalType": "uint256",
          "name": "",
          "type": "uint256"
        }
      ],
      "stateMutability": "view",
      "type": "function"
    },
    {
      "inputs": [
        {
          "internalType": "uint256",
          "name": "_pid",
          "type": "uint256"
        },
        {
          "internalType": "uint256",
          "name": "_amount",
          "type": "uint256"
        }
      ],
      "name": "deposit",
      "outputs": [
        {
          "internalType": "uint256",
          "name": "",
          "type": "uint256"
        },
        {
          "internalType": "uint256[]",
          "name": "",
          "type": "uint256[]"
        }
      ],
      "stateMutability": "nonpayable",
      "type": "function"
    },
    {
      "inputs": [
        {
          "internalType": "uint256",
          "name": "_pid",
          "type": "uint256"
        },
        {
          "internalType": "uint256",
          "name": "_amount",
          "type": "uint256"
        },
        {
          "internalType": "address",
          "name": "_user",
          "type": "address"
        }
      ],
      "name": "depositFor",
      "outputs": [],
      "stateMutability": "nonpayable",
      "type": "function"
    },
    {
      "inputs": [
        {
          "internalType": "uint256",
          "name": "_pid",
          "type": "uint256"
        }
      ],
      "name": "emergencyWithdraw",
      "outputs": [],
      "stateMutability": "nonpayable",
      "type": "function"
    },
    {
      "inputs": [],
      "name": "emergencyWomWithdraw",
      "outputs": [],
      "stateMutability": "nonpayable",
      "type": "function"
    },
    {
      "inputs": [
        {
          "internalType": "address",
          "name": "asset",
          "type": "address"
        }
      ],
      "name": "getAssetPid",
      "outputs": [
        {
          "internalType": "uint256",
          "name": "",
          "type": "uint256"
        }
      ],
      "stateMutability": "view",
      "type": "function"
    },
    {
      "inputs": [
        {
          "internalType": "contract IERC20",
          "name": "_wom",
          "type": "address"
        },
        {
          "internalType": "contract IVeWom",
          "name": "_veWom",
          "type": "address"
        },
        {
          "internalType": "uint104",
          "name": "_womPerSec",
          "type": "uint104"
        },
        {
          "internalType": "uint16",
          "name": "_basePartition",
          "type": "uint16"
        },
        {
          "internalType": "uint40",
          "name": "_startTimestamp",
          "type": "uint40"
        }
      ],
      "name": "initialize",
      "outputs": [],
      "stateMutability": "nonpayable",
      "type": "function"
    },
    {
      "inputs": [],
      "name": "massUpdatePools",
      "outputs": [],
      "stateMutability": "nonpayable",
      "type": "function"
    },
    {
      "inputs": [
        {
          "internalType": "uint256[]",
          "name": "_pids",
          "type": "uint256[]"
        }
      ],
      "name": "migrate",
      "outputs": [],
      "stateMutability": "nonpayable",
      "type": "function"
    },
    {
      "inputs": [
        {
          "internalType": "uint256[]",
          "name": "_pids",
          "type": "uint256[]"
        }
      ],
      "name": "multiClaim",
      "outputs": [
        {
          "internalType": "uint256",
          "name": "",
          "type": "uint256"
        },
        {
          "internalType": "uint256[]",
          "name": "",
          "type": "uint256[]"
        },
        {
          "internalType": "uint256[][]",
          "name": "",
          "type": "uint256[][]"
        }
      ],
      "stateMutability": "nonpayable",
      "type": "function"
    },
    {
      "inputs": [],
      "name": "owner",
      "outputs": [
        {
          "internalType": "address",
          "name": "",
          "type": "address"
        }
      ],
      "stateMutability": "view",
      "type": "function"
    },
    {
      "inputs": [],
      "name": "pause",
      "outputs": [],
      "stateMutability": "nonpayable",
      "type": "function"
    },
    {
      "inputs": [],
      "name": "paused",
      "outputs": [
        {
          "internalType": "bool",
          "name": "",
          "type": "bool"
        }
      ],
      "stateMutability": "view",
      "type": "function"
    },
    {
      "inputs": [
        {
          "internalType": "uint256",
          "name": "_pid",
          "type": "uint256"
        },
        {
          "internalType": "address",
          "name": "_user",
          "type": "address"
        }
      ],
      "name": "pendingTokens",
      "outputs": [
        {
          "internalType": "uint256",
          "name": "pendingRewards",
          "type": "uint256"
        },
        {
          "internalType": "contract IERC20[]",
          "name": "bonusTokenAddress",
          "type": "address[]"
        },
        {
          "internalType": "string[]",
          "name": "bonusTokenSymbol",
          "type": "string[]"
        },
        {
          "internalType": "uint256[]",
          "name": "pendingBonusRewards",
          "type": "uint256[]"
        }
      ],
      "stateMutability": "view",
      "type": "function"
    },
    {
      "inputs": [
        {
          "internalType": "uint256",
          "name": "",
          "type": "uint256"
        }
      ],
      "name": "poolInfo",
      "outputs": [
        {
          "internalType": "contract IERC20",
          "name": "lpToken",
          "type": "address"
        },
        {
          "internalType": "uint96",
          "name": "allocPoint",
          "type": "uint96"
        },
        {
          "internalType": "contract IMultiRewarder",
          "name": "rewarder",
          "type": "address"
        },
        {
          "internalType": "uint256",
          "name": "sumOfFactors",
          "type": "uint256"
        },
        {
          "internalType": "uint104",
          "name": "accWomPerShare",
          "type": "uint104"
        },
        {
          "internalType": "uint104",
          "name": "accWomPerFactorShare",
          "type": "uint104"
        },
        {
          "internalType": "uint40",
          "name": "lastRewardTimestamp",
          "type": "uint40"
        }
      ],
      "stateMutability": "view",
      "type": "function"
    },
    {
      "inputs": [],
      "name": "poolLength",
      "outputs": [
        {
          "internalType": "uint256",
          "name": "",
          "type": "uint256"
        }
      ],
      "stateMutability": "view",
      "type": "function"
    },
    {
      "inputs": [],
      "name": "renounceOwnership",
      "outputs": [],
      "stateMutability": "nonpayable",
      "type": "function"
    },
    {
      "inputs": [
        {
          "internalType": "uint256",
          "name": "_pid",
          "type": "uint256"
        }
      ],
      "name": "rewarderBonusTokenInfo",
      "outputs": [
        {
          "internalType": "contract IERC20[]",
          "name": "bonusTokenAddresses",
          "type": "address[]"
        },
        {
          "internalType": "string[]",
          "name": "bonusTokenSymbols",
          "type": "string[]"
        }
      ],
      "stateMutability": "view",
      "type": "function"
    },
    {
      "inputs": [
        {
          "internalType": "uint256",
          "name": "_pid",
          "type": "uint256"
        },
        {
          "internalType": "uint96",
          "name": "_allocPoint",
          "type": "uint96"
        },
        {
          "internalType": "contract IMultiRewarder",
          "name": "_rewarder",
          "type": "address"
        },
        {
          "internalType": "bool",
          "name": "overwrite",
          "type": "bool"
        }
      ],
      "name": "set",
      "outputs": [],
      "stateMutability": "nonpayable",
      "type": "function"
    },
    {
      "inputs": [
        {
          "internalType": "contract IMasterWombatV2",
          "name": "_newMasterWombat",
          "type": "address"
        }
      ],
      "name": "setNewMasterWombat",
      "outputs": [],
      "stateMutability": "nonpayable",
      "type": "function"
    },
    {
      "inputs": [
        {
          "internalType": "contract IVeWom",
          "name": "_newVeWom",
          "type": "address"
        }
      ],
      "name": "setVeWom",
      "outputs": [],
      "stateMutability": "nonpayable",
      "type": "function"
    },
    {
      "inputs": [],
      "name": "startTimestamp",
      "outputs": [
        {
          "internalType": "uint40",
          "name": "",
          "type": "uint40"
        }
      ],
      "stateMutability": "view",
      "type": "function"
    },
    {
      "inputs": [],
      "name": "totalAllocPoint",
      "outputs": [
        {
          "internalType": "uint96",
          "name": "",
          "type": "uint96"
        }
      ],
      "stateMutability": "view",
      "type": "function"
    },
    {
      "inputs": [
        {
          "internalType": "address",
          "name": "newOwner",
          "type": "address"
        }
      ],
      "name": "transferOwnership",
      "outputs": [],
      "stateMutability": "nonpayable",
      "type": "function"
    },
    {
      "inputs": [],
      "name": "unpause",
      "outputs": [],
      "stateMutability": "nonpayable",
      "type": "function"
    },
    {
      "inputs": [
        {
          "internalType": "uint16",
          "name": "_basePartition",
          "type": "uint16"
        }
      ],
      "name": "updateEmissionPartition",
      "outputs": [],
      "stateMutability": "nonpayable",
      "type": "function"
    },
    {
      "inputs": [
        {
          "internalType": "uint104",
          "name": "_womPerSec",
          "type": "uint104"
        }
      ],
      "name": "updateEmissionRate",
      "outputs": [],
      "stateMutability": "nonpayable",
      "type": "function"
    },
    {
      "inputs": [
        {
          "internalType": "address",
          "name": "_user",
          "type": "address"
        },
        {
          "internalType": "uint256",
          "name": "_newVeWomBalance",
          "type": "uint256"
        }
      ],
      "name": "updateFactor",
      "outputs": [],
      "stateMutability": "nonpayable",
      "type": "function"
    },
    {
      "inputs": [
        {
          "internalType": "uint256",
          "name": "_pid",
          "type": "uint256"
        }
      ],
      "name": "updatePool",
      "outputs": [],
      "stateMutability": "nonpayable",
      "type": "function"
    },
    {
      "inputs": [
        {
          "internalType": "uint256",
          "name": "",
          "type": "uint256"
        },
        {
          "internalType": "address",
          "name": "",
          "type": "address"
        }
      ],
      "name": "userInfo",
      "outputs": [
        {
          "internalType": "uint128",
          "name": "amount",
          "type": "uint128"
        },
        {
          "internalType": "uint128",
          "name": "factor",
          "type": "uint128"
        },
        {
          "internalType": "uint128",
          "name": "rewardDebt",
          "type": "uint128"
        },
        {
          "internalType": "uint128",
          "name": "pendingWom",
          "type": "uint128"
        }
      ],
      "stateMutability": "view",
      "type": "function"
    },
    {
      "inputs": [],
      "name": "veWom",
      "outputs": [
        {
          "internalType": "contract IVeWom",
          "name": "",
          "type": "address"
        }
      ],
      "stateMutability": "view",
      "type": "function"
    },
    {
      "inputs": [
        {
          "internalType": "uint256",
          "name": "_pid",
          "type": "uint256"
        },
        {
          "internalType": "uint256",
          "name": "_amount",
          "type": "uint256"
        }
      ],
      "name": "withdraw",
      "outputs": [
        {
          "internalType": "uint256",
          "name": "",
          "type": "uint256"
        },
        {
          "internalType": "uint256[]",
          "name": "",
          "type": "uint256[]"
        }
      ],
      "stateMutability": "nonpayable",
      "type": "function"
    },
    {
      "inputs": [],
      "name": "wom",
      "outputs": [
        {
          "internalType": "contract IERC20",
          "name": "",
          "type": "address"
        }
      ],
      "stateMutability": "view",
      "type": "function"
    },
    {
      "inputs": [],
      "name": "womPerSec",
      "outputs": [
        {
          "internalType": "uint104",
          "name": "",
          "type": "uint104"
        }
      ],
      "stateMutability": "view",
      "type": "function"
    }
  ],
  "transactionHash": "0x78e31f4890a430352ba38676f779b329893429233748030b3f7f4c9b0e063d3a",
  "args": [],
  "solcInputHash": "73e602f6c702c66deb0e90d5806af699",
  "bytecode": "0x6080806040523461001657614d43908161001c8239f35b600080fdfe60806040526004361015610013575b600080fd5b60003560e01c8063081e3eda146102e35780631526fe27146102da57806317caf6f1146102d15780631983dbf5146102c85780631d0554a6146102bf5780633e582ae6146102b65780633f4ba83a146102ad578063441a3e70146102a45780634ed73d281461029b5780634f00a93e1461029257806351eb05a6146102895780635312ea8e146102805780635c975abb14610277578063630b5ba11461026e578063715018a6146102655780638456cb591461025c5780638a81372f146102535780638da5cb5b1461024a57806390210d7e14610241578063926cb32f1461023857806393f1a40b1461022f5780639b128de614610226578063abf59c081461021d578063abfef11114610214578063af929a801461020b578063bc70fdbc14610202578063be159bea146101f9578063c5a6222e146101f0578063d1e2ac88146101e7578063d93bf4fe146101de578063dc3e67c3146101d5578063e2bbb158146101cc578063e6fd48bc146101c3578063f13e5507146101ba578063f2fde38b146101b15763ffcd4263146101a957600080fd5b61000e6129de565b5061000e6128f3565b5061000e612789565b5061000e612767565b5061000e612362565b5061000e612187565b5061000e612126565b5061000e6120bf565b5061000e612097565b5061000e612067565b5061000e61201f565b5061000e611eda565b5061000e611eb4565b5061000e611d2e565b5061000e611c88565b5061000e611c04565b5061000e6119c8565b5061000e611539565b5061000e611511565b5061000e6114e3565b5061000e611457565b5061000e6113d8565b5061000e6113be565b5061000e61139a565b5061000e611187565b5061000e611168565b5061000e610e86565b5061000e610df0565b5061000e61073b565b5061000e610624565b5061000e6105fc565b5061000e61055a565b5061000e610472565b5061000e610431565b5061000e61038e565b5061000e6102f7565b600091031261000e57565b503461000e57600060031936011261000e57602060cd54604051908152f35b507f4e487b7100000000000000000000000000000000000000000000000000000000600052603260045260246000fd5b60cd54811015610381575b60cd60005260021b7f83978b4c69c48dd978ab43fe30f077615294f938fb7f936d9eb340e51ea7db2e0190600090565b610389610316565b610351565b503461000e57602060031936011261000e5760043560cd5481101561000e576103b690610346565b50805460018201546002830154600390930154604080516001600160a01b03808616825260a095861c60208301529093169083015260608201939093526cffffffffffffffffffffffffff8084166080830152606884901c169181019190915260d09190911c64ffffffffff1660c082015260e090f35b0390f35b503461000e57600060031936011261000e5760206bffffffffffffffffffffffff60cc5460781c16604051908152f35b6064359061ffff8216820361000e57565b503461000e57602060031936011261000e5760043561ffff8082169182810361000e576104ab6001600160a01b03603354163314612d27565b6103e8831161000e5761050a906104c0613b2a565b610505817fffffffffffffffffffffffffffffffffff0000ffffffffffffffffffffffffff6effff0000000000000000000000000060cc549260681b1691161760cc55565b613225565b6040519283521660208201527f7fd921cf733c788915a229b0ea58095c44ae2c275ed7835501e5135fe3c1ed0560403392a2005b604435906cffffffffffffffffffffffffff8216820361000e57565b503461000e57602060031936011261000e576004356cffffffffffffffffffffffffff811680910361000e5761059c6001600160a01b03603354163314612d27565b6105a4613b2a565b807fffffffffffffffffffffffffffffffffffffff0000000000000000000000000060cc54161760cc556040519081527fe2492e003bbe8afa53088b406f0c1cb5d9e280370fc72a74cf116ffd343c405360203392a2005b503461000e57600060031936011261000e5760206001600160a01b0360ca5416604051908152f35b503461000e57600060031936011261000e5761064c6001600160a01b03603354163314612d27565b60975460ff8116156106a9577fffffffffffffffffffffffffffffffffffffffffffffffffffffffffffffff00166097557f5db9ee0a495bf2e6ff9c91a7834c1ba4fdd244a5e8aa4e537bd38aeae4b073aa6020604051338152a1005b606460405162461bcd60e51b815260206004820152601460248201527f5061757361626c653a206e6f74207061757365640000000000000000000000006044820152fd5b90815180825260208080930193019160005b82811061070d575050505090565b8351855293810193928101926001016106ff565b6040906107389392815281602082015201906106ed565b90565b503461000e5760408060031936011261000e576004356024356065546002141561076490613f1e565b600260655560975460ff161561077990613177565b61078282610346565b50926107988360005260d0602052604060002090565b336107b591906001600160a01b0316600052602052604060002090565b926fffffffffffffffffffffffffffffffff92808486546107e5906fffffffffffffffffffffffffffffffff1690565b1610156107f1906148cd565b6107fa82613b74565b845460038701908782546cffffffffffffffffffffffffff92838083168a831690610824916136f9565b9260681c169060801c90610837916136f9565b61084091613745565b64e8d4a51000900491886001810193898554918260801c61086091613745565b911661086b9161320e565b84546fffffffffffffffffffffffffffffffff16855561088b90336149de565b8851818152909990889033907f71bab65ced2e5750775a0613be067df48ef06cf92a496ebf7663ae066092495490602090a3808254966108ca89614b73565b6108d690898416614918565b84546fffffffffffffffffffffffffffffffff19166fffffffffffffffffffffffffffffffff90911617845583546fffffffffffffffffffffffffffffffff169460ca5461092a906001600160a01b031690565b8c517f70a08231000000000000000000000000000000000000000000000000000000008152336004820152906001600160a01b0316816024815a93602094fa9586159a610a256002610a4f9b6109eb610a7b9f6109b46109b49e610a449e610a1a9d610a369b6109b995610c10575b600092610bde575b506109af91921691826136f9565b614c8f565b614b73565b86546fffffffffffffffffffffffffffffffff1660809190911b6fffffffffffffffffffffffffffffffff1916178655565b0191610a2083549160801c91610a1a610a05875460801c90565b6fffffffffffffffffffffffffffffffff1690565b90613745565b61320e565b9055549254948286169084166136f9565b9360681c169060801c6136f9565b64e8d4a51000900490565b6fffffffffffffffffffffffffffffffff166fffffffffffffffffffffffffffffffff19825416179055565b610a986001610a8984610346565b5001546001600160a01b031690565b946001600160a01b03606096169081610b15575b5050610acf8161042d959697610aca3391546001600160a01b031690565b614939565b825190815233907ff279e6a1f5e320cca91135676d9cb6e44ca8a08c0b88342bcdb1144f6511b5689080602081015b0390a3610b0b6001606555565b5192839283610721565b61042d959650600080610b93610acf94610b408795546fffffffffffffffffffffffffffffffff1690565b89517fc37232880000000000000000000000000000000000000000000000000000000081523360048201526fffffffffffffffffffffffffffffffff909116602482015293849283919082906044820190565b03925af1908115610bd1575b600091610bb0575b50969550610aac565b610bcb913d8091833e610bc38183610c8a565b810190613751565b38610ba7565b610bd96136af565b610b9f565b6109af9250610c039060203d8111610c09575b610bfb8183610c8a565b8101906136a0565b916109a1565b503d610bf1565b610c186136af565b610999565b507f4e487b7100000000000000000000000000000000000000000000000000000000600052604160045260246000fd5b67ffffffffffffffff8111610c6157604052565b610c69610c1d565b604052565b6040810190811067ffffffffffffffff821117610c6157604052565b90601f601f19910116810190811067ffffffffffffffff821117610c6157604052565b6040519060e0820182811067ffffffffffffffff821117610c6157604052565b60209067ffffffffffffffff8111610ce7575b60051b0190565b610cef610c1d565b610ce0565b9291610cff82610ccd565b91610d0d6040519384610c8a565b829481845260208094019160051b810192831161000e57905b828210610d335750505050565b81358152908301908301610d26565b91908252610d5c60209160608385015260608401906106ed565b91604081840391015282518083528183019180808360051b860101950192600090815b848310610d90575050505050505090565b90919287601f1988839798999b9a0301845287519082808351928381520192019084905b808210610dd7575050509080600192980193019301919493929097959697610d7f565b9193806001929486518152019401920187939291610db4565b503461000e57602060031936011261000e5760043567ffffffffffffffff811161000e573660238201121561000e57610e61610e3961042d923690602481600401359101610cf4565b610e4860026065541415613f1e565b6002606555610e5c60ff6097541615613177565b614544565b600160659492945560405193849384610d42565b6001600160a01b0381160361000e57565b503461000e57604060031936011261000e57600435610ea481610e75565b6024356001600160a01b0360ca541633036110fe5760cd549160005b838110610ec957005b610ef982610ee18360005260d0602052604060002090565b906001600160a01b0316600052602052604060002090565b610f16610a0582546fffffffffffffffffffffffffffffffff1690565b156110f457610f2482610346565b5090610f2f83613b74565b8054600383018054936fffffffffffffffffffffffffffffffff929091906cffffffffffffffffffffffffff610f698188168684166136f9565b608097606893610f7f91851c8416908a1c6136f9565b610f8891613745565b64e8d4a510009004926001870193845490878216610fa59161320e565b610fae90614b73565b610fb9918a1c6142bb565b84546fffffffffffffffffffffffffffffffff1660809190911b6fffffffffffffffffffffffffffffffff19161784558654958616610ff88c826136f9565b9061100291614c8f565b9661100c88614b73565b81546fffffffffffffffffffffffffffffffff1660809190911b6fffffffffffffffffffffffffffffffff1916178155546fffffffffffffffffffffffffffffffff166fffffffffffffffffffffffffffffffff16905490828216611070916136f9565b921c1661107d90866136f9565b61108691613745565b64e8d4a51000900461109790614b73565b6110c891906fffffffffffffffffffffffffffffffff166fffffffffffffffffffffffffffffffff19825416179055565b600201921c908254906110da91613745565b906110e49161320e565b90556110ef90613898565b610ec0565b506110ef90613898565b608460405162461bcd60e51b815260206004820152602160248201527f4d6173746572576f6d6261743a2063616c6c6572206973206e6f74205665576f60448201527f6d000000000000000000000000000000000000000000000000000000000000006064820152fd5b503461000e57602060031936011261000e57611185600435613b74565b005b503461000e57602060031936011261000e576004356111ab60026065541415613f1e565b60026065556112d46111bc82610346565b5060026111ee6111d68560005260d0602052604060002090565b336001600160a01b0316600052602052604060002090565b9161122861120382546001600160a01b031690565b611220610a0586546fffffffffffffffffffffffffffffffff1690565b903390614939565b01611242815461123c610a05855460801c90565b9061320e565b905580546fffffffffffffffffffffffffffffffff16815561127761126b6001610a8986610346565b6001600160a01b031690565b6001600160a01b038116611324575b5080546fffffffffffffffffffffffffffffffff191681556112be600182016fffffffffffffffffffffffffffffffff198154169055565b546fffffffffffffffffffffffffffffffff1690565b6040516fffffffffffffffffffffffffffffffff909116815233907fbb757047c2b5f3974fe26b7c10f732e7bce710b0952a71082702781e62ae05959080602081015b0390a36111856001606555565b6040517fc372328800000000000000000000000000000000000000000000000000000000815233600482015260006024820181905290918290604490829084905af1801561138d575b1561128657611386903d806000833e610bc38183610c8a565b5038611286565b6113956136af565b61136d565b503461000e57600060031936011261000e57602060ff609754166040519015158152f35b503461000e57600060031936011261000e57611185613b2a565b503461000e57600080600319360112611454576033547fffffffffffffffffffffffff00000000000000000000000000000000000000006001600160a01b03821691611425338414612d27565b1660335581604051917f8be0079c531659141344cd1fd0a4f28419497f9722a3daafe3b4186f6b6457e08284a3f35b80fd5b503461000e57600060031936011261000e5761147f6001600160a01b03603354163314612d27565b60017fffffffffffffffffffffffffffffffffffffffffffffffffffffffffffffff006097546114b260ff821615613177565b16176097557f62e78cea01bee320cd4e420270b5ea74000d11b0c9f74754ebdbfc544b05a2586020604051338152a1005b503461000e57600060031936011261000e5760206cffffffffffffffffffffffffff60cc5416604051908152f35b503461000e57600060031936011261000e5760206001600160a01b0360335416604051908152f35b503461000e57606060031936011261000e576004356024357f16f3fbfd4bcc50a5cecb2e53e398a1ad77d89f63288ef540d862b264ed57eb1f60443561157e81610e75565b61158d60026065541415613f1e565b60026065556115a160ff6097541615613177565b6115aa84610346565b50906117d9846117d06115cb84610ee18a60005260d0602052604060002090565b946115d589613b74565b61179e61176d6109b4610a4489548d8b8b886fffffffffffffffffffffffffffffffff94858116806118d3575b5050505061166591506116379061163261161b8c614b73565b91546fffffffffffffffffffffffffffffffff1690565b6142bb565b8c906fffffffffffffffffffffffffffffffff166fffffffffffffffffffffffffffffffff19825416179055565b8a546117236116f16109b48d6109af6116d660208888169361169261126b60ca546001600160a01b031690565b60405180809581947f70a08231000000000000000000000000000000000000000000000000000000008352600483019190916001600160a01b036020820193169052565b03915afa9081156118c6575b6000916118a8575b50826136f9565b8d546fffffffffffffffffffffffffffffffff1660809190911b6fffffffffffffffffffffffffffffffff1916178d55565b6117438c610a2060028a0193610a1a610a0586549260801c945460801c90565b9055610a1a8b54600388015492610a366cffffffffffffffffffffffffff918286169084166136f9565b60018801906fffffffffffffffffffffffffffffffff166fffffffffffffffffffffffffffffffff19825416179055565b6117af61126b6001610a898c610346565b956001600160a01b03968781166117eb575b5050546001600160a01b031690565b309033906142e0565b60405193845216918060208101611317565b61186a6000929161180d8493546fffffffffffffffffffffffffffffffff1690565b6040517fc37232880000000000000000000000000000000000000000000000000000000081526001600160a01b038b1660048201526fffffffffffffffffffffffffffffffff909116602482015293849283919082906044820190565b03925af1801561189b575b611880575b806117c1565b611894903d806000833e610bc38183610c8a565b503861187a565b6118a36136af565b611875565b6118c0915060203d8111610c0957610bfb8183610c8a565b386116ea565b6118ce6136af565b6116e2565b7f71bab65ced2e5750775a0613be067df48ef06cf92a496ebf7663ae06609249549361196c6119536001611937610a446001600160a01b0396610a1a6119749960036119849c015492610a366cffffffffffffffffffffffffff91828616906136f9565b9801978a61194b8a54928360801c90613745565b91169061320e565b966fffffffffffffffffffffffffffffffff8154169055565b1693846149de565b6040519081529081906020820190565b0390a38d8b8b883880611602565b600435906bffffffffffffffffffffffff8216820361000e57565b602435906bffffffffffffffffffffffff8216820361000e57565b503461000e57606060031936011261000e576119e2611992565b6024356119ee81610e75565b604435916119fb83610e75565b611b706001600160a01b0392611a1684603354163314612d27565b611b6b84821694611a29863b1515613237565b861695863b15801590611bfc575b611a40906132a8565b611a66611a61611a5d8860005260cf602052604060002054151590565b1590565b613319565b611a6e613b2a565b611b4660cc54918260d81c804211600014611bef5750611b36611b0764ffffffffff4216945b611b00611ab38b6bffffffffffffffffffffffff809460781c16613364565b7fffffffffff000000000000000000000000ffffffffffffffffffffffffffffff7affffffffffffffffffffffff00000000000000000000000000000060cc549260781b1691161760cc55565b8916614c32565b611b21611b12610cad565b6001600160a01b039098168852565b6bffffffffffffffffffffffff166020870152565b6001600160a01b03166040850152565b6000606084015260006080840152600060a084015260c083019064ffffffffff169052565b6133b5565b60cd54611b90836001600160a01b031660005260d1602052604060002090565b55611b9a8261357b565b507f4b16bd2431ad24dc020ab0e1de7fcb6563dead6a24fb10089d6c23e97a70381f611bea611bca60cd546131f2565b6040516bffffffffffffffffffffffff9094168452929081906020820190565b0390a4005b611b07611b369194611a94565b508615611a37565b503461000e57604060031936011261000e576080611c4f602435611c2781610e75565b60043560005260d06020526040600020906001600160a01b0316600052602052604060002090565b60018154910154604051916fffffffffffffffffffffffffffffffff908181168452841c602084015281166040830152821c6060820152f35b503461000e57602060031936011261000e57600435611ca681610e75565b6001600160a01b038091611cbf82603354163314612d27565b16801561000e57611cce613b2a565b60ca5491817fffffffffffffffffffffffff000000000000000000000000000000000000000084161760ca556040519216825260208201527fa0956d8e03557278fdb89913cec4e0f21da09587edf25b3eecc0079cdb757ef560403392a2005b503461000e5760a060031936011261000e57600435611d4c81610e75565b602435611d5881610e75565b611d6061053e565b611d68610461565b6084359164ffffffffff8316830361000e576000549360ff8560081c169485600014611eab5750303b155b15611e4157611da894159586611ddb57612e45565b611dae57005b6111857fffffffffffffffffffffffffffffffffffffffffffffffffffffffffffff00ff60005416600055565b611e0c6101007fffffffffffffffffffffffffffffffffffffffffffffffffffffffffffff00ff6000541617600055565b611e3c60017fffffffffffffffffffffffffffffffffffffffffffffffffffffffffffffff006000541617600055565b612e45565b608460405162461bcd60e51b815260206004820152602e60248201527f496e697469616c697a61626c653a20636f6e747261637420697320616c72656160448201527f647920696e697469616c697a65640000000000000000000000000000000000006064820152fd5b60ff1615611d93565b503461000e57600060031936011261000e57602061ffff60cc5460681c16604051908152f35b503461000e57602060031936011261000e576001600160a01b03600435611f0081610e75565b1660005260d1602052602060406000205460018110611f26575b60001960405191018152f35b611f2e6131c2565b611f1a565b90815180825260208080930193019160005b828110611f53575050505090565b83516001600160a01b031685529381019392810192600101611f45565b918091926000905b828210611f90575011611f89575050565b6000910152565b91508060209183015181860152018291611f78565b90601f19601f602093611fc381518092818752878088019101611f70565b0116010190565b90815180825260208092019182818360051b85019501936000915b848310611ff55750505050505090565b909192939495848061200f83856001950387528a51611fa5565b9801930193019194939290611fe5565b503461000e57602060031936011261000e5761205961042d61204260043561398d565b604092919251938493604085526040850190611f33565b908382036020850152611fca565b503461000e57600060031936011261000e57602061ffff61208e8160cc5460681c16613225565b16604051908152f35b503461000e57600060031936011261000e5760206001600160a01b0360c95416604051908152f35b503461000e57602060031936011261000e576004356120dd81610e75565b6001600160a01b03906120f582603354163314612d27565b167fffffffffffffffffffffffff000000000000000000000000000000000000000060cb54161760cb556000604051f35b503461000e57602060031936011261000e5760043567ffffffffffffffff80821161000e573660238301121561000e57816004013590811161000e573660248260051b8401011161000e5760246111859201613f69565b8015150361000e57565b503461000e57608060031936011261000e576004356121a46119ad565b907fa54644aae5c48c5971516f334e4fe8ecbc7930e23f34877d4203c6551e67ffaa6044356121d281610e75565b6064356121de8161217d565b6001600160a01b03916121f683603354163314612d27565b61220e838216803b1590811591612359575b50613612565b612216613b2a565b61225a611ab38761225561223b60cc546bffffffffffffffffffffffff9060781c1690565b61224f6122478b610346565b505460a01c90565b90613683565b613364565b816122b76122756bffffffffffffffffffffffff8916614c32565b61227e88610346565b50906001600160a01b037fffffffffffffffffffffffff000000000000000000000000000000000000000083549260a01b169116179055565b612310575b81156122f8576122f390915b6040519384931696839092916020906bffffffffffffffffffffffff60408401951683521515910152565b0390a3005b506122f361230a6001610a8987610346565b916122c8565b61235481600161231f88610346565b5001906001600160a01b03167fffffffffffffffffffffffff0000000000000000000000000000000000000000825416179055565b6122bc565b90501538612208565b503461000e5760408060031936011261000e5760043560243561238a60026065541415613f1e565b600260655561239e60ff6097541615613177565b6123a782610346565b50926123c06111d68460005260d0602052604060002090565b926123ca81613b74565b600092845485876fffffffffffffffffffffffffffffffff928381169081612699575b5050610a44612563938761250861253295610a2060026109b49761245d61242f6124168e614b73565b86546fffffffffffffffffffffffffffffffff166142bb565b85906fffffffffffffffffffffffffffffffff166fffffffffffffffffffffffffffffffff19825416179055565b6124f26124c06109b48654986109af8b8b1691602061248761126b60ca546001600160a01b031690565b91517f70a082310000000000000000000000000000000000000000000000000000000081523360048201529182908180602481016116d6565b85546fffffffffffffffffffffffffffffffff1660809190911b6fffffffffffffffffffffffffffffffff1916178555565b0193610a1a610a0586549260801c945460801c90565b9055610a1a8a5460038d015492610a366cffffffffffffffffffffffffff918286169084166136f9565b60018701906fffffffffffffffffffffffffffffffff166fffffffffffffffffffffffffffffffff19825416179055565b6125716001610a8984610346565b946001600160a01b036060961690816125d4575b50506125a1816117d061042d969798546001600160a01b031690565b825190815233907f90890809c654f11d6e72a28fa60149770a0d11ec6c92319d6ceb2bb0a4ea1a15908060208101610afe565b61042d9596506117d06000806126556125a1956126028896546fffffffffffffffffffffffffffffffff1690565b8a517fc37232880000000000000000000000000000000000000000000000000000000081523360048201526fffffffffffffffffffffffffffffffff909116602482015293849283919082906044820190565b03925af190811561268c575b600091612673575b5097965050612585565b612686913d8091833e610bc38183610c8a565b38612669565b6126946136af565b612661565b879498509085916003840154916cffffffffffffffffffffffffff908184166126c1916136f9565b9260681c169060801c906126d4916136f9565b6126dd91613745565b64e8d4a5100090046001840190898254918260801c6126fb91613745565b91166127069161320e565b81546fffffffffffffffffffffffffffffffff1690915561272790336149de565b9786855133908061273d8d829190602083019252565b037f71bab65ced2e5750775a0613be067df48ef06cf92a496ebf7663ae066092495491a3936123ed565b503461000e57600060031936011261000e57602060cc5460d81c604051908152f35b503461000e57600080600319360112611454577f2b58f1b72aa1f2865f8da73af0eaff3a2b5b670c59fed83005919fe6c23cf35c6128956001600160a01b036127d781603354163314612d27565b60c9546001600160a01b03166040517f70a08231000000000000000000000000000000000000000000000000000000008082523060048301526020939092612841929185908390818060248101039185165afa9182156128e6575b88926128c7575b503390614939565b8161285761126b60c9546001600160a01b031690565b604051928352306004840152829060249082905afa9182156128ba575b859261289d575b505060408051338152602081019290925290918291820190565b0390a1604051f35b6128b39250803d10610c0957610bfb8183610c8a565b388061287b565b6128c26136af565b612874565b6128df919250853d8711610c0957610bfb8183610c8a565b9038612839565b6128ee6136af565b612832565b503461000e57602060031936011261000e5760043561291181610e75565b6001600160a01b0361292881603354163314612d27565b8116156129385761118590612d72565b608460405162461bcd60e51b815260206004820152602660248201527f4f776e61626c653a206e6577206f776e657220697320746865207a65726f206160448201527f64647265737300000000000000000000000000000000000000000000000000006064820152fd5b926129c261073895936129d0938652608060208701526080860190611f33565b908482036040860152611fca565b9160608184039101526106ed565b503461000e57604060031936011261000e576129fb602435610e75565b60608080612a0a600435610346565b5091602435600435612a269060005260d0602052604060002090565b90612a4391906001600160a01b0316600052602052604060002090565b600384015484546040517f70a082310000000000000000000000000000000000000000000000000000000081523060048201526001600160a01b03936cffffffffffffffffffffffffff939190848316606884901c86168a888716856024815a93602094fa612b399861126b98600198612b2a988415612d1a575b600094612cf3575b5064ffffffffff9060d01c1680421180612cea575b612bf3575b505050505084612b1c610a4461194b93610a1a875491612b136fffffffffffffffffffffffffffffffff988985166136f9565b9260801c6136f9565b930154928360801c90613745565b9601546001600160a01b031690565b908116612b53575b509061042d91604051948594856129a2565b9350505061042d612b6560043561398d565b9093600060405180927fc031a66f0000000000000000000000000000000000000000000000000000000082528180612bb2602435600483019190916001600160a01b036020820193169052565b03915afa908115612be6575b600091612bcd575b5091612b41565b612be0913d8091833e610bc38183610c8a565b38612bc6565b612bee6136af565b612bbe565b92610a44926002612c948c9799610a1a612c82612c7d612c52612c3a61194b9e9a612c30612c24612b1c9f4261320e565b60cc549b8c16906136f9565b9060a01c906136f9565b6bffffffffffffffffffffffff8960781c169061370c565b97612c77612c7161ffff612c658c6136bc565b9a60681c16809a6136f9565b916136e2565b9061370c565b614bd4565b6cffffffffffffffffffffffffff1690565b9801549182612cab575b50508f9450819550612ae0565b612c7d612ce29493612c77612c71610a1a95612cdc612cd5612ccf612c82986136bc565b92613225565b61ffff1690565b906136f9565b388080612c9e565b50831515612adb565b64ffffffffff919450612d139060203d8111610c0957610bfb8183610c8a565b9390612ac6565b612d226136af565b612abe565b15612d2e57565b606460405162461bcd60e51b815260206004820152602060248201527f4f776e61626c653a2063616c6c6572206973206e6f7420746865206f776e65726044820152fd5b603354906001600160a01b0380911691827fffffffffffffffffffffffff0000000000000000000000000000000000000000821617603355167f8be0079c531659141344cd1fd0a4f28419497f9722a3daafe3b4186f6b6457e06000604051a3565b15612ddb57565b608460405162461bcd60e51b815260206004820152602760248201527f6261736520706172746974696f6e206d75737420626520696e2072616e67652060448201527f302c2031303030000000000000000000000000000000000000000000000000006064820152fd5b919392906001600160a01b0383161561304c576cffffffffffffffffffffffffff85161561300857612fd994612f11612f4b92612edd612f8c96612e916103e861ffff89161115612dd4565b612e99613101565b612ea161315f565b612ea9613124565b6001600160a01b03167fffffffffffffffffffffffff000000000000000000000000000000000000000060c954161760c955565b6001600160a01b03167fffffffffffffffffffffffff000000000000000000000000000000000000000060ca54161760ca55565b6cffffffffffffffffffffffffff167fffffffffffffffffffffffffffffffffffffff0000000000000000000000000060cc54161760cc55565b7fffffffffffffffffffffffffffffffffff0000ffffffffffffffffffffffffff6effff0000000000000000000000000060cc549260681b1691161760cc55565b7affffffffffffffffffffffffffffffffffffffffffffffffffffff7fffffffffff00000000000000000000000000000000000000000000000000000060cc549260d81b1691161760cc55565b6130067fffffffffff000000000000000000000000ffffffffffffffffffffffffffffff60cc541660cc55565b565b606460405162461bcd60e51b815260206004820152601a60248201527f776f6d20706572207365632063616e6e6f74206265207a65726f0000000000006044820152fd5b606460405162461bcd60e51b815260206004820152601a60248201527f776f6d20616464726573732063616e6e6f74206265207a65726f0000000000006044820152fd5b1561309757565b608460405162461bcd60e51b815260206004820152602b60248201527f496e697469616c697a61626c653a20636f6e7472616374206973206e6f74206960448201527f6e697469616c697a696e670000000000000000000000000000000000000000006064820152fd5b61311b60ff60005460081c1661311681613090565b613090565b61300633612d72565b61313560ff60005460081c16613090565b7fffffffffffffffffffffffffffffffffffffffffffffffffffffffffffffff0060975416609755565b61317060ff60005460081c16613090565b6001606555565b1561317e57565b606460405162461bcd60e51b815260206004820152601060248201527f5061757361626c653a20706175736564000000000000000000000000000000006044820152fd5b507f4e487b7100000000000000000000000000000000000000000000000000000000600052601160045260246000fd5b6000199060018110613202570190565b61320a6131c2565b0190565b818110613219570390565b6132216131c2565b0390565b61ffff166103e8818110613219570390565b1561323e57565b608460405162461bcd60e51b815260206004820152602660248201527f6164643a204c5020746f6b656e206d75737420626520612076616c696420636f60448201527f6e747261637400000000000000000000000000000000000000000000000000006064820152fd5b156132af57565b608460405162461bcd60e51b815260206004820152602660248201527f6164643a207265776172646572206d75737420626520636f6e7472616374206f60448201527f72207a65726f00000000000000000000000000000000000000000000000000006064820152fd5b1561332057565b606460405162461bcd60e51b815260206004820152601560248201527f6164643a204c5020616c726561647920616464656400000000000000000000006044820152fd5b906bffffffffffffffffffffffff8080931691168092038111613202570190565b507f4e487b7100000000000000000000000000000000000000000000000000000000600052600060045260246000fd5b6130069061351260c060036133e460cd546801000000000000000081101561356e575b6001810160cd55610346565b613561575b8451602086015160a01b7fffffffffffffffffffffffff00000000000000000000000000000000000000009081166001600160a01b039283161783556040870151600184018054909216921691909117905560608501516002820155019261349e61346460808301516cffffffffffffffffffffffffff1690565b85906cffffffffffffffffffffffffff167fffffffffffffffffffffffffffffffffffffff00000000000000000000000000825416179055565b6135066134bb60a08301516cffffffffffffffffffffffffff1690565b85547fffffffffffff00000000000000000000000000ffffffffffffffffffffffffff1660689190911b79ffffffffffffffffffffffffff0000000000000000000000000016178555565b015164ffffffffff1690565b7fff0000000000ffffffffffffffffffffffffffffffffffffffffffffffffffff7effffffffff000000000000000000000000000000000000000000000000000083549260d01b169116179055565b613569613385565b6133e9565b613576610c1d565b6133d8565b8060005260cf6020526040600020541560001461360c578060ce54680100000000000000008110156135ff575b600181018060ce558110156135f2575b7fd36cd1c74ef8d7326d8021b776c18fb5a5724b7f7bc93c2f42e43e10ef27d12a015560ce549060005260cf602052604060002055600190565b6135fa610316565b6135b8565b613607610c1d565b6135a8565b50600090565b1561361957565b608460405162461bcd60e51b815260206004820152602660248201527f7365743a207265776172646572206d75737420626520636f6e7472616374206f60448201527f72207a65726f00000000000000000000000000000000000000000000000000006064820152fd5b6bffffffffffffffffffffffff9182169116818110613219570390565b9081602091031261000e575190565b506040513d6000823e3d90fd5b64e8d4a510009080600019048211811515166136d6570290565b6136de6131c2565b0290565b6103e89080600019048211811515166136d6570290565b80600019048211811515166136d6570290565b8115613716570490565b7f4e487b7100000000000000000000000000000000000000000000000000000000600052601260045260246000fd5b81198111613202570190565b602090818184031261000e5780519067ffffffffffffffff821161000e57019180601f8401121561000e57825161378781610ccd565b936137956040519586610c8a565b818552838086019260051b82010192831161000e578301905b8282106137bc575050505090565b815181529083019083016137ae565b602090818184031261000e5780519067ffffffffffffffff821161000e57019180601f8401121561000e57825161380181610ccd565b9361380f6040519586610c8a565b818552838086019260051b82010192831161000e578301905b828210613836575050505090565b838091835161384481610e75565b815201910190613828565b9061385982610ccd565b6138666040519182610c8a565b828152601f196138768294610ccd565b019060005b82811061388757505050565b80606060208093850101520161387b565b6001906000198114613202570190565b60209181518110156138bd575b60051b010190565b6138c5610316565b6138b5565b601f19601f60209267ffffffffffffffff81116138e8575b01160190565b6138f0610c1d565b6138e2565b60208183031261000e5780519067ffffffffffffffff821161000e570181601f8201121561000e578051613928816138ca565b926139366040519485610c8a565b8184526020828401011161000e576107389160208085019101611f70565b6040519061396182610c6e565b600382527f424e4200000000000000000000000000000000000000000000000000000000006020830152565b61126b6001610a8961399e93610346565b6001600160a01b03811615613b22576040918251809381937fc2b18aa0000000000000000000000000000000000000000000000000000000008352600095869160049485915afa938415613b15575b8594613af1575b508394845192613a038461384f565b95825b858110613a1557505050505050565b80613a3961126b61126b613a2c613a6095876138a8565b516001600160a01b031690565b613a6557613a45613954565b613a4f828b6138a8565b52613a5a818a6138a8565b50613898565b613a06565b8385613a7d61126b61126b61126b613a2c878a6138a8565b8851928380927f95d89b410000000000000000000000000000000000000000000000000000000082525afa908115613ae4575b8691613ac2575b50613a4f828b6138a8565b613ade91503d8088833e613ad68183610c8a565b8101906138f5565b38613ab7565b613aec6136af565b613ab0565b613b0e9194503d8087833e613b068183610c8a565b8101906137cb565b92386139f4565b613b1d6136af565b6139ed565b506060908190565b60cd5460005b818110613b3b575050565b80613b48613b4d92613b74565b613898565b613b30565b906cffffffffffffffffffffffffff8080931691168092038111613202570190565b613b7d81610346565b5090613ba2613b98600384015464ffffffffff9060d01c1690565b64ffffffffff1690565b4211613bac575050565b613bc061126b83546001600160a01b031690565b6040517f70a0823100000000000000000000000000000000000000000000000000000000815230600482015290602090829060249082905afa908115613f11575b600091613ef3575b508015613ea05782613dfa6003807f3be3541fc42237d611b30329040bfa4569541d156560acdbbae57640d20b8f46959601549264ffffffffff93613d22613ce6613c59878460d01c164261320e565b926cffffffffffffffffffffffffff613cdf612c7d613cd6613cbe613ca6613c8760cc549a878c16906136f9565b612cdc613c958d5460a01c90565b6bffffffffffffffffffffffff1690565b6bffffffffffffffffffffffff8a60781c169061370c565b9761ffff613ccb8a6136bc565b9160681c16906136f9565b612c778d6136e2565b9116613b52565b848401906cffffffffffffffffffffffffff167fffffffffffffffffffffffffffffffffffffff00000000000000000000000000825416179055565b60028201549081613dff575050613d5d8282017fffffffffffff00000000000000000000000000ffffffffffffffffffffffffff8154169055565b80820180547fff0000000000ffffffffffffffffffffffffffffffffffffffffffffffffffff1642861660d01b7effffffffff00000000000000000000000000000000000000000000000000001617905501546040519384936cffffffffffffffffffffffffff83169260d01c16849160409194936cffffffffffffffffffffffffff9164ffffffffff6060860197168552602085015216910152565b0390a2565b613e32612c7d613e9b93612c77612c71613e1b613e4d966136bc565b612cdc612cd561050560cc5461ffff9060681c1690565b8385015460681c6cffffffffffffffffffffffffff16613b52565b838301907fffffffffffff00000000000000000000000000ffffffffffffffffffffffffff79ffffffffffffffffffffffffff0000000000000000000000000083549260681b169116179055565b613d5d565b505060030180547fff0000000000ffffffffffffffffffffffffffffffffffffffffffffffffffff164260d01b7effffffffff000000000000000000000000000000000000000000000000000016179055565b613f0b915060203d8111610c0957610bfb8183610c8a565b38613c09565b613f196136af565b613c01565b15613f2557565b606460405162461bcd60e51b815260206004820152601f60248201527f5265656e7472616e637947756172643a207265656e7472616e742063616c6c006044820152fd5b600291613f7a836065541415613f1e565b8260655560cb90613fa86001600160a01b03613fa061126b85546001600160a01b031690565b161515614243565b613fb6610e5c368386610cf4565b50505060005b818110613fd25750505050506130066001606555565b613fdd81838661428e565b3590613ff733610ee18460005260d0602052604060002090565b9161401283546fffffffffffffffffffffffffffffffff1690565b926fffffffffffffffffffffffffffffffff841661403c575b50506140379150613898565b613fbc565b61404582610346565b50918254614059906001600160a01b031690565b6001600160a01b0316928754614075906001600160a01b031690565b604080517f095ea7b30000000000000000000000000000000000000000000000000000000081526001600160a01b03929092166004808401919091526fffffffffffffffffffffffffffffffff98909816602483015294602091908290829060449082905a90600091f18015614236575b614208575b505061410161126b89546001600160a01b031690565b9361411c84546fffffffffffffffffffffffffffffffff1690565b90853b1561000e57517f90210d7e0000000000000000000000000000000000000000000000000000000081529687018381526fffffffffffffffffffffffffffffffff9091166020820152336040820152614037966141db956141cf956141b8938e936141ae93610a059392600091839182908490829060600103925af180156141fb575b6141e2575b505460801c90565b920191825461320e565b9055610ee1339160005260d0602052604060002090565b60016000918281550155565b388061402b565b806141ef6141f592610c4d565b806102ec565b386141a6565b6142036136af565b6141a1565b8161422792903d1061422f575b61421f8183610c8a565b8101906142a6565b5038806140eb565b503d614215565b61423e6136af565b6140e6565b1561424a57565b606460405162461bcd60e51b815260206004820152600960248201527f746f2077686572653f00000000000000000000000000000000000000000000006044820152fd5b919081101561429e5760051b0190565b610cef610316565b9081602091031261000e57516107388161217d565b906fffffffffffffffffffffffffffffffff8080931691168092038111613202570190565b909261300693604051937f23b872dd0000000000000000000000000000000000000000000000000000000060208601526001600160a01b03809216602486015216604484015260648301526064825260a0820182811067ffffffffffffffff82111761434f575b6040526143cd565b614357610c1d565b614347565b1561436357565b608460405162461bcd60e51b815260206004820152602a60248201527f5361666545524332303a204552433230206f7065726174696f6e20646964206e60448201527f6f742073756363656564000000000000000000000000000000000000000000006064820152fd5b6001600160a01b031690604051906143e482610c6e565b6020928383527f5361666545524332303a206c6f772d6c6576656c2063616c6c206661696c656484840152803b1561445b57600082819282876144369796519301915af161443061449f565b906144cf565b8051908161444357505050565b82613006936144569383010191016142a6565b61435c565b6064846040519062461bcd60e51b82526004820152601d60248201527f416464726573733a2063616c6c20746f206e6f6e2d636f6e74726163740000006044820152fd5b3d156144ca573d906144b0826138ca565b916144be6040519384610c8a565b82523d6000602084013e565b606090565b909190156144db575090565b8151156144eb5750805190602001fd5b61450f9060405191829162461bcd60e51b8352602060048401526024830190611fa5565b0390fd5b9061451d82610ccd565b61452a6040519182610c8a565b828152601f1961453a8294610ccd565b0190602036910137565b9060006145518351614513565b61455b845161384f565b91805b85518110156147f05761458933610ee1614578848a6138a8565b5160005260d0602052604060002090565b906145a7610a0583546fffffffffffffffffffffffffffffffff1690565b6145bb575b6145b69150613898565b61455e565b6145c581886138a8565b516145cf90613b74565b6145d981886138a8565b516145e390610346565b5082546003820180546cffffffffffffffffffffffffff969193926fffffffffffffffffffffffffffffffff919061461f8983168483166136f9565b60809260689261463591841c8c1690851c6136f9565b61463e91613745565b64e8d4a51000900491600196878a01938585549182851c61465e91613745565b91166146699161320e565b84546fffffffffffffffffffffffffffffffff1685559a8b958b54925490614696908383169085166136f9565b941c16911c906146a5916136f9565b6146ae91613745565b64e8d4a5100090046146bf90614b73565b6146f091906fffffffffffffffffffffffffffffffff166fffffffffffffffffffffffffffffffff19825416179055565b6146f991613745565b9461470484886138a8565b5201546145b692906001600160a01b031680614722575b50506145ac565b614798600092916147448493546fffffffffffffffffffffffffffffffff1690565b6040517fc37232880000000000000000000000000000000000000000000000000000000081523360048201526fffffffffffffffffffffffffffffffff909116602482015293849283919082906044820190565b03925af19081156147e3575b6000916147ca575b506147b782876138a8565b526147c281866138a8565b50388061471b565b6147dd913d8091833e610bc38183610c8a565b386147ac565b6147eb6136af565b6147a4565b509093916147fe82336149de565b908282146148975760005b845181101561488c57806148338561482e614827614887958c6138a8565b51876136f9565b61370c565b61483d828a6138a8565b5261484881876138a8565b51614853828a6138a8565b5160405190815233907f71bab65ced2e5750775a0613be067df48ef06cf92a496ebf7663ae066092495490602090a3613898565b614809565b509392509050929190565b91509260005b83518110156148c457806148b46148bf92866138a8565b5161485382896138a8565b61489d565b50915091929190565b156148d457565b606460405162461bcd60e51b815260206004820152601260248201527f77697468647261773a206e6f7420676f6f6400000000000000000000000000006044820152fd5b6fffffffffffffffffffffffffffffffff9182169116818110613219570390565b6040517fa9059cbb0000000000000000000000000000000000000000000000000000000060208201526001600160a01b039290921660248301526044808301939093529181526130069161498e606483610c8a565b6143cd565b1561499a57565b606460405162461bcd60e51b815260206004820152601760248201527f4e6f20746f6b656e7320746f20646973747269627574650000000000000000006044820152fd5b6149f361126b60c9546001600160a01b031690565b6040517f70a0823100000000000000000000000000000000000000000000000000000000815230600482015292602092918385602481845afa948515614b66575b600095614b47575b50614a48851515614993565b84821115614af65750508183614abb92614a6d61126b60c9546001600160a01b031690565b9060006040518096819582947fa9059cbb00000000000000000000000000000000000000000000000000000000845260048401602090939291936001600160a01b0360408201951681520152565b03925af18015614ae9575b614acf57505090565b81614ae592903d1061422f5761421f8183610c8a565b5090565b614af16136af565b614ac6565b6040517fa9059cbb0000000000000000000000000000000000000000000000000000000081526001600160a01b03909316600484015260248301829052909350829082908160008160448101614abb565b614b5f919550843d8611610c0957610bfb8183610c8a565b9338614a3c565b614b6e6136af565b614a34565b6fffffffffffffffffffffffffffffffff90818111614b90571690565b606460405162461bcd60e51b815260206004820152601060248201527f75696e74313238206f766572666c6f77000000000000000000000000000000006044820152fd5b6cffffffffffffffffffffffffff90818111614bee571690565b606460405162461bcd60e51b815260206004820152601060248201527f75696e74313034206f766572666c6f77000000000000000000000000000000006044820152fd5b6bffffffffffffffffffffffff90818111614c4b571690565b606460405162461bcd60e51b815260206004820152600f60248201527f75696e743936206f766572666c6f7700000000000000000000000000000000006044820152fd5b919060006003841115614cfe57508281118015614cf6575b15614cf05750815b614cc283614cbd818461370c565b613745565b600190811c915b848303614cd557505050565b90919350614ce784614cbd818461370c565b821c9190614cc9565b91614caf565b508015614ca7565b929050614d0757565b6001915056fea2646970667358221220833106be35c90b8f37aeafe11c2150e74d88f51e45a357a63a593f104b5dcab564736f6c634300080f0033",
  "devdoc": {
    "kind": "dev",
    "methods": {
      "add(uint96,address,address)": {
        "details": "Reverts if the same LP token is added more than once.",
        "params": {
          "_allocPoint": "allocation points for this LP",
          "_lpToken": "the corresponding lp token",
          "_rewarder": "the rewarder"
        }
      },
      "deposit(uint256,uint256)": {
        "details": "it is possible to call this function with _amount == 0 to claim current rewards",
        "params": {
          "_amount": "amount to deposit",
          "_pid": "the pool id"
        }
      },
      "depositFor(uint256,uint256,address)": {
        "details": "user must initiate transaction from masterchef",
        "params": {
          "_amount": "amount to deposit",
          "_pid": "the pool id",
          "_user": "the user being represented"
        }
      },
      "emergencyWithdraw(uint256)": {
        "params": {
          "_pid": "the pool id"
        }
      },
      "massUpdatePools()": {
        "details": "Be careful of gas spending!"
      },
      "migrate(uint256[])": {
        "details": "Assume the orginal MasterWombat has stopped emisions hence we can skip updatePool() to save gas cost"
      },
      "multiClaim(uint256[])": {
        "params": {
          "_pids": "array pids, pools to claim"
        }
      },
      "owner()": {
        "details": "Returns the address of the current owner."
      },
      "pause()": {
        "details": "pause pool, restricting certain operations"
      },
      "paused()": {
        "details": "Returns true if the contract is paused, and false otherwise."
      },
      "pendingTokens(uint256,address)": {
        "params": {
          "_pid": "the pool id",
          "_user": "the user address"
        }
      },
      "renounceOwnership()": {
        "details": "Leaves the contract without owner. It will not be possible to call `onlyOwner` functions anymore. Can only be called by the current owner. NOTE: Renouncing ownership will leave the contract without an owner, thereby removing any functionality that is only available to the owner."
      },
      "rewarderBonusTokenInfo(uint256)": {
        "params": {
          "_pid": "the pool id"
        }
      },
      "set(uint256,uint96,address,bool)": {
        "params": {
          "_allocPoint": "allocation points",
          "_pid": "the pool id",
          "_rewarder": "the rewarder",
          "overwrite": "overwrite rewarder?"
        }
      },
      "setVeWom(address)": {
        "params": {
          "_newVeWom": "the new VeWom address"
        }
      },
      "transferOwnership(address)": {
        "details": "Transfers ownership of the contract to a new account (`newOwner`). Can only be called by the current owner."
      },
      "unpause()": {
        "details": "unpause pool, enabling certain operations"
      },
      "updateEmissionPartition(uint16)": {
        "params": {
          "_basePartition": "the future base partition"
        }
      },
      "updateEmissionRate(uint104)": {
        "details": "Pancake has to add hidden dummy pools inorder to alter the emission,here we make it simple and transparent to all.",
        "params": {
          "_womPerSec": "wom amount to be updated"
        }
      },
      "updateFactor(address,uint256)": {
        "details": "can only be called by veWom",
        "params": {
          "_newVeWomBalance": "the amount of veWOM",
          "_user": "the user to update"
        }
      },
      "updatePool(uint256)": {
        "params": {
          "_pid": "the pool id"
        }
      },
      "withdraw(uint256,uint256)": {
        "params": {
          "_amount": "the amount to withdraw",
          "_pid": "the pool id"
        }
      }
    },
    "title": "MasterWombatV2 MasterWombat is a boss. He is not afraid of any snakes. In fact, he drinks their venoms. So, veWom holders boost their (boosted) emissions. This contract rewards users in function of their amount of lp staked (base pool) factor (boosted pool) Factor and sumOfFactors are updated by contract VeWom.sol after any veWom minting/burning (veERC20Upgradeable hook). Note that it's ownable and the owner wields tremendous power. The ownership will be transferred to a governance smart contract once Wombat is sufficiently distributed and the community can show to govern itself. Updates: - pack struct - move pendingWom into UserInfo - use MultiRewarderPerSec",
    "version": 1
  },
  "userdoc": {
    "kind": "user",
    "methods": {
      "add(uint96,address,address)": {
        "notice": "Add a new lp to the pool. Can only be called by the owner."
      },
      "deposit(uint256,uint256)": {
        "notice": "Deposit LP tokens to MasterChef for WOM allocation."
      },
      "depositFor(uint256,uint256,address)": {
        "notice": "Deposit LP tokens to MasterChef for WOM allocation on behalf of user"
      },
      "emergencyWithdraw(uint256)": {
        "notice": "Withdraw without caring about rewards. EMERGENCY ONLY."
      },
      "emergencyWomWithdraw()": {
        "notice": "In case we need to manually migrate WOM funds from MasterChef Sends all remaining wom from the contract to the owner"
      },
      "massUpdatePools()": {
        "notice": "Update reward variables for all pools."
      },
      "migrate(uint256[])": {
        "notice": "Helper function to migrate fund from multiple pools to the new MasterWombat.user must initiate transaction from masterchef"
      },
      "multiClaim(uint256[])": {
        "notice": "claims rewards for multiple pids"
      },
      "pendingTokens(uint256,address)": {
        "notice": "View function to see pending WOMs on frontend."
      },
      "poolLength()": {
        "notice": "returns pool length"
      },
      "rewarderBonusTokenInfo(uint256)": {
        "notice": "Get bonus token info from the rewarder contract for a given pool, if it is a double reward farm"
      },
      "set(uint256,uint96,address,bool)": {
        "notice": "Update the given pool's WOM allocation point. Can only be called by the owner."
      },
      "setVeWom(address)": {
        "notice": "updates veWom address"
      },
      "updateEmissionPartition(uint16)": {
        "notice": "updates emission partition"
      },
      "updateEmissionRate(uint104)": {
        "notice": "updates emission rate"
      },
      "updateFactor(address,uint256)": {
        "notice": "updates factor after any veWom token operation (minting/burning)"
      },
      "updatePool(uint256)": {
        "notice": "Update reward variables of the given pool to be up-to-date."
      },
      "withdraw(uint256,uint256)": {
        "notice": "Withdraw LP tokens from MasterWombat.Automatically harvest pending rewards and sends to user"
      }
    },
    "version": 1
  },
  "storageLayout": {
    "storage": [
      {
        "astId": 130,
        "contract": "contracts/wombat-governance/MasterWombatV2.sol:MasterWombatV2",
        "label": "_initialized",
        "offset": 0,
        "slot": "0",
        "type": "t_bool"
      },
      {
        "astId": 133,
        "contract": "contracts/wombat-governance/MasterWombatV2.sol:MasterWombatV2",
        "label": "_initializing",
        "offset": 1,
        "slot": "0",
        "type": "t_bool"
      },
      {
        "astId": 651,
        "contract": "contracts/wombat-governance/MasterWombatV2.sol:MasterWombatV2",
        "label": "__gap",
        "offset": 0,
        "slot": "1",
        "type": "t_array(t_uint256)50_storage"
      },
      {
        "astId": 10,
        "contract": "contracts/wombat-governance/MasterWombatV2.sol:MasterWombatV2",
        "label": "_owner",
        "offset": 0,
        "slot": "51",
        "type": "t_address"
      },
      {
        "astId": 122,
        "contract": "contracts/wombat-governance/MasterWombatV2.sol:MasterWombatV2",
        "label": "__gap",
        "offset": 0,
        "slot": "52",
        "type": "t_array(t_uint256)49_storage"
      },
      {
        "astId": 322,
        "contract": "contracts/wombat-governance/MasterWombatV2.sol:MasterWombatV2",
        "label": "_status",
        "offset": 0,
        "slot": "101",
        "type": "t_uint256"
      },
      {
        "astId": 366,
        "contract": "contracts/wombat-governance/MasterWombatV2.sol:MasterWombatV2",
        "label": "__gap",
        "offset": 0,
        "slot": "102",
        "type": "t_array(t_uint256)49_storage"
      },
      {
        "astId": 218,
        "contract": "contracts/wombat-governance/MasterWombatV2.sol:MasterWombatV2",
        "label": "_paused",
        "offset": 0,
        "slot": "151",
        "type": "t_bool"
      },
      {
        "astId": 307,
        "contract": "contracts/wombat-governance/MasterWombatV2.sol:MasterWombatV2",
        "label": "__gap",
        "offset": 0,
        "slot": "152",
        "type": "t_array(t_uint256)49_storage"
      },
      {
        "astId": 13520,
        "contract": "contracts/wombat-governance/MasterWombatV2.sol:MasterWombatV2",
        "label": "wom",
        "offset": 0,
        "slot": "201",
        "type": "t_contract(IERC20)1420"
      },
      {
        "astId": 13523,
        "contract": "contracts/wombat-governance/MasterWombatV2.sol:MasterWombatV2",
        "label": "veWom",
        "offset": 0,
        "slot": "202",
        "type": "t_contract(IVeWom)17505"
      },
      {
        "astId": 13526,
        "contract": "contracts/wombat-governance/MasterWombatV2.sol:MasterWombatV2",
        "label": "newMasterWombat",
        "offset": 0,
        "slot": "203",
        "type": "t_contract(IMasterWombatV2)17384"
      },
      {
        "astId": 13528,
        "contract": "contracts/wombat-governance/MasterWombatV2.sol:MasterWombatV2",
        "label": "womPerSec",
        "offset": 0,
        "slot": "204",
        "type": "t_uint104"
      },
      {
        "astId": 13530,
        "contract": "contracts/wombat-governance/MasterWombatV2.sol:MasterWombatV2",
        "label": "basePartition",
        "offset": 13,
        "slot": "204",
        "type": "t_uint16"
      },
      {
        "astId": 13532,
        "contract": "contracts/wombat-governance/MasterWombatV2.sol:MasterWombatV2",
        "label": "totalAllocPoint",
        "offset": 15,
        "slot": "204",
        "type": "t_uint96"
      },
      {
        "astId": 13534,
        "contract": "contracts/wombat-governance/MasterWombatV2.sol:MasterWombatV2",
        "label": "startTimestamp",
        "offset": 27,
        "slot": "204",
        "type": "t_uint40"
      },
      {
        "astId": 13538,
        "contract": "contracts/wombat-governance/MasterWombatV2.sol:MasterWombatV2",
        "label": "poolInfo",
        "offset": 0,
        "slot": "205",
        "type": "t_array(t_struct(PoolInfo)13517_storage)dyn_storage"
      },
      {
        "astId": 13541,
        "contract": "contracts/wombat-governance/MasterWombatV2.sol:MasterWombatV2",
        "label": "lpTokens",
        "offset": 0,
        "slot": "206",
        "type": "t_struct(AddressSet)3408_storage"
      },
      {
        "astId": 13548,
        "contract": "contracts/wombat-governance/MasterWombatV2.sol:MasterWombatV2",
        "label": "userInfo",
        "offset": 0,
        "slot": "208",
        "type": "t_mapping(t_uint256,t_mapping(t_address,t_struct(UserInfo)13500_storage))"
      },
      {
        "astId": 13552,
        "contract": "contracts/wombat-governance/MasterWombatV2.sol:MasterWombatV2",
        "label": "assetPid",
        "offset": 0,
        "slot": "209",
        "type": "t_mapping(t_address,t_uint256)"
      }
    ],
    "types": {
      "t_address": {
        "encoding": "inplace",
        "label": "address",
        "numberOfBytes": "20"
      },
      "t_array(t_bytes32)dyn_storage": {
        "base": "t_bytes32",
        "encoding": "dynamic_array",
        "label": "bytes32[]",
        "numberOfBytes": "32"
      },
      "t_array(t_struct(PoolInfo)13517_storage)dyn_storage": {
        "base": "t_struct(PoolInfo)13517_storage",
        "encoding": "dynamic_array",
        "label": "struct MasterWombatV2.PoolInfo[]",
        "numberOfBytes": "32"
      },
      "t_array(t_uint256)49_storage": {
        "base": "t_uint256",
        "encoding": "inplace",
        "label": "uint256[49]",
        "numberOfBytes": "1568"
      },
      "t_array(t_uint256)50_storage": {
        "base": "t_uint256",
        "encoding": "inplace",
        "label": "uint256[50]",
        "numberOfBytes": "1600"
      },
      "t_bool": {
        "encoding": "inplace",
        "label": "bool",
        "numberOfBytes": "1"
      },
      "t_bytes32": {
        "encoding": "inplace",
        "label": "bytes32",
        "numberOfBytes": "32"
      },
      "t_contract(IERC20)1420": {
        "encoding": "inplace",
        "label": "contract IERC20",
        "numberOfBytes": "20"
      },
      "t_contract(IMasterWombatV2)17384": {
        "encoding": "inplace",
        "label": "contract IMasterWombatV2",
        "numberOfBytes": "20"
      },
      "t_contract(IMultiRewarder)17418": {
        "encoding": "inplace",
        "label": "contract IMultiRewarder",
        "numberOfBytes": "20"
      },
      "t_contract(IVeWom)17505": {
        "encoding": "inplace",
        "label": "contract IVeWom",
        "numberOfBytes": "20"
      },
      "t_mapping(t_address,t_struct(UserInfo)13500_storage)": {
        "encoding": "mapping",
        "key": "t_address",
        "label": "mapping(address => struct MasterWombatV2.UserInfo)",
        "numberOfBytes": "32",
        "value": "t_struct(UserInfo)13500_storage"
      },
      "t_mapping(t_address,t_uint256)": {
        "encoding": "mapping",
        "key": "t_address",
        "label": "mapping(address => uint256)",
        "numberOfBytes": "32",
        "value": "t_uint256"
      },
      "t_mapping(t_bytes32,t_uint256)": {
        "encoding": "mapping",
        "key": "t_bytes32",
        "label": "mapping(bytes32 => uint256)",
        "numberOfBytes": "32",
        "value": "t_uint256"
      },
      "t_mapping(t_uint256,t_mapping(t_address,t_struct(UserInfo)13500_storage))": {
        "encoding": "mapping",
        "key": "t_uint256",
        "label": "mapping(uint256 => mapping(address => struct MasterWombatV2.UserInfo))",
        "numberOfBytes": "32",
        "value": "t_mapping(t_address,t_struct(UserInfo)13500_storage)"
      },
      "t_struct(AddressSet)3408_storage": {
        "encoding": "inplace",
        "label": "struct EnumerableSet.AddressSet",
        "members": [
          {
            "astId": 3407,
            "contract": "contracts/wombat-governance/MasterWombatV2.sol:MasterWombatV2",
            "label": "_inner",
            "offset": 0,
            "slot": "0",
            "type": "t_struct(Set)3137_storage"
          }
        ],
        "numberOfBytes": "64"
      },
      "t_struct(PoolInfo)13517_storage": {
        "encoding": "inplace",
        "label": "struct MasterWombatV2.PoolInfo",
        "members": [
          {
            "astId": 13503,
            "contract": "contracts/wombat-governance/MasterWombatV2.sol:MasterWombatV2",
            "label": "lpToken",
            "offset": 0,
            "slot": "0",
            "type": "t_contract(IERC20)1420"
          },
          {
            "astId": 13505,
            "contract": "contracts/wombat-governance/MasterWombatV2.sol:MasterWombatV2",
            "label": "allocPoint",
            "offset": 20,
            "slot": "0",
            "type": "t_uint96"
          },
          {
            "astId": 13508,
            "contract": "contracts/wombat-governance/MasterWombatV2.sol:MasterWombatV2",
            "label": "rewarder",
            "offset": 0,
            "slot": "1",
            "type": "t_contract(IMultiRewarder)17418"
          },
          {
            "astId": 13510,
            "contract": "contracts/wombat-governance/MasterWombatV2.sol:MasterWombatV2",
            "label": "sumOfFactors",
            "offset": 0,
            "slot": "2",
            "type": "t_uint256"
          },
          {
            "astId": 13512,
            "contract": "contracts/wombat-governance/MasterWombatV2.sol:MasterWombatV2",
            "label": "accWomPerShare",
            "offset": 0,
            "slot": "3",
            "type": "t_uint104"
          },
          {
            "astId": 13514,
            "contract": "contracts/wombat-governance/MasterWombatV2.sol:MasterWombatV2",
            "label": "accWomPerFactorShare",
            "offset": 13,
            "slot": "3",
            "type": "t_uint104"
          },
          {
            "astId": 13516,
            "contract": "contracts/wombat-governance/MasterWombatV2.sol:MasterWombatV2",
            "label": "lastRewardTimestamp",
            "offset": 26,
            "slot": "3",
            "type": "t_uint40"
          }
        ],
        "numberOfBytes": "128"
      },
      "t_struct(Set)3137_storage": {
        "encoding": "inplace",
        "label": "struct EnumerableSet.Set",
        "members": [
          {
            "astId": 3132,
            "contract": "contracts/wombat-governance/MasterWombatV2.sol:MasterWombatV2",
            "label": "_values",
            "offset": 0,
            "slot": "0",
            "type": "t_array(t_bytes32)dyn_storage"
          },
          {
            "astId": 3136,
            "contract": "contracts/wombat-governance/MasterWombatV2.sol:MasterWombatV2",
            "label": "_indexes",
            "offset": 0,
            "slot": "1",
            "type": "t_mapping(t_bytes32,t_uint256)"
          }
        ],
        "numberOfBytes": "64"
      },
      "t_struct(UserInfo)13500_storage": {
        "encoding": "inplace",
        "label": "struct MasterWombatV2.UserInfo",
        "members": [
          {
            "astId": 13493,
            "contract": "contracts/wombat-governance/MasterWombatV2.sol:MasterWombatV2",
            "label": "amount",
            "offset": 0,
            "slot": "0",
            "type": "t_uint128"
          },
          {
            "astId": 13495,
            "contract": "contracts/wombat-governance/MasterWombatV2.sol:MasterWombatV2",
            "label": "factor",
            "offset": 16,
            "slot": "0",
            "type": "t_uint128"
          },
          {
            "astId": 13497,
            "contract": "contracts/wombat-governance/MasterWombatV2.sol:MasterWombatV2",
            "label": "rewardDebt",
            "offset": 0,
            "slot": "1",
            "type": "t_uint128"
          },
          {
            "astId": 13499,
            "contract": "contracts/wombat-governance/MasterWombatV2.sol:MasterWombatV2",
            "label": "pendingWom",
            "offset": 16,
            "slot": "1",
            "type": "t_uint128"
          }
        ],
        "numberOfBytes": "64"
      },
      "t_uint104": {
        "encoding": "inplace",
        "label": "uint104",
        "numberOfBytes": "13"
      },
      "t_uint128": {
        "encoding": "inplace",
        "label": "uint128",
        "numberOfBytes": "16"
      },
      "t_uint16": {
        "encoding": "inplace",
        "label": "uint16",
        "numberOfBytes": "2"
      },
      "t_uint256": {
        "encoding": "inplace",
        "label": "uint256",
        "numberOfBytes": "32"
      },
      "t_uint40": {
        "encoding": "inplace",
        "label": "uint40",
        "numberOfBytes": "5"
      },
      "t_uint96": {
        "encoding": "inplace",
        "label": "uint96",
        "numberOfBytes": "12"
      }
    }
  }
}