{
  "address": "0xC9f3f7a6631045A20F5C232fBb6ea3D30A064391",
  "abi": [
    {
      "anonymous": false,
      "inputs": [
        {
          "indexed": true,
          "internalType": "uint256",
          "name": "pid",
          "type": "uint256"
        },
        {
          "indexed": true,
          "internalType": "contract IERC20",
          "name": "lpToken",
          "type": "address"
        },
        {
          "indexed": false,
          "internalType": "contract IMultiRewarder",
          "name": "rewarder",
          "type": "address"
        }
      ],
      "name": "Add",
      "type": "event"
    },
    {
      "anonymous": false,
      "inputs": [
        {
          "indexed": true,
          "internalType": "address",
          "name": "user",
          "type": "address"
        },
        {
          "indexed": true,
          "internalType": "uint256",
          "name": "pid",
          "type": "uint256"
        },
        {
          "indexed": false,
          "internalType": "uint256",
          "name": "amount",
          "type": "uint256"
        }
      ],
      "name": "Deposit",
      "type": "event"
    },
    {
      "anonymous": false,
      "inputs": [
        {
          "indexed": true,
          "internalType": "address",
          "name": "user",
          "type": "address"
        },
        {
          "indexed": true,
          "internalType": "uint256",
          "name": "pid",
          "type": "uint256"
        },
        {
          "indexed": false,
          "internalType": "uint256",
          "name": "amount",
          "type": "uint256"
        }
      ],
      "name": "DepositFor",
      "type": "event"
    },
    {
      "anonymous": false,
      "inputs": [
        {
          "indexed": true,
          "internalType": "address",
          "name": "user",
          "type": "address"
        },
        {
          "indexed": true,
          "internalType": "uint256",
          "name": "pid",
          "type": "uint256"
        },
        {
          "indexed": false,
          "internalType": "uint256",
          "name": "amount",
          "type": "uint256"
        }
      ],
      "name": "EmergencyWithdraw",
      "type": "event"
    },
    {
      "anonymous": false,
      "inputs": [
        {
          "indexed": false,
          "internalType": "address",
          "name": "owner",
          "type": "address"
        },
        {
          "indexed": false,
          "internalType": "uint256",
          "name": "balance",
          "type": "uint256"
        }
      ],
      "name": "EmergencyWomWithdraw",
      "type": "event"
    },
    {
      "anonymous": false,
      "inputs": [
        {
          "indexed": true,
          "internalType": "address",
          "name": "user",
          "type": "address"
        },
        {
          "indexed": true,
          "internalType": "uint256",
          "name": "pid",
          "type": "uint256"
        },
        {
          "indexed": false,
          "internalType": "uint256",
          "name": "amount",
          "type": "uint256"
        }
      ],
      "name": "Harvest",
      "type": "event"
    },
    {
      "anonymous": false,
      "inputs": [
        {
          "indexed": true,
          "internalType": "address",
          "name": "previousOwner",
          "type": "address"
        },
        {
          "indexed": true,
          "internalType": "address",
          "name": "newOwner",
          "type": "address"
        }
      ],
      "name": "OwnershipTransferred",
      "type": "event"
    },
    {
      "anonymous": false,
      "inputs": [
        {
          "indexed": false,
          "internalType": "address",
          "name": "account",
          "type": "address"
        }
      ],
      "name": "Paused",
      "type": "event"
    },
    {
      "anonymous": false,
      "inputs": [
        {
          "indexed": true,
          "internalType": "uint256",
          "name": "pid",
          "type": "uint256"
        },
        {
          "indexed": false,
          "internalType": "contract IMultiRewarder",
          "name": "rewarder",
          "type": "address"
        }
      ],
      "name": "SetRewarder",
      "type": "event"
    },
    {
      "anonymous": false,
      "inputs": [
        {
          "indexed": false,
          "internalType": "address",
          "name": "account",
          "type": "address"
        }
      ],
      "name": "Unpaused",
      "type": "event"
    },
    {
      "anonymous": false,
      "inputs": [
        {
          "indexed": true,
          "internalType": "address",
          "name": "user",
          "type": "address"
        },
        {
          "indexed": false,
          "internalType": "uint256",
          "name": "basePartition",
          "type": "uint256"
        },
        {
          "indexed": false,
          "internalType": "uint256",
          "name": "boostedPartition",
          "type": "uint256"
        }
      ],
      "name": "UpdateEmissionPartition",
      "type": "event"
    },
    {
      "anonymous": false,
      "inputs": [
        {
          "indexed": true,
          "internalType": "address",
          "name": "user",
          "type": "address"
        },
        {
          "indexed": false,
          "internalType": "address",
          "name": "oldVeWOM",
          "type": "address"
        },
        {
          "indexed": false,
          "internalType": "address",
          "name": "newVeWOM",
          "type": "address"
        }
      ],
      "name": "UpdateVeWOM",
      "type": "event"
    },
    {
      "anonymous": false,
      "inputs": [
        {
          "indexed": true,
          "internalType": "address",
          "name": "user",
          "type": "address"
        },
        {
          "indexed": false,
          "internalType": "address",
          "name": "oldVoter",
          "type": "address"
        },
        {
          "indexed": false,
          "internalType": "address",
          "name": "newVoter",
          "type": "address"
        }
      ],
      "name": "UpdateVoter",
      "type": "event"
    },
    {
      "anonymous": false,
      "inputs": [
        {
          "indexed": true,
          "internalType": "address",
          "name": "user",
          "type": "address"
        },
        {
          "indexed": true,
          "internalType": "uint256",
          "name": "pid",
          "type": "uint256"
        },
        {
          "indexed": false,
          "internalType": "uint256",
          "name": "amount",
          "type": "uint256"
        }
      ],
      "name": "Withdraw",
      "type": "event"
    },
    {
      "inputs": [],
      "name": "ACC_TOKEN_PRECISION",
      "outputs": [
        {
          "internalType": "uint256",
          "name": "",
          "type": "uint256"
        }
      ],
      "stateMutability": "view",
      "type": "function"
    },
    {
      "inputs": [],
      "name": "REWARD_DURATION",
      "outputs": [
        {
          "internalType": "uint256",
          "name": "",
          "type": "uint256"
        }
      ],
      "stateMutability": "view",
      "type": "function"
    },
    {
      "inputs": [
        {
          "internalType": "contract IERC20",
          "name": "_lpToken",
          "type": "address"
        },
        {
          "internalType": "contract IMultiRewarder",
          "name": "_rewarder",
          "type": "address"
        }
      ],
      "name": "add",
      "outputs": [],
      "stateMutability": "nonpayable",
      "type": "function"
    },
    {
      "inputs": [],
      "name": "basePartition",
      "outputs": [
        {
          "internalType": "uint16",
          "name": "",
          "type": "uint16"
        }
      ],
      "stateMutability": "view",
      "type": "function"
    },
    {
      "inputs": [],
      "name": "boostedPartition",
      "outputs": [
        {
          "internalType": "uint256",
          "name": "",
          "type": "uint256"
        }
      ],
      "stateMutability": "view",
      "type": "function"
    },
    {
      "inputs": [
        {
          "internalType": "uint256",
          "name": "_pid",
          "type": "uint256"
        }
      ],
      "name": "calRewardPerUnit",
      "outputs": [
        {
          "internalType": "uint256",
          "name": "accWomPerShare",
          "type": "uint256"
        },
        {
          "internalType": "uint256",
          "name": "accWomPerFactorShare",
          "type": "uint256"
        }
      ],
      "stateMutability": "view",
      "type": "function"
    },
    {
      "inputs": [
        {
          "internalType": "uint256",
          "name": "_pid",
          "type": "uint256"
        },
        {
          "internalType": "uint256",
          "name": "_amount",
          "type": "uint256"
        }
      ],
      "name": "deposit",
      "outputs": [
        {
          "internalType": "uint256",
          "name": "reward",
          "type": "uint256"
        },
        {
          "internalType": "uint256[]",
          "name": "additionalRewards",
          "type": "uint256[]"
        }
      ],
      "stateMutability": "nonpayable",
      "type": "function"
    },
    {
      "inputs": [
        {
          "internalType": "uint256",
          "name": "_pid",
          "type": "uint256"
        },
        {
          "internalType": "uint256",
          "name": "_amount",
          "type": "uint256"
        },
        {
          "internalType": "address",
          "name": "_user",
          "type": "address"
        }
      ],
      "name": "depositFor",
      "outputs": [],
      "stateMutability": "nonpayable",
      "type": "function"
    },
    {
      "inputs": [
        {
          "internalType": "uint256",
          "name": "_pid",
          "type": "uint256"
        }
      ],
      "name": "emergencyWithdraw",
      "outputs": [],
      "stateMutability": "nonpayable",
      "type": "function"
    },
    {
      "inputs": [],
      "name": "emergencyWomWithdraw",
      "outputs": [],
      "stateMutability": "nonpayable",
      "type": "function"
    },
    {
      "inputs": [
        {
          "internalType": "address",
          "name": "asset",
          "type": "address"
        }
      ],
      "name": "getAssetPid",
      "outputs": [
        {
          "internalType": "uint256",
          "name": "",
          "type": "uint256"
        }
      ],
      "stateMutability": "view",
      "type": "function"
    },
    {
      "inputs": [
        {
          "internalType": "contract IERC20",
          "name": "_wom",
          "type": "address"
        },
        {
          "internalType": "contract IVeWom",
          "name": "_veWom",
          "type": "address"
        },
        {
          "internalType": "address",
          "name": "_voter",
          "type": "address"
        },
        {
          "internalType": "uint16",
          "name": "_basePartition",
          "type": "uint16"
        }
      ],
      "name": "initialize",
      "outputs": [],
      "stateMutability": "nonpayable",
      "type": "function"
    },
    {
      "inputs": [
        {
          "internalType": "uint256",
          "name": "_periodFinish",
          "type": "uint256"
        }
      ],
      "name": "lastTimeRewardApplicable",
      "outputs": [
        {
          "internalType": "uint256",
          "name": "",
          "type": "uint256"
        }
      ],
      "stateMutability": "view",
      "type": "function"
    },
    {
      "inputs": [],
      "name": "massUpdatePools",
      "outputs": [],
      "stateMutability": "nonpayable",
      "type": "function"
    },
    {
      "inputs": [
        {
          "internalType": "uint256[]",
          "name": "_pids",
          "type": "uint256[]"
        }
      ],
      "name": "migrate",
      "outputs": [],
      "stateMutability": "nonpayable",
      "type": "function"
    },
    {
      "inputs": [
        {
          "internalType": "uint256[]",
          "name": "_pids",
          "type": "uint256[]"
        }
      ],
      "name": "multiClaim",
      "outputs": [
        {
          "internalType": "uint256",
          "name": "reward",
          "type": "uint256"
        },
        {
          "internalType": "uint256[]",
          "name": "amounts",
          "type": "uint256[]"
        },
        {
          "internalType": "uint256[][]",
          "name": "additionalRewards",
          "type": "uint256[][]"
        }
      ],
      "stateMutability": "nonpayable",
      "type": "function"
    },
    {
      "inputs": [
        {
          "internalType": "address",
          "name": "_lpToken",
          "type": "address"
        },
        {
          "internalType": "uint256",
          "name": "_amount",
          "type": "uint256"
        }
      ],
      "name": "notifyRewardAmount",
      "outputs": [],
      "stateMutability": "nonpayable",
      "type": "function"
    },
    {
      "inputs": [],
      "name": "owner",
      "outputs": [
        {
          "internalType": "address",
          "name": "",
          "type": "address"
        }
      ],
      "stateMutability": "view",
      "type": "function"
    },
    {
      "inputs": [],
      "name": "pause",
      "outputs": [],
      "stateMutability": "nonpayable",
      "type": "function"
    },
    {
      "inputs": [],
      "name": "paused",
      "outputs": [
        {
          "internalType": "bool",
          "name": "",
          "type": "bool"
        }
      ],
      "stateMutability": "view",
      "type": "function"
    },
    {
      "inputs": [
        {
          "internalType": "uint256",
          "name": "_pid",
          "type": "uint256"
        },
        {
          "internalType": "address",
          "name": "_user",
          "type": "address"
        }
      ],
      "name": "pendingTokens",
      "outputs": [
        {
          "internalType": "uint256",
          "name": "pendingRewards",
          "type": "uint256"
        },
        {
          "internalType": "contract IERC20[]",
          "name": "bonusTokenAddresses",
          "type": "address[]"
        },
        {
          "internalType": "string[]",
          "name": "bonusTokenSymbols",
          "type": "string[]"
        },
        {
          "internalType": "uint256[]",
          "name": "pendingBonusRewards",
          "type": "uint256[]"
        }
      ],
      "stateMutability": "view",
      "type": "function"
    },
    {
      "inputs": [
        {
          "internalType": "uint256",
          "name": "_pid",
          "type": "uint256"
        }
      ],
      "name": "poolInfo",
      "outputs": [
        {
          "internalType": "contract IERC20",
          "name": "lpToken",
          "type": "address"
        },
        {
          "internalType": "uint96",
          "name": "allocPoint",
          "type": "uint96"
        },
        {
          "internalType": "contract IMultiRewarder",
          "name": "rewarder",
          "type": "address"
        },
        {
          "internalType": "uint256",
          "name": "sumOfFactors",
          "type": "uint256"
        },
        {
          "internalType": "uint104",
          "name": "accWomPerShare",
          "type": "uint104"
        },
        {
          "internalType": "uint104",
          "name": "accWomPerFactorShare",
          "type": "uint104"
        },
        {
          "internalType": "uint40",
          "name": "lastRewardTimestamp",
          "type": "uint40"
        }
      ],
      "stateMutability": "view",
      "type": "function"
    },
    {
      "inputs": [
        {
          "internalType": "uint256",
          "name": "",
          "type": "uint256"
        }
      ],
      "name": "poolInfoV3",
      "outputs": [
        {
          "internalType": "contract IERC20",
          "name": "lpToken",
          "type": "address"
        },
        {
          "internalType": "contract IMultiRewarder",
          "name": "rewarder",
          "type": "address"
        },
        {
          "internalType": "uint40",
          "name": "periodFinish",
          "type": "uint40"
        },
        {
          "internalType": "uint128",
          "name": "sumOfFactors",
          "type": "uint128"
        },
        {
          "internalType": "uint128",
          "name": "rewardRate",
          "type": "uint128"
        },
        {
          "internalType": "uint104",
          "name": "accWomPerShare",
          "type": "uint104"
        },
        {
          "internalType": "uint104",
          "name": "accWomPerFactorShare",
          "type": "uint104"
        },
        {
          "internalType": "uint40",
          "name": "lastRewardTimestamp",
          "type": "uint40"
        }
      ],
      "stateMutability": "view",
      "type": "function"
    },
    {
      "inputs": [],
      "name": "poolLength",
      "outputs": [
        {
          "internalType": "uint256",
          "name": "",
          "type": "uint256"
        }
      ],
      "stateMutability": "view",
      "type": "function"
    },
    {
      "inputs": [],
      "name": "renounceOwnership",
      "outputs": [],
      "stateMutability": "nonpayable",
      "type": "function"
    },
    {
      "inputs": [
        {
          "internalType": "uint256",
          "name": "_pid",
          "type": "uint256"
        }
      ],
      "name": "rewarderBonusTokenInfo",
      "outputs": [
        {
          "internalType": "contract IERC20[]",
          "name": "bonusTokenAddresses",
          "type": "address[]"
        },
        {
          "internalType": "string[]",
          "name": "bonusTokenSymbols",
          "type": "string[]"
        }
      ],
      "stateMutability": "view",
      "type": "function"
    },
    {
      "inputs": [
        {
          "internalType": "contract IMasterWombatV3",
          "name": "_newMasterWombat",
          "type": "address"
        }
      ],
      "name": "setNewMasterWombat",
      "outputs": [],
      "stateMutability": "nonpayable",
      "type": "function"
    },
    {
      "inputs": [
        {
          "internalType": "uint256",
          "name": "_pid",
          "type": "uint256"
        },
        {
          "internalType": "contract IMultiRewarder",
          "name": "_rewarder",
          "type": "address"
        }
      ],
      "name": "setRewarder",
      "outputs": [],
      "stateMutability": "nonpayable",
      "type": "function"
    },
    {
      "inputs": [
        {
          "internalType": "contract IVeWom",
          "name": "_newVeWom",
          "type": "address"
        }
      ],
      "name": "setVeWom",
      "outputs": [],
      "stateMutability": "nonpayable",
      "type": "function"
    },
    {
      "inputs": [
        {
          "internalType": "address",
          "name": "_newVoter",
          "type": "address"
        }
      ],
      "name": "setVoter",
      "outputs": [],
      "stateMutability": "nonpayable",
      "type": "function"
    },
    {
      "inputs": [
        {
          "internalType": "address",
          "name": "newOwner",
          "type": "address"
        }
      ],
      "name": "transferOwnership",
      "outputs": [],
      "stateMutability": "nonpayable",
      "type": "function"
    },
    {
      "inputs": [],
      "name": "unpause",
      "outputs": [],
      "stateMutability": "nonpayable",
      "type": "function"
    },
    {
      "inputs": [
        {
          "internalType": "uint16",
          "name": "_basePartition",
          "type": "uint16"
        }
      ],
      "name": "updateEmissionPartition",
      "outputs": [],
      "stateMutability": "nonpayable",
      "type": "function"
    },
    {
      "inputs": [
        {
          "internalType": "address",
          "name": "_user",
          "type": "address"
        },
        {
          "internalType": "uint256",
          "name": "_newVeWomBalance",
          "type": "uint256"
        }
      ],
      "name": "updateFactor",
      "outputs": [],
      "stateMutability": "nonpayable",
      "type": "function"
    },
    {
      "inputs": [
        {
          "internalType": "uint256",
          "name": "_pid",
          "type": "uint256"
        }
      ],
      "name": "updatePool",
      "outputs": [],
      "stateMutability": "nonpayable",
      "type": "function"
    },
    {
      "inputs": [
        {
          "internalType": "uint256",
          "name": "",
          "type": "uint256"
        },
        {
          "internalType": "address",
          "name": "",
          "type": "address"
        }
      ],
      "name": "userInfo",
      "outputs": [
        {
          "internalType": "uint128",
          "name": "amount",
          "type": "uint128"
        },
        {
          "internalType": "uint128",
          "name": "factor",
          "type": "uint128"
        },
        {
          "internalType": "uint128",
          "name": "rewardDebt",
          "type": "uint128"
        },
        {
          "internalType": "uint128",
          "name": "pendingWom",
          "type": "uint128"
        }
      ],
      "stateMutability": "view",
      "type": "function"
    },
    {
      "inputs": [],
      "name": "veWom",
      "outputs": [
        {
          "internalType": "contract IVeWom",
          "name": "",
          "type": "address"
        }
      ],
      "stateMutability": "view",
      "type": "function"
    },
    {
      "inputs": [],
      "name": "voter",
      "outputs": [
        {
          "internalType": "address",
          "name": "",
          "type": "address"
        }
      ],
      "stateMutability": "view",
      "type": "function"
    },
    {
      "inputs": [
        {
          "internalType": "uint256",
          "name": "_pid",
          "type": "uint256"
        },
        {
          "internalType": "uint256",
          "name": "_amount",
          "type": "uint256"
        }
      ],
      "name": "withdraw",
      "outputs": [
        {
          "internalType": "uint256",
          "name": "reward",
          "type": "uint256"
        },
        {
          "internalType": "uint256[]",
          "name": "additionalRewards",
          "type": "uint256[]"
        }
      ],
      "stateMutability": "nonpayable",
      "type": "function"
    },
    {
      "inputs": [],
      "name": "wom",
      "outputs": [
        {
          "internalType": "contract IERC20",
          "name": "",
          "type": "address"
        }
      ],
      "stateMutability": "view",
      "type": "function"
    }
  ],
  "transactionHash": "0x76f6fd6055944cfabc70c9b12b66749e6918d62373963d11b7af5a86c99da60d",
  "args": [],
  "solcInputHash": "b2fc5f6dcf7fe7b36514f5acf6388e79",
  "bytecode": "0x6080806040523461001657614067908161001c8239f35b600080fdfe60a0604060805280604052600436101561001857600080fd5b60003560e01c908163081e3eda146128f7575080631526fe27146128155780631983dbf5146127425780632e1127571461245d5780633e582ae6146124355780633f4ba83a1461236b57806343de32071461224f578063441a3e70146120b057806346c96aac146120885780634bc2a65714611fe35780634ed73d2814611ed45780634f00a93e14611c1657806351eb05a614611bfa57806352c28fab1461177d5780635312ea8e146115725780635ade228a146115535780635c975abb1461152f578063630b5ba114611516578063715018a6146114995780638456cb591461140d5780638da5cb5b146113e557806390210d7e1461129d57806393f1a40b146112235780639b128de614611176578063abfef11114611150578063af929a80146110da578063b163e79314610fa7578063b66503cf14610c6c578063b8be44e714610c3e578063bc70fdbc14610bf8578063be159bea14610bc8578063c5a6222e14610ba0578063d1e2ac8814610b3a578063d93bf4fe146107c3578063e2bbb1581461066a578063eea0160414610649578063eeca156214610615578063f13e550714610438578063f2fde38b1461038b5763ffcd4263146101dc57600080fd5b3461038657608051600319360112610386576004356101f9612928565b6060918261029a849261020b816129eb565b5094600161021883613d1e565b8460009692965260d0602052608051956102928464e8d4a510006102838a6000209a6001600160a01b03809a169b8c6000526020526000209561027d8754916102746fffffffffffffffffffffffffffffffff98898516613014565b9260801c613014565b90613027565b04930154928360801c90613027565b911690612d1c565b9601541690816102ee575b505050906102dc6102ea926102cd608051519687968752608060208801526080870190612a54565b90858203608051870152612ac6565b90838203606085015261296a565b0390f35b909350610300919550600092506139d3565b919094602460805151809581937fc031a66f00000000000000000000000000000000000000000000000000000000835260048301525afa918215610379576102ea926102dc91600091610356575b5092386102a5565b61037391503d806000833e61036b8183612cdb565b810190613187565b3861034e565b608051513d6000823e3d90fd5b600080fd5b34610386576020600319360112610386576103a4612912565b6001600160a01b036103bb81603354163314612b55565b8116156103cd576103cb90612ba0565b005b60846080515162461bcd60e51b815260206004820152602660248201527f4f776e61626c653a206e6577206f776e657220697320746865207a65726f206160448201527f64647265737300000000000000000000000000000000000000000000000000006064820152fd5b34610386576000600319360112610386576001600160a01b0361046081603354163314612b55565b8060c9541690608051517f70a0823100000000000000000000000000000000000000000000000000000000918282523060048301526020938483602481845afa80156103795785936000916105e3575b50608051517fa9059cbb00000000000000000000000000000000000000000000000000000000815233600482015260248101919091529290839060449082906000905af19182156103795784926105b6575b5060c95416916024608051518094819382523060048301525afa91821561037957600092610566575b60805151338152602081018490527f2b58f1b72aa1f2865f8da73af0eaff3a2b5b670c59fed83005919fe6c23cf35c9080604081015b0390a1005b90809250813d83116105af575b61057d8183612cdb565b8101031261038657516105617f2b58f1b72aa1f2865f8da73af0eaff3a2b5b670c59fed83005919fe6c23cf35c61052b565b503d610573565b6105d590833d85116105dc575b6105cd8183612cdb565b81019061311d565b5084610502565b503d6105c3565b84819592503d831161060e575b6105fa8183612cdb565b8101031261038657915184929060006104b0565b503d6105f0565b346103865760206003193601126103865760043580421060001461064157506020425b60805151908152f35b602090610638565b346103865760006003193601126103865760206080515164e8d4a510008152f35b346103865761067836612954565b6106876002606554141561306c565b600260655561069b60ff6097541615612c73565b6106a4826129eb565b5090826000526001600160a01b0360209360d085526106f86106f1846fffffffffffffffffffffffffffffffff60805180600020336000528a526000206106ea86612e2d565b5416613027565b3383613597565b9454608051517f23b872dd00000000000000000000000000000000000000000000000000000000815233600482015230602482015260448101869052919591949193879186916064918391600091165af1938415610379576102ea946107a6575b50608051519081527f90890809c654f11d6e72a28fa60149770a0d11ec6c92319d6ceb2bb0a4ea1a15863392a360016065556080515193849384526080519084015260805183019061296a565b6107bc90873d89116105dc576105cd8183612cdb565b5086610759565b34610386576107d13661299e565b6002916107e283606554141561306c565b8260655560cb6001600160a01b0381541615610af55761080b6108063685856130cf565b613201565b50505060005b83811061081f576001606555005b8060051b83013560005260d06020526080518060002033600052602052600020906fffffffffffffffffffffffffffffffff8254168061086a575b506108659150612df6565b610811565b6108f6602061087e8460051b8801356129eb565b50926001600160a01b038454166001600160a01b038854166000608051518096819582947f095ea7b3000000000000000000000000000000000000000000000000000000008452600484019092916fffffffffffffffffffffffffffffffff6020916001600160a01b03604085019616845216910152565b03925af1801561037957610ad6575b506001600160a01b038454166001600160a01b038254169360805151947faf929a8000000000000000000000000000000000000000000000000000000000865260048601526024946020818781865afa90811561037957600091610aa4575b506fffffffffffffffffffffffffffffffff825416833b15610386576064600092836080515196879485937f90210d7e00000000000000000000000000000000000000000000000000000000855260048501528b8401523360448401525af1918215610379578992610a50575b5061086594505460801c9101907fffffffffffffffffffffffffffffffff000000000000000000000000000000006fffffffffffffffffffffffffffffffff610a1e845493828516613135565b1691161790558060051b84013560005260d060205260006001608051808320338452602052822082815501558661085a565b915091929367ffffffffffffffff8211610a775750610865939291889160805152896109d1565b7f4e487b710000000000000000000000000000000000000000000000000000000060005260416004526000fd5b90506020813d602011610ace575b81610abf60209383612cdb565b8101031261038657518a610964565b3d9150610ab2565b610aee9060203d6020116105dc576105cd8183612cdb565b5087610905565b60646080515162461bcd60e51b815260206004820152600960248201527f746f2077686572653f00000000000000000000000000000000000000000000006044820152fd5b34610386576020600319360112610386576004356001600160a01b0380821680920361038657610b6f90603354163314612b55565b7fffffffffffffffffffffffff000000000000000000000000000000000000000060cb54161760cb55600060805151f35b346103865760006003193601126103865760206001600160a01b0360c9541660805151908152f35b3461038657600060031936011261038657602061ffff610bee8160cc5460a01c166139c1565b1660805151908152f35b3461038657602060031936011261038657610c146004356139d3565b6102ea60805191610c3083519485948552608051850190612a54565b908382036020850152612ac6565b3461038657602060031936011261038657610c5a600435613d1e565b60805151918252602082015260805190f35b34610386576080518060031936011261038657610c87612912565b6024918235916001600160a01b03918260cc54163303610f3f57508215610efa571660005260d16020526080516000205460018110610e2257600019610ccd91016129eb565b50600381019064ffffffffff9182815460d01c1693600183019484865460a01c169081811015600014610e50575050610da6926002610d1362093a80610d569404613ef4565b9101906fffffffffffffffffffffffffffffffff7fffffffffffffffffffffffffffffffff0000000000000000000000000000000083549260801b169116179055565b80547fff0000000000ffffffffffffffffffffffffffffffffffffffffffffffffffff1642841660d01b7effffffffff000000000000000000000000000000000000000000000000000016179055565b7ffffffffffffffffffffffffffffffffffffffffffffffffffffffffffff6c57f4211610e22576103cb925062093a804201167fffffffffffffff0000000000ffffffffffffffffffffffffffffffffffffffff78ffffffffff000000000000000000000000000000000000000083549260a01b169116179055565b827f4e487b710000000000000000000000000000000000000000000000000000000060005260116004526000fd5b9091818310610ecc5762093a80610e81610e879261027d610ec7968a6002610da69b0197885460801c920316613014565b04613ef4565b6fffffffffffffffffffffffffffffffff7fffffffffffffffffffffffffffffffff0000000000000000000000000000000083549260801b169116179055565b610d56565b877f4e487b710000000000000000000000000000000000000000000000000000000060005260116004526000fd5b606484601f608051519162461bcd60e51b8352602060048401528201527f6e6f74696679526577617264416d6f756e743a207a65726f20616d6f756e74006044820152fd5b5162461bcd60e51b8152602060048201526021818601527f4d6173746572576f6d6261743a2063616c6c6572206973206e6f7420566f746560448201527f72000000000000000000000000000000000000000000000000000000000000006064820152608490fd5b346103865760206003193601126103865760043560cf54811015610386576101009060cf60005260021b6001600160a01b039081817facb8d954e2cfef495862221e91bd7523613cf8808827cb33edfe4904cc51bf29015416917facb8d954e2cfef495862221e91bd7523613cf8808827cb33edfe4904cc51bf2a820154917facb8d954e2cfef495862221e91bd7523613cf8808827cb33edfe4904cc51bf2c7facb8d954e2cfef495862221e91bd7523613cf8808827cb33edfe4904cc51bf2b82015491015491608051519485528316602085015264ffffffffff809360a01c166080518501526fffffffffffffffffffffffffffffffff8116606085015260801c60808401526cffffffffffffffffffffffffff80821660a08501528160681c1660c084015260d01c1660e0820152f35b34610386576020600319360112610386576001600160a01b036110fb612912565b1660005260d1602052608051806000205460018110611121576000196020925191018152f35b7f4e487b7100000000000000000000000000000000000000000000000000000000600052601160045260246000fd5b3461038657600060031936011261038657602061ffff60cc5460a01c1660805151908152f35b346103865760206003193601126103865761118f612912565b6001600160a01b0380916111a882603354163314612b55565b1680156103865760ca80547fffffffffffffffffffffffff0000000000000000000000000000000000000000811683179091556080515192166001600160a01b03908116835216602082015233907fa0956d8e03557278fdb89913cec4e0f21da09587edf25b3eecc0079cdb757ef59080604081015b0390a2005b34610386576080518060031936011261038657608090611241612928565b60043560005260d06020526001600160a01b038260002091166000526020528060002090600182549201549051916fffffffffffffffffffffffffffffffff908181168452841c602084015281168351830152821c6060820152f35b34610386576060600319360112610386576004356024356112bc61293e565b906112cc6002606554141561306c565b60026065556112e060ff6097541615612c73565b6112e9836129eb565b508360005260209060d082526080519061133c8260002095611335866fffffffffffffffffffffffffffffffff6001600160a01b03968785169a8b60005289526000206106ea8c612e2d565b9088613597565b505054608051517f23b872dd000000000000000000000000000000000000000000000000000000008152336004820152306024820152604481018590529391839185916064918391600091165af1928315610379577f16f3fbfd4bcc50a5cecb2e53e398a1ad77d89f63288ef540d862b264ed57eb1f936113c8575b5060805151908152a36001606555005b6113de90833d85116105dc576105cd8183612cdb565b50856113b8565b346103865760006003193601126103865760206001600160a01b036033541660805151908152f35b34610386576000600319360112610386576114346001600160a01b03603354163314612b55565b60017fffffffffffffffffffffffffffffffffffffffffffffffffffffffffffffff0060975461146760ff821615612c73565b16176097557f62e78cea01bee320cd4e420270b5ea74000d11b0c9f74754ebdbfc544b05a258602060805151338152a1005b346103865760006003193601126103865760006033547fffffffffffffffffffffffff00000000000000000000000000000000000000006001600160a01b038216916114e6338414612b55565b166033558160805151917f8be0079c531659141344cd1fd0a4f28419497f9722a3daafe3b4186f6b6457e08284a3f35b34610386576000600319360112610386576103cb612e05565b3461038657600060031936011261038657602060ff60975416608051519015158152f35b346103865760006003193601126103865760206080515162093a808152f35b346103865760208060031936011261038657600435906115976002606554141561306c565b60026065556115a5826129eb565b508260005260d082526080519081600020336000528352816000206001600160a01b03600085611645838654166fffffffffffffffffffffffffffffffff978887541690519485809481937fa9059cbb00000000000000000000000000000000000000000000000000000000835233600484019092916fffffffffffffffffffffffffffffffff6020916001600160a01b03604085019616845216910152565b03925af1801561037957611760575b506001611660876129eb565b50015416806116eb575b50600260019201805493611684835460801c828716613135565b167fffffffffffffffffffffffffffffffff0000000000000000000000000000000080951617905560008155019081541690557fbb757047c2b5f3974fe26b7c10f732e7bce710b0952a71082702781e62ae05956080515191600083523392a36001606555005b9160008093604460805151809681937fc37232880000000000000000000000000000000000000000000000000000000083523360048401528160248401525af190811561037957600193600292611745575b50925061166a565b611759903d806000833e61036b8183612cdb565b508761173d565b61177690863d88116105dc576105cd8183612cdb565b5086611654565b346103865760805160031936011261038657611797612912565b61179f612928565b906001600160a01b0380916117b982603354163314612b55565b1691823b15611b8f57811690813b15801590611b87575b15611b1c578260005260ce6020526080518060002054611ad957506080515164ffffffffff42811661180183612cbe565b85835260208301858152608051840182815260608501946000865260808101956000875260a08201926000845260c08301976000895260e0840196875260cf5468010000000000000000811015611aaa57806001611862920160cf556129eb565b939093611a7b576119026119d0978a611947958e611a209f60039a5116907fffffffffffffffffffffffff000000000000000000000000000000000000000091828b5416178a5560018a019451169084541617835551167fffffffffffffff0000000000ffffffffffffffffffffffffffffffffffffffff78ffffffffff000000000000000000000000000000000000000083549260a01b169116179055565b51905160801b7fffffffffffffffffffffffffffffffff00000000000000000000000000000000166fffffffffffffffffffffffffffffffff91909116176002830155565b01946cffffffffffffffffffffffffff809251167fffffffffffffffffffffffffffffffffffffff00000000000000000000000000875416178655511684907fffffffffffff00000000000000000000000000ffffffffffffffffffffffffff79ffffffffffffffffffffffffff0000000000000000000000000083549260681b169116179055565b5182547fff0000000000ffffffffffffffffffffffffffffffffffffffffffffffffffff16911660d01b7effffffffff000000000000000000000000000000000000000000000000000016179055565b60cf548260005260d160205260805160002055611a3c82612d27565b5060cf54600181106111215760206000197fec85b1d1f037ff3a8722aaf5d4d8e7d93c7ff10c056430c18d76a9ec23aa397e92608051519485520192a3005b7f4e487b7100000000000000000000000000000000000000000000000000000000600052600060045260246000fd5b7f4e487b7100000000000000000000000000000000000000000000000000000000600052604160045260246000fd5b6064905162461bcd60e51b815260206004820152601560248201527f6164643a204c5020616c726561647920616464656400000000000000000000006044820152fd5b60846080515162461bcd60e51b815260206004820152602660248201527f6164643a207265776172646572206d75737420626520636f6e7472616374206f60448201527f72207a65726f00000000000000000000000000000000000000000000000000006064820152fd5b5081156117d0565b60846080515162461bcd60e51b815260206004820152602660248201527f6164643a204c5020746f6b656e206d75737420626520612076616c696420636f60448201527f6e747261637400000000000000000000000000000000000000000000000000006064820152fd5b34610386576020600319360112610386576103cb600435612e2d565b34610386576080518060031936011261038657611c31612912565b90602435906001600160a01b03908160ca54163303611e6b575060cf54921660005b838110611c5c57005b80600052602060d0815260805190816000209084600052526000206fffffffffffffffffffffffffffffffff8082541615611e6057611c9a83612e2d565b611ca3836129eb565b50908254906003830192818454936cffffffffffffffffffffffffff9485811683831690611cd091613014565b64e8d4a5100092606892849291611cee91851c8a169060801c613014565b611cf791613027565b04956001890196875490858216611d0d91612d1c565b611d1690613ef4565b611d229160801c613572565b87546fffffffffffffffffffffffffffffffff1660809190911b7fffffffffffffffffffffffffffffffff000000000000000000000000000000001617875588549784808a16611d728f82613014565b90611d7c91613fb3565b9a611d868c613ef4565b81546fffffffffffffffffffffffffffffffff1660809190911b7fffffffffffffffffffffffffffffffff00000000000000000000000000000000161781555416905490828216611dd691613014565b921c16611de39089613014565b611dec91613027565b04611df690613ef4565b16927fffffffffffffffffffffffffffffffff0000000000000000000000000000000093848254161790556002019384549360801c9082851690611e3991613027565b90611e4391612d1c565b611e4c90613ef4565b169116179055611e5b90612df6565b611c53565b5050611e5b90612df6565b6084905162461bcd60e51b815260206004820152602160248201527f4d6173746572576f6d6261743a2063616c6c6572206973206e6f74205665576f60448201527f6d000000000000000000000000000000000000000000000000000000000000006064820152fd5b3461038657611f12610806611ee83661299e565b611ef76002606554141561306c565b6002606555611f0b60ff6097541615612c73565b36916130cf565b91906001908160655560805151928352611f38602091606083860152606085019061296a565b908382036080518501528451908183528083019281808460051b8301019701936000915b848310611f695787890388f35b909192939495887fffffffffffffffffffffffffffffffffffffffffffffffffffffffffffffffe083839b030184528588518180825194858152019101926000905b85818310611fcc575050508192509801930193019194939290979597611f5c565b919380919386518152019401920188929391611fab565b3461038657602060031936011261038657611ffc612912565b7f9db5e84498cff91ecd1f5666fa2ecf069530eb27baffabaccefafc06bbd3cee36001600160a01b039161203583603354163314612b55565b60cc80548483167fffffffffffffffffffffffff00000000000000000000000000000000000000008216179091556080515193166001600160a01b0390811684521660208301523391806040810161121e565b346103865760006003193601126103865760206001600160a01b0360cc541660805151908152f35b34610386576120be36612954565b6120cd6002606554141561306c565b60026065556120e160ff6097541615612c73565b6120ea826129eb565b50908260005260209260d0845260805180600020336000528552806000206fffffffffffffffffffffffffffffffff9184838354161061220c57506106f1848493612147936121406001600160a01b0397612e2d565b5416612d1c565b9454608051517fa9059cbb00000000000000000000000000000000000000000000000000000000815233600482015260248101869052919591949193879186916044918391600091165af1938415610379576102ea946121ef575b50608051519081527ff279e6a1f5e320cca91135676d9cb6e44ca8a08c0b88342bcdb1144f6511b568863392a360016065556080515193849384526080519084015260805183019061296a565b61220590873d89116105dc576105cd8183612cdb565b50866121a2565b86606491519062461bcd60e51b82526004820152601c60248201527f77697468647261773a206e6f7420656e6f7567682062616c616e6365000000006044820152fd5b34610386576080516003193601126103865760043561226c612928565b6001600160a01b039061228482603354163314612b55565b16803b15801590612363575b156122f85760207f858b2cab7b344488967106b3c498c1f59de0a26b500923d9e4e06918909cd5119160016122c4856129eb565b5001817fffffffffffffffffffffffff000000000000000000000000000000000000000082541617905560805151908152a2005b60846080515162461bcd60e51b815260206004820152602660248201527f7365743a207265776172646572206d75737420626520636f6e7472616374206f60448201527f72207a65726f00000000000000000000000000000000000000000000000000006064820152fd5b508015612290565b34610386576000600319360112610386576123926001600160a01b03603354163314612b55565b60975460ff8116156123f0577fffffffffffffffffffffffffffffffffffffffffffffffffffffffffffffff00166097557f5db9ee0a495bf2e6ff9c91a7834c1ba4fdd244a5e8aa4e537bd38aeae4b073aa602060805151338152a1005b60646080515162461bcd60e51b815260206004820152601460248201527f5061757361626c653a206e6f74207061757365640000000000000000000000006044820152fd5b346103865760006003193601126103865760206001600160a01b0360ca541660805151908152f35b3461038657608060031936011261038657612476612912565b61247e612928565b9061248761293e565b60643561ffff8116808203610386576000549360ff8560081c168060001461273857303b155b156126cd5715948561269e575b506001600160a01b03809116918215612659576103e8106125ee577fffffffffffffffffffff000000000000000000000000000000000000000000009161251160ff60005460081c1661250c81612c02565b612c02565b61251a33612ba0565b816000549761253c60ff8a60081c1661253281612c02565b6001606555612c02565b7fffffffffffffffffffffffffffffffffffffffffffffffffffffffffffffff00609754166097557fffffffffffffffffffffffff0000000000000000000000000000000000000000928360c954161760c955169060ca54161760ca5575ffff000000000000000000000000000000000000000060cc549360a01b1693169116171760cc556125c757005b7fffffffffffffffffffffffffffffffffffffffffffffffffffffffffffff00ff16600055005b60846080515162461bcd60e51b815260206004820152602760248201527f6261736520706172746974696f6e206d75737420626520696e2072616e67652060448201527f302c2031303030000000000000000000000000000000000000000000000000006064820152fd5b60646080515162461bcd60e51b815260206004820152601a60248201527f776f6d20616464726573732063616e6e6f74206265207a65726f0000000000006044820152fd5b7fffffffffffffffffffffffffffffffffffffffffffffffffffffffffffff00001661010117600055866124ba565b60846080515162461bcd60e51b815260206004820152602e60248201527f496e697469616c697a61626c653a20636f6e747261637420697320616c72656160448201527f647920696e697469616c697a65640000000000000000000000000000000000006064820152fd5b60ff8616156124ad565b346103865760206003193601126103865760043561ffff808216908183036103865761277a6001600160a01b03603354163314612b55565b6103e88211610386576127dc600093612791612e05565b60cc547fffffffffffffffffffff0000ffffffffffffffffffffffffffffffffffffffff75ffff00000000000000000000000000000000000000008360a01b1691161760cc556139c1565b60805151928352166020820152608051907f7fd921cf733c788915a229b0ea58095c44ae2c275ed7835501e5135fe3c1ed05823392a251f35b346103865760206003193601126103865760e06128336004356129eb565b50816080515161284281612cbe565b6001600160a01b038084541693848352600181015491821680602085015264ffffffffff809360a01c1660805185015260036002830154926fffffffffffffffffffffffffffffffff84169384606088015260801c60808701520154936cffffffffffffffffffffffffff93848616948560a08401528660681c16958660c084015260d01c16958691015260805151958652600060208701526080518601526060850152608084015260a083015260c0820152f35b346103865760006003193601126103865760209060cf548152f35b600435906001600160a01b038216820361038657565b602435906001600160a01b038216820361038657565b604435906001600160a01b038216820361038657565b6003196040910112610386576004359060243590565b90815180825260208080930193019160005b82811061298a575050505090565b83518552938101939281019260010161297c565b9060206003198301126103865760043567ffffffffffffffff9283821161038657806023830112156103865781600401359384116103865760248460051b83010111610386576024019190565b60cf54811015612a255760cf60005260021b7facb8d954e2cfef495862221e91bd7523613cf8808827cb33edfe4904cc51bf290190600090565b7f4e487b7100000000000000000000000000000000000000000000000000000000600052603260045260246000fd5b90815180825260208080930193019160005b828110612a74575050505090565b83516001600160a01b031685529381019392810192600101612a66565b918091926000905b828210612ab1575011612aaa575050565b6000910152565b91508060209183015181860152018291612a99565b908082519081815260208091019281808460051b8301019501936000915b848310612af45750505050505090565b9091929394958480806001937fffffffffffffffffffffffffffffffffffffffffffffffffffffffffffffffe080878303018852601f8c51612b4181518092818752878088019101612a91565b011601019801930193019194939290612ae4565b15612b5c57565b606460405162461bcd60e51b815260206004820152602060248201527f4f776e61626c653a2063616c6c6572206973206e6f7420746865206f776e65726044820152fd5b603354906001600160a01b0380911691827fffffffffffffffffffffffff0000000000000000000000000000000000000000821617603355167f8be0079c531659141344cd1fd0a4f28419497f9722a3daafe3b4186f6b6457e06000604051a3565b15612c0957565b608460405162461bcd60e51b815260206004820152602b60248201527f496e697469616c697a61626c653a20636f6e7472616374206973206e6f74206960448201527f6e697469616c697a696e670000000000000000000000000000000000000000006064820152fd5b15612c7a57565b606460405162461bcd60e51b815260206004820152601060248201527f5061757361626c653a20706175736564000000000000000000000000000000006044820152fd5b610100810190811067ffffffffffffffff821117611aaa57604052565b90601f7fffffffffffffffffffffffffffffffffffffffffffffffffffffffffffffffe0910116810190811067ffffffffffffffff821117611aaa57604052565b818110611121570390565b600081815260ce6020526040812054612df15760cd5468010000000000000000811015612dc457600181018060cd55811015612d975790826040927f83978b4c69c48dd978ab43fe30f077615294f938fb7f936d9eb340e51ea7db2e015560cd5492815260ce6020522055600190565b6024827f4e487b710000000000000000000000000000000000000000000000000000000081526032600452fd5b6024827f4e487b710000000000000000000000000000000000000000000000000000000081526041600452fd5b905090565b60001981146111215760010190565b60cf5460005b818110612e16575050565b80612e23612e2892612e2d565b612df6565b612e0b565b612e36816129eb565b50906003820180549164ffffffffff90818460d01c164211612e5a575b5050505050565b612eb1612ea6612f62957fffffffffffffffffffffffffffffffffffffff000000000000000000000000006cffffffffffffffffffffffffff612e9f612efc96613d1e565b9490613f55565b169116178555613f55565b83547fffffffffffff00000000000000000000000000ffffffffffffffffffffffffff1660689190911b79ffffffffffffffffffffffffff0000000000000000000000000016178355565b80600185015460a01c16804210600014612ff55750425b82547fff0000000000ffffffffffffffffffffffffffffffffffffffffffffffffffff16911660d01b7effffffffff000000000000000000000000000000000000000000000000000016179055565b6001600160a01b038060cc54169182612f7d575b8080612e53565b5416813b15610386576000916024839260405194859384927f63453ae100000000000000000000000000000000000000000000000000000000845260048401525af18015612fe957612fd1575b8080612f76565b67ffffffffffffffff8111611aaa5760405238612fca565b6040513d6000823e3d90fd5b612f13565b64e8d4a51000908060001904821181151516611121570290565b8060001904821181151516611121570290565b81198111611121570190565b811561303d570490565b7f4e487b7100000000000000000000000000000000000000000000000000000000600052601260045260246000fd5b1561307357565b606460405162461bcd60e51b815260206004820152601f60248201527f5265656e7472616e637947756172643a207265656e7472616e742063616c6c006044820152fd5b67ffffffffffffffff8111611aaa5760051b60200190565b92916130da826130b7565b916130e86040519384612cdb565b829481845260208094019160051b810192831161038657905b82821061310e5750505050565b81358152908301908301613101565b90816020910312610386575180151581036103865790565b6fffffffffffffffffffffffffffffffff9182169116818110611121570390565b60005b82811061316557505050565b606082820152602001613159565b8051821015612a255760209160051b010190565b60209081818403126103865780519067ffffffffffffffff821161038657019180601f840112156103865782516131bd816130b7565b936131cb6040519586612cdb565b818552838086019260051b820101928311610386578301905b8282106131f2575050505090565b815181529083019083016131e4565b9061324d9160008151613213816130b7565b906132216040519283612cdb565b8082527fffffffffffffffffffffffffffffffffffffffffffffffffffffffffffffffe09586916130b7565b013660208301378061328784519661327d613267896130b7565b986132756040519a8b612cdb565b808a526130b7565b0160208801613156565b8560005b85518110156134f05761329e8187613173565b5160005260d060205260406000203360005260205260406000206132cb6132c58389613173565b51612e2d565b805490876fffffffffffffffffffffffffffffffff83166132f8575b5050506132f390612df6565b61328b565b6fffffffffffffffffffffffffffffffff976133f06001600160a01b039361332e61332888600196999899613173565b516129eb565b509264e8d4a5100061336d600386015461027d8f61335f8d6cffffffffffffffffffffffffff928386169116613014565b9260681c168c60801c613014565b049161338d61338487830154948560801c90613027565b8e851690612d1c565b9c8d931686820155856fffffffffffffffffffffffffffffffff6133e764e8d4a51000610e818d61027d60038c0154916cffffffffffffffffffffffffff6133d9818516898416613014565b9360681c169060801c613014565b16910155613027565b986133fb858a613173565b52613406848b613173565b51613411858a613173565b516040519081527f71bab65ced2e5750775a0613be067df48ef06cf92a496ebf7663ae066092495460203392a30154169182613451575b819250876132e7565b6040517fc37232880000000000000000000000000000000000000000000000000000000081523360048201526fffffffffffffffffffffffffffffffff919091166024820152916000908390604490829084905af18015612fe9576132f3926000916134d5575b506134c3828b613173565b526134ce818a613173565b5038613448565b6134ea91503d806000833e61036b8183612cdb565b386134b8565b5060c9546040517fa9059cbb000000000000000000000000000000000000000000000000000000008152336004820152602481018690529497509195909450929150602090829060449082906000906001600160a01b03165af18015612fe9576135575750565b61356f9060203d6020116105dc576105cd8183612cdb565b50565b906fffffffffffffffffffffffffffffffff8080931691168092038111611121570190565b60009360609390926135a8836129eb565b508360005260d060205260406000206001600160a01b03831660005260205260406000209384546fffffffffffffffffffffffffffffffff81169081158015906139b1575b61388c575b5050506fffffffffffffffffffffffffffffffff61360f84613ef4565b16927fffffffffffffffffffffffffffffffff000000000000000000000000000000009260248585885416179586885560206001600160a01b0360ca5416604051938480927f70a082310000000000000000000000000000000000000000000000000000000082526001600160a01b03881660048301525afa918215612fe957600092613856575b506136b1816136ac6136f7946136b694613014565b613fb3565b613ef4565b87546fffffffffffffffffffffffffffffffff1660809190911b7fffffffffffffffffffffffffffffffff0000000000000000000000000000000016178755565b61373a64e8d4a51000610e81885461027d6003880154916cffffffffffffffffffffffffff6133d98185166fffffffffffffffffffffffffffffffff8416613014565b6fffffffffffffffffffffffffffffffff600188019116858254161790556001600160a01b0360018401541690816137b6575b5050506137ae6fffffffffffffffffffffffffffffffff6137a86002829401966137a388549760801c915460801c848916613572565b613135565b16613ef4565b169116179055565b6040517fc37232880000000000000000000000000000000000000000000000000000000081526001600160a01b039190911660048201526024810192909252919650906000908290604490829084905af18015612fe9576fffffffffffffffffffffffffffffffff6137a860026137ae93839560009161383b575b509994505061376d565b61385091503d806000833e61036b8183612cdb565b38613831565b91506020823d602011613884575b8161387160209383612cdb565b81010312610386579051906136b1613697565b3d9150613864565b64e8d4a510009299509061027d6138be926003860154926133d96cffffffffffffffffffffffffff9182861690613014565b04966fffffffffffffffffffffffffffffffff6138f06138e760018801549a8b60801c90613027565b828b1690612d1c565b9816600186015560c9546040517fa9059cbb0000000000000000000000000000000000000000000000000000000081526001600160a01b038581166004830152602482018b9052909160209183916044918391600091165af18015612fe957613992575b506040518881527f71bab65ced2e5750775a0613be067df48ef06cf92a496ebf7663ae066092495460206001600160a01b03861692a33880806135f2565b6139aa9060203d6020116105dc576105cd8183612cdb565b5038613954565b50600187015460801c15156135ed565b61ffff166103e8818110611121570390565b6139de6001916129eb565b5001546001600160a01b03908116918215613d15576040928351928380927fc2b18aa0000000000000000000000000000000000000000000000000000000008252600091829160049586915afa948515613d09578195613c6a575b508495855192613a48846130b7565b92613a5583519485612cdb565b8484527fffffffffffffffffffffffffffffffffffffffffffffffffffffffffffffffe080613a83876130b7565b0192613a93602094858801613156565b8599835b888110613aaa5750505050505050505050565b8983613ab68385613173565b5116613b515750865187810181811067ffffffffffffffff821117613b25578852600381527f424e42000000000000000000000000000000000000000000000000000000000087820152613b209190613b0f828b613173565b52613b1a818a613173565b50612df6565b613a97565b60248760418e7f4e487b7100000000000000000000000000000000000000000000000000000000835252fd5b908584613b5e8386613173565b51168951938480927f95d89b410000000000000000000000000000000000000000000000000000000082525afa8015613c60578690613ba7575b613b209250613b0f828b613173565b50903d8087833e613bb88183612cdb565b8101908781830312613c5c57805167ffffffffffffffff91828211613c585701601f92808483011215613c58578151928311613c2b57613c008a898d51968601160185612cdb565b828452898383010111613c27578291613c22918a80613b209796019101612a91565b613b98565b8780fd5b5060248860418f7f4e487b7100000000000000000000000000000000000000000000000000000000835252fd5b8880fd5b8680fd5b88513d88823e3d90fd5b9094503d8086833e613c7c8183612cdb565b8101906020908181840312613c5c5780519067ffffffffffffffff8211613c2757019180601f84011215613c5c578251613cb5816130b7565b93613cc28a519586612cdb565b818552838086019260051b820101928311613c58578301905b828210613ced57505050509338613a39565b81518681168103613d05578152908301908301613cdb565b8980fd5b508551903d90823e3d90fd5b60609250829150565b90613d2a6024926129eb565b509060206001600160a01b03835416604051948580927f70a082310000000000000000000000000000000000000000000000000000000082523060048301525afa928315612fe957600093613ebe575b5060038201546cffffffffffffffffffffffffff808216908260681c169385159283159384613eaa575b613ea2576002613dd9613de79264ffffffffff80600187015460a01c16804210600014613e9c575042915b60d01c1690612d1c565b920154918260801c90613014565b90613df182612ffa565b9661ffff93613e088560cc5460a01c16809a613014565b916103e896816000190488111661112157613e29928761027d920290613033565b966fffffffffffffffffffffffffffffffff809216938415159384613e52575b50505050505050565b90613e6d613e67613e7494939a98999a612ffa565b926139c1565b1690613014565b9183820486111661112157613e8f9461027d93021690613033565b9038808080808080613e49565b91613dcf565b509094505050565b5064ffffffffff8160d01c16421115613da4565b90926020823d8211613eec575b81613ed860209383612cdb565b81010312613ee95750519138613d7a565b80fd5b3d9150613ecb565b6fffffffffffffffffffffffffffffffff90818111613f11571690565b606460405162461bcd60e51b815260206004820152601060248201527f75696e74313238206f766572666c6f77000000000000000000000000000000006044820152fd5b6cffffffffffffffffffffffffff90818111613f6f571690565b606460405162461bcd60e51b815260206004820152601060248201527f75696e74313034206f766572666c6f77000000000000000000000000000000006044820152fd5b9190600060038411156140225750828111801561401a575b156140145750815b613fe683613fe18184613033565b613027565b600190811c915b848303613ff957505050565b9091935061400b84613fe18184613033565b821c9190613fed565b91613fd3565b508015613fcb565b92905061402b57565b6001915056fea26469706673582212209f488b35b241c71dd4d16b2363f31c18481c359118d221b512d9a8a5fba2048364736f6c634300080f0033",
  "devdoc": {
    "details": "Updates: - Compatible with gauge voting",
    "kind": "dev",
    "methods": {
      "add(address,address)": {
        "details": "Reverts if the same LP token is added more than once.",
        "params": {
          "_lpToken": "the corresponding lp token",
          "_rewarder": "the rewarder"
        }
      },
      "deposit(uint256,uint256)": {
        "details": "it is possible to call this function with _amount == 0 to claim current rewards",
        "params": {
          "_amount": "amount to deposit",
          "_pid": "the pool id"
        }
      },
      "depositFor(uint256,uint256,address)": {
        "details": "user must initiate transaction from masterchef",
        "params": {
          "_amount": "amount to deposit",
          "_pid": "the pool id",
          "_user": "the user being represented"
        }
      },
      "emergencyWithdraw(uint256)": {
        "params": {
          "_pid": "the pool id"
        }
      },
      "massUpdatePools()": {
        "details": "Be careful of gas spending!"
      },
      "migrate(uint256[])": {
        "details": "Assume the orginal MasterWombat has stopped emisions hence we skip IVoter(voter).distribute() to save gas cost"
      },
      "multiClaim(uint256[])": {
        "params": {
          "_pids": "array pids, pools to claim"
        }
      },
      "notifyRewardAmount(address,uint256)": {
        "details": "Refer to synthetix/StakingRewards.sol notifyRewardAmount Note: This looks safe from reentrancy."
      },
      "owner()": {
        "details": "Returns the address of the current owner."
      },
      "pause()": {
        "details": "pause pool, restricting certain operations"
      },
      "paused()": {
        "details": "Returns true if the contract is paused, and false otherwise."
      },
      "pendingTokens(uint256,address)": {
        "params": {
          "_pid": "the pool id",
          "_user": "the user address"
        }
      },
      "renounceOwnership()": {
        "details": "Leaves the contract without owner. It will not be possible to call `onlyOwner` functions anymore. Can only be called by the current owner. NOTE: Renouncing ownership will leave the contract without an owner, thereby removing any functionality that is only available to the owner."
      },
      "rewarderBonusTokenInfo(uint256)": {
        "params": {
          "_pid": "the pool id"
        }
      },
      "setRewarder(uint256,address)": {
        "params": {
          "_pid": "the pool id",
          "_rewarder": "the rewarder"
        }
      },
      "setVeWom(address)": {
        "params": {
          "_newVeWom": "the new VeWom address"
        }
      },
      "setVoter(address)": {
        "params": {
          "_newVoter": "the new Voter address"
        }
      },
      "transferOwnership(address)": {
        "details": "Transfers ownership of the contract to a new account (`newOwner`). Can only be called by the current owner."
      },
      "unpause()": {
        "details": "unpause pool, enabling certain operations"
      },
      "updateEmissionPartition(uint16)": {
        "params": {
          "_basePartition": "the future base partition"
        }
      },
      "updateFactor(address,uint256)": {
        "details": "can only be called by veWom",
        "params": {
          "_newVeWomBalance": "the amount of veWOM",
          "_user": "the user to update"
        }
      },
      "updatePool(uint256)": {
        "params": {
          "_pid": "the pool id"
        }
      },
      "withdraw(uint256,uint256)": {
        "params": {
          "_amount": "the amount to withdraw",
          "_pid": "the pool id"
        }
      }
    },
    "title": "MasterWombatV3",
    "version": 1
  },
  "userdoc": {
    "kind": "user",
    "methods": {
      "add(address,address)": {
        "notice": "Add a new lp to the pool. Can only be called by the owner."
      },
      "deposit(uint256,uint256)": {
        "notice": "Deposit LP tokens to MasterChef for WOM allocation."
      },
      "depositFor(uint256,uint256,address)": {
        "notice": "Deposit LP tokens to MasterChef for WOM allocation on behalf of user"
      },
      "emergencyWithdraw(uint256)": {
        "notice": "Withdraw without caring about rewards. EMERGENCY ONLY."
      },
      "emergencyWomWithdraw()": {
        "notice": "In case we need to manually migrate WOM funds from MasterChef Sends all remaining wom from the contract to the owner"
      },
      "massUpdatePools()": {
        "notice": "Update reward variables for all pools."
      },
      "migrate(uint256[])": {
        "notice": "Helper function to migrate fund from multiple pools to the new MasterWombat.user must initiate transaction from masterchef"
      },
      "multiClaim(uint256[])": {
        "notice": "claims rewards for multiple pids"
      },
      "notifyRewardAmount(address,uint256)": {
        "notice": "Distribute WOM over a period of 7 days"
      },
      "pendingTokens(uint256,address)": {
        "notice": "View function to see pending WOMs on frontend."
      },
      "poolInfo(uint256)": {
        "notice": "[Deprecated] A backward compatible function to return the PoolInfo struct in MasterWombatV2"
      },
      "poolLength()": {
        "notice": "returns pool length"
      },
      "rewarderBonusTokenInfo(uint256)": {
        "notice": "Get bonus token info from the rewarder contract for a given pool, if it is a double reward farm"
      },
      "setRewarder(uint256,address)": {
        "notice": "Update the given pool's rewarder"
      },
      "setVeWom(address)": {
        "notice": "updates veWom address"
      },
      "setVoter(address)": {
        "notice": "updates voter address"
      },
      "updateEmissionPartition(uint16)": {
        "notice": "updates emission partition"
      },
      "updateFactor(address,uint256)": {
        "notice": "updates factor after any veWom token operation (minting/burning)"
      },
      "updatePool(uint256)": {
        "notice": "Update reward variables of the given pool"
      },
      "withdraw(uint256,uint256)": {
        "notice": "Withdraw LP tokens from MasterWombat.Automatically harvest pending rewards and sends to user"
      }
    },
    "notice": "MasterWombat is a boss. He is not afraid of any snakes. In fact, he drinks their venoms. So, veWom holders boost their (boosted) emissions. This contract rewards users in function of their amount of lp staked (base pool) factor (boosted pool) Factor and sumOfFactors are updated by contract VeWom.sol after any veWom minting/burning (veERC20Upgradeable hook). Note that it's ownable and the owner wields tremendous power. The ownership will be transferred to a governance smart contract once Wombat is sufficiently distributed and the community can show to govern itself.",
    "version": 1
  },
  "storageLayout": {
    "storage": [
      {
        "astId": 130,
        "contract": "contracts/wombat-governance/MasterWombatV3.sol:MasterWombatV3",
        "label": "_initialized",
        "offset": 0,
        "slot": "0",
        "type": "t_bool"
      },
      {
        "astId": 133,
        "contract": "contracts/wombat-governance/MasterWombatV3.sol:MasterWombatV3",
        "label": "_initializing",
        "offset": 1,
        "slot": "0",
        "type": "t_bool"
      },
      {
        "astId": 651,
        "contract": "contracts/wombat-governance/MasterWombatV3.sol:MasterWombatV3",
        "label": "__gap",
        "offset": 0,
        "slot": "1",
        "type": "t_array(t_uint256)50_storage"
      },
      {
        "astId": 10,
        "contract": "contracts/wombat-governance/MasterWombatV3.sol:MasterWombatV3",
        "label": "_owner",
        "offset": 0,
        "slot": "51",
        "type": "t_address"
      },
      {
        "astId": 122,
        "contract": "contracts/wombat-governance/MasterWombatV3.sol:MasterWombatV3",
        "label": "__gap",
        "offset": 0,
        "slot": "52",
        "type": "t_array(t_uint256)49_storage"
      },
      {
        "astId": 322,
        "contract": "contracts/wombat-governance/MasterWombatV3.sol:MasterWombatV3",
        "label": "_status",
        "offset": 0,
        "slot": "101",
        "type": "t_uint256"
      },
      {
        "astId": 366,
        "contract": "contracts/wombat-governance/MasterWombatV3.sol:MasterWombatV3",
        "label": "__gap",
        "offset": 0,
        "slot": "102",
        "type": "t_array(t_uint256)49_storage"
      },
      {
        "astId": 218,
        "contract": "contracts/wombat-governance/MasterWombatV3.sol:MasterWombatV3",
        "label": "_paused",
        "offset": 0,
        "slot": "151",
        "type": "t_bool"
      },
      {
        "astId": 307,
        "contract": "contracts/wombat-governance/MasterWombatV3.sol:MasterWombatV3",
        "label": "__gap",
        "offset": 0,
        "slot": "152",
        "type": "t_array(t_uint256)49_storage"
      },
      {
        "astId": 17277,
        "contract": "contracts/wombat-governance/MasterWombatV3.sol:MasterWombatV3",
        "label": "wom",
        "offset": 0,
        "slot": "201",
        "type": "t_contract(IERC20)1420"
      },
      {
        "astId": 17280,
        "contract": "contracts/wombat-governance/MasterWombatV3.sol:MasterWombatV3",
        "label": "veWom",
        "offset": 0,
        "slot": "202",
        "type": "t_contract(IVeWom)23305"
      },
      {
        "astId": 17283,
        "contract": "contracts/wombat-governance/MasterWombatV3.sol:MasterWombatV3",
        "label": "newMasterWombat",
        "offset": 0,
        "slot": "203",
        "type": "t_contract(IMasterWombatV3)23192"
      },
      {
        "astId": 17285,
        "contract": "contracts/wombat-governance/MasterWombatV3.sol:MasterWombatV3",
        "label": "voter",
        "offset": 0,
        "slot": "204",
        "type": "t_address"
      },
      {
        "astId": 17287,
        "contract": "contracts/wombat-governance/MasterWombatV3.sol:MasterWombatV3",
        "label": "basePartition",
        "offset": 20,
        "slot": "204",
        "type": "t_uint16"
      },
      {
        "astId": 17290,
        "contract": "contracts/wombat-governance/MasterWombatV3.sol:MasterWombatV3",
        "label": "lpTokens",
        "offset": 0,
        "slot": "205",
        "type": "t_struct(AddressSet)3408_storage"
      },
      {
        "astId": 17294,
        "contract": "contracts/wombat-governance/MasterWombatV3.sol:MasterWombatV3",
        "label": "poolInfoV3",
        "offset": 0,
        "slot": "207",
        "type": "t_array(t_struct(PoolInfoV3)17268_storage)dyn_storage"
      },
      {
        "astId": 17301,
        "contract": "contracts/wombat-governance/MasterWombatV3.sol:MasterWombatV3",
        "label": "userInfo",
        "offset": 0,
        "slot": "208",
        "type": "t_mapping(t_uint256,t_mapping(t_address,t_struct(UserInfo)17249_storage))"
      },
      {
        "astId": 17305,
        "contract": "contracts/wombat-governance/MasterWombatV3.sol:MasterWombatV3",
        "label": "assetPid",
        "offset": 0,
        "slot": "209",
        "type": "t_mapping(t_address,t_uint256)"
      }
    ],
    "types": {
      "t_address": {
        "encoding": "inplace",
        "label": "address",
        "numberOfBytes": "20"
      },
      "t_array(t_bytes32)dyn_storage": {
        "base": "t_bytes32",
        "encoding": "dynamic_array",
        "label": "bytes32[]",
        "numberOfBytes": "32"
      },
      "t_array(t_struct(PoolInfoV3)17268_storage)dyn_storage": {
        "base": "t_struct(PoolInfoV3)17268_storage",
        "encoding": "dynamic_array",
        "label": "struct MasterWombatV3.PoolInfoV3[]",
        "numberOfBytes": "32"
      },
      "t_array(t_uint256)49_storage": {
        "base": "t_uint256",
        "encoding": "inplace",
        "label": "uint256[49]",
        "numberOfBytes": "1568"
      },
      "t_array(t_uint256)50_storage": {
        "base": "t_uint256",
        "encoding": "inplace",
        "label": "uint256[50]",
        "numberOfBytes": "1600"
      },
      "t_bool": {
        "encoding": "inplace",
        "label": "bool",
        "numberOfBytes": "1"
      },
      "t_bytes32": {
        "encoding": "inplace",
        "label": "bytes32",
        "numberOfBytes": "32"
      },
      "t_contract(IERC20)1420": {
        "encoding": "inplace",
        "label": "contract IERC20",
        "numberOfBytes": "20"
      },
      "t_contract(IMasterWombatV3)23192": {
        "encoding": "inplace",
        "label": "contract IMasterWombatV3",
        "numberOfBytes": "20"
      },
      "t_contract(IMultiRewarder)23226": {
        "encoding": "inplace",
        "label": "contract IMultiRewarder",
        "numberOfBytes": "20"
      },
      "t_contract(IVeWom)23305": {
        "encoding": "inplace",
        "label": "contract IVeWom",
        "numberOfBytes": "20"
      },
      "t_mapping(t_address,t_struct(UserInfo)17249_storage)": {
        "encoding": "mapping",
        "key": "t_address",
        "label": "mapping(address => struct MasterWombatV3.UserInfo)",
        "numberOfBytes": "32",
        "value": "t_struct(UserInfo)17249_storage"
      },
      "t_mapping(t_address,t_uint256)": {
        "encoding": "mapping",
        "key": "t_address",
        "label": "mapping(address => uint256)",
        "numberOfBytes": "32",
        "value": "t_uint256"
      },
      "t_mapping(t_bytes32,t_uint256)": {
        "encoding": "mapping",
        "key": "t_bytes32",
        "label": "mapping(bytes32 => uint256)",
        "numberOfBytes": "32",
        "value": "t_uint256"
      },
      "t_mapping(t_uint256,t_mapping(t_address,t_struct(UserInfo)17249_storage))": {
        "encoding": "mapping",
        "key": "t_uint256",
        "label": "mapping(uint256 => mapping(address => struct MasterWombatV3.UserInfo))",
        "numberOfBytes": "32",
        "value": "t_mapping(t_address,t_struct(UserInfo)17249_storage)"
      },
      "t_struct(AddressSet)3408_storage": {
        "encoding": "inplace",
        "label": "struct EnumerableSet.AddressSet",
        "members": [
          {
            "astId": 3407,
            "contract": "contracts/wombat-governance/MasterWombatV3.sol:MasterWombatV3",
            "label": "_inner",
            "offset": 0,
            "slot": "0",
            "type": "t_struct(Set)3137_storage"
          }
        ],
        "numberOfBytes": "64"
      },
      "t_struct(PoolInfoV3)17268_storage": {
        "encoding": "inplace",
        "label": "struct MasterWombatV3.PoolInfoV3",
        "members": [
          {
            "astId": 17252,
            "contract": "contracts/wombat-governance/MasterWombatV3.sol:MasterWombatV3",
            "label": "lpToken",
            "offset": 0,
            "slot": "0",
            "type": "t_contract(IERC20)1420"
          },
          {
            "astId": 17255,
            "contract": "contracts/wombat-governance/MasterWombatV3.sol:MasterWombatV3",
            "label": "rewarder",
            "offset": 0,
            "slot": "1",
            "type": "t_contract(IMultiRewarder)23226"
          },
          {
            "astId": 17257,
            "contract": "contracts/wombat-governance/MasterWombatV3.sol:MasterWombatV3",
            "label": "periodFinish",
            "offset": 20,
            "slot": "1",
            "type": "t_uint40"
          },
          {
            "astId": 17259,
            "contract": "contracts/wombat-governance/MasterWombatV3.sol:MasterWombatV3",
            "label": "sumOfFactors",
            "offset": 0,
            "slot": "2",
            "type": "t_uint128"
          },
          {
            "astId": 17261,
            "contract": "contracts/wombat-governance/MasterWombatV3.sol:MasterWombatV3",
            "label": "rewardRate",
            "offset": 16,
            "slot": "2",
            "type": "t_uint128"
          },
          {
            "astId": 17263,
            "contract": "contracts/wombat-governance/MasterWombatV3.sol:MasterWombatV3",
            "label": "accWomPerShare",
            "offset": 0,
            "slot": "3",
            "type": "t_uint104"
          },
          {
            "astId": 17265,
            "contract": "contracts/wombat-governance/MasterWombatV3.sol:MasterWombatV3",
            "label": "accWomPerFactorShare",
            "offset": 13,
            "slot": "3",
            "type": "t_uint104"
          },
          {
            "astId": 17267,
            "contract": "contracts/wombat-governance/MasterWombatV3.sol:MasterWombatV3",
            "label": "lastRewardTimestamp",
            "offset": 26,
            "slot": "3",
            "type": "t_uint40"
          }
        ],
        "numberOfBytes": "128"
      },
      "t_struct(Set)3137_storage": {
        "encoding": "inplace",
        "label": "struct EnumerableSet.Set",
        "members": [
          {
            "astId": 3132,
            "contract": "contracts/wombat-governance/MasterWombatV3.sol:MasterWombatV3",
            "label": "_values",
            "offset": 0,
            "slot": "0",
            "type": "t_array(t_bytes32)dyn_storage"
          },
          {
            "astId": 3136,
            "contract": "contracts/wombat-governance/MasterWombatV3.sol:MasterWombatV3",
            "label": "_indexes",
            "offset": 0,
            "slot": "1",
            "type": "t_mapping(t_bytes32,t_uint256)"
          }
        ],
        "numberOfBytes": "64"
      },
      "t_struct(UserInfo)17249_storage": {
        "encoding": "inplace",
        "label": "struct MasterWombatV3.UserInfo",
        "members": [
          {
            "astId": 17242,
            "contract": "contracts/wombat-governance/MasterWombatV3.sol:MasterWombatV3",
            "label": "amount",
            "offset": 0,
            "slot": "0",
            "type": "t_uint128"
          },
          {
            "astId": 17244,
            "contract": "contracts/wombat-governance/MasterWombatV3.sol:MasterWombatV3",
            "label": "factor",
            "offset": 16,
            "slot": "0",
            "type": "t_uint128"
          },
          {
            "astId": 17246,
            "contract": "contracts/wombat-governance/MasterWombatV3.sol:MasterWombatV3",
            "label": "rewardDebt",
            "offset": 0,
            "slot": "1",
            "type": "t_uint128"
          },
          {
            "astId": 17248,
            "contract": "contracts/wombat-governance/MasterWombatV3.sol:MasterWombatV3",
            "label": "pendingWom",
            "offset": 16,
            "slot": "1",
            "type": "t_uint128"
          }
        ],
        "numberOfBytes": "64"
      },
      "t_uint104": {
        "encoding": "inplace",
        "label": "uint104",
        "numberOfBytes": "13"
      },
      "t_uint128": {
        "encoding": "inplace",
        "label": "uint128",
        "numberOfBytes": "16"
      },
      "t_uint16": {
        "encoding": "inplace",
        "label": "uint16",
        "numberOfBytes": "2"
      },
      "t_uint256": {
        "encoding": "inplace",
        "label": "uint256",
        "numberOfBytes": "32"
      },
      "t_uint40": {
        "encoding": "inplace",
        "label": "uint40",
        "numberOfBytes": "5"
      }
    }
  }
}