{
  "address": "0x02B650f1D03516Abb2a79fE6c311a9Cdf60C9370",
  "abi": [
    {
      "anonymous": false,
      "inputs": [
        {
          "indexed": true,
          "internalType": "uint256",
          "name": "pid",
          "type": "uint256"
        },
        {
          "indexed": false,
          "internalType": "uint256",
          "name": "allocPoint",
          "type": "uint256"
        },
        {
          "indexed": true,
          "internalType": "contract IERC20",
          "name": "lpToken",
          "type": "address"
        },
        {
          "indexed": true,
          "internalType": "contract IRewarder",
          "name": "rewarder",
          "type": "address"
        }
      ],
      "name": "Add",
      "type": "event"
    },
    {
      "anonymous": false,
      "inputs": [
        {
          "indexed": true,
          "internalType": "address",
          "name": "user",
          "type": "address"
        },
        {
          "indexed": true,
          "internalType": "uint256",
          "name": "pid",
          "type": "uint256"
        },
        {
          "indexed": false,
          "internalType": "uint256",
          "name": "amount",
          "type": "uint256"
        }
      ],
      "name": "Deposit",
      "type": "event"
    },
    {
      "anonymous": false,
      "inputs": [
        {
          "indexed": true,
          "internalType": "address",
          "name": "user",
          "type": "address"
        },
        {
          "indexed": true,
          "internalType": "uint256",
          "name": "pid",
          "type": "uint256"
        },
        {
          "indexed": false,
          "internalType": "uint256",
          "name": "amount",
          "type": "uint256"
        }
      ],
      "name": "DepositFor",
      "type": "event"
    },
    {
      "anonymous": false,
      "inputs": [
        {
          "indexed": true,
          "internalType": "address",
          "name": "user",
          "type": "address"
        },
        {
          "indexed": true,
          "internalType": "uint256",
          "name": "pid",
          "type": "uint256"
        },
        {
          "indexed": false,
          "internalType": "uint256",
          "name": "amount",
          "type": "uint256"
        }
      ],
      "name": "EmergencyWithdraw",
      "type": "event"
    },
    {
      "anonymous": false,
      "inputs": [
        {
          "indexed": true,
          "internalType": "address",
          "name": "user",
          "type": "address"
        },
        {
          "indexed": true,
          "internalType": "uint256",
          "name": "pid",
          "type": "uint256"
        },
        {
          "indexed": false,
          "internalType": "uint256",
          "name": "amount",
          "type": "uint256"
        }
      ],
      "name": "Harvest",
      "type": "event"
    },
    {
      "anonymous": false,
      "inputs": [
        {
          "indexed": true,
          "internalType": "address",
          "name": "previousOwner",
          "type": "address"
        },
        {
          "indexed": true,
          "internalType": "address",
          "name": "newOwner",
          "type": "address"
        }
      ],
      "name": "OwnershipTransferred",
      "type": "event"
    },
    {
      "anonymous": false,
      "inputs": [
        {
          "indexed": false,
          "internalType": "address",
          "name": "account",
          "type": "address"
        }
      ],
      "name": "Paused",
      "type": "event"
    },
    {
      "anonymous": false,
      "inputs": [
        {
          "indexed": true,
          "internalType": "uint256",
          "name": "pid",
          "type": "uint256"
        },
        {
          "indexed": false,
          "internalType": "uint256",
          "name": "allocPoint",
          "type": "uint256"
        },
        {
          "indexed": true,
          "internalType": "contract IRewarder",
          "name": "rewarder",
          "type": "address"
        },
        {
          "indexed": false,
          "internalType": "bool",
          "name": "overwrite",
          "type": "bool"
        }
      ],
      "name": "Set",
      "type": "event"
    },
    {
      "anonymous": false,
      "inputs": [
        {
          "indexed": false,
          "internalType": "address",
          "name": "account",
          "type": "address"
        }
      ],
      "name": "Unpaused",
      "type": "event"
    },
    {
      "anonymous": false,
      "inputs": [
        {
          "indexed": true,
          "internalType": "address",
          "name": "user",
          "type": "address"
        },
        {
          "indexed": false,
          "internalType": "uint256",
          "name": "basePartition",
          "type": "uint256"
        },
        {
          "indexed": false,
          "internalType": "uint256",
          "name": "boostedPartition",
          "type": "uint256"
        }
      ],
      "name": "UpdateEmissionPartition",
      "type": "event"
    },
    {
      "anonymous": false,
      "inputs": [
        {
          "indexed": true,
          "internalType": "address",
          "name": "user",
          "type": "address"
        },
        {
          "indexed": false,
          "internalType": "uint256",
          "name": "womPerSec",
          "type": "uint256"
        }
      ],
      "name": "UpdateEmissionRate",
      "type": "event"
    },
    {
      "anonymous": false,
      "inputs": [
        {
          "indexed": true,
          "internalType": "uint256",
          "name": "pid",
          "type": "uint256"
        },
        {
          "indexed": false,
          "internalType": "uint256",
          "name": "lastRewardTimestamp",
          "type": "uint256"
        },
        {
          "indexed": false,
          "internalType": "uint256",
          "name": "lpSupply",
          "type": "uint256"
        },
        {
          "indexed": false,
          "internalType": "uint256",
          "name": "accWomPerShare",
          "type": "uint256"
        }
      ],
      "name": "UpdatePool",
      "type": "event"
    },
    {
      "anonymous": false,
      "inputs": [
        {
          "indexed": true,
          "internalType": "address",
          "name": "user",
          "type": "address"
        },
        {
          "indexed": false,
          "internalType": "address",
          "name": "oldVeWOM",
          "type": "address"
        },
        {
          "indexed": false,
          "internalType": "address",
          "name": "newVeWOM",
          "type": "address"
        }
      ],
      "name": "UpdateVeWOM",
      "type": "event"
    },
    {
      "anonymous": false,
      "inputs": [
        {
          "indexed": true,
          "internalType": "address",
          "name": "user",
          "type": "address"
        },
        {
          "indexed": true,
          "internalType": "uint256",
          "name": "pid",
          "type": "uint256"
        },
        {
          "indexed": false,
          "internalType": "uint256",
          "name": "amount",
          "type": "uint256"
        }
      ],
      "name": "Withdraw",
      "type": "event"
    },
    {
      "inputs": [
        {
          "internalType": "uint256",
          "name": "_allocPoint",
          "type": "uint256"
        },
        {
          "internalType": "contract IERC20",
          "name": "_lpToken",
          "type": "address"
        },
        {
          "internalType": "contract IRewarder",
          "name": "_rewarder",
          "type": "address"
        }
      ],
      "name": "add",
      "outputs": [],
      "stateMutability": "nonpayable",
      "type": "function"
    },
    {
      "inputs": [],
      "name": "basePartition",
      "outputs": [
        {
          "internalType": "uint256",
          "name": "",
          "type": "uint256"
        }
      ],
      "stateMutability": "view",
      "type": "function"
    },
    {
      "inputs": [],
      "name": "boostedPartition",
      "outputs": [
        {
          "internalType": "uint256",
          "name": "",
          "type": "uint256"
        }
      ],
      "stateMutability": "view",
      "type": "function"
    },
    {
      "inputs": [
        {
          "internalType": "uint256",
          "name": "_pid",
          "type": "uint256"
        },
        {
          "internalType": "uint256",
          "name": "_amount",
          "type": "uint256"
        }
      ],
      "name": "deposit",
      "outputs": [
        {
          "internalType": "uint256",
          "name": "",
          "type": "uint256"
        },
        {
          "internalType": "uint256",
          "name": "",
          "type": "uint256"
        }
      ],
      "stateMutability": "nonpayable",
      "type": "function"
    },
    {
      "inputs": [
        {
          "internalType": "uint256",
          "name": "_pid",
          "type": "uint256"
        },
        {
          "internalType": "uint256",
          "name": "_amount",
          "type": "uint256"
        },
        {
          "internalType": "address",
          "name": "_user",
          "type": "address"
        }
      ],
      "name": "depositFor",
      "outputs": [],
      "stateMutability": "nonpayable",
      "type": "function"
    },
    {
      "inputs": [
        {
          "internalType": "uint256",
          "name": "_pid",
          "type": "uint256"
        }
      ],
      "name": "emergencyWithdraw",
      "outputs": [],
      "stateMutability": "nonpayable",
      "type": "function"
    },
    {
      "inputs": [],
      "name": "emergencyWomWithdraw",
      "outputs": [],
      "stateMutability": "nonpayable",
      "type": "function"
    },
    {
      "inputs": [
        {
          "internalType": "address",
          "name": "asset",
          "type": "address"
        }
      ],
      "name": "getAssetPid",
      "outputs": [
        {
          "internalType": "uint256",
          "name": "",
          "type": "uint256"
        }
      ],
      "stateMutability": "view",
      "type": "function"
    },
    {
      "inputs": [
        {
          "internalType": "contract IERC20",
          "name": "_wom",
          "type": "address"
        },
        {
          "internalType": "contract IVeWom",
          "name": "_veWom",
          "type": "address"
        },
        {
          "internalType": "uint256",
          "name": "_womPerSec",
          "type": "uint256"
        },
        {
          "internalType": "uint256",
          "name": "_basePartition",
          "type": "uint256"
        },
        {
          "internalType": "uint256",
          "name": "_startTimestamp",
          "type": "uint256"
        }
      ],
      "name": "initialize",
      "outputs": [],
      "stateMutability": "nonpayable",
      "type": "function"
    },
    {
      "inputs": [],
      "name": "massUpdatePools",
      "outputs": [],
      "stateMutability": "nonpayable",
      "type": "function"
    },
    {
      "inputs": [
        {
          "internalType": "uint256[]",
          "name": "_pids",
          "type": "uint256[]"
        }
      ],
      "name": "migrate",
      "outputs": [],
      "stateMutability": "nonpayable",
      "type": "function"
    },
    {
      "inputs": [
        {
          "internalType": "uint256[]",
          "name": "_pids",
          "type": "uint256[]"
        }
      ],
      "name": "multiClaim",
      "outputs": [
        {
          "internalType": "uint256",
          "name": "",
          "type": "uint256"
        },
        {
          "internalType": "uint256[]",
          "name": "",
          "type": "uint256[]"
        },
        {
          "internalType": "uint256[]",
          "name": "",
          "type": "uint256[]"
        }
      ],
      "stateMutability": "nonpayable",
      "type": "function"
    },
    {
      "inputs": [],
      "name": "owner",
      "outputs": [
        {
          "internalType": "address",
          "name": "",
          "type": "address"
        }
      ],
      "stateMutability": "view",
      "type": "function"
    },
    {
      "inputs": [],
      "name": "pause",
      "outputs": [],
      "stateMutability": "nonpayable",
      "type": "function"
    },
    {
      "inputs": [],
      "name": "paused",
      "outputs": [
        {
          "internalType": "bool",
          "name": "",
          "type": "bool"
        }
      ],
      "stateMutability": "view",
      "type": "function"
    },
    {
      "inputs": [
        {
          "internalType": "uint256",
          "name": "_pid",
          "type": "uint256"
        },
        {
          "internalType": "address",
          "name": "_user",
          "type": "address"
        }
      ],
      "name": "pendingTokens",
      "outputs": [
        {
          "internalType": "uint256",
          "name": "pendingRewards",
          "type": "uint256"
        },
        {
          "internalType": "address",
          "name": "bonusTokenAddress",
          "type": "address"
        },
        {
          "internalType": "string",
          "name": "bonusTokenSymbol",
          "type": "string"
        },
        {
          "internalType": "uint256",
          "name": "pendingBonusRewards",
          "type": "uint256"
        }
      ],
      "stateMutability": "view",
      "type": "function"
    },
    {
      "inputs": [
        {
          "internalType": "uint256",
          "name": "",
          "type": "uint256"
        },
        {
          "internalType": "address",
          "name": "",
          "type": "address"
        }
      ],
      "name": "pendingWom",
      "outputs": [
        {
          "internalType": "uint256",
          "name": "",
          "type": "uint256"
        }
      ],
      "stateMutability": "view",
      "type": "function"
    },
    {
      "inputs": [
        {
          "internalType": "uint256",
          "name": "",
          "type": "uint256"
        }
      ],
      "name": "poolInfo",
      "outputs": [
        {
          "internalType": "contract IERC20",
          "name": "lpToken",
          "type": "address"
        },
        {
          "internalType": "uint256",
          "name": "allocPoint",
          "type": "uint256"
        },
        {
          "internalType": "uint256",
          "name": "lastRewardTimestamp",
          "type": "uint256"
        },
        {
          "internalType": "uint256",
          "name": "accWomPerShare",
          "type": "uint256"
        },
        {
          "internalType": "contract IRewarder",
          "name": "rewarder",
          "type": "address"
        },
        {
          "internalType": "uint256",
          "name": "sumOfFactors",
          "type": "uint256"
        },
        {
          "internalType": "uint256",
          "name": "accWomPerFactorShare",
          "type": "uint256"
        }
      ],
      "stateMutability": "view",
      "type": "function"
    },
    {
      "inputs": [],
      "name": "poolLength",
      "outputs": [
        {
          "internalType": "uint256",
          "name": "",
          "type": "uint256"
        }
      ],
      "stateMutability": "view",
      "type": "function"
    },
    {
      "inputs": [],
      "name": "renounceOwnership",
      "outputs": [],
      "stateMutability": "nonpayable",
      "type": "function"
    },
    {
      "inputs": [
        {
          "internalType": "uint256",
          "name": "_pid",
          "type": "uint256"
        }
      ],
      "name": "rewarderBonusTokenInfo",
      "outputs": [
        {
          "internalType": "address",
          "name": "bonusTokenAddress",
          "type": "address"
        },
        {
          "internalType": "string",
          "name": "bonusTokenSymbol",
          "type": "string"
        }
      ],
      "stateMutability": "view",
      "type": "function"
    },
    {
      "inputs": [
        {
          "internalType": "uint256",
          "name": "_pid",
          "type": "uint256"
        },
        {
          "internalType": "uint256",
          "name": "_allocPoint",
          "type": "uint256"
        },
        {
          "internalType": "contract IRewarder",
          "name": "_rewarder",
          "type": "address"
        },
        {
          "internalType": "bool",
          "name": "overwrite",
          "type": "bool"
        }
      ],
      "name": "set",
      "outputs": [],
      "stateMutability": "nonpayable",
      "type": "function"
    },
    {
      "inputs": [
        {
          "internalType": "contract IMasterWombat",
          "name": "_newMasterWombat",
          "type": "address"
        }
      ],
      "name": "setNewMasterWombat",
      "outputs": [],
      "stateMutability": "nonpayable",
      "type": "function"
    },
    {
      "inputs": [
        {
          "internalType": "contract IVeWom",
          "name": "_newVeWom",
          "type": "address"
        }
      ],
      "name": "setVeWom",
      "outputs": [],
      "stateMutability": "nonpayable",
      "type": "function"
    },
    {
      "inputs": [],
      "name": "startTimestamp",
      "outputs": [
        {
          "internalType": "uint256",
          "name": "",
          "type": "uint256"
        }
      ],
      "stateMutability": "view",
      "type": "function"
    },
    {
      "inputs": [],
      "name": "totalAllocPoint",
      "outputs": [
        {
          "internalType": "uint256",
          "name": "",
          "type": "uint256"
        }
      ],
      "stateMutability": "view",
      "type": "function"
    },
    {
      "inputs": [
        {
          "internalType": "address",
          "name": "newOwner",
          "type": "address"
        }
      ],
      "name": "transferOwnership",
      "outputs": [],
      "stateMutability": "nonpayable",
      "type": "function"
    },
    {
      "inputs": [],
      "name": "unpause",
      "outputs": [],
      "stateMutability": "nonpayable",
      "type": "function"
    },
    {
      "inputs": [
        {
          "internalType": "uint256",
          "name": "_basePartition",
          "type": "uint256"
        }
      ],
      "name": "updateEmissionPartition",
      "outputs": [],
      "stateMutability": "nonpayable",
      "type": "function"
    },
    {
      "inputs": [
        {
          "internalType": "uint256",
          "name": "_womPerSec",
          "type": "uint256"
        }
      ],
      "name": "updateEmissionRate",
      "outputs": [],
      "stateMutability": "nonpayable",
      "type": "function"
    },
    {
      "inputs": [
        {
          "internalType": "address",
          "name": "_user",
          "type": "address"
        },
        {
          "internalType": "uint256",
          "name": "_newVeWomBalance",
          "type": "uint256"
        }
      ],
      "name": "updateFactor",
      "outputs": [],
      "stateMutability": "nonpayable",
      "type": "function"
    },
    {
      "inputs": [
        {
          "internalType": "uint256",
          "name": "_pid",
          "type": "uint256"
        }
      ],
      "name": "updatePool",
      "outputs": [],
      "stateMutability": "nonpayable",
      "type": "function"
    },
    {
      "inputs": [
        {
          "internalType": "uint256",
          "name": "",
          "type": "uint256"
        },
        {
          "internalType": "address",
          "name": "",
          "type": "address"
        }
      ],
      "name": "userInfo",
      "outputs": [
        {
          "internalType": "uint256",
          "name": "amount",
          "type": "uint256"
        },
        {
          "internalType": "uint256",
          "name": "rewardDebt",
          "type": "uint256"
        },
        {
          "internalType": "uint256",
          "name": "factor",
          "type": "uint256"
        }
      ],
      "stateMutability": "view",
      "type": "function"
    },
    {
      "inputs": [],
      "name": "veWom",
      "outputs": [
        {
          "internalType": "contract IVeWom",
          "name": "",
          "type": "address"
        }
      ],
      "stateMutability": "view",
      "type": "function"
    },
    {
      "inputs": [
        {
          "internalType": "uint256",
          "name": "_pid",
          "type": "uint256"
        },
        {
          "internalType": "uint256",
          "name": "_amount",
          "type": "uint256"
        }
      ],
      "name": "withdraw",
      "outputs": [
        {
          "internalType": "uint256",
          "name": "",
          "type": "uint256"
        },
        {
          "internalType": "uint256",
          "name": "",
          "type": "uint256"
        }
      ],
      "stateMutability": "nonpayable",
      "type": "function"
    },
    {
      "inputs": [],
      "name": "wom",
      "outputs": [
        {
          "internalType": "contract IERC20",
          "name": "",
          "type": "address"
        }
      ],
      "stateMutability": "view",
      "type": "function"
    },
    {
      "inputs": [],
      "name": "womPerSec",
      "outputs": [
        {
          "internalType": "uint256",
          "name": "",
          "type": "uint256"
        }
      ],
      "stateMutability": "view",
      "type": "function"
    }
  ],
  "transactionHash": "0x22993053d23ea4ddb2197f3248e81610625585c5563015ff7bc3a7fcf1f07bf8",
  "args": [],
  "solcInputHash": "d8b97e2a7f279de4fbf4a166071e52f7",
  "bytecode": "0x608060405234801561001057600080fd5b5061444e806100206000396000f3fe608060405234801561001057600080fd5b50600436106102775760003560e01c806390210d7e11610160578063c5a6222e116100d8578063e6fd48bc1161008c578063f2fde38b11610071578063f2fde38b1461058b578063f98ed45c1461059e578063ffcd4263146105b157600080fd5b8063e6fd48bc1461057a578063f13e55071461058357600080fd5b8063d1e2ac88116100bd578063d1e2ac8814610541578063d93bf4fe14610554578063e2bbb1581461056757600080fd5b8063c5a6222e1461051b578063d13f90b41461052e57600080fd5b8063ab7de0981161012f578063af929a8011610114578063af929a80146104de578063bc70fdbc146104f1578063be159bea1461051257600080fd5b8063ab7de098146104c2578063abfef111146104d557600080fd5b806390210d7e1461041c57806393f1a40b1461042f5780639b128de614610484578063a7bb616b1461049757600080fd5b806351eb05a6116101f3578063715018a6116101c257806388bba42f116101a757806388bba42f146103ef5780638a81372f146104025780638da5cb5b1461040b57600080fd5b8063715018a6146103df5780638456cb59146103e757600080fd5b806351eb05a61461039b5780635312ea8e146103ae5780635c975abb146103c1578063630b5ba1146103d757600080fd5b80633e582ae61161024a578063441a3e701161022f578063441a3e701461033e5780634ed73d28146103665780634f00a93e1461038857600080fd5b80633e582ae61461030b5780633f4ba83a1461033657600080fd5b8063081e3eda1461027c5780630ba84cd2146102935780631526fe27146102a857806317caf6f114610302575b600080fd5b60d1545b6040519081526020015b60405180910390f35b6102a66102a1366004614047565b6105d4565b005b6102bb6102b6366004614047565b610667565b604080516001600160a01b03988916815260208101979097528601949094526060850192909252909316608083015260a082019290925260c081019190915260e00161028a565b61028060cf5481565b60ca5461031e906001600160a01b031681565b6040516001600160a01b03909116815260200161028a565b6102a66106c2565b61035161034c3660046140eb565b610714565b6040805192835260208301919091520161028a565b610379610374366004613e7b565b610b65565b60405161028a93929190614276565b6102a6610396366004613dda565b610c23565b6102a66103a9366004614047565b610e43565b6102a66103bc366004614047565b610e4f565b60975460ff16604051901515815260200161028a565b6102a6610f71565b6102a6610f9c565b6102a6610fee565b6102a66103fd36600461413b565b61103e565b61028060cc5481565b6033546001600160a01b031661031e565b6102a661042a36600461410d565b61124b565b61046961043d366004614079565b60d460209081526000928352604080842090915290825290208054600182015460029092015490919083565b6040805193845260208401929092529082015260600161028a565b6102a6610492366004613dbd565b611639565b6102806104a5366004614079565b60d560209081526000928352604080842090915290825290205481565b6102a66104d03660046140a9565b6116ff565b61028060cd5481565b6102806104ec366004613dbd565b611ab2565b6105046104ff366004614047565b611add565b60405161028a929190614208565b61028060ce5481565b60c95461031e906001600160a01b031681565b6102a661053c366004613f62565b611cb8565b6102a661054f366004613dbd565b611ef6565b6102a6610562366004613e06565b611f60565b6103516105753660046140eb565b612252565b61028060d05481565b6102a66125ed565b6102a6610599366004613dbd565b6126c9565b6102a66105ac366004614047565b612796565b6105c46105bf366004614079565b61284d565b60405161028a949392919061423d565b6033546001600160a01b031633146106215760405162461bcd60e51b815260206004820181905260248201526000805160206143f983398151915260448201526064015b60405180910390fd5b610629610f71565b60cc81905560405181815233907fe2492e003bbe8afa53088b406f0c1cb5d9e280370fc72a74cf116ffd343c4053906020015b60405180910390a250565b60d1818154811061067757600080fd5b600091825260209091206007909102018054600182015460028301546003840154600485015460058601546006909601546001600160a01b0395861697509395929491939116919087565b6033546001600160a01b0316331461070a5760405162461bcd60e51b815260206004820181905260248201526000805160206143f98339815191526044820152606401610618565b610712612b4b565b565b6000806002606554141561076a5760405162461bcd60e51b815260206004820152601f60248201527f5265656e7472616e637947756172643a207265656e7472616e742063616c6c006044820152606401610618565b600260655560975460ff16156107b55760405162461bcd60e51b815260206004820152601060248201526f14185d5cd8589b194e881c185d5cd95960821b6044820152606401610618565b600060d185815481106107ca576107ca6143a9565b6000918252602080832088845260d48252604080852033865290925292208054600790920290920192508511156108435760405162461bcd60e51b815260206004820152601260248201527f77697468647261773a206e6f7420676f6f6400000000000000000000000000006044820152606401610618565b61084c86612be7565b6001810154600087815260d5602090815260408083203384529091528120546006850154600285015492939264e8d4a510009161088891614316565b600387015486546108999190614316565b6108a391906142dc565b6108ad91906142f4565b6108b791906142dc565b6108c19190614335565b600088815260d5602090815260408083203380855292528220919091559091506108eb9082612dea565b905086336001600160a01b03167f71bab65ced2e5750775a0613be067df48ef06cf92a496ebf7663ae06609249548360405161092991815260200190565b60405180910390a360028201548254610943908890614335565b835560ca546040516370a0823160e01b81523360048201526109d6916001600160a01b0316906370a08231906024015b60206040518083038186803b15801561098b57600080fd5b505afa15801561099f573d6000803e3d6000fd5b505050506040513d601f19601f820116820180604052508101906109c39190614060565b84546109cf9190614316565b8454612fe1565b60028401819055600585015482916109ed916142dc565b6109f79190614335565b60058501556006840154600284015464e8d4a5100091610a1691614316565b60038601548554610a279190614316565b610a3191906142dc565b610a3b91906142f4565b8360010181905550600060d18981548110610a5857610a586143a9565b600091825260208220600460079092020101546001600160a01b031691508115610b0257845460405163186e465160e31b815233600482015260248101919091526001600160a01b0383169063c372328890604401602060405180830381600087803b158015610ac757600080fd5b505af1158015610adb573d6000803e3d6000fd5b505050506040513d601f19601f82011682018060405250810190610aff9190614060565b90505b8554610b18906001600160a01b0316338b613074565b6040518981528a9033907ff279e6a1f5e320cca91135676d9cb6e44ca8a08c0b88342bcdb1144f6511b568906020015b60405180910390a360016065559299929850919650505050505050565b600060608060026065541415610bbd5760405162461bcd60e51b815260206004820152601f60248201527f5265656e7472616e637947756172643a207265656e7472616e742063616c6c006044820152606401610618565b600260655560975460ff1615610c085760405162461bcd60e51b815260206004820152601060248201526f14185d5cd8589b194e881c185d5cd95960821b6044820152606401610618565b610c1184613109565b92509250925060016065559193909250565b60ca546001600160a01b03163314610ca35760405162461bcd60e51b815260206004820152602160248201527f4d6173746572576f6d6261743a2063616c6c6572206973206e6f74205665576f60448201527f6d000000000000000000000000000000000000000000000000000000000000006064820152608401610618565b60d15460005b81811015610e3d57600081815260d4602090815260408083206001600160a01b038816845290915290208054610cdf5750610e2d565b600060d18381548110610cf457610cf46143a9565b90600052602060002090600702019050610d0d83612be7565b6000826001015464e8d4a5100083600601548560020154610d2e9190614316565b60038501548654610d3f9190614316565b610d4991906142dc565b610d5391906142f4565b610d5d9190614335565b600085815260d5602090815260408083206001600160a01b038c168452909152812080549293508392909190610d949084906142dc565b909155505060028301548354600090610db990610db2908a90614316565b8654612fe1565b60028601819055600685015490915064e8d4a5100090610dd99083614316565b60038601548754610dea9190614316565b610df491906142dc565b610dfe91906142f4565b600186015560058401548290610e159083906142dc565b610e1f9190614335565b846005018190555050505050505b610e3681614378565b9050610ca9565b50505050565b610e4c81612be7565b50565b60026065541415610ea25760405162461bcd60e51b815260206004820152601f60248201527f5265656e7472616e637947756172643a207265656e7472616e742063616c6c006044820152606401610618565b6002606581905550600060d18281548110610ebf57610ebf6143a9565b6000918252602080832085845260d482526040808520338087529352909320805460079093029093018054909450610f04926001600160a01b03919091169190613074565b80600201548260050154610f189190614335565b600583015560006002820181905580825560018201819055604051908152839033907fbb757047c2b5f3974fe26b7c10f732e7bce710b0952a71082702781e62ae05959060200160405180910390a35050600160655550565b60d15460005b81811015610f9857610f8881612be7565b610f9181614378565b9050610f77565b5050565b6033546001600160a01b03163314610fe45760405162461bcd60e51b815260206004820181905260248201526000805160206143f98339815191526044820152606401610618565b6107126000613615565b6033546001600160a01b031633146110365760405162461bcd60e51b815260206004820181905260248201526000805160206143f98339815191526044820152606401610618565b610712613667565b6033546001600160a01b031633146110865760405162461bcd60e51b815260206004820181905260248201526000805160206143f98339815191526044820152606401610618565b813b15158061109c57506001600160a01b038216155b6110f75760405162461bcd60e51b815260206004820152602660248201527f7365743a207265776172646572206d75737420626520636f6e7472616374206f60448201526572207a65726f60d01b6064820152608401610618565b6110ff610f71565b8260d18581548110611113576111136143a9565b90600052602060002090600702016001015460cf546111329190614335565b61113c91906142dc565b60cf819055508260d18581548110611156576111566143a9565b90600052602060002090600702016001018190555080156111bb578160d18581548110611185576111856143a9565b906000526020600020906007020160040160006101000a8154816001600160a01b0302191690836001600160a01b031602179055505b806111f55760d184815481106111d3576111d36143a9565b60009182526020909120600460079092020101546001600160a01b03166111f7565b815b6001600160a01b0316847fa54644aae5c48c5971516f334e4fe8ecbc7930e23f34877d4203c6551e67ffaa858460405161123d9291909182521515602082015260400190565b60405180910390a350505050565b6002606554141561129e5760405162461bcd60e51b815260206004820152601f60248201527f5265656e7472616e637947756172643a207265656e7472616e742063616c6c006044820152606401610618565b6002606581905550600060d184815481106112bb576112bb6143a9565b6000918252602080832087845260d4825260408085206001600160a01b03881686529092529220600790910290910191506112f585612be7565b8054156113f1576001810154600086815260d5602090815260408083206001600160a01b03881684529091528120546006850154600285015492939264e8d4a510009161134191614316565b600387015486546113529190614316565b61135c91906142dc565b61136691906142f4565b61137091906142dc565b61137a9190614335565b600087815260d5602090815260408083206001600160a01b038916845290915281205590506113a98482612dea565b905085846001600160a01b03167f71bab65ced2e5750775a0613be067df48ef06cf92a496ebf7663ae0660924954836040516113e791815260200190565b60405180910390a3505b8381600001600082825461140591906142dc565b9091555050600281015460ca546040516370a0823160e01b81526001600160a01b0386811660048301526114a19216906370a082319060240160206040518083038186803b15801561145657600080fd5b505afa15801561146a573d6000803e3d6000fd5b505050506040513d601f19601f8201168201806040525081019061148e9190614060565b835461149a9190614316565b8354612fe1565b60028301819055600584015482916114b8916142dc565b6114c29190614335565b60058401556006830154600283015464e8d4a51000916114e191614316565b600385015484546114f29190614316565b6114fc91906142dc565b61150691906142f4565b8260010181905550600060d18781548110611523576115236143a9565b60009182526020909120600460079092020101546001600160a01b0316905080156115d057825460405163186e465160e31b81526001600160a01b03878116600483015260248201929092529082169063c372328890604401602060405180830381600087803b15801561159657600080fd5b505af11580156115aa573d6000803e3d6000fd5b505050506040513d601f19601f820116820180604052508101906115ce9190614060565b505b83546115e7906001600160a01b03163330896136e2565b86856001600160a01b03167f16f3fbfd4bcc50a5cecb2e53e398a1ad77d89f63288ef540d862b264ed57eb1f8860405161162391815260200190565b60405180910390a3505060016065555050505050565b6033546001600160a01b031633146116815760405162461bcd60e51b815260206004820181905260248201526000805160206143f98339815191526044820152606401610618565b6001600160a01b03811661169457600080fd5b61169c610f71565b60ca80546001600160a01b038381166001600160a01b0319831681179093556040805191909216808252602082019390935233917fa0956d8e03557278fdb89913cec4e0f21da09587edf25b3eecc0079cdb757ef5910160405180910390a25050565b6033546001600160a01b031633146117475760405162461bcd60e51b815260206004820181905260248201526000805160206143f98339815191526044820152606401610618565b813b6117bb5760405162461bcd60e51b815260206004820152602660248201527f6164643a204c5020746f6b656e206d75737420626520612076616c696420636f60448201527f6e747261637400000000000000000000000000000000000000000000000000006064820152608401610618565b803b1515806117d157506001600160a01b038116155b61182c5760405162461bcd60e51b815260206004820152602660248201527f6164643a207265776172646572206d75737420626520636f6e7472616374206f60448201526572207a65726f60d01b6064820152608401610618565b61183760d283613733565b156118845760405162461bcd60e51b815260206004820152601560248201527f6164643a204c5020616c726561647920616464656400000000000000000000006044820152606401610618565b61188c610f71565b600060d054421161189f5760d0546118a1565b425b90508360cf546118b191906142dc565b60cf556040805160e0810182526001600160a01b0380861680835260208084018981528486018781526000606087018181528a87166080890190815260a0890183815260c08a0184815260d180546001810182558187529b516007909c027f695fb3134ad82c3b8022bc5464edd0bcc9424ef672b52245dcb6ab2374327ce3810180549d8d166001600160a01b03199e8f1617905597517f695fb3134ad82c3b8022bc5464edd0bcc9424ef672b52245dcb6ab2374327ce489015595517f695fb3134ad82c3b8022bc5464edd0bcc9424ef672b52245dcb6ab2374327ce588015592517f695fb3134ad82c3b8022bc5464edd0bcc9424ef672b52245dcb6ab2374327ce687015590517f695fb3134ad82c3b8022bc5464edd0bcc9424ef672b52245dcb6ab2374327ce7860180549190991699169890981790965595517f695fb3134ad82c3b8022bc5464edd0bcc9424ef672b52245dcb6ab2374327ce883015593517f695fb3134ad82c3b8022bc5464edd0bcc9424ef672b52245dcb6ab2374327ce990910155915490835260d690915291902055611a5260d284613758565b50816001600160a01b0316836001600160a01b0316600160d180549050611a799190614335565b6040518781527f4b16bd2431ad24dc020ab0e1de7fcb6563dead6a24fb10089d6c23e97a70381f9060200160405180910390a450505050565b6001600160a01b038116600090815260d66020526040812054611ad790600190614335565b92915050565b60006060600060d18481548110611af657611af66143a9565b6000918252602090912060079091020160048101549091506001600160a01b031615611cb257600480820154604080517ff7c618c100000000000000000000000000000000000000000000000000000000815290516001600160a01b039092169263f7c618c1928282019260209290829003018186803b158015611b7957600080fd5b505afa158015611b8d573d6000803e3d6000fd5b505050506040513d601f19601f82011682018060405250810190611bb19190613f45565b92508060040160009054906101000a90046001600160a01b03166001600160a01b031663f7c618c16040518163ffffffff1660e01b815260040160206040518083038186803b158015611c0357600080fd5b505afa158015611c17573d6000803e3d6000fd5b505050506040513d601f19601f82011682018060405250810190611c3b9190613f45565b6001600160a01b03166395d89b416040518163ffffffff1660e01b815260040160006040518083038186803b158015611c7357600080fd5b505afa158015611c87573d6000803e3d6000fd5b505050506040513d6000823e601f3d908101601f19168201604052611caf9190810190613fb3565b91505b50915091565b600054610100900460ff1680611cd1575060005460ff16155b611d345760405162461bcd60e51b815260206004820152602e60248201527f496e697469616c697a61626c653a20636f6e747261637420697320616c72656160448201526d191e481a5b9a5d1a585b1a5e995960921b6064820152608401610618565b600054610100900460ff16158015611d56576000805461ffff19166101011790555b6001600160a01b038616611dac5760405162461bcd60e51b815260206004820152601a60248201527f776f6d20616464726573732063616e6e6f74206265207a65726f0000000000006044820152606401610618565b83611df95760405162461bcd60e51b815260206004820152601a60248201527f776f6d20706572207365632063616e6e6f74206265207a65726f0000000000006044820152606401610618565b6103e8831115611e715760405162461bcd60e51b815260206004820152602760248201527f6261736520706172746974696f6e206d75737420626520696e2072616e67652060448201527f302c2031303030000000000000000000000000000000000000000000000000006064820152608401610618565b611e7961376d565b611e8161382f565b611e896138e6565b60c980546001600160a01b038089166001600160a01b03199283161790925560ca80549288169290911691909117905560cc84905560cd839055611ecf836103e8614335565b60ce5560d0829055600060cf558015611eee576000805461ff00191690555b505050505050565b6033546001600160a01b03163314611f3e5760405162461bcd60e51b815260206004820181905260248201526000805160206143f98339815191526044820152606401610618565b60cb80546001600160a01b0319166001600160a01b0392909216919091179055565b60026065541415611fb35760405162461bcd60e51b815260206004820152601f60248201527f5265656e7472616e637947756172643a207265656e7472616e742063616c6c006044820152606401610618565b600260655560cb546001600160a01b03166120105760405162461bcd60e51b815260206004820152600960248201527f746f2077686572653f00000000000000000000000000000000000000000000006044820152606401610618565b61204c82828080602002602001604051908101604052809392919081815260200183836020028082843760009201919091525061310992505050565b50505060005b8181101561224857600083838381811061206e5761206e6143a9565b60209081029290920135600081815260d4845260408082203383529094529290922080549293509115905061223557600060d183815481106120b2576120b26143a9565b60009182526020909120600790910201805460cb5484546040517f095ea7b30000000000000000000000000000000000000000000000000000000081526001600160a01b0392831660048201526024810191909152929350169063095ea7b390604401602060405180830381600087803b15801561212f57600080fd5b505af1158015612143573d6000803e3d6000fd5b505050506040513d601f19601f820116820180604052508101906121679190613f28565b5060cb5482546040517f90210d7e0000000000000000000000000000000000000000000000000000000081526004810186905260248101919091523360448201526001600160a01b03909116906390210d7e90606401600060405180830381600087803b1580156121d757600080fd5b505af11580156121eb573d6000803e3d6000fd5b5050505081600201548160050160008282546122079190614335565b909155505050600082815260d460209081526040808320338452909152812081815560018101829055600201555b50508061224190614378565b9050612052565b5050600160655550565b600080600260655414156122a85760405162461bcd60e51b815260206004820152601f60248201527f5265656e7472616e637947756172643a207265656e7472616e742063616c6c006044820152606401610618565b600260655560975460ff16156122f35760405162461bcd60e51b815260206004820152601060248201526f14185d5cd8589b194e881c185d5cd95960821b6044820152606401610618565b600060d18581548110612308576123086143a9565b6000918252602080832088845260d48252604080852033865290925292206007909102909101915061233986612be7565b805460009015612426576001820154600088815260d5602090815260408083203384529091529020546006850154600285015464e8d4a510009161237c91614316565b6003870154865461238d9190614316565b61239791906142dc565b6123a191906142f4565b6123ab91906142dc565b6123b59190614335565b600088815260d5602090815260408083203380855292528220919091559091506123df9082612dea565b905086336001600160a01b03167f71bab65ced2e5750775a0613be067df48ef06cf92a496ebf7663ae06609249548360405161241d91815260200190565b60405180910390a35b8582600001600082825461243a91906142dc565b9091555050600282015460ca546040516370a0823160e01b8152336004820152612476916001600160a01b0316906370a0823190602401610973565b600284018190556005850154829161248d916142dc565b6124979190614335565b60058501556006840154600284015464e8d4a51000916124b691614316565b600386015485546124c79190614316565b6124d191906142dc565b6124db91906142f4565b8360010181905550600060d189815481106124f8576124f86143a9565b600091825260208220600460079092020101546001600160a01b0316915081156125a257845460405163186e465160e31b815233600482015260248101919091526001600160a01b0383169063c372328890604401602060405180830381600087803b15801561256757600080fd5b505af115801561257b573d6000803e3d6000fd5b505050506040513d601f19601f8201168201806040525081019061259f9190614060565b90505b85546125b9906001600160a01b031633308c6136e2565b6040518981528a9033907f90890809c654f11d6e72a28fa60149770a0d11ec6c92319d6ceb2bb0a4ea1a1590602001610b48565b6033546001600160a01b031633146126355760405162461bcd60e51b815260206004820181905260248201526000805160206143f98339815191526044820152606401610618565b60c9546040516370a0823160e01b81523060048201526107129133916001600160a01b03909116906370a082319060240160206040518083038186803b15801561267e57600080fd5b505afa158015612692573d6000803e3d6000fd5b505050506040513d601f19601f820116820180604052508101906126b69190614060565b60c9546001600160a01b03169190613074565b6033546001600160a01b031633146127115760405162461bcd60e51b815260206004820181905260248201526000805160206143f98339815191526044820152606401610618565b6001600160a01b03811661278d5760405162461bcd60e51b815260206004820152602660248201527f4f776e61626c653a206e6577206f776e657220697320746865207a65726f206160448201527f64647265737300000000000000000000000000000000000000000000000000006064820152608401610618565b610e4c81613615565b6033546001600160a01b031633146127de5760405162461bcd60e51b815260206004820181905260248201526000805160206143f98339815191526044820152606401610618565b6103e88111156127ed57600080fd5b6127f5610f71565b60cd819055612806816103e8614335565b60ce55337f7fd921cf733c788915a229b0ea58095c44ae2c275ed7835501e5135fe3c1ed0582612838816103e8614335565b6040805192835260208301919091520161065c565b600080606060008060d18781548110612868576128686143a9565b600091825260208083208a845260d4825260408085206001600160a01b038c81168752935280852060079490940290910160038101546006820154825493516370a0823160e01b81523060048201529297509495909493909216906370a082319060240160206040518083038186803b1580156128e457600080fd5b505afa1580156128f8573d6000803e3d6000fd5b505050506040513d601f19601f8201168201806040525081019061291c9190614060565b905084600201544211801561293057508015155b15612a085760008560020154426129479190614335565b9050600060cf54876001015460cc54846129619190614316565b61296b9190614316565b61297591906142f4565b9050612983836103e8614316565b60cd546129958364e8d4a51000614316565b61299f9190614316565b6129a991906142f4565b6129b390866142dc565b94508660050154600014612a055760058701546129d2906103e8614316565b60ce546129e48364e8d4a51000614316565b6129ee9190614316565b6129f891906142f4565b612a0290856142dc565b93505b50505b600184015460008c815260d5602090815260408083206001600160a01b038f168452909152902054600286015464e8d4a5100090612a47908690614316565b8754612a54908890614316565b612a5e91906142dc565b612a6891906142f4565b612a7291906142dc565b612a7c9190614335565b60048601549099506001600160a01b031615612b3d57612a9b8b611add565b6004878101546040517fc031a66f0000000000000000000000000000000000000000000000000000000081526001600160a01b038f811693820193909352939b50919950169063c031a66f9060240160206040518083038186803b158015612b0257600080fd5b505afa158015612b16573d6000803e3d6000fd5b505050506040513d601f19601f82011682018060405250810190612b3a9190614060565b95505b505050505092959194509250565b60975460ff16612b9d5760405162461bcd60e51b815260206004820152601460248201527f5061757361626c653a206e6f74207061757365640000000000000000000000006044820152606401610618565b6097805460ff191690557f5db9ee0a495bf2e6ff9c91a7834c1ba4fdd244a5e8aa4e537bd38aeae4b073aa335b6040516001600160a01b03909116815260200160405180910390a1565b600060d18281548110612bfc57612bfc6143a9565b906000526020600020906007020190508060020154421115610f985780546040516370a0823160e01b81523060048201526000916001600160a01b0316906370a082319060240160206040518083038186803b158015612c5b57600080fd5b505afa158015612c6f573d6000803e3d6000fd5b505050506040513d601f19601f82011682018060405250810190612c939190614060565b905080612ca557504260029091015550565b6000826002015442612cb79190614335565b9050600060cf54846001015460cc5484612cd19190614316565b612cdb9190614316565b612ce591906142f4565b9050612cf3836103e8614316565b60cd54612d058364e8d4a51000614316565b612d0f9190614316565b612d1991906142f4565b846003016000828254612d2c91906142dc565b90915550506005840154612d465760006006850155612d96565b6005840154612d57906103e8614316565b60ce54612d698364e8d4a51000614316565b612d739190614316565b612d7d91906142f4565b846006016000828254612d9091906142dc565b90915550505b42600285018190556003850154604080519283526020830186905282015285907f3be3541fc42237d611b30329040bfa4569541d156560acdbbae57640d20b8f469060600160405180910390a25050505050565b60c9546040516370a0823160e01b815230600482015260009182916001600160a01b03909116906370a082319060240160206040518083038186803b158015612e3257600080fd5b505afa158015612e46573d6000803e3d6000fd5b505050506040513d601f19601f82011682018060405250810190612e6a9190614060565b905060008111612ebc5760405162461bcd60e51b815260206004820152601760248201527f4e6f20746f6b656e7320746f20646973747269627574650000000000000000006044820152606401610618565b80831115612f525760c95460405163a9059cbb60e01b81526001600160a01b038681166004830152602482018490529091169063a9059cbb90604401602060405180830381600087803b158015612f1257600080fd5b505af1158015612f26573d6000803e3d6000fd5b505050506040513d601f19601f82011682018060405250810190612f4a9190613f28565b509050611ad7565b60c95460405163a9059cbb60e01b81526001600160a01b038681166004830152602482018690529091169063a9059cbb90604401602060405180830381600087803b158015612fa057600080fd5b505af1158015612fb4573d6000803e3d6000fd5b505050506040513d601f19601f82011682018060405250810190612fd89190613f28565b50919392505050565b600060038311156130655782821180612ff8575081155b15613004575081613007565b50805b600060028261301681876142f4565b61302091906142dc565b61302a91906142f4565b90505b81811461305f5790508060028161304481876142f4565b61304e91906142dc565b61305891906142f4565b905061302d565b50611ad7565b8215611ad75750600192915050565b6040516001600160a01b03831660248201526044810182905261310490849063a9059cbb60e01b906064015b60408051601f198184030181529190526020810180517bffffffffffffffffffffffffffffffffffffffffffffffffffffffff167fffffffff00000000000000000000000000000000000000000000000000000000909316929092179091526139a2565b505050565b6000606080600080855167ffffffffffffffff81111561312b5761312b6143bf565b604051908082528060200260200182016040528015613154578160200160208202803683370190505b5090506000865167ffffffffffffffff811115613173576131736143bf565b60405190808252806020026020018201604052801561319c578160200160208202803683370190505b50905060005b875181101561347957600060d460008a84815181106131c3576131c36143a9565b60209081029190910181015182528181019290925260409081016000908120338252909252902080549091501561346857613216898381518110613209576132096143a9565b6020026020010151612be7565b600060d18a848151811061322c5761322c6143a9565b602002602001015181548110613244576132446143a9565b906000526020600020906007020190506000826001015460d560008d8781518110613271576132716143a9565b602002602001015181526020019081526020016000206000336001600160a01b03166001600160a01b031681526020019081526020016000205464e8d4a51000846006015486600201546132c59190614316565b600386015487546132d69190614316565b6132e091906142dc565b6132ea91906142f4565b6132f491906142dc565b6132fe9190614335565b9050600060d560008d8781518110613318576133186143a9565b602090810291909101810151825281810192909252604090810160009081203382529092529020556006820154600284015464e8d4a510009161335a91614316565b6003840154855461336b9190614316565b61337591906142dc565b61337f91906142f4565b600184015561338e81886142dc565b9650808685815181106133a3576133a36143a9565b602090810291909101015260048201546001600160a01b0316801561346457835460405163186e465160e31b815233600482015260248101919091526001600160a01b0382169063c372328890604401602060405180830381600087803b15801561340d57600080fd5b505af1158015613421573d6000803e3d6000fd5b505050506040513d601f19601f820116820180604052508101906134459190614060565b868681518110613457576134576143a9565b6020026020010181815250505b5050505b5061347281614378565b90506131a2565b5060006134863385612dea565b90508381146135755760005b885181101561356f57848482815181106134ae576134ae6143a9565b6020026020010151836134c19190614316565b6134cb91906142f4565b8482815181106134dd576134dd6143a9565b6020026020010181815250508881815181106134fb576134fb6143a9565b6020026020010151336001600160a01b03167f71bab65ced2e5750775a0613be067df48ef06cf92a496ebf7663ae0660924954868481518110613540576135406143a9565b602002602001015160405161355791815260200190565b60405180910390a361356881614378565b9050613492565b50613609565b60005b885181101561360757888181518110613593576135936143a9565b6020026020010151336001600160a01b03167f71bab65ced2e5750775a0613be067df48ef06cf92a496ebf7663ae06609249548684815181106135d8576135d86143a9565b60200260200101516040516135ef91815260200190565b60405180910390a361360081614378565b9050613578565b505b97919650945092505050565b603380546001600160a01b038381166001600160a01b0319831681179093556040519116919082907f8be0079c531659141344cd1fd0a4f28419497f9722a3daafe3b4186f6b6457e090600090a35050565b60975460ff16156136ad5760405162461bcd60e51b815260206004820152601060248201526f14185d5cd8589b194e881c185d5cd95960821b6044820152606401610618565b6097805460ff191660011790557f62e78cea01bee320cd4e420270b5ea74000d11b0c9f74754ebdbfc544b05a258612bca3390565b6040516001600160a01b0380851660248301528316604482015260648101829052610e3d9085907f23b872dd00000000000000000000000000000000000000000000000000000000906084016130a0565b6001600160a01b038116600090815260018301602052604081205415155b9392505050565b6000613751836001600160a01b038416613a87565b600054610100900460ff1680613786575060005460ff16155b6137e95760405162461bcd60e51b815260206004820152602e60248201527f496e697469616c697a61626c653a20636f6e747261637420697320616c72656160448201526d191e481a5b9a5d1a585b1a5e995960921b6064820152608401610618565b600054610100900460ff1615801561380b576000805461ffff19166101011790555b613813613ad6565b61381b613b87565b8015610e4c576000805461ff001916905550565b600054610100900460ff1680613848575060005460ff16155b6138ab5760405162461bcd60e51b815260206004820152602e60248201527f496e697469616c697a61626c653a20636f6e747261637420697320616c72656160448201526d191e481a5b9a5d1a585b1a5e995960921b6064820152608401610618565b600054610100900460ff161580156138cd576000805461ffff19166101011790555b60016065558015610e4c576000805461ff001916905550565b600054610100900460ff16806138ff575060005460ff16155b6139625760405162461bcd60e51b815260206004820152602e60248201527f496e697469616c697a61626c653a20636f6e747261637420697320616c72656160448201526d191e481a5b9a5d1a585b1a5e995960921b6064820152608401610618565b600054610100900460ff16158015613984576000805461ffff19166101011790555b6097805460ff191690558015610e4c576000805461ff001916905550565b60006139f7826040518060400160405280602081526020017f5361666545524332303a206c6f772d6c6576656c2063616c6c206661696c6564815250856001600160a01b0316613c2e9092919063ffffffff16565b8051909150156131045780806020019051810190613a159190613f28565b6131045760405162461bcd60e51b815260206004820152602a60248201527f5361666545524332303a204552433230206f7065726174696f6e20646964206e60448201527f6f742073756363656564000000000000000000000000000000000000000000006064820152608401610618565b6000818152600183016020526040812054613ace57508154600181810184556000848152602080822090930184905584548482528286019093526040902091909155611ad7565b506000611ad7565b600054610100900460ff1680613aef575060005460ff16155b613b525760405162461bcd60e51b815260206004820152602e60248201527f496e697469616c697a61626c653a20636f6e747261637420697320616c72656160448201526d191e481a5b9a5d1a585b1a5e995960921b6064820152608401610618565b600054610100900460ff1615801561381b576000805461ffff19166101011790558015610e4c576000805461ff001916905550565b600054610100900460ff1680613ba0575060005460ff16155b613c035760405162461bcd60e51b815260206004820152602e60248201527f496e697469616c697a61626c653a20636f6e747261637420697320616c72656160448201526d191e481a5b9a5d1a585b1a5e995960921b6064820152608401610618565b600054610100900460ff16158015613c25576000805461ffff19166101011790555b61381b33613615565b6060613c3d8484600085613c45565b949350505050565b606082471015613cbd5760405162461bcd60e51b815260206004820152602660248201527f416464726573733a20696e73756666696369656e742062616c616e636520666f60448201527f722063616c6c00000000000000000000000000000000000000000000000000006064820152608401610618565b843b613d0b5760405162461bcd60e51b815260206004820152601d60248201527f416464726573733a2063616c6c20746f206e6f6e2d636f6e74726163740000006044820152606401610618565b600080866001600160a01b03168587604051613d2791906141ec565b60006040518083038185875af1925050503d8060008114613d64576040519150601f19603f3d011682016040523d82523d6000602084013e613d69565b606091505b5091509150613d79828286613d84565b979650505050505050565b60608315613d93575081613751565b825115613da35782518084602001fd5b8160405162461bcd60e51b8152600401610618919061422a565b600060208284031215613dcf57600080fd5b8135613751816143d5565b60008060408385031215613ded57600080fd5b8235613df8816143d5565b946020939093013593505050565b60008060208385031215613e1957600080fd5b823567ffffffffffffffff80821115613e3157600080fd5b818501915085601f830112613e4557600080fd5b813581811115613e5457600080fd5b8660208260051b8501011115613e6957600080fd5b60209290920196919550909350505050565b60006020808385031215613e8e57600080fd5b823567ffffffffffffffff80821115613ea657600080fd5b818501915085601f830112613eba57600080fd5b813581811115613ecc57613ecc6143bf565b8060051b9150613edd8483016142ab565b8181528481019084860184860187018a1015613ef857600080fd5b600095505b83861015613f1b578035835260019590950194918601918601613efd565b5098975050505050505050565b600060208284031215613f3a57600080fd5b8151613751816143ea565b600060208284031215613f5757600080fd5b8151613751816143d5565b600080600080600060a08688031215613f7a57600080fd5b8535613f85816143d5565b94506020860135613f95816143d5565b94979496505050506040830135926060810135926080909101359150565b600060208284031215613fc557600080fd5b815167ffffffffffffffff80821115613fdd57600080fd5b818401915084601f830112613ff157600080fd5b815181811115614003576140036143bf565b614016601f8201601f19166020016142ab565b915080825285602082850101111561402d57600080fd5b61403e81602084016020860161434c565b50949350505050565b60006020828403121561405957600080fd5b5035919050565b60006020828403121561407257600080fd5b5051919050565b6000806040838503121561408c57600080fd5b82359150602083013561409e816143d5565b809150509250929050565b6000806000606084860312156140be57600080fd5b8335925060208401356140d0816143d5565b915060408401356140e0816143d5565b809150509250925092565b600080604083850312156140fe57600080fd5b50508035926020909101359150565b60008060006060848603121561412257600080fd5b833592506020840135915060408401356140e0816143d5565b6000806000806080858703121561415157600080fd5b8435935060208501359250604085013561416a816143d5565b9150606085013561417a816143ea565b939692955090935050565b600081518084526020808501945080840160005b838110156141b557815187529582019590820190600101614199565b509495945050505050565b600081518084526141d881602086016020860161434c565b601f01601f19169290920160200192915050565b600082516141fe81846020870161434c565b9190910192915050565b6001600160a01b0383168152604060208201526000613c3d60408301846141c0565b60208152600061375160208301846141c0565b8481526001600160a01b038416602082015260806040820152600061426560808301856141c0565b905082606083015295945050505050565b83815260606020820152600061428f6060830185614185565b82810360408401526142a18185614185565b9695505050505050565b604051601f8201601f1916810167ffffffffffffffff811182821017156142d4576142d46143bf565b604052919050565b600082198211156142ef576142ef614393565b500190565b60008261431157634e487b7160e01b600052601260045260246000fd5b500490565b600081600019048311821515161561433057614330614393565b500290565b60008282101561434757614347614393565b500390565b60005b8381101561436757818101518382015260200161434f565b83811115610e3d5750506000910152565b600060001982141561438c5761438c614393565b5060010190565b634e487b7160e01b600052601160045260246000fd5b634e487b7160e01b600052603260045260246000fd5b634e487b7160e01b600052604160045260246000fd5b6001600160a01b0381168114610e4c57600080fd5b8015158114610e4c57600080fdfe4f776e61626c653a2063616c6c6572206973206e6f7420746865206f776e6572a2646970667358221220f04496dc750e4eca17663c84708ae56e31e19ffa8f68471958d82570b7893d6f64736f6c63430008050033",
  "devdoc": {
    "kind": "dev",
    "methods": {
      "add(uint256,address,address)": {
        "details": "Reverts if the same LP token is added more than once.",
        "params": {
          "_allocPoint": "allocation points for this LP",
          "_lpToken": "the corresponding lp token",
          "_rewarder": "the rewarder"
        }
      },
      "deposit(uint256,uint256)": {
        "details": "it is possible to call this function with _amount == 0 to claim current rewards",
        "params": {
          "_amount": "amount to deposit",
          "_pid": "the pool id"
        }
      },
      "depositFor(uint256,uint256,address)": {
        "details": "user must initiate transaction from masterchef",
        "params": {
          "_amount": "amount to deposit",
          "_pid": "the pool id",
          "_user": "the user being represented"
        }
      },
      "emergencyWithdraw(uint256)": {
        "params": {
          "_pid": "the pool id"
        }
      },
      "massUpdatePools()": {
        "details": "Be careful of gas spending!"
      },
      "migrate(uint256[])": {
        "details": "Assume the orginal MasterWombat has stopped emisions hence we can skip updatePool() to save gas cost"
      },
      "multiClaim(uint256[])": {
        "params": {
          "_pids": "array pids, pools to claim"
        }
      },
      "owner()": {
        "details": "Returns the address of the current owner."
      },
      "pause()": {
        "details": "pause pool, restricting certain operations"
      },
      "paused()": {
        "details": "Returns true if the contract is paused, and false otherwise."
      },
      "pendingTokens(uint256,address)": {
        "params": {
          "_pid": "the pool id",
          "_user": "the user address"
        }
      },
      "renounceOwnership()": {
        "details": "Leaves the contract without owner. It will not be possible to call `onlyOwner` functions anymore. Can only be called by the current owner. NOTE: Renouncing ownership will leave the contract without an owner, thereby removing any functionality that is only available to the owner."
      },
      "rewarderBonusTokenInfo(uint256)": {
        "params": {
          "_pid": "the pool id"
        }
      },
      "set(uint256,uint256,address,bool)": {
        "params": {
          "_allocPoint": "allocation points",
          "_pid": "the pool id",
          "_rewarder": "the rewarder",
          "overwrite": "overwrite rewarder?"
        }
      },
      "setVeWom(address)": {
        "params": {
          "_newVeWom": "the new VeWom address"
        }
      },
      "transferOwnership(address)": {
        "details": "Transfers ownership of the contract to a new account (`newOwner`). Can only be called by the current owner."
      },
      "unpause()": {
        "details": "unpause pool, enabling certain operations"
      },
      "updateEmissionPartition(uint256)": {
        "params": {
          "_basePartition": "the future base partition"
        }
      },
      "updateEmissionRate(uint256)": {
        "details": "Pancake has to add hidden dummy pools inorder to alter the emission,here we make it simple and transparent to all.",
        "params": {
          "_womPerSec": "wom amount to be updated"
        }
      },
      "updateFactor(address,uint256)": {
        "details": "can only be called by veWom",
        "params": {
          "_newVeWomBalance": "the amount of veWOM",
          "_user": "the user to update"
        }
      },
      "updatePool(uint256)": {
        "params": {
          "_pid": "the pool id"
        }
      },
      "withdraw(uint256,uint256)": {
        "params": {
          "_amount": "the amount to withdraw",
          "_pid": "the pool id"
        }
      }
    },
    "title": "MasterWombat MasterWombat is a boss. He is not afraid of any snakes. In fact, he drinks their venoms. So, veWom holders boost their (boosted) emissions. This contract rewards users in function of their amount of lp staked (base pool) factor (boosted pool) Factor and sumOfFactors are updated by contract VeWom.sol after any veWom minting/burning (veERC20Upgradeable hook). Note that it's ownable and the owner wields tremendous power. The ownership will be transferred to a governance smart contract once Wombat is sufficiently distributed and the community can show to govern itself.",
    "version": 1
  },
  "userdoc": {
    "kind": "user",
    "methods": {
      "add(uint256,address,address)": {
        "notice": "Add a new lp to the pool. Can only be called by the owner."
      },
      "deposit(uint256,uint256)": {
        "notice": "Deposit LP tokens to MasterChef for WOM allocation."
      },
      "depositFor(uint256,uint256,address)": {
        "notice": "Deposit LP tokens to MasterChef for WOM allocation on behalf of user"
      },
      "emergencyWithdraw(uint256)": {
        "notice": "Withdraw without caring about rewards. EMERGENCY ONLY."
      },
      "emergencyWomWithdraw()": {
        "notice": "In case we need to manually migrate WOM funds from MasterChef Sends all remaining wom from the contract to the owner"
      },
      "massUpdatePools()": {
        "notice": "Update reward variables for all pools."
      },
      "migrate(uint256[])": {
        "notice": "Helper function to migrate fund from multiple pools to the new MasterWombat.user must initiate transaction from masterchef"
      },
      "multiClaim(uint256[])": {
        "notice": "claims rewards for multiple pids"
      },
      "pendingTokens(uint256,address)": {
        "notice": "View function to see pending WOMs on frontend."
      },
      "poolLength()": {
        "notice": "returns pool length"
      },
      "rewarderBonusTokenInfo(uint256)": {
        "notice": "Get bonus token info from the rewarder contract for a given pool, if it is a double reward farm"
      },
      "set(uint256,uint256,address,bool)": {
        "notice": "Update the given pool's WOM allocation point. Can only be called by the owner."
      },
      "setVeWom(address)": {
        "notice": "updates veWom address"
      },
      "updateEmissionPartition(uint256)": {
        "notice": "updates emission partition"
      },
      "updateEmissionRate(uint256)": {
        "notice": "updates emission rate"
      },
      "updateFactor(address,uint256)": {
        "notice": "updates factor after any veWom token operation (minting/burning)"
      },
      "updatePool(uint256)": {
        "notice": "Update reward variables of the given pool to be up-to-date."
      },
      "withdraw(uint256,uint256)": {
        "notice": "Withdraw LP tokens from MasterWombat.Automatically harvest pending rewards and sends to user"
      }
    },
    "version": 1
  },
  "storageLayout": {
    "storage": [
      {
        "astId": 130,
        "contract": "contracts/wombat-governance/MasterWombat.sol:MasterWombat",
        "label": "_initialized",
        "offset": 0,
        "slot": "0",
        "type": "t_bool"
      },
      {
        "astId": 133,
        "contract": "contracts/wombat-governance/MasterWombat.sol:MasterWombat",
        "label": "_initializing",
        "offset": 1,
        "slot": "0",
        "type": "t_bool"
      },
      {
        "astId": 383,
        "contract": "contracts/wombat-governance/MasterWombat.sol:MasterWombat",
        "label": "__gap",
        "offset": 0,
        "slot": "1",
        "type": "t_array(t_uint256)50_storage"
      },
      {
        "astId": 10,
        "contract": "contracts/wombat-governance/MasterWombat.sol:MasterWombat",
        "label": "_owner",
        "offset": 0,
        "slot": "51",
        "type": "t_address"
      },
      {
        "astId": 123,
        "contract": "contracts/wombat-governance/MasterWombat.sol:MasterWombat",
        "label": "__gap",
        "offset": 0,
        "slot": "52",
        "type": "t_array(t_uint256)49_storage"
      },
      {
        "astId": 297,
        "contract": "contracts/wombat-governance/MasterWombat.sol:MasterWombat",
        "label": "_status",
        "offset": 0,
        "slot": "101",
        "type": "t_uint256"
      },
      {
        "astId": 340,
        "contract": "contracts/wombat-governance/MasterWombat.sol:MasterWombat",
        "label": "__gap",
        "offset": 0,
        "slot": "102",
        "type": "t_array(t_uint256)49_storage"
      },
      {
        "astId": 191,
        "contract": "contracts/wombat-governance/MasterWombat.sol:MasterWombat",
        "label": "_paused",
        "offset": 0,
        "slot": "151",
        "type": "t_bool"
      },
      {
        "astId": 282,
        "contract": "contracts/wombat-governance/MasterWombat.sol:MasterWombat",
        "label": "__gap",
        "offset": 0,
        "slot": "152",
        "type": "t_array(t_uint256)49_storage"
      },
      {
        "astId": 8346,
        "contract": "contracts/wombat-governance/MasterWombat.sol:MasterWombat",
        "label": "wom",
        "offset": 0,
        "slot": "201",
        "type": "t_contract(IERC20)1112"
      },
      {
        "astId": 8349,
        "contract": "contracts/wombat-governance/MasterWombat.sol:MasterWombat",
        "label": "veWom",
        "offset": 0,
        "slot": "202",
        "type": "t_contract(IVeWom)11883"
      },
      {
        "astId": 8352,
        "contract": "contracts/wombat-governance/MasterWombat.sol:MasterWombat",
        "label": "newMasterWombat",
        "offset": 0,
        "slot": "203",
        "type": "t_contract(IMasterWombat)11800"
      },
      {
        "astId": 8354,
        "contract": "contracts/wombat-governance/MasterWombat.sol:MasterWombat",
        "label": "womPerSec",
        "offset": 0,
        "slot": "204",
        "type": "t_uint256"
      },
      {
        "astId": 8356,
        "contract": "contracts/wombat-governance/MasterWombat.sol:MasterWombat",
        "label": "basePartition",
        "offset": 0,
        "slot": "205",
        "type": "t_uint256"
      },
      {
        "astId": 8358,
        "contract": "contracts/wombat-governance/MasterWombat.sol:MasterWombat",
        "label": "boostedPartition",
        "offset": 0,
        "slot": "206",
        "type": "t_uint256"
      },
      {
        "astId": 8360,
        "contract": "contracts/wombat-governance/MasterWombat.sol:MasterWombat",
        "label": "totalAllocPoint",
        "offset": 0,
        "slot": "207",
        "type": "t_uint256"
      },
      {
        "astId": 8362,
        "contract": "contracts/wombat-governance/MasterWombat.sol:MasterWombat",
        "label": "startTimestamp",
        "offset": 0,
        "slot": "208",
        "type": "t_uint256"
      },
      {
        "astId": 8366,
        "contract": "contracts/wombat-governance/MasterWombat.sol:MasterWombat",
        "label": "poolInfo",
        "offset": 0,
        "slot": "209",
        "type": "t_array(t_struct(PoolInfo)8343_storage)dyn_storage"
      },
      {
        "astId": 8369,
        "contract": "contracts/wombat-governance/MasterWombat.sol:MasterWombat",
        "label": "lpTokens",
        "offset": 0,
        "slot": "210",
        "type": "t_struct(AddressSet)3100_storage"
      },
      {
        "astId": 8376,
        "contract": "contracts/wombat-governance/MasterWombat.sol:MasterWombat",
        "label": "userInfo",
        "offset": 0,
        "slot": "212",
        "type": "t_mapping(t_uint256,t_mapping(t_address,t_struct(UserInfo)8326_storage))"
      },
      {
        "astId": 8382,
        "contract": "contracts/wombat-governance/MasterWombat.sol:MasterWombat",
        "label": "pendingWom",
        "offset": 0,
        "slot": "213",
        "type": "t_mapping(t_uint256,t_mapping(t_address,t_uint256))"
      },
      {
        "astId": 8386,
        "contract": "contracts/wombat-governance/MasterWombat.sol:MasterWombat",
        "label": "assetPid",
        "offset": 0,
        "slot": "214",
        "type": "t_mapping(t_address,t_uint256)"
      }
    ],
    "types": {
      "t_address": {
        "encoding": "inplace",
        "label": "address",
        "numberOfBytes": "20"
      },
      "t_array(t_bytes32)dyn_storage": {
        "base": "t_bytes32",
        "encoding": "dynamic_array",
        "label": "bytes32[]",
        "numberOfBytes": "32"
      },
      "t_array(t_struct(PoolInfo)8343_storage)dyn_storage": {
        "base": "t_struct(PoolInfo)8343_storage",
        "encoding": "dynamic_array",
        "label": "struct MasterWombat.PoolInfo[]",
        "numberOfBytes": "32"
      },
      "t_array(t_uint256)49_storage": {
        "base": "t_uint256",
        "encoding": "inplace",
        "label": "uint256[49]",
        "numberOfBytes": "1568"
      },
      "t_array(t_uint256)50_storage": {
        "base": "t_uint256",
        "encoding": "inplace",
        "label": "uint256[50]",
        "numberOfBytes": "1600"
      },
      "t_bool": {
        "encoding": "inplace",
        "label": "bool",
        "numberOfBytes": "1"
      },
      "t_bytes32": {
        "encoding": "inplace",
        "label": "bytes32",
        "numberOfBytes": "32"
      },
      "t_contract(IERC20)1112": {
        "encoding": "inplace",
        "label": "contract IERC20",
        "numberOfBytes": "20"
      },
      "t_contract(IMasterWombat)11800": {
        "encoding": "inplace",
        "label": "contract IMasterWombat",
        "numberOfBytes": "20"
      },
      "t_contract(IRewarder)11826": {
        "encoding": "inplace",
        "label": "contract IRewarder",
        "numberOfBytes": "20"
      },
      "t_contract(IVeWom)11883": {
        "encoding": "inplace",
        "label": "contract IVeWom",
        "numberOfBytes": "20"
      },
      "t_mapping(t_address,t_struct(UserInfo)8326_storage)": {
        "encoding": "mapping",
        "key": "t_address",
        "label": "mapping(address => struct MasterWombat.UserInfo)",
        "numberOfBytes": "32",
        "value": "t_struct(UserInfo)8326_storage"
      },
      "t_mapping(t_address,t_uint256)": {
        "encoding": "mapping",
        "key": "t_address",
        "label": "mapping(address => uint256)",
        "numberOfBytes": "32",
        "value": "t_uint256"
      },
      "t_mapping(t_bytes32,t_uint256)": {
        "encoding": "mapping",
        "key": "t_bytes32",
        "label": "mapping(bytes32 => uint256)",
        "numberOfBytes": "32",
        "value": "t_uint256"
      },
      "t_mapping(t_uint256,t_mapping(t_address,t_struct(UserInfo)8326_storage))": {
        "encoding": "mapping",
        "key": "t_uint256",
        "label": "mapping(uint256 => mapping(address => struct MasterWombat.UserInfo))",
        "numberOfBytes": "32",
        "value": "t_mapping(t_address,t_struct(UserInfo)8326_storage)"
      },
      "t_mapping(t_uint256,t_mapping(t_address,t_uint256))": {
        "encoding": "mapping",
        "key": "t_uint256",
        "label": "mapping(uint256 => mapping(address => uint256))",
        "numberOfBytes": "32",
        "value": "t_mapping(t_address,t_uint256)"
      },
      "t_struct(AddressSet)3100_storage": {
        "encoding": "inplace",
        "label": "struct EnumerableSet.AddressSet",
        "members": [
          {
            "astId": 3099,
            "contract": "contracts/wombat-governance/MasterWombat.sol:MasterWombat",
            "label": "_inner",
            "offset": 0,
            "slot": "0",
            "type": "t_struct(Set)2829_storage"
          }
        ],
        "numberOfBytes": "64"
      },
      "t_struct(PoolInfo)8343_storage": {
        "encoding": "inplace",
        "label": "struct MasterWombat.PoolInfo",
        "members": [
          {
            "astId": 8329,
            "contract": "contracts/wombat-governance/MasterWombat.sol:MasterWombat",
            "label": "lpToken",
            "offset": 0,
            "slot": "0",
            "type": "t_contract(IERC20)1112"
          },
          {
            "astId": 8331,
            "contract": "contracts/wombat-governance/MasterWombat.sol:MasterWombat",
            "label": "allocPoint",
            "offset": 0,
            "slot": "1",
            "type": "t_uint256"
          },
          {
            "astId": 8333,
            "contract": "contracts/wombat-governance/MasterWombat.sol:MasterWombat",
            "label": "lastRewardTimestamp",
            "offset": 0,
            "slot": "2",
            "type": "t_uint256"
          },
          {
            "astId": 8335,
            "contract": "contracts/wombat-governance/MasterWombat.sol:MasterWombat",
            "label": "accWomPerShare",
            "offset": 0,
            "slot": "3",
            "type": "t_uint256"
          },
          {
            "astId": 8338,
            "contract": "contracts/wombat-governance/MasterWombat.sol:MasterWombat",
            "label": "rewarder",
            "offset": 0,
            "slot": "4",
            "type": "t_contract(IRewarder)11826"
          },
          {
            "astId": 8340,
            "contract": "contracts/wombat-governance/MasterWombat.sol:MasterWombat",
            "label": "sumOfFactors",
            "offset": 0,
            "slot": "5",
            "type": "t_uint256"
          },
          {
            "astId": 8342,
            "contract": "contracts/wombat-governance/MasterWombat.sol:MasterWombat",
            "label": "accWomPerFactorShare",
            "offset": 0,
            "slot": "6",
            "type": "t_uint256"
          }
        ],
        "numberOfBytes": "224"
      },
      "t_struct(Set)2829_storage": {
        "encoding": "inplace",
        "label": "struct EnumerableSet.Set",
        "members": [
          {
            "astId": 2824,
            "contract": "contracts/wombat-governance/MasterWombat.sol:MasterWombat",
            "label": "_values",
            "offset": 0,
            "slot": "0",
            "type": "t_array(t_bytes32)dyn_storage"
          },
          {
            "astId": 2828,
            "contract": "contracts/wombat-governance/MasterWombat.sol:MasterWombat",
            "label": "_indexes",
            "offset": 0,
            "slot": "1",
            "type": "t_mapping(t_bytes32,t_uint256)"
          }
        ],
        "numberOfBytes": "64"
      },
      "t_struct(UserInfo)8326_storage": {
        "encoding": "inplace",
        "label": "struct MasterWombat.UserInfo",
        "members": [
          {
            "astId": 8321,
            "contract": "contracts/wombat-governance/MasterWombat.sol:MasterWombat",
            "label": "amount",
            "offset": 0,
            "slot": "0",
            "type": "t_uint256"
          },
          {
            "astId": 8323,
            "contract": "contracts/wombat-governance/MasterWombat.sol:MasterWombat",
            "label": "rewardDebt",
            "offset": 0,
            "slot": "1",
            "type": "t_uint256"
          },
          {
            "astId": 8325,
            "contract": "contracts/wombat-governance/MasterWombat.sol:MasterWombat",
            "label": "factor",
            "offset": 0,
            "slot": "2",
            "type": "t_uint256"
          }
        ],
        "numberOfBytes": "96"
      },
      "t_uint256": {
        "encoding": "inplace",
        "label": "uint256",
        "numberOfBytes": "32"
      }
    }
  }
}