{
  "address": "0xabdA1181EB1539512a731FFDdE86e71b90BEB01D",
  "abi": [
    {
      "anonymous": false,
      "inputs": [
        {
          "indexed": true,
          "internalType": "uint256",
          "name": "pid",
          "type": "uint256"
        },
        {
          "indexed": false,
          "internalType": "uint256",
          "name": "allocPoint",
          "type": "uint256"
        },
        {
          "indexed": true,
          "internalType": "contract IERC20",
          "name": "lpToken",
          "type": "address"
        },
        {
          "indexed": true,
          "internalType": "contract IMultiRewarder",
          "name": "rewarder",
          "type": "address"
        }
      ],
      "name": "Add",
      "type": "event"
    },
    {
      "anonymous": false,
      "inputs": [
        {
          "indexed": true,
          "internalType": "address",
          "name": "user",
          "type": "address"
        },
        {
          "indexed": true,
          "internalType": "uint256",
          "name": "pid",
          "type": "uint256"
        },
        {
          "indexed": false,
          "internalType": "uint256",
          "name": "amount",
          "type": "uint256"
        }
      ],
      "name": "Deposit",
      "type": "event"
    },
    {
      "anonymous": false,
      "inputs": [
        {
          "indexed": true,
          "internalType": "address",
          "name": "user",
          "type": "address"
        },
        {
          "indexed": true,
          "internalType": "uint256",
          "name": "pid",
          "type": "uint256"
        },
        {
          "indexed": false,
          "internalType": "uint256",
          "name": "amount",
          "type": "uint256"
        }
      ],
      "name": "DepositFor",
      "type": "event"
    },
    {
      "anonymous": false,
      "inputs": [
        {
          "indexed": true,
          "internalType": "address",
          "name": "user",
          "type": "address"
        },
        {
          "indexed": true,
          "internalType": "uint256",
          "name": "pid",
          "type": "uint256"
        },
        {
          "indexed": false,
          "internalType": "uint256",
          "name": "amount",
          "type": "uint256"
        }
      ],
      "name": "EmergencyWithdraw",
      "type": "event"
    },
    {
      "anonymous": false,
      "inputs": [
        {
          "indexed": false,
          "internalType": "address",
          "name": "owner",
          "type": "address"
        },
        {
          "indexed": false,
          "internalType": "uint256",
          "name": "balance",
          "type": "uint256"
        }
      ],
      "name": "EmergencyWomWithdraw",
      "type": "event"
    },
    {
      "anonymous": false,
      "inputs": [
        {
          "indexed": true,
          "internalType": "address",
          "name": "user",
          "type": "address"
        },
        {
          "indexed": true,
          "internalType": "uint256",
          "name": "pid",
          "type": "uint256"
        },
        {
          "indexed": false,
          "internalType": "uint256",
          "name": "amount",
          "type": "uint256"
        }
      ],
      "name": "Harvest",
      "type": "event"
    },
    {
      "anonymous": false,
      "inputs": [
        {
          "indexed": true,
          "internalType": "address",
          "name": "previousOwner",
          "type": "address"
        },
        {
          "indexed": true,
          "internalType": "address",
          "name": "newOwner",
          "type": "address"
        }
      ],
      "name": "OwnershipTransferred",
      "type": "event"
    },
    {
      "anonymous": false,
      "inputs": [
        {
          "indexed": false,
          "internalType": "address",
          "name": "account",
          "type": "address"
        }
      ],
      "name": "Paused",
      "type": "event"
    },
    {
      "anonymous": false,
      "inputs": [
        {
          "indexed": true,
          "internalType": "uint256",
          "name": "pid",
          "type": "uint256"
        },
        {
          "indexed": false,
          "internalType": "uint256",
          "name": "allocPoint",
          "type": "uint256"
        },
        {
          "indexed": true,
          "internalType": "contract IMultiRewarder",
          "name": "rewarder",
          "type": "address"
        },
        {
          "indexed": false,
          "internalType": "bool",
          "name": "overwrite",
          "type": "bool"
        }
      ],
      "name": "Set",
      "type": "event"
    },
    {
      "anonymous": false,
      "inputs": [
        {
          "indexed": false,
          "internalType": "address",
          "name": "account",
          "type": "address"
        }
      ],
      "name": "Unpaused",
      "type": "event"
    },
    {
      "anonymous": false,
      "inputs": [
        {
          "indexed": true,
          "internalType": "address",
          "name": "user",
          "type": "address"
        },
        {
          "indexed": false,
          "internalType": "uint256",
          "name": "basePartition",
          "type": "uint256"
        },
        {
          "indexed": false,
          "internalType": "uint256",
          "name": "boostedPartition",
          "type": "uint256"
        }
      ],
      "name": "UpdateEmissionPartition",
      "type": "event"
    },
    {
      "anonymous": false,
      "inputs": [
        {
          "indexed": true,
          "internalType": "address",
          "name": "user",
          "type": "address"
        },
        {
          "indexed": false,
          "internalType": "uint256",
          "name": "womPerSec",
          "type": "uint256"
        }
      ],
      "name": "UpdateEmissionRate",
      "type": "event"
    },
    {
      "anonymous": false,
      "inputs": [
        {
          "indexed": true,
          "internalType": "uint256",
          "name": "pid",
          "type": "uint256"
        },
        {
          "indexed": false,
          "internalType": "uint256",
          "name": "lastRewardTimestamp",
          "type": "uint256"
        },
        {
          "indexed": false,
          "internalType": "uint256",
          "name": "lpSupply",
          "type": "uint256"
        },
        {
          "indexed": false,
          "internalType": "uint256",
          "name": "accWomPerShare",
          "type": "uint256"
        }
      ],
      "name": "UpdatePool",
      "type": "event"
    },
    {
      "anonymous": false,
      "inputs": [
        {
          "indexed": true,
          "internalType": "address",
          "name": "user",
          "type": "address"
        },
        {
          "indexed": false,
          "internalType": "address",
          "name": "oldVeWOM",
          "type": "address"
        },
        {
          "indexed": false,
          "internalType": "address",
          "name": "newVeWOM",
          "type": "address"
        }
      ],
      "name": "UpdateVeWOM",
      "type": "event"
    },
    {
      "anonymous": false,
      "inputs": [
        {
          "indexed": true,
          "internalType": "address",
          "name": "user",
          "type": "address"
        },
        {
          "indexed": true,
          "internalType": "uint256",
          "name": "pid",
          "type": "uint256"
        },
        {
          "indexed": false,
          "internalType": "uint256",
          "name": "amount",
          "type": "uint256"
        }
      ],
      "name": "Withdraw",
      "type": "event"
    },
    {
      "inputs": [
        {
          "internalType": "uint96",
          "name": "_allocPoint",
          "type": "uint96"
        },
        {
          "internalType": "contract IERC20",
          "name": "_lpToken",
          "type": "address"
        },
        {
          "internalType": "contract IMultiRewarder",
          "name": "_rewarder",
          "type": "address"
        }
      ],
      "name": "add",
      "outputs": [],
      "stateMutability": "nonpayable",
      "type": "function"
    },
    {
      "inputs": [],
      "name": "basePartition",
      "outputs": [
        {
          "internalType": "uint16",
          "name": "",
          "type": "uint16"
        }
      ],
      "stateMutability": "view",
      "type": "function"
    },
    {
      "inputs": [],
      "name": "boostedPartition",
      "outputs": [
        {
          "internalType": "uint256",
          "name": "",
          "type": "uint256"
        }
      ],
      "stateMutability": "view",
      "type": "function"
    },
    {
      "inputs": [
        {
          "internalType": "uint256",
          "name": "_pid",
          "type": "uint256"
        },
        {
          "internalType": "uint256",
          "name": "_amount",
          "type": "uint256"
        }
      ],
      "name": "deposit",
      "outputs": [
        {
          "internalType": "uint256",
          "name": "",
          "type": "uint256"
        },
        {
          "internalType": "uint256[]",
          "name": "",
          "type": "uint256[]"
        }
      ],
      "stateMutability": "nonpayable",
      "type": "function"
    },
    {
      "inputs": [
        {
          "internalType": "uint256",
          "name": "_pid",
          "type": "uint256"
        },
        {
          "internalType": "uint256",
          "name": "_amount",
          "type": "uint256"
        },
        {
          "internalType": "address",
          "name": "_user",
          "type": "address"
        }
      ],
      "name": "depositFor",
      "outputs": [],
      "stateMutability": "nonpayable",
      "type": "function"
    },
    {
      "inputs": [
        {
          "internalType": "uint256",
          "name": "_pid",
          "type": "uint256"
        }
      ],
      "name": "emergencyWithdraw",
      "outputs": [],
      "stateMutability": "nonpayable",
      "type": "function"
    },
    {
      "inputs": [],
      "name": "emergencyWomWithdraw",
      "outputs": [],
      "stateMutability": "nonpayable",
      "type": "function"
    },
    {
      "inputs": [
        {
          "internalType": "address",
          "name": "asset",
          "type": "address"
        }
      ],
      "name": "getAssetPid",
      "outputs": [
        {
          "internalType": "uint256",
          "name": "",
          "type": "uint256"
        }
      ],
      "stateMutability": "view",
      "type": "function"
    },
    {
      "inputs": [
        {
          "internalType": "contract IERC20",
          "name": "_wom",
          "type": "address"
        },
        {
          "internalType": "contract IVeWom",
          "name": "_veWom",
          "type": "address"
        },
        {
          "internalType": "uint104",
          "name": "_womPerSec",
          "type": "uint104"
        },
        {
          "internalType": "uint16",
          "name": "_basePartition",
          "type": "uint16"
        },
        {
          "internalType": "uint40",
          "name": "_startTimestamp",
          "type": "uint40"
        }
      ],
      "name": "initialize",
      "outputs": [],
      "stateMutability": "nonpayable",
      "type": "function"
    },
    {
      "inputs": [],
      "name": "massUpdatePools",
      "outputs": [],
      "stateMutability": "nonpayable",
      "type": "function"
    },
    {
      "inputs": [
        {
          "internalType": "uint256[]",
          "name": "_pids",
          "type": "uint256[]"
        }
      ],
      "name": "migrate",
      "outputs": [],
      "stateMutability": "nonpayable",
      "type": "function"
    },
    {
      "inputs": [
        {
          "internalType": "uint256[]",
          "name": "_pids",
          "type": "uint256[]"
        }
      ],
      "name": "multiClaim",
      "outputs": [
        {
          "internalType": "uint256",
          "name": "",
          "type": "uint256"
        },
        {
          "internalType": "uint256[]",
          "name": "",
          "type": "uint256[]"
        },
        {
          "internalType": "uint256[][]",
          "name": "",
          "type": "uint256[][]"
        }
      ],
      "stateMutability": "nonpayable",
      "type": "function"
    },
    {
      "inputs": [],
      "name": "newMasterWombat",
      "outputs": [
        {
          "internalType": "contract IMasterWombatV2",
          "name": "",
          "type": "address"
        }
      ],
      "stateMutability": "view",
      "type": "function"
    },
    {
      "inputs": [],
      "name": "owner",
      "outputs": [
        {
          "internalType": "address",
          "name": "",
          "type": "address"
        }
      ],
      "stateMutability": "view",
      "type": "function"
    },
    {
      "inputs": [],
      "name": "pause",
      "outputs": [],
      "stateMutability": "nonpayable",
      "type": "function"
    },
    {
      "inputs": [],
      "name": "paused",
      "outputs": [
        {
          "internalType": "bool",
          "name": "",
          "type": "bool"
        }
      ],
      "stateMutability": "view",
      "type": "function"
    },
    {
      "inputs": [
        {
          "internalType": "uint256",
          "name": "_pid",
          "type": "uint256"
        },
        {
          "internalType": "address",
          "name": "_user",
          "type": "address"
        }
      ],
      "name": "pendingTokens",
      "outputs": [
        {
          "internalType": "uint256",
          "name": "pendingRewards",
          "type": "uint256"
        },
        {
          "internalType": "contract IERC20[]",
          "name": "bonusTokenAddresses",
          "type": "address[]"
        },
        {
          "internalType": "string[]",
          "name": "bonusTokenSymbols",
          "type": "string[]"
        },
        {
          "internalType": "uint256[]",
          "name": "pendingBonusRewards",
          "type": "uint256[]"
        }
      ],
      "stateMutability": "view",
      "type": "function"
    },
    {
      "inputs": [
        {
          "internalType": "uint256",
          "name": "",
          "type": "uint256"
        }
      ],
      "name": "poolInfo",
      "outputs": [
        {
          "internalType": "contract IERC20",
          "name": "lpToken",
          "type": "address"
        },
        {
          "internalType": "uint96",
          "name": "allocPoint",
          "type": "uint96"
        },
        {
          "internalType": "contract IMultiRewarder",
          "name": "rewarder",
          "type": "address"
        },
        {
          "internalType": "uint256",
          "name": "sumOfFactors",
          "type": "uint256"
        },
        {
          "internalType": "uint104",
          "name": "accWomPerShare",
          "type": "uint104"
        },
        {
          "internalType": "uint104",
          "name": "accWomPerFactorShare",
          "type": "uint104"
        },
        {
          "internalType": "uint40",
          "name": "lastRewardTimestamp",
          "type": "uint40"
        }
      ],
      "stateMutability": "view",
      "type": "function"
    },
    {
      "inputs": [],
      "name": "poolLength",
      "outputs": [
        {
          "internalType": "uint256",
          "name": "",
          "type": "uint256"
        }
      ],
      "stateMutability": "view",
      "type": "function"
    },
    {
      "inputs": [],
      "name": "renounceOwnership",
      "outputs": [],
      "stateMutability": "nonpayable",
      "type": "function"
    },
    {
      "inputs": [
        {
          "internalType": "uint256",
          "name": "_pid",
          "type": "uint256"
        }
      ],
      "name": "rewarderBonusTokenInfo",
      "outputs": [
        {
          "internalType": "contract IERC20[]",
          "name": "bonusTokenAddresses",
          "type": "address[]"
        },
        {
          "internalType": "string[]",
          "name": "bonusTokenSymbols",
          "type": "string[]"
        }
      ],
      "stateMutability": "view",
      "type": "function"
    },
    {
      "inputs": [
        {
          "internalType": "uint256",
          "name": "_pid",
          "type": "uint256"
        },
        {
          "internalType": "uint96",
          "name": "_allocPoint",
          "type": "uint96"
        },
        {
          "internalType": "contract IMultiRewarder",
          "name": "_rewarder",
          "type": "address"
        },
        {
          "internalType": "bool",
          "name": "overwrite",
          "type": "bool"
        }
      ],
      "name": "set",
      "outputs": [],
      "stateMutability": "nonpayable",
      "type": "function"
    },
    {
      "inputs": [
        {
          "internalType": "contract IMasterWombatV2",
          "name": "_newMasterWombat",
          "type": "address"
        }
      ],
      "name": "setNewMasterWombat",
      "outputs": [],
      "stateMutability": "nonpayable",
      "type": "function"
    },
    {
      "inputs": [
        {
          "internalType": "contract IVeWom",
          "name": "_newVeWom",
          "type": "address"
        }
      ],
      "name": "setVeWom",
      "outputs": [],
      "stateMutability": "nonpayable",
      "type": "function"
    },
    {
      "inputs": [],
      "name": "startTimestamp",
      "outputs": [
        {
          "internalType": "uint40",
          "name": "",
          "type": "uint40"
        }
      ],
      "stateMutability": "view",
      "type": "function"
    },
    {
      "inputs": [],
      "name": "totalAllocPoint",
      "outputs": [
        {
          "internalType": "uint96",
          "name": "",
          "type": "uint96"
        }
      ],
      "stateMutability": "view",
      "type": "function"
    },
    {
      "inputs": [
        {
          "internalType": "address",
          "name": "newOwner",
          "type": "address"
        }
      ],
      "name": "transferOwnership",
      "outputs": [],
      "stateMutability": "nonpayable",
      "type": "function"
    },
    {
      "inputs": [],
      "name": "unpause",
      "outputs": [],
      "stateMutability": "nonpayable",
      "type": "function"
    },
    {
      "inputs": [
        {
          "internalType": "uint16",
          "name": "_basePartition",
          "type": "uint16"
        }
      ],
      "name": "updateEmissionPartition",
      "outputs": [],
      "stateMutability": "nonpayable",
      "type": "function"
    },
    {
      "inputs": [
        {
          "internalType": "uint104",
          "name": "_womPerSec",
          "type": "uint104"
        }
      ],
      "name": "updateEmissionRate",
      "outputs": [],
      "stateMutability": "nonpayable",
      "type": "function"
    },
    {
      "inputs": [
        {
          "internalType": "address",
          "name": "_user",
          "type": "address"
        },
        {
          "internalType": "uint256",
          "name": "_newVeWomBalance",
          "type": "uint256"
        }
      ],
      "name": "updateFactor",
      "outputs": [],
      "stateMutability": "nonpayable",
      "type": "function"
    },
    {
      "inputs": [
        {
          "internalType": "uint256",
          "name": "_pid",
          "type": "uint256"
        }
      ],
      "name": "updatePool",
      "outputs": [],
      "stateMutability": "nonpayable",
      "type": "function"
    },
    {
      "inputs": [
        {
          "internalType": "uint256",
          "name": "",
          "type": "uint256"
        },
        {
          "internalType": "address",
          "name": "",
          "type": "address"
        }
      ],
      "name": "userInfo",
      "outputs": [
        {
          "internalType": "uint128",
          "name": "amount",
          "type": "uint128"
        },
        {
          "internalType": "uint128",
          "name": "factor",
          "type": "uint128"
        },
        {
          "internalType": "uint128",
          "name": "rewardDebt",
          "type": "uint128"
        },
        {
          "internalType": "uint128",
          "name": "pendingWom",
          "type": "uint128"
        }
      ],
      "stateMutability": "view",
      "type": "function"
    },
    {
      "inputs": [],
      "name": "veWom",
      "outputs": [
        {
          "internalType": "contract IVeWom",
          "name": "",
          "type": "address"
        }
      ],
      "stateMutability": "view",
      "type": "function"
    },
    {
      "inputs": [
        {
          "internalType": "uint256",
          "name": "_pid",
          "type": "uint256"
        },
        {
          "internalType": "uint256",
          "name": "_amount",
          "type": "uint256"
        }
      ],
      "name": "withdraw",
      "outputs": [
        {
          "internalType": "uint256",
          "name": "",
          "type": "uint256"
        },
        {
          "internalType": "uint256[]",
          "name": "",
          "type": "uint256[]"
        }
      ],
      "stateMutability": "nonpayable",
      "type": "function"
    },
    {
      "inputs": [],
      "name": "wom",
      "outputs": [
        {
          "internalType": "contract IERC20",
          "name": "",
          "type": "address"
        }
      ],
      "stateMutability": "view",
      "type": "function"
    },
    {
      "inputs": [],
      "name": "womPerSec",
      "outputs": [
        {
          "internalType": "uint104",
          "name": "",
          "type": "uint104"
        }
      ],
      "stateMutability": "view",
      "type": "function"
    }
  ],
  "transactionHash": "0xfa72f37726cd3533aefc8a19da25a6d2eee2d21bcbcd6401d50e69ffccd87038",
  "args": [],
  "solcInputHash": "37d2c83c5a331736be0a331625ac12a0",
  "bytecode": "0x60808060405234610016576144fb908161001c8239f35b600080fdfe608080604052600436101561001357600080fd5b60003560e01c908163081e3eda1461305c575080631526fe2714612f4c57806317caf6f114612f1d5780631983dbf514612e585780631d0554a614612db75780633e582ae614612d905780633f4ba83a14612cc8578063441a3e70146127ea5780634ed73d28146126b65780634f00a93e1461241457806351eb05a6146123f85780635312ea8e146122255780635c975abb14612202578063630b5ba1146121e9578063715018a61461216d57806383200708146121465780638456cb59146120bb5780638a81372f1461208e5780638da5cb5b1461206757806390210d7e14611cb7578063926cb32f1461180357806393f1a40b1461178a5780639b128de6146116e9578063abf59c08146113a0578063abfef1111461137b578063af929a8014611334578063bc70fdbc146112ed578063be159bea146112be578063c5a6222e14611297578063d1e2ac8814611232578063d93bf4fe14610e95578063dc3e67c314610c26578063e2bbb15814610804578063e6fd48bc146107e3578063f13e55071461060a578063f2fde38b1461055e5763ffcd4263146101b657600080fd5b34610551576040600319360112610551576101cf6131fd565b60609081806101df600435613077565b509260043560005260d060205260406000206001600160a01b038216600052602052604060002060038501546cffffffffffffffffffffffffff8116906cffffffffffffffffffffffffff8160681c1690875490604051917f70a082310000000000000000000000000000000000000000000000000000000083523060048401526020836024816001600160a01b0385165afa9182156103ee578a93600093610511575b50926001959261030b959264ffffffffff6001600160a01b03999660d01c1680421180610508575b6103fa575b505050508464e8d4a510006102f4610303936102ee8754916102e56fffffffffffffffffffffffffffffffff988985166135bb565b9260801c6135bb565b90613607565b04930154928360801c90613607565b91169061347d565b950154168061035b575b5050906103496103579261033b6040519687968752608060208801526080870190613213565b908582036040870152613285565b9083820360608501526130f6565b0390f35b9250935050602460006001600160a01b036103776004356136cd565b93909660405195869384927fc031a66f0000000000000000000000000000000000000000000000000000000084521660048301525afa9182156103ee5761035792610349916000916103cb575b5092610315565b6103e891503d806000833e6103e0818361312a565b810190613613565b386103c4565b6040513d6000823e3d90fd5b9388939564e8d4a51000936102f49360026104ae6104616104496104216103039c4261347d565b9461043f60cc54966cffffffffffffffffffffffffff8816906135bb565b9060a01c906135bb565b6bffffffffffffffffffffffff8560781c16906135ce565b946cffffffffffffffffffffffffff6104a76104a261047f8961358a565b9761049c61049661ffff809a60681c16809b6135bb565b916135a4565b906135ce565b61438c565b1690613607565b99015492836104c5575b50505050938d93506102b0565b6104ff949361049c6104966cffffffffffffffffffffffffff956104a7956104f86104f26104a29761358a565b92613488565b16906135bb565b388080806104b8565b508215156102ab565b969350949150926020863d602011610556575b816105316020938361312a565b810103126105515794519194909390928992916001600160a01b03610283565b600080fd5b3d9150610524565b34610551576020600319360112610551576105776131d1565b6001600160a01b0361058e81603354163314613314565b8116156105a05761059e9061335f565b005b608460405162461bcd60e51b815260206004820152602660248201527f4f776e61626c653a206e6577206f776e657220697320746865207a65726f206160448201527f64647265737300000000000000000000000000000000000000000000000000006064820152fd5b34610551576000600319360112610551576001600160a01b0361063281603354163314613314565b8060c95416906040517f70a0823100000000000000000000000000000000000000000000000000000000918282523060048301526020938483602481845afa80156103ee5785936000916107b1575b506040517fa9059cbb00000000000000000000000000000000000000000000000000000000815233600482015260248101919091529290839060449082906000905af19182156103ee578492610784575b5060c954169160246040518094819382523060048301525afa9182156103ee57600092610734575b60408051338152602081018590527f2b58f1b72aa1f2865f8da73af0eaff3a2b5b670c59fed83005919fe6c23cf35c91819081015b0390a1005b90809250813d831161077d575b61074b818361312a565b81010312610551575161072f7f2b58f1b72aa1f2865f8da73af0eaff3a2b5b670c59fed83005919fe6c23cf35c6106fa565b503d610741565b6107a390833d85116107aa575b61079b818361312a565b810190613de2565b50846106d2565b503d610791565b84819592503d83116107dc575b6107c8818361312a565b810103126105515791518492906000610681565b503d6107be565b3461055157600060031936011261055157602060cc5460d81c604051908152f35b3461055157610812366130e0565b9061082260026065541415613d97565b600260655561083660ff6097541615613432565b61083f81613077565b50918160005260209260d08452604060002033600052845260406000209261086681613a62565b6000938054926fffffffffffffffffffffffffffffffff938481169081610b92575b50506108938561432b565b91846108a3825494828616613dfa565b1692837fffffffffffffffffffffffffffffffff000000000000000000000000000000008092161780835560246001600160a01b03958b8760ca5416604051938480927f70a082310000000000000000000000000000000000000000000000000000000082523360048301525afa9182156103ee57600092610b61575b5061093a816109356109809461093f946135bb565b614447565b61432b565b84546fffffffffffffffffffffffffffffffff1660809190911b7fffffffffffffffffffffffffffffffff0000000000000000000000000000000016178455565b6109a2600285019161099d83549160801c91865460801c90613607565b61347d565b905581549560016109f264e8d4a510006109ec848b169a6102ee60038a0154918d6109de6cffffffffffffffffffffffffff91828616906135bb565b9360681c169060801c6135bb565b0461432b565b9301921690825416179055816001610a0985613077565b5001541660609481610ad7575b5050546040517f23b872dd000000000000000000000000000000000000000000000000000000008152336004820152306024820152604481018690529491879186916064918391600091165af19384156103ee5761035794610aba575b506040519081527f90890809c654f11d6e72a28fa60149770a0d11ec6c92319d6ceb2bb0a4ea1a15863392a3600160655560408051948594855284015260408301906130f6565b610ad090873d89116107aa5761079b818361312a565b5086610a73565b6040517fc37232880000000000000000000000000000000000000000000000000000000081523360048201526fffffffffffffffffffffffffffffffff9190911660248201529194506000908290604490829084905af19081156103ee57600091610b46575b50928780610a16565b610b5b91503d806000833e6103e0818361312a565b87610b3d565b91508b82813d8311610b8b575b610b78818361312a565b810103126105515790519061093a610920565b503d610b6e565b82975064e8d4a51000916102ee610bc7926003610bf2960154926109de6cffffffffffffffffffffffffff91828616906135bb565b046001830190610bea86610be18454938460801c90613607565b9216809261347d565b9155336141b2565b94826040518781527f71bab65ced2e5750775a0613be067df48ef06cf92a496ebf7663ae0660924954893392a38780610888565b3461055157608060031936011261055157600435602435906bffffffffffffffffffffffff918281169283820361055157610c5f6131e7565b6064359081151590818303610551576001600160a01b0392610c8684603354163314613314565b838216803b15801590610e8d575b15610e2357610ca1613a18565b60cc54958660781c1695610cb489613077565b505460a01c97888810610df4577affffffffffffffffffffffff000000000000000000000000000000610d2d7fffffffffff000000000000000000000000ffffffffffffffffffffffffffffff927fa54644aae5c48c5971516f334e4fe8ecbc7930e23f34877d4203c6551e67ffaa9b60409b0361349a565b60781b1691161760cc5581610d86610d448b6143ea565b610d4d8b613077565b50906001600160a01b037fffffffffffffffffffffffff000000000000000000000000000000000000000083549260a01b169116179055565b610db9575b5015610da257905b835196875260208701521693a3005b50816001610daf87613077565b5001541690610d93565b6001610dc489613077565b5001907fffffffffffffffffffffffff000000000000000000000000000000000000000082541617905588610d8b565b7f4e487b7100000000000000000000000000000000000000000000000000000000600052601160045260246000fd5b608460405162461bcd60e51b815260206004820152602660248201527f7365743a207265776172646572206d75737420626520636f6e7472616374206f60448201527f72207a65726f00000000000000000000000000000000000000000000000000006064820152fd5b508015610c94565b346105515760206003193601126105515767ffffffffffffffff60043511610551573660236004350112156105515767ffffffffffffffff6004356004013511610551573660246004356004013560051b60043501011161055157610eff60026065541415613d97565b60026065556001600160a01b0360cb5416156111ee57610f33610f2e3660043560040135602460043501613183565b613e1f565b50505060005b600435600401358110610f4d576001606555005b60248160051b60043501013560005260d06020526040600020336000526020526040600020906fffffffffffffffffffffffffffffffff82541680610f9d575b50610f9891506136aa565b610f39565b61102e6020610fb660248560051b600435010135613077565b50926001600160a01b038454166001600160a01b0360cb541660006040518096819582947f095ea7b3000000000000000000000000000000000000000000000000000000008452600484019092916fffffffffffffffffffffffffffffffff6020916001600160a01b03604085019616845216910152565b03925af180156103ee576111cf575b506001600160a01b0360cb54166001600160a01b03825416604051907faf929a800000000000000000000000000000000000000000000000000000000082526004820152602081602481855afa9081156103ee5760009161119d575b506fffffffffffffffffffffffffffffffff855416823b156105515760646000928360405195869485937f90210d7e000000000000000000000000000000000000000000000000000000008552600485015260248401523360448401525af180156103ee57611150575b5061111b6002610f98945460801c920191825461347d565b905560248160051b60043501013560005260d06020526040600020336000526020526000600160408220828155015582610f8d565b9267ffffffffffffffff841161116e5760409390935261111b611103565b7f4e487b7100000000000000000000000000000000000000000000000000000000600052604160045260246000fd5b90506020813d6020116111c7575b816111b86020938361312a565b81010312610551575185611099565b3d91506111ab565b6111e79060203d6020116107aa5761079b818361312a565b508361103d565b606460405162461bcd60e51b815260206004820152600960248201527f746f2077686572653f00000000000000000000000000000000000000000000006044820152fd5b34610551576020600319360112610551576004356001600160a01b038082168092036105515761126790603354163314613314565b7fffffffffffffffffffffffff000000000000000000000000000000000000000060cb54161760cb556000604051f35b346105515760006003193601126105515760206001600160a01b0360c95416604051908152f35b3461055157600060031936011261055157602061ffff6112e48160cc5460681c16613488565b16604051908152f35b346105515760206003193601126105515761132661035761130f6004356136cd565b604092919251938493604085526040850190613213565b908382036020850152613285565b34610551576020600319360112610551576001600160a01b036113556131d1565b1660005260d160205260406000205460018110610df45760209060001960405191018152f35b3461055157600060031936011261055157602061ffff60cc5460681c16604051908152f35b346105515760a0600319360112610551576113b96131d1565b6113c16131fd565b90604435906cffffffffffffffffffffffffff8216809203610551576064359161ffff831690818403610551576084359264ffffffffff84168403610551576000549460ff8660081c16806000146116df57303b155b1561167557159586611646575b506001600160a01b038092169384156116025783156115be576103e810611554577fffffffffff000000000000000000000000000000000000000000000000000000936effff000000000000000000000000009261149260ff60005460081c1661148d816133c1565b6133c1565b61149b3361335f565b600054986114bc60ff8b60081c166114b2816133c1565b60016065556133c1565b7fffffffffffffffffffffffffffffffffffffffffffffffffffffffffffffff00609754166097557fffffffffffffffffffffffff0000000000000000000000000000000000000000928360c954161760c955169060ca54161760ca5560681b16179160d81b161760cc5561152d57005b7fffffffffffffffffffffffffffffffffffffffffffffffffffffffffffff00ff16600055005b608460405162461bcd60e51b815260206004820152602760248201527f6261736520706172746974696f6e206d75737420626520696e2072616e67652060448201527f302c2031303030000000000000000000000000000000000000000000000000006064820152fd5b606460405162461bcd60e51b815260206004820152601a60248201527f776f6d20706572207365632063616e6e6f74206265207a65726f0000000000006044820152fd5b606460405162461bcd60e51b815260206004820152601a60248201527f776f6d20616464726573732063616e6e6f74206265207a65726f0000000000006044820152fd5b7fffffffffffffffffffffffffffffffffffffffffffffffffffffffffffff0000166101011760005587611424565b608460405162461bcd60e51b815260206004820152602e60248201527f496e697469616c697a61626c653a20636f6e747261637420697320616c72656160448201527f647920696e697469616c697a65640000000000000000000000000000000000006064820152fd5b60ff871615611417565b34610551576020600319360112610551576117026131d1565b6001600160a01b03809161171b82603354163314613314565b1680156105515761172a613a18565b60ca5491817fffffffffffffffffffffffff000000000000000000000000000000000000000084161760ca556040519216825260208201527fa0956d8e03557278fdb89913cec4e0f21da09587edf25b3eecc0079cdb757ef560403392a2005b34610551576040600319360112610551576117a36131fd565b60043560005260d06020526001600160a01b03604060002091166000526020526080604060002060018154910154604051916fffffffffffffffffffffffffffffffff908181168452841c602084015281166040830152821c6060820152f35b34610551576060600319360112610551576004356bffffffffffffffffffffffff808216808303610551576118366131fd565b61183e6131e7565b926001600160a01b03809261185882603354163314613314565b1693843b15611c4d57821694853b15801590611c45575b15611bdb578460005260cf602052604060002054611b975761188f613a18565b60cc548060d81c804211600014611b5057507fffffffffff000000000000000000000000ffffffffffffffffffffffffffffff7affffffffffffffffffffffff0000000000000000000000000000006118f664ffffffffff4216945b868560781c1661349a565b60781b1691161760cc55611909846143ea565b60405160e0810181811067ffffffffffffffff82111761116e57604052868152836020820192168252604081019188835260608201946000865260808301916000835260a08401966000885260c085019564ffffffffff809816875260cd546801000000000000000081101561116e57806001611989920160cd55613077565b939093611b2157955195517fffffffffffffffffffffffff0000000000000000000000000000000000000000941660a01b8416958a166001600160a01b0316959095178255611ac898611a78956003949091600185019251169082541617905551600282015501946cffffffffffffffffffffffffff809251167fffffffffffffffffffffffffffffffffffffff00000000000000000000000000875416178655511684907fffffffffffff00000000000000000000000000ffffffffffffffffffffffffff79ffffffffffffffffffffffffff0000000000000000000000000083549260681b169116179055565b5182547fff0000000000ffffffffffffffffffffffffffffffffffffffffffffffffffff16911660d01b7effffffffff000000000000000000000000000000000000000000000000000016179055565b60cd548260005260d1602052604060002055611ae3826134bb565b5060cd5460018110610df45760206000197f4b16bd2431ad24dc020ab0e1de7fcb6563dead6a24fb10089d6c23e97a70381f926040519485520192a4005b7f4e487b7100000000000000000000000000000000000000000000000000000000600052600060045260246000fd5b7affffffffffffffffffffffff0000000000000000000000000000006118f67fffffffffff000000000000000000000000ffffffffffffffffffffffffffffff92946118eb565b606460405162461bcd60e51b815260206004820152601560248201527f6164643a204c5020616c726561647920616464656400000000000000000000006044820152fd5b608460405162461bcd60e51b815260206004820152602660248201527f6164643a207265776172646572206d75737420626520636f6e7472616374206f60448201527f72207a65726f00000000000000000000000000000000000000000000000000006064820152fd5b50851561186f565b608460405162461bcd60e51b815260206004820152602660248201527f6164643a204c5020746f6b656e206d75737420626520612076616c696420636f60448201527f6e747261637400000000000000000000000000000000000000000000000000006064820152fd5b3461055157606060031936011261055157600435602435611cd66131e7565b90611ce660026065541415613d97565b6002606555611cfa60ff6097541615613432565b611d0383613077565b50918360005260209060d082526040600020936001600160a01b039182811695866000528452604060002090611d3888613a62565b81549188886fffffffffffffffffffffffffffffffff94888682168881611fe0575b505050505050611d698761432b565b83611d78835492828416613dfa565b16807fffffffffffffffffffffffffffffffff0000000000000000000000000000000080931617908184558760ca541690898c6024604051809581937f70a0823100000000000000000000000000000000000000000000000000000000835260048301525afa9182156103ee57600092611faf575b5061093a81610935611e029461093f946135bb565b611e1f600287019161099d83549160801c91865460801c90613607565b90558154936001611e5a64e8d4a510006109ec848916986102ee60038c0154916cffffffffffffffffffffffffff6109de8d828616906135bb565b9301921690825416179055836001611e718a613077565b500154169182611f25575b505090546040517f23b872dd00000000000000000000000000000000000000000000000000000000815233600482015230602482015260448101869052949284925085916064918391600091165af19283156103ee577f16f3fbfd4bcc50a5cecb2e53e398a1ad77d89f63288ef540d862b264ed57eb1f93611f08575b50604051908152a36001606555005b611f1e90833d85116107aa5761079b818361312a565b5085611ef9565b6040517fc37232880000000000000000000000000000000000000000000000000000000081526001600160a01b039290921660048301526fffffffffffffffffffffffffffffffff166024820152906000908290604490829084905af180156103ee57611f94575b8080611e7c565b611fa8903d806000833e6103e0818361312a565b5086611f8d565b91508982813d8311611fd9575b611fc6818361312a565b810103126105515790519061093a611ded565b503d611fbc565b612033612055926102ee7f71bab65ced2e5750775a0613be067df48ef06cf92a496ebf7663ae066092495496600364e8d4a51000950154926109de6cffffffffffffffffffffffffff91828616906135bb565b04600187019061204d8a610be18454938460801c90613607565b9155846141b2565b604051908152a388888b888188611d5a565b346105515760006003193601126105515760206001600160a01b0360335416604051908152f35b346105515760006003193601126105515760206cffffffffffffffffffffffffff60cc5416604051908152f35b34610551576000600319360112610551576120e26001600160a01b03603354163314613314565b60017fffffffffffffffffffffffffffffffffffffffffffffffffffffffffffffff0060975461211560ff821615613432565b16176097557f62e78cea01bee320cd4e420270b5ea74000d11b0c9f74754ebdbfc544b05a2586020604051338152a1005b346105515760006003193601126105515760206001600160a01b0360cb5416604051908152f35b346105515760006003193601126105515760006033547fffffffffffffffffffffffff00000000000000000000000000000000000000006001600160a01b038216916121ba338414613314565b1660335581604051917f8be0079c531659141344cd1fd0a4f28419497f9722a3daafe3b4186f6b6457e08284a3f35b346105515760006003193601126105515761059e613a18565b3461055157600060031936011261055157602060ff609754166040519015158152f35b3461055157602080600319360112610551576004359061224a60026065541415613d97565b600260655561225882613077565b50600083815260d083526040808220338084529085528183208454815493517fa9059cbb00000000000000000000000000000000000000000000000000000000815260048101939093526fffffffffffffffffffffffffffffffff938416602484015290946001600160a01b0394909187918491604491839189165af19182156103ee576002926123db575b50016122f68154855460801c9061347d565b90558254168255600161230885613077565b5001541680612377575b5060017fffffffffffffffffffffffffffffffff0000000000000000000000000000000091828154168155019081541690557fbb757047c2b5f3974fe26b7c10f732e7bce710b0952a71082702781e62ae059560405191600083523392a36001606555005b600080916044604051809481937fc37232880000000000000000000000000000000000000000000000000000000083523360048401528160248401525af180156103ee5715612312576123d4903d806000833e6103e0818361312a565b5083612312565b6123f190873d89116107aa5761079b818361312a565b50876122e4565b346105515760206003193601126105515761059e600435613a62565b346105515760406003193601126105515761242d6131d1565b6024356001600160a01b038060ca5416330361264c5760cd54921660005b83811061245457005b80600052602060d08152604060002090836000525260406000206fffffffffffffffffffffffffffffffff9081815416156126415761249283613077565b5061249c84613a62565b81549060038101918254946cffffffffffffffffffffffffff91828716828216906124c6916135bb565b9064e8d4a5100080926068928660809b851c16908b1c906124e6916135bb565b6124ef91613607565b049360018801948554908582166125059161347d565b61250e9061432b565b612519918b1c613dfa565b85546fffffffffffffffffffffffffffffffff1660809190911b7fffffffffffffffffffffffffffffffff0000000000000000000000000000000016178555875496848089166125698f826135bb565b9061257391614447565b9961257d8b61432b565b81546fffffffffffffffffffffffffffffffff1660809190911b7fffffffffffffffffffffffffffffffff000000000000000000000000000000001617815554169054908282166125cd916135bb565b921c166125da90886135bb565b6125e391613607565b046125ed9061432b565b1681547fffffffffffffffffffffffffffffffff0000000000000000000000000000000016179055600201921c9082549061262791613607565b906126319161347d565b905561263c906136aa565b61244b565b505061263c906136aa565b608460405162461bcd60e51b815260206004820152602160248201527f4d6173746572576f6d6261743a2063616c6c6572206973206e6f74205665576f60448201527f6d000000000000000000000000000000000000000000000000000000000000006064820152fd5b34610551576020806003193601126105515760043567ffffffffffffffff81116105515736602382011215610551576126fc61271f913690602481600401359101613183565b61270b60026065541415613d97565b6002606555610f2e60ff6097541615613432565b926127406001928360655560405194855260608386015260608501906130f6565b9083820360408501528451908183528083019281808460051b8301019701936000915b8483106127705787890388f35b909192939495887fffffffffffffffffffffffffffffffffffffffffffffffffffffffffffffffe083839b030184528588518180825194858152019101926000905b858183106127d3575050508192509801930193019194939290979597612763565b9193809193865181520194019201889293916127b2565b34610551576127f8366130e0565b9061280860026065541415613d97565b600260655561281c60ff6097541615613432565b61282581613077565b50908060005260d0602052604060002033600052602052604060002092806fffffffffffffffffffffffffffffffff85541610612c845761286582613a62565b6128dc64e8d4a510006128a886546102ee6003880154916cffffffffffffffffffffffffff6109de8185166fffffffffffffffffffffffffffffffff84166135bb565b046128d06fffffffffffffffffffffffffffffffff610be16001890154938460801c90613607565b906001870155336141b2565b92826040518581527f71bab65ced2e5750775a0613be067df48ef06cf92a496ebf7663ae066092495460203392a38454946fffffffffffffffffffffffffffffffff6129278461432b565b1695866fffffffffffffffffffffffffffffffff821610610df4576fffffffffffffffffffffffffffffffff8781831603167fffffffffffffffffffffffffffffffff000000000000000000000000000000008216178255602460206001600160a01b0360ca5416604051928380927f70a082310000000000000000000000000000000000000000000000000000000082523360048301525afa9081156103ee57600091612c50575b50612a0561093a89610935612a46946fffffffffffffffffffffffffffffffff806102ee9e818a1603169381891603166135bb565b83546fffffffffffffffffffffffffffffffff1660809190911b7fffffffffffffffffffffffffffffffff0000000000000000000000000000000016178355565b612a63600284019161099d83549160801c91855460801c90613607565b905560016fffffffffffffffffffffffffffffffff612aac64e8d4a510006109ec85548481169b8c916cffffffffffffffffffffffffff6109de60038c015494828616906135bb565b167fffffffffffffffffffffffffffffffff000000000000000000000000000000008284015416179101556001600160a01b036001612aea85613077565b5001541660609581612bbe575b5050546040517fa9059cbb0000000000000000000000000000000000000000000000000000000081523360048201526024810183905290602090829060449082906000906001600160a01b03165af180156103ee57612b9f575b506040519081527ff279e6a1f5e320cca91135676d9cb6e44ca8a08c0b88342bcdb1144f6511b56860203392a3600160655561035760405192839283526040602084015260408301906130f6565b612bb79060203d6020116107aa5761079b818361312a565b5084612b51565b6040517fc37232880000000000000000000000000000000000000000000000000000000081523360048201526fffffffffffffffffffffffffffffffff9190911660248201529195506000908290604490829084905af180156103ee576001600160a01b0391600091612c35575b50949086612af7565b612c4a91503d806000833e6103e0818361312a565b86612c2c565b90506020813d602011612c7c575b81612c6b6020938361312a565b810103126105515751612a056129d0565b3d9150612c5e565b606460405162461bcd60e51b815260206004820152601260248201527f77697468647261773a206e6f7420676f6f6400000000000000000000000000006044820152fd5b3461055157600060031936011261055157612cef6001600160a01b03603354163314613314565b60975460ff811615612d4c577fffffffffffffffffffffffffffffffffffffffffffffffffffffffffffffff00166097557f5db9ee0a495bf2e6ff9c91a7834c1ba4fdd244a5e8aa4e537bd38aeae4b073aa6020604051338152a1005b606460405162461bcd60e51b815260206004820152601460248201527f5061757361626c653a206e6f74207061757365640000000000000000000000006044820152fd5b346105515760006003193601126105515760206001600160a01b0360ca5416604051908152f35b34610551576020600319360112610551576004356cffffffffffffffffffffffffff811680910361055157612df86001600160a01b03603354163314613314565b612e00613a18565b807fffffffffffffffffffffffffffffffffffffff0000000000000000000000000060cc54161760cc556040519081527fe2492e003bbe8afa53088b406f0c1cb5d9e280370fc72a74cf116ffd343c405360203392a2005b346105515760206003193601126105515760043561ffff8082169182810361055157612e906001600160a01b03603354163314613314565b6103e8831161055157612ee990612ea5613a18565b60cc547fffffffffffffffffffffffffffffffffff0000ffffffffffffffffffffffffff6effff000000000000000000000000008360681b1691161760cc55613488565b6040519283521660208201527f7fd921cf733c788915a229b0ea58095c44ae2c275ed7835501e5135fe3c1ed0560403392a2005b346105515760006003193601126105515760206bffffffffffffffffffffffff60cc5460781c16604051908152f35b346105515760206003193601126105515760043560cd548110156105515760e09060cd60005260021b64ffffffffff817f83978b4c69c48dd978ab43fe30f077615294f938fb7f936d9eb340e51ea7db2e01546001600160a01b0392837f83978b4c69c48dd978ab43fe30f077615294f938fb7f936d9eb340e51ea7db2f820154167f83978b4c69c48dd978ab43fe30f077615294f938fb7f936d9eb340e51ea7db317f83978b4c69c48dd978ab43fe30f077615294f938fb7f936d9eb340e51ea7db3083015492015492604051958116865260a01c6020860152604085015260608401526cffffffffffffffffffffffffff80821660808501528160681c1660a084015260d01c1660c0820152f35b346105515760006003193601126105515760209060cd548152f35b60cd548110156130b15760cd60005260021b7f83978b4c69c48dd978ab43fe30f077615294f938fb7f936d9eb340e51ea7db2e0190600090565b7f4e487b7100000000000000000000000000000000000000000000000000000000600052603260045260246000fd5b6003196040910112610551576004359060243590565b90815180825260208080930193019160005b828110613116575050505090565b835185529381019392810192600101613108565b90601f7fffffffffffffffffffffffffffffffffffffffffffffffffffffffffffffffe0910116810190811067ffffffffffffffff82111761116e57604052565b67ffffffffffffffff811161116e5760051b60200190565b929161318e8261316b565b9161319c604051938461312a565b829481845260208094019160051b810192831161055157905b8282106131c25750505050565b813581529083019083016131b5565b600435906001600160a01b038216820361055157565b604435906001600160a01b038216820361055157565b602435906001600160a01b038216820361055157565b90815180825260208080930193019160005b828110613233575050505090565b83516001600160a01b031685529381019392810192600101613225565b918091926000905b828210613270575011613269575050565b6000910152565b91508060209183015181860152018291613258565b908082519081815260208091019281808460051b8301019501936000915b8483106132b35750505050505090565b9091929394958480806001937fffffffffffffffffffffffffffffffffffffffffffffffffffffffffffffffe080878303018852601f8c5161330081518092818752878088019101613250565b0116010198019301930191949392906132a3565b1561331b57565b606460405162461bcd60e51b815260206004820152602060248201527f4f776e61626c653a2063616c6c6572206973206e6f7420746865206f776e65726044820152fd5b603354906001600160a01b0380911691827fffffffffffffffffffffffff0000000000000000000000000000000000000000821617603355167f8be0079c531659141344cd1fd0a4f28419497f9722a3daafe3b4186f6b6457e06000604051a3565b156133c857565b608460405162461bcd60e51b815260206004820152602b60248201527f496e697469616c697a61626c653a20636f6e7472616374206973206e6f74206960448201527f6e697469616c697a696e670000000000000000000000000000000000000000006064820152fd5b1561343957565b606460405162461bcd60e51b815260206004820152601060248201527f5061757361626c653a20706175736564000000000000000000000000000000006044820152fd5b818110610df4570390565b61ffff166103e8818110610df4570390565b906bffffffffffffffffffffffff8080931691168092038111610df4570190565b600081815260cf60205260408120546135855760ce546801000000000000000081101561355857600181018060ce5581101561352b5790826040927fd36cd1c74ef8d7326d8021b776c18fb5a5724b7f7bc93c2f42e43e10ef27d12a015560ce5492815260cf6020522055600190565b6024827f4e487b710000000000000000000000000000000000000000000000000000000081526032600452fd5b6024827f4e487b710000000000000000000000000000000000000000000000000000000081526041600452fd5b905090565b64e8d4a51000908060001904821181151516610df4570290565b6103e8908060001904821181151516610df4570290565b8060001904821181151516610df4570290565b81156135d8570490565b7f4e487b7100000000000000000000000000000000000000000000000000000000600052601260045260246000fd5b81198111610df4570190565b60209081818403126105515780519067ffffffffffffffff821161055157019180601f840112156105515782516136498161316b565b93613657604051958661312a565b818552838086019260051b820101928311610551578301905b82821061367e575050505090565b81518152908301908301613670565b60005b82811061369c57505050565b606082820152602001613690565b6000198114610df45760010190565b80518210156130b15760209160051b010190565b6136d8600191613077565b5001546001600160a01b03908116918215613a0f576040928351928380927fc2b18aa0000000000000000000000000000000000000000000000000000000008252600091829160049586915afa948515613a03578195613964575b5084958551926137428461316b565b9261374f8351948561312a565b8484527fffffffffffffffffffffffffffffffffffffffffffffffffffffffffffffffe08061377d8761316b565b019261378d60209485880161368d565b8599835b8881106137a45750505050505050505050565b89836137b083856136b9565b511661384b5750865187810181811067ffffffffffffffff82111761381f578852600381527f424e4200000000000000000000000000000000000000000000000000000000008782015261381a9190613809828b6136b9565b52613814818a6136b9565b506136aa565b613791565b60248760418e7f4e487b7100000000000000000000000000000000000000000000000000000000835252fd5b90858461385883866136b9565b51168951938480927f95d89b410000000000000000000000000000000000000000000000000000000082525afa801561395a5786906138a1575b61381a9250613809828b6136b9565b50903d8087833e6138b2818361312a565b810190878183031261395657805167ffffffffffffffff918282116139525701601f92808483011215613952578151928311613925576138fa8a898d5196860116018561312a565b82845289838301011161392157829161391c918a8061381a9796019101613250565b613892565b8780fd5b5060248860418f7f4e487b7100000000000000000000000000000000000000000000000000000000835252fd5b8880fd5b8680fd5b88513d88823e3d90fd5b9094503d8086833e613976818361312a565b81019060209081818403126139565780519067ffffffffffffffff821161392157019180601f840112156139565782516139af8161316b565b936139bc8a51958661312a565b818552838086019260051b820101928311613952578301905b8282106139e757505050509338613733565b815186811681036139ff5781529083019083016139d5565b8980fd5b508551903d90823e3d90fd5b60609250829150565b60cd5460005b818110613a29575050565b80613a36613a3b92613a62565b6136aa565b613a1e565b906cffffffffffffffffffffffffff8080931691168092038111610df4570190565b613a6b81613077565b506003810164ffffffffff80825460d01c164211613a8a575b50505050565b60249160206001600160a01b03855416604051948580927f70a082310000000000000000000000000000000000000000000000000000000082523060048301525afa9283156103ee57600093613d61575b508215613d0557805492613af560d085901c84164261347d565b9160cc54946cffffffffffffffffffffffffff968794858816613b17916135bb565b815460a01c613b25916135bb565b8760781c6bffffffffffffffffffffffff16613b40916135ce565b9185613b4b8461358a565b61ffff809a60681c16613b5d916135bb565b613b66876135a4565b613b6f916135ce565b613b789061438c565b613b8490838316613a40565b16907fffffffffffffffffffffffffffffffffffffff0000000000000000000000000016179081845560020154908115600014986060987f3be3541fc42237d611b30329040bfa4569541d156560acdbbae57640d20b8f469a613c7d5750505050507fffffffffffff00000000000000000000000000ffffffffffffffffffffffffff81541681555b80547fff0000000000ffffffffffffffffffffffffffffffffffffffffffffffffffff1642851660d01b7effffffffff0000000000000000000000000000000000000000000000000000161781555490604051938260d01c1684526020840152166040820152a238808080613a84565b6104a2613cb59461049c610496613cab94613c9a613d009a61358a565b906104f88160cc5460681c16613488565b9160681c16613a40565b82547fffffffffffff00000000000000000000000000ffffffffffffffffffffffffff1660689190911b79ffffffffffffffffffffffffff0000000000000000000000000016178255565b613c0d565b92509050613d5f925042167fff0000000000ffffffffffffffffffffffffffffffffffffffffffffffffffff7effffffffff000000000000000000000000000000000000000000000000000083549260d01b169116179055565b565b90926020823d8211613d8f575b81613d7b6020938361312a565b81010312613d8c5750519138613adb565b80fd5b3d9150613d6e565b15613d9e57565b606460405162461bcd60e51b815260206004820152601f60248201527f5265656e7472616e637947756172643a207265656e7472616e742063616c6c006044820152fd5b90816020910312610551575180151581036105515790565b906fffffffffffffffffffffffffffffffff8080931691168092038111610df4570190565b8051613e6c92916000613e318361316b565b604093613e408551928361312a565b8082527fffffffffffffffffffffffffffffffffffffffffffffffffffffffffffffffe096879161316b565b016020903682840137613ea5845197613e9c613e878a61316b565b99613e9489519b8c61312a565b808b5261316b565b0182890161368d565b825b84518110156140a357613eba81866136b9565b5160005260d0825285600020336000528252856000206fffffffffffffffffffffffffffffffff9081815416613efb575b5050613ef6906136aa565b613ea7565b613f0583886136b9565b51613f0f90613a62565b613f1983886136b9565b51613f2390613077565b5081549660038201978854946cffffffffffffffffffffffffff908181841697818116613f50908a6135bb565b606891608096871c9164e8d4a51000948592851c16613f6f90846135bb565b613f7891613607565b0494846001809b0196875480991c613f8f91613607565b97169687613f9c9161347d565b9e8f97875554818116613faf908d6135bb565b931c16613fbb916135bb565b613fc491613607565b04613fce9061432b565b169055613fda91613607565b96613fe585886136b9565b5201546001600160a01b0316908115613eeb5787517fc37232880000000000000000000000000000000000000000000000000000000081523360048201526fffffffffffffffffffffffffffffffff919091166024820152906000908290604490829084905af19081156140985790613ef6929160009161407f575b5061406c828b6136b9565b52614077818a6136b9565b509038613eeb565b614092913d8091833e6103e0818361312a565b38614061565b87513d6000823e3d90fd5b509593929190936140b482336141b2565b9082821461414a5760005b845181101561413e57806140e9856140e46140dd614139958c6136b9565b51876135bb565b6135ce565b6140f3828a6136b9565b526140fe81876136b9565b51614109828a6136b9565b5188519081527f71bab65ced2e5750775a0613be067df48ef06cf92a496ebf7663ae06609249548c3392a36136aa565b6140bf565b50909650939492505050565b91509460005b83518110156141a757806141676141a292866136b9565b5161417282896136b9565b5187519081527f71bab65ced2e5750775a0613be067df48ef06cf92a496ebf7663ae06609249548b3392a36136aa565b614150565b509495509293915050565b6001600160a01b038060c95416916040918251947f70a082310000000000000000000000000000000000000000000000000000000086523060048701526020948587602481845afa968715614320576000976142f1575b508682111561429d57505060c95483517fa9059cbb0000000000000000000000000000000000000000000000000000000081526001600160a01b03909316600484015260248301869052919291849184911681600081604481015b03925af1908115614293575061427957505090565b8161428f92903d106107aa5761079b818361312a565b5090565b513d6000823e3d90fd5b84517fa9059cbb0000000000000000000000000000000000000000000000000000000081526001600160a01b0390941660048501526024840182905290955091929184915083908160008160448101614264565b90968682813d8311614319575b614308818361312a565b81010312613d8c5750519538614209565b503d6142fe565b85513d6000823e3d90fd5b6fffffffffffffffffffffffffffffffff90818111614348571690565b606460405162461bcd60e51b815260206004820152601060248201527f75696e74313238206f766572666c6f77000000000000000000000000000000006044820152fd5b6cffffffffffffffffffffffffff908181116143a6571690565b606460405162461bcd60e51b815260206004820152601060248201527f75696e74313034206f766572666c6f77000000000000000000000000000000006044820152fd5b6bffffffffffffffffffffffff90818111614403571690565b606460405162461bcd60e51b815260206004820152600f60248201527f75696e743936206f766572666c6f7700000000000000000000000000000000006044820152fd5b9190600060038411156144b6575082811180156144ae575b156144a85750815b61447a8361447581846135ce565b613607565b600190811c915b84830361448d57505050565b9091935061449f8461447581846135ce565b821c9190614481565b91614467565b50801561445f565b9290506144bf57565b6001915056fea264697066735822122017c4402d84d29c310af624aa1046685b69433d4a762b718db35266e49d333f6e64736f6c634300080f0033",
  "devdoc": {
    "details": "Updates: - pack struct - move pendingWom into UserInfo - use MultiRewarderPerSec",
    "kind": "dev",
    "methods": {
      "add(uint96,address,address)": {
        "details": "Reverts if the same LP token is added more than once.",
        "params": {
          "_allocPoint": "allocation points for this LP",
          "_lpToken": "the corresponding lp token",
          "_rewarder": "the rewarder"
        }
      },
      "deposit(uint256,uint256)": {
        "details": "it is possible to call this function with _amount == 0 to claim current rewards",
        "params": {
          "_amount": "amount to deposit",
          "_pid": "the pool id"
        }
      },
      "depositFor(uint256,uint256,address)": {
        "details": "user must initiate transaction from masterchef",
        "params": {
          "_amount": "amount to deposit",
          "_pid": "the pool id",
          "_user": "the user being represented"
        }
      },
      "emergencyWithdraw(uint256)": {
        "params": {
          "_pid": "the pool id"
        }
      },
      "massUpdatePools()": {
        "details": "Be careful of gas spending!"
      },
      "migrate(uint256[])": {
        "details": "Assume the orginal MasterWombat has stopped emisions hence we can skip updatePool() to save gas cost"
      },
      "multiClaim(uint256[])": {
        "params": {
          "_pids": "array pids, pools to claim"
        }
      },
      "owner()": {
        "details": "Returns the address of the current owner."
      },
      "pause()": {
        "details": "pause pool, restricting certain operations"
      },
      "paused()": {
        "details": "Returns true if the contract is paused, and false otherwise."
      },
      "pendingTokens(uint256,address)": {
        "params": {
          "_pid": "the pool id",
          "_user": "the user address"
        }
      },
      "renounceOwnership()": {
        "details": "Leaves the contract without owner. It will not be possible to call `onlyOwner` functions anymore. Can only be called by the current owner. NOTE: Renouncing ownership will leave the contract without an owner, thereby removing any functionality that is only available to the owner."
      },
      "rewarderBonusTokenInfo(uint256)": {
        "params": {
          "_pid": "the pool id"
        }
      },
      "set(uint256,uint96,address,bool)": {
        "params": {
          "_allocPoint": "allocation points",
          "_pid": "the pool id",
          "_rewarder": "the rewarder",
          "overwrite": "overwrite rewarder?"
        }
      },
      "setVeWom(address)": {
        "params": {
          "_newVeWom": "the new VeWom address"
        }
      },
      "transferOwnership(address)": {
        "details": "Transfers ownership of the contract to a new account (`newOwner`). Can only be called by the current owner."
      },
      "unpause()": {
        "details": "unpause pool, enabling certain operations"
      },
      "updateEmissionPartition(uint16)": {
        "params": {
          "_basePartition": "the future base partition"
        }
      },
      "updateEmissionRate(uint104)": {
        "details": "Pancake has to add hidden dummy pools inorder to alter the emission,here we make it simple and transparent to all.",
        "params": {
          "_womPerSec": "wom amount to be updated"
        }
      },
      "updateFactor(address,uint256)": {
        "details": "can only be called by veWom",
        "params": {
          "_newVeWomBalance": "the amount of veWOM",
          "_user": "the user to update"
        }
      },
      "updatePool(uint256)": {
        "params": {
          "_pid": "the pool id"
        }
      },
      "withdraw(uint256,uint256)": {
        "params": {
          "_amount": "the amount to withdraw",
          "_pid": "the pool id"
        }
      }
    },
    "title": "MasterWombatV2",
    "version": 1
  },
  "userdoc": {
    "kind": "user",
    "methods": {
      "add(uint96,address,address)": {
        "notice": "Add a new lp to the pool. Can only be called by the owner."
      },
      "deposit(uint256,uint256)": {
        "notice": "Deposit LP tokens to MasterChef for WOM allocation."
      },
      "depositFor(uint256,uint256,address)": {
        "notice": "Deposit LP tokens to MasterChef for WOM allocation on behalf of user"
      },
      "emergencyWithdraw(uint256)": {
        "notice": "Withdraw without caring about rewards. EMERGENCY ONLY."
      },
      "emergencyWomWithdraw()": {
        "notice": "In case we need to manually migrate WOM funds from MasterChef Sends all remaining wom from the contract to the owner"
      },
      "massUpdatePools()": {
        "notice": "Update reward variables for all pools."
      },
      "migrate(uint256[])": {
        "notice": "Helper function to migrate fund from multiple pools to the new MasterWombat.user must initiate transaction from masterchef"
      },
      "multiClaim(uint256[])": {
        "notice": "claims rewards for multiple pids"
      },
      "pendingTokens(uint256,address)": {
        "notice": "View function to see pending WOMs on frontend."
      },
      "poolLength()": {
        "notice": "returns pool length"
      },
      "rewarderBonusTokenInfo(uint256)": {
        "notice": "Get bonus token info from the rewarder contract for a given pool, if it is a double reward farm"
      },
      "set(uint256,uint96,address,bool)": {
        "notice": "Update the given pool's WOM allocation point. Can only be called by the owner."
      },
      "setVeWom(address)": {
        "notice": "updates veWom address"
      },
      "updateEmissionPartition(uint16)": {
        "notice": "updates emission partition"
      },
      "updateEmissionRate(uint104)": {
        "notice": "updates emission rate"
      },
      "updateFactor(address,uint256)": {
        "notice": "updates factor after any veWom token operation (minting/burning)"
      },
      "updatePool(uint256)": {
        "notice": "Update reward variables of the given pool to be up-to-date."
      },
      "withdraw(uint256,uint256)": {
        "notice": "Withdraw LP tokens from MasterWombat.Automatically harvest pending rewards and sends to user"
      },
      "womPerSec()": {
        "notice": "WOM tokens created per second. 13.18 fixed point"
      }
    },
    "notice": "MasterWombat is a boss. He is not afraid of any snakes. In fact, he drinks their venoms. So, veWom holders boost their (boosted) emissions. This contract rewards users in function of their amount of lp staked (base pool) factor (boosted pool) Factor and sumOfFactors are updated by contract VeWom.sol after any veWom minting/burning (veERC20Upgradeable hook). Note that it's ownable and the owner wields tremendous power. The ownership will be transferred to a governance smart contract once Wombat is sufficiently distributed and the community can show to govern itself.",
    "version": 1
  },
  "storageLayout": {
    "storage": [
      {
        "astId": 130,
        "contract": "contracts/wombat-governance/MasterWombatV2.sol:MasterWombatV2",
        "label": "_initialized",
        "offset": 0,
        "slot": "0",
        "type": "t_bool"
      },
      {
        "astId": 133,
        "contract": "contracts/wombat-governance/MasterWombatV2.sol:MasterWombatV2",
        "label": "_initializing",
        "offset": 1,
        "slot": "0",
        "type": "t_bool"
      },
      {
        "astId": 651,
        "contract": "contracts/wombat-governance/MasterWombatV2.sol:MasterWombatV2",
        "label": "__gap",
        "offset": 0,
        "slot": "1",
        "type": "t_array(t_uint256)50_storage"
      },
      {
        "astId": 10,
        "contract": "contracts/wombat-governance/MasterWombatV2.sol:MasterWombatV2",
        "label": "_owner",
        "offset": 0,
        "slot": "51",
        "type": "t_address"
      },
      {
        "astId": 122,
        "contract": "contracts/wombat-governance/MasterWombatV2.sol:MasterWombatV2",
        "label": "__gap",
        "offset": 0,
        "slot": "52",
        "type": "t_array(t_uint256)49_storage"
      },
      {
        "astId": 322,
        "contract": "contracts/wombat-governance/MasterWombatV2.sol:MasterWombatV2",
        "label": "_status",
        "offset": 0,
        "slot": "101",
        "type": "t_uint256"
      },
      {
        "astId": 366,
        "contract": "contracts/wombat-governance/MasterWombatV2.sol:MasterWombatV2",
        "label": "__gap",
        "offset": 0,
        "slot": "102",
        "type": "t_array(t_uint256)49_storage"
      },
      {
        "astId": 218,
        "contract": "contracts/wombat-governance/MasterWombatV2.sol:MasterWombatV2",
        "label": "_paused",
        "offset": 0,
        "slot": "151",
        "type": "t_bool"
      },
      {
        "astId": 307,
        "contract": "contracts/wombat-governance/MasterWombatV2.sol:MasterWombatV2",
        "label": "__gap",
        "offset": 0,
        "slot": "152",
        "type": "t_array(t_uint256)49_storage"
      },
      {
        "astId": 11134,
        "contract": "contracts/wombat-governance/MasterWombatV2.sol:MasterWombatV2",
        "label": "wom",
        "offset": 0,
        "slot": "201",
        "type": "t_contract(IERC20)1420"
      },
      {
        "astId": 11137,
        "contract": "contracts/wombat-governance/MasterWombatV2.sol:MasterWombatV2",
        "label": "veWom",
        "offset": 0,
        "slot": "202",
        "type": "t_contract(IVeWom)19545"
      },
      {
        "astId": 11140,
        "contract": "contracts/wombat-governance/MasterWombatV2.sol:MasterWombatV2",
        "label": "newMasterWombat",
        "offset": 0,
        "slot": "203",
        "type": "t_contract(IMasterWombatV2)19312"
      },
      {
        "astId": 11143,
        "contract": "contracts/wombat-governance/MasterWombatV2.sol:MasterWombatV2",
        "label": "womPerSec",
        "offset": 0,
        "slot": "204",
        "type": "t_uint104"
      },
      {
        "astId": 11145,
        "contract": "contracts/wombat-governance/MasterWombatV2.sol:MasterWombatV2",
        "label": "basePartition",
        "offset": 13,
        "slot": "204",
        "type": "t_uint16"
      },
      {
        "astId": 11147,
        "contract": "contracts/wombat-governance/MasterWombatV2.sol:MasterWombatV2",
        "label": "totalAllocPoint",
        "offset": 15,
        "slot": "204",
        "type": "t_uint96"
      },
      {
        "astId": 11149,
        "contract": "contracts/wombat-governance/MasterWombatV2.sol:MasterWombatV2",
        "label": "startTimestamp",
        "offset": 27,
        "slot": "204",
        "type": "t_uint40"
      },
      {
        "astId": 11153,
        "contract": "contracts/wombat-governance/MasterWombatV2.sol:MasterWombatV2",
        "label": "poolInfo",
        "offset": 0,
        "slot": "205",
        "type": "t_array(t_struct(PoolInfo)11131_storage)dyn_storage"
      },
      {
        "astId": 11156,
        "contract": "contracts/wombat-governance/MasterWombatV2.sol:MasterWombatV2",
        "label": "lpTokens",
        "offset": 0,
        "slot": "206",
        "type": "t_struct(AddressSet)3408_storage"
      },
      {
        "astId": 11163,
        "contract": "contracts/wombat-governance/MasterWombatV2.sol:MasterWombatV2",
        "label": "userInfo",
        "offset": 0,
        "slot": "208",
        "type": "t_mapping(t_uint256,t_mapping(t_address,t_struct(UserInfo)11114_storage))"
      },
      {
        "astId": 11167,
        "contract": "contracts/wombat-governance/MasterWombatV2.sol:MasterWombatV2",
        "label": "assetPid",
        "offset": 0,
        "slot": "209",
        "type": "t_mapping(t_address,t_uint256)"
      }
    ],
    "types": {
      "t_address": {
        "encoding": "inplace",
        "label": "address",
        "numberOfBytes": "20"
      },
      "t_array(t_bytes32)dyn_storage": {
        "base": "t_bytes32",
        "encoding": "dynamic_array",
        "label": "bytes32[]",
        "numberOfBytes": "32"
      },
      "t_array(t_struct(PoolInfo)11131_storage)dyn_storage": {
        "base": "t_struct(PoolInfo)11131_storage",
        "encoding": "dynamic_array",
        "label": "struct MasterWombatV2.PoolInfo[]",
        "numberOfBytes": "32"
      },
      "t_array(t_uint256)49_storage": {
        "base": "t_uint256",
        "encoding": "inplace",
        "label": "uint256[49]",
        "numberOfBytes": "1568"
      },
      "t_array(t_uint256)50_storage": {
        "base": "t_uint256",
        "encoding": "inplace",
        "label": "uint256[50]",
        "numberOfBytes": "1600"
      },
      "t_bool": {
        "encoding": "inplace",
        "label": "bool",
        "numberOfBytes": "1"
      },
      "t_bytes32": {
        "encoding": "inplace",
        "label": "bytes32",
        "numberOfBytes": "32"
      },
      "t_contract(IERC20)1420": {
        "encoding": "inplace",
        "label": "contract IERC20",
        "numberOfBytes": "20"
      },
      "t_contract(IMasterWombatV2)19312": {
        "encoding": "inplace",
        "label": "contract IMasterWombatV2",
        "numberOfBytes": "20"
      },
      "t_contract(IMultiRewarder)19475": {
        "encoding": "inplace",
        "label": "contract IMultiRewarder",
        "numberOfBytes": "20"
      },
      "t_contract(IVeWom)19545": {
        "encoding": "inplace",
        "label": "contract IVeWom",
        "numberOfBytes": "20"
      },
      "t_mapping(t_address,t_struct(UserInfo)11114_storage)": {
        "encoding": "mapping",
        "key": "t_address",
        "label": "mapping(address => struct MasterWombatV2.UserInfo)",
        "numberOfBytes": "32",
        "value": "t_struct(UserInfo)11114_storage"
      },
      "t_mapping(t_address,t_uint256)": {
        "encoding": "mapping",
        "key": "t_address",
        "label": "mapping(address => uint256)",
        "numberOfBytes": "32",
        "value": "t_uint256"
      },
      "t_mapping(t_bytes32,t_uint256)": {
        "encoding": "mapping",
        "key": "t_bytes32",
        "label": "mapping(bytes32 => uint256)",
        "numberOfBytes": "32",
        "value": "t_uint256"
      },
      "t_mapping(t_uint256,t_mapping(t_address,t_struct(UserInfo)11114_storage))": {
        "encoding": "mapping",
        "key": "t_uint256",
        "label": "mapping(uint256 => mapping(address => struct MasterWombatV2.UserInfo))",
        "numberOfBytes": "32",
        "value": "t_mapping(t_address,t_struct(UserInfo)11114_storage)"
      },
      "t_struct(AddressSet)3408_storage": {
        "encoding": "inplace",
        "label": "struct EnumerableSet.AddressSet",
        "members": [
          {
            "astId": 3407,
            "contract": "contracts/wombat-governance/MasterWombatV2.sol:MasterWombatV2",
            "label": "_inner",
            "offset": 0,
            "slot": "0",
            "type": "t_struct(Set)3137_storage"
          }
        ],
        "numberOfBytes": "64"
      },
      "t_struct(PoolInfo)11131_storage": {
        "encoding": "inplace",
        "label": "struct MasterWombatV2.PoolInfo",
        "members": [
          {
            "astId": 11117,
            "contract": "contracts/wombat-governance/MasterWombatV2.sol:MasterWombatV2",
            "label": "lpToken",
            "offset": 0,
            "slot": "0",
            "type": "t_contract(IERC20)1420"
          },
          {
            "astId": 11119,
            "contract": "contracts/wombat-governance/MasterWombatV2.sol:MasterWombatV2",
            "label": "allocPoint",
            "offset": 20,
            "slot": "0",
            "type": "t_uint96"
          },
          {
            "astId": 11122,
            "contract": "contracts/wombat-governance/MasterWombatV2.sol:MasterWombatV2",
            "label": "rewarder",
            "offset": 0,
            "slot": "1",
            "type": "t_contract(IMultiRewarder)19475"
          },
          {
            "astId": 11124,
            "contract": "contracts/wombat-governance/MasterWombatV2.sol:MasterWombatV2",
            "label": "sumOfFactors",
            "offset": 0,
            "slot": "2",
            "type": "t_uint256"
          },
          {
            "astId": 11126,
            "contract": "contracts/wombat-governance/MasterWombatV2.sol:MasterWombatV2",
            "label": "accWomPerShare",
            "offset": 0,
            "slot": "3",
            "type": "t_uint104"
          },
          {
            "astId": 11128,
            "contract": "contracts/wombat-governance/MasterWombatV2.sol:MasterWombatV2",
            "label": "accWomPerFactorShare",
            "offset": 13,
            "slot": "3",
            "type": "t_uint104"
          },
          {
            "astId": 11130,
            "contract": "contracts/wombat-governance/MasterWombatV2.sol:MasterWombatV2",
            "label": "lastRewardTimestamp",
            "offset": 26,
            "slot": "3",
            "type": "t_uint40"
          }
        ],
        "numberOfBytes": "128"
      },
      "t_struct(Set)3137_storage": {
        "encoding": "inplace",
        "label": "struct EnumerableSet.Set",
        "members": [
          {
            "astId": 3132,
            "contract": "contracts/wombat-governance/MasterWombatV2.sol:MasterWombatV2",
            "label": "_values",
            "offset": 0,
            "slot": "0",
            "type": "t_array(t_bytes32)dyn_storage"
          },
          {
            "astId": 3136,
            "contract": "contracts/wombat-governance/MasterWombatV2.sol:MasterWombatV2",
            "label": "_indexes",
            "offset": 0,
            "slot": "1",
            "type": "t_mapping(t_bytes32,t_uint256)"
          }
        ],
        "numberOfBytes": "64"
      },
      "t_struct(UserInfo)11114_storage": {
        "encoding": "inplace",
        "label": "struct MasterWombatV2.UserInfo",
        "members": [
          {
            "astId": 11107,
            "contract": "contracts/wombat-governance/MasterWombatV2.sol:MasterWombatV2",
            "label": "amount",
            "offset": 0,
            "slot": "0",
            "type": "t_uint128"
          },
          {
            "astId": 11109,
            "contract": "contracts/wombat-governance/MasterWombatV2.sol:MasterWombatV2",
            "label": "factor",
            "offset": 16,
            "slot": "0",
            "type": "t_uint128"
          },
          {
            "astId": 11111,
            "contract": "contracts/wombat-governance/MasterWombatV2.sol:MasterWombatV2",
            "label": "rewardDebt",
            "offset": 0,
            "slot": "1",
            "type": "t_uint128"
          },
          {
            "astId": 11113,
            "contract": "contracts/wombat-governance/MasterWombatV2.sol:MasterWombatV2",
            "label": "pendingWom",
            "offset": 16,
            "slot": "1",
            "type": "t_uint128"
          }
        ],
        "numberOfBytes": "64"
      },
      "t_uint104": {
        "encoding": "inplace",
        "label": "uint104",
        "numberOfBytes": "13"
      },
      "t_uint128": {
        "encoding": "inplace",
        "label": "uint128",
        "numberOfBytes": "16"
      },
      "t_uint16": {
        "encoding": "inplace",
        "label": "uint16",
        "numberOfBytes": "2"
      },
      "t_uint256": {
        "encoding": "inplace",
        "label": "uint256",
        "numberOfBytes": "32"
      },
      "t_uint40": {
        "encoding": "inplace",
        "label": "uint40",
        "numberOfBytes": "5"
      },
      "t_uint96": {
        "encoding": "inplace",
        "label": "uint96",
        "numberOfBytes": "12"
      }
    }
  }
}