{
  "address": "0x69ad6fdC9437a0D32A1B6379F9284fBb67279bba",
  "abi": [
    {
      "anonymous": false,
      "inputs": [
        {
          "indexed": true,
          "internalType": "uint256",
          "name": "pid",
          "type": "uint256"
        },
        {
          "indexed": true,
          "internalType": "contract IERC20",
          "name": "lpToken",
          "type": "address"
        },
        {
          "indexed": false,
          "internalType": "contract IMultiRewarder",
          "name": "rewarder",
          "type": "address"
        }
      ],
      "name": "Add",
      "type": "event"
    },
    {
      "anonymous": false,
      "inputs": [
        {
          "indexed": true,
          "internalType": "address",
          "name": "user",
          "type": "address"
        },
        {
          "indexed": true,
          "internalType": "uint256",
          "name": "pid",
          "type": "uint256"
        },
        {
          "indexed": false,
          "internalType": "uint256",
          "name": "amount",
          "type": "uint256"
        }
      ],
      "name": "Deposit",
      "type": "event"
    },
    {
      "anonymous": false,
      "inputs": [
        {
          "indexed": true,
          "internalType": "address",
          "name": "user",
          "type": "address"
        },
        {
          "indexed": true,
          "internalType": "uint256",
          "name": "pid",
          "type": "uint256"
        },
        {
          "indexed": false,
          "internalType": "uint256",
          "name": "amount",
          "type": "uint256"
        }
      ],
      "name": "DepositFor",
      "type": "event"
    },
    {
      "anonymous": false,
      "inputs": [
        {
          "indexed": true,
          "internalType": "address",
          "name": "user",
          "type": "address"
        },
        {
          "indexed": true,
          "internalType": "uint256",
          "name": "pid",
          "type": "uint256"
        },
        {
          "indexed": false,
          "internalType": "uint256",
          "name": "amount",
          "type": "uint256"
        }
      ],
      "name": "EmergencyWithdraw",
      "type": "event"
    },
    {
      "anonymous": false,
      "inputs": [
        {
          "indexed": false,
          "internalType": "address",
          "name": "owner",
          "type": "address"
        },
        {
          "indexed": false,
          "internalType": "uint256",
          "name": "balance",
          "type": "uint256"
        }
      ],
      "name": "EmergencyWomWithdraw",
      "type": "event"
    },
    {
      "anonymous": false,
      "inputs": [
        {
          "indexed": true,
          "internalType": "address",
          "name": "user",
          "type": "address"
        },
        {
          "indexed": true,
          "internalType": "uint256",
          "name": "pid",
          "type": "uint256"
        },
        {
          "indexed": false,
          "internalType": "uint256",
          "name": "amount",
          "type": "uint256"
        }
      ],
      "name": "Harvest",
      "type": "event"
    },
    {
      "anonymous": false,
      "inputs": [
        {
          "indexed": true,
          "internalType": "address",
          "name": "previousOwner",
          "type": "address"
        },
        {
          "indexed": true,
          "internalType": "address",
          "name": "newOwner",
          "type": "address"
        }
      ],
      "name": "OwnershipTransferred",
      "type": "event"
    },
    {
      "anonymous": false,
      "inputs": [
        {
          "indexed": false,
          "internalType": "address",
          "name": "account",
          "type": "address"
        }
      ],
      "name": "Paused",
      "type": "event"
    },
    {
      "anonymous": false,
      "inputs": [
        {
          "indexed": true,
          "internalType": "uint256",
          "name": "pid",
          "type": "uint256"
        },
        {
          "indexed": false,
          "internalType": "contract IMultiRewarder",
          "name": "rewarder",
          "type": "address"
        }
      ],
      "name": "SetRewarder",
      "type": "event"
    },
    {
      "anonymous": false,
      "inputs": [
        {
          "indexed": false,
          "internalType": "address",
          "name": "account",
          "type": "address"
        }
      ],
      "name": "Unpaused",
      "type": "event"
    },
    {
      "anonymous": false,
      "inputs": [
        {
          "indexed": true,
          "internalType": "address",
          "name": "user",
          "type": "address"
        },
        {
          "indexed": false,
          "internalType": "uint256",
          "name": "basePartition",
          "type": "uint256"
        },
        {
          "indexed": false,
          "internalType": "uint256",
          "name": "boostedPartition",
          "type": "uint256"
        }
      ],
      "name": "UpdateEmissionPartition",
      "type": "event"
    },
    {
      "anonymous": false,
      "inputs": [
        {
          "indexed": true,
          "internalType": "address",
          "name": "user",
          "type": "address"
        },
        {
          "indexed": false,
          "internalType": "address",
          "name": "oldVeWOM",
          "type": "address"
        },
        {
          "indexed": false,
          "internalType": "address",
          "name": "newVeWOM",
          "type": "address"
        }
      ],
      "name": "UpdateVeWOM",
      "type": "event"
    },
    {
      "anonymous": false,
      "inputs": [
        {
          "indexed": true,
          "internalType": "address",
          "name": "user",
          "type": "address"
        },
        {
          "indexed": false,
          "internalType": "address",
          "name": "oldVoter",
          "type": "address"
        },
        {
          "indexed": false,
          "internalType": "address",
          "name": "newVoter",
          "type": "address"
        }
      ],
      "name": "UpdateVoter",
      "type": "event"
    },
    {
      "anonymous": false,
      "inputs": [
        {
          "indexed": true,
          "internalType": "address",
          "name": "user",
          "type": "address"
        },
        {
          "indexed": true,
          "internalType": "uint256",
          "name": "pid",
          "type": "uint256"
        },
        {
          "indexed": false,
          "internalType": "uint256",
          "name": "amount",
          "type": "uint256"
        }
      ],
      "name": "Withdraw",
      "type": "event"
    },
    {
      "inputs": [],
      "name": "ACC_TOKEN_PRECISION",
      "outputs": [
        {
          "internalType": "uint256",
          "name": "",
          "type": "uint256"
        }
      ],
      "stateMutability": "view",
      "type": "function"
    },
    {
      "inputs": [],
      "name": "REWARD_DURATION",
      "outputs": [
        {
          "internalType": "uint256",
          "name": "",
          "type": "uint256"
        }
      ],
      "stateMutability": "view",
      "type": "function"
    },
    {
      "inputs": [
        {
          "internalType": "contract IERC20",
          "name": "_lpToken",
          "type": "address"
        },
        {
          "internalType": "contract IMultiRewarder",
          "name": "_rewarder",
          "type": "address"
        }
      ],
      "name": "add",
      "outputs": [],
      "stateMutability": "nonpayable",
      "type": "function"
    },
    {
      "inputs": [],
      "name": "basePartition",
      "outputs": [
        {
          "internalType": "uint16",
          "name": "",
          "type": "uint16"
        }
      ],
      "stateMutability": "view",
      "type": "function"
    },
    {
      "inputs": [],
      "name": "boostedPartition",
      "outputs": [
        {
          "internalType": "uint256",
          "name": "",
          "type": "uint256"
        }
      ],
      "stateMutability": "view",
      "type": "function"
    },
    {
      "inputs": [
        {
          "internalType": "uint256",
          "name": "_pid",
          "type": "uint256"
        }
      ],
      "name": "calRewardPerUnit",
      "outputs": [
        {
          "internalType": "uint256",
          "name": "accWomPerShare",
          "type": "uint256"
        },
        {
          "internalType": "uint256",
          "name": "accWomPerFactorShare",
          "type": "uint256"
        }
      ],
      "stateMutability": "view",
      "type": "function"
    },
    {
      "inputs": [
        {
          "internalType": "uint256",
          "name": "_pid",
          "type": "uint256"
        },
        {
          "internalType": "uint256",
          "name": "_amount",
          "type": "uint256"
        }
      ],
      "name": "deposit",
      "outputs": [
        {
          "internalType": "uint256",
          "name": "reward",
          "type": "uint256"
        },
        {
          "internalType": "uint256[]",
          "name": "additionalRewards",
          "type": "uint256[]"
        }
      ],
      "stateMutability": "nonpayable",
      "type": "function"
    },
    {
      "inputs": [
        {
          "internalType": "uint256",
          "name": "_pid",
          "type": "uint256"
        },
        {
          "internalType": "uint256",
          "name": "_amount",
          "type": "uint256"
        },
        {
          "internalType": "address",
          "name": "_user",
          "type": "address"
        }
      ],
      "name": "depositFor",
      "outputs": [],
      "stateMutability": "nonpayable",
      "type": "function"
    },
    {
      "inputs": [
        {
          "internalType": "uint256",
          "name": "_pid",
          "type": "uint256"
        }
      ],
      "name": "emergencyWithdraw",
      "outputs": [],
      "stateMutability": "nonpayable",
      "type": "function"
    },
    {
      "inputs": [],
      "name": "emergencyWomWithdraw",
      "outputs": [],
      "stateMutability": "nonpayable",
      "type": "function"
    },
    {
      "inputs": [
        {
          "internalType": "address",
          "name": "asset",
          "type": "address"
        }
      ],
      "name": "getAssetPid",
      "outputs": [
        {
          "internalType": "uint256",
          "name": "",
          "type": "uint256"
        }
      ],
      "stateMutability": "view",
      "type": "function"
    },
    {
      "inputs": [
        {
          "internalType": "contract IERC20",
          "name": "_wom",
          "type": "address"
        },
        {
          "internalType": "contract IVeWom",
          "name": "_veWom",
          "type": "address"
        },
        {
          "internalType": "address",
          "name": "_voter",
          "type": "address"
        },
        {
          "internalType": "uint16",
          "name": "_basePartition",
          "type": "uint16"
        }
      ],
      "name": "initialize",
      "outputs": [],
      "stateMutability": "nonpayable",
      "type": "function"
    },
    {
      "inputs": [
        {
          "internalType": "uint256",
          "name": "_periodFinish",
          "type": "uint256"
        }
      ],
      "name": "lastTimeRewardApplicable",
      "outputs": [
        {
          "internalType": "uint256",
          "name": "",
          "type": "uint256"
        }
      ],
      "stateMutability": "view",
      "type": "function"
    },
    {
      "inputs": [],
      "name": "massUpdatePools",
      "outputs": [],
      "stateMutability": "nonpayable",
      "type": "function"
    },
    {
      "inputs": [
        {
          "internalType": "uint256[]",
          "name": "_pids",
          "type": "uint256[]"
        }
      ],
      "name": "migrate",
      "outputs": [],
      "stateMutability": "nonpayable",
      "type": "function"
    },
    {
      "inputs": [
        {
          "internalType": "uint256[]",
          "name": "_pids",
          "type": "uint256[]"
        }
      ],
      "name": "multiClaim",
      "outputs": [
        {
          "internalType": "uint256",
          "name": "reward",
          "type": "uint256"
        },
        {
          "internalType": "uint256[]",
          "name": "amounts",
          "type": "uint256[]"
        },
        {
          "internalType": "uint256[][]",
          "name": "additionalRewards",
          "type": "uint256[][]"
        }
      ],
      "stateMutability": "nonpayable",
      "type": "function"
    },
    {
      "inputs": [
        {
          "internalType": "address",
          "name": "_lpToken",
          "type": "address"
        },
        {
          "internalType": "uint256",
          "name": "_amount",
          "type": "uint256"
        }
      ],
      "name": "notifyRewardAmount",
      "outputs": [],
      "stateMutability": "nonpayable",
      "type": "function"
    },
    {
      "inputs": [],
      "name": "owner",
      "outputs": [
        {
          "internalType": "address",
          "name": "",
          "type": "address"
        }
      ],
      "stateMutability": "view",
      "type": "function"
    },
    {
      "inputs": [],
      "name": "pause",
      "outputs": [],
      "stateMutability": "nonpayable",
      "type": "function"
    },
    {
      "inputs": [],
      "name": "paused",
      "outputs": [
        {
          "internalType": "bool",
          "name": "",
          "type": "bool"
        }
      ],
      "stateMutability": "view",
      "type": "function"
    },
    {
      "inputs": [
        {
          "internalType": "uint256",
          "name": "_pid",
          "type": "uint256"
        },
        {
          "internalType": "address",
          "name": "_user",
          "type": "address"
        }
      ],
      "name": "pendingTokens",
      "outputs": [
        {
          "internalType": "uint256",
          "name": "pendingRewards",
          "type": "uint256"
        },
        {
          "internalType": "contract IERC20[]",
          "name": "bonusTokenAddresses",
          "type": "address[]"
        },
        {
          "internalType": "string[]",
          "name": "bonusTokenSymbols",
          "type": "string[]"
        },
        {
          "internalType": "uint256[]",
          "name": "pendingBonusRewards",
          "type": "uint256[]"
        }
      ],
      "stateMutability": "view",
      "type": "function"
    },
    {
      "inputs": [
        {
          "internalType": "uint256",
          "name": "",
          "type": "uint256"
        }
      ],
      "name": "poolInfo",
      "outputs": [
        {
          "internalType": "contract IERC20",
          "name": "lpToken",
          "type": "address"
        },
        {
          "internalType": "contract IMultiRewarder",
          "name": "rewarder",
          "type": "address"
        },
        {
          "internalType": "uint40",
          "name": "periodFinish",
          "type": "uint40"
        },
        {
          "internalType": "uint128",
          "name": "sumOfFactors",
          "type": "uint128"
        },
        {
          "internalType": "uint128",
          "name": "rewardRate",
          "type": "uint128"
        },
        {
          "internalType": "uint104",
          "name": "accWomPerShare",
          "type": "uint104"
        },
        {
          "internalType": "uint104",
          "name": "accWomPerFactorShare",
          "type": "uint104"
        },
        {
          "internalType": "uint40",
          "name": "lastRewardTimestamp",
          "type": "uint40"
        }
      ],
      "stateMutability": "view",
      "type": "function"
    },
    {
      "inputs": [],
      "name": "poolLength",
      "outputs": [
        {
          "internalType": "uint256",
          "name": "",
          "type": "uint256"
        }
      ],
      "stateMutability": "view",
      "type": "function"
    },
    {
      "inputs": [],
      "name": "renounceOwnership",
      "outputs": [],
      "stateMutability": "nonpayable",
      "type": "function"
    },
    {
      "inputs": [
        {
          "internalType": "uint256",
          "name": "_pid",
          "type": "uint256"
        }
      ],
      "name": "rewarderBonusTokenInfo",
      "outputs": [
        {
          "internalType": "contract IERC20[]",
          "name": "bonusTokenAddresses",
          "type": "address[]"
        },
        {
          "internalType": "string[]",
          "name": "bonusTokenSymbols",
          "type": "string[]"
        }
      ],
      "stateMutability": "view",
      "type": "function"
    },
    {
      "inputs": [
        {
          "internalType": "contract IMasterWombatV3",
          "name": "_newMasterWombat",
          "type": "address"
        }
      ],
      "name": "setNewMasterWombat",
      "outputs": [],
      "stateMutability": "nonpayable",
      "type": "function"
    },
    {
      "inputs": [
        {
          "internalType": "uint256",
          "name": "_pid",
          "type": "uint256"
        },
        {
          "internalType": "contract IMultiRewarder",
          "name": "_rewarder",
          "type": "address"
        }
      ],
      "name": "setRewarder",
      "outputs": [],
      "stateMutability": "nonpayable",
      "type": "function"
    },
    {
      "inputs": [
        {
          "internalType": "contract IVeWom",
          "name": "_newVeWom",
          "type": "address"
        }
      ],
      "name": "setVeWom",
      "outputs": [],
      "stateMutability": "nonpayable",
      "type": "function"
    },
    {
      "inputs": [
        {
          "internalType": "address",
          "name": "_newVoter",
          "type": "address"
        }
      ],
      "name": "setVoter",
      "outputs": [],
      "stateMutability": "nonpayable",
      "type": "function"
    },
    {
      "inputs": [
        {
          "internalType": "address",
          "name": "newOwner",
          "type": "address"
        }
      ],
      "name": "transferOwnership",
      "outputs": [],
      "stateMutability": "nonpayable",
      "type": "function"
    },
    {
      "inputs": [],
      "name": "unpause",
      "outputs": [],
      "stateMutability": "nonpayable",
      "type": "function"
    },
    {
      "inputs": [
        {
          "internalType": "uint16",
          "name": "_basePartition",
          "type": "uint16"
        }
      ],
      "name": "updateEmissionPartition",
      "outputs": [],
      "stateMutability": "nonpayable",
      "type": "function"
    },
    {
      "inputs": [
        {
          "internalType": "address",
          "name": "_user",
          "type": "address"
        },
        {
          "internalType": "uint256",
          "name": "_newVeWomBalance",
          "type": "uint256"
        }
      ],
      "name": "updateFactor",
      "outputs": [],
      "stateMutability": "nonpayable",
      "type": "function"
    },
    {
      "inputs": [
        {
          "internalType": "uint256",
          "name": "_pid",
          "type": "uint256"
        }
      ],
      "name": "updatePool",
      "outputs": [],
      "stateMutability": "nonpayable",
      "type": "function"
    },
    {
      "inputs": [
        {
          "internalType": "uint256",
          "name": "",
          "type": "uint256"
        },
        {
          "internalType": "address",
          "name": "",
          "type": "address"
        }
      ],
      "name": "userInfo",
      "outputs": [
        {
          "internalType": "uint128",
          "name": "amount",
          "type": "uint128"
        },
        {
          "internalType": "uint128",
          "name": "factor",
          "type": "uint128"
        },
        {
          "internalType": "uint128",
          "name": "rewardDebt",
          "type": "uint128"
        },
        {
          "internalType": "uint128",
          "name": "pendingWom",
          "type": "uint128"
        }
      ],
      "stateMutability": "view",
      "type": "function"
    },
    {
      "inputs": [],
      "name": "veWom",
      "outputs": [
        {
          "internalType": "contract IVeWom",
          "name": "",
          "type": "address"
        }
      ],
      "stateMutability": "view",
      "type": "function"
    },
    {
      "inputs": [],
      "name": "voter",
      "outputs": [
        {
          "internalType": "address",
          "name": "",
          "type": "address"
        }
      ],
      "stateMutability": "view",
      "type": "function"
    },
    {
      "inputs": [
        {
          "internalType": "uint256",
          "name": "_pid",
          "type": "uint256"
        },
        {
          "internalType": "uint256",
          "name": "_amount",
          "type": "uint256"
        }
      ],
      "name": "withdraw",
      "outputs": [
        {
          "internalType": "uint256",
          "name": "reward",
          "type": "uint256"
        },
        {
          "internalType": "uint256[]",
          "name": "additionalRewards",
          "type": "uint256[]"
        }
      ],
      "stateMutability": "nonpayable",
      "type": "function"
    },
    {
      "inputs": [],
      "name": "wom",
      "outputs": [
        {
          "internalType": "contract IERC20",
          "name": "",
          "type": "address"
        }
      ],
      "stateMutability": "view",
      "type": "function"
    }
  ],
  "transactionHash": "0x4cc259ac2677b688164e8d5fc29bccb722e03ed4047947d473b25df5634001b7",
  "args": [],
  "solcInputHash": "66139c59c64e54fe5e689060f1c158f4",
  "bytecode": "0x6080806040523461001657613e58908161001c8239f35b600080fdfe60806040908082526004918236101561001757600080fd5b600091823560e01c908163081e3eda14612781575080631526fe27146126545780631983dbf5146125915780632e112757146122ad5780633e582ae6146122865780633f4ba83a146121bc57806343de3207146120a1578063441a3e7014611efc57806346c96aac14611ed55780634bc2a65714611e255780634ed73d2814611d125780634f00a93e14611a5857806351eb05a614611a3b57806352c28fab146115c45780635312ea8e146113b95780635ade228a1461139c5780635c975abb14611379578063630b5ba114611340578063715018a6146112c75780638456cb591461123c5780638da5cb5b1461121557806390210d7e146110c657806393f1a40b146110525780639b128de614610fa5578063abfef11114610f80578063af929a8014610f26578063b66503cf14610bb1578063b8be44e714610b86578063bc70fdbc14610b3e578063be159bea14610b0f578063c5a6222e14610ae8578063d1e2ac8814610a83578063d93bf4fe146107e8578063e2bbb1581461067d578063eea016041461065e578063eeca15621461062e578063f13e55071461042a578063f2fde38b146103765763ffcd4263146101d257600080fd5b346103725780600319360112610372578235906101ed612808565b9260609485918694816101ff8261279d565b50976001610288610271896102808464e8d4a5100061021d8a613b12565b9590948b8b5260d0602052808b206001600160a01b03809b16809c526020528c209561026b8754916102626fffffffffffffffffffffffffffffffff98898516612e4b565b9260801c612e4b565b90612e5e565b04930154928360801c90612e5e565b911690612ba0565b9901541691826102d8575b89896102d48a6102c68b8b6102b9825197889788526080602089015260808801906128cb565b918683039087015261293d565b90838203606085015261284a565b0390f35b6102ec9192949950602497508395506137fd565b969098865194859384927fc031a66f0000000000000000000000000000000000000000000000000000000084528301525afa91821561036757916102d4949391836102c69492610344575b5050938193923880610293565b61036092503d8091833e6103588183612b5f565b810190612fa5565b3880610337565b8351903d90823e3d90fd5b5080fd5b508234610426576020600319360112610426576103916127ed565b906001600160a01b036103a9816033541633146129cc565b8216156103bd57506103ba90612a17565b51f35b608490602084519162461bcd60e51b8352820152602660248201527f4f776e61626c653a206e6577206f776e657220697320746865207a65726f206160448201527f64647265737300000000000000000000000000000000000000000000000000006064820152fd5b8280fd5b5082346104265782600319360112610426576001600160a01b03610453816033541633146129cc565b838160c95416928451927f70a08231000000000000000000000000000000000000000000000000000000009384815230838201526020958682602481845afa801561062457879286916105ed575b5088517fa9059cbb0000000000000000000000000000000000000000000000000000000081523386820190815260208101929092529586929183919082906040015b03925af19081156105e35785936024926105b6575b5060c954169386519485938492835230908301525afa9182156105a9578492610559575b5050815133815260208101919091527f2b58f1b72aa1f2865f8da73af0eaff3a2b5b670c59fed83005919fe6c23cf35c9080604081015b0390a151f35b90809250813d83116105a2575b6105708183612b5f565b8101031261042657516105537f2b58f1b72aa1f2865f8da73af0eaff3a2b5b670c59fed83005919fe6c23cf35c61051c565b503d610566565b50505051903d90823e3d90fd5b6105d590853d87116105dc575b6105cd8183612b5f565b810190612f3b565b50886104f8565b503d6105c3565b86513d89823e3d90fd5b8381939492503d831161061d575b6106058183612b5f565b8101031261061957518691906104e36104a1565b8480fd5b503d6105fb565b88513d87823e3d90fd5b50823461042657602060031936011261042657602092503542811115610658575042905b51908152f35b90610652565b50346103725781600319360112610372576020905164e8d4a510008152f35b508234610426576001600160a01b038261069636612834565b6106a560026065541415612e8a565b60026065556106b960ff6097541615612aea565b61076887826106c78561279d565b509785835261070d610706836fffffffffffffffffffffffffffffffff60209d8e9760d089528181203382528952206106ff8b612c6d565b5416612e5e565b33886133c1565b9890995416908b88518096819582947f23b872dd0000000000000000000000000000000000000000000000000000000084523090339085016040919493929460608201956001600160a01b0380921683521660208201520152565b03925af180156107de576102d4969798506107c1575b5082519081527f90890809c654f11d6e72a28fa60149770a0d11ec6c92319d6ceb2bb0a4ea1a15873392a36001606555808051958695865285015283019061284a565b6107d790883d8a116105dc576105cd8183612b5f565b508761077e565b84513d8a823e3d90fd5b50829034610426576107f93661287e565b9290600261080b816065541415612e8a565b806065556001600160a01b039160cb908382541615610a4057610837610832368984612eed565b61301f565b505050875b87811061084d578887600160655551f35b8060051b820135808a5260d0602091818352898c20338d52835289888d828120908c8a6fffffffffffffffffffffffffffffffff958685541692836108a6575b50505050505050505050506108a190612c5e565b61083c565b9161091c9391858c946108b88c61279d565b5099808b54169454169251968795869485937f095ea7b300000000000000000000000000000000000000000000000000000000855284019092916fffffffffffffffffffffffffffffffff6020916001600160a01b03604085019616845216910152565b03925af18015610a3357610a16575b508b8a5416908483541691803b15610372578f8f8389936064935196879586947f90210d7e00000000000000000000000000000000000000000000000000000000865285015260248401523360448401525af18015610a09576108a1989796959493927fffffffffffffffffffffffffffffffff00000000000000000000000000000000928d926109fa575b505460801c9201926109cd845493828516612f53565b1691161790558c528152888b2090338c52528960018982208281550155908a808088818e818a8f8f61088d565b610a0390612b35565b386109b7565b508f8e51903d90823e3d90fd5b610a2c90883d8a116105dc576105cd8183612b5f565b503861092b565b50508d51903d90823e3d90fd5b606485602088519162461bcd60e51b8352820152600960248201527f746f2077686572653f00000000000000000000000000000000000000000000006044820152fd5b50823461042657602060031936011261042657356001600160a01b03808216809203610ae457610ab8906033541633146129cc565b7fffffffffffffffffffffffff000000000000000000000000000000000000000060cb54161760cb5551f35b8380fd5b50346103725781600319360112610372576020906001600160a01b0360c954169051908152f35b503461037257816003193601126103725760209061ffff610b368160cc5460a01c166137eb565b169051908152f35b509034610b83576020600319360112610b835750610b5f6102d492356137fd565b610b7583949294519484869586528501906128cb565b90838203602085015261293d565b80fd5b50919034610b83576020600319360112610b835750610ba59035613b12565b82519182526020820152f35b508234610426578160031936011261042657610bcb6127ed565b60249081358015610ee4576001600160a01b03809216865260209160d183528587205460018110610ed257600019610c03910161279d565b50906001820164ffffffffff9384825460a01c1680421015600014610e5a5750610c3462093a80610c799204613ce5565b60028501906fffffffffffffffffffffffffffffffff7fffffffffffffffffffffffffffffffff0000000000000000000000000000000083549260801b169116179055565b6003830180547fff0000000000ffffffffffffffffffffffffffffffffffffffffffffffffffff1642861660d01b7effffffffff0000000000000000000000000000000000000000000000000000161790557ffffffffffffffffffffffffffffffffffffffffffffffffffffffffffff6c57f4211610e485785939291610d4d869262093a8095864201167fffffffffffffff0000000000ffffffffffffffffffffffffffffffffffffffff78ffffffffff000000000000000000000000000000000000000083549260a01b169116179055565b60c954168851948580927f70a08231000000000000000000000000000000000000000000000000000000008252308b8301525afa928315610e3e578893610e0a575b506002015460801c910410610da45750505051f35b90602c91608494519362461bcd60e51b85528401528201527f6e6f74696679526577617264416d6f756e743a2050726f76696465642072657760448201527f61726420746f6f206869676800000000000000000000000000000000000000006064820152fd5b9092508381813d8311610e37575b610e228183612b5f565b81010312610e335751916002610d8f565b8780fd5b503d610e18565b87513d8a823e3d90fd5b8589601189634e487b7160e01b835252fd5b90610e8d62093a80610e87610e73610ecd954290612ba0565b9361026b60028a0195865460801c90612e4b565b04613ce5565b6fffffffffffffffffffffffffffffffff7fffffffffffffffffffffffffffffffff0000000000000000000000000000000083549260801b169116179055565b610c79565b8488601188634e487b7160e01b835252fd5b606484601f85602089519362461bcd60e51b85528401528201527f6e6f74696679526577617264416d6f756e743a207a65726f20616d6f756e74006044820152fd5b50919034610b83576020600319360112610b83576001600160a01b03610f4a6127ed565b16815260d1602052828120549160018310610f6d57602083600019865191018152f35b906011602492634e487b7160e01b835252fd5b503461037257816003193601126103725760209061ffff60cc5460a01c169051908152f35b503461037257602060031936011261037257610fbf6127ed565b6001600160a01b038091610fd8826033541633146129cc565b168015610ae45760ca80547fffffffffffffffffffffffff000000000000000000000000000000000000000081168317909155835192166001600160a01b03908116835216602082015233907fa0956d8e03557278fdb89913cec4e0f21da09587edf25b3eecc0079cdb757ef59080604081015b0390a251f35b5082346104265781600319360112610426576080928291611071612808565b9035825260d06020526001600160a01b0383832091168252602052209060018254920154908051926fffffffffffffffffffffffffffffffff908181168552851c6020850152821690830152821c6060820152f35b5082346104265760606003193601126104265780359083602435916110e961281e565b92606554600214156110fa90612e8a565b600260655560975460ff161561110f90612aea565b6111188561279d565b5093858452602092839160d08352888620966001600160a01b0391828116988989528552858b89206111498c612c6d565b546fffffffffffffffffffffffffffffffff169061116691612e5e565b611170918b6133c1565b50505489517f23b872dd0000000000000000000000000000000000000000000000000000000081523393810193845230602085015260408401869052968793849003606001928492165af19283156105e3577f16f3fbfd4bcc50a5cecb2e53e398a1ad77d89f63288ef540d862b264ed57eb1f936111f8575b508551908152a3600160655551f35b61120e90833d85116105dc576105cd8183612b5f565b50876111e9565b50346103725781600319360112610372576020906001600160a01b03603354169051908152f35b50346103725781600319360112610372576112636001600160a01b036033541633146129cc565b60017fffffffffffffffffffffffffffffffffffffffffffffffffffffffffffffff0060975461129660ff821615612aea565b16176097557f62e78cea01bee320cd4e420270b5ea74000d11b0c9f74754ebdbfc544b05a25860208251338152a151f35b503461037257816003193601126103725781603354917fffffffffffffffffffffffff00000000000000000000000000000000000000006001600160a01b038416936113143386146129cc565b1660335551917f8be0079c531659141344cd1fd0a4f28419497f9722a3daafe3b4186f6b6457e08284a3f35b503461037257816003193601126103725760cf54825b81811061136257505051f35b8061136f61137492612c6d565b612c5e565b611356565b503461037257816003193601126103725760209060ff6097541690519015158152f35b50346103725781600319360112610372576020905162093a808152f35b50823461042657602080600319360112610ae4578135916113df60026065541415612e8a565b60026065556113ed8361279d565b509083865260d0835284862033875283528486206001600160a01b039287848254169481876114886fffffffffffffffffffffffffffffffff98898854168d519485809481937fa9059cbb0000000000000000000000000000000000000000000000000000000083528d339084019092916fffffffffffffffffffffffffffffffff6020916001600160a01b03604085019616845216910152565b03925af180156115ba5761159d575b5060016114a38961279d565b500154168061152d575b5050600192506002018054936114c9835460801c828716612f53565b167fffffffffffffffffffffffffffffffff00000000000000000000000000000000809516179055868155019081541690557fbb757047c2b5f3974fe26b7c10f732e7bce710b0952a71082702781e62ae05958351918583523392a3600160655551f35b604482958a5196879384927fc372328800000000000000000000000000000000000000000000000000000000845233908401528160248401525af1908115610e3e57600193600292611583575b899192506114ad565b611596903d808c833e6103588183612b5f565b508961157a565b6115b390883d8a116105dc576105cd8183612b5f565b508a611497565b8a513d85823e3d90fd5b5082346104265781600319360112610426576115de6127ed565b6115e6612808565b916001600160a01b038092611600826033541633146129cc565b1692833b156119d257821691823b158015906119ca575b156119615783865260ce6020528486205461191e5764ffffffffff90814216908651610100810181811067ffffffffffffffff82111761190b57908994939291895287815260208101878152898201908482526060830190878252608084019288845260a085019589875260c08601998a5260e0860197885260cf54680100000000000000008110156118f7578060016116b4920160cf5561279d565b9690966118e4579361175b61182997948b6117a095856118799f9e9d9c9a9660039a5116907fffffffffffffffffffffffff000000000000000000000000000000000000000091828b5416178a5560018a019451169084541617835551167fffffffffffffff0000000000ffffffffffffffffffffffffffffffffffffffff78ffffffffff000000000000000000000000000000000000000083549260a01b169116179055565b51905160801b7fffffffffffffffffffffffffffffffff00000000000000000000000000000000166fffffffffffffffffffffffffffffffff91909116176002830155565b01946cffffffffffffffffffffffffff809251167fffffffffffffffffffffffffffffffffffffff00000000000000000000000000875416178655511684907fffffffffffff00000000000000000000000000ffffffffffffffffffffffffff79ffffffffffffffffffffffffff0000000000000000000000000083549260681b169116179055565b5182547fff0000000000ffffffffffffffffffffffffffffffffffffffffffffffffffff16911660d01b7effffffffff000000000000000000000000000000000000000000000000000016179055565b60cf5483865260d16020528486205561189183612bc1565b5060cf5490600182106118d1575060206000197fec85b1d1f037ff3a8722aaf5d4d8e7d93c7ff10c056430c18d76a9ec23aa397e9286519485520192a351f35b856011602492634e487b7160e01b835252fd5b5060248f808d634e487b7160e01b825252fd5b5060248f60418d634e487b7160e01b835252fd5b60248a604188634e487b7160e01b835252fd5b606482602087519162461bcd60e51b8352820152601560248201527f6164643a204c5020616c726561647920616464656400000000000000000000006044820152fd5b608482602087519162461bcd60e51b8352820152602660248201527f6164643a207265776172646572206d75737420626520636f6e7472616374206f60448201527f72207a65726f00000000000000000000000000000000000000000000000000006064820152fd5b508215611617565b608482602087519162461bcd60e51b8352820152602660248201527f6164643a204c5020746f6b656e206d75737420626520612076616c696420636f60448201527f6e747261637400000000000000000000000000000000000000000000000000006064820152fd5b508234610426576020600319360112610426576103ba9035612c6d565b508234610426578160031936011261042657611a726127ed565b90602435906001600160a01b03908160ca54163303611ca9575060cf549216845b838110611a9f57858551f35b808652602060d081528587209083885252828587206fffffffffffffffffffffffffffffffff8082541615611c9d57611ad784612c6d565b611ae08461279d565b50908254926003830192828454956cffffffffffffffffffffffffff9081881683821690611b0d91612e4b565b9164e8d4a5100080936068938360809c861c16908c1c90611b2d91612e4b565b611b3691612e5e565b04976001870198895490868216611b4c91612ba0565b611b5590613ce5565b611b60918c1c61339c565b89546fffffffffffffffffffffffffffffffff1660809190911b7fffffffffffffffffffffffffffffffff00000000000000000000000000000000161789558487549b818d1690611bb19082612e4b565b90611bbb91613da4565b97611bc589613ce5565b81546fffffffffffffffffffffffffffffffff1660809190911b7fffffffffffffffffffffffffffffffff00000000000000000000000000000000161781555416905490828216611c1591612e4b565b921c16611c229086612e4b565b611c2b91612e5e565b04611c3590613ce5565b16937fffffffffffffffffffffffffffffffff000000000000000000000000000000009485825416179055600201948554941c9082851690611c7691612e5e565b90611c8091612ba0565b611c8990613ce5565b169116179055611c9890612c5e565b611a93565b505050611c9890612c5e565b608490602086519162461bcd60e51b8352820152602160248201527f4d6173746572576f6d6261743a2063616c6c6572206973206e6f74205665576f60448201527f6d000000000000000000000000000000000000000000000000000000000000006064820152fd5b509034610b8357611d52610832611d283661287e565b611d3760026065541415612e8a565b6002606555611d4b60ff6097541615612aea565b3691612eed565b919290936001908160655580519586958652611d7a602091606083890152606088019061284a565b918683039087015284519182815281810182808560051b84010197019580925b858410611da7578989038af35b919395979092949698507fffffffffffffffffffffffffffffffffffffffffffffffffffffffffffffffe082820301845287868a5181808251958681520191019386905b808210611e0c575050819293509a0194019401918998979593969491611d9a565b9280919492865181520194019201928a92938992611deb565b503461037257602060031936011261037257611e3f6127ed565b6001600160a01b03611e56816033541633146129cc565b8082169182156106195760cc80547fffffffffffffffffffffffff00000000000000000000000000000000000000008116909417905583516001600160a01b03939092168316825291909116602082015233907f9db5e84498cff91ecd1f5666fa2ecf069530eb27baffabaccefafc06bbd3cee390806040810161104c565b50346103725781600319360112610372576020906001600160a01b0360cc54169051908152f35b5082903461042657611f0d36612834565b9190611f1e60026065541415612e8a565b6002606555611f3260ff6097541615612aea565b611f3b8161279d565b509281865260209460d0865283872033885286528387206fffffffffffffffffffffffffffffffff9083828254161061205f57838093611f986107068897611fe9968d96611f916001600160a01b039d9c612c6d565b5416612ba0565b9890995416908b88518096819582947fa9059cbb00000000000000000000000000000000000000000000000000000000845233908401602090939291936001600160a01b0360408201951681520152565b03925af180156107de576102d496979850612042575b5082519081527ff279e6a1f5e320cca91135676d9cb6e44ca8a08c0b88342bcdb1144f6511b568873392a36001606555808051958695865285015283019061284a565b61205890883d8a116105dc576105cd8183612b5f565b5087611fff565b6064838988519162461bcd60e51b8352820152601c60248201527f77697468647261773a206e6f7420656e6f7567682062616c616e6365000000006044820152fd5b5082346104265781600319360112610426578035906120be612808565b6001600160a01b03906120d6826033541633146129cc565b1690813b158015906121b4575b1561214b575060207f858b2cab7b344488967106b3c498c1f59de0a26b500923d9e4e06918909cd5119160016121188561279d565b5001817fffffffffffffffffffffffff00000000000000000000000000000000000000008254161790558451908152a251f35b608490602085519162461bcd60e51b8352820152602660248201527f7365743a207265776172646572206d75737420626520636f6e7472616374206f60448201527f72207a65726f00000000000000000000000000000000000000000000000000006064820152fd5b5081156120e3565b5082346104265782600319360112610426576121e46001600160a01b036033541633146129cc565b6097549060ff82161561224357507fffffffffffffffffffffffffffffffffffffffffffffffffffffffffffffff00166097557f5db9ee0a495bf2e6ff9c91a7834c1ba4fdd244a5e8aa4e537bd38aeae4b073aa60208251338152a151f35b606490602084519162461bcd60e51b8352820152601460248201527f5061757361626c653a206e6f74207061757365640000000000000000000000006044820152fd5b50346103725781600319360112610372576020906001600160a01b0360ca54169051908152f35b508234610426576080600319360112610426576122c86127ed565b906122d1612808565b916122da61281e565b906064359061ffff8216808303610e335787549460ff8660081c168060001461258757303b155b1561251e571595866124f0575b506001600160a01b038093169182156124ad576103e8106124445750907fffffffffffffffffffff000000000000000000000000000000000000000000009161236660ff8a5460081c1661236181612a79565b612a79565b61236f33612a17565b8189549761239060ff8a60081c1661238681612a79565b6001606555612a79565b7fffffffffffffffffffffffffffffffffffffffffffffffffffffffffffffff00609754166097557fffffffffffffffffffffffff0000000000000000000000000000000000000000928360c954161760c955169060ca54161760ca5575ffff000000000000000000000000000000000000000060cc549360a01b1693169116171760cc5561241d575051f35b7fffffffffffffffffffffffffffffffffffffffffffffffffffffffffffff00ff16825551f35b608490602089519162461bcd60e51b8352820152602760248201527f6261736520706172746974696f6e206d75737420626520696e2072616e67652060448201527f302c2031303030000000000000000000000000000000000000000000000000006064820152fd5b60648260208b519162461bcd60e51b8352820152601a60248201527f776f6d20616464726573732063616e6e6f74206265207a65726f0000000000006044820152fd5b7fffffffffffffffffffffffffffffffffffffffffffffffffffffffffffff0000166101011789558961230e565b60848260208b519162461bcd60e51b8352820152602e60248201527f496e697469616c697a61626c653a20636f6e747261637420697320616c72656160448201527f647920696e697469616c697a65640000000000000000000000000000000000006064820152fd5b60ff871615612301565b508234610426576020600319360112610426573561ffff80821691828103610619576125c96001600160a01b036033541633146129cc565b6103e88311610619576126219060cc547fffffffffffffffffffff0000ffffffffffffffffffffffffffffffffffffffff75ffff00000000000000000000000000000000000000008360a01b1691161760cc556137eb565b83519283521660208201527f7fd921cf733c788915a229b0ea58095c44ae2c275ed7835501e5135fe3c1ed05823392a251f35b508234610426576020600319360112610426573560cf548110156104265760cf610100935260021b906001600160a01b0380837facb8d954e2cfef495862221e91bd7523613cf8808827cb33edfe4904cc51bf29015416927facb8d954e2cfef495862221e91bd7523613cf8808827cb33edfe4904cc51bf2a810154927facb8d954e2cfef495862221e91bd7523613cf8808827cb33edfe4904cc51bf2c7facb8d954e2cfef495862221e91bd7523613cf8808827cb33edfe4904cc51bf2b8301549201549281519586528416602086015264ffffffffff809460a01c16908501526fffffffffffffffffffffffffffffffff8116606085015260801c60808401526cffffffffffffffffffffffffff80821660a08501528160681c1660c084015260d01c1660e0820152f35b83903461037257816003193601126103725760209060cf548152f35b60cf548110156127d75760cf60005260021b7facb8d954e2cfef495862221e91bd7523613cf8808827cb33edfe4904cc51bf290190600090565b634e487b7160e01b600052603260045260246000fd5b600435906001600160a01b038216820361280357565b600080fd5b602435906001600160a01b038216820361280357565b604435906001600160a01b038216820361280357565b6003196040910112612803576004359060243590565b90815180825260208080930193019160005b82811061286a575050505090565b83518552938101939281019260010161285c565b9060206003198301126128035760043567ffffffffffffffff9283821161280357806023830112156128035781600401359384116128035760248460051b83010111612803576024019190565b90815180825260208080930193019160005b8281106128eb575050505090565b83516001600160a01b0316855293810193928101926001016128dd565b918091926000905b828210612928575011612921575050565b6000910152565b91508060209183015181860152018291612910565b908082519081815260208091019281808460051b8301019501936000915b84831061296b5750505050505090565b9091929394958480806001937fffffffffffffffffffffffffffffffffffffffffffffffffffffffffffffffe080878303018852601f8c516129b881518092818752878088019101612908565b01160101980193019301919493929061295b565b156129d357565b606460405162461bcd60e51b815260206004820152602060248201527f4f776e61626c653a2063616c6c6572206973206e6f7420746865206f776e65726044820152fd5b603354906001600160a01b0380911691827fffffffffffffffffffffffff0000000000000000000000000000000000000000821617603355167f8be0079c531659141344cd1fd0a4f28419497f9722a3daafe3b4186f6b6457e06000604051a3565b15612a8057565b608460405162461bcd60e51b815260206004820152602b60248201527f496e697469616c697a61626c653a20636f6e7472616374206973206e6f74206960448201527f6e697469616c697a696e670000000000000000000000000000000000000000006064820152fd5b15612af157565b606460405162461bcd60e51b815260206004820152601060248201527f5061757361626c653a20706175736564000000000000000000000000000000006044820152fd5b67ffffffffffffffff8111612b4957604052565b634e487b7160e01b600052604160045260246000fd5b90601f7fffffffffffffffffffffffffffffffffffffffffffffffffffffffffffffffe0910116810190811067ffffffffffffffff821117612b4957604052565b818110612bab570390565b634e487b7160e01b600052601160045260246000fd5b600081815260ce6020526040812054612c595760cd5468010000000000000000811015612c4557600181018060cd55811015612c315790826040927f83978b4c69c48dd978ab43fe30f077615294f938fb7f936d9eb340e51ea7db2e015560cd5492815260ce6020522055600190565b602482634e487b7160e01b81526032600452fd5b602482634e487b7160e01b81526041600452fd5b905090565b6000198114612bab5760010190565b612c768161279d565b509060cc546000906001600160a01b0380911690845416813b156104265782916024839260405194859384927f63453ae100000000000000000000000000000000000000000000000000000000845260048401525af18015612e2657612e17575b5090600383019182549164ffffffffff92838160d01c164211612cfd575b505050505050565b612e0795612da3612d58612d4d6001947fffffffffffffffffffffffffffffffffffffff000000000000000000000000006cffffffffffffffffffffffffff612d468b99613b12565b9490613d46565b169116178955613d46565b87547fffffffffffff00000000000000000000000000ffffffffffffffffffffffffff1660689190911b79ffffffffffffffffffffffffff0000000000000000000000000016178755565b015460a01c169050804210600014612e125750425b82547fff0000000000ffffffffffffffffffffffffffffffffffffffffffffffffffff16911660d01b7effffffffff000000000000000000000000000000000000000000000000000016179055565b388080808080612cf5565b612db8565b612e2090612b35565b38612cd7565b6040513d84823e3d90fd5b64e8d4a51000908060001904821181151516612bab570290565b8060001904821181151516612bab570290565b81198111612bab570190565b8115612e74570490565b634e487b7160e01b600052601260045260246000fd5b15612e9157565b606460405162461bcd60e51b815260206004820152601f60248201527f5265656e7472616e637947756172643a207265656e7472616e742063616c6c006044820152fd5b67ffffffffffffffff8111612b495760051b60200190565b9291612ef882612ed5565b91612f066040519384612b5f565b829481845260208094019160051b810192831161280357905b828210612f2c5750505050565b81358152908301908301612f1f565b90816020910312612803575180151581036128035790565b6fffffffffffffffffffffffffffffffff9182169116818110612bab570390565b60005b828110612f8357505050565b606082820152602001612f77565b80518210156127d75760209160051b010190565b60209081818403126128035780519067ffffffffffffffff821161280357019180601f84011215612803578251612fdb81612ed5565b93612fe96040519586612b5f565b818552838086019260051b820101928311612803578301905b828210613010575050505090565b81518152908301908301613002565b9061306b916000815161303181612ed5565b9061303f6040519283612b5f565b8082527fffffffffffffffffffffffffffffffffffffffffffffffffffffffffffffffe0958691612ed5565b01366020830137806130a584519661309b61308589612ed5565b986130936040519a8b612b5f565b808a52612ed5565b0160208801612f74565b8560005b855181101561331a576130bc8187612f91565b5160005260d060205260406000203360005260205260406000206130e96130e38389612f91565b51612c6d565b805490876fffffffffffffffffffffffffffffffff8316613116575b50505061311190612c5e565b6130a9565b6fffffffffffffffffffffffffffffffff9761320e6001600160a01b039361314c61314688600196999899612f91565b5161279d565b509264e8d4a5100061318b600386015461026b8f61317d8d6cffffffffffffffffffffffffff928386169116612e4b565b9260681c168c60801c612e4b565b04916131ab6131a287830154948560801c90612e5e565b8e851690612ba0565b9c8d931686820155856fffffffffffffffffffffffffffffffff61320564e8d4a51000610e878d61026b60038c0154916cffffffffffffffffffffffffff6131f7818516898416612e4b565b9360681c169060801c612e4b565b16910155612e5e565b98613219858a612f91565b52613224848b612f91565b5161322f858a612f91565b516040519081527f71bab65ced2e5750775a0613be067df48ef06cf92a496ebf7663ae066092495460203392a3015416918261326f575b81925087613105565b6040517fc37232880000000000000000000000000000000000000000000000000000000081523360048201526fffffffffffffffffffffffffffffffff919091166024820152916000908390604490829084905af1801561330e57613111926000916132f3575b506132e1828b612f91565b526132ec818a612f91565b5038613266565b61330891503d806000833e6103588183612b5f565b386132d6565b6040513d6000823e3d90fd5b5060c9546040517fa9059cbb000000000000000000000000000000000000000000000000000000008152336004820152602481018690529497509195909450929150602090829060449082906000906001600160a01b03165af1801561330e576133815750565b6133999060203d6020116105dc576105cd8183612b5f565b50565b906fffffffffffffffffffffffffffffffff8080931691168092038111612bab570190565b60009360609390926133d28361279d565b508360005260d060205260406000206001600160a01b03831660005260205260406000209384546fffffffffffffffffffffffffffffffff81169081158015906137db575b6136b6575b5050506fffffffffffffffffffffffffffffffff61343984613ce5565b16927fffffffffffffffffffffffffffffffff000000000000000000000000000000009260248585885416179586885560206001600160a01b0360ca5416604051938480927f70a082310000000000000000000000000000000000000000000000000000000082526001600160a01b03881660048301525afa91821561330e57600092613680575b506134db816134d6613521946134e094612e4b565b613da4565b613ce5565b87546fffffffffffffffffffffffffffffffff1660809190911b7fffffffffffffffffffffffffffffffff0000000000000000000000000000000016178755565b61356464e8d4a51000610e87885461026b6003880154916cffffffffffffffffffffffffff6131f78185166fffffffffffffffffffffffffffffffff8416612e4b565b6fffffffffffffffffffffffffffffffff600188019116858254161790556001600160a01b0360018401541690816135e0575b5050506135d86fffffffffffffffffffffffffffffffff6135d26002829401966135cd88549760801c915460801c84891661339c565b612f53565b16613ce5565b169116179055565b6040517fc37232880000000000000000000000000000000000000000000000000000000081526001600160a01b039190911660048201526024810192909252919650906000908290604490829084905af1801561330e576fffffffffffffffffffffffffffffffff6135d260026135d8938395600091613665575b5099945050613597565b61367a91503d806000833e6103588183612b5f565b3861365b565b91506020823d6020116136ae575b8161369b60209383612b5f565b81010312612803579051906134db6134c1565b3d915061368e565b64e8d4a510009299509061026b6136e8926003860154926131f76cffffffffffffffffffffffffff9182861690612e4b565b04966fffffffffffffffffffffffffffffffff61371a61371160018801549a8b60801c90612e5e565b828b1690612ba0565b9816600186015560c9546040517fa9059cbb0000000000000000000000000000000000000000000000000000000081526001600160a01b038581166004830152602482018b9052909160209183916044918391600091165af1801561330e576137bc575b506040518881527f71bab65ced2e5750775a0613be067df48ef06cf92a496ebf7663ae066092495460206001600160a01b03861692a338808061341c565b6137d49060203d6020116105dc576105cd8183612b5f565b503861377e565b50600187015460801c1515613417565b61ffff166103e8818110612bab570390565b61380860019161279d565b5001546001600160a01b03908116918215613b09576040928351928380927fc2b18aa0000000000000000000000000000000000000000000000000000000008252600091829160049586915afa948515613afd578195613a5e575b50849585519261387284612ed5565b9261387f83519485612b5f565b8484527fffffffffffffffffffffffffffffffffffffffffffffffffffffffffffffffe0806138ad87612ed5565b01926138bd602094858801612f74565b8599835b8881106138d45750505050505050505050565b89836138e08385612f91565b51166139625750865187810181811067ffffffffffffffff82111761394f578852600381527f424e4200000000000000000000000000000000000000000000000000000000008782015261394a9190613939828b612f91565b52613944818a612f91565b50612c5e565b6138c1565b60248760418e634e487b7160e01b835252fd5b90858461396f8386612f91565b51168951938480927f95d89b410000000000000000000000000000000000000000000000000000000082525afa8015613a545786906139b8575b61394a9250613939828b612f91565b50903d8087833e6139c98183612b5f565b8101908781830312613a5057805167ffffffffffffffff91828211613a4c5701601f92808483011215613a4c578151928311613a3857613a118a898d51968601160185612b5f565b828452898383010111610e33578291613a33918a8061394a9796019101612908565b6139a9565b5060248860418f634e487b7160e01b835252fd5b8880fd5b8680fd5b88513d88823e3d90fd5b9094503d8086833e613a708183612b5f565b8101906020908181840312613a505780519067ffffffffffffffff8211610e3357019180601f84011215613a50578251613aa981612ed5565b93613ab68a519586612b5f565b818552838086019260051b820101928311613a4c578301905b828210613ae157505050509338613863565b81518681168103613af9578152908301908301613acf565b8980fd5b508551903d90823e3d90fd5b60609250829150565b90613b1e60249261279d565b509060206001600160a01b03835416604051948580927f70a082310000000000000000000000000000000000000000000000000000000082523060048301525afa92831561330e57600093613cb2575b5060038201546cffffffffffffffffffffffffff808216908260681c169385159283159384613c9e575b613c96576002613bcd613bdb9264ffffffffff80600187015460a01c16804210600014613c90575042915b60d01c1690612ba0565b920154918260801c90612e4b565b90613be582612e31565b9661ffff93613bfc8560cc5460a01c16809a612e4b565b916103e8968160001904881116612bab57613c1d928761026b920290612e6a565b966fffffffffffffffffffffffffffffffff809216938415159384613c46575b50505050505050565b90613c61613c5b613c6894939a98999a612e31565b926137eb565b1690612e4b565b91838204861116612bab57613c839461026b93021690612e6a565b9038808080808080613c3d565b91613bc3565b509094505050565b5064ffffffffff8160d01c16421115613b98565b90926020823d8211613cdd575b81613ccc60209383612b5f565b81010312610b835750519138613b6e565b3d9150613cbf565b6fffffffffffffffffffffffffffffffff90818111613d02571690565b606460405162461bcd60e51b815260206004820152601060248201527f75696e74313238206f766572666c6f77000000000000000000000000000000006044820152fd5b6cffffffffffffffffffffffffff90818111613d60571690565b606460405162461bcd60e51b815260206004820152601060248201527f75696e74313034206f766572666c6f77000000000000000000000000000000006044820152fd5b919060006003841115613e1357508281118015613e0b575b15613e055750815b613dd783613dd28184612e6a565b612e5e565b600190811c915b848303613dea57505050565b90919350613dfc84613dd28184612e6a565b821c9190613dde565b91613dc4565b508015613dbc565b929050613e1c57565b6001915056fea2646970667358221220c6dffcdd4a711039ea3cb552fc77fede035c195223da5bc6d1561b2db5ca47bd64736f6c634300080f0033",
  "devdoc": {
    "details": "Updates: - Compatible with gauge voting",
    "kind": "dev",
    "methods": {
      "add(address,address)": {
        "details": "Reverts if the same LP token is added more than once.",
        "params": {
          "_lpToken": "the corresponding lp token",
          "_rewarder": "the rewarder"
        }
      },
      "deposit(uint256,uint256)": {
        "details": "it is possible to call this function with _amount == 0 to claim current rewards",
        "params": {
          "_amount": "amount to deposit",
          "_pid": "the pool id"
        }
      },
      "depositFor(uint256,uint256,address)": {
        "details": "user must initiate transaction from masterchef",
        "params": {
          "_amount": "amount to deposit",
          "_pid": "the pool id",
          "_user": "the user being represented"
        }
      },
      "emergencyWithdraw(uint256)": {
        "params": {
          "_pid": "the pool id"
        }
      },
      "massUpdatePools()": {
        "details": "Be careful of gas spending!"
      },
      "migrate(uint256[])": {
        "details": "Assume the orginal MasterWombat has stopped emisions hence we skip IVoter(voter).distribute() to save gas cost"
      },
      "multiClaim(uint256[])": {
        "params": {
          "_pids": "array pids, pools to claim"
        }
      },
      "notifyRewardAmount(address,uint256)": {
        "details": "Refer to synthetix/StakingRewards.sol notifyRewardAmount Note: This looks safe from reentrancy."
      },
      "owner()": {
        "details": "Returns the address of the current owner."
      },
      "pause()": {
        "details": "pause pool, restricting certain operations"
      },
      "paused()": {
        "details": "Returns true if the contract is paused, and false otherwise."
      },
      "pendingTokens(uint256,address)": {
        "params": {
          "_pid": "the pool id",
          "_user": "the user address"
        }
      },
      "renounceOwnership()": {
        "details": "Leaves the contract without owner. It will not be possible to call `onlyOwner` functions anymore. Can only be called by the current owner. NOTE: Renouncing ownership will leave the contract without an owner, thereby removing any functionality that is only available to the owner."
      },
      "rewarderBonusTokenInfo(uint256)": {
        "params": {
          "_pid": "the pool id"
        }
      },
      "setRewarder(uint256,address)": {
        "params": {
          "_pid": "the pool id",
          "_rewarder": "the rewarder"
        }
      },
      "setVeWom(address)": {
        "params": {
          "_newVeWom": "the new VeWom address"
        }
      },
      "setVoter(address)": {
        "params": {
          "_newVoter": "the new Voter address"
        }
      },
      "transferOwnership(address)": {
        "details": "Transfers ownership of the contract to a new account (`newOwner`). Can only be called by the current owner."
      },
      "unpause()": {
        "details": "unpause pool, enabling certain operations"
      },
      "updateEmissionPartition(uint16)": {
        "params": {
          "_basePartition": "the future base partition"
        }
      },
      "updateFactor(address,uint256)": {
        "details": "can only be called by veWom",
        "params": {
          "_newVeWomBalance": "the amount of veWOM",
          "_user": "the user to update"
        }
      },
      "updatePool(uint256)": {
        "params": {
          "_pid": "the pool id"
        }
      },
      "withdraw(uint256,uint256)": {
        "params": {
          "_amount": "the amount to withdraw",
          "_pid": "the pool id"
        }
      }
    },
    "title": "MasterWombatV3",
    "version": 1
  },
  "userdoc": {
    "kind": "user",
    "methods": {
      "add(address,address)": {
        "notice": "Add a new lp to the pool. Can only be called by the owner."
      },
      "deposit(uint256,uint256)": {
        "notice": "Deposit LP tokens to MasterChef for WOM allocation."
      },
      "depositFor(uint256,uint256,address)": {
        "notice": "Deposit LP tokens to MasterChef for WOM allocation on behalf of user"
      },
      "emergencyWithdraw(uint256)": {
        "notice": "Withdraw without caring about rewards. EMERGENCY ONLY."
      },
      "emergencyWomWithdraw()": {
        "notice": "In case we need to manually migrate WOM funds from MasterChef Sends all remaining wom from the contract to the owner"
      },
      "massUpdatePools()": {
        "notice": "Update reward variables for all pools."
      },
      "migrate(uint256[])": {
        "notice": "Helper function to migrate fund from multiple pools to the new MasterWombat.user must initiate transaction from masterchef"
      },
      "multiClaim(uint256[])": {
        "notice": "claims rewards for multiple pids"
      },
      "notifyRewardAmount(address,uint256)": {
        "notice": "Distribute WOM over a period of 7 days"
      },
      "pendingTokens(uint256,address)": {
        "notice": "View function to see pending WOMs on frontend."
      },
      "poolLength()": {
        "notice": "returns pool length"
      },
      "rewarderBonusTokenInfo(uint256)": {
        "notice": "Get bonus token info from the rewarder contract for a given pool, if it is a double reward farm"
      },
      "setRewarder(uint256,address)": {
        "notice": "Update the given pool's rewarder"
      },
      "setVeWom(address)": {
        "notice": "updates veWom address"
      },
      "setVoter(address)": {
        "notice": "updates voter address"
      },
      "updateEmissionPartition(uint16)": {
        "notice": "updates emission partition"
      },
      "updateFactor(address,uint256)": {
        "notice": "updates factor after any veWom token operation (minting/burning)"
      },
      "updatePool(uint256)": {
        "notice": "Update reward variables of the given pool"
      },
      "withdraw(uint256,uint256)": {
        "notice": "Withdraw LP tokens from MasterWombat.Automatically harvest pending rewards and sends to user"
      }
    },
    "notice": "MasterWombat is a boss. He is not afraid of any snakes. In fact, he drinks their venoms. So, veWom holders boost their (boosted) emissions. This contract rewards users in function of their amount of lp staked (base pool) factor (boosted pool) Factor and sumOfFactors are updated by contract VeWom.sol after any veWom minting/burning (veERC20Upgradeable hook). Note that it's ownable and the owner wields tremendous power. The ownership will be transferred to a governance smart contract once Wombat is sufficiently distributed and the community can show to govern itself.",
    "version": 1
  },
  "storageLayout": {
    "storage": [
      {
        "astId": 130,
        "contract": "contracts/wombat-governance/MasterWombatV3.sol:MasterWombatV3",
        "label": "_initialized",
        "offset": 0,
        "slot": "0",
        "type": "t_bool"
      },
      {
        "astId": 133,
        "contract": "contracts/wombat-governance/MasterWombatV3.sol:MasterWombatV3",
        "label": "_initializing",
        "offset": 1,
        "slot": "0",
        "type": "t_bool"
      },
      {
        "astId": 651,
        "contract": "contracts/wombat-governance/MasterWombatV3.sol:MasterWombatV3",
        "label": "__gap",
        "offset": 0,
        "slot": "1",
        "type": "t_array(t_uint256)50_storage"
      },
      {
        "astId": 10,
        "contract": "contracts/wombat-governance/MasterWombatV3.sol:MasterWombatV3",
        "label": "_owner",
        "offset": 0,
        "slot": "51",
        "type": "t_address"
      },
      {
        "astId": 122,
        "contract": "contracts/wombat-governance/MasterWombatV3.sol:MasterWombatV3",
        "label": "__gap",
        "offset": 0,
        "slot": "52",
        "type": "t_array(t_uint256)49_storage"
      },
      {
        "astId": 322,
        "contract": "contracts/wombat-governance/MasterWombatV3.sol:MasterWombatV3",
        "label": "_status",
        "offset": 0,
        "slot": "101",
        "type": "t_uint256"
      },
      {
        "astId": 366,
        "contract": "contracts/wombat-governance/MasterWombatV3.sol:MasterWombatV3",
        "label": "__gap",
        "offset": 0,
        "slot": "102",
        "type": "t_array(t_uint256)49_storage"
      },
      {
        "astId": 218,
        "contract": "contracts/wombat-governance/MasterWombatV3.sol:MasterWombatV3",
        "label": "_paused",
        "offset": 0,
        "slot": "151",
        "type": "t_bool"
      },
      {
        "astId": 307,
        "contract": "contracts/wombat-governance/MasterWombatV3.sol:MasterWombatV3",
        "label": "__gap",
        "offset": 0,
        "slot": "152",
        "type": "t_array(t_uint256)49_storage"
      },
      {
        "astId": 13797,
        "contract": "contracts/wombat-governance/MasterWombatV3.sol:MasterWombatV3",
        "label": "wom",
        "offset": 0,
        "slot": "201",
        "type": "t_contract(IERC20)1420"
      },
      {
        "astId": 13800,
        "contract": "contracts/wombat-governance/MasterWombatV3.sol:MasterWombatV3",
        "label": "veWom",
        "offset": 0,
        "slot": "202",
        "type": "t_contract(IVeWom)19527"
      },
      {
        "astId": 13803,
        "contract": "contracts/wombat-governance/MasterWombatV3.sol:MasterWombatV3",
        "label": "newMasterWombat",
        "offset": 0,
        "slot": "203",
        "type": "t_contract(IMasterWombatV3)19423"
      },
      {
        "astId": 13805,
        "contract": "contracts/wombat-governance/MasterWombatV3.sol:MasterWombatV3",
        "label": "voter",
        "offset": 0,
        "slot": "204",
        "type": "t_address"
      },
      {
        "astId": 13807,
        "contract": "contracts/wombat-governance/MasterWombatV3.sol:MasterWombatV3",
        "label": "basePartition",
        "offset": 20,
        "slot": "204",
        "type": "t_uint16"
      },
      {
        "astId": 13810,
        "contract": "contracts/wombat-governance/MasterWombatV3.sol:MasterWombatV3",
        "label": "lpTokens",
        "offset": 0,
        "slot": "205",
        "type": "t_struct(AddressSet)3408_storage"
      },
      {
        "astId": 13814,
        "contract": "contracts/wombat-governance/MasterWombatV3.sol:MasterWombatV3",
        "label": "poolInfo",
        "offset": 0,
        "slot": "207",
        "type": "t_array(t_struct(PoolInfo)13788_storage)dyn_storage"
      },
      {
        "astId": 13821,
        "contract": "contracts/wombat-governance/MasterWombatV3.sol:MasterWombatV3",
        "label": "userInfo",
        "offset": 0,
        "slot": "208",
        "type": "t_mapping(t_uint256,t_mapping(t_address,t_struct(UserInfo)13769_storage))"
      },
      {
        "astId": 13825,
        "contract": "contracts/wombat-governance/MasterWombatV3.sol:MasterWombatV3",
        "label": "assetPid",
        "offset": 0,
        "slot": "209",
        "type": "t_mapping(t_address,t_uint256)"
      }
    ],
    "types": {
      "t_address": {
        "encoding": "inplace",
        "label": "address",
        "numberOfBytes": "20"
      },
      "t_array(t_bytes32)dyn_storage": {
        "base": "t_bytes32",
        "encoding": "dynamic_array",
        "label": "bytes32[]",
        "numberOfBytes": "32"
      },
      "t_array(t_struct(PoolInfo)13788_storage)dyn_storage": {
        "base": "t_struct(PoolInfo)13788_storage",
        "encoding": "dynamic_array",
        "label": "struct MasterWombatV3.PoolInfo[]",
        "numberOfBytes": "32"
      },
      "t_array(t_uint256)49_storage": {
        "base": "t_uint256",
        "encoding": "inplace",
        "label": "uint256[49]",
        "numberOfBytes": "1568"
      },
      "t_array(t_uint256)50_storage": {
        "base": "t_uint256",
        "encoding": "inplace",
        "label": "uint256[50]",
        "numberOfBytes": "1600"
      },
      "t_bool": {
        "encoding": "inplace",
        "label": "bool",
        "numberOfBytes": "1"
      },
      "t_bytes32": {
        "encoding": "inplace",
        "label": "bytes32",
        "numberOfBytes": "32"
      },
      "t_contract(IERC20)1420": {
        "encoding": "inplace",
        "label": "contract IERC20",
        "numberOfBytes": "20"
      },
      "t_contract(IMasterWombatV3)19423": {
        "encoding": "inplace",
        "label": "contract IMasterWombatV3",
        "numberOfBytes": "20"
      },
      "t_contract(IMultiRewarder)19457": {
        "encoding": "inplace",
        "label": "contract IMultiRewarder",
        "numberOfBytes": "20"
      },
      "t_contract(IVeWom)19527": {
        "encoding": "inplace",
        "label": "contract IVeWom",
        "numberOfBytes": "20"
      },
      "t_mapping(t_address,t_struct(UserInfo)13769_storage)": {
        "encoding": "mapping",
        "key": "t_address",
        "label": "mapping(address => struct MasterWombatV3.UserInfo)",
        "numberOfBytes": "32",
        "value": "t_struct(UserInfo)13769_storage"
      },
      "t_mapping(t_address,t_uint256)": {
        "encoding": "mapping",
        "key": "t_address",
        "label": "mapping(address => uint256)",
        "numberOfBytes": "32",
        "value": "t_uint256"
      },
      "t_mapping(t_bytes32,t_uint256)": {
        "encoding": "mapping",
        "key": "t_bytes32",
        "label": "mapping(bytes32 => uint256)",
        "numberOfBytes": "32",
        "value": "t_uint256"
      },
      "t_mapping(t_uint256,t_mapping(t_address,t_struct(UserInfo)13769_storage))": {
        "encoding": "mapping",
        "key": "t_uint256",
        "label": "mapping(uint256 => mapping(address => struct MasterWombatV3.UserInfo))",
        "numberOfBytes": "32",
        "value": "t_mapping(t_address,t_struct(UserInfo)13769_storage)"
      },
      "t_struct(AddressSet)3408_storage": {
        "encoding": "inplace",
        "label": "struct EnumerableSet.AddressSet",
        "members": [
          {
            "astId": 3407,
            "contract": "contracts/wombat-governance/MasterWombatV3.sol:MasterWombatV3",
            "label": "_inner",
            "offset": 0,
            "slot": "0",
            "type": "t_struct(Set)3137_storage"
          }
        ],
        "numberOfBytes": "64"
      },
      "t_struct(PoolInfo)13788_storage": {
        "encoding": "inplace",
        "label": "struct MasterWombatV3.PoolInfo",
        "members": [
          {
            "astId": 13772,
            "contract": "contracts/wombat-governance/MasterWombatV3.sol:MasterWombatV3",
            "label": "lpToken",
            "offset": 0,
            "slot": "0",
            "type": "t_contract(IERC20)1420"
          },
          {
            "astId": 13775,
            "contract": "contracts/wombat-governance/MasterWombatV3.sol:MasterWombatV3",
            "label": "rewarder",
            "offset": 0,
            "slot": "1",
            "type": "t_contract(IMultiRewarder)19457"
          },
          {
            "astId": 13777,
            "contract": "contracts/wombat-governance/MasterWombatV3.sol:MasterWombatV3",
            "label": "periodFinish",
            "offset": 20,
            "slot": "1",
            "type": "t_uint40"
          },
          {
            "astId": 13779,
            "contract": "contracts/wombat-governance/MasterWombatV3.sol:MasterWombatV3",
            "label": "sumOfFactors",
            "offset": 0,
            "slot": "2",
            "type": "t_uint128"
          },
          {
            "astId": 13781,
            "contract": "contracts/wombat-governance/MasterWombatV3.sol:MasterWombatV3",
            "label": "rewardRate",
            "offset": 16,
            "slot": "2",
            "type": "t_uint128"
          },
          {
            "astId": 13783,
            "contract": "contracts/wombat-governance/MasterWombatV3.sol:MasterWombatV3",
            "label": "accWomPerShare",
            "offset": 0,
            "slot": "3",
            "type": "t_uint104"
          },
          {
            "astId": 13785,
            "contract": "contracts/wombat-governance/MasterWombatV3.sol:MasterWombatV3",
            "label": "accWomPerFactorShare",
            "offset": 13,
            "slot": "3",
            "type": "t_uint104"
          },
          {
            "astId": 13787,
            "contract": "contracts/wombat-governance/MasterWombatV3.sol:MasterWombatV3",
            "label": "lastRewardTimestamp",
            "offset": 26,
            "slot": "3",
            "type": "t_uint40"
          }
        ],
        "numberOfBytes": "128"
      },
      "t_struct(Set)3137_storage": {
        "encoding": "inplace",
        "label": "struct EnumerableSet.Set",
        "members": [
          {
            "astId": 3132,
            "contract": "contracts/wombat-governance/MasterWombatV3.sol:MasterWombatV3",
            "label": "_values",
            "offset": 0,
            "slot": "0",
            "type": "t_array(t_bytes32)dyn_storage"
          },
          {
            "astId": 3136,
            "contract": "contracts/wombat-governance/MasterWombatV3.sol:MasterWombatV3",
            "label": "_indexes",
            "offset": 0,
            "slot": "1",
            "type": "t_mapping(t_bytes32,t_uint256)"
          }
        ],
        "numberOfBytes": "64"
      },
      "t_struct(UserInfo)13769_storage": {
        "encoding": "inplace",
        "label": "struct MasterWombatV3.UserInfo",
        "members": [
          {
            "astId": 13762,
            "contract": "contracts/wombat-governance/MasterWombatV3.sol:MasterWombatV3",
            "label": "amount",
            "offset": 0,
            "slot": "0",
            "type": "t_uint128"
          },
          {
            "astId": 13764,
            "contract": "contracts/wombat-governance/MasterWombatV3.sol:MasterWombatV3",
            "label": "factor",
            "offset": 16,
            "slot": "0",
            "type": "t_uint128"
          },
          {
            "astId": 13766,
            "contract": "contracts/wombat-governance/MasterWombatV3.sol:MasterWombatV3",
            "label": "rewardDebt",
            "offset": 0,
            "slot": "1",
            "type": "t_uint128"
          },
          {
            "astId": 13768,
            "contract": "contracts/wombat-governance/MasterWombatV3.sol:MasterWombatV3",
            "label": "pendingWom",
            "offset": 16,
            "slot": "1",
            "type": "t_uint128"
          }
        ],
        "numberOfBytes": "64"
      },
      "t_uint104": {
        "encoding": "inplace",
        "label": "uint104",
        "numberOfBytes": "13"
      },
      "t_uint128": {
        "encoding": "inplace",
        "label": "uint128",
        "numberOfBytes": "16"
      },
      "t_uint16": {
        "encoding": "inplace",
        "label": "uint16",
        "numberOfBytes": "2"
      },
      "t_uint256": {
        "encoding": "inplace",
        "label": "uint256",
        "numberOfBytes": "32"
      },
      "t_uint40": {
        "encoding": "inplace",
        "label": "uint40",
        "numberOfBytes": "5"
      }
    }
  }
}