{
  "address": "0xE9fce62562c4Ad035c9baB8E37934482BC6738D4",
  "abi": [
    {
      "inputs": [],
      "name": "CORE_UNDERFLOW",
      "type": "error"
    },
    {
      "inputs": [],
      "name": "WOMBAT_AMOUNT_TOO_LOW",
      "type": "error"
    },
    {
      "inputs": [],
      "name": "WOMBAT_ASSET_ALREADY_EXIST",
      "type": "error"
    },
    {
      "inputs": [],
      "name": "WOMBAT_ASSET_ALREADY_PAUSED",
      "type": "error"
    },
    {
      "inputs": [],
      "name": "WOMBAT_ASSET_NOT_EXISTS",
      "type": "error"
    },
    {
      "inputs": [],
      "name": "WOMBAT_ASSET_NOT_PAUSED",
      "type": "error"
    },
    {
      "inputs": [],
      "name": "WOMBAT_CASH_NOT_ENOUGH",
      "type": "error"
    },
    {
      "inputs": [],
      "name": "WOMBAT_EXPIRED",
      "type": "error"
    },
    {
      "inputs": [],
      "name": "WOMBAT_FORBIDDEN",
      "type": "error"
    },
    {
      "inputs": [],
      "name": "WOMBAT_INTERPOOL_SWAP_NOT_SUPPORTED",
      "type": "error"
    },
    {
      "inputs": [],
      "name": "WOMBAT_INVALID_VALUE",
      "type": "error"
    },
    {
      "inputs": [],
      "name": "WOMBAT_SAME_ADDRESS",
      "type": "error"
    },
    {
      "inputs": [],
      "name": "WOMBAT_ZERO_ADDRESS",
      "type": "error"
    },
    {
      "inputs": [],
      "name": "WOMBAT_ZERO_AMOUNT",
      "type": "error"
    },
    {
      "inputs": [],
      "name": "WOMBAT_ZERO_LIQUIDITY",
      "type": "error"
    },
    {
      "anonymous": false,
      "inputs": [
        {
          "indexed": false,
          "internalType": "address",
          "name": "previousAdmin",
          "type": "address"
        },
        {
          "indexed": false,
          "internalType": "address",
          "name": "newAdmin",
          "type": "address"
        }
      ],
      "name": "AdminChanged",
      "type": "event"
    },
    {
      "anonymous": false,
      "inputs": [
        {
          "indexed": true,
          "internalType": "address",
          "name": "token",
          "type": "address"
        },
        {
          "indexed": true,
          "internalType": "address",
          "name": "asset",
          "type": "address"
        }
      ],
      "name": "AssetAdded",
      "type": "event"
    },
    {
      "anonymous": false,
      "inputs": [
        {
          "indexed": true,
          "internalType": "address",
          "name": "token",
          "type": "address"
        },
        {
          "indexed": true,
          "internalType": "address",
          "name": "asset",
          "type": "address"
        }
      ],
      "name": "AssetRemoved",
      "type": "event"
    },
    {
      "anonymous": false,
      "inputs": [
        {
          "indexed": true,
          "internalType": "address",
          "name": "beacon",
          "type": "address"
        }
      ],
      "name": "BeaconUpgraded",
      "type": "event"
    },
    {
      "anonymous": false,
      "inputs": [
        {
          "indexed": true,
          "internalType": "address",
          "name": "sender",
          "type": "address"
        },
        {
          "indexed": false,
          "internalType": "address",
          "name": "token",
          "type": "address"
        },
        {
          "indexed": false,
          "internalType": "uint256",
          "name": "amount",
          "type": "uint256"
        },
        {
          "indexed": false,
          "internalType": "uint256",
          "name": "liquidity",
          "type": "uint256"
        },
        {
          "indexed": true,
          "internalType": "address",
          "name": "to",
          "type": "address"
        }
      ],
      "name": "Deposit",
      "type": "event"
    },
    {
      "anonymous": false,
      "inputs": [
        {
          "indexed": true,
          "internalType": "address",
          "name": "previousOwner",
          "type": "address"
        },
        {
          "indexed": true,
          "internalType": "address",
          "name": "newOwner",
          "type": "address"
        }
      ],
      "name": "OwnershipTransferred",
      "type": "event"
    },
    {
      "anonymous": false,
      "inputs": [
        {
          "indexed": false,
          "internalType": "address",
          "name": "account",
          "type": "address"
        }
      ],
      "name": "Paused",
      "type": "event"
    },
    {
      "anonymous": false,
      "inputs": [
        {
          "indexed": false,
          "internalType": "address",
          "name": "asset",
          "type": "address"
        },
        {
          "indexed": false,
          "internalType": "address",
          "name": "account",
          "type": "address"
        }
      ],
      "name": "PausedAsset",
      "type": "event"
    },
    {
      "anonymous": false,
      "inputs": [
        {
          "indexed": true,
          "internalType": "address",
          "name": "sender",
          "type": "address"
        },
        {
          "indexed": false,
          "internalType": "address",
          "name": "fromToken",
          "type": "address"
        },
        {
          "indexed": false,
          "internalType": "address",
          "name": "toToken",
          "type": "address"
        },
        {
          "indexed": false,
          "internalType": "uint256",
          "name": "fromAmount",
          "type": "uint256"
        },
        {
          "indexed": false,
          "internalType": "uint256",
          "name": "toAmount",
          "type": "uint256"
        },
        {
          "indexed": true,
          "internalType": "address",
          "name": "to",
          "type": "address"
        }
      ],
      "name": "Swap",
      "type": "event"
    },
    {
      "anonymous": false,
      "inputs": [
        {
          "indexed": false,
          "internalType": "address",
          "name": "account",
          "type": "address"
        }
      ],
      "name": "Unpaused",
      "type": "event"
    },
    {
      "anonymous": false,
      "inputs": [
        {
          "indexed": false,
          "internalType": "address",
          "name": "asset",
          "type": "address"
        },
        {
          "indexed": false,
          "internalType": "address",
          "name": "account",
          "type": "address"
        }
      ],
      "name": "UnpausedAsset",
      "type": "event"
    },
    {
      "anonymous": false,
      "inputs": [
        {
          "indexed": true,
          "internalType": "address",
          "name": "implementation",
          "type": "address"
        }
      ],
      "name": "Upgraded",
      "type": "event"
    },
    {
      "anonymous": false,
      "inputs": [
        {
          "indexed": true,
          "internalType": "address",
          "name": "sender",
          "type": "address"
        },
        {
          "indexed": false,
          "internalType": "address",
          "name": "token",
          "type": "address"
        },
        {
          "indexed": false,
          "internalType": "uint256",
          "name": "amount",
          "type": "uint256"
        },
        {
          "indexed": false,
          "internalType": "uint256",
          "name": "liquidity",
          "type": "uint256"
        },
        {
          "indexed": true,
          "internalType": "address",
          "name": "to",
          "type": "address"
        }
      ],
      "name": "Withdraw",
      "type": "event"
    },
    {
      "inputs": [],
      "name": "WAD",
      "outputs": [
        {
          "internalType": "uint256",
          "name": "",
          "type": "uint256"
        }
      ],
      "stateMutability": "view",
      "type": "function"
    },
    {
      "inputs": [],
      "name": "WAD_I",
      "outputs": [
        {
          "internalType": "int256",
          "name": "",
          "type": "int256"
        }
      ],
      "stateMutability": "view",
      "type": "function"
    },
    {
      "inputs": [
        {
          "internalType": "address",
          "name": "token",
          "type": "address"
        },
        {
          "internalType": "address",
          "name": "asset",
          "type": "address"
        }
      ],
      "name": "addAsset",
      "outputs": [],
      "stateMutability": "nonpayable",
      "type": "function"
    },
    {
      "inputs": [],
      "name": "ampFactor",
      "outputs": [
        {
          "internalType": "uint256",
          "name": "",
          "type": "uint256"
        }
      ],
      "stateMutability": "view",
      "type": "function"
    },
    {
      "inputs": [
        {
          "internalType": "address",
          "name": "token",
          "type": "address"
        }
      ],
      "name": "assetOf",
      "outputs": [
        {
          "internalType": "address",
          "name": "",
          "type": "address"
        }
      ],
      "stateMutability": "view",
      "type": "function"
    },
    {
      "inputs": [
        {
          "internalType": "address",
          "name": "token",
          "type": "address"
        },
        {
          "internalType": "uint256",
          "name": "amount",
          "type": "uint256"
        },
        {
          "internalType": "address",
          "name": "to",
          "type": "address"
        },
        {
          "internalType": "uint256",
          "name": "deadline",
          "type": "uint256"
        },
        {
          "internalType": "bool",
          "name": "shouldStake",
          "type": "bool"
        }
      ],
      "name": "deposit",
      "outputs": [
        {
          "internalType": "uint256",
          "name": "liquidity",
          "type": "uint256"
        }
      ],
      "stateMutability": "nonpayable",
      "type": "function"
    },
    {
      "inputs": [],
      "name": "dev",
      "outputs": [
        {
          "internalType": "address",
          "name": "",
          "type": "address"
        }
      ],
      "stateMutability": "view",
      "type": "function"
    },
    {
      "inputs": [
        {
          "internalType": "address",
          "name": "token",
          "type": "address"
        }
      ],
      "name": "exchangeRate",
      "outputs": [
        {
          "internalType": "uint256",
          "name": "exchangeRate",
          "type": "uint256"
        }
      ],
      "stateMutability": "view",
      "type": "function"
    },
    {
      "inputs": [],
      "name": "feeTo",
      "outputs": [
        {
          "internalType": "address",
          "name": "",
          "type": "address"
        }
      ],
      "stateMutability": "view",
      "type": "function"
    },
    {
      "inputs": [
        {
          "internalType": "address",
          "name": "token",
          "type": "address"
        },
        {
          "internalType": "uint256",
          "name": "amount",
          "type": "uint256"
        }
      ],
      "name": "fillPool",
      "outputs": [],
      "stateMutability": "nonpayable",
      "type": "function"
    },
    {
      "inputs": [],
      "name": "globalEquilCovRatio",
      "outputs": [
        {
          "internalType": "uint256",
          "name": "equilCovRatio",
          "type": "uint256"
        },
        {
          "internalType": "uint256",
          "name": "invariant",
          "type": "uint256"
        }
      ],
      "stateMutability": "view",
      "type": "function"
    },
    {
      "inputs": [],
      "name": "haircutRate",
      "outputs": [
        {
          "internalType": "uint256",
          "name": "",
          "type": "uint256"
        }
      ],
      "stateMutability": "view",
      "type": "function"
    },
    {
      "inputs": [
        {
          "internalType": "uint256",
          "name": "ampFactor_",
          "type": "uint256"
        },
        {
          "internalType": "uint256",
          "name": "haircutRate_",
          "type": "uint256"
        }
      ],
      "name": "initialize",
      "outputs": [],
      "stateMutability": "nonpayable",
      "type": "function"
    },
    {
      "inputs": [],
      "name": "lpDividendRatio",
      "outputs": [
        {
          "internalType": "uint256",
          "name": "",
          "type": "uint256"
        }
      ],
      "stateMutability": "view",
      "type": "function"
    },
    {
      "inputs": [],
      "name": "masterWombat",
      "outputs": [
        {
          "internalType": "contract IMasterWombat",
          "name": "",
          "type": "address"
        }
      ],
      "stateMutability": "view",
      "type": "function"
    },
    {
      "inputs": [
        {
          "internalType": "address",
          "name": "token",
          "type": "address"
        }
      ],
      "name": "mintFee",
      "outputs": [],
      "stateMutability": "nonpayable",
      "type": "function"
    },
    {
      "inputs": [],
      "name": "mintFeeThreshold",
      "outputs": [
        {
          "internalType": "uint256",
          "name": "",
          "type": "uint256"
        }
      ],
      "stateMutability": "view",
      "type": "function"
    },
    {
      "inputs": [],
      "name": "owner",
      "outputs": [
        {
          "internalType": "address",
          "name": "",
          "type": "address"
        }
      ],
      "stateMutability": "view",
      "type": "function"
    },
    {
      "inputs": [],
      "name": "pause",
      "outputs": [],
      "stateMutability": "nonpayable",
      "type": "function"
    },
    {
      "inputs": [
        {
          "internalType": "address",
          "name": "token",
          "type": "address"
        }
      ],
      "name": "pauseAsset",
      "outputs": [],
      "stateMutability": "nonpayable",
      "type": "function"
    },
    {
      "inputs": [],
      "name": "paused",
      "outputs": [
        {
          "internalType": "bool",
          "name": "",
          "type": "bool"
        }
      ],
      "stateMutability": "view",
      "type": "function"
    },
    {
      "inputs": [
        {
          "internalType": "address",
          "name": "token",
          "type": "address"
        },
        {
          "internalType": "uint256",
          "name": "amount",
          "type": "uint256"
        }
      ],
      "name": "quotePotentialDeposit",
      "outputs": [
        {
          "internalType": "uint256",
          "name": "liquidity",
          "type": "uint256"
        },
        {
          "internalType": "uint256",
          "name": "reward",
          "type": "uint256"
        }
      ],
      "stateMutability": "view",
      "type": "function"
    },
    {
      "inputs": [
        {
          "internalType": "address",
          "name": "fromToken",
          "type": "address"
        },
        {
          "internalType": "address",
          "name": "toToken",
          "type": "address"
        },
        {
          "internalType": "int256",
          "name": "fromAmount",
          "type": "int256"
        }
      ],
      "name": "quotePotentialSwap",
      "outputs": [
        {
          "internalType": "uint256",
          "name": "potentialOutcome",
          "type": "uint256"
        },
        {
          "internalType": "uint256",
          "name": "haircut",
          "type": "uint256"
        }
      ],
      "stateMutability": "view",
      "type": "function"
    },
    {
      "inputs": [
        {
          "internalType": "address",
          "name": "token",
          "type": "address"
        },
        {
          "internalType": "uint256",
          "name": "liquidity",
          "type": "uint256"
        }
      ],
      "name": "quotePotentialWithdraw",
      "outputs": [
        {
          "internalType": "uint256",
          "name": "amount",
          "type": "uint256"
        },
        {
          "internalType": "uint256",
          "name": "fee",
          "type": "uint256"
        }
      ],
      "stateMutability": "view",
      "type": "function"
    },
    {
      "inputs": [
        {
          "internalType": "address",
          "name": "key",
          "type": "address"
        }
      ],
      "name": "removeAsset",
      "outputs": [],
      "stateMutability": "nonpayable",
      "type": "function"
    },
    {
      "inputs": [],
      "name": "renounceOwnership",
      "outputs": [],
      "stateMutability": "nonpayable",
      "type": "function"
    },
    {
      "inputs": [],
      "name": "retentionRatio",
      "outputs": [
        {
          "internalType": "uint256",
          "name": "",
          "type": "uint256"
        }
      ],
      "stateMutability": "view",
      "type": "function"
    },
    {
      "inputs": [
        {
          "internalType": "uint256",
          "name": "ampFactor_",
          "type": "uint256"
        }
      ],
      "name": "setAmpFactor",
      "outputs": [],
      "stateMutability": "nonpayable",
      "type": "function"
    },
    {
      "inputs": [
        {
          "internalType": "address",
          "name": "dev_",
          "type": "address"
        }
      ],
      "name": "setDev",
      "outputs": [],
      "stateMutability": "nonpayable",
      "type": "function"
    },
    {
      "inputs": [
        {
          "internalType": "uint256",
          "name": "lpDividendRatio_",
          "type": "uint256"
        },
        {
          "internalType": "uint256",
          "name": "retentionRatio_",
          "type": "uint256"
        }
      ],
      "name": "setFee",
      "outputs": [],
      "stateMutability": "nonpayable",
      "type": "function"
    },
    {
      "inputs": [
        {
          "internalType": "address",
          "name": "feeTo_",
          "type": "address"
        }
      ],
      "name": "setFeeTo",
      "outputs": [],
      "stateMutability": "nonpayable",
      "type": "function"
    },
    {
      "inputs": [
        {
          "internalType": "uint256",
          "name": "haircutRate_",
          "type": "uint256"
        }
      ],
      "name": "setHaircutRate",
      "outputs": [],
      "stateMutability": "nonpayable",
      "type": "function"
    },
    {
      "inputs": [
        {
          "internalType": "address",
          "name": "masterWombat_",
          "type": "address"
        }
      ],
      "name": "setMasterWombat",
      "outputs": [],
      "stateMutability": "nonpayable",
      "type": "function"
    },
    {
      "inputs": [
        {
          "internalType": "uint256",
          "name": "mintFeeThreshold_",
          "type": "uint256"
        }
      ],
      "name": "setMintFeeThreshold",
      "outputs": [],
      "stateMutability": "nonpayable",
      "type": "function"
    },
    {
      "inputs": [
        {
          "internalType": "address",
          "name": "fromToken",
          "type": "address"
        },
        {
          "internalType": "address",
          "name": "toToken",
          "type": "address"
        },
        {
          "internalType": "uint256",
          "name": "fromAmount",
          "type": "uint256"
        },
        {
          "internalType": "uint256",
          "name": "minimumToAmount",
          "type": "uint256"
        },
        {
          "internalType": "address",
          "name": "to",
          "type": "address"
        },
        {
          "internalType": "uint256",
          "name": "deadline",
          "type": "uint256"
        }
      ],
      "name": "swap",
      "outputs": [
        {
          "internalType": "uint256",
          "name": "actualToAmount",
          "type": "uint256"
        },
        {
          "internalType": "uint256",
          "name": "haircut",
          "type": "uint256"
        }
      ],
      "stateMutability": "nonpayable",
      "type": "function"
    },
    {
      "inputs": [
        {
          "internalType": "address",
          "name": "token",
          "type": "address"
        }
      ],
      "name": "tipBucketBalance",
      "outputs": [
        {
          "internalType": "uint256",
          "name": "balance",
          "type": "uint256"
        }
      ],
      "stateMutability": "view",
      "type": "function"
    },
    {
      "inputs": [
        {
          "internalType": "address",
          "name": "newOwner",
          "type": "address"
        }
      ],
      "name": "transferOwnership",
      "outputs": [],
      "stateMutability": "nonpayable",
      "type": "function"
    },
    {
      "inputs": [
        {
          "internalType": "address",
          "name": "token",
          "type": "address"
        },
        {
          "internalType": "uint256",
          "name": "amount",
          "type": "uint256"
        },
        {
          "internalType": "address",
          "name": "to",
          "type": "address"
        }
      ],
      "name": "transferTipBucket",
      "outputs": [],
      "stateMutability": "nonpayable",
      "type": "function"
    },
    {
      "inputs": [],
      "name": "unpause",
      "outputs": [],
      "stateMutability": "nonpayable",
      "type": "function"
    },
    {
      "inputs": [
        {
          "internalType": "address",
          "name": "token",
          "type": "address"
        }
      ],
      "name": "unpauseAsset",
      "outputs": [],
      "stateMutability": "nonpayable",
      "type": "function"
    },
    {
      "inputs": [
        {
          "internalType": "address",
          "name": "newImplementation",
          "type": "address"
        }
      ],
      "name": "upgradeTo",
      "outputs": [],
      "stateMutability": "nonpayable",
      "type": "function"
    },
    {
      "inputs": [
        {
          "internalType": "address",
          "name": "newImplementation",
          "type": "address"
        },
        {
          "internalType": "bytes",
          "name": "data",
          "type": "bytes"
        }
      ],
      "name": "upgradeToAndCall",
      "outputs": [],
      "stateMutability": "payable",
      "type": "function"
    },
    {
      "inputs": [
        {
          "internalType": "address",
          "name": "token",
          "type": "address"
        },
        {
          "internalType": "uint256",
          "name": "liquidity",
          "type": "uint256"
        },
        {
          "internalType": "uint256",
          "name": "minimumAmount",
          "type": "uint256"
        },
        {
          "internalType": "address",
          "name": "to",
          "type": "address"
        },
        {
          "internalType": "uint256",
          "name": "deadline",
          "type": "uint256"
        }
      ],
      "name": "withdraw",
      "outputs": [
        {
          "internalType": "uint256",
          "name": "amount",
          "type": "uint256"
        }
      ],
      "stateMutability": "nonpayable",
      "type": "function"
    },
    {
      "inputs": [
        {
          "internalType": "address",
          "name": "fromToken",
          "type": "address"
        },
        {
          "internalType": "address",
          "name": "toToken",
          "type": "address"
        },
        {
          "internalType": "uint256",
          "name": "liquidity",
          "type": "uint256"
        },
        {
          "internalType": "uint256",
          "name": "minimumAmount",
          "type": "uint256"
        },
        {
          "internalType": "address",
          "name": "to",
          "type": "address"
        },
        {
          "internalType": "uint256",
          "name": "deadline",
          "type": "uint256"
        }
      ],
      "name": "withdrawFromOtherAsset",
      "outputs": [
        {
          "internalType": "uint256",
          "name": "toAmount",
          "type": "uint256"
        }
      ],
      "stateMutability": "nonpayable",
      "type": "function"
    }
  ],
  "transactionHash": "0x7a5f1674b1a8a3b3a6f4eeed9f532406019aaf0bd271e04e5d709b4dfd993f14",
  "args": [],
  "solcInputHash": "bde346b1964bd5311524791ed6b80cd6",
  "bytecode": "0x608060405234801561001057600080fd5b50615577806100206000396000f3fe6080604052600436106102e75760003560e01c806371f9621111610184578063d043c565116100d6578063dc3b7c8b1161008a578063f46901ed11610064578063f46901ed146107c8578063f57e84d5146107e8578063f8b49e721461080857600080fd5b8063dc3b7c8b14610768578063e4a3011614610788578063f2fde38b146107a857600080fd5b8063d30ffeda116100bb578063d30ffeda14610708578063d477f05f14610728578063da4899971461074857600080fd5b8063d043c565146106d1578063d0dd0e56146106f157600080fd5b8063907448ed116101385780639908fc8b116101125780639908fc8b146106715780639abacb41146106915780639e4416b7146106b157600080fd5b8063907448ed1461061057806391cca3db1461063057806393aeea021461065157600080fd5b80638456cb59116101695780638456cb59146105c85780638a2dfe09146105dd5780638da5cb5b146105f257600080fd5b806371f9621114610591578063815bfd29146105b157600080fd5b80633f4ba83a1161023d5780635c975abb116101f15780636922d5ca116101cb5780636922d5ca146105655780636a14602414610391578063715018a61461057c57600080fd5b80635c975abb1461050b5780635cfe092e1461052e57806361858e231461054557600080fd5b80634f1ef286116102225780634f1ef286146104a35780634fdd64e5146104b657806352f7c988146104eb57600080fd5b80633f4ba83a1461046e5780634a5e42b11461048357600080fd5b806309a5fca31161029f5780633659cfe6116102795780633659cfe61461040d5780633753b14a1461042d5780633bd61ba81461044d57600080fd5b806309a5fca3146103ad5780630f91f06f146103cd5780631e95ff38146103ed57600080fd5b80630705999d116102d05780630705999d1461034f578063070f81d91461037157806308bdd2651461039157600080fd5b8063017b8292146102ec578063017e7e5814610316575b600080fd5b3480156102f857600080fd5b5061030361012e5481565b6040519081526020015b60405180910390f35b34801561032257600080fd5b5061013454610337906001600160a01b031681565b6040516001600160a01b03909116815260200161030d565b34801561035b57600080fd5b5061036f61036a366004614db7565b610828565b005b34801561037d57600080fd5b5061036f61038c366004614f62565b6108a1565b34801561039d57600080fd5b50610303670de0b6b3a764000081565b3480156103b957600080fd5b506103036103c836600461501a565b610ada565b3480156103d957600080fd5b506103036103e8366004614e41565b610d03565b3480156103f957600080fd5b50610303610408366004614fbf565b610f5c565b34801561041957600080fd5b5061036f610428366004614db7565b611358565b34801561043957600080fd5b5061036f610448366004614db7565b61137f565b34801561045957600080fd5b5061013554610337906001600160a01b031681565b34801561047a57600080fd5b5061036f6113f0565b34801561048f57600080fd5b5061036f61049e366004614db7565b61145f565b61036f6104b1366004614ea0565b611635565b3480156104c257600080fd5b506104d66104d1366004614e05565b61164e565b6040805192835260208301919091520161030d565b3480156104f757600080fd5b5061036f6105063660046150e0565b61181a565b34801561051757600080fd5b5060fb5460ff16604051901515815260200161030d565b34801561053a57600080fd5b506103036101325481565b34801561055157600080fd5b506104d6610560366004614f62565b6118a6565b34801561057157600080fd5b506103036101305481565b34801561058857600080fd5b5061036f611948565b34801561059d57600080fd5b506103376105ac366004614db7565b61199c565b3480156105bd57600080fd5b506103036101315481565b3480156105d457600080fd5b5061036f6119ad565b3480156105e957600080fd5b506104d6611a15565b3480156105fe57600080fd5b506097546001600160a01b0316610337565b34801561061c57600080fd5b506104d661062b366004614f62565b611a3f565b34801561063c57600080fd5b5061013354610337906001600160a01b031681565b34801561065d57600080fd5b5061036f61066c366004614f8c565b611ab2565b34801561067d57600080fd5b506104d661068c366004614e41565b611d25565b34801561069d57600080fd5b5061036f6106ac366004614db7565b61202a565b3480156106bd57600080fd5b5061036f6106cc3660046150ae565b612093565b3480156106dd57600080fd5b5061036f6106ec3660046150ae565b61210a565b3480156106fd57600080fd5b5061030361012f5481565b34801561071457600080fd5b50610303610723366004614db7565b612158565b34801561073457600080fd5b5061036f610743366004614db7565b6122cf565b34801561075457600080fd5b5061036f610763366004614dd2565b612343565b34801561077457600080fd5b50610303610783366004614db7565b6124f1565b34801561079457600080fd5b5061036f6107a33660046150e0565b612678565b3480156107b457600080fd5b5061036f6107c3366004614db7565b612779565b3480156107d457600080fd5b5061036f6107e3366004614db7565b612846565b3480156107f457600080fd5b5061036f6108033660046150ae565b6128d8565b34801561081457600080fd5b5061036f610823366004614db7565b61294f565b6097546001600160a01b031633146108755760405162461bcd60e51b815260206004820181905260248201526000805160206154fb83398151915260448201526064015b60405180910390fd5b61087e81612960565b61013580546001600160a01b0319166001600160a01b0392909216919091179055565b6108a96129a0565b60006108b4836129e5565b905060006101366000836001600160a01b03166001600160a01b0316815260200190815260200160002054826001600160a01b031663961be3916040518163ffffffff1660e01b815260040160206040518083038186803b15801561091857600080fd5b505afa15801561092c573d6000803e3d6000fd5b505050506040513d601f19601f820116820180604052508101906109509190615085565b6001600160781b0316610a44846001600160a01b0316637284168a6040518163ffffffff1660e01b815260040160206040518083038186803b15801561099557600080fd5b505afa1580156109a9573d6000803e3d6000fd5b505050506040513d601f19601f820116820180604052508101906109cd9190615102565b856001600160a01b03166399c91a646040518163ffffffff1660e01b815260040160206040518083038186803b158015610a0657600080fd5b505afa158015610a1a573d6000803e3d6000fd5b505050506040513d601f19601f82011682018060405250810190610a3e91906150c7565b90612a40565b610a4e91906153e0565b610a5891906153e0565b905080831115610a7b576040516312b019e160e01b815260040160405180910390fd5b60405162b64f3d60e51b8152600481018490526001600160a01b038316906316c9e7a090602401600060405180830381600087803b158015610abc57600080fd5b505af1158015610ad0573d6000803e3d6000fd5b5050505050505050565b6000600260c9541415610b2f5760405162461bcd60e51b815260206004820152601f60248201527f5265656e7472616e637947756172643a207265656e7472616e742063616c6c00604482015260640161086c565b600260c95560fb5460ff1615610b7a5760405162461bcd60e51b815260206004820152601060248201526f14185d5cd8589b194e881c185d5cd95960821b604482015260640161086c565b610b8385612aa8565b610b8c83612960565b610b9582612adf565b6000610ba0876129e5565b9050610bb76001600160a01b038216338389612b19565b610c3c816001600160a01b0316637284168a6040518163ffffffff1660e01b815260040160206040518083038186803b158015610bf357600080fd5b505afa158015610c07573d6000803e3d6000fd5b505050506040513d601f19601f82011682018060405250810190610c2b9190615102565b610c36838989612ba7565b90612d37565b604051639e79eaa560e01b81526001600160a01b0386811660048301526024820183905291935090821690639e79eaa590604401600060405180830381600087803b158015610c8a57600080fd5b505af1158015610c9e573d6000803e3d6000fd5b5050604080516001600160a01b038b81168252602082018790529181018a905290871692503391507ffb80d861da582b723be2d19507ce3e03851820c464abea89156ec77e089b1ad9906060015b60405180910390a350600160c95595945050505050565b6000600260c9541415610d585760405162461bcd60e51b815260206004820152601f60248201527f5265656e7472616e637947756172643a207265656e7472616e742063616c6c00604482015260640161086c565b600260c95560fb5460ff1615610da35760405162461bcd60e51b815260206004820152601060248201526f14185d5cd8589b194e881c185d5cd95960821b604482015260640161086c565b610dac83612960565b610db585612aa8565b610dbe82612adf565b610dc787612d67565b6000610dd2886129e5565b90506000610ddf886129e5565b9050610df66001600160a01b03831633848a612b19565b6000610e0483896000612ba7565b9050610e138383838a8a612dbb565b5080945050610e93826001600160a01b0316637284168a6040518163ffffffff1660e01b815260040160206040518083038186803b158015610e5457600080fd5b505afa158015610e68573d6000803e3d6000fd5b505050506040513d601f19601f82011682018060405250810190610e8c9190615102565b8590612d37565b604051639e79eaa560e01b81526001600160a01b0388811660048301526024820183905291955090831690639e79eaa590604401600060405180830381600087803b158015610ee157600080fd5b505af1158015610ef5573d6000803e3d6000fd5b5050604080516001600160a01b038d81168252602082018990529181018c905290891692503391507ffb80d861da582b723be2d19507ce3e03851820c464abea89156ec77e089b1ad99060600160405180910390a35050600160c955509695505050505050565b6000600260c9541415610fb15760405162461bcd60e51b815260206004820152601f60248201527f5265656e7472616e637947756172643a207265656e7472616e742063616c6c00604482015260640161086c565b600260c95560fb5460ff1615610ffc5760405162461bcd60e51b815260206004820152601060248201526f14185d5cd8589b194e881c185d5cd95960821b604482015260640161086c565b8461101a5760405163b483c10f60e01b815260040160405180910390fd5b61102384612960565b61102c83612adf565b61103586612d67565b6000611040876129e5565b90506110576001600160a01b038816338389612b19565b826110e8576110e1816110db836001600160a01b0316637284168a6040518163ffffffff1660e01b815260040160206040518083038186803b15801561109c57600080fd5b505afa1580156110b0573d6000803e3d6000fd5b505050506040513d601f19601f820116820180604052508101906110d49190615102565b8990612a40565b87612ed4565b915061130a565b610135546110fe906001600160a01b0316612960565b6111448161113e836001600160a01b0316637284168a6040518163ffffffff1660e01b815260040160206040518083038186803b15801561109c57600080fd5b30612ed4565b610135546040517f095ea7b30000000000000000000000000000000000000000000000000000000081526001600160a01b0391821660048201526024810183905291935082169063095ea7b390604401602060405180830381600087803b1580156111ae57600080fd5b505af11580156111c2573d6000803e3d6000fd5b505050506040513d601f19601f820116820180604052508101906111e69190615068565b50610135546040517faf929a800000000000000000000000000000000000000000000000000000000081526001600160a01b038381166004830152600092169063af929a809060240160206040518083038186803b15801561124757600080fd5b505afa15801561125b573d6000803e3d6000fd5b505050506040513d601f19601f8201168201806040525081019061127f91906150c7565b610135546040517f90210d7e00000000000000000000000000000000000000000000000000000000815260048101839052602481018690526001600160a01b0389811660448301529293509116906390210d7e90606401600060405180830381600087803b1580156112f057600080fd5b505af1158015611304573d6000803e3d6000fd5b50505050505b604080516001600160a01b038981168252602082018990529181018490529086169033907ff5dd9317b9e63ac316ce44acc85f670b54b339cfa3e9076e1dd55065b922314b90606001610cec565b61136181612ffb565b61137c81604051806020016040528060008152506000613043565b50565b600260c95414156113d25760405162461bcd60e51b815260206004820152601f60248201527f5265656e7472616e637947756172643a207265656e7472616e742063616c6c00604482015260640161086c565b600260c9556113df6129a0565b6113e881613207565b50600160c955565b600260c95414156114435760405162461bcd60e51b815260206004820152601f60248201527f5265656e7472616e637947756172643a207265656e7472616e742063616c6c00604482015260640161086c565b600260c9556114506129a0565b611458613271565b600160c955565b6097546001600160a01b031633146114a75760405162461bcd60e51b815260206004820181905260248201526000805160206154fb833981519152604482015260640161086c565b6001600160a01b0380821660009081526101386020526040902054166114e057604051633b2c013560e21b815260040160405180910390fd5b6001600160a01b0381811660009081526101386020908152604080832080546001600160a01b03198116909155610139909252822054610137549190931692919061152d906001906153e0565b905060006101376000018281548110611548576115486154c0565b60009182526020808320909101546001600160a01b03908116808452610139909252604080842087905590881683528220919091556101378054919250829185908110611597576115976154c0565b600091825260209091200180546001600160a01b0319166001600160a01b03929092169190911790556101378054806115d2576115d26154aa565b600082815260208120820160001990810180546001600160a01b03191690559091019091556040516001600160a01b0386811692908816917f0fa1e4606af435f32f05b3804033d2933e691fab32ee74d2db6fa82d2741f1ea9190a35050505050565b61163e82612ffb565b61164a82826001613043565b5050565b60008061165b858561330d565b826116795760405163b483c10f60e01b815260040160405180910390fd5b6000611684866129e5565b90506000611691866129e5565b905060008512156116c55760006116b561012f54876116af90615461565b90613359565b90506116c181876153a1565b9550505b611740826001600160a01b0316637284168a6040518163ffffffff1660e01b815260040160206040518083038186803b15801561170157600080fd5b505afa158015611715573d6000803e3d6000fd5b505050506040513d601f19601f820116820180604052508101906117399190615102565b869061338d565b945061174d8282876133e7565b8094508195505050611791816001600160a01b0316637284168a6040518163ffffffff1660e01b815260040160206040518083038186803b158015610e5457600080fd5b935061180e816001600160a01b0316637284168a6040518163ffffffff1660e01b815260040160206040518083038186803b1580156117cf57600080fd5b505afa1580156117e3573d6000803e3d6000fd5b505050506040513d601f19601f820116820180604052508101906118079190615102565b8490612d37565b92505050935093915050565b6097546001600160a01b031633146118625760405162461bcd60e51b815260206004820181905260248201526000805160206154fb833981519152604482015260640161086c565b670de0b6b3a764000061187583836151b3565b1115611894576040516312b019e160e01b815260040160405180910390fd5b61189c61365a565b6101305561013155565b60008060006118b4856129e5565b905061193a81611935836001600160a01b0316637284168a6040518163ffffffff1660e01b815260040160206040518083038186803b1580156118f657600080fd5b505afa15801561190a573d6000803e3d6000fd5b505050506040513d601f19601f8201168201806040525081019061192e9190615102565b8790612a40565b6136b3565b919791965090945050505050565b6097546001600160a01b031633146119905760405162461bcd60e51b815260206004820181905260248201526000805160206154fb833981519152604482015260640161086c565b61199a60006138ea565b565b60006119a7826129e5565b92915050565b600260c9541415611a005760405162461bcd60e51b815260206004820152601f60248201527f5265656e7472616e637947756172643a207265656e7472616e742063616c6c00604482015260640161086c565b600260c955611a0d6129a0565b61145861393c565b6000806000611a226139b7565b8092508193505050611a38828261012e54613b47565b9250509091565b600080611a4b83612aa8565b6000611a56856129e5565b9050611a628185613b72565b90508093508194505050611aa8816001600160a01b0316637284168a6040518163ffffffff1660e01b815260040160206040518083038186803b1580156117cf57600080fd5b9250509250929050565b6097546001600160a01b03163314611afa5760405162461bcd60e51b815260206004820181905260248201526000805160206154fb833981519152604482015260640161086c565b6000611b05846129e5565b905060006101366000836001600160a01b03166001600160a01b0316815260200190815260200160002054826001600160a01b031663961be3916040518163ffffffff1660e01b815260040160206040518083038186803b158015611b6957600080fd5b505afa158015611b7d573d6000803e3d6000fd5b505050506040513d601f19601f82011682018060405250810190611ba19190615085565b6001600160781b0316611be6846001600160a01b0316637284168a6040518163ffffffff1660e01b815260040160206040518083038186803b15801561099557600080fd5b611bf091906153e0565b611bfa91906153e0565b905080841115611c1d576040516312b019e160e01b815260040160405180910390fd5b816001600160a01b0316639e79eaa584611ca8856001600160a01b0316637284168a6040518163ffffffff1660e01b815260040160206040518083038186803b158015611c6957600080fd5b505afa158015611c7d573d6000803e3d6000fd5b505050506040513d601f19601f82011682018060405250810190611ca19190615102565b8890612d37565b6040517fffffffff0000000000000000000000000000000000000000000000000000000060e085901b1681526001600160a01b0390921660048301526024820152604401600060405180830381600087803b158015611d0657600080fd5b505af1158015611d1a573d6000803e3d6000fd5b505050505050505050565b600080600260c9541415611d7b5760405162461bcd60e51b815260206004820152601f60248201527f5265656e7472616e637947756172643a207265656e7472616e742063616c6c00604482015260640161086c565b600260c95560fb5460ff1615611dc65760405162461bcd60e51b815260206004820152601060248201526f14185d5cd8589b194e881c185d5cd95960821b604482015260640161086c565b611dd0888861330d565b85611dee5760405163b483c10f60e01b815260040160405180910390fd5b611df784612960565b611e0083612adf565b611e0988612d67565b6000611e14896129e5565b90506000611e21896129e5565b90506000816001600160a01b0316637284168a6040518163ffffffff1660e01b815260040160206040518083038186803b158015611e5e57600080fd5b505afa158015611e72573d6000803e3d6000fd5b505050506040513d601f19601f82011682018060405250810190611e969190615102565b9050611f288383611f18866001600160a01b0316637284168a6040518163ffffffff1660e01b815260040160206040518083038186803b158015611ed957600080fd5b505afa158015611eed573d6000803e3d6000fd5b505050506040513d601f19601f82011682018060405250810190611f119190615102565b8d90612a40565b611f228c86612a40565b8b612dbb565b9095509350611f378582612d37565b9450611f438482612d37565b9350611f5a6001600160a01b038c1633858c612b19565b604051639e79eaa560e01b81526001600160a01b03888116600483015260248201879052831690639e79eaa590604401600060405180830381600087803b158015611fa457600080fd5b505af1158015611fb8573d6000803e3d6000fd5b5050604080516001600160a01b038f811682528e811660208301529181018d905260608101899052908a1692503391507f54787c404bb33c88e86f4baf88183a3b0141d0a848e6a9f7a13b66ae3a9b73d19060800160405180910390a35050600160c955509097909650945050505050565b600260c954141561207d5760405162461bcd60e51b815260206004820152601f60248201527f5265656e7472616e637947756172643a207265656e7472616e742063616c6c00604482015260640161086c565b600260c95561208a6129a0565b6113e881613da3565b6097546001600160a01b031633146120db5760405162461bcd60e51b815260206004820181905260248201526000805160206154fb833981519152604482015260640161086c565b670de0b6b3a7640000811115612104576040516312b019e160e01b815260040160405180910390fd5b61012e55565b6097546001600160a01b031633146121525760405162461bcd60e51b815260206004820181905260248201526000805160206154fb833981519152604482015260640161086c565b61013255565b600080612164836129e5565b90506101366000826001600160a01b03166001600160a01b0316815260200190815260200160002054816001600160a01b031663961be3916040518163ffffffff1660e01b815260040160206040518083038186803b1580156121c657600080fd5b505afa1580156121da573d6000803e3d6000fd5b505050506040513d601f19601f820116820180604052508101906121fe9190615085565b6001600160781b03166122b4836001600160a01b0316637284168a6040518163ffffffff1660e01b815260040160206040518083038186803b15801561224357600080fd5b505afa158015612257573d6000803e3d6000fd5b505050506040513d601f19601f8201168201806040525081019061227b9190615102565b846001600160a01b03166399c91a646040518163ffffffff1660e01b815260040160206040518083038186803b158015610a0657600080fd5b6122be91906153e0565b6122c891906153e0565b9392505050565b6097546001600160a01b031633146123175760405162461bcd60e51b815260206004820181905260248201526000805160206154fb833981519152604482015260640161086c565b61232081612960565b61013380546001600160a01b0319166001600160a01b0392909216919091179055565b6097546001600160a01b0316331461238b5760405162461bcd60e51b815260206004820181905260248201526000805160206154fb833981519152604482015260640161086c565b600260c95414156123de5760405162461bcd60e51b815260206004820152601f60248201527f5265656e7472616e637947756172643a207265656e7472616e742063616c6c00604482015260640161086c565b600260c9556123ec81612960565b6123f582612960565b6001600160a01b03808316600090815261013860205260409020541615612448576040517f8991c4c400000000000000000000000000000000000000000000000000000000815260040160405180910390fd5b6001600160a01b0380831660008181526101386020908152604080832080549587166001600160a01b03199687168117909155610137805461013990945282852084905560018401815584527f43dc304bb3613567eca51c4fb9e7f3128bc51bba882a32550e891d6cbd8a0fa19092018054909516841790945592517f0bb5715f0f217c2fe9a0c877ea87d474380c641102f3440ee2a4c8b9d97909189190a35050600160c955565b6000806124fd836129e5565b9050806001600160a01b03166318160ddd6040518163ffffffff1660e01b815260040160206040518083038186803b15801561253857600080fd5b505afa15801561254c573d6000803e3d6000fd5b505050506040513d601f19601f8201168201806040525081019061257091906150c7565b6125845750670de0b6b3a764000092915050565b6122c8816001600160a01b03166318160ddd6040518163ffffffff1660e01b815260040160206040518083038186803b1580156125c057600080fd5b505afa1580156125d4573d6000803e3d6000fd5b505050506040513d601f19601f820116820180604052508101906125f891906150c7565b826001600160a01b031663705727b56040518163ffffffff1660e01b815260040160206040518083038186803b15801561263157600080fd5b505afa158015612645573d6000803e3d6000fd5b505050506040513d601f19601f820116820180604052508101906126699190615085565b6001600160781b031690613e03565b600054610100900460ff1680612691575060005460ff16155b6126f45760405162461bcd60e51b815260206004820152602e60248201527f496e697469616c697a61626c653a20636f6e747261637420697320616c72656160448201526d191e481a5b9a5d1a585b1a5e995960921b606482015260840161086c565b600054610100900460ff16158015612716576000805461ffff19166101011790555b61271e613e23565b612726613ee5565b61272e613f96565b61273661404d565b61012e83905561012f829055670de0b6b3a76400006101315561013380546001600160a01b031916331790558015612774576000805461ff00191690555b505050565b6097546001600160a01b031633146127c15760405162461bcd60e51b815260206004820181905260248201526000805160206154fb833981519152604482015260640161086c565b6001600160a01b03811661283d5760405162461bcd60e51b815260206004820152602660248201527f4f776e61626c653a206e6577206f776e657220697320746865207a65726f206160448201527f6464726573730000000000000000000000000000000000000000000000000000606482015260840161086c565b61137c816138ea565b6097546001600160a01b0316331461288e5760405162461bcd60e51b815260206004820181905260248201526000805160206154fb833981519152604482015260640161086c565b6001600160a01b0381166128b5576040516312b019e160e01b815260040160405180910390fd5b61013480546001600160a01b0319166001600160a01b0392909216919091179055565b6097546001600160a01b031633146129205760405162461bcd60e51b815260206004820181905260248201526000805160206154fb833981519152604482015260640161086c565b670de0b6b3a7640000811115612949576040516312b019e160e01b815260040160405180910390fd5b61012f55565b61137c61295b826129e5565b614109565b6001600160a01b03811661137c576040517f0bd3e3ed00000000000000000000000000000000000000000000000000000000815260040160405180910390fd5b610133546001600160a01b0316331461199a576040517f5bf78ef400000000000000000000000000000000000000000000000000000000815260040160405180910390fd5b6001600160a01b0380821660009081526101386020526040812054909116612a2057604051633b2c013560e21b815260040160405180910390fd5b506001600160a01b03908116600090815261013860205260409020541690565b600060128260ff161015612a7557612a598260126153f7565b612a6490600a615250565b612a6e9084615382565b90506119a7565b60128260ff161115612aa157612a8c6012836153f7565b612a9790600a615250565b612a6e90846151f9565b5090919050565b8061137c576040517f3f3835e700000000000000000000000000000000000000000000000000000000815260040160405180910390fd5b4281101561137c576040517f549b633500000000000000000000000000000000000000000000000000000000815260040160405180910390fd5b604080516001600160a01b0385811660248301528416604482015260648082018490528251808303909101815260849091019091526020810180517bffffffffffffffffffffffffffffffffffffffffffffffffffffffff167f23b872dd00000000000000000000000000000000000000000000000000000000179052612ba190859061434a565b50505050565b6000612bb284614109565b6000612bbe8585613b72565b509092509050612bce838361442f565b6040517f9dc29fac0000000000000000000000000000000000000000000000000000000081526001600160a01b038616600482018190526024820186905290639dc29fac90604401600060405180830381600087803b158015612c3057600080fd5b505af1158015612c44573d6000803e3d6000fd5b50506040517f9f9ef988000000000000000000000000000000000000000000000000000000008152600481018590526001600160a01b0388169250639f9ef9889150602401600060405180830381600087803b158015612ca357600080fd5b505af1158015612cb7573d6000803e3d6000fd5b50506040517fd8b87853000000000000000000000000000000000000000000000000000000008152600481018490526001600160a01b038816925063d8b8785391506024015b600060405180830381600087803b158015612d1757600080fd5b505af1158015612d2b573d6000803e3d6000fd5b50505050509392505050565b600060128260ff161015612d5057612a8c8260126153f7565b60128260ff161115612aa157612a596012836153f7565b6001600160a01b038116600090815261012d602052604090205460ff161561137c576040517f8654830a00000000000000000000000000000000000000000000000000000000815260040160405180910390fd5b600080612dc98787876133e7565b9092509050612dd8848361442f565b6001600160a01b0386166000908152610136602052604081208054839290612e019084906151b3565b909155505060405162b64f3d60e51b8152600481018690526001600160a01b038816906316c9e7a090602401600060405180830381600087803b158015612e4757600080fd5b505af1158015612e5b573d6000803e3d6000fd5b50505050856001600160a01b0316639f9ef9888284612e7a91906151b3565b6040518263ffffffff1660e01b8152600401612e9891815260200190565b600060405180830381600087803b158015612eb257600080fd5b505af1158015612ec6573d6000803e3d6000fd5b505050509550959350505050565b6000612edf84614109565b6000612eeb85856136b3565b509092509050612efa82612aa8565b60405162b64f3d60e51b8152600481018590526001600160a01b038616906316c9e7a090602401600060405180830381600087803b158015612f3b57600080fd5b505af1158015612f4f573d6000803e3d6000fd5b505060405163283c3d8160e21b8152600481018490526001600160a01b038816925063a0f0f6049150602401600060405180830381600087803b158015612f9557600080fd5b505af1158015612fa9573d6000803e3d6000fd5b50506040517f40c10f190000000000000000000000000000000000000000000000000000000081526001600160a01b03868116600483015260248201869052881692506340c10f199150604401612cfd565b6097546001600160a01b0316331461137c5760405162461bcd60e51b815260206004820181905260248201526000805160206154fb833981519152604482015260640161086c565b60006130767f360894a13ba1a3210667c828492db98dca3e2076cc3735a920a3ca505d382bbc546001600160a01b031690565b905061308184614469565b60008351118061308e5750815b1561309f5761309d848461451e565b505b7f4910fdfa16fed3260ed0e7147f7cc6da11a60208b5b9406d12a635614ffd9143805460ff1661320057805460ff191660011781556040516001600160a01b038316602482015261314c90869060440160408051601f198184030181529190526020810180517bffffffffffffffffffffffffffffffffffffffffffffffffffffffff167f3659cfe60000000000000000000000000000000000000000000000000000000017905261451e565b50805460ff191681557f360894a13ba1a3210667c828492db98dca3e2076cc3735a920a3ca505d382bbc546001600160a01b038381169116146131f75760405162461bcd60e51b815260206004820152602f60248201527f45524331393637557067726164653a207570677261646520627265616b73206660448201527f7572746865722075706772616465730000000000000000000000000000000000606482015260840161086c565b61320085614617565b5050505050565b61321081612d67565b6001600160a01b038116600081815261012d6020908152604091829020805460ff19166001179055815192835233908301527fdcb65c0553aaa433aadd180404ff195259c48f78aa50f877ebcb4bb215129a4e91015b60405180910390a150565b60fb5460ff166132c35760405162461bcd60e51b815260206004820152601460248201527f5061757361626c653a206e6f7420706175736564000000000000000000000000604482015260640161086c565b60fb805460ff191690557f5db9ee0a495bf2e6ff9c91a7834c1ba4fdd244a5e8aa4e537bd38aeae4b073aa335b6040516001600160a01b03909116815260200160405180910390a1565b806001600160a01b0316826001600160a01b0316141561164a576040517feeb7911f00000000000000000000000000000000000000000000000000000000815260040160405180910390fd5b6000670de0b6b3a764000061336f6002826151f9565b6133798486615382565b61338391906151b3565b6122c891906151f9565b600060128260ff1610156133bb576133a68260126153f7565b6133b190600a615250565b612a6e90846152fb565b60128260ff161115612aa1576133d26012836153f7565b6133dd90600a615250565b612a6e90846151cb565b600080600080856001600160a01b031663961be3916040518163ffffffff1660e01b815260040160206040518083038186803b15801561342657600080fd5b505afa15801561343a573d6000803e3d6000fd5b505050506040513d601f19601f8201168201806040525081019061345e9190615085565b6001600160781b031690506135e5876001600160a01b031663961be3916040518163ffffffff1660e01b815260040160206040518083038186803b1580156134a557600080fd5b505afa1580156134b9573d6000803e3d6000fd5b505050506040513d601f19601f820116820180604052508101906134dd9190615085565b6001600160781b031682896001600160a01b031663705727b56040518163ffffffff1660e01b815260040160206040518083038186803b15801561352057600080fd5b505afa158015613534573d6000803e3d6000fd5b505050506040513d601f19601f820116820180604052508101906135589190615085565b6001600160781b0316896001600160a01b031663705727b56040518163ffffffff1660e01b815260040160206040518083038186803b15801561359a57600080fd5b505afa1580156135ae573d6000803e3d6000fd5b505050506040513d601f19601f820116820180604052508101906135d29190615085565b6001600160781b03168961012e54614657565b915081811015613621576040517f9a6114b700000000000000000000000000000000000000000000000000000000815260040160405180910390fd5b61012f54613630908390613359565b9250600085131561364c5761364583836153e0565b9350613650565b8193505b5050935093915050565b60005b6101375481101561137c57600061369561367683614784565b6001600160a01b03908116600090815261013860205260409020541690565b90506136a081614109565b50806136ab81615446565b91505061365d565b60008060006137c16137bc85876001600160a01b031663961be3916040518163ffffffff1660e01b815260040160206040518083038186803b1580156136f857600080fd5b505afa15801561370c573d6000803e3d6000fd5b505050506040513d601f19601f820116820180604052508101906137309190615085565b6001600160781b0316886001600160a01b031663705727b56040518163ffffffff1660e01b815260040160206040518083038186803b15801561377257600080fd5b505afa158015613786573d6000803e3d6000fd5b505050506040513d601f19601f820116820180604052508101906137aa9190615085565b6001600160781b031661012e546147b8565b61490e565b91506137cd84836153e0565b90506000856001600160a01b031663705727b56040518163ffffffff1660e01b815260040160206040518083038186803b15801561380a57600080fd5b505afa15801561381e573d6000803e3d6000fd5b505050506040513d601f19601f820116820180604052508101906138429190615085565b6001600160781b0316905080156138de5780866001600160a01b03166318160ddd6040518163ffffffff1660e01b815260040160206040518083038186803b15801561388d57600080fd5b505afa1580156138a1573d6000803e3d6000fd5b505050506040513d601f19601f820116820180604052508101906138c591906150c7565b6138cf9085615382565b6138d991906151f9565b6138e0565b825b9350509250925092565b609780546001600160a01b038381166001600160a01b0319831681179093556040519116919082907f8be0079c531659141344cd1fd0a4f28419497f9722a3daafe3b4186f6b6457e090600090a35050565b60fb5460ff16156139825760405162461bcd60e51b815260206004820152601060248201526f14185d5cd8589b194e881c185d5cd95960821b604482015260640161086c565b60fb805460ff191660011790557f62e78cea01bee320cd4e420270b5ea74000d11b0c9f74754ebdbfc544b05a2586132f03390565b61012e546000908190815b61013754811015613b415760006139db61367683614784565b90506000816001600160a01b031663961be3916040518163ffffffff1660e01b815260040160206040518083038186803b158015613a1857600080fd5b505afa158015613a2c573d6000803e3d6000fd5b505050506040513d601f19601f82011682018060405250810190613a509190615085565b6001600160781b031690506000826001600160a01b031663705727b56040518163ffffffff1660e01b815260040160206040518083038186803b158015613a9657600080fd5b505afa158015613aaa573d6000803e3d6000fd5b505050506040513d601f19601f82011682018060405250810190613ace9190615085565b6001600160781b0316905080613ae657505050613b2f565b6000613af28383613e03565b9050613afe82886151b3565b9650613b1e613b0d8783613e03565b613b1790836153e0565b8390613359565b613b2890896151b3565b9750505050505b80613b3981615446565b9150506139c2565b50509091565b600080613b548585614964565b613b5d90615461565b9050613b698184614998565b95945050505050565b6000806000846001600160a01b03166318160ddd6040518163ffffffff1660e01b815260040160206040518083038186803b158015613bb057600080fd5b505afa158015613bc4573d6000803e3d6000fd5b505050506040513d601f19601f82011682018060405250810190613be891906150c7565b84866001600160a01b031663705727b56040518163ffffffff1660e01b815260040160206040518083038186803b158015613c2257600080fd5b505afa158015613c36573d6000803e3d6000fd5b505050506040513d601f19601f82011682018060405250810190613c5a9190615085565b6001600160781b0316613c6d9190615382565b613c7791906151f9565b9150613c8282612aa8565b613d8e6137bc613c9184615461565b876001600160a01b031663961be3916040518163ffffffff1660e01b815260040160206040518083038186803b158015613cca57600080fd5b505afa158015613cde573d6000803e3d6000fd5b505050506040513d601f19601f82011682018060405250810190613d029190615085565b6001600160781b0316886001600160a01b031663705727b56040518163ffffffff1660e01b815260040160206040518083038186803b158015613d4457600080fd5b505afa158015613d58573d6000803e3d6000fd5b505050506040513d601f19601f82011682018060405250810190613d7c9190615085565b6001600160781b031661012e546149e1565b9250613d9a83836153e0565b90509250925092565b613dac81614a8f565b6001600160a01b038116600081815261012d6020908152604091829020805460ff19169055815192835233908301527fdb198487a4c70aa000c3b1020f52688b4b86d3ebcedc84a793e03ed3b480902c9101613266565b600081613e116002826151f9565b613379670de0b6b3a764000086615382565b600054610100900460ff1680613e3c575060005460ff16155b613e9f5760405162461bcd60e51b815260206004820152602e60248201527f496e697469616c697a61626c653a20636f6e747261637420697320616c72656160448201526d191e481a5b9a5d1a585b1a5e995960921b606482015260840161086c565b600054610100900460ff16158015613ec1576000805461ffff19166101011790555b613ec9613ee5565b613ed1614ae2565b801561137c576000805461ff001916905550565b600054610100900460ff1680613efe575060005460ff16155b613f615760405162461bcd60e51b815260206004820152602e60248201527f496e697469616c697a61626c653a20636f6e747261637420697320616c72656160448201526d191e481a5b9a5d1a585b1a5e995960921b606482015260840161086c565b600054610100900460ff16158015613ed1576000805461ffff1916610101179055801561137c576000805461ff001916905550565b600054610100900460ff1680613faf575060005460ff16155b6140125760405162461bcd60e51b815260206004820152602e60248201527f496e697469616c697a61626c653a20636f6e747261637420697320616c72656160448201526d191e481a5b9a5d1a585b1a5e995960921b606482015260840161086c565b600054610100900460ff16158015614034576000805461ffff19166101011790555b600160c955801561137c576000805461ff001916905550565b600054610100900460ff1680614066575060005460ff16155b6140c95760405162461bcd60e51b815260206004820152602e60248201527f496e697469616c697a61626c653a20636f6e747261637420697320616c72656160448201526d191e481a5b9a5d1a585b1a5e995960921b606482015260840161086c565b600054610100900460ff161580156140eb576000805461ffff19166101011790555b60fb805460ff19169055801561137c576000805461ff001916905550565b6001600160a01b0381166000908152610136602052604090205480158061413257506101325481105b1561413b575050565b60006141656101305461013154670de0b6b3a764000061415b91906153e0565b613b1791906153e0565b9050801561424657826001600160a01b0316639e79eaa561013460009054906101000a90046001600160a01b03166141cf866001600160a01b0316637284168a6040518163ffffffff1660e01b815260040160206040518083038186803b158015610e5457600080fd5b6040517fffffffff0000000000000000000000000000000000000000000000000000000060e085901b1681526001600160a01b0390921660048301526024820152604401600060405180830381600087803b15801561422d57600080fd5b505af1158015614241573d6000803e3d6000fd5b505050505b50600061425f610131548361335990919063ffffffff16565b9050801561432d57600061427384836136b3565b5060405163283c3d8160e21b8152600481018290529092506001600160a01b038616915063a0f0f60490602401600060405180830381600087803b1580156142ba57600080fd5b505af11580156142ce573d6000803e3d6000fd5b505060405162b64f3d60e51b8152600481018590526001600160a01b03871692506316c9e7a09150602401600060405180830381600087803b15801561431357600080fd5b505af1158015614327573d6000803e3d6000fd5b50505050505b50506001600160a01b031660009081526101366020526040812055565b600061439f826040518060400160405280602081526020017f5361666545524332303a206c6f772d6c6576656c2063616c6c206661696c6564815250856001600160a01b0316614b899092919063ffffffff16565b80519091501561277457808060200190518101906143bd9190615068565b6127745760405162461bcd60e51b815260206004820152602a60248201527f5361666545524332303a204552433230206f7065726174696f6e20646964206e60448201527f6f74207375636365656400000000000000000000000000000000000000000000606482015260840161086c565b8082111561164a576040517ff512a72000000000000000000000000000000000000000000000000000000000815260040160405180910390fd5b803b6144dd5760405162461bcd60e51b815260206004820152602d60248201527f455243313936373a206e657720696d706c656d656e746174696f6e206973206e60448201527f6f74206120636f6e747261637400000000000000000000000000000000000000606482015260840161086c565b7f360894a13ba1a3210667c828492db98dca3e2076cc3735a920a3ca505d382bbc80546001600160a01b0319166001600160a01b0392909216919091179055565b6060823b6145945760405162461bcd60e51b815260206004820152602660248201527f416464726573733a2064656c65676174652063616c6c20746f206e6f6e2d636f60448201527f6e74726163740000000000000000000000000000000000000000000000000000606482015260840161086c565b600080846001600160a01b0316846040516145af9190615125565b600060405180830381855af49150503d80600081146145ea576040519150601f19603f3d011682016040523d82523d6000602084013e6145ef565b606091505b5091509150613b69828260405180606001604052806027815260200161551b60279139614b98565b61462081614469565b6040516001600160a01b038216907fbc7cd75a20ee27fd9adebab32041f755214dbc6bffa90cc0225b39da2e5c2d3b90600090a250565b6000841580614664575083155b1561468257604051630570193360e51b815260040160405180910390fd5b60006146c28761469287806152fb565b61469c91906151cb565b896146a789806152fb565b6146b191906151cb565b6146bb9190615174565b8490614bd1565b6146cc888a615174565b6146d691906153a1565b905060006146ee876146e8878c615174565b90614964565b905060006146fc8388614964565b876147078785614964565b61471190856153a1565b61471b908b6152fb565b61472591906151cb565b61472f91906153a1565b9050600061473d8287614998565b905060008a61474c8a84614bd1565b61475691906153a1565b905060008112156147715761476a81615461565b9550614775565b8095505b50505050509695505050505050565b6000610137600001828154811061479d5761479d6154c0565b6000918252602090912001546001600160a01b031692915050565b6000826147c6575083614906565b60006147d28686615174565b12156147f157604051630570193360e51b815260040160405180910390fd5b60006147fd8585614964565b9050600061480b8688615174565b905060006148198587614bd1565b6148249060026152fb565b6148396146bb87670de0b6b3a76400006153a1565b6148439190615174565b9050600061485b876148558882614bd1565b90614bd1565b6148658480614bd1565b61488e866148738b8b6152fb565b61487d91906151cb565b614887908c6153a1565b8690614bd1565b61489891906153a1565b6148a29190615174565b90506000816148b28860046152fb565b6148bc91906152fb565b6148c684806152fb565b6148d091906153a1565b905060026148f4886148e184614bf1565b6148ea87615461565b6146e89190615174565b6148fe91906151cb565b955050505050505b949350505050565b6000808212156149605760405162461bcd60e51b815260206004820152601660248201527f76616c7565206d75737420626520706f73697469766500000000000000000000604482015260640161086c565b5090565b6000816149726002826151cb565b614984670de0b6b3a7640000866152fb565b61498e9190615174565b6122c891906151cb565b60006002836149d7670de0b6b3a76400006149b48660046152fb565b6149be91906152fb565b6149c887806152fb565b6149d29190615174565b614bf1565b61498e91906153a1565b6000806149ee8685615174565b905060006149fc8686614964565b90506000614a1e614a0d8684614964565b614a1790846153a1565b8790614bd1565b905060006002614a40614a3988670de0b6b3a76400006153a1565b8b90614bd1565b614a4a9084615174565b614a5491906151cb565b90506000614a79614a6f614a6887806152fb565b8990614bd1565b6149c884806152fb565b614a839083615174565b90506148fe818a6153a1565b6001600160a01b038116600090815261012d602052604090205460ff1661137c576040517f855b737300000000000000000000000000000000000000000000000000000000815260040160405180910390fd5b600054610100900460ff1680614afb575060005460ff16155b614b5e5760405162461bcd60e51b815260206004820152602e60248201527f496e697469616c697a61626c653a20636f6e747261637420697320616c72656160448201526d191e481a5b9a5d1a585b1a5e995960921b606482015260840161086c565b600054610100900460ff16158015614b80576000805461ffff19166101011790555b613ed1336138ea565b60606149068484600085614c61565b60608315614ba75750816122c8565b825115614bb75782518084602001fd5b8160405162461bcd60e51b815260040161086c9190615141565b6000670de0b6b3a7640000614be76002826151cb565b61498484866152fb565b60006003821315614c525750806000614c0b6002836151cb565b614c16906001615174565b90505b81811215614c4c57905080600281614c3181866151cb565b614c3b9190615174565b614c4591906151cb565b9050614c19565b50919050565b8115614c5c575060015b919050565b606082471015614cd95760405162461bcd60e51b815260206004820152602660248201527f416464726573733a20696e73756666696369656e742062616c616e636520666f60448201527f722063616c6c0000000000000000000000000000000000000000000000000000606482015260840161086c565b843b614d275760405162461bcd60e51b815260206004820152601d60248201527f416464726573733a2063616c6c20746f206e6f6e2d636f6e7472616374000000604482015260640161086c565b600080866001600160a01b03168587604051614d439190615125565b60006040518083038185875af1925050503d8060008114614d80576040519150601f19603f3d011682016040523d82523d6000602084013e614d85565b606091505b5091509150614d95828286614b98565b979650505050505050565b80356001600160a01b0381168114614c5c57600080fd5b600060208284031215614dc957600080fd5b6122c882614da0565b60008060408385031215614de557600080fd5b614dee83614da0565b9150614dfc60208401614da0565b90509250929050565b600080600060608486031215614e1a57600080fd5b614e2384614da0565b9250614e3160208501614da0565b9150604084013590509250925092565b60008060008060008060c08789031215614e5a57600080fd5b614e6387614da0565b9550614e7160208801614da0565b94506040870135935060608701359250614e8d60808801614da0565b915060a087013590509295509295509295565b60008060408385031215614eb357600080fd5b614ebc83614da0565b9150602083013567ffffffffffffffff80821115614ed957600080fd5b818501915085601f830112614eed57600080fd5b813581811115614eff57614eff6154d6565b604051601f8201601f19908116603f01168101908382118183101715614f2757614f276154d6565b81604052828152886020848701011115614f4057600080fd5b8260208601602083013760006020848301015280955050505050509250929050565b60008060408385031215614f7557600080fd5b614f7e83614da0565b946020939093013593505050565b600080600060608486031215614fa157600080fd5b614faa84614da0565b925060208401359150613d9a60408501614da0565b600080600080600060a08688031215614fd757600080fd5b614fe086614da0565b945060208601359350614ff560408701614da0565b925060608601359150608086013561500c816154ec565b809150509295509295909350565b600080600080600060a0868803121561503257600080fd5b61503b86614da0565b9450602086013593506040860135925061505760608701614da0565b949793965091946080013592915050565b60006020828403121561507a57600080fd5b81516122c8816154ec565b60006020828403121561509757600080fd5b81516001600160781b03811681146122c857600080fd5b6000602082840312156150c057600080fd5b5035919050565b6000602082840312156150d957600080fd5b5051919050565b600080604083850312156150f357600080fd5b50508035926020909101359150565b60006020828403121561511457600080fd5b815160ff811681146122c857600080fd5b6000825161513781846020870161541a565b9190910192915050565b602081526000825180602084015261516081604085016020870161541a565b601f01601f19169190910160400192915050565b6000808212826001600160ff1b03038413811516156151955761519561547e565b82600160ff1b0384128116156151ad576151ad61547e565b50500190565b600082198211156151c6576151c661547e565b500190565b6000826151da576151da615494565b600160ff1b8214600019841416156151f4576151f461547e565b500590565b60008261520857615208615494565b500490565b600181815b8085111561524857816000190482111561522e5761522e61547e565b8085161561523b57918102915b93841c9390800290615212565b509250929050565b60006122c860ff841683600082615269575060016119a7565b81615276575060006119a7565b816001811461528c5760028114615296576152b2565b60019150506119a7565b60ff8411156152a7576152a761547e565b50506001821b6119a7565b5060208310610133831016604e8410600b84101617156152d5575081810a6119a7565b6152df838361520d565b80600019048211156152f3576152f361547e565b029392505050565b60006001600160ff1b036000841360008413858304851182821616156153235761532361547e565b600160ff1b60008712868205881281841616156153425761534261547e565b6000871292508782058712848416161561535e5761535e61547e565b878505871281841616156153745761537461547e565b505050929093029392505050565b600081600019048311821515161561539c5761539c61547e565b500290565b600080831283600160ff1b018312811516156153bf576153bf61547e565b836001600160ff1b030183138116156153da576153da61547e565b50500390565b6000828210156153f2576153f261547e565b500390565b600060ff821660ff8416808210156154115761541161547e565b90039392505050565b60005b8381101561543557818101518382015260200161541d565b83811115612ba15750506000910152565b600060001982141561545a5761545a61547e565b5060010190565b6000600160ff1b8214156154775761547761547e565b5060000390565b634e487b7160e01b600052601160045260246000fd5b634e487b7160e01b600052601260045260246000fd5b634e487b7160e01b600052603160045260246000fd5b634e487b7160e01b600052603260045260246000fd5b634e487b7160e01b600052604160045260246000fd5b801515811461137c57600080fdfe4f776e61626c653a2063616c6c6572206973206e6f7420746865206f776e6572416464726573733a206c6f772d6c6576656c2064656c65676174652063616c6c206661696c6564a2646970667358221220c5925e4db0524a7996bafdb9e3674f65a341483b37264e9a279fde1c2c9853fb64736f6c63430008050033",
  "devdoc": {
    "details": "The main entry-point of Wombat protocol Note: All variables are 18 decimals, except from that of underlying tokens",
    "kind": "dev",
    "methods": {
      "addAsset(address,address)": {
        "params": {
          "asset": "The address of the Wombat Asset contract",
          "token": "The address of token"
        }
      },
      "assetOf(address)": {
        "details": "to be used externally",
        "params": {
          "token": "The address of ERC20 token"
        }
      },
      "deposit(address,uint256,address,uint256,bool)": {
        "details": "Asset needs to be created and added to pool before any operation",
        "params": {
          "amount": "The amount to be deposited",
          "deadline": "The deadline to be respected",
          "to": "The user accountable for deposit, receiving the Wombat assets (lp)",
          "token": "The token address to be deposited"
        },
        "returns": {
          "liquidity": "Total asset liquidity minted"
        }
      },
      "exchangeRate(address)": {
        "params": {
          "token": "The address of the token"
        },
        "returns": {
          "exchangeRate": "exchangeRate"
        }
      },
      "mintFee(address)": {
        "params": {
          "token": "The address of the token to collect fee"
        }
      },
      "owner()": {
        "details": "Returns the address of the current owner."
      },
      "pause()": {
        "details": "pause pool, restricting certain operations"
      },
      "pauseAsset(address)": {
        "details": "pause asset, restricting deposit and swap operations"
      },
      "paused()": {
        "details": "Returns true if the contract is paused, and false otherwise."
      },
      "quotePotentialDeposit(address,uint256)": {
        "details": "To be used by frontend",
        "params": {
          "amount": "The amount to deposit",
          "token": "The token to deposit by user"
        },
        "returns": {
          "liquidity": "The potential liquidity user would receive",
          "reward": "reward"
        }
      },
      "quotePotentialSwap(address,address,int256)": {
        "details": "To be used by frontend",
        "params": {
          "fromAmount": "The amount to quote",
          "fromToken": "The initial ERC20 token",
          "toToken": "The token wanted by user"
        },
        "returns": {
          "haircut": "The haircut that would be applied",
          "potentialOutcome": "The potential amount user would receive"
        }
      },
      "quotePotentialWithdraw(address,uint256)": {
        "details": "To be used by frontend",
        "params": {
          "liquidity": "The liquidity (amount of lp assets) to be withdrawn",
          "token": "The token to be withdrawn by user"
        },
        "returns": {
          "amount": "The potential amount user would receive",
          "fee": "The fee that would be applied"
        }
      },
      "removeAsset(address)": {
        "details": "Can only be called by owner",
        "params": {
          "key": "The address of token to remove"
        }
      },
      "renounceOwnership()": {
        "details": "Leaves the contract without owner. It will not be possible to call `onlyOwner` functions anymore. Can only be called by the current owner. NOTE: Renouncing ownership will leave the contract without an owner, thereby removing any functionality that is only available to the owner."
      },
      "setAmpFactor(uint256)": {
        "params": {
          "ampFactor_": "new pool's amplification factor"
        }
      },
      "setDev(address)": {
        "params": {
          "dev_": "new contract dev address"
        }
      },
      "setFeeTo(address)": {
        "params": {
          "feeTo_": "new fee beneficiary"
        }
      },
      "setHaircutRate(uint256)": {
        "params": {
          "haircutRate_": "new pool's haircutRate_"
        }
      },
      "swap(address,address,uint256,uint256,address,uint256)": {
        "params": {
          "deadline": "The deadline to be respected",
          "fromAmount": "The amount of from token inserted",
          "fromToken": "The token being inserted into Pool by user for swap",
          "minimumToAmount": "The minimum amount that will be accepted by user as result",
          "to": "The user receiving the result of swap",
          "toToken": "The token wanted by user, leaving the Pool"
        }
      },
      "transferOwnership(address)": {
        "details": "Transfers ownership of the contract to a new account (`newOwner`). Can only be called by the current owner."
      },
      "unpause()": {
        "details": "unpause pool, enabling certain operations"
      },
      "unpauseAsset(address)": {
        "details": "unpause asset, enabling deposit and swap operations"
      },
      "upgradeTo(address)": {
        "details": "Upgrade the implementation of the proxy to `newImplementation`. Calls {_authorizeUpgrade}. Emits an {Upgraded} event."
      },
      "upgradeToAndCall(address,bytes)": {
        "details": "Upgrade the implementation of the proxy to `newImplementation`, and subsequently execute the function call encoded in `data`. Calls {_authorizeUpgrade}. Emits an {Upgraded} event."
      },
      "withdraw(address,uint256,uint256,address,uint256)": {
        "params": {
          "deadline": "The deadline to be respected",
          "liquidity": "The liquidity to be withdrawn",
          "minimumAmount": "The minimum amount that will be accepted by user",
          "to": "The user receiving the withdrawal",
          "token": "The token to be withdrawn"
        },
        "returns": {
          "amount": "The total amount withdrawn"
        }
      },
      "withdrawFromOtherAsset(address,address,uint256,uint256,address,uint256)": {
        "details": "Also, coverage ratio of toAsset must be higher than 1 after withdrawal for this to be accepted",
        "params": {
          "deadline": "The deadline to be respected",
          "fromToken": "The corresponding token user holds the LP (Asset) from",
          "liquidity": "The liquidity to be withdrawn (in fromToken decimal)",
          "minimumAmount": "The minimum amount that will be accepted by user",
          "to": "The user receiving the withdrawal",
          "toToken": "The token wanting to be withdrawn (needs to be well covered)"
        },
        "returns": {
          "toAmount": "The total amount withdrawn"
        }
      }
    },
    "title": "Pool",
    "version": 1
  },
  "userdoc": {
    "events": {
      "AssetAdded(address,address)": {
        "notice": "An event thats emitted when an asset is added to Pool"
      },
      "AssetRemoved(address,address)": {
        "notice": "An event thats emitted when asset is removed from Pool"
      },
      "Deposit(address,address,uint256,uint256,address)": {
        "notice": "An event thats emitted when a deposit is made to Pool"
      },
      "Swap(address,address,address,uint256,uint256,address)": {
        "notice": "An event thats emitted when a swap is made in Pool"
      },
      "Withdraw(address,address,uint256,uint256,address)": {
        "notice": "An event thats emitted when a withdrawal is made from Pool"
      }
    },
    "kind": "user",
    "methods": {
      "addAsset(address,address)": {
        "notice": "Adds asset to pool, reverts if asset already exists in pool"
      },
      "ampFactor()": {
        "notice": "Amplification factor"
      },
      "assetOf(address)": {
        "notice": "Gets Asset corresponding to ERC20 token. Reverts if asset does not exists in Pool."
      },
      "deposit(address,uint256,address,uint256,bool)": {
        "notice": "Deposits amount of tokens into pool ensuring deadline"
      },
      "dev()": {
        "notice": "Dev address"
      },
      "exchangeRate(address)": {
        "notice": "Returns the exchange rate of the LP token"
      },
      "haircutRate()": {
        "notice": "Haircut rate"
      },
      "initialize(uint256,uint256)": {
        "notice": "Initializes pool. Dev is set to be the account calling this function."
      },
      "lpDividendRatio()": {
        "notice": "LP dividend ratio : the ratio of haircut that should distribute to LP"
      },
      "mintFee(address)": {
        "notice": "Send fee collected to the fee beneficiary"
      },
      "mintFeeThreshold()": {
        "notice": "The threshold to mint fee (unit: WAD)"
      },
      "quotePotentialDeposit(address,uint256)": {
        "notice": "Quotes potential deposit from pool"
      },
      "quotePotentialSwap(address,address,int256)": {
        "notice": "Quotes potential outcome of a swap given current state, taking in account slippage and haircut"
      },
      "quotePotentialWithdraw(address,uint256)": {
        "notice": "Quotes potential withdrawal from pool"
      },
      "removeAsset(address)": {
        "notice": "Removes asset from asset struct"
      },
      "retentionRatio()": {
        "notice": "Retention ratio: the ratio of haircut that should stay in the pool"
      },
      "setAmpFactor(uint256)": {
        "notice": "Changes the pools amplification factor. Can only be set by the contract owner."
      },
      "setDev(address)": {
        "notice": "Changes the contract dev. Can only be set by the contract owner."
      },
      "setFeeTo(address)": {
        "notice": "Changes the fee beneficiary. Can only be set by the contract owner. This value cannot be set to 0 to avoid unsettled fee."
      },
      "setHaircutRate(uint256)": {
        "notice": "Changes the pools haircutRate. Can only be set by the contract owner."
      },
      "setMintFeeThreshold(uint256)": {
        "notice": "Set min fee to mint"
      },
      "swap(address,address,uint256,uint256,address,uint256)": {
        "notice": "Swap fromToken for toToken, ensures deadline and minimumToAmount and sends quoted amount to `to` address"
      },
      "withdraw(address,uint256,uint256,address,uint256)": {
        "notice": "Withdraws liquidity amount of asset to `to` address ensuring minimum amount required"
      },
      "withdrawFromOtherAsset(address,address,uint256,uint256,address,uint256)": {
        "notice": "Enables withdrawing liquidity from an asset using LP from a different asset"
      }
    },
    "notice": "Manages deposits, withdrawals and swaps. Holds a mapping of assets and parameters.",
    "version": 1
  },
  "storageLayout": {
    "storage": [
      {
        "astId": 567,
        "contract": "contracts/wombat-core/pool/Pool.sol:Pool",
        "label": "_initialized",
        "offset": 0,
        "slot": "0",
        "type": "t_bool"
      },
      {
        "astId": 570,
        "contract": "contracts/wombat-core/pool/Pool.sol:Pool",
        "label": "_initializing",
        "offset": 1,
        "slot": "0",
        "type": "t_bool"
      },
      {
        "astId": 550,
        "contract": "contracts/wombat-core/pool/Pool.sol:Pool",
        "label": "__gap",
        "offset": 0,
        "slot": "1",
        "type": "t_array(t_uint256)50_storage"
      },
      {
        "astId": 683,
        "contract": "contracts/wombat-core/pool/Pool.sol:Pool",
        "label": "__gap",
        "offset": 0,
        "slot": "51",
        "type": "t_array(t_uint256)50_storage"
      },
      {
        "astId": 1141,
        "contract": "contracts/wombat-core/pool/Pool.sol:Pool",
        "label": "__gap",
        "offset": 0,
        "slot": "101",
        "type": "t_array(t_uint256)50_storage"
      },
      {
        "astId": 10,
        "contract": "contracts/wombat-core/pool/Pool.sol:Pool",
        "label": "_owner",
        "offset": 0,
        "slot": "151",
        "type": "t_address"
      },
      {
        "astId": 123,
        "contract": "contracts/wombat-core/pool/Pool.sol:Pool",
        "label": "__gap",
        "offset": 0,
        "slot": "152",
        "type": "t_array(t_uint256)49_storage"
      },
      {
        "astId": 811,
        "contract": "contracts/wombat-core/pool/Pool.sol:Pool",
        "label": "_status",
        "offset": 0,
        "slot": "201",
        "type": "t_uint256"
      },
      {
        "astId": 854,
        "contract": "contracts/wombat-core/pool/Pool.sol:Pool",
        "label": "__gap",
        "offset": 0,
        "slot": "202",
        "type": "t_array(t_uint256)49_storage"
      },
      {
        "astId": 705,
        "contract": "contracts/wombat-core/pool/Pool.sol:Pool",
        "label": "_paused",
        "offset": 0,
        "slot": "251",
        "type": "t_bool"
      },
      {
        "astId": 796,
        "contract": "contracts/wombat-core/pool/Pool.sol:Pool",
        "label": "__gap",
        "offset": 0,
        "slot": "252",
        "type": "t_array(t_uint256)49_storage"
      },
      {
        "astId": 5778,
        "contract": "contracts/wombat-core/pool/Pool.sol:Pool",
        "label": "_pausedAssets",
        "offset": 0,
        "slot": "301",
        "type": "t_mapping(t_address,t_bool)"
      },
      {
        "astId": 5912,
        "contract": "contracts/wombat-core/pool/Pool.sol:Pool",
        "label": "ampFactor",
        "offset": 0,
        "slot": "302",
        "type": "t_uint256"
      },
      {
        "astId": 5915,
        "contract": "contracts/wombat-core/pool/Pool.sol:Pool",
        "label": "haircutRate",
        "offset": 0,
        "slot": "303",
        "type": "t_uint256"
      },
      {
        "astId": 5918,
        "contract": "contracts/wombat-core/pool/Pool.sol:Pool",
        "label": "retentionRatio",
        "offset": 0,
        "slot": "304",
        "type": "t_uint256"
      },
      {
        "astId": 5921,
        "contract": "contracts/wombat-core/pool/Pool.sol:Pool",
        "label": "lpDividendRatio",
        "offset": 0,
        "slot": "305",
        "type": "t_uint256"
      },
      {
        "astId": 5924,
        "contract": "contracts/wombat-core/pool/Pool.sol:Pool",
        "label": "mintFeeThreshold",
        "offset": 0,
        "slot": "306",
        "type": "t_uint256"
      },
      {
        "astId": 5927,
        "contract": "contracts/wombat-core/pool/Pool.sol:Pool",
        "label": "dev",
        "offset": 0,
        "slot": "307",
        "type": "t_address"
      },
      {
        "astId": 5929,
        "contract": "contracts/wombat-core/pool/Pool.sol:Pool",
        "label": "feeTo",
        "offset": 0,
        "slot": "308",
        "type": "t_address"
      },
      {
        "astId": 5932,
        "contract": "contracts/wombat-core/pool/Pool.sol:Pool",
        "label": "masterWombat",
        "offset": 0,
        "slot": "309",
        "type": "t_contract(IMasterWombat)12436"
      },
      {
        "astId": 5938,
        "contract": "contracts/wombat-core/pool/Pool.sol:Pool",
        "label": "_feeCollected",
        "offset": 0,
        "slot": "310",
        "type": "t_mapping(t_contract(IAsset)4651,t_uint256)"
      },
      {
        "astId": 5942,
        "contract": "contracts/wombat-core/pool/Pool.sol:Pool",
        "label": "_assets",
        "offset": 0,
        "slot": "311",
        "type": "t_struct(AssetMap)5909_storage"
      }
    ],
    "types": {
      "t_address": {
        "encoding": "inplace",
        "label": "address",
        "numberOfBytes": "20"
      },
      "t_array(t_address)dyn_storage": {
        "base": "t_address",
        "encoding": "dynamic_array",
        "label": "address[]",
        "numberOfBytes": "32"
      },
      "t_array(t_uint256)49_storage": {
        "base": "t_uint256",
        "encoding": "inplace",
        "label": "uint256[49]",
        "numberOfBytes": "1568"
      },
      "t_array(t_uint256)50_storage": {
        "base": "t_uint256",
        "encoding": "inplace",
        "label": "uint256[50]",
        "numberOfBytes": "1600"
      },
      "t_bool": {
        "encoding": "inplace",
        "label": "bool",
        "numberOfBytes": "1"
      },
      "t_contract(IAsset)4651": {
        "encoding": "inplace",
        "label": "contract IAsset",
        "numberOfBytes": "20"
      },
      "t_contract(IMasterWombat)12436": {
        "encoding": "inplace",
        "label": "contract IMasterWombat",
        "numberOfBytes": "20"
      },
      "t_mapping(t_address,t_bool)": {
        "encoding": "mapping",
        "key": "t_address",
        "label": "mapping(address => bool)",
        "numberOfBytes": "32",
        "value": "t_bool"
      },
      "t_mapping(t_address,t_contract(IAsset)4651)": {
        "encoding": "mapping",
        "key": "t_address",
        "label": "mapping(address => contract IAsset)",
        "numberOfBytes": "32",
        "value": "t_contract(IAsset)4651"
      },
      "t_mapping(t_address,t_uint256)": {
        "encoding": "mapping",
        "key": "t_address",
        "label": "mapping(address => uint256)",
        "numberOfBytes": "32",
        "value": "t_uint256"
      },
      "t_mapping(t_contract(IAsset)4651,t_uint256)": {
        "encoding": "mapping",
        "key": "t_contract(IAsset)4651",
        "label": "mapping(contract IAsset => uint256)",
        "numberOfBytes": "32",
        "value": "t_uint256"
      },
      "t_struct(AssetMap)5909_storage": {
        "encoding": "inplace",
        "label": "struct Pool.AssetMap",
        "members": [
          {
            "astId": 5899,
            "contract": "contracts/wombat-core/pool/Pool.sol:Pool",
            "label": "keys",
            "offset": 0,
            "slot": "0",
            "type": "t_array(t_address)dyn_storage"
          },
          {
            "astId": 5904,
            "contract": "contracts/wombat-core/pool/Pool.sol:Pool",
            "label": "values",
            "offset": 0,
            "slot": "1",
            "type": "t_mapping(t_address,t_contract(IAsset)4651)"
          },
          {
            "astId": 5908,
            "contract": "contracts/wombat-core/pool/Pool.sol:Pool",
            "label": "indexOf",
            "offset": 0,
            "slot": "2",
            "type": "t_mapping(t_address,t_uint256)"
          }
        ],
        "numberOfBytes": "96"
      },
      "t_uint256": {
        "encoding": "inplace",
        "label": "uint256",
        "numberOfBytes": "32"
      }
    }
  }
}