{
  "address": "0x62f3b2205cafB132fC949e7BCf33252f60882ADE",
  "abi": [
    {
      "inputs": [],
      "name": "CORE_UNDERFLOW",
      "type": "error"
    },
    {
      "inputs": [],
      "name": "WOMBAT_AMOUNT_TOO_LOW",
      "type": "error"
    },
    {
      "inputs": [],
      "name": "WOMBAT_ASSET_ALREADY_EXIST",
      "type": "error"
    },
    {
      "inputs": [],
      "name": "WOMBAT_ASSET_ALREADY_PAUSED",
      "type": "error"
    },
    {
      "inputs": [],
      "name": "WOMBAT_ASSET_NOT_EXISTS",
      "type": "error"
    },
    {
      "inputs": [],
      "name": "WOMBAT_ASSET_NOT_PAUSED",
      "type": "error"
    },
    {
      "inputs": [],
      "name": "WOMBAT_CASH_NOT_ENOUGH",
      "type": "error"
    },
    {
      "inputs": [],
      "name": "WOMBAT_EXPIRED",
      "type": "error"
    },
    {
      "inputs": [],
      "name": "WOMBAT_FORBIDDEN",
      "type": "error"
    },
    {
      "inputs": [],
      "name": "WOMBAT_INTERPOOL_SWAP_NOT_SUPPORTED",
      "type": "error"
    },
    {
      "inputs": [],
      "name": "WOMBAT_INVALID_VALUE",
      "type": "error"
    },
    {
      "inputs": [],
      "name": "WOMBAT_SAME_ADDRESS",
      "type": "error"
    },
    {
      "inputs": [],
      "name": "WOMBAT_ZERO_ADDRESS",
      "type": "error"
    },
    {
      "inputs": [],
      "name": "WOMBAT_ZERO_AMOUNT",
      "type": "error"
    },
    {
      "inputs": [],
      "name": "WOMBAT_ZERO_LIQUIDITY",
      "type": "error"
    },
    {
      "anonymous": false,
      "inputs": [
        {
          "indexed": true,
          "internalType": "address",
          "name": "token",
          "type": "address"
        },
        {
          "indexed": true,
          "internalType": "address",
          "name": "asset",
          "type": "address"
        }
      ],
      "name": "AssetAdded",
      "type": "event"
    },
    {
      "anonymous": false,
      "inputs": [
        {
          "indexed": true,
          "internalType": "address",
          "name": "token",
          "type": "address"
        },
        {
          "indexed": true,
          "internalType": "address",
          "name": "asset",
          "type": "address"
        }
      ],
      "name": "AssetRemoved",
      "type": "event"
    },
    {
      "anonymous": false,
      "inputs": [
        {
          "indexed": true,
          "internalType": "address",
          "name": "sender",
          "type": "address"
        },
        {
          "indexed": false,
          "internalType": "address",
          "name": "token",
          "type": "address"
        },
        {
          "indexed": false,
          "internalType": "uint256",
          "name": "amount",
          "type": "uint256"
        },
        {
          "indexed": false,
          "internalType": "uint256",
          "name": "liquidity",
          "type": "uint256"
        },
        {
          "indexed": true,
          "internalType": "address",
          "name": "to",
          "type": "address"
        }
      ],
      "name": "Deposit",
      "type": "event"
    },
    {
      "anonymous": false,
      "inputs": [
        {
          "indexed": true,
          "internalType": "address",
          "name": "previousOwner",
          "type": "address"
        },
        {
          "indexed": true,
          "internalType": "address",
          "name": "newOwner",
          "type": "address"
        }
      ],
      "name": "OwnershipTransferred",
      "type": "event"
    },
    {
      "anonymous": false,
      "inputs": [
        {
          "indexed": false,
          "internalType": "address",
          "name": "account",
          "type": "address"
        }
      ],
      "name": "Paused",
      "type": "event"
    },
    {
      "anonymous": false,
      "inputs": [
        {
          "indexed": false,
          "internalType": "address",
          "name": "asset",
          "type": "address"
        },
        {
          "indexed": false,
          "internalType": "address",
          "name": "account",
          "type": "address"
        }
      ],
      "name": "PausedAsset",
      "type": "event"
    },
    {
      "anonymous": false,
      "inputs": [
        {
          "indexed": true,
          "internalType": "address",
          "name": "sender",
          "type": "address"
        },
        {
          "indexed": false,
          "internalType": "address",
          "name": "fromToken",
          "type": "address"
        },
        {
          "indexed": false,
          "internalType": "address",
          "name": "toToken",
          "type": "address"
        },
        {
          "indexed": false,
          "internalType": "uint256",
          "name": "fromAmount",
          "type": "uint256"
        },
        {
          "indexed": false,
          "internalType": "uint256",
          "name": "toAmount",
          "type": "uint256"
        },
        {
          "indexed": true,
          "internalType": "address",
          "name": "to",
          "type": "address"
        }
      ],
      "name": "Swap",
      "type": "event"
    },
    {
      "anonymous": false,
      "inputs": [
        {
          "indexed": false,
          "internalType": "address",
          "name": "account",
          "type": "address"
        }
      ],
      "name": "Unpaused",
      "type": "event"
    },
    {
      "anonymous": false,
      "inputs": [
        {
          "indexed": false,
          "internalType": "address",
          "name": "asset",
          "type": "address"
        },
        {
          "indexed": false,
          "internalType": "address",
          "name": "account",
          "type": "address"
        }
      ],
      "name": "UnpausedAsset",
      "type": "event"
    },
    {
      "anonymous": false,
      "inputs": [
        {
          "indexed": true,
          "internalType": "address",
          "name": "sender",
          "type": "address"
        },
        {
          "indexed": false,
          "internalType": "address",
          "name": "token",
          "type": "address"
        },
        {
          "indexed": false,
          "internalType": "uint256",
          "name": "amount",
          "type": "uint256"
        },
        {
          "indexed": false,
          "internalType": "uint256",
          "name": "liquidity",
          "type": "uint256"
        },
        {
          "indexed": true,
          "internalType": "address",
          "name": "to",
          "type": "address"
        }
      ],
      "name": "Withdraw",
      "type": "event"
    },
    {
      "inputs": [],
      "name": "WAD",
      "outputs": [
        {
          "internalType": "uint256",
          "name": "",
          "type": "uint256"
        }
      ],
      "stateMutability": "view",
      "type": "function"
    },
    {
      "inputs": [],
      "name": "WAD_I",
      "outputs": [
        {
          "internalType": "int256",
          "name": "",
          "type": "int256"
        }
      ],
      "stateMutability": "view",
      "type": "function"
    },
    {
      "inputs": [
        {
          "internalType": "address",
          "name": "token",
          "type": "address"
        },
        {
          "internalType": "address",
          "name": "asset",
          "type": "address"
        }
      ],
      "name": "addAsset",
      "outputs": [],
      "stateMutability": "nonpayable",
      "type": "function"
    },
    {
      "inputs": [],
      "name": "ampFactor",
      "outputs": [
        {
          "internalType": "uint256",
          "name": "",
          "type": "uint256"
        }
      ],
      "stateMutability": "view",
      "type": "function"
    },
    {
      "inputs": [
        {
          "internalType": "address",
          "name": "token",
          "type": "address"
        }
      ],
      "name": "assetOf",
      "outputs": [
        {
          "internalType": "address",
          "name": "",
          "type": "address"
        }
      ],
      "stateMutability": "view",
      "type": "function"
    },
    {
      "inputs": [
        {
          "internalType": "address",
          "name": "token",
          "type": "address"
        },
        {
          "internalType": "uint256",
          "name": "amount",
          "type": "uint256"
        },
        {
          "internalType": "address",
          "name": "to",
          "type": "address"
        },
        {
          "internalType": "uint256",
          "name": "deadline",
          "type": "uint256"
        },
        {
          "internalType": "bool",
          "name": "shouldStake",
          "type": "bool"
        }
      ],
      "name": "deposit",
      "outputs": [
        {
          "internalType": "uint256",
          "name": "liquidity",
          "type": "uint256"
        }
      ],
      "stateMutability": "nonpayable",
      "type": "function"
    },
    {
      "inputs": [],
      "name": "dev",
      "outputs": [
        {
          "internalType": "address",
          "name": "",
          "type": "address"
        }
      ],
      "stateMutability": "view",
      "type": "function"
    },
    {
      "inputs": [
        {
          "internalType": "address",
          "name": "token",
          "type": "address"
        }
      ],
      "name": "exchangeRate",
      "outputs": [
        {
          "internalType": "uint256",
          "name": "exchangeRate",
          "type": "uint256"
        }
      ],
      "stateMutability": "view",
      "type": "function"
    },
    {
      "inputs": [],
      "name": "feeTo",
      "outputs": [
        {
          "internalType": "address",
          "name": "",
          "type": "address"
        }
      ],
      "stateMutability": "view",
      "type": "function"
    },
    {
      "inputs": [
        {
          "internalType": "address",
          "name": "token",
          "type": "address"
        },
        {
          "internalType": "uint256",
          "name": "amount",
          "type": "uint256"
        }
      ],
      "name": "fillPool",
      "outputs": [],
      "stateMutability": "nonpayable",
      "type": "function"
    },
    {
      "inputs": [],
      "name": "getTokens",
      "outputs": [
        {
          "internalType": "address[]",
          "name": "",
          "type": "address[]"
        }
      ],
      "stateMutability": "view",
      "type": "function"
    },
    {
      "inputs": [],
      "name": "globalEquilCovRatio",
      "outputs": [
        {
          "internalType": "uint256",
          "name": "equilCovRatio",
          "type": "uint256"
        },
        {
          "internalType": "uint256",
          "name": "invariant",
          "type": "uint256"
        }
      ],
      "stateMutability": "view",
      "type": "function"
    },
    {
      "inputs": [],
      "name": "haircutRate",
      "outputs": [
        {
          "internalType": "uint256",
          "name": "",
          "type": "uint256"
        }
      ],
      "stateMutability": "view",
      "type": "function"
    },
    {
      "inputs": [
        {
          "internalType": "uint256",
          "name": "ampFactor_",
          "type": "uint256"
        },
        {
          "internalType": "uint256",
          "name": "haircutRate_",
          "type": "uint256"
        }
      ],
      "name": "initialize",
      "outputs": [],
      "stateMutability": "nonpayable",
      "type": "function"
    },
    {
      "inputs": [],
      "name": "lpDividendRatio",
      "outputs": [
        {
          "internalType": "uint256",
          "name": "",
          "type": "uint256"
        }
      ],
      "stateMutability": "view",
      "type": "function"
    },
    {
      "inputs": [],
      "name": "masterWombat",
      "outputs": [
        {
          "internalType": "contract IMasterWombat",
          "name": "",
          "type": "address"
        }
      ],
      "stateMutability": "view",
      "type": "function"
    },
    {
      "inputs": [
        {
          "internalType": "address",
          "name": "token",
          "type": "address"
        }
      ],
      "name": "mintFee",
      "outputs": [],
      "stateMutability": "nonpayable",
      "type": "function"
    },
    {
      "inputs": [],
      "name": "mintFeeThreshold",
      "outputs": [
        {
          "internalType": "uint256",
          "name": "",
          "type": "uint256"
        }
      ],
      "stateMutability": "view",
      "type": "function"
    },
    {
      "inputs": [],
      "name": "owner",
      "outputs": [
        {
          "internalType": "address",
          "name": "",
          "type": "address"
        }
      ],
      "stateMutability": "view",
      "type": "function"
    },
    {
      "inputs": [],
      "name": "pause",
      "outputs": [],
      "stateMutability": "nonpayable",
      "type": "function"
    },
    {
      "inputs": [
        {
          "internalType": "address",
          "name": "token",
          "type": "address"
        }
      ],
      "name": "pauseAsset",
      "outputs": [],
      "stateMutability": "nonpayable",
      "type": "function"
    },
    {
      "inputs": [],
      "name": "paused",
      "outputs": [
        {
          "internalType": "bool",
          "name": "",
          "type": "bool"
        }
      ],
      "stateMutability": "view",
      "type": "function"
    },
    {
      "inputs": [
        {
          "internalType": "address",
          "name": "token",
          "type": "address"
        },
        {
          "internalType": "uint256",
          "name": "amount",
          "type": "uint256"
        }
      ],
      "name": "quotePotentialDeposit",
      "outputs": [
        {
          "internalType": "uint256",
          "name": "liquidity",
          "type": "uint256"
        },
        {
          "internalType": "uint256",
          "name": "reward",
          "type": "uint256"
        }
      ],
      "stateMutability": "view",
      "type": "function"
    },
    {
      "inputs": [
        {
          "internalType": "address",
          "name": "fromToken",
          "type": "address"
        },
        {
          "internalType": "address",
          "name": "toToken",
          "type": "address"
        },
        {
          "internalType": "int256",
          "name": "fromAmount",
          "type": "int256"
        }
      ],
      "name": "quotePotentialSwap",
      "outputs": [
        {
          "internalType": "uint256",
          "name": "potentialOutcome",
          "type": "uint256"
        },
        {
          "internalType": "uint256",
          "name": "haircut",
          "type": "uint256"
        }
      ],
      "stateMutability": "view",
      "type": "function"
    },
    {
      "inputs": [
        {
          "internalType": "address",
          "name": "token",
          "type": "address"
        },
        {
          "internalType": "uint256",
          "name": "liquidity",
          "type": "uint256"
        }
      ],
      "name": "quotePotentialWithdraw",
      "outputs": [
        {
          "internalType": "uint256",
          "name": "amount",
          "type": "uint256"
        },
        {
          "internalType": "uint256",
          "name": "fee",
          "type": "uint256"
        }
      ],
      "stateMutability": "view",
      "type": "function"
    },
    {
      "inputs": [
        {
          "internalType": "address",
          "name": "token",
          "type": "address"
        }
      ],
      "name": "removeAsset",
      "outputs": [],
      "stateMutability": "nonpayable",
      "type": "function"
    },
    {
      "inputs": [],
      "name": "renounceOwnership",
      "outputs": [],
      "stateMutability": "nonpayable",
      "type": "function"
    },
    {
      "inputs": [],
      "name": "retentionRatio",
      "outputs": [
        {
          "internalType": "uint256",
          "name": "",
          "type": "uint256"
        }
      ],
      "stateMutability": "view",
      "type": "function"
    },
    {
      "inputs": [
        {
          "internalType": "uint256",
          "name": "ampFactor_",
          "type": "uint256"
        }
      ],
      "name": "setAmpFactor",
      "outputs": [],
      "stateMutability": "nonpayable",
      "type": "function"
    },
    {
      "inputs": [
        {
          "internalType": "address",
          "name": "dev_",
          "type": "address"
        }
      ],
      "name": "setDev",
      "outputs": [],
      "stateMutability": "nonpayable",
      "type": "function"
    },
    {
      "inputs": [
        {
          "internalType": "uint256",
          "name": "lpDividendRatio_",
          "type": "uint256"
        },
        {
          "internalType": "uint256",
          "name": "retentionRatio_",
          "type": "uint256"
        }
      ],
      "name": "setFee",
      "outputs": [],
      "stateMutability": "nonpayable",
      "type": "function"
    },
    {
      "inputs": [
        {
          "internalType": "address",
          "name": "feeTo_",
          "type": "address"
        }
      ],
      "name": "setFeeTo",
      "outputs": [],
      "stateMutability": "nonpayable",
      "type": "function"
    },
    {
      "inputs": [
        {
          "internalType": "uint256",
          "name": "haircutRate_",
          "type": "uint256"
        }
      ],
      "name": "setHaircutRate",
      "outputs": [],
      "stateMutability": "nonpayable",
      "type": "function"
    },
    {
      "inputs": [
        {
          "internalType": "address",
          "name": "masterWombat_",
          "type": "address"
        }
      ],
      "name": "setMasterWombat",
      "outputs": [],
      "stateMutability": "nonpayable",
      "type": "function"
    },
    {
      "inputs": [
        {
          "internalType": "uint256",
          "name": "mintFeeThreshold_",
          "type": "uint256"
        }
      ],
      "name": "setMintFeeThreshold",
      "outputs": [],
      "stateMutability": "nonpayable",
      "type": "function"
    },
    {
      "inputs": [
        {
          "internalType": "address",
          "name": "fromToken",
          "type": "address"
        },
        {
          "internalType": "address",
          "name": "toToken",
          "type": "address"
        },
        {
          "internalType": "uint256",
          "name": "fromAmount",
          "type": "uint256"
        },
        {
          "internalType": "uint256",
          "name": "minimumToAmount",
          "type": "uint256"
        },
        {
          "internalType": "address",
          "name": "to",
          "type": "address"
        },
        {
          "internalType": "uint256",
          "name": "deadline",
          "type": "uint256"
        }
      ],
      "name": "swap",
      "outputs": [
        {
          "internalType": "uint256",
          "name": "actualToAmount",
          "type": "uint256"
        },
        {
          "internalType": "uint256",
          "name": "haircut",
          "type": "uint256"
        }
      ],
      "stateMutability": "nonpayable",
      "type": "function"
    },
    {
      "inputs": [
        {
          "internalType": "address",
          "name": "token",
          "type": "address"
        }
      ],
      "name": "tipBucketBalance",
      "outputs": [
        {
          "internalType": "uint256",
          "name": "balance",
          "type": "uint256"
        }
      ],
      "stateMutability": "view",
      "type": "function"
    },
    {
      "inputs": [
        {
          "internalType": "address",
          "name": "newOwner",
          "type": "address"
        }
      ],
      "name": "transferOwnership",
      "outputs": [],
      "stateMutability": "nonpayable",
      "type": "function"
    },
    {
      "inputs": [
        {
          "internalType": "address",
          "name": "token",
          "type": "address"
        },
        {
          "internalType": "uint256",
          "name": "amount",
          "type": "uint256"
        },
        {
          "internalType": "address",
          "name": "to",
          "type": "address"
        }
      ],
      "name": "transferTipBucket",
      "outputs": [],
      "stateMutability": "nonpayable",
      "type": "function"
    },
    {
      "inputs": [],
      "name": "unpause",
      "outputs": [],
      "stateMutability": "nonpayable",
      "type": "function"
    },
    {
      "inputs": [
        {
          "internalType": "address",
          "name": "token",
          "type": "address"
        }
      ],
      "name": "unpauseAsset",
      "outputs": [],
      "stateMutability": "nonpayable",
      "type": "function"
    },
    {
      "inputs": [
        {
          "internalType": "address",
          "name": "token",
          "type": "address"
        },
        {
          "internalType": "uint256",
          "name": "liquidity",
          "type": "uint256"
        },
        {
          "internalType": "uint256",
          "name": "minimumAmount",
          "type": "uint256"
        },
        {
          "internalType": "address",
          "name": "to",
          "type": "address"
        },
        {
          "internalType": "uint256",
          "name": "deadline",
          "type": "uint256"
        }
      ],
      "name": "withdraw",
      "outputs": [
        {
          "internalType": "uint256",
          "name": "amount",
          "type": "uint256"
        }
      ],
      "stateMutability": "nonpayable",
      "type": "function"
    },
    {
      "inputs": [
        {
          "internalType": "address",
          "name": "fromToken",
          "type": "address"
        },
        {
          "internalType": "address",
          "name": "toToken",
          "type": "address"
        },
        {
          "internalType": "uint256",
          "name": "liquidity",
          "type": "uint256"
        },
        {
          "internalType": "uint256",
          "name": "minimumAmount",
          "type": "uint256"
        },
        {
          "internalType": "address",
          "name": "to",
          "type": "address"
        },
        {
          "internalType": "uint256",
          "name": "deadline",
          "type": "uint256"
        }
      ],
      "name": "withdrawFromOtherAsset",
      "outputs": [
        {
          "internalType": "uint256",
          "name": "toAmount",
          "type": "uint256"
        }
      ],
      "stateMutability": "nonpayable",
      "type": "function"
    }
  ],
  "transactionHash": "0xcce26a5e74a2de4d3d9747aceb7335e1ce25c9a51991be68acd73a2f902de773",
  "args": [],
  "solcInputHash": "dd3f97367ae79e55beb039f6bd01ca4f",
  "bytecode": "0x608060405234801561001057600080fd5b50614f11806100206000396000f3fe608060405234801561001057600080fd5b50600436106102e95760003560e01c8063815bfd2911610191578063d043c565116100e3578063dc3b7c8b11610097578063f46901ed11610071578063f46901ed146105b6578063f57e84d5146105c9578063f8b49e72146105dc57600080fd5b8063dc3b7c8b1461057d578063e4a3011614610590578063f2fde38b146105a357600080fd5b8063d30ffeda116100c8578063d30ffeda14610544578063d477f05f14610557578063da4899971461056a57600080fd5b8063d043c56514610528578063d0dd0e561461053b57600080fd5b806391cca3db116101455780639abacb411161011f5780639abacb41146104ed5780639e4416b714610500578063aa6ca8081461051357600080fd5b806391cca3db146104b457806393aeea02146104c75780639908fc8b146104da57600080fd5b80638a2dfe09116101765780638a2dfe09146104885780638da5cb5b14610490578063907448ed146104a157600080fd5b8063815bfd29146104775780638456cb591461048057600080fd5b80633f4ba83a1161024a5780635cfe092e116101fe5780636a146024116101d85780636a1460241461035d578063715018a61461045c57806371f962111461046457600080fd5b80635cfe092e1461043757806361858e23146104405780636922d5ca1461045357600080fd5b80634fdd64e51161022f5780634fdd64e5146103e657806352f7c9881461040e5780635c975abb1461042157600080fd5b80633f4ba83a146103cb5780634a5e42b1146103d357600080fd5b806309a5fca3116102a15780631e95ff38116102865780631e95ff38146103925780633753b14a146103a55780633bd61ba8146103b857600080fd5b806309a5fca31461036c5780630f91f06f1461037f57600080fd5b80630705999d116102d25780630705999d14610335578063070f81d91461034a57806308bdd2651461035d57600080fd5b8063017b8292146102ee578063017e7e581461030a575b600080fd5b6102f760ca5481565b6040519081526020015b60405180910390f35b60d05461031d906001600160a01b031681565b6040516001600160a01b039091168152602001610301565b6103486103433660046147fa565b6105ef565b005b6103486103583660046148e3565b610667565b6102f7670de0b6b3a764000081565b6102f761037a3660046149a4565b61089f565b6102f761038d366004614884565b610ac8565b6102f76103a0366004614949565b610d21565b6103486103b33660046147fa565b611119565b60d15461031d906001600160a01b031681565b61034861118a565b6103486103e13660046147fa565b6111f9565b6103f96103f4366004614848565b6113c7565b60408051928352602083019190915201610301565b61034861041c366004614a6a565b611592565b60975460ff166040519015158152602001610301565b6102f760ce5481565b6103f961044e3660046148e3565b61161c565b6102f760cc5481565b6103486116be565b61031d6104723660046147fa565b611712565b6102f760cd5481565b610348611723565b6103f961178b565b6033546001600160a01b031661031d565b6103f96104af3660046148e3565b6117b4565b60cf5461031d906001600160a01b031681565b6103486104d536600461490d565b611827565b6103f96104e8366004614884565b611a99565b6103486104fb3660046147fa565b611d9e565b61034861050e366004614a38565b611e07565b61051b611e7d565b6040516103019190614acb565b610348610536366004614a38565b611ee2565b6102f760cb5481565b6102f76105523660046147fa565b611f2f565b6103486105653660046147fa565b6120a5565b610348610578366004614815565b612118565b6102f761058b3660046147fa565b6122c2565b61034861059e366004614a6a565b612449565b6103486105b13660046147fa565b61253e565b6103486105c43660046147fa565b61260e565b6103486105d7366004614a38565b61269f565b6103486105ea3660046147fa565b612715565b6033546001600160a01b0316331461063c5760405162461bcd60e51b81526020600482018190526024820152600080516020614ebc83398151915260448201526064015b60405180910390fd5b61064581612726565b60d180546001600160a01b0319166001600160a01b0392909216919091179055565b61066f612766565b600061067a836127aa565b9050600060d26000836001600160a01b03166001600160a01b0316815260200190815260200160002054826001600160a01b031663961be3916040518163ffffffff1660e01b815260040160206040518083038186803b1580156106dd57600080fd5b505afa1580156106f1573d6000803e3d6000fd5b505050506040513d601f19601f820116820180604052508101906107159190614a0f565b6001600160781b0316610809846001600160a01b0316637284168a6040518163ffffffff1660e01b815260040160206040518083038186803b15801561075a57600080fd5b505afa15801561076e573d6000803e3d6000fd5b505050506040513d601f19601f820116820180604052508101906107929190614a8c565b856001600160a01b03166399c91a646040518163ffffffff1660e01b815260040160206040518083038186803b1580156107cb57600080fd5b505afa1580156107df573d6000803e3d6000fd5b505050506040513d601f19601f820116820180604052508101906108039190614a51565b90612803565b6108139190614db7565b61081d9190614db7565b905080831115610840576040516312b019e160e01b815260040160405180910390fd5b60405162b64f3d60e51b8152600481018490526001600160a01b038316906316c9e7a090602401600060405180830381600087803b15801561088157600080fd5b505af1158015610895573d6000803e3d6000fd5b5050505050505050565b6000600260655414156108f45760405162461bcd60e51b815260206004820152601f60248201527f5265656e7472616e637947756172643a207265656e7472616e742063616c6c006044820152606401610633565b600260655560975460ff161561093f5760405162461bcd60e51b815260206004820152601060248201526f14185d5cd8589b194e881c185d5cd95960821b6044820152606401610633565b6109488561286b565b61095183612726565b61095a826128a2565b6000610965876127aa565b905061097c6001600160a01b0382163383896128dc565b610a01816001600160a01b0316637284168a6040518163ffffffff1660e01b815260040160206040518083038186803b1580156109b857600080fd5b505afa1580156109cc573d6000803e3d6000fd5b505050506040513d601f19601f820116820180604052508101906109f09190614a8c565b6109fb83898961296a565b90612afa565b604051639e79eaa560e01b81526001600160a01b0386811660048301526024820183905291935090821690639e79eaa590604401600060405180830381600087803b158015610a4f57600080fd5b505af1158015610a63573d6000803e3d6000fd5b5050604080516001600160a01b038b81168252602082018790529181018a905290871692503391507ffb80d861da582b723be2d19507ce3e03851820c464abea89156ec77e089b1ad9906060015b60405180910390a350600160655595945050505050565b600060026065541415610b1d5760405162461bcd60e51b815260206004820152601f60248201527f5265656e7472616e637947756172643a207265656e7472616e742063616c6c006044820152606401610633565b600260655560975460ff1615610b685760405162461bcd60e51b815260206004820152601060248201526f14185d5cd8589b194e881c185d5cd95960821b6044820152606401610633565b610b7183612726565b610b7a8561286b565b610b83826128a2565b610b8c87612b2a565b6000610b97886127aa565b90506000610ba4886127aa565b9050610bbb6001600160a01b03831633848a6128dc565b6000610bc98389600061296a565b9050610bd88383838a8a612b7d565b5080945050610c58826001600160a01b0316637284168a6040518163ffffffff1660e01b815260040160206040518083038186803b158015610c1957600080fd5b505afa158015610c2d573d6000803e3d6000fd5b505050506040513d601f19601f82011682018060405250810190610c519190614a8c565b8590612afa565b604051639e79eaa560e01b81526001600160a01b0388811660048301526024820183905291955090831690639e79eaa590604401600060405180830381600087803b158015610ca657600080fd5b505af1158015610cba573d6000803e3d6000fd5b5050604080516001600160a01b038d81168252602082018990529181018c905290891692503391507ffb80d861da582b723be2d19507ce3e03851820c464abea89156ec77e089b1ad99060600160405180910390a350506001606555509695505050505050565b600060026065541415610d765760405162461bcd60e51b815260206004820152601f60248201527f5265656e7472616e637947756172643a207265656e7472616e742063616c6c006044820152606401610633565b600260655560975460ff1615610dc15760405162461bcd60e51b815260206004820152601060248201526f14185d5cd8589b194e881c185d5cd95960821b6044820152606401610633565b84610ddf5760405163b483c10f60e01b815260040160405180910390fd5b610de884612726565b610df1836128a2565b610dfa86612b2a565b6000610e05876127aa565b9050610e1c6001600160a01b0388163383896128dc565b82610ead57610ea681610ea0836001600160a01b0316637284168a6040518163ffffffff1660e01b815260040160206040518083038186803b158015610e6157600080fd5b505afa158015610e75573d6000803e3d6000fd5b505050506040513d601f19601f82011682018060405250810190610e999190614a8c565b8990612803565b87612c95565b91506110cb565b60d154610ec2906001600160a01b0316612726565b610f0881610f02836001600160a01b0316637284168a6040518163ffffffff1660e01b815260040160206040518083038186803b158015610e6157600080fd5b30612c95565b60d1546040517f095ea7b30000000000000000000000000000000000000000000000000000000081526001600160a01b0391821660048201526024810183905291935082169063095ea7b390604401602060405180830381600087803b158015610f7157600080fd5b505af1158015610f85573d6000803e3d6000fd5b505050506040513d601f19601f82011682018060405250810190610fa991906149f2565b5060d1546040517faf929a800000000000000000000000000000000000000000000000000000000081526001600160a01b038381166004830152600092169063af929a809060240160206040518083038186803b15801561100957600080fd5b505afa15801561101d573d6000803e3d6000fd5b505050506040513d601f19601f820116820180604052508101906110419190614a51565b60d1546040517f90210d7e00000000000000000000000000000000000000000000000000000000815260048101839052602481018690526001600160a01b0389811660448301529293509116906390210d7e90606401600060405180830381600087803b1580156110b157600080fd5b505af11580156110c5573d6000803e3d6000fd5b50505050505b604080516001600160a01b038981168252602082018990529181018490529086169033907ff5dd9317b9e63ac316ce44acc85f670b54b339cfa3e9076e1dd55065b922314b90606001610ab1565b6002606554141561116c5760405162461bcd60e51b815260206004820152601f60248201527f5265656e7472616e637947756172643a207265656e7472616e742063616c6c006044820152606401610633565b6002606555611179612766565b61118281612dbc565b506001606555565b600260655414156111dd5760405162461bcd60e51b815260206004820152601f60248201527f5265656e7472616e637947756172643a207265656e7472616e742063616c6c006044820152606401610633565b60026065556111ea612766565b6111f2612e25565b6001606555565b6033546001600160a01b031633146112415760405162461bcd60e51b81526020600482018190526024820152600080516020614ebc8339815191526044820152606401610633565b6001600160a01b03808216600090815260d460205260409020541661127957604051633b2c013560e21b815260040160405180910390fd5b6001600160a01b03818116600090815260d46020908152604080832080546001600160a01b0319811690915560d590925282205460d354919093169291906112c390600190614db7565b9050600060d360000182815481106112dd576112dd614e97565b60009182526020808320909101546001600160a01b0390811680845260d59092526040808420879055908816835282209190915560d3805491925082918590811061132a5761132a614e97565b600091825260209091200180546001600160a01b0319166001600160a01b039290921691909117905560d380548061136457611364614e81565b600082815260208120820160001990810180546001600160a01b03191690559091019091556040516001600160a01b0386811692908816917f0fa1e4606af435f32f05b3804033d2933e691fab32ee74d2db6fa82d2741f1ea9190a35050505050565b6000806113d48585612ec1565b826113f25760405163b483c10f60e01b815260040160405180910390fd5b60006113fd866127aa565b9050600061140a866127aa565b9050600085121561143d57600061142d60cb548761142790614e38565b90612f11565b90506114398187614d78565b9550505b6114b8826001600160a01b0316637284168a6040518163ffffffff1660e01b815260040160206040518083038186803b15801561147957600080fd5b505afa15801561148d573d6000803e3d6000fd5b505050506040513d601f19601f820116820180604052508101906114b19190614a8c565b8690612f45565b94506114c5828287612f9f565b8094508195505050611509816001600160a01b0316637284168a6040518163ffffffff1660e01b815260040160206040518083038186803b158015610c1957600080fd5b9350611586816001600160a01b0316637284168a6040518163ffffffff1660e01b815260040160206040518083038186803b15801561154757600080fd5b505afa15801561155b573d6000803e3d6000fd5b505050506040513d601f19601f8201168201806040525081019061157f9190614a8c565b8490612afa565b92505050935093915050565b6033546001600160a01b031633146115da5760405162461bcd60e51b81526020600482018190526024820152600080516020614ebc8339815191526044820152606401610633565b670de0b6b3a76400006115ed8383614b8a565b111561160c576040516312b019e160e01b815260040160405180910390fd5b611614613210565b60cc5560cd55565b600080600061162a856127aa565b90506116b0816116ab836001600160a01b0316637284168a6040518163ffffffff1660e01b815260040160206040518083038186803b15801561166c57600080fd5b505afa158015611680573d6000803e3d6000fd5b505050506040513d601f19601f820116820180604052508101906116a49190614a8c565b8790612803565b613267565b919791965090945050505050565b6033546001600160a01b031633146117065760405162461bcd60e51b81526020600482018190526024820152600080516020614ebc8339815191526044820152606401610633565b61171060006134ad565b565b600061171d826127aa565b92915050565b600260655414156117765760405162461bcd60e51b815260206004820152601f60248201527f5265656e7472616e637947756172643a207265656e7472616e742063616c6c006044820152606401610633565b6002606555611783612766565b6111f26134ff565b600080600061179861357a565b80925081935050506117ad828260ca54613708565b9250509091565b6000806117c08361286b565b60006117cb856127aa565b90506117d78185613733565b9050809350819450505061181d816001600160a01b0316637284168a6040518163ffffffff1660e01b815260040160206040518083038186803b15801561154757600080fd5b9250509250929050565b6033546001600160a01b0316331461186f5760405162461bcd60e51b81526020600482018190526024820152600080516020614ebc8339815191526044820152606401610633565b600061187a846127aa565b9050600060d26000836001600160a01b03166001600160a01b0316815260200190815260200160002054826001600160a01b031663961be3916040518163ffffffff1660e01b815260040160206040518083038186803b1580156118dd57600080fd5b505afa1580156118f1573d6000803e3d6000fd5b505050506040513d601f19601f820116820180604052508101906119159190614a0f565b6001600160781b031661195a846001600160a01b0316637284168a6040518163ffffffff1660e01b815260040160206040518083038186803b15801561075a57600080fd5b6119649190614db7565b61196e9190614db7565b905080841115611991576040516312b019e160e01b815260040160405180910390fd5b816001600160a01b0316639e79eaa584611a1c856001600160a01b0316637284168a6040518163ffffffff1660e01b815260040160206040518083038186803b1580156119dd57600080fd5b505afa1580156119f1573d6000803e3d6000fd5b505050506040513d601f19601f82011682018060405250810190611a159190614a8c565b8890612afa565b6040517fffffffff0000000000000000000000000000000000000000000000000000000060e085901b1681526001600160a01b0390921660048301526024820152604401600060405180830381600087803b158015611a7a57600080fd5b505af1158015611a8e573d6000803e3d6000fd5b505050505050505050565b60008060026065541415611aef5760405162461bcd60e51b815260206004820152601f60248201527f5265656e7472616e637947756172643a207265656e7472616e742063616c6c006044820152606401610633565b600260655560975460ff1615611b3a5760405162461bcd60e51b815260206004820152601060248201526f14185d5cd8589b194e881c185d5cd95960821b6044820152606401610633565b611b448888612ec1565b85611b625760405163b483c10f60e01b815260040160405180910390fd5b611b6b84612726565b611b74836128a2565b611b7d88612b2a565b6000611b88896127aa565b90506000611b95896127aa565b90506000816001600160a01b0316637284168a6040518163ffffffff1660e01b815260040160206040518083038186803b158015611bd257600080fd5b505afa158015611be6573d6000803e3d6000fd5b505050506040513d601f19601f82011682018060405250810190611c0a9190614a8c565b9050611c9c8383611c8c866001600160a01b0316637284168a6040518163ffffffff1660e01b815260040160206040518083038186803b158015611c4d57600080fd5b505afa158015611c61573d6000803e3d6000fd5b505050506040513d601f19601f82011682018060405250810190611c859190614a8c565b8d90612803565b611c968c86612803565b8b612b7d565b9095509350611cab8582612afa565b9450611cb78482612afa565b9350611cce6001600160a01b038c1633858c6128dc565b604051639e79eaa560e01b81526001600160a01b03888116600483015260248201879052831690639e79eaa590604401600060405180830381600087803b158015611d1857600080fd5b505af1158015611d2c573d6000803e3d6000fd5b5050604080516001600160a01b038f811682528e811660208301529181018d905260608101899052908a1692503391507f54787c404bb33c88e86f4baf88183a3b0141d0a848e6a9f7a13b66ae3a9b73d19060800160405180910390a350506001606555509097909650945050505050565b60026065541415611df15760405162461bcd60e51b815260206004820152601f60248201527f5265656e7472616e637947756172643a207265656e7472616e742063616c6c006044820152606401610633565b6002606555611dfe612766565b61118281613973565b6033546001600160a01b03163314611e4f5760405162461bcd60e51b81526020600482018190526024820152600080516020614ebc8339815191526044820152606401610633565b670de0b6b3a7640000811115611e78576040516312b019e160e01b815260040160405180910390fd5b60ca55565b606060d3600001805480602002602001604051908101604052809291908181526020018280548015611ed857602002820191906000526020600020905b81546001600160a01b03168152600190910190602001808311611eba575b5050505050905090565b6033546001600160a01b03163314611f2a5760405162461bcd60e51b81526020600482018190526024820152600080516020614ebc8339815191526044820152606401610633565b60ce55565b600080611f3b836127aa565b905060d26000826001600160a01b03166001600160a01b0316815260200190815260200160002054816001600160a01b031663961be3916040518163ffffffff1660e01b815260040160206040518083038186803b158015611f9c57600080fd5b505afa158015611fb0573d6000803e3d6000fd5b505050506040513d601f19601f82011682018060405250810190611fd49190614a0f565b6001600160781b031661208a836001600160a01b0316637284168a6040518163ffffffff1660e01b815260040160206040518083038186803b15801561201957600080fd5b505afa15801561202d573d6000803e3d6000fd5b505050506040513d601f19601f820116820180604052508101906120519190614a8c565b846001600160a01b03166399c91a646040518163ffffffff1660e01b815260040160206040518083038186803b1580156107cb57600080fd5b6120949190614db7565b61209e9190614db7565b9392505050565b6033546001600160a01b031633146120ed5760405162461bcd60e51b81526020600482018190526024820152600080516020614ebc8339815191526044820152606401610633565b6120f681612726565b60cf80546001600160a01b0319166001600160a01b0392909216919091179055565b6033546001600160a01b031633146121605760405162461bcd60e51b81526020600482018190526024820152600080516020614ebc8339815191526044820152606401610633565b600260655414156121b35760405162461bcd60e51b815260206004820152601f60248201527f5265656e7472616e637947756172643a207265656e7472616e742063616c6c006044820152606401610633565b60026065556121c181612726565b6121ca82612726565b6001600160a01b03808316600090815260d46020526040902054161561221c576040517f8991c4c400000000000000000000000000000000000000000000000000000000815260040160405180910390fd5b6001600160a01b03808316600081815260d46020908152604080832080549587166001600160a01b0319968716811790915560d3805460d590945282852084905560018401815584527f915c3eb987b20e1af620c1403197bf687fb7f18513b3a73fde6e78c7072c41a69092018054909516841790945592517f0bb5715f0f217c2fe9a0c877ea87d474380c641102f3440ee2a4c8b9d97909189190a350506001606555565b6000806122ce836127aa565b9050806001600160a01b03166318160ddd6040518163ffffffff1660e01b815260040160206040518083038186803b15801561230957600080fd5b505afa15801561231d573d6000803e3d6000fd5b505050506040513d601f19601f820116820180604052508101906123419190614a51565b6123555750670de0b6b3a764000092915050565b61209e816001600160a01b03166318160ddd6040518163ffffffff1660e01b815260040160206040518083038186803b15801561239157600080fd5b505afa1580156123a5573d6000803e3d6000fd5b505050506040513d601f19601f820116820180604052508101906123c99190614a51565b826001600160a01b031663705727b56040518163ffffffff1660e01b815260040160206040518083038186803b15801561240257600080fd5b505afa158015612416573d6000803e3d6000fd5b505050506040513d601f19601f8201168201806040525081019061243a9190614a0f565b6001600160781b0316906139d2565b600054610100900460ff1680612462575060005460ff16155b6124c55760405162461bcd60e51b815260206004820152602e60248201527f496e697469616c697a61626c653a20636f6e747261637420697320616c72656160448201526d191e481a5b9a5d1a585b1a5e995960921b6064820152608401610633565b600054610100900460ff161580156124e7576000805461ffff19166101011790555b6124ef6139f2565b6124f7613ab4565b6124ff613b6b565b60ca83905560cb829055670de0b6b3a764000060cd5560cf80546001600160a01b031916331790558015612539576000805461ff00191690555b505050565b6033546001600160a01b031633146125865760405162461bcd60e51b81526020600482018190526024820152600080516020614ebc8339815191526044820152606401610633565b6001600160a01b0381166126025760405162461bcd60e51b815260206004820152602660248201527f4f776e61626c653a206e6577206f776e657220697320746865207a65726f206160448201527f64647265737300000000000000000000000000000000000000000000000000006064820152608401610633565b61260b816134ad565b50565b6033546001600160a01b031633146126565760405162461bcd60e51b81526020600482018190526024820152600080516020614ebc8339815191526044820152606401610633565b6001600160a01b03811661267d576040516312b019e160e01b815260040160405180910390fd5b60d080546001600160a01b0319166001600160a01b0392909216919091179055565b6033546001600160a01b031633146126e75760405162461bcd60e51b81526020600482018190526024820152600080516020614ebc8339815191526044820152606401610633565b670de0b6b3a7640000811115612710576040516312b019e160e01b815260040160405180910390fd5b60cb55565b61260b612721826127aa565b613c27565b6001600160a01b03811661260b576040517f0bd3e3ed00000000000000000000000000000000000000000000000000000000815260040160405180910390fd5b60cf546001600160a01b03163314611710576040517f5bf78ef400000000000000000000000000000000000000000000000000000000815260040160405180910390fd5b6001600160a01b03808216600090815260d460205260408120549091166127e457604051633b2c013560e21b815260040160405180910390fd5b506001600160a01b03908116600090815260d460205260409020541690565b600060128260ff1610156128385761281c826012614dce565b61282790600a614c27565b6128319084614d59565b905061171d565b60128260ff1611156128645761284f601283614dce565b61285a90600a614c27565b6128319084614bd0565b5090919050565b8061260b576040517f3f3835e700000000000000000000000000000000000000000000000000000000815260040160405180910390fd5b4281101561260b576040517f549b633500000000000000000000000000000000000000000000000000000000815260040160405180910390fd5b604080516001600160a01b0385811660248301528416604482015260648082018490528251808303909101815260849091019091526020810180517bffffffffffffffffffffffffffffffffffffffffffffffffffffffff167f23b872dd00000000000000000000000000000000000000000000000000000000179052612964908590613e61565b50505050565b600061297584613c27565b60006129818585613733565b5090925090506129918383613f46565b6040517f9dc29fac0000000000000000000000000000000000000000000000000000000081526001600160a01b038616600482018190526024820186905290639dc29fac90604401600060405180830381600087803b1580156129f357600080fd5b505af1158015612a07573d6000803e3d6000fd5b50506040517f9f9ef988000000000000000000000000000000000000000000000000000000008152600481018590526001600160a01b0388169250639f9ef9889150602401600060405180830381600087803b158015612a6657600080fd5b505af1158015612a7a573d6000803e3d6000fd5b50506040517fd8b87853000000000000000000000000000000000000000000000000000000008152600481018490526001600160a01b038816925063d8b8785391506024015b600060405180830381600087803b158015612ada57600080fd5b505af1158015612aee573d6000803e3d6000fd5b50505050509392505050565b600060128260ff161015612b135761284f826012614dce565b60128260ff1611156128645761281c601283614dce565b6001600160a01b038116600090815260c9602052604090205460ff161561260b576040517f8654830a00000000000000000000000000000000000000000000000000000000815260040160405180910390fd5b600080612b8b878787612f9f565b9092509050612b9a8483613f46565b6001600160a01b038616600090815260d2602052604081208054839290612bc2908490614b8a565b909155505060405162b64f3d60e51b8152600481018690526001600160a01b038816906316c9e7a090602401600060405180830381600087803b158015612c0857600080fd5b505af1158015612c1c573d6000803e3d6000fd5b50505050856001600160a01b0316639f9ef9888284612c3b9190614b8a565b6040518263ffffffff1660e01b8152600401612c5991815260200190565b600060405180830381600087803b158015612c7357600080fd5b505af1158015612c87573d6000803e3d6000fd5b505050509550959350505050565b6000612ca084613c27565b6000612cac8585613267565b509092509050612cbb8261286b565b60405162b64f3d60e51b8152600481018590526001600160a01b038616906316c9e7a090602401600060405180830381600087803b158015612cfc57600080fd5b505af1158015612d10573d6000803e3d6000fd5b505060405163283c3d8160e21b8152600481018490526001600160a01b038816925063a0f0f6049150602401600060405180830381600087803b158015612d5657600080fd5b505af1158015612d6a573d6000803e3d6000fd5b50506040517f40c10f190000000000000000000000000000000000000000000000000000000081526001600160a01b03868116600483015260248201869052881692506340c10f199150604401612ac0565b612dc581612b2a565b6001600160a01b038116600081815260c96020908152604091829020805460ff19166001179055815192835233908301527fdcb65c0553aaa433aadd180404ff195259c48f78aa50f877ebcb4bb215129a4e91015b60405180910390a150565b60975460ff16612e775760405162461bcd60e51b815260206004820152601460248201527f5061757361626c653a206e6f74207061757365640000000000000000000000006044820152606401610633565b6097805460ff191690557f5db9ee0a495bf2e6ff9c91a7834c1ba4fdd244a5e8aa4e537bd38aeae4b073aa335b6040516001600160a01b03909116815260200160405180910390a1565b806001600160a01b0316826001600160a01b03161415612f0d576040517feeb7911f00000000000000000000000000000000000000000000000000000000815260040160405180910390fd5b5050565b6000670de0b6b3a7640000612f27600282614bd0565b612f318486614d59565b612f3b9190614b8a565b61209e9190614bd0565b600060128260ff161015612f7357612f5e826012614dce565b612f6990600a614c27565b6128319084614cd2565b60128260ff16111561286457612f8a601283614dce565b612f9590600a614c27565b6128319084614ba2565b600080600080856001600160a01b031663961be3916040518163ffffffff1660e01b815260040160206040518083038186803b158015612fde57600080fd5b505afa158015612ff2573d6000803e3d6000fd5b505050506040513d601f19601f820116820180604052508101906130169190614a0f565b6001600160781b0316905061319c876001600160a01b031663961be3916040518163ffffffff1660e01b815260040160206040518083038186803b15801561305d57600080fd5b505afa158015613071573d6000803e3d6000fd5b505050506040513d601f19601f820116820180604052508101906130959190614a0f565b6001600160781b031682896001600160a01b031663705727b56040518163ffffffff1660e01b815260040160206040518083038186803b1580156130d857600080fd5b505afa1580156130ec573d6000803e3d6000fd5b505050506040513d601f19601f820116820180604052508101906131109190614a0f565b6001600160781b0316896001600160a01b031663705727b56040518163ffffffff1660e01b815260040160206040518083038186803b15801561315257600080fd5b505afa158015613166573d6000803e3d6000fd5b505050506040513d601f19601f8201168201806040525081019061318a9190614a0f565b6001600160781b03168960ca54613f80565b9150818110156131d8576040517f9a6114b700000000000000000000000000000000000000000000000000000000815260040160405180910390fd5b60cb546131e6908390612f11565b92506000851315613202576131fb8383614db7565b9350613206565b8193505b5050935093915050565b60005b60d35481101561260b57600061324961322b836140ad565b6001600160a01b03908116600090815260d460205260409020541690565b905061325481613c27565b508061325f81614e1d565b915050613213565b600080600061337461336f85876001600160a01b031663961be3916040518163ffffffff1660e01b815260040160206040518083038186803b1580156132ac57600080fd5b505afa1580156132c0573d6000803e3d6000fd5b505050506040513d601f19601f820116820180604052508101906132e49190614a0f565b6001600160781b0316886001600160a01b031663705727b56040518163ffffffff1660e01b815260040160206040518083038186803b15801561332657600080fd5b505afa15801561333a573d6000803e3d6000fd5b505050506040513d601f19601f8201168201806040525081019061335e9190614a0f565b6001600160781b031660ca546140e0565b614237565b915083821061338e576133878483614db7565b9050613392565b8391505b6000856001600160a01b031663705727b56040518163ffffffff1660e01b815260040160206040518083038186803b1580156133cd57600080fd5b505afa1580156133e1573d6000803e3d6000fd5b505050506040513d601f19601f820116820180604052508101906134059190614a0f565b6001600160781b0316905080156134a15780866001600160a01b03166318160ddd6040518163ffffffff1660e01b815260040160206040518083038186803b15801561345057600080fd5b505afa158015613464573d6000803e3d6000fd5b505050506040513d601f19601f820116820180604052508101906134889190614a51565b6134929085614d59565b61349c9190614bd0565b6134a3565b825b9350509250925092565b603380546001600160a01b038381166001600160a01b0319831681179093556040519116919082907f8be0079c531659141344cd1fd0a4f28419497f9722a3daafe3b4186f6b6457e090600090a35050565b60975460ff16156135455760405162461bcd60e51b815260206004820152601060248201526f14185d5cd8589b194e881c185d5cd95960821b6044820152606401610633565b6097805460ff191660011790557f62e78cea01bee320cd4e420270b5ea74000d11b0c9f74754ebdbfc544b05a258612ea43390565b60ca546000908190815b60d35481101561370257600061359c61322b836140ad565b90506000816001600160a01b031663961be3916040518163ffffffff1660e01b815260040160206040518083038186803b1580156135d957600080fd5b505afa1580156135ed573d6000803e3d6000fd5b505050506040513d601f19601f820116820180604052508101906136119190614a0f565b6001600160781b031690506000826001600160a01b031663705727b56040518163ffffffff1660e01b815260040160206040518083038186803b15801561365757600080fd5b505afa15801561366b573d6000803e3d6000fd5b505050506040513d601f19601f8201168201806040525081019061368f9190614a0f565b6001600160781b03169050806136a7575050506136f0565b60006136b383836139d2565b90506136bf8288614b8a565b96506136df6136ce87836139d2565b6136d89083614db7565b8390612f11565b6136e99089614b8a565b9750505050505b806136fa81614e1d565b915050613584565b50509091565b600080613715858561428d565b61371e90614e38565b905061372a81846142c1565b95945050505050565b6000806000846001600160a01b03166318160ddd6040518163ffffffff1660e01b815260040160206040518083038186803b15801561377157600080fd5b505afa158015613785573d6000803e3d6000fd5b505050506040513d601f19601f820116820180604052508101906137a99190614a51565b84866001600160a01b031663705727b56040518163ffffffff1660e01b815260040160206040518083038186803b1580156137e357600080fd5b505afa1580156137f7573d6000803e3d6000fd5b505050506040513d601f19601f8201168201806040525081019061381b9190614a0f565b6001600160781b031661382e9190614d59565b6138389190614bd0565b91506138438261286b565b61394e61336f61385284614e38565b876001600160a01b031663961be3916040518163ffffffff1660e01b815260040160206040518083038186803b15801561388b57600080fd5b505afa15801561389f573d6000803e3d6000fd5b505050506040513d601f19601f820116820180604052508101906138c39190614a0f565b6001600160781b0316886001600160a01b031663705727b56040518163ffffffff1660e01b815260040160206040518083038186803b15801561390557600080fd5b505afa158015613919573d6000803e3d6000fd5b505050506040513d601f19601f8201168201806040525081019061393d9190614a0f565b6001600160781b031660ca5461430b565b9250828210613968576139618383614db7565b905061396c565b8192505b9250925092565b61397c816143c9565b6001600160a01b038116600081815260c96020908152604091829020805460ff19169055815192835233908301527fdb198487a4c70aa000c3b1020f52688b4b86d3ebcedc84a793e03ed3b480902c9101612e1a565b6000816139e0600282614bd0565b612f31670de0b6b3a764000086614d59565b600054610100900460ff1680613a0b575060005460ff16155b613a6e5760405162461bcd60e51b815260206004820152602e60248201527f496e697469616c697a61626c653a20636f6e747261637420697320616c72656160448201526d191e481a5b9a5d1a585b1a5e995960921b6064820152608401610633565b600054610100900460ff16158015613a90576000805461ffff19166101011790555b613a9861441b565b613aa06144cc565b801561260b576000805461ff001916905550565b600054610100900460ff1680613acd575060005460ff16155b613b305760405162461bcd60e51b815260206004820152602e60248201527f496e697469616c697a61626c653a20636f6e747261637420697320616c72656160448201526d191e481a5b9a5d1a585b1a5e995960921b6064820152608401610633565b600054610100900460ff16158015613b52576000805461ffff19166101011790555b6001606555801561260b576000805461ff001916905550565b600054610100900460ff1680613b84575060005460ff16155b613be75760405162461bcd60e51b815260206004820152602e60248201527f496e697469616c697a61626c653a20636f6e747261637420697320616c72656160448201526d191e481a5b9a5d1a585b1a5e995960921b6064820152608401610633565b600054610100900460ff16158015613c09576000805461ffff19166101011790555b6097805460ff19169055801561260b576000805461ff001916905550565b6001600160a01b038116600090815260d26020526040902054801580613c4e575060ce5481105b15613c57575050565b6000613c7f60cc5460cd54670de0b6b3a7640000613c759190614db7565b6136d89190614db7565b90508015613d5f57826001600160a01b0316639e79eaa560d060009054906101000a90046001600160a01b0316613ce8866001600160a01b0316637284168a6040518163ffffffff1660e01b815260040160206040518083038186803b158015610c1957600080fd5b6040517fffffffff0000000000000000000000000000000000000000000000000000000060e085901b1681526001600160a01b0390921660048301526024820152604401600060405180830381600087803b158015613d4657600080fd5b505af1158015613d5a573d6000803e3d6000fd5b505050505b506000613d7760cd5483612f1190919063ffffffff16565b90508015613e45576000613d8b8483613267565b5060405163283c3d8160e21b8152600481018290529092506001600160a01b038616915063a0f0f60490602401600060405180830381600087803b158015613dd257600080fd5b505af1158015613de6573d6000803e3d6000fd5b505060405162b64f3d60e51b8152600481018590526001600160a01b03871692506316c9e7a09150602401600060405180830381600087803b158015613e2b57600080fd5b505af1158015613e3f573d6000803e3d6000fd5b50505050505b50506001600160a01b0316600090815260d26020526040812055565b6000613eb6826040518060400160405280602081526020017f5361666545524332303a206c6f772d6c6576656c2063616c6c206661696c6564815250856001600160a01b03166145739092919063ffffffff16565b8051909150156125395780806020019051810190613ed491906149f2565b6125395760405162461bcd60e51b815260206004820152602a60248201527f5361666545524332303a204552433230206f7065726174696f6e20646964206e60448201527f6f742073756363656564000000000000000000000000000000000000000000006064820152608401610633565b80821115612f0d576040517ff512a72000000000000000000000000000000000000000000000000000000000815260040160405180910390fd5b6000841580613f8d575083155b15613fab57604051630570193360e51b815260040160405180910390fd5b6000613feb87613fbb8780614cd2565b613fc59190614ba2565b89613fd08980614cd2565b613fda9190614ba2565b613fe49190614b4b565b8490614582565b613ff5888a614b4b565b613fff9190614d78565b9050600061401787614011878c614b4b565b9061428d565b90506000614025838861428d565b87614030878561428d565b61403a9085614d78565b614044908b614cd2565b61404e9190614ba2565b6140589190614d78565b9050600061406682876142c1565b905060008a6140758a84614582565b61407f9190614d78565b9050600081121561409a5761409381614e38565b955061409e565b8095505b50505050509695505050505050565b600060d360000182815481106140c5576140c5614e97565b6000918252602090912001546001600160a01b031692915050565b6000826140ee57508361422f565b60006140fa8686614b4b565b121561411957604051630570193360e51b815260040160405180910390fd5b6000614125858561428d565b905060006141338688614b4b565b905060006141418587614582565b61414c906002614cd2565b614161613fe487670de0b6b3a7640000614d78565b61416b9190614b4b565b905060006141838761417d8882614582565b90614582565b61418d8480614582565b6141b68661419b8b8b614cd2565b6141a59190614ba2565b6141af908c614d78565b8690614582565b6141c09190614d78565b6141ca9190614b4b565b90506000816141da886004614cd2565b6141e49190614cd2565b6141ee8480614cd2565b6141f89190614d78565b9050600261421d8861420a84876145a2565b61421387614e38565b6140119190614b4b565b6142279190614ba2565b955050505050505b949350505050565b6000808212156142895760405162461bcd60e51b815260206004820152601660248201527f76616c7565206d75737420626520706f736974697665000000000000000000006044820152606401610633565b5090565b60008161429b600282614ba2565b6142ad670de0b6b3a764000086614cd2565b6142b79190614b4b565b61209e9190614ba2565b6000600283614301670de0b6b3a76400006142dd866004614cd2565b6142e79190614cd2565b6142f18780614cd2565b6142fb9190614b4b565b866145a2565b6142b79190614d78565b6000806143188685614b4b565b90506000614326868661428d565b90506000614348614337868461428d565b6143419084614d78565b8790614582565b90506000600261436a61436388670de0b6b3a7640000614d78565b8b90614582565b6143749084614b4b565b61437e9190614ba2565b905060006143b36143996143928780614cd2565b8990614582565b6143a38480614cd2565b6143ad9190614b4b565b836145a2565b6143bd9083614b4b565b9050614227818a614d78565b6001600160a01b038116600090815260c9602052604090205460ff1661260b576040517f855b737300000000000000000000000000000000000000000000000000000000815260040160405180910390fd5b600054610100900460ff1680614434575060005460ff16155b6144975760405162461bcd60e51b815260206004820152602e60248201527f496e697469616c697a61626c653a20636f6e747261637420697320616c72656160448201526d191e481a5b9a5d1a585b1a5e995960921b6064820152608401610633565b600054610100900460ff16158015613aa0576000805461ffff1916610101179055801561260b576000805461ff001916905550565b600054610100900460ff16806144e5575060005460ff16155b6145485760405162461bcd60e51b815260206004820152602e60248201527f496e697469616c697a61626c653a20636f6e747261637420697320616c72656160448201526d191e481a5b9a5d1a585b1a5e995960921b6064820152608401610633565b600054610100900460ff1615801561456a576000805461ffff19166101011790555b613aa0336134ad565b606061422f8484600085614666565b6000670de0b6b3a7640000614598600282614ba2565b6142ad8486614cd2565b60006003831315614657576000821380156145bd5750828213155b156145c95750806145f9565b6000821280156145e15750826145de83614e38565b13155b156145f6576145ef82614e38565b90506145f9565b50815b60006002826146088187614ba2565b6146129190614b4b565b61461c9190614ba2565b90505b818114614651579050806002816146368187614ba2565b6146409190614b4b565b61464a9190614ba2565b905061461f565b5061171d565b821561171d5750600192915050565b6060824710156146de5760405162461bcd60e51b815260206004820152602660248201527f416464726573733a20696e73756666696369656e742062616c616e636520666f60448201527f722063616c6c00000000000000000000000000000000000000000000000000006064820152608401610633565b843b61472c5760405162461bcd60e51b815260206004820152601d60248201527f416464726573733a2063616c6c20746f206e6f6e2d636f6e74726163740000006044820152606401610633565b600080866001600160a01b031685876040516147489190614aaf565b60006040518083038185875af1925050503d8060008114614785576040519150601f19603f3d011682016040523d82523d6000602084013e61478a565b606091505b509150915061479a8282866147a5565b979650505050505050565b606083156147b457508161209e565b8251156147c45782518084602001fd5b8160405162461bcd60e51b81526004016106339190614b18565b80356001600160a01b03811681146147f557600080fd5b919050565b60006020828403121561480c57600080fd5b61209e826147de565b6000806040838503121561482857600080fd5b614831836147de565b915061483f602084016147de565b90509250929050565b60008060006060848603121561485d57600080fd5b614866846147de565b9250614874602085016147de565b9150604084013590509250925092565b60008060008060008060c0878903121561489d57600080fd5b6148a6876147de565b95506148b4602088016147de565b945060408701359350606087013592506148d0608088016147de565b915060a087013590509295509295509295565b600080604083850312156148f657600080fd5b6148ff836147de565b946020939093013593505050565b60008060006060848603121561492257600080fd5b61492b846147de565b925060208401359150614940604085016147de565b90509250925092565b600080600080600060a0868803121561496157600080fd5b61496a866147de565b94506020860135935061497f604087016147de565b925060608601359150608086013561499681614ead565b809150509295509295909350565b600080600080600060a086880312156149bc57600080fd5b6149c5866147de565b945060208601359350604086013592506149e1606087016147de565b949793965091946080013592915050565b600060208284031215614a0457600080fd5b815161209e81614ead565b600060208284031215614a2157600080fd5b81516001600160781b038116811461209e57600080fd5b600060208284031215614a4a57600080fd5b5035919050565b600060208284031215614a6357600080fd5b5051919050565b60008060408385031215614a7d57600080fd5b50508035926020909101359150565b600060208284031215614a9e57600080fd5b815160ff8116811461209e57600080fd5b60008251614ac1818460208701614df1565b9190910192915050565b6020808252825182820181905260009190848201906040850190845b81811015614b0c5783516001600160a01b031683529284019291840191600101614ae7565b50909695505050505050565b6020815260008251806020840152614b37816040850160208701614df1565b601f01601f19169190910160400192915050565b6000808212826001600160ff1b0303841381151615614b6c57614b6c614e55565b82600160ff1b038412811615614b8457614b84614e55565b50500190565b60008219821115614b9d57614b9d614e55565b500190565b600082614bb157614bb1614e6b565b600160ff1b821460001984141615614bcb57614bcb614e55565b500590565b600082614bdf57614bdf614e6b565b500490565b600181815b80851115614c1f578160001904821115614c0557614c05614e55565b80851615614c1257918102915b93841c9390800290614be9565b509250929050565b600061209e60ff841683600082614c405750600161171d565b81614c4d5750600061171d565b8160018114614c635760028114614c6d57614c89565b600191505061171d565b60ff841115614c7e57614c7e614e55565b50506001821b61171d565b5060208310610133831016604e8410600b8410161715614cac575081810a61171d565b614cb68383614be4565b8060001904821115614cca57614cca614e55565b029392505050565b60006001600160ff1b03600084136000841385830485118282161615614cfa57614cfa614e55565b600160ff1b6000871286820588128184161615614d1957614d19614e55565b60008712925087820587128484161615614d3557614d35614e55565b87850587128184161615614d4b57614d4b614e55565b505050929093029392505050565b6000816000190483118215151615614d7357614d73614e55565b500290565b600080831283600160ff1b01831281151615614d9657614d96614e55565b836001600160ff1b03018313811615614db157614db1614e55565b50500390565b600082821015614dc957614dc9614e55565b500390565b600060ff821660ff841680821015614de857614de8614e55565b90039392505050565b60005b83811015614e0c578181015183820152602001614df4565b838111156129645750506000910152565b6000600019821415614e3157614e31614e55565b5060010190565b6000600160ff1b821415614e4e57614e4e614e55565b5060000390565b634e487b7160e01b600052601160045260246000fd5b634e487b7160e01b600052601260045260246000fd5b634e487b7160e01b600052603160045260246000fd5b634e487b7160e01b600052603260045260246000fd5b801515811461260b57600080fdfe4f776e61626c653a2063616c6c6572206973206e6f7420746865206f776e6572a2646970667358221220f1beef14cbd00f243d9b864f6e1403e78577ac660057370b2b2c6addbad01dee64736f6c63430008050033",
  "devdoc": {
    "details": "The main entry-point of Wombat protocol Note: All variables are 18 decimals, except from that of underlying tokens",
    "kind": "dev",
    "methods": {
      "addAsset(address,address)": {
        "params": {
          "asset": "The address of the Wombat Asset contract",
          "token": "The address of token"
        }
      },
      "assetOf(address)": {
        "details": "to be used externally",
        "params": {
          "token": "The address of ERC20 token"
        }
      },
      "deposit(address,uint256,address,uint256,bool)": {
        "details": "Asset needs to be created and added to pool before any operation",
        "params": {
          "amount": "The amount to be deposited",
          "deadline": "The deadline to be respected",
          "to": "The user accountable for deposit, receiving the Wombat assets (lp)",
          "token": "The token address to be deposited"
        },
        "returns": {
          "liquidity": "Total asset liquidity minted"
        }
      },
      "exchangeRate(address)": {
        "params": {
          "token": "The address of the token"
        },
        "returns": {
          "exchangeRate": "exchangeRate"
        }
      },
      "mintFee(address)": {
        "params": {
          "token": "The address of the token to collect fee"
        }
      },
      "owner()": {
        "details": "Returns the address of the current owner."
      },
      "pause()": {
        "details": "pause pool, restricting certain operations"
      },
      "pauseAsset(address)": {
        "details": "pause asset, restricting deposit and swap operations"
      },
      "paused()": {
        "details": "Returns true if the contract is paused, and false otherwise."
      },
      "quotePotentialDeposit(address,uint256)": {
        "details": "To be used by frontend",
        "params": {
          "amount": "The amount to deposit",
          "token": "The token to deposit by user"
        },
        "returns": {
          "liquidity": "The potential liquidity user would receive",
          "reward": "reward"
        }
      },
      "quotePotentialSwap(address,address,int256)": {
        "details": "To be used by frontend",
        "params": {
          "fromAmount": "The amount to quote",
          "fromToken": "The initial ERC20 token",
          "toToken": "The token wanted by user"
        },
        "returns": {
          "haircut": "The haircut that would be applied",
          "potentialOutcome": "The potential amount user would receive"
        }
      },
      "quotePotentialWithdraw(address,uint256)": {
        "details": "To be used by frontend",
        "params": {
          "liquidity": "The liquidity (amount of lp assets) to be withdrawn",
          "token": "The token to be withdrawn by user"
        },
        "returns": {
          "amount": "The potential amount user would receive",
          "fee": "The fee that would be applied"
        }
      },
      "removeAsset(address)": {
        "details": "Can only be called by owner",
        "params": {
          "token": "The address of token to remove"
        }
      },
      "renounceOwnership()": {
        "details": "Leaves the contract without owner. It will not be possible to call `onlyOwner` functions anymore. Can only be called by the current owner. NOTE: Renouncing ownership will leave the contract without an owner, thereby removing any functionality that is only available to the owner."
      },
      "setAmpFactor(uint256)": {
        "params": {
          "ampFactor_": "new pool's amplification factor"
        }
      },
      "setDev(address)": {
        "params": {
          "dev_": "new contract dev address"
        }
      },
      "setFeeTo(address)": {
        "params": {
          "feeTo_": "new fee beneficiary"
        }
      },
      "setHaircutRate(uint256)": {
        "params": {
          "haircutRate_": "new pool's haircutRate_"
        }
      },
      "swap(address,address,uint256,uint256,address,uint256)": {
        "params": {
          "deadline": "The deadline to be respected",
          "fromAmount": "The amount of from token inserted",
          "fromToken": "The token being inserted into Pool by user for swap",
          "minimumToAmount": "The minimum amount that will be accepted by user as result",
          "to": "The user receiving the result of swap",
          "toToken": "The token wanted by user, leaving the Pool"
        }
      },
      "transferOwnership(address)": {
        "details": "Transfers ownership of the contract to a new account (`newOwner`). Can only be called by the current owner."
      },
      "unpause()": {
        "details": "unpause pool, enabling certain operations"
      },
      "unpauseAsset(address)": {
        "details": "unpause asset, enabling deposit and swap operations"
      },
      "withdraw(address,uint256,uint256,address,uint256)": {
        "params": {
          "deadline": "The deadline to be respected",
          "liquidity": "The liquidity to be withdrawn",
          "minimumAmount": "The minimum amount that will be accepted by user",
          "to": "The user receiving the withdrawal",
          "token": "The token to be withdrawn"
        },
        "returns": {
          "amount": "The total amount withdrawn"
        }
      },
      "withdrawFromOtherAsset(address,address,uint256,uint256,address,uint256)": {
        "params": {
          "deadline": "The deadline to be respected",
          "fromToken": "The corresponding token user holds the LP (Asset) from",
          "liquidity": "The liquidity to be withdrawn (in fromToken decimal)",
          "minimumAmount": "The minimum amount that will be accepted by user",
          "to": "The user receiving the withdrawal",
          "toToken": "The token wanting to be withdrawn (needs to be well covered)"
        },
        "returns": {
          "toAmount": "The total amount withdrawn"
        }
      }
    },
    "title": "Pool",
    "version": 1
  },
  "userdoc": {
    "events": {
      "AssetAdded(address,address)": {
        "notice": "An event thats emitted when an asset is added to Pool"
      },
      "AssetRemoved(address,address)": {
        "notice": "An event thats emitted when asset is removed from Pool"
      },
      "Deposit(address,address,uint256,uint256,address)": {
        "notice": "An event thats emitted when a deposit is made to Pool"
      },
      "Swap(address,address,address,uint256,uint256,address)": {
        "notice": "An event thats emitted when a swap is made in Pool"
      },
      "Withdraw(address,address,uint256,uint256,address)": {
        "notice": "An event thats emitted when a withdrawal is made from Pool"
      }
    },
    "kind": "user",
    "methods": {
      "addAsset(address,address)": {
        "notice": "Adds asset to pool, reverts if asset already exists in pool"
      },
      "ampFactor()": {
        "notice": "Amplification factor"
      },
      "assetOf(address)": {
        "notice": "Gets Asset corresponding to ERC20 token. Reverts if asset does not exists in Pool."
      },
      "deposit(address,uint256,address,uint256,bool)": {
        "notice": "Deposits amount of tokens into pool ensuring deadline"
      },
      "dev()": {
        "notice": "Dev address"
      },
      "exchangeRate(address)": {
        "notice": "Returns the exchange rate of the LP token"
      },
      "getTokens()": {
        "notice": "Return list of tokens in the pool"
      },
      "haircutRate()": {
        "notice": "Haircut rate"
      },
      "initialize(uint256,uint256)": {
        "notice": "Initializes pool. Dev is set to be the account calling this function."
      },
      "lpDividendRatio()": {
        "notice": "LP dividend ratio : the ratio of haircut that should distribute to LP"
      },
      "mintFee(address)": {
        "notice": "Send fee collected to the fee beneficiary"
      },
      "mintFeeThreshold()": {
        "notice": "The threshold to mint fee (unit: WAD)"
      },
      "quotePotentialDeposit(address,uint256)": {
        "notice": "Quotes potential deposit from pool"
      },
      "quotePotentialSwap(address,address,int256)": {
        "notice": "Quotes potential outcome of a swap given current state, taking in account slippage and haircut"
      },
      "quotePotentialWithdraw(address,uint256)": {
        "notice": "Quotes potential withdrawal from pool"
      },
      "removeAsset(address)": {
        "notice": "Removes asset from asset struct"
      },
      "retentionRatio()": {
        "notice": "Retention ratio: the ratio of haircut that should stay in the pool"
      },
      "setAmpFactor(uint256)": {
        "notice": "Changes the pools amplification factor. Can only be set by the contract owner."
      },
      "setDev(address)": {
        "notice": "Changes the contract dev. Can only be set by the contract owner."
      },
      "setFeeTo(address)": {
        "notice": "Changes the fee beneficiary. Can only be set by the contract owner. This value cannot be set to 0 to avoid unsettled fee."
      },
      "setHaircutRate(uint256)": {
        "notice": "Changes the pools haircutRate. Can only be set by the contract owner."
      },
      "setMintFeeThreshold(uint256)": {
        "notice": "Set min fee to mint"
      },
      "swap(address,address,uint256,uint256,address,uint256)": {
        "notice": "Swap fromToken for toToken, ensures deadline and minimumToAmount and sends quoted amount to `to` address"
      },
      "withdraw(address,uint256,uint256,address,uint256)": {
        "notice": "Withdraws liquidity amount of asset to `to` address ensuring minimum amount required"
      },
      "withdrawFromOtherAsset(address,address,uint256,uint256,address,uint256)": {
        "notice": "Enables withdrawing liquidity from an asset using LP from a different asset"
      }
    },
    "notice": "Manages deposits, withdrawals and swaps. Holds a mapping of assets and parameters.",
    "version": 1
  },
  "storageLayout": {
    "storage": [
      {
        "astId": 130,
        "contract": "contracts/wombat-core/pool/Pool.sol:Pool",
        "label": "_initialized",
        "offset": 0,
        "slot": "0",
        "type": "t_bool"
      },
      {
        "astId": 133,
        "contract": "contracts/wombat-core/pool/Pool.sol:Pool",
        "label": "_initializing",
        "offset": 1,
        "slot": "0",
        "type": "t_bool"
      },
      {
        "astId": 383,
        "contract": "contracts/wombat-core/pool/Pool.sol:Pool",
        "label": "__gap",
        "offset": 0,
        "slot": "1",
        "type": "t_array(t_uint256)50_storage"
      },
      {
        "astId": 10,
        "contract": "contracts/wombat-core/pool/Pool.sol:Pool",
        "label": "_owner",
        "offset": 0,
        "slot": "51",
        "type": "t_address"
      },
      {
        "astId": 123,
        "contract": "contracts/wombat-core/pool/Pool.sol:Pool",
        "label": "__gap",
        "offset": 0,
        "slot": "52",
        "type": "t_array(t_uint256)49_storage"
      },
      {
        "astId": 297,
        "contract": "contracts/wombat-core/pool/Pool.sol:Pool",
        "label": "_status",
        "offset": 0,
        "slot": "101",
        "type": "t_uint256"
      },
      {
        "astId": 340,
        "contract": "contracts/wombat-core/pool/Pool.sol:Pool",
        "label": "__gap",
        "offset": 0,
        "slot": "102",
        "type": "t_array(t_uint256)49_storage"
      },
      {
        "astId": 191,
        "contract": "contracts/wombat-core/pool/Pool.sol:Pool",
        "label": "_paused",
        "offset": 0,
        "slot": "151",
        "type": "t_bool"
      },
      {
        "astId": 282,
        "contract": "contracts/wombat-core/pool/Pool.sol:Pool",
        "label": "__gap",
        "offset": 0,
        "slot": "152",
        "type": "t_array(t_uint256)49_storage"
      },
      {
        "astId": 5049,
        "contract": "contracts/wombat-core/pool/Pool.sol:Pool",
        "label": "_pausedAssets",
        "offset": 0,
        "slot": "201",
        "type": "t_mapping(t_address,t_bool)"
      },
      {
        "astId": 5180,
        "contract": "contracts/wombat-core/pool/Pool.sol:Pool",
        "label": "ampFactor",
        "offset": 0,
        "slot": "202",
        "type": "t_uint256"
      },
      {
        "astId": 5183,
        "contract": "contracts/wombat-core/pool/Pool.sol:Pool",
        "label": "haircutRate",
        "offset": 0,
        "slot": "203",
        "type": "t_uint256"
      },
      {
        "astId": 5186,
        "contract": "contracts/wombat-core/pool/Pool.sol:Pool",
        "label": "retentionRatio",
        "offset": 0,
        "slot": "204",
        "type": "t_uint256"
      },
      {
        "astId": 5189,
        "contract": "contracts/wombat-core/pool/Pool.sol:Pool",
        "label": "lpDividendRatio",
        "offset": 0,
        "slot": "205",
        "type": "t_uint256"
      },
      {
        "astId": 5192,
        "contract": "contracts/wombat-core/pool/Pool.sol:Pool",
        "label": "mintFeeThreshold",
        "offset": 0,
        "slot": "206",
        "type": "t_uint256"
      },
      {
        "astId": 5195,
        "contract": "contracts/wombat-core/pool/Pool.sol:Pool",
        "label": "dev",
        "offset": 0,
        "slot": "207",
        "type": "t_address"
      },
      {
        "astId": 5197,
        "contract": "contracts/wombat-core/pool/Pool.sol:Pool",
        "label": "feeTo",
        "offset": 0,
        "slot": "208",
        "type": "t_address"
      },
      {
        "astId": 5200,
        "contract": "contracts/wombat-core/pool/Pool.sol:Pool",
        "label": "masterWombat",
        "offset": 0,
        "slot": "209",
        "type": "t_contract(IMasterWombat)11732"
      },
      {
        "astId": 5206,
        "contract": "contracts/wombat-core/pool/Pool.sol:Pool",
        "label": "_feeCollected",
        "offset": 0,
        "slot": "210",
        "type": "t_mapping(t_contract(IAsset)3831,t_uint256)"
      },
      {
        "astId": 5210,
        "contract": "contracts/wombat-core/pool/Pool.sol:Pool",
        "label": "_assets",
        "offset": 0,
        "slot": "211",
        "type": "t_struct(AssetMap)5177_storage"
      }
    ],
    "types": {
      "t_address": {
        "encoding": "inplace",
        "label": "address",
        "numberOfBytes": "20"
      },
      "t_array(t_address)dyn_storage": {
        "base": "t_address",
        "encoding": "dynamic_array",
        "label": "address[]",
        "numberOfBytes": "32"
      },
      "t_array(t_uint256)49_storage": {
        "base": "t_uint256",
        "encoding": "inplace",
        "label": "uint256[49]",
        "numberOfBytes": "1568"
      },
      "t_array(t_uint256)50_storage": {
        "base": "t_uint256",
        "encoding": "inplace",
        "label": "uint256[50]",
        "numberOfBytes": "1600"
      },
      "t_bool": {
        "encoding": "inplace",
        "label": "bool",
        "numberOfBytes": "1"
      },
      "t_contract(IAsset)3831": {
        "encoding": "inplace",
        "label": "contract IAsset",
        "numberOfBytes": "20"
      },
      "t_contract(IMasterWombat)11732": {
        "encoding": "inplace",
        "label": "contract IMasterWombat",
        "numberOfBytes": "20"
      },
      "t_mapping(t_address,t_bool)": {
        "encoding": "mapping",
        "key": "t_address",
        "label": "mapping(address => bool)",
        "numberOfBytes": "32",
        "value": "t_bool"
      },
      "t_mapping(t_address,t_contract(IAsset)3831)": {
        "encoding": "mapping",
        "key": "t_address",
        "label": "mapping(address => contract IAsset)",
        "numberOfBytes": "32",
        "value": "t_contract(IAsset)3831"
      },
      "t_mapping(t_address,t_uint256)": {
        "encoding": "mapping",
        "key": "t_address",
        "label": "mapping(address => uint256)",
        "numberOfBytes": "32",
        "value": "t_uint256"
      },
      "t_mapping(t_contract(IAsset)3831,t_uint256)": {
        "encoding": "mapping",
        "key": "t_contract(IAsset)3831",
        "label": "mapping(contract IAsset => uint256)",
        "numberOfBytes": "32",
        "value": "t_uint256"
      },
      "t_struct(AssetMap)5177_storage": {
        "encoding": "inplace",
        "label": "struct Pool.AssetMap",
        "members": [
          {
            "astId": 5167,
            "contract": "contracts/wombat-core/pool/Pool.sol:Pool",
            "label": "keys",
            "offset": 0,
            "slot": "0",
            "type": "t_array(t_address)dyn_storage"
          },
          {
            "astId": 5172,
            "contract": "contracts/wombat-core/pool/Pool.sol:Pool",
            "label": "values",
            "offset": 0,
            "slot": "1",
            "type": "t_mapping(t_address,t_contract(IAsset)3831)"
          },
          {
            "astId": 5176,
            "contract": "contracts/wombat-core/pool/Pool.sol:Pool",
            "label": "indexOf",
            "offset": 0,
            "slot": "2",
            "type": "t_mapping(t_address,t_uint256)"
          }
        ],
        "numberOfBytes": "96"
      },
      "t_uint256": {
        "encoding": "inplace",
        "label": "uint256",
        "numberOfBytes": "32"
      }
    }
  }
}