{
  "address": "0x7F371FEEb58C0a87397bE254C698F9439113E21c",
  "abi": [
    {
      "inputs": [],
      "name": "CORE_UNDERFLOW",
      "type": "error"
    },
    {
      "inputs": [],
      "name": "WOMBAT_AMOUNT_TOO_LOW",
      "type": "error"
    },
    {
      "inputs": [],
      "name": "WOMBAT_ASSET_ALREADY_EXIST",
      "type": "error"
    },
    {
      "inputs": [],
      "name": "WOMBAT_ASSET_ALREADY_PAUSED",
      "type": "error"
    },
    {
      "inputs": [],
      "name": "WOMBAT_ASSET_NOT_EXISTS",
      "type": "error"
    },
    {
      "inputs": [],
      "name": "WOMBAT_ASSET_NOT_PAUSED",
      "type": "error"
    },
    {
      "inputs": [],
      "name": "WOMBAT_CASH_NOT_ENOUGH",
      "type": "error"
    },
    {
      "inputs": [],
      "name": "WOMBAT_EXPIRED",
      "type": "error"
    },
    {
      "inputs": [],
      "name": "WOMBAT_FORBIDDEN",
      "type": "error"
    },
    {
      "inputs": [],
      "name": "WOMBAT_INTERPOOL_SWAP_NOT_SUPPORTED",
      "type": "error"
    },
    {
      "inputs": [],
      "name": "WOMBAT_INVALID_VALUE",
      "type": "error"
    },
    {
      "inputs": [],
      "name": "WOMBAT_SAME_ADDRESS",
      "type": "error"
    },
    {
      "inputs": [],
      "name": "WOMBAT_ZERO_ADDRESS",
      "type": "error"
    },
    {
      "inputs": [],
      "name": "WOMBAT_ZERO_AMOUNT",
      "type": "error"
    },
    {
      "inputs": [],
      "name": "WOMBAT_ZERO_LIQUIDITY",
      "type": "error"
    },
    {
      "anonymous": false,
      "inputs": [
        {
          "indexed": true,
          "internalType": "address",
          "name": "token",
          "type": "address"
        },
        {
          "indexed": true,
          "internalType": "address",
          "name": "asset",
          "type": "address"
        }
      ],
      "name": "AssetAdded",
      "type": "event"
    },
    {
      "anonymous": false,
      "inputs": [
        {
          "indexed": true,
          "internalType": "address",
          "name": "token",
          "type": "address"
        },
        {
          "indexed": true,
          "internalType": "address",
          "name": "asset",
          "type": "address"
        }
      ],
      "name": "AssetRemoved",
      "type": "event"
    },
    {
      "anonymous": false,
      "inputs": [
        {
          "indexed": true,
          "internalType": "address",
          "name": "sender",
          "type": "address"
        },
        {
          "indexed": false,
          "internalType": "address",
          "name": "token",
          "type": "address"
        },
        {
          "indexed": false,
          "internalType": "uint256",
          "name": "amount",
          "type": "uint256"
        },
        {
          "indexed": false,
          "internalType": "uint256",
          "name": "liquidity",
          "type": "uint256"
        },
        {
          "indexed": true,
          "internalType": "address",
          "name": "to",
          "type": "address"
        }
      ],
      "name": "Deposit",
      "type": "event"
    },
    {
      "anonymous": false,
      "inputs": [
        {
          "indexed": true,
          "internalType": "address",
          "name": "previousOwner",
          "type": "address"
        },
        {
          "indexed": true,
          "internalType": "address",
          "name": "newOwner",
          "type": "address"
        }
      ],
      "name": "OwnershipTransferred",
      "type": "event"
    },
    {
      "anonymous": false,
      "inputs": [
        {
          "indexed": false,
          "internalType": "address",
          "name": "account",
          "type": "address"
        }
      ],
      "name": "Paused",
      "type": "event"
    },
    {
      "anonymous": false,
      "inputs": [
        {
          "indexed": false,
          "internalType": "address",
          "name": "asset",
          "type": "address"
        },
        {
          "indexed": false,
          "internalType": "address",
          "name": "account",
          "type": "address"
        }
      ],
      "name": "PausedAsset",
      "type": "event"
    },
    {
      "anonymous": false,
      "inputs": [
        {
          "indexed": true,
          "internalType": "address",
          "name": "sender",
          "type": "address"
        },
        {
          "indexed": false,
          "internalType": "address",
          "name": "fromToken",
          "type": "address"
        },
        {
          "indexed": false,
          "internalType": "address",
          "name": "toToken",
          "type": "address"
        },
        {
          "indexed": false,
          "internalType": "uint256",
          "name": "fromAmount",
          "type": "uint256"
        },
        {
          "indexed": false,
          "internalType": "uint256",
          "name": "toAmount",
          "type": "uint256"
        },
        {
          "indexed": true,
          "internalType": "address",
          "name": "to",
          "type": "address"
        }
      ],
      "name": "Swap",
      "type": "event"
    },
    {
      "anonymous": false,
      "inputs": [
        {
          "indexed": false,
          "internalType": "address",
          "name": "account",
          "type": "address"
        }
      ],
      "name": "Unpaused",
      "type": "event"
    },
    {
      "anonymous": false,
      "inputs": [
        {
          "indexed": false,
          "internalType": "address",
          "name": "asset",
          "type": "address"
        },
        {
          "indexed": false,
          "internalType": "address",
          "name": "account",
          "type": "address"
        }
      ],
      "name": "UnpausedAsset",
      "type": "event"
    },
    {
      "anonymous": false,
      "inputs": [
        {
          "indexed": true,
          "internalType": "address",
          "name": "sender",
          "type": "address"
        },
        {
          "indexed": false,
          "internalType": "address",
          "name": "token",
          "type": "address"
        },
        {
          "indexed": false,
          "internalType": "uint256",
          "name": "amount",
          "type": "uint256"
        },
        {
          "indexed": false,
          "internalType": "uint256",
          "name": "liquidity",
          "type": "uint256"
        },
        {
          "indexed": true,
          "internalType": "address",
          "name": "to",
          "type": "address"
        }
      ],
      "name": "Withdraw",
      "type": "event"
    },
    {
      "inputs": [],
      "name": "WAD",
      "outputs": [
        {
          "internalType": "uint256",
          "name": "",
          "type": "uint256"
        }
      ],
      "stateMutability": "view",
      "type": "function"
    },
    {
      "inputs": [],
      "name": "WAD_I",
      "outputs": [
        {
          "internalType": "int256",
          "name": "",
          "type": "int256"
        }
      ],
      "stateMutability": "view",
      "type": "function"
    },
    {
      "inputs": [
        {
          "internalType": "address",
          "name": "token",
          "type": "address"
        },
        {
          "internalType": "address",
          "name": "asset",
          "type": "address"
        }
      ],
      "name": "addAsset",
      "outputs": [],
      "stateMutability": "nonpayable",
      "type": "function"
    },
    {
      "inputs": [],
      "name": "ampFactor",
      "outputs": [
        {
          "internalType": "uint256",
          "name": "",
          "type": "uint256"
        }
      ],
      "stateMutability": "view",
      "type": "function"
    },
    {
      "inputs": [
        {
          "internalType": "address",
          "name": "token",
          "type": "address"
        }
      ],
      "name": "assetOf",
      "outputs": [
        {
          "internalType": "address",
          "name": "",
          "type": "address"
        }
      ],
      "stateMutability": "view",
      "type": "function"
    },
    {
      "inputs": [
        {
          "internalType": "address",
          "name": "token",
          "type": "address"
        },
        {
          "internalType": "uint256",
          "name": "amount",
          "type": "uint256"
        },
        {
          "internalType": "address",
          "name": "to",
          "type": "address"
        },
        {
          "internalType": "uint256",
          "name": "deadline",
          "type": "uint256"
        },
        {
          "internalType": "bool",
          "name": "shouldStake",
          "type": "bool"
        }
      ],
      "name": "deposit",
      "outputs": [
        {
          "internalType": "uint256",
          "name": "liquidity",
          "type": "uint256"
        }
      ],
      "stateMutability": "nonpayable",
      "type": "function"
    },
    {
      "inputs": [],
      "name": "dev",
      "outputs": [
        {
          "internalType": "address",
          "name": "",
          "type": "address"
        }
      ],
      "stateMutability": "view",
      "type": "function"
    },
    {
      "inputs": [
        {
          "internalType": "address",
          "name": "token",
          "type": "address"
        }
      ],
      "name": "exchangeRate",
      "outputs": [
        {
          "internalType": "uint256",
          "name": "exchangeRate",
          "type": "uint256"
        }
      ],
      "stateMutability": "view",
      "type": "function"
    },
    {
      "inputs": [],
      "name": "feeTo",
      "outputs": [
        {
          "internalType": "address",
          "name": "",
          "type": "address"
        }
      ],
      "stateMutability": "view",
      "type": "function"
    },
    {
      "inputs": [
        {
          "internalType": "address",
          "name": "token",
          "type": "address"
        },
        {
          "internalType": "uint256",
          "name": "amount",
          "type": "uint256"
        }
      ],
      "name": "fillPool",
      "outputs": [],
      "stateMutability": "nonpayable",
      "type": "function"
    },
    {
      "inputs": [],
      "name": "globalEquilCovRatio",
      "outputs": [
        {
          "internalType": "uint256",
          "name": "equilCovRatio",
          "type": "uint256"
        },
        {
          "internalType": "uint256",
          "name": "invariant",
          "type": "uint256"
        }
      ],
      "stateMutability": "view",
      "type": "function"
    },
    {
      "inputs": [],
      "name": "haircutRate",
      "outputs": [
        {
          "internalType": "uint256",
          "name": "",
          "type": "uint256"
        }
      ],
      "stateMutability": "view",
      "type": "function"
    },
    {
      "inputs": [
        {
          "internalType": "uint256",
          "name": "ampFactor_",
          "type": "uint256"
        },
        {
          "internalType": "uint256",
          "name": "haircutRate_",
          "type": "uint256"
        }
      ],
      "name": "initialize",
      "outputs": [],
      "stateMutability": "nonpayable",
      "type": "function"
    },
    {
      "inputs": [],
      "name": "lpDividendRatio",
      "outputs": [
        {
          "internalType": "uint256",
          "name": "",
          "type": "uint256"
        }
      ],
      "stateMutability": "view",
      "type": "function"
    },
    {
      "inputs": [],
      "name": "masterWombat",
      "outputs": [
        {
          "internalType": "contract IMasterWombat",
          "name": "",
          "type": "address"
        }
      ],
      "stateMutability": "view",
      "type": "function"
    },
    {
      "inputs": [
        {
          "internalType": "address",
          "name": "token",
          "type": "address"
        }
      ],
      "name": "mintFee",
      "outputs": [],
      "stateMutability": "nonpayable",
      "type": "function"
    },
    {
      "inputs": [],
      "name": "mintFeeThreshold",
      "outputs": [
        {
          "internalType": "uint256",
          "name": "",
          "type": "uint256"
        }
      ],
      "stateMutability": "view",
      "type": "function"
    },
    {
      "inputs": [],
      "name": "owner",
      "outputs": [
        {
          "internalType": "address",
          "name": "",
          "type": "address"
        }
      ],
      "stateMutability": "view",
      "type": "function"
    },
    {
      "inputs": [],
      "name": "pause",
      "outputs": [],
      "stateMutability": "nonpayable",
      "type": "function"
    },
    {
      "inputs": [
        {
          "internalType": "address",
          "name": "token",
          "type": "address"
        }
      ],
      "name": "pauseAsset",
      "outputs": [],
      "stateMutability": "nonpayable",
      "type": "function"
    },
    {
      "inputs": [],
      "name": "paused",
      "outputs": [
        {
          "internalType": "bool",
          "name": "",
          "type": "bool"
        }
      ],
      "stateMutability": "view",
      "type": "function"
    },
    {
      "inputs": [
        {
          "internalType": "address",
          "name": "token",
          "type": "address"
        },
        {
          "internalType": "uint256",
          "name": "amount",
          "type": "uint256"
        }
      ],
      "name": "quotePotentialDeposit",
      "outputs": [
        {
          "internalType": "uint256",
          "name": "liquidity",
          "type": "uint256"
        },
        {
          "internalType": "uint256",
          "name": "reward",
          "type": "uint256"
        }
      ],
      "stateMutability": "view",
      "type": "function"
    },
    {
      "inputs": [
        {
          "internalType": "address",
          "name": "fromToken",
          "type": "address"
        },
        {
          "internalType": "address",
          "name": "toToken",
          "type": "address"
        },
        {
          "internalType": "int256",
          "name": "fromAmount",
          "type": "int256"
        }
      ],
      "name": "quotePotentialSwap",
      "outputs": [
        {
          "internalType": "uint256",
          "name": "potentialOutcome",
          "type": "uint256"
        },
        {
          "internalType": "uint256",
          "name": "haircut",
          "type": "uint256"
        }
      ],
      "stateMutability": "view",
      "type": "function"
    },
    {
      "inputs": [
        {
          "internalType": "address",
          "name": "token",
          "type": "address"
        },
        {
          "internalType": "uint256",
          "name": "liquidity",
          "type": "uint256"
        }
      ],
      "name": "quotePotentialWithdraw",
      "outputs": [
        {
          "internalType": "uint256",
          "name": "amount",
          "type": "uint256"
        },
        {
          "internalType": "uint256",
          "name": "fee",
          "type": "uint256"
        }
      ],
      "stateMutability": "view",
      "type": "function"
    },
    {
      "inputs": [
        {
          "internalType": "address",
          "name": "key",
          "type": "address"
        }
      ],
      "name": "removeAsset",
      "outputs": [],
      "stateMutability": "nonpayable",
      "type": "function"
    },
    {
      "inputs": [],
      "name": "renounceOwnership",
      "outputs": [],
      "stateMutability": "nonpayable",
      "type": "function"
    },
    {
      "inputs": [],
      "name": "retentionRatio",
      "outputs": [
        {
          "internalType": "uint256",
          "name": "",
          "type": "uint256"
        }
      ],
      "stateMutability": "view",
      "type": "function"
    },
    {
      "inputs": [
        {
          "internalType": "uint256",
          "name": "ampFactor_",
          "type": "uint256"
        }
      ],
      "name": "setAmpFactor",
      "outputs": [],
      "stateMutability": "nonpayable",
      "type": "function"
    },
    {
      "inputs": [
        {
          "internalType": "address",
          "name": "dev_",
          "type": "address"
        }
      ],
      "name": "setDev",
      "outputs": [],
      "stateMutability": "nonpayable",
      "type": "function"
    },
    {
      "inputs": [
        {
          "internalType": "uint256",
          "name": "lpDividendRatio_",
          "type": "uint256"
        },
        {
          "internalType": "uint256",
          "name": "retentionRatio_",
          "type": "uint256"
        }
      ],
      "name": "setFee",
      "outputs": [],
      "stateMutability": "nonpayable",
      "type": "function"
    },
    {
      "inputs": [
        {
          "internalType": "address",
          "name": "feeTo_",
          "type": "address"
        }
      ],
      "name": "setFeeTo",
      "outputs": [],
      "stateMutability": "nonpayable",
      "type": "function"
    },
    {
      "inputs": [
        {
          "internalType": "uint256",
          "name": "haircutRate_",
          "type": "uint256"
        }
      ],
      "name": "setHaircutRate",
      "outputs": [],
      "stateMutability": "nonpayable",
      "type": "function"
    },
    {
      "inputs": [
        {
          "internalType": "address",
          "name": "masterWombat_",
          "type": "address"
        }
      ],
      "name": "setMasterWombat",
      "outputs": [],
      "stateMutability": "nonpayable",
      "type": "function"
    },
    {
      "inputs": [
        {
          "internalType": "uint256",
          "name": "mintFeeThreshold_",
          "type": "uint256"
        }
      ],
      "name": "setMintFeeThreshold",
      "outputs": [],
      "stateMutability": "nonpayable",
      "type": "function"
    },
    {
      "inputs": [
        {
          "internalType": "address",
          "name": "fromToken",
          "type": "address"
        },
        {
          "internalType": "address",
          "name": "toToken",
          "type": "address"
        },
        {
          "internalType": "uint256",
          "name": "fromAmount",
          "type": "uint256"
        },
        {
          "internalType": "uint256",
          "name": "minimumToAmount",
          "type": "uint256"
        },
        {
          "internalType": "address",
          "name": "to",
          "type": "address"
        },
        {
          "internalType": "uint256",
          "name": "deadline",
          "type": "uint256"
        }
      ],
      "name": "swap",
      "outputs": [
        {
          "internalType": "uint256",
          "name": "actualToAmount",
          "type": "uint256"
        },
        {
          "internalType": "uint256",
          "name": "haircut",
          "type": "uint256"
        }
      ],
      "stateMutability": "nonpayable",
      "type": "function"
    },
    {
      "inputs": [
        {
          "internalType": "address",
          "name": "token",
          "type": "address"
        }
      ],
      "name": "tipBucketBalance",
      "outputs": [
        {
          "internalType": "uint256",
          "name": "balance",
          "type": "uint256"
        }
      ],
      "stateMutability": "view",
      "type": "function"
    },
    {
      "inputs": [
        {
          "internalType": "address",
          "name": "newOwner",
          "type": "address"
        }
      ],
      "name": "transferOwnership",
      "outputs": [],
      "stateMutability": "nonpayable",
      "type": "function"
    },
    {
      "inputs": [
        {
          "internalType": "address",
          "name": "token",
          "type": "address"
        },
        {
          "internalType": "uint256",
          "name": "amount",
          "type": "uint256"
        },
        {
          "internalType": "address",
          "name": "to",
          "type": "address"
        }
      ],
      "name": "transferTipBucket",
      "outputs": [],
      "stateMutability": "nonpayable",
      "type": "function"
    },
    {
      "inputs": [],
      "name": "unpause",
      "outputs": [],
      "stateMutability": "nonpayable",
      "type": "function"
    },
    {
      "inputs": [
        {
          "internalType": "address",
          "name": "token",
          "type": "address"
        }
      ],
      "name": "unpauseAsset",
      "outputs": [],
      "stateMutability": "nonpayable",
      "type": "function"
    },
    {
      "inputs": [
        {
          "internalType": "address",
          "name": "token",
          "type": "address"
        },
        {
          "internalType": "uint256",
          "name": "liquidity",
          "type": "uint256"
        },
        {
          "internalType": "uint256",
          "name": "minimumAmount",
          "type": "uint256"
        },
        {
          "internalType": "address",
          "name": "to",
          "type": "address"
        },
        {
          "internalType": "uint256",
          "name": "deadline",
          "type": "uint256"
        }
      ],
      "name": "withdraw",
      "outputs": [
        {
          "internalType": "uint256",
          "name": "amount",
          "type": "uint256"
        }
      ],
      "stateMutability": "nonpayable",
      "type": "function"
    },
    {
      "inputs": [
        {
          "internalType": "address",
          "name": "fromToken",
          "type": "address"
        },
        {
          "internalType": "address",
          "name": "toToken",
          "type": "address"
        },
        {
          "internalType": "uint256",
          "name": "liquidity",
          "type": "uint256"
        },
        {
          "internalType": "uint256",
          "name": "minimumAmount",
          "type": "uint256"
        },
        {
          "internalType": "address",
          "name": "to",
          "type": "address"
        },
        {
          "internalType": "uint256",
          "name": "deadline",
          "type": "uint256"
        }
      ],
      "name": "withdrawFromOtherAsset",
      "outputs": [
        {
          "internalType": "uint256",
          "name": "toAmount",
          "type": "uint256"
        }
      ],
      "stateMutability": "nonpayable",
      "type": "function"
    }
  ],
  "transactionHash": "0x0f488c3b67ca85164427f26af6915d129ce388f533e4a569b4d18a351c300942",
  "args": [],
  "numDeployments": 3,
  "solcInputHash": "81a357bbe581f52c97b1a57c310d228a",
  "bytecode": "0x608060405234801561001057600080fd5b50614c67806100206000396000f3fe608060405234801561001057600080fd5b50600436106102de5760003560e01c8063815bfd2911610186578063d043c565116100e3578063dc3b7c8b11610097578063f46901ed11610071578063f46901ed14610596578063f57e84d5146105a9578063f8b49e72146105bc57600080fd5b8063dc3b7c8b1461055d578063e4a3011614610570578063f2fde38b1461058357600080fd5b8063d30ffeda116100c8578063d30ffeda14610524578063d477f05f14610537578063da4899971461054a57600080fd5b8063d043c56514610508578063d0dd0e561461051b57600080fd5b806391cca3db1161013a5780639908fc8b1161011f5780639908fc8b146104cf5780639abacb41146104e25780639e4416b7146104f557600080fd5b806391cca3db146104a957806393aeea02146104bc57600080fd5b80638a2dfe091161016b5780638a2dfe091461047d5780638da5cb5b14610485578063907448ed1461049657600080fd5b8063815bfd291461046c5780638456cb591461047557600080fd5b80633f4ba83a1161023f5780635cfe092e116101f35780636a146024116101cd5780636a14602414610352578063715018a61461045157806371f962111461045957600080fd5b80635cfe092e1461042c57806361858e23146104355780636922d5ca1461044857600080fd5b80634fdd64e5116102245780634fdd64e5146103db57806352f7c988146104035780635c975abb1461041657600080fd5b80633f4ba83a146103c05780634a5e42b1146103c857600080fd5b806309a5fca3116102965780631e95ff381161027b5780631e95ff38146103875780633753b14a1461039a5780633bd61ba8146103ad57600080fd5b806309a5fca3146103615780630f91f06f1461037457600080fd5b80630705999d116102c75780630705999d1461032a578063070f81d91461033f57806308bdd2651461035257600080fd5b8063017b8292146102e3578063017e7e58146102ff575b600080fd5b6102ec60ca5481565b6040519081526020015b60405180910390f35b60d054610312906001600160a01b031681565b6040516001600160a01b0390911681526020016102f6565b61033d6103383660046145a6565b6105cf565b005b61033d61034d36600461468f565b610647565b6102ec670de0b6b3a764000081565b6102ec61036f366004614747565b61087f565b6102ec610382366004614630565b610aa8565b6102ec6103953660046146ec565b610d01565b61033d6103a83660046145a6565b6110f9565b60d154610312906001600160a01b031681565b61033d61116a565b61033d6103d63660046145a6565b6111d9565b6103ee6103e93660046145f4565b6113a7565b604080519283526020830191909152016102f6565b61033d61041136600461480d565b611572565b60975460ff1660405190151581526020016102f6565b6102ec60ce5481565b6103ee61044336600461468f565b6115fc565b6102ec60cc5481565b61033d61169e565b6103126104673660046145a6565b6116f2565b6102ec60cd5481565b61033d611703565b6103ee61176b565b6033546001600160a01b0316610312565b6103ee6104a436600461468f565b611794565b60cf54610312906001600160a01b031681565b61033d6104ca3660046146b9565b611807565b6103ee6104dd366004614630565b611a79565b61033d6104f03660046145a6565b611d7e565b61033d6105033660046147db565b611de7565b61033d6105163660046147db565b611e5d565b6102ec60cb5481565b6102ec6105323660046145a6565b611eaa565b61033d6105453660046145a6565b612020565b61033d6105583660046145c1565b612093565b6102ec61056b3660046145a6565b61223d565b61033d61057e36600461480d565b6123c4565b61033d6105913660046145a6565b6124ce565b61033d6105a43660046145a6565b61259e565b61033d6105b73660046147db565b61262f565b61033d6105ca3660046145a6565b6126a5565b6033546001600160a01b0316331461061c5760405162461bcd60e51b81526020600482018190526024820152600080516020614c1283398151915260448201526064015b60405180910390fd5b610625816126b6565b60d180546001600160a01b0319166001600160a01b0392909216919091179055565b61064f6126f6565b600061065a8361273a565b9050600060d26000836001600160a01b03166001600160a01b0316815260200190815260200160002054826001600160a01b031663961be3916040518163ffffffff1660e01b815260040160206040518083038186803b1580156106bd57600080fd5b505afa1580156106d1573d6000803e3d6000fd5b505050506040513d601f19601f820116820180604052508101906106f591906147b2565b6001600160781b03166107e9846001600160a01b0316637284168a6040518163ffffffff1660e01b815260040160206040518083038186803b15801561073a57600080fd5b505afa15801561074e573d6000803e3d6000fd5b505050506040513d601f19601f82011682018060405250810190610772919061482f565b856001600160a01b03166399c91a646040518163ffffffff1660e01b815260040160206040518083038186803b1580156107ab57600080fd5b505afa1580156107bf573d6000803e3d6000fd5b505050506040513d601f19601f820116820180604052508101906107e391906147f4565b90612793565b6107f39190614b0d565b6107fd9190614b0d565b905080831115610820576040516312b019e160e01b815260040160405180910390fd5b60405162b64f3d60e51b8152600481018490526001600160a01b038316906316c9e7a090602401600060405180830381600087803b15801561086157600080fd5b505af1158015610875573d6000803e3d6000fd5b5050505050505050565b6000600260655414156108d45760405162461bcd60e51b815260206004820152601f60248201527f5265656e7472616e637947756172643a207265656e7472616e742063616c6c006044820152606401610613565b600260655560975460ff161561091f5760405162461bcd60e51b815260206004820152601060248201526f14185d5cd8589b194e881c185d5cd95960821b6044820152606401610613565b610928856127fb565b610931836126b6565b61093a82612832565b60006109458761273a565b905061095c6001600160a01b03821633838961286c565b6109e1816001600160a01b0316637284168a6040518163ffffffff1660e01b815260040160206040518083038186803b15801561099857600080fd5b505afa1580156109ac573d6000803e3d6000fd5b505050506040513d601f19601f820116820180604052508101906109d0919061482f565b6109db8389896128fa565b90612a8a565b604051639e79eaa560e01b81526001600160a01b0386811660048301526024820183905291935090821690639e79eaa590604401600060405180830381600087803b158015610a2f57600080fd5b505af1158015610a43573d6000803e3d6000fd5b5050604080516001600160a01b038b81168252602082018790529181018a905290871692503391507ffb80d861da582b723be2d19507ce3e03851820c464abea89156ec77e089b1ad9906060015b60405180910390a350600160655595945050505050565b600060026065541415610afd5760405162461bcd60e51b815260206004820152601f60248201527f5265656e7472616e637947756172643a207265656e7472616e742063616c6c006044820152606401610613565b600260655560975460ff1615610b485760405162461bcd60e51b815260206004820152601060248201526f14185d5cd8589b194e881c185d5cd95960821b6044820152606401610613565b610b51836126b6565b610b5a856127fb565b610b6382612832565b610b6c87612aba565b6000610b778861273a565b90506000610b848861273a565b9050610b9b6001600160a01b03831633848a61286c565b6000610ba9838960006128fa565b9050610bb88383838a8a612b0d565b5080945050610c38826001600160a01b0316637284168a6040518163ffffffff1660e01b815260040160206040518083038186803b158015610bf957600080fd5b505afa158015610c0d573d6000803e3d6000fd5b505050506040513d601f19601f82011682018060405250810190610c31919061482f565b8590612a8a565b604051639e79eaa560e01b81526001600160a01b0388811660048301526024820183905291955090831690639e79eaa590604401600060405180830381600087803b158015610c8657600080fd5b505af1158015610c9a573d6000803e3d6000fd5b5050604080516001600160a01b038d81168252602082018990529181018c905290891692503391507ffb80d861da582b723be2d19507ce3e03851820c464abea89156ec77e089b1ad99060600160405180910390a350506001606555509695505050505050565b600060026065541415610d565760405162461bcd60e51b815260206004820152601f60248201527f5265656e7472616e637947756172643a207265656e7472616e742063616c6c006044820152606401610613565b600260655560975460ff1615610da15760405162461bcd60e51b815260206004820152601060248201526f14185d5cd8589b194e881c185d5cd95960821b6044820152606401610613565b84610dbf5760405163b483c10f60e01b815260040160405180910390fd5b610dc8846126b6565b610dd183612832565b610dda86612aba565b6000610de58761273a565b9050610dfc6001600160a01b03881633838961286c565b82610e8d57610e8681610e80836001600160a01b0316637284168a6040518163ffffffff1660e01b815260040160206040518083038186803b158015610e4157600080fd5b505afa158015610e55573d6000803e3d6000fd5b505050506040513d601f19601f82011682018060405250810190610e79919061482f565b8990612793565b87612c25565b91506110ab565b60d154610ea2906001600160a01b03166126b6565b610ee881610ee2836001600160a01b0316637284168a6040518163ffffffff1660e01b815260040160206040518083038186803b158015610e4157600080fd5b30612c25565b60d1546040517f095ea7b30000000000000000000000000000000000000000000000000000000081526001600160a01b0391821660048201526024810183905291935082169063095ea7b390604401602060405180830381600087803b158015610f5157600080fd5b505af1158015610f65573d6000803e3d6000fd5b505050506040513d601f19601f82011682018060405250810190610f899190614795565b5060d1546040517faf929a800000000000000000000000000000000000000000000000000000000081526001600160a01b038381166004830152600092169063af929a809060240160206040518083038186803b158015610fe957600080fd5b505afa158015610ffd573d6000803e3d6000fd5b505050506040513d601f19601f8201168201806040525081019061102191906147f4565b60d1546040517f90210d7e00000000000000000000000000000000000000000000000000000000815260048101839052602481018690526001600160a01b0389811660448301529293509116906390210d7e90606401600060405180830381600087803b15801561109157600080fd5b505af11580156110a5573d6000803e3d6000fd5b50505050505b604080516001600160a01b038981168252602082018990529181018490529086169033907ff5dd9317b9e63ac316ce44acc85f670b54b339cfa3e9076e1dd55065b922314b90606001610a91565b6002606554141561114c5760405162461bcd60e51b815260206004820152601f60248201527f5265656e7472616e637947756172643a207265656e7472616e742063616c6c006044820152606401610613565b60026065556111596126f6565b61116281612d4c565b506001606555565b600260655414156111bd5760405162461bcd60e51b815260206004820152601f60248201527f5265656e7472616e637947756172643a207265656e7472616e742063616c6c006044820152606401610613565b60026065556111ca6126f6565b6111d2612db5565b6001606555565b6033546001600160a01b031633146112215760405162461bcd60e51b81526020600482018190526024820152600080516020614c128339815191526044820152606401610613565b6001600160a01b03808216600090815260d460205260409020541661125957604051633b2c013560e21b815260040160405180910390fd5b6001600160a01b03818116600090815260d46020908152604080832080546001600160a01b0319811690915560d590925282205460d354919093169291906112a390600190614b0d565b9050600060d360000182815481106112bd576112bd614bed565b60009182526020808320909101546001600160a01b0390811680845260d59092526040808420879055908816835282209190915560d3805491925082918590811061130a5761130a614bed565b600091825260209091200180546001600160a01b0319166001600160a01b039290921691909117905560d380548061134457611344614bd7565b600082815260208120820160001990810180546001600160a01b03191690559091019091556040516001600160a01b0386811692908816917f0fa1e4606af435f32f05b3804033d2933e691fab32ee74d2db6fa82d2741f1ea9190a35050505050565b6000806113b48585612e51565b826113d25760405163b483c10f60e01b815260040160405180910390fd5b60006113dd8661273a565b905060006113ea8661273a565b9050600085121561141d57600061140d60cb548761140790614b8e565b90612ea1565b90506114198187614ace565b9550505b611498826001600160a01b0316637284168a6040518163ffffffff1660e01b815260040160206040518083038186803b15801561145957600080fd5b505afa15801561146d573d6000803e3d6000fd5b505050506040513d601f19601f82011682018060405250810190611491919061482f565b8690612ed5565b94506114a5828287612f2f565b80945081955050506114e9816001600160a01b0316637284168a6040518163ffffffff1660e01b815260040160206040518083038186803b158015610bf957600080fd5b9350611566816001600160a01b0316637284168a6040518163ffffffff1660e01b815260040160206040518083038186803b15801561152757600080fd5b505afa15801561153b573d6000803e3d6000fd5b505050506040513d601f19601f8201168201806040525081019061155f919061482f565b8490612a8a565b92505050935093915050565b6033546001600160a01b031633146115ba5760405162461bcd60e51b81526020600482018190526024820152600080516020614c128339815191526044820152606401610613565b670de0b6b3a76400006115cd83836148e0565b11156115ec576040516312b019e160e01b815260040160405180910390fd5b6115f46131a0565b60cc5560cd55565b600080600061160a8561273a565b90506116908161168b836001600160a01b0316637284168a6040518163ffffffff1660e01b815260040160206040518083038186803b15801561164c57600080fd5b505afa158015611660573d6000803e3d6000fd5b505050506040513d601f19601f82011682018060405250810190611684919061482f565b8790612793565b6131f7565b919791965090945050505050565b6033546001600160a01b031633146116e65760405162461bcd60e51b81526020600482018190526024820152600080516020614c128339815191526044820152606401610613565b6116f0600061342d565b565b60006116fd8261273a565b92915050565b600260655414156117565760405162461bcd60e51b815260206004820152601f60248201527f5265656e7472616e637947756172643a207265656e7472616e742063616c6c006044820152606401610613565b60026065556117636126f6565b6111d261347f565b60008060006117786134fa565b809250819350505061178d828260ca54613688565b9250509091565b6000806117a0836127fb565b60006117ab8561273a565b90506117b781856136b3565b905080935081945050506117fd816001600160a01b0316637284168a6040518163ffffffff1660e01b815260040160206040518083038186803b15801561152757600080fd5b9250509250929050565b6033546001600160a01b0316331461184f5760405162461bcd60e51b81526020600482018190526024820152600080516020614c128339815191526044820152606401610613565b600061185a8461273a565b9050600060d26000836001600160a01b03166001600160a01b0316815260200190815260200160002054826001600160a01b031663961be3916040518163ffffffff1660e01b815260040160206040518083038186803b1580156118bd57600080fd5b505afa1580156118d1573d6000803e3d6000fd5b505050506040513d601f19601f820116820180604052508101906118f591906147b2565b6001600160781b031661193a846001600160a01b0316637284168a6040518163ffffffff1660e01b815260040160206040518083038186803b15801561073a57600080fd5b6119449190614b0d565b61194e9190614b0d565b905080841115611971576040516312b019e160e01b815260040160405180910390fd5b816001600160a01b0316639e79eaa5846119fc856001600160a01b0316637284168a6040518163ffffffff1660e01b815260040160206040518083038186803b1580156119bd57600080fd5b505afa1580156119d1573d6000803e3d6000fd5b505050506040513d601f19601f820116820180604052508101906119f5919061482f565b8890612a8a565b6040517fffffffff0000000000000000000000000000000000000000000000000000000060e085901b1681526001600160a01b0390921660048301526024820152604401600060405180830381600087803b158015611a5a57600080fd5b505af1158015611a6e573d6000803e3d6000fd5b505050505050505050565b60008060026065541415611acf5760405162461bcd60e51b815260206004820152601f60248201527f5265656e7472616e637947756172643a207265656e7472616e742063616c6c006044820152606401610613565b600260655560975460ff1615611b1a5760405162461bcd60e51b815260206004820152601060248201526f14185d5cd8589b194e881c185d5cd95960821b6044820152606401610613565b611b248888612e51565b85611b425760405163b483c10f60e01b815260040160405180910390fd5b611b4b846126b6565b611b5483612832565b611b5d88612aba565b6000611b688961273a565b90506000611b758961273a565b90506000816001600160a01b0316637284168a6040518163ffffffff1660e01b815260040160206040518083038186803b158015611bb257600080fd5b505afa158015611bc6573d6000803e3d6000fd5b505050506040513d601f19601f82011682018060405250810190611bea919061482f565b9050611c7c8383611c6c866001600160a01b0316637284168a6040518163ffffffff1660e01b815260040160206040518083038186803b158015611c2d57600080fd5b505afa158015611c41573d6000803e3d6000fd5b505050506040513d601f19601f82011682018060405250810190611c65919061482f565b8d90612793565b611c768c86612793565b8b612b0d565b9095509350611c8b8582612a8a565b9450611c978482612a8a565b9350611cae6001600160a01b038c1633858c61286c565b604051639e79eaa560e01b81526001600160a01b03888116600483015260248201879052831690639e79eaa590604401600060405180830381600087803b158015611cf857600080fd5b505af1158015611d0c573d6000803e3d6000fd5b5050604080516001600160a01b038f811682528e811660208301529181018d905260608101899052908a1692503391507f54787c404bb33c88e86f4baf88183a3b0141d0a848e6a9f7a13b66ae3a9b73d19060800160405180910390a350506001606555509097909650945050505050565b60026065541415611dd15760405162461bcd60e51b815260206004820152601f60248201527f5265656e7472616e637947756172643a207265656e7472616e742063616c6c006044820152606401610613565b6002606555611dde6126f6565b611162816138e3565b6033546001600160a01b03163314611e2f5760405162461bcd60e51b81526020600482018190526024820152600080516020614c128339815191526044820152606401610613565b670de0b6b3a7640000811115611e58576040516312b019e160e01b815260040160405180910390fd5b60ca55565b6033546001600160a01b03163314611ea55760405162461bcd60e51b81526020600482018190526024820152600080516020614c128339815191526044820152606401610613565b60ce55565b600080611eb68361273a565b905060d26000826001600160a01b03166001600160a01b0316815260200190815260200160002054816001600160a01b031663961be3916040518163ffffffff1660e01b815260040160206040518083038186803b158015611f1757600080fd5b505afa158015611f2b573d6000803e3d6000fd5b505050506040513d601f19601f82011682018060405250810190611f4f91906147b2565b6001600160781b0316612005836001600160a01b0316637284168a6040518163ffffffff1660e01b815260040160206040518083038186803b158015611f9457600080fd5b505afa158015611fa8573d6000803e3d6000fd5b505050506040513d601f19601f82011682018060405250810190611fcc919061482f565b846001600160a01b03166399c91a646040518163ffffffff1660e01b815260040160206040518083038186803b1580156107ab57600080fd5b61200f9190614b0d565b6120199190614b0d565b9392505050565b6033546001600160a01b031633146120685760405162461bcd60e51b81526020600482018190526024820152600080516020614c128339815191526044820152606401610613565b612071816126b6565b60cf80546001600160a01b0319166001600160a01b0392909216919091179055565b6033546001600160a01b031633146120db5760405162461bcd60e51b81526020600482018190526024820152600080516020614c128339815191526044820152606401610613565b6002606554141561212e5760405162461bcd60e51b815260206004820152601f60248201527f5265656e7472616e637947756172643a207265656e7472616e742063616c6c006044820152606401610613565b600260655561213c816126b6565b612145826126b6565b6001600160a01b03808316600090815260d460205260409020541615612197576040517f8991c4c400000000000000000000000000000000000000000000000000000000815260040160405180910390fd5b6001600160a01b03808316600081815260d46020908152604080832080549587166001600160a01b0319968716811790915560d3805460d590945282852084905560018401815584527f915c3eb987b20e1af620c1403197bf687fb7f18513b3a73fde6e78c7072c41a69092018054909516841790945592517f0bb5715f0f217c2fe9a0c877ea87d474380c641102f3440ee2a4c8b9d97909189190a350506001606555565b6000806122498361273a565b9050806001600160a01b03166318160ddd6040518163ffffffff1660e01b815260040160206040518083038186803b15801561228457600080fd5b505afa158015612298573d6000803e3d6000fd5b505050506040513d601f19601f820116820180604052508101906122bc91906147f4565b6122d05750670de0b6b3a764000092915050565b612019816001600160a01b03166318160ddd6040518163ffffffff1660e01b815260040160206040518083038186803b15801561230c57600080fd5b505afa158015612320573d6000803e3d6000fd5b505050506040513d601f19601f8201168201806040525081019061234491906147f4565b826001600160a01b031663705727b56040518163ffffffff1660e01b815260040160206040518083038186803b15801561237d57600080fd5b505afa158015612391573d6000803e3d6000fd5b505050506040513d601f19601f820116820180604052508101906123b591906147b2565b6001600160781b031690613942565b600054610100900460ff166123df5760005460ff16156123e3565b303b155b6124555760405162461bcd60e51b815260206004820152602e60248201527f496e697469616c697a61626c653a20636f6e747261637420697320616c72656160448201527f647920696e697469616c697a65640000000000000000000000000000000000006064820152608401610613565b600054610100900460ff16158015612477576000805461ffff19166101011790555b61247f613962565b6124876139d5565b61248f613a40565b60ca83905560cb829055670de0b6b3a764000060cd5560cf80546001600160a01b0319163317905580156124c9576000805461ff00191690555b505050565b6033546001600160a01b031633146125165760405162461bcd60e51b81526020600482018190526024820152600080516020614c128339815191526044820152606401610613565b6001600160a01b0381166125925760405162461bcd60e51b815260206004820152602660248201527f4f776e61626c653a206e6577206f776e657220697320746865207a65726f206160448201527f64647265737300000000000000000000000000000000000000000000000000006064820152608401610613565b61259b8161342d565b50565b6033546001600160a01b031633146125e65760405162461bcd60e51b81526020600482018190526024820152600080516020614c128339815191526044820152606401610613565b6001600160a01b03811661260d576040516312b019e160e01b815260040160405180910390fd5b60d080546001600160a01b0319166001600160a01b0392909216919091179055565b6033546001600160a01b031633146126775760405162461bcd60e51b81526020600482018190526024820152600080516020614c128339815191526044820152606401610613565b670de0b6b3a76400008111156126a0576040516312b019e160e01b815260040160405180910390fd5b60cb55565b61259b6126b18261273a565b613ab7565b6001600160a01b03811661259b576040517f0bd3e3ed00000000000000000000000000000000000000000000000000000000815260040160405180910390fd5b60cf546001600160a01b031633146116f0576040517f5bf78ef400000000000000000000000000000000000000000000000000000000815260040160405180910390fd5b6001600160a01b03808216600090815260d4602052604081205490911661277457604051633b2c013560e21b815260040160405180910390fd5b506001600160a01b03908116600090815260d460205260409020541690565b600060128260ff1610156127c8576127ac826012614b24565b6127b790600a61497d565b6127c19084614aaf565b90506116fd565b60128260ff1611156127f4576127df601283614b24565b6127ea90600a61497d565b6127c19084614926565b5090919050565b8061259b576040517f3f3835e700000000000000000000000000000000000000000000000000000000815260040160405180910390fd5b4281101561259b576040517f549b633500000000000000000000000000000000000000000000000000000000815260040160405180910390fd5b604080516001600160a01b0385811660248301528416604482015260648082018490528251808303909101815260849091019091526020810180517bffffffffffffffffffffffffffffffffffffffffffffffffffffffff167f23b872dd000000000000000000000000000000000000000000000000000000001790526128f4908590613cf1565b50505050565b600061290584613ab7565b600061291185856136b3565b5090925090506129218383613dd6565b6040517f9dc29fac0000000000000000000000000000000000000000000000000000000081526001600160a01b038616600482018190526024820186905290639dc29fac90604401600060405180830381600087803b15801561298357600080fd5b505af1158015612997573d6000803e3d6000fd5b50506040517f9f9ef988000000000000000000000000000000000000000000000000000000008152600481018590526001600160a01b0388169250639f9ef9889150602401600060405180830381600087803b1580156129f657600080fd5b505af1158015612a0a573d6000803e3d6000fd5b50506040517fd8b87853000000000000000000000000000000000000000000000000000000008152600481018490526001600160a01b038816925063d8b8785391506024015b600060405180830381600087803b158015612a6a57600080fd5b505af1158015612a7e573d6000803e3d6000fd5b50505050509392505050565b600060128260ff161015612aa3576127df826012614b24565b60128260ff1611156127f4576127ac601283614b24565b6001600160a01b038116600090815260c9602052604090205460ff161561259b576040517f8654830a00000000000000000000000000000000000000000000000000000000815260040160405180910390fd5b600080612b1b878787612f2f565b9092509050612b2a8483613dd6565b6001600160a01b038616600090815260d2602052604081208054839290612b529084906148e0565b909155505060405162b64f3d60e51b8152600481018690526001600160a01b038816906316c9e7a090602401600060405180830381600087803b158015612b9857600080fd5b505af1158015612bac573d6000803e3d6000fd5b50505050856001600160a01b0316639f9ef9888284612bcb91906148e0565b6040518263ffffffff1660e01b8152600401612be991815260200190565b600060405180830381600087803b158015612c0357600080fd5b505af1158015612c17573d6000803e3d6000fd5b505050509550959350505050565b6000612c3084613ab7565b6000612c3c85856131f7565b509092509050612c4b826127fb565b60405162b64f3d60e51b8152600481018590526001600160a01b038616906316c9e7a090602401600060405180830381600087803b158015612c8c57600080fd5b505af1158015612ca0573d6000803e3d6000fd5b505060405163283c3d8160e21b8152600481018490526001600160a01b038816925063a0f0f6049150602401600060405180830381600087803b158015612ce657600080fd5b505af1158015612cfa573d6000803e3d6000fd5b50506040517f40c10f190000000000000000000000000000000000000000000000000000000081526001600160a01b03868116600483015260248201869052881692506340c10f199150604401612a50565b612d5581612aba565b6001600160a01b038116600081815260c96020908152604091829020805460ff19166001179055815192835233908301527fdcb65c0553aaa433aadd180404ff195259c48f78aa50f877ebcb4bb215129a4e91015b60405180910390a150565b60975460ff16612e075760405162461bcd60e51b815260206004820152601460248201527f5061757361626c653a206e6f74207061757365640000000000000000000000006044820152606401610613565b6097805460ff191690557f5db9ee0a495bf2e6ff9c91a7834c1ba4fdd244a5e8aa4e537bd38aeae4b073aa335b6040516001600160a01b03909116815260200160405180910390a1565b806001600160a01b0316826001600160a01b03161415612e9d576040517feeb7911f00000000000000000000000000000000000000000000000000000000815260040160405180910390fd5b5050565b6000670de0b6b3a7640000612eb7600282614926565b612ec18486614aaf565b612ecb91906148e0565b6120199190614926565b600060128260ff161015612f0357612eee826012614b24565b612ef990600a61497d565b6127c19084614a28565b60128260ff1611156127f457612f1a601283614b24565b612f2590600a61497d565b6127c190846148f8565b600080600080856001600160a01b031663961be3916040518163ffffffff1660e01b815260040160206040518083038186803b158015612f6e57600080fd5b505afa158015612f82573d6000803e3d6000fd5b505050506040513d601f19601f82011682018060405250810190612fa691906147b2565b6001600160781b0316905061312c876001600160a01b031663961be3916040518163ffffffff1660e01b815260040160206040518083038186803b158015612fed57600080fd5b505afa158015613001573d6000803e3d6000fd5b505050506040513d601f19601f8201168201806040525081019061302591906147b2565b6001600160781b031682896001600160a01b031663705727b56040518163ffffffff1660e01b815260040160206040518083038186803b15801561306857600080fd5b505afa15801561307c573d6000803e3d6000fd5b505050506040513d601f19601f820116820180604052508101906130a091906147b2565b6001600160781b0316896001600160a01b031663705727b56040518163ffffffff1660e01b815260040160206040518083038186803b1580156130e257600080fd5b505afa1580156130f6573d6000803e3d6000fd5b505050506040513d601f19601f8201168201806040525081019061311a91906147b2565b6001600160781b03168960ca54613e10565b915081811015613168576040517f9a6114b700000000000000000000000000000000000000000000000000000000815260040160405180910390fd5b60cb54613176908390612ea1565b925060008513156131925761318b8383614b0d565b9350613196565b8193505b5050935093915050565b60005b60d35481101561259b5760006131d96131bb83613f3d565b6001600160a01b03908116600090815260d460205260409020541690565b90506131e481613ab7565b50806131ef81614b73565b9150506131a3565b60008060006133046132ff85876001600160a01b031663961be3916040518163ffffffff1660e01b815260040160206040518083038186803b15801561323c57600080fd5b505afa158015613250573d6000803e3d6000fd5b505050506040513d601f19601f8201168201806040525081019061327491906147b2565b6001600160781b0316886001600160a01b031663705727b56040518163ffffffff1660e01b815260040160206040518083038186803b1580156132b657600080fd5b505afa1580156132ca573d6000803e3d6000fd5b505050506040513d601f19601f820116820180604052508101906132ee91906147b2565b6001600160781b031660ca54613f70565b6140c7565b91506133108483614b0d565b90506000856001600160a01b031663705727b56040518163ffffffff1660e01b815260040160206040518083038186803b15801561334d57600080fd5b505afa158015613361573d6000803e3d6000fd5b505050506040513d601f19601f8201168201806040525081019061338591906147b2565b6001600160781b0316905080156134215780866001600160a01b03166318160ddd6040518163ffffffff1660e01b815260040160206040518083038186803b1580156133d057600080fd5b505afa1580156133e4573d6000803e3d6000fd5b505050506040513d601f19601f8201168201806040525081019061340891906147f4565b6134129085614aaf565b61341c9190614926565b613423565b825b9350509250925092565b603380546001600160a01b038381166001600160a01b0319831681179093556040519116919082907f8be0079c531659141344cd1fd0a4f28419497f9722a3daafe3b4186f6b6457e090600090a35050565b60975460ff16156134c55760405162461bcd60e51b815260206004820152601060248201526f14185d5cd8589b194e881c185d5cd95960821b6044820152606401610613565b6097805460ff191660011790557f62e78cea01bee320cd4e420270b5ea74000d11b0c9f74754ebdbfc544b05a258612e343390565b60ca546000908190815b60d35481101561368257600061351c6131bb83613f3d565b90506000816001600160a01b031663961be3916040518163ffffffff1660e01b815260040160206040518083038186803b15801561355957600080fd5b505afa15801561356d573d6000803e3d6000fd5b505050506040513d601f19601f8201168201806040525081019061359191906147b2565b6001600160781b031690506000826001600160a01b031663705727b56040518163ffffffff1660e01b815260040160206040518083038186803b1580156135d757600080fd5b505afa1580156135eb573d6000803e3d6000fd5b505050506040513d601f19601f8201168201806040525081019061360f91906147b2565b6001600160781b031690508061362757505050613670565b60006136338383613942565b905061363f82886148e0565b965061365f61364e8783613942565b6136589083614b0d565b8390612ea1565b61366990896148e0565b9750505050505b8061367a81614b73565b915050613504565b50509091565b600080613695858561411d565b61369e90614b8e565b90506136aa8184614151565b95945050505050565b6000806000846001600160a01b03166318160ddd6040518163ffffffff1660e01b815260040160206040518083038186803b1580156136f157600080fd5b505afa158015613705573d6000803e3d6000fd5b505050506040513d601f19601f8201168201806040525081019061372991906147f4565b84866001600160a01b031663705727b56040518163ffffffff1660e01b815260040160206040518083038186803b15801561376357600080fd5b505afa158015613777573d6000803e3d6000fd5b505050506040513d601f19601f8201168201806040525081019061379b91906147b2565b6001600160781b03166137ae9190614aaf565b6137b89190614926565b91506137c3826127fb565b6138ce6132ff6137d284614b8e565b876001600160a01b031663961be3916040518163ffffffff1660e01b815260040160206040518083038186803b15801561380b57600080fd5b505afa15801561381f573d6000803e3d6000fd5b505050506040513d601f19601f8201168201806040525081019061384391906147b2565b6001600160781b0316886001600160a01b031663705727b56040518163ffffffff1660e01b815260040160206040518083038186803b15801561388557600080fd5b505afa158015613899573d6000803e3d6000fd5b505050506040513d601f19601f820116820180604052508101906138bd91906147b2565b6001600160781b031660ca5461419b565b92506138da8383614b0d565b90509250925092565b6138ec81614259565b6001600160a01b038116600081815260c96020908152604091829020805460ff19169055815192835233908301527fdb198487a4c70aa000c3b1020f52688b4b86d3ebcedc84a793e03ed3b480902c9101612daa565b600081613950600282614926565b612ec1670de0b6b3a764000086614aaf565b600054610100900460ff166139cd5760405162461bcd60e51b815260206004820152602b60248201527f496e697469616c697a61626c653a20636f6e7472616374206973206e6f74206960448201526a6e697469616c697a696e6760a81b6064820152608401610613565b6116f06142ab565b600054610100900460ff166111d25760405162461bcd60e51b815260206004820152602b60248201527f496e697469616c697a61626c653a20636f6e7472616374206973206e6f74206960448201526a6e697469616c697a696e6760a81b6064820152608401610613565b600054610100900460ff16613aab5760405162461bcd60e51b815260206004820152602b60248201527f496e697469616c697a61626c653a20636f6e7472616374206973206e6f74206960448201526a6e697469616c697a696e6760a81b6064820152608401610613565b6097805460ff19169055565b6001600160a01b038116600090815260d26020526040902054801580613ade575060ce5481105b15613ae7575050565b6000613b0f60cc5460cd54670de0b6b3a7640000613b059190614b0d565b6136589190614b0d565b90508015613bef57826001600160a01b0316639e79eaa560d060009054906101000a90046001600160a01b0316613b78866001600160a01b0316637284168a6040518163ffffffff1660e01b815260040160206040518083038186803b158015610bf957600080fd5b6040517fffffffff0000000000000000000000000000000000000000000000000000000060e085901b1681526001600160a01b0390921660048301526024820152604401600060405180830381600087803b158015613bd657600080fd5b505af1158015613bea573d6000803e3d6000fd5b505050505b506000613c0760cd5483612ea190919063ffffffff16565b90508015613cd5576000613c1b84836131f7565b5060405163283c3d8160e21b8152600481018290529092506001600160a01b038616915063a0f0f60490602401600060405180830381600087803b158015613c6257600080fd5b505af1158015613c76573d6000803e3d6000fd5b505060405162b64f3d60e51b8152600481018590526001600160a01b03871692506316c9e7a09150602401600060405180830381600087803b158015613cbb57600080fd5b505af1158015613ccf573d6000803e3d6000fd5b50505050505b50506001600160a01b0316600090815260d26020526040812055565b6000613d46826040518060400160405280602081526020017f5361666545524332303a206c6f772d6c6576656c2063616c6c206661696c6564815250856001600160a01b031661431f9092919063ffffffff16565b8051909150156124c95780806020019051810190613d649190614795565b6124c95760405162461bcd60e51b815260206004820152602a60248201527f5361666545524332303a204552433230206f7065726174696f6e20646964206e60448201527f6f742073756363656564000000000000000000000000000000000000000000006064820152608401610613565b80821115612e9d576040517ff512a72000000000000000000000000000000000000000000000000000000000815260040160405180910390fd5b6000841580613e1d575083155b15613e3b57604051630570193360e51b815260040160405180910390fd5b6000613e7b87613e4b8780614a28565b613e5591906148f8565b89613e608980614a28565b613e6a91906148f8565b613e7491906148a1565b849061432e565b613e85888a6148a1565b613e8f9190614ace565b90506000613ea787613ea1878c6148a1565b9061411d565b90506000613eb5838861411d565b87613ec0878561411d565b613eca9085614ace565b613ed4908b614a28565b613ede91906148f8565b613ee89190614ace565b90506000613ef68287614151565b905060008a613f058a8461432e565b613f0f9190614ace565b90506000811215613f2a57613f2381614b8e565b9550613f2e565b8095505b50505050509695505050505050565b600060d36000018281548110613f5557613f55614bed565b6000918252602090912001546001600160a01b031692915050565b600082613f7e5750836140bf565b6000613f8a86866148a1565b1215613fa957604051630570193360e51b815260040160405180910390fd5b6000613fb5858561411d565b90506000613fc386886148a1565b90506000613fd1858761432e565b613fdc906002614a28565b613ff1613e7487670de0b6b3a7640000614ace565b613ffb91906148a1565b905060006140138761400d888261432e565b9061432e565b61401d848061432e565b6140468661402b8b8b614a28565b61403591906148f8565b61403f908c614ace565b869061432e565b6140509190614ace565b61405a91906148a1565b905060008161406a886004614a28565b6140749190614a28565b61407e8480614a28565b6140889190614ace565b905060026140ad8861409a848761434e565b6140a387614b8e565b613ea191906148a1565b6140b791906148f8565b955050505050505b949350505050565b6000808212156141195760405162461bcd60e51b815260206004820152601660248201527f76616c7565206d75737420626520706f736974697665000000000000000000006044820152606401610613565b5090565b60008161412b6002826148f8565b61413d670de0b6b3a764000086614a28565b61414791906148a1565b61201991906148f8565b6000600283614191670de0b6b3a764000061416d866004614a28565b6141779190614a28565b6141818780614a28565b61418b91906148a1565b8661434e565b6141479190614ace565b6000806141a886856148a1565b905060006141b6868661411d565b905060006141d86141c7868461411d565b6141d19084614ace565b879061432e565b9050600060026141fa6141f388670de0b6b3a7640000614ace565b8b9061432e565b61420490846148a1565b61420e91906148f8565b905060006142436142296142228780614a28565b899061432e565b6142338480614a28565b61423d91906148a1565b8361434e565b61424d90836148a1565b90506140b7818a614ace565b6001600160a01b038116600090815260c9602052604090205460ff1661259b576040517f855b737300000000000000000000000000000000000000000000000000000000815260040160405180910390fd5b600054610100900460ff166143165760405162461bcd60e51b815260206004820152602b60248201527f496e697469616c697a61626c653a20636f6e7472616374206973206e6f74206960448201526a6e697469616c697a696e6760a81b6064820152608401610613565b6116f03361342d565b60606140bf8484600085614412565b6000670de0b6b3a76400006143446002826148f8565b61413d8486614a28565b60006003831315614403576000821380156143695750828213155b156143755750806143a5565b60008212801561438d57508261438a83614b8e565b13155b156143a25761439b82614b8e565b90506143a5565b50815b60006002826143b481876148f8565b6143be91906148a1565b6143c891906148f8565b90505b8181146143fd579050806002816143e281876148f8565b6143ec91906148a1565b6143f691906148f8565b90506143cb565b506116fd565b82156116fd5750600192915050565b60608247101561448a5760405162461bcd60e51b815260206004820152602660248201527f416464726573733a20696e73756666696369656e742062616c616e636520666f60448201527f722063616c6c00000000000000000000000000000000000000000000000000006064820152608401610613565b843b6144d85760405162461bcd60e51b815260206004820152601d60248201527f416464726573733a2063616c6c20746f206e6f6e2d636f6e74726163740000006044820152606401610613565b600080866001600160a01b031685876040516144f49190614852565b60006040518083038185875af1925050503d8060008114614531576040519150601f19603f3d011682016040523d82523d6000602084013e614536565b606091505b5091509150614546828286614551565b979650505050505050565b60608315614560575081612019565b8251156145705782518084602001fd5b8160405162461bcd60e51b8152600401610613919061486e565b80356001600160a01b03811681146145a157600080fd5b919050565b6000602082840312156145b857600080fd5b6120198261458a565b600080604083850312156145d457600080fd5b6145dd8361458a565b91506145eb6020840161458a565b90509250929050565b60008060006060848603121561460957600080fd5b6146128461458a565b92506146206020850161458a565b9150604084013590509250925092565b60008060008060008060c0878903121561464957600080fd5b6146528761458a565b95506146606020880161458a565b9450604087013593506060870135925061467c6080880161458a565b915060a087013590509295509295509295565b600080604083850312156146a257600080fd5b6146ab8361458a565b946020939093013593505050565b6000806000606084860312156146ce57600080fd5b6146d78461458a565b9250602084013591506138da6040850161458a565b600080600080600060a0868803121561470457600080fd5b61470d8661458a565b9450602086013593506147226040870161458a565b925060608601359150608086013561473981614c03565b809150509295509295909350565b600080600080600060a0868803121561475f57600080fd5b6147688661458a565b945060208601359350604086013592506147846060870161458a565b949793965091946080013592915050565b6000602082840312156147a757600080fd5b815161201981614c03565b6000602082840312156147c457600080fd5b81516001600160781b038116811461201957600080fd5b6000602082840312156147ed57600080fd5b5035919050565b60006020828403121561480657600080fd5b5051919050565b6000806040838503121561482057600080fd5b50508035926020909101359150565b60006020828403121561484157600080fd5b815160ff8116811461201957600080fd5b60008251614864818460208701614b47565b9190910192915050565b602081526000825180602084015261488d816040850160208701614b47565b601f01601f19169190910160400192915050565b6000808212826001600160ff1b03038413811516156148c2576148c2614bab565b82600160ff1b0384128116156148da576148da614bab565b50500190565b600082198211156148f3576148f3614bab565b500190565b60008261490757614907614bc1565b600160ff1b82146000198414161561492157614921614bab565b500590565b60008261493557614935614bc1565b500490565b600181815b8085111561497557816000190482111561495b5761495b614bab565b8085161561496857918102915b93841c939080029061493f565b509250929050565b600061201960ff841683600082614996575060016116fd565b816149a3575060006116fd565b81600181146149b957600281146149c3576149df565b60019150506116fd565b60ff8411156149d4576149d4614bab565b50506001821b6116fd565b5060208310610133831016604e8410600b8410161715614a02575081810a6116fd565b614a0c838361493a565b8060001904821115614a2057614a20614bab565b029392505050565b60006001600160ff1b03600084136000841385830485118282161615614a5057614a50614bab565b600160ff1b6000871286820588128184161615614a6f57614a6f614bab565b60008712925087820587128484161615614a8b57614a8b614bab565b87850587128184161615614aa157614aa1614bab565b505050929093029392505050565b6000816000190483118215151615614ac957614ac9614bab565b500290565b600080831283600160ff1b01831281151615614aec57614aec614bab565b836001600160ff1b03018313811615614b0757614b07614bab565b50500390565b600082821015614b1f57614b1f614bab565b500390565b600060ff821660ff841680821015614b3e57614b3e614bab565b90039392505050565b60005b83811015614b62578181015183820152602001614b4a565b838111156128f45750506000910152565b6000600019821415614b8757614b87614bab565b5060010190565b6000600160ff1b821415614ba457614ba4614bab565b5060000390565b634e487b7160e01b600052601160045260246000fd5b634e487b7160e01b600052601260045260246000fd5b634e487b7160e01b600052603160045260246000fd5b634e487b7160e01b600052603260045260246000fd5b801515811461259b57600080fdfe4f776e61626c653a2063616c6c6572206973206e6f7420746865206f776e6572a2646970667358221220e24a595f80c6b0b001f0830d1bceaa9186dd17894867f6813b6d02ca2a4f777864736f6c63430008050033",
  "devdoc": {
    "details": "The main entry-point of Wombat protocol Note: All variables are 18 decimals, except from that of underlying tokens",
    "kind": "dev",
    "methods": {
      "addAsset(address,address)": {
        "params": {
          "asset": "The address of the Wombat Asset contract",
          "token": "The address of token"
        }
      },
      "assetOf(address)": {
        "details": "to be used externally",
        "params": {
          "token": "The address of ERC20 token"
        }
      },
      "deposit(address,uint256,address,uint256,bool)": {
        "details": "Asset needs to be created and added to pool before any operation",
        "params": {
          "amount": "The amount to be deposited",
          "deadline": "The deadline to be respected",
          "to": "The user accountable for deposit, receiving the Wombat assets (lp)",
          "token": "The token address to be deposited"
        },
        "returns": {
          "liquidity": "Total asset liquidity minted"
        }
      },
      "exchangeRate(address)": {
        "params": {
          "token": "The address of the token"
        },
        "returns": {
          "exchangeRate": "exchangeRate"
        }
      },
      "mintFee(address)": {
        "params": {
          "token": "The address of the token to collect fee"
        }
      },
      "owner()": {
        "details": "Returns the address of the current owner."
      },
      "pause()": {
        "details": "pause pool, restricting certain operations"
      },
      "pauseAsset(address)": {
        "details": "pause asset, restricting deposit and swap operations"
      },
      "paused()": {
        "details": "Returns true if the contract is paused, and false otherwise."
      },
      "quotePotentialDeposit(address,uint256)": {
        "details": "To be used by frontend",
        "params": {
          "amount": "The amount to deposit",
          "token": "The token to deposit by user"
        },
        "returns": {
          "liquidity": "The potential liquidity user would receive",
          "reward": "reward"
        }
      },
      "quotePotentialSwap(address,address,int256)": {
        "details": "To be used by frontend",
        "params": {
          "fromAmount": "The amount to quote",
          "fromToken": "The initial ERC20 token",
          "toToken": "The token wanted by user"
        },
        "returns": {
          "haircut": "The haircut that would be applied",
          "potentialOutcome": "The potential amount user would receive"
        }
      },
      "quotePotentialWithdraw(address,uint256)": {
        "details": "To be used by frontend",
        "params": {
          "liquidity": "The liquidity (amount of lp assets) to be withdrawn",
          "token": "The token to be withdrawn by user"
        },
        "returns": {
          "amount": "The potential amount user would receive",
          "fee": "The fee that would be applied"
        }
      },
      "removeAsset(address)": {
        "details": "Can only be called by owner",
        "params": {
          "key": "The address of token to remove"
        }
      },
      "renounceOwnership()": {
        "details": "Leaves the contract without owner. It will not be possible to call `onlyOwner` functions anymore. Can only be called by the current owner. NOTE: Renouncing ownership will leave the contract without an owner, thereby removing any functionality that is only available to the owner."
      },
      "setAmpFactor(uint256)": {
        "params": {
          "ampFactor_": "new pool's amplification factor"
        }
      },
      "setDev(address)": {
        "params": {
          "dev_": "new contract dev address"
        }
      },
      "setFeeTo(address)": {
        "params": {
          "feeTo_": "new fee beneficiary"
        }
      },
      "setHaircutRate(uint256)": {
        "params": {
          "haircutRate_": "new pool's haircutRate_"
        }
      },
      "swap(address,address,uint256,uint256,address,uint256)": {
        "params": {
          "deadline": "The deadline to be respected",
          "fromAmount": "The amount of from token inserted",
          "fromToken": "The token being inserted into Pool by user for swap",
          "minimumToAmount": "The minimum amount that will be accepted by user as result",
          "to": "The user receiving the result of swap",
          "toToken": "The token wanted by user, leaving the Pool"
        }
      },
      "transferOwnership(address)": {
        "details": "Transfers ownership of the contract to a new account (`newOwner`). Can only be called by the current owner."
      },
      "unpause()": {
        "details": "unpause pool, enabling certain operations"
      },
      "unpauseAsset(address)": {
        "details": "unpause asset, enabling deposit and swap operations"
      },
      "withdraw(address,uint256,uint256,address,uint256)": {
        "params": {
          "deadline": "The deadline to be respected",
          "liquidity": "The liquidity to be withdrawn",
          "minimumAmount": "The minimum amount that will be accepted by user",
          "to": "The user receiving the withdrawal",
          "token": "The token to be withdrawn"
        },
        "returns": {
          "amount": "The total amount withdrawn"
        }
      },
      "withdrawFromOtherAsset(address,address,uint256,uint256,address,uint256)": {
        "details": "Also, coverage ratio of toAsset must be higher than 1 after withdrawal for this to be accepted",
        "params": {
          "deadline": "The deadline to be respected",
          "fromToken": "The corresponding token user holds the LP (Asset) from",
          "liquidity": "The liquidity to be withdrawn (in fromToken decimal)",
          "minimumAmount": "The minimum amount that will be accepted by user",
          "to": "The user receiving the withdrawal",
          "toToken": "The token wanting to be withdrawn (needs to be well covered)"
        },
        "returns": {
          "toAmount": "The total amount withdrawn"
        }
      }
    },
    "title": "Pool",
    "version": 1
  },
  "userdoc": {
    "events": {
      "AssetAdded(address,address)": {
        "notice": "An event thats emitted when an asset is added to Pool"
      },
      "AssetRemoved(address,address)": {
        "notice": "An event thats emitted when asset is removed from Pool"
      },
      "Deposit(address,address,uint256,uint256,address)": {
        "notice": "An event thats emitted when a deposit is made to Pool"
      },
      "Swap(address,address,address,uint256,uint256,address)": {
        "notice": "An event thats emitted when a swap is made in Pool"
      },
      "Withdraw(address,address,uint256,uint256,address)": {
        "notice": "An event thats emitted when a withdrawal is made from Pool"
      }
    },
    "kind": "user",
    "methods": {
      "addAsset(address,address)": {
        "notice": "Adds asset to pool, reverts if asset already exists in pool"
      },
      "ampFactor()": {
        "notice": "Amplification factor"
      },
      "assetOf(address)": {
        "notice": "Gets Asset corresponding to ERC20 token. Reverts if asset does not exists in Pool."
      },
      "deposit(address,uint256,address,uint256,bool)": {
        "notice": "Deposits amount of tokens into pool ensuring deadline"
      },
      "dev()": {
        "notice": "Dev address"
      },
      "exchangeRate(address)": {
        "notice": "Returns the exchange rate of the LP token"
      },
      "haircutRate()": {
        "notice": "Haircut rate"
      },
      "initialize(uint256,uint256)": {
        "notice": "Initializes pool. Dev is set to be the account calling this function."
      },
      "lpDividendRatio()": {
        "notice": "LP dividend ratio : the ratio of haircut that should distribute to LP"
      },
      "mintFee(address)": {
        "notice": "Send fee collected to the fee beneficiary"
      },
      "mintFeeThreshold()": {
        "notice": "The threshold to mint fee (unit: WAD)"
      },
      "quotePotentialDeposit(address,uint256)": {
        "notice": "Quotes potential deposit from pool"
      },
      "quotePotentialSwap(address,address,int256)": {
        "notice": "Quotes potential outcome of a swap given current state, taking in account slippage and haircut"
      },
      "quotePotentialWithdraw(address,uint256)": {
        "notice": "Quotes potential withdrawal from pool"
      },
      "removeAsset(address)": {
        "notice": "Removes asset from asset struct"
      },
      "retentionRatio()": {
        "notice": "Retention ratio: the ratio of haircut that should stay in the pool"
      },
      "setAmpFactor(uint256)": {
        "notice": "Changes the pools amplification factor. Can only be set by the contract owner."
      },
      "setDev(address)": {
        "notice": "Changes the contract dev. Can only be set by the contract owner."
      },
      "setFeeTo(address)": {
        "notice": "Changes the fee beneficiary. Can only be set by the contract owner. This value cannot be set to 0 to avoid unsettled fee."
      },
      "setHaircutRate(uint256)": {
        "notice": "Changes the pools haircutRate. Can only be set by the contract owner."
      },
      "setMintFeeThreshold(uint256)": {
        "notice": "Set min fee to mint"
      },
      "swap(address,address,uint256,uint256,address,uint256)": {
        "notice": "Swap fromToken for toToken, ensures deadline and minimumToAmount and sends quoted amount to `to` address"
      },
      "withdraw(address,uint256,uint256,address,uint256)": {
        "notice": "Withdraws liquidity amount of asset to `to` address ensuring minimum amount required"
      },
      "withdrawFromOtherAsset(address,address,uint256,uint256,address,uint256)": {
        "notice": "Enables withdrawing liquidity from an asset using LP from a different asset"
      }
    },
    "notice": "Manages deposits, withdrawals and swaps. Holds a mapping of assets and parameters.",
    "version": 1
  },
  "storageLayout": {
    "storage": [
      {
        "astId": 130,
        "contract": "contracts/wombat-core/pool/Pool.sol:Pool",
        "label": "_initialized",
        "offset": 0,
        "slot": "0",
        "type": "t_bool"
      },
      {
        "astId": 133,
        "contract": "contracts/wombat-core/pool/Pool.sol:Pool",
        "label": "_initializing",
        "offset": 1,
        "slot": "0",
        "type": "t_bool"
      },
      {
        "astId": 651,
        "contract": "contracts/wombat-core/pool/Pool.sol:Pool",
        "label": "__gap",
        "offset": 0,
        "slot": "1",
        "type": "t_array(t_uint256)50_storage"
      },
      {
        "astId": 10,
        "contract": "contracts/wombat-core/pool/Pool.sol:Pool",
        "label": "_owner",
        "offset": 0,
        "slot": "51",
        "type": "t_address"
      },
      {
        "astId": 122,
        "contract": "contracts/wombat-core/pool/Pool.sol:Pool",
        "label": "__gap",
        "offset": 0,
        "slot": "52",
        "type": "t_array(t_uint256)49_storage"
      },
      {
        "astId": 322,
        "contract": "contracts/wombat-core/pool/Pool.sol:Pool",
        "label": "_status",
        "offset": 0,
        "slot": "101",
        "type": "t_uint256"
      },
      {
        "astId": 366,
        "contract": "contracts/wombat-core/pool/Pool.sol:Pool",
        "label": "__gap",
        "offset": 0,
        "slot": "102",
        "type": "t_array(t_uint256)49_storage"
      },
      {
        "astId": 218,
        "contract": "contracts/wombat-core/pool/Pool.sol:Pool",
        "label": "_paused",
        "offset": 0,
        "slot": "151",
        "type": "t_bool"
      },
      {
        "astId": 307,
        "contract": "contracts/wombat-core/pool/Pool.sol:Pool",
        "label": "__gap",
        "offset": 0,
        "slot": "152",
        "type": "t_array(t_uint256)49_storage"
      },
      {
        "astId": 5319,
        "contract": "contracts/wombat-core/pool/Pool.sol:Pool",
        "label": "_pausedAssets",
        "offset": 0,
        "slot": "201",
        "type": "t_mapping(t_address,t_bool)"
      },
      {
        "astId": 5450,
        "contract": "contracts/wombat-core/pool/Pool.sol:Pool",
        "label": "ampFactor",
        "offset": 0,
        "slot": "202",
        "type": "t_uint256"
      },
      {
        "astId": 5453,
        "contract": "contracts/wombat-core/pool/Pool.sol:Pool",
        "label": "haircutRate",
        "offset": 0,
        "slot": "203",
        "type": "t_uint256"
      },
      {
        "astId": 5456,
        "contract": "contracts/wombat-core/pool/Pool.sol:Pool",
        "label": "retentionRatio",
        "offset": 0,
        "slot": "204",
        "type": "t_uint256"
      },
      {
        "astId": 5459,
        "contract": "contracts/wombat-core/pool/Pool.sol:Pool",
        "label": "lpDividendRatio",
        "offset": 0,
        "slot": "205",
        "type": "t_uint256"
      },
      {
        "astId": 5462,
        "contract": "contracts/wombat-core/pool/Pool.sol:Pool",
        "label": "mintFeeThreshold",
        "offset": 0,
        "slot": "206",
        "type": "t_uint256"
      },
      {
        "astId": 5465,
        "contract": "contracts/wombat-core/pool/Pool.sol:Pool",
        "label": "dev",
        "offset": 0,
        "slot": "207",
        "type": "t_address"
      },
      {
        "astId": 5467,
        "contract": "contracts/wombat-core/pool/Pool.sol:Pool",
        "label": "feeTo",
        "offset": 0,
        "slot": "208",
        "type": "t_address"
      },
      {
        "astId": 5470,
        "contract": "contracts/wombat-core/pool/Pool.sol:Pool",
        "label": "masterWombat",
        "offset": 0,
        "slot": "209",
        "type": "t_contract(IMasterWombat)11970"
      },
      {
        "astId": 5476,
        "contract": "contracts/wombat-core/pool/Pool.sol:Pool",
        "label": "_feeCollected",
        "offset": 0,
        "slot": "210",
        "type": "t_mapping(t_contract(IAsset)4101,t_uint256)"
      },
      {
        "astId": 5480,
        "contract": "contracts/wombat-core/pool/Pool.sol:Pool",
        "label": "_assets",
        "offset": 0,
        "slot": "211",
        "type": "t_struct(AssetMap)5447_storage"
      }
    ],
    "types": {
      "t_address": {
        "encoding": "inplace",
        "label": "address",
        "numberOfBytes": "20"
      },
      "t_array(t_address)dyn_storage": {
        "base": "t_address",
        "encoding": "dynamic_array",
        "label": "address[]",
        "numberOfBytes": "32"
      },
      "t_array(t_uint256)49_storage": {
        "base": "t_uint256",
        "encoding": "inplace",
        "label": "uint256[49]",
        "numberOfBytes": "1568"
      },
      "t_array(t_uint256)50_storage": {
        "base": "t_uint256",
        "encoding": "inplace",
        "label": "uint256[50]",
        "numberOfBytes": "1600"
      },
      "t_bool": {
        "encoding": "inplace",
        "label": "bool",
        "numberOfBytes": "1"
      },
      "t_contract(IAsset)4101": {
        "encoding": "inplace",
        "label": "contract IAsset",
        "numberOfBytes": "20"
      },
      "t_contract(IMasterWombat)11970": {
        "encoding": "inplace",
        "label": "contract IMasterWombat",
        "numberOfBytes": "20"
      },
      "t_mapping(t_address,t_bool)": {
        "encoding": "mapping",
        "key": "t_address",
        "label": "mapping(address => bool)",
        "numberOfBytes": "32",
        "value": "t_bool"
      },
      "t_mapping(t_address,t_contract(IAsset)4101)": {
        "encoding": "mapping",
        "key": "t_address",
        "label": "mapping(address => contract IAsset)",
        "numberOfBytes": "32",
        "value": "t_contract(IAsset)4101"
      },
      "t_mapping(t_address,t_uint256)": {
        "encoding": "mapping",
        "key": "t_address",
        "label": "mapping(address => uint256)",
        "numberOfBytes": "32",
        "value": "t_uint256"
      },
      "t_mapping(t_contract(IAsset)4101,t_uint256)": {
        "encoding": "mapping",
        "key": "t_contract(IAsset)4101",
        "label": "mapping(contract IAsset => uint256)",
        "numberOfBytes": "32",
        "value": "t_uint256"
      },
      "t_struct(AssetMap)5447_storage": {
        "encoding": "inplace",
        "label": "struct Pool.AssetMap",
        "members": [
          {
            "astId": 5437,
            "contract": "contracts/wombat-core/pool/Pool.sol:Pool",
            "label": "keys",
            "offset": 0,
            "slot": "0",
            "type": "t_array(t_address)dyn_storage"
          },
          {
            "astId": 5442,
            "contract": "contracts/wombat-core/pool/Pool.sol:Pool",
            "label": "values",
            "offset": 0,
            "slot": "1",
            "type": "t_mapping(t_address,t_contract(IAsset)4101)"
          },
          {
            "astId": 5446,
            "contract": "contracts/wombat-core/pool/Pool.sol:Pool",
            "label": "indexOf",
            "offset": 0,
            "slot": "2",
            "type": "t_mapping(t_address,t_uint256)"
          }
        ],
        "numberOfBytes": "96"
      },
      "t_uint256": {
        "encoding": "inplace",
        "label": "uint256",
        "numberOfBytes": "32"
      }
    }
  }
}