{
  "address": "0xDa01302C86ECcd5bc94c1086777acF3c3Af7EF63",
  "abi": [
    {
      "anonymous": false,
      "inputs": [
        {
          "indexed": true,
          "internalType": "address",
          "name": "token",
          "type": "address"
        },
        {
          "indexed": true,
          "internalType": "address",
          "name": "asset",
          "type": "address"
        }
      ],
      "name": "AssetAdded",
      "type": "event"
    },
    {
      "anonymous": false,
      "inputs": [
        {
          "indexed": true,
          "internalType": "address",
          "name": "sender",
          "type": "address"
        },
        {
          "indexed": false,
          "internalType": "address",
          "name": "token",
          "type": "address"
        },
        {
          "indexed": false,
          "internalType": "uint256",
          "name": "amount",
          "type": "uint256"
        },
        {
          "indexed": false,
          "internalType": "uint256",
          "name": "liquidity",
          "type": "uint256"
        },
        {
          "indexed": true,
          "internalType": "address",
          "name": "to",
          "type": "address"
        }
      ],
      "name": "Deposit",
      "type": "event"
    },
    {
      "anonymous": false,
      "inputs": [
        {
          "indexed": true,
          "internalType": "address",
          "name": "previousOwner",
          "type": "address"
        },
        {
          "indexed": true,
          "internalType": "address",
          "name": "newOwner",
          "type": "address"
        }
      ],
      "name": "OwnershipTransferred",
      "type": "event"
    },
    {
      "anonymous": false,
      "inputs": [
        {
          "indexed": false,
          "internalType": "address",
          "name": "account",
          "type": "address"
        }
      ],
      "name": "Paused",
      "type": "event"
    },
    {
      "anonymous": false,
      "inputs": [
        {
          "indexed": true,
          "internalType": "address",
          "name": "sender",
          "type": "address"
        },
        {
          "indexed": false,
          "internalType": "address",
          "name": "fromToken",
          "type": "address"
        },
        {
          "indexed": false,
          "internalType": "address",
          "name": "toToken",
          "type": "address"
        },
        {
          "indexed": false,
          "internalType": "uint256",
          "name": "fromAmount",
          "type": "uint256"
        },
        {
          "indexed": false,
          "internalType": "uint256",
          "name": "toAmount",
          "type": "uint256"
        },
        {
          "indexed": true,
          "internalType": "address",
          "name": "to",
          "type": "address"
        }
      ],
      "name": "Swap",
      "type": "event"
    },
    {
      "anonymous": false,
      "inputs": [
        {
          "indexed": false,
          "internalType": "address",
          "name": "account",
          "type": "address"
        }
      ],
      "name": "Unpaused",
      "type": "event"
    },
    {
      "anonymous": false,
      "inputs": [
        {
          "indexed": true,
          "internalType": "address",
          "name": "sender",
          "type": "address"
        },
        {
          "indexed": false,
          "internalType": "address",
          "name": "token",
          "type": "address"
        },
        {
          "indexed": false,
          "internalType": "uint256",
          "name": "amount",
          "type": "uint256"
        },
        {
          "indexed": false,
          "internalType": "uint256",
          "name": "liquidity",
          "type": "uint256"
        },
        {
          "indexed": true,
          "internalType": "address",
          "name": "to",
          "type": "address"
        }
      ],
      "name": "Withdraw",
      "type": "event"
    },
    {
      "inputs": [],
      "name": "WAD",
      "outputs": [
        {
          "internalType": "uint256",
          "name": "",
          "type": "uint256"
        }
      ],
      "stateMutability": "view",
      "type": "function"
    },
    {
      "inputs": [],
      "name": "WAD_i",
      "outputs": [
        {
          "internalType": "int256",
          "name": "",
          "type": "int256"
        }
      ],
      "stateMutability": "view",
      "type": "function"
    },
    {
      "inputs": [
        {
          "internalType": "address",
          "name": "token",
          "type": "address"
        },
        {
          "internalType": "address",
          "name": "asset",
          "type": "address"
        }
      ],
      "name": "addAsset",
      "outputs": [],
      "stateMutability": "nonpayable",
      "type": "function"
    },
    {
      "inputs": [
        {
          "internalType": "address",
          "name": "token",
          "type": "address"
        }
      ],
      "name": "assetOf",
      "outputs": [
        {
          "internalType": "address",
          "name": "",
          "type": "address"
        }
      ],
      "stateMutability": "view",
      "type": "function"
    },
    {
      "inputs": [
        {
          "internalType": "address",
          "name": "token",
          "type": "address"
        },
        {
          "internalType": "uint256",
          "name": "amount",
          "type": "uint256"
        },
        {
          "internalType": "address",
          "name": "to",
          "type": "address"
        },
        {
          "internalType": "uint256",
          "name": "deadline",
          "type": "uint256"
        }
      ],
      "name": "deposit",
      "outputs": [
        {
          "internalType": "uint256",
          "name": "liquidity",
          "type": "uint256"
        }
      ],
      "stateMutability": "nonpayable",
      "type": "function"
    },
    {
      "inputs": [],
      "name": "getAmpFactor",
      "outputs": [
        {
          "internalType": "uint256",
          "name": "",
          "type": "uint256"
        }
      ],
      "stateMutability": "view",
      "type": "function"
    },
    {
      "inputs": [],
      "name": "getDev",
      "outputs": [
        {
          "internalType": "address",
          "name": "",
          "type": "address"
        }
      ],
      "stateMutability": "view",
      "type": "function"
    },
    {
      "inputs": [],
      "name": "getHaircutRate",
      "outputs": [
        {
          "internalType": "uint256",
          "name": "",
          "type": "uint256"
        }
      ],
      "stateMutability": "view",
      "type": "function"
    },
    {
      "inputs": [],
      "name": "getRetentionRatio",
      "outputs": [
        {
          "internalType": "uint256",
          "name": "",
          "type": "uint256"
        }
      ],
      "stateMutability": "view",
      "type": "function"
    },
    {
      "inputs": [],
      "name": "initialize",
      "outputs": [],
      "stateMutability": "nonpayable",
      "type": "function"
    },
    {
      "inputs": [],
      "name": "owner",
      "outputs": [
        {
          "internalType": "address",
          "name": "",
          "type": "address"
        }
      ],
      "stateMutability": "view",
      "type": "function"
    },
    {
      "inputs": [],
      "name": "pause",
      "outputs": [],
      "stateMutability": "nonpayable",
      "type": "function"
    },
    {
      "inputs": [],
      "name": "paused",
      "outputs": [
        {
          "internalType": "bool",
          "name": "",
          "type": "bool"
        }
      ],
      "stateMutability": "view",
      "type": "function"
    },
    {
      "inputs": [
        {
          "internalType": "address",
          "name": "fromToken",
          "type": "address"
        },
        {
          "internalType": "address",
          "name": "toToken",
          "type": "address"
        },
        {
          "internalType": "uint256",
          "name": "fromAmount",
          "type": "uint256"
        }
      ],
      "name": "quotePotentialSwap",
      "outputs": [
        {
          "internalType": "uint256",
          "name": "potentialOutcome",
          "type": "uint256"
        },
        {
          "internalType": "uint256",
          "name": "haircut",
          "type": "uint256"
        }
      ],
      "stateMutability": "view",
      "type": "function"
    },
    {
      "inputs": [
        {
          "internalType": "address",
          "name": "token",
          "type": "address"
        },
        {
          "internalType": "uint256",
          "name": "liquidity",
          "type": "uint256"
        }
      ],
      "name": "quotePotentialWithdraw",
      "outputs": [
        {
          "internalType": "uint256",
          "name": "amount",
          "type": "uint256"
        },
        {
          "internalType": "uint256",
          "name": "fee",
          "type": "uint256"
        },
        {
          "internalType": "bool",
          "name": "enoughCash",
          "type": "bool"
        }
      ],
      "stateMutability": "view",
      "type": "function"
    },
    {
      "inputs": [],
      "name": "renounceOwnership",
      "outputs": [],
      "stateMutability": "nonpayable",
      "type": "function"
    },
    {
      "inputs": [
        {
          "internalType": "uint256",
          "name": "ampFactor_",
          "type": "uint256"
        }
      ],
      "name": "setAmpFactor",
      "outputs": [],
      "stateMutability": "nonpayable",
      "type": "function"
    },
    {
      "inputs": [
        {
          "internalType": "address",
          "name": "dev",
          "type": "address"
        }
      ],
      "name": "setDev",
      "outputs": [],
      "stateMutability": "nonpayable",
      "type": "function"
    },
    {
      "inputs": [
        {
          "internalType": "uint256",
          "name": "haircutRate_",
          "type": "uint256"
        }
      ],
      "name": "setHaircutRate",
      "outputs": [],
      "stateMutability": "nonpayable",
      "type": "function"
    },
    {
      "inputs": [
        {
          "internalType": "uint256",
          "name": "retentionRatio_",
          "type": "uint256"
        }
      ],
      "name": "setRetentionRatio",
      "outputs": [],
      "stateMutability": "nonpayable",
      "type": "function"
    },
    {
      "inputs": [
        {
          "internalType": "address",
          "name": "fromToken",
          "type": "address"
        },
        {
          "internalType": "address",
          "name": "toToken",
          "type": "address"
        },
        {
          "internalType": "uint256",
          "name": "fromAmount",
          "type": "uint256"
        },
        {
          "internalType": "uint256",
          "name": "minimumToAmount",
          "type": "uint256"
        },
        {
          "internalType": "address",
          "name": "to",
          "type": "address"
        },
        {
          "internalType": "uint256",
          "name": "deadline",
          "type": "uint256"
        }
      ],
      "name": "swap",
      "outputs": [],
      "stateMutability": "nonpayable",
      "type": "function"
    },
    {
      "inputs": [
        {
          "internalType": "address",
          "name": "newOwner",
          "type": "address"
        }
      ],
      "name": "transferOwnership",
      "outputs": [],
      "stateMutability": "nonpayable",
      "type": "function"
    },
    {
      "inputs": [],
      "name": "unpause",
      "outputs": [],
      "stateMutability": "nonpayable",
      "type": "function"
    },
    {
      "inputs": [
        {
          "internalType": "address",
          "name": "token",
          "type": "address"
        },
        {
          "internalType": "uint256",
          "name": "liquidity",
          "type": "uint256"
        },
        {
          "internalType": "uint256",
          "name": "minimumAmount",
          "type": "uint256"
        },
        {
          "internalType": "address",
          "name": "to",
          "type": "address"
        },
        {
          "internalType": "uint256",
          "name": "deadline",
          "type": "uint256"
        }
      ],
      "name": "withdraw",
      "outputs": [
        {
          "internalType": "uint256",
          "name": "amount",
          "type": "uint256"
        }
      ],
      "stateMutability": "nonpayable",
      "type": "function"
    }
  ],
  "transactionHash": "0x8d1e9ec7e0b6b85b16a795481013d1ed9faa996ebd1fe24cc6dad850354129bf",
  "args": [],
  "solcInputHash": "2056052c14356e05f0c4186c5a962309",
  "bytecode": "0x608060405266b1a2bc2ec5000060c95566016bcc41e9000060ca55670de0b6b3a764000060cb5534801561003257600080fd5b506144a7806100426000396000f3fe608060405234801561001057600080fd5b50600436106101985760003560e01c80638456cb59116100e3578063cb733d7a1161008c578063da56c0d111610066578063da56c0d11461024b578063f2fde38b14610335578063f57e84d51461034857600080fd5b8063cb733d7a14610307578063d477f05f1461030f578063da4899971461032257600080fd5b806390d25074116100bd57806390d25074146102ce5780639908fc8b146102e15780639e4416b7146102f457600080fd5b80638456cb59146102855780638da5cb5b1461028d578063907448ed1461029e57600080fd5b8063687f38931161014557806371f962111161011f57806371f96211146102625780637fdd5a8e146102755780638129fc1c1461027d57600080fd5b8063687f3893146102435780636a1460241461024b578063715018a61461025a57600080fd5b806343c2e2f51161017657806343c2e2f5146101f257806344db964a1461021a5780635c975abb1461022d57600080fd5b806309a5fca31461019d57806309bb9267146101c35780633f4ba83a146101e8575b600080fd5b6101b06101ab366004613d16565b61035b565b6040519081526020015b60405180910390f35b60cc546001600160a01b03165b6040516001600160a01b0390911681526020016101ba565b6101f06105d6565b005b610205610200366004613bfa565b610697565b604080519283526020830191909152016101ba565b6101f0610228366004613d8a565b6109ea565b60975460ff1660405190151581526020016101ba565b6101b0610ac7565b6101b0670de0b6b3a764000081565b6101f0610b2b565b6101d0610270366004613b87565b610b91565b6101b0610ba2565b6101f0610c06565b6101f0610d27565b6033546001600160a01b03166101d0565b6102b16102ac366004613ca2565b610de1565b6040805193845260208401929092521515908201526060016101ba565b6101b06102dc366004613cce565b610f54565b6101f06102ef366004613c3b565b6111df565b6101f0610302366004613d8a565b6118db565b6101b0611992565b6101f061031d366004613b87565b6119f6565b6101f0610330366004613bc1565b611ae0565b6101f0610343366004613b87565b611d1a565b6101f0610356366004613d8a565b611df9565b600081428110156103b35760405162461bcd60e51b815260206004820152600f60248201527f576f6d6261743a2045585049524544000000000000000000000000000000000060448201526064015b60405180910390fd5b600260655414156104065760405162461bcd60e51b815260206004820152601f60248201527f5265656e7472616e637947756172643a207265656e7472616e742063616c6c0060448201526064016103aa565b600260655560975460ff161561045e5760405162461bcd60e51b815260206004820152601060248201527f5061757361626c653a207061757365640000000000000000000000000000000060448201526064016103aa565b600086116104ae5760405162461bcd60e51b815260206004820152601960248201527f576f6d6261743a205a45524f5f41535345545f414d4f554e540000000000000060448201526064016103aa565b6001600160a01b0387166105045760405162461bcd60e51b815260206004820152601460248201527f576f6d6261743a205a45524f5f4144445245535300000000000000000000000060448201526064016103aa565b6001600160a01b03841661055a5760405162461bcd60e51b815260206004820152601460248201527f576f6d6261743a205a45524f5f4144445245535300000000000000000000000060448201526064016103aa565b600061056588611ed6565b905061057381888888611f5e565b604080516001600160a01b038b81168252602082018490529181018a905291945086169033907ffb80d861da582b723be2d19507ce3e03851820c464abea89156ec77e089b1ad99060600160405180910390a35050600160655595945050505050565b60cc546001600160a01b031633146106305760405162461bcd60e51b815260206004820152601160248201527f576f6d6261743a20464f5242494444454e00000000000000000000000000000060448201526064016103aa565b600260655414156106835760405162461bcd60e51b815260206004820152601f60248201527f5265656e7472616e637947756172643a207265656e7472616e742063616c6c0060448201526064016103aa565b60026065556106906121bb565b6001606555565b6000806106a660975460ff1690565b156106f35760405162461bcd60e51b815260206004820152601060248201527f5061757361626c653a207061757365640000000000000000000000000000000060448201526064016103aa565b6001600160a01b0385166107495760405162461bcd60e51b815260206004820152601460248201527f576f6d6261743a205a45524f5f4144445245535300000000000000000000000060448201526064016103aa565b6001600160a01b03841661079f5760405162461bcd60e51b815260206004820152601460248201527f576f6d6261743a205a45524f5f4144445245535300000000000000000000000060448201526064016103aa565b836001600160a01b0316856001600160a01b031614156108015760405162461bcd60e51b815260206004820152601460248201527f576f6d6261743a2053414d455f4144445245535300000000000000000000000060448201526064016103aa565b600083116108515760405162461bcd60e51b815260206004820152601860248201527f576f6d6261743a205a45524f5f46524f4d5f414d4f554e54000000000000000060448201526064016103aa565b600061085c86611ed6565b9050600061086986611ed6565b9050816001600160a01b0316637e1317fa6040518163ffffffff1660e01b815260040160206040518083038186803b1580156108a457600080fd5b505afa1580156108b8573d6000803e3d6000fd5b505050506040513d601f19601f820116820180604052508101906108dc9190613ba4565b6001600160a01b0316816001600160a01b0316637e1317fa6040518163ffffffff1660e01b815260040160206040518083038186803b15801561091e57600080fd5b505afa158015610932573d6000803e3d6000fd5b505050506040513d601f19601f820116820180604052508101906109569190613ba4565b6001600160a01b0316146109d15760405162461bcd60e51b8152602060048201526024808201527f576f6d6261743a20494e544552504f4f4c5f535741505f4e4f545f535550504f60448201527f525445440000000000000000000000000000000000000000000000000000000060648201526084016103aa565b6109dc828287612275565b909890975095505050505050565b6033546001600160a01b03163314610a445760405162461bcd60e51b815260206004820181905260248201527f4f776e61626c653a2063616c6c6572206973206e6f7420746865206f776e657260448201526064016103aa565b670de0b6b3a7640000811115610ac25760405162461bcd60e51b815260206004820152602560248201527f576f6d6261743a20726574656e74696f6e526174696f2073686f756c6420626560448201527f203c3d203100000000000000000000000000000000000000000000000000000060648201526084016103aa565b60cb55565b6033546000906001600160a01b03163314610b245760405162461bcd60e51b815260206004820181905260248201527f4f776e61626c653a2063616c6c6572206973206e6f7420746865206f776e657260448201526064016103aa565b5060c95490565b6033546001600160a01b03163314610b855760405162461bcd60e51b815260206004820181905260248201527f4f776e61626c653a2063616c6c6572206973206e6f7420746865206f776e657260448201526064016103aa565b610b8f60006123f3565b565b6000610b9c82611ed6565b92915050565b6033546000906001600160a01b03163314610bff5760405162461bcd60e51b815260206004820181905260248201527f4f776e61626c653a2063616c6c6572206973206e6f7420746865206f776e657260448201526064016103aa565b5060ca5490565b600054610100900460ff1680610c1f575060005460ff16155b610c915760405162461bcd60e51b815260206004820152602e60248201527f496e697469616c697a61626c653a20636f6e747261637420697320616c72656160448201527f647920696e697469616c697a656400000000000000000000000000000000000060648201526084016103aa565b600054610100900460ff16158015610cb3576000805461ffff19166101011790555b610cbb61245d565b610cc361254b565b610ccb61262e565b60cc80547fffffffffffffffffffffffff000000000000000000000000000000000000000016331790558015610d2457600080547fffffffffffffffffffffffffffffffffffffffffffffffffffffffffffff00ff1690555b50565b60cc546001600160a01b03163314610d815760405162461bcd60e51b815260206004820152601160248201527f576f6d6261743a20464f5242494444454e00000000000000000000000000000060448201526064016103aa565b60026065541415610dd45760405162461bcd60e51b815260206004820152601f60248201527f5265656e7472616e637947756172643a207265656e7472616e742063616c6c0060448201526064016103aa565b6002606555610690612734565b6000806000610df260975460ff1690565b15610e3f5760405162461bcd60e51b815260206004820152601060248201527f5061757361626c653a207061757365640000000000000000000000000000000060448201526064016103aa565b6001600160a01b038516610e955760405162461bcd60e51b815260206004820152601460248201527f576f6d6261743a205a45524f5f4144445245535300000000000000000000000060448201526064016103aa565b60008411610f0b5760405162461bcd60e51b815260206004820152602b60248201527f576f6d6261743a206c6971756964697479206d7573742062652067726561746560448201527f72207468616e207a65726f00000000000000000000000000000000000000000060648201526084016103aa565b6000610f1686611ed6565b90506000610f2482876127da565b9196509094509050610f368482614398565b851015610f465760009250610f4b565b600192505b50509250925092565b60008142811015610fa75760405162461bcd60e51b815260206004820152600f60248201527f576f6d6261743a2045585049524544000000000000000000000000000000000060448201526064016103aa565b60026065541415610ffa5760405162461bcd60e51b815260206004820152601f60248201527f5265656e7472616e637947756172643a207265656e7472616e742063616c6c0060448201526064016103aa565b600260655560975460ff16156110525760405162461bcd60e51b815260206004820152601060248201527f5061757361626c653a207061757365640000000000000000000000000000000060448201526064016103aa565b600085116110a25760405162461bcd60e51b815260206004820152601360248201527f576f6d6261743a205a45524f5f414d4f554e540000000000000000000000000060448201526064016103aa565b6001600160a01b0386166110f85760405162461bcd60e51b815260206004820152601460248201527f576f6d6261743a205a45524f5f4144445245535300000000000000000000000060448201526064016103aa565b6001600160a01b03841661114e5760405162461bcd60e51b815260206004820152601460248201527f576f6d6261743a205a45524f5f4144445245535300000000000000000000000060448201526064016103aa565b85600061115a82611ed6565b90506111716001600160a01b03831633838a612b5f565b61117c818888612bed565b604080516001600160a01b038b81168252602082018b905291810183905291955087169033907ff5dd9317b9e63ac316ce44acc85f670b54b339cfa3e9076e1dd55065b922314b9060600160405180910390a35050600160655550949350505050565b80428110156112305760405162461bcd60e51b815260206004820152600f60248201527f576f6d6261743a2045585049524544000000000000000000000000000000000060448201526064016103aa565b600260655414156112835760405162461bcd60e51b815260206004820152601f60248201527f5265656e7472616e637947756172643a207265656e7472616e742063616c6c0060448201526064016103aa565b600260655560975460ff16156112db5760405162461bcd60e51b815260206004820152601060248201527f5061757361626c653a207061757365640000000000000000000000000000000060448201526064016103aa565b6001600160a01b0387166113315760405162461bcd60e51b815260206004820152601460248201527f576f6d6261743a205a45524f5f4144445245535300000000000000000000000060448201526064016103aa565b6001600160a01b0386166113875760405162461bcd60e51b815260206004820152601460248201527f576f6d6261743a205a45524f5f4144445245535300000000000000000000000060448201526064016103aa565b856001600160a01b0316876001600160a01b031614156113e95760405162461bcd60e51b815260206004820152601460248201527f576f6d6261743a2053414d455f4144445245535300000000000000000000000060448201526064016103aa565b600085116114395760405162461bcd60e51b815260206004820152601860248201527f576f6d6261743a205a45524f5f46524f4d5f414d4f554e54000000000000000060448201526064016103aa565b6001600160a01b03831661148f5760405162461bcd60e51b815260206004820152601460248201527f576f6d6261743a205a45524f5f4144445245535300000000000000000000000060448201526064016103aa565b86600061149b82611ed6565b905060006114a889611ed6565b9050816001600160a01b0316637e1317fa6040518163ffffffff1660e01b815260040160206040518083038186803b1580156114e357600080fd5b505afa1580156114f7573d6000803e3d6000fd5b505050506040513d601f19601f8201168201806040525081019061151b9190613ba4565b6001600160a01b0316816001600160a01b0316637e1317fa6040518163ffffffff1660e01b815260040160206040518083038186803b15801561155d57600080fd5b505afa158015611571573d6000803e3d6000fd5b505050506040513d601f19601f820116820180604052508101906115959190613ba4565b6001600160a01b0316146116105760405162461bcd60e51b8152602060048201526024808201527f576f6d6261743a20494e544552504f4f4c5f535741505f4e4f545f535550504f60448201527f525445440000000000000000000000000000000000000000000000000000000060648201526084016103aa565b60008061161e84848c612275565b91509150818911156116725760405162461bcd60e51b815260206004820152601660248201527f576f6d6261743a20414d4f554e545f544f4f5f4c4f570000000000000000000060448201526064016103aa565b6116876001600160a01b03861633868d612b5f565b6040517f16c9e7a0000000000000000000000000000000000000000000000000000000008152600481018b90526001600160a01b038516906316c9e7a090602401600060405180830381600087803b1580156116e257600080fd5b505af11580156116f6573d6000803e3d6000fd5b50506040517f9f9ef988000000000000000000000000000000000000000000000000000000008152600481018590526001600160a01b0386169250639f9ef9889150602401600060405180830381600087803b15801561175557600080fd5b505af1158015611769573d6000803e3d6000fd5b50505050826001600160a01b031663a0f0f6046117888360cb54613016565b6040518263ffffffff1660e01b81526004016117a691815260200190565b600060405180830381600087803b1580156117c057600080fd5b505af11580156117d4573d6000803e3d6000fd5b50506040517f9e79eaa50000000000000000000000000000000000000000000000000000000081526001600160a01b038b811660048301526024820186905286169250639e79eaa59150604401600060405180830381600087803b15801561183b57600080fd5b505af115801561184f573d6000803e3d6000fd5b50505050876001600160a01b0316336001600160a01b03167f54787c404bb33c88e86f4baf88183a3b0141d0a848e6a9f7a13b66ae3a9b73d18e8e8e876040516118c094939291906001600160a01b0394851681529290931660208301526040820152606081019190915260800190565b60405180910390a35050600160655550505050505050505050565b6033546001600160a01b031633146119355760405162461bcd60e51b815260206004820181905260248201527f4f776e61626c653a2063616c6c6572206973206e6f7420746865206f776e657260448201526064016103aa565b670de0b6b3a764000081111561198d5760405162461bcd60e51b815260206004820181905260248201527f576f6d6261743a20616d70466163746f722073686f756c64206265203c3d203160448201526064016103aa565b60c955565b6033546000906001600160a01b031633146119ef5760405162461bcd60e51b815260206004820181905260248201527f4f776e61626c653a2063616c6c6572206973206e6f7420746865206f776e657260448201526064016103aa565b5060cb5490565b6033546001600160a01b03163314611a505760405162461bcd60e51b815260206004820181905260248201527f4f776e61626c653a2063616c6c6572206973206e6f7420746865206f776e657260448201526064016103aa565b6001600160a01b038116611aa65760405162461bcd60e51b815260206004820152601e60248201527f576f6d6261743a20616464726573732063616e6e6f74206265207a65726f000060448201526064016103aa565b60cc80547fffffffffffffffffffffffff0000000000000000000000000000000000000000166001600160a01b0392909216919091179055565b6033546001600160a01b03163314611b3a5760405162461bcd60e51b815260206004820181905260248201527f4f776e61626c653a2063616c6c6572206973206e6f7420746865206f776e657260448201526064016103aa565b60026065541415611b8d5760405162461bcd60e51b815260206004820152601f60248201527f5265656e7472616e637947756172643a207265656e7472616e742063616c6c0060448201526064016103aa565b60026065556001600160a01b038216611be85760405162461bcd60e51b815260206004820152601460248201527f576f6d6261743a205a45524f5f4144445245535300000000000000000000000060448201526064016103aa565b6001600160a01b038116611c3e5760405162461bcd60e51b815260206004820152601460248201527f576f6d6261743a205a45524f5f4144445245535300000000000000000000000060448201526064016103aa565b6001600160a01b03828116600090815260cd60205260409020541615611ca65760405162461bcd60e51b815260206004820152601460248201527f576f6d6261743a2041535345545f45584953545300000000000000000000000060448201526064016103aa565b6001600160a01b03828116600081815260cd602052604080822080547fffffffffffffffffffffffff0000000000000000000000000000000000000000169486169485179055517f0bb5715f0f217c2fe9a0c877ea87d474380c641102f3440ee2a4c8b9d97909189190a350506001606555565b6033546001600160a01b03163314611d745760405162461bcd60e51b815260206004820181905260248201527f4f776e61626c653a2063616c6c6572206973206e6f7420746865206f776e657260448201526064016103aa565b6001600160a01b038116611df05760405162461bcd60e51b815260206004820152602660248201527f4f776e61626c653a206e6577206f776e657220697320746865207a65726f206160448201527f646472657373000000000000000000000000000000000000000000000000000060648201526084016103aa565b610d24816123f3565b6033546001600160a01b03163314611e535760405162461bcd60e51b815260206004820181905260248201527f4f776e61626c653a2063616c6c6572206973206e6f7420746865206f776e657260448201526064016103aa565b670de0b6b3a7640000811115611ed15760405162461bcd60e51b815260206004820152602260248201527f576f6d6261743a2068616972637574526174652073686f756c64206265203c3d60448201527f203100000000000000000000000000000000000000000000000000000000000060648201526084016103aa565b60ca55565b6001600160a01b03818116600090815260cd6020526040812054909116611f3f5760405162461bcd60e51b815260206004820152601760248201527f576f6d6261743a2041535345545f4e4f545f455849535400000000000000000060448201526064016103aa565b506001600160a01b03908116600090815260cd60205260409020541690565b6000611f756001600160a01b038616338787612b5f565b6000611f8186866127da565b50909250905081841115611fd75760405162461bcd60e51b815260206004820152601660248201527f576f6d6261743a20414d4f554e545f544f4f5f4c4f570000000000000000000060448201526064016103aa565b6040517f9dc29fac0000000000000000000000000000000000000000000000000000000081526001600160a01b038716600482018190526024820187905290639dc29fac90604401600060405180830381600087803b15801561203957600080fd5b505af115801561204d573d6000803e3d6000fd5b50506040517f9f9ef988000000000000000000000000000000000000000000000000000000008152600481018590526001600160a01b0389169250639f9ef9889150602401600060405180830381600087803b1580156120ac57600080fd5b505af11580156120c0573d6000803e3d6000fd5b50506040517fd8b87853000000000000000000000000000000000000000000000000000000008152600481018490526001600160a01b038916925063d8b878539150602401600060405180830381600087803b15801561211f57600080fd5b505af1158015612133573d6000803e3d6000fd5b50506040517f9e79eaa50000000000000000000000000000000000000000000000000000000081526001600160a01b0386811660048301526024820186905289169250639e79eaa59150604401600060405180830381600087803b15801561219a57600080fd5b505af11580156121ae573d6000803e3d6000fd5b5050505050949350505050565b60975460ff1661220d5760405162461bcd60e51b815260206004820152601460248201527f5061757361626c653a206e6f742070617573656400000000000000000000000060448201526064016103aa565b609780547fffffffffffffffffffffffffffffffffffffffffffffffffffffffffffffff001690557f5db9ee0a495bf2e6ff9c91a7834c1ba4fdd244a5e8aa4e537bd38aeae4b073aa335b6040516001600160a01b03909116815260200160405180910390a1565b6000806000846001600160a01b031663313ce5676040518163ffffffff1660e01b815260040160206040518083038186803b1580156122b357600080fd5b505afa1580156122c7573d6000803e3d6000fd5b505050506040513d601f19601f820116820180604052508101906122eb9190613dbc565b905060006122fa87878761303b565b905080866001600160a01b031663961be3916040518163ffffffff1660e01b815260040160206040518083038186803b15801561233657600080fd5b505afa15801561234a573d6000803e3d6000fd5b505050506040513d601f19601f8201168201806040525081019061236e9190613da3565b10156123bc5760405162461bcd60e51b815260206004820152601960248201527f576f6d6261743a20494e53554646494349454e545f434153480000000000000060448201526064016103aa565b6123d16123c983836132a3565b60ca5461330a565b92506123dd8284613316565b6123e79082614398565b93505050935093915050565b603380546001600160a01b038381167fffffffffffffffffffffffff0000000000000000000000000000000000000000831681179093556040519116919082907f8be0079c531659141344cd1fd0a4f28419497f9722a3daafe3b4186f6b6457e090600090a35050565b600054610100900460ff1680612476575060005460ff16155b6124e85760405162461bcd60e51b815260206004820152602e60248201527f496e697469616c697a61626c653a20636f6e747261637420697320616c72656160448201527f647920696e697469616c697a656400000000000000000000000000000000000060648201526084016103aa565b600054610100900460ff1615801561250a576000805461ffff19166101011790555b612512613346565b61251a613423565b8015610d2457600080547fffffffffffffffffffffffffffffffffffffffffffffffffffffffffffff00ff16905550565b600054610100900460ff1680612564575060005460ff16155b6125d65760405162461bcd60e51b815260206004820152602e60248201527f496e697469616c697a61626c653a20636f6e747261637420697320616c72656160448201527f647920696e697469616c697a656400000000000000000000000000000000000060648201526084016103aa565b600054610100900460ff161580156125f8576000805461ffff19166101011790555b60016065558015610d2457600080547fffffffffffffffffffffffffffffffffffffffffffffffffffffffffffff00ff16905550565b600054610100900460ff1680612647575060005460ff16155b6126b95760405162461bcd60e51b815260206004820152602e60248201527f496e697469616c697a61626c653a20636f6e747261637420697320616c72656160448201527f647920696e697469616c697a656400000000000000000000000000000000000060648201526084016103aa565b600054610100900460ff161580156126db576000805461ffff19166101011790555b609780547fffffffffffffffffffffffffffffffffffffffffffffffffffffffffffffff001690558015610d2457600080547fffffffffffffffffffffffffffffffffffffffffffffffffffffffffffff00ff16905550565b60975460ff16156127875760405162461bcd60e51b815260206004820152601060248201527f5061757361626c653a207061757365640000000000000000000000000000000060448201526064016103aa565b609780547fffffffffffffffffffffffffffffffffffffffffffffffffffffffffffffff001660011790557f62e78cea01bee320cd4e420270b5ea74000d11b0c9f74754ebdbfc544b05a2586122583390565b6000806000846001600160a01b03166318160ddd6040518163ffffffff1660e01b815260040160206040518083038186803b15801561281857600080fd5b505afa15801561282c573d6000803e3d6000fd5b505050506040513d601f19601f820116820180604052508101906128509190613da3565b84866001600160a01b031663705727b56040518163ffffffff1660e01b815260040160206040518083038186803b15801561288a57600080fd5b505afa15801561289e573d6000803e3d6000fd5b505050506040513d601f19601f820116820180604052508101906128c29190613da3565b6128cc91906142e7565b6128d69190613f40565b91506000821161294e5760405162461bcd60e51b815260206004820152602560248201527f576f6d6261743a20494e53554646494349454e545f4c49515549444954595f4260448201527f55524e454400000000000000000000000000000000000000000000000000000060648201526084016103aa565b612a3b856001600160a01b031663961be3916040518163ffffffff1660e01b815260040160206040518083038186803b15801561298a57600080fd5b505afa15801561299e573d6000803e3d6000fd5b505050506040513d601f19601f820116820180604052508101906129c29190613da3565b866001600160a01b031663705727b56040518163ffffffff1660e01b815260040160206040518083038186803b1580156129fb57600080fd5b505afa158015612a0f573d6000803e3d6000fd5b505050506040513d601f19601f82011682018060405250810190612a339190613da3565b506000919050565b905080821115612b5357612a4f8183614398565b856001600160a01b031663961be3916040518163ffffffff1660e01b815260040160206040518083038186803b158015612a8857600080fd5b505afa158015612a9c573d6000803e3d6000fd5b505050506040513d601f19601f82011682018060405250810190612ac09190613da3565b1015612b4257846001600160a01b031663961be3916040518163ffffffff1660e01b815260040160206040518083038186803b158015612aff57600080fd5b505afa158015612b13573d6000803e3d6000fd5b505050506040513d601f19601f82011682018060405250810190612b379190613da3565b925060009050612b58565b612b4c8183614398565b9250612b58565b600092505b9250925092565b604080516001600160a01b0385811660248301528416604482015260648082018490528251808303909101815260849091019091526020810180517bffffffffffffffffffffffffffffffffffffffffffffffffffffffff167f23b872dd00000000000000000000000000000000000000000000000000000000179052612be79085906134d9565b50505050565b60006001600160a01b038216612c6b5760405162461bcd60e51b815260206004820152602660248201527f576f6d6261743a20546f207573657220616464726573732063616e6e6f74206260448201527f65207a65726f000000000000000000000000000000000000000000000000000060648201526084016103aa565b6000846001600160a01b03166318160ddd6040518163ffffffff1660e01b815260040160206040518083038186803b158015612ca657600080fd5b505afa158015612cba573d6000803e3d6000fd5b505050506040513d601f19601f82011682018060405250810190612cde9190613da3565b90506000856001600160a01b031663705727b56040518163ffffffff1660e01b815260040160206040518083038186803b158015612d1b57600080fd5b505afa158015612d2f573d6000803e3d6000fd5b505050506040513d601f19601f82011682018060405250810190612d539190613da3565b90506000612e04876001600160a01b031663961be3916040518163ffffffff1660e01b815260040160206040518083038186803b158015612d9357600080fd5b505afa158015612da7573d6000803e3d6000fd5b505050506040513d601f19601f82011682018060405250810190612dcb9190613da3565b886001600160a01b031663705727b56040518163ffffffff1660e01b815260040160206040518083038186803b1580156129fb57600080fd5b90508115612e31578183612e188389614398565b612e2291906142e7565b612e2c9190613f40565b612e3b565b612e3b8187614398565b935060008411612eb35760405162461bcd60e51b815260206004820152602560248201527f576f6d6261743a20494e53554646494349454e545f4c49515549444954595f4d60448201527f494e54454400000000000000000000000000000000000000000000000000000060648201526084016103aa565b6040517f16c9e7a0000000000000000000000000000000000000000000000000000000008152600481018790526001600160a01b038816906316c9e7a090602401600060405180830381600087803b158015612f0e57600080fd5b505af1158015612f22573d6000803e3d6000fd5b50505050866001600160a01b031663a0f0f6048288612f419190614398565b6040518263ffffffff1660e01b8152600401612f5f91815260200190565b600060405180830381600087803b158015612f7957600080fd5b505af1158015612f8d573d6000803e3d6000fd5b50506040517f40c10f190000000000000000000000000000000000000000000000000000000081526001600160a01b038881166004830152602482018890528a1692506340c10f199150604401600060405180830381600087803b158015612ff457600080fd5b505af1158015613008573d6000803e3d6000fd5b505050505050509392505050565b600061303461302d83670de0b6b3a7640000614398565b84906135c3565b9392505050565b600080846001600160a01b031663313ce5676040518163ffffffff1660e01b815260040160206040518083038186803b15801561307757600080fd5b505afa15801561308b573d6000803e3d6000fd5b505050506040513d601f19601f820116820180604052508101906130af9190613dbc565b90506000846001600160a01b031663313ce5676040518163ffffffff1660e01b815260040160206040518083038186803b1580156130ec57600080fd5b505afa158015613100573d6000803e3d6000fd5b505050506040513d601f19601f820116820180604052508101906131249190613dbc565b905060006131a283886001600160a01b031663961be3916040518163ffffffff1660e01b815260040160206040518083038186803b15801561316557600080fd5b505afa158015613179573d6000803e3d6000fd5b505050506040513d601f19601f8201168201806040525081019061319d9190613da3565b6132a3565b905060006131e384896001600160a01b031663705727b56040518163ffffffff1660e01b815260040160206040518083038186803b15801561316557600080fd5b9050600061322484896001600160a01b031663961be3916040518163ffffffff1660e01b815260040160206040518083038186803b15801561316557600080fd5b90506000613265858a6001600160a01b031663705727b56040518163ffffffff1660e01b815260040160206040518083038186803b15801561316557600080fd5b90506000613273878a6132a3565b90506000613287868587868660c9546135f7565b90506132938782613316565b9c9b505050505050505050505050565b600060128360ff1610156132d8576132bc8360126143af565b6132c790600a614174565b6132d190836142e7565b9050610b9c565b60128360ff161115613304576132ef6012846143af565b6132fa90600a614174565b6132d19083613f40565b50919050565b600061303483836135c3565b600060128360ff16101561332f576132ef8360126143af565b60128360ff161115613304576132bc6012846143af565b600054610100900460ff168061335f575060005460ff16155b6133d15760405162461bcd60e51b815260206004820152602e60248201527f496e697469616c697a61626c653a20636f6e747261637420697320616c72656160448201527f647920696e697469616c697a656400000000000000000000000000000000000060648201526084016103aa565b600054610100900460ff1615801561251a576000805461ffff19166101011790558015610d2457600080547fffffffffffffffffffffffffffffffffffffffffffffffffffffffffffff00ff16905550565b600054610100900460ff168061343c575060005460ff16155b6134ae5760405162461bcd60e51b815260206004820152602e60248201527f496e697469616c697a61626c653a20636f6e747261637420697320616c72656160448201527f647920696e697469616c697a656400000000000000000000000000000000000060648201526084016103aa565b600054610100900460ff161580156134d0576000805461ffff19166101011790555b61251a336123f3565b600061352e826040518060400160405280602081526020017f5361666545524332303a206c6f772d6c6576656c2063616c6c206661696c6564815250856001600160a01b03166136d09092919063ffffffff16565b8051909150156135be578080602001905181019061354c9190613d68565b6135be5760405162461bcd60e51b815260206004820152602a60248201527f5361666545524332303a204552433230206f7065726174696f6e20646964206e60448201527f6f7420737563636565640000000000000000000000000000000000000000000060648201526084016103aa565b505050565b6000670de0b6b3a76400006135d9600282613f40565b6135e384866142e7565b6135ed9190613ec0565b6130349190613f40565b600080613603886136e7565b90506000613610886136e7565b9050600061361d886136e7565b9050600061362a886136e7565b90506000613637886136e7565b90506000613644886136e7565b90506000613653878685613783565b905060006136648888888887613799565b905060006136758787858588613814565b90506000613683828661386a565b905060006136928a89846138cb565b905060006136aa6136a38c846138db565b8c906138e7565b905060006136b7826138f3565b9d50505050505050505050505050509695505050505050565b60606136df8484600085613945565b949350505050565b60007f7fffffffffffffffffffffffffffffffffffffffffffffffffffffffffffffff82111561377f5760405162461bcd60e51b815260206004820152602860248201527f53616665436173743a2076616c756520646f65736e27742066697420696e206160448201527f6e20696e7432353600000000000000000000000000000000000000000000000060648201526084016103aa565b5090565b60006136df8361379386856138db565b90613a84565b6000806137a68786613a84565b905060006137b48786613a84565b905060006137d56137c58784613ab8565b6137cf8986613ab8565b906138db565b905060006137fa6137f36137e98986613a84565b6137cf8b88613a84565b8790613ab8565b905061380682826138e7565b9a9950505050505050505050565b6000806138218787613a84565b905060006138396138328588613a84565b87906138e7565b905060006138478689613a84565b905061385d816138578585613ab8565b906138e7565b9998505050505050505050565b600080613899670de0b6b3a764000061388485600461422b565b61388e919061422b565b6137cf600287614165565b905060006138a682613ad8565b905060006138b482876138e7565b90506138c1816002613b42565b9695505050505050565b60006136df846138578585613ab8565b60006130348284613e4c565b60006130348284614324565b60008082121561377f5760405162461bcd60e51b815260206004820181905260248201527f53616665436173743a2076616c7565206d75737420626520706f73697469766560448201526064016103aa565b6060824710156139bd5760405162461bcd60e51b815260206004820152602660248201527f416464726573733a20696e73756666696369656e742062616c616e636520666f60448201527f722063616c6c000000000000000000000000000000000000000000000000000060648201526084016103aa565b843b613a0b5760405162461bcd60e51b815260206004820152601d60248201527f416464726573733a2063616c6c20746f206e6f6e2d636f6e747261637400000060448201526064016103aa565b600080866001600160a01b03168587604051613a279190613ddf565b60006040518083038185875af1925050503d8060008114613a64576040519150601f19603f3d011682016040523d82523d6000602084013e613a69565b606091505b5091509150613a79828286613b4e565b979650505050505050565b600081613a92600282613ed8565b613aa4670de0b6b3a76400008661422b565b613aae9190613e4c565b6130349190613ed8565b6000670de0b6b3a7640000613ace600282613ed8565b613aa4848661422b565b60006003821315613b335750806000613af2600283613ed8565b613afd906001613e4c565b90505b8181121561330457905080600281613b188186613ed8565b613b229190613e4c565b613b2c9190613ed8565b9050613b00565b8115613b3d575060015b919050565b60006130348284613ed8565b60608315613b5d575081613034565b825115613b6d5782518084602001fd5b8160405162461bcd60e51b81526004016103aa9190613dfb565b600060208284031215613b9957600080fd5b81356130348161445c565b600060208284031215613bb657600080fd5b81516130348161445c565b60008060408385031215613bd457600080fd5b8235613bdf8161445c565b91506020830135613bef8161445c565b809150509250929050565b600080600060608486031215613c0f57600080fd5b8335613c1a8161445c565b92506020840135613c2a8161445c565b929592945050506040919091013590565b60008060008060008060c08789031215613c5457600080fd5b8635613c5f8161445c565b95506020870135613c6f8161445c565b945060408701359350606087013592506080870135613c8d8161445c565b8092505060a087013590509295509295509295565b60008060408385031215613cb557600080fd5b8235613cc08161445c565b946020939093013593505050565b60008060008060808587031215613ce457600080fd5b8435613cef8161445c565b9350602085013592506040850135613d068161445c565b9396929550929360600135925050565b600080600080600060a08688031215613d2e57600080fd5b8535613d398161445c565b945060208601359350604086013592506060860135613d578161445c565b949793965091946080013592915050565b600060208284031215613d7a57600080fd5b8151801515811461303457600080fd5b600060208284031215613d9c57600080fd5b5035919050565b600060208284031215613db557600080fd5b5051919050565b600060208284031215613dce57600080fd5b815160ff8116811461303457600080fd5b60008251613df18184602087016143d2565b9190910192915050565b6020815260008251806020840152613e1a8160408501602087016143d2565b601f017fffffffffffffffffffffffffffffffffffffffffffffffffffffffffffffffe0169190910160400192915050565b6000808212827f7fffffffffffffffffffffffffffffffffffffffffffffffffffffffffffffff03841381151615613e8657613e866143fe565b827f8000000000000000000000000000000000000000000000000000000000000000038412811615613eba57613eba6143fe565b50500190565b60008219821115613ed357613ed36143fe565b500190565b600082613ee757613ee761442d565b7fffffffffffffffffffffffffffffffffffffffffffffffffffffffffffffffff83147f800000000000000000000000000000000000000000000000000000000000000083141615613f3b57613f3b6143fe565b500590565b600082613f4f57613f4f61442d565b500490565b600181815b80851115613fad57817fffffffffffffffffffffffffffffffffffffffffffffffffffffffffffffffff04821115613f9357613f936143fe565b80851615613fa057918102915b93841c9390800290613f59565b509250929050565b80825b6001808611613fc75750614012565b817f7fffffffffffffffffffffffffffffffffffffffffffffffffffffffffffffff04821115613ff957613ff96143fe565b8086161561400657918102915b9490941c938002613fb8565b935093915050565b6000828015614030576001811461403a57614043565b6001915050610b9c565b82915050610b9c565b508161405157506000610b9c565b5060016000821380821461406a5780156140a1576140d3565b827f7fffffffffffffffffffffffffffffffffffffffffffffffffffffffffffffff0483111561409c5761409c6143fe565b6140d3565b827f7fffffffffffffffffffffffffffffffffffffffffffffffffffffffffffffff058312156140d3576140d36143fe565b50808316156140df5750805b6140ef8360011c83840283613fb5565b807f7fffffffffffffffffffffffffffffffffffffffffffffffffffffffffffffff048211600083131615614126576141266143fe565b807f800000000000000000000000000000000000000000000000000000000000000005821260008312161561415d5761415d6143fe565b029392505050565b600061303460ff84168361401a565b600061303460ff84168360008261418d57506001610b9c565b8161419a57506000610b9c565b816001811461403057600281146141b0576141cc565b60ff8411156141c1576141c16143fe565b50506001821b610b9c565b5060208310610133831016604e8410600b84101617156141ef575081810a610b9c565b6141f98383613f54565b807fffffffffffffffffffffffffffffffffffffffffffffffffffffffffffffffff0482111561415d5761415d6143fe565b60007f7fffffffffffffffffffffffffffffffffffffffffffffffffffffffffffffff60008413600084138583048511828216161561426c5761426c6143fe565b7f800000000000000000000000000000000000000000000000000000000000000060008712868205881281841616156142a7576142a76143fe565b600087129250878205871284841616156142c3576142c36143fe565b878505871281841616156142d9576142d96143fe565b505050929093029392505050565b6000817fffffffffffffffffffffffffffffffffffffffffffffffffffffffffffffffff048311821515161561431f5761431f6143fe565b500290565b6000808312837f80000000000000000000000000000000000000000000000000000000000000000183128115161561435e5761435e6143fe565b837f7fffffffffffffffffffffffffffffffffffffffffffffffffffffffffffffff018313811615614392576143926143fe565b50500390565b6000828210156143aa576143aa6143fe565b500390565b600060ff821660ff8416808210156143c9576143c96143fe565b90039392505050565b60005b838110156143ed5781810151838201526020016143d5565b83811115612be75750506000910152565b7f4e487b7100000000000000000000000000000000000000000000000000000000600052601160045260246000fd5b7f4e487b7100000000000000000000000000000000000000000000000000000000600052601260045260246000fd5b6001600160a01b0381168114610d2457600080fdfea26469706673582212202fff3720788c75268e6eb910098309970e3bf001ff8f50873c6929ff97c9fd7e64736f6c63430008050033",
  "devdoc": {
    "details": "The main entry-point of Wombat protocol",
    "kind": "dev",
    "methods": {
      "addAsset(address,address)": {
        "params": {
          "asset": "The address of the Wombat Asset contract",
          "token": "The address of token"
        }
      },
      "assetOf(address)": {
        "details": "to be used externally",
        "params": {
          "token": "The address of ERC20 token"
        }
      },
      "deposit(address,uint256,address,uint256)": {
        "details": "Asset needs to be created and added to pool before any operation",
        "params": {
          "amount": "The amount to be deposited",
          "deadline": "The deadline to be respected",
          "to": "The user accountable for deposit, receiving the Wombat assets (lp)",
          "token": "The token address to be deposited"
        },
        "returns": {
          "liquidity": "Total asset liquidity minted"
        }
      },
      "getAmpFactor()": {
        "returns": {
          "_0": "The current amplification factor parameter in Pool"
        }
      },
      "getDev()": {
        "returns": {
          "_0": "The current Dev address for Pool"
        }
      },
      "getHaircutRate()": {
        "returns": {
          "_0": "The current haircut parameter in Pool"
        }
      },
      "getRetentionRatio()": {
        "returns": {
          "_0": "The current retention ratio parameter in Pool"
        }
      },
      "owner()": {
        "details": "Returns the address of the current owner."
      },
      "pause()": {
        "details": "pause pool, restricting certain operations"
      },
      "paused()": {
        "details": "Returns true if the contract is paused, and false otherwise."
      },
      "quotePotentialSwap(address,address,uint256)": {
        "details": "To be used by frontend",
        "params": {
          "fromAmount": "The amount to quote",
          "fromToken": "The initial ERC20 token",
          "toToken": "The token wanted by user"
        },
        "returns": {
          "haircut": "The haircut that would be applied",
          "potentialOutcome": "The potential amount user would receive"
        }
      },
      "quotePotentialWithdraw(address,uint256)": {
        "details": "To be used by frontend",
        "params": {
          "liquidity": "The liquidity (amount of lp assets) to be withdrawn",
          "token": "The token to be withdrawn by user"
        },
        "returns": {
          "amount": "The potential amount user would receive",
          "enoughCash": "does the pool have enough cash? (cash >= liabilityToBurn - fee)",
          "fee": "The fee that would be applied"
        }
      },
      "renounceOwnership()": {
        "details": "Leaves the contract without owner. It will not be possible to call `onlyOwner` functions anymore. Can only be called by the current owner. NOTE: Renouncing ownership will leave the contract without an owner, thereby removing any functionality that is only available to the owner."
      },
      "setAmpFactor(uint256)": {
        "params": {
          "ampFactor_": "new pool's amplification factor"
        }
      },
      "setDev(address)": {
        "params": {
          "dev": "new contract dev address"
        }
      },
      "setHaircutRate(uint256)": {
        "params": {
          "haircutRate_": "new pool's haircutRate_"
        }
      },
      "setRetentionRatio(uint256)": {
        "params": {
          "retentionRatio_": "new pool's retentionRatio"
        }
      },
      "swap(address,address,uint256,uint256,address,uint256)": {
        "params": {
          "deadline": "The deadline to be respected",
          "fromAmount": "The amount of from token inserted",
          "fromToken": "The token being inserted into Pool by user for swap",
          "minimumToAmount": "The minimum amount that will be accepted by user as result",
          "to": "The user receiving the result of swap",
          "toToken": "The token wanted by user, leaving the Pool"
        }
      },
      "transferOwnership(address)": {
        "details": "Transfers ownership of the contract to a new account (`newOwner`). Can only be called by the current owner."
      },
      "unpause()": {
        "details": "unpause pool, enabling certain operations"
      },
      "withdraw(address,uint256,uint256,address,uint256)": {
        "params": {
          "deadline": "The deadline to be respected",
          "liquidity": "The liquidity to be withdrawn",
          "minimumAmount": "The minimum amount that will be accepted by user",
          "to": "The user receiving the withdrawal",
          "token": "The token to be withdrawn"
        },
        "returns": {
          "amount": "The total amount withdrawn"
        }
      }
    },
    "title": "Pool",
    "version": 1
  },
  "userdoc": {
    "events": {
      "AssetAdded(address,address)": {
        "notice": "An event thats emitted when an asset is added to Pool"
      },
      "Deposit(address,address,uint256,uint256,address)": {
        "notice": "An event thats emitted when a deposit is made to Pool"
      },
      "Swap(address,address,address,uint256,uint256,address)": {
        "notice": "An event thats emitted when a swap is made in Pool"
      },
      "Withdraw(address,address,uint256,uint256,address)": {
        "notice": "An event thats emitted when a withdrawal is made from Pool"
      }
    },
    "kind": "user",
    "methods": {
      "addAsset(address,address)": {
        "notice": "Adds asset to pool, reverts if asset already exists in pool"
      },
      "assetOf(address)": {
        "notice": "Gets Asset corresponding to ERC20 token. Reverts if asset does not exists in Pool."
      },
      "deposit(address,uint256,address,uint256)": {
        "notice": "Deposits amount of tokens into pool ensuring deadline"
      },
      "getAmpFactor()": {
        "notice": "Gets current amplification factor parameter"
      },
      "getDev()": {
        "notice": "Gets current Dev address"
      },
      "getHaircutRate()": {
        "notice": "Gets current haircut parameter"
      },
      "getRetentionRatio()": {
        "notice": "Gets current retention ratio parameter"
      },
      "initialize()": {
        "notice": "Initializes pool. Dev is set to be the account calling this function."
      },
      "quotePotentialSwap(address,address,uint256)": {
        "notice": "Quotes potential outcome of a swap given current state, taking in account slippage and haircut"
      },
      "quotePotentialWithdraw(address,uint256)": {
        "notice": "Quotes potential withdrawal from pool"
      },
      "setAmpFactor(uint256)": {
        "notice": "Changes the pools amplification factor. Can only be set by the contract owner."
      },
      "setDev(address)": {
        "notice": "Changes the contract dev. Can only be set by the contract owner."
      },
      "setHaircutRate(uint256)": {
        "notice": "Changes the pools haircutRate. Can only be set by the contract owner."
      },
      "setRetentionRatio(uint256)": {
        "notice": "Changes the pools retentionRatio. Can only be set by the contract owner."
      },
      "swap(address,address,uint256,uint256,address,uint256)": {
        "notice": "Swap fromToken for toToken, ensures deadline and minimumToAmount and sends quoted amount to `to` address"
      },
      "withdraw(address,uint256,uint256,address,uint256)": {
        "notice": "Withdraws liquidity amount of asset to `to` address ensuring minimum amount required"
      }
    },
    "notice": "Manages deposits, withdrawals and swaps. Holds a mapping of assets and parameters.",
    "version": 1
  },
  "storageLayout": {
    "storage": [
      {
        "astId": 130,
        "contract": "contracts/pool/Pool.sol:Pool",
        "label": "_initialized",
        "offset": 0,
        "slot": "0",
        "type": "t_bool"
      },
      {
        "astId": 133,
        "contract": "contracts/pool/Pool.sol:Pool",
        "label": "_initializing",
        "offset": 1,
        "slot": "0",
        "type": "t_bool"
      },
      {
        "astId": 384,
        "contract": "contracts/pool/Pool.sol:Pool",
        "label": "__gap",
        "offset": 0,
        "slot": "1",
        "type": "t_array(t_uint256)50_storage"
      },
      {
        "astId": 10,
        "contract": "contracts/pool/Pool.sol:Pool",
        "label": "_owner",
        "offset": 0,
        "slot": "51",
        "type": "t_address"
      },
      {
        "astId": 123,
        "contract": "contracts/pool/Pool.sol:Pool",
        "label": "__gap",
        "offset": 0,
        "slot": "52",
        "type": "t_array(t_uint256)49_storage"
      },
      {
        "astId": 297,
        "contract": "contracts/pool/Pool.sol:Pool",
        "label": "_status",
        "offset": 0,
        "slot": "101",
        "type": "t_uint256"
      },
      {
        "astId": 340,
        "contract": "contracts/pool/Pool.sol:Pool",
        "label": "__gap",
        "offset": 0,
        "slot": "102",
        "type": "t_array(t_uint256)49_storage"
      },
      {
        "astId": 191,
        "contract": "contracts/pool/Pool.sol:Pool",
        "label": "_paused",
        "offset": 0,
        "slot": "151",
        "type": "t_bool"
      },
      {
        "astId": 282,
        "contract": "contracts/pool/Pool.sol:Pool",
        "label": "__gap",
        "offset": 0,
        "slot": "152",
        "type": "t_array(t_uint256)49_storage"
      },
      {
        "astId": 3957,
        "contract": "contracts/pool/Pool.sol:Pool",
        "label": "_ampFactor",
        "offset": 0,
        "slot": "201",
        "type": "t_uint256"
      },
      {
        "astId": 3965,
        "contract": "contracts/pool/Pool.sol:Pool",
        "label": "_haircutRate",
        "offset": 0,
        "slot": "202",
        "type": "t_uint256"
      },
      {
        "astId": 3969,
        "contract": "contracts/pool/Pool.sol:Pool",
        "label": "_retentionRatio",
        "offset": 0,
        "slot": "203",
        "type": "t_uint256"
      },
      {
        "astId": 3972,
        "contract": "contracts/pool/Pool.sol:Pool",
        "label": "_dev",
        "offset": 0,
        "slot": "204",
        "type": "t_address"
      },
      {
        "astId": 3978,
        "contract": "contracts/pool/Pool.sol:Pool",
        "label": "_assets",
        "offset": 0,
        "slot": "205",
        "type": "t_mapping(t_address,t_contract(Asset)2089)"
      }
    ],
    "types": {
      "t_address": {
        "encoding": "inplace",
        "label": "address",
        "numberOfBytes": "20"
      },
      "t_array(t_uint256)49_storage": {
        "base": "t_uint256",
        "encoding": "inplace",
        "label": "uint256[49]",
        "numberOfBytes": "1568"
      },
      "t_array(t_uint256)50_storage": {
        "base": "t_uint256",
        "encoding": "inplace",
        "label": "uint256[50]",
        "numberOfBytes": "1600"
      },
      "t_bool": {
        "encoding": "inplace",
        "label": "bool",
        "numberOfBytes": "1"
      },
      "t_contract(Asset)2089": {
        "encoding": "inplace",
        "label": "contract Asset",
        "numberOfBytes": "20"
      },
      "t_mapping(t_address,t_contract(Asset)2089)": {
        "encoding": "mapping",
        "key": "t_address",
        "label": "mapping(address => contract Asset)",
        "numberOfBytes": "32",
        "value": "t_contract(Asset)2089"
      },
      "t_uint256": {
        "encoding": "inplace",
        "label": "uint256",
        "numberOfBytes": "32"
      }
    }
  }
}