{
  "address": "0xc7F34a37056C04688AD2A4F9312e9467647be593",
  "abi": [
    {
      "inputs": [],
      "name": "CORE_UNDERFLOW",
      "type": "error"
    },
    {
      "inputs": [],
      "name": "WOMBAT_AMOUNT_TOO_LOW",
      "type": "error"
    },
    {
      "inputs": [],
      "name": "WOMBAT_ASSET_ALREADY_EXIST",
      "type": "error"
    },
    {
      "inputs": [],
      "name": "WOMBAT_ASSET_ALREADY_PAUSED",
      "type": "error"
    },
    {
      "inputs": [],
      "name": "WOMBAT_ASSET_NOT_EXISTS",
      "type": "error"
    },
    {
      "inputs": [],
      "name": "WOMBAT_ASSET_NOT_PAUSED",
      "type": "error"
    },
    {
      "inputs": [],
      "name": "WOMBAT_CASH_NOT_ENOUGH",
      "type": "error"
    },
    {
      "inputs": [],
      "name": "WOMBAT_EXPIRED",
      "type": "error"
    },
    {
      "inputs": [],
      "name": "WOMBAT_FORBIDDEN",
      "type": "error"
    },
    {
      "inputs": [],
      "name": "WOMBAT_INTERPOOL_SWAP_NOT_SUPPORTED",
      "type": "error"
    },
    {
      "inputs": [],
      "name": "WOMBAT_INVALID_VALUE",
      "type": "error"
    },
    {
      "inputs": [],
      "name": "WOMBAT_SAME_ADDRESS",
      "type": "error"
    },
    {
      "inputs": [],
      "name": "WOMBAT_ZERO_ADDRESS",
      "type": "error"
    },
    {
      "inputs": [],
      "name": "WOMBAT_ZERO_AMOUNT",
      "type": "error"
    },
    {
      "inputs": [],
      "name": "WOMBAT_ZERO_LIQUIDITY",
      "type": "error"
    },
    {
      "anonymous": false,
      "inputs": [
        {
          "indexed": false,
          "internalType": "address",
          "name": "previousAdmin",
          "type": "address"
        },
        {
          "indexed": false,
          "internalType": "address",
          "name": "newAdmin",
          "type": "address"
        }
      ],
      "name": "AdminChanged",
      "type": "event"
    },
    {
      "anonymous": false,
      "inputs": [
        {
          "indexed": true,
          "internalType": "address",
          "name": "token",
          "type": "address"
        },
        {
          "indexed": true,
          "internalType": "address",
          "name": "asset",
          "type": "address"
        }
      ],
      "name": "AssetAdded",
      "type": "event"
    },
    {
      "anonymous": false,
      "inputs": [
        {
          "indexed": true,
          "internalType": "address",
          "name": "token",
          "type": "address"
        },
        {
          "indexed": true,
          "internalType": "address",
          "name": "asset",
          "type": "address"
        }
      ],
      "name": "AssetRemoved",
      "type": "event"
    },
    {
      "anonymous": false,
      "inputs": [
        {
          "indexed": true,
          "internalType": "address",
          "name": "beacon",
          "type": "address"
        }
      ],
      "name": "BeaconUpgraded",
      "type": "event"
    },
    {
      "anonymous": false,
      "inputs": [
        {
          "indexed": true,
          "internalType": "address",
          "name": "sender",
          "type": "address"
        },
        {
          "indexed": false,
          "internalType": "address",
          "name": "token",
          "type": "address"
        },
        {
          "indexed": false,
          "internalType": "uint256",
          "name": "amount",
          "type": "uint256"
        },
        {
          "indexed": false,
          "internalType": "uint256",
          "name": "liquidity",
          "type": "uint256"
        },
        {
          "indexed": true,
          "internalType": "address",
          "name": "to",
          "type": "address"
        }
      ],
      "name": "Deposit",
      "type": "event"
    },
    {
      "anonymous": false,
      "inputs": [
        {
          "indexed": true,
          "internalType": "address",
          "name": "previousOwner",
          "type": "address"
        },
        {
          "indexed": true,
          "internalType": "address",
          "name": "newOwner",
          "type": "address"
        }
      ],
      "name": "OwnershipTransferred",
      "type": "event"
    },
    {
      "anonymous": false,
      "inputs": [
        {
          "indexed": false,
          "internalType": "address",
          "name": "account",
          "type": "address"
        }
      ],
      "name": "Paused",
      "type": "event"
    },
    {
      "anonymous": false,
      "inputs": [
        {
          "indexed": false,
          "internalType": "address",
          "name": "asset",
          "type": "address"
        },
        {
          "indexed": false,
          "internalType": "address",
          "name": "account",
          "type": "address"
        }
      ],
      "name": "PausedAsset",
      "type": "event"
    },
    {
      "anonymous": false,
      "inputs": [
        {
          "indexed": true,
          "internalType": "address",
          "name": "sender",
          "type": "address"
        },
        {
          "indexed": false,
          "internalType": "address",
          "name": "fromToken",
          "type": "address"
        },
        {
          "indexed": false,
          "internalType": "address",
          "name": "toToken",
          "type": "address"
        },
        {
          "indexed": false,
          "internalType": "uint256",
          "name": "fromAmount",
          "type": "uint256"
        },
        {
          "indexed": false,
          "internalType": "uint256",
          "name": "toAmount",
          "type": "uint256"
        },
        {
          "indexed": true,
          "internalType": "address",
          "name": "to",
          "type": "address"
        }
      ],
      "name": "Swap",
      "type": "event"
    },
    {
      "anonymous": false,
      "inputs": [
        {
          "indexed": false,
          "internalType": "address",
          "name": "account",
          "type": "address"
        }
      ],
      "name": "Unpaused",
      "type": "event"
    },
    {
      "anonymous": false,
      "inputs": [
        {
          "indexed": false,
          "internalType": "address",
          "name": "asset",
          "type": "address"
        },
        {
          "indexed": false,
          "internalType": "address",
          "name": "account",
          "type": "address"
        }
      ],
      "name": "UnpausedAsset",
      "type": "event"
    },
    {
      "anonymous": false,
      "inputs": [
        {
          "indexed": true,
          "internalType": "address",
          "name": "implementation",
          "type": "address"
        }
      ],
      "name": "Upgraded",
      "type": "event"
    },
    {
      "anonymous": false,
      "inputs": [
        {
          "indexed": true,
          "internalType": "address",
          "name": "sender",
          "type": "address"
        },
        {
          "indexed": false,
          "internalType": "address",
          "name": "token",
          "type": "address"
        },
        {
          "indexed": false,
          "internalType": "uint256",
          "name": "amount",
          "type": "uint256"
        },
        {
          "indexed": false,
          "internalType": "uint256",
          "name": "liquidity",
          "type": "uint256"
        },
        {
          "indexed": true,
          "internalType": "address",
          "name": "to",
          "type": "address"
        }
      ],
      "name": "Withdraw",
      "type": "event"
    },
    {
      "inputs": [],
      "name": "WAD",
      "outputs": [
        {
          "internalType": "uint256",
          "name": "",
          "type": "uint256"
        }
      ],
      "stateMutability": "view",
      "type": "function"
    },
    {
      "inputs": [],
      "name": "WAD_I",
      "outputs": [
        {
          "internalType": "int256",
          "name": "",
          "type": "int256"
        }
      ],
      "stateMutability": "view",
      "type": "function"
    },
    {
      "inputs": [
        {
          "internalType": "address",
          "name": "token",
          "type": "address"
        },
        {
          "internalType": "address",
          "name": "asset",
          "type": "address"
        }
      ],
      "name": "addAsset",
      "outputs": [],
      "stateMutability": "nonpayable",
      "type": "function"
    },
    {
      "inputs": [],
      "name": "ampFactor",
      "outputs": [
        {
          "internalType": "uint256",
          "name": "",
          "type": "uint256"
        }
      ],
      "stateMutability": "view",
      "type": "function"
    },
    {
      "inputs": [
        {
          "internalType": "address",
          "name": "token",
          "type": "address"
        }
      ],
      "name": "assetOf",
      "outputs": [
        {
          "internalType": "address",
          "name": "",
          "type": "address"
        }
      ],
      "stateMutability": "view",
      "type": "function"
    },
    {
      "inputs": [
        {
          "internalType": "address",
          "name": "token",
          "type": "address"
        },
        {
          "internalType": "uint256",
          "name": "amount",
          "type": "uint256"
        },
        {
          "internalType": "address",
          "name": "to",
          "type": "address"
        },
        {
          "internalType": "uint256",
          "name": "deadline",
          "type": "uint256"
        }
      ],
      "name": "deposit",
      "outputs": [
        {
          "internalType": "uint256",
          "name": "liquidity",
          "type": "uint256"
        }
      ],
      "stateMutability": "nonpayable",
      "type": "function"
    },
    {
      "inputs": [],
      "name": "dev",
      "outputs": [
        {
          "internalType": "address",
          "name": "",
          "type": "address"
        }
      ],
      "stateMutability": "view",
      "type": "function"
    },
    {
      "inputs": [
        {
          "internalType": "address",
          "name": "token",
          "type": "address"
        }
      ],
      "name": "exchangeRate",
      "outputs": [
        {
          "internalType": "uint256",
          "name": "exchangeRate",
          "type": "uint256"
        }
      ],
      "stateMutability": "view",
      "type": "function"
    },
    {
      "inputs": [],
      "name": "feeTo",
      "outputs": [
        {
          "internalType": "address",
          "name": "",
          "type": "address"
        }
      ],
      "stateMutability": "view",
      "type": "function"
    },
    {
      "inputs": [],
      "name": "globalEquilCovRatio",
      "outputs": [
        {
          "internalType": "uint256",
          "name": "equilCovRatio",
          "type": "uint256"
        },
        {
          "internalType": "uint256",
          "name": "invariant",
          "type": "uint256"
        }
      ],
      "stateMutability": "view",
      "type": "function"
    },
    {
      "inputs": [],
      "name": "haircutRate",
      "outputs": [
        {
          "internalType": "uint256",
          "name": "",
          "type": "uint256"
        }
      ],
      "stateMutability": "view",
      "type": "function"
    },
    {
      "inputs": [
        {
          "internalType": "uint256",
          "name": "ampFactor_",
          "type": "uint256"
        },
        {
          "internalType": "uint256",
          "name": "haircutRate_",
          "type": "uint256"
        }
      ],
      "name": "initialize",
      "outputs": [],
      "stateMutability": "nonpayable",
      "type": "function"
    },
    {
      "inputs": [],
      "name": "lpDividendRatio",
      "outputs": [
        {
          "internalType": "uint256",
          "name": "",
          "type": "uint256"
        }
      ],
      "stateMutability": "view",
      "type": "function"
    },
    {
      "inputs": [
        {
          "internalType": "address",
          "name": "token",
          "type": "address"
        }
      ],
      "name": "mintFee",
      "outputs": [],
      "stateMutability": "nonpayable",
      "type": "function"
    },
    {
      "inputs": [],
      "name": "mintFeeThreshold",
      "outputs": [
        {
          "internalType": "uint256",
          "name": "",
          "type": "uint256"
        }
      ],
      "stateMutability": "view",
      "type": "function"
    },
    {
      "inputs": [],
      "name": "owner",
      "outputs": [
        {
          "internalType": "address",
          "name": "",
          "type": "address"
        }
      ],
      "stateMutability": "view",
      "type": "function"
    },
    {
      "inputs": [],
      "name": "pause",
      "outputs": [],
      "stateMutability": "nonpayable",
      "type": "function"
    },
    {
      "inputs": [
        {
          "internalType": "address",
          "name": "asset",
          "type": "address"
        }
      ],
      "name": "pauseAsset",
      "outputs": [],
      "stateMutability": "nonpayable",
      "type": "function"
    },
    {
      "inputs": [],
      "name": "paused",
      "outputs": [
        {
          "internalType": "bool",
          "name": "",
          "type": "bool"
        }
      ],
      "stateMutability": "view",
      "type": "function"
    },
    {
      "inputs": [
        {
          "internalType": "address",
          "name": "token",
          "type": "address"
        },
        {
          "internalType": "uint256",
          "name": "amount",
          "type": "uint256"
        }
      ],
      "name": "quotePotentialDeposit",
      "outputs": [
        {
          "internalType": "uint256",
          "name": "liquidity",
          "type": "uint256"
        },
        {
          "internalType": "uint256",
          "name": "reward",
          "type": "uint256"
        }
      ],
      "stateMutability": "view",
      "type": "function"
    },
    {
      "inputs": [
        {
          "internalType": "address",
          "name": "fromToken",
          "type": "address"
        },
        {
          "internalType": "address",
          "name": "toToken",
          "type": "address"
        },
        {
          "internalType": "int256",
          "name": "fromAmount",
          "type": "int256"
        }
      ],
      "name": "quotePotentialSwap",
      "outputs": [
        {
          "internalType": "uint256",
          "name": "potentialOutcome",
          "type": "uint256"
        },
        {
          "internalType": "uint256",
          "name": "haircut",
          "type": "uint256"
        }
      ],
      "stateMutability": "view",
      "type": "function"
    },
    {
      "inputs": [
        {
          "internalType": "address",
          "name": "token",
          "type": "address"
        },
        {
          "internalType": "uint256",
          "name": "liquidity",
          "type": "uint256"
        }
      ],
      "name": "quotePotentialWithdraw",
      "outputs": [
        {
          "internalType": "uint256",
          "name": "amount",
          "type": "uint256"
        },
        {
          "internalType": "uint256",
          "name": "fee",
          "type": "uint256"
        }
      ],
      "stateMutability": "view",
      "type": "function"
    },
    {
      "inputs": [
        {
          "internalType": "address",
          "name": "key",
          "type": "address"
        }
      ],
      "name": "removeAsset",
      "outputs": [],
      "stateMutability": "nonpayable",
      "type": "function"
    },
    {
      "inputs": [],
      "name": "renounceOwnership",
      "outputs": [],
      "stateMutability": "nonpayable",
      "type": "function"
    },
    {
      "inputs": [],
      "name": "retentionRatio",
      "outputs": [
        {
          "internalType": "uint256",
          "name": "",
          "type": "uint256"
        }
      ],
      "stateMutability": "view",
      "type": "function"
    },
    {
      "inputs": [
        {
          "internalType": "uint256",
          "name": "ampFactor_",
          "type": "uint256"
        }
      ],
      "name": "setAmpFactor",
      "outputs": [],
      "stateMutability": "nonpayable",
      "type": "function"
    },
    {
      "inputs": [
        {
          "internalType": "address",
          "name": "dev_",
          "type": "address"
        }
      ],
      "name": "setDev",
      "outputs": [],
      "stateMutability": "nonpayable",
      "type": "function"
    },
    {
      "inputs": [
        {
          "internalType": "address",
          "name": "feeTo_",
          "type": "address"
        }
      ],
      "name": "setFeeTo",
      "outputs": [],
      "stateMutability": "nonpayable",
      "type": "function"
    },
    {
      "inputs": [
        {
          "internalType": "uint256",
          "name": "haircutRate_",
          "type": "uint256"
        }
      ],
      "name": "setHaircutRate",
      "outputs": [],
      "stateMutability": "nonpayable",
      "type": "function"
    },
    {
      "inputs": [
        {
          "internalType": "uint256",
          "name": "lpDividendRatio_",
          "type": "uint256"
        }
      ],
      "name": "setLpDividendRatio",
      "outputs": [],
      "stateMutability": "nonpayable",
      "type": "function"
    },
    {
      "inputs": [
        {
          "internalType": "uint256",
          "name": "mintFeeThreshold_",
          "type": "uint256"
        }
      ],
      "name": "setMintFeeThreshold",
      "outputs": [],
      "stateMutability": "nonpayable",
      "type": "function"
    },
    {
      "inputs": [
        {
          "internalType": "uint256",
          "name": "retentionRatio_",
          "type": "uint256"
        }
      ],
      "name": "setRetentionRatio",
      "outputs": [],
      "stateMutability": "nonpayable",
      "type": "function"
    },
    {
      "inputs": [
        {
          "internalType": "address",
          "name": "fromToken",
          "type": "address"
        },
        {
          "internalType": "address",
          "name": "toToken",
          "type": "address"
        },
        {
          "internalType": "uint256",
          "name": "fromAmount",
          "type": "uint256"
        },
        {
          "internalType": "uint256",
          "name": "minimumToAmount",
          "type": "uint256"
        },
        {
          "internalType": "address",
          "name": "to",
          "type": "address"
        },
        {
          "internalType": "uint256",
          "name": "deadline",
          "type": "uint256"
        }
      ],
      "name": "swap",
      "outputs": [
        {
          "internalType": "uint256",
          "name": "actualToAmount",
          "type": "uint256"
        },
        {
          "internalType": "uint256",
          "name": "haircut",
          "type": "uint256"
        }
      ],
      "stateMutability": "nonpayable",
      "type": "function"
    },
    {
      "inputs": [
        {
          "internalType": "address",
          "name": "token",
          "type": "address"
        }
      ],
      "name": "tipBucketBalance",
      "outputs": [
        {
          "internalType": "uint256",
          "name": "balance",
          "type": "uint256"
        }
      ],
      "stateMutability": "view",
      "type": "function"
    },
    {
      "inputs": [
        {
          "internalType": "address",
          "name": "newOwner",
          "type": "address"
        }
      ],
      "name": "transferOwnership",
      "outputs": [],
      "stateMutability": "nonpayable",
      "type": "function"
    },
    {
      "inputs": [],
      "name": "unpause",
      "outputs": [],
      "stateMutability": "nonpayable",
      "type": "function"
    },
    {
      "inputs": [
        {
          "internalType": "address",
          "name": "asset",
          "type": "address"
        }
      ],
      "name": "unpauseAsset",
      "outputs": [],
      "stateMutability": "nonpayable",
      "type": "function"
    },
    {
      "inputs": [
        {
          "internalType": "address",
          "name": "newImplementation",
          "type": "address"
        }
      ],
      "name": "upgradeTo",
      "outputs": [],
      "stateMutability": "nonpayable",
      "type": "function"
    },
    {
      "inputs": [
        {
          "internalType": "address",
          "name": "newImplementation",
          "type": "address"
        },
        {
          "internalType": "bytes",
          "name": "data",
          "type": "bytes"
        }
      ],
      "name": "upgradeToAndCall",
      "outputs": [],
      "stateMutability": "payable",
      "type": "function"
    },
    {
      "inputs": [
        {
          "internalType": "address",
          "name": "token",
          "type": "address"
        },
        {
          "internalType": "uint256",
          "name": "liquidity",
          "type": "uint256"
        },
        {
          "internalType": "uint256",
          "name": "minimumAmount",
          "type": "uint256"
        },
        {
          "internalType": "address",
          "name": "to",
          "type": "address"
        },
        {
          "internalType": "uint256",
          "name": "deadline",
          "type": "uint256"
        }
      ],
      "name": "withdraw",
      "outputs": [
        {
          "internalType": "uint256",
          "name": "amount",
          "type": "uint256"
        }
      ],
      "stateMutability": "nonpayable",
      "type": "function"
    },
    {
      "inputs": [
        {
          "internalType": "address",
          "name": "fromToken",
          "type": "address"
        },
        {
          "internalType": "address",
          "name": "toToken",
          "type": "address"
        },
        {
          "internalType": "uint256",
          "name": "liquidity",
          "type": "uint256"
        },
        {
          "internalType": "uint256",
          "name": "minimumAmount",
          "type": "uint256"
        },
        {
          "internalType": "address",
          "name": "to",
          "type": "address"
        },
        {
          "internalType": "uint256",
          "name": "deadline",
          "type": "uint256"
        }
      ],
      "name": "withdrawFromOtherAsset",
      "outputs": [
        {
          "internalType": "uint256",
          "name": "toAmount",
          "type": "uint256"
        }
      ],
      "stateMutability": "nonpayable",
      "type": "function"
    }
  ],
  "transactionHash": "0x181935b3d6689d8eb851fb01c1d7a62a89b8d040e2c17b55e714b3f4f5ffe216",
  "args": [],
  "solcInputHash": "049a0ee0f91226b9ce82376caea11def",
  "bytecode": "0x608060405234801561001057600080fd5b50614e9c806100206000396000f3fe6080604052600436106102c65760003560e01c80638456cb5911610179578063d0dd0e56116100d6578063dc3b7c8b1161008a578063f46901ed11610064578063f46901ed14610746578063f57e84d514610766578063f8b49e721461078657600080fd5b8063dc3b7c8b146106e6578063e4a3011614610706578063f2fde38b1461072657600080fd5b8063d477f05f116100bb578063d477f05f14610686578063d765f145146106a6578063da489997146106c657600080fd5b8063d0dd0e561461064f578063d30ffeda1461066657600080fd5b806391cca3db1161012d5780639abacb41116101125780639abacb41146105ef5780639e4416b71461060f578063d043c5651461062f57600080fd5b806391cca3db146105ae5780639908fc8b146105cf57600080fd5b80638da5cb5b1161015e5780638da5cb5b14610550578063907448ed1461056e57806390d250741461058e57600080fd5b80638456cb59146105265780638a2dfe091461053b57600080fd5b80634f1ef286116102275780636922d5ca116101db578063715018a6116101c0578063715018a6146104da57806371f96211146104ef578063815bfd291461050f57600080fd5b80636922d5ca146104c35780636a1460241461032e57600080fd5b80635c975abb1161020c5780635c975abb146104695780635cfe092e1461048c57806361858e23146104a357600080fd5b80634f1ef286146104215780634fdd64e51461043457600080fd5b80633659cfe61161027e5780633f4ba83a116102635780633f4ba83a146103cc57806344db964a146103e15780634a5e42b11461040157600080fd5b80633659cfe61461038a5780633753b14a146103ac57600080fd5b806308bdd265116102af57806308bdd2651461032e57806309a5fca31461034a5780630f91f06f1461036a57600080fd5b8063017b8292146102cb578063017e7e58146102f5575b600080fd5b3480156102d757600080fd5b506102e261012e5481565b6040519081526020015b60405180910390f35b34801561030157600080fd5b5061013454610316906001600160a01b031681565b6040516001600160a01b0390911681526020016102ec565b34801561033a57600080fd5b506102e2670de0b6b3a764000081565b34801561035657600080fd5b506102e2610365366004614948565b6107a6565b34801561037657600080fd5b506102e26103853660046147b9565b6109d3565b34801561039657600080fd5b506103aa6103a536600461472f565b610c2c565b005b3480156103b857600080fd5b506103aa6103c736600461472f565b610c53565b3480156103d857600080fd5b506103aa610cc4565b3480156103ed57600080fd5b506103aa6103fc3660046149e1565b610d33565b34801561040d57600080fd5b506103aa61041c36600461472f565b610dc0565b6103aa61042f366004614818565b610f96565b34801561044057600080fd5b5061045461044f36600461477d565b610faf565b604080519283526020830191909152016102ec565b34801561047557600080fd5b5060fb5460ff1660405190151581526020016102ec565b34801561049857600080fd5b506102e26101325481565b3480156104af57600080fd5b506104546104be3660046148da565b61117b565b3480156104cf57600080fd5b506102e26101305481565b3480156104e657600080fd5b506103aa61121d565b3480156104fb57600080fd5b5061031661050a36600461472f565b611271565b34801561051b57600080fd5b506102e26101315481565b34801561053257600080fd5b506103aa611282565b34801561054757600080fd5b506104546112ea565b34801561055c57600080fd5b506097546001600160a01b0316610316565b34801561057a57600080fd5b506104546105893660046148da565b611314565b34801561059a57600080fd5b506102e26105a9366004614904565b611387565b3480156105ba57600080fd5b5061013354610316906001600160a01b031681565b3480156105db57600080fd5b506104546105ea3660046147b9565b611568565b3480156105fb57600080fd5b506103aa61060a36600461472f565b611873565b34801561061b57600080fd5b506103aa61062a3660046149e1565b6118dc565b34801561063b57600080fd5b506103aa61064a3660046149e1565b611953565b34801561065b57600080fd5b506102e261012f5481565b34801561067257600080fd5b506102e261068136600461472f565b6119a1565b34801561069257600080fd5b506103aa6106a136600461472f565b611b56565b3480156106b257600080fd5b506103aa6106c13660046149e1565b611bca565b3480156106d257600080fd5b506103aa6106e136600461474a565b611c57565b3480156106f257600080fd5b506102e261070136600461472f565b611e05565b34801561071257600080fd5b506103aa610721366004614a13565b611f8c565b34801561073257600080fd5b506103aa61074136600461472f565b61208d565b34801561075257600080fd5b506103aa61076136600461472f565b61215a565b34801561077257600080fd5b506103aa6107813660046149e1565b6121ec565b34801561079257600080fd5b506103aa6107a136600461472f565b612263565b6000600260c95414156108005760405162461bcd60e51b815260206004820152601f60248201527f5265656e7472616e637947756172643a207265656e7472616e742063616c6c0060448201526064015b60405180910390fd5b600260c95560fb5460ff161561084b5760405162461bcd60e51b815260206004820152601060248201526f14185d5cd8589b194e881c185d5cd95960821b60448201526064016107f7565b61085485612274565b61085d836122ab565b610866826122eb565b600061087187612325565b90506108886001600160a01b038216338389612380565b61090d816001600160a01b0316637284168a6040518163ffffffff1660e01b815260040160206040518083038186803b1580156108c457600080fd5b505afa1580156108d8573d6000803e3d6000fd5b505050506040513d601f19601f820116820180604052508101906108fc9190614a35565b61090783898961240e565b9061259e565b604051639e79eaa560e01b81526001600160a01b0386811660048301526024820183905291935090821690639e79eaa590604401600060405180830381600087803b15801561095b57600080fd5b505af115801561096f573d6000803e3d6000fd5b5050604080516001600160a01b038b81168252602082018790529181018a905290871692503391507ffb80d861da582b723be2d19507ce3e03851820c464abea89156ec77e089b1ad99060600160405180910390a350600160c95595945050505050565b6000600260c9541415610a285760405162461bcd60e51b815260206004820152601f60248201527f5265656e7472616e637947756172643a207265656e7472616e742063616c6c0060448201526064016107f7565b600260c95560fb5460ff1615610a735760405162461bcd60e51b815260206004820152601060248201526f14185d5cd8589b194e881c185d5cd95960821b60448201526064016107f7565b610a7c836122ab565b610a8585612274565b610a8e826122eb565b610a9787612606565b6000610aa288612325565b90506000610aaf88612325565b9050610ac66001600160a01b03831633848a612380565b6000610ad48389600061240e565b9050610ae38383838a8a61265a565b5080945050610b63826001600160a01b0316637284168a6040518163ffffffff1660e01b815260040160206040518083038186803b158015610b2457600080fd5b505afa158015610b38573d6000803e3d6000fd5b505050506040513d601f19601f82011682018060405250810190610b5c9190614a35565b859061259e565b604051639e79eaa560e01b81526001600160a01b0388811660048301526024820183905291955090831690639e79eaa590604401600060405180830381600087803b158015610bb157600080fd5b505af1158015610bc5573d6000803e3d6000fd5b5050604080516001600160a01b038d81168252602082018990529181018c905290891692503391507ffb80d861da582b723be2d19507ce3e03851820c464abea89156ec77e089b1ad99060600160405180910390a35050600160c955509695505050505050565b610c3581612773565b610c50816040518060200160405280600081525060006127bb565b50565b600260c9541415610ca65760405162461bcd60e51b815260206004820152601f60248201527f5265656e7472616e637947756172643a207265656e7472616e742063616c6c0060448201526064016107f7565b600260c955610cb361297f565b610cbc816129c4565b50600160c955565b600260c9541415610d175760405162461bcd60e51b815260206004820152601f60248201527f5265656e7472616e637947756172643a207265656e7472616e742063616c6c0060448201526064016107f7565b600260c955610d2461297f565b610d2c612a2e565b600160c955565b6097546001600160a01b03163314610d7b5760405162461bcd60e51b81526020600482018190526024820152600080516020614e2083398151915260448201526064016107f7565b670de0b6b3a76400006101315482610d939190614ae6565b1115610db2576040516312b019e160e01b815260040160405180910390fd5b610dba612aca565b61013055565b6097546001600160a01b03163314610e085760405162461bcd60e51b81526020600482018190526024820152600080516020614e2083398151915260448201526064016107f7565b6001600160a01b038082166000908152610137602052604090205416610e4157604051633b2c013560e21b815260040160405180910390fd5b6001600160a01b0381811660009081526101376020908152604080832080546001600160a01b031981169091556101389092528220546101365491909316929190610e8e90600190614d13565b905060006101366000018281548110610ea957610ea9614df3565b60009182526020808320909101546001600160a01b03908116808452610138909252604080842087905590881683528220919091556101368054919250829185908110610ef857610ef8614df3565b600091825260209091200180546001600160a01b0319166001600160a01b0392909216919091179055610136805480610f3357610f33614ddd565b600082815260208120820160001990810180546001600160a01b03191690559091019091556040516001600160a01b0386811692908816917f0fa1e4606af435f32f05b3804033d2933e691fab32ee74d2db6fa82d2741f1ea9190a35050505050565b610f9f82612773565b610fab828260016127bb565b5050565b600080610fbc8585612b23565b82610fda5760405163b483c10f60e01b815260040160405180910390fd5b6000610fe586612325565b90506000610ff286612325565b9050600085121561102657600061101661012f548761101090614d94565b90612b6f565b90506110228187614cd4565b9550505b6110a1826001600160a01b0316637284168a6040518163ffffffff1660e01b815260040160206040518083038186803b15801561106257600080fd5b505afa158015611076573d6000803e3d6000fd5b505050506040513d601f19601f8201168201806040525081019061109a9190614a35565b8690612ba3565b94506110ae828287612bfd565b80945081955050506110f2816001600160a01b0316637284168a6040518163ffffffff1660e01b815260040160206040518083038186803b158015610b2457600080fd5b935061116f816001600160a01b0316637284168a6040518163ffffffff1660e01b815260040160206040518083038186803b15801561113057600080fd5b505afa158015611144573d6000803e3d6000fd5b505050506040513d601f19601f820116820180604052508101906111689190614a35565b849061259e565b92505050935093915050565b600080600061118985612325565b905061120f8161120a836001600160a01b0316637284168a6040518163ffffffff1660e01b815260040160206040518083038186803b1580156111cb57600080fd5b505afa1580156111df573d6000803e3d6000fd5b505050506040513d601f19601f820116820180604052508101906112039190614a35565b8790612e8e565b612ebe565b919791965090945050505050565b6097546001600160a01b031633146112655760405162461bcd60e51b81526020600482018190526024820152600080516020614e2083398151915260448201526064016107f7565b61126f60006130f5565b565b600061127c82612325565b92915050565b600260c95414156112d55760405162461bcd60e51b815260206004820152601f60248201527f5265656e7472616e637947756172643a207265656e7472616e742063616c6c0060448201526064016107f7565b600260c9556112e261297f565b610d2c613147565b60008060006112f76131c2565b809250819350505061130d828261012e54613352565b9250509091565b60008061132083612274565b600061132b85612325565b9050611337818561337d565b9050809350819450505061137d816001600160a01b0316637284168a6040518163ffffffff1660e01b815260040160206040518083038186803b15801561113057600080fd5b9250509250929050565b6000600260c95414156113dc5760405162461bcd60e51b815260206004820152601f60248201527f5265656e7472616e637947756172643a207265656e7472616e742063616c6c0060448201526064016107f7565b600260c95560fb5460ff16156114275760405162461bcd60e51b815260206004820152601060248201526f14185d5cd8589b194e881c185d5cd95960821b60448201526064016107f7565b836114455760405163b483c10f60e01b815260040160405180910390fd5b61144e836122ab565b611457826122eb565b61146085612606565b600061146b86612325565b90506114826001600160a01b038716338388612380565b61150781611501836001600160a01b0316637284168a6040518163ffffffff1660e01b815260040160206040518083038186803b1580156114c257600080fd5b505afa1580156114d6573d6000803e3d6000fd5b505050506040513d601f19601f820116820180604052508101906114fa9190614a35565b8890612e8e565b866135ae565b604080516001600160a01b0389811682526020820189905291810183905291935085169033907ff5dd9317b9e63ac316ce44acc85f670b54b339cfa3e9076e1dd55065b922314b9060600160405180910390a350600160c955949350505050565b600080600260c95414156115be5760405162461bcd60e51b815260206004820152601f60248201527f5265656e7472616e637947756172643a207265656e7472616e742063616c6c0060448201526064016107f7565b600260c95560fb5460ff16156116095760405162461bcd60e51b815260206004820152601060248201526f14185d5cd8589b194e881c185d5cd95960821b60448201526064016107f7565b6116138888612b23565b856116315760405163b483c10f60e01b815260040160405180910390fd5b61163a846122ab565b611643836122eb565b61164c88612606565b600061165789612325565b9050600061166489612325565b90506000826001600160a01b0316637284168a6040518163ffffffff1660e01b815260040160206040518083038186803b1580156116a157600080fd5b505afa1580156116b5573d6000803e3d6000fd5b505050506040513d601f19601f820116820180604052508101906116d99190614a35565b90506000826001600160a01b0316637284168a6040518163ffffffff1660e01b815260040160206040518083038186803b15801561171657600080fd5b505afa15801561172a573d6000803e3d6000fd5b505050506040513d601f19601f8201168201806040525081019061174e9190614a35565b905061176f848461175f8d86612e8e565b6117698d86612e8e565b8c61265a565b909650945061177e868261259e565b955061178a858261259e565b94506117a49150506001600160a01b038b1633848b612380565b604051639e79eaa560e01b81526001600160a01b03878116600483015260248201869052821690639e79eaa590604401600060405180830381600087803b1580156117ee57600080fd5b505af1158015611802573d6000803e3d6000fd5b5050604080516001600160a01b038e811682528d811660208301529181018c90526060810188905290891692503391507f54787c404bb33c88e86f4baf88183a3b0141d0a848e6a9f7a13b66ae3a9b73d19060800160405180910390a35050600160c9559097909650945050505050565b600260c95414156118c65760405162461bcd60e51b815260206004820152601f60248201527f5265656e7472616e637947756172643a207265656e7472616e742063616c6c0060448201526064016107f7565b600260c9556118d361297f565b610cbc816136d5565b6097546001600160a01b031633146119245760405162461bcd60e51b81526020600482018190526024820152600080516020614e2083398151915260448201526064016107f7565b670de0b6b3a764000081111561194d576040516312b019e160e01b815260040160405180910390fd5b61012e55565b6097546001600160a01b0316331461199b5760405162461bcd60e51b81526020600482018190526024820152600080516020614e2083398151915260448201526064016107f7565b61013255565b6000806119ad83612325565b90506101356000826001600160a01b03166001600160a01b0316815260200190815260200160002054816001600160a01b031663961be3916040518163ffffffff1660e01b815260040160206040518083038186803b158015611a0f57600080fd5b505afa158015611a23573d6000803e3d6000fd5b505050506040513d601f19601f82011682018060405250810190611a4791906149b8565b6001600160781b0316611b3b836001600160a01b0316637284168a6040518163ffffffff1660e01b815260040160206040518083038186803b158015611a8c57600080fd5b505afa158015611aa0573d6000803e3d6000fd5b505050506040513d601f19601f82011682018060405250810190611ac49190614a35565b846001600160a01b03166399c91a646040518163ffffffff1660e01b815260040160206040518083038186803b158015611afd57600080fd5b505afa158015611b11573d6000803e3d6000fd5b505050506040513d601f19601f82011682018060405250810190611b3591906149fa565b90612e8e565b611b459190614d13565b611b4f9190614d13565b9392505050565b6097546001600160a01b03163314611b9e5760405162461bcd60e51b81526020600482018190526024820152600080516020614e2083398151915260448201526064016107f7565b611ba7816122ab565b61013380546001600160a01b0319166001600160a01b0392909216919091179055565b6097546001600160a01b03163314611c125760405162461bcd60e51b81526020600482018190526024820152600080516020614e2083398151915260448201526064016107f7565b670de0b6b3a76400008161013054611c2a9190614ae6565b1115611c49576040516312b019e160e01b815260040160405180910390fd5b611c51612aca565b61013155565b6097546001600160a01b03163314611c9f5760405162461bcd60e51b81526020600482018190526024820152600080516020614e2083398151915260448201526064016107f7565b600260c9541415611cf25760405162461bcd60e51b815260206004820152601f60248201527f5265656e7472616e637947756172643a207265656e7472616e742063616c6c0060448201526064016107f7565b600260c955611d00816122ab565b611d09826122ab565b6001600160a01b03808316600090815261013760205260409020541615611d5c576040517f8991c4c400000000000000000000000000000000000000000000000000000000815260040160405180910390fd5b6001600160a01b0380831660008181526101376020908152604080832080549587166001600160a01b03199687168117909155610136805461013890945282852084905560018401815584527f39da2db355130acf428d669fbf1c14faa9d51399a25b793fc254bbbde66f02e29092018054909516841790945592517f0bb5715f0f217c2fe9a0c877ea87d474380c641102f3440ee2a4c8b9d97909189190a35050600160c955565b600080611e1183612325565b9050806001600160a01b03166318160ddd6040518163ffffffff1660e01b815260040160206040518083038186803b158015611e4c57600080fd5b505afa158015611e60573d6000803e3d6000fd5b505050506040513d601f19601f82011682018060405250810190611e8491906149fa565b611e985750670de0b6b3a764000092915050565b611b4f816001600160a01b03166318160ddd6040518163ffffffff1660e01b815260040160206040518083038186803b158015611ed457600080fd5b505afa158015611ee8573d6000803e3d6000fd5b505050506040513d601f19601f82011682018060405250810190611f0c91906149fa565b826001600160a01b031663705727b56040518163ffffffff1660e01b815260040160206040518083038186803b158015611f4557600080fd5b505afa158015611f59573d6000803e3d6000fd5b505050506040513d601f19601f82011682018060405250810190611f7d91906149b8565b6001600160781b031690613735565b600054610100900460ff1680611fa5575060005460ff16155b6120085760405162461bcd60e51b815260206004820152602e60248201527f496e697469616c697a61626c653a20636f6e747261637420697320616c72656160448201526d191e481a5b9a5d1a585b1a5e995960921b60648201526084016107f7565b600054610100900460ff1615801561202a576000805461ffff19166101011790555b612032613755565b61203a613817565b6120426138c8565b61204a61397f565b61012e83905561012f829055670de0b6b3a76400006101315561013380546001600160a01b031916331790558015612088576000805461ff00191690555b505050565b6097546001600160a01b031633146120d55760405162461bcd60e51b81526020600482018190526024820152600080516020614e2083398151915260448201526064016107f7565b6001600160a01b0381166121515760405162461bcd60e51b815260206004820152602660248201527f4f776e61626c653a206e6577206f776e657220697320746865207a65726f206160448201527f646472657373000000000000000000000000000000000000000000000000000060648201526084016107f7565b610c50816130f5565b6097546001600160a01b031633146121a25760405162461bcd60e51b81526020600482018190526024820152600080516020614e2083398151915260448201526064016107f7565b6001600160a01b0381166121c9576040516312b019e160e01b815260040160405180910390fd5b61013480546001600160a01b0319166001600160a01b0392909216919091179055565b6097546001600160a01b031633146122345760405162461bcd60e51b81526020600482018190526024820152600080516020614e2083398151915260448201526064016107f7565b670de0b6b3a764000081111561225d576040516312b019e160e01b815260040160405180910390fd5b61012f55565b610c5061226f82612325565b613a3b565b80610c50576040517f3f3835e700000000000000000000000000000000000000000000000000000000815260040160405180910390fd5b6001600160a01b038116610c50576040517f0bd3e3ed00000000000000000000000000000000000000000000000000000000815260040160405180910390fd5b42811015610c50576040517f549b633500000000000000000000000000000000000000000000000000000000815260040160405180910390fd5b6001600160a01b038082166000908152610137602052604081205490911661236057604051633b2c013560e21b815260040160405180910390fd5b506001600160a01b03908116600090815261013760205260409020541690565b604080516001600160a01b0385811660248301528416604482015260648082018490528251808303909101815260849091019091526020810180517bffffffffffffffffffffffffffffffffffffffffffffffffffffffff167f23b872dd00000000000000000000000000000000000000000000000000000000179052612408908590613c7c565b50505050565b600061241984613a3b565b6000612425858561337d565b5090925090506124358383613d61565b6040517f9dc29fac0000000000000000000000000000000000000000000000000000000081526001600160a01b038616600482018190526024820186905290639dc29fac90604401600060405180830381600087803b15801561249757600080fd5b505af11580156124ab573d6000803e3d6000fd5b50506040517f9f9ef988000000000000000000000000000000000000000000000000000000008152600481018590526001600160a01b0388169250639f9ef9889150602401600060405180830381600087803b15801561250a57600080fd5b505af115801561251e573d6000803e3d6000fd5b50506040517fd8b87853000000000000000000000000000000000000000000000000000000008152600481018490526001600160a01b038816925063d8b8785391506024015b600060405180830381600087803b15801561257e57600080fd5b505af1158015612592573d6000803e3d6000fd5b50505050509392505050565b600060128260ff1610156125d3576125b7826012614d2a565b6125c290600a614b83565b6125cc9084614b2c565b905061127c565b60128260ff1611156125ff576125ea601283614d2a565b6125f590600a614b83565b6125cc9084614cb5565b5090919050565b6001600160a01b038116600090815261012d602052604090205460ff1615610c50576040517f8654830a00000000000000000000000000000000000000000000000000000000815260040160405180910390fd5b600080612668878787612bfd565b90925090506126778483613d61565b6001600160a01b03861660009081526101356020526040812080548392906126a0908490614ae6565b909155505060405162b64f3d60e51b8152600481018690526001600160a01b038816906316c9e7a090602401600060405180830381600087803b1580156126e657600080fd5b505af11580156126fa573d6000803e3d6000fd5b50505050856001600160a01b0316639f9ef98882846127199190614ae6565b6040518263ffffffff1660e01b815260040161273791815260200190565b600060405180830381600087803b15801561275157600080fd5b505af1158015612765573d6000803e3d6000fd5b505050509550959350505050565b6097546001600160a01b03163314610c505760405162461bcd60e51b81526020600482018190526024820152600080516020614e2083398151915260448201526064016107f7565b60006127ee7f360894a13ba1a3210667c828492db98dca3e2076cc3735a920a3ca505d382bbc546001600160a01b031690565b90506127f984613d9b565b6000835111806128065750815b15612817576128158484613e50565b505b7f4910fdfa16fed3260ed0e7147f7cc6da11a60208b5b9406d12a635614ffd9143805460ff1661297857805460ff191660011781556040516001600160a01b03831660248201526128c490869060440160408051601f198184030181529190526020810180517bffffffffffffffffffffffffffffffffffffffffffffffffffffffff167f3659cfe600000000000000000000000000000000000000000000000000000000179052613e50565b50805460ff191681557f360894a13ba1a3210667c828492db98dca3e2076cc3735a920a3ca505d382bbc546001600160a01b0383811691161461296f5760405162461bcd60e51b815260206004820152602f60248201527f45524331393637557067726164653a207570677261646520627265616b73206660448201527f757274686572207570677261646573000000000000000000000000000000000060648201526084016107f7565b61297885613f49565b5050505050565b610133546001600160a01b0316331461126f576040517f5bf78ef400000000000000000000000000000000000000000000000000000000815260040160405180910390fd5b6129cd81612606565b6001600160a01b038116600081815261012d6020908152604091829020805460ff19166001179055815192835233908301527fdcb65c0553aaa433aadd180404ff195259c48f78aa50f877ebcb4bb215129a4e91015b60405180910390a150565b60fb5460ff16612a805760405162461bcd60e51b815260206004820152601460248201527f5061757361626c653a206e6f742070617573656400000000000000000000000060448201526064016107f7565b60fb805460ff191690557f5db9ee0a495bf2e6ff9c91a7834c1ba4fdd244a5e8aa4e537bd38aeae4b073aa335b6040516001600160a01b03909116815260200160405180910390a1565b60005b61013654811015610c50576000612b05612ae683613f89565b6001600160a01b03908116600090815261013760205260409020541690565b9050612b1081613a3b565b5080612b1b81614d79565b915050612acd565b806001600160a01b0316826001600160a01b03161415610fab576040517feeb7911f00000000000000000000000000000000000000000000000000000000815260040160405180910390fd5b6000670de0b6b3a7640000612b85600282614b2c565b612b8f8486614cb5565b612b999190614ae6565b611b4f9190614b2c565b600060128260ff161015612bd157612bbc826012614d2a565b612bc790600a614b83565b6125cc9084614c2e565b60128260ff1611156125ff57612be8601283614d2a565b612bf390600a614b83565b6125cc9084614afe565b600080600080856001600160a01b031663961be3916040518163ffffffff1660e01b815260040160206040518083038186803b158015612c3c57600080fd5b505afa158015612c50573d6000803e3d6000fd5b505050506040513d601f19601f82011682018060405250810190612c7491906149b8565b6001600160781b031690506000876001600160a01b031663705727b56040518163ffffffff1660e01b815260040160206040518083038186803b158015612cba57600080fd5b505afa158015612cce573d6000803e3d6000fd5b505050506040513d601f19601f82011682018060405250810190612cf291906149b8565b6001600160781b031690506000876001600160a01b031663705727b56040518163ffffffff1660e01b815260040160206040518083038186803b158015612d3857600080fd5b505afa158015612d4c573d6000803e3d6000fd5b505050506040513d601f19601f82011682018060405250810190612d7091906149b8565b6001600160781b03169050612d8482612274565b612d8d81612274565b612e17896001600160a01b031663961be3916040518163ffffffff1660e01b815260040160206040518083038186803b158015612dc957600080fd5b505afa158015612ddd573d6000803e3d6000fd5b505050506040513d601f19601f82011682018060405250810190612e0191906149b8565b6001600160781b03168484848b61012e54613fbd565b9350505081811015612e55576040517f9a6114b700000000000000000000000000000000000000000000000000000000815260040160405180910390fd5b61012f54612e64908390612b6f565b92506000851315612e8057612e798383614d13565b9350612e84565b8193505b5050935093915050565b600060128260ff161015612ea7576125ea826012614d2a565b60128260ff1611156125ff576125b7601283614d2a565b6000806000612fcc612fc785876001600160a01b031663961be3916040518163ffffffff1660e01b815260040160206040518083038186803b158015612f0357600080fd5b505afa158015612f17573d6000803e3d6000fd5b505050506040513d601f19601f82011682018060405250810190612f3b91906149b8565b6001600160781b0316886001600160a01b031663705727b56040518163ffffffff1660e01b815260040160206040518083038186803b158015612f7d57600080fd5b505afa158015612f91573d6000803e3d6000fd5b505050506040513d601f19601f82011682018060405250810190612fb591906149b8565b6001600160781b031661012e5461405d565b6141d3565b9150612fd88483614d13565b90506000856001600160a01b031663705727b56040518163ffffffff1660e01b815260040160206040518083038186803b15801561301557600080fd5b505afa158015613029573d6000803e3d6000fd5b505050506040513d601f19601f8201168201806040525081019061304d91906149b8565b6001600160781b0316905080156130e95780866001600160a01b03166318160ddd6040518163ffffffff1660e01b815260040160206040518083038186803b15801561309857600080fd5b505afa1580156130ac573d6000803e3d6000fd5b505050506040513d601f19601f820116820180604052508101906130d091906149fa565b6130da9085614cb5565b6130e49190614b2c565b6130eb565b825b9350509250925092565b609780546001600160a01b038381166001600160a01b0319831681179093556040519116919082907f8be0079c531659141344cd1fd0a4f28419497f9722a3daafe3b4186f6b6457e090600090a35050565b60fb5460ff161561318d5760405162461bcd60e51b815260206004820152601060248201526f14185d5cd8589b194e881c185d5cd95960821b60448201526064016107f7565b60fb805460ff191660011790557f62e78cea01bee320cd4e420270b5ea74000d11b0c9f74754ebdbfc544b05a258612aad3390565b61012e546000908190815b6101365481101561334c5760006131e6612ae683613f89565b90506000816001600160a01b031663961be3916040518163ffffffff1660e01b815260040160206040518083038186803b15801561322357600080fd5b505afa158015613237573d6000803e3d6000fd5b505050506040513d601f19601f8201168201806040525081019061325b91906149b8565b6001600160781b031690506000826001600160a01b031663705727b56040518163ffffffff1660e01b815260040160206040518083038186803b1580156132a157600080fd5b505afa1580156132b5573d6000803e3d6000fd5b505050506040513d601f19601f820116820180604052508101906132d991906149b8565b6001600160781b03169050806132f15750505061333a565b60006132fd8383613735565b90506133098288614ae6565b96506133296133188783613735565b6133229083614d13565b8390612b6f565b6133339089614ae6565b9750505050505b8061334481614d79565b9150506131cd565b50509091565b60008061335f8585614229565b61336890614d94565b9050613374818461425d565b95945050505050565b6000806000846001600160a01b03166318160ddd6040518163ffffffff1660e01b815260040160206040518083038186803b1580156133bb57600080fd5b505afa1580156133cf573d6000803e3d6000fd5b505050506040513d601f19601f820116820180604052508101906133f391906149fa565b84866001600160a01b031663705727b56040518163ffffffff1660e01b815260040160206040518083038186803b15801561342d57600080fd5b505afa158015613441573d6000803e3d6000fd5b505050506040513d601f19601f8201168201806040525081019061346591906149b8565b6001600160781b03166134789190614cb5565b6134829190614b2c565b915061348d82612274565b613599612fc761349c84614d94565b876001600160a01b031663961be3916040518163ffffffff1660e01b815260040160206040518083038186803b1580156134d557600080fd5b505afa1580156134e9573d6000803e3d6000fd5b505050506040513d601f19601f8201168201806040525081019061350d91906149b8565b6001600160781b0316886001600160a01b031663705727b56040518163ffffffff1660e01b815260040160206040518083038186803b15801561354f57600080fd5b505afa158015613563573d6000803e3d6000fd5b505050506040513d601f19601f8201168201806040525081019061358791906149b8565b6001600160781b031661012e546142b2565b92506135a58383614d13565b90509250925092565b60006135b984613a3b565b60006135c58585612ebe565b5090925090506135d482612274565b60405162b64f3d60e51b8152600481018590526001600160a01b038616906316c9e7a090602401600060405180830381600087803b15801561361557600080fd5b505af1158015613629573d6000803e3d6000fd5b505060405163283c3d8160e21b8152600481018490526001600160a01b038816925063a0f0f6049150602401600060405180830381600087803b15801561366f57600080fd5b505af1158015613683573d6000803e3d6000fd5b50506040517f40c10f190000000000000000000000000000000000000000000000000000000081526001600160a01b03868116600483015260248201869052881692506340c10f199150604401612564565b6136de81614360565b6001600160a01b038116600081815261012d6020908152604091829020805460ff19169055815192835233908301527fdb198487a4c70aa000c3b1020f52688b4b86d3ebcedc84a793e03ed3b480902c9101612a23565b600081613743600282614b2c565b612b8f670de0b6b3a764000086614cb5565b600054610100900460ff168061376e575060005460ff16155b6137d15760405162461bcd60e51b815260206004820152602e60248201527f496e697469616c697a61626c653a20636f6e747261637420697320616c72656160448201526d191e481a5b9a5d1a585b1a5e995960921b60648201526084016107f7565b600054610100900460ff161580156137f3576000805461ffff19166101011790555b6137fb613817565b6138036143b3565b8015610c50576000805461ff001916905550565b600054610100900460ff1680613830575060005460ff16155b6138935760405162461bcd60e51b815260206004820152602e60248201527f496e697469616c697a61626c653a20636f6e747261637420697320616c72656160448201526d191e481a5b9a5d1a585b1a5e995960921b60648201526084016107f7565b600054610100900460ff16158015613803576000805461ffff19166101011790558015610c50576000805461ff001916905550565b600054610100900460ff16806138e1575060005460ff16155b6139445760405162461bcd60e51b815260206004820152602e60248201527f496e697469616c697a61626c653a20636f6e747261637420697320616c72656160448201526d191e481a5b9a5d1a585b1a5e995960921b60648201526084016107f7565b600054610100900460ff16158015613966576000805461ffff19166101011790555b600160c9558015610c50576000805461ff001916905550565b600054610100900460ff1680613998575060005460ff16155b6139fb5760405162461bcd60e51b815260206004820152602e60248201527f496e697469616c697a61626c653a20636f6e747261637420697320616c72656160448201526d191e481a5b9a5d1a585b1a5e995960921b60648201526084016107f7565b600054610100900460ff16158015613a1d576000805461ffff19166101011790555b60fb805460ff191690558015610c50576000805461ff001916905550565b6001600160a01b03811660009081526101356020526040902054801580613a6457506101325481105b15613a6d575050565b6000613a976101305461013154670de0b6b3a7640000613a8d9190614d13565b6133229190614d13565b90508015613b7857826001600160a01b0316639e79eaa561013460009054906101000a90046001600160a01b0316613b01866001600160a01b0316637284168a6040518163ffffffff1660e01b815260040160206040518083038186803b158015610b2457600080fd5b6040517fffffffff0000000000000000000000000000000000000000000000000000000060e085901b1681526001600160a01b0390921660048301526024820152604401600060405180830381600087803b158015613b5f57600080fd5b505af1158015613b73573d6000803e3d6000fd5b505050505b506000613b916101315483612b6f90919063ffffffff16565b90508015613c5f576000613ba58483612ebe565b5060405163283c3d8160e21b8152600481018290529092506001600160a01b038616915063a0f0f60490602401600060405180830381600087803b158015613bec57600080fd5b505af1158015613c00573d6000803e3d6000fd5b505060405162b64f3d60e51b8152600481018590526001600160a01b03871692506316c9e7a09150602401600060405180830381600087803b158015613c4557600080fd5b505af1158015613c59573d6000803e3d6000fd5b50505050505b50506001600160a01b031660009081526101356020526040812055565b6000613cd1826040518060400160405280602081526020017f5361666545524332303a206c6f772d6c6576656c2063616c6c206661696c6564815250856001600160a01b031661445a9092919063ffffffff16565b8051909150156120885780806020019051810190613cef9190614996565b6120885760405162461bcd60e51b815260206004820152602a60248201527f5361666545524332303a204552433230206f7065726174696f6e20646964206e60448201527f6f7420737563636565640000000000000000000000000000000000000000000060648201526084016107f7565b80821115610fab576040517ff512a72000000000000000000000000000000000000000000000000000000000815260040160405180910390fd5b803b613e0f5760405162461bcd60e51b815260206004820152602d60248201527f455243313936373a206e657720696d706c656d656e746174696f6e206973206e60448201527f6f74206120636f6e74726163740000000000000000000000000000000000000060648201526084016107f7565b7f360894a13ba1a3210667c828492db98dca3e2076cc3735a920a3ca505d382bbc80546001600160a01b0319166001600160a01b0392909216919091179055565b6060823b613ec65760405162461bcd60e51b815260206004820152602660248201527f416464726573733a2064656c65676174652063616c6c20746f206e6f6e2d636f60448201527f6e7472616374000000000000000000000000000000000000000000000000000060648201526084016107f7565b600080846001600160a01b031684604051613ee19190614a58565b600060405180830381855af49150503d8060008114613f1c576040519150601f19603f3d011682016040523d82523d6000602084013e613f21565b606091505b50915091506133748282604051806060016040528060278152602001614e4060279139614469565b613f5281613d9b565b6040516001600160a01b038216907fbc7cd75a20ee27fd9adebab32041f755214dbc6bffa90cc0225b39da2e5c2d3b90600090a250565b60006101366000018281548110613fa257613fa2614df3565b6000918252602090912001546001600160a01b031692915050565b600080613fdf86613fce8a82614229565b87613fd98b82614229565b876144a2565b90506000613ff787613ff1878c614aa7565b90614229565b905060006140088888848689614507565b90506000614016828761425d565b905060008a6140258a84614549565b61402f9190614cd4565b9050600081121561404a5761404381614d94565b955061404e565b8095505b50505050509695505050505050565b60008261406b5750836141cb565b60006140778686614aa7565b12156140af576040517fae03266000000000000000000000000000000000000000000000000000000000815260040160405180910390fd5b60006140bb8585614229565b905060006140c98688614aa7565b905060006140d78587614549565b6140e2906002614c2e565b6140fe6140f787670de0b6b3a7640000614cd4565b8490614549565b6141089190614aa7565b905060006141208761411a8882614549565b90614549565b61412a8480614549565b614153866141388b8b614c2e565b6141429190614afe565b61414c908c614cd4565b8690614549565b61415d9190614cd4565b6141679190614aa7565b9050600081614177886004614c2e565b6141819190614c2e565b61418b8480614c2e565b6141959190614cd4565b905060026141b9886141a684614569565b6141af87614d94565b613ff19190614aa7565b6141c39190614afe565b955050505050505b949350505050565b6000808212156142255760405162461bcd60e51b815260206004820152601660248201527f76616c7565206d75737420626520706f7369746976650000000000000000000060448201526064016107f7565b5090565b600081614237600282614afe565b614249670de0b6b3a764000086614c2e565b6142539190614aa7565b611b4f9190614afe565b60008061429a670de0b6b3a7640000614277856004614c2e565b6142819190614c2e565b61428b8680614c2e565b6142959190614aa7565b614569565b905060026142a88583614cd4565b6141cb9190614afe565b6000806142bf8685614aa7565b905060006142cd8686614229565b905060006142ef6142de8684614229565b6142e89084614cd4565b8790614549565b90506000600261431161430a88670de0b6b3a7640000614cd4565b8b90614549565b61431b9084614aa7565b6143259190614afe565b9050600061434a6143406143398780614c2e565b8990614549565b61428b8480614c2e565b6143549083614aa7565b90506141c3818a614cd4565b6001600160a01b038116600090815261012d602052604090205460ff16610c50576040517f855b737300000000000000000000000000000000000000000000000000000000815260040160405180910390fd5b600054610100900460ff16806143cc575060005460ff16155b61442f5760405162461bcd60e51b815260206004820152602e60248201527f496e697469616c697a61626c653a20636f6e747261637420697320616c72656160448201526d191e481a5b9a5d1a585b1a5e995960921b60648201526084016107f7565b600054610100900460ff16158015614451576000805461ffff19166101011790555b613803336130f5565b60606141cb84846000856145d9565b60608315614478575081611b4f565b8251156144885782518084602001fd5b8160405162461bcd60e51b81526004016107f79190614a74565b6000806144af8585614549565b6144b98888614549565b6144c39190614aa7565b905060006144ef6144d48787614229565b6144de8a8a614229565b6144e89190614aa7565b8590614549565b90506144fb8183614cd4565b98975050505050505050565b60006145138386614229565b61453586613ff16145248689614229565b61452e9089614cd4565b8a90614549565b61453f9190614cd4565b9695505050505050565b6000670de0b6b3a764000061455f600282614afe565b6142498486614c2e565b600060038213156145ca5750806000614583600283614afe565b61458e906001614aa7565b90505b818112156145c4579050806002816145a98186614afe565b6145b39190614aa7565b6145bd9190614afe565b9050614591565b50919050565b81156145d4575060015b919050565b6060824710156146515760405162461bcd60e51b815260206004820152602660248201527f416464726573733a20696e73756666696369656e742062616c616e636520666f60448201527f722063616c6c000000000000000000000000000000000000000000000000000060648201526084016107f7565b843b61469f5760405162461bcd60e51b815260206004820152601d60248201527f416464726573733a2063616c6c20746f206e6f6e2d636f6e747261637400000060448201526064016107f7565b600080866001600160a01b031685876040516146bb9190614a58565b60006040518083038185875af1925050503d80600081146146f8576040519150601f19603f3d011682016040523d82523d6000602084013e6146fd565b606091505b509150915061470d828286614469565b979650505050505050565b80356001600160a01b03811681146145d457600080fd5b60006020828403121561474157600080fd5b611b4f82614718565b6000806040838503121561475d57600080fd5b61476683614718565b915061477460208401614718565b90509250929050565b60008060006060848603121561479257600080fd5b61479b84614718565b92506147a960208501614718565b9150604084013590509250925092565b60008060008060008060c087890312156147d257600080fd5b6147db87614718565b95506147e960208801614718565b9450604087013593506060870135925061480560808801614718565b915060a087013590509295509295509295565b6000806040838503121561482b57600080fd5b61483483614718565b9150602083013567ffffffffffffffff8082111561485157600080fd5b818501915085601f83011261486557600080fd5b81358181111561487757614877614e09565b604051601f8201601f19908116603f0116810190838211818310171561489f5761489f614e09565b816040528281528860208487010111156148b857600080fd5b8260208601602083013760006020848301015280955050505050509250929050565b600080604083850312156148ed57600080fd5b6148f683614718565b946020939093013593505050565b6000806000806080858703121561491a57600080fd5b61492385614718565b93506020850135925061493860408601614718565b9396929550929360600135925050565b600080600080600060a0868803121561496057600080fd5b61496986614718565b9450602086013593506040860135925061498560608701614718565b949793965091946080013592915050565b6000602082840312156149a857600080fd5b81518015158114611b4f57600080fd5b6000602082840312156149ca57600080fd5b81516001600160781b0381168114611b4f57600080fd5b6000602082840312156149f357600080fd5b5035919050565b600060208284031215614a0c57600080fd5b5051919050565b60008060408385031215614a2657600080fd5b50508035926020909101359150565b600060208284031215614a4757600080fd5b815160ff81168114611b4f57600080fd5b60008251614a6a818460208701614d4d565b9190910192915050565b6020815260008251806020840152614a93816040850160208701614d4d565b601f01601f19169190910160400192915050565b6000808212826001600160ff1b0303841381151615614ac857614ac8614db1565b82600160ff1b038412811615614ae057614ae0614db1565b50500190565b60008219821115614af957614af9614db1565b500190565b600082614b0d57614b0d614dc7565b600160ff1b821460001984141615614b2757614b27614db1565b500590565b600082614b3b57614b3b614dc7565b500490565b600181815b80851115614b7b578160001904821115614b6157614b61614db1565b80851615614b6e57918102915b93841c9390800290614b45565b509250929050565b6000611b4f60ff841683600082614b9c5750600161127c565b81614ba95750600061127c565b8160018114614bbf5760028114614bc957614be5565b600191505061127c565b60ff841115614bda57614bda614db1565b50506001821b61127c565b5060208310610133831016604e8410600b8410161715614c08575081810a61127c565b614c128383614b40565b8060001904821115614c2657614c26614db1565b029392505050565b60006001600160ff1b03600084136000841385830485118282161615614c5657614c56614db1565b600160ff1b6000871286820588128184161615614c7557614c75614db1565b60008712925087820587128484161615614c9157614c91614db1565b87850587128184161615614ca757614ca7614db1565b505050929093029392505050565b6000816000190483118215151615614ccf57614ccf614db1565b500290565b600080831283600160ff1b01831281151615614cf257614cf2614db1565b836001600160ff1b03018313811615614d0d57614d0d614db1565b50500390565b600082821015614d2557614d25614db1565b500390565b600060ff821660ff841680821015614d4457614d44614db1565b90039392505050565b60005b83811015614d68578181015183820152602001614d50565b838111156124085750506000910152565b6000600019821415614d8d57614d8d614db1565b5060010190565b6000600160ff1b821415614daa57614daa614db1565b5060000390565b634e487b7160e01b600052601160045260246000fd5b634e487b7160e01b600052601260045260246000fd5b634e487b7160e01b600052603160045260246000fd5b634e487b7160e01b600052603260045260246000fd5b634e487b7160e01b600052604160045260246000fdfe4f776e61626c653a2063616c6c6572206973206e6f7420746865206f776e6572416464726573733a206c6f772d6c6576656c2064656c65676174652063616c6c206661696c6564a26469706673582212206b64e1133c0fd01cbfb41f9ebbbcf3d6137a84a9f7d9e0f7930ce044e134ee4664736f6c63430008050033",
  "devdoc": {
    "details": "The main entry-point of Wombat protocol Note: All variables are 18 decimals, except from that of underlying tokens",
    "kind": "dev",
    "methods": {
      "addAsset(address,address)": {
        "params": {
          "asset": "The address of the Wombat Asset contract",
          "token": "The address of token"
        }
      },
      "assetOf(address)": {
        "details": "to be used externally",
        "params": {
          "token": "The address of ERC20 token"
        }
      },
      "deposit(address,uint256,address,uint256)": {
        "details": "Asset needs to be created and added to pool before any operation",
        "params": {
          "amount": "The amount to be deposited",
          "deadline": "The deadline to be respected",
          "to": "The user accountable for deposit, receiving the Wombat assets (lp)",
          "token": "The token address to be deposited"
        },
        "returns": {
          "liquidity": "Total asset liquidity minted"
        }
      },
      "exchangeRate(address)": {
        "params": {
          "token": "The address of the token"
        },
        "returns": {
          "exchangeRate": "exchangeRate"
        }
      },
      "mintFee(address)": {
        "params": {
          "token": "The address of the token to collect fee"
        }
      },
      "owner()": {
        "details": "Returns the address of the current owner."
      },
      "pause()": {
        "details": "pause pool, restricting certain operations"
      },
      "pauseAsset(address)": {
        "details": "pause asset, restricting deposit and swap operations"
      },
      "paused()": {
        "details": "Returns true if the contract is paused, and false otherwise."
      },
      "quotePotentialDeposit(address,uint256)": {
        "details": "To be used by frontend",
        "params": {
          "amount": "The amount to deposit",
          "token": "The token to deposit by user"
        },
        "returns": {
          "liquidity": "The potential liquidity user would receive",
          "reward": "reward"
        }
      },
      "quotePotentialSwap(address,address,int256)": {
        "details": "To be used by frontend",
        "params": {
          "fromAmount": "The amount to quote",
          "fromToken": "The initial ERC20 token",
          "toToken": "The token wanted by user"
        },
        "returns": {
          "haircut": "The haircut that would be applied",
          "potentialOutcome": "The potential amount user would receive"
        }
      },
      "quotePotentialWithdraw(address,uint256)": {
        "details": "To be used by frontend",
        "params": {
          "liquidity": "The liquidity (amount of lp assets) to be withdrawn",
          "token": "The token to be withdrawn by user"
        },
        "returns": {
          "amount": "The potential amount user would receive",
          "fee": "The fee that would be applied"
        }
      },
      "removeAsset(address)": {
        "details": "Can only be called by owner",
        "params": {
          "key": "The address of token to remove"
        }
      },
      "renounceOwnership()": {
        "details": "Leaves the contract without owner. It will not be possible to call `onlyOwner` functions anymore. Can only be called by the current owner. NOTE: Renouncing ownership will leave the contract without an owner, thereby removing any functionality that is only available to the owner."
      },
      "setAmpFactor(uint256)": {
        "params": {
          "ampFactor_": "new pool's amplification factor"
        }
      },
      "setDev(address)": {
        "params": {
          "dev_": "new contract dev address"
        }
      },
      "setFeeTo(address)": {
        "params": {
          "feeTo_": "new fee beneficiary"
        }
      },
      "setHaircutRate(uint256)": {
        "params": {
          "haircutRate_": "new pool's haircutRate_"
        }
      },
      "setRetentionRatio(uint256)": {
        "params": {
          "retentionRatio_": "new pool's retentionRatio"
        }
      },
      "swap(address,address,uint256,uint256,address,uint256)": {
        "params": {
          "deadline": "The deadline to be respected",
          "fromAmount": "The amount of from token inserted",
          "fromToken": "The token being inserted into Pool by user for swap",
          "minimumToAmount": "The minimum amount that will be accepted by user as result",
          "to": "The user receiving the result of swap",
          "toToken": "The token wanted by user, leaving the Pool"
        }
      },
      "transferOwnership(address)": {
        "details": "Transfers ownership of the contract to a new account (`newOwner`). Can only be called by the current owner."
      },
      "unpause()": {
        "details": "unpause pool, enabling certain operations"
      },
      "unpauseAsset(address)": {
        "details": "unpause asset, enabling deposit and swap operations"
      },
      "upgradeTo(address)": {
        "details": "Upgrade the implementation of the proxy to `newImplementation`. Calls {_authorizeUpgrade}. Emits an {Upgraded} event."
      },
      "upgradeToAndCall(address,bytes)": {
        "details": "Upgrade the implementation of the proxy to `newImplementation`, and subsequently execute the function call encoded in `data`. Calls {_authorizeUpgrade}. Emits an {Upgraded} event."
      },
      "withdraw(address,uint256,uint256,address,uint256)": {
        "params": {
          "deadline": "The deadline to be respected",
          "liquidity": "The liquidity to be withdrawn",
          "minimumAmount": "The minimum amount that will be accepted by user",
          "to": "The user receiving the withdrawal",
          "token": "The token to be withdrawn"
        },
        "returns": {
          "amount": "The total amount withdrawn"
        }
      },
      "withdrawFromOtherAsset(address,address,uint256,uint256,address,uint256)": {
        "details": "Also, coverage ratio of toAsset must be higher than 1 after withdrawal for this to be accepted",
        "params": {
          "deadline": "The deadline to be respected",
          "fromToken": "The corresponding token user holds the LP (Asset) from",
          "liquidity": "The liquidity to be withdrawn (in fromToken decimal)",
          "minimumAmount": "The minimum amount that will be accepted by user",
          "to": "The user receiving the withdrawal",
          "toToken": "The token wanting to be withdrawn (needs to be well covered)"
        },
        "returns": {
          "toAmount": "The total amount withdrawn"
        }
      }
    },
    "title": "Pool",
    "version": 1
  },
  "userdoc": {
    "events": {
      "AssetAdded(address,address)": {
        "notice": "An event thats emitted when an asset is added to Pool"
      },
      "AssetRemoved(address,address)": {
        "notice": "An event thats emitted when asset is removed from Pool"
      },
      "Deposit(address,address,uint256,uint256,address)": {
        "notice": "An event thats emitted when a deposit is made to Pool"
      },
      "Swap(address,address,address,uint256,uint256,address)": {
        "notice": "An event thats emitted when a swap is made in Pool"
      },
      "Withdraw(address,address,uint256,uint256,address)": {
        "notice": "An event thats emitted when a withdrawal is made from Pool"
      }
    },
    "kind": "user",
    "methods": {
      "addAsset(address,address)": {
        "notice": "Adds asset to pool, reverts if asset already exists in pool"
      },
      "ampFactor()": {
        "notice": "Amplification factor"
      },
      "assetOf(address)": {
        "notice": "Gets Asset corresponding to ERC20 token. Reverts if asset does not exists in Pool."
      },
      "deposit(address,uint256,address,uint256)": {
        "notice": "Deposits amount of tokens into pool ensuring deadline"
      },
      "dev()": {
        "notice": "Dev address"
      },
      "exchangeRate(address)": {
        "notice": "Returns the exchange rate of the LP token"
      },
      "haircutRate()": {
        "notice": "Haircut rate"
      },
      "initialize(uint256,uint256)": {
        "notice": "Initializes pool. Dev is set to be the account calling this function."
      },
      "lpDividendRatio()": {
        "notice": "LP dividend ratio : the ratio of haircut that should distribute to LP"
      },
      "mintFee(address)": {
        "notice": "Send fee collected to the fee beneficiary"
      },
      "mintFeeThreshold()": {
        "notice": "The threshold to mint fee (unit: WAD)"
      },
      "quotePotentialDeposit(address,uint256)": {
        "notice": "Quotes potential deposit from pool"
      },
      "quotePotentialSwap(address,address,int256)": {
        "notice": "Quotes potential outcome of a swap given current state, taking in account slippage and haircut"
      },
      "quotePotentialWithdraw(address,uint256)": {
        "notice": "Quotes potential withdrawal from pool"
      },
      "removeAsset(address)": {
        "notice": "Removes asset from asset struct"
      },
      "retentionRatio()": {
        "notice": "Retention ratio: the ratio of haircut that should stay in the pool"
      },
      "setAmpFactor(uint256)": {
        "notice": "Changes the pools amplification factor. Can only be set by the contract owner."
      },
      "setDev(address)": {
        "notice": "Changes the contract dev. Can only be set by the contract owner."
      },
      "setFeeTo(address)": {
        "notice": "Changes the fee beneficiary. Can only be set by the contract owner. This value cannot be set to 0 to avoid unsettled fee."
      },
      "setHaircutRate(uint256)": {
        "notice": "Changes the pools haircutRate. Can only be set by the contract owner."
      },
      "setMintFeeThreshold(uint256)": {
        "notice": "Set min fee to mint"
      },
      "setRetentionRatio(uint256)": {
        "notice": "Changes the pools retentionRatio. Can only be set by the contract owner."
      },
      "swap(address,address,uint256,uint256,address,uint256)": {
        "notice": "Swap fromToken for toToken, ensures deadline and minimumToAmount and sends quoted amount to `to` address"
      },
      "withdraw(address,uint256,uint256,address,uint256)": {
        "notice": "Withdraws liquidity amount of asset to `to` address ensuring minimum amount required"
      },
      "withdrawFromOtherAsset(address,address,uint256,uint256,address,uint256)": {
        "notice": "Enables withdrawing liquidity from an asset using LP from a different asset"
      }
    },
    "notice": "Manages deposits, withdrawals and swaps. Holds a mapping of assets and parameters.",
    "version": 1
  },
  "storageLayout": {
    "storage": [
      {
        "astId": 567,
        "contract": "contracts/wombat-core/pool/Pool.sol:Pool",
        "label": "_initialized",
        "offset": 0,
        "slot": "0",
        "type": "t_bool"
      },
      {
        "astId": 570,
        "contract": "contracts/wombat-core/pool/Pool.sol:Pool",
        "label": "_initializing",
        "offset": 1,
        "slot": "0",
        "type": "t_bool"
      },
      {
        "astId": 550,
        "contract": "contracts/wombat-core/pool/Pool.sol:Pool",
        "label": "__gap",
        "offset": 0,
        "slot": "1",
        "type": "t_array(t_uint256)50_storage"
      },
      {
        "astId": 683,
        "contract": "contracts/wombat-core/pool/Pool.sol:Pool",
        "label": "__gap",
        "offset": 0,
        "slot": "51",
        "type": "t_array(t_uint256)50_storage"
      },
      {
        "astId": 1141,
        "contract": "contracts/wombat-core/pool/Pool.sol:Pool",
        "label": "__gap",
        "offset": 0,
        "slot": "101",
        "type": "t_array(t_uint256)50_storage"
      },
      {
        "astId": 10,
        "contract": "contracts/wombat-core/pool/Pool.sol:Pool",
        "label": "_owner",
        "offset": 0,
        "slot": "151",
        "type": "t_address"
      },
      {
        "astId": 123,
        "contract": "contracts/wombat-core/pool/Pool.sol:Pool",
        "label": "__gap",
        "offset": 0,
        "slot": "152",
        "type": "t_array(t_uint256)49_storage"
      },
      {
        "astId": 811,
        "contract": "contracts/wombat-core/pool/Pool.sol:Pool",
        "label": "_status",
        "offset": 0,
        "slot": "201",
        "type": "t_uint256"
      },
      {
        "astId": 854,
        "contract": "contracts/wombat-core/pool/Pool.sol:Pool",
        "label": "__gap",
        "offset": 0,
        "slot": "202",
        "type": "t_array(t_uint256)49_storage"
      },
      {
        "astId": 705,
        "contract": "contracts/wombat-core/pool/Pool.sol:Pool",
        "label": "_paused",
        "offset": 0,
        "slot": "251",
        "type": "t_bool"
      },
      {
        "astId": 796,
        "contract": "contracts/wombat-core/pool/Pool.sol:Pool",
        "label": "__gap",
        "offset": 0,
        "slot": "252",
        "type": "t_array(t_uint256)49_storage"
      },
      {
        "astId": 7002,
        "contract": "contracts/wombat-core/pool/Pool.sol:Pool",
        "label": "_pausedAssets",
        "offset": 0,
        "slot": "301",
        "type": "t_mapping(t_address,t_bool)"
      },
      {
        "astId": 7135,
        "contract": "contracts/wombat-core/pool/Pool.sol:Pool",
        "label": "ampFactor",
        "offset": 0,
        "slot": "302",
        "type": "t_uint256"
      },
      {
        "astId": 7138,
        "contract": "contracts/wombat-core/pool/Pool.sol:Pool",
        "label": "haircutRate",
        "offset": 0,
        "slot": "303",
        "type": "t_uint256"
      },
      {
        "astId": 7141,
        "contract": "contracts/wombat-core/pool/Pool.sol:Pool",
        "label": "retentionRatio",
        "offset": 0,
        "slot": "304",
        "type": "t_uint256"
      },
      {
        "astId": 7144,
        "contract": "contracts/wombat-core/pool/Pool.sol:Pool",
        "label": "lpDividendRatio",
        "offset": 0,
        "slot": "305",
        "type": "t_uint256"
      },
      {
        "astId": 7147,
        "contract": "contracts/wombat-core/pool/Pool.sol:Pool",
        "label": "mintFeeThreshold",
        "offset": 0,
        "slot": "306",
        "type": "t_uint256"
      },
      {
        "astId": 7150,
        "contract": "contracts/wombat-core/pool/Pool.sol:Pool",
        "label": "dev",
        "offset": 0,
        "slot": "307",
        "type": "t_address"
      },
      {
        "astId": 7152,
        "contract": "contracts/wombat-core/pool/Pool.sol:Pool",
        "label": "feeTo",
        "offset": 0,
        "slot": "308",
        "type": "t_address"
      },
      {
        "astId": 7158,
        "contract": "contracts/wombat-core/pool/Pool.sol:Pool",
        "label": "_feeCollected",
        "offset": 0,
        "slot": "309",
        "type": "t_mapping(t_contract(IAsset)5900,t_uint256)"
      },
      {
        "astId": 7162,
        "contract": "contracts/wombat-core/pool/Pool.sol:Pool",
        "label": "_assets",
        "offset": 0,
        "slot": "310",
        "type": "t_struct(AssetMap)7132_storage"
      }
    ],
    "types": {
      "t_address": {
        "encoding": "inplace",
        "label": "address",
        "numberOfBytes": "20"
      },
      "t_array(t_address)dyn_storage": {
        "base": "t_address",
        "encoding": "dynamic_array",
        "label": "address[]",
        "numberOfBytes": "32"
      },
      "t_array(t_uint256)49_storage": {
        "base": "t_uint256",
        "encoding": "inplace",
        "label": "uint256[49]",
        "numberOfBytes": "1568"
      },
      "t_array(t_uint256)50_storage": {
        "base": "t_uint256",
        "encoding": "inplace",
        "label": "uint256[50]",
        "numberOfBytes": "1600"
      },
      "t_bool": {
        "encoding": "inplace",
        "label": "bool",
        "numberOfBytes": "1"
      },
      "t_contract(IAsset)5900": {
        "encoding": "inplace",
        "label": "contract IAsset",
        "numberOfBytes": "20"
      },
      "t_mapping(t_address,t_bool)": {
        "encoding": "mapping",
        "key": "t_address",
        "label": "mapping(address => bool)",
        "numberOfBytes": "32",
        "value": "t_bool"
      },
      "t_mapping(t_address,t_contract(IAsset)5900)": {
        "encoding": "mapping",
        "key": "t_address",
        "label": "mapping(address => contract IAsset)",
        "numberOfBytes": "32",
        "value": "t_contract(IAsset)5900"
      },
      "t_mapping(t_address,t_uint256)": {
        "encoding": "mapping",
        "key": "t_address",
        "label": "mapping(address => uint256)",
        "numberOfBytes": "32",
        "value": "t_uint256"
      },
      "t_mapping(t_contract(IAsset)5900,t_uint256)": {
        "encoding": "mapping",
        "key": "t_contract(IAsset)5900",
        "label": "mapping(contract IAsset => uint256)",
        "numberOfBytes": "32",
        "value": "t_uint256"
      },
      "t_struct(AssetMap)7132_storage": {
        "encoding": "inplace",
        "label": "struct Pool.AssetMap",
        "members": [
          {
            "astId": 7122,
            "contract": "contracts/wombat-core/pool/Pool.sol:Pool",
            "label": "keys",
            "offset": 0,
            "slot": "0",
            "type": "t_array(t_address)dyn_storage"
          },
          {
            "astId": 7127,
            "contract": "contracts/wombat-core/pool/Pool.sol:Pool",
            "label": "values",
            "offset": 0,
            "slot": "1",
            "type": "t_mapping(t_address,t_contract(IAsset)5900)"
          },
          {
            "astId": 7131,
            "contract": "contracts/wombat-core/pool/Pool.sol:Pool",
            "label": "indexOf",
            "offset": 0,
            "slot": "2",
            "type": "t_mapping(t_address,t_uint256)"
          }
        ],
        "numberOfBytes": "96"
      },
      "t_uint256": {
        "encoding": "inplace",
        "label": "uint256",
        "numberOfBytes": "32"
      }
    }
  }
}