{
  "address": "0xD212640Cb839eca910f21C816297a7306BEae88c",
  "abi": [
    {
      "inputs": [],
      "name": "CORE_UNDERFLOW",
      "type": "error"
    },
    {
      "inputs": [],
      "name": "WOMBAT_AMOUNT_TOO_LOW",
      "type": "error"
    },
    {
      "inputs": [],
      "name": "WOMBAT_ASSET_ALREADY_EXIST",
      "type": "error"
    },
    {
      "inputs": [],
      "name": "WOMBAT_ASSET_ALREADY_PAUSED",
      "type": "error"
    },
    {
      "inputs": [],
      "name": "WOMBAT_ASSET_NOT_EXISTS",
      "type": "error"
    },
    {
      "inputs": [],
      "name": "WOMBAT_ASSET_NOT_PAUSED",
      "type": "error"
    },
    {
      "inputs": [],
      "name": "WOMBAT_CASH_NOT_ENOUGH",
      "type": "error"
    },
    {
      "inputs": [],
      "name": "WOMBAT_EXPIRED",
      "type": "error"
    },
    {
      "inputs": [],
      "name": "WOMBAT_FORBIDDEN",
      "type": "error"
    },
    {
      "inputs": [],
      "name": "WOMBAT_INTERPOOL_SWAP_NOT_SUPPORTED",
      "type": "error"
    },
    {
      "inputs": [],
      "name": "WOMBAT_INVALID_VALUE",
      "type": "error"
    },
    {
      "inputs": [],
      "name": "WOMBAT_SAME_ADDRESS",
      "type": "error"
    },
    {
      "inputs": [],
      "name": "WOMBAT_ZERO_ADDRESS",
      "type": "error"
    },
    {
      "inputs": [],
      "name": "WOMBAT_ZERO_AMOUNT",
      "type": "error"
    },
    {
      "inputs": [],
      "name": "WOMBAT_ZERO_LIQUIDITY",
      "type": "error"
    },
    {
      "anonymous": false,
      "inputs": [
        {
          "indexed": true,
          "internalType": "address",
          "name": "token",
          "type": "address"
        },
        {
          "indexed": true,
          "internalType": "address",
          "name": "asset",
          "type": "address"
        }
      ],
      "name": "AssetAdded",
      "type": "event"
    },
    {
      "anonymous": false,
      "inputs": [
        {
          "indexed": true,
          "internalType": "address",
          "name": "token",
          "type": "address"
        },
        {
          "indexed": true,
          "internalType": "address",
          "name": "asset",
          "type": "address"
        }
      ],
      "name": "AssetRemoved",
      "type": "event"
    },
    {
      "anonymous": false,
      "inputs": [
        {
          "indexed": true,
          "internalType": "address",
          "name": "sender",
          "type": "address"
        },
        {
          "indexed": false,
          "internalType": "address",
          "name": "token",
          "type": "address"
        },
        {
          "indexed": false,
          "internalType": "uint256",
          "name": "amount",
          "type": "uint256"
        },
        {
          "indexed": false,
          "internalType": "uint256",
          "name": "liquidity",
          "type": "uint256"
        },
        {
          "indexed": true,
          "internalType": "address",
          "name": "to",
          "type": "address"
        }
      ],
      "name": "Deposit",
      "type": "event"
    },
    {
      "anonymous": false,
      "inputs": [
        {
          "indexed": true,
          "internalType": "address",
          "name": "previousOwner",
          "type": "address"
        },
        {
          "indexed": true,
          "internalType": "address",
          "name": "newOwner",
          "type": "address"
        }
      ],
      "name": "OwnershipTransferred",
      "type": "event"
    },
    {
      "anonymous": false,
      "inputs": [
        {
          "indexed": false,
          "internalType": "address",
          "name": "account",
          "type": "address"
        }
      ],
      "name": "Paused",
      "type": "event"
    },
    {
      "anonymous": false,
      "inputs": [
        {
          "indexed": false,
          "internalType": "address",
          "name": "asset",
          "type": "address"
        },
        {
          "indexed": false,
          "internalType": "address",
          "name": "account",
          "type": "address"
        }
      ],
      "name": "PausedAsset",
      "type": "event"
    },
    {
      "anonymous": false,
      "inputs": [
        {
          "indexed": true,
          "internalType": "address",
          "name": "sender",
          "type": "address"
        },
        {
          "indexed": false,
          "internalType": "address",
          "name": "fromToken",
          "type": "address"
        },
        {
          "indexed": false,
          "internalType": "address",
          "name": "toToken",
          "type": "address"
        },
        {
          "indexed": false,
          "internalType": "uint256",
          "name": "fromAmount",
          "type": "uint256"
        },
        {
          "indexed": false,
          "internalType": "uint256",
          "name": "toAmount",
          "type": "uint256"
        },
        {
          "indexed": true,
          "internalType": "address",
          "name": "to",
          "type": "address"
        }
      ],
      "name": "Swap",
      "type": "event"
    },
    {
      "anonymous": false,
      "inputs": [
        {
          "indexed": false,
          "internalType": "address",
          "name": "account",
          "type": "address"
        }
      ],
      "name": "Unpaused",
      "type": "event"
    },
    {
      "anonymous": false,
      "inputs": [
        {
          "indexed": false,
          "internalType": "address",
          "name": "asset",
          "type": "address"
        },
        {
          "indexed": false,
          "internalType": "address",
          "name": "account",
          "type": "address"
        }
      ],
      "name": "UnpausedAsset",
      "type": "event"
    },
    {
      "anonymous": false,
      "inputs": [
        {
          "indexed": true,
          "internalType": "address",
          "name": "sender",
          "type": "address"
        },
        {
          "indexed": false,
          "internalType": "address",
          "name": "token",
          "type": "address"
        },
        {
          "indexed": false,
          "internalType": "uint256",
          "name": "amount",
          "type": "uint256"
        },
        {
          "indexed": false,
          "internalType": "uint256",
          "name": "liquidity",
          "type": "uint256"
        },
        {
          "indexed": true,
          "internalType": "address",
          "name": "to",
          "type": "address"
        }
      ],
      "name": "Withdraw",
      "type": "event"
    },
    {
      "inputs": [],
      "name": "WAD",
      "outputs": [
        {
          "internalType": "uint256",
          "name": "",
          "type": "uint256"
        }
      ],
      "stateMutability": "view",
      "type": "function"
    },
    {
      "inputs": [],
      "name": "WAD_I",
      "outputs": [
        {
          "internalType": "int256",
          "name": "",
          "type": "int256"
        }
      ],
      "stateMutability": "view",
      "type": "function"
    },
    {
      "inputs": [
        {
          "internalType": "address",
          "name": "token",
          "type": "address"
        },
        {
          "internalType": "address",
          "name": "asset",
          "type": "address"
        }
      ],
      "name": "addAsset",
      "outputs": [],
      "stateMutability": "nonpayable",
      "type": "function"
    },
    {
      "inputs": [],
      "name": "ampFactor",
      "outputs": [
        {
          "internalType": "uint256",
          "name": "",
          "type": "uint256"
        }
      ],
      "stateMutability": "view",
      "type": "function"
    },
    {
      "inputs": [
        {
          "internalType": "address",
          "name": "token",
          "type": "address"
        }
      ],
      "name": "assetOf",
      "outputs": [
        {
          "internalType": "address",
          "name": "",
          "type": "address"
        }
      ],
      "stateMutability": "view",
      "type": "function"
    },
    {
      "inputs": [
        {
          "internalType": "address",
          "name": "token",
          "type": "address"
        },
        {
          "internalType": "uint256",
          "name": "amount",
          "type": "uint256"
        },
        {
          "internalType": "uint256",
          "name": "minimumLiquidity",
          "type": "uint256"
        },
        {
          "internalType": "address",
          "name": "to",
          "type": "address"
        },
        {
          "internalType": "uint256",
          "name": "deadline",
          "type": "uint256"
        },
        {
          "internalType": "bool",
          "name": "shouldStake",
          "type": "bool"
        }
      ],
      "name": "deposit",
      "outputs": [
        {
          "internalType": "uint256",
          "name": "liquidity",
          "type": "uint256"
        }
      ],
      "stateMutability": "nonpayable",
      "type": "function"
    },
    {
      "inputs": [],
      "name": "dev",
      "outputs": [
        {
          "internalType": "address",
          "name": "",
          "type": "address"
        }
      ],
      "stateMutability": "view",
      "type": "function"
    },
    {
      "inputs": [
        {
          "internalType": "address",
          "name": "token",
          "type": "address"
        }
      ],
      "name": "exchangeRate",
      "outputs": [
        {
          "internalType": "uint256",
          "name": "exchangeRate",
          "type": "uint256"
        }
      ],
      "stateMutability": "view",
      "type": "function"
    },
    {
      "inputs": [],
      "name": "feeTo",
      "outputs": [
        {
          "internalType": "address",
          "name": "",
          "type": "address"
        }
      ],
      "stateMutability": "view",
      "type": "function"
    },
    {
      "inputs": [
        {
          "internalType": "address",
          "name": "token",
          "type": "address"
        },
        {
          "internalType": "uint256",
          "name": "amount",
          "type": "uint256"
        }
      ],
      "name": "fillPool",
      "outputs": [],
      "stateMutability": "nonpayable",
      "type": "function"
    },
    {
      "inputs": [],
      "name": "getTokens",
      "outputs": [
        {
          "internalType": "address[]",
          "name": "",
          "type": "address[]"
        }
      ],
      "stateMutability": "view",
      "type": "function"
    },
    {
      "inputs": [],
      "name": "globalEquilCovRatio",
      "outputs": [
        {
          "internalType": "uint256",
          "name": "equilCovRatio",
          "type": "uint256"
        },
        {
          "internalType": "uint256",
          "name": "invariant",
          "type": "uint256"
        }
      ],
      "stateMutability": "view",
      "type": "function"
    },
    {
      "inputs": [],
      "name": "haircutRate",
      "outputs": [
        {
          "internalType": "uint256",
          "name": "",
          "type": "uint256"
        }
      ],
      "stateMutability": "view",
      "type": "function"
    },
    {
      "inputs": [
        {
          "internalType": "uint256",
          "name": "ampFactor_",
          "type": "uint256"
        },
        {
          "internalType": "uint256",
          "name": "haircutRate_",
          "type": "uint256"
        }
      ],
      "name": "initialize",
      "outputs": [],
      "stateMutability": "nonpayable",
      "type": "function"
    },
    {
      "inputs": [],
      "name": "lpDividendRatio",
      "outputs": [
        {
          "internalType": "uint256",
          "name": "",
          "type": "uint256"
        }
      ],
      "stateMutability": "view",
      "type": "function"
    },
    {
      "inputs": [],
      "name": "masterWombat",
      "outputs": [
        {
          "internalType": "contract IMasterWombat",
          "name": "",
          "type": "address"
        }
      ],
      "stateMutability": "view",
      "type": "function"
    },
    {
      "inputs": [
        {
          "internalType": "address",
          "name": "token",
          "type": "address"
        }
      ],
      "name": "mintFee",
      "outputs": [],
      "stateMutability": "nonpayable",
      "type": "function"
    },
    {
      "inputs": [],
      "name": "mintFeeThreshold",
      "outputs": [
        {
          "internalType": "uint256",
          "name": "",
          "type": "uint256"
        }
      ],
      "stateMutability": "view",
      "type": "function"
    },
    {
      "inputs": [],
      "name": "owner",
      "outputs": [
        {
          "internalType": "address",
          "name": "",
          "type": "address"
        }
      ],
      "stateMutability": "view",
      "type": "function"
    },
    {
      "inputs": [],
      "name": "pause",
      "outputs": [],
      "stateMutability": "nonpayable",
      "type": "function"
    },
    {
      "inputs": [
        {
          "internalType": "address",
          "name": "token",
          "type": "address"
        }
      ],
      "name": "pauseAsset",
      "outputs": [],
      "stateMutability": "nonpayable",
      "type": "function"
    },
    {
      "inputs": [],
      "name": "paused",
      "outputs": [
        {
          "internalType": "bool",
          "name": "",
          "type": "bool"
        }
      ],
      "stateMutability": "view",
      "type": "function"
    },
    {
      "inputs": [
        {
          "internalType": "address",
          "name": "token",
          "type": "address"
        },
        {
          "internalType": "uint256",
          "name": "amount",
          "type": "uint256"
        }
      ],
      "name": "quotePotentialDeposit",
      "outputs": [
        {
          "internalType": "uint256",
          "name": "liquidity",
          "type": "uint256"
        },
        {
          "internalType": "uint256",
          "name": "reward",
          "type": "uint256"
        }
      ],
      "stateMutability": "view",
      "type": "function"
    },
    {
      "inputs": [
        {
          "internalType": "address",
          "name": "fromToken",
          "type": "address"
        },
        {
          "internalType": "address",
          "name": "toToken",
          "type": "address"
        },
        {
          "internalType": "int256",
          "name": "fromAmount",
          "type": "int256"
        }
      ],
      "name": "quotePotentialSwap",
      "outputs": [
        {
          "internalType": "uint256",
          "name": "potentialOutcome",
          "type": "uint256"
        },
        {
          "internalType": "uint256",
          "name": "haircut",
          "type": "uint256"
        }
      ],
      "stateMutability": "view",
      "type": "function"
    },
    {
      "inputs": [
        {
          "internalType": "address",
          "name": "token",
          "type": "address"
        },
        {
          "internalType": "uint256",
          "name": "liquidity",
          "type": "uint256"
        }
      ],
      "name": "quotePotentialWithdraw",
      "outputs": [
        {
          "internalType": "uint256",
          "name": "amount",
          "type": "uint256"
        },
        {
          "internalType": "uint256",
          "name": "fee",
          "type": "uint256"
        }
      ],
      "stateMutability": "view",
      "type": "function"
    },
    {
      "inputs": [
        {
          "internalType": "address",
          "name": "token",
          "type": "address"
        }
      ],
      "name": "removeAsset",
      "outputs": [],
      "stateMutability": "nonpayable",
      "type": "function"
    },
    {
      "inputs": [],
      "name": "renounceOwnership",
      "outputs": [],
      "stateMutability": "nonpayable",
      "type": "function"
    },
    {
      "inputs": [],
      "name": "retentionRatio",
      "outputs": [
        {
          "internalType": "uint256",
          "name": "",
          "type": "uint256"
        }
      ],
      "stateMutability": "view",
      "type": "function"
    },
    {
      "inputs": [
        {
          "internalType": "uint256",
          "name": "ampFactor_",
          "type": "uint256"
        }
      ],
      "name": "setAmpFactor",
      "outputs": [],
      "stateMutability": "nonpayable",
      "type": "function"
    },
    {
      "inputs": [
        {
          "internalType": "address",
          "name": "dev_",
          "type": "address"
        }
      ],
      "name": "setDev",
      "outputs": [],
      "stateMutability": "nonpayable",
      "type": "function"
    },
    {
      "inputs": [
        {
          "internalType": "uint256",
          "name": "lpDividendRatio_",
          "type": "uint256"
        },
        {
          "internalType": "uint256",
          "name": "retentionRatio_",
          "type": "uint256"
        }
      ],
      "name": "setFee",
      "outputs": [],
      "stateMutability": "nonpayable",
      "type": "function"
    },
    {
      "inputs": [
        {
          "internalType": "address",
          "name": "feeTo_",
          "type": "address"
        }
      ],
      "name": "setFeeTo",
      "outputs": [],
      "stateMutability": "nonpayable",
      "type": "function"
    },
    {
      "inputs": [
        {
          "internalType": "uint256",
          "name": "haircutRate_",
          "type": "uint256"
        }
      ],
      "name": "setHaircutRate",
      "outputs": [],
      "stateMutability": "nonpayable",
      "type": "function"
    },
    {
      "inputs": [
        {
          "internalType": "address",
          "name": "masterWombat_",
          "type": "address"
        }
      ],
      "name": "setMasterWombat",
      "outputs": [],
      "stateMutability": "nonpayable",
      "type": "function"
    },
    {
      "inputs": [
        {
          "internalType": "uint256",
          "name": "mintFeeThreshold_",
          "type": "uint256"
        }
      ],
      "name": "setMintFeeThreshold",
      "outputs": [],
      "stateMutability": "nonpayable",
      "type": "function"
    },
    {
      "inputs": [
        {
          "internalType": "address",
          "name": "fromToken",
          "type": "address"
        },
        {
          "internalType": "address",
          "name": "toToken",
          "type": "address"
        },
        {
          "internalType": "uint256",
          "name": "fromAmount",
          "type": "uint256"
        },
        {
          "internalType": "uint256",
          "name": "minimumToAmount",
          "type": "uint256"
        },
        {
          "internalType": "address",
          "name": "to",
          "type": "address"
        },
        {
          "internalType": "uint256",
          "name": "deadline",
          "type": "uint256"
        }
      ],
      "name": "swap",
      "outputs": [
        {
          "internalType": "uint256",
          "name": "actualToAmount",
          "type": "uint256"
        },
        {
          "internalType": "uint256",
          "name": "haircut",
          "type": "uint256"
        }
      ],
      "stateMutability": "nonpayable",
      "type": "function"
    },
    {
      "inputs": [
        {
          "internalType": "address",
          "name": "token",
          "type": "address"
        }
      ],
      "name": "tipBucketBalance",
      "outputs": [
        {
          "internalType": "uint256",
          "name": "balance",
          "type": "uint256"
        }
      ],
      "stateMutability": "view",
      "type": "function"
    },
    {
      "inputs": [
        {
          "internalType": "address",
          "name": "newOwner",
          "type": "address"
        }
      ],
      "name": "transferOwnership",
      "outputs": [],
      "stateMutability": "nonpayable",
      "type": "function"
    },
    {
      "inputs": [
        {
          "internalType": "address",
          "name": "token",
          "type": "address"
        },
        {
          "internalType": "uint256",
          "name": "amount",
          "type": "uint256"
        },
        {
          "internalType": "address",
          "name": "to",
          "type": "address"
        }
      ],
      "name": "transferTipBucket",
      "outputs": [],
      "stateMutability": "nonpayable",
      "type": "function"
    },
    {
      "inputs": [],
      "name": "unpause",
      "outputs": [],
      "stateMutability": "nonpayable",
      "type": "function"
    },
    {
      "inputs": [
        {
          "internalType": "address",
          "name": "token",
          "type": "address"
        }
      ],
      "name": "unpauseAsset",
      "outputs": [],
      "stateMutability": "nonpayable",
      "type": "function"
    },
    {
      "inputs": [
        {
          "internalType": "address",
          "name": "token",
          "type": "address"
        },
        {
          "internalType": "uint256",
          "name": "liquidity",
          "type": "uint256"
        },
        {
          "internalType": "uint256",
          "name": "minimumAmount",
          "type": "uint256"
        },
        {
          "internalType": "address",
          "name": "to",
          "type": "address"
        },
        {
          "internalType": "uint256",
          "name": "deadline",
          "type": "uint256"
        }
      ],
      "name": "withdraw",
      "outputs": [
        {
          "internalType": "uint256",
          "name": "amount",
          "type": "uint256"
        }
      ],
      "stateMutability": "nonpayable",
      "type": "function"
    },
    {
      "inputs": [
        {
          "internalType": "address",
          "name": "fromToken",
          "type": "address"
        },
        {
          "internalType": "address",
          "name": "toToken",
          "type": "address"
        },
        {
          "internalType": "uint256",
          "name": "liquidity",
          "type": "uint256"
        },
        {
          "internalType": "uint256",
          "name": "minimumAmount",
          "type": "uint256"
        },
        {
          "internalType": "address",
          "name": "to",
          "type": "address"
        },
        {
          "internalType": "uint256",
          "name": "deadline",
          "type": "uint256"
        }
      ],
      "name": "withdrawFromOtherAsset",
      "outputs": [
        {
          "internalType": "uint256",
          "name": "toAmount",
          "type": "uint256"
        }
      ],
      "stateMutability": "nonpayable",
      "type": "function"
    }
  ],
  "transactionHash": "0x249829fc4d8214158b428f337be3c52249aa16482fdb73c9d46bf4aafab7c1b2",
  "args": [],
  "solcInputHash": "d8b97e2a7f279de4fbf4a166071e52f7",
  "bytecode": "0x608060405234801561001057600080fd5b506151b3806100206000396000f3fe608060405234801561001057600080fd5b50600436106102e95760003560e01c8063815bfd2911610191578063d043c565116100e3578063dc3b7c8b11610097578063f46901ed11610071578063f46901ed146105b6578063f57e84d5146105c9578063f8b49e72146105dc57600080fd5b8063dc3b7c8b1461057d578063e4a3011614610590578063f2fde38b146105a357600080fd5b8063d30ffeda116100c8578063d30ffeda14610544578063d477f05f14610557578063da4899971461056a57600080fd5b8063d043c56514610528578063d0dd0e561461053b57600080fd5b806391cca3db116101455780639abacb411161011f5780639abacb41146104ed5780639e4416b714610500578063aa6ca8081461051357600080fd5b806391cca3db146104b457806393aeea02146104c75780639908fc8b146104da57600080fd5b80638a2dfe09116101765780638a2dfe09146104885780638da5cb5b14610490578063907448ed146104a157600080fd5b8063815bfd29146104775780638456cb591461048057600080fd5b80634a5e42b11161024a57806361858e23116101fe5780636a146024116101d85780636a1460241461035d578063715018a61461045c57806371f962111461046457600080fd5b806361858e231461042d5780636281baef146104405780636922d5ca1461045357600080fd5b806352f7c9881161022f57806352f7c988146103fb5780635c975abb1461040e5780635cfe092e1461042457600080fd5b80634a5e42b1146103c05780634fdd64e5146103d357600080fd5b806309a5fca3116102a15780633753b14a116102865780633753b14a146103925780633bd61ba8146103a55780633f4ba83a146103b857600080fd5b806309a5fca31461036c5780630f91f06f1461037f57600080fd5b80630705999d116102d25780630705999d14610335578063070f81d91461034a57806308bdd2651461035d57600080fd5b8063017b8292146102ee578063017e7e581461030a575b600080fd5b6102f760ca5481565b6040519081526020015b60405180910390f35b60d05461031d906001600160a01b031681565b6040516001600160a01b039091168152602001610301565b610348610343366004614a94565b6105ef565b005b610348610358366004614b7d565b610667565b6102f7670de0b6b3a764000081565b6102f761037a366004614be3565b61089f565b6102f761038d366004614b1e565b610ac7565b6103486103a0366004614a94565b610d20565b60d15461031d906001600160a01b031681565b610348610d91565b6103486103ce366004614a94565b610e00565b6103e66103e1366004614ae2565b610fce565b60408051928352602083019190915201610301565b610348610409366004614d0c565b611194565b60975460ff166040519015158152602001610301565b6102f760ce5481565b6103e661043b366004614b7d565b61121e565b6102f761044e366004614c31565b6112c0565b6102f760cc5481565b6103486116cd565b61031d610472366004614a94565b611721565b6102f760cd5481565b610348611732565b6103e661179a565b6033546001600160a01b031661031d565b6103e66104af366004614b7d565b6117ca565b60cf5461031d906001600160a01b031681565b6103486104d5366004614ba7565b61183d565b6103e66104e8366004614b1e565b611aaf565b6103486104fb366004614a94565b611db4565b61034861050e366004614cda565b611e1d565b61051b611e93565b6040516103019190614d6d565b610348610536366004614cda565b611ef8565b6102f760cb5481565b6102f7610552366004614a94565b611f45565b610348610565366004614a94565b6120bb565b610348610578366004614aaf565b61212e565b6102f761058b366004614a94565b6122d8565b61034861059e366004614d0c565b61245f565b6103486105b1366004614a94565b612554565b6103486105c4366004614a94565b612624565b6103486105d7366004614cda565b6126b5565b6103486105ea366004614a94565b61272b565b6033546001600160a01b0316331461063c5760405162461bcd60e51b8152602060048201819052602482015260008051602061515e83398151915260448201526064015b60405180910390fd5b6106458161273c565b60d180546001600160a01b0319166001600160a01b0392909216919091179055565b61066f61277c565b600061067a836127a7565b9050600060d26000836001600160a01b03166001600160a01b0316815260200190815260200160002054826001600160a01b031663961be3916040518163ffffffff1660e01b815260040160206040518083038186803b1580156106dd57600080fd5b505afa1580156106f1573d6000803e3d6000fd5b505050506040513d601f19601f820116820180604052508101906107159190614cb1565b6001600160781b0316610809846001600160a01b0316637284168a6040518163ffffffff1660e01b815260040160206040518083038186803b15801561075a57600080fd5b505afa15801561076e573d6000803e3d6000fd5b505050506040513d601f19601f820116820180604052508101906107929190614d2e565b856001600160a01b03166399c91a646040518163ffffffff1660e01b815260040160206040518083038186803b1580156107cb57600080fd5b505afa1580156107df573d6000803e3d6000fd5b505050506040513d601f19601f820116820180604052508101906108039190614cf3565b90612800565b6108139190615059565b61081d9190615059565b905080831115610840576040516312b019e160e01b815260040160405180910390fd5b60405162b64f3d60e51b8152600481018490526001600160a01b038316906316c9e7a090602401600060405180830381600087803b15801561088157600080fd5b505af1158015610895573d6000803e3d6000fd5b5050505050505050565b6000600260655414156108f45760405162461bcd60e51b815260206004820152601f60248201527f5265656e7472616e637947756172643a207265656e7472616e742063616c6c006044820152606401610633565b600260655560975460ff161561093f5760405162461bcd60e51b815260206004820152601060248201526f14185d5cd8589b194e881c185d5cd95960821b6044820152606401610633565b61094885612868565b6109518361273c565b61095a8261289f565b6000610965876127a7565b905061097c6001600160a01b0382163383896128d9565b610a01816001600160a01b0316637284168a6040518163ffffffff1660e01b815260040160206040518083038186803b1580156109b857600080fd5b505afa1580156109cc573d6000803e3d6000fd5b505050506040513d601f19601f820116820180604052508101906109f09190614d2e565b6109fb838989612967565b90612c63565b604051639e79eaa560e01b81526001600160a01b0386811660048301526024820183905291935090821690639e79eaa590604401600060405180830381600087803b158015610a4f57600080fd5b505af1158015610a63573d6000803e3d6000fd5b5050604080516001600160a01b038b81168252602082018790529181018a905290871692503391507ffb80d861da582b723be2d19507ce3e03851820c464abea89156ec77e089b1ad99060600160405180910390a350600160655595945050505050565b600060026065541415610b1c5760405162461bcd60e51b815260206004820152601f60248201527f5265656e7472616e637947756172643a207265656e7472616e742063616c6c006044820152606401610633565b600260655560975460ff1615610b675760405162461bcd60e51b815260206004820152601060248201526f14185d5cd8589b194e881c185d5cd95960821b6044820152606401610633565b610b708361273c565b610b7985612868565b610b828261289f565b610b8b87612c93565b6000610b96886127a7565b90506000610ba3886127a7565b9050610bba6001600160a01b03831633848a6128d9565b6000610bc883896000612967565b9050610bd78383838a8a612ce6565b5080945050610c57826001600160a01b0316637284168a6040518163ffffffff1660e01b815260040160206040518083038186803b158015610c1857600080fd5b505afa158015610c2c573d6000803e3d6000fd5b505050506040513d601f19601f82011682018060405250810190610c509190614d2e565b8590612c63565b604051639e79eaa560e01b81526001600160a01b0388811660048301526024820183905291955090831690639e79eaa590604401600060405180830381600087803b158015610ca557600080fd5b505af1158015610cb9573d6000803e3d6000fd5b5050604080516001600160a01b038d81168252602082018990529181018c905290891692503391507ffb80d861da582b723be2d19507ce3e03851820c464abea89156ec77e089b1ad99060600160405180910390a350506001606555509695505050505050565b60026065541415610d735760405162461bcd60e51b815260206004820152601f60248201527f5265656e7472616e637947756172643a207265656e7472616e742063616c6c006044820152606401610633565b6002606555610d8061277c565b610d8981612ee8565b506001606555565b60026065541415610de45760405162461bcd60e51b815260206004820152601f60248201527f5265656e7472616e637947756172643a207265656e7472616e742063616c6c006044820152606401610633565b6002606555610df161277c565b610df9612f51565b6001606555565b6033546001600160a01b03163314610e485760405162461bcd60e51b8152602060048201819052602482015260008051602061515e8339815191526044820152606401610633565b6001600160a01b03808216600090815260d4602052604090205416610e8057604051633b2c013560e21b815260040160405180910390fd5b6001600160a01b03818116600090815260d46020908152604080832080546001600160a01b0319811690915560d590925282205460d35491909316929190610eca90600190615059565b9050600060d36000018281548110610ee457610ee4615139565b60009182526020808320909101546001600160a01b0390811680845260d59092526040808420879055908816835282209190915560d38054919250829185908110610f3157610f31615139565b600091825260209091200180546001600160a01b0319166001600160a01b039290921691909117905560d3805480610f6b57610f6b615123565b600082815260208120820160001990810180546001600160a01b03191690559091019091556040516001600160a01b0386811692908816917f0fa1e4606af435f32f05b3804033d2933e691fab32ee74d2db6fa82d2741f1ea9190a35050505050565b600080610fdb8585612fed565b82610ff95760405163b483c10f60e01b815260040160405180910390fd5b6000611004866127a7565b90506000611011866127a7565b9050600085121561103f5761103c60cb54670de0b6b3a7640000611035919061501a565b869061303d565b94505b6110ba826001600160a01b0316637284168a6040518163ffffffff1660e01b815260040160206040518083038186803b15801561107b57600080fd5b505afa15801561108f573d6000803e3d6000fd5b505050506040513d601f19601f820116820180604052508101906110b39190614d2e565b8690613071565b94506110c78282876130cb565b809450819550505061110b816001600160a01b0316637284168a6040518163ffffffff1660e01b815260040160206040518083038186803b158015610c1857600080fd5b9350611188816001600160a01b0316637284168a6040518163ffffffff1660e01b815260040160206040518083038186803b15801561114957600080fd5b505afa15801561115d573d6000803e3d6000fd5b505050506040513d601f19601f820116820180604052508101906111819190614d2e565b8490612c63565b92505050935093915050565b6033546001600160a01b031633146111dc5760405162461bcd60e51b8152602060048201819052602482015260008051602061515e8339815191526044820152606401610633565b670de0b6b3a76400006111ef8383614e2c565b111561120e576040516312b019e160e01b815260040160405180910390fd5b61121661333c565b60cc5560cd55565b600080600061122c856127a7565b90506112b2816112ad836001600160a01b0316637284168a6040518163ffffffff1660e01b815260040160206040518083038186803b15801561126e57600080fd5b505afa158015611282573d6000803e3d6000fd5b505050506040513d601f19601f820116820180604052508101906112a69190614d2e565b8790612800565b613393565b919791965090945050505050565b6000600260655414156113155760405162461bcd60e51b815260206004820152601f60248201527f5265656e7472616e637947756172643a207265656e7472616e742063616c6c006044820152606401610633565b600260655560975460ff16156113605760405162461bcd60e51b815260206004820152601060248201526f14185d5cd8589b194e881c185d5cd95960821b6044820152606401610633565b8561137e5760405163b483c10f60e01b815260040160405180910390fd5b6113878461273c565b6113908361289f565b61139987612c93565b60006113a4886127a7565b90506113bb6001600160a01b03891633838a6128d9565b8261144d576114468161143f836001600160a01b0316637284168a6040518163ffffffff1660e01b815260040160206040518083038186803b15801561140057600080fd5b505afa158015611414573d6000803e3d6000fd5b505050506040513d601f19601f820116820180604052508101906114389190614d2e565b8a90612800565b88886135d9565b915061166c565b60d154611462906001600160a01b031661273c565b6114a9816114a2836001600160a01b0316637284168a6040518163ffffffff1660e01b815260040160206040518083038186803b15801561140057600080fd5b88306135d9565b60d1546040517f095ea7b30000000000000000000000000000000000000000000000000000000081526001600160a01b0391821660048201526024810183905291935082169063095ea7b390604401602060405180830381600087803b15801561151257600080fd5b505af1158015611526573d6000803e3d6000fd5b505050506040513d601f19601f8201168201806040525081019061154a9190614c94565b5060d1546040517faf929a800000000000000000000000000000000000000000000000000000000081526001600160a01b038381166004830152600092169063af929a809060240160206040518083038186803b1580156115aa57600080fd5b505afa1580156115be573d6000803e3d6000fd5b505050506040513d601f19601f820116820180604052508101906115e29190614cf3565b60d1546040517f90210d7e00000000000000000000000000000000000000000000000000000000815260048101839052602481018690526001600160a01b0389811660448301529293509116906390210d7e90606401600060405180830381600087803b15801561165257600080fd5b505af1158015611666573d6000803e3d6000fd5b50505050505b604080516001600160a01b038a81168252602082018a90529181018490529086169033907ff5dd9317b9e63ac316ce44acc85f670b54b339cfa3e9076e1dd55065b922314b9060600160405180910390a35060016065559695505050505050565b6033546001600160a01b031633146117155760405162461bcd60e51b8152602060048201819052602482015260008051602061515e8339815191526044820152606401610633565b61171f6000613740565b565b600061172c826127a7565b92915050565b600260655414156117855760405162461bcd60e51b815260206004820152601f60248201527f5265656e7472616e637947756172643a207265656e7472616e742063616c6c006044820152606401610633565b600260655561179261277c565b610df9613792565b6000806000806117a861380d565b809250819350505060006117bf838360ca5461399b565b959294509192505050565b6000806117d683612868565b60006117e1856127a7565b90506117ed81856139c6565b90508093508194505050611833816001600160a01b0316637284168a6040518163ffffffff1660e01b815260040160206040518083038186803b15801561114957600080fd5b9250509250929050565b6033546001600160a01b031633146118855760405162461bcd60e51b8152602060048201819052602482015260008051602061515e8339815191526044820152606401610633565b6000611890846127a7565b9050600060d26000836001600160a01b03166001600160a01b0316815260200190815260200160002054826001600160a01b031663961be3916040518163ffffffff1660e01b815260040160206040518083038186803b1580156118f357600080fd5b505afa158015611907573d6000803e3d6000fd5b505050506040513d601f19601f8201168201806040525081019061192b9190614cb1565b6001600160781b0316611970846001600160a01b0316637284168a6040518163ffffffff1660e01b815260040160206040518083038186803b15801561075a57600080fd5b61197a9190615059565b6119849190615059565b9050808411156119a7576040516312b019e160e01b815260040160405180910390fd5b816001600160a01b0316639e79eaa584611a32856001600160a01b0316637284168a6040518163ffffffff1660e01b815260040160206040518083038186803b1580156119f357600080fd5b505afa158015611a07573d6000803e3d6000fd5b505050506040513d601f19601f82011682018060405250810190611a2b9190614d2e565b8890612c63565b6040517fffffffff0000000000000000000000000000000000000000000000000000000060e085901b1681526001600160a01b0390921660048301526024820152604401600060405180830381600087803b158015611a9057600080fd5b505af1158015611aa4573d6000803e3d6000fd5b505050505050505050565b60008060026065541415611b055760405162461bcd60e51b815260206004820152601f60248201527f5265656e7472616e637947756172643a207265656e7472616e742063616c6c006044820152606401610633565b600260655560975460ff1615611b505760405162461bcd60e51b815260206004820152601060248201526f14185d5cd8589b194e881c185d5cd95960821b6044820152606401610633565b611b5a8888612fed565b85611b785760405163b483c10f60e01b815260040160405180910390fd5b611b818461273c565b611b8a8361289f565b611b9388612c93565b6000611b9e896127a7565b90506000611bab896127a7565b90506000816001600160a01b0316637284168a6040518163ffffffff1660e01b815260040160206040518083038186803b158015611be857600080fd5b505afa158015611bfc573d6000803e3d6000fd5b505050506040513d601f19601f82011682018060405250810190611c209190614d2e565b9050611cb28383611ca2866001600160a01b0316637284168a6040518163ffffffff1660e01b815260040160206040518083038186803b158015611c6357600080fd5b505afa158015611c77573d6000803e3d6000fd5b505050506040513d601f19601f82011682018060405250810190611c9b9190614d2e565b8d90612800565b611cac8c86612800565b8b612ce6565b9095509350611cc18582612c63565b9450611ccd8482612c63565b9350611ce46001600160a01b038c1633858c6128d9565b604051639e79eaa560e01b81526001600160a01b03888116600483015260248201879052831690639e79eaa590604401600060405180830381600087803b158015611d2e57600080fd5b505af1158015611d42573d6000803e3d6000fd5b5050604080516001600160a01b038f811682528e811660208301529181018d905260608101899052908a1692503391507f54787c404bb33c88e86f4baf88183a3b0141d0a848e6a9f7a13b66ae3a9b73d19060800160405180910390a350506001606555509097909650945050505050565b60026065541415611e075760405162461bcd60e51b815260206004820152601f60248201527f5265656e7472616e637947756172643a207265656e7472616e742063616c6c006044820152606401610633565b6002606555611e1461277c565b610d8981613c06565b6033546001600160a01b03163314611e655760405162461bcd60e51b8152602060048201819052602482015260008051602061515e8339815191526044820152606401610633565b670de0b6b3a7640000811115611e8e576040516312b019e160e01b815260040160405180910390fd5b60ca55565b606060d3600001805480602002602001604051908101604052809291908181526020018280548015611eee57602002820191906000526020600020905b81546001600160a01b03168152600190910190602001808311611ed0575b5050505050905090565b6033546001600160a01b03163314611f405760405162461bcd60e51b8152602060048201819052602482015260008051602061515e8339815191526044820152606401610633565b60ce55565b600080611f51836127a7565b905060d26000826001600160a01b03166001600160a01b0316815260200190815260200160002054816001600160a01b031663961be3916040518163ffffffff1660e01b815260040160206040518083038186803b158015611fb257600080fd5b505afa158015611fc6573d6000803e3d6000fd5b505050506040513d601f19601f82011682018060405250810190611fea9190614cb1565b6001600160781b03166120a0836001600160a01b0316637284168a6040518163ffffffff1660e01b815260040160206040518083038186803b15801561202f57600080fd5b505afa158015612043573d6000803e3d6000fd5b505050506040513d601f19601f820116820180604052508101906120679190614d2e565b846001600160a01b03166399c91a646040518163ffffffff1660e01b815260040160206040518083038186803b1580156107cb57600080fd5b6120aa9190615059565b6120b49190615059565b9392505050565b6033546001600160a01b031633146121035760405162461bcd60e51b8152602060048201819052602482015260008051602061515e8339815191526044820152606401610633565b61210c8161273c565b60cf80546001600160a01b0319166001600160a01b0392909216919091179055565b6033546001600160a01b031633146121765760405162461bcd60e51b8152602060048201819052602482015260008051602061515e8339815191526044820152606401610633565b600260655414156121c95760405162461bcd60e51b815260206004820152601f60248201527f5265656e7472616e637947756172643a207265656e7472616e742063616c6c006044820152606401610633565b60026065556121d78161273c565b6121e08261273c565b6001600160a01b03808316600090815260d460205260409020541615612232576040517f8991c4c400000000000000000000000000000000000000000000000000000000815260040160405180910390fd5b6001600160a01b03808316600081815260d46020908152604080832080549587166001600160a01b0319968716811790915560d3805460d590945282852084905560018401815584527f915c3eb987b20e1af620c1403197bf687fb7f18513b3a73fde6e78c7072c41a69092018054909516841790945592517f0bb5715f0f217c2fe9a0c877ea87d474380c641102f3440ee2a4c8b9d97909189190a350506001606555565b6000806122e4836127a7565b9050806001600160a01b03166318160ddd6040518163ffffffff1660e01b815260040160206040518083038186803b15801561231f57600080fd5b505afa158015612333573d6000803e3d6000fd5b505050506040513d601f19601f820116820180604052508101906123579190614cf3565b61236b5750670de0b6b3a764000092915050565b6120b4816001600160a01b03166318160ddd6040518163ffffffff1660e01b815260040160206040518083038186803b1580156123a757600080fd5b505afa1580156123bb573d6000803e3d6000fd5b505050506040513d601f19601f820116820180604052508101906123df9190614cf3565b826001600160a01b031663705727b56040518163ffffffff1660e01b815260040160206040518083038186803b15801561241857600080fd5b505afa15801561242c573d6000803e3d6000fd5b505050506040513d601f19601f820116820180604052508101906124509190614cb1565b6001600160781b031690613c65565b600054610100900460ff1680612478575060005460ff16155b6124db5760405162461bcd60e51b815260206004820152602e60248201527f496e697469616c697a61626c653a20636f6e747261637420697320616c72656160448201526d191e481a5b9a5d1a585b1a5e995960921b6064820152608401610633565b600054610100900460ff161580156124fd576000805461ffff19166101011790555b612505613c99565b61250d613d5b565b612515613e12565b60ca83905560cb829055670de0b6b3a764000060cd5560cf80546001600160a01b03191633179055801561254f576000805461ff00191690555b505050565b6033546001600160a01b0316331461259c5760405162461bcd60e51b8152602060048201819052602482015260008051602061515e8339815191526044820152606401610633565b6001600160a01b0381166126185760405162461bcd60e51b815260206004820152602660248201527f4f776e61626c653a206e6577206f776e657220697320746865207a65726f206160448201527f64647265737300000000000000000000000000000000000000000000000000006064820152608401610633565b61262181613740565b50565b6033546001600160a01b0316331461266c5760405162461bcd60e51b8152602060048201819052602482015260008051602061515e8339815191526044820152606401610633565b6001600160a01b038116612693576040516312b019e160e01b815260040160405180910390fd5b60d080546001600160a01b0319166001600160a01b0392909216919091179055565b6033546001600160a01b031633146126fd5760405162461bcd60e51b8152602060048201819052602482015260008051602061515e8339815191526044820152606401610633565b670de0b6b3a7640000811115612726576040516312b019e160e01b815260040160405180910390fd5b60cb55565b612621612737826127a7565b613ece565b6001600160a01b038116612621576040517f0bd3e3ed00000000000000000000000000000000000000000000000000000000815260040160405180910390fd5b60cf546001600160a01b0316331461171f576040516316fde3bd60e21b815260040160405180910390fd5b6001600160a01b03808216600090815260d460205260408120549091166127e157604051633b2c013560e21b815260040160405180910390fd5b506001600160a01b03908116600090815260d460205260409020541690565b600060128260ff16101561283557612819826012615070565b61282490600a614ec9565b61282e9084614ffb565b905061172c565b60128260ff1611156128615761284c601283615070565b61285790600a614ec9565b61282e9084614e72565b5090919050565b80612621576040517f3f3835e700000000000000000000000000000000000000000000000000000000815260040160405180910390fd5b42811015612621576040517f549b633500000000000000000000000000000000000000000000000000000000815260040160405180910390fd5b604080516001600160a01b0385811660248301528416604482015260648082018490528251808303909101815260849091019091526020810180517bffffffffffffffffffffffffffffffffffffffffffffffffffffffff167f23b872dd0000000000000000000000000000000000000000000000000000000017905261296190859061410f565b50505050565b600061297284613ece565b600061297e85856139c6565b50909250905061298e83836141f4565b6040517f9dc29fac0000000000000000000000000000000000000000000000000000000081526001600160a01b038616600482018190526024820186905290639dc29fac90604401600060405180830381600087803b1580156129f057600080fd5b505af1158015612a04573d6000803e3d6000fd5b50506040517f9f9ef988000000000000000000000000000000000000000000000000000000008152600481018590526001600160a01b0388169250639f9ef9889150602401600060405180830381600087803b158015612a6357600080fd5b505af1158015612a77573d6000803e3d6000fd5b50506040517fd8b87853000000000000000000000000000000000000000000000000000000008152600481018490526001600160a01b038816925063d8b878539150602401600060405180830381600087803b158015612ad657600080fd5b505af1158015612aea573d6000803e3d6000fd5b505050506000856001600160a01b031663705727b56040518163ffffffff1660e01b815260040160206040518083038186803b158015612b2957600080fd5b505afa158015612b3d573d6000803e3d6000fd5b505050506040513d601f19601f82011682018060405250810190612b619190614cb1565b6001600160781b0316118015612c3d5750612b856064670de0b6b3a7640000614e72565b612c3b866001600160a01b031663705727b56040518163ffffffff1660e01b815260040160206040518083038186803b158015612bc157600080fd5b505afa158015612bd5573d6000803e3d6000fd5b505050506040513d601f19601f82011682018060405250810190612bf99190614cb1565b6001600160781b0316876001600160a01b031663961be3916040518163ffffffff1660e01b815260040160206040518083038186803b15801561241857600080fd5b105b15612c5b576040516316fde3bd60e21b815260040160405180910390fd5b509392505050565b600060128260ff161015612c7c5761284c826012615070565b60128260ff16111561286157612819601283615070565b6001600160a01b038116600090815260c9602052604090205460ff1615612621576040517f8654830a00000000000000000000000000000000000000000000000000000000815260040160405180910390fd5b600080612cf48787876130cb565b9092509050612d0384836141f4565b6001600160a01b038616600090815260d2602052604081208054839290612d2b908490614e2c565b909155505060405162b64f3d60e51b8152600481018690526001600160a01b038816906316c9e7a090602401600060405180830381600087803b158015612d7157600080fd5b505af1158015612d85573d6000803e3d6000fd5b50505050856001600160a01b0316639f9ef9888284612da49190614e2c565b6040518263ffffffff1660e01b8152600401612dc291815260200190565b600060405180830381600087803b158015612ddc57600080fd5b505af1158015612df0573d6000803e3d6000fd5b505050506064670de0b6b3a7640000612e099190614e72565b612ebf876001600160a01b031663705727b56040518163ffffffff1660e01b815260040160206040518083038186803b158015612e4557600080fd5b505afa158015612e59573d6000803e3d6000fd5b505050506040513d601f19601f82011682018060405250810190612e7d9190614cb1565b6001600160781b0316886001600160a01b031663961be3916040518163ffffffff1660e01b815260040160206040518083038186803b15801561241857600080fd5b1015612ede576040516316fde3bd60e21b815260040160405180910390fd5b9550959350505050565b612ef181612c93565b6001600160a01b038116600081815260c96020908152604091829020805460ff19166001179055815192835233908301527fdcb65c0553aaa433aadd180404ff195259c48f78aa50f877ebcb4bb215129a4e91015b60405180910390a150565b60975460ff16612fa35760405162461bcd60e51b815260206004820152601460248201527f5061757361626c653a206e6f74207061757365640000000000000000000000006044820152606401610633565b6097805460ff191690557f5db9ee0a495bf2e6ff9c91a7834c1ba4fdd244a5e8aa4e537bd38aeae4b073aa335b6040516001600160a01b03909116815260200160405180910390a1565b806001600160a01b0316826001600160a01b03161415613039576040517feeb7911f00000000000000000000000000000000000000000000000000000000815260040160405180910390fd5b5050565b60008161304b600282614e44565b61305d670de0b6b3a764000086614f74565b6130679190614ded565b6120b49190614e44565b600060128260ff16101561309f5761308a826012615070565b61309590600a614ec9565b61282e9084614f74565b60128260ff161115612861576130b6601283615070565b6130c190600a614ec9565b61282e9084614e44565b600080600080856001600160a01b031663961be3916040518163ffffffff1660e01b815260040160206040518083038186803b15801561310a57600080fd5b505afa15801561311e573d6000803e3d6000fd5b505050506040513d601f19601f820116820180604052508101906131429190614cb1565b6001600160781b031690506132c8876001600160a01b031663961be3916040518163ffffffff1660e01b815260040160206040518083038186803b15801561318957600080fd5b505afa15801561319d573d6000803e3d6000fd5b505050506040513d601f19601f820116820180604052508101906131c19190614cb1565b6001600160781b031682896001600160a01b031663705727b56040518163ffffffff1660e01b815260040160206040518083038186803b15801561320457600080fd5b505afa158015613218573d6000803e3d6000fd5b505050506040513d601f19601f8201168201806040525081019061323c9190614cb1565b6001600160781b0316896001600160a01b031663705727b56040518163ffffffff1660e01b815260040160206040518083038186803b15801561327e57600080fd5b505afa158015613292573d6000803e3d6000fd5b505050506040513d601f19601f820116820180604052508101906132b69190614cb1565b6001600160781b03168960ca5461422e565b915081811015613304576040517f9a6114b700000000000000000000000000000000000000000000000000000000815260040160405180910390fd5b60cb5461331290839061435b565b9250600085131561332e576133278383615059565b9350613332565b8193505b5050935093915050565b60005b60d3548110156126215760006133756133578361437b565b6001600160a01b03908116600090815260d460205260409020541690565b905061338081613ece565b508061338b816150bf565b91505061333f565b60008060006134a061349b85876001600160a01b031663961be3916040518163ffffffff1660e01b815260040160206040518083038186803b1580156133d857600080fd5b505afa1580156133ec573d6000803e3d6000fd5b505050506040513d601f19601f820116820180604052508101906134109190614cb1565b6001600160781b0316886001600160a01b031663705727b56040518163ffffffff1660e01b815260040160206040518083038186803b15801561345257600080fd5b505afa158015613466573d6000803e3d6000fd5b505050506040513d601f19601f8201168201806040525081019061348a9190614cb1565b6001600160781b031660ca546143ae565b614505565b91508382106134ba576134b38483615059565b90506134be565b8391505b6000856001600160a01b031663705727b56040518163ffffffff1660e01b815260040160206040518083038186803b1580156134f957600080fd5b505afa15801561350d573d6000803e3d6000fd5b505050506040513d601f19601f820116820180604052508101906135319190614cb1565b6001600160781b0316905080156135cd5780866001600160a01b03166318160ddd6040518163ffffffff1660e01b815260040160206040518083038186803b15801561357c57600080fd5b505afa158015613590573d6000803e3d6000fd5b505050506040513d601f19601f820116820180604052508101906135b49190614cf3565b6135be9085614ffb565b6135c89190614e72565b6135cf565b825b9350509250925092565b60006135e485613ece565b60006135f08686613393565b5090925090506135ff82612868565b61360984836141f4565b60405162b64f3d60e51b8152600481018690526001600160a01b038716906316c9e7a090602401600060405180830381600087803b15801561364a57600080fd5b505af115801561365e573d6000803e3d6000fd5b505060405163283c3d8160e21b8152600481018490526001600160a01b038916925063a0f0f6049150602401600060405180830381600087803b1580156136a457600080fd5b505af11580156136b8573d6000803e3d6000fd5b50506040517f40c10f190000000000000000000000000000000000000000000000000000000081526001600160a01b03868116600483015260248201869052891692506340c10f199150604401600060405180830381600087803b15801561371f57600080fd5b505af1158015613733573d6000803e3d6000fd5b5050505050949350505050565b603380546001600160a01b038381166001600160a01b0319831681179093556040519116919082907f8be0079c531659141344cd1fd0a4f28419497f9722a3daafe3b4186f6b6457e090600090a35050565b60975460ff16156137d85760405162461bcd60e51b815260206004820152601060248201526f14185d5cd8589b194e881c185d5cd95960821b6044820152606401610633565b6097805460ff191660011790557f62e78cea01bee320cd4e420270b5ea74000d11b0c9f74754ebdbfc544b05a258612fd03390565b60ca546000908190815b60d35481101561399557600061382f6133578361437b565b90506000816001600160a01b031663961be3916040518163ffffffff1660e01b815260040160206040518083038186803b15801561386c57600080fd5b505afa158015613880573d6000803e3d6000fd5b505050506040513d601f19601f820116820180604052508101906138a49190614cb1565b6001600160781b031690506000826001600160a01b031663705727b56040518163ffffffff1660e01b815260040160206040518083038186803b1580156138ea57600080fd5b505afa1580156138fe573d6000803e3d6000fd5b505050506040513d601f19601f820116820180604052508101906139229190614cb1565b6001600160781b031690508061393a57505050613983565b6000613946838361303d565b90506139528288614ded565b9650613972613961878361303d565b61396b908361501a565b839061455b565b61397c9089614ded565b9750505050505b8061398d816150bf565b915050613817565b50509091565b6000806139a8858561303d565b6139b1906150da565b90506139bd818461457b565b95945050505050565b6000806000846001600160a01b03166318160ddd6040518163ffffffff1660e01b815260040160206040518083038186803b158015613a0457600080fd5b505afa158015613a18573d6000803e3d6000fd5b505050506040513d601f19601f82011682018060405250810190613a3c9190614cf3565b84866001600160a01b031663705727b56040518163ffffffff1660e01b815260040160206040518083038186803b158015613a7657600080fd5b505afa158015613a8a573d6000803e3d6000fd5b505050506040513d601f19601f82011682018060405250810190613aae9190614cb1565b6001600160781b0316613ac19190614ffb565b613acb9190614e72565b9150613ad682612868565b613be161349b613ae5846150da565b876001600160a01b031663961be3916040518163ffffffff1660e01b815260040160206040518083038186803b158015613b1e57600080fd5b505afa158015613b32573d6000803e3d6000fd5b505050506040513d601f19601f82011682018060405250810190613b569190614cb1565b6001600160781b0316886001600160a01b031663705727b56040518163ffffffff1660e01b815260040160206040518083038186803b158015613b9857600080fd5b505afa158015613bac573d6000803e3d6000fd5b505050506040513d601f19601f82011682018060405250810190613bd09190614cb1565b6001600160781b031660ca546145c5565b9250828210613bfb57613bf48383615059565b9050613bff565b8192505b9250925092565b613c0f81614683565b6001600160a01b038116600081815260c96020908152604091829020805460ff19169055815192835233908301527fdb198487a4c70aa000c3b1020f52688b4b86d3ebcedc84a793e03ed3b480902c9101612f46565b600081613c73600282614e72565b613c85670de0b6b3a764000086614ffb565b613c8f9190614e2c565b6120b49190614e72565b600054610100900460ff1680613cb2575060005460ff16155b613d155760405162461bcd60e51b815260206004820152602e60248201527f496e697469616c697a61626c653a20636f6e747261637420697320616c72656160448201526d191e481a5b9a5d1a585b1a5e995960921b6064820152608401610633565b600054610100900460ff16158015613d37576000805461ffff19166101011790555b613d3f6146d5565b613d47614786565b8015612621576000805461ff001916905550565b600054610100900460ff1680613d74575060005460ff16155b613dd75760405162461bcd60e51b815260206004820152602e60248201527f496e697469616c697a61626c653a20636f6e747261637420697320616c72656160448201526d191e481a5b9a5d1a585b1a5e995960921b6064820152608401610633565b600054610100900460ff16158015613df9576000805461ffff19166101011790555b60016065558015612621576000805461ff001916905550565b600054610100900460ff1680613e2b575060005460ff16155b613e8e5760405162461bcd60e51b815260206004820152602e60248201527f496e697469616c697a61626c653a20636f6e747261637420697320616c72656160448201526d191e481a5b9a5d1a585b1a5e995960921b6064820152608401610633565b600054610100900460ff16158015613eb0576000805461ffff19166101011790555b6097805460ff191690558015612621576000805461ff001916905550565b6001600160a01b038116600090815260d26020526040902054801580613ef5575060ce5481105b15613efe575050565b6000613f2d60cc5460cd54670de0b6b3a7640000613f1c9190615059565b613f269190615059565b839061435b565b9050801561400d57826001600160a01b0316639e79eaa560d060009054906101000a90046001600160a01b0316613f96866001600160a01b0316637284168a6040518163ffffffff1660e01b815260040160206040518083038186803b158015610c1857600080fd5b6040517fffffffff0000000000000000000000000000000000000000000000000000000060e085901b1681526001600160a01b0390921660048301526024820152604401600060405180830381600087803b158015613ff457600080fd5b505af1158015614008573d6000803e3d6000fd5b505050505b50600061402560cd548361435b90919063ffffffff16565b905080156140f35760006140398483613393565b5060405163283c3d8160e21b8152600481018290529092506001600160a01b038616915063a0f0f60490602401600060405180830381600087803b15801561408057600080fd5b505af1158015614094573d6000803e3d6000fd5b505060405162b64f3d60e51b8152600481018590526001600160a01b03871692506316c9e7a09150602401600060405180830381600087803b1580156140d957600080fd5b505af11580156140ed573d6000803e3d6000fd5b50505050505b50506001600160a01b0316600090815260d26020526040812055565b6000614164826040518060400160405280602081526020017f5361666545524332303a206c6f772d6c6576656c2063616c6c206661696c6564815250856001600160a01b031661482d9092919063ffffffff16565b80519091501561254f57808060200190518101906141829190614c94565b61254f5760405162461bcd60e51b815260206004820152602a60248201527f5361666545524332303a204552433230206f7065726174696f6e20646964206e60448201527f6f742073756363656564000000000000000000000000000000000000000000006064820152608401610633565b80821115613039576040517ff512a72000000000000000000000000000000000000000000000000000000000815260040160405180910390fd5b600084158061423b575083155b1561425957604051630570193360e51b815260040160405180910390fd5b6000614299876142698780614f74565b6142739190614e44565b8961427e8980614f74565b6142889190614e44565b6142929190614ded565b849061455b565b6142a3888a614ded565b6142ad919061501a565b905060006142c5876142bf878c614ded565b9061303d565b905060006142d3838861303d565b876142de878561303d565b6142e8908561501a565b6142f2908b614f74565b6142fc9190614e44565b614306919061501a565b90506000614314828761457b565b905060008a6143238a8461455b565b61432d919061501a565b9050600081121561434857614341816150da565b955061434c565b8095505b50505050509695505050505050565b6000670de0b6b3a7640000614371600282614e72565b613c858486614ffb565b600060d3600001828154811061439357614393615139565b6000918252602090912001546001600160a01b031692915050565b6000826143bc5750836144fd565b60006143c88686614ded565b12156143e757604051630570193360e51b815260040160405180910390fd5b60006143f3858561303d565b905060006144018688614ded565b9050600061440f858761455b565b61441a906002614f74565b61442f61429287670de0b6b3a764000061501a565b6144399190614ded565b905060006144518761444b888261455b565b9061455b565b61445b848061455b565b614484866144698b8b614f74565b6144739190614e44565b61447d908c61501a565b869061455b565b61448e919061501a565b6144989190614ded565b90506000816144a8886004614f74565b6144b29190614f74565b6144bc8480614f74565b6144c6919061501a565b905060026144eb886144d8848761483c565b6144e1876150da565b6142bf9190614ded565b6144f59190614e44565b955050505050505b949350505050565b6000808212156145575760405162461bcd60e51b815260206004820152601660248201527f76616c7565206d75737420626520706f736974697665000000000000000000006044820152606401610633565b5090565b6000670de0b6b3a7640000614571600282614e44565b61305d8486614f74565b60006002836145bb670de0b6b3a7640000614597866004614f74565b6145a19190614f74565b6145ab8780614f74565b6145b59190614ded565b8661483c565b613067919061501a565b6000806145d28685614ded565b905060006145e0868661303d565b905060006146026145f1868461303d565b6145fb908461501a565b879061455b565b90506000600261462461461d88670de0b6b3a764000061501a565b8b9061455b565b61462e9084614ded565b6146389190614e44565b9050600061466d61465361464c8780614f74565b899061455b565b61465d8480614f74565b6146679190614ded565b8361483c565b6146779083614ded565b90506144f5818a61501a565b6001600160a01b038116600090815260c9602052604090205460ff16612621576040517f855b737300000000000000000000000000000000000000000000000000000000815260040160405180910390fd5b600054610100900460ff16806146ee575060005460ff16155b6147515760405162461bcd60e51b815260206004820152602e60248201527f496e697469616c697a61626c653a20636f6e747261637420697320616c72656160448201526d191e481a5b9a5d1a585b1a5e995960921b6064820152608401610633565b600054610100900460ff16158015613d47576000805461ffff19166101011790558015612621576000805461ff001916905550565b600054610100900460ff168061479f575060005460ff16155b6148025760405162461bcd60e51b815260206004820152602e60248201527f496e697469616c697a61626c653a20636f6e747261637420697320616c72656160448201526d191e481a5b9a5d1a585b1a5e995960921b6064820152608401610633565b600054610100900460ff16158015614824576000805461ffff19166101011790555b613d4733613740565b60606144fd8484600085614900565b600060038313156148f1576000821380156148575750828213155b15614863575080614893565b60008212801561487b575082614878836150da565b13155b1561489057614889826150da565b9050614893565b50815b60006002826148a28187614e44565b6148ac9190614ded565b6148b69190614e44565b90505b8181146148eb579050806002816148d08187614e44565b6148da9190614ded565b6148e49190614e44565b90506148b9565b5061172c565b821561172c5750600192915050565b6060824710156149785760405162461bcd60e51b815260206004820152602660248201527f416464726573733a20696e73756666696369656e742062616c616e636520666f60448201527f722063616c6c00000000000000000000000000000000000000000000000000006064820152608401610633565b843b6149c65760405162461bcd60e51b815260206004820152601d60248201527f416464726573733a2063616c6c20746f206e6f6e2d636f6e74726163740000006044820152606401610633565b600080866001600160a01b031685876040516149e29190614d51565b60006040518083038185875af1925050503d8060008114614a1f576040519150601f19603f3d011682016040523d82523d6000602084013e614a24565b606091505b5091509150614a34828286614a3f565b979650505050505050565b60608315614a4e5750816120b4565b825115614a5e5782518084602001fd5b8160405162461bcd60e51b81526004016106339190614dba565b80356001600160a01b0381168114614a8f57600080fd5b919050565b600060208284031215614aa657600080fd5b6120b482614a78565b60008060408385031215614ac257600080fd5b614acb83614a78565b9150614ad960208401614a78565b90509250929050565b600080600060608486031215614af757600080fd5b614b0084614a78565b9250614b0e60208501614a78565b9150604084013590509250925092565b60008060008060008060c08789031215614b3757600080fd5b614b4087614a78565b9550614b4e60208801614a78565b94506040870135935060608701359250614b6a60808801614a78565b915060a087013590509295509295509295565b60008060408385031215614b9057600080fd5b614b9983614a78565b946020939093013593505050565b600080600060608486031215614bbc57600080fd5b614bc584614a78565b925060208401359150614bda60408501614a78565b90509250925092565b600080600080600060a08688031215614bfb57600080fd5b614c0486614a78565b94506020860135935060408601359250614c2060608701614a78565b949793965091946080013592915050565b60008060008060008060c08789031215614c4a57600080fd5b614c5387614a78565b95506020870135945060408701359350614c6f60608801614a78565b92506080870135915060a0870135614c868161514f565b809150509295509295509295565b600060208284031215614ca657600080fd5b81516120b48161514f565b600060208284031215614cc357600080fd5b81516001600160781b03811681146120b457600080fd5b600060208284031215614cec57600080fd5b5035919050565b600060208284031215614d0557600080fd5b5051919050565b60008060408385031215614d1f57600080fd5b50508035926020909101359150565b600060208284031215614d4057600080fd5b815160ff811681146120b457600080fd5b60008251614d63818460208701615093565b9190910192915050565b6020808252825182820181905260009190848201906040850190845b81811015614dae5783516001600160a01b031683529284019291840191600101614d89565b50909695505050505050565b6020815260008251806020840152614dd9816040850160208701615093565b601f01601f19169190910160400192915050565b6000808212826001600160ff1b0303841381151615614e0e57614e0e6150f7565b82600160ff1b038412811615614e2657614e266150f7565b50500190565b60008219821115614e3f57614e3f6150f7565b500190565b600082614e5357614e5361510d565b600160ff1b821460001984141615614e6d57614e6d6150f7565b500590565b600082614e8157614e8161510d565b500490565b600181815b80851115614ec1578160001904821115614ea757614ea76150f7565b80851615614eb457918102915b93841c9390800290614e8b565b509250929050565b60006120b460ff841683600082614ee25750600161172c565b81614eef5750600061172c565b8160018114614f055760028114614f0f57614f2b565b600191505061172c565b60ff841115614f2057614f206150f7565b50506001821b61172c565b5060208310610133831016604e8410600b8410161715614f4e575081810a61172c565b614f588383614e86565b8060001904821115614f6c57614f6c6150f7565b029392505050565b60006001600160ff1b03600084136000841385830485118282161615614f9c57614f9c6150f7565b600160ff1b6000871286820588128184161615614fbb57614fbb6150f7565b60008712925087820587128484161615614fd757614fd76150f7565b87850587128184161615614fed57614fed6150f7565b505050929093029392505050565b6000816000190483118215151615615015576150156150f7565b500290565b600080831283600160ff1b01831281151615615038576150386150f7565b836001600160ff1b03018313811615615053576150536150f7565b50500390565b60008282101561506b5761506b6150f7565b500390565b600060ff821660ff84168082101561508a5761508a6150f7565b90039392505050565b60005b838110156150ae578181015183820152602001615096565b838111156129615750506000910152565b60006000198214156150d3576150d36150f7565b5060010190565b6000600160ff1b8214156150f0576150f06150f7565b5060000390565b634e487b7160e01b600052601160045260246000fd5b634e487b7160e01b600052601260045260246000fd5b634e487b7160e01b600052603160045260246000fd5b634e487b7160e01b600052603260045260246000fd5b801515811461262157600080fdfe4f776e61626c653a2063616c6c6572206973206e6f7420746865206f776e6572a26469706673582212205a483e60ff34e83049e8de191ee288d364a2a8f5869be1123ea58f5c7b0fc11d64736f6c63430008050033",
  "devdoc": {
    "details": "The main entry-point of Wombat protocol Note: All variables are 18 decimals, except from that of underlying tokens",
    "kind": "dev",
    "methods": {
      "addAsset(address,address)": {
        "params": {
          "asset": "The address of the Wombat Asset contract",
          "token": "The address of token"
        }
      },
      "assetOf(address)": {
        "details": "to be used externally",
        "params": {
          "token": "The address of ERC20 token"
        }
      },
      "deposit(address,uint256,uint256,address,uint256,bool)": {
        "details": "Asset needs to be created and added to pool before any operation",
        "params": {
          "amount": "The amount to be deposited",
          "deadline": "The deadline to be respected",
          "to": "The user accountable for deposit, receiving the Wombat assets (lp)",
          "token": "The token address to be deposited"
        },
        "returns": {
          "liquidity": "Total asset liquidity minted"
        }
      },
      "exchangeRate(address)": {
        "params": {
          "token": "The address of the token"
        },
        "returns": {
          "exchangeRate": "exchangeRate"
        }
      },
      "mintFee(address)": {
        "params": {
          "token": "The address of the token to collect fee"
        }
      },
      "owner()": {
        "details": "Returns the address of the current owner."
      },
      "pause()": {
        "details": "pause pool, restricting certain operations"
      },
      "pauseAsset(address)": {
        "details": "pause asset, restricting deposit and swap operations"
      },
      "paused()": {
        "details": "Returns true if the contract is paused, and false otherwise."
      },
      "quotePotentialDeposit(address,uint256)": {
        "details": "To be used by frontend",
        "params": {
          "amount": "The amount to deposit",
          "token": "The token to deposit by user"
        },
        "returns": {
          "liquidity": "The potential liquidity user would receive",
          "reward": "reward"
        }
      },
      "quotePotentialSwap(address,address,int256)": {
        "details": "To be used by frontend",
        "params": {
          "fromAmount": "The amount to quote",
          "fromToken": "The initial ERC20 token",
          "toToken": "The token wanted by user"
        },
        "returns": {
          "haircut": "The haircut that would be applied",
          "potentialOutcome": "The potential amount user would receive"
        }
      },
      "quotePotentialWithdraw(address,uint256)": {
        "details": "To be used by frontend",
        "params": {
          "liquidity": "The liquidity (amount of lp assets) to be withdrawn",
          "token": "The token to be withdrawn by user"
        },
        "returns": {
          "amount": "The potential amount user would receive",
          "fee": "The fee that would be applied"
        }
      },
      "removeAsset(address)": {
        "details": "Can only be called by owner",
        "params": {
          "token": "The address of token to remove"
        }
      },
      "renounceOwnership()": {
        "details": "Leaves the contract without owner. It will not be possible to call `onlyOwner` functions anymore. Can only be called by the current owner. NOTE: Renouncing ownership will leave the contract without an owner, thereby removing any functionality that is only available to the owner."
      },
      "setAmpFactor(uint256)": {
        "params": {
          "ampFactor_": "new pool's amplification factor"
        }
      },
      "setDev(address)": {
        "params": {
          "dev_": "new contract dev address"
        }
      },
      "setFeeTo(address)": {
        "params": {
          "feeTo_": "new fee beneficiary"
        }
      },
      "setHaircutRate(uint256)": {
        "params": {
          "haircutRate_": "new pool's haircutRate_"
        }
      },
      "swap(address,address,uint256,uint256,address,uint256)": {
        "params": {
          "deadline": "The deadline to be respected",
          "fromAmount": "The amount of from token inserted",
          "fromToken": "The token being inserted into Pool by user for swap",
          "minimumToAmount": "The minimum amount that will be accepted by user as result",
          "to": "The user receiving the result of swap",
          "toToken": "The token wanted by user, leaving the Pool"
        }
      },
      "transferOwnership(address)": {
        "details": "Transfers ownership of the contract to a new account (`newOwner`). Can only be called by the current owner."
      },
      "unpause()": {
        "details": "unpause pool, enabling certain operations"
      },
      "unpauseAsset(address)": {
        "details": "unpause asset, enabling deposit and swap operations"
      },
      "withdraw(address,uint256,uint256,address,uint256)": {
        "params": {
          "deadline": "The deadline to be respected",
          "liquidity": "The liquidity to be withdrawn",
          "minimumAmount": "The minimum amount that will be accepted by user",
          "to": "The user receiving the withdrawal",
          "token": "The token to be withdrawn"
        },
        "returns": {
          "amount": "The total amount withdrawn"
        }
      },
      "withdrawFromOtherAsset(address,address,uint256,uint256,address,uint256)": {
        "params": {
          "deadline": "The deadline to be respected",
          "fromToken": "The corresponding token user holds the LP (Asset) from",
          "liquidity": "The liquidity to be withdrawn (in fromToken decimal)",
          "minimumAmount": "The minimum amount that will be accepted by user",
          "to": "The user receiving the withdrawal",
          "toToken": "The token wanting to be withdrawn (needs to be well covered)"
        },
        "returns": {
          "toAmount": "The total amount withdrawn"
        }
      }
    },
    "title": "Pool",
    "version": 1
  },
  "userdoc": {
    "events": {
      "AssetAdded(address,address)": {
        "notice": "An event thats emitted when an asset is added to Pool"
      },
      "AssetRemoved(address,address)": {
        "notice": "An event thats emitted when asset is removed from Pool"
      },
      "Deposit(address,address,uint256,uint256,address)": {
        "notice": "An event thats emitted when a deposit is made to Pool"
      },
      "Swap(address,address,address,uint256,uint256,address)": {
        "notice": "An event thats emitted when a swap is made in Pool"
      },
      "Withdraw(address,address,uint256,uint256,address)": {
        "notice": "An event thats emitted when a withdrawal is made from Pool"
      }
    },
    "kind": "user",
    "methods": {
      "addAsset(address,address)": {
        "notice": "Adds asset to pool, reverts if asset already exists in pool"
      },
      "ampFactor()": {
        "notice": "Amplification factor"
      },
      "assetOf(address)": {
        "notice": "Gets Asset corresponding to ERC20 token. Reverts if asset does not exists in Pool."
      },
      "deposit(address,uint256,uint256,address,uint256,bool)": {
        "notice": "Deposits amount of tokens into pool ensuring deadline"
      },
      "dev()": {
        "notice": "Dev address"
      },
      "exchangeRate(address)": {
        "notice": "Returns the exchange rate of the LP token"
      },
      "getTokens()": {
        "notice": "Return list of tokens in the pool"
      },
      "haircutRate()": {
        "notice": "Haircut rate"
      },
      "initialize(uint256,uint256)": {
        "notice": "Initializes pool. Dev is set to be the account calling this function."
      },
      "lpDividendRatio()": {
        "notice": "LP dividend ratio : the ratio of haircut that should distribute to LP"
      },
      "mintFee(address)": {
        "notice": "Send fee collected to the fee beneficiary"
      },
      "mintFeeThreshold()": {
        "notice": "The threshold to mint fee (unit: WAD)"
      },
      "quotePotentialDeposit(address,uint256)": {
        "notice": "Quotes potential deposit from pool"
      },
      "quotePotentialSwap(address,address,int256)": {
        "notice": "Quotes potential outcome of a swap given current state, taking in account slippage and haircut"
      },
      "quotePotentialWithdraw(address,uint256)": {
        "notice": "Quotes potential withdrawal from pool"
      },
      "removeAsset(address)": {
        "notice": "Removes asset from asset struct"
      },
      "retentionRatio()": {
        "notice": "Retention ratio: the ratio of haircut that should stay in the pool"
      },
      "setAmpFactor(uint256)": {
        "notice": "Changes the pools amplification factor. Can only be set by the contract owner."
      },
      "setDev(address)": {
        "notice": "Changes the contract dev. Can only be set by the contract owner."
      },
      "setFeeTo(address)": {
        "notice": "Changes the fee beneficiary. Can only be set by the contract owner. This value cannot be set to 0 to avoid unsettled fee."
      },
      "setHaircutRate(uint256)": {
        "notice": "Changes the pools haircutRate. Can only be set by the contract owner."
      },
      "setMintFeeThreshold(uint256)": {
        "notice": "Set min fee to mint"
      },
      "swap(address,address,uint256,uint256,address,uint256)": {
        "notice": "Swap fromToken for toToken, ensures deadline and minimumToAmount and sends quoted amount to `to` address"
      },
      "withdraw(address,uint256,uint256,address,uint256)": {
        "notice": "Withdraws liquidity amount of asset to `to` address ensuring minimum amount required"
      },
      "withdrawFromOtherAsset(address,address,uint256,uint256,address,uint256)": {
        "notice": "Enables withdrawing liquidity from an asset using LP from a different asset"
      }
    },
    "notice": "Manages deposits, withdrawals and swaps. Holds a mapping of assets and parameters.",
    "version": 1
  },
  "storageLayout": {
    "storage": [
      {
        "astId": 130,
        "contract": "contracts/wombat-core/pool/Pool.sol:Pool",
        "label": "_initialized",
        "offset": 0,
        "slot": "0",
        "type": "t_bool"
      },
      {
        "astId": 133,
        "contract": "contracts/wombat-core/pool/Pool.sol:Pool",
        "label": "_initializing",
        "offset": 1,
        "slot": "0",
        "type": "t_bool"
      },
      {
        "astId": 383,
        "contract": "contracts/wombat-core/pool/Pool.sol:Pool",
        "label": "__gap",
        "offset": 0,
        "slot": "1",
        "type": "t_array(t_uint256)50_storage"
      },
      {
        "astId": 10,
        "contract": "contracts/wombat-core/pool/Pool.sol:Pool",
        "label": "_owner",
        "offset": 0,
        "slot": "51",
        "type": "t_address"
      },
      {
        "astId": 123,
        "contract": "contracts/wombat-core/pool/Pool.sol:Pool",
        "label": "__gap",
        "offset": 0,
        "slot": "52",
        "type": "t_array(t_uint256)49_storage"
      },
      {
        "astId": 297,
        "contract": "contracts/wombat-core/pool/Pool.sol:Pool",
        "label": "_status",
        "offset": 0,
        "slot": "101",
        "type": "t_uint256"
      },
      {
        "astId": 340,
        "contract": "contracts/wombat-core/pool/Pool.sol:Pool",
        "label": "__gap",
        "offset": 0,
        "slot": "102",
        "type": "t_array(t_uint256)49_storage"
      },
      {
        "astId": 191,
        "contract": "contracts/wombat-core/pool/Pool.sol:Pool",
        "label": "_paused",
        "offset": 0,
        "slot": "151",
        "type": "t_bool"
      },
      {
        "astId": 282,
        "contract": "contracts/wombat-core/pool/Pool.sol:Pool",
        "label": "__gap",
        "offset": 0,
        "slot": "152",
        "type": "t_array(t_uint256)49_storage"
      },
      {
        "astId": 5049,
        "contract": "contracts/wombat-core/pool/Pool.sol:Pool",
        "label": "_pausedAssets",
        "offset": 0,
        "slot": "201",
        "type": "t_mapping(t_address,t_bool)"
      },
      {
        "astId": 5180,
        "contract": "contracts/wombat-core/pool/Pool.sol:Pool",
        "label": "ampFactor",
        "offset": 0,
        "slot": "202",
        "type": "t_uint256"
      },
      {
        "astId": 5183,
        "contract": "contracts/wombat-core/pool/Pool.sol:Pool",
        "label": "haircutRate",
        "offset": 0,
        "slot": "203",
        "type": "t_uint256"
      },
      {
        "astId": 5186,
        "contract": "contracts/wombat-core/pool/Pool.sol:Pool",
        "label": "retentionRatio",
        "offset": 0,
        "slot": "204",
        "type": "t_uint256"
      },
      {
        "astId": 5189,
        "contract": "contracts/wombat-core/pool/Pool.sol:Pool",
        "label": "lpDividendRatio",
        "offset": 0,
        "slot": "205",
        "type": "t_uint256"
      },
      {
        "astId": 5192,
        "contract": "contracts/wombat-core/pool/Pool.sol:Pool",
        "label": "mintFeeThreshold",
        "offset": 0,
        "slot": "206",
        "type": "t_uint256"
      },
      {
        "astId": 5195,
        "contract": "contracts/wombat-core/pool/Pool.sol:Pool",
        "label": "dev",
        "offset": 0,
        "slot": "207",
        "type": "t_address"
      },
      {
        "astId": 5197,
        "contract": "contracts/wombat-core/pool/Pool.sol:Pool",
        "label": "feeTo",
        "offset": 0,
        "slot": "208",
        "type": "t_address"
      },
      {
        "astId": 5200,
        "contract": "contracts/wombat-core/pool/Pool.sol:Pool",
        "label": "masterWombat",
        "offset": 0,
        "slot": "209",
        "type": "t_contract(IMasterWombat)11800"
      },
      {
        "astId": 5206,
        "contract": "contracts/wombat-core/pool/Pool.sol:Pool",
        "label": "_feeCollected",
        "offset": 0,
        "slot": "210",
        "type": "t_mapping(t_contract(IAsset)3831,t_uint256)"
      },
      {
        "astId": 5210,
        "contract": "contracts/wombat-core/pool/Pool.sol:Pool",
        "label": "_assets",
        "offset": 0,
        "slot": "211",
        "type": "t_struct(AssetMap)5177_storage"
      }
    ],
    "types": {
      "t_address": {
        "encoding": "inplace",
        "label": "address",
        "numberOfBytes": "20"
      },
      "t_array(t_address)dyn_storage": {
        "base": "t_address",
        "encoding": "dynamic_array",
        "label": "address[]",
        "numberOfBytes": "32"
      },
      "t_array(t_uint256)49_storage": {
        "base": "t_uint256",
        "encoding": "inplace",
        "label": "uint256[49]",
        "numberOfBytes": "1568"
      },
      "t_array(t_uint256)50_storage": {
        "base": "t_uint256",
        "encoding": "inplace",
        "label": "uint256[50]",
        "numberOfBytes": "1600"
      },
      "t_bool": {
        "encoding": "inplace",
        "label": "bool",
        "numberOfBytes": "1"
      },
      "t_contract(IAsset)3831": {
        "encoding": "inplace",
        "label": "contract IAsset",
        "numberOfBytes": "20"
      },
      "t_contract(IMasterWombat)11800": {
        "encoding": "inplace",
        "label": "contract IMasterWombat",
        "numberOfBytes": "20"
      },
      "t_mapping(t_address,t_bool)": {
        "encoding": "mapping",
        "key": "t_address",
        "label": "mapping(address => bool)",
        "numberOfBytes": "32",
        "value": "t_bool"
      },
      "t_mapping(t_address,t_contract(IAsset)3831)": {
        "encoding": "mapping",
        "key": "t_address",
        "label": "mapping(address => contract IAsset)",
        "numberOfBytes": "32",
        "value": "t_contract(IAsset)3831"
      },
      "t_mapping(t_address,t_uint256)": {
        "encoding": "mapping",
        "key": "t_address",
        "label": "mapping(address => uint256)",
        "numberOfBytes": "32",
        "value": "t_uint256"
      },
      "t_mapping(t_contract(IAsset)3831,t_uint256)": {
        "encoding": "mapping",
        "key": "t_contract(IAsset)3831",
        "label": "mapping(contract IAsset => uint256)",
        "numberOfBytes": "32",
        "value": "t_uint256"
      },
      "t_struct(AssetMap)5177_storage": {
        "encoding": "inplace",
        "label": "struct Pool.AssetMap",
        "members": [
          {
            "astId": 5167,
            "contract": "contracts/wombat-core/pool/Pool.sol:Pool",
            "label": "keys",
            "offset": 0,
            "slot": "0",
            "type": "t_array(t_address)dyn_storage"
          },
          {
            "astId": 5172,
            "contract": "contracts/wombat-core/pool/Pool.sol:Pool",
            "label": "values",
            "offset": 0,
            "slot": "1",
            "type": "t_mapping(t_address,t_contract(IAsset)3831)"
          },
          {
            "astId": 5176,
            "contract": "contracts/wombat-core/pool/Pool.sol:Pool",
            "label": "indexOf",
            "offset": 0,
            "slot": "2",
            "type": "t_mapping(t_address,t_uint256)"
          }
        ],
        "numberOfBytes": "96"
      },
      "t_uint256": {
        "encoding": "inplace",
        "label": "uint256",
        "numberOfBytes": "32"
      }
    }
  }
}