{
  "address": "0xF6009bA0090C7E50Da81E81895c6bBC6B36E4fd5",
  "abi": [
    {
      "anonymous": false,
      "inputs": [
        {
          "indexed": false,
          "internalType": "uint8",
          "name": "version",
          "type": "uint8"
        }
      ],
      "name": "Initialized",
      "type": "event"
    },
    {
      "anonymous": false,
      "inputs": [
        {
          "indexed": true,
          "internalType": "address",
          "name": "previousOwner",
          "type": "address"
        },
        {
          "indexed": true,
          "internalType": "address",
          "name": "newOwner",
          "type": "address"
        }
      ],
      "name": "OwnershipTransferred",
      "type": "event"
    },
    {
      "anonymous": false,
      "inputs": [
        {
          "indexed": false,
          "internalType": "contract IPriceFeed",
          "name": "priceFeed",
          "type": "address"
        }
      ],
      "name": "UpdateFallbackPriceFeed",
      "type": "event"
    },
    {
      "anonymous": false,
      "inputs": [
        {
          "indexed": false,
          "internalType": "contract IERC20",
          "name": "token",
          "type": "address"
        },
        {
          "indexed": false,
          "internalType": "bytes32",
          "name": "priceID",
          "type": "bytes32"
        }
      ],
      "name": "UpdatepriceID",
      "type": "event"
    },
    {
      "inputs": [
        {
          "internalType": "contract IERC20",
          "name": "_token",
          "type": "address"
        }
      ],
      "name": "getLatestPrice",
      "outputs": [
        {
          "internalType": "uint256",
          "name": "price",
          "type": "uint256"
        }
      ],
      "stateMutability": "view",
      "type": "function"
    },
    {
      "inputs": [
        {
          "internalType": "contract IPyth",
          "name": "_pyth",
          "type": "address"
        }
      ],
      "name": "initialize",
      "outputs": [],
      "stateMutability": "nonpayable",
      "type": "function"
    },
    {
      "inputs": [],
      "name": "owner",
      "outputs": [
        {
          "internalType": "address",
          "name": "",
          "type": "address"
        }
      ],
      "stateMutability": "view",
      "type": "function"
    },
    {
      "inputs": [
        {
          "internalType": "contract IERC20",
          "name": "",
          "type": "address"
        }
      ],
      "name": "priceIDs",
      "outputs": [
        {
          "internalType": "bytes32",
          "name": "",
          "type": "bytes32"
        }
      ],
      "stateMutability": "view",
      "type": "function"
    },
    {
      "inputs": [],
      "name": "renounceOwnership",
      "outputs": [],
      "stateMutability": "nonpayable",
      "type": "function"
    },
    {
      "inputs": [
        {
          "internalType": "contract IPriceFeed",
          "name": "_fallbackPriceFeed",
          "type": "address"
        }
      ],
      "name": "setFallbackPriceFeed",
      "outputs": [],
      "stateMutability": "nonpayable",
      "type": "function"
    },
    {
      "inputs": [
        {
          "internalType": "uint96",
          "name": "_maxPriceAge",
          "type": "uint96"
        }
      ],
      "name": "setMaxPriceAge",
      "outputs": [],
      "stateMutability": "nonpayable",
      "type": "function"
    },
    {
      "inputs": [
        {
          "internalType": "contract IERC20",
          "name": "_token",
          "type": "address"
        },
        {
          "internalType": "bytes32",
          "name": "_priceID",
          "type": "bytes32"
        }
      ],
      "name": "setPriceID",
      "outputs": [],
      "stateMutability": "nonpayable",
      "type": "function"
    },
    {
      "inputs": [
        {
          "internalType": "address",
          "name": "newOwner",
          "type": "address"
        }
      ],
      "name": "transferOwnership",
      "outputs": [],
      "stateMutability": "nonpayable",
      "type": "function"
    }
  ],
  "transactionHash": "0x34be6dfac37991a4780feb3703cc541ba7b5aec96c615de676af1c22d82919c1",
  "args": [],
  "numDeployments": 1,
  "solcInputHash": "7f01062a9daa6d31d7be479e2aed011c",
  "bytecode": "0x60808060405234610016576108fe908161001c8239f35b600080fdfe6040608081526004908136101561001557600080fd5b600091823560e01c806316345f181461048a5780635109d3d11461041e57806358b0c4ba146103cb578063715018a61461036d5780638da5cb5b146103455780638f803447146102d8578063c1d5e4ce1461029d578063c4d66de8146101345763f2fde38b1461008457600080fd5b34610130576020366003190112610130578035916001600160a01b03831680840361012c576100b16104d2565b156100c357836100c08461052a565b80f35b906020608492519162461bcd60e51b8352820152602660248201527f4f776e61626c653a206e6577206f776e657220697320746865207a65726f206160448201527f64647265737300000000000000000000000000000000000000000000000000006064820152fd5b8480fd5b8280fd5b50346101305760203660031901126101305780356001600160a01b03811680910361029957835460ff8160081c16159283809461028c575b8015610275575b1561020c575060ff1981166001178555826101fb575b506101a360ff855460081c1661019e81610572565b610572565b6101ac3361052a565b6001600160a01b031960985416176098556101c5575080f35b60207f7f26b83ff96e1f2b6a682f133852f6798a09c465da95921460cefb38474024989161ff001984541684555160018152a180f35b61ffff191661010117845538610189565b608490602086519162461bcd60e51b8352820152602e60248201527f496e697469616c697a61626c653a20636f6e747261637420697320616c72656160448201527f647920696e697469616c697a65640000000000000000000000000000000000006064820152fd5b50303b1580156101735750600160ff831614610173565b50600160ff83161061016c565b8380fd5b5050346102d45760203660031901126102d457806020926001600160a01b036102c46104b7565b1681526099845220549051908152f35b5080fd5b5050346102d457806003193601126102d4577fc4f83a751a95df39e3ee1888cbf11960f2bde84f0d9438b41f700f555353e9bd906103146104b7565b6001600160a01b03602435916103286104d2565b16908185526099602052808386205582519182526020820152a180f35b5050346102d457816003193601126102d4576020906001600160a01b03603354169051908152f35b83346103c857806003193601126103c8576103866104d2565b806001600160a01b036033546001600160a01b03198116603355167f8be0079c531659141344cd1fd0a4f28419497f9722a3daafe3b4186f6b6457e08280a380f35b80fd5b8382346102d45760203660031901126102d457356bffffffffffffffffffffffff811681036102d4576103fc6104d2565b6001600160a01b036001600160a01b03196065549260a01b1691161760655580f35b50346101305760203660031901126101305735906001600160a01b038216809203610130577f6cff7fca5d8d3ff53de63073399d617b38b793a4e9d03d57dfe1ab2c88c477df916020916104706104d2565b816001600160a01b0319606554161760655551908152a180f35b5050346102d45760203660031901126102d4576020906104b06104ab6104b7565b61061b565b9051908152f35b600435906001600160a01b03821682036104cd57565b600080fd5b6001600160a01b036033541633036104e657565b606460405162461bcd60e51b815260206004820152602060248201527f4f776e61626c653a2063616c6c6572206973206e6f7420746865206f776e65726044820152fd5b603354906001600160a01b0380911691826001600160a01b0319821617603355167f8be0079c531659141344cd1fd0a4f28419497f9722a3daafe3b4186f6b6457e0600080a3565b1561057957565b608460405162461bcd60e51b815260206004820152602b60248201527f496e697469616c697a61626c653a20636f6e7472616374206973206e6f74206960448201527f6e697469616c697a696e670000000000000000000000000000000000000000006064820152fd5b90601f8019910116810190811067ffffffffffffffff82111761060557604052565b634e487b7160e01b600052604160045260246000fd5b6001600160a01b03906080600083831681526099602052604090818120549460985416918051938480947f31d98b3f0000000000000000000000000000000000000000000000000000000082526004988983015260249586915afa9384156107df578294610740575b506060840151420342811161072e5760655460a01c10156106b057505050506106ad91506107ea565b90565b9091928094505160070b938285131561013057670de0b6b3a76400009485810295818704149015171561071c57015160030b604d811161070b57600a0a9384156106fb575050500490565b601290634e487b7160e01b835252fd5b50601184634e487b7160e01b835252fd5b5050601184634e487b7160e01b835252fd5b5050601185634e487b7160e01b835252fd5b9093506080813d82116107d7575b8161075b608093836105e3565b810103126102d45783519067ffffffffffffffff60808301818111848210176107c557865281518060070b810361012c57835260208201519081168103610299576020830152848101518060030b8103610299579060609186840152015160608201529238610684565b858560418b634e487b7160e01b835252fd5b3d915061074e565b5051903d90823e3d90fd5b6065546001600160a01b039081169190821561088457602460209260405194859384927f16345f180000000000000000000000000000000000000000000000000000000084521660048301525afa9081156108785760009161084a575090565b906020823d8211610870575b81610863602093836105e3565b810103126103c857505190565b3d9150610856565b6040513d6000823e3d90fd5b606460405162461bcd60e51b815260206004820152601060248201527f507269636520697320746f6f206f6c64000000000000000000000000000000006044820152fdfea2646970667358221220fcce1772281c20e15b4c306a8ff5eef3745e816befa616b17ba3ccd35057db0f64736f6c63430008120033",
  "devdoc": {
    "events": {
      "Initialized(uint8)": {
        "details": "Triggered when the contract has been initialized or reinitialized."
      }
    },
    "kind": "dev",
    "methods": {
      "owner()": {
        "details": "Returns the address of the current owner."
      },
      "renounceOwnership()": {
        "details": "Leaves the contract without owner. It will not be possible to call `onlyOwner` functions anymore. Can only be called by the current owner. NOTE: Renouncing ownership will leave the contract without an owner, thereby removing any functionality that is only available to the owner."
      },
      "transferOwnership(address)": {
        "details": "Transfers ownership of the contract to a new account (`newOwner`). Can only be called by the current owner."
      }
    },
    "title": "Pyth Price Feed with fallback",
    "version": 1
  },
  "userdoc": {
    "kind": "user",
    "methods": {
      "getLatestPrice(address)": {
        "notice": "Returns the latest price."
      }
    },
    "notice": "Contract to get the latest prices for multiple tokens from Pyth",
    "version": 1
  },
  "storageLayout": {
    "storage": [
      {
        "astId": 184,
        "contract": "contracts/wombat-core/asset/PythPriceFeed.sol:PythPriceFeed",
        "label": "_initialized",
        "offset": 0,
        "slot": "0",
        "type": "t_uint8"
      },
      {
        "astId": 187,
        "contract": "contracts/wombat-core/asset/PythPriceFeed.sol:PythPriceFeed",
        "label": "_initializing",
        "offset": 1,
        "slot": "0",
        "type": "t_bool"
      },
      {
        "astId": 871,
        "contract": "contracts/wombat-core/asset/PythPriceFeed.sol:PythPriceFeed",
        "label": "__gap",
        "offset": 0,
        "slot": "1",
        "type": "t_array(t_uint256)50_storage"
      },
      {
        "astId": 56,
        "contract": "contracts/wombat-core/asset/PythPriceFeed.sol:PythPriceFeed",
        "label": "_owner",
        "offset": 0,
        "slot": "51",
        "type": "t_address"
      },
      {
        "astId": 176,
        "contract": "contracts/wombat-core/asset/PythPriceFeed.sol:PythPriceFeed",
        "label": "__gap",
        "offset": 0,
        "slot": "52",
        "type": "t_array(t_uint256)49_storage"
      },
      {
        "astId": 6768,
        "contract": "contracts/wombat-core/asset/PythPriceFeed.sol:PythPriceFeed",
        "label": "fallbackPriceFeed",
        "offset": 0,
        "slot": "101",
        "type": "t_contract(IPriceFeed)7878"
      },
      {
        "astId": 6770,
        "contract": "contracts/wombat-core/asset/PythPriceFeed.sol:PythPriceFeed",
        "label": "maxPriceAge",
        "offset": 20,
        "slot": "101",
        "type": "t_uint96"
      },
      {
        "astId": 6774,
        "contract": "contracts/wombat-core/asset/PythPriceFeed.sol:PythPriceFeed",
        "label": "_gap",
        "offset": 0,
        "slot": "102",
        "type": "t_array(t_uint256)50_storage"
      },
      {
        "astId": 6932,
        "contract": "contracts/wombat-core/asset/PythPriceFeed.sol:PythPriceFeed",
        "label": "pyth",
        "offset": 0,
        "slot": "152",
        "type": "t_contract(IPyth)6039"
      },
      {
        "astId": 6937,
        "contract": "contracts/wombat-core/asset/PythPriceFeed.sol:PythPriceFeed",
        "label": "priceIDs",
        "offset": 0,
        "slot": "153",
        "type": "t_mapping(t_contract(IERC20)2243,t_bytes32)"
      }
    ],
    "types": {
      "t_address": {
        "encoding": "inplace",
        "label": "address",
        "numberOfBytes": "20"
      },
      "t_array(t_uint256)49_storage": {
        "base": "t_uint256",
        "encoding": "inplace",
        "label": "uint256[49]",
        "numberOfBytes": "1568"
      },
      "t_array(t_uint256)50_storage": {
        "base": "t_uint256",
        "encoding": "inplace",
        "label": "uint256[50]",
        "numberOfBytes": "1600"
      },
      "t_bool": {
        "encoding": "inplace",
        "label": "bool",
        "numberOfBytes": "1"
      },
      "t_bytes32": {
        "encoding": "inplace",
        "label": "bytes32",
        "numberOfBytes": "32"
      },
      "t_contract(IERC20)2243": {
        "encoding": "inplace",
        "label": "contract IERC20",
        "numberOfBytes": "20"
      },
      "t_contract(IPriceFeed)7878": {
        "encoding": "inplace",
        "label": "contract IPriceFeed",
        "numberOfBytes": "20"
      },
      "t_contract(IPyth)6039": {
        "encoding": "inplace",
        "label": "contract IPyth",
        "numberOfBytes": "20"
      },
      "t_mapping(t_contract(IERC20)2243,t_bytes32)": {
        "encoding": "mapping",
        "key": "t_contract(IERC20)2243",
        "label": "mapping(contract IERC20 => bytes32)",
        "numberOfBytes": "32",
        "value": "t_bytes32"
      },
      "t_uint256": {
        "encoding": "inplace",
        "label": "uint256",
        "numberOfBytes": "32"
      },
      "t_uint8": {
        "encoding": "inplace",
        "label": "uint8",
        "numberOfBytes": "1"
      },
      "t_uint96": {
        "encoding": "inplace",
        "label": "uint96",
        "numberOfBytes": "12"
      }
    }
  }
}