{
  "address": "0x7B35b009F499535623C6B89F46d02445eFC2f538",
  "abi": [
    {
      "inputs": [
        {
          "internalType": "contract IPyth",
          "name": "_pyth",
          "type": "address"
        },
        {
          "internalType": "uint256",
          "name": "_maxPriceAgeBound",
          "type": "uint256"
        }
      ],
      "stateMutability": "nonpayable",
      "type": "constructor"
    },
    {
      "anonymous": false,
      "inputs": [
        {
          "indexed": true,
          "internalType": "address",
          "name": "previousOwner",
          "type": "address"
        },
        {
          "indexed": true,
          "internalType": "address",
          "name": "newOwner",
          "type": "address"
        }
      ],
      "name": "OwnershipTransferred",
      "type": "event"
    },
    {
      "anonymous": false,
      "inputs": [
        {
          "indexed": false,
          "internalType": "uint256",
          "name": "maxPriceAgeBound",
          "type": "uint256"
        }
      ],
      "name": "SetMaxPriceAgeBound",
      "type": "event"
    },
    {
      "anonymous": false,
      "inputs": [
        {
          "indexed": false,
          "internalType": "contract IPriceFeed",
          "name": "priceFeed",
          "type": "address"
        }
      ],
      "name": "UpdateFallbackPriceFeed",
      "type": "event"
    },
    {
      "anonymous": false,
      "inputs": [
        {
          "indexed": false,
          "internalType": "contract IERC20",
          "name": "token",
          "type": "address"
        },
        {
          "indexed": false,
          "internalType": "bytes32",
          "name": "priceID",
          "type": "bytes32"
        },
        {
          "indexed": false,
          "internalType": "uint256",
          "name": "maxPriceAge",
          "type": "uint256"
        }
      ],
      "name": "UpdatepriceID",
      "type": "event"
    },
    {
      "inputs": [],
      "name": "fallbackPriceFeed",
      "outputs": [
        {
          "internalType": "contract IPriceFeed",
          "name": "",
          "type": "address"
        }
      ],
      "stateMutability": "view",
      "type": "function"
    },
    {
      "inputs": [
        {
          "internalType": "contract IERC20",
          "name": "_token",
          "type": "address"
        }
      ],
      "name": "getLatestPrice",
      "outputs": [
        {
          "internalType": "uint256",
          "name": "price",
          "type": "uint256"
        }
      ],
      "stateMutability": "view",
      "type": "function"
    },
    {
      "inputs": [
        {
          "internalType": "contract IERC20",
          "name": "",
          "type": "address"
        }
      ],
      "name": "maxPriceAge",
      "outputs": [
        {
          "internalType": "uint256",
          "name": "",
          "type": "uint256"
        }
      ],
      "stateMutability": "view",
      "type": "function"
    },
    {
      "inputs": [],
      "name": "maxPriceAgeBound",
      "outputs": [
        {
          "internalType": "uint256",
          "name": "",
          "type": "uint256"
        }
      ],
      "stateMutability": "view",
      "type": "function"
    },
    {
      "inputs": [],
      "name": "owner",
      "outputs": [
        {
          "internalType": "address",
          "name": "",
          "type": "address"
        }
      ],
      "stateMutability": "view",
      "type": "function"
    },
    {
      "inputs": [
        {
          "internalType": "contract IERC20",
          "name": "",
          "type": "address"
        }
      ],
      "name": "priceIDs",
      "outputs": [
        {
          "internalType": "bytes32",
          "name": "",
          "type": "bytes32"
        }
      ],
      "stateMutability": "view",
      "type": "function"
    },
    {
      "inputs": [],
      "name": "renounceOwnership",
      "outputs": [],
      "stateMutability": "nonpayable",
      "type": "function"
    },
    {
      "inputs": [
        {
          "internalType": "contract IPriceFeed",
          "name": "_fallbackPriceFeed",
          "type": "address"
        }
      ],
      "name": "setFallbackPriceFeed",
      "outputs": [],
      "stateMutability": "nonpayable",
      "type": "function"
    },
    {
      "inputs": [
        {
          "internalType": "uint256",
          "name": "_maxPriceAgeBound",
          "type": "uint256"
        }
      ],
      "name": "setMaxPriceAgeBound",
      "outputs": [],
      "stateMutability": "nonpayable",
      "type": "function"
    },
    {
      "inputs": [
        {
          "internalType": "contract IERC20",
          "name": "_token",
          "type": "address"
        },
        {
          "internalType": "bytes32",
          "name": "_priceID",
          "type": "bytes32"
        },
        {
          "internalType": "uint256",
          "name": "_maxPriceAge",
          "type": "uint256"
        }
      ],
      "name": "setPriceID",
      "outputs": [],
      "stateMutability": "nonpayable",
      "type": "function"
    },
    {
      "inputs": [
        {
          "internalType": "address",
          "name": "newOwner",
          "type": "address"
        }
      ],
      "name": "transferOwnership",
      "outputs": [],
      "stateMutability": "nonpayable",
      "type": "function"
    }
  ],
  "transactionHash": "0x71799231ff10318845625c614fdaa7a4c6be3eb2ad5de45b8f1d0c77677626ba",
  "args": [
    "0xd7308b14BF4008e7C7196eC35610B1427C5702EA",
    86400
  ],
  "numDeployments": 1,
  "solcInputHash": "677157ab1959102ac614f15c41c6b273",
  "bytecode": "0x6080346100d957601f61092438819003918201601f19168301916001600160401b038311848410176100de5780849260409485528339810103126100d95780516001600160a01b038082169290918390036100d9576020807fdbf066993ca6a3a38bfd6eb48f33d3ecd4f034d6f720786ec998d16a8a213bd292015160005460018060a01b03199433868316176000553391167f8be0079c531659141344cd1fd0a4f28419497f9722a3daafe3b4186f6b6457e0600080a380600255604051908152a1603554161760355560405161082f90816100f58239f35b600080fd5b634e487b7160e01b600052604160045260246000fdfe60406080815260048036101561001457600080fd5b600091823560e01c8063051adf121461044857806316345f181461041b57806328734f49146103fc578063327d486e1461032a5780635109d3d1146102b05780636579b73e14610279578063715018a6146102105780638da5cb5b146101ea578063b8c400f0146101c2578063c1d5e4ce146101875763f2fde38b1461009957600080fd5b34610183576020366003190112610183578135916001600160a01b039182841680940361017f576100c86104b1565b831561011657505082548273ffffffffffffffffffffffffffffffffffffffff198216178455167f8be0079c531659141344cd1fd0a4f28419497f9722a3daafe3b4186f6b6457e08380a380f35b906020608492519162461bcd60e51b8352820152602660248201527f4f776e61626c653a206e6577206f776e657220697320746865207a65726f206160448201527f64647265737300000000000000000000000000000000000000000000000000006064820152fd5b8480fd5b8280fd5b8382346101be5760203660031901126101be57806020926001600160a01b036101ae610496565b1681526036845220549051908152f35b5080fd5b8382346101be57816003193601126101be576020906001600160a01b03600154169051908152f35b8382346101be57816003193601126101be576001600160a01b0360209254169051908152f35b83346102765780600319360112610276576102296104b1565b806001600160a01b03815473ffffffffffffffffffffffffffffffffffffffff1981168355167f8be0079c531659141344cd1fd0a4f28419497f9722a3daafe3b4186f6b6457e08280a380f35b80fd5b8382346101be5760203660031901126101be57806020926001600160a01b036102a0610496565b1681526037845220549051908152f35b5090346101835760203660031901126101835735906001600160a01b038216809203610183577f6cff7fca5d8d3ff53de63073399d617b38b793a4e9d03d57dfe1ab2c88c477df916020916103036104b1565b8173ffffffffffffffffffffffffffffffffffffffff19600154161760015551908152a180f35b50903461018357606036600319011261018357610345610496565b9160243592604435926103566104b1565b60025484116103b95750917f64b1523fae76cc6cca244a7cd511849f1d18e41a5b50db4e31649048a0c3a3c493916001600160a01b036060941692838752603660205280828820556037602052828288205581519384526020840152820152a180f35b606490602084519162461bcd60e51b8352820152601460248201527f696e76616c6964205f6d617850726963654167650000000000000000000000006044820152fd5b8382346101be57816003193601126101be576020906002549051908152f35b8382346101be5760203660031901126101be5760209061044161043c610496565b610541565b9051908152f35b509034610183576020366003190112610183577fdbf066993ca6a3a38bfd6eb48f33d3ecd4f034d6f720786ec998d16a8a213bd291602091359061048a6104b1565b8160025551908152a180f35b600435906001600160a01b03821682036104ac57565b600080fd5b6001600160a01b036000541633036104c557565b606460405162461bcd60e51b815260206004820152602060248201527f4f776e61626c653a2063616c6c6572206973206e6f7420746865206f776e65726044820152fd5b90601f8019910116810190811067ffffffffffffffff82111761052b57604052565b634e487b7160e01b600052604160045260246000fd5b6080906001600160a01b038082169060009082825260366020526040808320549160355416938151968780967f31d98b3f0000000000000000000000000000000000000000000000000000000082526004958683015260249788915afa96871561071157849761066a575b50606087015142039042821161065757845260376020528184205410156105de57505050506105db915061071b565b90565b9091929350845160070b948386131561065357015160030b601201637fffffff8113637fffffff198212176106425760030b604d811161064257600a0a938481029481860414901517156106325750505090565b601190634e487b7160e01b835252fd5b50601190634e487b7160e01b835252fd5b8380fd5b505050601190634e487b7160e01b835252fd5b9096506080813d8211610709575b8161068560809383610509565b810103126106535781519067ffffffffffffffff60808301818111848210176106f757845281518060070b81036106f3578352602082015190811681036106ef576020830152828101518060030b81036106ef5790606091848401520151606082015295386105ac565b8580fd5b8680fd5b8787604188634e487b7160e01b835252fd5b3d9150610678565b82513d86823e3d90fd5b6001546001600160a01b03908116919082156107b557602460209260405194859384927f16345f180000000000000000000000000000000000000000000000000000000084521660048301525afa9081156107a95760009161077b575090565b906020823d82116107a1575b8161079460209383610509565b8101031261027657505190565b3d9150610787565b6040513d6000823e3d90fd5b606460405162461bcd60e51b815260206004820152601060248201527f507269636520697320746f6f206f6c64000000000000000000000000000000006044820152fdfea2646970667358221220799bfb3f55e5599e23453ffa9f58caf94139f9874fad998e1e4120efceec1c4564736f6c63430008120033",
  "devdoc": {
    "kind": "dev",
    "methods": {
      "owner()": {
        "details": "Returns the address of the current owner."
      },
      "renounceOwnership()": {
        "details": "Leaves the contract without owner. It will not be possible to call `onlyOwner` functions. Can only be called by the current owner. NOTE: Renouncing ownership will leave the contract without an owner, thereby disabling any functionality that is only available to the owner."
      },
      "transferOwnership(address)": {
        "details": "Transfers ownership of the contract to a new account (`newOwner`). Can only be called by the current owner."
      }
    },
    "title": "Pyth Price Feed with fallback",
    "version": 1
  },
  "userdoc": {
    "kind": "user",
    "methods": {
      "fallbackPriceFeed()": {
        "notice": "the fallback price feed in case the price is not available on Pyth"
      },
      "getLatestPrice(address)": {
        "notice": "Returns the latest price."
      }
    },
    "notice": "Contract to get the latest prices for multiple tokens from Pyth",
    "version": 1
  },
  "storageLayout": {
    "storage": [
      {
        "astId": 1476,
        "contract": "contracts/wombat-core/asset/PythPriceFeed.sol:PythPriceFeed",
        "label": "_owner",
        "offset": 0,
        "slot": "0",
        "type": "t_address"
      },
      {
        "astId": 9270,
        "contract": "contracts/wombat-core/asset/PythPriceFeed.sol:PythPriceFeed",
        "label": "fallbackPriceFeed",
        "offset": 0,
        "slot": "1",
        "type": "t_contract(IPriceFeed)10508"
      },
      {
        "astId": 9272,
        "contract": "contracts/wombat-core/asset/PythPriceFeed.sol:PythPriceFeed",
        "label": "maxPriceAgeBound",
        "offset": 0,
        "slot": "2",
        "type": "t_uint256"
      },
      {
        "astId": 9357,
        "contract": "contracts/wombat-core/asset/PythPriceFeed.sol:PythPriceFeed",
        "label": "__gap",
        "offset": 0,
        "slot": "3",
        "type": "t_array(t_uint256)50_storage"
      },
      {
        "astId": 9452,
        "contract": "contracts/wombat-core/asset/PythPriceFeed.sol:PythPriceFeed",
        "label": "pyth",
        "offset": 0,
        "slot": "53",
        "type": "t_contract(IPyth)8564"
      },
      {
        "astId": 9457,
        "contract": "contracts/wombat-core/asset/PythPriceFeed.sol:PythPriceFeed",
        "label": "priceIDs",
        "offset": 0,
        "slot": "54",
        "type": "t_mapping(t_contract(IERC20)4216,t_bytes32)"
      },
      {
        "astId": 9462,
        "contract": "contracts/wombat-core/asset/PythPriceFeed.sol:PythPriceFeed",
        "label": "maxPriceAge",
        "offset": 0,
        "slot": "55",
        "type": "t_mapping(t_contract(IERC20)4216,t_uint256)"
      }
    ],
    "types": {
      "t_address": {
        "encoding": "inplace",
        "label": "address",
        "numberOfBytes": "20"
      },
      "t_array(t_uint256)50_storage": {
        "base": "t_uint256",
        "encoding": "inplace",
        "label": "uint256[50]",
        "numberOfBytes": "1600"
      },
      "t_bytes32": {
        "encoding": "inplace",
        "label": "bytes32",
        "numberOfBytes": "32"
      },
      "t_contract(IERC20)4216": {
        "encoding": "inplace",
        "label": "contract IERC20",
        "numberOfBytes": "20"
      },
      "t_contract(IPriceFeed)10508": {
        "encoding": "inplace",
        "label": "contract IPriceFeed",
        "numberOfBytes": "20"
      },
      "t_contract(IPyth)8564": {
        "encoding": "inplace",
        "label": "contract IPyth",
        "numberOfBytes": "20"
      },
      "t_mapping(t_contract(IERC20)4216,t_bytes32)": {
        "encoding": "mapping",
        "key": "t_contract(IERC20)4216",
        "label": "mapping(contract IERC20 => bytes32)",
        "numberOfBytes": "32",
        "value": "t_bytes32"
      },
      "t_mapping(t_contract(IERC20)4216,t_uint256)": {
        "encoding": "mapping",
        "key": "t_contract(IERC20)4216",
        "label": "mapping(contract IERC20 => uint256)",
        "numberOfBytes": "32",
        "value": "t_uint256"
      },
      "t_uint256": {
        "encoding": "inplace",
        "label": "uint256",
        "numberOfBytes": "32"
      }
    }
  }
}