{
  "address": "0xee24f4788C6e9252C1faE8df4f9FAe7b01A604d6",
  "abi": [
    {
      "inputs": [
        {
          "internalType": "address",
          "name": "vestedTokenAddress",
          "type": "address"
        },
        {
          "internalType": "uint256",
          "name": "startTimestamp",
          "type": "uint256"
        },
        {
          "internalType": "uint256",
          "name": "durationSeconds",
          "type": "uint256"
        },
        {
          "internalType": "uint256",
          "name": "unlockDurationSeconds",
          "type": "uint256"
        }
      ],
      "stateMutability": "nonpayable",
      "type": "constructor"
    },
    {
      "anonymous": false,
      "inputs": [
        {
          "indexed": true,
          "internalType": "address",
          "name": "beneficiary",
          "type": "address"
        },
        {
          "indexed": false,
          "internalType": "uint256",
          "name": "amount",
          "type": "uint256"
        }
      ],
      "name": "BeneficiaryAdded",
      "type": "event"
    },
    {
      "anonymous": false,
      "inputs": [
        {
          "indexed": true,
          "internalType": "address",
          "name": "token",
          "type": "address"
        },
        {
          "indexed": false,
          "internalType": "uint256",
          "name": "amount",
          "type": "uint256"
        }
      ],
      "name": "ERC20Released",
      "type": "event"
    },
    {
      "anonymous": false,
      "inputs": [
        {
          "indexed": true,
          "internalType": "address",
          "name": "previousOwner",
          "type": "address"
        },
        {
          "indexed": true,
          "internalType": "address",
          "name": "newOwner",
          "type": "address"
        }
      ],
      "name": "OwnershipTransferred",
      "type": "event"
    },
    {
      "anonymous": false,
      "inputs": [
        {
          "indexed": true,
          "internalType": "address",
          "name": "beneficiary",
          "type": "address"
        },
        {
          "indexed": false,
          "internalType": "uint256",
          "name": "amount",
          "type": "uint256"
        }
      ],
      "name": "ReleasableAmount",
      "type": "event"
    },
    {
      "inputs": [
        {
          "internalType": "address",
          "name": "beneficiary",
          "type": "address"
        }
      ],
      "name": "beneficiaryBalance",
      "outputs": [
        {
          "internalType": "uint256",
          "name": "",
          "type": "uint256"
        }
      ],
      "stateMutability": "view",
      "type": "function"
    },
    {
      "inputs": [],
      "name": "beneficiaryCount",
      "outputs": [
        {
          "internalType": "uint8",
          "name": "",
          "type": "uint8"
        }
      ],
      "stateMutability": "view",
      "type": "function"
    },
    {
      "inputs": [],
      "name": "duration",
      "outputs": [
        {
          "internalType": "uint256",
          "name": "",
          "type": "uint256"
        }
      ],
      "stateMutability": "view",
      "type": "function"
    },
    {
      "inputs": [],
      "name": "owner",
      "outputs": [
        {
          "internalType": "address",
          "name": "",
          "type": "address"
        }
      ],
      "stateMutability": "view",
      "type": "function"
    },
    {
      "inputs": [
        {
          "internalType": "address",
          "name": "beneficiary",
          "type": "address"
        }
      ],
      "name": "release",
      "outputs": [],
      "stateMutability": "nonpayable",
      "type": "function"
    },
    {
      "inputs": [
        {
          "internalType": "address",
          "name": "beneficiary",
          "type": "address"
        }
      ],
      "name": "released",
      "outputs": [
        {
          "internalType": "uint256",
          "name": "",
          "type": "uint256"
        }
      ],
      "stateMutability": "view",
      "type": "function"
    },
    {
      "inputs": [],
      "name": "renounceOwnership",
      "outputs": [],
      "stateMutability": "nonpayable",
      "type": "function"
    },
    {
      "inputs": [
        {
          "internalType": "address",
          "name": "beneficiary",
          "type": "address"
        },
        {
          "internalType": "uint256",
          "name": "allocation",
          "type": "uint256"
        }
      ],
      "name": "setBeneficiary",
      "outputs": [],
      "stateMutability": "nonpayable",
      "type": "function"
    },
    {
      "inputs": [],
      "name": "start",
      "outputs": [
        {
          "internalType": "uint256",
          "name": "",
          "type": "uint256"
        }
      ],
      "stateMutability": "view",
      "type": "function"
    },
    {
      "inputs": [],
      "name": "totalAllocationBalance",
      "outputs": [
        {
          "internalType": "uint256",
          "name": "",
          "type": "uint256"
        }
      ],
      "stateMutability": "view",
      "type": "function"
    },
    {
      "inputs": [],
      "name": "totalUnderlyingBalance",
      "outputs": [
        {
          "internalType": "uint256",
          "name": "",
          "type": "uint256"
        }
      ],
      "stateMutability": "view",
      "type": "function"
    },
    {
      "inputs": [
        {
          "internalType": "address",
          "name": "newOwner",
          "type": "address"
        }
      ],
      "name": "transferOwnership",
      "outputs": [],
      "stateMutability": "nonpayable",
      "type": "function"
    },
    {
      "inputs": [
        {
          "internalType": "address",
          "name": "beneficiary",
          "type": "address"
        },
        {
          "internalType": "uint256",
          "name": "timestamp",
          "type": "uint256"
        }
      ],
      "name": "vestedAmount",
      "outputs": [
        {
          "internalType": "uint256",
          "name": "",
          "type": "uint256"
        }
      ],
      "stateMutability": "view",
      "type": "function"
    },
    {
      "inputs": [],
      "name": "vestedToken",
      "outputs": [
        {
          "internalType": "contract IERC20",
          "name": "",
          "type": "address"
        }
      ],
      "stateMutability": "view",
      "type": "function"
    }
  ],
  "transactionHash": "0x265b8f785fc80ed16bd7c21f58e9b6bf3bf0fa940f15603f6201428b835359d5",
  "args": [
    "0x7BFC90abeEB4138e583bfC46aBC69De34c9ABb8B",
    1653711961,
    6048000,
    604800
  ],
  "solcInputHash": "4a2192e1dce10dd9a8a4fe16e0f627ca",
  "bytecode": "0x60e060405234801561001057600080fd5b506040516111fb3803806111fb83398101604081905261002f916100ba565b6100383361006a565b600180546001600160a01b0319166001600160a01b03959095169490941790935560809190915260a05260c052610105565b600080546001600160a01b038381166001600160a01b0319831681178455604051919092169283917f8be0079c531659141344cd1fd0a4f28419497f9722a3daafe3b4186f6b6457e09190a35050565b600080600080608085870312156100d057600080fd5b84516001600160a01b03811681146100e757600080fd5b60208601516040870151606090970151919890975090945092505050565b60805160a05160c0516110a56101566000396000610a9b01526000818160f101526109e6015260008181610260015281816109b301528181610a0701528181610a6b0152610abf01526110a56000f3fe608060405234801561001057600080fd5b50600436106100ea5760003560e01c8063734b2a7c1161008c5780639852595c116100665780639852595c1461021d5780639df0ea5f14610256578063be9a65551461025e578063f2fde38b1461028457600080fd5b8063734b2a7c146101e25780637da5d09f146101f75780638da5cb5b146101ff57600080fd5b80635ba58955116100c85780635ba589551461014c5780635de29741146101825780636fd1f270146101c7578063715018a6146101da57600080fd5b80630fb5a6b4146100ef57806317cf5391146101245780631916558714610137575b600080fd5b7f00000000000000000000000000000000000000000000000000000000000000005b6040519081526020015b60405180910390f35b610111610132366004610e97565b610297565b61014a610145366004610e7c565b61030b565b005b61011161015a366004610e7c565b73ffffffffffffffffffffffffffffffffffffffff1660009081526003602052604090205490565b6001546101a29073ffffffffffffffffffffffffffffffffffffffff1681565b60405173ffffffffffffffffffffffffffffffffffffffff909116815260200161011b565b61014a6101d5366004610e97565b61045d565b61014a61074b565b60025460405160ff909116815260200161011b565b6101116107d8565b60005473ffffffffffffffffffffffffffffffffffffffff166101a2565b61011161022b366004610e7c565b73ffffffffffffffffffffffffffffffffffffffff1660009081526003602052604090206001015490565b600454610111565b7f0000000000000000000000000000000000000000000000000000000000000000610111565b61014a610292366004610e7c565b61087f565b600080610303846102cd8673ffffffffffffffffffffffffffffffffffffffff1660009081526003602052604090206001015490565b73ffffffffffffffffffffffffffffffffffffffff87166000908152600360205260409020546102fd9190610f69565b856109af565b949350505050565b73ffffffffffffffffffffffffffffffffffffffff811660009081526003602052604081206001015461033e8342610297565b6103489190610ff9565b73ffffffffffffffffffffffffffffffffffffffff8316600090815260036020526040812060010180549293508392909190610385908490610f69565b909155505073ffffffffffffffffffffffffffffffffffffffff8216600090815260036020526040812080548392906103bf908490610ff9565b909155506103ce905042610a67565b73ffffffffffffffffffffffffffffffffffffffff8381166000908152600360209081526040918290206002019390935560015490518481529116917fc0e523490dd523c33b1878c9eb14ff46991e3f5b2cd33710918618f2a39cba1b910160405180910390a26001546104599073ffffffffffffffffffffffffffffffffffffffff168383610af9565b5050565b60005473ffffffffffffffffffffffffffffffffffffffff1633146104e3576040517f08c379a000000000000000000000000000000000000000000000000000000000815260206004820181905260248201527f4f776e61626c653a2063616c6c6572206973206e6f7420746865206f776e657260448201526064015b60405180910390fd5b73ffffffffffffffffffffffffffffffffffffffff8216610586576040517f08c379a000000000000000000000000000000000000000000000000000000000815260206004820152602360248201527f42656e65666963696172793a20616464726573732063616e6e6f74206265207a60448201527f65726f000000000000000000000000000000000000000000000000000000000060648201526084016104da565b73ffffffffffffffffffffffffffffffffffffffff821660009081526003602052604090205415610639576040517f08c379a000000000000000000000000000000000000000000000000000000000815260206004820152602360248201527f42656e65666963696172793a20616c6c6f636174696f6e20616c72656164792060448201527f736574000000000000000000000000000000000000000000000000000000000060648201526084016104da565b604080516060810182528281526000602080830182815283850183815273ffffffffffffffffffffffffffffffffffffffff881684526003909252938220925183559251600183015591516002909101556004805483929061069c908490610f69565b9091555050600280546001810182556000919091527f405787fa12a823e0f2b7631cc41b3ba8828b3321ca811111fa75cd3aa3bb5ace0180547fffffffffffffffffffffffff00000000000000000000000000000000000000001673ffffffffffffffffffffffffffffffffffffffff84169081179091556040518281527fe6b83177f11971ba30369bb38b914ffba97d5969a3c857b286fa8fdbb150b3ba9060200160405180910390a25050565b60005473ffffffffffffffffffffffffffffffffffffffff1633146107cc576040517f08c379a000000000000000000000000000000000000000000000000000000000815260206004820181905260248201527f4f776e61626c653a2063616c6c6572206973206e6f7420746865206f776e657260448201526064016104da565b6107d66000610b8b565b565b6001546040517f70a0823100000000000000000000000000000000000000000000000000000000815230600482015260009173ffffffffffffffffffffffffffffffffffffffff16906370a082319060240160206040518083038186803b15801561084257600080fd5b505afa158015610856573d6000803e3d6000fd5b505050506040513d601f19601f8201168201806040525081019061087a9190610ee3565b905090565b60005473ffffffffffffffffffffffffffffffffffffffff163314610900576040517f08c379a000000000000000000000000000000000000000000000000000000000815260206004820181905260248201527f4f776e61626c653a2063616c6c6572206973206e6f7420746865206f776e657260448201526064016104da565b73ffffffffffffffffffffffffffffffffffffffff81166109a3576040517f08c379a000000000000000000000000000000000000000000000000000000000815260206004820152602660248201527f4f776e61626c653a206e6577206f776e657220697320746865207a65726f206160448201527f646472657373000000000000000000000000000000000000000000000000000060648201526084016104da565b6109ac81610b8b565b50565b60007f00000000000000000000000000000000000000000000000000000000000000008210156109e157506000610a60565b610a2b7f00000000000000000000000000000000000000000000000000000000000000007f0000000000000000000000000000000000000000000000000000000000000000610f69565b821115610a39575081610a60565b6000610a4483610a67565b9050600a610a528286610fbc565b610a5c9190610f81565b9150505b9392505050565b60007f0000000000000000000000000000000000000000000000000000000000000000821015610a9957506000919050565b7f0000000000000000000000000000000000000000000000000000000000000000610ae47f000000000000000000000000000000000000000000000000000000000000000084610ff9565b610aee9190610f81565b92915050565b919050565b6040805173ffffffffffffffffffffffffffffffffffffffff8416602482015260448082018490528251808303909101815260649091019091526020810180517bffffffffffffffffffffffffffffffffffffffffffffffffffffffff167fa9059cbb00000000000000000000000000000000000000000000000000000000179052610b86908490610c00565b505050565b6000805473ffffffffffffffffffffffffffffffffffffffff8381167fffffffffffffffffffffffff0000000000000000000000000000000000000000831681178455604051919092169283917f8be0079c531659141344cd1fd0a4f28419497f9722a3daafe3b4186f6b6457e09190a35050565b6000610c62826040518060400160405280602081526020017f5361666545524332303a206c6f772d6c6576656c2063616c6c206661696c65648152508573ffffffffffffffffffffffffffffffffffffffff16610d0c9092919063ffffffff16565b805190915015610b865780806020019051810190610c809190610ec1565b610b86576040517f08c379a000000000000000000000000000000000000000000000000000000000815260206004820152602a60248201527f5361666545524332303a204552433230206f7065726174696f6e20646964206e60448201527f6f7420737563636565640000000000000000000000000000000000000000000060648201526084016104da565b6060610303848460008585843b610d7f576040517f08c379a000000000000000000000000000000000000000000000000000000000815260206004820152601d60248201527f416464726573733a2063616c6c20746f206e6f6e2d636f6e747261637400000060448201526064016104da565b6000808673ffffffffffffffffffffffffffffffffffffffff168587604051610da89190610efc565b60006040518083038185875af1925050503d8060008114610de5576040519150601f19603f3d011682016040523d82523d6000602084013e610dea565b606091505b5091509150610dfa828286610e05565b979650505050505050565b60608315610e14575081610a60565b825115610e245782518084602001fd5b816040517f08c379a00000000000000000000000000000000000000000000000000000000081526004016104da9190610f18565b803573ffffffffffffffffffffffffffffffffffffffff81168114610af457600080fd5b600060208284031215610e8e57600080fd5b610a6082610e58565b60008060408385031215610eaa57600080fd5b610eb383610e58565b946020939093013593505050565b600060208284031215610ed357600080fd5b81518015158114610a6057600080fd5b600060208284031215610ef557600080fd5b5051919050565b60008251610f0e818460208701611010565b9190910192915050565b6020815260008251806020840152610f37816040850160208701611010565b601f017fffffffffffffffffffffffffffffffffffffffffffffffffffffffffffffffe0169190910160400192915050565b60008219821115610f7c57610f7c611040565b500190565b600082610fb7577f4e487b7100000000000000000000000000000000000000000000000000000000600052601260045260246000fd5b500490565b6000817fffffffffffffffffffffffffffffffffffffffffffffffffffffffffffffffff0483118215151615610ff457610ff4611040565b500290565b60008282101561100b5761100b611040565b500390565b60005b8381101561102b578181015183820152602001611013565b8381111561103a576000848401525b50505050565b7f4e487b7100000000000000000000000000000000000000000000000000000000600052601160045260246000fdfea264697066735822122005434c1a9a371a14b0a3681be41eff994952219039103bb237493bbdbc61864064736f6c63430008050033",
  "devdoc": {
    "details": "This contract handles the vesting of WOM, a ERC20 token for a list of admin-settable beneficiaries. This contract will release the token to the beneficiary following a given vesting schedule. The vesting schedule is customizable through the {vestedAmount} function. WOM token transferred to this contract will follow the vesting schedule as if they were locked from the beginning. Consequently, if the vesting has already started, any amount of tokens sent to this contract will (at least partly) be immediately releasable.",
    "kind": "dev",
    "methods": {
      "beneficiaryBalance(address)": {
        "details": "Getter for the beneficiary allocation balance."
      },
      "beneficiaryCount()": {
        "details": "Getter for the number of beneficiaries."
      },
      "constructor": {
        "details": "Set the vested token address, start timestamp and vesting duration of the vesting period."
      },
      "duration()": {
        "details": "Getter for the vesting duration."
      },
      "owner()": {
        "details": "Returns the address of the current owner."
      },
      "release(address)": {
        "details": "Release the tokens that have already vested. Emits a {TokensReleased} event."
      },
      "released(address)": {
        "details": "Amount of token already released for a beneficiary"
      },
      "renounceOwnership()": {
        "details": "Leaves the contract without owner. It will not be possible to call `onlyOwner` functions anymore. Can only be called by the current owner. NOTE: Renouncing ownership will leave the contract without an owner, thereby removing any functionality that is only available to the owner."
      },
      "setBeneficiary(address,uint256)": {
        "details": "Setter for adding a beneficiary address."
      },
      "start()": {
        "details": "Getter for the start timestamp."
      },
      "totalAllocationBalance()": {
        "details": "Getter for the total allocation balance of vesting contract."
      },
      "totalUnderlyingBalance()": {
        "details": "Getter for the total WOM tokens allocated for vesting contract."
      },
      "transferOwnership(address)": {
        "details": "Transfers ownership of the contract to a new account (`newOwner`). Can only be called by the current owner."
      },
      "vestedAmount(address,uint256)": {
        "details": "Calculates the amount of WOM tokens that has already vested. Default implementation is a linear vesting curve."
      }
    },
    "title": "VestingWallet (extended for WOM Token Vesting), from OpenZeppelin Contracts v4.4.0 (finance/VestingWallet.sol)",
    "version": 1
  },
  "userdoc": {
    "kind": "user",
    "methods": {},
    "version": 1
  },
  "storageLayout": {
    "storage": [
      {
        "astId": 660,
        "contract": "contracts/wombat-peripheral/vesting/TokenVesting.sol:TokenVesting",
        "label": "_owner",
        "offset": 0,
        "slot": "0",
        "type": "t_address"
      },
      {
        "astId": 17158,
        "contract": "contracts/wombat-peripheral/vesting/TokenVesting.sol:TokenVesting",
        "label": "vestedToken",
        "offset": 0,
        "slot": "1",
        "type": "t_contract(IERC20)1380"
      },
      {
        "astId": 17161,
        "contract": "contracts/wombat-peripheral/vesting/TokenVesting.sol:TokenVesting",
        "label": "_beneficiaryAddresses",
        "offset": 0,
        "slot": "2",
        "type": "t_array(t_address)dyn_storage"
      },
      {
        "astId": 17166,
        "contract": "contracts/wombat-peripheral/vesting/TokenVesting.sol:TokenVesting",
        "label": "_beneficiaryInfo",
        "offset": 0,
        "slot": "3",
        "type": "t_mapping(t_address,t_struct(BeneficiaryInfo)17155_storage)"
      },
      {
        "astId": 17174,
        "contract": "contracts/wombat-peripheral/vesting/TokenVesting.sol:TokenVesting",
        "label": "_totalAllocationBalance",
        "offset": 0,
        "slot": "4",
        "type": "t_uint256"
      }
    ],
    "types": {
      "t_address": {
        "encoding": "inplace",
        "label": "address",
        "numberOfBytes": "20"
      },
      "t_array(t_address)dyn_storage": {
        "base": "t_address",
        "encoding": "dynamic_array",
        "label": "address[]",
        "numberOfBytes": "32"
      },
      "t_contract(IERC20)1380": {
        "encoding": "inplace",
        "label": "contract IERC20",
        "numberOfBytes": "20"
      },
      "t_mapping(t_address,t_struct(BeneficiaryInfo)17155_storage)": {
        "encoding": "mapping",
        "key": "t_address",
        "label": "mapping(address => struct TokenVesting.BeneficiaryInfo)",
        "numberOfBytes": "32",
        "value": "t_struct(BeneficiaryInfo)17155_storage"
      },
      "t_struct(BeneficiaryInfo)17155_storage": {
        "encoding": "inplace",
        "label": "struct TokenVesting.BeneficiaryInfo",
        "members": [
          {
            "astId": 17150,
            "contract": "contracts/wombat-peripheral/vesting/TokenVesting.sol:TokenVesting",
            "label": "_allocationBalance",
            "offset": 0,
            "slot": "0",
            "type": "t_uint256"
          },
          {
            "astId": 17152,
            "contract": "contracts/wombat-peripheral/vesting/TokenVesting.sol:TokenVesting",
            "label": "_allocationReleased",
            "offset": 0,
            "slot": "1",
            "type": "t_uint256"
          },
          {
            "astId": 17154,
            "contract": "contracts/wombat-peripheral/vesting/TokenVesting.sol:TokenVesting",
            "label": "_unlockIntervalsCount",
            "offset": 0,
            "slot": "2",
            "type": "t_uint256"
          }
        ],
        "numberOfBytes": "96"
      },
      "t_uint256": {
        "encoding": "inplace",
        "label": "uint256",
        "numberOfBytes": "32"
      }
    }
  }
}