{
  "address": "0x20f66A0BD7355db30368D3FD94A73e953C66E20D",
  "abi": [
    {
      "inputs": [],
      "name": "VEWOM_OVERFLOW",
      "type": "error"
    },
    {
      "anonymous": false,
      "inputs": [
        {
          "indexed": true,
          "internalType": "address",
          "name": "account",
          "type": "address"
        },
        {
          "indexed": false,
          "internalType": "uint256",
          "name": "value",
          "type": "uint256"
        }
      ],
      "name": "Burn",
      "type": "event"
    },
    {
      "anonymous": false,
      "inputs": [
        {
          "indexed": false,
          "internalType": "address",
          "name": "addr",
          "type": "address"
        },
        {
          "indexed": false,
          "internalType": "uint256",
          "name": "unlockTime",
          "type": "uint256"
        },
        {
          "indexed": false,
          "internalType": "uint256",
          "name": "womAmount",
          "type": "uint256"
        },
        {
          "indexed": false,
          "internalType": "uint256",
          "name": "veWomAmount",
          "type": "uint256"
        }
      ],
      "name": "Enter",
      "type": "event"
    },
    {
      "anonymous": false,
      "inputs": [
        {
          "indexed": false,
          "internalType": "address",
          "name": "addr",
          "type": "address"
        },
        {
          "indexed": false,
          "internalType": "uint256",
          "name": "unlockTime",
          "type": "uint256"
        },
        {
          "indexed": false,
          "internalType": "uint256",
          "name": "womAmount",
          "type": "uint256"
        },
        {
          "indexed": false,
          "internalType": "uint256",
          "name": "veWomAmount",
          "type": "uint256"
        }
      ],
      "name": "Exit",
      "type": "event"
    },
    {
      "anonymous": false,
      "inputs": [
        {
          "indexed": true,
          "internalType": "address",
          "name": "beneficiary",
          "type": "address"
        },
        {
          "indexed": false,
          "internalType": "uint256",
          "name": "value",
          "type": "uint256"
        }
      ],
      "name": "Mint",
      "type": "event"
    },
    {
      "anonymous": false,
      "inputs": [
        {
          "indexed": true,
          "internalType": "address",
          "name": "previousOwner",
          "type": "address"
        },
        {
          "indexed": true,
          "internalType": "address",
          "name": "newOwner",
          "type": "address"
        }
      ],
      "name": "OwnershipTransferred",
      "type": "event"
    },
    {
      "anonymous": false,
      "inputs": [
        {
          "indexed": false,
          "internalType": "address",
          "name": "account",
          "type": "address"
        }
      ],
      "name": "Paused",
      "type": "event"
    },
    {
      "anonymous": false,
      "inputs": [
        {
          "indexed": false,
          "internalType": "address",
          "name": "account",
          "type": "address"
        }
      ],
      "name": "Unpaused",
      "type": "event"
    },
    {
      "inputs": [
        {
          "internalType": "address",
          "name": "account",
          "type": "address"
        }
      ],
      "name": "balanceOf",
      "outputs": [
        {
          "internalType": "uint256",
          "name": "",
          "type": "uint256"
        }
      ],
      "stateMutability": "view",
      "type": "function"
    },
    {
      "inputs": [
        {
          "internalType": "uint256",
          "name": "slot",
          "type": "uint256"
        }
      ],
      "name": "burn",
      "outputs": [],
      "stateMutability": "nonpayable",
      "type": "function"
    },
    {
      "inputs": [],
      "name": "decimals",
      "outputs": [
        {
          "internalType": "uint8",
          "name": "",
          "type": "uint8"
        }
      ],
      "stateMutability": "view",
      "type": "function"
    },
    {
      "inputs": [
        {
          "internalType": "address",
          "name": "addr",
          "type": "address"
        }
      ],
      "name": "getUserInfo",
      "outputs": [
        {
          "components": [
            {
              "components": [
                {
                  "internalType": "uint48",
                  "name": "unlockTime",
                  "type": "uint48"
                },
                {
                  "internalType": "uint104",
                  "name": "womAmount",
                  "type": "uint104"
                },
                {
                  "internalType": "uint104",
                  "name": "veWomAmount",
                  "type": "uint104"
                }
              ],
              "internalType": "struct IVeWom.Breeding[]",
              "name": "breedings",
              "type": "tuple[]"
            }
          ],
          "internalType": "struct IVeWom.UserInfo",
          "name": "",
          "type": "tuple"
        }
      ],
      "stateMutability": "view",
      "type": "function"
    },
    {
      "inputs": [
        {
          "internalType": "contract IERC20",
          "name": "_wom",
          "type": "address"
        },
        {
          "internalType": "contract IMasterWombat",
          "name": "_masterWombat",
          "type": "address"
        }
      ],
      "name": "initialize",
      "outputs": [],
      "stateMutability": "nonpayable",
      "type": "function"
    },
    {
      "inputs": [
        {
          "internalType": "address",
          "name": "_addr",
          "type": "address"
        }
      ],
      "name": "isUser",
      "outputs": [
        {
          "internalType": "bool",
          "name": "",
          "type": "bool"
        }
      ],
      "stateMutability": "view",
      "type": "function"
    },
    {
      "inputs": [],
      "name": "masterWombat",
      "outputs": [
        {
          "internalType": "contract IMasterWombat",
          "name": "",
          "type": "address"
        }
      ],
      "stateMutability": "view",
      "type": "function"
    },
    {
      "inputs": [
        {
          "internalType": "uint256",
          "name": "amount",
          "type": "uint256"
        },
        {
          "internalType": "uint256",
          "name": "lockDays",
          "type": "uint256"
        }
      ],
      "name": "mint",
      "outputs": [
        {
          "internalType": "uint256",
          "name": "veWomAmount",
          "type": "uint256"
        }
      ],
      "stateMutability": "nonpayable",
      "type": "function"
    },
    {
      "inputs": [],
      "name": "name",
      "outputs": [
        {
          "internalType": "string",
          "name": "",
          "type": "string"
        }
      ],
      "stateMutability": "view",
      "type": "function"
    },
    {
      "inputs": [],
      "name": "owner",
      "outputs": [
        {
          "internalType": "address",
          "name": "",
          "type": "address"
        }
      ],
      "stateMutability": "view",
      "type": "function"
    },
    {
      "inputs": [],
      "name": "pause",
      "outputs": [],
      "stateMutability": "nonpayable",
      "type": "function"
    },
    {
      "inputs": [],
      "name": "paused",
      "outputs": [
        {
          "internalType": "bool",
          "name": "",
          "type": "bool"
        }
      ],
      "stateMutability": "view",
      "type": "function"
    },
    {
      "inputs": [],
      "name": "renounceOwnership",
      "outputs": [],
      "stateMutability": "nonpayable",
      "type": "function"
    },
    {
      "inputs": [
        {
          "internalType": "contract IMasterWombat",
          "name": "_masterWombat",
          "type": "address"
        }
      ],
      "name": "setMasterWombat",
      "outputs": [],
      "stateMutability": "nonpayable",
      "type": "function"
    },
    {
      "inputs": [
        {
          "internalType": "uint256",
          "name": "_maxBreedingLength",
          "type": "uint256"
        }
      ],
      "name": "setMaxBreedingLength",
      "outputs": [],
      "stateMutability": "nonpayable",
      "type": "function"
    },
    {
      "inputs": [
        {
          "internalType": "contract IWhitelist",
          "name": "_whitelist",
          "type": "address"
        }
      ],
      "name": "setWhitelist",
      "outputs": [],
      "stateMutability": "nonpayable",
      "type": "function"
    },
    {
      "inputs": [],
      "name": "symbol",
      "outputs": [
        {
          "internalType": "string",
          "name": "",
          "type": "string"
        }
      ],
      "stateMutability": "view",
      "type": "function"
    },
    {
      "inputs": [],
      "name": "totalSupply",
      "outputs": [
        {
          "internalType": "uint256",
          "name": "",
          "type": "uint256"
        }
      ],
      "stateMutability": "view",
      "type": "function"
    },
    {
      "inputs": [
        {
          "internalType": "address",
          "name": "newOwner",
          "type": "address"
        }
      ],
      "name": "transferOwnership",
      "outputs": [],
      "stateMutability": "nonpayable",
      "type": "function"
    },
    {
      "inputs": [],
      "name": "unpause",
      "outputs": [],
      "stateMutability": "nonpayable",
      "type": "function"
    },
    {
      "inputs": [],
      "name": "whitelist",
      "outputs": [
        {
          "internalType": "contract IWhitelist",
          "name": "",
          "type": "address"
        }
      ],
      "stateMutability": "view",
      "type": "function"
    },
    {
      "inputs": [],
      "name": "wom",
      "outputs": [
        {
          "internalType": "contract IERC20",
          "name": "",
          "type": "address"
        }
      ],
      "stateMutability": "view",
      "type": "function"
    }
  ],
  "args": [],
  "solcInputHash": "c4221922d26810ce6dc4d25d2c3cce4a",
  "bytecode": "0x608060405234801561001057600080fd5b50613726806100206000396000f3fe608060405234801561001057600080fd5b50600436106101825760003560e01c80636386c1c7116100d85780638da5cb5b1161008c578063c5a6222e11610066578063c5a6222e146102fb578063d4c9b0d11461030e578063f2fde38b1461032157600080fd5b80638da5cb5b146102cf57806393e59dc1146102e057806395d89b41146102f357600080fd5b8063715018a6116100bd578063715018a6146102ac5780638456cb59146102b4578063854cff2f146102bc57600080fd5b80636386c1c71461027957806370a082311461029957600080fd5b80633bd61ba81161013a57806342966c681161011457806342966c6814610248578063485cc9551461025b5780635c975abb1461026e57600080fd5b80633bd61ba8146101f25780633f4ba83a1461021d5780634209fff11461022557600080fd5b806318160ddd1161016b57806318160ddd146101ba5780631b2ef1ca146101d0578063313ce567146101e357600080fd5b806306fdde03146101875780630705999d146101a5575b600080fd5b61018f610334565b60405161019c91906133a3565b60405180910390f35b6101b86101b33660046132d4565b6103c6565b005b6101c2610499565b60405190815260200161019c565b6101c26101de366004613365565b6104a9565b6040516012815260200161019c565b60fc54610205906001600160a01b031681565b6040516001600160a01b03909116815260200161019c565b6101b861088d565b6102386102333660046132d4565b6108f1565b604051901515815260200161019c565b6101b861025636600461334c565b610904565b6101b8610269366004613313565b610d44565b60975460ff16610238565b61028c6102873660046132d4565b610f74565b60405161019c91906133d6565b6101c26102a73660046132d4565b61102c565b6101b861104c565b6101b86110b0565b6101b86102ca3660046132d4565b611112565b6033546001600160a01b0316610205565b60fd54610205906001600160a01b031681565b61018f6111e0565b60fb54610205906001600160a01b031681565b6101b861031c36600461334c565b6111ef565b6101b861032f3660046132d4565b6112ac565b606060cc805461034390613617565b80601f016020809104026020016040519081016040528092919081815260200182805461036f90613617565b80156103bc5780601f10610391576101008083540402835291602001916103bc565b820191906000526020600020905b81548152906001019060200180831161039f57829003601f168201915b5050505050905090565b6033546001600160a01b031633146104255760405162461bcd60e51b815260206004820181905260248201527f4f776e61626c653a2063616c6c6572206973206e6f7420746865206f776e657260448201526064015b60405180910390fd5b6001600160a01b03811661046a5760405162461bcd60e51b815260206004820152600c60248201526b7a65726f206164647265737360a01b604482015260640161041c565b60fc805473ffffffffffffffffffffffffffffffffffffffff19166001600160a01b0392909216919091179055565b60006104a460cb5490565b905090565b6000600260655414156104fe5760405162461bcd60e51b815260206004820152601f60248201527f5265656e7472616e637947756172643a207265656e7472616e742063616c6c00604482015260640161041c565b600260655560975460ff16156105495760405162461bcd60e51b815260206004820152601060248201526f14185d5cd8589b194e881c185d5cd95960821b604482015260640161041c565b600083116105995760405162461bcd60e51b815260206004820181905260248201527f616d6f756e7420746f206465706f7369742063616e6e6f74206265207a65726f604482015260640161041c565b6cffffffffffffffffffffffffff8311156105c757604051637e68564560e01b815260040160405180910390fd5b6105d03361138e565b60fd547801000000000000000000000000000000000000000000000000900463ffffffff16821080159061062c575060fd547c0100000000000000000000000000000000000000000000000000000000900463ffffffff168211155b6106785760405162461bcd60e51b815260206004820152601460248201527f6c6f636b206461797320697320696e76616c6964000000000000000000000000604482015260640161041c565b60fd5433600090815260fe6020526040902054600160a01b90910463ffffffff16116106e65760405162461bcd60e51b815260206004820152600e60248201527f627265656420746f6f206d756368000000000000000000000000000000000000604482015260640161041c565b60006106f58362015180613576565b6106ff9042613495565b905061070b84846114bb565b915065ffffffffffff81111561073457604051637e68564560e01b815260040160405180910390fd5b6cffffffffffffffffffffffffff82111561076257604051637e68564560e01b815260040160405180910390fd5b33600081815260fe60209081526040808320815160608101835265ffffffffffff80881682526cffffffffffffffffffffffffff808c168387019081528a82169584019586528454600181018655948852959096209151919092018054945193518616600160981b0272ffffffffffffffffffffffffffffffffffffff9490961666010000000000000272ffffffffffffffffffffffffffffffffffffff199095169190921617929092171691909117905560fb5461082f916001600160a01b0391909116903087611502565b6108393383611590565b6040805133815260208101839052908101859052606081018390527f3af2c1ec57343b1e7e40c3f6c85f5ad943344cd8548bdf819f1da51aaebb3db69060800160405180910390a150600160655592915050565b6033546001600160a01b031633146108e75760405162461bcd60e51b815260206004820181905260248201527f4f776e61626c653a2063616c6c6572206973206e6f7420746865206f776e6572604482015260640161041c565b6108ef611690565b565b6000806108fd8361102c565b1192915050565b600260655414156109575760405162461bcd60e51b815260206004820152601f60248201527f5265656e7472616e637947756172643a207265656e7472616e742063616c6c00604482015260640161041c565b600260655560975460ff16156109a25760405162461bcd60e51b815260206004820152601060248201526f14185d5cd8589b194e881c185d5cd95960821b604482015260640161041c565b33600090815260fe6020526040902054808210610a035760405162461bcd60e51b815260040161041c9060208082526004908201527f7775743f00000000000000000000000000000000000000000000000000000000604082015260600190565b33600090815260fe60205260408120805484908110610a2457610a246136c5565b600091825260209182902060408051606081018252929091015465ffffffffffff81168084526cffffffffffffffffffffffffff66010000000000008304811695850195909552600160981b909104909316908201529150421015610acb5760405162461bcd60e51b815260206004820152600b60248201527f6e6f7420796574206d6568000000000000000000000000000000000000000000604482015260640161041c565b610ad66001836135d4565b8314610bc75733600090815260fe60205260409020610af66001846135d4565b81548110610b0657610b066136c5565b6000918252602080832033845260fe90915260409092208054929091019185908110610b3457610b346136c5565b6000918252602090912082549101805465ffffffffffff90921665ffffffffffff19831681178255835472ffffffffffffffffffffffffffffffffffffff19909316176601000000000000928390046cffffffffffffffffffffffffff90811690930217808255925472ffffffffffffffffffffffffffffffffffffff909316600160981b938490049092169092021790555b33600090815260fe60205260409020805480610be557610be56136af565b60008281526020808220600019908401810192909255910190915560fb54908201516040517fa9059cbb0000000000000000000000000000000000000000000000000000000081523360048201526cffffffffffffffffffffffffff90911660248201526001600160a01b039091169063a9059cbb90604401602060405180830381600087803b158015610c7857600080fd5b505af1158015610c8c573d6000803e3d6000fd5b505050506040513d601f19601f82011682018060405250810190610cb091906132f1565b50610cce3382604001516cffffffffffffffffffffffffff1661172c565b8051602080830151604080850151815133815265ffffffffffff909516938501939093526cffffffffffffffffffffffffff918216908401521660608201527f275029c7b988945c03ac5499c0d532fce79ce36efab42e1b3f180a62001cad2c9060800160405180910390a15050600160655550565b600054610100900460ff1680610d5d575060005460ff16155b610dc05760405162461bcd60e51b815260206004820152602e60248201527f496e697469616c697a61626c653a20636f6e747261637420697320616c72656160448201526d191e481a5b9a5d1a585b1a5e995960921b606482015260840161041c565b600054610100900460ff16158015610de2576000805461ffff19166101011790555b6001600160a01b038216610e275760405162461bcd60e51b815260206004820152600c60248201526b7a65726f206164647265737360a01b604482015260640161041c565b6001600160a01b038316610e6c5760405162461bcd60e51b815260206004820152600c60248201526b7a65726f206164647265737360a01b604482015260640161041c565b610ee06040518060400160405280600d81526020017f576f6d62617420576164646c65000000000000000000000000000000000000008152506040518060400160405280600581526020017f7665574f4d0000000000000000000000000000000000000000000000000000008152506118cd565b610ee8611993565b610ef0611a55565b610ef8611b0c565b60fc805473ffffffffffffffffffffffffffffffffffffffff199081166001600160a01b038581169190911790925560fb805490911685831617905560fd80549091167d05b5000000070000271000000000000000000000000000000000000000001790558015610f6f576000805461ff00191690555b505050565b6040805160208082018352606082526001600160a01b038416600090815260fe8252838120845181548085028201870187529381018481529495909491938593859285015b8282101561101e576000848152602090819020604080516060810182529185015465ffffffffffff811683526cffffffffffffffffffffffffff66010000000000008204811684860152600160981b9091041690820152825260019092019101610fb9565b505050915250909392505050565b6001600160a01b038116600090815260c960205260408120545b92915050565b6033546001600160a01b031633146110a65760405162461bcd60e51b815260206004820181905260248201527f4f776e61626c653a2063616c6c6572206973206e6f7420746865206f776e6572604482015260640161041c565b6108ef6000611bc8565b6033546001600160a01b0316331461110a5760405162461bcd60e51b815260206004820181905260248201527f4f776e61626c653a2063616c6c6572206973206e6f7420746865206f776e6572604482015260640161041c565b6108ef611c27565b6033546001600160a01b0316331461116c5760405162461bcd60e51b815260206004820181905260248201527f4f776e61626c653a2063616c6c6572206973206e6f7420746865206f776e6572604482015260640161041c565b6001600160a01b0381166111b15760405162461bcd60e51b815260206004820152600c60248201526b7a65726f206164647265737360a01b604482015260640161041c565b60fd805473ffffffffffffffffffffffffffffffffffffffff19166001600160a01b0392909216919091179055565b606060cd805461034390613617565b6033546001600160a01b031633146112495760405162461bcd60e51b815260206004820181905260248201527f4f776e61626c653a2063616c6c6572206973206e6f7420746865206f776e6572604482015260640161041c565b63ffffffff81111561126e57604051637e68564560e01b815260040160405180910390fd5b60fd805463ffffffff909216600160a01b027fffffffffffffffff00000000ffffffffffffffffffffffffffffffffffffffff909216919091179055565b6033546001600160a01b031633146113065760405162461bcd60e51b815260206004820181905260248201527f4f776e61626c653a2063616c6c6572206973206e6f7420746865206f776e6572604482015260640161041c565b6001600160a01b0381166113825760405162461bcd60e51b815260206004820152602660248201527f4f776e61626c653a206e6577206f776e657220697320746865207a65726f206160448201527f6464726573730000000000000000000000000000000000000000000000000000606482015260840161041c565b61138b81611bc8565b50565b6001600160a01b038116321461138b5760fd546001600160a01b031615801590611449575060fd546040517fc23697a80000000000000000000000000000000000000000000000000000000081526001600160a01b0383811660048301529091169063c23697a89060240160206040518083038186803b15801561141157600080fd5b505afa158015611425573d6000803e3d6000fd5b505050506040513d601f19601f8201168201806040525081019061144991906132f1565b61138b5760405162461bcd60e51b815260206004820152602560248201527f536d61727420636f6e7472616374206465706f7369746f7273206e6f7420616c60448201527f6c6f776564000000000000000000000000000000000000000000000000000000606482015260840161041c565b60006114fb6114e36114d5670de0b6b3a764000085613576565b6703782dace9d90000611ca2565b6114f58567023ea473305391b0611e2d565b90611e2d565b9392505050565b604080516001600160a01b0385811660248301528416604482015260648082018490528251808303909101815260849091019091526020810180517bffffffffffffffffffffffffffffffffffffffffffffffffffffffff167f23b872dd0000000000000000000000000000000000000000000000000000000017905261158a908590611e61565b50505050565b6001600160a01b0382166115e65760405162461bcd60e51b815260206004820152601f60248201527f45524332303a206d696e7420746f20746865207a65726f206164647265737300604482015260640161041c565b8060cb60008282546115f89190613495565b90915550506001600160a01b038216600090815260c9602052604081208054839290611625908490613495565b90915550506040518181526001600160a01b038316907f0f6798a560793a54c3bcfe86a93cde1e73087d944c0ea20544137d41213968859060200160405180910390a26001600160a01b038216600090815260c9602052604090205461168c908390611f46565b5050565b60975460ff166116e25760405162461bcd60e51b815260206004820152601460248201527f5061757361626c653a206e6f7420706175736564000000000000000000000000604482015260640161041c565b6097805460ff191690557f5db9ee0a495bf2e6ff9c91a7834c1ba4fdd244a5e8aa4e537bd38aeae4b073aa335b6040516001600160a01b03909116815260200160405180910390a1565b6001600160a01b0382166117a85760405162461bcd60e51b815260206004820152602160248201527f45524332303a206275726e2066726f6d20746865207a65726f2061646472657360448201527f7300000000000000000000000000000000000000000000000000000000000000606482015260840161041c565b6001600160a01b038216600090815260c96020526040902054818110156118375760405162461bcd60e51b815260206004820152602260248201527f45524332303a206275726e20616d6f756e7420657863656564732062616c616e60448201527f6365000000000000000000000000000000000000000000000000000000000000606482015260840161041c565b6001600160a01b038316600090815260c960205260408120838303905560cb80548492906118669084906135d4565b90915550506040518281526001600160a01b038416907fcc16f5dbb4873280815c1ee09dbd06736cffcc184412cf7a71a0fdb75d397ca59060200160405180910390a26001600160a01b038316600090815260c96020526040902054610f6f908490611f46565b600054610100900460ff16806118e6575060005460ff16155b6119495760405162461bcd60e51b815260206004820152602e60248201527f496e697469616c697a61626c653a20636f6e747261637420697320616c72656160448201526d191e481a5b9a5d1a585b1a5e995960921b606482015260840161041c565b600054610100900460ff1615801561196b576000805461ffff19166101011790555b611973611fc9565b61197d838361207a565b8015610f6f576000805461ff0019169055505050565b600054610100900460ff16806119ac575060005460ff16155b611a0f5760405162461bcd60e51b815260206004820152602e60248201527f496e697469616c697a61626c653a20636f6e747261637420697320616c72656160448201526d191e481a5b9a5d1a585b1a5e995960921b606482015260840161041c565b600054610100900460ff16158015611a31576000805461ffff19166101011790555b611a39611fc9565b611a41612156565b801561138b576000805461ff001916905550565b600054610100900460ff1680611a6e575060005460ff16155b611ad15760405162461bcd60e51b815260206004820152602e60248201527f496e697469616c697a61626c653a20636f6e747261637420697320616c72656160448201526d191e481a5b9a5d1a585b1a5e995960921b606482015260840161041c565b600054610100900460ff16158015611af3576000805461ffff19166101011790555b6001606555801561138b576000805461ff001916905550565b600054610100900460ff1680611b25575060005460ff16155b611b885760405162461bcd60e51b815260206004820152602e60248201527f496e697469616c697a61626c653a20636f6e747261637420697320616c72656160448201526d191e481a5b9a5d1a585b1a5e995960921b606482015260840161041c565b600054610100900460ff16158015611baa576000805461ffff19166101011790555b6097805460ff19169055801561138b576000805461ff001916905550565b603380546001600160a01b0383811673ffffffffffffffffffffffffffffffffffffffff19831681179093556040519116919082907f8be0079c531659141344cd1fd0a4f28419497f9722a3daafe3b4186f6b6457e090600090a35050565b60975460ff1615611c6d5760405162461bcd60e51b815260206004820152601060248201526f14185d5cd8589b194e881c185d5cd95960821b604482015260640161041c565b6097805460ff191660011790557f62e78cea01bee320cd4e420270b5ea74000d11b0c9f74754ebdbfc544b05a25861170f3390565b600081611cb85750670de0b6b3a7640000611046565b82611cc557506000611046565b611cd6600160ff1b841060066121fd565b82611d16611d0d68056bc75e2d631000007f40000000000000000000000000000000000000000000000000000000000000006134db565b841060076121fd565b82600082611d3467016345785d8a0000670de0b6b3a7640000613595565b128015611d595750611d56670de0b6b3a764000067016345785d8a0000613456565b83125b15611dc2576000611d698461220b565b9050670de0b6b3a764000083611d7f8284613652565b611d8991906134ef565b611d9391906134ad565b83611da6670de0b6b3a7640000846134ad565b611db091906134ef565b611dba9190613456565b915050611dd9565b81611dcc8461244c565b611dd691906134ef565b90505b611deb670de0b6b3a7640000826134ad565b9050611e1a81680238fd42c5cf03ffff1913158015611e13575068070c1cc73b00c800008213155b60086121fd565b611e2381612a32565b9695505050505050565b6000670de0b6b3a7640000611e436002826134db565b611e4d8486613576565b611e579190613495565b6114fb91906134db565b6000611eb6826040518060400160405280602081526020017f5361666545524332303a206c6f772d6c6576656c2063616c6c206661696c6564815250856001600160a01b03166130699092919063ffffffff16565b805190915015610f6f5780806020019051810190611ed491906132f1565b610f6f5760405162461bcd60e51b815260206004820152602a60248201527f5361666545524332303a204552433230206f7065726174696f6e20646964206e60448201527f6f74207375636365656400000000000000000000000000000000000000000000606482015260840161041c565b60fc546040517f4f00a93e0000000000000000000000000000000000000000000000000000000081526001600160a01b0384811660048301526024820184905290911690634f00a93e90604401600060405180830381600087803b158015611fad57600080fd5b505af1158015611fc1573d6000803e3d6000fd5b505050505050565b600054610100900460ff1680611fe2575060005460ff16155b6120455760405162461bcd60e51b815260206004820152602e60248201527f496e697469616c697a61626c653a20636f6e747261637420697320616c72656160448201526d191e481a5b9a5d1a585b1a5e995960921b606482015260840161041c565b600054610100900460ff16158015611a41576000805461ffff1916610101179055801561138b576000805461ff001916905550565b600054610100900460ff1680612093575060005460ff16155b6120f65760405162461bcd60e51b815260206004820152602e60248201527f496e697469616c697a61626c653a20636f6e747261637420697320616c72656160448201526d191e481a5b9a5d1a585b1a5e995960921b606482015260840161041c565b600054610100900460ff16158015612118576000805461ffff19166101011790555b825161212b9060cc90602086019061323b565b50815161213f9060cd90602085019061323b565b508015610f6f576000805461ff0019169055505050565b600054610100900460ff168061216f575060005460ff16155b6121d25760405162461bcd60e51b815260206004820152602e60248201527f496e697469616c697a61626c653a20636f6e747261637420697320616c72656160448201526d191e481a5b9a5d1a585b1a5e995960921b606482015260840161041c565b600054610100900460ff161580156121f4576000805461ffff19166101011790555b611a4133611bc8565b8161168c5761168c81613080565b600061221f670de0b6b3a7640000836134ef565b9150600061223c6ec097ce7bc90715b34b9f100000000084613456565b6ec097ce7bc90715b34b9f10000000006122568186613595565b61226091906134ef565b61226a91906134ad565b905060006ec097ce7bc90715b34b9f100000000061228883806134ef565b61229291906134ad565b905081806ec097ce7bc90715b34b9f10000000006122b084836134ef565b6122ba91906134ad565b91506122c76003836134ad565b6122d19082613456565b90506ec097ce7bc90715b34b9f10000000006122ed84846134ef565b6122f791906134ad565b91506123046005836134ad565b61230e9082613456565b90506ec097ce7bc90715b34b9f100000000061232a84846134ef565b61233491906134ad565b91506123416007836134ad565b61234b9082613456565b90506ec097ce7bc90715b34b9f100000000061236784846134ef565b61237191906134ad565b915061237e6009836134ad565b6123889082613456565b90506ec097ce7bc90715b34b9f10000000006123a484846134ef565b6123ae91906134ad565b91506123bb600b836134ad565b6123c59082613456565b90506ec097ce7bc90715b34b9f10000000006123e184846134ef565b6123eb91906134ad565b91506123f8600d836134ad565b6124029082613456565b90506ec097ce7bc90715b34b9f100000000061241e84846134ef565b61242891906134ad565b9150612435600f836134ad565b61243f9082613456565b9050611e238160026134ef565b6000670de0b6b3a764000082121561248c5761248382612474670de0b6b3a7640000806134ef565b61247e91906134ad565b61244c565b61104690613666565b60006124b8670de0b6b3a7640000770195e54c5dd42177f53a27172fa9ec6302628270000000006134ef565b83126124f8576124e0770195e54c5dd42177f53a27172fa9ec630262827000000000846134ad565b92506124f56806f05b59d3b200000082613456565b90505b612516670de0b6b3a76400006b1425982cf597cd205cef73806134ef565b831261254a576125326b1425982cf597cd205cef7380846134ad565b92506125476803782dace9d900000082613456565b90505b6125556064826134ef565b90506125626064846134ef565b92506e01855144814a7ff805980ff008400083126125bf576e01855144814a7ff805980ff008400061259d68056bc75e2d63100000856134ef565b6125a791906134ad565b92506125bc68ad78ebc5ac6200000082613456565b90505b6b02df0ab5a80a22c61ab5a7008312612614576b02df0ab5a80a22c61ab5a7006125f268056bc75e2d63100000856134ef565b6125fc91906134ad565b92506126116856bc75e2d63100000082613456565b90505b693f1fce3da636ea5cf850831261266557693f1fce3da636ea5cf85061264368056bc75e2d63100000856134ef565b61264d91906134ad565b9250612662682b5e3af16b1880000082613456565b90505b690127fa27722cc06cc5e283126126b657690127fa27722cc06cc5e261269468056bc75e2d63100000856134ef565b61269e91906134ad565b92506126b36815af1d78b58c40000082613456565b90505b68280e60114edb805d0383126127055768280e60114edb805d036126e368056bc75e2d63100000856134ef565b6126ed91906134ad565b9250612702680ad78ebc5ac620000082613456565b90505b680ebc5fb41746121110831261275457680ebc5fb4174612111061273268056bc75e2d63100000856134ef565b61273c91906134ad565b925061275168056bc75e2d6310000082613456565b90505b6808f00f760a4b2db55d83126127a3576808f00f760a4b2db55d61278168056bc75e2d63100000856134ef565b61278b91906134ad565b92506127a06802b5e3af16b188000082613456565b90505b6806f5f177578893793783126127f2576806f5f17757889379376127d068056bc75e2d63100000856134ef565b6127da91906134ad565b92506127ef68015af1d78b58c4000082613456565b90505b6806248f33704b2866038312612840576806248f33704b28660361281f68056bc75e2d63100000856134ef565b61282991906134ad565b925061283d67ad78ebc5ac62000082613456565b90505b6805c548670b9510e7ac831261288e576805c548670b9510e7ac61286d68056bc75e2d63100000856134ef565b61287791906134ad565b925061288b6756bc75e2d631000082613456565b90505b60006128a368056bc75e2d6310000085613456565b68056bc75e2d631000006128b78187613595565b6128c191906134ef565b6128cb91906134ad565b9050600068056bc75e2d631000006128e383806134ef565b6128ed91906134ad565b9050818068056bc75e2d6310000061290584836134ef565b61290f91906134ad565b915061291c6003836134ad565b6129269082613456565b905068056bc75e2d6310000061293c84846134ef565b61294691906134ad565b91506129536005836134ad565b61295d9082613456565b905068056bc75e2d6310000061297384846134ef565b61297d91906134ad565b915061298a6007836134ad565b6129949082613456565b905068056bc75e2d631000006129aa84846134ef565b6129b491906134ad565b91506129c16009836134ad565b6129cb9082613456565b905068056bc75e2d631000006129e184846134ef565b6129eb91906134ad565b91506129f8600b836134ad565b612a029082613456565b9050612a0f6002826134ef565b90506064612a1d8287613456565b612a2791906134ad565b979650505050505050565b6000612a61680238fd42c5cf03ffff198312158015612a5a575068070c1cc73b00c800008313155b60096121fd565b6000821215612a9757612a7b612a7683613666565b612a32565b612a8d670de0b6b3a7640000806134ef565b61104691906134ad565b60006806f05b59d3b20000008312612ade57612abc6806f05b59d3b200000084613595565b9250770195e54c5dd42177f53a27172fa9ec6302628270000000009050612b1b565b6803782dace9d90000008312612b1757612b016803782dace9d900000084613595565b92506b1425982cf597cd205cef73809050612b1b565b5060015b612b266064846134ef565b925068056bc75e2d6310000068ad78ebc5ac620000008412612b8757612b5568ad78ebc5ac6200000085613595565b935068056bc75e2d63100000612b7a6e01855144814a7ff805980ff0084000836134ef565b612b8491906134ad565b90505b6856bc75e2d6310000008412612bd957612baa6856bc75e2d63100000085613595565b935068056bc75e2d63100000612bcc6b02df0ab5a80a22c61ab5a700836134ef565b612bd691906134ad565b90505b682b5e3af16b188000008412612c2957612bfc682b5e3af16b1880000085613595565b935068056bc75e2d63100000612c1c693f1fce3da636ea5cf850836134ef565b612c2691906134ad565b90505b6815af1d78b58c4000008412612c7957612c4c6815af1d78b58c40000085613595565b935068056bc75e2d63100000612c6c690127fa27722cc06cc5e2836134ef565b612c7691906134ad565b90505b680ad78ebc5ac62000008412612cc857612c9c680ad78ebc5ac620000085613595565b935068056bc75e2d63100000612cbb68280e60114edb805d03836134ef565b612cc591906134ad565b90505b68056bc75e2d631000008412612d1757612ceb68056bc75e2d6310000085613595565b935068056bc75e2d63100000612d0a680ebc5fb41746121110836134ef565b612d1491906134ad565b90505b6802b5e3af16b18800008412612d6657612d3a6802b5e3af16b188000085613595565b935068056bc75e2d63100000612d596808f00f760a4b2db55d836134ef565b612d6391906134ad565b90505b68015af1d78b58c400008412612db557612d8968015af1d78b58c4000085613595565b935068056bc75e2d63100000612da86806f5f1775788937937836134ef565b612db291906134ad565b90505b68056bc75e2d6310000084612dca8183613456565b9150600268056bc75e2d63100000612de288846134ef565b612dec91906134ad565b612df691906134ad565b9050612e028183613456565b9150600368056bc75e2d63100000612e1a88846134ef565b612e2491906134ad565b612e2e91906134ad565b9050612e3a8183613456565b9150600468056bc75e2d63100000612e5288846134ef565b612e5c91906134ad565b612e6691906134ad565b9050612e728183613456565b9150600568056bc75e2d63100000612e8a88846134ef565b612e9491906134ad565b612e9e91906134ad565b9050612eaa8183613456565b9150600668056bc75e2d63100000612ec288846134ef565b612ecc91906134ad565b612ed691906134ad565b9050612ee28183613456565b9150600768056bc75e2d63100000612efa88846134ef565b612f0491906134ad565b612f0e91906134ad565b9050612f1a8183613456565b9150600868056bc75e2d63100000612f3288846134ef565b612f3c91906134ad565b612f4691906134ad565b9050612f528183613456565b9150600968056bc75e2d63100000612f6a88846134ef565b612f7491906134ad565b612f7e91906134ad565b9050612f8a8183613456565b9150600a68056bc75e2d63100000612fa288846134ef565b612fac91906134ad565b612fb691906134ad565b9050612fc28183613456565b9150600b68056bc75e2d63100000612fda88846134ef565b612fe491906134ad565b612fee91906134ad565b9050612ffa8183613456565b9150600c68056bc75e2d6310000061301288846134ef565b61301c91906134ad565b61302691906134ad565b90506130328183613456565b915060648468056bc75e2d6310000061304b85876134ef565b61305591906134ad565b61305f91906134ef565b611e2391906134ad565b606061307884846000856130d3565b949350505050565b62461bcd60e51b6000908152602060045260076024526642414c23000030600a808404818106603090810160081b95839006959095019082900491820690940160101b939093010160c81b604452606490fd5b60608247101561314b5760405162461bcd60e51b815260206004820152602660248201527f416464726573733a20696e73756666696369656e742062616c616e636520666f60448201527f722063616c6c0000000000000000000000000000000000000000000000000000606482015260840161041c565b843b6131995760405162461bcd60e51b815260206004820152601d60248201527f416464726573733a2063616c6c20746f206e6f6e2d636f6e7472616374000000604482015260640161041c565b600080866001600160a01b031685876040516131b59190613387565b60006040518083038185875af1925050503d80600081146131f2576040519150601f19603f3d011682016040523d82523d6000602084013e6131f7565b606091505b5091509150612a27828286606083156132115750816114fb565b8251156132215782518084602001fd5b8160405162461bcd60e51b815260040161041c91906133a3565b82805461324790613617565b90600052602060002090601f01602090048101928261326957600085556132af565b82601f1061328257805160ff19168380011785556132af565b828001600101855582156132af579182015b828111156132af578251825591602001919060010190613294565b506132bb9291506132bf565b5090565b5b808211156132bb57600081556001016132c0565b6000602082840312156132e657600080fd5b81356114fb816136db565b60006020828403121561330357600080fd5b815180151581146114fb57600080fd5b6000806040838503121561332657600080fd5b8235613331816136db565b91506020830135613341816136db565b809150509250929050565b60006020828403121561335e57600080fd5b5035919050565b6000806040838503121561337857600080fd5b50508035926020909101359150565b600082516133998184602087016135eb565b9190910192915050565b60208152600082518060208401526133c28160408501602087016135eb565b601f01601f19169190910160400192915050565b60006020808352604080840185518384870152818151808452606093508388019150858301925060005b81811015613448578351805165ffffffffffff168452878101516cffffffffffffffffffffffffff908116898601529087015116868401529286019291840191600101613400565b509098975050505050505050565b6000808212826001600160ff1b030384138115161561347757613477613683565b82600160ff1b03841281161561348f5761348f613683565b50500190565b600082198211156134a8576134a8613683565b500190565b6000826134bc576134bc613699565b600160ff1b8214600019841416156134d6576134d6613683565b500590565b6000826134ea576134ea613699565b500490565b60006001600160ff1b0360008413600084138583048511828216161561351757613517613683565b600160ff1b600087128682058812818416161561353657613536613683565b6000871292508782058712848416161561355257613552613683565b8785058712818416161561356857613568613683565b505050929093029392505050565b600081600019048311821515161561359057613590613683565b500290565b600080831283600160ff1b018312811516156135b3576135b3613683565b836001600160ff1b030183138116156135ce576135ce613683565b50500390565b6000828210156135e6576135e6613683565b500390565b60005b838110156136065781810151838201526020016135ee565b8381111561158a5750506000910152565b600181811c9082168061362b57607f821691505b6020821081141561364c57634e487b7160e01b600052602260045260246000fd5b50919050565b60008261366157613661613699565b500790565b6000600160ff1b82141561367c5761367c613683565b5060000390565b634e487b7160e01b600052601160045260246000fd5b634e487b7160e01b600052601260045260246000fd5b634e487b7160e01b600052603160045260246000fd5b634e487b7160e01b600052603260045260246000fd5b6001600160a01b038116811461138b57600080fdfea26469706673582212203b59c0cacd855ebfa45dde3060681e1289a64b8a6944a3e7b20dd8b421e1756764736f6c63430008050033",
  "devdoc": {
    "kind": "dev",
    "methods": {
      "balanceOf(address)": {
        "details": "explicity override multiple inheritance"
      },
      "decimals()": {
        "details": "Returns the number of decimals used to get its user representation. For example, if `decimals` equals `2`, a balance of `505` tokens should be displayed to a user as `5.05` (`505 / 10 ** 2`). Tokens usually opt for a value of 18, imitating the relationship between Ether and Wei. This is the value {ERC20} uses, unless this function is overridden; NOTE: This information is only used for _display_ purposes: it in no way affects any of the arithmetic of the contract, including {IERC20-balanceOf} and {IERC20-transfer}."
      },
      "isUser(address)": {
        "params": {
          "_addr": "the user address to check"
        },
        "returns": {
          "_0": "true if the user has wom in stake, false otherwise"
        }
      },
      "name()": {
        "details": "Returns the name of the token."
      },
      "owner()": {
        "details": "Returns the address of the current owner."
      },
      "pause()": {
        "details": "pause pool, restricting certain operations"
      },
      "paused()": {
        "details": "Returns true if the contract is paused, and false otherwise."
      },
      "renounceOwnership()": {
        "details": "Leaves the contract without owner. It will not be possible to call `onlyOwner` functions anymore. Can only be called by the current owner. NOTE: Renouncing ownership will leave the contract without an owner, thereby removing any functionality that is only available to the owner."
      },
      "setMasterWombat(address)": {
        "params": {
          "_masterWombat": "the new masterWombat address"
        }
      },
      "setWhitelist(address)": {
        "params": {
          "_whitelist": "the new whitelist address"
        }
      },
      "symbol()": {
        "details": "Returns the symbol of the token, usually a shorter version of the name."
      },
      "totalSupply()": {
        "details": "explicity override multiple inheritance"
      },
      "transferOwnership(address)": {
        "details": "Transfers ownership of the contract to a new account (`newOwner`). Can only be called by the current owner."
      },
      "unpause()": {
        "details": "unpause pool, enabling certain operations"
      }
    },
    "stateVariables": {
      "whitelist": {
        "details": "contract addresses are by default unable to stake wom, they must be previously whitelisted to stake wom"
      }
    },
    "title": "VeWom",
    "version": 1
  },
  "userdoc": {
    "kind": "user",
    "methods": {
      "isUser(address)": {
        "notice": "checks wether user _addr has wom staked"
      },
      "masterWombat()": {
        "notice": "the masterWombat contract"
      },
      "mint(uint256,uint256)": {
        "notice": "lock WOM into contract and mint veWOM"
      },
      "setMasterWombat(address)": {
        "notice": "sets masterWombat address"
      },
      "setWhitelist(address)": {
        "notice": "sets whitelist address"
      },
      "whitelist()": {
        "notice": "whitelist wallet checker"
      },
      "wom()": {
        "notice": "the wom token"
      }
    },
    "notice": "Wombat Waddle: the staking contract for WOM, as well as the token used for governance. Note Waddling does not seem to slow the Wombat, it only makes it sturdier. Note that it's ownable and the owner wields tremendous power. The ownership will be transferred to a governance smart contract once Wombat is sufficiently distributed and the community can show to govern itself.",
    "version": 1
  },
  "storageLayout": {
    "storage": [
      {
        "astId": 567,
        "contract": "contracts/wombat-governance/VeWom.sol:VeWom",
        "label": "_initialized",
        "offset": 0,
        "slot": "0",
        "type": "t_bool"
      },
      {
        "astId": 570,
        "contract": "contracts/wombat-governance/VeWom.sol:VeWom",
        "label": "_initializing",
        "offset": 1,
        "slot": "0",
        "type": "t_bool"
      },
      {
        "astId": 1141,
        "contract": "contracts/wombat-governance/VeWom.sol:VeWom",
        "label": "__gap",
        "offset": 0,
        "slot": "1",
        "type": "t_array(t_uint256)50_storage"
      },
      {
        "astId": 10,
        "contract": "contracts/wombat-governance/VeWom.sol:VeWom",
        "label": "_owner",
        "offset": 0,
        "slot": "51",
        "type": "t_address"
      },
      {
        "astId": 123,
        "contract": "contracts/wombat-governance/VeWom.sol:VeWom",
        "label": "__gap",
        "offset": 0,
        "slot": "52",
        "type": "t_array(t_uint256)49_storage"
      },
      {
        "astId": 811,
        "contract": "contracts/wombat-governance/VeWom.sol:VeWom",
        "label": "_status",
        "offset": 0,
        "slot": "101",
        "type": "t_uint256"
      },
      {
        "astId": 854,
        "contract": "contracts/wombat-governance/VeWom.sol:VeWom",
        "label": "__gap",
        "offset": 0,
        "slot": "102",
        "type": "t_array(t_uint256)49_storage"
      },
      {
        "astId": 705,
        "contract": "contracts/wombat-governance/VeWom.sol:VeWom",
        "label": "_paused",
        "offset": 0,
        "slot": "151",
        "type": "t_bool"
      },
      {
        "astId": 796,
        "contract": "contracts/wombat-governance/VeWom.sol:VeWom",
        "label": "__gap",
        "offset": 0,
        "slot": "152",
        "type": "t_array(t_uint256)49_storage"
      },
      {
        "astId": 11119,
        "contract": "contracts/wombat-governance/VeWom.sol:VeWom",
        "label": "_balances",
        "offset": 0,
        "slot": "201",
        "type": "t_mapping(t_address,t_uint256)"
      },
      {
        "astId": 11125,
        "contract": "contracts/wombat-governance/VeWom.sol:VeWom",
        "label": "_allowances",
        "offset": 0,
        "slot": "202",
        "type": "t_mapping(t_address,t_mapping(t_address,t_uint256))"
      },
      {
        "astId": 11127,
        "contract": "contracts/wombat-governance/VeWom.sol:VeWom",
        "label": "_totalSupply",
        "offset": 0,
        "slot": "203",
        "type": "t_uint256"
      },
      {
        "astId": 11129,
        "contract": "contracts/wombat-governance/VeWom.sol:VeWom",
        "label": "_name",
        "offset": 0,
        "slot": "204",
        "type": "t_string_storage"
      },
      {
        "astId": 11131,
        "contract": "contracts/wombat-governance/VeWom.sol:VeWom",
        "label": "_symbol",
        "offset": 0,
        "slot": "205",
        "type": "t_string_storage"
      },
      {
        "astId": 11370,
        "contract": "contracts/wombat-governance/VeWom.sol:VeWom",
        "label": "__gap",
        "offset": 0,
        "slot": "206",
        "type": "t_array(t_uint256)45_storage"
      },
      {
        "astId": 11411,
        "contract": "contracts/wombat-governance/VeWom.sol:VeWom",
        "label": "wom",
        "offset": 0,
        "slot": "251",
        "type": "t_contract(IERC20)1930"
      },
      {
        "astId": 11415,
        "contract": "contracts/wombat-governance/VeWom.sol:VeWom",
        "label": "masterWombat",
        "offset": 0,
        "slot": "252",
        "type": "t_contract(IMasterWombat)12221"
      },
      {
        "astId": 11419,
        "contract": "contracts/wombat-governance/VeWom.sol:VeWom",
        "label": "whitelist",
        "offset": 0,
        "slot": "253",
        "type": "t_contract(IWhitelist)12324"
      },
      {
        "astId": 11421,
        "contract": "contracts/wombat-governance/VeWom.sol:VeWom",
        "label": "maxBreedingLength",
        "offset": 20,
        "slot": "253",
        "type": "t_uint32"
      },
      {
        "astId": 11423,
        "contract": "contracts/wombat-governance/VeWom.sol:VeWom",
        "label": "minLockDays",
        "offset": 24,
        "slot": "253",
        "type": "t_uint32"
      },
      {
        "astId": 11425,
        "contract": "contracts/wombat-governance/VeWom.sol:VeWom",
        "label": "maxLockDays",
        "offset": 28,
        "slot": "253",
        "type": "t_uint32"
      },
      {
        "astId": 11431,
        "contract": "contracts/wombat-governance/VeWom.sol:VeWom",
        "label": "users",
        "offset": 0,
        "slot": "254",
        "type": "t_mapping(t_address,t_struct(UserInfo)12262_storage)"
      }
    ],
    "types": {
      "t_address": {
        "encoding": "inplace",
        "label": "address",
        "numberOfBytes": "20"
      },
      "t_array(t_struct(Breeding)12257_storage)dyn_storage": {
        "base": "t_struct(Breeding)12257_storage",
        "encoding": "dynamic_array",
        "label": "struct IVeWom.Breeding[]",
        "numberOfBytes": "32"
      },
      "t_array(t_uint256)45_storage": {
        "base": "t_uint256",
        "encoding": "inplace",
        "label": "uint256[45]",
        "numberOfBytes": "1440"
      },
      "t_array(t_uint256)49_storage": {
        "base": "t_uint256",
        "encoding": "inplace",
        "label": "uint256[49]",
        "numberOfBytes": "1568"
      },
      "t_array(t_uint256)50_storage": {
        "base": "t_uint256",
        "encoding": "inplace",
        "label": "uint256[50]",
        "numberOfBytes": "1600"
      },
      "t_bool": {
        "encoding": "inplace",
        "label": "bool",
        "numberOfBytes": "1"
      },
      "t_contract(IERC20)1930": {
        "encoding": "inplace",
        "label": "contract IERC20",
        "numberOfBytes": "20"
      },
      "t_contract(IMasterWombat)12221": {
        "encoding": "inplace",
        "label": "contract IMasterWombat",
        "numberOfBytes": "20"
      },
      "t_contract(IWhitelist)12324": {
        "encoding": "inplace",
        "label": "contract IWhitelist",
        "numberOfBytes": "20"
      },
      "t_mapping(t_address,t_mapping(t_address,t_uint256))": {
        "encoding": "mapping",
        "key": "t_address",
        "label": "mapping(address => mapping(address => uint256))",
        "numberOfBytes": "32",
        "value": "t_mapping(t_address,t_uint256)"
      },
      "t_mapping(t_address,t_struct(UserInfo)12262_storage)": {
        "encoding": "mapping",
        "key": "t_address",
        "label": "mapping(address => struct IVeWom.UserInfo)",
        "numberOfBytes": "32",
        "value": "t_struct(UserInfo)12262_storage"
      },
      "t_mapping(t_address,t_uint256)": {
        "encoding": "mapping",
        "key": "t_address",
        "label": "mapping(address => uint256)",
        "numberOfBytes": "32",
        "value": "t_uint256"
      },
      "t_string_storage": {
        "encoding": "bytes",
        "label": "string",
        "numberOfBytes": "32"
      },
      "t_struct(Breeding)12257_storage": {
        "encoding": "inplace",
        "label": "struct IVeWom.Breeding",
        "members": [
          {
            "astId": 12252,
            "contract": "contracts/wombat-governance/VeWom.sol:VeWom",
            "label": "unlockTime",
            "offset": 0,
            "slot": "0",
            "type": "t_uint48"
          },
          {
            "astId": 12254,
            "contract": "contracts/wombat-governance/VeWom.sol:VeWom",
            "label": "womAmount",
            "offset": 6,
            "slot": "0",
            "type": "t_uint104"
          },
          {
            "astId": 12256,
            "contract": "contracts/wombat-governance/VeWom.sol:VeWom",
            "label": "veWomAmount",
            "offset": 19,
            "slot": "0",
            "type": "t_uint104"
          }
        ],
        "numberOfBytes": "32"
      },
      "t_struct(UserInfo)12262_storage": {
        "encoding": "inplace",
        "label": "struct IVeWom.UserInfo",
        "members": [
          {
            "astId": 12261,
            "contract": "contracts/wombat-governance/VeWom.sol:VeWom",
            "label": "breedings",
            "offset": 0,
            "slot": "0",
            "type": "t_array(t_struct(Breeding)12257_storage)dyn_storage"
          }
        ],
        "numberOfBytes": "32"
      },
      "t_uint104": {
        "encoding": "inplace",
        "label": "uint104",
        "numberOfBytes": "13"
      },
      "t_uint256": {
        "encoding": "inplace",
        "label": "uint256",
        "numberOfBytes": "32"
      },
      "t_uint32": {
        "encoding": "inplace",
        "label": "uint32",
        "numberOfBytes": "4"
      },
      "t_uint48": {
        "encoding": "inplace",
        "label": "uint48",
        "numberOfBytes": "6"
      }
    }
  }
}