{
  "address": "0x21CDC3B185c64E88e917C9D243554F8DC28fba47",
  "abi": [
    {
      "inputs": [],
      "name": "VEWOM_OVERFLOW",
      "type": "error"
    },
    {
      "anonymous": false,
      "inputs": [
        {
          "indexed": true,
          "internalType": "address",
          "name": "account",
          "type": "address"
        },
        {
          "indexed": false,
          "internalType": "uint256",
          "name": "value",
          "type": "uint256"
        }
      ],
      "name": "Burn",
      "type": "event"
    },
    {
      "anonymous": false,
      "inputs": [
        {
          "indexed": false,
          "internalType": "address",
          "name": "addr",
          "type": "address"
        },
        {
          "indexed": false,
          "internalType": "uint256",
          "name": "unlockTime",
          "type": "uint256"
        },
        {
          "indexed": false,
          "internalType": "uint256",
          "name": "womAmount",
          "type": "uint256"
        },
        {
          "indexed": false,
          "internalType": "uint256",
          "name": "veWomAmount",
          "type": "uint256"
        }
      ],
      "name": "Enter",
      "type": "event"
    },
    {
      "anonymous": false,
      "inputs": [
        {
          "indexed": false,
          "internalType": "address",
          "name": "addr",
          "type": "address"
        },
        {
          "indexed": false,
          "internalType": "uint256",
          "name": "unlockTime",
          "type": "uint256"
        },
        {
          "indexed": false,
          "internalType": "uint256",
          "name": "womAmount",
          "type": "uint256"
        },
        {
          "indexed": false,
          "internalType": "uint256",
          "name": "veWomAmount",
          "type": "uint256"
        }
      ],
      "name": "Exit",
      "type": "event"
    },
    {
      "anonymous": false,
      "inputs": [
        {
          "indexed": true,
          "internalType": "address",
          "name": "beneficiary",
          "type": "address"
        },
        {
          "indexed": false,
          "internalType": "uint256",
          "name": "value",
          "type": "uint256"
        }
      ],
      "name": "Mint",
      "type": "event"
    },
    {
      "anonymous": false,
      "inputs": [
        {
          "indexed": true,
          "internalType": "address",
          "name": "previousOwner",
          "type": "address"
        },
        {
          "indexed": true,
          "internalType": "address",
          "name": "newOwner",
          "type": "address"
        }
      ],
      "name": "OwnershipTransferred",
      "type": "event"
    },
    {
      "anonymous": false,
      "inputs": [
        {
          "indexed": false,
          "internalType": "address",
          "name": "account",
          "type": "address"
        }
      ],
      "name": "Paused",
      "type": "event"
    },
    {
      "anonymous": false,
      "inputs": [
        {
          "indexed": false,
          "internalType": "address",
          "name": "addr",
          "type": "address"
        }
      ],
      "name": "SetMasterWombat",
      "type": "event"
    },
    {
      "anonymous": false,
      "inputs": [
        {
          "indexed": false,
          "internalType": "uint256",
          "name": "len",
          "type": "uint256"
        }
      ],
      "name": "SetMaxBreedingLength",
      "type": "event"
    },
    {
      "anonymous": false,
      "inputs": [
        {
          "indexed": false,
          "internalType": "address",
          "name": "addr",
          "type": "address"
        }
      ],
      "name": "SetVoter",
      "type": "event"
    },
    {
      "anonymous": false,
      "inputs": [
        {
          "indexed": false,
          "internalType": "address",
          "name": "addr",
          "type": "address"
        }
      ],
      "name": "SetWhiteList",
      "type": "event"
    },
    {
      "anonymous": false,
      "inputs": [
        {
          "indexed": false,
          "internalType": "address",
          "name": "account",
          "type": "address"
        }
      ],
      "name": "Unpaused",
      "type": "event"
    },
    {
      "anonymous": false,
      "inputs": [
        {
          "indexed": false,
          "internalType": "address",
          "name": "addr",
          "type": "address"
        },
        {
          "indexed": false,
          "internalType": "uint256",
          "name": "slot",
          "type": "uint256"
        },
        {
          "indexed": false,
          "internalType": "uint256",
          "name": "unlockTime",
          "type": "uint256"
        },
        {
          "indexed": false,
          "internalType": "uint256",
          "name": "womAmount",
          "type": "uint256"
        },
        {
          "indexed": false,
          "internalType": "uint256",
          "name": "originalVeWomAmount",
          "type": "uint256"
        },
        {
          "indexed": false,
          "internalType": "uint256",
          "name": "newVeWomAmount",
          "type": "uint256"
        }
      ],
      "name": "UpdateLockTime",
      "type": "event"
    },
    {
      "inputs": [
        {
          "internalType": "address",
          "name": "account",
          "type": "address"
        }
      ],
      "name": "balanceOf",
      "outputs": [
        {
          "internalType": "uint256",
          "name": "",
          "type": "uint256"
        }
      ],
      "stateMutability": "view",
      "type": "function"
    },
    {
      "inputs": [
        {
          "internalType": "uint256",
          "name": "slot",
          "type": "uint256"
        }
      ],
      "name": "burn",
      "outputs": [],
      "stateMutability": "nonpayable",
      "type": "function"
    },
    {
      "inputs": [],
      "name": "decimals",
      "outputs": [
        {
          "internalType": "uint8",
          "name": "",
          "type": "uint8"
        }
      ],
      "stateMutability": "view",
      "type": "function"
    },
    {
      "inputs": [
        {
          "internalType": "address",
          "name": "addr",
          "type": "address"
        }
      ],
      "name": "getUserInfo",
      "outputs": [
        {
          "components": [
            {
              "internalType": "uint256[10]",
              "name": "reserved",
              "type": "uint256[10]"
            },
            {
              "components": [
                {
                  "internalType": "uint48",
                  "name": "unlockTime",
                  "type": "uint48"
                },
                {
                  "internalType": "uint104",
                  "name": "womAmount",
                  "type": "uint104"
                },
                {
                  "internalType": "uint104",
                  "name": "veWomAmount",
                  "type": "uint104"
                }
              ],
              "internalType": "struct IVeWom.Breeding[]",
              "name": "breedings",
              "type": "tuple[]"
            }
          ],
          "internalType": "struct IVeWom.UserInfo",
          "name": "",
          "type": "tuple"
        }
      ],
      "stateMutability": "view",
      "type": "function"
    },
    {
      "inputs": [
        {
          "internalType": "address",
          "name": "_addr",
          "type": "address"
        }
      ],
      "name": "getUserOverview",
      "outputs": [
        {
          "internalType": "uint256",
          "name": "womLocked",
          "type": "uint256"
        },
        {
          "internalType": "uint256",
          "name": "veWomBalance",
          "type": "uint256"
        }
      ],
      "stateMutability": "view",
      "type": "function"
    },
    {
      "inputs": [
        {
          "internalType": "contract IERC20",
          "name": "_wom",
          "type": "address"
        },
        {
          "internalType": "contract IMasterWombat",
          "name": "_masterWombat",
          "type": "address"
        }
      ],
      "name": "initialize",
      "outputs": [],
      "stateMutability": "nonpayable",
      "type": "function"
    },
    {
      "inputs": [
        {
          "internalType": "address",
          "name": "_addr",
          "type": "address"
        }
      ],
      "name": "isUser",
      "outputs": [
        {
          "internalType": "bool",
          "name": "",
          "type": "bool"
        }
      ],
      "stateMutability": "view",
      "type": "function"
    },
    {
      "inputs": [],
      "name": "masterWombat",
      "outputs": [
        {
          "internalType": "contract IMasterWombat",
          "name": "",
          "type": "address"
        }
      ],
      "stateMutability": "view",
      "type": "function"
    },
    {
      "inputs": [
        {
          "internalType": "uint256",
          "name": "amount",
          "type": "uint256"
        },
        {
          "internalType": "uint256",
          "name": "lockDays",
          "type": "uint256"
        }
      ],
      "name": "mint",
      "outputs": [
        {
          "internalType": "uint256",
          "name": "veWomAmount",
          "type": "uint256"
        }
      ],
      "stateMutability": "nonpayable",
      "type": "function"
    },
    {
      "inputs": [],
      "name": "name",
      "outputs": [
        {
          "internalType": "string",
          "name": "",
          "type": "string"
        }
      ],
      "stateMutability": "view",
      "type": "function"
    },
    {
      "inputs": [],
      "name": "owner",
      "outputs": [
        {
          "internalType": "address",
          "name": "",
          "type": "address"
        }
      ],
      "stateMutability": "view",
      "type": "function"
    },
    {
      "inputs": [],
      "name": "pause",
      "outputs": [],
      "stateMutability": "nonpayable",
      "type": "function"
    },
    {
      "inputs": [],
      "name": "paused",
      "outputs": [
        {
          "internalType": "bool",
          "name": "",
          "type": "bool"
        }
      ],
      "stateMutability": "view",
      "type": "function"
    },
    {
      "inputs": [],
      "name": "renounceOwnership",
      "outputs": [],
      "stateMutability": "nonpayable",
      "type": "function"
    },
    {
      "inputs": [
        {
          "internalType": "contract IMasterWombat",
          "name": "_masterWombat",
          "type": "address"
        }
      ],
      "name": "setMasterWombat",
      "outputs": [],
      "stateMutability": "nonpayable",
      "type": "function"
    },
    {
      "inputs": [
        {
          "internalType": "uint256",
          "name": "_maxBreedingLength",
          "type": "uint256"
        }
      ],
      "name": "setMaxBreedingLength",
      "outputs": [],
      "stateMutability": "nonpayable",
      "type": "function"
    },
    {
      "inputs": [
        {
          "internalType": "address",
          "name": "_voter",
          "type": "address"
        }
      ],
      "name": "setVoter",
      "outputs": [],
      "stateMutability": "nonpayable",
      "type": "function"
    },
    {
      "inputs": [
        {
          "internalType": "contract IWhitelist",
          "name": "_whitelist",
          "type": "address"
        }
      ],
      "name": "setWhitelist",
      "outputs": [],
      "stateMutability": "nonpayable",
      "type": "function"
    },
    {
      "inputs": [],
      "name": "symbol",
      "outputs": [
        {
          "internalType": "string",
          "name": "",
          "type": "string"
        }
      ],
      "stateMutability": "view",
      "type": "function"
    },
    {
      "inputs": [],
      "name": "totalSupply",
      "outputs": [
        {
          "internalType": "uint256",
          "name": "",
          "type": "uint256"
        }
      ],
      "stateMutability": "view",
      "type": "function"
    },
    {
      "inputs": [
        {
          "internalType": "address",
          "name": "newOwner",
          "type": "address"
        }
      ],
      "name": "transferOwnership",
      "outputs": [],
      "stateMutability": "nonpayable",
      "type": "function"
    },
    {
      "inputs": [],
      "name": "unpause",
      "outputs": [],
      "stateMutability": "nonpayable",
      "type": "function"
    },
    {
      "inputs": [
        {
          "internalType": "uint256",
          "name": "slot",
          "type": "uint256"
        },
        {
          "internalType": "uint256",
          "name": "lockDays",
          "type": "uint256"
        }
      ],
      "name": "update",
      "outputs": [
        {
          "internalType": "uint256",
          "name": "newVeWomAmount",
          "type": "uint256"
        }
      ],
      "stateMutability": "nonpayable",
      "type": "function"
    },
    {
      "inputs": [
        {
          "internalType": "address",
          "name": "",
          "type": "address"
        }
      ],
      "name": "usedVote",
      "outputs": [
        {
          "internalType": "uint256",
          "name": "",
          "type": "uint256"
        }
      ],
      "stateMutability": "view",
      "type": "function"
    },
    {
      "inputs": [
        {
          "internalType": "address",
          "name": "_user",
          "type": "address"
        },
        {
          "internalType": "int256",
          "name": "_voteDelta",
          "type": "int256"
        }
      ],
      "name": "vote",
      "outputs": [],
      "stateMutability": "nonpayable",
      "type": "function"
    },
    {
      "inputs": [],
      "name": "voter",
      "outputs": [
        {
          "internalType": "address",
          "name": "",
          "type": "address"
        }
      ],
      "stateMutability": "view",
      "type": "function"
    },
    {
      "inputs": [],
      "name": "whitelist",
      "outputs": [
        {
          "internalType": "contract IWhitelist",
          "name": "",
          "type": "address"
        }
      ],
      "stateMutability": "view",
      "type": "function"
    },
    {
      "inputs": [],
      "name": "wom",
      "outputs": [
        {
          "internalType": "contract IERC20",
          "name": "",
          "type": "address"
        }
      ],
      "stateMutability": "view",
      "type": "function"
    }
  ],
  "transactionHash": "0x9bfffa786bdf6e91681d684fd8682b912d86596141c22ac4cf8235cd1c5544ad",
  "args": [],
  "solcInputHash": "13c6fb06a9048309544c2baad67e3d53",
  "bytecode": "0x60808060405234610016576149cc908161001c8239f35b600080fdfe60806040526004361015610013575b600080fd5b60003560e01c806306fdde03146102435780630705999d1461023a5780630a7feeb21461023157806318160ddd146102285780631b2ef1ca1461021f5780632fb565e814610216578063313ce5671461020d5780633bd61ba8146102045780633f4ba83a146101fb5780634209fff1146101f257806342966c68146101e957806346c96aac146101e0578063485cc955146101d75780634bc2a657146101ce578063552eec2f146101c55780635c975abb146101bc5780636386c1c7146101b357806370a08231146101aa578063715018a6146101a15780638456cb5914610198578063854cff2f1461018f5780638da5cb5b1461018657806393e59dc11461017d57806395d89b4114610174578063b0dfaa7a1461016b578063c5a6222e14610162578063d4c9b0d1146101595763f2fde38b1461015157600080fd5b61000e6117bd565b5061000e611712565b5061000e6116ea565b5061000e611604565b5061000e61155c565b5061000e611534565b5061000e61150c565b5061000e611474565b5061000e6113e8565b5061000e61136c565b5061000e611349565b5061000e611230565b5061000e611167565b5061000e6110a4565b5061000e61100c565b5061000e610ea8565b5061000e610e80565b5061000e610b8e565b5061000e610b47565b5061000e610a7e565b5061000e610a56565b5061000e610a39565b5061000e61070d565b5061000e6104ce565b5061000e6104af565b5061000e61046f565b5061000e6103d7565b5061000e6102c2565b919091602080825283519081818401526000945b8286106102ac575050601f817fffffffffffffffffffffffffffffffffffffffffffffffffffffffffffffffe092604095961161029f575b0116010190565b6000858286010152610298565b8581018201518487016040015294810194610260565b503461000e576000806003193601126103c357604051908060cc546102e681611919565b8085529160019180831690811561037b5750600114610320575b61031c85610310818703826119fe565b6040519182918261024c565b0390f35b925060cc83527f47197230e1e4b29fc0bd84d7d78966c0925452aff72a2a121538b102457e9ebe5b8284106103635750505081016020016103108261031c610300565b80546020858701810191909152909301928101610348565b86955061031c969350602092506103109491507fffffffffffffffffffffffffffffffffffffffffffffffffffffffffffffff001682840152151560051b8201019293610300565b80fd5b6001600160a01b0381160361000e57565b503461000e57602060031936011261000e577ffeb9010869b6ccec4557ddbbce947afeace5efc66cdff52c5e533c09336a8f2d6020600435610418816103c6565b6001600160a01b03906104308260335416331461186c565b1661043c811515611a3f565b807fffffffffffffffffffffffff000000000000000000000000000000000000000060fc54161760fc55604051908152a1005b503461000e57602060031936011261000e576001600160a01b03600435610495816103c6565b166000526101006020526020604060002054604051908152f35b503461000e57600060031936011261000e57602060cb54604051908152f35b503461000e5760408060031936011261000e57600435602435906104f760026065541415612258565b600260655561050b60ff60975416156120ed565b6105168115156122a3565b6cffffffffffffffffffffffffff918282116106e45761053533612d25565b61058460fd5463ffffffff808260c01c16841015806106d6575b610558906122ee565b600a610577336001600160a01b031660005260fe602052604060002090565b01549160a01c1611612339565b6105a061059961059383612384565b426121f0565b91836127a4565b9265ffffffffffff908183116106ad578085116106ad579161065460209694927f3af2c1ec57343b1e7e40c3f6c85f5ad943344cd8548bdf819f1da51aaebb3db69461064f600a610604336001600160a01b031660005260fe602052604060002090565b0191610622610611611a8a565b948716859065ffffffffffff169052565b6cffffffffffffffffffffffffff87821616848c015289166cffffffffffffffffffffffffff1688840152565b6123c2565b6106738261066a60fb546001600160a01b031690565b3090339061246c565b61067d85336126c5565b83513381526020810191909152604081019190915260608101849052608090a16106a76001606555565b51908152f35b600486517f7e685645000000000000000000000000000000000000000000000000000000008152fd5b5060e082901c84111561054f565b600484517f7e685645000000000000000000000000000000000000000000000000000000008152fd5b503461000e57604060031936011261000e5760043560243561073460026065541415612258565b600260655561074860ff60975416156120ed565b61075133612d25565b61077160fd5463ffffffff8160c01c168310159081610a2b575b506122ee565b600a9161079e83610795336001600160a01b031660005260fe602052604060002090565b01548210612bd2565b6107e46107d96107cc83866107c6336001600160a01b031660005260fe602052604060002090565b01612168565b505465ffffffffffff1690565b65ffffffffffff1690565b9161083661082461080d84876107c6336001600160a01b031660005260fe602052604060002090565b505460301c6cffffffffffffffffffffffffff1690565b6cffffffffffffffffffffffffff1690565b9161086761082461085f83886107c6336001600160a01b031660005260fe602052604060002090565b505460981c90565b9361087e61087761059385612384565b93856127a4565b9465ffffffffffff90818511610a01576cffffffffffffffffffffffffff95868811610a01576109a07ff8e2edd66620761fcb68d32d12d6e8c57350084b4756209ed054979196a2b9f9976109598760209c6109458d986108e38d6109ec9c10612c43565b6108ee8a8a10612cb4565b61091084846107c6336001600160a01b031660005260fe602052604060002090565b50908d1665ffffffffffff167fffffffffffffffffffffffffffffffffffffffffffffffffffff000000000000825416179055565b33600090815260fe602052604090206107c6565b5090851672ffffffffffffffffffffffffffffffffffffff7fffffffffffffffffffffffffff0000000000000000000000000000000000000083549260981b169116179055565b6109b36109ad83856128da565b336126c5565b60405195869533879260a09491979695926001600160a01b0360c086019916855260208501526040840152606083015260808201520152565b0390a16109f96001606555565b604051908152f35b60046040517f7e685645000000000000000000000000000000000000000000000000000000008152fd5b905060e01c8211153861076b565b503461000e57600060031936011261000e57602060405160128152f35b503461000e57600060031936011261000e5760206001600160a01b0360fc5416604051908152f35b503461000e57600060031936011261000e57610aa66001600160a01b0360335416331461186c565b60975460ff811615610b03577fffffffffffffffffffffffffffffffffffffffffffffffffffffffffffffff00166097557f5db9ee0a495bf2e6ff9c91a7834c1ba4fdd244a5e8aa4e537bd38aeae4b073aa6020604051338152a1005b606460405162461bcd60e51b815260206004820152601460248201527f5061757361626c653a206e6f74207061757365640000000000000000000000006044820152fd5b503461000e57602060031936011261000e576020610b84600435610b6a816103c6565b6001600160a01b031660005260c960205260406000205490565b1515604051908152f35b503461000e57602060031936011261000e577f275029c7b988945c03ac5499c0d532fce79ce36efab42e1b3f180a62001cad2c600435610bd360026065541415612258565b6002606555610be760ff60975416156120ed565b600a610c06336001600160a01b031660005260fe602052604060002090565b0154610c13818310612834565b610c3f610c3983600a6107c6336001600160a01b031660005260fe602052604060002090565b506121fc565b91610c5e610c566107d9855165ffffffffffff1690565b42101561287f565b610c67826128ca565b8103610e19575b5050610c98600a610c92336001600160a01b031660005260fe602052604060002090565b016129c8565b610cb9610cad60fb546001600160a01b031690565b6001600160a01b031690565b60006020610d2c81850193610cdb85516cffffffffffffffffffffffffff1690565b6040517fa9059cbb0000000000000000000000000000000000000000000000000000000081523360048201526cffffffffffffffffffffffffff909116602482015293849283919082906044820190565b03925af18015610e0c575b610dde575b50610dcf610d91610d7d610d7d6040860195610d71610d6b61082489516cffffffffffffffffffffffffff1690565b33612aa2565b5165ffffffffffff1690565b93516cffffffffffffffffffffffffff1690565b6040805133815265ffffffffffff90941660208501526cffffffffffffffffffffffffff948516908401529290921660608201529081906080820190565b0390a1610ddc6001606555565b005b610dfe9060203d8111610e05575b610df681836119fe565b810190612549565b5038610d3c565b503d610dec565b610e14612a24565b610d37565b610e73610e52610e7993610e4c600a610e45336001600160a01b031660005260fe602052604060002090565b01916128ca565b90612168565b5091600a6107c6336001600160a01b031660005260fe602052604060002090565b906128f1565b3880610c6e565b503461000e57600060031936011261000e5760206001600160a01b0360ff5416604051908152f35b503461000e57604060031936011261000e57600435610ec6816103c6565b602435610ed2816103c6565b6000549060ff8260081c1691826000146110035750303b155b15610f9957610f0091159283610f3357611aaa565b610f0657005b610ddc7fffffffffffffffffffffffffffffffffffffffffffffffffffffffffffff00ff60005416600055565b610f646101007fffffffffffffffffffffffffffffffffffffffffffffffffffffffffffff00ff6000541617600055565b610f9460017fffffffffffffffffffffffffffffffffffffffffffffffffffffffffffffff006000541617600055565b611aaa565b608460405162461bcd60e51b815260206004820152602e60248201527f496e697469616c697a61626c653a20636f6e747261637420697320616c72656160448201527f647920696e697469616c697a65640000000000000000000000000000000000006064820152fd5b60ff1615610eeb565b503461000e57602060031936011261000e577fc6ff127433b785c51da9ae4088ee184c909b1a55b9afd82ae6c64224d3bc15d2602060043561104d816103c6565b6001600160a01b03906110658260335416331461186c565b16611071811515611a3f565b807fffffffffffffffffffffffff000000000000000000000000000000000000000060ff54161760ff55604051908152a1005b503461000e57602060031936011261000e576004356110c2816103c6565b6000906001600160a01b038116825260fe602052600a6040832001805483915b81831061111a5784611108856001600160a01b031660005260c960205260406000205490565b60408051928352602083019190915290f35b9091936111476001916cffffffffffffffffffffffffff61113b8886612168565b505460301c16906121f0565b94600019811461115a575b0191906110e2565b611162612138565b611152565b503461000e57600060031936011261000e57602060ff609754166040519015158152f35b60208082528251919261018084019260008386015b600a821061121b57505050906101a0818094930151946101608082015285518094520193019160005b8281106111d7575050505090565b8351805165ffffffffffff168652808301516cffffffffffffffffffffffffff908116878501526040918201511690860152606090940193928101926001016111c9565b848060019285518152019301910190916111a0565b503461000e5760208060031936011261000e5760043561124f816103c6565b6040606083825161125f8161199c565b835161126a816119c5565b610140368237815201526001600160a01b0360009216825260fe8352808220918151926112968461199c565b8251818387835b600a8310611332575050505090816112b6600a936119c5565b85520193845467ffffffffffffffff8111611325575b835192956112e0600583901b8401856119fe565b8184528652818620958284015b8282106113095750505061031c9450830152519182918261118b565b60018481926113178b6121fc565b8152019801910190966112ed565b61132d61196c565b6112cc565b60019182918554815201930191019091889061129d565b503461000e57602060031936011261000e5760206109f9600435610b6a816103c6565b503461000e576000806003193601126103c3576033547fffffffffffffffffffffffff00000000000000000000000000000000000000006001600160a01b038216916113b933841461186c565b1660335581604051917f8be0079c531659141344cd1fd0a4f28419497f9722a3daafe3b4186f6b6457e08284a3f35b503461000e57600060031936011261000e576114106001600160a01b0360335416331461186c565b60017fffffffffffffffffffffffffffffffffffffffffffffffffffffffffffffff0060975461144360ff8216156120ed565b16176097557f62e78cea01bee320cd4e420270b5ea74000d11b0c9f74754ebdbfc544b05a2586020604051338152a1005b503461000e57602060031936011261000e577f3990e3e141b903f4f5602428874be692206642a653b416f336d965e2f04813ce60206004356114b5816103c6565b6001600160a01b03906114cd8260335416331461186c565b166114d9811515611a3f565b807fffffffffffffffffffffffff000000000000000000000000000000000000000060fd54161760fd55604051908152a1005b503461000e57600060031936011261000e5760206001600160a01b0360335416604051908152f35b503461000e57600060031936011261000e5760206001600160a01b0360fd5416604051908152f35b503461000e576000806003193601126103c357604051908060cd5461158081611919565b8085529160019180831690811561037b57506001146115a95761031c85610310818703826119fe565b925060cd83527f83978b4c69c48dd978ab43fe30f077615294f938fb7f936d9eb340e51ea7db2e5b8284106115ec5750505081016020016103108261031c610300565b805460208587018101919091529093019281016115d1565b503461000e57604060031936011261000e57600435611622816103c6565b602435906001600160a01b03918260ff541633036116a65760009283821261166e57821683526101006020526040832080546116699392611662916121f0565b9055612ec3565b604051f35b9061167890612f31565b9116825261010060205260408220908154818110611699575b039055604051f35b6116a1612138565b611691565b606460405162461bcd60e51b815260206004820152601a60248201527f5665576f6d3a2063616c6c6572206973206e6f7420766f7465720000000000006044820152fd5b503461000e57600060031936011261000e5760206001600160a01b0360fb5416604051908152f35b503461000e57602060031936011261000e5760043561173d6001600160a01b0360335416331461186c565b63ffffffff8111610a015760207f20fff119b2ff981a49e3649af737a2d9a9f9b4bd74c35c0448478c2bd4666a689160fd547fffffffffffffffff00000000ffffffffffffffffffffffffffffffffffffffff77ffffffff00000000000000000000000000000000000000008360a01b1691161760fd55604051908152a1005b503461000e57602060031936011261000e576004356117db816103c6565b6001600160a01b036117f28160335416331461186c565b81161561180257610ddc906118b7565b608460405162461bcd60e51b815260206004820152602660248201527f4f776e61626c653a206e6577206f776e657220697320746865207a65726f206160448201527f64647265737300000000000000000000000000000000000000000000000000006064820152fd5b1561187357565b606460405162461bcd60e51b815260206004820152602060248201527f4f776e61626c653a2063616c6c6572206973206e6f7420746865206f776e65726044820152fd5b603354906001600160a01b0380911691827fffffffffffffffffffffffff0000000000000000000000000000000000000000821617603355167f8be0079c531659141344cd1fd0a4f28419497f9722a3daafe3b4186f6b6457e06000604051a3565b90600182811c92168015611962575b602083101461193357565b7f4e487b7100000000000000000000000000000000000000000000000000000000600052602260045260246000fd5b91607f1691611928565b507f4e487b7100000000000000000000000000000000000000000000000000000000600052604160045260246000fd5b6040810190811067ffffffffffffffff8211176119b857604052565b6119c061196c565b604052565b610140810190811067ffffffffffffffff8211176119b857604052565b60a0810190811067ffffffffffffffff8211176119b857604052565b90601f7fffffffffffffffffffffffffffffffffffffffffffffffffffffffffffffffe0910116810190811067ffffffffffffffff8211176119b857604052565b15611a4657565b606460405162461bcd60e51b815260206004820152600c60248201527f7a65726f206164647265737300000000000000000000000000000000000000006044820152fd5b604051906060820182811067ffffffffffffffff8211176119b857604052565b90611acc6001600160a01b03611ac38184161515611a3f565b83161515611a3f565b604051611ad88161199c565b600d81526020907f576f6d62617420576164646c65000000000000000000000000000000000000008282015260405191611b118361199c565b600583527f7665574f4d00000000000000000000000000000000000000000000000000000081840152611b5d60ff60005460081c16611b4f81611de4565b611b5881611de4565b611de4565b81519167ffffffffffffffff8311611dd7575b611b8483611b7f60cc54611919565b611ef6565b81601f8411600114611d2557509282611c42969593611bc293611c0e96600092611d1a575b50506000198260011b9260031b1c19161760cc55611fd8565b611bca611e55565b611bd2611eae565b611bda611e73565b6001600160a01b03167fffffffffffffffffffffffff000000000000000000000000000000000000000060fc54161760fc55565b6001600160a01b03167fffffffffffffffffffffffff000000000000000000000000000000000000000060fb54161760fb55565b611c8775271000000000000000000000000000000000000000007fffffffffffffffff00000000ffffffffffffffffffffffffffffffffffffffff60fd54161760fd55565b611ccf78070000000000000000000000000000000000000000000000007fffffffff00000000ffffffffffffffffffffffffffffffffffffffffffffffff60fd54161760fd55565b611d187d05b5000000000000000000000000000000000000000000000000000000007bffffffffffffffffffffffffffffffffffffffffffffffffffffffff60fd54161760fd55565b565b015190503880611ba9565b60cc60005291907fffffffffffffffffffffffffffffffffffffffffffffffffffffffffffffffe084167f47197230e1e4b29fc0bd84d7d78966c0925452aff72a2a121538b102457e9ebe936000905b828210611dbf57505093611bc293611c0e969360019383611c429b9a9810611da6575b505050811b0160cc55611fd8565b015160001960f88460031b161c19169055388080611d98565b80600186978294978701518155019601940190611d75565b611ddf61196c565b611b70565b15611deb57565b608460405162461bcd60e51b815260206004820152602b60248201527f496e697469616c697a61626c653a20636f6e7472616374206973206e6f74206960448201527f6e697469616c697a696e670000000000000000000000000000000000000000006064820152fd5b611e6a60ff60005460081c16611b5881611de4565b611d18336118b7565b611e8460ff60005460081c16611de4565b7fffffffffffffffffffffffffffffffffffffffffffffffffffffffffffffff0060975416609755565b611ebf60ff60005460081c16611de4565b6001606555565b507f4e487b7100000000000000000000000000000000000000000000000000000000600052600060045260246000fd5b601f8111611f02575050565b60009060cc82527f47197230e1e4b29fc0bd84d7d78966c0925452aff72a2a121538b102457e9ebe906020601f850160051c83019410611f5d575b601f0160051c01915b828110611f5257505050565b818155600101611f46565b9092508290611f3d565b601f8111611f73575050565b60009060cd82527f83978b4c69c48dd978ab43fe30f077615294f938fb7f936d9eb340e51ea7db2e906020601f850160051c83019410611fce575b601f0160051c01915b828110611fc357505050565b818155600101611fb7565b9092508290611fae565b90815167ffffffffffffffff81116120e0575b611fff81611ffa60cd54611919565b611f67565b602080601f831160011461203a575081929360009261202f575b50506000198260011b9260031b1c19161760cd55565b015190503880612019565b907fffffffffffffffffffffffffffffffffffffffffffffffffffffffffffffffe083169461208b60cd6000527f83978b4c69c48dd978ab43fe30f077615294f938fb7f936d9eb340e51ea7db2e90565b926000905b8782106120c85750508360019596106120af575b505050811b0160cd55565b015160001960f88460031b161c191690553880806120a4565b80600185968294968601518155019501930190612090565b6120e861196c565b611feb565b156120f457565b606460405162461bcd60e51b815260206004820152601060248201527f5061757361626c653a20706175736564000000000000000000000000000000006044820152fd5b507f4e487b7100000000000000000000000000000000000000000000000000000000600052601160045260246000fd5b80548210156121805760005260206000200190600090565b7f4e487b7100000000000000000000000000000000000000000000000000000000600052603260045260246000fd5b6706f05b59d3b20000907ffffffffffffffffffffffffffffffffffffffffffffffffff90fa4a62c4dffff81116121e4570190565b6121ec612138565b0190565b811981116121e4570190565b906040516060810181811067ffffffffffffffff82111761224b575b604052604081935465ffffffffffff811683526cffffffffffffffffffffffffff8160301c16602084015260981c910152565b61225361196c565b612218565b1561225f57565b606460405162461bcd60e51b815260206004820152601f60248201527f5265656e7472616e637947756172643a207265656e7472616e742063616c6c006044820152fd5b156122aa57565b606460405162461bcd60e51b815260206004820152602060248201527f616d6f756e7420746f206465706f7369742063616e6e6f74206265207a65726f6044820152fd5b156122f557565b606460405162461bcd60e51b815260206004820152601460248201527f6c6f636b206461797320697320696e76616c69640000000000000000000000006044820152fd5b1561234057565b606460405162461bcd60e51b815260206004820152600e60248201527f627265656420746f6f206d7563680000000000000000000000000000000000006044820152fd5b7dc22e450672894ab6cd8efb11d33f5617839a5bc7dea00c22e450672894ab81116001166123b5575b620151800290565b6123bd612138565b6123ad565b906123ea611d18928054906801000000000000000082101561245f575b600182018155612168565b919091612452575b8051602082015160409092015160981b7fffffffffffffffffffffffffff000000000000000000000000000000000000001672ffffffffffffffffffffffffff00000000000060309390931b9290921665ffffffffffff90911617179055565b61245a611ec6565b6123f2565b61246761196c565b6123df565b600091612524949383926040519560208701937f23b872dd0000000000000000000000000000000000000000000000000000000085526001600160a01b03938480921660248a01521660448801526064870152606486526124cc866119e2565b169082604051956124dc8761199c565b602087527f5361666545524332303a206c6f772d6c6576656c2063616c6c206661696c65646020880152612512843b15156125d2565b51925af161251e61261d565b90612689565b80518061252f575050565b8160208061254493611d189501019101612549565b612561565b9081602091031261000e5751801515810361000e5790565b1561256857565b608460405162461bcd60e51b815260206004820152602a60248201527f5361666545524332303a204552433230206f7065726174696f6e20646964206e60448201527f6f742073756363656564000000000000000000000000000000000000000000006064820152fd5b156125d957565b606460405162461bcd60e51b815260206004820152601d60248201527f416464726573733a2063616c6c20746f206e6f6e2d636f6e74726163740000006044820152fd5b3d15612684573d9067ffffffffffffffff8211612677575b6040519161266b60207fffffffffffffffffffffffffffffffffffffffffffffffffffffffffffffffe0601f84011601846119fe565b82523d6000602084013e565b61267f61196c565b612635565b606090565b90919015612695575090565b8151156126a55750805190602001fd5b6126c19060405191829162461bcd60e51b83526004830161024c565b0390fd5b6001600160a01b0381168015612760577f0f6798a560793a54c3bcfe86a93cde1e73087d944c0ea20544137d4121396885602084612708611d189660cb546121f0565b60cb55612728856001600160a01b031660005260c9602052604060002090565b6127338282546121f0565b9055604051908152a2612759816001600160a01b031660005260c9602052604060002090565b5490612e38565b606460405162461bcd60e51b815260206004820152601f60248201527f45524332303a206d696e7420746f20746865207a65726f2061646472657373006044820152fd5b6127de9161280991600019916127f6665cf26ab61477b892808504841181151516612827575b670de0b6b3a76400009687948592026121af565b0492828493860482118115151661281a575b02613d87565b920482118115151661280d575b026121af565b0490565b612815612138565b612803565b612822612138565b6127f0565b61282f612138565b6127ca565b1561283b57565b606460405162461bcd60e51b815260206004820152600460248201527f7775743f000000000000000000000000000000000000000000000000000000006044820152fd5b1561288657565b606460405162461bcd60e51b815260206004820152600b60248201527f6e6f7420796574206d65680000000000000000000000000000000000000000006044820152fd5b60001990600181106121e4570190565b8181106128e5570390565b6128ed612138565b0390565b906129bb575b818103612902575050565b815481547fffffffffffffffffffffffffffffffffffffffffffffffffffff0000000000001665ffffffffffff91909116178155611d1891805482547fffffffffffffffffffffffffff00000000000000000000000000ffffffffffff1672ffffffffffffffffffffffffff00000000000090911617825554815472ffffffffffffffffffffffffffffffffffffff167fffffffffffffffffffffffffff00000000000000000000000000000000000000909116179055565b6129c3611ec6565b6128f7565b805480156129f557600019019060006129e18383612168565b6129e9575555565b6129f1611ec6565b5555565b7f4e487b7100000000000000000000000000000000000000000000000000000000600052603160045260246000fd5b506040513d6000823e3d90fd5b15612a3857565b608460405162461bcd60e51b815260206004820152602260248201527f45524332303a206275726e20616d6f756e7420657863656564732062616c616e60448201527f63650000000000000000000000000000000000000000000000000000000000006064820152fd5b6001600160a01b0381168015612b68577fcc16f5dbb4873280815c1ee09dbd06736cffcc184412cf7a71a0fdb75d397ca5612b4884611d1895612af8866001600160a01b031660005260c9602052604060002090565b54612b0582821015612a31565b03612b23866001600160a01b031660005260c9602052604060002090565b55612b38612b338260cb546128da565b60cb55565b6040519081529081906020820190565b0390a2612759816001600160a01b031660005260c9602052604060002090565b608460405162461bcd60e51b815260206004820152602160248201527f45524332303a206275726e2066726f6d20746865207a65726f2061646472657360448201527f73000000000000000000000000000000000000000000000000000000000000006064820152fd5b15612bd957565b608460405162461bcd60e51b815260206004820152603560248201527f736c6f7420706f736974696f6e2073686f756c64206265206c6573732074686160448201527f6e20746865206e756d626572206f6620736c6f747300000000000000000000006064820152fd5b15612c4a57565b608460405162461bcd60e51b815260206004820152603760248201527f746865206e657720656e642064617465206d757374206265206772656174657260448201527f207468616e206578697374696e6720656e6420646174650000000000000000006064820152fd5b15612cbb57565b608460405162461bcd60e51b815260206004820152603f60248201527f746865206e6577207665576f6d20616d6f756e74206d7573742062652067726560448201527f61746572207468616e206578697374696e67207665576f6d20616d6f756e74006064820152fd5b6001600160a01b0380911690328203612d3c575050565b60fd54168015159182612dbd575b505015612d5357565b608460405162461bcd60e51b815260206004820152602560248201527f536d61727420636f6e7472616374206465706f7369746f7273206e6f7420616c60448201527f6c6f7765640000000000000000000000000000000000000000000000000000006064820152fd5b60209192506024604051809481937fc23697a800000000000000000000000000000000000000000000000000000000835260048301525afa908115612e2b575b600091612e0d575b503880612d4a565b612e25915060203d8111610e0557610df681836119fe565b38612e05565b612e33612a24565b612dfd565b612e4181612ec3565b6001600160a01b038060fc5416803b1561000e576000928360449260405196879586947f4f00a93e00000000000000000000000000000000000000000000000000000000865216600485015260248401525af18015612eb6575b612ea25750565b67ffffffffffffffff81116119b857604052565b612ebe612a24565b612e9b565b6001600160a01b031660005260c960205260406000205461010060205260406000205411612eed57565b606460405162461bcd60e51b815260206004820152601660248201527f5665576f6d3a206e6f7420656e6f75676820766f7465000000000000000000006044820152fd5b600160ff1b8114612f43575b60000390565b612f4b612138565b612f3d565b7ffffffffffffffffffffffffffffffffffffffffffffffffc87d2531627000000907f800000000000000000000000000000000000000000000003782dace9d900000081126001166121e4570190565b7ffffffffffffffffffffffffffffffffffffffffffffffff90fa4a62c4e000000907f800000000000000000000000000000000000000000000006f05b59d3b200000081126001166121e4570190565b7fffffffffffffffffffffffffffffffffffffffffffffff5287143a539e000000907f8000000000000000000000000000000000000000000000ad78ebc5ac6200000081126001166121e4570190565b7fffffffffffffffffffffffffffffffffffffffffffffffa9438a1d29cf000000907f800000000000000000000000000000000000000000000056bc75e2d63100000081126001166121e4570190565b7fffffffffffffffffffffffffffffffffffffffffffffffd4a1c50e94e7800000907f80000000000000000000000000000000000000000000002b5e3af16b1880000081126001166121e4570190565b7fffffffffffffffffffffffffffffffffffffffffffffffea50e2874a73c00000907f800000000000000000000000000000000000000000000015af1d78b58c40000081126001166121e4570190565b7ffffffffffffffffffffffffffffffffffffffffffffffff5287143a539e00000907f80000000000000000000000000000000000000000000000ad78ebc5ac620000081126001166121e4570190565b7ffffffffffffffffffffffffffffffffffffffffffffffffa9438a1d29cf00000907f8000000000000000000000000000000000000000000000056bc75e2d6310000081126001166121e4570190565b7ffffffffffffffffffffffffffffffffffffffffffffffffd4a1c50e94e780000907f800000000000000000000000000000000000000000000002b5e3af16b188000081126001166121e4570190565b7ffffffffffffffffffffffffffffffffffffffffffffffffea50e2874a73c0000907f8000000000000000000000000000000000000000000000015af1d78b58c4000081126001166121e4570190565b7fffffffffffffffffffffffffffffffffff3f68318436f8ea4cb460f000000000907f8000000000000000000000000000000000c097ce7bc90715b34b9f100000000081126001166121e4570190565b7f7ffffffffffffffffffffffffffffffffffffffffffffffa9438a1d29cefffff81136001166132f9575b68056bc75e2d631000000190565b613301612138565b6132eb565b60008112906803782dace9d900000091817f7fffffffffffffffffffffffffffffffffffffffffffffffffffffffffffffff038313811516613355575b81600160ff1b038312166121e4570190565b61335d612138565b613343565b600081129068ad78ebc5ac6200000091817f7fffffffffffffffffffffffffffffffffffffffffffffffffffffffffffffff0383138115166133555781600160ff1b038312166121e4570190565b60008112906856bc75e2d63100000091817f7fffffffffffffffffffffffffffffffffffffffffffffffffffffffffffffff0383138115166133555781600160ff1b038312166121e4570190565b6000811290682b5e3af16b1880000091817f7fffffffffffffffffffffffffffffffffffffffffffffffffffffffffffffff0383138115166133555781600160ff1b038312166121e4570190565b60008112906815af1d78b58c40000091817f7fffffffffffffffffffffffffffffffffffffffffffffffffffffffffffffff0383138115166133555781600160ff1b038312166121e4570190565b6000811290680ad78ebc5ac620000091817f7fffffffffffffffffffffffffffffffffffffffffffffffffffffffffffffff0383138115166133555781600160ff1b038312166121e4570190565b600081129068056bc75e2d6310000091817f7fffffffffffffffffffffffffffffffffffffffffffffffffffffffffffffff0383138115166133555781600160ff1b038312166121e4570190565b60008112906802b5e3af16b188000091817f7fffffffffffffffffffffffffffffffffffffffffffffffffffffffffffffff0383138115166133555781600160ff1b038312166121e4570190565b600081129068015af1d78b58c4000091817f7fffffffffffffffffffffffffffffffffffffffffffffffffffffffffffffff0383138115166133555781600160ff1b038312166121e4570190565b600081129067ad78ebc5ac62000091817f7fffffffffffffffffffffffffffffffffffffffffffffffffffffffffffffff0383138115166133555781600160ff1b038312166121e4570190565b60008112906756bc75e2d631000091817f7fffffffffffffffffffffffffffffffffffffffffffffffffffffffffffffff0383138115166133555781600160ff1b038312166121e4570190565b60008112906ec097ce7bc90715b34b9f100000000091817f7fffffffffffffffffffffffffffffffffffffffffffffffffffffffffffffff0383138115166133555781600160ff1b038312166121e4570190565b60008112817f7fffffffffffffffffffffffffffffffffffffffffffffffffffffffffffffff0383138115166133555781600160ff1b038312166121e4570190565b60649060017f0147ae147ae147ae147ae147ae147ae147ae147ae147ae147ae147ae147ae1478211600083131616613774575b60017ffeb851eb851eb851eb851eb851eb851eb851eb851eb851eb851eb851eb851eb98212600083121616613768570290565b613770612138565b0290565b61377c612138565b613735565b6b02df0ab5a80a22c61ab5a700906001742c946c2bbca77c51fd5dbb9b6b977eb57ae2a4810282116000831316166137e7575b60017fffffffffffffffffffffffd36b93d4435883ae02a244649468814a851d5b7efe8212600083121616613768570290565b6137ef612138565b6137b4565b693f1fce3da636ea5cf8509060017602071a702111fbea2c24c1f0a7775c81684ed1aa2d0030821160008313161661385a575b60017ffffffffffffffffffffdf8e58fdeee0415d3db3e0f5888a37e97b12e55d2ffd08212600083121616613768570290565b613862612138565b613827565b690127fa27722cc06cc5e2906001766eb614127829fdc13a3ecbf3403f628ab3ac34d34e0c8182116000831316166138cd575b60017fffffffffffffffffff9149ebed87d6023ec5c1340cbfc09d754c53cb2cb1f37f8212600083121616613768570290565b6138d5612138565b61389a565b68280e60114edb805d039060017703320d351227ed0e191fe0057d88b3d353d790bc64ae52838211600083131616613940575b60017ffffffffffffffffffccdf2caedd812f1e6e01ffa82774c2cac286f439b51ad7d8212600083121616613768570290565b613948612138565b61390d565b680ebc5fb417461211109060017708afb1dcc10223b496190e5924ceb5c883d30f51acd9577e82116000831316166139b3575b60017ffffffffffffffffff7504e233efddc4b69e6f1a6db314a377c2cf0ae5326a8828212600083121616613768570290565b6139bb612138565b613980565b6808f00f760a4b2db55d906001770e5240bc6352d0b85e32903aa78bdb23e04ceb6de5bc9d7f8211600083131616613a26575b60017ffffffffffffffffff1adbf439cad2f47a1cd6fc5587424dc1fb314921a4362818212600083121616613768570290565b613a2e612138565b6139f3565b6806f5f17757889379379060017712638fd7097e98a815affbc7cb0eb130448889a9ffa568b28211600083131616613a99575b60017fffffffffffffffffed9c7028f6816757ea50043834f14ecfbb777656005a974e8212600083121616613768570290565b613aa1612138565b613a66565b68056bc75e2d6310000090600177179ca10c9242235d511e976394d79eb08303d500b3eeca658211600083131616613b0c575b60017fffffffffffffffffe8635ef36dbddca2aee1689c6b28614f7cfc2aff4c11359b8212600083121616613768570290565b613b14612138565b613ad9565b60017f3fffffffffffffffffffffffffffffffffffffffffffffffffffffffffffffff8211600083131616613b8c575b60017fc0000000000000000000000000000000000000000000000000000000000000008212600083121616613b7f575b60011b90565b613b87612138565b613b79565b613b94612138565b613b49565b6ec097ce7bc90715b34b9f100000000090600170aa242499697392d2dde50bd1d5d0b9e9ea8211600083131616613bfe575b60017fffffffffffffffffffffffffffffff55dbdb66968c6d2d221af42e2a2f4616168212600083121616613768570290565b613c06612138565b613bcb565b6706f05b59d3b200009060017812725dd1d243aba0e75fe645cc4873f9e65afe688c928e1f218211600083131616613c71575b60017fffffffffffffffed8da22e2dbc545f18a019ba33b78c0619a50197736d71e0df8212600083121616613768570290565b613c79612138565b613c3e565b600082136000821390837f7fffffffffffffffffffffffffffffffffffffffffffffffffffffffffffffff818104851183851616613d0a575b6000821292600160ff1b94848787058512911616613cfd575b82600087129505861290851616613cf0575b058312911616613768570290565b613cf8612138565b613ce2565b613d05612138565b613cd0565b613d12612138565b613cb7565b8015613d31576ec097ce7bc90715b34b9f10000000000590565b7f4e487b7100000000000000000000000000000000000000000000000000000000600052601260045260246000fd5b8115613d31576000198214600160ff1b821416613d7b570590565b613d83612138565b0590565b8015613ea957600160ff1b811015613e6b57670de0b6b3a7640000613e2e9180670c7d713b49da00001280613e5a575b15613e4457613dc8613df5916147a3565b613def613de184613dda818505613c0b565b9307613c0b565b670de0b6b3a7640000900590565b906136c0565b05807ffffffffffffffffffffffffffffffffffffffffffffffffdc702bd3a30fc0000131580613e31575b613e2990613eaf565b613f39565b90565b5068070c1cc73b00c80000811315613e20565b613e50613e559161436a565b613c0b565b613df5565b50670f43fc2c04ee00008112613db7565b62461bcd60e51b600052602060045260076024527f42414c233030360000000000000000000000000000000000000000000000000060445260646000fd5b50600090565b15613eb657565b62461bcd60e51b600052602060045260076024527f42414c233030380000000000000000000000000000000000000000000000000060445260646000fd5b15613efb57565b62461bcd60e51b600052602060045260076024527f42414c233030390000000000000000000000000000000000000000000000000060445260646000fd5b7ffffffffffffffffffffffffffffffffffffffffffffffffdc702bd3a30fc000081121580614357575b613f6c90613ef4565b60008112614342576806f05b59d3b2000000811261430857613f8d90612fa0565b613faf770195e54c5dd42177f53a27172fa9ec63026282700000000091613702565b8068056bc75e2d631000009168ad78ebc5ac620000008112156142e5575b506856bc75e2d6310000008112156142ca575b682b5e3af16b188000008112156142af575b6815af1d78b58c400000811215614294575b680ad78ebc5ac6200000811215614279575b68056bc75e2d6310000081121561425e575b6802b5e3af16b1880000811215614243575b68015af1d78b58c40000811215614219575b80808080808080808061405e816132c0565b6140688280613c7e565b68056bc75e2d631000009005600290059081614083916136c0565b9161408d91613c7e565b68056bc75e2d6310000090056003900590816140a8916136c0565b916140b291613c7e565b68056bc75e2d6310000090056004900590816140cd916136c0565b916140d791613c7e565b68056bc75e2d6310000090056005900590816140f2916136c0565b916140fc91613c7e565b68056bc75e2d631000009005600690059081614117916136c0565b9161412191613c7e565b68056bc75e2d63100000900560079005908161413c916136c0565b9161414691613c7e565b68056bc75e2d631000009005600890059081614161916136c0565b9161416b91613c7e565b68056bc75e2d631000009005600990059081614186916136c0565b9161419091613c7e565b68056bc75e2d631000009005600a900590816141ab916136c0565b916141b591613c7e565b68056bc75e2d631000009005600b900590816141d0916136c0565b916141da91613c7e565b68056bc75e2d631000009005600c90056141f3916136c0565b6141fc91613c7e565b68056bc75e2d6310000090059061421291613c7e565b6064900590565b61422e61422861423d92613220565b92613a33565b68056bc75e2d63100000900590565b9061404c565b61422e614252614258926131d0565b926139c0565b9061403a565b61422e61426d61427392613180565b9261394d565b90614028565b61422e61428861428e92613130565b926138da565b90614016565b61422e6142a36142a9926130e0565b92613867565b90614004565b61422e6142be6142c492613090565b926137f4565b90613ff2565b61422e6142d96142df92613040565b92613781565b90613fe0565b90506142f19150612ff0565b6e01855144814a7ff805980ff00840009038613fcd565b6803782dace9d900000081126143375761432190612f50565b613faf6b1425982cf597cd205cef738091613702565b613faf600191613702565b613e2961434e91612f31565b613e2e90613d17565b5068070c1cc73b00c80000811315613f63565b670de0b6b3a7640000811261478957614212613e2e9160007e1600ef3172e58d2e933ec884fde10064c63b5372d805e203c000000000000082121561475e575b73011798004d755d3c8bc8e03204cf44619e00000082121561473b575b6143d090613702565b6143da8192613702565b90816e01855144814a7ff805980ff00840008112156146dc575b50506145586005613def61455161422e61452961454b61454061422e6144de8a6b02df0ab5a80a22c61ab5a700613def9c12156146af575b693f1fce3da636ea5cf850811215614684575b690127fa27722cc06cc5e2811215614659575b68280e60114edb805d0381121561462f575b680ebc5fb41746121110811215614605575b6808f00f760a4b2db55d8112156145db575b6806f5f17757889379378112156145b1575b6806248f33704b286603811215614587575b6805c548670b9510e7ac81121561455d575b6144d86144d26144cd83613180565b613aa6565b916134e8565b90613d60565b61453a61452f61422e6144f461422e8580613c7e565b80988561452061422e8461451a61450f61422e83809d613c7e565b9460038605906136c0565b93613c7e565b9e8f05906136c0565b9c613c7e565b9960078b05906136c0565b98613c7e565b9560098705906136c0565b94613c7e565b600b900590565b613b19565b61457b61456c61458192613aa6565b6805c548670b9510e7ac900590565b9c61361f565b9b6144be565b6145a56145966145ab92613aa6565b6806248f33704b286603900590565b9c6135d2565b9b6144ac565b6145cf6145c06145d592613aa6565b6806f5f1775788937937900590565b9c613584565b9b61449a565b6145f96145ea6145ff92613aa6565b6808f00f760a4b2db55d900590565b9c613536565b9b614488565b61462361461461462992613aa6565b680ebc5fb41746121110900590565b9c6134e8565b9b614476565b61464d61463e61465392613aa6565b68280e60114edb805d03900590565b9c61349a565b9b614464565b61467861466861467e92613aa6565b690127fa27722cc06cc5e2900590565b9c61344c565b9b614452565b6146a36146936146a992613aa6565b693f1fce3da636ea5cf850900590565b9c6133fe565b9b61443f565b6146d06146be6146d692613aa6565b6b02df0ab5a80a22c61ab5a700900590565b9c6133b0565b9b61442c565b614558919350613def9250613def61455161422e61452961454b61454061422e6144de61472b61472561471060059b613aa6565b6e01855144814a7ff805980ff0084000900590565b9c613362565b9b9a5050505050505050506143f4565b906147576b1425982cf597cd205cef73806143d0920592613306565b90506143c7565b50770195e54c5dd42177f53a27172fa9ec63026282700000000090056806f05b59d3b20000006143aa565b61479561479a91613d17565b61436a565b613e2e90612f31565b670de0b6b3a76400009060017809392ee8e921d5d073aff322e62439fcf32d7f344649470f908211600083131616614989575b60017ffffffffffffffff6c6d11716de2a2f8c500cdd19dbc6030cd280cbb9b6b8f070821260008312161661497c575b0261481081613270565b61481990613b99565b906148239061366c565b61482c91613d60565b6148368180613c7e565b6ec097ce7bc90715b34b9f100000000090058080808085614858828098613c7e565b6ec097ce7bc90715b34b9f100000000090059060038205614878916136c0565b9161488291613c7e565b6ec097ce7bc90715b34b9f1000000000900590600582056148a2916136c0565b916148ac91613c7e565b6ec097ce7bc90715b34b9f1000000000900590600782056148cc916136c0565b916148d691613c7e565b6ec097ce7bc90715b34b9f1000000000900590600982056148f6916136c0565b9161490091613c7e565b6ec097ce7bc90715b34b9f1000000000900590600b8205614920916136c0565b9161492a91613c7e565b6ec097ce7bc90715b34b9f1000000000900590600d820561494a916136c0565b9161495491613c7e565b6ec097ce7bc90715b34b9f10000000009005600f9005614973916136c0565b613e2e90613b19565b614984612138565b614806565b614991612138565b6147d656fea264697066735822122048867a64c353dc4428e9013b4bcf4da5e39670bddb124156446f78f3210513a864736f6c634300080f0033",
  "devdoc": {
    "kind": "dev",
    "methods": {
      "balanceOf(address)": {
        "details": "explicity override multiple inheritance"
      },
      "decimals()": {
        "details": "Returns the number of decimals used to get its user representation. For example, if `decimals` equals `2`, a balance of `505` tokens should be displayed to a user as `5.05` (`505 / 10 ** 2`). Tokens usually opt for a value of 18, imitating the relationship between Ether and Wei. This is the value {ERC20} uses, unless this function is overridden; NOTE: This information is only used for _display_ purposes: it in no way affects any of the arithmetic of the contract, including {IERC20-balanceOf} and {IERC20-transfer}."
      },
      "isUser(address)": {
        "params": {
          "_addr": "the user address to check"
        },
        "returns": {
          "_0": "true if the user has wom in stake, false otherwise"
        }
      },
      "name()": {
        "details": "Returns the name of the token."
      },
      "owner()": {
        "details": "Returns the address of the current owner."
      },
      "pause()": {
        "details": "pause pool, restricting certain operations"
      },
      "paused()": {
        "details": "Returns true if the contract is paused, and false otherwise."
      },
      "renounceOwnership()": {
        "details": "Leaves the contract without owner. It will not be possible to call `onlyOwner` functions anymore. Can only be called by the current owner. NOTE: Renouncing ownership will leave the contract without an owner, thereby removing any functionality that is only available to the owner."
      },
      "setMasterWombat(address)": {
        "params": {
          "_masterWombat": "the new masterWombat address"
        }
      },
      "setVoter(address)": {
        "params": {
          "_voter": "the new NFT contract address"
        }
      },
      "setWhitelist(address)": {
        "params": {
          "_whitelist": "the new whitelist address"
        }
      },
      "symbol()": {
        "details": "Returns the symbol of the token, usually a shorter version of the name."
      },
      "totalSupply()": {
        "details": "explicity override multiple inheritance"
      },
      "transferOwnership(address)": {
        "details": "Transfers ownership of the contract to a new account (`newOwner`). Can only be called by the current owner."
      },
      "unpause()": {
        "details": "unpause pool, enabling certain operations"
      },
      "update(uint256,uint256)": {
        "params": {
          "lockDays": "the new lock days (it should be larger than original lock days)",
          "slot": "the veWOM slot"
        }
      }
    },
    "stateVariables": {
      "whitelist": {
        "details": "contract addresses are by default unable to stake wom, they must be previously whitelisted to stake wom"
      }
    },
    "title": "VeWom",
    "version": 1
  },
  "userdoc": {
    "kind": "user",
    "methods": {
      "getUserInfo(address)": {
        "notice": "return the user info"
      },
      "getUserOverview(address)": {
        "notice": "return the amount of Wom locked and veWOM acquired by a user"
      },
      "isUser(address)": {
        "notice": "checks wether user _addr has wom staked"
      },
      "masterWombat()": {
        "notice": "the masterWombat contract"
      },
      "mint(uint256,uint256)": {
        "notice": "lock WOM into contract and mint veWOM"
      },
      "setMasterWombat(address)": {
        "notice": "sets masterWombat address"
      },
      "setVoter(address)": {
        "notice": "sets voter contract address"
      },
      "setWhitelist(address)": {
        "notice": "sets whitelist address"
      },
      "update(uint256,uint256)": {
        "notice": "update the WOM lock days such that the end date is `now` + `lockDays`"
      },
      "usedVote(address)": {
        "notice": "amount of vote used currently for each user"
      },
      "voter()": {
        "notice": "Address of the Voter contract"
      },
      "whitelist()": {
        "notice": "whitelist wallet checker"
      },
      "wom()": {
        "notice": "the wom token"
      }
    },
    "notice": "Wombat Waddle: the staking contract for WOM, as well as the token used for governance. Note Waddling does not seem to slow the Wombat, it only makes it sturdier. Note that it's ownable and the owner wields tremendous power. The ownership will be transferred to a governance smart contract once Wombat is sufficiently distributed and the community can show to govern itself.",
    "version": 1
  },
  "storageLayout": {
    "storage": [
      {
        "astId": 130,
        "contract": "contracts/wombat-governance/VeWom.sol:VeWom",
        "label": "_initialized",
        "offset": 0,
        "slot": "0",
        "type": "t_bool"
      },
      {
        "astId": 133,
        "contract": "contracts/wombat-governance/VeWom.sol:VeWom",
        "label": "_initializing",
        "offset": 1,
        "slot": "0",
        "type": "t_bool"
      },
      {
        "astId": 651,
        "contract": "contracts/wombat-governance/VeWom.sol:VeWom",
        "label": "__gap",
        "offset": 0,
        "slot": "1",
        "type": "t_array(t_uint256)50_storage"
      },
      {
        "astId": 10,
        "contract": "contracts/wombat-governance/VeWom.sol:VeWom",
        "label": "_owner",
        "offset": 0,
        "slot": "51",
        "type": "t_address"
      },
      {
        "astId": 122,
        "contract": "contracts/wombat-governance/VeWom.sol:VeWom",
        "label": "__gap",
        "offset": 0,
        "slot": "52",
        "type": "t_array(t_uint256)49_storage"
      },
      {
        "astId": 322,
        "contract": "contracts/wombat-governance/VeWom.sol:VeWom",
        "label": "_status",
        "offset": 0,
        "slot": "101",
        "type": "t_uint256"
      },
      {
        "astId": 366,
        "contract": "contracts/wombat-governance/VeWom.sol:VeWom",
        "label": "__gap",
        "offset": 0,
        "slot": "102",
        "type": "t_array(t_uint256)49_storage"
      },
      {
        "astId": 218,
        "contract": "contracts/wombat-governance/VeWom.sol:VeWom",
        "label": "_paused",
        "offset": 0,
        "slot": "151",
        "type": "t_bool"
      },
      {
        "astId": 307,
        "contract": "contracts/wombat-governance/VeWom.sol:VeWom",
        "label": "__gap",
        "offset": 0,
        "slot": "152",
        "type": "t_array(t_uint256)49_storage"
      },
      {
        "astId": 16004,
        "contract": "contracts/wombat-governance/VeWom.sol:VeWom",
        "label": "_balances",
        "offset": 0,
        "slot": "201",
        "type": "t_mapping(t_address,t_uint256)"
      },
      {
        "astId": 16010,
        "contract": "contracts/wombat-governance/VeWom.sol:VeWom",
        "label": "_allowances",
        "offset": 0,
        "slot": "202",
        "type": "t_mapping(t_address,t_mapping(t_address,t_uint256))"
      },
      {
        "astId": 16012,
        "contract": "contracts/wombat-governance/VeWom.sol:VeWom",
        "label": "_totalSupply",
        "offset": 0,
        "slot": "203",
        "type": "t_uint256"
      },
      {
        "astId": 16014,
        "contract": "contracts/wombat-governance/VeWom.sol:VeWom",
        "label": "_name",
        "offset": 0,
        "slot": "204",
        "type": "t_string_storage"
      },
      {
        "astId": 16016,
        "contract": "contracts/wombat-governance/VeWom.sol:VeWom",
        "label": "_symbol",
        "offset": 0,
        "slot": "205",
        "type": "t_string_storage"
      },
      {
        "astId": 16255,
        "contract": "contracts/wombat-governance/VeWom.sol:VeWom",
        "label": "__gap",
        "offset": 0,
        "slot": "206",
        "type": "t_array(t_uint256)45_storage"
      },
      {
        "astId": 16306,
        "contract": "contracts/wombat-governance/VeWom.sol:VeWom",
        "label": "wom",
        "offset": 0,
        "slot": "251",
        "type": "t_contract(IERC20)1420"
      },
      {
        "astId": 16310,
        "contract": "contracts/wombat-governance/VeWom.sol:VeWom",
        "label": "masterWombat",
        "offset": 0,
        "slot": "252",
        "type": "t_contract(IMasterWombat)19297"
      },
      {
        "astId": 16314,
        "contract": "contracts/wombat-governance/VeWom.sol:VeWom",
        "label": "whitelist",
        "offset": 0,
        "slot": "253",
        "type": "t_contract(IWhitelist)19681"
      },
      {
        "astId": 16316,
        "contract": "contracts/wombat-governance/VeWom.sol:VeWom",
        "label": "maxBreedingLength",
        "offset": 20,
        "slot": "253",
        "type": "t_uint32"
      },
      {
        "astId": 16318,
        "contract": "contracts/wombat-governance/VeWom.sol:VeWom",
        "label": "minLockDays",
        "offset": 24,
        "slot": "253",
        "type": "t_uint32"
      },
      {
        "astId": 16320,
        "contract": "contracts/wombat-governance/VeWom.sol:VeWom",
        "label": "maxLockDays",
        "offset": 28,
        "slot": "253",
        "type": "t_uint32"
      },
      {
        "astId": 16326,
        "contract": "contracts/wombat-governance/VeWom.sol:VeWom",
        "label": "users",
        "offset": 0,
        "slot": "254",
        "type": "t_mapping(t_address,t_struct(UserInfo)19601_storage)"
      },
      {
        "astId": 16329,
        "contract": "contracts/wombat-governance/VeWom.sol:VeWom",
        "label": "voter",
        "offset": 0,
        "slot": "255",
        "type": "t_address"
      },
      {
        "astId": 16334,
        "contract": "contracts/wombat-governance/VeWom.sol:VeWom",
        "label": "usedVote",
        "offset": 0,
        "slot": "256",
        "type": "t_mapping(t_address,t_uint256)"
      }
    ],
    "types": {
      "t_address": {
        "encoding": "inplace",
        "label": "address",
        "numberOfBytes": "20"
      },
      "t_array(t_struct(Breeding)19592_storage)dyn_storage": {
        "base": "t_struct(Breeding)19592_storage",
        "encoding": "dynamic_array",
        "label": "struct IVeWom.Breeding[]",
        "numberOfBytes": "32"
      },
      "t_array(t_uint256)10_storage": {
        "base": "t_uint256",
        "encoding": "inplace",
        "label": "uint256[10]",
        "numberOfBytes": "320"
      },
      "t_array(t_uint256)45_storage": {
        "base": "t_uint256",
        "encoding": "inplace",
        "label": "uint256[45]",
        "numberOfBytes": "1440"
      },
      "t_array(t_uint256)49_storage": {
        "base": "t_uint256",
        "encoding": "inplace",
        "label": "uint256[49]",
        "numberOfBytes": "1568"
      },
      "t_array(t_uint256)50_storage": {
        "base": "t_uint256",
        "encoding": "inplace",
        "label": "uint256[50]",
        "numberOfBytes": "1600"
      },
      "t_bool": {
        "encoding": "inplace",
        "label": "bool",
        "numberOfBytes": "1"
      },
      "t_contract(IERC20)1420": {
        "encoding": "inplace",
        "label": "contract IERC20",
        "numberOfBytes": "20"
      },
      "t_contract(IMasterWombat)19297": {
        "encoding": "inplace",
        "label": "contract IMasterWombat",
        "numberOfBytes": "20"
      },
      "t_contract(IWhitelist)19681": {
        "encoding": "inplace",
        "label": "contract IWhitelist",
        "numberOfBytes": "20"
      },
      "t_mapping(t_address,t_mapping(t_address,t_uint256))": {
        "encoding": "mapping",
        "key": "t_address",
        "label": "mapping(address => mapping(address => uint256))",
        "numberOfBytes": "32",
        "value": "t_mapping(t_address,t_uint256)"
      },
      "t_mapping(t_address,t_struct(UserInfo)19601_storage)": {
        "encoding": "mapping",
        "key": "t_address",
        "label": "mapping(address => struct IVeWom.UserInfo)",
        "numberOfBytes": "32",
        "value": "t_struct(UserInfo)19601_storage"
      },
      "t_mapping(t_address,t_uint256)": {
        "encoding": "mapping",
        "key": "t_address",
        "label": "mapping(address => uint256)",
        "numberOfBytes": "32",
        "value": "t_uint256"
      },
      "t_string_storage": {
        "encoding": "bytes",
        "label": "string",
        "numberOfBytes": "32"
      },
      "t_struct(Breeding)19592_storage": {
        "encoding": "inplace",
        "label": "struct IVeWom.Breeding",
        "members": [
          {
            "astId": 19587,
            "contract": "contracts/wombat-governance/VeWom.sol:VeWom",
            "label": "unlockTime",
            "offset": 0,
            "slot": "0",
            "type": "t_uint48"
          },
          {
            "astId": 19589,
            "contract": "contracts/wombat-governance/VeWom.sol:VeWom",
            "label": "womAmount",
            "offset": 6,
            "slot": "0",
            "type": "t_uint104"
          },
          {
            "astId": 19591,
            "contract": "contracts/wombat-governance/VeWom.sol:VeWom",
            "label": "veWomAmount",
            "offset": 19,
            "slot": "0",
            "type": "t_uint104"
          }
        ],
        "numberOfBytes": "32"
      },
      "t_struct(UserInfo)19601_storage": {
        "encoding": "inplace",
        "label": "struct IVeWom.UserInfo",
        "members": [
          {
            "astId": 19596,
            "contract": "contracts/wombat-governance/VeWom.sol:VeWom",
            "label": "reserved",
            "offset": 0,
            "slot": "0",
            "type": "t_array(t_uint256)10_storage"
          },
          {
            "astId": 19600,
            "contract": "contracts/wombat-governance/VeWom.sol:VeWom",
            "label": "breedings",
            "offset": 0,
            "slot": "10",
            "type": "t_array(t_struct(Breeding)19592_storage)dyn_storage"
          }
        ],
        "numberOfBytes": "352"
      },
      "t_uint104": {
        "encoding": "inplace",
        "label": "uint104",
        "numberOfBytes": "13"
      },
      "t_uint256": {
        "encoding": "inplace",
        "label": "uint256",
        "numberOfBytes": "32"
      },
      "t_uint32": {
        "encoding": "inplace",
        "label": "uint32",
        "numberOfBytes": "4"
      },
      "t_uint48": {
        "encoding": "inplace",
        "label": "uint48",
        "numberOfBytes": "6"
      }
    }
  }
}