{
  "address": "0x51c4967cFaD8DE12319105cb4588E29a3F35d2B9",
  "abi": [
    {
      "inputs": [],
      "name": "VEWOM_OVERFLOW",
      "type": "error"
    },
    {
      "anonymous": false,
      "inputs": [
        {
          "indexed": true,
          "internalType": "address",
          "name": "account",
          "type": "address"
        },
        {
          "indexed": false,
          "internalType": "uint256",
          "name": "value",
          "type": "uint256"
        }
      ],
      "name": "Burn",
      "type": "event"
    },
    {
      "anonymous": false,
      "inputs": [
        {
          "indexed": false,
          "internalType": "address",
          "name": "addr",
          "type": "address"
        },
        {
          "indexed": false,
          "internalType": "uint256",
          "name": "unlockTime",
          "type": "uint256"
        },
        {
          "indexed": false,
          "internalType": "uint256",
          "name": "womAmount",
          "type": "uint256"
        },
        {
          "indexed": false,
          "internalType": "uint256",
          "name": "veWomAmount",
          "type": "uint256"
        }
      ],
      "name": "Enter",
      "type": "event"
    },
    {
      "anonymous": false,
      "inputs": [
        {
          "indexed": false,
          "internalType": "address",
          "name": "addr",
          "type": "address"
        },
        {
          "indexed": false,
          "internalType": "uint256",
          "name": "unlockTime",
          "type": "uint256"
        },
        {
          "indexed": false,
          "internalType": "uint256",
          "name": "womAmount",
          "type": "uint256"
        },
        {
          "indexed": false,
          "internalType": "uint256",
          "name": "veWomAmount",
          "type": "uint256"
        }
      ],
      "name": "Exit",
      "type": "event"
    },
    {
      "anonymous": false,
      "inputs": [
        {
          "indexed": true,
          "internalType": "address",
          "name": "beneficiary",
          "type": "address"
        },
        {
          "indexed": false,
          "internalType": "uint256",
          "name": "value",
          "type": "uint256"
        }
      ],
      "name": "Mint",
      "type": "event"
    },
    {
      "anonymous": false,
      "inputs": [
        {
          "indexed": true,
          "internalType": "address",
          "name": "previousOwner",
          "type": "address"
        },
        {
          "indexed": true,
          "internalType": "address",
          "name": "newOwner",
          "type": "address"
        }
      ],
      "name": "OwnershipTransferred",
      "type": "event"
    },
    {
      "anonymous": false,
      "inputs": [
        {
          "indexed": false,
          "internalType": "address",
          "name": "account",
          "type": "address"
        }
      ],
      "name": "Paused",
      "type": "event"
    },
    {
      "anonymous": false,
      "inputs": [
        {
          "indexed": false,
          "internalType": "address",
          "name": "addr",
          "type": "address"
        }
      ],
      "name": "SetMasterWombat",
      "type": "event"
    },
    {
      "anonymous": false,
      "inputs": [
        {
          "indexed": false,
          "internalType": "uint256",
          "name": "len",
          "type": "uint256"
        }
      ],
      "name": "SetMaxBreedingLength",
      "type": "event"
    },
    {
      "anonymous": false,
      "inputs": [
        {
          "indexed": false,
          "internalType": "address",
          "name": "addr",
          "type": "address"
        }
      ],
      "name": "SetVoter",
      "type": "event"
    },
    {
      "anonymous": false,
      "inputs": [
        {
          "indexed": false,
          "internalType": "address",
          "name": "addr",
          "type": "address"
        }
      ],
      "name": "SetWhiteList",
      "type": "event"
    },
    {
      "anonymous": false,
      "inputs": [
        {
          "indexed": false,
          "internalType": "address",
          "name": "account",
          "type": "address"
        }
      ],
      "name": "Unpaused",
      "type": "event"
    },
    {
      "anonymous": false,
      "inputs": [
        {
          "indexed": false,
          "internalType": "address",
          "name": "addr",
          "type": "address"
        },
        {
          "indexed": false,
          "internalType": "uint256",
          "name": "unlockTime",
          "type": "uint256"
        },
        {
          "indexed": false,
          "internalType": "uint256",
          "name": "womAmount",
          "type": "uint256"
        },
        {
          "indexed": false,
          "internalType": "uint256",
          "name": "originalVeWomAmount",
          "type": "uint256"
        },
        {
          "indexed": false,
          "internalType": "uint256",
          "name": "newVeWomAmount",
          "type": "uint256"
        }
      ],
      "name": "UpdateLockTime",
      "type": "event"
    },
    {
      "inputs": [
        {
          "internalType": "address",
          "name": "account",
          "type": "address"
        }
      ],
      "name": "balanceOf",
      "outputs": [
        {
          "internalType": "uint256",
          "name": "",
          "type": "uint256"
        }
      ],
      "stateMutability": "view",
      "type": "function"
    },
    {
      "inputs": [
        {
          "internalType": "uint256",
          "name": "slot",
          "type": "uint256"
        }
      ],
      "name": "burn",
      "outputs": [],
      "stateMutability": "nonpayable",
      "type": "function"
    },
    {
      "inputs": [],
      "name": "decimals",
      "outputs": [
        {
          "internalType": "uint8",
          "name": "",
          "type": "uint8"
        }
      ],
      "stateMutability": "view",
      "type": "function"
    },
    {
      "inputs": [
        {
          "internalType": "address",
          "name": "addr",
          "type": "address"
        }
      ],
      "name": "getUserInfo",
      "outputs": [
        {
          "components": [
            {
              "internalType": "uint256[10]",
              "name": "reserved",
              "type": "uint256[10]"
            },
            {
              "components": [
                {
                  "internalType": "uint48",
                  "name": "unlockTime",
                  "type": "uint48"
                },
                {
                  "internalType": "uint104",
                  "name": "womAmount",
                  "type": "uint104"
                },
                {
                  "internalType": "uint104",
                  "name": "veWomAmount",
                  "type": "uint104"
                }
              ],
              "internalType": "struct IVeWom.Breeding[]",
              "name": "breedings",
              "type": "tuple[]"
            }
          ],
          "internalType": "struct IVeWom.UserInfo",
          "name": "",
          "type": "tuple"
        }
      ],
      "stateMutability": "view",
      "type": "function"
    },
    {
      "inputs": [
        {
          "internalType": "contract IERC20",
          "name": "_wom",
          "type": "address"
        },
        {
          "internalType": "contract IMasterWombat",
          "name": "_masterWombat",
          "type": "address"
        }
      ],
      "name": "initialize",
      "outputs": [],
      "stateMutability": "nonpayable",
      "type": "function"
    },
    {
      "inputs": [
        {
          "internalType": "address",
          "name": "_addr",
          "type": "address"
        }
      ],
      "name": "isUser",
      "outputs": [
        {
          "internalType": "bool",
          "name": "",
          "type": "bool"
        }
      ],
      "stateMutability": "view",
      "type": "function"
    },
    {
      "inputs": [],
      "name": "masterWombat",
      "outputs": [
        {
          "internalType": "contract IMasterWombat",
          "name": "",
          "type": "address"
        }
      ],
      "stateMutability": "view",
      "type": "function"
    },
    {
      "inputs": [
        {
          "internalType": "uint256",
          "name": "amount",
          "type": "uint256"
        },
        {
          "internalType": "uint256",
          "name": "lockDays",
          "type": "uint256"
        }
      ],
      "name": "mint",
      "outputs": [
        {
          "internalType": "uint256",
          "name": "veWomAmount",
          "type": "uint256"
        }
      ],
      "stateMutability": "nonpayable",
      "type": "function"
    },
    {
      "inputs": [],
      "name": "name",
      "outputs": [
        {
          "internalType": "string",
          "name": "",
          "type": "string"
        }
      ],
      "stateMutability": "view",
      "type": "function"
    },
    {
      "inputs": [],
      "name": "owner",
      "outputs": [
        {
          "internalType": "address",
          "name": "",
          "type": "address"
        }
      ],
      "stateMutability": "view",
      "type": "function"
    },
    {
      "inputs": [],
      "name": "pause",
      "outputs": [],
      "stateMutability": "nonpayable",
      "type": "function"
    },
    {
      "inputs": [],
      "name": "paused",
      "outputs": [
        {
          "internalType": "bool",
          "name": "",
          "type": "bool"
        }
      ],
      "stateMutability": "view",
      "type": "function"
    },
    {
      "inputs": [],
      "name": "renounceOwnership",
      "outputs": [],
      "stateMutability": "nonpayable",
      "type": "function"
    },
    {
      "inputs": [
        {
          "internalType": "contract IMasterWombat",
          "name": "_masterWombat",
          "type": "address"
        }
      ],
      "name": "setMasterWombat",
      "outputs": [],
      "stateMutability": "nonpayable",
      "type": "function"
    },
    {
      "inputs": [
        {
          "internalType": "uint256",
          "name": "_maxBreedingLength",
          "type": "uint256"
        }
      ],
      "name": "setMaxBreedingLength",
      "outputs": [],
      "stateMutability": "nonpayable",
      "type": "function"
    },
    {
      "inputs": [
        {
          "internalType": "address",
          "name": "_voter",
          "type": "address"
        }
      ],
      "name": "setVoter",
      "outputs": [],
      "stateMutability": "nonpayable",
      "type": "function"
    },
    {
      "inputs": [
        {
          "internalType": "contract IWhitelist",
          "name": "_whitelist",
          "type": "address"
        }
      ],
      "name": "setWhitelist",
      "outputs": [],
      "stateMutability": "nonpayable",
      "type": "function"
    },
    {
      "inputs": [],
      "name": "symbol",
      "outputs": [
        {
          "internalType": "string",
          "name": "",
          "type": "string"
        }
      ],
      "stateMutability": "view",
      "type": "function"
    },
    {
      "inputs": [],
      "name": "totalSupply",
      "outputs": [
        {
          "internalType": "uint256",
          "name": "",
          "type": "uint256"
        }
      ],
      "stateMutability": "view",
      "type": "function"
    },
    {
      "inputs": [
        {
          "internalType": "address",
          "name": "newOwner",
          "type": "address"
        }
      ],
      "name": "transferOwnership",
      "outputs": [],
      "stateMutability": "nonpayable",
      "type": "function"
    },
    {
      "inputs": [],
      "name": "unpause",
      "outputs": [],
      "stateMutability": "nonpayable",
      "type": "function"
    },
    {
      "inputs": [
        {
          "internalType": "uint256",
          "name": "slot",
          "type": "uint256"
        },
        {
          "internalType": "uint256",
          "name": "lockDays",
          "type": "uint256"
        }
      ],
      "name": "update",
      "outputs": [
        {
          "internalType": "uint256",
          "name": "newVeWomAmount",
          "type": "uint256"
        }
      ],
      "stateMutability": "nonpayable",
      "type": "function"
    },
    {
      "inputs": [
        {
          "internalType": "address",
          "name": "",
          "type": "address"
        }
      ],
      "name": "usedVote",
      "outputs": [
        {
          "internalType": "uint256",
          "name": "",
          "type": "uint256"
        }
      ],
      "stateMutability": "view",
      "type": "function"
    },
    {
      "inputs": [
        {
          "internalType": "address",
          "name": "_user",
          "type": "address"
        },
        {
          "internalType": "int256",
          "name": "_voteDelta",
          "type": "int256"
        }
      ],
      "name": "vote",
      "outputs": [],
      "stateMutability": "nonpayable",
      "type": "function"
    },
    {
      "inputs": [],
      "name": "voter",
      "outputs": [
        {
          "internalType": "address",
          "name": "",
          "type": "address"
        }
      ],
      "stateMutability": "view",
      "type": "function"
    },
    {
      "inputs": [],
      "name": "whitelist",
      "outputs": [
        {
          "internalType": "contract IWhitelist",
          "name": "",
          "type": "address"
        }
      ],
      "stateMutability": "view",
      "type": "function"
    },
    {
      "inputs": [],
      "name": "wom",
      "outputs": [
        {
          "internalType": "contract IERC20",
          "name": "",
          "type": "address"
        }
      ],
      "stateMutability": "view",
      "type": "function"
    }
  ],
  "transactionHash": "0xe661e752da3bcd6bffb94f5eca9309b7349e5371dc2bbc779c311189fd620d28",
  "args": [],
  "solcInputHash": "66139c59c64e54fe5e689060f1c158f4",
  "bytecode": "0x60808060405234610016576148f2908161001c8239f35b600080fdfe60806040526004361015610013575b600080fd5b60003560e01c806306fdde031461022f5780630705999d146102265780630a7feeb21461021d57806318160ddd146102145780631b2ef1ca1461020b5780632fb565e814610202578063313ce567146101f95780633bd61ba8146101f05780633f4ba83a146101e75780634209fff1146101de57806342966c68146101d557806346c96aac146101cc578063485cc955146101c35780634bc2a657146101ba5780635c975abb146101b15780636386c1c7146101a857806370a082311461019f578063715018a6146101965780638456cb591461018d578063854cff2f146101845780638da5cb5b1461017b57806393e59dc11461017257806395d89b4114610169578063b0dfaa7a14610160578063c5a6222e14610157578063d4c9b0d11461014e5763f2fde38b1461014657600080fd5b61000e6116e3565b5061000e611638565b5061000e611610565b5061000e61152a565b5061000e611482565b5061000e61145a565b5061000e611432565b5061000e61139a565b5061000e61130e565b5061000e611292565b5061000e61126f565b5061000e611156565b5061000e61108d565b5061000e610ff5565b5061000e610e91565b5061000e610e69565b5061000e610b77565b5061000e610b30565b5061000e610a67565b5061000e610a3f565b5061000e610a22565b5061000e6106f9565b5061000e6104ba565b5061000e61049b565b5061000e61045b565b5061000e6103c3565b5061000e6102ae565b919091602080825283519081818401526000945b828610610298575050601f817fffffffffffffffffffffffffffffffffffffffffffffffffffffffffffffffe092604095961161028b575b0116010190565b6000858286010152610284565b858101820151848701604001529481019461024c565b503461000e576000806003193601126103af57604051908060cc546102d28161183f565b80855291600191808316908115610367575060011461030c575b610308856102fc81870382611924565b60405191829182610238565b0390f35b925060cc83527f47197230e1e4b29fc0bd84d7d78966c0925452aff72a2a121538b102457e9ebe5b82841061034f5750505081016020016102fc826103086102ec565b80546020858701810191909152909301928101610334565b869550610308969350602092506102fc9491507fffffffffffffffffffffffffffffffffffffffffffffffffffffffffffffff001682840152151560051b82010192936102ec565b80fd5b6001600160a01b0381160361000e57565b503461000e57602060031936011261000e577ffeb9010869b6ccec4557ddbbce947afeace5efc66cdff52c5e533c09336a8f2d6020600435610404816103b2565b6001600160a01b039061041c82603354163314611792565b16610428811515611965565b807fffffffffffffffffffffffff000000000000000000000000000000000000000060fc54161760fc55604051908152a1005b503461000e57602060031936011261000e576001600160a01b03600435610481816103b2565b166000526101006020526020604060002054604051908152f35b503461000e57600060031936011261000e57602060cb54604051908152f35b503461000e5760408060031936011261000e57600435602435906104e3600260655414156120ba565b60026065556104f760ff6097541615612013565b610502811515612105565b6cffffffffffffffffffffffffff918282116106d05761052133612c4b565b61057060fd5463ffffffff808260c01c16841015806106c2575b61054490612150565b600a610563336001600160a01b031660005260fe602052604060002090565b01549160a01c161161219b565b61058c61058561057f83612216565b42612295565b91836126ca565b9265ffffffffffff9081831161069957808511610699579161064060209694927f3af2c1ec57343b1e7e40c3f6c85f5ad943344cd8548bdf819f1da51aaebb3db69461063b600a6105f0336001600160a01b031660005260fe602052604060002090565b019161060e6105fd6119b0565b948716859065ffffffffffff169052565b6cffffffffffffffffffffffffff87821616848c015289166cffffffffffffffffffffffffff1688840152565b6122e8565b61065f8261065660fb546001600160a01b031690565b30903390612392565b61066985336125eb565b83513381526020810191909152604081019190915260608101849052608090a16106936001606555565b51908152f35b600486517f7e685645000000000000000000000000000000000000000000000000000000008152fd5b5060e082901c84111561053b565b600484517f7e685645000000000000000000000000000000000000000000000000000000008152fd5b503461000e57604060031936011261000e5760043560243590610721600260655414156120ba565b600260655561073560ff6097541615612013565b61073e33612c4b565b61075e60fd5463ffffffff8160c01c168410159081610a14575b50612150565b600a9061078b82610782336001600160a01b031660005260fe602052604060002090565b01548210612af8565b6107d16107c66107b983856107b3336001600160a01b031660005260fe602052604060002090565b016122a1565b505465ffffffffffff1690565b65ffffffffffff1690565b926108236108116107fa84866107b3336001600160a01b031660005260fe602052604060002090565b505460301c6cffffffffffffffffffffffffff1690565b6cffffffffffffffffffffffffff1690565b9061085461081161084c85876107b3336001600160a01b031660005260fe602052604060002090565b505460981c90565b9261086b61086461057f84612216565b92846126ca565b9465ffffffffffff948584116109ea576cffffffffffffffffffffffffff978888116109ea576020986109466109d5958a956109327f4540aeb1756f5a660e723ca3f8892e6a0794ef8d41979666fb7a7f5f5cd192cd9b6108d08b61098d9810612b69565b6108db898910612bda565b6108fd84846107b3336001600160a01b031660005260fe602052604060002090565b50908b1665ffffffffffff167fffffffffffffffffffffffffffffffffffffffffffffffffffff000000000000825416179055565b33600090815260fe602052604090206107b3565b5090841672ffffffffffffffffffffffffffffffffffffff7fffffffffffffffffffffffffff0000000000000000000000000000000000000083549260981b169116179055565b6109a061099a8284612800565b336125eb565b6040519485943386919260809396959491966001600160a01b0360a08501981684526020840152604083015260608201520152565b0390a16109e26001606555565b604051908152f35b60046040517f7e685645000000000000000000000000000000000000000000000000000000008152fd5b905060e01c83111538610758565b503461000e57600060031936011261000e57602060405160128152f35b503461000e57600060031936011261000e5760206001600160a01b0360fc5416604051908152f35b503461000e57600060031936011261000e57610a8f6001600160a01b03603354163314611792565b60975460ff811615610aec577fffffffffffffffffffffffffffffffffffffffffffffffffffffffffffffff00166097557f5db9ee0a495bf2e6ff9c91a7834c1ba4fdd244a5e8aa4e537bd38aeae4b073aa6020604051338152a1005b606460405162461bcd60e51b815260206004820152601460248201527f5061757361626c653a206e6f74207061757365640000000000000000000000006044820152fd5b503461000e57602060031936011261000e576020610b6d600435610b53816103b2565b6001600160a01b031660005260c960205260406000205490565b1515604051908152f35b503461000e57602060031936011261000e577f275029c7b988945c03ac5499c0d532fce79ce36efab42e1b3f180a62001cad2c600435610bbc600260655414156120ba565b6002606555610bd060ff6097541615612013565b600a610bef336001600160a01b031660005260fe602052604060002090565b0154610bfc81831061275a565b610c28610c2283600a6107b3336001600160a01b031660005260fe602052604060002090565b5061205e565b91610c47610c3f6107c6855165ffffffffffff1690565b4210156127a5565b610c50826127f0565b8103610e02575b5050610c81600a610c7b336001600160a01b031660005260fe602052604060002090565b016128ee565b610ca2610c9660fb546001600160a01b031690565b6001600160a01b031690565b60006020610d1581850193610cc485516cffffffffffffffffffffffffff1690565b6040517fa9059cbb0000000000000000000000000000000000000000000000000000000081523360048201526cffffffffffffffffffffffffff909116602482015293849283919082906044820190565b03925af18015610df5575b610dc7575b50610db8610d7a610d66610d666040860195610d5a610d5461081189516cffffffffffffffffffffffffff1690565b336129c8565b5165ffffffffffff1690565b93516cffffffffffffffffffffffffff1690565b6040805133815265ffffffffffff90941660208501526cffffffffffffffffffffffffff948516908401529290921660608201529081906080820190565b0390a1610dc56001606555565b005b610de79060203d8111610dee575b610ddf8183611924565b81019061246f565b5038610d25565b503d610dd5565b610dfd61294a565b610d20565b610e5c610e3b610e6293610e35600a610e2e336001600160a01b031660005260fe602052604060002090565b01916127f0565b906122a1565b5091600a6107b3336001600160a01b031660005260fe602052604060002090565b90612817565b3880610c57565b503461000e57600060031936011261000e5760206001600160a01b0360ff5416604051908152f35b503461000e57604060031936011261000e57600435610eaf816103b2565b602435610ebb816103b2565b6000549060ff8260081c169182600014610fec5750303b155b15610f8257610ee991159283610f1c576119d0565b610eef57005b610dc57fffffffffffffffffffffffffffffffffffffffffffffffffffffffffffff00ff60005416600055565b610f4d6101007fffffffffffffffffffffffffffffffffffffffffffffffffffffffffffff00ff6000541617600055565b610f7d60017fffffffffffffffffffffffffffffffffffffffffffffffffffffffffffffff006000541617600055565b6119d0565b608460405162461bcd60e51b815260206004820152602e60248201527f496e697469616c697a61626c653a20636f6e747261637420697320616c72656160448201527f647920696e697469616c697a65640000000000000000000000000000000000006064820152fd5b60ff1615610ed4565b503461000e57602060031936011261000e577fc6ff127433b785c51da9ae4088ee184c909b1a55b9afd82ae6c64224d3bc15d26020600435611036816103b2565b6001600160a01b039061104e82603354163314611792565b1661105a811515611965565b807fffffffffffffffffffffffff000000000000000000000000000000000000000060ff54161760ff55604051908152a1005b503461000e57600060031936011261000e57602060ff609754166040519015158152f35b60208082528251919261018084019260008386015b600a821061114157505050906101a0818094930151946101608082015285518094520193019160005b8281106110fd575050505090565b8351805165ffffffffffff168652808301516cffffffffffffffffffffffffff908116878501526040918201511690860152606090940193928101926001016110ef565b848060019285518152019301910190916110c6565b503461000e5760208060031936011261000e57600435611175816103b2565b60406060838251611185816118c2565b8351611190816118eb565b610140368237815201526001600160a01b0360009216825260fe8352808220918151926111bc846118c2565b8251818387835b600a8310611258575050505090816111dc600a936118eb565b85520193845467ffffffffffffffff811161124b575b83519295611206600583901b840185611924565b8184528652818620958284015b82821061122f57505050610308945083015251918291826110b1565b600184819261123d8b61205e565b815201980191019096611213565b611253611892565b6111f2565b6001918291855481520193019101909188906111c3565b503461000e57602060031936011261000e5760206109e2600435610b53816103b2565b503461000e576000806003193601126103af576033547fffffffffffffffffffffffff00000000000000000000000000000000000000006001600160a01b038216916112df338414611792565b1660335581604051917f8be0079c531659141344cd1fd0a4f28419497f9722a3daafe3b4186f6b6457e08284a3f35b503461000e57600060031936011261000e576113366001600160a01b03603354163314611792565b60017fffffffffffffffffffffffffffffffffffffffffffffffffffffffffffffff0060975461136960ff821615612013565b16176097557f62e78cea01bee320cd4e420270b5ea74000d11b0c9f74754ebdbfc544b05a2586020604051338152a1005b503461000e57602060031936011261000e577f3990e3e141b903f4f5602428874be692206642a653b416f336d965e2f04813ce60206004356113db816103b2565b6001600160a01b03906113f382603354163314611792565b166113ff811515611965565b807fffffffffffffffffffffffff000000000000000000000000000000000000000060fd54161760fd55604051908152a1005b503461000e57600060031936011261000e5760206001600160a01b0360335416604051908152f35b503461000e57600060031936011261000e5760206001600160a01b0360fd5416604051908152f35b503461000e576000806003193601126103af57604051908060cd546114a68161183f565b8085529160019180831690811561036757506001146114cf57610308856102fc81870382611924565b925060cd83527f83978b4c69c48dd978ab43fe30f077615294f938fb7f936d9eb340e51ea7db2e5b8284106115125750505081016020016102fc826103086102ec565b805460208587018101919091529093019281016114f7565b503461000e57604060031936011261000e57600435611548816103b2565b602435906001600160a01b03918260ff541633036115cc57600092838212611594578216835261010060205260408320805461158f939261158891612295565b9055612de9565b604051f35b9061159e90612e57565b91168252610100602052604082209081548181106115bf575b039055604051f35b6115c76121e6565b6115b7565b606460405162461bcd60e51b815260206004820152601a60248201527f5665576f6d3a2063616c6c6572206973206e6f7420766f7465720000000000006044820152fd5b503461000e57600060031936011261000e5760206001600160a01b0360fb5416604051908152f35b503461000e57602060031936011261000e576004356116636001600160a01b03603354163314611792565b63ffffffff81116109ea5760207f20fff119b2ff981a49e3649af737a2d9a9f9b4bd74c35c0448478c2bd4666a689160fd547fffffffffffffffff00000000ffffffffffffffffffffffffffffffffffffffff77ffffffff00000000000000000000000000000000000000008360a01b1691161760fd55604051908152a1005b503461000e57602060031936011261000e57600435611701816103b2565b6001600160a01b0361171881603354163314611792565b81161561172857610dc5906117dd565b608460405162461bcd60e51b815260206004820152602660248201527f4f776e61626c653a206e6577206f776e657220697320746865207a65726f206160448201527f64647265737300000000000000000000000000000000000000000000000000006064820152fd5b1561179957565b606460405162461bcd60e51b815260206004820152602060248201527f4f776e61626c653a2063616c6c6572206973206e6f7420746865206f776e65726044820152fd5b603354906001600160a01b0380911691827fffffffffffffffffffffffff0000000000000000000000000000000000000000821617603355167f8be0079c531659141344cd1fd0a4f28419497f9722a3daafe3b4186f6b6457e06000604051a3565b90600182811c92168015611888575b602083101461185957565b7f4e487b7100000000000000000000000000000000000000000000000000000000600052602260045260246000fd5b91607f169161184e565b507f4e487b7100000000000000000000000000000000000000000000000000000000600052604160045260246000fd5b6040810190811067ffffffffffffffff8211176118de57604052565b6118e6611892565b604052565b610140810190811067ffffffffffffffff8211176118de57604052565b60a0810190811067ffffffffffffffff8211176118de57604052565b90601f7fffffffffffffffffffffffffffffffffffffffffffffffffffffffffffffffe0910116810190811067ffffffffffffffff8211176118de57604052565b1561196c57565b606460405162461bcd60e51b815260206004820152600c60248201527f7a65726f206164647265737300000000000000000000000000000000000000006044820152fd5b604051906060820182811067ffffffffffffffff8211176118de57604052565b906119f26001600160a01b036119e98184161515611965565b83161515611965565b6040516119fe816118c2565b600d81526020907f576f6d62617420576164646c65000000000000000000000000000000000000008282015260405191611a37836118c2565b600583527f7665574f4d00000000000000000000000000000000000000000000000000000081840152611a8360ff60005460081c16611a7581611d0a565b611a7e81611d0a565b611d0a565b81519167ffffffffffffffff8311611cfd575b611aaa83611aa560cc5461183f565b611e1c565b81601f8411600114611c4b57509282611b68969593611ae893611b3496600092611c40575b50506000198260011b9260031b1c19161760cc55611efe565b611af0611d7b565b611af8611dd4565b611b00611d99565b6001600160a01b03167fffffffffffffffffffffffff000000000000000000000000000000000000000060fc54161760fc55565b6001600160a01b03167fffffffffffffffffffffffff000000000000000000000000000000000000000060fb54161760fb55565b611bad75271000000000000000000000000000000000000000007fffffffffffffffff00000000ffffffffffffffffffffffffffffffffffffffff60fd54161760fd55565b611bf578070000000000000000000000000000000000000000000000007fffffffff00000000ffffffffffffffffffffffffffffffffffffffffffffffff60fd54161760fd55565b611c3e7d05b5000000000000000000000000000000000000000000000000000000007bffffffffffffffffffffffffffffffffffffffffffffffffffffffff60fd54161760fd55565b565b015190503880611acf565b60cc60005291907fffffffffffffffffffffffffffffffffffffffffffffffffffffffffffffffe084167f47197230e1e4b29fc0bd84d7d78966c0925452aff72a2a121538b102457e9ebe936000905b828210611ce557505093611ae893611b34969360019383611b689b9a9810611ccc575b505050811b0160cc55611efe565b015160001960f88460031b161c19169055388080611cbe565b80600186978294978701518155019601940190611c9b565b611d05611892565b611a96565b15611d1157565b608460405162461bcd60e51b815260206004820152602b60248201527f496e697469616c697a61626c653a20636f6e7472616374206973206e6f74206960448201527f6e697469616c697a696e670000000000000000000000000000000000000000006064820152fd5b611d9060ff60005460081c16611a7e81611d0a565b611c3e336117dd565b611daa60ff60005460081c16611d0a565b7fffffffffffffffffffffffffffffffffffffffffffffffffffffffffffffff0060975416609755565b611de560ff60005460081c16611d0a565b6001606555565b507f4e487b7100000000000000000000000000000000000000000000000000000000600052600060045260246000fd5b601f8111611e28575050565b60009060cc82527f47197230e1e4b29fc0bd84d7d78966c0925452aff72a2a121538b102457e9ebe906020601f850160051c83019410611e83575b601f0160051c01915b828110611e7857505050565b818155600101611e6c565b9092508290611e63565b601f8111611e99575050565b60009060cd82527f83978b4c69c48dd978ab43fe30f077615294f938fb7f936d9eb340e51ea7db2e906020601f850160051c83019410611ef4575b601f0160051c01915b828110611ee957505050565b818155600101611edd565b9092508290611ed4565b90815167ffffffffffffffff8111612006575b611f2581611f2060cd5461183f565b611e8d565b602080601f8311600114611f605750819293600092611f55575b50506000198260011b9260031b1c19161760cd55565b015190503880611f3f565b907fffffffffffffffffffffffffffffffffffffffffffffffffffffffffffffffe0831694611fb160cd6000527f83978b4c69c48dd978ab43fe30f077615294f938fb7f936d9eb340e51ea7db2e90565b926000905b878210611fee575050836001959610611fd5575b505050811b0160cd55565b015160001960f88460031b161c19169055388080611fca565b80600185968294968601518155019501930190611fb6565b61200e611892565b611f11565b1561201a57565b606460405162461bcd60e51b815260206004820152601060248201527f5061757361626c653a20706175736564000000000000000000000000000000006044820152fd5b906040516060810181811067ffffffffffffffff8211176120ad575b604052604081935465ffffffffffff811683526cffffffffffffffffffffffffff8160301c16602084015260981c910152565b6120b5611892565b61207a565b156120c157565b606460405162461bcd60e51b815260206004820152601f60248201527f5265656e7472616e637947756172643a207265656e7472616e742063616c6c006044820152fd5b1561210c57565b606460405162461bcd60e51b815260206004820152602060248201527f616d6f756e7420746f206465706f7369742063616e6e6f74206265207a65726f6044820152fd5b1561215757565b606460405162461bcd60e51b815260206004820152601460248201527f6c6f636b206461797320697320696e76616c69640000000000000000000000006044820152fd5b156121a257565b606460405162461bcd60e51b815260206004820152600e60248201527f627265656420746f6f206d7563680000000000000000000000000000000000006044820152fd5b507f4e487b7100000000000000000000000000000000000000000000000000000000600052601160045260246000fd5b7dc22e450672894ab6cd8efb11d33f5617839a5bc7dea00c22e450672894ab8111600116612247575b620151800290565b61224f6121e6565b61223f565b6706f05b59d3b20000907ffffffffffffffffffffffffffffffffffffffffffffffffff90fa4a62c4dffff8111612289570190565b6122916121e6565b0190565b81198111612289570190565b80548210156122b95760005260206000200190600090565b7f4e487b7100000000000000000000000000000000000000000000000000000000600052603260045260246000fd5b90612310611c3e9280549068010000000000000000821015612385575b6001820181556122a1565b919091612378575b8051602082015160409092015160981b7fffffffffffffffffffffffffff000000000000000000000000000000000000001672ffffffffffffffffffffffffff00000000000060309390931b9290921665ffffffffffff90911617179055565b612380611dec565b612318565b61238d611892565b612305565b60009161244a949383926040519560208701937f23b872dd0000000000000000000000000000000000000000000000000000000085526001600160a01b03938480921660248a01521660448801526064870152606486526123f286611908565b16908260405195612402876118c2565b602087527f5361666545524332303a206c6f772d6c6576656c2063616c6c206661696c65646020880152612438843b15156124f8565b51925af1612444612543565b906125af565b805180612455575050565b8160208061246a93611c3e950101910161246f565b612487565b9081602091031261000e5751801515810361000e5790565b1561248e57565b608460405162461bcd60e51b815260206004820152602a60248201527f5361666545524332303a204552433230206f7065726174696f6e20646964206e60448201527f6f742073756363656564000000000000000000000000000000000000000000006064820152fd5b156124ff57565b606460405162461bcd60e51b815260206004820152601d60248201527f416464726573733a2063616c6c20746f206e6f6e2d636f6e74726163740000006044820152fd5b3d156125aa573d9067ffffffffffffffff821161259d575b6040519161259160207fffffffffffffffffffffffffffffffffffffffffffffffffffffffffffffffe0601f8401160184611924565b82523d6000602084013e565b6125a5611892565b61255b565b606090565b909190156125bb575090565b8151156125cb5750805190602001fd5b6125e79060405191829162461bcd60e51b835260048301610238565b0390fd5b6001600160a01b0381168015612686577f0f6798a560793a54c3bcfe86a93cde1e73087d944c0ea20544137d412139688560208461262e611c3e9660cb54612295565b60cb5561264e856001600160a01b031660005260c9602052604060002090565b612659828254612295565b9055604051908152a261267f816001600160a01b031660005260c9602052604060002090565b5490612d5e565b606460405162461bcd60e51b815260206004820152601f60248201527f45524332303a206d696e7420746f20746865207a65726f2061646472657373006044820152fd5b6127049161272f916000199161271c665cf26ab61477b89280850484118115151661274d575b670de0b6b3a7640000968794859202612254565b04928284938604821181151516612740575b02613cad565b9204821181151516612733575b02612254565b0490565b61273b6121e6565b612729565b6127486121e6565b612716565b6127556121e6565b6126f0565b1561276157565b606460405162461bcd60e51b815260206004820152600460248201527f7775743f000000000000000000000000000000000000000000000000000000006044820152fd5b156127ac57565b606460405162461bcd60e51b815260206004820152600b60248201527f6e6f7420796574206d65680000000000000000000000000000000000000000006044820152fd5b6000199060018110612289570190565b81811061280b570390565b6128136121e6565b0390565b906128e1575b818103612828575050565b815481547fffffffffffffffffffffffffffffffffffffffffffffffffffff0000000000001665ffffffffffff91909116178155611c3e91805482547fffffffffffffffffffffffffff00000000000000000000000000ffffffffffff1672ffffffffffffffffffffffffff00000000000090911617825554815472ffffffffffffffffffffffffffffffffffffff167fffffffffffffffffffffffffff00000000000000000000000000000000000000909116179055565b6128e9611dec565b61281d565b8054801561291b576000190190600061290783836122a1565b61290f575555565b612917611dec565b5555565b7f4e487b7100000000000000000000000000000000000000000000000000000000600052603160045260246000fd5b506040513d6000823e3d90fd5b1561295e57565b608460405162461bcd60e51b815260206004820152602260248201527f45524332303a206275726e20616d6f756e7420657863656564732062616c616e60448201527f63650000000000000000000000000000000000000000000000000000000000006064820152fd5b6001600160a01b0381168015612a8e577fcc16f5dbb4873280815c1ee09dbd06736cffcc184412cf7a71a0fdb75d397ca5612a6e84611c3e95612a1e866001600160a01b031660005260c9602052604060002090565b54612a2b82821015612957565b03612a49866001600160a01b031660005260c9602052604060002090565b55612a5e612a598260cb54612800565b60cb55565b6040519081529081906020820190565b0390a261267f816001600160a01b031660005260c9602052604060002090565b608460405162461bcd60e51b815260206004820152602160248201527f45524332303a206275726e2066726f6d20746865207a65726f2061646472657360448201527f73000000000000000000000000000000000000000000000000000000000000006064820152fd5b15612aff57565b608460405162461bcd60e51b815260206004820152603560248201527f736c6f7420706f736974696f6e2073686f756c64206265206c6573732074686160448201527f6e20746865206e756d626572206f6620736c6f747300000000000000000000006064820152fd5b15612b7057565b608460405162461bcd60e51b815260206004820152603760248201527f746865206e657720656e642064617465206d757374206265206772656174657260448201527f207468616e206578697374696e6720656e6420646174650000000000000000006064820152fd5b15612be157565b608460405162461bcd60e51b815260206004820152603f60248201527f746865206e6577207665576f6d20616d6f756e74206d7573742062652067726560448201527f61746572207468616e206578697374696e67207665576f6d20616d6f756e74006064820152fd5b6001600160a01b0380911690328203612c62575050565b60fd54168015159182612ce3575b505015612c7957565b608460405162461bcd60e51b815260206004820152602560248201527f536d61727420636f6e7472616374206465706f7369746f7273206e6f7420616c60448201527f6c6f7765640000000000000000000000000000000000000000000000000000006064820152fd5b60209192506024604051809481937fc23697a800000000000000000000000000000000000000000000000000000000835260048301525afa908115612d51575b600091612d33575b503880612c70565b612d4b915060203d8111610dee57610ddf8183611924565b38612d2b565b612d5961294a565b612d23565b612d6781612de9565b6001600160a01b038060fc5416803b1561000e576000928360449260405196879586947f4f00a93e00000000000000000000000000000000000000000000000000000000865216600485015260248401525af18015612ddc575b612dc85750565b67ffffffffffffffff81116118de57604052565b612de461294a565b612dc1565b6001600160a01b031660005260c960205260406000205461010060205260406000205411612e1357565b606460405162461bcd60e51b815260206004820152601660248201527f5665576f6d3a206e6f7420656e6f75676820766f7465000000000000000000006044820152fd5b600160ff1b8114612e69575b60000390565b612e716121e6565b612e63565b7ffffffffffffffffffffffffffffffffffffffffffffffffc87d2531627000000907f800000000000000000000000000000000000000000000003782dace9d90000008112600116612289570190565b7ffffffffffffffffffffffffffffffffffffffffffffffff90fa4a62c4e000000907f800000000000000000000000000000000000000000000006f05b59d3b20000008112600116612289570190565b7fffffffffffffffffffffffffffffffffffffffffffffff5287143a539e000000907f8000000000000000000000000000000000000000000000ad78ebc5ac620000008112600116612289570190565b7fffffffffffffffffffffffffffffffffffffffffffffffa9438a1d29cf000000907f800000000000000000000000000000000000000000000056bc75e2d6310000008112600116612289570190565b7fffffffffffffffffffffffffffffffffffffffffffffffd4a1c50e94e7800000907f80000000000000000000000000000000000000000000002b5e3af16b188000008112600116612289570190565b7fffffffffffffffffffffffffffffffffffffffffffffffea50e2874a73c00000907f800000000000000000000000000000000000000000000015af1d78b58c4000008112600116612289570190565b7ffffffffffffffffffffffffffffffffffffffffffffffff5287143a539e00000907f80000000000000000000000000000000000000000000000ad78ebc5ac62000008112600116612289570190565b7ffffffffffffffffffffffffffffffffffffffffffffffffa9438a1d29cf00000907f8000000000000000000000000000000000000000000000056bc75e2d631000008112600116612289570190565b7ffffffffffffffffffffffffffffffffffffffffffffffffd4a1c50e94e780000907f800000000000000000000000000000000000000000000002b5e3af16b18800008112600116612289570190565b7ffffffffffffffffffffffffffffffffffffffffffffffffea50e2874a73c0000907f8000000000000000000000000000000000000000000000015af1d78b58c400008112600116612289570190565b7fffffffffffffffffffffffffffffffffff3f68318436f8ea4cb460f000000000907f8000000000000000000000000000000000c097ce7bc90715b34b9f10000000008112600116612289570190565b7f7ffffffffffffffffffffffffffffffffffffffffffffffa9438a1d29cefffff811360011661321f575b68056bc75e2d631000000190565b6132276121e6565b613211565b60008112906803782dace9d900000091817f7fffffffffffffffffffffffffffffffffffffffffffffffffffffffffffffff03831381151661327b575b81600160ff1b03831216612289570190565b6132836121e6565b613269565b600081129068ad78ebc5ac6200000091817f7fffffffffffffffffffffffffffffffffffffffffffffffffffffffffffffff03831381151661327b5781600160ff1b03831216612289570190565b60008112906856bc75e2d63100000091817f7fffffffffffffffffffffffffffffffffffffffffffffffffffffffffffffff03831381151661327b5781600160ff1b03831216612289570190565b6000811290682b5e3af16b1880000091817f7fffffffffffffffffffffffffffffffffffffffffffffffffffffffffffffff03831381151661327b5781600160ff1b03831216612289570190565b60008112906815af1d78b58c40000091817f7fffffffffffffffffffffffffffffffffffffffffffffffffffffffffffffff03831381151661327b5781600160ff1b03831216612289570190565b6000811290680ad78ebc5ac620000091817f7fffffffffffffffffffffffffffffffffffffffffffffffffffffffffffffff03831381151661327b5781600160ff1b03831216612289570190565b600081129068056bc75e2d6310000091817f7fffffffffffffffffffffffffffffffffffffffffffffffffffffffffffffff03831381151661327b5781600160ff1b03831216612289570190565b60008112906802b5e3af16b188000091817f7fffffffffffffffffffffffffffffffffffffffffffffffffffffffffffffff03831381151661327b5781600160ff1b03831216612289570190565b600081129068015af1d78b58c4000091817f7fffffffffffffffffffffffffffffffffffffffffffffffffffffffffffffff03831381151661327b5781600160ff1b03831216612289570190565b600081129067ad78ebc5ac62000091817f7fffffffffffffffffffffffffffffffffffffffffffffffffffffffffffffff03831381151661327b5781600160ff1b03831216612289570190565b60008112906756bc75e2d631000091817f7fffffffffffffffffffffffffffffffffffffffffffffffffffffffffffffff03831381151661327b5781600160ff1b03831216612289570190565b60008112906ec097ce7bc90715b34b9f100000000091817f7fffffffffffffffffffffffffffffffffffffffffffffffffffffffffffffff03831381151661327b5781600160ff1b03831216612289570190565b60008112817f7fffffffffffffffffffffffffffffffffffffffffffffffffffffffffffffff03831381151661327b5781600160ff1b03831216612289570190565b60649060017f0147ae147ae147ae147ae147ae147ae147ae147ae147ae147ae147ae147ae147821160008313161661369a575b60017ffeb851eb851eb851eb851eb851eb851eb851eb851eb851eb851eb851eb851eb9821260008312161661368e570290565b6136966121e6565b0290565b6136a26121e6565b61365b565b6b02df0ab5a80a22c61ab5a700906001742c946c2bbca77c51fd5dbb9b6b977eb57ae2a48102821160008313161661370d575b60017fffffffffffffffffffffffd36b93d4435883ae02a244649468814a851d5b7efe821260008312161661368e570290565b6137156121e6565b6136da565b693f1fce3da636ea5cf8509060017602071a702111fbea2c24c1f0a7775c81684ed1aa2d00308211600083131616613780575b60017ffffffffffffffffffffdf8e58fdeee0415d3db3e0f5888a37e97b12e55d2ffd0821260008312161661368e570290565b6137886121e6565b61374d565b690127fa27722cc06cc5e2906001766eb614127829fdc13a3ecbf3403f628ab3ac34d34e0c8182116000831316166137f3575b60017fffffffffffffffffff9149ebed87d6023ec5c1340cbfc09d754c53cb2cb1f37f821260008312161661368e570290565b6137fb6121e6565b6137c0565b68280e60114edb805d039060017703320d351227ed0e191fe0057d88b3d353d790bc64ae52838211600083131616613866575b60017ffffffffffffffffffccdf2caedd812f1e6e01ffa82774c2cac286f439b51ad7d821260008312161661368e570290565b61386e6121e6565b613833565b680ebc5fb417461211109060017708afb1dcc10223b496190e5924ceb5c883d30f51acd9577e82116000831316166138d9575b60017ffffffffffffffffff7504e233efddc4b69e6f1a6db314a377c2cf0ae5326a882821260008312161661368e570290565b6138e16121e6565b6138a6565b6808f00f760a4b2db55d906001770e5240bc6352d0b85e32903aa78bdb23e04ceb6de5bc9d7f821160008313161661394c575b60017ffffffffffffffffff1adbf439cad2f47a1cd6fc5587424dc1fb314921a436281821260008312161661368e570290565b6139546121e6565b613919565b6806f5f17757889379379060017712638fd7097e98a815affbc7cb0eb130448889a9ffa568b282116000831316166139bf575b60017fffffffffffffffffed9c7028f6816757ea50043834f14ecfbb777656005a974e821260008312161661368e570290565b6139c76121e6565b61398c565b68056bc75e2d6310000090600177179ca10c9242235d511e976394d79eb08303d500b3eeca658211600083131616613a32575b60017fffffffffffffffffe8635ef36dbddca2aee1689c6b28614f7cfc2aff4c11359b821260008312161661368e570290565b613a3a6121e6565b6139ff565b60017f3fffffffffffffffffffffffffffffffffffffffffffffffffffffffffffffff8211600083131616613ab2575b60017fc0000000000000000000000000000000000000000000000000000000000000008212600083121616613aa5575b60011b90565b613aad6121e6565b613a9f565b613aba6121e6565b613a6f565b6ec097ce7bc90715b34b9f100000000090600170aa242499697392d2dde50bd1d5d0b9e9ea8211600083131616613b24575b60017fffffffffffffffffffffffffffffff55dbdb66968c6d2d221af42e2a2f461616821260008312161661368e570290565b613b2c6121e6565b613af1565b6706f05b59d3b200009060017812725dd1d243aba0e75fe645cc4873f9e65afe688c928e1f218211600083131616613b97575b60017fffffffffffffffed8da22e2dbc545f18a019ba33b78c0619a50197736d71e0df821260008312161661368e570290565b613b9f6121e6565b613b64565b600082136000821390837f7fffffffffffffffffffffffffffffffffffffffffffffffffffffffffffffff818104851183851616613c30575b6000821292600160ff1b94848787058512911616613c23575b82600087129505861290851616613c16575b05831291161661368e570290565b613c1e6121e6565b613c08565b613c2b6121e6565b613bf6565b613c386121e6565b613bdd565b8015613c57576ec097ce7bc90715b34b9f10000000000590565b7f4e487b7100000000000000000000000000000000000000000000000000000000600052601260045260246000fd5b8115613c57576000198214600160ff1b821416613ca1570590565b613ca96121e6565b0590565b8015613dcf57600160ff1b811015613d9157670de0b6b3a7640000613d549180670c7d713b49da00001280613d80575b15613d6a57613cee613d1b916146c9565b613d15613d0784613d00818505613b31565b9307613b31565b670de0b6b3a7640000900590565b906135e6565b05807ffffffffffffffffffffffffffffffffffffffffffffffffdc702bd3a30fc0000131580613d57575b613d4f90613dd5565b613e5f565b90565b5068070c1cc73b00c80000811315613d46565b613d76613d7b91614290565b613b31565b613d1b565b50670f43fc2c04ee00008112613cdd565b62461bcd60e51b600052602060045260076024527f42414c233030360000000000000000000000000000000000000000000000000060445260646000fd5b50600090565b15613ddc57565b62461bcd60e51b600052602060045260076024527f42414c233030380000000000000000000000000000000000000000000000000060445260646000fd5b15613e2157565b62461bcd60e51b600052602060045260076024527f42414c233030390000000000000000000000000000000000000000000000000060445260646000fd5b7ffffffffffffffffffffffffffffffffffffffffffffffffdc702bd3a30fc00008112158061427d575b613e9290613e1a565b60008112614268576806f05b59d3b2000000811261422e57613eb390612ec6565b613ed5770195e54c5dd42177f53a27172fa9ec63026282700000000091613628565b8068056bc75e2d631000009168ad78ebc5ac6200000081121561420b575b506856bc75e2d6310000008112156141f0575b682b5e3af16b188000008112156141d5575b6815af1d78b58c4000008112156141ba575b680ad78ebc5ac620000081121561419f575b68056bc75e2d63100000811215614184575b6802b5e3af16b1880000811215614169575b68015af1d78b58c4000081121561413f575b808080808080808080613f84816131e6565b613f8e8280613ba4565b68056bc75e2d631000009005600290059081613fa9916135e6565b91613fb391613ba4565b68056bc75e2d631000009005600390059081613fce916135e6565b91613fd891613ba4565b68056bc75e2d631000009005600490059081613ff3916135e6565b91613ffd91613ba4565b68056bc75e2d631000009005600590059081614018916135e6565b9161402291613ba4565b68056bc75e2d63100000900560069005908161403d916135e6565b9161404791613ba4565b68056bc75e2d631000009005600790059081614062916135e6565b9161406c91613ba4565b68056bc75e2d631000009005600890059081614087916135e6565b9161409191613ba4565b68056bc75e2d6310000090056009900590816140ac916135e6565b916140b691613ba4565b68056bc75e2d631000009005600a900590816140d1916135e6565b916140db91613ba4565b68056bc75e2d631000009005600b900590816140f6916135e6565b9161410091613ba4565b68056bc75e2d631000009005600c9005614119916135e6565b61412291613ba4565b68056bc75e2d6310000090059061413891613ba4565b6064900590565b61415461414e61416392613146565b92613959565b68056bc75e2d63100000900590565b90613f72565b61415461417861417e926130f6565b926138e6565b90613f60565b614154614193614199926130a6565b92613873565b90613f4e565b6141546141ae6141b492613056565b92613800565b90613f3c565b6141546141c96141cf92613006565b9261378d565b90613f2a565b6141546141e46141ea92612fb6565b9261371a565b90613f18565b6141546141ff61420592612f66565b926136a7565b90613f06565b90506142179150612f16565b6e01855144814a7ff805980ff00840009038613ef3565b6803782dace9d9000000811261425d5761424790612e76565b613ed56b1425982cf597cd205cef738091613628565b613ed5600191613628565b613d4f61427491612e57565b613d5490613c3d565b5068070c1cc73b00c80000811315613e89565b670de0b6b3a764000081126146af57614138613d549160007e1600ef3172e58d2e933ec884fde10064c63b5372d805e203c0000000000000821215614684575b73011798004d755d3c8bc8e03204cf44619e000000821215614661575b6142f690613628565b6143008192613628565b90816e01855144814a7ff805980ff0084000811215614602575b505061447e6005613d1561447761415461444f6144716144666141546144048a6b02df0ab5a80a22c61ab5a700613d159c12156145d5575b693f1fce3da636ea5cf8508112156145aa575b690127fa27722cc06cc5e281121561457f575b68280e60114edb805d03811215614555575b680ebc5fb4174612111081121561452b575b6808f00f760a4b2db55d811215614501575b6806f5f17757889379378112156144d7575b6806248f33704b2866038112156144ad575b6805c548670b9510e7ac811215614483575b6143fe6143f86143f3836130a6565b6139cc565b9161340e565b90613c86565b61446061445561415461441a6141548580613ba4565b8098856144466141548461444061443561415483809d613ba4565b9460038605906135e6565b93613ba4565b9e8f05906135e6565b9c613ba4565b9960078b05906135e6565b98613ba4565b9560098705906135e6565b94613ba4565b600b900590565b613a3f565b6144a16144926144a7926139cc565b6805c548670b9510e7ac900590565b9c613545565b9b6143e4565b6144cb6144bc6144d1926139cc565b6806248f33704b286603900590565b9c6134f8565b9b6143d2565b6144f56144e66144fb926139cc565b6806f5f1775788937937900590565b9c6134aa565b9b6143c0565b61451f614510614525926139cc565b6808f00f760a4b2db55d900590565b9c61345c565b9b6143ae565b61454961453a61454f926139cc565b680ebc5fb41746121110900590565b9c61340e565b9b61439c565b614573614564614579926139cc565b68280e60114edb805d03900590565b9c6133c0565b9b61438a565b61459e61458e6145a4926139cc565b690127fa27722cc06cc5e2900590565b9c613372565b9b614378565b6145c96145b96145cf926139cc565b693f1fce3da636ea5cf850900590565b9c613324565b9b614365565b6145f66145e46145fc926139cc565b6b02df0ab5a80a22c61ab5a700900590565b9c6132d6565b9b614352565b61447e919350613d159250613d1561447761415461444f61447161446661415461440461465161464b61463660059b6139cc565b6e01855144814a7ff805980ff0084000900590565b9c613288565b9b9a50505050505050505061431a565b9061467d6b1425982cf597cd205cef73806142f692059261322c565b90506142ed565b50770195e54c5dd42177f53a27172fa9ec63026282700000000090056806f05b59d3b20000006142d0565b6146bb6146c091613c3d565b614290565b613d5490612e57565b670de0b6b3a76400009060017809392ee8e921d5d073aff322e62439fcf32d7f344649470f9082116000831316166148af575b60017ffffffffffffffff6c6d11716de2a2f8c500cdd19dbc6030cd280cbb9b6b8f07082126000831216166148a2575b0261473681613196565b61473f90613abf565b9061474990613592565b61475291613c86565b61475c8180613ba4565b6ec097ce7bc90715b34b9f10000000009005808080808561477e828098613ba4565b6ec097ce7bc90715b34b9f10000000009005906003820561479e916135e6565b916147a891613ba4565b6ec097ce7bc90715b34b9f1000000000900590600582056147c8916135e6565b916147d291613ba4565b6ec097ce7bc90715b34b9f1000000000900590600782056147f2916135e6565b916147fc91613ba4565b6ec097ce7bc90715b34b9f10000000009005906009820561481c916135e6565b9161482691613ba4565b6ec097ce7bc90715b34b9f1000000000900590600b8205614846916135e6565b9161485091613ba4565b6ec097ce7bc90715b34b9f1000000000900590600d8205614870916135e6565b9161487a91613ba4565b6ec097ce7bc90715b34b9f10000000009005600f9005614899916135e6565b613d5490613a3f565b6148aa6121e6565b61472c565b6148b76121e6565b6146fc56fea26469706673582212205c330aa10b8a07a501d4c8926cf500f4037a31b78675ce8eaf4055510dcbf91064736f6c634300080f0033",
  "devdoc": {
    "kind": "dev",
    "methods": {
      "balanceOf(address)": {
        "details": "explicity override multiple inheritance"
      },
      "decimals()": {
        "details": "Returns the number of decimals used to get its user representation. For example, if `decimals` equals `2`, a balance of `505` tokens should be displayed to a user as `5.05` (`505 / 10 ** 2`). Tokens usually opt for a value of 18, imitating the relationship between Ether and Wei. This is the value {ERC20} uses, unless this function is overridden; NOTE: This information is only used for _display_ purposes: it in no way affects any of the arithmetic of the contract, including {IERC20-balanceOf} and {IERC20-transfer}."
      },
      "isUser(address)": {
        "params": {
          "_addr": "the user address to check"
        },
        "returns": {
          "_0": "true if the user has wom in stake, false otherwise"
        }
      },
      "name()": {
        "details": "Returns the name of the token."
      },
      "owner()": {
        "details": "Returns the address of the current owner."
      },
      "pause()": {
        "details": "pause pool, restricting certain operations"
      },
      "paused()": {
        "details": "Returns true if the contract is paused, and false otherwise."
      },
      "renounceOwnership()": {
        "details": "Leaves the contract without owner. It will not be possible to call `onlyOwner` functions anymore. Can only be called by the current owner. NOTE: Renouncing ownership will leave the contract without an owner, thereby removing any functionality that is only available to the owner."
      },
      "setMasterWombat(address)": {
        "params": {
          "_masterWombat": "the new masterWombat address"
        }
      },
      "setVoter(address)": {
        "params": {
          "_voter": "the new NFT contract address"
        }
      },
      "setWhitelist(address)": {
        "params": {
          "_whitelist": "the new whitelist address"
        }
      },
      "symbol()": {
        "details": "Returns the symbol of the token, usually a shorter version of the name."
      },
      "totalSupply()": {
        "details": "explicity override multiple inheritance"
      },
      "transferOwnership(address)": {
        "details": "Transfers ownership of the contract to a new account (`newOwner`). Can only be called by the current owner."
      },
      "unpause()": {
        "details": "unpause pool, enabling certain operations"
      },
      "update(uint256,uint256)": {
        "params": {
          "lockDays": "the new lock days (it should be larger than original lock days)",
          "slot": "the veWOM slot"
        }
      }
    },
    "stateVariables": {
      "whitelist": {
        "details": "contract addresses are by default unable to stake wom, they must be previously whitelisted to stake wom"
      }
    },
    "title": "VeWom",
    "version": 1
  },
  "userdoc": {
    "kind": "user",
    "methods": {
      "isUser(address)": {
        "notice": "checks wether user _addr has wom staked"
      },
      "masterWombat()": {
        "notice": "the masterWombat contract"
      },
      "mint(uint256,uint256)": {
        "notice": "lock WOM into contract and mint veWOM"
      },
      "setMasterWombat(address)": {
        "notice": "sets masterWombat address"
      },
      "setVoter(address)": {
        "notice": "sets voter contract address"
      },
      "setWhitelist(address)": {
        "notice": "sets whitelist address"
      },
      "update(uint256,uint256)": {
        "notice": "update the WOM lock days such that the end date is `now` + `lockDays`"
      },
      "usedVote(address)": {
        "notice": "amount of vote used currently for each user"
      },
      "voter()": {
        "notice": "Address of the Voter contract"
      },
      "whitelist()": {
        "notice": "whitelist wallet checker"
      },
      "wom()": {
        "notice": "the wom token"
      }
    },
    "notice": "Wombat Waddle: the staking contract for WOM, as well as the token used for governance. Note Waddling does not seem to slow the Wombat, it only makes it sturdier. Note that it's ownable and the owner wields tremendous power. The ownership will be transferred to a governance smart contract once Wombat is sufficiently distributed and the community can show to govern itself.",
    "version": 1
  },
  "storageLayout": {
    "storage": [
      {
        "astId": 130,
        "contract": "contracts/wombat-governance/VeWom.sol:VeWom",
        "label": "_initialized",
        "offset": 0,
        "slot": "0",
        "type": "t_bool"
      },
      {
        "astId": 133,
        "contract": "contracts/wombat-governance/VeWom.sol:VeWom",
        "label": "_initializing",
        "offset": 1,
        "slot": "0",
        "type": "t_bool"
      },
      {
        "astId": 651,
        "contract": "contracts/wombat-governance/VeWom.sol:VeWom",
        "label": "__gap",
        "offset": 0,
        "slot": "1",
        "type": "t_array(t_uint256)50_storage"
      },
      {
        "astId": 10,
        "contract": "contracts/wombat-governance/VeWom.sol:VeWom",
        "label": "_owner",
        "offset": 0,
        "slot": "51",
        "type": "t_address"
      },
      {
        "astId": 122,
        "contract": "contracts/wombat-governance/VeWom.sol:VeWom",
        "label": "__gap",
        "offset": 0,
        "slot": "52",
        "type": "t_array(t_uint256)49_storage"
      },
      {
        "astId": 322,
        "contract": "contracts/wombat-governance/VeWom.sol:VeWom",
        "label": "_status",
        "offset": 0,
        "slot": "101",
        "type": "t_uint256"
      },
      {
        "astId": 366,
        "contract": "contracts/wombat-governance/VeWom.sol:VeWom",
        "label": "__gap",
        "offset": 0,
        "slot": "102",
        "type": "t_array(t_uint256)49_storage"
      },
      {
        "astId": 218,
        "contract": "contracts/wombat-governance/VeWom.sol:VeWom",
        "label": "_paused",
        "offset": 0,
        "slot": "151",
        "type": "t_bool"
      },
      {
        "astId": 307,
        "contract": "contracts/wombat-governance/VeWom.sol:VeWom",
        "label": "__gap",
        "offset": 0,
        "slot": "152",
        "type": "t_array(t_uint256)49_storage"
      },
      {
        "astId": 15990,
        "contract": "contracts/wombat-governance/VeWom.sol:VeWom",
        "label": "_balances",
        "offset": 0,
        "slot": "201",
        "type": "t_mapping(t_address,t_uint256)"
      },
      {
        "astId": 15996,
        "contract": "contracts/wombat-governance/VeWom.sol:VeWom",
        "label": "_allowances",
        "offset": 0,
        "slot": "202",
        "type": "t_mapping(t_address,t_mapping(t_address,t_uint256))"
      },
      {
        "astId": 15998,
        "contract": "contracts/wombat-governance/VeWom.sol:VeWom",
        "label": "_totalSupply",
        "offset": 0,
        "slot": "203",
        "type": "t_uint256"
      },
      {
        "astId": 16000,
        "contract": "contracts/wombat-governance/VeWom.sol:VeWom",
        "label": "_name",
        "offset": 0,
        "slot": "204",
        "type": "t_string_storage"
      },
      {
        "astId": 16002,
        "contract": "contracts/wombat-governance/VeWom.sol:VeWom",
        "label": "_symbol",
        "offset": 0,
        "slot": "205",
        "type": "t_string_storage"
      },
      {
        "astId": 16241,
        "contract": "contracts/wombat-governance/VeWom.sol:VeWom",
        "label": "__gap",
        "offset": 0,
        "slot": "206",
        "type": "t_array(t_uint256)45_storage"
      },
      {
        "astId": 16292,
        "contract": "contracts/wombat-governance/VeWom.sol:VeWom",
        "label": "wom",
        "offset": 0,
        "slot": "251",
        "type": "t_contract(IERC20)1420"
      },
      {
        "astId": 16296,
        "contract": "contracts/wombat-governance/VeWom.sol:VeWom",
        "label": "masterWombat",
        "offset": 0,
        "slot": "252",
        "type": "t_contract(IMasterWombat)19172"
      },
      {
        "astId": 16300,
        "contract": "contracts/wombat-governance/VeWom.sol:VeWom",
        "label": "whitelist",
        "offset": 0,
        "slot": "253",
        "type": "t_contract(IWhitelist)19547"
      },
      {
        "astId": 16302,
        "contract": "contracts/wombat-governance/VeWom.sol:VeWom",
        "label": "maxBreedingLength",
        "offset": 20,
        "slot": "253",
        "type": "t_uint32"
      },
      {
        "astId": 16304,
        "contract": "contracts/wombat-governance/VeWom.sol:VeWom",
        "label": "minLockDays",
        "offset": 24,
        "slot": "253",
        "type": "t_uint32"
      },
      {
        "astId": 16306,
        "contract": "contracts/wombat-governance/VeWom.sol:VeWom",
        "label": "maxLockDays",
        "offset": 28,
        "slot": "253",
        "type": "t_uint32"
      },
      {
        "astId": 16312,
        "contract": "contracts/wombat-governance/VeWom.sol:VeWom",
        "label": "users",
        "offset": 0,
        "slot": "254",
        "type": "t_mapping(t_address,t_struct(UserInfo)19476_storage)"
      },
      {
        "astId": 16315,
        "contract": "contracts/wombat-governance/VeWom.sol:VeWom",
        "label": "voter",
        "offset": 0,
        "slot": "255",
        "type": "t_address"
      },
      {
        "astId": 16320,
        "contract": "contracts/wombat-governance/VeWom.sol:VeWom",
        "label": "usedVote",
        "offset": 0,
        "slot": "256",
        "type": "t_mapping(t_address,t_uint256)"
      }
    ],
    "types": {
      "t_address": {
        "encoding": "inplace",
        "label": "address",
        "numberOfBytes": "20"
      },
      "t_array(t_struct(Breeding)19467_storage)dyn_storage": {
        "base": "t_struct(Breeding)19467_storage",
        "encoding": "dynamic_array",
        "label": "struct IVeWom.Breeding[]",
        "numberOfBytes": "32"
      },
      "t_array(t_uint256)10_storage": {
        "base": "t_uint256",
        "encoding": "inplace",
        "label": "uint256[10]",
        "numberOfBytes": "320"
      },
      "t_array(t_uint256)45_storage": {
        "base": "t_uint256",
        "encoding": "inplace",
        "label": "uint256[45]",
        "numberOfBytes": "1440"
      },
      "t_array(t_uint256)49_storage": {
        "base": "t_uint256",
        "encoding": "inplace",
        "label": "uint256[49]",
        "numberOfBytes": "1568"
      },
      "t_array(t_uint256)50_storage": {
        "base": "t_uint256",
        "encoding": "inplace",
        "label": "uint256[50]",
        "numberOfBytes": "1600"
      },
      "t_bool": {
        "encoding": "inplace",
        "label": "bool",
        "numberOfBytes": "1"
      },
      "t_contract(IERC20)1420": {
        "encoding": "inplace",
        "label": "contract IERC20",
        "numberOfBytes": "20"
      },
      "t_contract(IMasterWombat)19172": {
        "encoding": "inplace",
        "label": "contract IMasterWombat",
        "numberOfBytes": "20"
      },
      "t_contract(IWhitelist)19547": {
        "encoding": "inplace",
        "label": "contract IWhitelist",
        "numberOfBytes": "20"
      },
      "t_mapping(t_address,t_mapping(t_address,t_uint256))": {
        "encoding": "mapping",
        "key": "t_address",
        "label": "mapping(address => mapping(address => uint256))",
        "numberOfBytes": "32",
        "value": "t_mapping(t_address,t_uint256)"
      },
      "t_mapping(t_address,t_struct(UserInfo)19476_storage)": {
        "encoding": "mapping",
        "key": "t_address",
        "label": "mapping(address => struct IVeWom.UserInfo)",
        "numberOfBytes": "32",
        "value": "t_struct(UserInfo)19476_storage"
      },
      "t_mapping(t_address,t_uint256)": {
        "encoding": "mapping",
        "key": "t_address",
        "label": "mapping(address => uint256)",
        "numberOfBytes": "32",
        "value": "t_uint256"
      },
      "t_string_storage": {
        "encoding": "bytes",
        "label": "string",
        "numberOfBytes": "32"
      },
      "t_struct(Breeding)19467_storage": {
        "encoding": "inplace",
        "label": "struct IVeWom.Breeding",
        "members": [
          {
            "astId": 19462,
            "contract": "contracts/wombat-governance/VeWom.sol:VeWom",
            "label": "unlockTime",
            "offset": 0,
            "slot": "0",
            "type": "t_uint48"
          },
          {
            "astId": 19464,
            "contract": "contracts/wombat-governance/VeWom.sol:VeWom",
            "label": "womAmount",
            "offset": 6,
            "slot": "0",
            "type": "t_uint104"
          },
          {
            "astId": 19466,
            "contract": "contracts/wombat-governance/VeWom.sol:VeWom",
            "label": "veWomAmount",
            "offset": 19,
            "slot": "0",
            "type": "t_uint104"
          }
        ],
        "numberOfBytes": "32"
      },
      "t_struct(UserInfo)19476_storage": {
        "encoding": "inplace",
        "label": "struct IVeWom.UserInfo",
        "members": [
          {
            "astId": 19471,
            "contract": "contracts/wombat-governance/VeWom.sol:VeWom",
            "label": "reserved",
            "offset": 0,
            "slot": "0",
            "type": "t_array(t_uint256)10_storage"
          },
          {
            "astId": 19475,
            "contract": "contracts/wombat-governance/VeWom.sol:VeWom",
            "label": "breedings",
            "offset": 0,
            "slot": "10",
            "type": "t_array(t_struct(Breeding)19467_storage)dyn_storage"
          }
        ],
        "numberOfBytes": "352"
      },
      "t_uint104": {
        "encoding": "inplace",
        "label": "uint104",
        "numberOfBytes": "13"
      },
      "t_uint256": {
        "encoding": "inplace",
        "label": "uint256",
        "numberOfBytes": "32"
      },
      "t_uint32": {
        "encoding": "inplace",
        "label": "uint32",
        "numberOfBytes": "4"
      },
      "t_uint48": {
        "encoding": "inplace",
        "label": "uint48",
        "numberOfBytes": "6"
      }
    }
  }
}