{
  "address": "0x3427886b75E6c50C985104f11Bce9aE28444D918",
  "abi": [
    {
      "inputs": [],
      "name": "WOMBAT_AMOUNT_TOO_LOW",
      "type": "error"
    },
    {
      "inputs": [],
      "name": "WOMBAT_ASSET_ALREADY_EXIST",
      "type": "error"
    },
    {
      "inputs": [],
      "name": "WOMBAT_ASSET_ALREADY_PAUSED",
      "type": "error"
    },
    {
      "inputs": [],
      "name": "WOMBAT_ASSET_NOT_EXISTS",
      "type": "error"
    },
    {
      "inputs": [],
      "name": "WOMBAT_ASSET_NOT_PAUSED",
      "type": "error"
    },
    {
      "inputs": [],
      "name": "WOMBAT_CASH_NOT_ENOUGH",
      "type": "error"
    },
    {
      "inputs": [],
      "name": "WOMBAT_COV_RATIO_LIMIT_EXCEEDED",
      "type": "error"
    },
    {
      "inputs": [],
      "name": "WOMBAT_EXPIRED",
      "type": "error"
    },
    {
      "inputs": [],
      "name": "WOMBAT_FORBIDDEN",
      "type": "error"
    },
    {
      "inputs": [],
      "name": "WOMBAT_INVALID_VALUE",
      "type": "error"
    },
    {
      "inputs": [],
      "name": "WOMBAT_SAME_ADDRESS",
      "type": "error"
    },
    {
      "inputs": [],
      "name": "WOMBAT_ZERO_ADDRESS",
      "type": "error"
    },
    {
      "inputs": [],
      "name": "WOMBAT_ZERO_AMOUNT",
      "type": "error"
    },
    {
      "inputs": [],
      "name": "WOMBAT_ZERO_LIQUIDITY",
      "type": "error"
    },
    {
      "anonymous": false,
      "inputs": [
        {
          "indexed": true,
          "internalType": "address",
          "name": "token",
          "type": "address"
        },
        {
          "indexed": true,
          "internalType": "address",
          "name": "asset",
          "type": "address"
        }
      ],
      "name": "AssetAdded",
      "type": "event"
    },
    {
      "anonymous": false,
      "inputs": [
        {
          "indexed": true,
          "internalType": "address",
          "name": "token",
          "type": "address"
        },
        {
          "indexed": true,
          "internalType": "address",
          "name": "asset",
          "type": "address"
        }
      ],
      "name": "AssetRemoved",
      "type": "event"
    },
    {
      "anonymous": false,
      "inputs": [
        {
          "indexed": true,
          "internalType": "address",
          "name": "sender",
          "type": "address"
        },
        {
          "indexed": false,
          "internalType": "address",
          "name": "token",
          "type": "address"
        },
        {
          "indexed": false,
          "internalType": "uint256",
          "name": "amount",
          "type": "uint256"
        },
        {
          "indexed": false,
          "internalType": "uint256",
          "name": "liquidity",
          "type": "uint256"
        },
        {
          "indexed": true,
          "internalType": "address",
          "name": "to",
          "type": "address"
        }
      ],
      "name": "Deposit",
      "type": "event"
    },
    {
      "anonymous": false,
      "inputs": [
        {
          "indexed": false,
          "internalType": "address",
          "name": "token",
          "type": "address"
        },
        {
          "indexed": false,
          "internalType": "uint256",
          "name": "amount",
          "type": "uint256"
        }
      ],
      "name": "FillPool",
      "type": "event"
    },
    {
      "anonymous": false,
      "inputs": [
        {
          "indexed": false,
          "internalType": "uint8",
          "name": "version",
          "type": "uint8"
        }
      ],
      "name": "Initialized",
      "type": "event"
    },
    {
      "anonymous": false,
      "inputs": [
        {
          "indexed": true,
          "internalType": "address",
          "name": "previousOwner",
          "type": "address"
        },
        {
          "indexed": true,
          "internalType": "address",
          "name": "newOwner",
          "type": "address"
        }
      ],
      "name": "OwnershipTransferred",
      "type": "event"
    },
    {
      "anonymous": false,
      "inputs": [
        {
          "indexed": false,
          "internalType": "address",
          "name": "account",
          "type": "address"
        }
      ],
      "name": "Paused",
      "type": "event"
    },
    {
      "anonymous": false,
      "inputs": [
        {
          "indexed": false,
          "internalType": "address",
          "name": "token",
          "type": "address"
        },
        {
          "indexed": false,
          "internalType": "address",
          "name": "account",
          "type": "address"
        }
      ],
      "name": "PausedAsset",
      "type": "event"
    },
    {
      "anonymous": false,
      "inputs": [
        {
          "indexed": false,
          "internalType": "uint256",
          "name": "value",
          "type": "uint256"
        }
      ],
      "name": "SetAmpFactor",
      "type": "event"
    },
    {
      "anonymous": false,
      "inputs": [
        {
          "indexed": false,
          "internalType": "address",
          "name": "addr",
          "type": "address"
        }
      ],
      "name": "SetDev",
      "type": "event"
    },
    {
      "anonymous": false,
      "inputs": [
        {
          "indexed": false,
          "internalType": "uint256",
          "name": "lpDividendRatio",
          "type": "uint256"
        },
        {
          "indexed": false,
          "internalType": "uint256",
          "name": "retentionRatio",
          "type": "uint256"
        }
      ],
      "name": "SetFee",
      "type": "event"
    },
    {
      "anonymous": false,
      "inputs": [
        {
          "indexed": false,
          "internalType": "address",
          "name": "addr",
          "type": "address"
        }
      ],
      "name": "SetFeeTo",
      "type": "event"
    },
    {
      "anonymous": false,
      "inputs": [
        {
          "indexed": false,
          "internalType": "uint256",
          "name": "value",
          "type": "uint256"
        }
      ],
      "name": "SetHaircutRate",
      "type": "event"
    },
    {
      "anonymous": false,
      "inputs": [
        {
          "indexed": false,
          "internalType": "address",
          "name": "addr",
          "type": "address"
        }
      ],
      "name": "SetMasterWombat",
      "type": "event"
    },
    {
      "anonymous": false,
      "inputs": [
        {
          "indexed": false,
          "internalType": "uint256",
          "name": "value",
          "type": "uint256"
        }
      ],
      "name": "SetMintFeeThreshold",
      "type": "event"
    },
    {
      "anonymous": false,
      "inputs": [
        {
          "indexed": false,
          "internalType": "uint256",
          "name": "value",
          "type": "uint256"
        }
      ],
      "name": "SetWithdrawalHaircutRate",
      "type": "event"
    },
    {
      "anonymous": false,
      "inputs": [
        {
          "indexed": true,
          "internalType": "address",
          "name": "sender",
          "type": "address"
        },
        {
          "indexed": false,
          "internalType": "address",
          "name": "fromToken",
          "type": "address"
        },
        {
          "indexed": false,
          "internalType": "address",
          "name": "toToken",
          "type": "address"
        },
        {
          "indexed": false,
          "internalType": "uint256",
          "name": "fromAmount",
          "type": "uint256"
        },
        {
          "indexed": false,
          "internalType": "uint256",
          "name": "toAmount",
          "type": "uint256"
        },
        {
          "indexed": true,
          "internalType": "address",
          "name": "to",
          "type": "address"
        }
      ],
      "name": "Swap",
      "type": "event"
    },
    {
      "anonymous": false,
      "inputs": [
        {
          "indexed": false,
          "internalType": "address",
          "name": "token",
          "type": "address"
        },
        {
          "indexed": false,
          "internalType": "uint256",
          "name": "amount",
          "type": "uint256"
        },
        {
          "indexed": false,
          "internalType": "address",
          "name": "to",
          "type": "address"
        }
      ],
      "name": "TransferTipBucket",
      "type": "event"
    },
    {
      "anonymous": false,
      "inputs": [
        {
          "indexed": false,
          "internalType": "address",
          "name": "account",
          "type": "address"
        }
      ],
      "name": "Unpaused",
      "type": "event"
    },
    {
      "anonymous": false,
      "inputs": [
        {
          "indexed": false,
          "internalType": "address",
          "name": "token",
          "type": "address"
        },
        {
          "indexed": false,
          "internalType": "address",
          "name": "account",
          "type": "address"
        }
      ],
      "name": "UnpausedAsset",
      "type": "event"
    },
    {
      "anonymous": false,
      "inputs": [
        {
          "indexed": true,
          "internalType": "address",
          "name": "sender",
          "type": "address"
        },
        {
          "indexed": false,
          "internalType": "address",
          "name": "token",
          "type": "address"
        },
        {
          "indexed": false,
          "internalType": "uint256",
          "name": "amount",
          "type": "uint256"
        },
        {
          "indexed": false,
          "internalType": "uint256",
          "name": "liquidity",
          "type": "uint256"
        },
        {
          "indexed": true,
          "internalType": "address",
          "name": "to",
          "type": "address"
        }
      ],
      "name": "Withdraw",
      "type": "event"
    },
    {
      "inputs": [
        {
          "internalType": "address",
          "name": "token",
          "type": "address"
        },
        {
          "internalType": "address",
          "name": "asset",
          "type": "address"
        }
      ],
      "name": "addAsset",
      "outputs": [],
      "stateMutability": "nonpayable",
      "type": "function"
    },
    {
      "inputs": [
        {
          "internalType": "address",
          "name": "token",
          "type": "address"
        }
      ],
      "name": "addressOfAsset",
      "outputs": [
        {
          "internalType": "address",
          "name": "",
          "type": "address"
        }
      ],
      "stateMutability": "view",
      "type": "function"
    },
    {
      "inputs": [],
      "name": "ampFactor",
      "outputs": [
        {
          "internalType": "uint256",
          "name": "",
          "type": "uint256"
        }
      ],
      "stateMutability": "view",
      "type": "function"
    },
    {
      "inputs": [
        {
          "internalType": "address",
          "name": "token",
          "type": "address"
        },
        {
          "internalType": "uint256",
          "name": "amount",
          "type": "uint256"
        },
        {
          "internalType": "uint256",
          "name": "minimumLiquidity",
          "type": "uint256"
        },
        {
          "internalType": "address",
          "name": "to",
          "type": "address"
        },
        {
          "internalType": "uint256",
          "name": "deadline",
          "type": "uint256"
        },
        {
          "internalType": "bool",
          "name": "shouldStake",
          "type": "bool"
        }
      ],
      "name": "deposit",
      "outputs": [
        {
          "internalType": "uint256",
          "name": "liquidity",
          "type": "uint256"
        }
      ],
      "stateMutability": "nonpayable",
      "type": "function"
    },
    {
      "inputs": [],
      "name": "dev",
      "outputs": [
        {
          "internalType": "address",
          "name": "",
          "type": "address"
        }
      ],
      "stateMutability": "view",
      "type": "function"
    },
    {
      "inputs": [],
      "name": "endCovRatio",
      "outputs": [
        {
          "internalType": "uint128",
          "name": "",
          "type": "uint128"
        }
      ],
      "stateMutability": "view",
      "type": "function"
    },
    {
      "inputs": [
        {
          "internalType": "address",
          "name": "token",
          "type": "address"
        }
      ],
      "name": "exchangeRate",
      "outputs": [
        {
          "internalType": "uint256",
          "name": "xr",
          "type": "uint256"
        }
      ],
      "stateMutability": "view",
      "type": "function"
    },
    {
      "inputs": [],
      "name": "feeTo",
      "outputs": [
        {
          "internalType": "address",
          "name": "",
          "type": "address"
        }
      ],
      "stateMutability": "view",
      "type": "function"
    },
    {
      "inputs": [
        {
          "internalType": "address",
          "name": "token",
          "type": "address"
        },
        {
          "internalType": "uint256",
          "name": "amount",
          "type": "uint256"
        }
      ],
      "name": "fillPool",
      "outputs": [],
      "stateMutability": "nonpayable",
      "type": "function"
    },
    {
      "inputs": [],
      "name": "getTokens",
      "outputs": [
        {
          "internalType": "address[]",
          "name": "",
          "type": "address[]"
        }
      ],
      "stateMutability": "view",
      "type": "function"
    },
    {
      "inputs": [],
      "name": "globalEquilCovRatio",
      "outputs": [
        {
          "internalType": "int256",
          "name": "equilCovRatio",
          "type": "int256"
        },
        {
          "internalType": "int256",
          "name": "invariant",
          "type": "int256"
        }
      ],
      "stateMutability": "view",
      "type": "function"
    },
    {
      "inputs": [],
      "name": "haircutRate",
      "outputs": [
        {
          "internalType": "uint256",
          "name": "",
          "type": "uint256"
        }
      ],
      "stateMutability": "view",
      "type": "function"
    },
    {
      "inputs": [
        {
          "internalType": "uint256",
          "name": "ampFactor_",
          "type": "uint256"
        },
        {
          "internalType": "uint256",
          "name": "haircutRate_",
          "type": "uint256"
        }
      ],
      "name": "initialize",
      "outputs": [],
      "stateMutability": "nonpayable",
      "type": "function"
    },
    {
      "inputs": [
        {
          "internalType": "address",
          "name": "token",
          "type": "address"
        }
      ],
      "name": "isPaused",
      "outputs": [
        {
          "internalType": "bool",
          "name": "",
          "type": "bool"
        }
      ],
      "stateMutability": "view",
      "type": "function"
    },
    {
      "inputs": [],
      "name": "lpDividendRatio",
      "outputs": [
        {
          "internalType": "uint256",
          "name": "",
          "type": "uint256"
        }
      ],
      "stateMutability": "view",
      "type": "function"
    },
    {
      "inputs": [],
      "name": "masterWombat",
      "outputs": [
        {
          "internalType": "address",
          "name": "",
          "type": "address"
        }
      ],
      "stateMutability": "view",
      "type": "function"
    },
    {
      "inputs": [
        {
          "internalType": "address",
          "name": "token",
          "type": "address"
        }
      ],
      "name": "mintFee",
      "outputs": [
        {
          "internalType": "uint256",
          "name": "feeCollected",
          "type": "uint256"
        }
      ],
      "stateMutability": "nonpayable",
      "type": "function"
    },
    {
      "inputs": [],
      "name": "mintFeeThreshold",
      "outputs": [
        {
          "internalType": "uint256",
          "name": "",
          "type": "uint256"
        }
      ],
      "stateMutability": "view",
      "type": "function"
    },
    {
      "inputs": [],
      "name": "owner",
      "outputs": [
        {
          "internalType": "address",
          "name": "",
          "type": "address"
        }
      ],
      "stateMutability": "view",
      "type": "function"
    },
    {
      "inputs": [],
      "name": "pause",
      "outputs": [],
      "stateMutability": "nonpayable",
      "type": "function"
    },
    {
      "inputs": [
        {
          "internalType": "address",
          "name": "token",
          "type": "address"
        }
      ],
      "name": "pauseAsset",
      "outputs": [],
      "stateMutability": "nonpayable",
      "type": "function"
    },
    {
      "inputs": [],
      "name": "paused",
      "outputs": [
        {
          "internalType": "bool",
          "name": "",
          "type": "bool"
        }
      ],
      "stateMutability": "view",
      "type": "function"
    },
    {
      "inputs": [
        {
          "internalType": "address",
          "name": "fromToken",
          "type": "address"
        },
        {
          "internalType": "address",
          "name": "toToken",
          "type": "address"
        },
        {
          "internalType": "int256",
          "name": "toAmount",
          "type": "int256"
        }
      ],
      "name": "quoteAmountIn",
      "outputs": [
        {
          "internalType": "uint256",
          "name": "amountIn",
          "type": "uint256"
        },
        {
          "internalType": "uint256",
          "name": "haircut",
          "type": "uint256"
        }
      ],
      "stateMutability": "view",
      "type": "function"
    },
    {
      "inputs": [
        {
          "internalType": "address",
          "name": "token",
          "type": "address"
        },
        {
          "internalType": "uint256",
          "name": "amount",
          "type": "uint256"
        }
      ],
      "name": "quotePotentialDeposit",
      "outputs": [
        {
          "internalType": "uint256",
          "name": "liquidity",
          "type": "uint256"
        }
      ],
      "stateMutability": "view",
      "type": "function"
    },
    {
      "inputs": [
        {
          "internalType": "address",
          "name": "fromToken",
          "type": "address"
        },
        {
          "internalType": "address",
          "name": "toToken",
          "type": "address"
        },
        {
          "internalType": "int256",
          "name": "fromAmount",
          "type": "int256"
        }
      ],
      "name": "quotePotentialSwap",
      "outputs": [
        {
          "internalType": "uint256",
          "name": "potentialOutcome",
          "type": "uint256"
        },
        {
          "internalType": "uint256",
          "name": "haircut",
          "type": "uint256"
        }
      ],
      "stateMutability": "view",
      "type": "function"
    },
    {
      "inputs": [
        {
          "internalType": "address",
          "name": "token",
          "type": "address"
        },
        {
          "internalType": "uint256",
          "name": "liquidity",
          "type": "uint256"
        }
      ],
      "name": "quotePotentialWithdraw",
      "outputs": [
        {
          "internalType": "uint256",
          "name": "amount",
          "type": "uint256"
        }
      ],
      "stateMutability": "view",
      "type": "function"
    },
    {
      "inputs": [
        {
          "internalType": "address",
          "name": "fromToken",
          "type": "address"
        },
        {
          "internalType": "address",
          "name": "toToken",
          "type": "address"
        },
        {
          "internalType": "uint256",
          "name": "liquidity",
          "type": "uint256"
        }
      ],
      "name": "quotePotentialWithdrawFromOtherAsset",
      "outputs": [
        {
          "internalType": "uint256",
          "name": "finalAmount",
          "type": "uint256"
        },
        {
          "internalType": "uint256",
          "name": "withdrewAmount",
          "type": "uint256"
        }
      ],
      "stateMutability": "view",
      "type": "function"
    },
    {
      "inputs": [
        {
          "internalType": "address",
          "name": "token",
          "type": "address"
        }
      ],
      "name": "removeAsset",
      "outputs": [],
      "stateMutability": "nonpayable",
      "type": "function"
    },
    {
      "inputs": [],
      "name": "renounceOwnership",
      "outputs": [],
      "stateMutability": "nonpayable",
      "type": "function"
    },
    {
      "inputs": [],
      "name": "retentionRatio",
      "outputs": [
        {
          "internalType": "uint256",
          "name": "",
          "type": "uint256"
        }
      ],
      "stateMutability": "view",
      "type": "function"
    },
    {
      "inputs": [
        {
          "internalType": "uint256",
          "name": "ampFactor_",
          "type": "uint256"
        }
      ],
      "name": "setAmpFactor",
      "outputs": [],
      "stateMutability": "nonpayable",
      "type": "function"
    },
    {
      "inputs": [
        {
          "internalType": "uint128",
          "name": "startCovRatio_",
          "type": "uint128"
        },
        {
          "internalType": "uint128",
          "name": "endCovRatio_",
          "type": "uint128"
        }
      ],
      "name": "setCovRatioFeeParam",
      "outputs": [],
      "stateMutability": "nonpayable",
      "type": "function"
    },
    {
      "inputs": [
        {
          "internalType": "address",
          "name": "dev_",
          "type": "address"
        }
      ],
      "name": "setDev",
      "outputs": [],
      "stateMutability": "nonpayable",
      "type": "function"
    },
    {
      "inputs": [
        {
          "internalType": "uint256",
          "name": "lpDividendRatio_",
          "type": "uint256"
        },
        {
          "internalType": "uint256",
          "name": "retentionRatio_",
          "type": "uint256"
        }
      ],
      "name": "setFee",
      "outputs": [],
      "stateMutability": "nonpayable",
      "type": "function"
    },
    {
      "inputs": [
        {
          "internalType": "address",
          "name": "feeTo_",
          "type": "address"
        }
      ],
      "name": "setFeeTo",
      "outputs": [],
      "stateMutability": "nonpayable",
      "type": "function"
    },
    {
      "inputs": [
        {
          "internalType": "uint256",
          "name": "haircutRate_",
          "type": "uint256"
        }
      ],
      "name": "setHaircutRate",
      "outputs": [],
      "stateMutability": "nonpayable",
      "type": "function"
    },
    {
      "inputs": [
        {
          "internalType": "address",
          "name": "masterWombat_",
          "type": "address"
        }
      ],
      "name": "setMasterWombat",
      "outputs": [],
      "stateMutability": "nonpayable",
      "type": "function"
    },
    {
      "inputs": [
        {
          "internalType": "uint256",
          "name": "mintFeeThreshold_",
          "type": "uint256"
        }
      ],
      "name": "setMintFeeThreshold",
      "outputs": [],
      "stateMutability": "nonpayable",
      "type": "function"
    },
    {
      "inputs": [
        {
          "internalType": "bool",
          "name": "shouldCapEquilCovRatio_",
          "type": "bool"
        }
      ],
      "name": "setShouldCapEquilCovRatio",
      "outputs": [],
      "stateMutability": "nonpayable",
      "type": "function"
    },
    {
      "inputs": [
        {
          "internalType": "uint256",
          "name": "withdrawalHaircutRate_",
          "type": "uint256"
        }
      ],
      "name": "setWithdrawalHaircutRate",
      "outputs": [],
      "stateMutability": "nonpayable",
      "type": "function"
    },
    {
      "inputs": [],
      "name": "shouldCapEquilCovRatio",
      "outputs": [
        {
          "internalType": "bool",
          "name": "",
          "type": "bool"
        }
      ],
      "stateMutability": "view",
      "type": "function"
    },
    {
      "inputs": [],
      "name": "startCovRatio",
      "outputs": [
        {
          "internalType": "uint128",
          "name": "",
          "type": "uint128"
        }
      ],
      "stateMutability": "view",
      "type": "function"
    },
    {
      "inputs": [
        {
          "internalType": "address",
          "name": "fromToken",
          "type": "address"
        },
        {
          "internalType": "address",
          "name": "toToken",
          "type": "address"
        },
        {
          "internalType": "uint256",
          "name": "fromAmount",
          "type": "uint256"
        },
        {
          "internalType": "uint256",
          "name": "minimumToAmount",
          "type": "uint256"
        },
        {
          "internalType": "address",
          "name": "to",
          "type": "address"
        },
        {
          "internalType": "uint256",
          "name": "deadline",
          "type": "uint256"
        }
      ],
      "name": "swap",
      "outputs": [
        {
          "internalType": "uint256",
          "name": "actualToAmount",
          "type": "uint256"
        },
        {
          "internalType": "uint256",
          "name": "haircut",
          "type": "uint256"
        }
      ],
      "stateMutability": "nonpayable",
      "type": "function"
    },
    {
      "inputs": [
        {
          "internalType": "address",
          "name": "token",
          "type": "address"
        }
      ],
      "name": "tipBucketBalance",
      "outputs": [
        {
          "internalType": "uint256",
          "name": "balance",
          "type": "uint256"
        }
      ],
      "stateMutability": "view",
      "type": "function"
    },
    {
      "inputs": [
        {
          "internalType": "address",
          "name": "newOwner",
          "type": "address"
        }
      ],
      "name": "transferOwnership",
      "outputs": [],
      "stateMutability": "nonpayable",
      "type": "function"
    },
    {
      "inputs": [
        {
          "internalType": "address",
          "name": "token",
          "type": "address"
        },
        {
          "internalType": "uint256",
          "name": "amount",
          "type": "uint256"
        },
        {
          "internalType": "address",
          "name": "to",
          "type": "address"
        }
      ],
      "name": "transferTipBucket",
      "outputs": [],
      "stateMutability": "nonpayable",
      "type": "function"
    },
    {
      "inputs": [],
      "name": "unpause",
      "outputs": [],
      "stateMutability": "nonpayable",
      "type": "function"
    },
    {
      "inputs": [
        {
          "internalType": "address",
          "name": "token",
          "type": "address"
        }
      ],
      "name": "unpauseAsset",
      "outputs": [],
      "stateMutability": "nonpayable",
      "type": "function"
    },
    {
      "inputs": [
        {
          "internalType": "address",
          "name": "token",
          "type": "address"
        },
        {
          "internalType": "uint256",
          "name": "liquidity",
          "type": "uint256"
        },
        {
          "internalType": "uint256",
          "name": "minimumAmount",
          "type": "uint256"
        },
        {
          "internalType": "address",
          "name": "to",
          "type": "address"
        },
        {
          "internalType": "uint256",
          "name": "deadline",
          "type": "uint256"
        }
      ],
      "name": "withdraw",
      "outputs": [
        {
          "internalType": "uint256",
          "name": "amount",
          "type": "uint256"
        }
      ],
      "stateMutability": "nonpayable",
      "type": "function"
    },
    {
      "inputs": [
        {
          "internalType": "address",
          "name": "fromToken",
          "type": "address"
        },
        {
          "internalType": "address",
          "name": "toToken",
          "type": "address"
        },
        {
          "internalType": "uint256",
          "name": "liquidity",
          "type": "uint256"
        },
        {
          "internalType": "uint256",
          "name": "minimumAmount",
          "type": "uint256"
        },
        {
          "internalType": "address",
          "name": "to",
          "type": "address"
        },
        {
          "internalType": "uint256",
          "name": "deadline",
          "type": "uint256"
        }
      ],
      "name": "withdrawFromOtherAsset",
      "outputs": [
        {
          "internalType": "uint256",
          "name": "toAmount",
          "type": "uint256"
        }
      ],
      "stateMutability": "nonpayable",
      "type": "function"
    },
    {
      "inputs": [],
      "name": "withdrawalHaircutRate",
      "outputs": [
        {
          "internalType": "uint256",
          "name": "",
          "type": "uint256"
        }
      ],
      "stateMutability": "view",
      "type": "function"
    }
  ],
  "transactionHash": "0xf5f1e8b70f36e6e837d97ad0a7a9bfbf53508091dcd8e35df284dccc133b8a80",
  "args": [],
  "numDeployments": 1,
  "solcInputHash": "677157ab1959102ac614f15c41c6b273",
  "bytecode": "0x6080806040523461001657614846908161001c8239f35b600080fdfe608080604052600436101561001357600080fd5b600090813560e01c908163017b8292146129ce57508063017e7e58146129a75780630705999d14612934578063070f81d91461284657806309a5fca3146123815780630f91f06f14611d955780633753b14a14611ce45780633bd61ba814611cbd5780633f4ba83a14611c205780634a5e42b114611abe5780634a6fee0e14611a215780634fdd64e514611a0d57806352f7c9881461194a5780635b14f1831461190d5780635c975abb146118ea5780635cfe092e146118cc57806361858e23146117b95780636281baef146114595780636922d5ca1461143b578063715018a6146113df57806374cbbdb9146113bd578063815bfd291461139f5780638456cb59146113445780638a2dfe09146113295780638da5cb5b14611302578063907448ed146111d357806391cca3db146111ac57806393aeea02146110595780639908fc8b14610def5780639abacb4114610d295780639e4416b714610ccb578063a4275ceb14610aad578063aa6ca808146109e7578063ac99415a146109c9578063b4c653081461098a578063d043c5651461093c578063d0dd0e561461091e578063d30ffeda146108fa578063d477f05f14610887578063da48999714610739578063dc3b7c8b14610715578063de7e865f146106f1578063e4a301161461051a578063e9249cc7146104ea578063f2fde38b14610443578063f46901ed146103d0578063f57e84d514610372578063f8b49e721461033e578063fb7f5cc21461030d578063fca8f308146102dc5763fd33d3881461025257600080fd5b346102d95760203660031901126102d95760043561026e612ac0565b670de0b6b3a764000081116102af576020817f1c18a912ced6b380386b05a39ae0c1326b69555d4ed8d13fd4d9c6896b0ea3799260d755604051908152a180f35b60046040517f12b019e1000000000000000000000000000000000000000000000000000000008152fd5b80fd5b50346102d95760406103016102fb6102f336612a75565b929092613787565b91613d2f565b82519182526020820152f35b50346102d957806003193601126102d95760206fffffffffffffffffffffffffffffffff6101085416604051908152f35b50346102d95760203660031901126102d957602061036a6103656103606129ea565b612f55565b614534565b604051908152f35b50346102d95760203660031901126102d95760043561038f612ac0565b670de0b6b3a764000081116102af576020817fc6e60196bbe5909add58d5ae8a27082013670bce0855321773c33085af5c32439260cb55604051908152a180f35b50346102d95760203660031901126102d9577ff6b59ffc88fbb27f33470b919e00b41139ee340eb349521f0cbbc1504ce29c3e60206001600160a01b036104156129ea565b61041d612ac0565b61042681612e45565b16806001600160a01b031960d054161760d055604051908152a180f35b50346102d95760203660031901126102d95761045d6129ea565b610465612ac0565b6001600160a01b038116156104805761047d90612b18565b80f35b608460405162461bcd60e51b815260206004820152602660248201527f4f776e61626c653a206e6577206f776e657220697320746865207a65726f206160448201527f64647265737300000000000000000000000000000000000000000000000000006064820152fd5b50346102d95760203660031901126102d95760206001600160a01b036105116103606129ea565b16604051908152f35b50346102d95761052936612aaa565b82549160ff8360081c1615908180926106e4575b80156106cd575b156106635760ff1984811660011786559382610652575b5061057560ff865460081c166105708161476b565b61476b565b61057e33612b18565b84549261059e60ff8560081c166105948161476b565b600160655561476b565b8460975416609755670de0b6b3a7640000918281118015610649575b6102af5760ca5560cb5560cd55336001600160a01b031960cf54161760cf55610611575b506101087718fae27693b40000000000000000000014d1120d7b16000083825416179055600161016d9182541617905580f35b61ff00191682557f7f26b83ff96e1f2b6a682f133852f6798a09c465da95921460cefb3847402498602060405160018152a1386105de565b508282116105ba565b61ffff19166101011785553861055b565b608460405162461bcd60e51b815260206004820152602e60248201527f496e697469616c697a61626c653a20636f6e747261637420697320616c72656160448201527f647920696e697469616c697a65640000000000000000000000000000000000006064820152fd5b50303b1580156105445750600160ff851614610544565b50600160ff85161061053d565b50346102d957806003193601126102d957602060ff61016d54166040519015158152f35b50346102d95760203660031901126102d957602061036a6107346129ea565b613f44565b50346102d95760403660031901126102d9576107536129ea565b61075b612a16565b610763612ac0565b61076c81612e45565b61077582612e45565b61077f8183612dba565b6107a2826001600160a01b0380911660005260d460205260406000205416151590565b61085d576001600160a01b03809116911680835260d460205260408320826001600160a01b031982541617905560d35460d5602052806040852055680100000000000000008110156108495761082061080282600185940160d355612df8565b819391549060031b916001600160a01b03809116831b921b19161790565b90557f0bb5715f0f217c2fe9a0c877ea87d474380c641102f3440ee2a4c8b9d97909188380a380f35b602484634e487b7160e01b81526041600452fd5b60046040517f8991c4c4000000000000000000000000000000000000000000000000000000008152fd5b50346102d95760203660031901126102d9577f8daa6bb00de042a7d51816fcee4a3d5c1e91a2128fd64fa1a9a38afa0d26beb560206001600160a01b036108cc6129ea565b6108d4612ac0565b6108dd81612e45565b16806001600160a01b031960cf54161760cf55604051908152a180f35b50346102d95760203660031901126102d957602061036a6109196129ea565b6143aa565b50346102d957806003193601126102d957602060cb54604051908152f35b50346102d95760203660031901126102d9577f935ce123b6388f8dbf76890f8240a48198f1e0a884f26939aa604a46bb65b706602060043561097c612ac0565b8060ce55604051908152a180f35b50346102d95760203660031901126102d9576004358015158091036109c4576109b1612ac0565b61016d9060ff8019835416911617905580f35b600080fd5b50346102d957806003193601126102d957602060d754604051908152f35b50346102d957806003193601126102d957604051809160d354908183526020809301809260d383527f915c3eb987b20e1af620c1403197bf687fb7f18513b3a73fde6e78c7072c41a690835b818110610a905750505084610a49910385612b8a565b60405193838594850191818652518092526040850193925b828110610a7057505050500390f35b83516001600160a01b031685528695509381019392810192600101610a61565b82546001600160a01b031684529286019260019283019201610a33565b50346102d95760603660031901126102d957610ac76129ea565b610acf612a16565b90610af3610aed60443592610ae384612d89565b6103608582612dba565b92612f55565b90610afe8284612cb6565b60ca549060cb546101085490610b126147dc565b9260d75494604051987fefd7af77000000000000000000000000000000000000000000000000000000008a526001600160a01b03809116988960048c015216968760248b015260448a01526064890152608488015260a48701526fffffffffffffffffffffffffffffffff811660c487015260801c60e486015261010485015261012484015260408361014481733dd65188B818712c52732CBBd230e68FbF55A3365af4928315610cc05784908594610c8c575b5060405193846339420b4560e11b9485825281600460209889935afa8015610c81578692610bfb928992610c69575b50612c59565b9360046040518095819382525afa918215610c5e5790610c24929160409692610c2f5750612c59565b918351928352820152f35b610c50919250853d8711610c57575b610c488183612b8a565b810190612bc2565b9038610bf5565b503d610c3e565b6040513d87823e3d90fd5b610c50919250843d8611610c5757610c488183612b8a565b6040513d89823e3d90fd5b9050610cb191935060403d604011610cb9575b610ca98183612b8a565b810190612bac565b929038610bc6565b503d610c9f565b6040513d86823e3d90fd5b50346102d95760203660031901126102d957600435610ce8612ac0565b670de0b6b3a764000081116102af576020817f294c562dcfcd9be941287844539aeba4ae641cd1fc9a2883337c6b2e87cbd98a9260ca55604051908152a180f35b50346102d95760203660031901126102d957610d436129ea565b610d4b612ef7565b6001600160a01b03811680835260c960205260ff60408420541615610dc557825260c960209081526040808420805460ff1916905580516001600160a01b03909316835233918301919091527fdb198487a4c70aa000c3b1020f52688b4b86d3ebcedc84a793e03ed3b480902c9190819081015b0390a180f35b60046040517f855b7373000000000000000000000000000000000000000000000000000000008152fd5b50346102d957610dfe36612a2c565b610e0d95919395949294612fb2565b610e15612ea7565b610e1f8383612dba565b851561102f57610e3790610e3285612e45565b6132fe565b610e4081612f0b565b610e4981612f55565b92610e5383612f55565b95604051956339420b4560e11b8088526020886004816001600160a01b038d165afa978815610fe35760009861100e575b506001600160a01b038716966040519182526020826004818b5afa928315610fe357610ee2610edb610ee8938c938e610ed586610ecf610ef99b8d9b600091610fef575b508b6132c4565b936132c4565b926135c0565b9b90612c59565b99612c59565b96336001600160a01b038716613007565b6001600160a01b0387163b156109c45760006040518098639e79eaa560e01b825281836001600160a01b0382610f498d8a60048401602090939291936001600160a01b0360408201951681520152565b0393165af1918215610fe357610fc0876001600160a01b039360409a7f54787c404bb33c88e86f4baf88183a3b0141d0a848e6a9f7a13b66ae3a9b73d196610fd4575b508a519485941697339785909260609295949360808301966001600160a01b03809216845216602083015260408201520152565b0390a3600160655582519182526020820152f35b610fdd90612b60565b8b610f8c565b6040513d6000823e3d90fd5b611008915060203d602011610c5757610c488183612b8a565b38610ec8565b61102891985060203d602011610c5757610c488183612b8a565b9689610e84565b60046040517fb483c10f000000000000000000000000000000000000000000000000000000008152fd5b50346102d95760603660031901126102d9576110736129ea565b602435906044356001600160a01b03808216918281036109c457611095612ac0565b61109e84612f55565b906110a8856143aa565b86116102af5782879216906040516339420b4560e11b8152602081600481865afa8015610cc0576110e191859161118e575b5088612c59565b823b1561118a57604051639e79eaa560e01b81526001600160a01b0392909216600483015260248201529082908290604490829084905af1801561117f57611161575b50927f5f22a22ebe30686f71d42a70ccacf870a335e22ee2ac6d257af1b2551582eda692856060936040519316835260208301526040820152a180f35b61116e9094939294612b60565b61117b5790918438611124565b8480fd5b6040513d84823e3d90fd5b8380fd5b6111a6915060203d8111610c5757610c488183612b8a565b386110da565b50346102d957806003193601126102d95760206001600160a01b0360cf5416604051908152f35b50346102d95760403660031901126102d9576111ed6129ea565b6111fd6024359161036083612d89565b606060ca5461120a6147dc565b60d754604051639181079560e01b81526001600160a01b038616600482015260248101969096526044860192909252606485015260848401528260a481733dd65188B818712c52732CBBd230e68FbF55A3365af49081156112c2576001600160a01b039284926112cd575b506020906004604051809581936339420b4560e11b8352165afa9182156112c2579061036a9291602094926112aa5750612c59565b610c50919250843d8111610c5757610c488183612b8a565b6040513d85823e3d90fd5b60209192506112f29060603d81116112fb575b6112ea8183612b8a565b810190613555565b50509190611275565b503d6112e0565b50346102d957806003193601126102d95760206001600160a01b0360335416604051908152f35b50346102d957806003193601126102d95760406103016140a2565b50346102d957806003193601126102d95761135d612ef7565b611365612ea7565b600160ff1960975416176097557f62e78cea01bee320cd4e420270b5ea74000d11b0c9f74754ebdbfc544b05a2586020604051338152a180f35b50346102d957806003193601126102d957602060cd54604051908152f35b50346102d957806003193601126102d95760206101085460801c604051908152f35b50346102d957806003193601126102d9576113f8612ac0565b60006001600160a01b036033546001600160a01b03198116603355167f8be0079c531659141344cd1fd0a4f28419497f9722a3daafe3b4186f6b6457e08280a380f35b50346102d957806003193601126102d957602060cc54604051908152f35b50346102d95760c03660031901126102d9576114736129ea565b60243560443591611482612a00565b9260a435908115918215036109c457611499612fb2565b6114a1612ea7565b831561102f576114b085612e45565b6114bb6084356132fe565b6114c483612f0b565b6114cd83612f55565b6001600160a01b0392838216906114e8878333888a16613007565b156115b7576020600491604051928380926339420b4560e11b82525afa9081156115ac579261154f9261154989937ff5dd9317b9e63ac316ce44acc85f670b54b339cfa3e9076e1dd55065b922314b979660209c9161158f575b50896132c4565b90613330565b945b61157f8660405193849316963396846040919493926001600160a01b03606083019616825260208201520152565b0390a36001606555604051908152f35b6115a691508c3d8111610c5757610c488183612b8a565b38611542565b6040513d8a823e3d90fd5b906115ca8460d199949895995416612e45565b604051966339420b4560e11b88526020978881600481875afa908115610c5e576116089392916116019187916117a25750896132c4565b3092613330565b60d1546040517f095ea7b30000000000000000000000000000000000000000000000000000000081529089166001600160a01b0316600482015260248101829052909690818160448187875af18015610cc057611775575b508760d1541691604051907faf929a8000000000000000000000000000000000000000000000000000000000825260048201528181602481865afa918215610cc0578492611747575b5050813b156117435782916064839260405194859384927f90210d7e00000000000000000000000000000000000000000000000000000000845260048401528b60248401528c891660448401525af1801561117f5761172f575b50506020947ff5dd9317b9e63ac316ce44acc85f670b54b339cfa3e9076e1dd55065b922314b91611551565b6117398291612b60565b6102d95780611703565b8280fd5b90809250813d831161176e575b61175e8183612b8a565b810103126109c4575138806116a9565b503d611754565b61179490823d841161179b575b61178c8183612b8a565b810190612f9a565b5038611660565b503d611782565b6115a691508b3d8d11610c5757610c488183612b8a565b50346102d95760403660031901126102d9576117d66103606129ea565b6040516339420b4560e11b81526020816004816001600160a01b0386165afa9081156112c2576040916118139185916118ae575b506024356132c4565b60ca549261185c6118226147dc565b8451958694859463176f358b60e21b865260048601909493926060926001600160a01b036080840197168352602083015260408201520152565b0381733dd65188B818712c52732CBBd230e68FbF55A3365af490811561117f576020929161188e575b50604051908152f35b6118a7915060403d604011610cb957610ca98183612b8a565b5038611885565b6118c6915060203d8111610c5757610c488183612b8a565b3861180a565b50346102d957806003193601126102d957602060ce54604051908152f35b50346102d957806003193601126102d957602060ff609754166040519015158152f35b50346102d95760203660031901126102d95760ff60406020926001600160a01b036119366129ea565b16815260c984522054166040519015158152f35b50346102d95761195936612aaa565b90611962612ac0565b670de0b6b3a76400006119758284612e9a565b116102af57825b60d3548110156119d157806119c66103656001600160a01b036119a16119cc95612df8565b90549060031b1c166001600160a01b0380911660005260d46020526040600020541690565b5061435b565b61197c565b506040907f032dc6a2d839eb179729a55633fdf1c41a1fc4739394154117005db2b354b9b5928060cc558160cd5582519182526020820152a180f35b50346102d95760406103016102fb36612a75565b50346102d95760403660031901126102d9576004356fffffffffffffffffffffffffffffffff8082168092036109c4576024359081168082036109c457611a66612ac0565b670de0b6b3a76400008310908115611ab4575b506102af5761010891837fffffffffffffffffffffffffffffffff0000000000000000000000000000000084549360801b1692161717905580f35b9050821138611a79565b50346102d95760203660031901126102d957611ad86129ea565b611ae0612ac0565b611b03816001600160a01b0380911660005260d460205260406000205416151590565b15611bf6576001600160a01b038091169081835260d4602052604083208054906001600160a01b03198216905560d5602052604084205460d3549060001991828101908111611be25761080285611b5c611b8193612df8565b90549060031b1c169283895260d56020528060408a2055878952886040812055612df8565b905560d3548015611bce5701611b9681612df8565b8482549160031b1b1916905560d35516907f0fa1e4606af435f32f05b3804033d2933e691fab32ee74d2db6fa82d2741f1ea8380a380f35b602486634e487b7160e01b81526031600452fd5b602487634e487b7160e01b81526011600452fd5b60046040517fecb004d4000000000000000000000000000000000000000000000000000000008152fd5b50346102d957806003193601126102d957611c39612ef7565b60975460ff811615611c795760ff19166097557f5db9ee0a495bf2e6ff9c91a7834c1ba4fdd244a5e8aa4e537bd38aeae4b073aa6020604051338152a180f35b606460405162461bcd60e51b815260206004820152601460248201527f5061757361626c653a206e6f74207061757365640000000000000000000000006044820152fd5b50346102d957806003193601126102d95760206001600160a01b0360d15416604051908152f35b50346102d95760203660031901126102d957611cfe6129ea565b611d06612ef7565b611d29816001600160a01b0380911660005260d460205260406000205416151590565b15611bf657610dbf81611d5c7fdcb65c0553aaa433aadd180404ff195259c48f78aa50f877ebcb4bb215129a4e93612f0b565b6001600160a01b031680845260c960209081526040808620805460ff191660011790558051928352339183019190915290918291820190565b50346102d957611dd9611da736612a2c565b611db5969195939496612fb2565b611dbd612ea7565b611dc686612e45565b611dcf85612d89565b610e328785612dba565b611de282612f0b565b611deb82612f55565b93611df586612f55565b95611e0b856001600160a01b0388163381613007565b600092611e17876144f1565b60ca5460608789611e70611e296147dc565b60d754906040519687958695639181079560e01b875260048701919260809396959491966001600160a01b0360a08501981684526020840152604083015260608201520152565b0381733dd65188B818712c52732CBBd230e68FbF55A3365af4908115610c5e57858091819361235d575b506001600160a01b038a163b156102d957604051632770a7eb60e21b81526001600160a01b038b1660048201819052602482018b905282908290604490829084905af1801561117f5761234e575b5090611ef48388612e9a565b6001600160a01b038b163b1561174357828b60246001600160a01b03938360405195869485936313f3df3160e31b85526004850152165af180156112c25790839161233a575b50506001600160a01b038a163b156123365760405163d8b8785360e01b815260048101919091528181602481836001600160a01b038f165af1801561117f57908291612322575b505060405163705727b560e01b81526020816004816001600160a01b038e165afa90811561117f57906001600160781b03918391612303575b5016151580612233575b61222257816121f9575b50506040516339420b4560e11b81526020816004816001600160a01b038d165afa8015610fe3576120139261200b926000926121d8575b506132c4565b8489896135c0565b50604051906339420b4560e11b82526020826004816001600160a01b038d165afa908115610fe35761204c926000926121b75750612c59565b956001600160a01b0388163b156109c457604051639e79eaa560e01b81526001600160a01b0384811660048301526024820189905290986000918a9160449183918591165af1908115610fe3576001600160a01b03986020926121a8575b506004604051809a81936339420b4560e11b8352165afa928315610fe3576121067f54787c404bb33c88e86f4baf88183a3b0141d0a848e6a9f7a13b66ae3a9b73d1946001600160a01b039260209a6000926121895750612c59565b921680957ffb80d861da582b723be2d19507ce3e03851820c464abea89156ec77e089b1ad9604051806121563394888b846040919493926001600160a01b03606083019616825260208201520152565b0390a3604080516001600160a01b039586168152949091166020850152830152606082018490523391806080810161157f565b6121a19192508b3d8d11610c5757610c488183612b8a565b908b610bf5565b6121b190612b60565b896120aa565b6121d191925060203d602011610c5757610c488183612b8a565b908a610bf5565b6121f291925060203d602011610c5757610c488183612b8a565b908b612005565b6040612219916001600160a01b038b16815260d260205220918254612e9a565b90558880611fce565b60046040516316fde3bd60e21b8152fd5b5060405163961be39160e01b81526020816004816001600160a01b038e165afa90811561117f5782916122e4575b5060405163705727b560e01b81526020816004816001600160a01b038f165afa9081156112c257916001600160781b03806122af93662386f26fc100009587916122b5575b5016911661358f565b10611fc4565b6122d7915060203d6020116122dd575b6122cf8183612b8a565b810190613570565b386122a6565b503d6122c5565b6122fd915060203d6020116122dd576122cf8183612b8a565b8b612261565b61231c915060203d6020116122dd576122cf8183612b8a565b8c611fba565b61232b90612b60565b6102d957808b611f81565b5080fd5b61234390612b60565b61233657818c611f3a565b61235790612b60565b8b611ee8565b91509550612379915060603d81116112fb576112ea8183612b8a565b91958b611e9a565b50346102d95760a03660031901126102d95761239b6129ea565b6123a3612a00565b6123ab612fb2565b6123b3612ea7565b6123be602435612d89565b6123c781612e45565b6123d26084356132fe565b6123db82612f55565b916123f36024356001600160a01b0385163381613007565b6040516339420b4560e11b81526020816004816001600160a01b0388165afa908115610c5e578591612827575b5061242d816044356132c4565b90612437856144f1565b60ca549160009260606124486147dc565b60d754604051639181079560e01b81526001600160a01b038b16600482015260248035908201526044810194909452606484019190915260848301528160a481733dd65188B818712c52732CBBd230e68FbF55A3365af4908115610cc0578492859186936127fc575b50836124bc91613524565b6001600160a01b0388163b1561117b57604051632770a7eb60e21b81526001600160a01b03891660048201819052602480359083015286908290604490829084905af18015612774576127e9575b506125158284612e9a565b6001600160a01b0389163b156127e5576040516313f3df3160e31b815260048101919091528581602481836001600160a01b038e165af18015612774579086916127d1575b50506001600160a01b0388163b1561117b576040519063d8b8785360e01b825260048201528481602481836001600160a01b038d165af18015610c5e579085916127bd575b505060405163705727b560e01b81526020816004816001600160a01b038c165afa908115610c5e57906001600160781b0391869161279e575b50161515806126f3575b612222576125f793816126ca575b5050612c59565b926001600160a01b0381163b1561117b57846040518092639e79eaa560e01b825281836001600160a01b03826126478b8b60048401602090939291936001600160a01b0360408201951681520152565b0393165af18015610c5e576126b6575b50602093507ffb80d861da582b723be2d19507ce3e03851820c464abea89156ec77e089b1ad96001600160a01b036040519316928061157f33948760243591846040919493926001600160a01b03606083019616825260208201520152565b6126c08591612b60565b61118a5783612657565b60406126ea916001600160a01b038a16815260d260205220918254612e9a565b905538806125f0565b5060405163961be39160e01b81526020816004816001600160a01b038c165afa908115610c5e57859161277f575b5060405163705727b560e01b81526020816004816001600160a01b038d165afa90811561277457916001600160781b038061276e93662386f26fc10000958a916122b5575016911661358f565b106125e2565b6040513d88823e3d90fd5b612798915060203d6020116122dd576122cf8183612b8a565b38612721565b6127b7915060203d6020116122dd576122cf8183612b8a565b386125d8565b6127c690612b60565b61118a57833861259f565b6127da90612b60565b61117b57843861255a565b8580fd5b6127f590959195612b60565b933861250a565b9092506124bc935061281c915060603d81116112fb576112ea8183612b8a565b9193509091836124b1565b612840915060203d602011610c5757610c488183612b8a565b38612420565b50346102d95760403660031901126102d9576128606129ea565b9060243561286c612ef7565b61287583612f55565b61287e846143aa565b82116102af576001600160a01b0316803b156117435782809160246040518094819362b64f3d60e51b83528760048401525af180156112c257612903575b50604080516001600160a01b039094168452602084019190915290917f4941e18a2bcbb0f9fa0081238f26793a8ad8c202b913ae8bf5f7e523f68ff1379181908101610dbf565b9161292e7f4941e18a2bcbb0f9fa0081238f26793a8ad8c202b913ae8bf5f7e523f68ff13793612b60565b916128bc565b50346102d95760203660031901126102d9577ffeb9010869b6ccec4557ddbbce947afeace5efc66cdff52c5e533c09336a8f2d60206001600160a01b036129796129ea565b612981612ac0565b61298a81612e45565b16806001600160a01b031960d154161760d155604051908152a180f35b50346102d957806003193601126102d95760206001600160a01b0360d05416604051908152f35b90503461233657816003193601126123365760209060ca548152f35b600435906001600160a01b03821682036109c457565b606435906001600160a01b03821682036109c457565b602435906001600160a01b03821682036109c457565b60c09060031901126109c4576001600160a01b0360043581811681036109c4579160243582811681036109c45791604435916064359160843590811681036109c4579060a43590565b60609060031901126109c4576001600160a01b039060043582811681036109c4579160243590811681036109c4579060443590565b60409060031901126109c4576004359060243590565b6001600160a01b03603354163303612ad457565b606460405162461bcd60e51b815260206004820152602060248201527f4f776e61626c653a2063616c6c6572206973206e6f7420746865206f776e65726044820152fd5b603354906001600160a01b0380911691826001600160a01b0319821617603355167f8be0079c531659141344cd1fd0a4f28419497f9722a3daafe3b4186f6b6457e0600080a3565b67ffffffffffffffff8111612b7457604052565b634e487b7160e01b600052604160045260246000fd5b90601f8019910116810190811067ffffffffffffffff821117612b7457604052565b91908260409103126109c4576020825192015190565b908160209103126109c4575160ff811681036109c45790565b60ff6011199116019060ff8211612bee57565b634e487b7160e01b600052601160045260246000fd5b60ff166012039060ff8211612bee57565b60ff16604d8111612bee57600a0a90565b81810292918115918404141715612bee57565b8115612c43570490565b634e487b7160e01b600052601260045260246000fd5b9060ff81166012811015612c86575090612c7d612c78612c8393612c04565b612c15565b90612c39565b90565b601210612c91575090565b90612ca1612c78612c8393612bdb565b90612c26565b908160209103126109c4575190565b604051916317d1d06960e11b9081845260209182856004816001600160a01b038098165afa948515610fe357600095612d59575b50906004839260405195869384928352165afa908115610fe357600091612d2d575b509050670de0b6b3a76400009180830292830403612bee57612c8391612c39565b82813d8311612d52575b612d418183612b8a565b810103126102d95750518038612d0c565b503d612d37565b90948382813d8311612d82575b612d708183612b8a565b810103126102d9575051936004612cea565b503d612d66565b15612d9057565b60046040517f3f3835e7000000000000000000000000000000000000000000000000000000008152fd5b6001600160a01b03908116911614612dce57565b60046040517feeb7911f000000000000000000000000000000000000000000000000000000008152fd5b60d354811015612e2f5760d36000527f915c3eb987b20e1af620c1403197bf687fb7f18513b3a73fde6e78c7072c41a60190600090565b634e487b7160e01b600052603260045260246000fd5b6001600160a01b031615612e5557565b60046040517f0bd3e3ed000000000000000000000000000000000000000000000000000000008152fd5b91908203918211612bee57565b9060018201809211612bee57565b91908201809211612bee57565b60ff60975416612eb357565b606460405162461bcd60e51b815260206004820152601060248201527f5061757361626c653a20706175736564000000000000000000000000000000006044820152fd5b6001600160a01b0360cf5416330361222257565b6001600160a01b031660005260c960205260ff60406000205416612f2b57565b60046040517f8654830a000000000000000000000000000000000000000000000000000000008152fd5b612f78816001600160a01b0380911660005260d460205260406000205416151590565b15611bf6576001600160a01b0380911660005260d46020526040600020541690565b908160209103126109c4575180151581036109c45790565b600260655414612fc3576002606555565b606460405162461bcd60e51b815260206004820152601f60248201527f5265656e7472616e637947756172643a207265656e7472616e742063616c6c006044820152fd5b93929190604051602093848201927f23b872dd0000000000000000000000000000000000000000000000000000000084526001600160a01b039485809216602485015216604483015260648201526064815260a081019267ffffffffffffffff9682851088861117612b7457169060e0810184811088821117612b74576040528484527f5361666545524332303a206c6f772d6c6576656c2063616c6c206661696c656460c0820152600080938192519082855af1903d156131a5573d968711613191576130f6949596604051906130e888601f19601f8401160183612b8a565b81528093873d92013e6131b2565b805190828215928315613179575b5050501561310f5750565b6084906040519062461bcd60e51b82526004820152602a60248201527f5361666545524332303a204552433230206f7065726174696f6e20646964206e60448201527f6f742073756363656564000000000000000000000000000000000000000000006064820152fd5b6131899350820181019101612f9a565b388281613104565b602483634e487b7160e01b81526041600452fd5b91506130f6939495506060915b9192901561321357508151156131c6575090565b3b156131cf5790565b606460405162461bcd60e51b815260206004820152601d60248201527f416464726573733a2063616c6c20746f206e6f6e2d636f6e74726163740000006044820152fd5b8251909150156132265750805190602001fd5b6040519062461bcd60e51b82528160208060048301528251908160248401526000935b82851061326c575050604492506000838284010152601f80199101168101030190fd5b8481018201518686016044015293810193859350613249565b60ff8116601281101561329f5750612c78612c8391612c04565b6012106132ac5750600190565b612c786132b891612bdb565b8015612c435760010490565b9060ff811660128110156132e3575090612ca1612c78612c8393612c04565b6012106132ee575090565b90612c7d612c78612c8393612bdb565b421161330657565b60046040517f549b6335000000000000000000000000000000000000000000000000000000008152fd5b9193929061339290613341846144f1565b60ca54926000946133506147dc565b9460409586918251968792839263176f358b60e21b8452888760048601909493926060926001600160a01b036080840197168352602083015260408201520152565b0381733dd65188B818712c52732CBBd230e68FbF55A3365af49081156134cd57869487926134f8575b506001600160a01b03906133d986809b6133d482612d89565b613524565b1692833b156134f45785519062b64f3d60e51b82526004820152868160248183885af180156134ea576134d7575b50823b156127e55784519063283c3d8160e21b82526004820152858160248183875af180156134cd579086916134b9575b5050813b1561117b5783517f40c10f190000000000000000000000000000000000000000000000000000000081526001600160a01b03919091166004820152602481019290925290919083908390604490829084905af19081156134b0575061349f575050565b6134a98291612b60565b6102d95750565b513d84823e3d90fd5b6134c290612b60565b61117b578438613438565b85513d88823e3d90fd5b6134e390969196612b60565b9438613407565b86513d89823e3d90fd5b8680fd5b6001600160a01b03955061351a919250863d8811610cb957610ca98183612b8a565b94909491906133bb565b1161352b57565b60046040517ff512a720000000000000000000000000000000000000000000000000000000008152fd5b908160609103126109c4578051916040602083015192015190565b908160209103126109c457516001600160781b03811681036109c45790565b90670de0b6b3a764000091828102928184041490151715612bee576135bb612c83928260011c90612e9a565b612c39565b909293916135cf818584613798565b94856135dc838099613524565b6000926001600160a01b038093169485855260209360d28552604097888720613606868254612e9a565b90551690813b156127e5578591602483928a51948593849262b64f3d60e51b845260048401525af1801561377d57613766575b509061364491612e9a565b833b15611743578451906313f3df3160e31b82526004820152828160248183885af1801561374857908391613752575b505083519263961be39160e01b84528184600481845afa938415613748578394613722575b50908060049286519384809263705727b560e01b82525afa92831561371757916136e29391662386f26fc100009593926136fa575b50506001600160781b03809116911661358f565b106136ea5750565b600490516316fde3bd60e21b8152fd5b6137109250803d106122dd576122cf8183612b8a565b38806136ce565b8551903d90823e3d90fd5b829194509161373f600493823d84116122dd576122cf8183612b8a565b94919250613699565b85513d85823e3d90fd5b61375b90612b60565b612336578138613674565b93613775613644939295612b60565b939091613639565b87513d87823e3d90fd5b600160ff1b8114612bee5760000390565b92916137a5818386613c77565b9460009386908390868612613945575050506001600160a01b031660405163961be39160e01b81526020938482600481865afa9182156138fd5785908793613925575b50600492936040519384809263705727b560e01b82525afa80156138fd57849386938892613902575b50610108546040517f2f6599bb0000000000000000000000000000000000000000000000000000000081526001600160781b039283166004820152929091166024830152604482019290925260648101939093526fffffffffffffffffffffffffffffffff8116608484015260801c60a4830152818060c481015b0381733dd65188B818712c52732CBBd230e68FbF55A3365af49283156138fd57612c8394936138c8575b5050816138c291612e7f565b93612e9a565b6138c292935090816138ee92903d106138f6575b6138e68183612b8a565b810190612ca7565b9190386138b6565b503d6138dc565b610fe3565b61388c91925061391e90853d87116122dd576122cf8183612b8a565b9190613811565b6004935061393f90823d84116122dd576122cf8183612b8a565b926137e8565b6001600160a01b03919692985080945094929416906040519063961be39160e01b825260208083600481875afa9283156138fd578293613a76575b50806004916001600160781b03809516956040519384809263705727b560e01b82525afa9283156138fd5792613a59575b5050166139c7816139c28885612e9a565b61358f565b6101085492906fffffffffffffffffffffffffffffffff8416106139ef575050505050509190565b9091939550613a009294975061358f565b9060801c1115613a2f57613a16613a1d91613787565b8483613a98565b90613a2a91938491613798565b905090565b60046040517f6158a9f8000000000000000000000000000000000000000000000000000000008152fd5b613a6f9250803d106122dd576122cf8183612b8a565b38806139b1565b819350613a91906004923d86116122dd576122cf8183612b8a565b9290613980565b6040516339420b4560e11b81529193926020926001600160a01b038316908481600481855afa9081156138fd57600091613c30575b50613ad781613285565b946040519263705727b560e01b84528184600481845afa80156138fd57600494600091613c13575b5082613b39613b29613b146101085460801c90565b6fffffffffffffffffffffffffffffffff1690565b6001600160781b03809416613c4d565b926040519687809263961be39160e01b82525afa80156138fd57613b7195613b6c94600092613bf6575b50501690612e7f565b612c59565b9160019582613b8a613b838787612c26565b8385613798565b5010613a2f5791905b838710613ba857505050612c83929350612c26565b909192613bbe613bb88289612e9a565b60011c90565b9083613bd4613bcd8885612c26565b8786613798565b5010613be45750925b9190613b93565b939650613bf090612e8c565b95613bdd565b613c0c9250803d106122dd576122cf8183612b8a565b3880613b63565b613c2a9150833d85116122dd576122cf8183612b8a565b38613aff565b613c479150853d8711610c5757610c488183612b8a565b38613acd565b90613c5791612c26565b6706f05b59d3b200008101809111612bee57670de0b6b3a7640000900490565b909291613c848483612cb6565b9060ca549060cb5493604051967fe02a44c60000000000000000000000000000000000000000000000000000000088526001600160a01b03809216600489015216602487015260448601526064850152608484015260a483015260408260c481733dd65188B818712c52732CBBd230e68FbF55A3365af4918215610fe3576000908193613d1057509190565b9050613d2b91925060403d8111610cb957610ca98183612b8a565b9091565b92909192613d3d8382612dba565b831561102f57610aed613d4f91612f55565b916001600160a01b03938482166040958651926339420b4560e11b908185526020958686600481885afa958615613e98578996613da093613d9892600092613e79575b50613efe565b988991613798565b9092819516938951938385528785600481895afa948515613e6e578895600092613dd0928492613e565750612c59565b9912613e2a575050600488518094819382525afa928315613e1f57612c8394959650600093613e00575050612c59565b613e17929350803d10610c5757610c488183612b8a565b9038806125f0565b86513d6000823e3d90fd5b93509350600488518094819382525afa928315613e1f57612c8394959650600093613e00575050612c59565b610c50919250883d8a11610c5757610c488183612b8a565b8b513d6000823e3d90fd5b613e919192508a3d8c11610c5757610c488183612b8a565b9038613d92565b8a513d6000823e3d90fd5b8115612c4357600160ff1b8114600019831416612bee570590565b90670de0b6b3a764000091828102928184051490151715612bee57565b818102929160008212600160ff1b821416612bee578184051490151715612bee57565b9060ff81166012811015613f23575090613f1d612c78612c8393612c04565b90613edb565b601210613f2e575090565b90613f3e612c78612c8393612bdb565b90613ea3565b613f556001600160a01b0391612f55565b1660408051917f18160ddd00000000000000000000000000000000000000000000000000000000928381526020908181600481865afa90811561405a57600091614075575b50156140655782519363705727b560e01b85528185600481865afa94851561405a57600095614039575b508190600485518095819382525afa92831561402f5750600092613ff7575b50506001600160781b03612c83921661358f565b81819392933d8311614028575b61400e8183612b8a565b810103126102d95750516001600160781b03612c83613fe3565b503d614004565b513d6000823e3d90fd5b8291955061405390823d84116122dd576122cf8183612b8a565b9490613fc4565b84513d6000823e3d90fd5b50505050670de0b6b3a764000090565b908282813d831161409b575b61408b8183612b8a565b810103126102d957505138613f9a565b503d614081565b60008060ca548260d3545b80821061414b5750508192604051927fd7454c53000000000000000000000000000000000000000000000000000000008452600484015260248301526044820152602081606481733dd65188B818712c52732CBBd230e68FbF55A3365af4908115610fe35760009161411d575091565b906020823d8211614143575b8161413660209383612b8a565b810103126102d957505191565b3d9150614129565b909261418a61415985612df8565b91906001600160a01b03928391549060031b1c166001600160a01b0380911660005260d46020526040600020541690565b1694604095865163961be39160e01b8152602060049181818481875afa908115613e985760009161433e575b5089519163705727b560e01b835280838581885afa928315613e6e5790849160009461431f575b50806001600160781b03809516968d51938480926317d1d06960e11b82525afa9b8c1561402f575060009b6142ee575b505083156142de578961424b61422d6142699796959461428f9416613ebe565b9461427b614269826142756142508261424b60029c8d83059061438e565b613ea3565b9a8b9761426e670de0b6b3a76400009e8f988993613edb565b61436a565b059061438e565b9f613edb565b05946142868b613ebe565b9083059061438e565b92600084820394128185128116918513901516176142c957509161426e6142696142c395936142bd95613edb565b9361435b565b906140ad565b601190634e487b7160e01b6000525260246000fd5b505050509450926142c39061435b565b81819c92939c3d8311614318575b6143068183612b8a565b810103126102d957505198388061420d565b503d6142fc565b816143379295503d86116122dd576122cf8183612b8a565b92386141dd565b6143559150823d84116122dd576122cf8183612b8a565b386141b6565b6000198114612bee5760010190565b906706f05b59d3b200009160008382019384129112908015821691151617612bee57565b91909160008382019384129112908015821691151617612bee57565b6143bb6001600160a01b0391612f55565b169060409182517f99c91a640000000000000000000000000000000000000000000000000000000081526020908181600481865afa9081156144e6576000916144b9575b508451906339420b4560e11b82528282600481875afa908115613e1f5761442d9260009261449a57506132c4565b845163961be39160e01b81528281600481875afa908115613e1f5760d2926001600160781b03612c839798959361446e9360009161447d575b501690612e7f565b93600052526000205490612e7f565b6144949150853d87116122dd576122cf8183612b8a565b38614466565b6144b2919250843d8611610c5757610c488183612b8a565b9038612005565b908282813d83116144df575b6144cf8183612b8a565b810103126102d9575051386143ff565b503d6144c5565b85513d6000823e3d90fd5b6001600160a01b03811660005260d26020526040600020548015908115614528575b501561451c5750565b61452590614534565b50565b905060ce541138614513565b9060006001600160a01b039283811680835260d2602052604091828420549586156147625760cd54670de0b6b3a764000090810390811161474e5761457f6145859160cc5490612e7f565b88613c4d565b90816146a7575b505061459a60cd5487613c4d565b90816145af575b5050825260d2602052812055565b838260ca54926145c06118226147dc565b0381733dd65188B818712c52732CBBd230e68FbF55A3365af490811561467e578591614688575b50823b1561117b5783519063283c3d8160e21b82526004820152848160248183875af1801561467e5790859161466a575b5050813b1561118a5782519062b64f3d60e51b82526004820152838160248183865af1801561465d57908491156145a15761465290612b60565b6117435782386145a1565b50505051903d90823e3d90fd5b61467390612b60565b61118a578338614618565b84513d87823e3d90fd5b61469f9150843d8611610cb957610ca98183612b8a565b9050386145e7565b60d05416908451906339420b4560e11b8252602082600481885afa9182156134ea57906146db929188926147355750612c59565b90833b156127e5578451639e79eaa560e01b81526001600160a01b039190911660048201526024810191909152848160448183875af1801561467e57614722575b8061458c565b61472e90949194612b60565b923861471c565b610c5091925060203d8111610c5757610c488183612b8a565b602486634e487b7160e01b81526011600452fd5b50929450505050565b1561477257565b608460405162461bcd60e51b815260206004820152602b60248201527f496e697469616c697a61626c653a20636f6e7472616374206973206e6f74206960448201527f6e697469616c697a696e670000000000000000000000000000000000000000006064820152fd5b6147e46140a2565b5090670de0b6b3a764000080831380614803575b6147ff5750565b9150565b5060ff61016d54166147f856fea26469706673582212205c4b604dfa68aa925aafbb39a092db0d06bcae1a5e55cb2ead106c0199ad140864736f6c63430008120033",
  "deployedBytecode": "0x608080604052600436101561001357600080fd5b600090813560e01c908163017b8292146129ce57508063017e7e58146129a75780630705999d14612934578063070f81d91461284657806309a5fca3146123815780630f91f06f14611d955780633753b14a14611ce45780633bd61ba814611cbd5780633f4ba83a14611c205780634a5e42b114611abe5780634a6fee0e14611a215780634fdd64e514611a0d57806352f7c9881461194a5780635b14f1831461190d5780635c975abb146118ea5780635cfe092e146118cc57806361858e23146117b95780636281baef146114595780636922d5ca1461143b578063715018a6146113df57806374cbbdb9146113bd578063815bfd291461139f5780638456cb59146113445780638a2dfe09146113295780638da5cb5b14611302578063907448ed146111d357806391cca3db146111ac57806393aeea02146110595780639908fc8b14610def5780639abacb4114610d295780639e4416b714610ccb578063a4275ceb14610aad578063aa6ca808146109e7578063ac99415a146109c9578063b4c653081461098a578063d043c5651461093c578063d0dd0e561461091e578063d30ffeda146108fa578063d477f05f14610887578063da48999714610739578063dc3b7c8b14610715578063de7e865f146106f1578063e4a301161461051a578063e9249cc7146104ea578063f2fde38b14610443578063f46901ed146103d0578063f57e84d514610372578063f8b49e721461033e578063fb7f5cc21461030d578063fca8f308146102dc5763fd33d3881461025257600080fd5b346102d95760203660031901126102d95760043561026e612ac0565b670de0b6b3a764000081116102af576020817f1c18a912ced6b380386b05a39ae0c1326b69555d4ed8d13fd4d9c6896b0ea3799260d755604051908152a180f35b60046040517f12b019e1000000000000000000000000000000000000000000000000000000008152fd5b80fd5b50346102d95760406103016102fb6102f336612a75565b929092613787565b91613d2f565b82519182526020820152f35b50346102d957806003193601126102d95760206fffffffffffffffffffffffffffffffff6101085416604051908152f35b50346102d95760203660031901126102d957602061036a6103656103606129ea565b612f55565b614534565b604051908152f35b50346102d95760203660031901126102d95760043561038f612ac0565b670de0b6b3a764000081116102af576020817fc6e60196bbe5909add58d5ae8a27082013670bce0855321773c33085af5c32439260cb55604051908152a180f35b50346102d95760203660031901126102d9577ff6b59ffc88fbb27f33470b919e00b41139ee340eb349521f0cbbc1504ce29c3e60206001600160a01b036104156129ea565b61041d612ac0565b61042681612e45565b16806001600160a01b031960d054161760d055604051908152a180f35b50346102d95760203660031901126102d95761045d6129ea565b610465612ac0565b6001600160a01b038116156104805761047d90612b18565b80f35b608460405162461bcd60e51b815260206004820152602660248201527f4f776e61626c653a206e6577206f776e657220697320746865207a65726f206160448201527f64647265737300000000000000000000000000000000000000000000000000006064820152fd5b50346102d95760203660031901126102d95760206001600160a01b036105116103606129ea565b16604051908152f35b50346102d95761052936612aaa565b82549160ff8360081c1615908180926106e4575b80156106cd575b156106635760ff1984811660011786559382610652575b5061057560ff865460081c166105708161476b565b61476b565b61057e33612b18565b84549261059e60ff8560081c166105948161476b565b600160655561476b565b8460975416609755670de0b6b3a7640000918281118015610649575b6102af5760ca5560cb5560cd55336001600160a01b031960cf54161760cf55610611575b506101087718fae27693b40000000000000000000014d1120d7b16000083825416179055600161016d9182541617905580f35b61ff00191682557f7f26b83ff96e1f2b6a682f133852f6798a09c465da95921460cefb3847402498602060405160018152a1386105de565b508282116105ba565b61ffff19166101011785553861055b565b608460405162461bcd60e51b815260206004820152602e60248201527f496e697469616c697a61626c653a20636f6e747261637420697320616c72656160448201527f647920696e697469616c697a65640000000000000000000000000000000000006064820152fd5b50303b1580156105445750600160ff851614610544565b50600160ff85161061053d565b50346102d957806003193601126102d957602060ff61016d54166040519015158152f35b50346102d95760203660031901126102d957602061036a6107346129ea565b613f44565b50346102d95760403660031901126102d9576107536129ea565b61075b612a16565b610763612ac0565b61076c81612e45565b61077582612e45565b61077f8183612dba565b6107a2826001600160a01b0380911660005260d460205260406000205416151590565b61085d576001600160a01b03809116911680835260d460205260408320826001600160a01b031982541617905560d35460d5602052806040852055680100000000000000008110156108495761082061080282600185940160d355612df8565b819391549060031b916001600160a01b03809116831b921b19161790565b90557f0bb5715f0f217c2fe9a0c877ea87d474380c641102f3440ee2a4c8b9d97909188380a380f35b602484634e487b7160e01b81526041600452fd5b60046040517f8991c4c4000000000000000000000000000000000000000000000000000000008152fd5b50346102d95760203660031901126102d9577f8daa6bb00de042a7d51816fcee4a3d5c1e91a2128fd64fa1a9a38afa0d26beb560206001600160a01b036108cc6129ea565b6108d4612ac0565b6108dd81612e45565b16806001600160a01b031960cf54161760cf55604051908152a180f35b50346102d95760203660031901126102d957602061036a6109196129ea565b6143aa565b50346102d957806003193601126102d957602060cb54604051908152f35b50346102d95760203660031901126102d9577f935ce123b6388f8dbf76890f8240a48198f1e0a884f26939aa604a46bb65b706602060043561097c612ac0565b8060ce55604051908152a180f35b50346102d95760203660031901126102d9576004358015158091036109c4576109b1612ac0565b61016d9060ff8019835416911617905580f35b600080fd5b50346102d957806003193601126102d957602060d754604051908152f35b50346102d957806003193601126102d957604051809160d354908183526020809301809260d383527f915c3eb987b20e1af620c1403197bf687fb7f18513b3a73fde6e78c7072c41a690835b818110610a905750505084610a49910385612b8a565b60405193838594850191818652518092526040850193925b828110610a7057505050500390f35b83516001600160a01b031685528695509381019392810192600101610a61565b82546001600160a01b031684529286019260019283019201610a33565b50346102d95760603660031901126102d957610ac76129ea565b610acf612a16565b90610af3610aed60443592610ae384612d89565b6103608582612dba565b92612f55565b90610afe8284612cb6565b60ca549060cb546101085490610b126147dc565b9260d75494604051987fefd7af77000000000000000000000000000000000000000000000000000000008a526001600160a01b03809116988960048c015216968760248b015260448a01526064890152608488015260a48701526fffffffffffffffffffffffffffffffff811660c487015260801c60e48601526101048501526101248401526040836101448173__$64c1823877363665b8c9607be5e0799ede$__5af4928315610cc05784908594610c8c575b5060405193846339420b4560e11b9485825281600460209889935afa8015610c81578692610bfb928992610c69575b50612c59565b9360046040518095819382525afa918215610c5e5790610c24929160409692610c2f5750612c59565b918351928352820152f35b610c50919250853d8711610c57575b610c488183612b8a565b810190612bc2565b9038610bf5565b503d610c3e565b6040513d87823e3d90fd5b610c50919250843d8611610c5757610c488183612b8a565b6040513d89823e3d90fd5b9050610cb191935060403d604011610cb9575b610ca98183612b8a565b810190612bac565b929038610bc6565b503d610c9f565b6040513d86823e3d90fd5b50346102d95760203660031901126102d957600435610ce8612ac0565b670de0b6b3a764000081116102af576020817f294c562dcfcd9be941287844539aeba4ae641cd1fc9a2883337c6b2e87cbd98a9260ca55604051908152a180f35b50346102d95760203660031901126102d957610d436129ea565b610d4b612ef7565b6001600160a01b03811680835260c960205260ff60408420541615610dc557825260c960209081526040808420805460ff1916905580516001600160a01b03909316835233918301919091527fdb198487a4c70aa000c3b1020f52688b4b86d3ebcedc84a793e03ed3b480902c9190819081015b0390a180f35b60046040517f855b7373000000000000000000000000000000000000000000000000000000008152fd5b50346102d957610dfe36612a2c565b610e0d95919395949294612fb2565b610e15612ea7565b610e1f8383612dba565b851561102f57610e3790610e3285612e45565b6132fe565b610e4081612f0b565b610e4981612f55565b92610e5383612f55565b95604051956339420b4560e11b8088526020886004816001600160a01b038d165afa978815610fe35760009861100e575b506001600160a01b038716966040519182526020826004818b5afa928315610fe357610ee2610edb610ee8938c938e610ed586610ecf610ef99b8d9b600091610fef575b508b6132c4565b936132c4565b926135c0565b9b90612c59565b99612c59565b96336001600160a01b038716613007565b6001600160a01b0387163b156109c45760006040518098639e79eaa560e01b825281836001600160a01b0382610f498d8a60048401602090939291936001600160a01b0360408201951681520152565b0393165af1918215610fe357610fc0876001600160a01b039360409a7f54787c404bb33c88e86f4baf88183a3b0141d0a848e6a9f7a13b66ae3a9b73d196610fd4575b508a519485941697339785909260609295949360808301966001600160a01b03809216845216602083015260408201520152565b0390a3600160655582519182526020820152f35b610fdd90612b60565b8b610f8c565b6040513d6000823e3d90fd5b611008915060203d602011610c5757610c488183612b8a565b38610ec8565b61102891985060203d602011610c5757610c488183612b8a565b9689610e84565b60046040517fb483c10f000000000000000000000000000000000000000000000000000000008152fd5b50346102d95760603660031901126102d9576110736129ea565b602435906044356001600160a01b03808216918281036109c457611095612ac0565b61109e84612f55565b906110a8856143aa565b86116102af5782879216906040516339420b4560e11b8152602081600481865afa8015610cc0576110e191859161118e575b5088612c59565b823b1561118a57604051639e79eaa560e01b81526001600160a01b0392909216600483015260248201529082908290604490829084905af1801561117f57611161575b50927f5f22a22ebe30686f71d42a70ccacf870a335e22ee2ac6d257af1b2551582eda692856060936040519316835260208301526040820152a180f35b61116e9094939294612b60565b61117b5790918438611124565b8480fd5b6040513d84823e3d90fd5b8380fd5b6111a6915060203d8111610c5757610c488183612b8a565b386110da565b50346102d957806003193601126102d95760206001600160a01b0360cf5416604051908152f35b50346102d95760403660031901126102d9576111ed6129ea565b6111fd6024359161036083612d89565b606060ca5461120a6147dc565b60d754604051639181079560e01b81526001600160a01b038616600482015260248101969096526044860192909252606485015260848401528260a48173__$64c1823877363665b8c9607be5e0799ede$__5af49081156112c2576001600160a01b039284926112cd575b506020906004604051809581936339420b4560e11b8352165afa9182156112c2579061036a9291602094926112aa5750612c59565b610c50919250843d8111610c5757610c488183612b8a565b6040513d85823e3d90fd5b60209192506112f29060603d81116112fb575b6112ea8183612b8a565b810190613555565b50509190611275565b503d6112e0565b50346102d957806003193601126102d95760206001600160a01b0360335416604051908152f35b50346102d957806003193601126102d95760406103016140a2565b50346102d957806003193601126102d95761135d612ef7565b611365612ea7565b600160ff1960975416176097557f62e78cea01bee320cd4e420270b5ea74000d11b0c9f74754ebdbfc544b05a2586020604051338152a180f35b50346102d957806003193601126102d957602060cd54604051908152f35b50346102d957806003193601126102d95760206101085460801c604051908152f35b50346102d957806003193601126102d9576113f8612ac0565b60006001600160a01b036033546001600160a01b03198116603355167f8be0079c531659141344cd1fd0a4f28419497f9722a3daafe3b4186f6b6457e08280a380f35b50346102d957806003193601126102d957602060cc54604051908152f35b50346102d95760c03660031901126102d9576114736129ea565b60243560443591611482612a00565b9260a435908115918215036109c457611499612fb2565b6114a1612ea7565b831561102f576114b085612e45565b6114bb6084356132fe565b6114c483612f0b565b6114cd83612f55565b6001600160a01b0392838216906114e8878333888a16613007565b156115b7576020600491604051928380926339420b4560e11b82525afa9081156115ac579261154f9261154989937ff5dd9317b9e63ac316ce44acc85f670b54b339cfa3e9076e1dd55065b922314b979660209c9161158f575b50896132c4565b90613330565b945b61157f8660405193849316963396846040919493926001600160a01b03606083019616825260208201520152565b0390a36001606555604051908152f35b6115a691508c3d8111610c5757610c488183612b8a565b38611542565b6040513d8a823e3d90fd5b906115ca8460d199949895995416612e45565b604051966339420b4560e11b88526020978881600481875afa908115610c5e576116089392916116019187916117a25750896132c4565b3092613330565b60d1546040517f095ea7b30000000000000000000000000000000000000000000000000000000081529089166001600160a01b0316600482015260248101829052909690818160448187875af18015610cc057611775575b508760d1541691604051907faf929a8000000000000000000000000000000000000000000000000000000000825260048201528181602481865afa918215610cc0578492611747575b5050813b156117435782916064839260405194859384927f90210d7e00000000000000000000000000000000000000000000000000000000845260048401528b60248401528c891660448401525af1801561117f5761172f575b50506020947ff5dd9317b9e63ac316ce44acc85f670b54b339cfa3e9076e1dd55065b922314b91611551565b6117398291612b60565b6102d95780611703565b8280fd5b90809250813d831161176e575b61175e8183612b8a565b810103126109c4575138806116a9565b503d611754565b61179490823d841161179b575b61178c8183612b8a565b810190612f9a565b5038611660565b503d611782565b6115a691508b3d8d11610c5757610c488183612b8a565b50346102d95760403660031901126102d9576117d66103606129ea565b6040516339420b4560e11b81526020816004816001600160a01b0386165afa9081156112c2576040916118139185916118ae575b506024356132c4565b60ca549261185c6118226147dc565b8451958694859463176f358b60e21b865260048601909493926060926001600160a01b036080840197168352602083015260408201520152565b038173__$64c1823877363665b8c9607be5e0799ede$__5af490811561117f576020929161188e575b50604051908152f35b6118a7915060403d604011610cb957610ca98183612b8a565b5038611885565b6118c6915060203d8111610c5757610c488183612b8a565b3861180a565b50346102d957806003193601126102d957602060ce54604051908152f35b50346102d957806003193601126102d957602060ff609754166040519015158152f35b50346102d95760203660031901126102d95760ff60406020926001600160a01b036119366129ea565b16815260c984522054166040519015158152f35b50346102d95761195936612aaa565b90611962612ac0565b670de0b6b3a76400006119758284612e9a565b116102af57825b60d3548110156119d157806119c66103656001600160a01b036119a16119cc95612df8565b90549060031b1c166001600160a01b0380911660005260d46020526040600020541690565b5061435b565b61197c565b506040907f032dc6a2d839eb179729a55633fdf1c41a1fc4739394154117005db2b354b9b5928060cc558160cd5582519182526020820152a180f35b50346102d95760406103016102fb36612a75565b50346102d95760403660031901126102d9576004356fffffffffffffffffffffffffffffffff8082168092036109c4576024359081168082036109c457611a66612ac0565b670de0b6b3a76400008310908115611ab4575b506102af5761010891837fffffffffffffffffffffffffffffffff0000000000000000000000000000000084549360801b1692161717905580f35b9050821138611a79565b50346102d95760203660031901126102d957611ad86129ea565b611ae0612ac0565b611b03816001600160a01b0380911660005260d460205260406000205416151590565b15611bf6576001600160a01b038091169081835260d4602052604083208054906001600160a01b03198216905560d5602052604084205460d3549060001991828101908111611be25761080285611b5c611b8193612df8565b90549060031b1c169283895260d56020528060408a2055878952886040812055612df8565b905560d3548015611bce5701611b9681612df8565b8482549160031b1b1916905560d35516907f0fa1e4606af435f32f05b3804033d2933e691fab32ee74d2db6fa82d2741f1ea8380a380f35b602486634e487b7160e01b81526031600452fd5b602487634e487b7160e01b81526011600452fd5b60046040517fecb004d4000000000000000000000000000000000000000000000000000000008152fd5b50346102d957806003193601126102d957611c39612ef7565b60975460ff811615611c795760ff19166097557f5db9ee0a495bf2e6ff9c91a7834c1ba4fdd244a5e8aa4e537bd38aeae4b073aa6020604051338152a180f35b606460405162461bcd60e51b815260206004820152601460248201527f5061757361626c653a206e6f74207061757365640000000000000000000000006044820152fd5b50346102d957806003193601126102d95760206001600160a01b0360d15416604051908152f35b50346102d95760203660031901126102d957611cfe6129ea565b611d06612ef7565b611d29816001600160a01b0380911660005260d460205260406000205416151590565b15611bf657610dbf81611d5c7fdcb65c0553aaa433aadd180404ff195259c48f78aa50f877ebcb4bb215129a4e93612f0b565b6001600160a01b031680845260c960209081526040808620805460ff191660011790558051928352339183019190915290918291820190565b50346102d957611dd9611da736612a2c565b611db5969195939496612fb2565b611dbd612ea7565b611dc686612e45565b611dcf85612d89565b610e328785612dba565b611de282612f0b565b611deb82612f55565b93611df586612f55565b95611e0b856001600160a01b0388163381613007565b600092611e17876144f1565b60ca5460608789611e70611e296147dc565b60d754906040519687958695639181079560e01b875260048701919260809396959491966001600160a01b0360a08501981684526020840152604083015260608201520152565b038173__$64c1823877363665b8c9607be5e0799ede$__5af4908115610c5e57858091819361235d575b506001600160a01b038a163b156102d957604051632770a7eb60e21b81526001600160a01b038b1660048201819052602482018b905282908290604490829084905af1801561117f5761234e575b5090611ef48388612e9a565b6001600160a01b038b163b1561174357828b60246001600160a01b03938360405195869485936313f3df3160e31b85526004850152165af180156112c25790839161233a575b50506001600160a01b038a163b156123365760405163d8b8785360e01b815260048101919091528181602481836001600160a01b038f165af1801561117f57908291612322575b505060405163705727b560e01b81526020816004816001600160a01b038e165afa90811561117f57906001600160781b03918391612303575b5016151580612233575b61222257816121f9575b50506040516339420b4560e11b81526020816004816001600160a01b038d165afa8015610fe3576120139261200b926000926121d8575b506132c4565b8489896135c0565b50604051906339420b4560e11b82526020826004816001600160a01b038d165afa908115610fe35761204c926000926121b75750612c59565b956001600160a01b0388163b156109c457604051639e79eaa560e01b81526001600160a01b0384811660048301526024820189905290986000918a9160449183918591165af1908115610fe3576001600160a01b03986020926121a8575b506004604051809a81936339420b4560e11b8352165afa928315610fe3576121067f54787c404bb33c88e86f4baf88183a3b0141d0a848e6a9f7a13b66ae3a9b73d1946001600160a01b039260209a6000926121895750612c59565b921680957ffb80d861da582b723be2d19507ce3e03851820c464abea89156ec77e089b1ad9604051806121563394888b846040919493926001600160a01b03606083019616825260208201520152565b0390a3604080516001600160a01b039586168152949091166020850152830152606082018490523391806080810161157f565b6121a19192508b3d8d11610c5757610c488183612b8a565b908b610bf5565b6121b190612b60565b896120aa565b6121d191925060203d602011610c5757610c488183612b8a565b908a610bf5565b6121f291925060203d602011610c5757610c488183612b8a565b908b612005565b6040612219916001600160a01b038b16815260d260205220918254612e9a565b90558880611fce565b60046040516316fde3bd60e21b8152fd5b5060405163961be39160e01b81526020816004816001600160a01b038e165afa90811561117f5782916122e4575b5060405163705727b560e01b81526020816004816001600160a01b038f165afa9081156112c257916001600160781b03806122af93662386f26fc100009587916122b5575b5016911661358f565b10611fc4565b6122d7915060203d6020116122dd575b6122cf8183612b8a565b810190613570565b386122a6565b503d6122c5565b6122fd915060203d6020116122dd576122cf8183612b8a565b8b612261565b61231c915060203d6020116122dd576122cf8183612b8a565b8c611fba565b61232b90612b60565b6102d957808b611f81565b5080fd5b61234390612b60565b61233657818c611f3a565b61235790612b60565b8b611ee8565b91509550612379915060603d81116112fb576112ea8183612b8a565b91958b611e9a565b50346102d95760a03660031901126102d95761239b6129ea565b6123a3612a00565b6123ab612fb2565b6123b3612ea7565b6123be602435612d89565b6123c781612e45565b6123d26084356132fe565b6123db82612f55565b916123f36024356001600160a01b0385163381613007565b6040516339420b4560e11b81526020816004816001600160a01b0388165afa908115610c5e578591612827575b5061242d816044356132c4565b90612437856144f1565b60ca549160009260606124486147dc565b60d754604051639181079560e01b81526001600160a01b038b16600482015260248035908201526044810194909452606484019190915260848301528160a48173__$64c1823877363665b8c9607be5e0799ede$__5af4908115610cc0578492859186936127fc575b50836124bc91613524565b6001600160a01b0388163b1561117b57604051632770a7eb60e21b81526001600160a01b03891660048201819052602480359083015286908290604490829084905af18015612774576127e9575b506125158284612e9a565b6001600160a01b0389163b156127e5576040516313f3df3160e31b815260048101919091528581602481836001600160a01b038e165af18015612774579086916127d1575b50506001600160a01b0388163b1561117b576040519063d8b8785360e01b825260048201528481602481836001600160a01b038d165af18015610c5e579085916127bd575b505060405163705727b560e01b81526020816004816001600160a01b038c165afa908115610c5e57906001600160781b0391869161279e575b50161515806126f3575b612222576125f793816126ca575b5050612c59565b926001600160a01b0381163b1561117b57846040518092639e79eaa560e01b825281836001600160a01b03826126478b8b60048401602090939291936001600160a01b0360408201951681520152565b0393165af18015610c5e576126b6575b50602093507ffb80d861da582b723be2d19507ce3e03851820c464abea89156ec77e089b1ad96001600160a01b036040519316928061157f33948760243591846040919493926001600160a01b03606083019616825260208201520152565b6126c08591612b60565b61118a5783612657565b60406126ea916001600160a01b038a16815260d260205220918254612e9a565b905538806125f0565b5060405163961be39160e01b81526020816004816001600160a01b038c165afa908115610c5e57859161277f575b5060405163705727b560e01b81526020816004816001600160a01b038d165afa90811561277457916001600160781b038061276e93662386f26fc10000958a916122b5575016911661358f565b106125e2565b6040513d88823e3d90fd5b612798915060203d6020116122dd576122cf8183612b8a565b38612721565b6127b7915060203d6020116122dd576122cf8183612b8a565b386125d8565b6127c690612b60565b61118a57833861259f565b6127da90612b60565b61117b57843861255a565b8580fd5b6127f590959195612b60565b933861250a565b9092506124bc935061281c915060603d81116112fb576112ea8183612b8a565b9193509091836124b1565b612840915060203d602011610c5757610c488183612b8a565b38612420565b50346102d95760403660031901126102d9576128606129ea565b9060243561286c612ef7565b61287583612f55565b61287e846143aa565b82116102af576001600160a01b0316803b156117435782809160246040518094819362b64f3d60e51b83528760048401525af180156112c257612903575b50604080516001600160a01b039094168452602084019190915290917f4941e18a2bcbb0f9fa0081238f26793a8ad8c202b913ae8bf5f7e523f68ff1379181908101610dbf565b9161292e7f4941e18a2bcbb0f9fa0081238f26793a8ad8c202b913ae8bf5f7e523f68ff13793612b60565b916128bc565b50346102d95760203660031901126102d9577ffeb9010869b6ccec4557ddbbce947afeace5efc66cdff52c5e533c09336a8f2d60206001600160a01b036129796129ea565b612981612ac0565b61298a81612e45565b16806001600160a01b031960d154161760d155604051908152a180f35b50346102d957806003193601126102d95760206001600160a01b0360d05416604051908152f35b90503461233657816003193601126123365760209060ca548152f35b600435906001600160a01b03821682036109c457565b606435906001600160a01b03821682036109c457565b602435906001600160a01b03821682036109c457565b60c09060031901126109c4576001600160a01b0360043581811681036109c4579160243582811681036109c45791604435916064359160843590811681036109c4579060a43590565b60609060031901126109c4576001600160a01b039060043582811681036109c4579160243590811681036109c4579060443590565b60409060031901126109c4576004359060243590565b6001600160a01b03603354163303612ad457565b606460405162461bcd60e51b815260206004820152602060248201527f4f776e61626c653a2063616c6c6572206973206e6f7420746865206f776e65726044820152fd5b603354906001600160a01b0380911691826001600160a01b0319821617603355167f8be0079c531659141344cd1fd0a4f28419497f9722a3daafe3b4186f6b6457e0600080a3565b67ffffffffffffffff8111612b7457604052565b634e487b7160e01b600052604160045260246000fd5b90601f8019910116810190811067ffffffffffffffff821117612b7457604052565b91908260409103126109c4576020825192015190565b908160209103126109c4575160ff811681036109c45790565b60ff6011199116019060ff8211612bee57565b634e487b7160e01b600052601160045260246000fd5b60ff166012039060ff8211612bee57565b60ff16604d8111612bee57600a0a90565b81810292918115918404141715612bee57565b8115612c43570490565b634e487b7160e01b600052601260045260246000fd5b9060ff81166012811015612c86575090612c7d612c78612c8393612c04565b612c15565b90612c39565b90565b601210612c91575090565b90612ca1612c78612c8393612bdb565b90612c26565b908160209103126109c4575190565b604051916317d1d06960e11b9081845260209182856004816001600160a01b038098165afa948515610fe357600095612d59575b50906004839260405195869384928352165afa908115610fe357600091612d2d575b509050670de0b6b3a76400009180830292830403612bee57612c8391612c39565b82813d8311612d52575b612d418183612b8a565b810103126102d95750518038612d0c565b503d612d37565b90948382813d8311612d82575b612d708183612b8a565b810103126102d9575051936004612cea565b503d612d66565b15612d9057565b60046040517f3f3835e7000000000000000000000000000000000000000000000000000000008152fd5b6001600160a01b03908116911614612dce57565b60046040517feeb7911f000000000000000000000000000000000000000000000000000000008152fd5b60d354811015612e2f5760d36000527f915c3eb987b20e1af620c1403197bf687fb7f18513b3a73fde6e78c7072c41a60190600090565b634e487b7160e01b600052603260045260246000fd5b6001600160a01b031615612e5557565b60046040517f0bd3e3ed000000000000000000000000000000000000000000000000000000008152fd5b91908203918211612bee57565b9060018201809211612bee57565b91908201809211612bee57565b60ff60975416612eb357565b606460405162461bcd60e51b815260206004820152601060248201527f5061757361626c653a20706175736564000000000000000000000000000000006044820152fd5b6001600160a01b0360cf5416330361222257565b6001600160a01b031660005260c960205260ff60406000205416612f2b57565b60046040517f8654830a000000000000000000000000000000000000000000000000000000008152fd5b612f78816001600160a01b0380911660005260d460205260406000205416151590565b15611bf6576001600160a01b0380911660005260d46020526040600020541690565b908160209103126109c4575180151581036109c45790565b600260655414612fc3576002606555565b606460405162461bcd60e51b815260206004820152601f60248201527f5265656e7472616e637947756172643a207265656e7472616e742063616c6c006044820152fd5b93929190604051602093848201927f23b872dd0000000000000000000000000000000000000000000000000000000084526001600160a01b039485809216602485015216604483015260648201526064815260a081019267ffffffffffffffff9682851088861117612b7457169060e0810184811088821117612b74576040528484527f5361666545524332303a206c6f772d6c6576656c2063616c6c206661696c656460c0820152600080938192519082855af1903d156131a5573d968711613191576130f6949596604051906130e888601f19601f8401160183612b8a565b81528093873d92013e6131b2565b805190828215928315613179575b5050501561310f5750565b6084906040519062461bcd60e51b82526004820152602a60248201527f5361666545524332303a204552433230206f7065726174696f6e20646964206e60448201527f6f742073756363656564000000000000000000000000000000000000000000006064820152fd5b6131899350820181019101612f9a565b388281613104565b602483634e487b7160e01b81526041600452fd5b91506130f6939495506060915b9192901561321357508151156131c6575090565b3b156131cf5790565b606460405162461bcd60e51b815260206004820152601d60248201527f416464726573733a2063616c6c20746f206e6f6e2d636f6e74726163740000006044820152fd5b8251909150156132265750805190602001fd5b6040519062461bcd60e51b82528160208060048301528251908160248401526000935b82851061326c575050604492506000838284010152601f80199101168101030190fd5b8481018201518686016044015293810193859350613249565b60ff8116601281101561329f5750612c78612c8391612c04565b6012106132ac5750600190565b612c786132b891612bdb565b8015612c435760010490565b9060ff811660128110156132e3575090612ca1612c78612c8393612c04565b6012106132ee575090565b90612c7d612c78612c8393612bdb565b421161330657565b60046040517f549b6335000000000000000000000000000000000000000000000000000000008152fd5b9193929061339290613341846144f1565b60ca54926000946133506147dc565b9460409586918251968792839263176f358b60e21b8452888760048601909493926060926001600160a01b036080840197168352602083015260408201520152565b038173__$64c1823877363665b8c9607be5e0799ede$__5af49081156134cd57869487926134f8575b506001600160a01b03906133d986809b6133d482612d89565b613524565b1692833b156134f45785519062b64f3d60e51b82526004820152868160248183885af180156134ea576134d7575b50823b156127e55784519063283c3d8160e21b82526004820152858160248183875af180156134cd579086916134b9575b5050813b1561117b5783517f40c10f190000000000000000000000000000000000000000000000000000000081526001600160a01b03919091166004820152602481019290925290919083908390604490829084905af19081156134b0575061349f575050565b6134a98291612b60565b6102d95750565b513d84823e3d90fd5b6134c290612b60565b61117b578438613438565b85513d88823e3d90fd5b6134e390969196612b60565b9438613407565b86513d89823e3d90fd5b8680fd5b6001600160a01b03955061351a919250863d8811610cb957610ca98183612b8a565b94909491906133bb565b1161352b57565b60046040517ff512a720000000000000000000000000000000000000000000000000000000008152fd5b908160609103126109c4578051916040602083015192015190565b908160209103126109c457516001600160781b03811681036109c45790565b90670de0b6b3a764000091828102928184041490151715612bee576135bb612c83928260011c90612e9a565b612c39565b909293916135cf818584613798565b94856135dc838099613524565b6000926001600160a01b038093169485855260209360d28552604097888720613606868254612e9a565b90551690813b156127e5578591602483928a51948593849262b64f3d60e51b845260048401525af1801561377d57613766575b509061364491612e9a565b833b15611743578451906313f3df3160e31b82526004820152828160248183885af1801561374857908391613752575b505083519263961be39160e01b84528184600481845afa938415613748578394613722575b50908060049286519384809263705727b560e01b82525afa92831561371757916136e29391662386f26fc100009593926136fa575b50506001600160781b03809116911661358f565b106136ea5750565b600490516316fde3bd60e21b8152fd5b6137109250803d106122dd576122cf8183612b8a565b38806136ce565b8551903d90823e3d90fd5b829194509161373f600493823d84116122dd576122cf8183612b8a565b94919250613699565b85513d85823e3d90fd5b61375b90612b60565b612336578138613674565b93613775613644939295612b60565b939091613639565b87513d87823e3d90fd5b600160ff1b8114612bee5760000390565b92916137a5818386613c77565b9460009386908390868612613945575050506001600160a01b031660405163961be39160e01b81526020938482600481865afa9182156138fd5785908793613925575b50600492936040519384809263705727b560e01b82525afa80156138fd57849386938892613902575b50610108546040517f2f6599bb0000000000000000000000000000000000000000000000000000000081526001600160781b039283166004820152929091166024830152604482019290925260648101939093526fffffffffffffffffffffffffffffffff8116608484015260801c60a4830152818060c481015b038173__$64c1823877363665b8c9607be5e0799ede$__5af49283156138fd57612c8394936138c8575b5050816138c291612e7f565b93612e9a565b6138c292935090816138ee92903d106138f6575b6138e68183612b8a565b810190612ca7565b9190386138b6565b503d6138dc565b610fe3565b61388c91925061391e90853d87116122dd576122cf8183612b8a565b9190613811565b6004935061393f90823d84116122dd576122cf8183612b8a565b926137e8565b6001600160a01b03919692985080945094929416906040519063961be39160e01b825260208083600481875afa9283156138fd578293613a76575b50806004916001600160781b03809516956040519384809263705727b560e01b82525afa9283156138fd5792613a59575b5050166139c7816139c28885612e9a565b61358f565b6101085492906fffffffffffffffffffffffffffffffff8416106139ef575050505050509190565b9091939550613a009294975061358f565b9060801c1115613a2f57613a16613a1d91613787565b8483613a98565b90613a2a91938491613798565b905090565b60046040517f6158a9f8000000000000000000000000000000000000000000000000000000008152fd5b613a6f9250803d106122dd576122cf8183612b8a565b38806139b1565b819350613a91906004923d86116122dd576122cf8183612b8a565b9290613980565b6040516339420b4560e11b81529193926020926001600160a01b038316908481600481855afa9081156138fd57600091613c30575b50613ad781613285565b946040519263705727b560e01b84528184600481845afa80156138fd57600494600091613c13575b5082613b39613b29613b146101085460801c90565b6fffffffffffffffffffffffffffffffff1690565b6001600160781b03809416613c4d565b926040519687809263961be39160e01b82525afa80156138fd57613b7195613b6c94600092613bf6575b50501690612e7f565b612c59565b9160019582613b8a613b838787612c26565b8385613798565b5010613a2f5791905b838710613ba857505050612c83929350612c26565b909192613bbe613bb88289612e9a565b60011c90565b9083613bd4613bcd8885612c26565b8786613798565b5010613be45750925b9190613b93565b939650613bf090612e8c565b95613bdd565b613c0c9250803d106122dd576122cf8183612b8a565b3880613b63565b613c2a9150833d85116122dd576122cf8183612b8a565b38613aff565b613c479150853d8711610c5757610c488183612b8a565b38613acd565b90613c5791612c26565b6706f05b59d3b200008101809111612bee57670de0b6b3a7640000900490565b909291613c848483612cb6565b9060ca549060cb5493604051967fe02a44c60000000000000000000000000000000000000000000000000000000088526001600160a01b03809216600489015216602487015260448601526064850152608484015260a483015260408260c48173__$64c1823877363665b8c9607be5e0799ede$__5af4918215610fe3576000908193613d1057509190565b9050613d2b91925060403d8111610cb957610ca98183612b8a565b9091565b92909192613d3d8382612dba565b831561102f57610aed613d4f91612f55565b916001600160a01b03938482166040958651926339420b4560e11b908185526020958686600481885afa958615613e98578996613da093613d9892600092613e79575b50613efe565b988991613798565b9092819516938951938385528785600481895afa948515613e6e578895600092613dd0928492613e565750612c59565b9912613e2a575050600488518094819382525afa928315613e1f57612c8394959650600093613e00575050612c59565b613e17929350803d10610c5757610c488183612b8a565b9038806125f0565b86513d6000823e3d90fd5b93509350600488518094819382525afa928315613e1f57612c8394959650600093613e00575050612c59565b610c50919250883d8a11610c5757610c488183612b8a565b8b513d6000823e3d90fd5b613e919192508a3d8c11610c5757610c488183612b8a565b9038613d92565b8a513d6000823e3d90fd5b8115612c4357600160ff1b8114600019831416612bee570590565b90670de0b6b3a764000091828102928184051490151715612bee57565b818102929160008212600160ff1b821416612bee578184051490151715612bee57565b9060ff81166012811015613f23575090613f1d612c78612c8393612c04565b90613edb565b601210613f2e575090565b90613f3e612c78612c8393612bdb565b90613ea3565b613f556001600160a01b0391612f55565b1660408051917f18160ddd00000000000000000000000000000000000000000000000000000000928381526020908181600481865afa90811561405a57600091614075575b50156140655782519363705727b560e01b85528185600481865afa94851561405a57600095614039575b508190600485518095819382525afa92831561402f5750600092613ff7575b50506001600160781b03612c83921661358f565b81819392933d8311614028575b61400e8183612b8a565b810103126102d95750516001600160781b03612c83613fe3565b503d614004565b513d6000823e3d90fd5b8291955061405390823d84116122dd576122cf8183612b8a565b9490613fc4565b84513d6000823e3d90fd5b50505050670de0b6b3a764000090565b908282813d831161409b575b61408b8183612b8a565b810103126102d957505138613f9a565b503d614081565b60008060ca548260d3545b80821061414b5750508192604051927fd7454c5300000000000000000000000000000000000000000000000000000000845260048401526024830152604482015260208160648173__$64c1823877363665b8c9607be5e0799ede$__5af4908115610fe35760009161411d575091565b906020823d8211614143575b8161413660209383612b8a565b810103126102d957505191565b3d9150614129565b909261418a61415985612df8565b91906001600160a01b03928391549060031b1c166001600160a01b0380911660005260d46020526040600020541690565b1694604095865163961be39160e01b8152602060049181818481875afa908115613e985760009161433e575b5089519163705727b560e01b835280838581885afa928315613e6e5790849160009461431f575b50806001600160781b03809516968d51938480926317d1d06960e11b82525afa9b8c1561402f575060009b6142ee575b505083156142de578961424b61422d6142699796959461428f9416613ebe565b9461427b614269826142756142508261424b60029c8d83059061438e565b613ea3565b9a8b9761426e670de0b6b3a76400009e8f988993613edb565b61436a565b059061438e565b9f613edb565b05946142868b613ebe565b9083059061438e565b92600084820394128185128116918513901516176142c957509161426e6142696142c395936142bd95613edb565b9361435b565b906140ad565b601190634e487b7160e01b6000525260246000fd5b505050509450926142c39061435b565b81819c92939c3d8311614318575b6143068183612b8a565b810103126102d957505198388061420d565b503d6142fc565b816143379295503d86116122dd576122cf8183612b8a565b92386141dd565b6143559150823d84116122dd576122cf8183612b8a565b386141b6565b6000198114612bee5760010190565b906706f05b59d3b200009160008382019384129112908015821691151617612bee57565b91909160008382019384129112908015821691151617612bee57565b6143bb6001600160a01b0391612f55565b169060409182517f99c91a640000000000000000000000000000000000000000000000000000000081526020908181600481865afa9081156144e6576000916144b9575b508451906339420b4560e11b82528282600481875afa908115613e1f5761442d9260009261449a57506132c4565b845163961be39160e01b81528281600481875afa908115613e1f5760d2926001600160781b03612c839798959361446e9360009161447d575b501690612e7f565b93600052526000205490612e7f565b6144949150853d87116122dd576122cf8183612b8a565b38614466565b6144b2919250843d8611610c5757610c488183612b8a565b9038612005565b908282813d83116144df575b6144cf8183612b8a565b810103126102d9575051386143ff565b503d6144c5565b85513d6000823e3d90fd5b6001600160a01b03811660005260d26020526040600020548015908115614528575b501561451c5750565b61452590614534565b50565b905060ce541138614513565b9060006001600160a01b039283811680835260d2602052604091828420549586156147625760cd54670de0b6b3a764000090810390811161474e5761457f6145859160cc5490612e7f565b88613c4d565b90816146a7575b505061459a60cd5487613c4d565b90816145af575b5050825260d2602052812055565b838260ca54926145c06118226147dc565b038173__$64c1823877363665b8c9607be5e0799ede$__5af490811561467e578591614688575b50823b1561117b5783519063283c3d8160e21b82526004820152848160248183875af1801561467e5790859161466a575b5050813b1561118a5782519062b64f3d60e51b82526004820152838160248183865af1801561465d57908491156145a15761465290612b60565b6117435782386145a1565b50505051903d90823e3d90fd5b61467390612b60565b61118a578338614618565b84513d87823e3d90fd5b61469f9150843d8611610cb957610ca98183612b8a565b9050386145e7565b60d05416908451906339420b4560e11b8252602082600481885afa9182156134ea57906146db929188926147355750612c59565b90833b156127e5578451639e79eaa560e01b81526001600160a01b039190911660048201526024810191909152848160448183875af1801561467e57614722575b8061458c565b61472e90949194612b60565b923861471c565b610c5091925060203d8111610c5757610c488183612b8a565b602486634e487b7160e01b81526011600452fd5b50929450505050565b1561477257565b608460405162461bcd60e51b815260206004820152602b60248201527f496e697469616c697a61626c653a20636f6e7472616374206973206e6f74206960448201527f6e697469616c697a696e670000000000000000000000000000000000000000006064820152fd5b6147e46140a2565b5090670de0b6b3a764000080831380614803575b6147ff5750565b9150565b5060ff61016d54166147f856fea26469706673582212205c4b604dfa68aa925aafbb39a092db0d06bcae1a5e55cb2ead106c0199ad140864736f6c63430008120033",
  "libraries": {
    "CoreV3": "0x3dd65188B818712c52732CBBd230e68FbF55A336"
  },
  "devdoc": {
    "events": {
      "Initialized(uint8)": {
        "details": "Triggered when the contract has been initialized or reinitialized."
      },
      "Paused(address)": {
        "details": "Emitted when the pause is triggered by `account`."
      },
      "PausedAsset(address,address)": {
        "details": "Emitted when the pause is triggered by `account`."
      },
      "Unpaused(address)": {
        "details": "Emitted when the pause is lifted by `account`."
      },
      "UnpausedAsset(address,address)": {
        "details": "Emitted when the pause is lifted by `account`."
      }
    },
    "kind": "dev",
    "methods": {
      "addAsset(address,address)": {
        "params": {
          "asset": "The address of the Wombat Asset contract",
          "token": "The address of token"
        }
      },
      "addressOfAsset(address)": {
        "details": "to be used externally",
        "params": {
          "token": "The address of ERC20 token"
        }
      },
      "deposit(address,uint256,uint256,address,uint256,bool)": {
        "details": "Asset needs to be created and added to pool before any operation. This function assumes tax free token.",
        "params": {
          "amount": "The amount to be deposited",
          "deadline": "The deadline to be respected",
          "minimumLiquidity": "The minimum amount of liquidity to receive",
          "shouldStake": "Whether to stake LP tokens automatically after deposit",
          "to": "The user accountable for deposit, receiving the Wombat assets (lp)",
          "token": "The token address to be deposited"
        },
        "returns": {
          "liquidity": "Total asset liquidity minted"
        }
      },
      "exchangeRate(address)": {
        "params": {
          "token": "The address of the token"
        },
        "returns": {
          "xr": "The exchange rate of LP token"
        }
      },
      "isPaused(address)": {
        "details": "Function to return if the asset is paused. The return value is only useful when true. When the return value is false, the asset can be either not paused or not exist."
      },
      "mintFee(address)": {
        "params": {
          "token": "The address of the token to collect fee"
        }
      },
      "owner()": {
        "details": "Returns the address of the current owner."
      },
      "pause()": {
        "details": "pause pool, restricting certain operations"
      },
      "pauseAsset(address)": {
        "details": "pause asset, restricting deposit and swap operations"
      },
      "paused()": {
        "details": "Returns true if the contract is paused, and false otherwise."
      },
      "quoteAmountIn(address,address,int256)": {
        "details": "To be used by frontend",
        "params": {
          "fromToken": "The initial ERC20 token",
          "toAmount": "The given output amount",
          "toToken": "The token wanted by user"
        },
        "returns": {
          "amountIn": "The input amount required",
          "haircut": "The haircut that would be applied"
        }
      },
      "quotePotentialDeposit(address,uint256)": {
        "details": "To be used by frontend",
        "params": {
          "amount": "The amount to deposit",
          "token": "The token to deposit by user"
        },
        "returns": {
          "liquidity": "The potential liquidity user would receive"
        }
      },
      "quotePotentialSwap(address,address,int256)": {
        "details": "In reverse quote, the haircut is in the `fromAsset`",
        "params": {
          "fromAmount": "The given input amount",
          "fromToken": "The initial ERC20 token",
          "toToken": "The token wanted by user"
        },
        "returns": {
          "haircut": "The haircut that would be applied",
          "potentialOutcome": "The potential amount user would receive"
        }
      },
      "quotePotentialWithdraw(address,uint256)": {
        "details": "To be used by frontend",
        "params": {
          "liquidity": "The liquidity (amount of lp assets) to be withdrawn",
          "token": "The token to be withdrawn by user"
        },
        "returns": {
          "amount": "The potential amount user would receive"
        }
      },
      "quotePotentialWithdrawFromOtherAsset(address,address,uint256)": {
        "details": "take into account high cov ratio fee"
      },
      "removeAsset(address)": {
        "details": "Can only be called by owner",
        "params": {
          "token": "The address of token to remove"
        }
      },
      "renounceOwnership()": {
        "details": "Leaves the contract without owner. It will not be possible to call `onlyOwner` functions. Can only be called by the current owner. NOTE: Renouncing ownership will leave the contract without an owner, thereby disabling any functionality that is only available to the owner."
      },
      "setAmpFactor(uint256)": {
        "params": {
          "ampFactor_": "new pool's amplification factor"
        }
      },
      "setDev(address)": {
        "params": {
          "dev_": "new contract dev address"
        }
      },
      "setFeeTo(address)": {
        "params": {
          "feeTo_": "new fee beneficiary"
        }
      },
      "setHaircutRate(uint256)": {
        "params": {
          "haircutRate_": "new pool's haircutRate_"
        }
      },
      "swap(address,address,uint256,uint256,address,uint256)": {
        "details": "This function assumes tax free token.",
        "params": {
          "deadline": "The deadline to be respected",
          "fromAmount": "The amount of from token inserted",
          "fromToken": "The token being inserted into Pool by user for swap",
          "minimumToAmount": "The minimum amount that will be accepted by user as result",
          "to": "The user receiving the result of swap",
          "toToken": "The token wanted by user, leaving the Pool"
        }
      },
      "transferOwnership(address)": {
        "details": "Transfers ownership of the contract to a new account (`newOwner`). Can only be called by the current owner."
      },
      "transferTipBucket(address,uint256,address)": {
        "details": "unit of amount should be in WAD"
      },
      "unpause()": {
        "details": "unpause pool, enabling certain operations"
      },
      "unpauseAsset(address)": {
        "details": "unpause asset, enabling deposit and swap operations"
      },
      "withdraw(address,uint256,uint256,address,uint256)": {
        "params": {
          "deadline": "The deadline to be respected",
          "liquidity": "The liquidity to be withdrawn",
          "minimumAmount": "The minimum amount that will be accepted by user",
          "to": "The user receiving the withdrawal",
          "token": "The token to be withdrawn"
        },
        "returns": {
          "amount": "The total amount withdrawn"
        }
      },
      "withdrawFromOtherAsset(address,address,uint256,uint256,address,uint256)": {
        "params": {
          "deadline": "The deadline to be respected",
          "fromToken": "The corresponding token user holds the LP (Asset) from",
          "liquidity": "The liquidity to be withdrawn (in fromToken decimal)",
          "minimumAmount": "The minimum amount that will be accepted by user",
          "to": "The user receiving the withdrawal",
          "toToken": "The token wanting to be withdrawn (needs to be well covered)"
        },
        "returns": {
          "toAmount": "The total amount withdrawn"
        }
      }
    },
    "title": "Volatile Pool",
    "version": 1
  },
  "userdoc": {
    "events": {
      "AssetAdded(address,address)": {
        "notice": "An event thats emitted when an asset is added to Pool"
      },
      "AssetRemoved(address,address)": {
        "notice": "An event thats emitted when asset is removed from Pool"
      },
      "Deposit(address,address,uint256,uint256,address)": {
        "notice": "An event thats emitted when a deposit is made to Pool"
      },
      "Swap(address,address,address,uint256,uint256,address)": {
        "notice": "An event thats emitted when a swap is made in Pool"
      },
      "Withdraw(address,address,uint256,uint256,address)": {
        "notice": "An event thats emitted when a withdrawal is made from Pool"
      }
    },
    "kind": "user",
    "methods": {
      "addAsset(address,address)": {
        "notice": "Adds asset to pool, reverts if asset already exists in pool"
      },
      "addressOfAsset(address)": {
        "notice": "Gets Asset corresponding to ERC20 token. Reverts if asset does not exists in Pool."
      },
      "ampFactor()": {
        "notice": "Amplification factor"
      },
      "deposit(address,uint256,uint256,address,uint256,bool)": {
        "notice": "Deposits amount of tokens into pool ensuring deadline"
      },
      "dev()": {
        "notice": "Dev address"
      },
      "exchangeRate(address)": {
        "notice": "Returns the exchange rate of the LP token"
      },
      "fillPool(address,uint256)": {
        "notice": "Move fund from tip bucket to the pool to keep r* = 1 as error accumulates unit of amount should be in WAD"
      },
      "getTokens()": {
        "notice": "Return list of tokens in the pool"
      },
      "haircutRate()": {
        "notice": "Haircut rate"
      },
      "initialize(uint256,uint256)": {
        "notice": "Initializes pool. Dev is set to be the account calling this function."
      },
      "lpDividendRatio()": {
        "notice": "LP dividend ratio : the ratio of haircut that should distribute to LP"
      },
      "mintFee(address)": {
        "notice": "Send fee collected to the fee beneficiary"
      },
      "mintFeeThreshold()": {
        "notice": "The threshold to mint fee (unit: WAD)"
      },
      "quoteAmountIn(address,address,int256)": {
        "notice": "Returns the minimum input asset amount required to buy the given output asset amount (accounting for fees and slippage)"
      },
      "quotePotentialDeposit(address,uint256)": {
        "notice": "Quotes potential deposit from pool"
      },
      "quotePotentialSwap(address,address,int256)": {
        "notice": "Given an input asset amount and token addresses, calculates the maximum output token amount (accounting for fees and slippage)."
      },
      "quotePotentialWithdraw(address,uint256)": {
        "notice": "Quotes potential withdrawal from pool"
      },
      "removeAsset(address)": {
        "notice": "Removes asset from asset struct"
      },
      "retentionRatio()": {
        "notice": "Retention ratio: the ratio of haircut that should stay in the pool"
      },
      "setAmpFactor(uint256)": {
        "notice": "Changes the pools amplification factor. Can only be set by the contract owner."
      },
      "setDev(address)": {
        "notice": "Changes the contract dev. Can only be set by the contract owner."
      },
      "setFeeTo(address)": {
        "notice": "Changes the fee beneficiary. Can only be set by the contract owner. This value cannot be set to 0 to avoid unsettled fee."
      },
      "setHaircutRate(uint256)": {
        "notice": "Changes the pools haircutRate. Can only be set by the contract owner."
      },
      "setMintFeeThreshold(uint256)": {
        "notice": "Set min fee to mint"
      },
      "shouldCapEquilCovRatio()": {
        "notice": "Whether to cap the global equilibrium coverage ratio at 1 for deposit and withdrawal"
      },
      "swap(address,address,uint256,uint256,address,uint256)": {
        "notice": "Swap fromToken for toToken, ensures deadline and minimumToAmount and sends quoted amount to `to` address"
      },
      "withdraw(address,uint256,uint256,address,uint256)": {
        "notice": "Withdraws liquidity amount of asset to `to` address ensuring minimum amount required"
      },
      "withdrawFromOtherAsset(address,address,uint256,uint256,address,uint256)": {
        "notice": "Enables withdrawing liquidity from an asset using LP from a different asset"
      },
      "withdrawalHaircutRate()": {
        "notice": "Withdrawal haircut rate charged at the time of withdrawal"
      }
    },
    "notice": "Manages deposits, withdrawals and swaps for volatile pool with external oracle",
    "version": 1
  },
  "storageLayout": {
    "storage": [
      {
        "astId": 184,
        "contract": "contracts/wombat-core/pool/VolatilePool.sol:VolatilePool",
        "label": "_initialized",
        "offset": 0,
        "slot": "0",
        "type": "t_uint8"
      },
      {
        "astId": 187,
        "contract": "contracts/wombat-core/pool/VolatilePool.sol:VolatilePool",
        "label": "_initializing",
        "offset": 1,
        "slot": "0",
        "type": "t_bool"
      },
      {
        "astId": 928,
        "contract": "contracts/wombat-core/pool/VolatilePool.sol:VolatilePool",
        "label": "__gap",
        "offset": 0,
        "slot": "1",
        "type": "t_array(t_uint256)50_storage"
      },
      {
        "astId": 56,
        "contract": "contracts/wombat-core/pool/VolatilePool.sol:VolatilePool",
        "label": "_owner",
        "offset": 0,
        "slot": "51",
        "type": "t_address"
      },
      {
        "astId": 176,
        "contract": "contracts/wombat-core/pool/VolatilePool.sol:VolatilePool",
        "label": "__gap",
        "offset": 0,
        "slot": "52",
        "type": "t_array(t_uint256)49_storage"
      },
      {
        "astId": 487,
        "contract": "contracts/wombat-core/pool/VolatilePool.sol:VolatilePool",
        "label": "_status",
        "offset": 0,
        "slot": "101",
        "type": "t_uint256"
      },
      {
        "astId": 556,
        "contract": "contracts/wombat-core/pool/VolatilePool.sol:VolatilePool",
        "label": "__gap",
        "offset": 0,
        "slot": "102",
        "type": "t_array(t_uint256)49_storage"
      },
      {
        "astId": 367,
        "contract": "contracts/wombat-core/pool/VolatilePool.sol:VolatilePool",
        "label": "_paused",
        "offset": 0,
        "slot": "151",
        "type": "t_bool"
      },
      {
        "astId": 472,
        "contract": "contracts/wombat-core/pool/VolatilePool.sol:VolatilePool",
        "label": "__gap",
        "offset": 0,
        "slot": "152",
        "type": "t_array(t_uint256)49_storage"
      },
      {
        "astId": 18842,
        "contract": "contracts/wombat-core/pool/VolatilePool.sol:VolatilePool",
        "label": "_pausedAssets",
        "offset": 0,
        "slot": "201",
        "type": "t_mapping(t_address,t_bool)"
      },
      {
        "astId": 24539,
        "contract": "contracts/wombat-core/pool/VolatilePool.sol:VolatilePool",
        "label": "ampFactor",
        "offset": 0,
        "slot": "202",
        "type": "t_uint256"
      },
      {
        "astId": 24542,
        "contract": "contracts/wombat-core/pool/VolatilePool.sol:VolatilePool",
        "label": "haircutRate",
        "offset": 0,
        "slot": "203",
        "type": "t_uint256"
      },
      {
        "astId": 24545,
        "contract": "contracts/wombat-core/pool/VolatilePool.sol:VolatilePool",
        "label": "retentionRatio",
        "offset": 0,
        "slot": "204",
        "type": "t_uint256"
      },
      {
        "astId": 24548,
        "contract": "contracts/wombat-core/pool/VolatilePool.sol:VolatilePool",
        "label": "lpDividendRatio",
        "offset": 0,
        "slot": "205",
        "type": "t_uint256"
      },
      {
        "astId": 24551,
        "contract": "contracts/wombat-core/pool/VolatilePool.sol:VolatilePool",
        "label": "mintFeeThreshold",
        "offset": 0,
        "slot": "206",
        "type": "t_uint256"
      },
      {
        "astId": 24554,
        "contract": "contracts/wombat-core/pool/VolatilePool.sol:VolatilePool",
        "label": "dev",
        "offset": 0,
        "slot": "207",
        "type": "t_address"
      },
      {
        "astId": 24556,
        "contract": "contracts/wombat-core/pool/VolatilePool.sol:VolatilePool",
        "label": "feeTo",
        "offset": 0,
        "slot": "208",
        "type": "t_address"
      },
      {
        "astId": 24558,
        "contract": "contracts/wombat-core/pool/VolatilePool.sol:VolatilePool",
        "label": "masterWombat",
        "offset": 0,
        "slot": "209",
        "type": "t_address"
      },
      {
        "astId": 24564,
        "contract": "contracts/wombat-core/pool/VolatilePool.sol:VolatilePool",
        "label": "_feeCollected",
        "offset": 0,
        "slot": "210",
        "type": "t_mapping(t_contract(IAsset)10136,t_uint256)"
      },
      {
        "astId": 24568,
        "contract": "contracts/wombat-core/pool/VolatilePool.sol:VolatilePool",
        "label": "_assets",
        "offset": 0,
        "slot": "211",
        "type": "t_struct(AssetMap)24526_storage"
      },
      {
        "astId": 24570,
        "contract": "contracts/wombat-core/pool/VolatilePool.sol:VolatilePool",
        "label": "_used1",
        "offset": 0,
        "slot": "214",
        "type": "t_uint128"
      },
      {
        "astId": 24572,
        "contract": "contracts/wombat-core/pool/VolatilePool.sol:VolatilePool",
        "label": "_used2",
        "offset": 16,
        "slot": "214",
        "type": "t_uint128"
      },
      {
        "astId": 24575,
        "contract": "contracts/wombat-core/pool/VolatilePool.sol:VolatilePool",
        "label": "withdrawalHaircutRate",
        "offset": 0,
        "slot": "215",
        "type": "t_uint256"
      },
      {
        "astId": 24579,
        "contract": "contracts/wombat-core/pool/VolatilePool.sol:VolatilePool",
        "label": "gap",
        "offset": 0,
        "slot": "216",
        "type": "t_array(t_uint256)48_storage"
      },
      {
        "astId": 18420,
        "contract": "contracts/wombat-core/pool/VolatilePool.sol:VolatilePool",
        "label": "startCovRatio",
        "offset": 0,
        "slot": "264",
        "type": "t_uint128"
      },
      {
        "astId": 18422,
        "contract": "contracts/wombat-core/pool/VolatilePool.sol:VolatilePool",
        "label": "endCovRatio",
        "offset": 16,
        "slot": "264",
        "type": "t_uint128"
      },
      {
        "astId": 18426,
        "contract": "contracts/wombat-core/pool/VolatilePool.sol:VolatilePool",
        "label": "gap",
        "offset": 0,
        "slot": "265",
        "type": "t_array(t_uint256)50_storage"
      },
      {
        "astId": 17155,
        "contract": "contracts/wombat-core/pool/VolatilePool.sol:VolatilePool",
        "label": "gap",
        "offset": 0,
        "slot": "315",
        "type": "t_array(t_uint256)50_storage"
      },
      {
        "astId": 26916,
        "contract": "contracts/wombat-core/pool/VolatilePool.sol:VolatilePool",
        "label": "shouldCapEquilCovRatio",
        "offset": 0,
        "slot": "365",
        "type": "t_bool"
      },
      {
        "astId": 26920,
        "contract": "contracts/wombat-core/pool/VolatilePool.sol:VolatilePool",
        "label": "__gap",
        "offset": 0,
        "slot": "366",
        "type": "t_array(t_uint256)50_storage"
      }
    ],
    "types": {
      "t_address": {
        "encoding": "inplace",
        "label": "address",
        "numberOfBytes": "20"
      },
      "t_array(t_address)dyn_storage": {
        "base": "t_address",
        "encoding": "dynamic_array",
        "label": "address[]",
        "numberOfBytes": "32"
      },
      "t_array(t_uint256)48_storage": {
        "base": "t_uint256",
        "encoding": "inplace",
        "label": "uint256[48]",
        "numberOfBytes": "1536"
      },
      "t_array(t_uint256)49_storage": {
        "base": "t_uint256",
        "encoding": "inplace",
        "label": "uint256[49]",
        "numberOfBytes": "1568"
      },
      "t_array(t_uint256)50_storage": {
        "base": "t_uint256",
        "encoding": "inplace",
        "label": "uint256[50]",
        "numberOfBytes": "1600"
      },
      "t_bool": {
        "encoding": "inplace",
        "label": "bool",
        "numberOfBytes": "1"
      },
      "t_contract(IAsset)10136": {
        "encoding": "inplace",
        "label": "contract IAsset",
        "numberOfBytes": "20"
      },
      "t_mapping(t_address,t_bool)": {
        "encoding": "mapping",
        "key": "t_address",
        "label": "mapping(address => bool)",
        "numberOfBytes": "32",
        "value": "t_bool"
      },
      "t_mapping(t_address,t_contract(IAsset)10136)": {
        "encoding": "mapping",
        "key": "t_address",
        "label": "mapping(address => contract IAsset)",
        "numberOfBytes": "32",
        "value": "t_contract(IAsset)10136"
      },
      "t_mapping(t_address,t_uint256)": {
        "encoding": "mapping",
        "key": "t_address",
        "label": "mapping(address => uint256)",
        "numberOfBytes": "32",
        "value": "t_uint256"
      },
      "t_mapping(t_contract(IAsset)10136,t_uint256)": {
        "encoding": "mapping",
        "key": "t_contract(IAsset)10136",
        "label": "mapping(contract IAsset => uint256)",
        "numberOfBytes": "32",
        "value": "t_uint256"
      },
      "t_struct(AssetMap)24526_storage": {
        "encoding": "inplace",
        "label": "struct PoolV3.AssetMap",
        "members": [
          {
            "astId": 24516,
            "contract": "contracts/wombat-core/pool/VolatilePool.sol:VolatilePool",
            "label": "keys",
            "offset": 0,
            "slot": "0",
            "type": "t_array(t_address)dyn_storage"
          },
          {
            "astId": 24521,
            "contract": "contracts/wombat-core/pool/VolatilePool.sol:VolatilePool",
            "label": "values",
            "offset": 0,
            "slot": "1",
            "type": "t_mapping(t_address,t_contract(IAsset)10136)"
          },
          {
            "astId": 24525,
            "contract": "contracts/wombat-core/pool/VolatilePool.sol:VolatilePool",
            "label": "indexOf",
            "offset": 0,
            "slot": "2",
            "type": "t_mapping(t_address,t_uint256)"
          }
        ],
        "numberOfBytes": "96"
      },
      "t_uint128": {
        "encoding": "inplace",
        "label": "uint128",
        "numberOfBytes": "16"
      },
      "t_uint256": {
        "encoding": "inplace",
        "label": "uint256",
        "numberOfBytes": "32"
      },
      "t_uint8": {
        "encoding": "inplace",
        "label": "uint8",
        "numberOfBytes": "1"
      }
    }
  }
}