{
  "address": "0x8db02703cF38122ab2d59042883F9e7413b24b6C",
  "abi": [
    {
      "anonymous": false,
      "inputs": [
        {
          "indexed": false,
          "internalType": "contract IERC20",
          "name": "lpToken",
          "type": "address"
        },
        {
          "indexed": false,
          "internalType": "uint256",
          "name": "amount",
          "type": "uint256"
        }
      ],
      "name": "DistributeReward",
      "type": "event"
    },
    {
      "anonymous": false,
      "inputs": [
        {
          "indexed": true,
          "internalType": "address",
          "name": "previousOwner",
          "type": "address"
        },
        {
          "indexed": true,
          "internalType": "address",
          "name": "newOwner",
          "type": "address"
        }
      ],
      "name": "OwnershipTransferred",
      "type": "event"
    },
    {
      "anonymous": false,
      "inputs": [
        {
          "indexed": false,
          "internalType": "address",
          "name": "account",
          "type": "address"
        }
      ],
      "name": "Paused",
      "type": "event"
    },
    {
      "anonymous": false,
      "inputs": [
        {
          "indexed": false,
          "internalType": "address",
          "name": "account",
          "type": "address"
        }
      ],
      "name": "Unpaused",
      "type": "event"
    },
    {
      "anonymous": false,
      "inputs": [
        {
          "indexed": false,
          "internalType": "uint256",
          "name": "baseAllocation",
          "type": "uint256"
        },
        {
          "indexed": false,
          "internalType": "uint256",
          "name": "votePartition",
          "type": "uint256"
        }
      ],
      "name": "UpdateEmissionPartition",
      "type": "event"
    },
    {
      "anonymous": false,
      "inputs": [
        {
          "indexed": false,
          "internalType": "address",
          "name": "user",
          "type": "address"
        },
        {
          "indexed": false,
          "internalType": "contract IERC20",
          "name": "lpToken",
          "type": "address"
        },
        {
          "indexed": false,
          "internalType": "uint256",
          "name": "amount",
          "type": "uint256"
        }
      ],
      "name": "UpdateVote",
      "type": "event"
    },
    {
      "inputs": [
        {
          "internalType": "contract IGauge",
          "name": "_gaugeManager",
          "type": "address"
        },
        {
          "internalType": "contract IERC20",
          "name": "_lpToken",
          "type": "address"
        },
        {
          "internalType": "contract IBribe",
          "name": "_bribe",
          "type": "address"
        }
      ],
      "name": "add",
      "outputs": [],
      "stateMutability": "nonpayable",
      "type": "function"
    },
    {
      "inputs": [],
      "name": "baseAllocation",
      "outputs": [
        {
          "internalType": "uint16",
          "name": "",
          "type": "uint16"
        }
      ],
      "stateMutability": "view",
      "type": "function"
    },
    {
      "inputs": [],
      "name": "baseIndex",
      "outputs": [
        {
          "internalType": "uint104",
          "name": "",
          "type": "uint104"
        }
      ],
      "stateMutability": "view",
      "type": "function"
    },
    {
      "inputs": [
        {
          "internalType": "contract IERC20[]",
          "name": "_lpTokens",
          "type": "address[]"
        }
      ],
      "name": "claimBribes",
      "outputs": [
        {
          "internalType": "uint256[][]",
          "name": "bribeRewards",
          "type": "uint256[][]"
        }
      ],
      "stateMutability": "nonpayable",
      "type": "function"
    },
    {
      "inputs": [
        {
          "internalType": "contract IERC20",
          "name": "_lpToken",
          "type": "address"
        }
      ],
      "name": "distribute",
      "outputs": [],
      "stateMutability": "nonpayable",
      "type": "function"
    },
    {
      "inputs": [],
      "name": "emergencyWomWithdraw",
      "outputs": [],
      "stateMutability": "nonpayable",
      "type": "function"
    },
    {
      "inputs": [],
      "name": "firstEpochStartTime",
      "outputs": [
        {
          "internalType": "uint40",
          "name": "",
          "type": "uint40"
        }
      ],
      "stateMutability": "view",
      "type": "function"
    },
    {
      "inputs": [
        {
          "internalType": "address",
          "name": "_user",
          "type": "address"
        },
        {
          "internalType": "contract IERC20",
          "name": "_lpToken",
          "type": "address"
        }
      ],
      "name": "getUserVotes",
      "outputs": [
        {
          "internalType": "uint256",
          "name": "",
          "type": "uint256"
        }
      ],
      "stateMutability": "view",
      "type": "function"
    },
    {
      "inputs": [
        {
          "internalType": "contract IERC20",
          "name": "",
          "type": "address"
        }
      ],
      "name": "infos",
      "outputs": [
        {
          "internalType": "uint104",
          "name": "supplyBaseIndex",
          "type": "uint104"
        },
        {
          "internalType": "uint104",
          "name": "supplyVoteIndex",
          "type": "uint104"
        },
        {
          "internalType": "uint40",
          "name": "nextEpochStartTime",
          "type": "uint40"
        },
        {
          "internalType": "uint128",
          "name": "claimable",
          "type": "uint128"
        },
        {
          "internalType": "bool",
          "name": "whitelist",
          "type": "bool"
        },
        {
          "internalType": "contract IGauge",
          "name": "gaugeManager",
          "type": "address"
        },
        {
          "internalType": "contract IBribe",
          "name": "bribe",
          "type": "address"
        }
      ],
      "stateMutability": "view",
      "type": "function"
    },
    {
      "inputs": [
        {
          "internalType": "contract IERC20",
          "name": "_wom",
          "type": "address"
        },
        {
          "internalType": "contract IVe",
          "name": "_veWom",
          "type": "address"
        },
        {
          "internalType": "uint88",
          "name": "_womPerSec",
          "type": "uint88"
        },
        {
          "internalType": "uint40",
          "name": "_startTimestamp",
          "type": "uint40"
        },
        {
          "internalType": "uint40",
          "name": "_firstEpochStartTime",
          "type": "uint40"
        },
        {
          "internalType": "uint16",
          "name": "_baseAllocation",
          "type": "uint16"
        }
      ],
      "name": "initialize",
      "outputs": [],
      "stateMutability": "nonpayable",
      "type": "function"
    },
    {
      "inputs": [],
      "name": "lastRewardTimestamp",
      "outputs": [
        {
          "internalType": "uint40",
          "name": "",
          "type": "uint40"
        }
      ],
      "stateMutability": "view",
      "type": "function"
    },
    {
      "inputs": [],
      "name": "lpTokenLength",
      "outputs": [
        {
          "internalType": "uint256",
          "name": "",
          "type": "uint256"
        }
      ],
      "stateMutability": "view",
      "type": "function"
    },
    {
      "inputs": [
        {
          "internalType": "uint256",
          "name": "",
          "type": "uint256"
        }
      ],
      "name": "lpTokens",
      "outputs": [
        {
          "internalType": "contract IERC20",
          "name": "",
          "type": "address"
        }
      ],
      "stateMutability": "view",
      "type": "function"
    },
    {
      "inputs": [],
      "name": "owner",
      "outputs": [
        {
          "internalType": "address",
          "name": "",
          "type": "address"
        }
      ],
      "stateMutability": "view",
      "type": "function"
    },
    {
      "inputs": [],
      "name": "pauseAll",
      "outputs": [],
      "stateMutability": "nonpayable",
      "type": "function"
    },
    {
      "inputs": [
        {
          "internalType": "contract IERC20",
          "name": "_lpToken",
          "type": "address"
        }
      ],
      "name": "pauseVoteEmission",
      "outputs": [],
      "stateMutability": "nonpayable",
      "type": "function"
    },
    {
      "inputs": [],
      "name": "paused",
      "outputs": [
        {
          "internalType": "bool",
          "name": "",
          "type": "bool"
        }
      ],
      "stateMutability": "view",
      "type": "function"
    },
    {
      "inputs": [
        {
          "internalType": "contract IERC20[]",
          "name": "_lpTokens",
          "type": "address[]"
        },
        {
          "internalType": "address",
          "name": "_user",
          "type": "address"
        }
      ],
      "name": "pendingBribes",
      "outputs": [
        {
          "internalType": "contract IERC20[][]",
          "name": "bribeTokenAddresses",
          "type": "address[][]"
        },
        {
          "internalType": "string[][]",
          "name": "bribeTokenSymbols",
          "type": "string[][]"
        },
        {
          "internalType": "uint256[][]",
          "name": "bribeRewards",
          "type": "uint256[][]"
        }
      ],
      "stateMutability": "view",
      "type": "function"
    },
    {
      "inputs": [
        {
          "internalType": "contract IERC20",
          "name": "_lpToken",
          "type": "address"
        }
      ],
      "name": "pendingWom",
      "outputs": [
        {
          "internalType": "uint256",
          "name": "",
          "type": "uint256"
        }
      ],
      "stateMutability": "view",
      "type": "function"
    },
    {
      "inputs": [],
      "name": "renounceOwnership",
      "outputs": [],
      "stateMutability": "nonpayable",
      "type": "function"
    },
    {
      "inputs": [],
      "name": "resumeAll",
      "outputs": [],
      "stateMutability": "nonpayable",
      "type": "function"
    },
    {
      "inputs": [
        {
          "internalType": "contract IERC20",
          "name": "_lpToken",
          "type": "address"
        }
      ],
      "name": "resumeVoteEmission",
      "outputs": [],
      "stateMutability": "nonpayable",
      "type": "function"
    },
    {
      "inputs": [
        {
          "internalType": "contract IERC20",
          "name": "_lpToken",
          "type": "address"
        },
        {
          "internalType": "uint128",
          "name": "_allocPoint",
          "type": "uint128"
        }
      ],
      "name": "setAllocPoint",
      "outputs": [],
      "stateMutability": "nonpayable",
      "type": "function"
    },
    {
      "inputs": [
        {
          "internalType": "uint16",
          "name": "_baseAllocation",
          "type": "uint16"
        }
      ],
      "name": "setBaseAllocation",
      "outputs": [],
      "stateMutability": "nonpayable",
      "type": "function"
    },
    {
      "inputs": [
        {
          "internalType": "contract IERC20",
          "name": "_lpToken",
          "type": "address"
        },
        {
          "internalType": "contract IBribe",
          "name": "_bribe",
          "type": "address"
        }
      ],
      "name": "setBribe",
      "outputs": [],
      "stateMutability": "nonpayable",
      "type": "function"
    },
    {
      "inputs": [
        {
          "internalType": "contract IERC20",
          "name": "_lpToken",
          "type": "address"
        },
        {
          "internalType": "contract IGauge",
          "name": "_gaugeManager",
          "type": "address"
        }
      ],
      "name": "setGauge",
      "outputs": [],
      "stateMutability": "nonpayable",
      "type": "function"
    },
    {
      "inputs": [
        {
          "internalType": "uint88",
          "name": "_womPerSec",
          "type": "uint88"
        }
      ],
      "name": "setWomPerSec",
      "outputs": [],
      "stateMutability": "nonpayable",
      "type": "function"
    },
    {
      "inputs": [],
      "name": "totalAllocPoint",
      "outputs": [
        {
          "internalType": "uint128",
          "name": "",
          "type": "uint128"
        }
      ],
      "stateMutability": "view",
      "type": "function"
    },
    {
      "inputs": [],
      "name": "totalWeight",
      "outputs": [
        {
          "internalType": "uint128",
          "name": "",
          "type": "uint128"
        }
      ],
      "stateMutability": "view",
      "type": "function"
    },
    {
      "inputs": [
        {
          "internalType": "address",
          "name": "newOwner",
          "type": "address"
        }
      ],
      "name": "transferOwnership",
      "outputs": [],
      "stateMutability": "nonpayable",
      "type": "function"
    },
    {
      "inputs": [],
      "name": "veWom",
      "outputs": [
        {
          "internalType": "contract IVe",
          "name": "",
          "type": "address"
        }
      ],
      "stateMutability": "view",
      "type": "function"
    },
    {
      "inputs": [
        {
          "internalType": "contract IERC20[]",
          "name": "_lpVote",
          "type": "address[]"
        },
        {
          "internalType": "int256[]",
          "name": "_deltas",
          "type": "int256[]"
        }
      ],
      "name": "vote",
      "outputs": [
        {
          "internalType": "uint256[][]",
          "name": "bribeRewards",
          "type": "uint256[][]"
        }
      ],
      "stateMutability": "nonpayable",
      "type": "function"
    },
    {
      "inputs": [],
      "name": "voteAllocation",
      "outputs": [
        {
          "internalType": "uint256",
          "name": "",
          "type": "uint256"
        }
      ],
      "stateMutability": "view",
      "type": "function"
    },
    {
      "inputs": [],
      "name": "voteIndex",
      "outputs": [
        {
          "internalType": "uint104",
          "name": "",
          "type": "uint104"
        }
      ],
      "stateMutability": "view",
      "type": "function"
    },
    {
      "inputs": [
        {
          "internalType": "address",
          "name": "",
          "type": "address"
        },
        {
          "internalType": "contract IERC20",
          "name": "",
          "type": "address"
        }
      ],
      "name": "votes",
      "outputs": [
        {
          "internalType": "uint256",
          "name": "",
          "type": "uint256"
        }
      ],
      "stateMutability": "view",
      "type": "function"
    },
    {
      "inputs": [
        {
          "internalType": "contract IERC20",
          "name": "",
          "type": "address"
        }
      ],
      "name": "weights",
      "outputs": [
        {
          "internalType": "uint128",
          "name": "allocPoint",
          "type": "uint128"
        },
        {
          "internalType": "uint128",
          "name": "voteWeight",
          "type": "uint128"
        }
      ],
      "stateMutability": "view",
      "type": "function"
    },
    {
      "inputs": [],
      "name": "wom",
      "outputs": [
        {
          "internalType": "contract IERC20",
          "name": "",
          "type": "address"
        }
      ],
      "stateMutability": "view",
      "type": "function"
    },
    {
      "inputs": [],
      "name": "womPerSec",
      "outputs": [
        {
          "internalType": "uint88",
          "name": "",
          "type": "uint88"
        }
      ],
      "stateMutability": "view",
      "type": "function"
    }
  ],
  "transactionHash": "0x7776120b7a9f6fb3f5e4be602abceee545978928cb6dd6cef840432a3dc00174",
  "args": [],
  "solcInputHash": "a5713f2be82625356ae621e2f8b47b50",
  "bytecode": "0x60808060405234610016576133ba908161001c8239f35b600080fdfe6080604052600436101561001257600080fd5b6000803560e01c806308a931dd146126b957806311ced5591461268957806317caf6f1146126685780631bb5e2dc1461260e578063237e6d6414612586578063240f97741461241d57806325b3ec64146123e05780632efce57b14611dc85780633e582ae614611da157806347c3577214611d565780634895ed2114611d275780635844398a14611cf7578063595c6a6714611bfc5780635c975abb14611bd9578063622f83c914611b0457806363453ae1146117ee578063715018a6146117735780637c2e51ce146113df5780638a81372f146113b15780638da5cb5b1461138a57806394966ad81461129f57806396c82e571461126f578063a693686f14610fd7578063a7cac84614610f85578063af3d104f14610e7b578063b6da5b2014610df9578063b9ee8f6614610dd4578063c23ead3214610db6578063c4bfce1814610d91578063c519375414610cab578063c5a6222e14610c84578063c6ddb64214610bd9578063cad1b90614610b89578063eab4b036146104a1578063f13e55071461036a578063f2fde38b146102ba578063f6e6c5af146101e65763f8077fae146101bf57600080fd5b346101e357806003193601126101e357602064ffffffffff60cc5416604051908152f35b80fd5b50346101e35760206003193601126101e35760043561ffff808216908183036102b55761021f6001600160a01b03603354163314612922565b6103e882116102b1577f9f8465a6a057e31abb34517007c2dfa96e65b800c2f0840da63459f3269b743c91604091610255612cfa565b61025e85612ec3565b8351928352166020820152a17fffffffffffffffffffffffffffff0000ffffffffffffffffffffffffffffffff71ffff0000000000000000000000000000000060ce549260801b1691161760ce55604051f35b8380fd5b600080fd5b50346101e35760206003193601126101e3576102d4612801565b6001600160a01b036102eb81603354163314612922565b811615610300576102fb9061296d565b604051f35b608460405162461bcd60e51b815260206004820152602660248201527f4f776e61626c653a206e6577206f776e657220697320746865207a65726f206160448201527f64647265737300000000000000000000000000000000000000000000000000006064820152fd5b50346101e357806003193601126101e3576001600160a01b0361039281603354163314612922565b60c95416816040517f70a082310000000000000000000000000000000000000000000000000000000081523060048201526020928382602481845afa8015610461578492849161046c575b506040517fa9059cbb000000000000000000000000000000000000000000000000000000008152336004820152602481019190915292839190829081604481015b03925af1801561046157610433575b82604051f35b8161045292903d1061045a575b61044a8183612a54565b810190612ce2565b50388061042d565b503d610440565b6040513d85823e3d90fd5b9350509082813d831161049a575b6104848183612a54565b810103126102b55790518391839161041e6103dd565b503d61047a565b50346101e35760406003193601126101e35760043567ffffffffffffffff8111610b85576104d390369060040161282d565b6104de929192612817565b926104e882612a77565b906104f66040519283612a54565b828252610512601f1961050885612a77565b0160208401612a8f565b61051b83612a77565b946105296040519687612a54565b838652610545601f1961053b86612a77565b0160208801612a8f565b61054e84612aac565b93855b8181106106e45750505050604051926060840191606085528051809352608085016005936020608082871b89010193019184905b82821061066157505050508481036020860152855191828252602082019060208085871b85010198019481935b8585106105d15788806105cd8c8b838203604085015261285e565b0390f35b90919293949598601f198282030185528951908151808252602082019060208082881b850101940192875b82811061061f5750505050506020806001929b01950195019395949291906105b2565b90919293946020808083601f198760019603018952601f19601f8b51610650815180928187528780880191016128ed565b0116010197019501939291016105fc565b909192937fffffffffffffffffffffffffffffffffffffffffffffffffffffffffffffff808982989798030182528451906020808351928381520192019088905b8082106106c357505050602080600192960192019201909291959495610585565b9091926020806001926001600160a01b0387511681520194019201906106a2565b6001600160a01b036107026106fd8385889b999b612b3e565b612b4e565b1680865260d16020526001600160a01b03600360408820015416610733575b5061072b90612ae2565b959395610551565b6024866001600160a01b03600360408320015416604051928380927fc031a66f0000000000000000000000000000000000000000000000000000000082526001600160a01b038a1660048301525afa908115610b7a578791610b58575b5061079b8389612c66565b526107a68288612c66565b50855260d16020526004856001600160a01b03600360408320015416604051928380927fc2b18aa00000000000000000000000000000000000000000000000000000000082525afa908115610b4d578691610a89575b506108078289612c66565b526108128188612c66565b5061081d8188612c66565b515161082881612a77565b6108356040519182612a54565b818152610851601f1961084784612a77565b0160208301612a8f565b61085b838b612c66565b52610866828a612c66565b50855b8181106108765750610721565b80878a856001600160a01b03610896856108908486612c66565b51612c66565b511661094d579150506108aa91508b612c66565b51906040519182604081011067ffffffffffffffff60408501111761091e5781610913918460406109199601604052600381527f424e420000000000000000000000000000000000000000000000000000000000602082015261090d8383612c66565b52612c66565b50612ae2565b610869565b7f4e487b7100000000000000000000000000000000000000000000000000000000600052604160045260246000fd5b600493610890610965926001600160a01b0394612c66565b5116604051928380927f95d89b410000000000000000000000000000000000000000000000000000000082525afa908115610a7e578b85918a936109c4575b509280926109b86109139361091996612c66565b519061090d8383612c66565b925050503d908189823e6109d88282612a54565b6020818381010312610a7a5780519067ffffffffffffffff8211610a7657828101601f838301011215610a7657818101519167ffffffffffffffff831161091e5760405193610a316020601f19601f8701160186612a54565b8385528201602084838501010111610a72576109b8878f9295610a666109139689989660206109199b988186019201016128ed565b955093505090936109a4565b8a80fd5b8980fd5b8880fd5b6040513d8a823e3d90fd5b90503d8087833e610a9a8183612a54565b6020828281010312610b495781519067ffffffffffffffff8211610b4557808301601f838501011215610b45578183015190610ad582612a77565b93610ae36040519586612a54565b8285526020850191810160208460051b868401010111610a7657602084820101915b60208460051b86840101018310610b21575050505050386107fc565b82516001600160a01b0381168103610b4157815260209283019201610b05565b8b80fd5b8780fd5b8680fd5b6040513d88823e3d90fd5b610b7491503d8089833e610b6c8183612a54565b810190612bec565b38610790565b6040513d89823e3d90fd5b5080fd5b50346101e35760406003193601126101e357610ba3612801565b6040610bad612817565b926001600160a01b03809316815260d06020522091166000526020526020604060002054604051908152f35b50346101e35760206003193601126101e35760e09060406001600160a01b039182610c02612801565b16815260d1602052209081549160ff600182015492600381600285015416930154169264ffffffffff604051956cffffffffffffffffffffffffff80821688528160681c16602088015260d01c1660408601526fffffffffffffffffffffffffffffffff8116606086015260801c161515608084015260a083015260c0820152f35b50346101e357806003193601126101e35760206001600160a01b0360c95416604051908152f35b50346101e35760206003193601126101e357610cc5612801565b6001600160a01b03610cdc81603354163314612922565b81169081835260d160205260ff600160408520015460801c1615610d4d5780610d07610d1492612c7a565b610d0f612cfa565b612dbd565b815260d1602052600160408220017fffffffffffffffffffffffffffffff00ffffffffffffffffffffffffffffffff8154169055604051f35b606460405162461bcd60e51b815260206004820152601660248201527f766f7465723a206e6f742077686974656c6973746564000000000000000000006044820152fd5b50346101e357806003193601126101e357602061ffff60ce5460801c16604051908152f35b50346101e357806003193601126101e357602060cb54604051908152f35b50346101e357806003193601126101e357602064ffffffffff60ce5416604051908152f35b50346101e35760406003193601126101e357610e13612801565b610e1b612817565b906001600160a01b038091610e3582603354163314612922565b610e3e81612c7a565b16835260d16020526003604084200191167fffffffffffffffffffffffff0000000000000000000000000000000000000000825416179055604051f35b50346101e357806003193601126101e3576001600160a01b03610ea381603354163314612922565b610eab612cfa565b60cb5490825b828110610f5d578360975460ff811615610f19577fffffffffffffffffffffffffffffffffffffffffffffffffffffffffffffff00166097557f5db9ee0a495bf2e6ff9c91a7834c1ba4fdd244a5e8aa4e537bd38aeae4b073aa6020604051338152a1604051f35b606460405162461bcd60e51b815260206004820152601460248201527f5061757361626c653a206e6f74207061757365640000000000000000000000006044820152fd5b80610f7b83610f6e610f809461279b565b90549060031b1c16612dbd565b612ae2565b610eb1565b50346101e35760206003193601126101e357604080916001600160a01b03610fab612801565b16815260cf60205220548151906fffffffffffffffffffffffffffffffff8116825260801c6020820152f35b50346101e35760606003193601126101e357610ff1612801565b610ff9612817565b90604435906001600160a01b03928383168093036102b557839061102282603354163314612922565b169182855260209160d1835260ff600160408820015460801c1661122b5784169081156112275783156112275783865260d18352846002604088200154166111be5790611152929184875260d18352600160408820017001000000000000000000000000000000007fffffffffffffffffffffffffffffff00ffffffffffffffffffffffffffffffff825416179055600260408820017fffffffffffffffffffffffff00000000000000000000000000000000000000009283825416179055600360408820019182541617905560d16110f9613236565b918487525260408520907fff0000000000ffffffffffffffffffffffffffffffffffffffffffffffffffff7effffffffff000000000000000000000000000000000000000000000000000083549260d01b169116179055565b60cb546801000000000000000081101561119157806001611176920160cb5561279b565b909283549160031b90811b9283911b16911916179055604051f35b6024847f4e487b710000000000000000000000000000000000000000000000000000000081526041600452fd5b6084836040519062461bcd60e51b825260048201526024808201527f566f7465723a2067617567654d616e6167657220697320616c7265616479206560448201527f78697374000000000000000000000000000000000000000000000000000000006064820152fd5b8580fd5b6064836040519062461bcd60e51b82526004820152601460248201527f766f7465723a20616c72656164792061646465640000000000000000000000006044820152fd5b50346101e357806003193601126101e35760206fffffffffffffffffffffffffffffffff60cd5416604051908152f35b50346101e35760206003193601126101e3576112b9612801565b6001600160a01b036112d081603354163314612922565b81169081835260d160205260ff600160408520015460801c166113465780610d076112fa92612c7a565b815260d1602052600160408220017001000000000000000000000000000000007fffffffffffffffffffffffffffffff00ffffffffffffffffffffffffffffffff825416179055604051f35b606460405162461bcd60e51b815260206004820152601160248201527f766f7465723a206e6f74207061757365640000000000000000000000000000006044820152fd5b50346101e357806003193601126101e35760206001600160a01b0360335416604051908152f35b50346101e357806003193601126101e35760206affffffffffffffffffffff60ce5460281c16604051908152f35b50346101e35760c06003193601126101e3576113f9612801565b602435906001600160a01b03918281168091036102b157604435906affffffffffffffffffffff8216908183036102b5576064359064ffffffffff928383168093036102b5576084359384168094036102b55760a4359061ffff8216978883036102b55789549760ff8960081c168060001461176957303b155b156116ff571598896116d1575b5042871061168d5716978815611649578315611605576103e810610a7a5769021e19e0c9bab240000010610b455771ffff000000000000000000000000000000006fffffffffffffffffffffff0000000000917fffffffffffffffffffffffffffff0000000000000000000000000000000000009361150e60ff8c5460081c16611509816129cf565b6129cf565b6115173361296d565b8a549961153760ff8c60081c1661152d816129cf565b60016065556129cf565b7fffffffffffffffffffffffffffffffffffffffffffffffffffffffffffffff00609754166097557fffffffffffffffffffffffff0000000000000000000000000000000000000000908160c954161760c95560ca54161760ca5560ce54947fffffffffffffffffffffffffffffffffffffffffffffffffffffff000000000060cc54161760cc5560801b169460281b16911617171760ce556115db575b50604051f35b7fffffffffffffffffffffffffffffffffffffffffffffffffffffffffffff00ff168155386115d5565b606460405162461bcd60e51b815260206004820152601c60248201527f7665576f6d20616464726573732063616e6e6f74206265207a65726f000000006044820152fd5b606460405162461bcd60e51b815260206004820152601a60248201527f776f6d20616464726573732063616e6e6f74206265207a65726f0000000000006044820152fd5b606460405162461bcd60e51b815260206004820152601c60248201527f696e76616c6964205f666972737445706f6368537461727454696d65000000006044820152fd5b7fffffffffffffffffffffffffffffffffffffffffffffffffffffffffffff000016610101178b5538611480565b608460405162461bcd60e51b815260206004820152602e60248201527f496e697469616c697a61626c653a20636f6e747261637420697320616c72656160448201527f647920696e697469616c697a65640000000000000000000000000000000000006064820152fd5b60ff8a1615611473565b50346101e357806003193601126101e3576033547fffffffffffffffffffffffff00000000000000000000000000000000000000006001600160a01b038216916117be338414612922565b166033556000604051917f8be0079c531659141344cd1fd0a4f28419497f9722a3daafe3b4186f6b6457e08284a3f35b50346101e357602080600319360112610b85578161180a612801565b9161181483612c7a565b61181c612cfa565b61182583612dbd565b6001600160a01b0380841680845260d183526fffffffffffffffffffffffffffffffff6001604086200154169283151580611aec575b80611a6a575b61186c575b84604051f35b816119a992865260d18252600160408720017fffffffffffffffffffffffffffffffff00000000000000000000000000000000815416905561190a6118af613236565b82885260d1845260408820907fff0000000000ffffffffffffffffffffffffffffffffffffffffffffffffffff7effffffffff000000000000000000000000000000000000000000000000000083549260d01b169116179055565b604080516001600160a01b0389168152602081018790527fe8b160e373db99a103e0a2abfa029b9c3fc8b328984a1ead8a65ae68ae646db79190a181858560c9541683895260d1835286600260408b20015416896040518098819582947fa9059cbb00000000000000000000000000000000000000000000000000000000845260048401602090939291936001600160a01b0360408201951681520152565b03925af1928315610b4d5760d193611a4d575b50855252600260408420015416803b15611a49576040517fb66503cf0000000000000000000000000000000000000000000000000000000081526001600160a01b0394909416600485015260248401919091528290604490829084905af18015611a3e57611a2f575b8181808080611866565b611a3890612a40565b38611a25565b6040513d84823e3d90fd5b8280fd5b611a6390833d851161045a5761044a8183612a54565b50386119bc565b506024818460c95416604051928380927f70a082310000000000000000000000000000000000000000000000000000000082523060048301525afa8015610b4d5785918791611abb575b5011611861565b809250838092503d8311611ae5575b611ad48183612a54565b810103126112275784905138611ab4565b503d611aca565b5064ffffffffff604086205460d01c1642101561185b565b50346101e35760406003193601126101e357611b1e612801565b6fffffffffffffffffffffffffffffffff9060243582811691828203611bd557611bb4936001600160a01b03611b5981603354163314612922565b611b61612cfa565b611b6a83612dbd565b60cd5492169283875260cf6020527fffffffffffffffffffffffffffffffff00000000000000000000000000000000958691611baf8460408b2054168660801c612b9a565b612bc7565b60801b1691161760cd55835260cf6020526040832091825416179055604051f35b8480fd5b50346101e357806003193601126101e357602060ff609754166040519015158152f35b50346101e357806003193601126101e3576001600160a01b03611c2481603354163314612922565b611c2c612cfa565b60cb5490825b828110611ce1578360975460ff8116611c9d577fffffffffffffffffffffffffffffffffffffffffffffffffffffffffffffff0060019116176097557f62e78cea01bee320cd4e420270b5ea74000d11b0c9f74754ebdbfc544b05a2586020604051338152a1604051f35b606460405162461bcd60e51b815260206004820152601060248201527f5061757361626c653a20706175736564000000000000000000000000000000006044820152fd5b80610f7b83610f6e611cf29461279b565b611c32565b50346101e357806003193601126101e35760206cffffffffffffffffffffffffff60cc5460901c16604051908152f35b50346101e357806003193601126101e357602061ffff611d4d8160ce5460801c16612ec3565b16604051908152f35b50346101e35760406003193601126101e3576040602091611d75612801565b611d7d612817565b6001600160a01b03918216835260d085528383209116825283522054604051908152f35b50346101e357806003193601126101e35760206001600160a01b0360ca5416604051908152f35b50346101e35760406003193601126101e35767ffffffffffffffff600435818111611a4957611dfb90369060040161282d565b916024359081116102b157611e1490369060040161282d565b909160026065541461239c57600260655581840361235857918492611e37612cfa565b8391611e4286612aac565b9385965b808810611ed957868681876001600160a01b0360ca5416803b15611a49576044839260405194859384927fb0dfaa7a00000000000000000000000000000000000000000000000000000000845233600485015260248401525af18015610461576105cd9350611eca575b50600160655560405191829160208352602083019061285e565b611ed390612a40565b82611eb0565b611ee76106fd898387612b3e565b611ef081612c7a565b611efb898486612b3e565b35986001600160a01b038216895260cf602052604089205460801c8a61201d575b899a50988098996001600160a01b038416825260d160205260036001600160a01b038160408520015416611f62575b505050611f589150612ae2565b9750959495611e46565b6001600160a01b0390604084200154169333835260d06020526001600160a01b036040842091168352602052606460408320548360405196879485937f65d9aa4a000000000000000000000000000000000000000000000000000000008552336004860152602485015260448401525af18015610a7e57611f58928991612003575b50611fef828b612c66565b52611ffa818a612c66565b50878b80611f4b565b61201791503d808b833e610b6c8183612a54565b8b611fe4565b9661202783612dbd565b898b131561223e57338a5260d060205260408a206001600160a01b0384168b5260205260408a206120598c8254612bbb565b90556120c661207061206b8d8b612bbb565b6132c5565b6001600160a01b0385168c5260cf60205260408c20906fffffffffffffffffffffffffffffffff7fffffffffffffffffffffffffffffffff0000000000000000000000000000000083549260801b169116179055565b6120cf8b6132c5565b60cd907fffffffffffffffffffffffffffffffff000000000000000000000000000000008254916121136fffffffffffffffffffffffffffffffff91828516612bc7565b1691161790555b898112817f7fffffffffffffffffffffffffffffffffffffffffffffffffffffffffffffff038c1381151661221157817f8000000000000000000000000000000000000000000000000000000000000000038c12166121e45798809a81999a019733825260d0602052604082206001600160a01b03851683526020527f92aede651123b9757b46a79e4d37916de5f58649f7ef39380b0ad5d7273565f360606040842054604051903382526001600160a01b03881660208301526040820152a19050989798611f1c565b60248a7f4e487b710000000000000000000000000000000000000000000000000000000081526011600452fd5b60248b7f4e487b710000000000000000000000000000000000000000000000000000000081526011600452fd5b338a5260d060205260408a206001600160a01b0384168b5260205260408a20546122678c612b62565b11612314576122b961207061206b6122b38e8e6122ac604061228884612b62565b9233815260d06020528181206001600160a01b038d16825260205220918254612b8f565b9055612b62565b8b612b8f565b6122c561206b8c612b62565b60cd907fffffffffffffffffffffffffffffffff000000000000000000000000000000008254916123096fffffffffffffffffffffffffffffffff91828516612b9a565b16911617905561211a565b606460405162461bcd60e51b815260206004820152601560248201527f766f7465723a20766f746520756e646572666c6f7700000000000000000000006044820152fd5b606460405162461bcd60e51b815260206004820152601d60248201527f766f7465723a206172726179206c656e677468206e6f7420657175616c0000006044820152fd5b606460405162461bcd60e51b815260206004820152601f60248201527f5265656e7472616e637947756172643a207265656e7472616e742063616c6c006044820152fd5b50346101e35760206003193601126101e35760206124156123ff612801565b612407612f77565b61240f613054565b9161314a565b604051908152f35b50346101e357602080600319360112610b855760043567ffffffffffffffff8111611a495761245090369060040161282d565b929061245b84612aac565b93825b81811061247857604051858152806105cd8188018961285e565b6124866106fd828486612b3e565b61248f81612c7a565b6001600160a01b038091169081865260d1875260038181604089200154166124c3575b5050506124be90612ae2565b61245e565b604087200154169033865260d0875260408620908652865284604081205460cf88526064604083205460801c918360405195869485937f65d9aa4a000000000000000000000000000000000000000000000000000000008552336004860152602485015260448401525af190811561257b57906124be92918691612561575b5061254d8289612c66565b526125588188612c66565b509038806124b2565b61257591503d8088833e610b6c8183612a54565b38612542565b6040513d87823e3d90fd5b50346101e35760406003193601126101e3576125a0612801565b6125a8612817565b6001600160a01b0380916125c182603354163314612922565b169182156102b1576125d281612c7a565b16825260d160205260026040832001907fffffffffffffffffffffffff0000000000000000000000000000000000000000825416179055604051f35b50346101e35760206003193601126101e35760043560cb54811015610b85576001600160a01b039060cb602093527fa7ce836d032b2bf62b7e2097a8e0a6d8aeb35405ad15271e96d3b0188a1d06fb015416604051908152f35b50346101e357806003193601126101e357602060cd5460801c604051908152f35b50346101e357806003193601126101e35760206cffffffffffffffffffffffffff60cc5460281c16604051908152f35b50346101e35760206003193601126101e3576004356affffffffffffffffffffff8116808203611a495769021e19e0c9bab2400000906127056001600160a01b03603354163314612922565b1161275757612712612cfa565b7fffffffffffffffffffffffffffffffff0000000000000000000000ffffffffff6fffffffffffffffffffffff000000000060ce549260281b1691161760ce55604051f35b606460405162461bcd60e51b815260206004820152601460248201527f726577617264207261746520746f6f20686967680000000000000000000000006044820152fd5b60cb548110156127d25760cb6000527fa7ce836d032b2bf62b7e2097a8e0a6d8aeb35405ad15271e96d3b0188a1d06fb0190600090565b7f4e487b7100000000000000000000000000000000000000000000000000000000600052603260045260246000fd5b600435906001600160a01b03821682036102b557565b602435906001600160a01b03821682036102b557565b9181601f840112156102b55782359167ffffffffffffffff83116102b5576020808501948460051b0101116102b557565b9080825180825260208092019180808360051b860101950192600090815b84831061288d575050505050505090565b90919287601f1988839798999b9a0301845287519082808351928381520192019084905b8082106128d457505050908060019298019301930191949392909795969761287c565b91938060019294865181520194019201879392916128b1565b918091926000905b82821061290d575011612906575050565b6000910152565b915080602091830151818601520182916128f5565b1561292957565b606460405162461bcd60e51b815260206004820152602060248201527f4f776e61626c653a2063616c6c6572206973206e6f7420746865206f776e65726044820152fd5b603354906001600160a01b0380911691827fffffffffffffffffffffffff0000000000000000000000000000000000000000821617603355167f8be0079c531659141344cd1fd0a4f28419497f9722a3daafe3b4186f6b6457e06000604051a3565b156129d657565b608460405162461bcd60e51b815260206004820152602b60248201527f496e697469616c697a61626c653a20636f6e7472616374206973206e6f74206960448201527f6e697469616c697a696e670000000000000000000000000000000000000000006064820152fd5b67ffffffffffffffff811161091e57604052565b90601f601f19910116810190811067ffffffffffffffff82111761091e57604052565b67ffffffffffffffff811161091e5760051b60200190565b60005b828110612a9e57505050565b606082820152602001612a92565b90612ae0612ab983612a77565b612ac66040519182612a54565b8381526020601f19612ad88396612a77565b019101612a8f565b565b7fffffffffffffffffffffffffffffffffffffffffffffffffffffffffffffffff8114612b0f5760010190565b7f4e487b7100000000000000000000000000000000000000000000000000000000600052601160045260246000fd5b91908110156127d25760051b0190565b356001600160a01b03811681036102b55790565b7f80000000000000000000000000000000000000000000000000000000000000008114612b0f5760000390565b818110612b0f570390565b6fffffffffffffffffffffffffffffffff9182169116818110612b0f570390565b81198111612b0f570190565b906fffffffffffffffffffffffffffffffff8080931691168092038111612b0f570190565b60209081818403126102b55780519067ffffffffffffffff82116102b557019180601f840112156102b5578251612c2281612a77565b93612c306040519586612a54565b818552838086019260051b8201019283116102b5578301905b828210612c57575050505090565b81518152908301908301612c49565b80518210156127d25760209160051b010190565b6001600160a01b0380911660005260d16020526002604060002001541615612c9e57565b606460405162461bcd60e51b815260206004820152601d60248201527f566f7465723a2067617567654d616e61676572206e6f742065786973740000006044820152fd5b908160209103126102b5575180151581036102b55790565b60cc5464ffffffffff808216421115612db95771ffffffffffffffffffffffffff0000000000612d30612d2b612f77565b613326565b60281b16807fffffffffffffffffffffffffffff00000000000000000000000000ffffffffff84161760cc557fff000000000000000000000000000000000000000000000000000000000000007effffffffffffffffffffffffff000000000000000000000000000000000000612da8612d2b613054565b60901b16924216931617171760cc55565b5050565b60cc54906001600160a01b03612df061206b6cffffffffffffffffffffffffff9485808260901c169160281c168561314a565b911660005260d16020526fffffffffffffffffffffffffffffffff600160406000200191167fffffffffffffffffffffffffffffffff0000000000000000000000000000000082541617905560cc5460281c166040600020907fffffffffffffffffffffffffffffffffffffff0000000000000000000000000082541617905560cc546040600020907fffffffffffff00000000000000000000000000ffffffffffffffffffffffffff79ffffffffffffffffffffffffff0000000000000000000000000083549260281c169116179055565b61ffff166103e8818110612b0f570390565b64e8d4a5100090807fffffffffffffffffffffffffffffffffffffffffffffffffffffffffffffffff04821181151516612b0f570290565b807fffffffffffffffffffffffffffffffffffffffffffffffffffffffffffffffff04821181151516612b0f570290565b8115612f48570490565b7f4e487b7100000000000000000000000000000000000000000000000000000000600052601260045260246000fd5b60cc5464ffffffffff811690814211801590613047575b801561303b575b613024576cffffffffffffffffffffffffff6103e861300e612ff1612fec612fc06130199742612b8f565b61ffff612fe160ce54926affffffffffffffffffffff8460281c1690612f0d565b9160801c1690612f0d565b612ed5565b60cd5460801c670de0b6b3a764000080821061301c575090612f3e565b049160281c16612bbb565b90565b905090612f3e565b6cffffffffffffffffffffffffff915060281c1690565b5060ff60975416612f95565b5060cd5460801c15612f8e565b60cc5464ffffffffff81169081421180159061312e575b8015613122575b61310b576cffffffffffffffffffffffffff6103e86131006130d4612fec61309d6130199742612b8f565b6130bb60ce54916affffffffffffffffffffff8360281c1690612f0d565b906130cd61ffff809260801c16612ec3565b1690612f0d565b60cd546fffffffffffffffffffffffffffffffff16670de0b6b3a764000080821061301c575090612f3e565b049160901c16612bbb565b6cffffffffffffffffffffffffff915060901c1690565b5060ff60975416613072565b506fffffffffffffffffffffffffffffffff60cd54161561306b565b6001600160a01b03169160009183835260209260d184526cffffffffffffffffffffffffff9361318260409386858520541690612b8f565b9386835260cf825264e8d4a5100090816131b26fffffffffffffffffffffffffffffffff97888888205416612f0d565b049688855260d1845260ff6001878720015460801c1615613220576001938998969361320d6131fa889560d1956130199e61321b9d9b528686528888205460681c1690612b8f565b8b865260cf84528686205460801c612f0d565b049883525220015416612bbb565b612bbb565b5050505061301994509060019120015416612bbb565b64ffffffffff8060ce54168042106132c05762093a8090816132588242612b8f565b047ffffffffffffffffffffffffffffffffffffffffffffffffffffffffffffffffe8111612b0f5760010191827fffffffffffffffffffffffffffffffffffffffffffffffffffffffffffffffff04811183151516612b0f576132bc920290612bbb565b1690565b905090565b6fffffffffffffffffffffffffffffffff908181116132e2571690565b606460405162461bcd60e51b815260206004820152601060248201527f75696e74313238206f766572666c6f77000000000000000000000000000000006044820152fd5b6cffffffffffffffffffffffffff90818111613340571690565b606460405162461bcd60e51b815260206004820152601060248201527f75696e74313034206f766572666c6f77000000000000000000000000000000006044820152fdfea2646970667358221220319302afcf5a222d4fe6c424ba4a196211c5f3d69057bb2148b35566dd65c01d64736f6c634300080f0033",
  "devdoc": {
    "kind": "dev",
    "methods": {
      "claimBribes(address[])": {
        "details": "This function looks safe from re-entrancy attack"
      },
      "distribute(address)": {
        "details": "This function looks safe from re-entrancy attack"
      },
      "owner()": {
        "details": "Returns the address of the current owner."
      },
      "paused()": {
        "details": "Returns true if the contract is paused, and false otherwise."
      },
      "renounceOwnership()": {
        "details": "Leaves the contract without owner. It will not be possible to call `onlyOwner` functions anymore. Can only be called by the current owner. NOTE: Renouncing ownership will leave the contract without an owner, thereby removing any functionality that is only available to the owner."
      },
      "transferOwnership(address)": {
        "details": "Transfers ownership of the contract to a new account (`newOwner`). Can only be called by the current owner."
      },
      "vote(address[],int256[])": {
        "params": {
          "_deltas": "change of vote for each LP tokens",
          "_lpVote": "address to LP tokens to vote"
        }
      }
    },
    "version": 1
  },
  "userdoc": {
    "kind": "user",
    "methods": {
      "add(address,address,address)": {
        "notice": "Add LP token into the Voter"
      },
      "claimBribes(address[])": {
        "notice": "Claim bribes for LP tokens"
      },
      "emergencyWomWithdraw()": {
        "notice": "In case we need to manually migrate WOM funds from Voter Sends all remaining wom from the contract to the owner"
      },
      "getUserVotes(address,address)": {
        "notice": "getter function to return vote of a LP token for a user"
      },
      "lpTokenLength()": {
        "notice": "returns LP tokens length"
      },
      "pauseAll()": {
        "notice": "Pause vote accumulation of WOM tokens for all assets Users can still vote/unvote and receive bribes."
      },
      "pauseVoteEmission(address)": {
        "notice": "Pause vote emission of WOM tokens for the gauge. Users can still vote/unvote and receive bribes."
      },
      "pendingBribes(address[],address)": {
        "notice": "Get pending bribes for LP tokens"
      },
      "pendingWom(address)": {
        "notice": "Amount of pending WOM for the LP token"
      },
      "resumeAll()": {
        "notice": "Resume vote accumulation of WOM tokens for all assets"
      },
      "resumeVoteEmission(address)": {
        "notice": "Resume vote accumulation of WOM tokens for the gauge."
      },
      "setBaseAllocation(uint16)": {
        "notice": "update the base and vote partition"
      },
      "setBribe(address,address)": {
        "notice": "get bribe address for LP token"
      },
      "setGauge(address,address)": {
        "notice": "get gaugeManager address for LP token"
      },
      "vote(address[],int256[])": {
        "notice": "Vote and unvote WOM emission for LP tokens. User can vote/unvote a un-whitelisted pool. But no WOM will be emitted. Bribes are also distributed by the Bribe contract. Amount of vote should be checked by veWom.vote(). This can also used to distribute bribes when _deltas are set to 0"
      },
      "voteAllocation()": {
        "notice": "Read-only functions"
      }
    },
    "notice": "Voter can handle gauge voting. WOM rewards are distributed to different gauges (MasterWombat->LpToken pair) according to the base allocation & voting weights. veWOM holders can participate in gauge voting to determine `voteAllocation()` of the WOM emission. They can  allocate their vote (1 veWOM = 1 vote) to one or more gauges. WOM accumulation to a gauge is proportional to the amount of vote it receives. Real-time WOM accumulation and epoch-based WOM distribution: Voting gauges accumulates WOM seconds by seconds according to the voting weight. When a user applies new allocation for their votes, accumulation rate of WOM of the gauge updates immediately. Note that only whitelisted gauges are able to accumulate WOM from users' votes. Accumulated WOM is distributed to LP in the next epoch at an even rate. 1 epoch last for 7 days. Base Allocation: `baseAllocation` of WOM emissions is distributed to gauges according to the allocation by `owner`. Other WOM emissions are deteremined by `votes` of veWOM holders. Flow to distribute reward: 1. `Voter.distribute(lpToken)` is called 2. WOM index (`baseIndex` and `voteIndex`) is updated and corresponding WOM accumulated over this period (`GaugeInfo.claimable`)    is updated. 3. At the beginning of each epoch, `GaugeInfo.claimable` amount of WOM is sent to the respective gauge    via `MasterWombat.notifyRewardAmount(IERC20 _lpToken, uint256 _amount)` 4. MasterWombat will update the corresponding `pool.rewardRate` and `pool.periodFinish` Bribe Bribe is natively supported by `Voter`. Third Party protocols can bribe to attract more votes from veWOM holders to increase WOM emissions to their tokens. Flow of bribe: 1. When users vote/unvote, `bribe.onVote` is called. The bribe contract works similar to `MultiRewarderPerSec`. Note: This should also works with boosted pool. But it doesn't work with interest rate model Note 2: Please refer to the comment of MasterWombatV3.notifyRewardAmount for front-running risk",
    "version": 1
  },
  "storageLayout": {
    "storage": [
      {
        "astId": 130,
        "contract": "contracts/wombat-governance/gauge/Voter.sol:Voter",
        "label": "_initialized",
        "offset": 0,
        "slot": "0",
        "type": "t_bool"
      },
      {
        "astId": 133,
        "contract": "contracts/wombat-governance/gauge/Voter.sol:Voter",
        "label": "_initializing",
        "offset": 1,
        "slot": "0",
        "type": "t_bool"
      },
      {
        "astId": 651,
        "contract": "contracts/wombat-governance/gauge/Voter.sol:Voter",
        "label": "__gap",
        "offset": 0,
        "slot": "1",
        "type": "t_array(t_uint256)50_storage"
      },
      {
        "astId": 10,
        "contract": "contracts/wombat-governance/gauge/Voter.sol:Voter",
        "label": "_owner",
        "offset": 0,
        "slot": "51",
        "type": "t_address"
      },
      {
        "astId": 122,
        "contract": "contracts/wombat-governance/gauge/Voter.sol:Voter",
        "label": "__gap",
        "offset": 0,
        "slot": "52",
        "type": "t_array(t_uint256)49_storage"
      },
      {
        "astId": 322,
        "contract": "contracts/wombat-governance/gauge/Voter.sol:Voter",
        "label": "_status",
        "offset": 0,
        "slot": "101",
        "type": "t_uint256"
      },
      {
        "astId": 366,
        "contract": "contracts/wombat-governance/gauge/Voter.sol:Voter",
        "label": "__gap",
        "offset": 0,
        "slot": "102",
        "type": "t_array(t_uint256)49_storage"
      },
      {
        "astId": 218,
        "contract": "contracts/wombat-governance/gauge/Voter.sol:Voter",
        "label": "_paused",
        "offset": 0,
        "slot": "151",
        "type": "t_bool"
      },
      {
        "astId": 307,
        "contract": "contracts/wombat-governance/gauge/Voter.sol:Voter",
        "label": "__gap",
        "offset": 0,
        "slot": "152",
        "type": "t_array(t_uint256)49_storage"
      },
      {
        "astId": 17655,
        "contract": "contracts/wombat-governance/gauge/Voter.sol:Voter",
        "label": "wom",
        "offset": 0,
        "slot": "201",
        "type": "t_contract(IERC20)1420"
      },
      {
        "astId": 17658,
        "contract": "contracts/wombat-governance/gauge/Voter.sol:Voter",
        "label": "veWom",
        "offset": 0,
        "slot": "202",
        "type": "t_contract(IVe)17615"
      },
      {
        "astId": 17662,
        "contract": "contracts/wombat-governance/gauge/Voter.sol:Voter",
        "label": "lpTokens",
        "offset": 0,
        "slot": "203",
        "type": "t_array(t_contract(IERC20)1420)dyn_storage"
      },
      {
        "astId": 17664,
        "contract": "contracts/wombat-governance/gauge/Voter.sol:Voter",
        "label": "lastRewardTimestamp",
        "offset": 0,
        "slot": "204",
        "type": "t_uint40"
      },
      {
        "astId": 17666,
        "contract": "contracts/wombat-governance/gauge/Voter.sol:Voter",
        "label": "baseIndex",
        "offset": 5,
        "slot": "204",
        "type": "t_uint104"
      },
      {
        "astId": 17668,
        "contract": "contracts/wombat-governance/gauge/Voter.sol:Voter",
        "label": "voteIndex",
        "offset": 18,
        "slot": "204",
        "type": "t_uint104"
      },
      {
        "astId": 17670,
        "contract": "contracts/wombat-governance/gauge/Voter.sol:Voter",
        "label": "totalWeight",
        "offset": 0,
        "slot": "205",
        "type": "t_uint128"
      },
      {
        "astId": 17672,
        "contract": "contracts/wombat-governance/gauge/Voter.sol:Voter",
        "label": "totalAllocPoint",
        "offset": 16,
        "slot": "205",
        "type": "t_uint128"
      },
      {
        "astId": 17674,
        "contract": "contracts/wombat-governance/gauge/Voter.sol:Voter",
        "label": "firstEpochStartTime",
        "offset": 0,
        "slot": "206",
        "type": "t_uint40"
      },
      {
        "astId": 17676,
        "contract": "contracts/wombat-governance/gauge/Voter.sol:Voter",
        "label": "womPerSec",
        "offset": 5,
        "slot": "206",
        "type": "t_uint88"
      },
      {
        "astId": 17678,
        "contract": "contracts/wombat-governance/gauge/Voter.sol:Voter",
        "label": "baseAllocation",
        "offset": 16,
        "slot": "206",
        "type": "t_uint16"
      },
      {
        "astId": 17684,
        "contract": "contracts/wombat-governance/gauge/Voter.sol:Voter",
        "label": "weights",
        "offset": 0,
        "slot": "207",
        "type": "t_mapping(t_contract(IERC20)1420,t_struct(GaugeWeight)17646_storage)"
      },
      {
        "astId": 17691,
        "contract": "contracts/wombat-governance/gauge/Voter.sol:Voter",
        "label": "votes",
        "offset": 0,
        "slot": "208",
        "type": "t_mapping(t_address,t_mapping(t_contract(IERC20)1420,t_uint256))"
      },
      {
        "astId": 17697,
        "contract": "contracts/wombat-governance/gauge/Voter.sol:Voter",
        "label": "infos",
        "offset": 0,
        "slot": "209",
        "type": "t_mapping(t_contract(IERC20)1420,t_struct(GaugeInfo)17641_storage)"
      }
    ],
    "types": {
      "t_address": {
        "encoding": "inplace",
        "label": "address",
        "numberOfBytes": "20"
      },
      "t_array(t_contract(IERC20)1420)dyn_storage": {
        "base": "t_contract(IERC20)1420",
        "encoding": "dynamic_array",
        "label": "contract IERC20[]",
        "numberOfBytes": "32"
      },
      "t_array(t_uint256)49_storage": {
        "base": "t_uint256",
        "encoding": "inplace",
        "label": "uint256[49]",
        "numberOfBytes": "1568"
      },
      "t_array(t_uint256)50_storage": {
        "base": "t_uint256",
        "encoding": "inplace",
        "label": "uint256[50]",
        "numberOfBytes": "1600"
      },
      "t_bool": {
        "encoding": "inplace",
        "label": "bool",
        "numberOfBytes": "1"
      },
      "t_contract(IBribe)19299": {
        "encoding": "inplace",
        "label": "contract IBribe",
        "numberOfBytes": "20"
      },
      "t_contract(IERC20)1420": {
        "encoding": "inplace",
        "label": "contract IERC20",
        "numberOfBytes": "20"
      },
      "t_contract(IGauge)17607": {
        "encoding": "inplace",
        "label": "contract IGauge",
        "numberOfBytes": "20"
      },
      "t_contract(IVe)17615": {
        "encoding": "inplace",
        "label": "contract IVe",
        "numberOfBytes": "20"
      },
      "t_mapping(t_address,t_mapping(t_contract(IERC20)1420,t_uint256))": {
        "encoding": "mapping",
        "key": "t_address",
        "label": "mapping(address => mapping(contract IERC20 => uint256))",
        "numberOfBytes": "32",
        "value": "t_mapping(t_contract(IERC20)1420,t_uint256)"
      },
      "t_mapping(t_contract(IERC20)1420,t_struct(GaugeInfo)17641_storage)": {
        "encoding": "mapping",
        "key": "t_contract(IERC20)1420",
        "label": "mapping(contract IERC20 => struct Voter.GaugeInfo)",
        "numberOfBytes": "32",
        "value": "t_struct(GaugeInfo)17641_storage"
      },
      "t_mapping(t_contract(IERC20)1420,t_struct(GaugeWeight)17646_storage)": {
        "encoding": "mapping",
        "key": "t_contract(IERC20)1420",
        "label": "mapping(contract IERC20 => struct Voter.GaugeWeight)",
        "numberOfBytes": "32",
        "value": "t_struct(GaugeWeight)17646_storage"
      },
      "t_mapping(t_contract(IERC20)1420,t_uint256)": {
        "encoding": "mapping",
        "key": "t_contract(IERC20)1420",
        "label": "mapping(contract IERC20 => uint256)",
        "numberOfBytes": "32",
        "value": "t_uint256"
      },
      "t_struct(GaugeInfo)17641_storage": {
        "encoding": "inplace",
        "label": "struct Voter.GaugeInfo",
        "members": [
          {
            "astId": 17626,
            "contract": "contracts/wombat-governance/gauge/Voter.sol:Voter",
            "label": "supplyBaseIndex",
            "offset": 0,
            "slot": "0",
            "type": "t_uint104"
          },
          {
            "astId": 17628,
            "contract": "contracts/wombat-governance/gauge/Voter.sol:Voter",
            "label": "supplyVoteIndex",
            "offset": 13,
            "slot": "0",
            "type": "t_uint104"
          },
          {
            "astId": 17630,
            "contract": "contracts/wombat-governance/gauge/Voter.sol:Voter",
            "label": "nextEpochStartTime",
            "offset": 26,
            "slot": "0",
            "type": "t_uint40"
          },
          {
            "astId": 17632,
            "contract": "contracts/wombat-governance/gauge/Voter.sol:Voter",
            "label": "claimable",
            "offset": 0,
            "slot": "1",
            "type": "t_uint128"
          },
          {
            "astId": 17634,
            "contract": "contracts/wombat-governance/gauge/Voter.sol:Voter",
            "label": "whitelist",
            "offset": 16,
            "slot": "1",
            "type": "t_bool"
          },
          {
            "astId": 17637,
            "contract": "contracts/wombat-governance/gauge/Voter.sol:Voter",
            "label": "gaugeManager",
            "offset": 0,
            "slot": "2",
            "type": "t_contract(IGauge)17607"
          },
          {
            "astId": 17640,
            "contract": "contracts/wombat-governance/gauge/Voter.sol:Voter",
            "label": "bribe",
            "offset": 0,
            "slot": "3",
            "type": "t_contract(IBribe)19299"
          }
        ],
        "numberOfBytes": "128"
      },
      "t_struct(GaugeWeight)17646_storage": {
        "encoding": "inplace",
        "label": "struct Voter.GaugeWeight",
        "members": [
          {
            "astId": 17643,
            "contract": "contracts/wombat-governance/gauge/Voter.sol:Voter",
            "label": "allocPoint",
            "offset": 0,
            "slot": "0",
            "type": "t_uint128"
          },
          {
            "astId": 17645,
            "contract": "contracts/wombat-governance/gauge/Voter.sol:Voter",
            "label": "voteWeight",
            "offset": 16,
            "slot": "0",
            "type": "t_uint128"
          }
        ],
        "numberOfBytes": "32"
      },
      "t_uint104": {
        "encoding": "inplace",
        "label": "uint104",
        "numberOfBytes": "13"
      },
      "t_uint128": {
        "encoding": "inplace",
        "label": "uint128",
        "numberOfBytes": "16"
      },
      "t_uint16": {
        "encoding": "inplace",
        "label": "uint16",
        "numberOfBytes": "2"
      },
      "t_uint256": {
        "encoding": "inplace",
        "label": "uint256",
        "numberOfBytes": "32"
      },
      "t_uint40": {
        "encoding": "inplace",
        "label": "uint40",
        "numberOfBytes": "5"
      },
      "t_uint88": {
        "encoding": "inplace",
        "label": "uint88",
        "numberOfBytes": "11"
      }
    }
  }
}