{
  "address": "0x85D5133Cde4c215bcF5394446Bab341ce4aa9cD9",
  "abi": [
    {
      "anonymous": false,
      "inputs": [
        {
          "indexed": false,
          "internalType": "contract IERC20",
          "name": "lpToken",
          "type": "address"
        },
        {
          "indexed": false,
          "internalType": "uint256",
          "name": "amount",
          "type": "uint256"
        }
      ],
      "name": "DistributeReward",
      "type": "event"
    },
    {
      "anonymous": false,
      "inputs": [
        {
          "indexed": true,
          "internalType": "address",
          "name": "previousOwner",
          "type": "address"
        },
        {
          "indexed": true,
          "internalType": "address",
          "name": "newOwner",
          "type": "address"
        }
      ],
      "name": "OwnershipTransferred",
      "type": "event"
    },
    {
      "anonymous": false,
      "inputs": [
        {
          "indexed": false,
          "internalType": "address",
          "name": "account",
          "type": "address"
        }
      ],
      "name": "Paused",
      "type": "event"
    },
    {
      "anonymous": false,
      "inputs": [
        {
          "indexed": false,
          "internalType": "address",
          "name": "account",
          "type": "address"
        }
      ],
      "name": "Unpaused",
      "type": "event"
    },
    {
      "anonymous": false,
      "inputs": [
        {
          "indexed": false,
          "internalType": "uint256",
          "name": "basePartition",
          "type": "uint256"
        },
        {
          "indexed": false,
          "internalType": "uint256",
          "name": "votePartition",
          "type": "uint256"
        }
      ],
      "name": "UpdateEmissionPartition",
      "type": "event"
    },
    {
      "anonymous": false,
      "inputs": [
        {
          "indexed": false,
          "internalType": "address",
          "name": "user",
          "type": "address"
        },
        {
          "indexed": false,
          "internalType": "contract IERC20",
          "name": "lpToken",
          "type": "address"
        },
        {
          "indexed": false,
          "internalType": "uint256",
          "name": "amount",
          "type": "uint256"
        }
      ],
      "name": "UpdateVote",
      "type": "event"
    },
    {
      "inputs": [
        {
          "internalType": "contract IGauge",
          "name": "_gaugeManager",
          "type": "address"
        },
        {
          "internalType": "contract IERC20",
          "name": "_lpToken",
          "type": "address"
        },
        {
          "internalType": "contract IBribe",
          "name": "_bribe",
          "type": "address"
        }
      ],
      "name": "add",
      "outputs": [],
      "stateMutability": "nonpayable",
      "type": "function"
    },
    {
      "inputs": [],
      "name": "baseIndex",
      "outputs": [
        {
          "internalType": "uint104",
          "name": "",
          "type": "uint104"
        }
      ],
      "stateMutability": "view",
      "type": "function"
    },
    {
      "inputs": [],
      "name": "basePartition",
      "outputs": [
        {
          "internalType": "uint16",
          "name": "",
          "type": "uint16"
        }
      ],
      "stateMutability": "view",
      "type": "function"
    },
    {
      "inputs": [
        {
          "internalType": "contract IERC20",
          "name": "",
          "type": "address"
        }
      ],
      "name": "bribes",
      "outputs": [
        {
          "internalType": "address",
          "name": "",
          "type": "address"
        }
      ],
      "stateMutability": "view",
      "type": "function"
    },
    {
      "inputs": [
        {
          "internalType": "contract IERC20[]",
          "name": "_lpTokens",
          "type": "address[]"
        }
      ],
      "name": "claimBribes",
      "outputs": [
        {
          "internalType": "uint256[][]",
          "name": "bribeRewards",
          "type": "uint256[][]"
        }
      ],
      "stateMutability": "nonpayable",
      "type": "function"
    },
    {
      "inputs": [
        {
          "internalType": "contract IERC20",
          "name": "_lpToken",
          "type": "address"
        }
      ],
      "name": "distribute",
      "outputs": [],
      "stateMutability": "nonpayable",
      "type": "function"
    },
    {
      "inputs": [],
      "name": "emergencyWomWithdraw",
      "outputs": [],
      "stateMutability": "nonpayable",
      "type": "function"
    },
    {
      "inputs": [],
      "name": "firstEpochStartTime",
      "outputs": [
        {
          "internalType": "uint40",
          "name": "",
          "type": "uint40"
        }
      ],
      "stateMutability": "view",
      "type": "function"
    },
    {
      "inputs": [
        {
          "internalType": "address",
          "name": "_user",
          "type": "address"
        },
        {
          "internalType": "contract IERC20",
          "name": "_lpToken",
          "type": "address"
        }
      ],
      "name": "getUserVotes",
      "outputs": [
        {
          "internalType": "uint256",
          "name": "",
          "type": "uint256"
        }
      ],
      "stateMutability": "view",
      "type": "function"
    },
    {
      "inputs": [],
      "name": "getVotePartition",
      "outputs": [
        {
          "internalType": "uint256",
          "name": "",
          "type": "uint256"
        }
      ],
      "stateMutability": "view",
      "type": "function"
    },
    {
      "inputs": [
        {
          "internalType": "contract IERC20",
          "name": "",
          "type": "address"
        }
      ],
      "name": "infos",
      "outputs": [
        {
          "internalType": "uint104",
          "name": "supplyBaseIndex",
          "type": "uint104"
        },
        {
          "internalType": "uint104",
          "name": "supplyVoteIndex",
          "type": "uint104"
        },
        {
          "internalType": "uint40",
          "name": "nextEpochStartTime",
          "type": "uint40"
        },
        {
          "internalType": "uint128",
          "name": "claimable",
          "type": "uint128"
        },
        {
          "internalType": "bool",
          "name": "whitelist",
          "type": "bool"
        },
        {
          "internalType": "contract IGauge",
          "name": "gaugeManager",
          "type": "address"
        },
        {
          "internalType": "contract IBribe",
          "name": "bribe",
          "type": "address"
        }
      ],
      "stateMutability": "view",
      "type": "function"
    },
    {
      "inputs": [
        {
          "internalType": "contract IERC20",
          "name": "_wom",
          "type": "address"
        },
        {
          "internalType": "contract IVe",
          "name": "_veWom",
          "type": "address"
        },
        {
          "internalType": "uint88",
          "name": "_womPerSec",
          "type": "uint88"
        },
        {
          "internalType": "uint40",
          "name": "_startTimestamp",
          "type": "uint40"
        },
        {
          "internalType": "uint40",
          "name": "_firstEpochStartTime",
          "type": "uint40"
        },
        {
          "internalType": "uint16",
          "name": "_basePartition",
          "type": "uint16"
        }
      ],
      "name": "initialize",
      "outputs": [],
      "stateMutability": "nonpayable",
      "type": "function"
    },
    {
      "inputs": [],
      "name": "lastRewardTimestamp",
      "outputs": [
        {
          "internalType": "uint40",
          "name": "",
          "type": "uint40"
        }
      ],
      "stateMutability": "view",
      "type": "function"
    },
    {
      "inputs": [],
      "name": "lpTokenLength",
      "outputs": [
        {
          "internalType": "uint256",
          "name": "",
          "type": "uint256"
        }
      ],
      "stateMutability": "view",
      "type": "function"
    },
    {
      "inputs": [
        {
          "internalType": "uint256",
          "name": "",
          "type": "uint256"
        }
      ],
      "name": "lpTokens",
      "outputs": [
        {
          "internalType": "contract IERC20",
          "name": "",
          "type": "address"
        }
      ],
      "stateMutability": "view",
      "type": "function"
    },
    {
      "inputs": [],
      "name": "owner",
      "outputs": [
        {
          "internalType": "address",
          "name": "",
          "type": "address"
        }
      ],
      "stateMutability": "view",
      "type": "function"
    },
    {
      "inputs": [
        {
          "internalType": "contract IERC20",
          "name": "_lpToken",
          "type": "address"
        }
      ],
      "name": "pause",
      "outputs": [],
      "stateMutability": "nonpayable",
      "type": "function"
    },
    {
      "inputs": [],
      "name": "pauseAll",
      "outputs": [],
      "stateMutability": "nonpayable",
      "type": "function"
    },
    {
      "inputs": [],
      "name": "paused",
      "outputs": [
        {
          "internalType": "bool",
          "name": "",
          "type": "bool"
        }
      ],
      "stateMutability": "view",
      "type": "function"
    },
    {
      "inputs": [
        {
          "internalType": "contract IERC20[]",
          "name": "_lpTokens",
          "type": "address[]"
        },
        {
          "internalType": "address",
          "name": "_user",
          "type": "address"
        }
      ],
      "name": "pendingBribes",
      "outputs": [
        {
          "internalType": "uint256[][]",
          "name": "bribeRewards",
          "type": "uint256[][]"
        }
      ],
      "stateMutability": "view",
      "type": "function"
    },
    {
      "inputs": [
        {
          "internalType": "contract IERC20",
          "name": "_lpToken",
          "type": "address"
        }
      ],
      "name": "pendingWom",
      "outputs": [
        {
          "internalType": "uint256",
          "name": "",
          "type": "uint256"
        }
      ],
      "stateMutability": "view",
      "type": "function"
    },
    {
      "inputs": [],
      "name": "renounceOwnership",
      "outputs": [],
      "stateMutability": "nonpayable",
      "type": "function"
    },
    {
      "inputs": [
        {
          "internalType": "contract IERC20",
          "name": "_lpToken",
          "type": "address"
        }
      ],
      "name": "resume",
      "outputs": [],
      "stateMutability": "nonpayable",
      "type": "function"
    },
    {
      "inputs": [],
      "name": "resumeAll",
      "outputs": [],
      "stateMutability": "nonpayable",
      "type": "function"
    },
    {
      "inputs": [
        {
          "internalType": "contract IERC20",
          "name": "_lpToken",
          "type": "address"
        },
        {
          "internalType": "uint128",
          "name": "_allocPoint",
          "type": "uint128"
        }
      ],
      "name": "setAllocPoint",
      "outputs": [],
      "stateMutability": "nonpayable",
      "type": "function"
    },
    {
      "inputs": [
        {
          "internalType": "uint16",
          "name": "_basePartition",
          "type": "uint16"
        }
      ],
      "name": "setBasePartition",
      "outputs": [],
      "stateMutability": "nonpayable",
      "type": "function"
    },
    {
      "inputs": [
        {
          "internalType": "contract IERC20",
          "name": "_lpToken",
          "type": "address"
        },
        {
          "internalType": "contract IBribe",
          "name": "_bribe",
          "type": "address"
        }
      ],
      "name": "setBribe",
      "outputs": [],
      "stateMutability": "nonpayable",
      "type": "function"
    },
    {
      "inputs": [
        {
          "internalType": "contract IERC20",
          "name": "_lpToken",
          "type": "address"
        },
        {
          "internalType": "contract IGauge",
          "name": "_gaugeManager",
          "type": "address"
        }
      ],
      "name": "setGauge",
      "outputs": [],
      "stateMutability": "nonpayable",
      "type": "function"
    },
    {
      "inputs": [
        {
          "internalType": "uint88",
          "name": "_womPerSec",
          "type": "uint88"
        }
      ],
      "name": "setWomPerSec",
      "outputs": [],
      "stateMutability": "nonpayable",
      "type": "function"
    },
    {
      "inputs": [],
      "name": "totalAllocPoint",
      "outputs": [
        {
          "internalType": "uint128",
          "name": "",
          "type": "uint128"
        }
      ],
      "stateMutability": "view",
      "type": "function"
    },
    {
      "inputs": [],
      "name": "totalWeight",
      "outputs": [
        {
          "internalType": "uint128",
          "name": "",
          "type": "uint128"
        }
      ],
      "stateMutability": "view",
      "type": "function"
    },
    {
      "inputs": [
        {
          "internalType": "address",
          "name": "newOwner",
          "type": "address"
        }
      ],
      "name": "transferOwnership",
      "outputs": [],
      "stateMutability": "nonpayable",
      "type": "function"
    },
    {
      "inputs": [],
      "name": "veWom",
      "outputs": [
        {
          "internalType": "contract IVe",
          "name": "",
          "type": "address"
        }
      ],
      "stateMutability": "view",
      "type": "function"
    },
    {
      "inputs": [
        {
          "internalType": "contract IERC20[]",
          "name": "_lpVote",
          "type": "address[]"
        },
        {
          "internalType": "int256[]",
          "name": "_deltas",
          "type": "int256[]"
        }
      ],
      "name": "vote",
      "outputs": [
        {
          "internalType": "uint256[][]",
          "name": "bribeRewards",
          "type": "uint256[][]"
        }
      ],
      "stateMutability": "nonpayable",
      "type": "function"
    },
    {
      "inputs": [],
      "name": "voteIndex",
      "outputs": [
        {
          "internalType": "uint104",
          "name": "",
          "type": "uint104"
        }
      ],
      "stateMutability": "view",
      "type": "function"
    },
    {
      "inputs": [
        {
          "internalType": "address",
          "name": "",
          "type": "address"
        },
        {
          "internalType": "contract IERC20",
          "name": "",
          "type": "address"
        }
      ],
      "name": "votes",
      "outputs": [
        {
          "internalType": "uint256",
          "name": "",
          "type": "uint256"
        }
      ],
      "stateMutability": "view",
      "type": "function"
    },
    {
      "inputs": [
        {
          "internalType": "contract IERC20",
          "name": "",
          "type": "address"
        }
      ],
      "name": "weights",
      "outputs": [
        {
          "internalType": "uint128",
          "name": "allocPoint",
          "type": "uint128"
        },
        {
          "internalType": "uint128",
          "name": "voteWeight",
          "type": "uint128"
        }
      ],
      "stateMutability": "view",
      "type": "function"
    },
    {
      "inputs": [],
      "name": "wom",
      "outputs": [
        {
          "internalType": "contract IERC20",
          "name": "",
          "type": "address"
        }
      ],
      "stateMutability": "view",
      "type": "function"
    },
    {
      "inputs": [],
      "name": "womPerSec",
      "outputs": [
        {
          "internalType": "uint88",
          "name": "",
          "type": "uint88"
        }
      ],
      "stateMutability": "view",
      "type": "function"
    }
  ],
  "transactionHash": "0x228f0b7e4d120881ca43734b536f240e540cbf286d99c2ff579dcf7d7bf4cfd1",
  "args": [],
  "solcInputHash": "66139c59c64e54fe5e689060f1c158f4",
  "bytecode": "0x6080806040523461001657612e5d908161001c8239f35b600080fdfe6080604052600436101561001257600080fd5b6000803560e01c806308a931dd1461217957806311ced5591461214957806317caf6f1146121285780631bb5e2dc146120ce578063237e6d6414612046578063240f977414611ef157806325b3ec6414611eb45780632efce57b146118995780633e582ae61461187257806347c35772146118275780635844398a146117f7578063595c6a67146117295780635c975abb14611706578063622f83c91461163157806363453ae114611310578063715018a61461129557806376a67a51146111c0578063793c19461461103a5780637c2e51ce14610ce75780638a81372f14610cb95780638da5cb5b14610c9257806396c82e5714610c62578063a693686f14610985578063a7555b5114610956578063a7cac84614610904578063a8c5d95a146108c9578063abfef111146108a4578063ad91fdf4146107d5578063af3d104f1461070a578063b6da5b2014610688578063b9ee8f6614610663578063c23ead3214610645578063c5a6222e1461061e578063c6ddb64214610573578063cad1b90614610523578063eab4b036146103dd578063f13e5507146102a1578063f2fde38b146101f15763f8077fae146101ca57600080fd5b346101ee57806003193601126101ee57602064ffffffffff60cc5416604051908152f35b80fd5b50346101ee5760206003193601126101ee5761020b61225b565b6001600160a01b036102228160335416331461236b565b81161561023757610232906123b6565b604051f35b608460405162461bcd60e51b815260206004820152602660248201527f4f776e61626c653a206e6577206f776e657220697320746865207a65726f206160448201527f64647265737300000000000000000000000000000000000000000000000000006064820152fd5b50346101ee57806003193601126101ee576001600160a01b036102c98160335416331461236b565b60c95416816040517f70a082310000000000000000000000000000000000000000000000000000000081523060048201526020928382602481845afa801561039857849284916103a3575b506040517fa9059cbb000000000000000000000000000000000000000000000000000000008152336004820152602481019190915292839190829081604481015b03925af180156103985761036a575b82604051f35b8161038992903d10610391575b61038181836124cc565b81019061278c565b503880610364565b503d610377565b6040513d85823e3d90fd5b9350509082813d83116103d6575b6103bb81836124cc565b810103126103d157905183918391610355610314565b600080fd5b503d6103b1565b50346101ee5760406003193601126101ee5760043567ffffffffffffffff811161051f5761040f903690600401612287565b90610418612271565b61042183612525565b92845b81811061043d576040518061043987826122b8565b0390f35b6001600160a01b03908161045a6104558386896125e8565b6125f8565b16875260d1602052866003838160408420015416610484575b505061047f915061258c565b610424565b839060408320015416926024604051809581937fc031a66f000000000000000000000000000000000000000000000000000000008352891660048301525afa80156105145761047f9288916104f2575b506104df8288612710565b526104ea8187612710565b508638610473565b61050e91503d808a833e61050681836124cc565b810190612696565b386104d4565b6040513d89823e3d90fd5b5080fd5b50346101ee5760406003193601126101ee5761053d61225b565b6040610547612271565b926001600160a01b03809316815260d06020522091166000526020526020604060002054604051908152f35b50346101ee5760206003193601126101ee5760e09060406001600160a01b03918261059c61225b565b16815260d1602052209081549160ff600182015492600381600285015416930154169264ffffffffff604051956cffffffffffffffffffffffffff80821688528160681c16602088015260d01c1660408601526fffffffffffffffffffffffffffffffff8116606086015260801c161515608084015260a083015260c0820152f35b50346101ee57806003193601126101ee5760206001600160a01b0360c95416604051908152f35b50346101ee57806003193601126101ee57602060cb54604051908152f35b50346101ee57806003193601126101ee57602064ffffffffff60ce5416604051908152f35b50346101ee5760406003193601126101ee576106a261225b565b6106aa612271565b906001600160a01b0380916106c48260335416331461236b565b6106cd81612724565b16835260d16020526003604084200191167fffffffffffffffffffffffff0000000000000000000000000000000000000000825416179055604051f35b50346101ee57806003193601126101ee576107316001600160a01b0360335416331461236b565b60975460ff811615610791577fffffffffffffffffffffffffffffffffffffffffffffffffffffffffffffff00166097557f5db9ee0a495bf2e6ff9c91a7834c1ba4fdd244a5e8aa4e537bd38aeae4b073aa6020604051338152a1604051f35b606460405162461bcd60e51b815260206004820152601460248201527f5061757361626c653a206e6f74207061757365640000000000000000000000006044820152fd5b50346101ee5760206003193601126101ee5760043561ffff808216908183036103d15761080e6001600160a01b0360335416331461236b565b6103e882116108a0577f9f8465a6a057e31abb34517007c2dfa96e65b800c2f0840da63459f3269b743c916040916108446127a4565b61084d85612978565b8351928352166020820152a17fffffffffffffffffffffffffffff0000ffffffffffffffffffffffffffffffff71ffff0000000000000000000000000000000060ce549260801b1691161760ce55604051f35b8380fd5b50346101ee57806003193601126101ee57602061ffff60ce5460801c16604051908152f35b50346101ee5760206003193601126101ee5760209060406001600160a01b0391826108f261225b565b16815260d28452205416604051908152f35b50346101ee5760206003193601126101ee57604080916001600160a01b0361092a61225b565b16815260cf60205220548151906fffffffffffffffffffffffffffffffff8116825260801c6020820152f35b50346101ee57806003193601126101ee57602061ffff61097c8160ce5460801c16612978565b16604051908152f35b50346101ee5760606003193601126101ee5761099f61225b565b6109a7612271565b90604435906001600160a01b03928383168093036103d15783906109d08260335416331461236b565b169182855260209160d1835260ff600160408820015460801c16610c1e578416938415610c1a578315610c1a5783865260d18352600260408720015416610bb15790610aff9183865260d18252600160408720017001000000000000000000000000000000007fffffffffffffffffffffffffffffff00ffffffffffffffffffffffffffffffff825416179055600260408720017fffffffffffffffffffffffff0000000000000000000000000000000000000000958682541617905560036040872001908582541617905560d1610aa6612cd9565b918487525260408520907fff0000000000ffffffffffffffffffffffffffffffffffffffffffffffffffff7effffffffff000000000000000000000000000000000000000000000000000083549260d01b169116179055565b60cb5468010000000000000000811015610b8457600181018060cb55811015610b555760cb6000527fa7ce836d032b2bf62b7e2097a8e0a6d8aeb35405ad15271e96d3b0188a1d06fb0191825416179055604051f35b7f4e487b7100000000000000000000000000000000000000000000000000000000600052603260045260246000fd5b6024847f4e487b710000000000000000000000000000000000000000000000000000000081526041600452fd5b6084826040519062461bcd60e51b825260048201526024808201527f566f7465723a2067617567654d616e6167657220697320616c7265616479206560448201527f78697374000000000000000000000000000000000000000000000000000000006064820152fd5b8580fd5b6064836040519062461bcd60e51b82526004820152601460248201527f766f7465723a20616c72656164792061646465640000000000000000000000006044820152fd5b50346101ee57806003193601126101ee5760206fffffffffffffffffffffffffffffffff60cd5416604051908152f35b50346101ee57806003193601126101ee5760206001600160a01b0360335416604051908152f35b50346101ee57806003193601126101ee5760206affffffffffffffffffffff60ce5460281c16604051908152f35b50346101ee5760c06003193601126101ee57610d0161225b565b602435906001600160a01b03918281168091036108a057604435906affffffffffffffffffffff821682036103d15760643564ffffffffff918282168092036103d1576084359283168093036103d15760a43561ffff8116968782036103d15788549660ff8860081c168060001461103057303b155b15610fc657159788610f98575b50428610610f545716968715610f10578215610ecc576103e810610ec85771ffff000000000000000000000000000000006fffffffffffffffffffffff0000000000917fffffffffffffffffffffffffffff00000000000000000000000000000000000093610e0260ff8c5460081c16610dfd81612418565b612418565b610e0b336123b6565b8a5499610e1d60ff8c60081c16612418565b60016065557fffffffffffffffffffffffff0000000000000000000000000000000000000000908160c954161760c95560ca54161760ca5560ce54947fffffffffffffffffffffffffffffffffffffffffffffffffffffff000000000060cc54161760cc5560801b169460281b16911617171760ce55610e9e575b50604051f35b7fffffffffffffffffffffffffffffffffffffffffffffffffffffffffffff00ff16815538610e98565b8780fd5b606460405162461bcd60e51b815260206004820152601c60248201527f7665576f6d20616464726573732063616e6e6f74206265207a65726f000000006044820152fd5b606460405162461bcd60e51b815260206004820152601a60248201527f776f6d20616464726573732063616e6e6f74206265207a65726f0000000000006044820152fd5b606460405162461bcd60e51b815260206004820152601c60248201527f696e76616c6964205f666972737445706f6368537461727454696d65000000006044820152fd5b7fffffffffffffffffffffffffffffffffffffffffffffffffffffffffffff000016610101178a5538610d84565b608460405162461bcd60e51b815260206004820152602e60248201527f496e697469616c697a61626c653a20636f6e747261637420697320616c72656160448201527f647920696e697469616c697a65640000000000000000000000000000000000006064820152fd5b60ff891615610d77565b50346101ee5760206003193601126101ee5761105461225b565b6001600160a01b0361106b8160335416331461236b565b811680835260d160205260ff600160408520015460801c1661117c5761109361113792612724565b61109b6127a4565b60cc805491845260d16020526040842080547fffffffffffffffffffffffffffffffffffffff000000000000000000000000008116602894851c6cffffffffffffffffffffffffff16908117835592547fffffffffffff00000000000000000000000000000000000000000000000000009091169092179190921c79ffffffffffffffffffffffffff0000000000000000000000000016179055565b600160408220017001000000000000000000000000000000007fffffffffffffffffffffffffffffff00ffffffffffffffffffffffffffffffff825416179055604051f35b606460405162461bcd60e51b815260206004820152601160248201527f766f7465723a206e6f74207061757365640000000000000000000000000000006044820152fd5b50346101ee5760206003193601126101ee576111da61225b565b6001600160a01b036111f18160335416331461236b565b81169081835260d160205260ff600160408520015460801c16156112515761121890612724565b815260d1602052600160408220017fffffffffffffffffffffffffffffff00ffffffffffffffffffffffffffffffff8154169055604051f35b606460405162461bcd60e51b815260206004820152601660248201527f766f7465723a206e6f742077686974656c6973746564000000000000000000006044820152fd5b50346101ee57806003193601126101ee576033547fffffffffffffffffffffffff00000000000000000000000000000000000000006001600160a01b038216916112e033841461236b565b166033556000604051917f8be0079c531659141344cd1fd0a4f28419497f9722a3daafe3b4186f6b6457e08284a3f35b50346101ee5760208060031936011261051f578161132c61225b565b9161133683612724565b61133e6127a4565b61134783612867565b6001600160a01b0380841680845260d183526fffffffffffffffffffffffffffffffff6001604086200154169283151580611619575b80611597575b61138e575b84604051f35b816114cb92865260d18252600160408720017fffffffffffffffffffffffffffffffff00000000000000000000000000000000815416905561142c6113d1612cd9565b82885260d1845260408820907fff0000000000ffffffffffffffffffffffffffffffffffffffffffffffffffff7effffffffff000000000000000000000000000000000000000000000000000083549260d01b169116179055565b604080516001600160a01b0389168152602081018790527fe8b160e373db99a103e0a2abfa029b9c3fc8b328984a1ead8a65ae68ae646db79190a181858560c9541683895260d1835286600260408b20015416896040518098819582947fa9059cbb00000000000000000000000000000000000000000000000000000000845260048401602090939291936001600160a01b0360408201951681520152565b03925af192831561158c5760d19361156f575b50855252600260408420015416803b1561156b576040517fb66503cf0000000000000000000000000000000000000000000000000000000081526001600160a01b0394909416600485015260248401919091528290604490829084905af1801561156057611551575b8181808080611388565b61155a90612489565b38611547565b6040513d84823e3d90fd5b8280fd5b61158590833d85116103915761038181836124cc565b50386114de565b6040513d88823e3d90fd5b506024818460c95416604051928380927f70a082310000000000000000000000000000000000000000000000000000000082523060048301525afa801561158c57859187916115e8575b5011611383565b809250838092503d8311611612575b61160181836124cc565b81010312610c1a57849051386115e1565b503d6115f7565b5064ffffffffff604086205460d01c1642101561137d565b50346101ee5760406003193601126101ee5761164b61225b565b6fffffffffffffffffffffffffffffffff9060243582811691828203611702576116e1936001600160a01b036116868160335416331461236b565b61168e6127a4565b61169783612867565b60cd5492169283875260cf6020527fffffffffffffffffffffffffffffffff000000000000000000000000000000009586916116dc8460408b2054168660801c612644565b612671565b60801b1691161760cd55835260cf6020526040832091825416179055604051f35b8480fd5b50346101ee57806003193601126101ee57602060ff609754166040519015158152f35b50346101ee57806003193601126101ee576117506001600160a01b0360335416331461236b565b60975460ff81166117b3577fffffffffffffffffffffffffffffffffffffffffffffffffffffffffffffff0060019116176097557f62e78cea01bee320cd4e420270b5ea74000d11b0c9f74754ebdbfc544b05a2586020604051338152a1604051f35b606460405162461bcd60e51b815260206004820152601060248201527f5061757361626c653a20706175736564000000000000000000000000000000006044820152fd5b50346101ee57806003193601126101ee5760206cffffffffffffffffffffffffff60cc5460901c16604051908152f35b50346101ee5760406003193601126101ee57604060209161184661225b565b61184e612271565b6001600160a01b03918216835260d085528383209116825283522054604051908152f35b50346101ee57806003193601126101ee5760206001600160a01b0360ca5416604051908152f35b50346101ee5760406003193601126101ee5767ffffffffffffffff60043581811161156b576118cc903690600401612287565b916024359081116108a0576118e5903690600401612287565b9091600260655414611e70576002606555818403611e2c579184926119086127a4565b839161191386612525565b9385965b8088106119a257868681876001600160a01b0360ca5416803b1561156b576044839260405194859384927fb0dfaa7a00000000000000000000000000000000000000000000000000000000845233600485015260248401525af18015610398576104399350611993575b506001606555604051918291826122b8565b61199c90612489565b82611981565b6119b06104558983876125e8565b6119b981612724565b6119c48984866125e8565b35986001600160a01b038216895260cf602052604089205460801c8a611af1575b899a50988098996001600160a01b038416825260d160205260036001600160a01b038160408520015416611a2b575b505050611a21915061258c565b9750959495611917565b6001600160a01b0390604084200154169333835260d06020526001600160a01b036040842091168352602052606460408320548360405196879485937f65d9aa4a000000000000000000000000000000000000000000000000000000008552336004860152602485015260448401525af18015611ae657611a21928991611acc575b50611ab8828b612710565b52611ac3818a612710565b50878b80611a14565b611ae091503d808b833e61050681836124cc565b8b611aad565b6040513d8a823e3d90fd5b96611afb83612867565b898b1315611d1257338a5260d060205260408a206001600160a01b0384168b5260205260408a20611b2d8c8254612665565b9055611b9a611b44611b3f8d8b612665565b612d68565b6001600160a01b0385168c5260cf60205260408c20906fffffffffffffffffffffffffffffffff7fffffffffffffffffffffffffffffffff0000000000000000000000000000000083549260801b169116179055565b611ba38b612d68565b60cd907fffffffffffffffffffffffffffffffff00000000000000000000000000000000825491611be76fffffffffffffffffffffffffffffffff91828516612671565b1691161790555b898112817f7fffffffffffffffffffffffffffffffffffffffffffffffffffffffffffffff038c13811516611ce557817f8000000000000000000000000000000000000000000000000000000000000000038c1216611cb85798809a81999a019733825260d0602052604082206001600160a01b03851683526020527f92aede651123b9757b46a79e4d37916de5f58649f7ef39380b0ad5d7273565f360606040842054604051903382526001600160a01b03881660208301526040820152a190509897986119e5565b60248a7f4e487b710000000000000000000000000000000000000000000000000000000081526011600452fd5b60248b7f4e487b710000000000000000000000000000000000000000000000000000000081526011600452fd5b338a5260d060205260408a206001600160a01b0384168b5260205260408a2054611d3b8c61260c565b11611de857611d8d611b44611b3f611d878e8e611d806040611d5c8461260c565b9233815260d06020528181206001600160a01b038d16825260205220918254612639565b905561260c565b8b612639565b611d99611b3f8c61260c565b60cd907fffffffffffffffffffffffffffffffff00000000000000000000000000000000825491611ddd6fffffffffffffffffffffffffffffffff91828516612644565b169116179055611bee565b606460405162461bcd60e51b815260206004820152601560248201527f766f7465723a20766f746520756e646572666c6f7700000000000000000000006044820152fd5b606460405162461bcd60e51b815260206004820152601d60248201527f766f7465723a206172726179206c656e677468206e6f7420657175616c0000006044820152fd5b606460405162461bcd60e51b815260206004820152601f60248201527f5265656e7472616e637947756172643a207265656e7472616e742063616c6c006044820152fd5b50346101ee5760206003193601126101ee576020611ee9611ed361225b565b611edb612a2c565b611ee3612af6565b91612bd9565b604051908152f35b50346101ee5760208060031936011261051f5760043567ffffffffffffffff811161156b57611f24903690600401612287565b91611f2e83612525565b92845b818110611f46576040518061043987826122b8565b611f546104558284876125e8565b90611f5e82612724565b6001600160a01b038092169182885260d185526003818160408b20015416611f92575b5050611f8d915061258c565b611f31565b604089200154169133885260d0855260408820908852845286604081205460cf86526064604083205460801c918360405196879485937f65d9aa4a000000000000000000000000000000000000000000000000000000008552336004860152602485015260448401525af1801561051457611f8d92889161202c575b506120198288612710565b526120248187612710565b503880611f81565b61204091503d808a833e61050681836124cc565b3861200e565b50346101ee5760406003193601126101ee5761206061225b565b612068612271565b6001600160a01b0380916120818260335416331461236b565b169182156108a05761209281612724565b16825260d160205260026040832001907fffffffffffffffffffffffff0000000000000000000000000000000000000000825416179055604051f35b50346101ee5760206003193601126101ee5760043560cb5481101561051f576001600160a01b039060cb602093527fa7ce836d032b2bf62b7e2097a8e0a6d8aeb35405ad15271e96d3b0188a1d06fb015416604051908152f35b50346101ee57806003193601126101ee57602060cd5460801c604051908152f35b50346101ee57806003193601126101ee5760206cffffffffffffffffffffffffff60cc5460281c16604051908152f35b50346101ee5760206003193601126101ee576004356affffffffffffffffffffff811680820361156b5769021e19e0c9bab2400000906121c56001600160a01b0360335416331461236b565b11612217576121d26127a4565b7fffffffffffffffffffffffffffffffff0000000000000000000000ffffffffff6fffffffffffffffffffffff000000000060ce549260281b1691161760ce55604051f35b606460405162461bcd60e51b815260206004820152601460248201527f726577617264207261746520746f6f20686967680000000000000000000000006044820152fd5b600435906001600160a01b03821682036103d157565b602435906001600160a01b03821682036103d157565b9181601f840112156103d15782359167ffffffffffffffff83116103d1576020808501948460051b0101116103d157565b6020808201818352835180915260408301918060408360051b860101950192600090815b8483106122ed575050505050505090565b909192877fffffffffffffffffffffffffffffffffffffffffffffffffffffffffffffffc088839798999b9a0301845287519082808351928381520192019084905b8082106123525750505090806001929801930193019194939290979596976122dc565b919380600192948651815201940192018793929161232f565b1561237257565b606460405162461bcd60e51b815260206004820152602060248201527f4f776e61626c653a2063616c6c6572206973206e6f7420746865206f776e65726044820152fd5b603354906001600160a01b0380911691827fffffffffffffffffffffffff0000000000000000000000000000000000000000821617603355167f8be0079c531659141344cd1fd0a4f28419497f9722a3daafe3b4186f6b6457e06000604051a3565b1561241f57565b608460405162461bcd60e51b815260206004820152602b60248201527f496e697469616c697a61626c653a20636f6e7472616374206973206e6f74206960448201527f6e697469616c697a696e670000000000000000000000000000000000000000006064820152fd5b67ffffffffffffffff811161249d57604052565b7f4e487b7100000000000000000000000000000000000000000000000000000000600052604160045260246000fd5b90601f7fffffffffffffffffffffffffffffffffffffffffffffffffffffffffffffffe0910116810190811067ffffffffffffffff82111761249d57604052565b67ffffffffffffffff811161249d5760051b60200190565b9061252f8261250d565b61253c60405191826124cc565b8281527fffffffffffffffffffffffffffffffffffffffffffffffffffffffffffffffe061256a829461250d565b019060005b82811061257b57505050565b80606060208093850101520161256f565b7fffffffffffffffffffffffffffffffffffffffffffffffffffffffffffffffff81146125b95760010190565b7f4e487b7100000000000000000000000000000000000000000000000000000000600052601160045260246000fd5b9190811015610b555760051b0190565b356001600160a01b03811681036103d15790565b7f800000000000000000000000000000000000000000000000000000000000000081146125b95760000390565b8181106125b9570390565b6fffffffffffffffffffffffffffffffff91821691168181106125b9570390565b811981116125b9570190565b906fffffffffffffffffffffffffffffffff80809316911680920381116125b9570190565b60209081818403126103d15780519067ffffffffffffffff82116103d157019180601f840112156103d15782516126cc8161250d565b936126da60405195866124cc565b818552838086019260051b8201019283116103d1578301905b828210612701575050505090565b815181529083019083016126f3565b8051821015610b555760209160051b010190565b6001600160a01b0380911660005260d1602052600260406000200154161561274857565b606460405162461bcd60e51b815260206004820152601d60248201527f566f7465723a2067617567654d616e61676572206e6f742065786973740000006044820152fd5b908160209103126103d1575180151581036103d15790565b60cc5464ffffffffff8082164211156128635771ffffffffffffffffffffffffff00000000006127da6127d5612a2c565b612dc9565b60281b16807fffffffffffffffffffffffffffff00000000000000000000000000ffffffffff84161760cc557fff000000000000000000000000000000000000000000000000000000000000007effffffffffffffffffffffffff0000000000000000000000000000000000006128526127d5612af6565b60901b16924216931617171760cc55565b5050565b6129769060cc54906001600160a01b0361289e611b3f6cffffffffffffffffffffffffff9485808260901c169160281c1685612bd9565b911660005260d16020526fffffffffffffffffffffffffffffffff600160406000200191167fffffffffffffffffffffffffffffffff000000000000000000000000000000008254161790558060cc5460281c166040600020907fffffffffffffffffffffffffffffffffffffff0000000000000000000000000082541617905560cc5460901c166040600020907fffffffffffff00000000000000000000000000ffffffffffffffffffffffffff79ffffffffffffffffffffffffff0000000000000000000000000083549260681b169116179055565b565b61ffff166103e88181106125b9570390565b64e8d4a5100090807fffffffffffffffffffffffffffffffffffffffffffffffffffffffffffffffff048211811515166125b9570290565b807fffffffffffffffffffffffffffffffffffffffffffffffffffffffffffffffff048211811515166125b9570290565b81156129fd570490565b7f4e487b7100000000000000000000000000000000000000000000000000000000600052601260045260246000fd5b60cc5464ffffffffff811690814211801590612ae9575b612ad2576cffffffffffffffffffffffffff6103e8612abc612a9f612a9a612a6e612ac79742612639565b61ffff612a8f60ce54926affffffffffffffffffffff8460281c16906129c2565b9160801c16906129c2565b61298a565b60cd5460801c670de0b6b3a7640000808210612aca5750906129f3565b049160281c16612665565b90565b9050906129f3565b6cffffffffffffffffffffffffff915060281c1690565b5060cd5460801c15612a43565b60cc5464ffffffffff811690814211801590612bbd575b612ba6576cffffffffffffffffffffffffff6103e8612b9b612b6f612a9a612b38612ac79742612639565b612b5660ce54916affffffffffffffffffffff8360281c16906129c2565b90612b6861ffff809260801c16612978565b16906129c2565b60cd546fffffffffffffffffffffffffffffffff16670de0b6b3a7640000808210612aca5750906129f3565b049160901c16612665565b6cffffffffffffffffffffffffff915060901c1690565b506fffffffffffffffffffffffffffffffff60cd541615612b0d565b6001600160a01b03169060009282845260d1602052604060ff6001828720015460801c16158015612ccd575b612cad57906001612ca89392612ac796612c336cffffffffffffffffffffffffff9586848420541690612639565b9387825260cf602052612c96612c8264e8d4a510009283612c6a6fffffffffffffffffffffffffffffffff998a89892054166129c2565b04988b865260d16020528686205460681c1690612639565b89845260cf6020528484205460801c6129c2565b0496815260d160205220015416612665565b612665565b915050600191506fffffffffffffffffffffffffffffffff922001541690565b5060ff60975416612c05565b64ffffffffff8060ce5416804210612d635762093a809081612cfb8242612639565b047ffffffffffffffffffffffffffffffffffffffffffffffffffffffffffffffffe81116125b95760010191827fffffffffffffffffffffffffffffffffffffffffffffffffffffffffffffffff048111831515166125b957612d5f920290612665565b1690565b905090565b6fffffffffffffffffffffffffffffffff90818111612d85571690565b606460405162461bcd60e51b815260206004820152601060248201527f75696e74313238206f766572666c6f77000000000000000000000000000000006044820152fd5b6cffffffffffffffffffffffffff90818111612de3571690565b606460405162461bcd60e51b815260206004820152601060248201527f75696e74313034206f766572666c6f77000000000000000000000000000000006044820152fdfea2646970667358221220a55b184465e176523dad689f5f941775fe9d156483af495e835619e643890da064736f6c634300080f0033",
  "devdoc": {
    "kind": "dev",
    "methods": {
      "claimBribes(address[])": {
        "details": "This function looks safe from re-entrancy attack"
      },
      "distribute(address)": {
        "details": "This function looks safe from re-entrancy attack"
      },
      "owner()": {
        "details": "Returns the address of the current owner."
      },
      "paused()": {
        "details": "Returns true if the contract is paused, and false otherwise."
      },
      "renounceOwnership()": {
        "details": "Leaves the contract without owner. It will not be possible to call `onlyOwner` functions anymore. Can only be called by the current owner. NOTE: Renouncing ownership will leave the contract without an owner, thereby removing any functionality that is only available to the owner."
      },
      "transferOwnership(address)": {
        "details": "Transfers ownership of the contract to a new account (`newOwner`). Can only be called by the current owner."
      },
      "vote(address[],int256[])": {
        "params": {
          "_deltas": "change of vote for each LP tokens",
          "_lpVote": "address to LP tokens to vote"
        }
      }
    },
    "version": 1
  },
  "userdoc": {
    "kind": "user",
    "methods": {
      "add(address,address,address)": {
        "notice": "Add LP token into the Voter"
      },
      "claimBribes(address[])": {
        "notice": "Claim bribes for LP tokens"
      },
      "emergencyWomWithdraw()": {
        "notice": "In case we need to manually migrate WOM funds from Voter Sends all remaining wom from the contract to the owner"
      },
      "getUserVotes(address,address)": {
        "notice": "getter function to return vote of a LP token for a user"
      },
      "getVotePartition()": {
        "notice": "Read-only functions"
      },
      "lpTokenLength()": {
        "notice": "returns LP tokens length"
      },
      "pause(address)": {
        "notice": "Pause emission of WOM tokens. Un-distributed rewards are forfeited Users can still vote/unvote and receive bribes."
      },
      "pauseAll()": {
        "notice": "Pause emission of WOM tokens for all assets. Un-distributed rewards are forfeited Users can still vote/unvote and receive bribes."
      },
      "pendingBribes(address[],address)": {
        "notice": "Get pending bribes for LP tokens"
      },
      "pendingWom(address)": {
        "notice": "Amount of pending WOM for the LP token"
      },
      "resume(address)": {
        "notice": "Resume emission of WOM tokens"
      },
      "resumeAll()": {
        "notice": "Resume emission of WOM tokens for all assets"
      },
      "setBasePartition(uint16)": {
        "notice": "update the base and vote partition"
      },
      "setBribe(address,address)": {
        "notice": "get bribe address for LP token"
      },
      "setGauge(address,address)": {
        "notice": "get gaugeManager address for LP token"
      },
      "vote(address[],int256[])": {
        "notice": "Vote and unvote WOM emission for LP tokens. User can vote/unvote a un-whitelisted pool. But no WOM will be emitted. Bribes are also distributed by the Bribe contract. Amount of vote should be checked by veWom.vote(). This can also used to distribute bribes when _deltas are set to 0"
      }
    },
    "notice": "Voter can handle gauge voting. WOM rewards are distributed to different gauge (MasterWombat->LpToken pair) according the allocation & voting weight. Real-time WOM accumulation and epoch-based WOM distribution Voting gauges accumulates WOM seconds by seconds according to the voting weight. When a user applies new allocation for their votes, accumulation rate of WOM of the gauge updates immediately. However, accumulated WOM is distributed to LP in the next epoch at an even rate. 1 epoch last for 7 days. Base Emission (basePartition / 1000) of WOM emissions is distributed to gauges according to allocation by `owner`. Other WOM emissions are deteremined by `votes` of veWOM holders. Flow to distribute reward: 1. At the beginning of MasterWombat.updateFactor/deposit/withdraw, Voter.distribute(lpToken) is called 2. WOM index (`baseIndex` and `voteIndex`) is updated and corresponding WOM accumulated over this period (`GaugeInfo.claimable`)    is updated. 3. At the beginning of each epoch, `GaugeInfo.claimable` amount of WOM is sent to respective gauge    via MasterWombat.notifyRewardAmount(IERC20 _lpToken, uint256 _amount) 4. MasterWombat will update the corresponding `pool.rewardRate` and `pool.periodFinish` Bribe Bribe is natively supported by `Voter`. But Only whitelisted gauge can receive bribe rewards. Flow of bribe: 1. When users vote/unvote, `bribe.onVote` is called. The bribe contract works similar to `MultiRewarderPerSec`. Note: This should also works with boosted pool. But it doesn't work with interest rate model Note 2: Please refer to the comment of MasterWombatV3.notifyRewardAmount for front-running risk",
    "version": 1
  },
  "storageLayout": {
    "storage": [
      {
        "astId": 130,
        "contract": "contracts/wombat-governance/gauge/Voter.sol:Voter",
        "label": "_initialized",
        "offset": 0,
        "slot": "0",
        "type": "t_bool"
      },
      {
        "astId": 133,
        "contract": "contracts/wombat-governance/gauge/Voter.sol:Voter",
        "label": "_initializing",
        "offset": 1,
        "slot": "0",
        "type": "t_bool"
      },
      {
        "astId": 651,
        "contract": "contracts/wombat-governance/gauge/Voter.sol:Voter",
        "label": "__gap",
        "offset": 0,
        "slot": "1",
        "type": "t_array(t_uint256)50_storage"
      },
      {
        "astId": 10,
        "contract": "contracts/wombat-governance/gauge/Voter.sol:Voter",
        "label": "_owner",
        "offset": 0,
        "slot": "51",
        "type": "t_address"
      },
      {
        "astId": 122,
        "contract": "contracts/wombat-governance/gauge/Voter.sol:Voter",
        "label": "__gap",
        "offset": 0,
        "slot": "52",
        "type": "t_array(t_uint256)49_storage"
      },
      {
        "astId": 322,
        "contract": "contracts/wombat-governance/gauge/Voter.sol:Voter",
        "label": "_status",
        "offset": 0,
        "slot": "101",
        "type": "t_uint256"
      },
      {
        "astId": 366,
        "contract": "contracts/wombat-governance/gauge/Voter.sol:Voter",
        "label": "__gap",
        "offset": 0,
        "slot": "102",
        "type": "t_array(t_uint256)49_storage"
      },
      {
        "astId": 218,
        "contract": "contracts/wombat-governance/gauge/Voter.sol:Voter",
        "label": "_paused",
        "offset": 0,
        "slot": "151",
        "type": "t_bool"
      },
      {
        "astId": 307,
        "contract": "contracts/wombat-governance/gauge/Voter.sol:Voter",
        "label": "__gap",
        "offset": 0,
        "slot": "152",
        "type": "t_array(t_uint256)49_storage"
      },
      {
        "astId": 17585,
        "contract": "contracts/wombat-governance/gauge/Voter.sol:Voter",
        "label": "wom",
        "offset": 0,
        "slot": "201",
        "type": "t_contract(IERC20)1420"
      },
      {
        "astId": 17588,
        "contract": "contracts/wombat-governance/gauge/Voter.sol:Voter",
        "label": "veWom",
        "offset": 0,
        "slot": "202",
        "type": "t_contract(IVe)17545"
      },
      {
        "astId": 17592,
        "contract": "contracts/wombat-governance/gauge/Voter.sol:Voter",
        "label": "lpTokens",
        "offset": 0,
        "slot": "203",
        "type": "t_array(t_contract(IERC20)1420)dyn_storage"
      },
      {
        "astId": 17594,
        "contract": "contracts/wombat-governance/gauge/Voter.sol:Voter",
        "label": "lastRewardTimestamp",
        "offset": 0,
        "slot": "204",
        "type": "t_uint40"
      },
      {
        "astId": 17596,
        "contract": "contracts/wombat-governance/gauge/Voter.sol:Voter",
        "label": "baseIndex",
        "offset": 5,
        "slot": "204",
        "type": "t_uint104"
      },
      {
        "astId": 17598,
        "contract": "contracts/wombat-governance/gauge/Voter.sol:Voter",
        "label": "voteIndex",
        "offset": 18,
        "slot": "204",
        "type": "t_uint104"
      },
      {
        "astId": 17600,
        "contract": "contracts/wombat-governance/gauge/Voter.sol:Voter",
        "label": "totalWeight",
        "offset": 0,
        "slot": "205",
        "type": "t_uint128"
      },
      {
        "astId": 17602,
        "contract": "contracts/wombat-governance/gauge/Voter.sol:Voter",
        "label": "totalAllocPoint",
        "offset": 16,
        "slot": "205",
        "type": "t_uint128"
      },
      {
        "astId": 17604,
        "contract": "contracts/wombat-governance/gauge/Voter.sol:Voter",
        "label": "firstEpochStartTime",
        "offset": 0,
        "slot": "206",
        "type": "t_uint40"
      },
      {
        "astId": 17606,
        "contract": "contracts/wombat-governance/gauge/Voter.sol:Voter",
        "label": "womPerSec",
        "offset": 5,
        "slot": "206",
        "type": "t_uint88"
      },
      {
        "astId": 17608,
        "contract": "contracts/wombat-governance/gauge/Voter.sol:Voter",
        "label": "basePartition",
        "offset": 16,
        "slot": "206",
        "type": "t_uint16"
      },
      {
        "astId": 17614,
        "contract": "contracts/wombat-governance/gauge/Voter.sol:Voter",
        "label": "weights",
        "offset": 0,
        "slot": "207",
        "type": "t_mapping(t_contract(IERC20)1420,t_struct(GaugeWeight)17576_storage)"
      },
      {
        "astId": 17621,
        "contract": "contracts/wombat-governance/gauge/Voter.sol:Voter",
        "label": "votes",
        "offset": 0,
        "slot": "208",
        "type": "t_mapping(t_address,t_mapping(t_contract(IERC20)1420,t_uint256))"
      },
      {
        "astId": 17627,
        "contract": "contracts/wombat-governance/gauge/Voter.sol:Voter",
        "label": "infos",
        "offset": 0,
        "slot": "209",
        "type": "t_mapping(t_contract(IERC20)1420,t_struct(GaugeInfo)17571_storage)"
      },
      {
        "astId": 17632,
        "contract": "contracts/wombat-governance/gauge/Voter.sol:Voter",
        "label": "bribes",
        "offset": 0,
        "slot": "210",
        "type": "t_mapping(t_contract(IERC20)1420,t_address)"
      }
    ],
    "types": {
      "t_address": {
        "encoding": "inplace",
        "label": "address",
        "numberOfBytes": "20"
      },
      "t_array(t_contract(IERC20)1420)dyn_storage": {
        "base": "t_contract(IERC20)1420",
        "encoding": "dynamic_array",
        "label": "contract IERC20[]",
        "numberOfBytes": "32"
      },
      "t_array(t_uint256)49_storage": {
        "base": "t_uint256",
        "encoding": "inplace",
        "label": "uint256[49]",
        "numberOfBytes": "1568"
      },
      "t_array(t_uint256)50_storage": {
        "base": "t_uint256",
        "encoding": "inplace",
        "label": "uint256[50]",
        "numberOfBytes": "1600"
      },
      "t_bool": {
        "encoding": "inplace",
        "label": "bool",
        "numberOfBytes": "1"
      },
      "t_contract(IBribe)19061": {
        "encoding": "inplace",
        "label": "contract IBribe",
        "numberOfBytes": "20"
      },
      "t_contract(IERC20)1420": {
        "encoding": "inplace",
        "label": "contract IERC20",
        "numberOfBytes": "20"
      },
      "t_contract(IGauge)17537": {
        "encoding": "inplace",
        "label": "contract IGauge",
        "numberOfBytes": "20"
      },
      "t_contract(IVe)17545": {
        "encoding": "inplace",
        "label": "contract IVe",
        "numberOfBytes": "20"
      },
      "t_mapping(t_address,t_mapping(t_contract(IERC20)1420,t_uint256))": {
        "encoding": "mapping",
        "key": "t_address",
        "label": "mapping(address => mapping(contract IERC20 => uint256))",
        "numberOfBytes": "32",
        "value": "t_mapping(t_contract(IERC20)1420,t_uint256)"
      },
      "t_mapping(t_contract(IERC20)1420,t_address)": {
        "encoding": "mapping",
        "key": "t_contract(IERC20)1420",
        "label": "mapping(contract IERC20 => address)",
        "numberOfBytes": "32",
        "value": "t_address"
      },
      "t_mapping(t_contract(IERC20)1420,t_struct(GaugeInfo)17571_storage)": {
        "encoding": "mapping",
        "key": "t_contract(IERC20)1420",
        "label": "mapping(contract IERC20 => struct Voter.GaugeInfo)",
        "numberOfBytes": "32",
        "value": "t_struct(GaugeInfo)17571_storage"
      },
      "t_mapping(t_contract(IERC20)1420,t_struct(GaugeWeight)17576_storage)": {
        "encoding": "mapping",
        "key": "t_contract(IERC20)1420",
        "label": "mapping(contract IERC20 => struct Voter.GaugeWeight)",
        "numberOfBytes": "32",
        "value": "t_struct(GaugeWeight)17576_storage"
      },
      "t_mapping(t_contract(IERC20)1420,t_uint256)": {
        "encoding": "mapping",
        "key": "t_contract(IERC20)1420",
        "label": "mapping(contract IERC20 => uint256)",
        "numberOfBytes": "32",
        "value": "t_uint256"
      },
      "t_struct(GaugeInfo)17571_storage": {
        "encoding": "inplace",
        "label": "struct Voter.GaugeInfo",
        "members": [
          {
            "astId": 17556,
            "contract": "contracts/wombat-governance/gauge/Voter.sol:Voter",
            "label": "supplyBaseIndex",
            "offset": 0,
            "slot": "0",
            "type": "t_uint104"
          },
          {
            "astId": 17558,
            "contract": "contracts/wombat-governance/gauge/Voter.sol:Voter",
            "label": "supplyVoteIndex",
            "offset": 13,
            "slot": "0",
            "type": "t_uint104"
          },
          {
            "astId": 17560,
            "contract": "contracts/wombat-governance/gauge/Voter.sol:Voter",
            "label": "nextEpochStartTime",
            "offset": 26,
            "slot": "0",
            "type": "t_uint40"
          },
          {
            "astId": 17562,
            "contract": "contracts/wombat-governance/gauge/Voter.sol:Voter",
            "label": "claimable",
            "offset": 0,
            "slot": "1",
            "type": "t_uint128"
          },
          {
            "astId": 17564,
            "contract": "contracts/wombat-governance/gauge/Voter.sol:Voter",
            "label": "whitelist",
            "offset": 16,
            "slot": "1",
            "type": "t_bool"
          },
          {
            "astId": 17567,
            "contract": "contracts/wombat-governance/gauge/Voter.sol:Voter",
            "label": "gaugeManager",
            "offset": 0,
            "slot": "2",
            "type": "t_contract(IGauge)17537"
          },
          {
            "astId": 17570,
            "contract": "contracts/wombat-governance/gauge/Voter.sol:Voter",
            "label": "bribe",
            "offset": 0,
            "slot": "3",
            "type": "t_contract(IBribe)19061"
          }
        ],
        "numberOfBytes": "128"
      },
      "t_struct(GaugeWeight)17576_storage": {
        "encoding": "inplace",
        "label": "struct Voter.GaugeWeight",
        "members": [
          {
            "astId": 17573,
            "contract": "contracts/wombat-governance/gauge/Voter.sol:Voter",
            "label": "allocPoint",
            "offset": 0,
            "slot": "0",
            "type": "t_uint128"
          },
          {
            "astId": 17575,
            "contract": "contracts/wombat-governance/gauge/Voter.sol:Voter",
            "label": "voteWeight",
            "offset": 16,
            "slot": "0",
            "type": "t_uint128"
          }
        ],
        "numberOfBytes": "32"
      },
      "t_uint104": {
        "encoding": "inplace",
        "label": "uint104",
        "numberOfBytes": "13"
      },
      "t_uint128": {
        "encoding": "inplace",
        "label": "uint128",
        "numberOfBytes": "16"
      },
      "t_uint16": {
        "encoding": "inplace",
        "label": "uint16",
        "numberOfBytes": "2"
      },
      "t_uint256": {
        "encoding": "inplace",
        "label": "uint256",
        "numberOfBytes": "32"
      },
      "t_uint40": {
        "encoding": "inplace",
        "label": "uint40",
        "numberOfBytes": "5"
      },
      "t_uint88": {
        "encoding": "inplace",
        "label": "uint88",
        "numberOfBytes": "11"
      }
    }
  }
}