{
  "address": "0x50F5344d9BBCB11D4abB15e9eDEFE48A3a06302d",
  "abi": [
    {
      "anonymous": false,
      "inputs": [
        {
          "indexed": false,
          "internalType": "address",
          "name": "",
          "type": "address"
        }
      ],
      "name": "ApproveWallet",
      "type": "event"
    },
    {
      "anonymous": false,
      "inputs": [
        {
          "indexed": true,
          "internalType": "address",
          "name": "previousOwner",
          "type": "address"
        },
        {
          "indexed": true,
          "internalType": "address",
          "name": "newOwner",
          "type": "address"
        }
      ],
      "name": "OwnershipTransferred",
      "type": "event"
    },
    {
      "anonymous": false,
      "inputs": [
        {
          "indexed": false,
          "internalType": "address",
          "name": "",
          "type": "address"
        }
      ],
      "name": "RevokeWallet",
      "type": "event"
    },
    {
      "inputs": [
        {
          "internalType": "address",
          "name": "_wallet",
          "type": "address"
        }
      ],
      "name": "approveWallet",
      "outputs": [],
      "stateMutability": "nonpayable",
      "type": "function"
    },
    {
      "inputs": [
        {
          "internalType": "address",
          "name": "_wallet",
          "type": "address"
        }
      ],
      "name": "check",
      "outputs": [
        {
          "internalType": "bool",
          "name": "",
          "type": "bool"
        }
      ],
      "stateMutability": "view",
      "type": "function"
    },
    {
      "inputs": [],
      "name": "owner",
      "outputs": [
        {
          "internalType": "address",
          "name": "",
          "type": "address"
        }
      ],
      "stateMutability": "view",
      "type": "function"
    },
    {
      "inputs": [],
      "name": "renounceOwnership",
      "outputs": [],
      "stateMutability": "nonpayable",
      "type": "function"
    },
    {
      "inputs": [
        {
          "internalType": "address",
          "name": "_wallet",
          "type": "address"
        }
      ],
      "name": "revokeWallet",
      "outputs": [],
      "stateMutability": "nonpayable",
      "type": "function"
    },
    {
      "inputs": [
        {
          "internalType": "address",
          "name": "newOwner",
          "type": "address"
        }
      ],
      "name": "transferOwnership",
      "outputs": [],
      "stateMutability": "nonpayable",
      "type": "function"
    }
  ],
  "transactionHash": "0xed61c25cc272d2c7dd939b7453bd5a84bbe35bfa8a598a6b95f01088517c4418",
  "args": [],
  "solcInputHash": "665a4ae03b319d30e927d25c1cf5c501",
  "bytecode": "0x6080806040523461005b5760008054336001600160a01b0319821681178355916001600160a01b03909116907f8be0079c531659141344cd1fd0a4f28419497f9722a3daafe3b4186f6b6457e09084a361051a90816100618239f35b600080fdfe60806040526004361015610013575b600080fd5b6000803560e01c9081630fcb0ae51461008e57508063715018a614610085578063808a9d401461007c5780638da5cb5b14610073578063c23697a81461006a5763f2fde38b1461006257600080fd5b61000e61036a565b5061000e610328565b5061000e6102d5565b5061000e610230565b5061000e61018b565b3461013b5761009c3661013e565b73ffffffffffffffffffffffffffffffffffffffff906100c082845416331461047f565b16808252600160205260ff604083205416156100dd575b50604051f35b60207fc1e7aae3f3125e58cfc69ab2a872a655dbb9427614aa85b29bb5abeaca4d6a92916040842060017fffffffffffffffffffffffffffffffffffffffffffffffffffffffffffffff00825416179055604051908152a1816100d7565b80fd5b7ffffffffffffffffffffffffffffffffffffffffffffffffffffffffffffffffc602091011261000e5760043573ffffffffffffffffffffffffffffffffffffffff8116810361000e5790565b503461000e576000807ffffffffffffffffffffffffffffffffffffffffffffffffffffffffffffffffc36011261013b5780547fffffffffffffffffffffffff000000000000000000000000000000000000000073ffffffffffffffffffffffffffffffffffffffff82169161020233841461047f565b16825581604051917f8be0079c531659141344cd1fd0a4f28419497f9722a3daafe3b4186f6b6457e08284a3f35b503461000e5761023f3661013e565b73ffffffffffffffffffffffffffffffffffffffff906102648260005416331461047f565b1680600052600160205260ff6040600020541661027d57005b60207f1b676c3cc753786cb95aff57280fd7406f1da74e2a8b9755fdd395aded3e16dd9160406000207fffffffffffffffffffffffffffffffffffffffffffffffffffffffffffffff008154169055604051908152a1005b503461000e5760007ffffffffffffffffffffffffffffffffffffffffffffffffffffffffffffffffc36011261000e57602073ffffffffffffffffffffffffffffffffffffffff60005416604051908152f35b503461000e5773ffffffffffffffffffffffffffffffffffffffff61034c3661013e565b166000526001602052602060ff604060002054166040519015158152f35b503461000e576103793661013e565b6000549073ffffffffffffffffffffffffffffffffffffffff808316916103a133841461047f565b1680156103fb57807fffffffffffffffffffffffff000000000000000000000000000000000000000060009416178355604051917f8be0079c531659141344cd1fd0a4f28419497f9722a3daafe3b4186f6b6457e08484a3f35b60846040517f08c379a000000000000000000000000000000000000000000000000000000000815260206004820152602660248201527f4f776e61626c653a206e6577206f776e657220697320746865207a65726f206160448201527f64647265737300000000000000000000000000000000000000000000000000006064820152fd5b1561048657565b60646040517f08c379a000000000000000000000000000000000000000000000000000000000815260206004820152602060248201527f4f776e61626c653a2063616c6c6572206973206e6f7420746865206f776e65726044820152fdfea26469706673582212203880d6e160b7c7134c99a6a3f7bf7f2927b7eb042285e2a4c4818e904b3c265564736f6c634300080e0033",
  "devdoc": {
    "kind": "dev",
    "methods": {
      "approveWallet(address)": {
        "params": {
          "_wallet": "the wallet to approve"
        }
      },
      "check(address)": {
        "params": {
          "_wallet": "the wallet to check"
        },
        "returns": {
          "_0": "true if wallet is whitelisted"
        }
      },
      "owner()": {
        "details": "Returns the address of the current owner."
      },
      "renounceOwnership()": {
        "details": "Leaves the contract without owner. It will not be possible to call `onlyOwner` functions anymore. Can only be called by the current owner. NOTE: Renouncing ownership will leave the contract without an owner, thereby removing any functionality that is only available to the owner."
      },
      "revokeWallet(address)": {
        "params": {
          "_wallet": "the wallet to revoke"
        }
      },
      "transferOwnership(address)": {
        "details": "Transfers ownership of the contract to a new account (`newOwner`). Can only be called by the current owner."
      }
    },
    "title": "Whitelist",
    "version": 1
  },
  "userdoc": {
    "events": {
      "ApproveWallet(address)": {
        "notice": "events of approval and revoking wallets"
      }
    },
    "kind": "user",
    "methods": {
      "approveWallet(address)": {
        "notice": "approves wallet"
      },
      "check(address)": {
        "notice": "checks if _wallet is whitelisted"
      },
      "revokeWallet(address)": {
        "notice": "revokes wallet"
      }
    },
    "notice": "contains a list of wallets allowed to perform a certain operation",
    "version": 1
  },
  "storageLayout": {
    "storage": [
      {
        "astId": 660,
        "contract": "contracts/wombat-governance/Whitelist.sol:Whitelist",
        "label": "_owner",
        "offset": 0,
        "slot": "0",
        "type": "t_address"
      },
      {
        "astId": 15072,
        "contract": "contracts/wombat-governance/Whitelist.sol:Whitelist",
        "label": "wallets",
        "offset": 0,
        "slot": "1",
        "type": "t_mapping(t_address,t_bool)"
      }
    ],
    "types": {
      "t_address": {
        "encoding": "inplace",
        "label": "address",
        "numberOfBytes": "20"
      },
      "t_bool": {
        "encoding": "inplace",
        "label": "bool",
        "numberOfBytes": "1"
      },
      "t_mapping(t_address,t_bool)": {
        "encoding": "mapping",
        "key": "t_address",
        "label": "mapping(address => bool)",
        "numberOfBytes": "32",
        "value": "t_bool"
      }
    }
  }
}