{
  "address": "0x1c37494A269ba80aF34A17d9bC48f796c71b01a7",
  "abi": [
    {
      "inputs": [],
      "name": "ADAPTOR__CONTRACT_NOT_TRUSTED",
      "type": "error"
    },
    {
      "inputs": [],
      "name": "ADAPTOR__INVALID_TOKEN",
      "type": "error"
    },
    {
      "anonymous": false,
      "inputs": [
        {
          "indexed": false,
          "internalType": "uint256",
          "name": "emitterChainId",
          "type": "uint256"
        },
        {
          "indexed": false,
          "internalType": "address",
          "name": "emitterAddress",
          "type": "address"
        },
        {
          "indexed": false,
          "internalType": "uint256",
          "name": "nonce",
          "type": "uint256"
        },
        {
          "indexed": false,
          "internalType": "bytes",
          "name": "data",
          "type": "bytes"
        }
      ],
      "name": "LogError",
      "type": "event"
    },
    {
      "anonymous": false,
      "inputs": [
        {
          "indexed": true,
          "internalType": "address",
          "name": "previousOwner",
          "type": "address"
        },
        {
          "indexed": true,
          "internalType": "address",
          "name": "newOwner",
          "type": "address"
        }
      ],
      "name": "OwnershipTransferred",
      "type": "event"
    },
    {
      "anonymous": false,
      "inputs": [
        {
          "indexed": false,
          "internalType": "address",
          "name": "account",
          "type": "address"
        }
      ],
      "name": "Paused",
      "type": "event"
    },
    {
      "anonymous": false,
      "inputs": [
        {
          "indexed": false,
          "internalType": "address",
          "name": "account",
          "type": "address"
        }
      ],
      "name": "Unpaused",
      "type": "event"
    },
    {
      "inputs": [
        {
          "internalType": "uint256",
          "name": "wormholeChainId",
          "type": "uint256"
        },
        {
          "internalType": "address",
          "name": "addr",
          "type": "address"
        }
      ],
      "name": "approveContract",
      "outputs": [],
      "stateMutability": "nonpayable",
      "type": "function"
    },
    {
      "inputs": [
        {
          "internalType": "uint256",
          "name": "wormholeChainId",
          "type": "uint256"
        },
        {
          "internalType": "address",
          "name": "tokenAddr",
          "type": "address"
        }
      ],
      "name": "approveToken",
      "outputs": [],
      "stateMutability": "nonpayable",
      "type": "function"
    },
    {
      "inputs": [
        {
          "internalType": "address",
          "name": "toToken",
          "type": "address"
        },
        {
          "internalType": "uint256",
          "name": "toChain",
          "type": "uint256"
        },
        {
          "internalType": "uint256",
          "name": "fromAmount",
          "type": "uint256"
        },
        {
          "internalType": "uint256",
          "name": "minimumToAmount",
          "type": "uint256"
        },
        {
          "internalType": "address",
          "name": "receiver",
          "type": "address"
        },
        {
          "internalType": "uint32",
          "name": "nonce",
          "type": "uint32"
        }
      ],
      "name": "bridgeCreditAndSwapForTokens",
      "outputs": [
        {
          "internalType": "uint256",
          "name": "trackingId",
          "type": "uint256"
        }
      ],
      "stateMutability": "payable",
      "type": "function"
    },
    {
      "inputs": [
        {
          "internalType": "uint16",
          "name": "toChain",
          "type": "uint16"
        },
        {
          "internalType": "uint32",
          "name": "gasLimit",
          "type": "uint32"
        }
      ],
      "name": "estimateCost",
      "outputs": [
        {
          "internalType": "uint256",
          "name": "gasEstimate",
          "type": "uint256"
        }
      ],
      "stateMutability": "view",
      "type": "function"
    },
    {
      "inputs": [
        {
          "internalType": "contract ICoreRelayer",
          "name": "_relayer",
          "type": "address"
        },
        {
          "internalType": "contract IWormhole",
          "name": "_wormhole",
          "type": "address"
        },
        {
          "internalType": "contract IMegaPool",
          "name": "_megaPool",
          "type": "address"
        }
      ],
      "name": "initialize",
      "outputs": [],
      "stateMutability": "nonpayable",
      "type": "function"
    },
    {
      "inputs": [],
      "name": "megaPool",
      "outputs": [
        {
          "internalType": "contract IMegaPool",
          "name": "",
          "type": "address"
        }
      ],
      "stateMutability": "view",
      "type": "function"
    },
    {
      "inputs": [],
      "name": "owner",
      "outputs": [
        {
          "internalType": "address",
          "name": "",
          "type": "address"
        }
      ],
      "stateMutability": "view",
      "type": "function"
    },
    {
      "inputs": [],
      "name": "paused",
      "outputs": [
        {
          "internalType": "bool",
          "name": "",
          "type": "bool"
        }
      ],
      "stateMutability": "view",
      "type": "function"
    },
    {
      "inputs": [
        {
          "internalType": "bytes[]",
          "name": "vaas",
          "type": "bytes[]"
        },
        {
          "internalType": "bytes[]",
          "name": "",
          "type": "bytes[]"
        }
      ],
      "name": "receiveWormholeMessages",
      "outputs": [],
      "stateMutability": "nonpayable",
      "type": "function"
    },
    {
      "inputs": [],
      "name": "relayer",
      "outputs": [
        {
          "internalType": "contract ICoreRelayer",
          "name": "",
          "type": "address"
        }
      ],
      "stateMutability": "view",
      "type": "function"
    },
    {
      "inputs": [],
      "name": "renounceOwnership",
      "outputs": [],
      "stateMutability": "nonpayable",
      "type": "function"
    },
    {
      "inputs": [
        {
          "internalType": "uint16",
          "name": "sourceChain",
          "type": "uint16"
        },
        {
          "internalType": "bytes32",
          "name": "sourceTxHash",
          "type": "bytes32"
        },
        {
          "internalType": "uint32",
          "name": "sourceNonce",
          "type": "uint32"
        },
        {
          "internalType": "uint16",
          "name": "targetChain",
          "type": "uint16"
        }
      ],
      "name": "requestRedeliver",
      "outputs": [],
      "stateMutability": "payable",
      "type": "function"
    },
    {
      "inputs": [
        {
          "internalType": "uint256",
          "name": "wormholeChainId",
          "type": "uint256"
        },
        {
          "internalType": "address",
          "name": "tokenAddr",
          "type": "address"
        }
      ],
      "name": "revokeToken",
      "outputs": [],
      "stateMutability": "nonpayable",
      "type": "function"
    },
    {
      "inputs": [
        {
          "internalType": "uint256",
          "name": "wormholeChainId",
          "type": "uint256"
        },
        {
          "internalType": "address",
          "name": "addr",
          "type": "address"
        }
      ],
      "name": "revokeTrustedContract",
      "outputs": [],
      "stateMutability": "nonpayable",
      "type": "function"
    },
    {
      "inputs": [
        {
          "internalType": "uint256",
          "name": "wormholeChainId",
          "type": "uint256"
        },
        {
          "internalType": "address",
          "name": "addr",
          "type": "address"
        }
      ],
      "name": "setTargetAdaptor",
      "outputs": [],
      "stateMutability": "nonpayable",
      "type": "function"
    },
    {
      "inputs": [
        {
          "internalType": "uint256",
          "name": "",
          "type": "uint256"
        }
      ],
      "name": "targetAdaptor",
      "outputs": [
        {
          "internalType": "address",
          "name": "",
          "type": "address"
        }
      ],
      "stateMutability": "view",
      "type": "function"
    },
    {
      "inputs": [
        {
          "internalType": "address",
          "name": "newOwner",
          "type": "address"
        }
      ],
      "name": "transferOwnership",
      "outputs": [],
      "stateMutability": "nonpayable",
      "type": "function"
    },
    {
      "inputs": [
        {
          "internalType": "uint256",
          "name": "",
          "type": "uint256"
        },
        {
          "internalType": "address",
          "name": "",
          "type": "address"
        }
      ],
      "name": "trustedContract",
      "outputs": [
        {
          "internalType": "bool",
          "name": "",
          "type": "bool"
        }
      ],
      "stateMutability": "view",
      "type": "function"
    },
    {
      "inputs": [
        {
          "internalType": "uint256",
          "name": "",
          "type": "uint256"
        },
        {
          "internalType": "address",
          "name": "",
          "type": "address"
        }
      ],
      "name": "validToken",
      "outputs": [
        {
          "internalType": "bool",
          "name": "",
          "type": "bool"
        }
      ],
      "stateMutability": "view",
      "type": "function"
    },
    {
      "inputs": [],
      "name": "wormhole",
      "outputs": [
        {
          "internalType": "contract IWormhole",
          "name": "",
          "type": "address"
        }
      ],
      "stateMutability": "view",
      "type": "function"
    }
  ],
  "transactionHash": "0x5a2c693c802a96745a0b86246733c24357d1ea1106e349046ff05c6b3667db37",
  "args": [],
  "solcInputHash": "19313200000ccf0f849b145dcbc5c113",
  "bytecode": "0x6080806040523461001657611dcb908161001c8239f35b600080fdfe60806040526004361015610013575b600080fd5b60003560e01c806359cae117146101a35780635c975abb1461019a5780636faf5d6f1461019157806371233d3b14610188578063715018a61461017f5780637419a2da146101765780638406c0791461016d57806384acd1bb146101645780638da5cb5b1461015b578063a1dd748614610152578063a2cf8e5614610149578063b0fb9b6c14610140578063bc3646d414610137578063bdc990541461012e578063c0c53b8b14610125578063c1f74e501461011c578063cad816ef14610113578063d2180e611461010a578063f03ab13f146101015763f2fde38b146100f957600080fd5b61000e610ff1565b5061000e610f88565b5061000e610ef7565b5061000e610cdf565b5061000e6109b2565b5061000e610937565b5061000e61090f565b5061000e6108d8565b5061000e610677565b5061000e6105d9565b5061000e61058d565b5061000e610565565b5061000e61053d565b5061000e610515565b5061000e610403565b5061000e610384565b5061000e61032c565b5061000e61028d565b5061000e610269565b5061000e6101bd565b6001600160a01b0381160361000e57565b503461000e57604036600319011261000e576024356004356101de826101ac565b6101f46001600160a01b036033541633146110a0565b60009181835260cb60205260ff6102218260408620906001600160a01b0316600052602052604060002090565b54161561025a5761024f91835260cb60205260408320906001600160a01b0316600052602052604060002090565b805460ff1916905580f35b8280fd5b600091031261000e57565b503461000e57600036600319011261000e57602060ff609754166040519015158152f35b503461000e57604036600319011261000e576024356004356102ae826101ac565b6102c46001600160a01b036033541633146110a0565b60009181835260ca60205260ff6102f18260408620906001600160a01b0316600052602052604060002090565b541661025a5761031e91835260ca60205260408320906001600160a01b0316600052602052604060002090565b805460ff1916600117905580f35b503461000e57604036600319011261000e57602060ff610378602435610351816101ac565b60043560005260cb84526040600020906001600160a01b0316600052602052604060002090565b54166040519015158152f35b503461000e576000806003193601126103f2578060335473ffffffffffffffffffffffffffffffffffffffff196001600160a01b038216916103c73384146110a0565b166033557f8be0079c531659141344cd1fd0a4f28419497f9722a3daafe3b4186f6b6457e08280a380f35b80fd5b63ffffffff81160361000e57565b5060c036600319011261000e5760043561041c816101ac565b6024359060843561042c816101ac565b60a43590610439826103f5565b6001600160a01b0360c9541633036104d1578360005260cb60205260ff610477846040600020906001600160a01b0316600052602052604060002090565b5416156104a7576104a3936104939360643591604435916119b1565b6040519081529081906020820190565b0390f35b60046040517f859ce673000000000000000000000000000000000000000000000000000000008152fd5b606460405162461bcd60e51b815260206004820152601760248201527f41646170746f723a206e6f7420617574686f72697a65640000000000000000006044820152fd5b503461000e57600036600319011261000e5760206001600160a01b0360fe5416604051908152f35b503461000e57600036600319011261000e5760206001600160a01b0360ff5416604051908152f35b503461000e57600036600319011261000e5760206001600160a01b0360335416604051908152f35b503461000e57604036600319011261000e57602060ff6103786024356105b2816101ac565b60043560005260ca84526040600020906001600160a01b0316600052602052604060002090565b503461000e57604036600319011261000e576024356004356105fa826101ac565b6106106001600160a01b036033541633146110a0565b60009181835260ca60205260ff61063d8260408620906001600160a01b0316600052602052604060002090565b54161561025a5761024f91835260ca60205260408320906001600160a01b0316600052602052604060002090565b61ffff81160361000e57565b50608036600319011261000e5760046107e681356106948161066b565b604435906106a1826103f5565b6064356106ad8161066b565b6106ce6106c260ff546001600160a01b031690565b6001600160a01b031690565b926107026040518095631a90a21960e01b8252816020998a9889935afa9081156108cb575b60009161089e575b5034611193565b916107186106c260fe546001600160a01b031690565b926040519163421a178b60e01b8352600083600481885afa928315610891575b60009361086a575b506107789061075a610750610b72565b61ffff9098168852565b6024358789015263ffffffff8516604088015261ffff166060870152565b6080850152600060a085015260c0840152604051926310fc145b60e01b84528484600481865afa93841561085d575b60009461082e575b50604051958694859384937fc953b38000000000000000000000000000000000000000000000000000000000855260048501611291565b039134905af18015610821575b6107f957005b8161081892903d1061081a575b6108108183610b50565b810190611258565b005b503d610806565b610829611156565b6107f3565b61084f919450853d8711610856575b6108478183610b50565b81019061122e565b92386107af565b503d61083d565b610865611156565b6107a7565b61088a9061077892943d8091833e6108828183610b50565b810190611208565b9290610740565b610899611156565b610738565b6108be9150863d88116108c4575b6108b68183610b50565b810190611147565b386106fb565b503d6108ac565b6108d3611156565b6106f3565b503461000e57602036600319011261000e5760043560005261010060205260206001600160a01b0360406000205416604051908152f35b503461000e57600036600319011261000e5760206001600160a01b0360c95416604051908152f35b503461000e57606036600319011261000e57600435610955816101ac565b602435610961816101ac565b60443561096d816101ac565b6001600160a01b0380928173ffffffffffffffffffffffffffffffffffffffff1995168560fe54161760fe55168360ff54161760ff55169060c954161760c955600080f35b503461000e57604036600319011261000e576104a36004356109d38161066b565b610a80602435916109e3836103f5565b6109f86106c260fe546001600160a01b031690565b604051906310fc145b60e01b825260209485938484600481865afa938415610aef575b600094610ad0575b50604051958694859384937fd9e789600000000000000000000000000000000000000000000000000000000085526004850191604091949363ffffffff6001600160a01b039261ffff606087019816865216602085015216910152565b03915afa918215610ac3575b600092610aa6575b50506040519081529081906020820190565b610abc9250803d106108c4576108b68183610b50565b3880610a94565b610acb611156565b610a8c565b610ae8919450853d8711610856576108478183610b50565b9238610a23565b610af7611156565b610a1b565b50634e487b7160e01b600052604160045260246000fd5b6080810190811067ffffffffffffffff821117610b2f57604052565b610b37610afc565b604052565b67ffffffffffffffff8111610b2f57604052565b90601f8019910116810190811067ffffffffffffffff821117610b2f57604052565b6040519060e0820182811067ffffffffffffffff821117610b2f57604052565b60405190610160820182811067ffffffffffffffff821117610b2f57604052565b6040519060c0820182811067ffffffffffffffff821117610b2f57604052565b60209067ffffffffffffffff8111610bed575b60051b0190565b610bf5610afc565b610be6565b60209067ffffffffffffffff8111610c18575b601f01601f19160190565b610c20610afc565b610c0d565b9080601f8301121561000e57813591610c3d83610bd3565b92604090610c4d82519586610b50565b808552602093848087019260051b8501019381851161000e57858101925b858410610c7c575050505050505090565b833567ffffffffffffffff811161000e57820183603f8201121561000e578781013591610ca883610bfa565b610cb488519182610b50565b8381528588858501011161000e5760008a8581968b8397018386013783010152815201930192610c6b565b503461000e5760408060031936011261000e57600467ffffffffffffffff813581811161000e57610d139036908401610c25565b9060243581811161000e57610d2b9036908501610c25565b50610d4e610d476106c26106c260fe546001600160a01b031690565b331461131e565b81519260005b610d5d8561117a565b81101561081857610eaf610d5d91610dc36000610d856106c260ff546001600160a01b031690565b610d8f848a611385565b51908b5180809581947fc0fd8bde0000000000000000000000000000000000000000000000000000000083528b83016115a0565b03915afa8015610eea575b600090818291610ebe575b610de49293506115b1565b6060810190610e0c610df8835161ffff1690565b61ffff1660005260ca602052604060002090565b90610e4e610e4a610e436080840194610e2c86516001600160a01b031690565b6001600160a01b0316600052602052604060002090565b5460ff1690565b1590565b610eb657610ea892610e82610e908361ffff8c610ea0610e7360e060a0990151611804565b9a9297919890995161ffff1690565b9a516001600160a01b031690565b94015167ffffffffffffffff1690565b169616611653565b5050611369565b9050610d54565b505050611369565b5050610de491610edf913d8091833e610ed78183610b50565b810190611484565b919250829190610dd9565b610ef2611156565b610dce565b503461000e57604036600319011261000e57602435600435610f18826101ac565b610f2e6001600160a01b036033541633146110a0565b60009181835260cb60205260ff610f5b8260408620906001600160a01b0316600052602052604060002090565b541661025a5761031e91835260cb60205260408320906001600160a01b0316600052602052604060002090565b503461000e57604036600319011261000e57602435610fa6816101ac565b6001600160a01b03610fbd816033541633146110a0565b6004356000526101006020526040600020911673ffffffffffffffffffffffffffffffffffffffff19825416179055600080f35b503461000e57602036600319011261000e5760043561100f816101ac565b6001600160a01b03611026816033541633146110a0565b81161561103657610818906110eb565b608460405162461bcd60e51b815260206004820152602660248201527f4f776e61626c653a206e6577206f776e657220697320746865207a65726f206160448201527f64647265737300000000000000000000000000000000000000000000000000006064820152fd5b156110a757565b606460405162461bcd60e51b815260206004820152602060248201527f4f776e61626c653a2063616c6c6572206973206e6f7420746865206f776e65726044820152fd5b603354906001600160a01b03809116918273ffffffffffffffffffffffffffffffffffffffff19821617603355167f8be0079c531659141344cd1fd0a4f28419497f9722a3daafe3b4186f6b6457e0600080a3565b1561000e57565b9081602091031261000e575190565b506040513d6000823e3d90fd5b50634e487b7160e01b600052601160045260246000fd5b60001981019190821161118957565b611191611163565b565b9190820391821161118957565b60005b8381106111b35750506000910152565b81810151838201526020016111a3565b81601f8201121561000e5780516111d981610bfa565b926111e76040519485610b50565b8184526020828401011161000e5761120591602080850191016111a0565b90565b9060208282031261000e57815167ffffffffffffffff811161000e5761120592016111c3565b9081602091031261000e5751611205816101ac565b519067ffffffffffffffff8216820361000e57565b9081602091031261000e5761120590611243565b90602091611285815180928185528580860191016111a0565b601f01601f1916010190565b60409061130f61130060c0611191969897956060855261ffff8082511660608701526020820151608087015263ffffffff878301511660a087015260608201511682860152608081015160e086015260a0810151610100860152015160e061012085015261014084019061126c565b63ffffffff9097166020830152565b01906001600160a01b03169052565b1561132557565b606460405162461bcd60e51b815260206004820152600e60248201527f6e6f7420617574686f72697a65640000000000000000000000000000000000006044820152fd5b6001906000198114611379570190565b611381611163565b0190565b80518210156113995760209160051b010190565b634e487b7160e01b600052603260045260246000fd5b519060ff8216820361000e57565b5190611191826103f5565b51906111918261066b565b81601f8201121561000e578051906113ea82610bd3565b926040926113fa84519586610b50565b808552602091828087019260071b8501019381851161000e578301915b8483106114275750505050505090565b60808383031261000e5783608091875161144081610b13565b8551815282860151838201526114578987016113af565b8982015260606114688188016113af565b90820152815201920191611417565b5190811515820361000e57565b909160608284031261000e5781519167ffffffffffffffff9283811161000e5781016101608186031261000e576114b9610b92565b906114c3816113af565b82526114d1602082016113bd565b60208301526114e2604082016113bd565b60408301526114f3606082016113c8565b60608301526080810151608083015261150e60a08201611243565b60a083015261151f60c082016113af565b60c083015260e081015185811161000e578661153c9183016111c3565b60e083015261010061154f8183016113bd565b908301526101208082015186811161000e578761156d9184016113d3565b9083015261014080910151908201529361158960208301611477565b93604083015190811161000e5761120592016111c3565b90602061120592818152019061126c565b156115b95750565b6115dd9060405191829162461bcd60e51b835260206004840152602483019061126c565b0390fd5b919082604091031261000e576020825192015190565b3d15611622573d9061160882610bfa565b916116166040519384610b50565b82523d6000602084013e565b606090565b90926001600160a01b03608093611205969584521660208301526040820152816060820152019061126c565b8397969495929561166f6106c260c9546001600160a01b031690565b604080517f8e4b4d600000000000000000000000000000000000000000000000000000000081526001600160a01b03998a166004820152602481019790975260448701929092529684166064860152608485018690529384818060a4810103816000809b5af18791816117d4575b506117c65750907f27ee0f3d8737cb51dd7564bc60c6fc5b568f00faf467af122f020a11a66ba1549161171d6117116115f7565b87875194859485611627565b0390a16117356106c260c9546001600160a01b031690565b91823b156117c257517f53a284d0000000000000000000000000000000000000000000000000000000008152600481018790526001600160a01b03919091166024820152604481019290925282908290606490829084905af180156117b5575b61179e57509190565b806117ab6117b192610b3c565b8061025e565b9190565b6117bd611156565b611795565b8480fd5b975050505050505060019190565b6117f5919250863d88116117fd575b6117ed8183610b50565b8101906115e1565b5090386116dd565b503d6117e3565b601481511061188157602081015160601c603482511061183d57603482015192611836611830846118d8565b936118c5565b9193929190565b606460405162461bcd60e51b815260206004820152601560248201527f746f55696e743235365f6f75744f66426f756e647300000000000000000000006044820152fd5b606460405162461bcd60e51b815260206004820152601560248201527f746f416464726573735f6f75744f66426f756e647300000000000000000000006044820152fd5b6068815110611881576074015160601c90565b605481511061183d576054015190565b929161190c60409163ffffffff60c89416865260606020870152606086019061126c565b930152565b908160011b917f7fffffffffffffffffffffffffffffffffffffffffffffffffffffffffffffff81160361118957565b9193926001600160a01b039063ffffffff6119a460a06040956060885261ffff8151166060890152602081015160808901528681015182890152606081015160c0890152608081015160e0890152015160c061010088015261012087019061126c565b9616602085015216910152565b9594909293919360ff546119cb906001600160a01b031690565b6001600160a01b0316936040948592835195631a90a21960e01b9a8b88526020998a9889809360049782848a81845afa908c8883159a67ffffffffffffffff98611a6298611b8e9d611d25575b600096611d00575b50611a2d93949596611d32565b928a8d51968795869485937fb19a437e00000000000000000000000000000000000000000000000000000000855284016118e8565b03925af1908115611cf3575b600091611cd6575b50169b61ffff611a8881881115611140565b85611ab16106c2611aa48a600052610100602052604060002090565b546001600160a01b031690565b611ac66106c260ff546001600160a01b031690565b95611af5611aef8c51878152888187818d5afa908115611cc9575b600091611cac575b50611911565b34611193565b916000611b0d6106c260fe546001600160a01b031690565b809d519586809263421a178b60e01b82525afa938415611c9f575b600094611c77575b50611b536001600160a01b03939495611b47610bb3565b9c168c9061ffff169052565b868b0152168c89015260608801526000608088015260a0870152848a518094819382525afa908115611c6a575b600091611c53575034611193565b908651966310fc145b60e01b885286888381885afa978815611c46575b600098611c23575b50611bea9051978896879586947f7fd66e3e0000000000000000000000000000000000000000000000000000000086528501611941565b03925af18015611c16575b611bfd575050565b81611c1392903d1061081a576108108183610b50565b50565b611c1e611156565b611bf5565b611bea919850611c3f90883d8a11610856576108478183610b50565b9790611bb3565b611c4e611156565b611bab565b6108be9150873d89116108c4576108b68183610b50565b611c72611156565b611b80565b611c97611b53916001600160a01b0395963d8091833e6108828183610b50565b949350611b30565b611ca7611156565b611b28565b611cc39150893d8b116108c4576108b68183610b50565b38611ae9565b611cd1611156565b611ae1565b611ced9150833d851161081a576108108183610b50565b38611a76565b611cfb611156565b611a6e565b611a2d94959650611d1d90893d8b116108c4576108b68183610b50565b959493611a20565b611d2d611156565b611a18565b91929092604051936bffffffffffffffffffffffff19809460601b1660208601526034850152605484015260601b1660748201526068815260a0810181811067ffffffffffffffff821117611d88575b60405290565b611d90610afc565b611d8256fea2646970667358221220f206d94036ed9191f87e182a029ea569c2e98471609c927d867984d99ba0ee1664736f6c63430008110033",
  "devdoc": {
    "kind": "dev",
    "methods": {
      "bridgeCreditAndSwapForTokens(address,uint256,uint256,uint256,address,uint32)": {
        "details": "Nonce must be non-zero, otherwise wormhole will revert the message"
      },
      "owner()": {
        "details": "Returns the address of the current owner."
      },
      "paused()": {
        "details": "Returns true if the contract is paused, and false otherwise."
      },
      "renounceOwnership()": {
        "details": "Leaves the contract without owner. It will not be possible to call `onlyOwner` functions anymore. Can only be called by the current owner. NOTE: Renouncing ownership will leave the contract without an owner, thereby removing any functionality that is only available to the owner."
      },
      "transferOwnership(address)": {
        "details": "Transfers ownership of the contract to a new account (`newOwner`). Can only be called by the current owner."
      }
    },
    "version": 1
  },
  "userdoc": {
    "kind": "user",
    "methods": {
      "approveContract(uint256,address)": {
        "notice": "Permisioneed functions"
      },
      "estimateCost(uint16,uint32)": {
        "notice": "Read-only functions"
      },
      "receiveWormholeMessages(bytes[],bytes[])": {
        "notice": "Permisioneed functions"
      },
      "requestRedeliver(uint16,bytes32,uint32,uint16)": {
        "notice": "External/public functions"
      },
      "trustedContract(uint256,address)": {
        "notice": "whether the contract is a trusted adaptor"
      },
      "validToken(uint256,address)": {
        "notice": "whether the token is valid"
      }
    },
    "version": 1
  },
  "storageLayout": {
    "storage": [
      {
        "astId": 130,
        "contract": "contracts/wombat-core/pool/WormholeAdaptor.sol:WormholeAdaptor",
        "label": "_initialized",
        "offset": 0,
        "slot": "0",
        "type": "t_bool"
      },
      {
        "astId": 133,
        "contract": "contracts/wombat-core/pool/WormholeAdaptor.sol:WormholeAdaptor",
        "label": "_initializing",
        "offset": 1,
        "slot": "0",
        "type": "t_bool"
      },
      {
        "astId": 651,
        "contract": "contracts/wombat-core/pool/WormholeAdaptor.sol:WormholeAdaptor",
        "label": "__gap",
        "offset": 0,
        "slot": "1",
        "type": "t_array(t_uint256)50_storage"
      },
      {
        "astId": 10,
        "contract": "contracts/wombat-core/pool/WormholeAdaptor.sol:WormholeAdaptor",
        "label": "_owner",
        "offset": 0,
        "slot": "51",
        "type": "t_address"
      },
      {
        "astId": 122,
        "contract": "contracts/wombat-core/pool/WormholeAdaptor.sol:WormholeAdaptor",
        "label": "__gap",
        "offset": 0,
        "slot": "52",
        "type": "t_array(t_uint256)49_storage"
      },
      {
        "astId": 322,
        "contract": "contracts/wombat-core/pool/WormholeAdaptor.sol:WormholeAdaptor",
        "label": "_status",
        "offset": 0,
        "slot": "101",
        "type": "t_uint256"
      },
      {
        "astId": 366,
        "contract": "contracts/wombat-core/pool/WormholeAdaptor.sol:WormholeAdaptor",
        "label": "__gap",
        "offset": 0,
        "slot": "102",
        "type": "t_array(t_uint256)49_storage"
      },
      {
        "astId": 218,
        "contract": "contracts/wombat-core/pool/WormholeAdaptor.sol:WormholeAdaptor",
        "label": "_paused",
        "offset": 0,
        "slot": "151",
        "type": "t_bool"
      },
      {
        "astId": 307,
        "contract": "contracts/wombat-core/pool/WormholeAdaptor.sol:WormholeAdaptor",
        "label": "__gap",
        "offset": 0,
        "slot": "152",
        "type": "t_array(t_uint256)49_storage"
      },
      {
        "astId": 2380,
        "contract": "contracts/wombat-core/pool/WormholeAdaptor.sol:WormholeAdaptor",
        "label": "megaPool",
        "offset": 0,
        "slot": "201",
        "type": "t_contract(IMegaPool)1841"
      },
      {
        "astId": 2387,
        "contract": "contracts/wombat-core/pool/WormholeAdaptor.sol:WormholeAdaptor",
        "label": "trustedContract",
        "offset": 0,
        "slot": "202",
        "type": "t_mapping(t_uint256,t_mapping(t_address,t_bool))"
      },
      {
        "astId": 2394,
        "contract": "contracts/wombat-core/pool/WormholeAdaptor.sol:WormholeAdaptor",
        "label": "validToken",
        "offset": 0,
        "slot": "203",
        "type": "t_mapping(t_uint256,t_mapping(t_address,t_bool))"
      },
      {
        "astId": 2398,
        "contract": "contracts/wombat-core/pool/WormholeAdaptor.sol:WormholeAdaptor",
        "label": "_gap",
        "offset": 0,
        "slot": "204",
        "type": "t_array(t_uint256)50_storage"
      },
      {
        "astId": 9073,
        "contract": "contracts/wombat-core/pool/WormholeAdaptor.sol:WormholeAdaptor",
        "label": "relayer",
        "offset": 0,
        "slot": "254",
        "type": "t_contract(ICoreRelayer)1755"
      },
      {
        "astId": 9076,
        "contract": "contracts/wombat-core/pool/WormholeAdaptor.sol:WormholeAdaptor",
        "label": "wormhole",
        "offset": 0,
        "slot": "255",
        "type": "t_contract(IWormhole)2355"
      },
      {
        "astId": 9080,
        "contract": "contracts/wombat-core/pool/WormholeAdaptor.sol:WormholeAdaptor",
        "label": "targetAdaptor",
        "offset": 0,
        "slot": "256",
        "type": "t_mapping(t_uint256,t_address)"
      }
    ],
    "types": {
      "t_address": {
        "encoding": "inplace",
        "label": "address",
        "numberOfBytes": "20"
      },
      "t_array(t_uint256)49_storage": {
        "base": "t_uint256",
        "encoding": "inplace",
        "label": "uint256[49]",
        "numberOfBytes": "1568"
      },
      "t_array(t_uint256)50_storage": {
        "base": "t_uint256",
        "encoding": "inplace",
        "label": "uint256[50]",
        "numberOfBytes": "1600"
      },
      "t_bool": {
        "encoding": "inplace",
        "label": "bool",
        "numberOfBytes": "1"
      },
      "t_contract(ICoreRelayer)1755": {
        "encoding": "inplace",
        "label": "contract ICoreRelayer",
        "numberOfBytes": "20"
      },
      "t_contract(IMegaPool)1841": {
        "encoding": "inplace",
        "label": "contract IMegaPool",
        "numberOfBytes": "20"
      },
      "t_contract(IWormhole)2355": {
        "encoding": "inplace",
        "label": "contract IWormhole",
        "numberOfBytes": "20"
      },
      "t_mapping(t_address,t_bool)": {
        "encoding": "mapping",
        "key": "t_address",
        "label": "mapping(address => bool)",
        "numberOfBytes": "32",
        "value": "t_bool"
      },
      "t_mapping(t_uint256,t_address)": {
        "encoding": "mapping",
        "key": "t_uint256",
        "label": "mapping(uint256 => address)",
        "numberOfBytes": "32",
        "value": "t_address"
      },
      "t_mapping(t_uint256,t_mapping(t_address,t_bool))": {
        "encoding": "mapping",
        "key": "t_uint256",
        "label": "mapping(uint256 => mapping(address => bool))",
        "numberOfBytes": "32",
        "value": "t_mapping(t_address,t_bool)"
      },
      "t_uint256": {
        "encoding": "inplace",
        "label": "uint256",
        "numberOfBytes": "32"
      }
    }
  }
}